{
	"data": {
		"bytecode": {
			"linkReferences": {},
			"object": "60806040523480156200001157600080fd5b5060408051600c8082526101a0820190925260009160208201610180803683370190505090506000632c40805960e01b82826200004e8162000d22565b93508151811062000063576200006362000d4a565b6001600160e01b031990921660209283029190910190910152639142376560e01b8282620000918162000d22565b935081518110620000a657620000a662000d4a565b6001600160e01b031990921660209283029190910190910152620000d3632f40adcf60e21b600162000480565b6307e4c70760e21b8282620000e88162000d22565b935081518110620000fd57620000fd62000d4a565b6001600160e01b0319909216602092830291909101909101526200012a6307e4c70760e21b600162000480565b637a0ed62760e01b82826200013f8162000d22565b93508151811062000154576200015462000d4a565b6001600160e01b0319909216602092830291909101909101526356fe50af60e11b8282620001828162000d22565b93508151811062000197576200019762000d4a565b6001600160e01b0319909216602092830291909101909101526314bbdacb60e21b8282620001c58162000d22565b935081518110620001da57620001da62000d4a565b6001600160e01b0319909216602092830291909101909101526366ffd66360e11b8282620002088162000d22565b9350815181106200021d576200021d62000d4a565b6001600160e01b0319909216602092830291909101909101526200024a6348e2b09360e01b600162000480565b6301ffc9a760e01b82826200025f8162000d22565b93508151811062000274576200027462000d4a565b6001600160e01b031990921660209283029190910190910152620002a16301ffc9a760e01b600162000480565b638da5cb5b60e01b8282620002b68162000d22565b935081518110620002cb57620002cb62000d4a565b6001600160e01b03199092166020928302919091019091015263455a8a8560e11b8282620002f98162000d22565b9350815181106200030e576200030e62000d4a565b6001600160e01b03199092166020928302919091019091015263f2fde38b60e01b82826200033c8162000d22565b93508151811062000351576200035162000d4a565b6001600160e01b0319909216602092830291909101909101526379ba509760e01b82826200037f8162000d22565b93508151811062000394576200039462000d4a565b6001600160e01b031990921660209283029190910190910152620003c16307f5828d60e41b600162000480565b604080516001808252818301909252600091816020015b60408051606080820183526000808352602083015291810191909152815260200190600190039081620003d8579050506040805160608101909152308152909150602081016000815260200184815250816000815181106200043e576200043e62000d4a565b60200260200101819052506200046c81600060405180602001604052806000815250620004f760201b60201c565b6200047733620006f8565b50505062000eef565b6001600160e01b03198083169003620004ac5760405163b0a19dd560e01b815260040160405180910390fd5b6001600160e01b03199190911660009081527ffc606c433378e3a7e0a6a531deac289b66caa1b4aa8554fd4ab2c6f1570f92d860205260409020805460ff1916911515919091179055565b7f177481ac65e4292921c69f62d1cc7f57541261e5d61c8175cf4e36a01c9bfc94547f177481ac65e4292921c69f62d1cc7f57541261e5d61c8175cf4e36a01c9bfc939061ffff811690819060009060071615620005675750600381901c60009081526002840160205260409020545b60005b8751811015620006665760008882815181106200058b576200058b62000d4a565b60200260200101519050600081602001519050816040015151600003620005c55760405163eb6c3aeb60e01b815260040160405180910390fd5b6000816002811115620005dc57620005dc62000d60565b03620005fb57620005f08786868562000772565b90955093506200065b565b600181600281111562000612576200061262000d60565b036200062a57620006248783620008ba565b6200065b565b600281600281111562000641576200064162000d60565b036200065b57620006558786868562000a09565b90955093505b50506001016200056a565b50828214620006835760018401805461ffff191661ffff84161790555b6007821615620006a657600382901c600090815260028501602052604090208190555b7f8faa70878671ccd212d20771b795c50af8fd3ff6cf27f4bde57e5d4de0aeb673878787604051620006db9392919062000dca565b60405180910390a1620006ef868662000c35565b50505050505050565b7f8a22373512790c48b83a1fe2efdd2888d4a917bcdc24d0adf63e60f67168046080546040516001600160a01b038481169216907f8be0079c531659141344cd1fd0a4f28419497f9722a3daafe3b4186f6b6457e090600090a380546001600160a01b0319166001600160a01b0392909216919091179055565b805160009081906001600160a01b031630148015906200079b575082516001600160a01b03163b155b15620007ba57604051633ddc5cab60e21b815260040160405180910390fd5b60005b836040015151811015620008ad57600084604001518281518110620007e657620007e662000d4a565b6020908102919091018101516001600160e01b031981166000908152918a9052604090912054909150606081901c156200083357604051634923a77160e11b815260040160405180910390fd5b85516001600160e01b0319838116600081815260208d90526040902060609390931b6001600160601b0319168b1790925560058a901b60e090811692831c91831c199990991617978190036200089d57600389901c600090815260028b0160205260408120989098555b50505060019586019501620007bd565b5093959294509192505050565b80516001600160a01b03163b620008e457604051633ddc5cab60e21b815260040160405180910390fd5b60005b81604001515181101562000a045760008260400151828151811062000910576200091062000d4a565b6020908102919091018101516001600160e01b03198116600090815291869052604090912054909150606081901c806200095d576040516337e25a9760e11b815260040160405180910390fd5b306001600160a01b03821603620009875760405163e983573160e01b815260040160405180910390fd5b84600001516001600160a01b0316816001600160a01b031603620009be576040516330baabf360e11b815260040160405180910390fd5b5083516001600160e01b031992909216600090815260208690526040902060609290921b6001600160601b0319166001600160601b0391909116179055600101620008e7565b505050565b805160009081906001600160a01b03161562000a3857604051633ab3490960e21b815260040160405180910390fd5b600385901c6007861660005b85604001515181101562000c215760008660400151828151811062000a6d5762000a6d62000d4a565b6020908102919091018101516001600160e01b031981166000908152918c9052604090912054909150606081901c62000ab9576040516337e25a9760e11b815260040160405180910390fd5b30606082901c0362000ade5760405163e983573160e01b815260040160405180910390fd5b600089900362000b0c57600019909401600081815260028c0160205260409020549850936007935062000b14565b600019909301925b600584901b89901b6000806001600160e01b03198084169086161462000b67576001600160e01b03198316600090815260208f90526040902080546001600160601b0319166001600160601b0386161790555b50506001600160e01b03198316600090815260208d90526040812055611fff600383901c1660e0600584901b1687821462000bcc57600082815260028f016020526040902080546001600160e01b031980841c19909116908516831c17905562000bf0565b80836001600160e01b031916901c816001600160e01b031960001b901c198d16179b505b8660000362000c0f57600088815260028f01602052604081208190559b505b50506001909301925062000a44915050565b5060039190911b1796939550929350505050565b8051156001600160a01b038316151462000c62576040516326df4ccd60e01b815260040160405180910390fd5b6001600160a01b0382161562000d1e576001600160a01b038216301462000cac576001600160a01b0382163b62000cac57604051633ddc5cab60e21b815260040160405180910390fd5b6000826001600160a01b03168260405162000cc8919062000ed1565b600060405180830381855af49150503d806000811462000d05576040519150601f19603f3d011682016040523d82523d6000602084013e62000d0a565b606091505b505090508062000a04573d6000803e3d6000fd5b5050565b60006001820162000d4357634e487b7160e01b600052601160045260246000fd5b5060010190565b634e487b7160e01b600052603260045260246000fd5b634e487b7160e01b600052602160045260246000fd5b60005b8381101562000d9357818101518382015260200162000d79565b50506000910152565b6000815180845262000db681602086016020860162000d76565b601f01601f19169290920160200192915050565b60006060808301818452808751808352608092508286019150828160051b8701016020808b0160005b8481101562000e9f57898403607f19018652815180516001600160a01b0316855283810151898601906003811062000e3b57634e487b7160e01b600052602160045260246000fd5b868601526040918201519186018a905281519081905290840190600090898701905b8083101562000e895783516001600160e01b031916825292860192600192909201919086019062000e5d565b5097850197955050509082019060010162000df3565b50506001600160a01b038a1690880152868103604088015262000ec3818962000d9c565b9a9950505050505050505050565b6000825162000ee581846020870162000d76565b9190910192915050565b611bca8062000eff6000396000f3fe6080604052600436106100ab5760003560e01c80638ab5150a116100645780638ab5150a146102205780638da5cb5b14610235578063914237651461024a578063adfca15e1461026a578063cdffacc614610297578063f2fde38b146102de576100b2565b806301ffc9a71461010c5780631f931c1c1461017a5780632c4080591461019a57806352ef6b2c146101c757806379ba5097146101e95780637a0ed627146101fe576100b2565b366100b257005b60006100bc6102fe565b90506001600160a01b0381163b6100e6576040516321f27f0d60e21b815260040160405180910390fd5b3660008037600080366000845af43d6000803e808015610105573d6000f35b3d6000fd5b005b34801561011857600080fd5b5061016561012736600461153d565b6001600160e01b03191660009081527ffc606c433378e3a7e0a6a531deac289b66caa1b4aa8554fd4ab2c6f1570f92d8602052604090205460ff1690565b60405190151581526020015b60405180910390f35b34801561018657600080fd5b5061010a6101953660046115bf565b61030d565b3480156101a657600080fd5b506101af610397565b6040516001600160a01b039091168152602001610171565b3480156101d357600080fd5b506101dc6103ca565b6040516101719190611671565b3480156101f557600080fd5b5061010a61057c565b34801561020a57600080fd5b506102136105bf565b6040516101719190611703565b34801561022c57600080fd5b506101af6109f6565b34801561024157600080fd5b506101af610a00565b34801561025657600080fd5b5061010a610265366004611780565b610a0a565b34801561027657600080fd5b5061028a610285366004611780565b610a83565b604051610171919061179b565b3480156102a357600080fd5b506101af6102b236600461153d565b6001600160e01b0319166000908152600080516020611b75833981519152602052604090205460601c90565b3480156102ea57600080fd5b5061010a6102f9366004611780565b610bde565b6000610308610c20565b905090565b610315610c81565b6001600160a01b0316336001600160a01b03161461034657604051632f7a8ee160e01b815260040160405180910390fd5b6103906103538587611871565b8484848080601f016020809104026020016040519081016040528093929190818152602001838380828437600092019190915250610cb492505050565b5050505050565b60006103087f177481ac65e4292921c69f62d1cc7f57541261e5d61c8175cf4e36a01c9bfc96546001600160a01b031690565b600080516020611b5583398151915254606090600080516020611b758339815191529061ffff1667ffffffffffffffff811115610409576104096117dd565b604051908082528060200260200182016040528015610432578160200160208202803683370190505b50915060008060005b600184015461ffff16821015610574576000818152600285016020526040812054905b600881101561055f5783610471816119bb565b600188015490955061ffff168511905061055f57600581901b82901b6001600160e01b0319811660009081526020889052604081205460601c90805b88811015610502578a81815181106104c7576104c76119d4565b60200260200101516001600160a01b0316836001600160a01b0316036104f05760019150610502565b806104fa816119bb565b9150506104ad565b5080156105115750505061054d565b818a8981518110610524576105246119d4565b6001600160a01b039092166020928302919091019091015287610546816119bb565b9850505050505b80610557816119bb565b91505061045e565b5050808061056c906119bb565b91505061043b565b505082525090565b610584610e70565b6001600160a01b0316336001600160a01b0316146105b55760405163efd1052d60e01b815260040160405180910390fd5b6105bd610e98565b565b600080516020611b5583398151915254606090600080516020611b758339815191529061ffff1667ffffffffffffffff8111156105fe576105fe6117dd565b60405190808252806020026020018201604052801561064457816020015b60408051808201909152600081526060602082015281526020019060019003908161061c5790505b50600182015490925060009061ffff1667ffffffffffffffff81111561066c5761066c6117dd565b604051908082528060200260200182016040528015610695578160200160208202803683370190505b50905060008060005b600185015461ffff16821015610984576000818152600286016020526040812054905b600881101561096f57836106d4816119bb565b600189015490955061ffff168511905061096f57600581901b82901b6001600160e01b0319811660009081526020899052604081205460601c90805b8881101561082d57826001600160a01b03168c8281518110610734576107346119d4565b6020026020010151600001516001600160a01b03160361081b57838c8281518110610761576107616119d4565b6020026020010151602001518b838151811061077f5761077f6119d4565b602002602001015160ff168151811061079a5761079a6119d4565b60200260200101906001600160e01b03191690816001600160e01b0319168152505060ff8a82815181106107d0576107d06119d4565b602002602001015160ff16106107e557600080fd5b8981815181106107f7576107f76119d4565b60200260200101805180919061080c906119ea565b60ff169052506001915061082d565b80610825816119bb565b915050610710565b50801561083c5750505061095d565b818b898151811061084f5761084f6119d4565b60209081029190910101516001600160a01b03909116905260018a015461ffff1667ffffffffffffffff811115610888576108886117dd565b6040519080825280602002602001820160405280156108b1578160200160208202803683370190505b508b89815181106108c4576108c46119d4565b602002602001015160200181905250828b89815181106108e6576108e66119d4565b602002602001015160200151600081518110610904576109046119d4565b60200260200101906001600160e01b03191690816001600160e01b03191681525050600189898151811061093a5761093a6119d4565b60ff9092166020928302919091019091015287610956816119bb565b9850505050505b80610967816119bb565b9150506106c1565b5050808061097c906119bb565b91505061069e565b5060005b828110156109eb5760008482815181106109a4576109a46119d4565b602002602001015160ff16905060008783815181106109c5576109c56119d4565b6020026020010151602001519050818152505080806109e3906119bb565b915050610988565b508185525050505090565b6000610308610e70565b6000610308610c81565b610a12610c81565b6001600160a01b0316336001600160a01b031614610a4357604051632f7a8ee160e01b815260040160405180910390fd5b7f177481ac65e4292921c69f62d1cc7f57541261e5d61c8175cf4e36a01c9bfc9680546001600160a01b0319166001600160a01b03831617905550565b50565b600080516020611b5583398151915254606090600080516020611b758339815191529061ffff1667ffffffffffffffff811115610ac257610ac26117dd565b604051908082528060200260200182016040528015610aeb578160200160208202803683370190505b50915060008060005b600184015461ffff16821015610bd4576000818152600285016020526040812054905b6008811015610bbf5783610b2a816119bb565b600188015490955061ffff1685119050610bbf57600581901b82901b6001600160e01b0319811660009081526020889052604090205460601c6001600160a01b038a1603610bac5780888781518110610b8557610b856119d4565b6001600160e01b03199092166020928302919091019091015285610ba8816119bb565b9650505b5080610bb7816119bb565b915050610b17565b50508080610bcc906119bb565b915050610af4565b5050825250919050565b610be6610c81565b6001600160a01b0316336001600160a01b031614610c1757604051632f7a8ee160e01b815260040160405180910390fd5b610a8081610ed2565b600080356001600160e01b0319168152600080516020611b75833981519152602052604090205460601c80610c7e57507f177481ac65e4292921c69f62d1cc7f57541261e5d61c8175cf4e36a01c9bfc96546001600160a01b031690565b90565b60007f8a22373512790c48b83a1fe2efdd2888d4a917bcdc24d0adf63e60f6716804605b546001600160a01b0316919050565b600080516020611b5583398151915254600080516020611b758339815191529061ffff811690819060009060071615610cff5750600381901c60009081526002840160205260409020545b60005b8751811015610de4576000888281518110610d1f57610d1f6119d4565b60200260200101519050600081602001519050816040015151600003610d585760405163eb6c3aeb60e01b815260040160405180910390fd5b6000816002811115610d6c57610d6c611a09565b03610d8757610d7d87868685610f15565b9095509350610dda565b6001816002811115610d9b57610d9b611a09565b03610daf57610daa8783611054565b610dda565b6002816002811115610dc357610dc3611a09565b03610dda57610dd48786868561119f565b90955093505b5050600101610d02565b50828214610e005760018401805461ffff191661ffff84161790555b6007821615610e2257600382901c600090815260028501602052604090208190555b7f8faa70878671ccd212d20771b795c50af8fd3ff6cf27f4bde57e5d4de0aeb673878787604051610e5593929190611a6f565b60405180910390a1610e6786866113c2565b50505050505050565b60007f24aa1f7b31fd188a8d3ecfb06bc55c806040e59b03bd4396283442fce6617890610ca5565b610ea1336114a6565b7f24aa1f7b31fd188a8d3ecfb06bc55c806040e59b03bd4396283442fce661789080546001600160a01b0319169055565b7f24aa1f7b31fd188a8d3ecfb06bc55c806040e59b03bd4396283442fce661789080546001600160a01b0319166001600160a01b038316179055610a8081818181565b805160009081906001600160a01b03163014801590610f3d575082516001600160a01b03163b155b15610f5b57604051633ddc5cab60e21b815260040160405180910390fd5b60005b83604001515181101561104757600084604001518281518110610f8357610f836119d4565b6020908102919091018101516001600160e01b031981166000908152918a9052604090912054909150606081901c15610fcf57604051634923a77160e11b815260040160405180910390fd5b85516001600160e01b0319838116600081815260208d90526040902060609390931b6001600160601b0319168b1790925560058a901b60e090811692831c91831c1999909916179781900361103857600389901c600090815260028b0160205260408120989098555b50505060019586019501610f5e565b5093959294509192505050565b80516001600160a01b03163b61107d57604051633ddc5cab60e21b815260040160405180910390fd5b60005b81604001515181101561119a576000826040015182815181106110a5576110a56119d4565b6020908102919091018101516001600160e01b03198116600090815291869052604090912054909150606081901c806110f1576040516337e25a9760e11b815260040160405180910390fd5b306001600160a01b0382160361111a5760405163e983573160e01b815260040160405180910390fd5b84600001516001600160a01b0316816001600160a01b031603611150576040516330baabf360e11b815260040160405180910390fd5b5083516001600160e01b031992909216600090815260208690526040902060609290921b6001600160601b0319166bffffffffffffffffffffffff91909116179055600101611080565b505050565b805160009081906001600160a01b0316156111cd57604051633ab3490960e21b815260040160405180910390fd5b600385901c6007861660005b8560400151518110156113ae576000866040015182815181106111fe576111fe6119d4565b6020908102919091018101516001600160e01b031981166000908152918c9052604090912054909150606081901c611249576040516337e25a9760e11b815260040160405180910390fd5b30606082901c0361126d5760405163e983573160e01b815260040160405180910390fd5b600089900361129957600019909401600081815260028c016020526040902054985093600793506112a1565b600019909301925b600584901b89901b6000806001600160e01b0319808416908616146112f8576001600160e01b03198316600090815260208f90526040902080546001600160601b0319166bffffffffffffffffffffffff86161790555b50506001600160e01b03198316600090815260208d90526040812055611fff600383901c1660e0600584901b1687821461135b57600082815260028f016020526040902080546001600160e01b031980841c19909116908516831c17905561137f565b80836001600160e01b031916901c816001600160e01b031960001b901c198d16179b505b8660000361139d57600088815260028f01602052604081208190559b505b5050600190930192506111d9915050565b5060039190911b1796939550929350505050565b8051156001600160a01b03831615146113ee576040516326df4ccd60e01b815260040160405180910390fd5b6001600160a01b038216156114a2576001600160a01b0382163014611435576001600160a01b0382163b61143557604051633ddc5cab60e21b815260040160405180910390fd5b6000826001600160a01b03168260405161144f9190611b38565b600060405180830381855af49150503d806000811461148a576040519150601f19603f3d011682016040523d82523d6000602084013e61148f565b606091505b505090508061119a573d6000803e3d6000fd5b5050565b7f8a22373512790c48b83a1fe2efdd2888d4a917bcdc24d0adf63e60f67168046080546040516001600160a01b038481169216907f8be0079c531659141344cd1fd0a4f28419497f9722a3daafe3b4186f6b6457e090600090a380546001600160a01b0319166001600160a01b0392909216919091179055565b80356001600160e01b03198116811461153857600080fd5b919050565b60006020828403121561154f57600080fd5b61155882611520565b9392505050565b80356001600160a01b038116811461153857600080fd5b60008083601f84011261158857600080fd5b50813567ffffffffffffffff8111156115a057600080fd5b6020830191508360208285010111156115b857600080fd5b9250929050565b6000806000806000606086880312156115d757600080fd5b853567ffffffffffffffff808211156115ef57600080fd5b818801915088601f83011261160357600080fd5b81358181111561161257600080fd5b8960208260051b850101111561162757600080fd5b6020830197508096505061163d6020890161155f565b9450604088013591508082111561165357600080fd5b5061166088828901611576565b969995985093965092949392505050565b6020808252825182820181905260009190848201906040850190845b818110156116b25783516001600160a01b03168352928401929184019160010161168d565b50909695505050505050565b600081518084526020808501945080840160005b838110156116f85781516001600160e01b031916875295820195908201906001016116d2565b509495945050505050565b60006020808301818452808551808352604092508286019150828160051b87010184880160005b8381101561177257888303603f19018552815180516001600160a01b0316845287015187840187905261175f878501826116be565b958801959350509086019060010161172a565b509098975050505050505050565b60006020828403121561179257600080fd5b6115588261155f565b6020808252825182820181905260009190848201906040850190845b818110156116b25783516001600160e01b031916835292840192918401916001016117b7565b634e487b7160e01b600052604160045260246000fd5b6040516060810167ffffffffffffffff81118282101715611816576118166117dd565b60405290565b604051601f8201601f1916810167ffffffffffffffff81118282101715611845576118456117dd565b604052919050565b600067ffffffffffffffff821115611867576118676117dd565b5060051b60200190565b600061188461187f8461184d565b61181c565b83815260208082019190600586811b8601368111156118a257600080fd5b865b8181101561199857803567ffffffffffffffff808211156118c55760008081fd5b818a019150606082360312156118db5760008081fd5b6118e36117f3565b6118ec8361155f565b815286830135600381106119005760008081fd5b81880152604083810135838111156119185760008081fd5b939093019236601f85011261192f57600092508283fd5b8335925061193f61187f8461184d565b83815292871b8401880192888101903685111561195c5760008081fd5b948901945b848610156119815761197286611520565b82529489019490890190611961565b9183019190915250885250509483019483016118a4565b5092979650505050505050565b634e487b7160e01b600052601160045260246000fd5b6000600182016119cd576119cd6119a5565b5060010190565b634e487b7160e01b600052603260045260246000fd5b600060ff821660ff8103611a0057611a006119a5565b60010192915050565b634e487b7160e01b600052602160045260246000fd5b60005b83811015611a3a578181015183820152602001611a22565b50506000910152565b60008151808452611a5b816020860160208601611a1f565b601f01601f19169290920160200192915050565b6000606080830181845280875180835260808601915060808160051b87010192506020808a016000805b84811015611b0857898703607f19018652825180516001600160a01b031688528481015160038110611ad957634e487b7160e01b84526021600452602484fd5b88860152604090810151908801899052611af5898901826116be565b9750509483019491830191600101611a99565b5050506001600160a01b0389169087015250508381036040850152611b2d8186611a43565b979650505050505050565b60008251611b4a818460208701611a1f565b919091019291505056fe177481ac65e4292921c69f62d1cc7f57541261e5d61c8175cf4e36a01c9bfc94177481ac65e4292921c69f62d1cc7f57541261e5d61c8175cf4e36a01c9bfc93a26469706673582212204fd3e61e32cabd24239218d2a5618d6811f3c53d9103eb5dd773aa327300861664736f6c63430008130033",
			"opcodes": "PUSH1 0x80 PUSH1 0x40 MSTORE CALLVALUE DUP1 ISZERO PUSH3 0x11 JUMPI PUSH1 0x0 DUP1 REVERT JUMPDEST POP PUSH1 0x40 DUP1 MLOAD PUSH1 0xC DUP1 DUP3 MSTORE PUSH2 0x1A0 DUP3 ADD SWAP1 SWAP3 MSTORE PUSH1 0x0 SWAP2 PUSH1 0x20 DUP3 ADD PUSH2 0x180 DUP1 CALLDATASIZE DUP4 CALLDATACOPY ADD SWAP1 POP POP SWAP1 POP PUSH1 0x0 PUSH4 0x2C408059 PUSH1 0xE0 SHL DUP3 DUP3 PUSH3 0x4E DUP2 PUSH3 0xD22 JUMP JUMPDEST SWAP4 POP DUP2 MLOAD DUP2 LT PUSH3 0x63 JUMPI PUSH3 0x63 PUSH3 0xD4A JUMP JUMPDEST PUSH1 0x1 PUSH1 0x1 PUSH1 0xE0 SHL SUB NOT SWAP1 SWAP3 AND PUSH1 0x20 SWAP3 DUP4 MUL SWAP2 SWAP1 SWAP2 ADD SWAP1 SWAP2 ADD MSTORE PUSH4 0x91423765 PUSH1 0xE0 SHL DUP3 DUP3 PUSH3 0x91 DUP2 PUSH3 0xD22 JUMP JUMPDEST SWAP4 POP DUP2 MLOAD DUP2 LT PUSH3 0xA6 JUMPI PUSH3 0xA6 PUSH3 0xD4A JUMP JUMPDEST PUSH1 0x1 PUSH1 0x1 PUSH1 0xE0 SHL SUB NOT SWAP1 SWAP3 AND PUSH1 0x20 SWAP3 DUP4 MUL SWAP2 SWAP1 SWAP2 ADD SWAP1 SWAP2 ADD MSTORE PUSH3 0xD3 PUSH4 0x2F40ADCF PUSH1 0xE2 SHL PUSH1 0x1 PUSH3 0x480 JUMP JUMPDEST PUSH4 0x7E4C707 PUSH1 0xE2 SHL DUP3 DUP3 PUSH3 0xE8 DUP2 PUSH3 0xD22 JUMP JUMPDEST SWAP4 POP DUP2 MLOAD DUP2 LT PUSH3 0xFD JUMPI PUSH3 0xFD PUSH3 0xD4A JUMP JUMPDEST PUSH1 0x1 PUSH1 0x1 PUSH1 0xE0 SHL SUB NOT SWAP1 SWAP3 AND PUSH1 0x20 SWAP3 DUP4 MUL SWAP2 SWAP1 SWAP2 ADD SWAP1 SWAP2 ADD MSTORE PUSH3 0x12A PUSH4 0x7E4C707 PUSH1 0xE2 SHL PUSH1 0x1 PUSH3 0x480 JUMP JUMPDEST PUSH4 0x7A0ED627 PUSH1 0xE0 SHL DUP3 DUP3 PUSH3 0x13F DUP2 PUSH3 0xD22 JUMP JUMPDEST SWAP4 POP DUP2 MLOAD DUP2 LT PUSH3 0x154 JUMPI PUSH3 0x154 PUSH3 0xD4A JUMP JUMPDEST PUSH1 0x1 PUSH1 0x1 PUSH1 0xE0 SHL SUB NOT SWAP1 SWAP3 AND PUSH1 0x20 SWAP3 DUP4 MUL SWAP2 SWAP1 SWAP2 ADD SWAP1 SWAP2 ADD MSTORE PUSH4 0x56FE50AF PUSH1 0xE1 SHL DUP3 DUP3 PUSH3 0x182 DUP2 PUSH3 0xD22 JUMP JUMPDEST SWAP4 POP DUP2 MLOAD DUP2 LT PUSH3 0x197 JUMPI PUSH3 0x197 PUSH3 0xD4A JUMP JUMPDEST PUSH1 0x1 PUSH1 0x1 PUSH1 0xE0 SHL SUB NOT SWAP1 SWAP3 AND PUSH1 0x20 SWAP3 DUP4 MUL SWAP2 SWAP1 SWAP2 ADD SWAP1 SWAP2 ADD MSTORE PUSH4 0x14BBDACB PUSH1 0xE2 SHL DUP3 DUP3 PUSH3 0x1C5 DUP2 PUSH3 0xD22 JUMP JUMPDEST SWAP4 POP DUP2 MLOAD DUP2 LT PUSH3 0x1DA JUMPI PUSH3 0x1DA PUSH3 0xD4A JUMP JUMPDEST PUSH1 0x1 PUSH1 0x1 PUSH1 0xE0 SHL SUB NOT SWAP1 SWAP3 AND PUSH1 0x20 SWAP3 DUP4 MUL SWAP2 SWAP1 SWAP2 ADD SWAP1 SWAP2 ADD MSTORE PUSH4 0x66FFD663 PUSH1 0xE1 SHL DUP3 DUP3 PUSH3 0x208 DUP2 PUSH3 0xD22 JUMP JUMPDEST SWAP4 POP DUP2 MLOAD DUP2 LT PUSH3 0x21D JUMPI PUSH3 0x21D PUSH3 0xD4A JUMP JUMPDEST PUSH1 0x1 PUSH1 0x1 PUSH1 0xE0 SHL SUB NOT SWAP1 SWAP3 AND PUSH1 0x20 SWAP3 DUP4 MUL SWAP2 SWAP1 SWAP2 ADD SWAP1 SWAP2 ADD MSTORE PUSH3 0x24A PUSH4 0x48E2B093 PUSH1 0xE0 SHL PUSH1 0x1 PUSH3 0x480 JUMP JUMPDEST PUSH4 0x1FFC9A7 PUSH1 0xE0 SHL DUP3 DUP3 PUSH3 0x25F DUP2 PUSH3 0xD22 JUMP JUMPDEST SWAP4 POP DUP2 MLOAD DUP2 LT PUSH3 0x274 JUMPI PUSH3 0x274 PUSH3 0xD4A JUMP JUMPDEST PUSH1 0x1 PUSH1 0x1 PUSH1 0xE0 SHL SUB NOT SWAP1 SWAP3 AND PUSH1 0x20 SWAP3 DUP4 MUL SWAP2 SWAP1 SWAP2 ADD SWAP1 SWAP2 ADD MSTORE PUSH3 0x2A1 PUSH4 0x1FFC9A7 PUSH1 0xE0 SHL PUSH1 0x1 PUSH3 0x480 JUMP JUMPDEST PUSH4 0x8DA5CB5B PUSH1 0xE0 SHL DUP3 DUP3 PUSH3 0x2B6 DUP2 PUSH3 0xD22 JUMP JUMPDEST SWAP4 POP DUP2 MLOAD DUP2 LT PUSH3 0x2CB JUMPI PUSH3 0x2CB PUSH3 0xD4A JUMP JUMPDEST PUSH1 0x1 PUSH1 0x1 PUSH1 0xE0 SHL SUB NOT SWAP1 SWAP3 AND PUSH1 0x20 SWAP3 DUP4 MUL SWAP2 SWAP1 SWAP2 ADD SWAP1 SWAP2 ADD MSTORE PUSH4 0x455A8A85 PUSH1 0xE1 SHL DUP3 DUP3 PUSH3 0x2F9 DUP2 PUSH3 0xD22 JUMP JUMPDEST SWAP4 POP DUP2 MLOAD DUP2 LT PUSH3 0x30E JUMPI PUSH3 0x30E PUSH3 0xD4A JUMP JUMPDEST PUSH1 0x1 PUSH1 0x1 PUSH1 0xE0 SHL SUB NOT SWAP1 SWAP3 AND PUSH1 0x20 SWAP3 DUP4 MUL SWAP2 SWAP1 SWAP2 ADD SWAP1 SWAP2 ADD MSTORE PUSH4 0xF2FDE38B PUSH1 0xE0 SHL DUP3 DUP3 PUSH3 0x33C DUP2 PUSH3 0xD22 JUMP JUMPDEST SWAP4 POP DUP2 MLOAD DUP2 LT PUSH3 0x351 JUMPI PUSH3 0x351 PUSH3 0xD4A JUMP JUMPDEST PUSH1 0x1 PUSH1 0x1 PUSH1 0xE0 SHL SUB NOT SWAP1 SWAP3 AND PUSH1 0x20 SWAP3 DUP4 MUL SWAP2 SWAP1 SWAP2 ADD SWAP1 SWAP2 ADD MSTORE PUSH4 0x79BA5097 PUSH1 0xE0 SHL DUP3 DUP3 PUSH3 0x37F DUP2 PUSH3 0xD22 JUMP JUMPDEST SWAP4 POP DUP2 MLOAD DUP2 LT PUSH3 0x394 JUMPI PUSH3 0x394 PUSH3 0xD4A JUMP JUMPDEST PUSH1 0x1 PUSH1 0x1 PUSH1 0xE0 SHL SUB NOT SWAP1 SWAP3 AND PUSH1 0x20 SWAP3 DUP4 MUL SWAP2 SWAP1 SWAP2 ADD SWAP1 SWAP2 ADD MSTORE PUSH3 0x3C1 PUSH4 0x7F5828D PUSH1 0xE4 SHL PUSH1 0x1 PUSH3 0x480 JUMP JUMPDEST PUSH1 0x40 DUP1 MLOAD PUSH1 0x1 DUP1 DUP3 MSTORE DUP2 DUP4 ADD SWAP1 SWAP3 MSTORE PUSH1 0x0 SWAP2 DUP2 PUSH1 0x20 ADD JUMPDEST PUSH1 0x40 DUP1 MLOAD PUSH1 0x60 DUP1 DUP3 ADD DUP4 MSTORE PUSH1 0x0 DUP1 DUP4 MSTORE PUSH1 0x20 DUP4 ADD MSTORE SWAP2 DUP2 ADD SWAP2 SWAP1 SWAP2 MSTORE DUP2 MSTORE PUSH1 0x20 ADD SWAP1 PUSH1 0x1 SWAP1 SUB SWAP1 DUP2 PUSH3 0x3D8 JUMPI SWAP1 POP POP PUSH1 0x40 DUP1 MLOAD PUSH1 0x60 DUP2 ADD SWAP1 SWAP2 MSTORE ADDRESS DUP2 MSTORE SWAP1 SWAP2 POP PUSH1 0x20 DUP2 ADD PUSH1 0x0 DUP2 MSTORE PUSH1 0x20 ADD DUP5 DUP2 MSTORE POP DUP2 PUSH1 0x0 DUP2 MLOAD DUP2 LT PUSH3 0x43E JUMPI PUSH3 0x43E PUSH3 0xD4A JUMP JUMPDEST PUSH1 0x20 MUL PUSH1 0x20 ADD ADD DUP2 SWAP1 MSTORE POP PUSH3 0x46C DUP2 PUSH1 0x0 PUSH1 0x40 MLOAD DUP1 PUSH1 0x20 ADD PUSH1 0x40 MSTORE DUP1 PUSH1 0x0 DUP2 MSTORE POP PUSH3 0x4F7 PUSH1 0x20 SHL PUSH1 0x20 SHR JUMP JUMPDEST PUSH3 0x477 CALLER PUSH3 0x6F8 JUMP JUMPDEST POP POP POP PUSH3 0xEEF JUMP JUMPDEST PUSH1 0x1 PUSH1 0x1 PUSH1 0xE0 SHL SUB NOT DUP1 DUP4 AND SWAP1 SUB PUSH3 0x4AC JUMPI PUSH1 0x40 MLOAD PUSH4 0xB0A19DD5 PUSH1 0xE0 SHL DUP2 MSTORE PUSH1 0x4 ADD PUSH1 0x40 MLOAD DUP1 SWAP2 SUB SWAP1 REVERT JUMPDEST PUSH1 0x1 PUSH1 0x1 PUSH1 0xE0 SHL SUB NOT SWAP2 SWAP1 SWAP2 AND PUSH1 0x0 SWAP1 DUP2 MSTORE PUSH32 0xFC606C433378E3A7E0A6A531DEAC289B66CAA1B4AA8554FD4AB2C6F1570F92D8 PUSH1 0x20 MSTORE PUSH1 0x40 SWAP1 KECCAK256 DUP1 SLOAD PUSH1 0xFF NOT AND SWAP2 ISZERO ISZERO SWAP2 SWAP1 SWAP2 OR SWAP1 SSTORE JUMP JUMPDEST PUSH32 0x177481AC65E4292921C69F62D1CC7F57541261E5D61C8175CF4E36A01C9BFC94 SLOAD PUSH32 0x177481AC65E4292921C69F62D1CC7F57541261E5D61C8175CF4E36A01C9BFC93 SWAP1 PUSH2 0xFFFF DUP2 AND SWAP1 DUP2 SWAP1 PUSH1 0x0 SWAP1 PUSH1 0x7 AND ISZERO PUSH3 0x567 JUMPI POP PUSH1 0x3 DUP2 SWAP1 SHR PUSH1 0x0 SWAP1 DUP2 MSTORE PUSH1 0x2 DUP5 ADD PUSH1 0x20 MSTORE PUSH1 0x40 SWAP1 KECCAK256 SLOAD JUMPDEST PUSH1 0x0 JUMPDEST DUP8 MLOAD DUP2 LT ISZERO PUSH3 0x666 JUMPI PUSH1 0x0 DUP9 DUP3 DUP2 MLOAD DUP2 LT PUSH3 0x58B JUMPI PUSH3 0x58B PUSH3 0xD4A JUMP JUMPDEST PUSH1 0x20 MUL PUSH1 0x20 ADD ADD MLOAD SWAP1 POP PUSH1 0x0 DUP2 PUSH1 0x20 ADD MLOAD SWAP1 POP DUP2 PUSH1 0x40 ADD MLOAD MLOAD PUSH1 0x0 SUB PUSH3 0x5C5 JUMPI PUSH1 0x40 MLOAD PUSH4 0xEB6C3AEB PUSH1 0xE0 SHL DUP2 MSTORE PUSH1 0x4 ADD PUSH1 0x40 MLOAD DUP1 SWAP2 SUB SWAP1 REVERT JUMPDEST PUSH1 0x0 DUP2 PUSH1 0x2 DUP2 GT ISZERO PUSH3 0x5DC JUMPI PUSH3 0x5DC PUSH3 0xD60 JUMP JUMPDEST SUB PUSH3 0x5FB JUMPI PUSH3 0x5F0 DUP8 DUP7 DUP7 DUP6 PUSH3 0x772 JUMP JUMPDEST SWAP1 SWAP6 POP SWAP4 POP PUSH3 0x65B JUMP JUMPDEST PUSH1 0x1 DUP2 PUSH1 0x2 DUP2 GT ISZERO PUSH3 0x612 JUMPI PUSH3 0x612 PUSH3 0xD60 JUMP JUMPDEST SUB PUSH3 0x62A JUMPI PUSH3 0x624 DUP8 DUP4 PUSH3 0x8BA JUMP JUMPDEST PUSH3 0x65B JUMP JUMPDEST PUSH1 0x2 DUP2 PUSH1 0x2 DUP2 GT ISZERO PUSH3 0x641 JUMPI PUSH3 0x641 PUSH3 0xD60 JUMP JUMPDEST SUB PUSH3 0x65B JUMPI PUSH3 0x655 DUP8 DUP7 DUP7 DUP6 PUSH3 0xA09 JUMP JUMPDEST SWAP1 SWAP6 POP SWAP4 POP JUMPDEST POP POP PUSH1 0x1 ADD PUSH3 0x56A JUMP JUMPDEST POP DUP3 DUP3 EQ PUSH3 0x683 JUMPI PUSH1 0x1 DUP5 ADD DUP1 SLOAD PUSH2 0xFFFF NOT AND PUSH2 0xFFFF DUP5 AND OR SWAP1 SSTORE JUMPDEST PUSH1 0x7 DUP3 AND ISZERO PUSH3 0x6A6 JUMPI PUSH1 0x3 DUP3 SWAP1 SHR PUSH1 0x0 SWAP1 DUP2 MSTORE PUSH1 0x2 DUP6 ADD PUSH1 0x20 MSTORE PUSH1 0x40 SWAP1 KECCAK256 DUP2 SWAP1 SSTORE JUMPDEST PUSH32 0x8FAA70878671CCD212D20771B795C50AF8FD3FF6CF27F4BDE57E5D4DE0AEB673 DUP8 DUP8 DUP8 PUSH1 0x40 MLOAD PUSH3 0x6DB SWAP4 SWAP3 SWAP2 SWAP1 PUSH3 0xDCA JUMP JUMPDEST PUSH1 0x40 MLOAD DUP1 SWAP2 SUB SWAP1 LOG1 PUSH3 0x6EF DUP7 DUP7 PUSH3 0xC35 JUMP JUMPDEST POP POP POP POP POP POP POP JUMP JUMPDEST PUSH32 0x8A22373512790C48B83A1FE2EFDD2888D4A917BCDC24D0ADF63E60F671680460 DUP1 SLOAD PUSH1 0x40 MLOAD PUSH1 0x1 PUSH1 0x1 PUSH1 0xA0 SHL SUB DUP5 DUP2 AND SWAP3 AND SWAP1 PUSH32 0x8BE0079C531659141344CD1FD0A4F28419497F9722A3DAAFE3B4186F6B6457E0 SWAP1 PUSH1 0x0 SWAP1 LOG3 DUP1 SLOAD PUSH1 0x1 PUSH1 0x1 PUSH1 0xA0 SHL SUB NOT AND PUSH1 0x1 PUSH1 0x1 PUSH1 0xA0 SHL SUB SWAP3 SWAP1 SWAP3 AND SWAP2 SWAP1 SWAP2 OR SWAP1 SSTORE JUMP JUMPDEST DUP1 MLOAD PUSH1 0x0 SWAP1 DUP2 SWAP1 PUSH1 0x1 PUSH1 0x1 PUSH1 0xA0 SHL SUB AND ADDRESS EQ DUP1 ISZERO SWAP1 PUSH3 0x79B JUMPI POP DUP3 MLOAD PUSH1 0x1 PUSH1 0x1 PUSH1 0xA0 SHL SUB AND EXTCODESIZE ISZERO JUMPDEST ISZERO PUSH3 0x7BA JUMPI PUSH1 0x40 MLOAD PUSH4 0x3DDC5CAB PUSH1 0xE2 SHL DUP2 MSTORE PUSH1 0x4 ADD PUSH1 0x40 MLOAD DUP1 SWAP2 SUB SWAP1 REVERT JUMPDEST PUSH1 0x0 JUMPDEST DUP4 PUSH1 0x40 ADD MLOAD MLOAD DUP2 LT ISZERO PUSH3 0x8AD JUMPI PUSH1 0x0 DUP5 PUSH1 0x40 ADD MLOAD DUP3 DUP2 MLOAD DUP2 LT PUSH3 0x7E6 JUMPI PUSH3 0x7E6 PUSH3 0xD4A JUMP JUMPDEST PUSH1 0x20 SWAP1 DUP2 MUL SWAP2 SWAP1 SWAP2 ADD DUP2 ADD MLOAD PUSH1 0x1 PUSH1 0x1 PUSH1 0xE0 SHL SUB NOT DUP2 AND PUSH1 0x0 SWAP1 DUP2 MSTORE SWAP2 DUP11 SWAP1 MSTORE PUSH1 0x40 SWAP1 SWAP2 KECCAK256 SLOAD SWAP1 SWAP2 POP PUSH1 0x60 DUP2 SWAP1 SHR ISZERO PUSH3 0x833 JUMPI PUSH1 0x40 MLOAD PUSH4 0x4923A771 PUSH1 0xE1 SHL DUP2 MSTORE PUSH1 0x4 ADD PUSH1 0x40 MLOAD DUP1 SWAP2 SUB SWAP1 REVERT JUMPDEST DUP6 MLOAD PUSH1 0x1 PUSH1 0x1 PUSH1 0xE0 SHL SUB NOT DUP4 DUP2 AND PUSH1 0x0 DUP2 DUP2 MSTORE PUSH1 0x20 DUP14 SWAP1 MSTORE PUSH1 0x40 SWAP1 KECCAK256 PUSH1 0x60 SWAP4 SWAP1 SWAP4 SHL PUSH1 0x1 PUSH1 0x1 PUSH1 0x60 SHL SUB NOT AND DUP12 OR SWAP1 SWAP3 SSTORE PUSH1 0x5 DUP11 SWAP1 SHL PUSH1 0xE0 SWAP1 DUP2 AND SWAP3 DUP4 SHR SWAP2 DUP4 SHR NOT SWAP10 SWAP1 SWAP10 AND OR SWAP8 DUP2 SWAP1 SUB PUSH3 0x89D JUMPI PUSH1 0x3 DUP10 SWAP1 SHR PUSH1 0x0 SWAP1 DUP2 MSTORE PUSH1 0x2 DUP12 ADD PUSH1 0x20 MSTORE PUSH1 0x40 DUP2 KECCAK256 SWAP9 SWAP1 SWAP9 SSTORE JUMPDEST POP POP POP PUSH1 0x1 SWAP6 DUP7 ADD SWAP6 ADD PUSH3 0x7BD JUMP JUMPDEST POP SWAP4 SWAP6 SWAP3 SWAP5 POP SWAP2 SWAP3 POP POP POP JUMP JUMPDEST DUP1 MLOAD PUSH1 0x1 PUSH1 0x1 PUSH1 0xA0 SHL SUB AND EXTCODESIZE PUSH3 0x8E4 JUMPI PUSH1 0x40 MLOAD PUSH4 0x3DDC5CAB PUSH1 0xE2 SHL DUP2 MSTORE PUSH1 0x4 ADD PUSH1 0x40 MLOAD DUP1 SWAP2 SUB SWAP1 REVERT JUMPDEST PUSH1 0x0 JUMPDEST DUP2 PUSH1 0x40 ADD MLOAD MLOAD DUP2 LT ISZERO PUSH3 0xA04 JUMPI PUSH1 0x0 DUP3 PUSH1 0x40 ADD MLOAD DUP3 DUP2 MLOAD DUP2 LT PUSH3 0x910 JUMPI PUSH3 0x910 PUSH3 0xD4A JUMP JUMPDEST PUSH1 0x20 SWAP1 DUP2 MUL SWAP2 SWAP1 SWAP2 ADD DUP2 ADD MLOAD PUSH1 0x1 PUSH1 0x1 PUSH1 0xE0 SHL SUB NOT DUP2 AND PUSH1 0x0 SWAP1 DUP2 MSTORE SWAP2 DUP7 SWAP1 MSTORE PUSH1 0x40 SWAP1 SWAP2 KECCAK256 SLOAD SWAP1 SWAP2 POP PUSH1 0x60 DUP2 SWAP1 SHR DUP1 PUSH3 0x95D JUMPI PUSH1 0x40 MLOAD PUSH4 0x37E25A97 PUSH1 0xE1 SHL DUP2 MSTORE PUSH1 0x4 ADD PUSH1 0x40 MLOAD DUP1 SWAP2 SUB SWAP1 REVERT JUMPDEST ADDRESS PUSH1 0x1 PUSH1 0x1 PUSH1 0xA0 SHL SUB DUP3 AND SUB PUSH3 0x987 JUMPI PUSH1 0x40 MLOAD PUSH4 0xE9835731 PUSH1 0xE0 SHL DUP2 MSTORE PUSH1 0x4 ADD PUSH1 0x40 MLOAD DUP1 SWAP2 SUB SWAP1 REVERT JUMPDEST DUP5 PUSH1 0x0 ADD MLOAD PUSH1 0x1 PUSH1 0x1 PUSH1 0xA0 SHL SUB AND DUP2 PUSH1 0x1 PUSH1 0x1 PUSH1 0xA0 SHL SUB AND SUB PUSH3 0x9BE JUMPI PUSH1 0x40 MLOAD PUSH4 0x30BAABF3 PUSH1 0xE1 SHL DUP2 MSTORE PUSH1 0x4 ADD PUSH1 0x40 MLOAD DUP1 SWAP2 SUB SWAP1 REVERT JUMPDEST POP DUP4 MLOAD PUSH1 0x1 PUSH1 0x1 PUSH1 0xE0 SHL SUB NOT SWAP3 SWAP1 SWAP3 AND PUSH1 0x0 SWAP1 DUP2 MSTORE PUSH1 0x20 DUP7 SWAP1 MSTORE PUSH1 0x40 SWAP1 KECCAK256 PUSH1 0x60 SWAP3 SWAP1 SWAP3 SHL PUSH1 0x1 PUSH1 0x1 PUSH1 0x60 SHL SUB NOT AND PUSH1 0x1 PUSH1 0x1 PUSH1 0x60 SHL SUB SWAP2 SWAP1 SWAP2 AND OR SWAP1 SSTORE PUSH1 0x1 ADD PUSH3 0x8E7 JUMP JUMPDEST POP POP POP JUMP JUMPDEST DUP1 MLOAD PUSH1 0x0 SWAP1 DUP2 SWAP1 PUSH1 0x1 PUSH1 0x1 PUSH1 0xA0 SHL SUB AND ISZERO PUSH3 0xA38 JUMPI PUSH1 0x40 MLOAD PUSH4 0x3AB34909 PUSH1 0xE2 SHL DUP2 MSTORE PUSH1 0x4 ADD PUSH1 0x40 MLOAD DUP1 SWAP2 SUB SWAP1 REVERT JUMPDEST PUSH1 0x3 DUP6 SWAP1 SHR PUSH1 0x7 DUP7 AND PUSH1 0x0 JUMPDEST DUP6 PUSH1 0x40 ADD MLOAD MLOAD DUP2 LT ISZERO PUSH3 0xC21 JUMPI PUSH1 0x0 DUP7 PUSH1 0x40 ADD MLOAD DUP3 DUP2 MLOAD DUP2 LT PUSH3 0xA6D JUMPI PUSH3 0xA6D PUSH3 0xD4A JUMP JUMPDEST PUSH1 0x20 SWAP1 DUP2 MUL SWAP2 SWAP1 SWAP2 ADD DUP2 ADD MLOAD PUSH1 0x1 PUSH1 0x1 PUSH1 0xE0 SHL SUB NOT DUP2 AND PUSH1 0x0 SWAP1 DUP2 MSTORE SWAP2 DUP13 SWAP1 MSTORE PUSH1 0x40 SWAP1 SWAP2 KECCAK256 SLOAD SWAP1 SWAP2 POP PUSH1 0x60 DUP2 SWAP1 SHR PUSH3 0xAB9 JUMPI PUSH1 0x40 MLOAD PUSH4 0x37E25A97 PUSH1 0xE1 SHL DUP2 MSTORE PUSH1 0x4 ADD PUSH1 0x40 MLOAD DUP1 SWAP2 SUB SWAP1 REVERT JUMPDEST ADDRESS PUSH1 0x60 DUP3 SWAP1 SHR SUB PUSH3 0xADE JUMPI PUSH1 0x40 MLOAD PUSH4 0xE9835731 PUSH1 0xE0 SHL DUP2 MSTORE PUSH1 0x4 ADD PUSH1 0x40 MLOAD DUP1 SWAP2 SUB SWAP1 REVERT JUMPDEST PUSH1 0x0 DUP10 SWAP1 SUB PUSH3 0xB0C JUMPI PUSH1 0x0 NOT SWAP1 SWAP5 ADD PUSH1 0x0 DUP2 DUP2 MSTORE PUSH1 0x2 DUP13 ADD PUSH1 0x20 MSTORE PUSH1 0x40 SWAP1 KECCAK256 SLOAD SWAP9 POP SWAP4 PUSH1 0x7 SWAP4 POP PUSH3 0xB14 JUMP JUMPDEST PUSH1 0x0 NOT SWAP1 SWAP4 ADD SWAP3 JUMPDEST PUSH1 0x5 DUP5 SWAP1 SHL DUP10 SWAP1 SHL PUSH1 0x0 DUP1 PUSH1 0x1 PUSH1 0x1 PUSH1 0xE0 SHL SUB NOT DUP1 DUP5 AND SWAP1 DUP7 AND EQ PUSH3 0xB67 JUMPI PUSH1 0x1 PUSH1 0x1 PUSH1 0xE0 SHL SUB NOT DUP4 AND PUSH1 0x0 SWAP1 DUP2 MSTORE PUSH1 0x20 DUP16 SWAP1 MSTORE PUSH1 0x40 SWAP1 KECCAK256 DUP1 SLOAD PUSH1 0x1 PUSH1 0x1 PUSH1 0x60 SHL SUB NOT AND PUSH1 0x1 PUSH1 0x1 PUSH1 0x60 SHL SUB DUP7 AND OR SWAP1 SSTORE JUMPDEST POP POP PUSH1 0x1 PUSH1 0x1 PUSH1 0xE0 SHL SUB NOT DUP4 AND PUSH1 0x0 SWAP1 DUP2 MSTORE PUSH1 0x20 DUP14 SWAP1 MSTORE PUSH1 0x40 DUP2 KECCAK256 SSTORE PUSH2 0x1FFF PUSH1 0x3 DUP4 SWAP1 SHR AND PUSH1 0xE0 PUSH1 0x5 DUP5 SWAP1 SHL AND DUP8 DUP3 EQ PUSH3 0xBCC JUMPI PUSH1 0x0 DUP3 DUP2 MSTORE PUSH1 0x2 DUP16 ADD PUSH1 0x20 MSTORE PUSH1 0x40 SWAP1 KECCAK256 DUP1 SLOAD PUSH1 0x1 PUSH1 0x1 PUSH1 0xE0 SHL SUB NOT DUP1 DUP5 SHR NOT SWAP1 SWAP2 AND SWAP1 DUP6 AND DUP4 SHR OR SWAP1 SSTORE PUSH3 0xBF0 JUMP JUMPDEST DUP1 DUP4 PUSH1 0x1 PUSH1 0x1 PUSH1 0xE0 SHL SUB NOT AND SWAP1 SHR DUP2 PUSH1 0x1 PUSH1 0x1 PUSH1 0xE0 SHL SUB NOT PUSH1 0x0 SHL SWAP1 SHR NOT DUP14 AND OR SWAP12 POP JUMPDEST DUP7 PUSH1 0x0 SUB PUSH3 0xC0F JUMPI PUSH1 0x0 DUP9 DUP2 MSTORE PUSH1 0x2 DUP16 ADD PUSH1 0x20 MSTORE PUSH1 0x40 DUP2 KECCAK256 DUP2 SWAP1 SSTORE SWAP12 POP JUMPDEST POP POP PUSH1 0x1 SWAP1 SWAP4 ADD SWAP3 POP PUSH3 0xA44 SWAP2 POP POP JUMP JUMPDEST POP PUSH1 0x3 SWAP2 SWAP1 SWAP2 SHL OR SWAP7 SWAP4 SWAP6 POP SWAP3 SWAP4 POP POP POP POP JUMP JUMPDEST DUP1 MLOAD ISZERO PUSH1 0x1 PUSH1 0x1 PUSH1 0xA0 SHL SUB DUP4 AND ISZERO EQ PUSH3 0xC62 JUMPI PUSH1 0x40 MLOAD PUSH4 0x26DF4CCD PUSH1 0xE0 SHL DUP2 MSTORE PUSH1 0x4 ADD PUSH1 0x40 MLOAD DUP1 SWAP2 SUB SWAP1 REVERT JUMPDEST PUSH1 0x1 PUSH1 0x1 PUSH1 0xA0 SHL SUB DUP3 AND ISZERO PUSH3 0xD1E JUMPI PUSH1 0x1 PUSH1 0x1 PUSH1 0xA0 SHL SUB DUP3 AND ADDRESS EQ PUSH3 0xCAC JUMPI PUSH1 0x1 PUSH1 0x1 PUSH1 0xA0 SHL SUB DUP3 AND EXTCODESIZE PUSH3 0xCAC JUMPI PUSH1 0x40 MLOAD PUSH4 0x3DDC5CAB PUSH1 0xE2 SHL DUP2 MSTORE PUSH1 0x4 ADD PUSH1 0x40 MLOAD DUP1 SWAP2 SUB SWAP1 REVERT JUMPDEST PUSH1 0x0 DUP3 PUSH1 0x1 PUSH1 0x1 PUSH1 0xA0 SHL SUB AND DUP3 PUSH1 0x40 MLOAD PUSH3 0xCC8 SWAP2 SWAP1 PUSH3 0xED1 JUMP JUMPDEST PUSH1 0x0 PUSH1 0x40 MLOAD DUP1 DUP4 SUB DUP2 DUP6 GAS DELEGATECALL SWAP2 POP POP RETURNDATASIZE DUP1 PUSH1 0x0 DUP2 EQ PUSH3 0xD05 JUMPI PUSH1 0x40 MLOAD SWAP2 POP PUSH1 0x1F NOT PUSH1 0x3F RETURNDATASIZE ADD AND DUP3 ADD PUSH1 0x40 MSTORE RETURNDATASIZE DUP3 MSTORE RETURNDATASIZE PUSH1 0x0 PUSH1 0x20 DUP5 ADD RETURNDATACOPY PUSH3 0xD0A JUMP JUMPDEST PUSH1 0x60 SWAP2 POP JUMPDEST POP POP SWAP1 POP DUP1 PUSH3 0xA04 JUMPI RETURNDATASIZE PUSH1 0x0 DUP1 RETURNDATACOPY RETURNDATASIZE PUSH1 0x0 REVERT JUMPDEST POP POP JUMP JUMPDEST PUSH1 0x0 PUSH1 0x1 DUP3 ADD PUSH3 0xD43 JUMPI PUSH4 0x4E487B71 PUSH1 0xE0 SHL PUSH1 0x0 MSTORE PUSH1 0x11 PUSH1 0x4 MSTORE PUSH1 0x24 PUSH1 0x0 REVERT JUMPDEST POP PUSH1 0x1 ADD SWAP1 JUMP JUMPDEST PUSH4 0x4E487B71 PUSH1 0xE0 SHL PUSH1 0x0 MSTORE PUSH1 0x32 PUSH1 0x4 MSTORE PUSH1 0x24 PUSH1 0x0 REVERT JUMPDEST PUSH4 0x4E487B71 PUSH1 0xE0 SHL PUSH1 0x0 MSTORE PUSH1 0x21 PUSH1 0x4 MSTORE PUSH1 0x24 PUSH1 0x0 REVERT JUMPDEST PUSH1 0x0 JUMPDEST DUP4 DUP2 LT ISZERO PUSH3 0xD93 JUMPI DUP2 DUP2 ADD MLOAD DUP4 DUP3 ADD MSTORE PUSH1 0x20 ADD PUSH3 0xD79 JUMP JUMPDEST POP POP PUSH1 0x0 SWAP2 ADD MSTORE JUMP JUMPDEST PUSH1 0x0 DUP2 MLOAD DUP1 DUP5 MSTORE PUSH3 0xDB6 DUP2 PUSH1 0x20 DUP7 ADD PUSH1 0x20 DUP7 ADD PUSH3 0xD76 JUMP JUMPDEST PUSH1 0x1F ADD PUSH1 0x1F NOT AND SWAP3 SWAP1 SWAP3 ADD PUSH1 0x20 ADD SWAP3 SWAP2 POP POP JUMP JUMPDEST PUSH1 0x0 PUSH1 0x60 DUP1 DUP4 ADD DUP2 DUP5 MSTORE DUP1 DUP8 MLOAD DUP1 DUP4 MSTORE PUSH1 0x80 SWAP3 POP DUP3 DUP7 ADD SWAP2 POP DUP3 DUP2 PUSH1 0x5 SHL DUP8 ADD ADD PUSH1 0x20 DUP1 DUP12 ADD PUSH1 0x0 JUMPDEST DUP5 DUP2 LT ISZERO PUSH3 0xE9F JUMPI DUP10 DUP5 SUB PUSH1 0x7F NOT ADD DUP7 MSTORE DUP2 MLOAD DUP1 MLOAD PUSH1 0x1 PUSH1 0x1 PUSH1 0xA0 SHL SUB AND DUP6 MSTORE DUP4 DUP2 ADD MLOAD DUP10 DUP7 ADD SWAP1 PUSH1 0x3 DUP2 LT PUSH3 0xE3B JUMPI PUSH4 0x4E487B71 PUSH1 0xE0 SHL PUSH1 0x0 MSTORE PUSH1 0x21 PUSH1 0x4 MSTORE PUSH1 0x24 PUSH1 0x0 REVERT JUMPDEST DUP7 DUP7 ADD MSTORE PUSH1 0x40 SWAP2 DUP3 ADD MLOAD SWAP2 DUP7 ADD DUP11 SWAP1 MSTORE DUP2 MLOAD SWAP1 DUP2 SWAP1 MSTORE SWAP1 DUP5 ADD SWAP1 PUSH1 0x0 SWAP1 DUP10 DUP8 ADD SWAP1 JUMPDEST DUP1 DUP4 LT ISZERO PUSH3 0xE89 JUMPI DUP4 MLOAD PUSH1 0x1 PUSH1 0x1 PUSH1 0xE0 SHL SUB NOT AND DUP3 MSTORE SWAP3 DUP7 ADD SWAP3 PUSH1 0x1 SWAP3 SWAP1 SWAP3 ADD SWAP2 SWAP1 DUP7 ADD SWAP1 PUSH3 0xE5D JUMP JUMPDEST POP SWAP8 DUP6 ADD SWAP8 SWAP6 POP POP POP SWAP1 DUP3 ADD SWAP1 PUSH1 0x1 ADD PUSH3 0xDF3 JUMP JUMPDEST POP POP PUSH1 0x1 PUSH1 0x1 PUSH1 0xA0 SHL SUB DUP11 AND SWAP1 DUP9 ADD MSTORE DUP7 DUP2 SUB PUSH1 0x40 DUP9 ADD MSTORE PUSH3 0xEC3 DUP2 DUP10 PUSH3 0xD9C JUMP JUMPDEST SWAP11 SWAP10 POP POP POP POP POP POP POP POP POP POP JUMP JUMPDEST PUSH1 0x0 DUP3 MLOAD PUSH3 0xEE5 DUP2 DUP5 PUSH1 0x20 DUP8 ADD PUSH3 0xD76 JUMP JUMPDEST SWAP2 SWAP1 SWAP2 ADD SWAP3 SWAP2 POP POP JUMP JUMPDEST PUSH2 0x1BCA DUP1 PUSH3 0xEFF PUSH1 0x0 CODECOPY PUSH1 0x0 RETURN INVALID PUSH1 0x80 PUSH1 0x40 MSTORE PUSH1 0x4 CALLDATASIZE LT PUSH2 0xAB JUMPI PUSH1 0x0 CALLDATALOAD PUSH1 0xE0 SHR DUP1 PUSH4 0x8AB5150A GT PUSH2 0x64 JUMPI DUP1 PUSH4 0x8AB5150A EQ PUSH2 0x220 JUMPI DUP1 PUSH4 0x8DA5CB5B EQ PUSH2 0x235 JUMPI DUP1 PUSH4 0x91423765 EQ PUSH2 0x24A JUMPI DUP1 PUSH4 0xADFCA15E EQ PUSH2 0x26A JUMPI DUP1 PUSH4 0xCDFFACC6 EQ PUSH2 0x297 JUMPI DUP1 PUSH4 0xF2FDE38B EQ PUSH2 0x2DE JUMPI PUSH2 0xB2 JUMP JUMPDEST DUP1 PUSH4 0x1FFC9A7 EQ PUSH2 0x10C JUMPI DUP1 PUSH4 0x1F931C1C EQ PUSH2 0x17A JUMPI DUP1 PUSH4 0x2C408059 EQ PUSH2 0x19A JUMPI DUP1 PUSH4 0x52EF6B2C EQ PUSH2 0x1C7 JUMPI DUP1 PUSH4 0x79BA5097 EQ PUSH2 0x1E9 JUMPI DUP1 PUSH4 0x7A0ED627 EQ PUSH2 0x1FE JUMPI PUSH2 0xB2 JUMP JUMPDEST CALLDATASIZE PUSH2 0xB2 JUMPI STOP JUMPDEST PUSH1 0x0 PUSH2 0xBC PUSH2 0x2FE JUMP JUMPDEST SWAP1 POP PUSH1 0x1 PUSH1 0x1 PUSH1 0xA0 SHL SUB DUP2 AND EXTCODESIZE PUSH2 0xE6 JUMPI PUSH1 0x40 MLOAD PUSH4 0x21F27F0D PUSH1 0xE2 SHL DUP2 MSTORE PUSH1 0x4 ADD PUSH1 0x40 MLOAD DUP1 SWAP2 SUB SWAP1 REVERT JUMPDEST CALLDATASIZE PUSH1 0x0 DUP1 CALLDATACOPY PUSH1 0x0 DUP1 CALLDATASIZE PUSH1 0x0 DUP5 GAS DELEGATECALL RETURNDATASIZE PUSH1 0x0 DUP1 RETURNDATACOPY DUP1 DUP1 ISZERO PUSH2 0x105 JUMPI RETURNDATASIZE PUSH1 0x0 RETURN JUMPDEST RETURNDATASIZE PUSH1 0x0 REVERT JUMPDEST STOP JUMPDEST CALLVALUE DUP1 ISZERO PUSH2 0x118 JUMPI PUSH1 0x0 DUP1 REVERT JUMPDEST POP PUSH2 0x165 PUSH2 0x127 CALLDATASIZE PUSH1 0x4 PUSH2 0x153D JUMP JUMPDEST PUSH1 0x1 PUSH1 0x1 PUSH1 0xE0 SHL SUB NOT AND PUSH1 0x0 SWAP1 DUP2 MSTORE PUSH32 0xFC606C433378E3A7E0A6A531DEAC289B66CAA1B4AA8554FD4AB2C6F1570F92D8 PUSH1 0x20 MSTORE PUSH1 0x40 SWAP1 KECCAK256 SLOAD PUSH1 0xFF AND SWAP1 JUMP JUMPDEST PUSH1 0x40 MLOAD SWAP1 ISZERO ISZERO DUP2 MSTORE PUSH1 0x20 ADD JUMPDEST PUSH1 0x40 MLOAD DUP1 SWAP2 SUB SWAP1 RETURN JUMPDEST CALLVALUE DUP1 ISZERO PUSH2 0x186 JUMPI PUSH1 0x0 DUP1 REVERT JUMPDEST POP PUSH2 0x10A PUSH2 0x195 CALLDATASIZE PUSH1 0x4 PUSH2 0x15BF JUMP JUMPDEST PUSH2 0x30D JUMP JUMPDEST CALLVALUE DUP1 ISZERO PUSH2 0x1A6 JUMPI PUSH1 0x0 DUP1 REVERT JUMPDEST POP PUSH2 0x1AF PUSH2 0x397 JUMP JUMPDEST PUSH1 0x40 MLOAD PUSH1 0x1 PUSH1 0x1 PUSH1 0xA0 SHL SUB SWAP1 SWAP2 AND DUP2 MSTORE PUSH1 0x20 ADD PUSH2 0x171 JUMP JUMPDEST CALLVALUE DUP1 ISZERO PUSH2 0x1D3 JUMPI PUSH1 0x0 DUP1 REVERT JUMPDEST POP PUSH2 0x1DC PUSH2 0x3CA JUMP JUMPDEST PUSH1 0x40 MLOAD PUSH2 0x171 SWAP2 SWAP1 PUSH2 0x1671 JUMP JUMPDEST CALLVALUE DUP1 ISZERO PUSH2 0x1F5 JUMPI PUSH1 0x0 DUP1 REVERT JUMPDEST POP PUSH2 0x10A PUSH2 0x57C JUMP JUMPDEST CALLVALUE DUP1 ISZERO PUSH2 0x20A JUMPI PUSH1 0x0 DUP1 REVERT JUMPDEST POP PUSH2 0x213 PUSH2 0x5BF JUMP JUMPDEST PUSH1 0x40 MLOAD PUSH2 0x171 SWAP2 SWAP1 PUSH2 0x1703 JUMP JUMPDEST CALLVALUE DUP1 ISZERO PUSH2 0x22C JUMPI PUSH1 0x0 DUP1 REVERT JUMPDEST POP PUSH2 0x1AF PUSH2 0x9F6 JUMP JUMPDEST CALLVALUE DUP1 ISZERO PUSH2 0x241 JUMPI PUSH1 0x0 DUP1 REVERT JUMPDEST POP PUSH2 0x1AF PUSH2 0xA00 JUMP JUMPDEST CALLVALUE DUP1 ISZERO PUSH2 0x256 JUMPI PUSH1 0x0 DUP1 REVERT JUMPDEST POP PUSH2 0x10A PUSH2 0x265 CALLDATASIZE PUSH1 0x4 PUSH2 0x1780 JUMP JUMPDEST PUSH2 0xA0A JUMP JUMPDEST CALLVALUE DUP1 ISZERO PUSH2 0x276 JUMPI PUSH1 0x0 DUP1 REVERT JUMPDEST POP PUSH2 0x28A PUSH2 0x285 CALLDATASIZE PUSH1 0x4 PUSH2 0x1780 JUMP JUMPDEST PUSH2 0xA83 JUMP JUMPDEST PUSH1 0x40 MLOAD PUSH2 0x171 SWAP2 SWAP1 PUSH2 0x179B JUMP JUMPDEST CALLVALUE DUP1 ISZERO PUSH2 0x2A3 JUMPI PUSH1 0x0 DUP1 REVERT JUMPDEST POP PUSH2 0x1AF PUSH2 0x2B2 CALLDATASIZE PUSH1 0x4 PUSH2 0x153D JUMP JUMPDEST PUSH1 0x1 PUSH1 0x1 PUSH1 0xE0 SHL SUB NOT AND PUSH1 0x0 SWAP1 DUP2 MSTORE PUSH1 0x0 DUP1 MLOAD PUSH1 0x20 PUSH2 0x1B75 DUP4 CODECOPY DUP2 MLOAD SWAP2 MSTORE PUSH1 0x20 MSTORE PUSH1 0x40 SWAP1 KECCAK256 SLOAD PUSH1 0x60 SHR SWAP1 JUMP JUMPDEST CALLVALUE DUP1 ISZERO PUSH2 0x2EA JUMPI PUSH1 0x0 DUP1 REVERT JUMPDEST POP PUSH2 0x10A PUSH2 0x2F9 CALLDATASIZE PUSH1 0x4 PUSH2 0x1780 JUMP JUMPDEST PUSH2 0xBDE JUMP JUMPDEST PUSH1 0x0 PUSH2 0x308 PUSH2 0xC20 JUMP JUMPDEST SWAP1 POP SWAP1 JUMP JUMPDEST PUSH2 0x315 PUSH2 0xC81 JUMP JUMPDEST PUSH1 0x1 PUSH1 0x1 PUSH1 0xA0 SHL SUB AND CALLER PUSH1 0x1 PUSH1 0x1 PUSH1 0xA0 SHL SUB AND EQ PUSH2 0x346 JUMPI PUSH1 0x40 MLOAD PUSH4 0x2F7A8EE1 PUSH1 0xE0 SHL DUP2 MSTORE PUSH1 0x4 ADD PUSH1 0x40 MLOAD DUP1 SWAP2 SUB SWAP1 REVERT JUMPDEST PUSH2 0x390 PUSH2 0x353 DUP6 DUP8 PUSH2 0x1871 JUMP JUMPDEST DUP5 DUP5 DUP5 DUP1 DUP1 PUSH1 0x1F ADD PUSH1 0x20 DUP1 SWAP2 DIV MUL PUSH1 0x20 ADD PUSH1 0x40 MLOAD SWAP1 DUP2 ADD PUSH1 0x40 MSTORE DUP1 SWAP4 SWAP3 SWAP2 SWAP1 DUP2 DUP2 MSTORE PUSH1 0x20 ADD DUP4 DUP4 DUP1 DUP3 DUP5 CALLDATACOPY PUSH1 0x0 SWAP3 ADD SWAP2 SWAP1 SWAP2 MSTORE POP PUSH2 0xCB4 SWAP3 POP POP POP JUMP JUMPDEST POP POP POP POP POP JUMP JUMPDEST PUSH1 0x0 PUSH2 0x308 PUSH32 0x177481AC65E4292921C69F62D1CC7F57541261E5D61C8175CF4E36A01C9BFC96 SLOAD PUSH1 0x1 PUSH1 0x1 PUSH1 0xA0 SHL SUB AND SWAP1 JUMP JUMPDEST PUSH1 0x0 DUP1 MLOAD PUSH1 0x20 PUSH2 0x1B55 DUP4 CODECOPY DUP2 MLOAD SWAP2 MSTORE SLOAD PUSH1 0x60 SWAP1 PUSH1 0x0 DUP1 MLOAD PUSH1 0x20 PUSH2 0x1B75 DUP4 CODECOPY DUP2 MLOAD SWAP2 MSTORE SWAP1 PUSH2 0xFFFF AND PUSH8 0xFFFFFFFFFFFFFFFF DUP2 GT ISZERO PUSH2 0x409 JUMPI PUSH2 0x409 PUSH2 0x17DD JUMP JUMPDEST PUSH1 0x40 MLOAD SWAP1 DUP1 DUP3 MSTORE DUP1 PUSH1 0x20 MUL PUSH1 0x20 ADD DUP3 ADD PUSH1 0x40 MSTORE DUP1 ISZERO PUSH2 0x432 JUMPI DUP2 PUSH1 0x20 ADD PUSH1 0x20 DUP3 MUL DUP1 CALLDATASIZE DUP4 CALLDATACOPY ADD SWAP1 POP JUMPDEST POP SWAP2 POP PUSH1 0x0 DUP1 PUSH1 0x0 JUMPDEST PUSH1 0x1 DUP5 ADD SLOAD PUSH2 0xFFFF AND DUP3 LT ISZERO PUSH2 0x574 JUMPI PUSH1 0x0 DUP2 DUP2 MSTORE PUSH1 0x2 DUP6 ADD PUSH1 0x20 MSTORE PUSH1 0x40 DUP2 KECCAK256 SLOAD SWAP1 JUMPDEST PUSH1 0x8 DUP2 LT ISZERO PUSH2 0x55F JUMPI DUP4 PUSH2 0x471 DUP2 PUSH2 0x19BB JUMP JUMPDEST PUSH1 0x1 DUP9 ADD SLOAD SWAP1 SWAP6 POP PUSH2 0xFFFF AND DUP6 GT SWAP1 POP PUSH2 0x55F JUMPI PUSH1 0x5 DUP2 SWAP1 SHL DUP3 SWAP1 SHL PUSH1 0x1 PUSH1 0x1 PUSH1 0xE0 SHL SUB NOT DUP2 AND PUSH1 0x0 SWAP1 DUP2 MSTORE PUSH1 0x20 DUP9 SWAP1 MSTORE PUSH1 0x40 DUP2 KECCAK256 SLOAD PUSH1 0x60 SHR SWAP1 DUP1 JUMPDEST DUP9 DUP2 LT ISZERO PUSH2 0x502 JUMPI DUP11 DUP2 DUP2 MLOAD DUP2 LT PUSH2 0x4C7 JUMPI PUSH2 0x4C7 PUSH2 0x19D4 JUMP JUMPDEST PUSH1 0x20 MUL PUSH1 0x20 ADD ADD MLOAD PUSH1 0x1 PUSH1 0x1 PUSH1 0xA0 SHL SUB AND DUP4 PUSH1 0x1 PUSH1 0x1 PUSH1 0xA0 SHL SUB AND SUB PUSH2 0x4F0 JUMPI PUSH1 0x1 SWAP2 POP PUSH2 0x502 JUMP JUMPDEST DUP1 PUSH2 0x4FA DUP2 PUSH2 0x19BB JUMP JUMPDEST SWAP2 POP POP PUSH2 0x4AD JUMP JUMPDEST POP DUP1 ISZERO PUSH2 0x511 JUMPI POP POP POP PUSH2 0x54D JUMP JUMPDEST DUP2 DUP11 DUP10 DUP2 MLOAD DUP2 LT PUSH2 0x524 JUMPI PUSH2 0x524 PUSH2 0x19D4 JUMP JUMPDEST PUSH1 0x1 PUSH1 0x1 PUSH1 0xA0 SHL SUB SWAP1 SWAP3 AND PUSH1 0x20 SWAP3 DUP4 MUL SWAP2 SWAP1 SWAP2 ADD SWAP1 SWAP2 ADD MSTORE DUP8 PUSH2 0x546 DUP2 PUSH2 0x19BB JUMP JUMPDEST SWAP9 POP POP POP POP POP JUMPDEST DUP1 PUSH2 0x557 DUP2 PUSH2 0x19BB JUMP JUMPDEST SWAP2 POP POP PUSH2 0x45E JUMP JUMPDEST POP POP DUP1 DUP1 PUSH2 0x56C SWAP1 PUSH2 0x19BB JUMP JUMPDEST SWAP2 POP POP PUSH2 0x43B JUMP JUMPDEST POP POP DUP3 MSTORE POP SWAP1 JUMP JUMPDEST PUSH2 0x584 PUSH2 0xE70 JUMP JUMPDEST PUSH1 0x1 PUSH1 0x1 PUSH1 0xA0 SHL SUB AND CALLER PUSH1 0x1 PUSH1 0x1 PUSH1 0xA0 SHL SUB AND EQ PUSH2 0x5B5 JUMPI PUSH1 0x40 MLOAD PUSH4 0xEFD1052D PUSH1 0xE0 SHL DUP2 MSTORE PUSH1 0x4 ADD PUSH1 0x40 MLOAD DUP1 SWAP2 SUB SWAP1 REVERT JUMPDEST PUSH2 0x5BD PUSH2 0xE98 JUMP JUMPDEST JUMP JUMPDEST PUSH1 0x0 DUP1 MLOAD PUSH1 0x20 PUSH2 0x1B55 DUP4 CODECOPY DUP2 MLOAD SWAP2 MSTORE SLOAD PUSH1 0x60 SWAP1 PUSH1 0x0 DUP1 MLOAD PUSH1 0x20 PUSH2 0x1B75 DUP4 CODECOPY DUP2 MLOAD SWAP2 MSTORE SWAP1 PUSH2 0xFFFF AND PUSH8 0xFFFFFFFFFFFFFFFF DUP2 GT ISZERO PUSH2 0x5FE JUMPI PUSH2 0x5FE PUSH2 0x17DD JUMP JUMPDEST PUSH1 0x40 MLOAD SWAP1 DUP1 DUP3 MSTORE DUP1 PUSH1 0x20 MUL PUSH1 0x20 ADD DUP3 ADD PUSH1 0x40 MSTORE DUP1 ISZERO PUSH2 0x644 JUMPI DUP2 PUSH1 0x20 ADD JUMPDEST PUSH1 0x40 DUP1 MLOAD DUP1 DUP3 ADD SWAP1 SWAP2 MSTORE PUSH1 0x0 DUP2 MSTORE PUSH1 0x60 PUSH1 0x20 DUP3 ADD MSTORE DUP2 MSTORE PUSH1 0x20 ADD SWAP1 PUSH1 0x1 SWAP1 SUB SWAP1 DUP2 PUSH2 0x61C JUMPI SWAP1 POP JUMPDEST POP PUSH1 0x1 DUP3 ADD SLOAD SWAP1 SWAP3 POP PUSH1 0x0 SWAP1 PUSH2 0xFFFF AND PUSH8 0xFFFFFFFFFFFFFFFF DUP2 GT ISZERO PUSH2 0x66C JUMPI PUSH2 0x66C PUSH2 0x17DD JUMP JUMPDEST PUSH1 0x40 MLOAD SWAP1 DUP1 DUP3 MSTORE DUP1 PUSH1 0x20 MUL PUSH1 0x20 ADD DUP3 ADD PUSH1 0x40 MSTORE DUP1 ISZERO PUSH2 0x695 JUMPI DUP2 PUSH1 0x20 ADD PUSH1 0x20 DUP3 MUL DUP1 CALLDATASIZE DUP4 CALLDATACOPY ADD SWAP1 POP JUMPDEST POP SWAP1 POP PUSH1 0x0 DUP1 PUSH1 0x0 JUMPDEST PUSH1 0x1 DUP6 ADD SLOAD PUSH2 0xFFFF AND DUP3 LT ISZERO PUSH2 0x984 JUMPI PUSH1 0x0 DUP2 DUP2 MSTORE PUSH1 0x2 DUP7 ADD PUSH1 0x20 MSTORE PUSH1 0x40 DUP2 KECCAK256 SLOAD SWAP1 JUMPDEST PUSH1 0x8 DUP2 LT ISZERO PUSH2 0x96F JUMPI DUP4 PUSH2 0x6D4 DUP2 PUSH2 0x19BB JUMP JUMPDEST PUSH1 0x1 DUP10 ADD SLOAD SWAP1 SWAP6 POP PUSH2 0xFFFF AND DUP6 GT SWAP1 POP PUSH2 0x96F JUMPI PUSH1 0x5 DUP2 SWAP1 SHL DUP3 SWAP1 SHL PUSH1 0x1 PUSH1 0x1 PUSH1 0xE0 SHL SUB NOT DUP2 AND PUSH1 0x0 SWAP1 DUP2 MSTORE PUSH1 0x20 DUP10 SWAP1 MSTORE PUSH1 0x40 DUP2 KECCAK256 SLOAD PUSH1 0x60 SHR SWAP1 DUP1 JUMPDEST DUP9 DUP2 LT ISZERO PUSH2 0x82D JUMPI DUP3 PUSH1 0x1 PUSH1 0x1 PUSH1 0xA0 SHL SUB AND DUP13 DUP3 DUP2 MLOAD DUP2 LT PUSH2 0x734 JUMPI PUSH2 0x734 PUSH2 0x19D4 JUMP JUMPDEST PUSH1 0x20 MUL PUSH1 0x20 ADD ADD MLOAD PUSH1 0x0 ADD MLOAD PUSH1 0x1 PUSH1 0x1 PUSH1 0xA0 SHL SUB AND SUB PUSH2 0x81B JUMPI DUP4 DUP13 DUP3 DUP2 MLOAD DUP2 LT PUSH2 0x761 JUMPI PUSH2 0x761 PUSH2 0x19D4 JUMP JUMPDEST PUSH1 0x20 MUL PUSH1 0x20 ADD ADD MLOAD PUSH1 0x20 ADD MLOAD DUP12 DUP4 DUP2 MLOAD DUP2 LT PUSH2 0x77F JUMPI PUSH2 0x77F PUSH2 0x19D4 JUMP JUMPDEST PUSH1 0x20 MUL PUSH1 0x20 ADD ADD MLOAD PUSH1 0xFF AND DUP2 MLOAD DUP2 LT PUSH2 0x79A JUMPI PUSH2 0x79A PUSH2 0x19D4 JUMP JUMPDEST PUSH1 0x20 MUL PUSH1 0x20 ADD ADD SWAP1 PUSH1 0x1 PUSH1 0x1 PUSH1 0xE0 SHL SUB NOT AND SWAP1 DUP2 PUSH1 0x1 PUSH1 0x1 PUSH1 0xE0 SHL SUB NOT AND DUP2 MSTORE POP POP PUSH1 0xFF DUP11 DUP3 DUP2 MLOAD DUP2 LT PUSH2 0x7D0 JUMPI PUSH2 0x7D0 PUSH2 0x19D4 JUMP JUMPDEST PUSH1 0x20 MUL PUSH1 0x20 ADD ADD MLOAD PUSH1 0xFF AND LT PUSH2 0x7E5 JUMPI PUSH1 0x0 DUP1 REVERT JUMPDEST DUP10 DUP2 DUP2 MLOAD DUP2 LT PUSH2 0x7F7 JUMPI PUSH2 0x7F7 PUSH2 0x19D4 JUMP JUMPDEST PUSH1 0x20 MUL PUSH1 0x20 ADD ADD DUP1 MLOAD DUP1 SWAP2 SWAP1 PUSH2 0x80C SWAP1 PUSH2 0x19EA JUMP JUMPDEST PUSH1 0xFF AND SWAP1 MSTORE POP PUSH1 0x1 SWAP2 POP PUSH2 0x82D JUMP JUMPDEST DUP1 PUSH2 0x825 DUP2 PUSH2 0x19BB JUMP JUMPDEST SWAP2 POP POP PUSH2 0x710 JUMP JUMPDEST POP DUP1 ISZERO PUSH2 0x83C JUMPI POP POP POP PUSH2 0x95D JUMP JUMPDEST DUP2 DUP12 DUP10 DUP2 MLOAD DUP2 LT PUSH2 0x84F JUMPI PUSH2 0x84F PUSH2 0x19D4 JUMP JUMPDEST PUSH1 0x20 SWAP1 DUP2 MUL SWAP2 SWAP1 SWAP2 ADD ADD MLOAD PUSH1 0x1 PUSH1 0x1 PUSH1 0xA0 SHL SUB SWAP1 SWAP2 AND SWAP1 MSTORE PUSH1 0x1 DUP11 ADD SLOAD PUSH2 0xFFFF AND PUSH8 0xFFFFFFFFFFFFFFFF DUP2 GT ISZERO PUSH2 0x888 JUMPI PUSH2 0x888 PUSH2 0x17DD JUMP JUMPDEST PUSH1 0x40 MLOAD SWAP1 DUP1 DUP3 MSTORE DUP1 PUSH1 0x20 MUL PUSH1 0x20 ADD DUP3 ADD PUSH1 0x40 MSTORE DUP1 ISZERO PUSH2 0x8B1 JUMPI DUP2 PUSH1 0x20 ADD PUSH1 0x20 DUP3 MUL DUP1 CALLDATASIZE DUP4 CALLDATACOPY ADD SWAP1 POP JUMPDEST POP DUP12 DUP10 DUP2 MLOAD DUP2 LT PUSH2 0x8C4 JUMPI PUSH2 0x8C4 PUSH2 0x19D4 JUMP JUMPDEST PUSH1 0x20 MUL PUSH1 0x20 ADD ADD MLOAD PUSH1 0x20 ADD DUP2 SWAP1 MSTORE POP DUP3 DUP12 DUP10 DUP2 MLOAD DUP2 LT PUSH2 0x8E6 JUMPI PUSH2 0x8E6 PUSH2 0x19D4 JUMP JUMPDEST PUSH1 0x20 MUL PUSH1 0x20 ADD ADD MLOAD PUSH1 0x20 ADD MLOAD PUSH1 0x0 DUP2 MLOAD DUP2 LT PUSH2 0x904 JUMPI PUSH2 0x904 PUSH2 0x19D4 JUMP JUMPDEST PUSH1 0x20 MUL PUSH1 0x20 ADD ADD SWAP1 PUSH1 0x1 PUSH1 0x1 PUSH1 0xE0 SHL SUB NOT AND SWAP1 DUP2 PUSH1 0x1 PUSH1 0x1 PUSH1 0xE0 SHL SUB NOT AND DUP2 MSTORE POP POP PUSH1 0x1 DUP10 DUP10 DUP2 MLOAD DUP2 LT PUSH2 0x93A JUMPI PUSH2 0x93A PUSH2 0x19D4 JUMP JUMPDEST PUSH1 0xFF SWAP1 SWAP3 AND PUSH1 0x20 SWAP3 DUP4 MUL SWAP2 SWAP1 SWAP2 ADD SWAP1 SWAP2 ADD MSTORE DUP8 PUSH2 0x956 DUP2 PUSH2 0x19BB JUMP JUMPDEST SWAP9 POP POP POP POP POP JUMPDEST DUP1 PUSH2 0x967 DUP2 PUSH2 0x19BB JUMP JUMPDEST SWAP2 POP POP PUSH2 0x6C1 JUMP JUMPDEST POP POP DUP1 DUP1 PUSH2 0x97C SWAP1 PUSH2 0x19BB JUMP JUMPDEST SWAP2 POP POP PUSH2 0x69E JUMP JUMPDEST POP PUSH1 0x0 JUMPDEST DUP3 DUP2 LT ISZERO PUSH2 0x9EB JUMPI PUSH1 0x0 DUP5 DUP3 DUP2 MLOAD DUP2 LT PUSH2 0x9A4 JUMPI PUSH2 0x9A4 PUSH2 0x19D4 JUMP JUMPDEST PUSH1 0x20 MUL PUSH1 0x20 ADD ADD MLOAD PUSH1 0xFF AND SWAP1 POP PUSH1 0x0 DUP8 DUP4 DUP2 MLOAD DUP2 LT PUSH2 0x9C5 JUMPI PUSH2 0x9C5 PUSH2 0x19D4 JUMP JUMPDEST PUSH1 0x20 MUL PUSH1 0x20 ADD ADD MLOAD PUSH1 0x20 ADD MLOAD SWAP1 POP DUP2 DUP2 MSTORE POP POP DUP1 DUP1 PUSH2 0x9E3 SWAP1 PUSH2 0x19BB JUMP JUMPDEST SWAP2 POP POP PUSH2 0x988 JUMP JUMPDEST POP DUP2 DUP6 MSTORE POP POP POP POP SWAP1 JUMP JUMPDEST PUSH1 0x0 PUSH2 0x308 PUSH2 0xE70 JUMP JUMPDEST PUSH1 0x0 PUSH2 0x308 PUSH2 0xC81 JUMP JUMPDEST PUSH2 0xA12 PUSH2 0xC81 JUMP JUMPDEST PUSH1 0x1 PUSH1 0x1 PUSH1 0xA0 SHL SUB AND CALLER PUSH1 0x1 PUSH1 0x1 PUSH1 0xA0 SHL SUB AND EQ PUSH2 0xA43 JUMPI PUSH1 0x40 MLOAD PUSH4 0x2F7A8EE1 PUSH1 0xE0 SHL DUP2 MSTORE PUSH1 0x4 ADD PUSH1 0x40 MLOAD DUP1 SWAP2 SUB SWAP1 REVERT JUMPDEST PUSH32 0x177481AC65E4292921C69F62D1CC7F57541261E5D61C8175CF4E36A01C9BFC96 DUP1 SLOAD PUSH1 0x1 PUSH1 0x1 PUSH1 0xA0 SHL SUB NOT AND PUSH1 0x1 PUSH1 0x1 PUSH1 0xA0 SHL SUB DUP4 AND OR SWAP1 SSTORE POP JUMP JUMPDEST POP JUMP JUMPDEST PUSH1 0x0 DUP1 MLOAD PUSH1 0x20 PUSH2 0x1B55 DUP4 CODECOPY DUP2 MLOAD SWAP2 MSTORE SLOAD PUSH1 0x60 SWAP1 PUSH1 0x0 DUP1 MLOAD PUSH1 0x20 PUSH2 0x1B75 DUP4 CODECOPY DUP2 MLOAD SWAP2 MSTORE SWAP1 PUSH2 0xFFFF AND PUSH8 0xFFFFFFFFFFFFFFFF DUP2 GT ISZERO PUSH2 0xAC2 JUMPI PUSH2 0xAC2 PUSH2 0x17DD JUMP JUMPDEST PUSH1 0x40 MLOAD SWAP1 DUP1 DUP3 MSTORE DUP1 PUSH1 0x20 MUL PUSH1 0x20 ADD DUP3 ADD PUSH1 0x40 MSTORE DUP1 ISZERO PUSH2 0xAEB JUMPI DUP2 PUSH1 0x20 ADD PUSH1 0x20 DUP3 MUL DUP1 CALLDATASIZE DUP4 CALLDATACOPY ADD SWAP1 POP JUMPDEST POP SWAP2 POP PUSH1 0x0 DUP1 PUSH1 0x0 JUMPDEST PUSH1 0x1 DUP5 ADD SLOAD PUSH2 0xFFFF AND DUP3 LT ISZERO PUSH2 0xBD4 JUMPI PUSH1 0x0 DUP2 DUP2 MSTORE PUSH1 0x2 DUP6 ADD PUSH1 0x20 MSTORE PUSH1 0x40 DUP2 KECCAK256 SLOAD SWAP1 JUMPDEST PUSH1 0x8 DUP2 LT ISZERO PUSH2 0xBBF JUMPI DUP4 PUSH2 0xB2A DUP2 PUSH2 0x19BB JUMP JUMPDEST PUSH1 0x1 DUP9 ADD SLOAD SWAP1 SWAP6 POP PUSH2 0xFFFF AND DUP6 GT SWAP1 POP PUSH2 0xBBF JUMPI PUSH1 0x5 DUP2 SWAP1 SHL DUP3 SWAP1 SHL PUSH1 0x1 PUSH1 0x1 PUSH1 0xE0 SHL SUB NOT DUP2 AND PUSH1 0x0 SWAP1 DUP2 MSTORE PUSH1 0x20 DUP9 SWAP1 MSTORE PUSH1 0x40 SWAP1 KECCAK256 SLOAD PUSH1 0x60 SHR PUSH1 0x1 PUSH1 0x1 PUSH1 0xA0 SHL SUB DUP11 AND SUB PUSH2 0xBAC JUMPI DUP1 DUP9 DUP8 DUP2 MLOAD DUP2 LT PUSH2 0xB85 JUMPI PUSH2 0xB85 PUSH2 0x19D4 JUMP JUMPDEST PUSH1 0x1 PUSH1 0x1 PUSH1 0xE0 SHL SUB NOT SWAP1 SWAP3 AND PUSH1 0x20 SWAP3 DUP4 MUL SWAP2 SWAP1 SWAP2 ADD SWAP1 SWAP2 ADD MSTORE DUP6 PUSH2 0xBA8 DUP2 PUSH2 0x19BB JUMP JUMPDEST SWAP7 POP POP JUMPDEST POP DUP1 PUSH2 0xBB7 DUP2 PUSH2 0x19BB JUMP JUMPDEST SWAP2 POP POP PUSH2 0xB17 JUMP JUMPDEST POP POP DUP1 DUP1 PUSH2 0xBCC SWAP1 PUSH2 0x19BB JUMP JUMPDEST SWAP2 POP POP PUSH2 0xAF4 JUMP JUMPDEST POP POP DUP3 MSTORE POP SWAP2 SWAP1 POP JUMP JUMPDEST PUSH2 0xBE6 PUSH2 0xC81 JUMP JUMPDEST PUSH1 0x1 PUSH1 0x1 PUSH1 0xA0 SHL SUB AND CALLER PUSH1 0x1 PUSH1 0x1 PUSH1 0xA0 SHL SUB AND EQ PUSH2 0xC17 JUMPI PUSH1 0x40 MLOAD PUSH4 0x2F7A8EE1 PUSH1 0xE0 SHL DUP2 MSTORE PUSH1 0x4 ADD PUSH1 0x40 MLOAD DUP1 SWAP2 SUB SWAP1 REVERT JUMPDEST PUSH2 0xA80 DUP2 PUSH2 0xED2 JUMP JUMPDEST PUSH1 0x0 DUP1 CALLDATALOAD PUSH1 0x1 PUSH1 0x1 PUSH1 0xE0 SHL SUB NOT AND DUP2 MSTORE PUSH1 0x0 DUP1 MLOAD PUSH1 0x20 PUSH2 0x1B75 DUP4 CODECOPY DUP2 MLOAD SWAP2 MSTORE PUSH1 0x20 MSTORE PUSH1 0x40 SWAP1 KECCAK256 SLOAD PUSH1 0x60 SHR DUP1 PUSH2 0xC7E JUMPI POP PUSH32 0x177481AC65E4292921C69F62D1CC7F57541261E5D61C8175CF4E36A01C9BFC96 SLOAD PUSH1 0x1 PUSH1 0x1 PUSH1 0xA0 SHL SUB AND SWAP1 JUMP JUMPDEST SWAP1 JUMP JUMPDEST PUSH1 0x0 PUSH32 0x8A22373512790C48B83A1FE2EFDD2888D4A917BCDC24D0ADF63E60F671680460 JUMPDEST SLOAD PUSH1 0x1 PUSH1 0x1 PUSH1 0xA0 SHL SUB AND SWAP2 SWAP1 POP JUMP JUMPDEST PUSH1 0x0 DUP1 MLOAD PUSH1 0x20 PUSH2 0x1B55 DUP4 CODECOPY DUP2 MLOAD SWAP2 MSTORE SLOAD PUSH1 0x0 DUP1 MLOAD PUSH1 0x20 PUSH2 0x1B75 DUP4 CODECOPY DUP2 MLOAD SWAP2 MSTORE SWAP1 PUSH2 0xFFFF DUP2 AND SWAP1 DUP2 SWAP1 PUSH1 0x0 SWAP1 PUSH1 0x7 AND ISZERO PUSH2 0xCFF JUMPI POP PUSH1 0x3 DUP2 SWAP1 SHR PUSH1 0x0 SWAP1 DUP2 MSTORE PUSH1 0x2 DUP5 ADD PUSH1 0x20 MSTORE PUSH1 0x40 SWAP1 KECCAK256 SLOAD JUMPDEST PUSH1 0x0 JUMPDEST DUP8 MLOAD DUP2 LT ISZERO PUSH2 0xDE4 JUMPI PUSH1 0x0 DUP9 DUP3 DUP2 MLOAD DUP2 LT PUSH2 0xD1F JUMPI PUSH2 0xD1F PUSH2 0x19D4 JUMP JUMPDEST PUSH1 0x20 MUL PUSH1 0x20 ADD ADD MLOAD SWAP1 POP PUSH1 0x0 DUP2 PUSH1 0x20 ADD MLOAD SWAP1 POP DUP2 PUSH1 0x40 ADD MLOAD MLOAD PUSH1 0x0 SUB PUSH2 0xD58 JUMPI PUSH1 0x40 MLOAD PUSH4 0xEB6C3AEB PUSH1 0xE0 SHL DUP2 MSTORE PUSH1 0x4 ADD PUSH1 0x40 MLOAD DUP1 SWAP2 SUB SWAP1 REVERT JUMPDEST PUSH1 0x0 DUP2 PUSH1 0x2 DUP2 GT ISZERO PUSH2 0xD6C JUMPI PUSH2 0xD6C PUSH2 0x1A09 JUMP JUMPDEST SUB PUSH2 0xD87 JUMPI PUSH2 0xD7D DUP8 DUP7 DUP7 DUP6 PUSH2 0xF15 JUMP JUMPDEST SWAP1 SWAP6 POP SWAP4 POP PUSH2 0xDDA JUMP JUMPDEST PUSH1 0x1 DUP2 PUSH1 0x2 DUP2 GT ISZERO PUSH2 0xD9B JUMPI PUSH2 0xD9B PUSH2 0x1A09 JUMP JUMPDEST SUB PUSH2 0xDAF JUMPI PUSH2 0xDAA DUP8 DUP4 PUSH2 0x1054 JUMP JUMPDEST PUSH2 0xDDA JUMP JUMPDEST PUSH1 0x2 DUP2 PUSH1 0x2 DUP2 GT ISZERO PUSH2 0xDC3 JUMPI PUSH2 0xDC3 PUSH2 0x1A09 JUMP JUMPDEST SUB PUSH2 0xDDA JUMPI PUSH2 0xDD4 DUP8 DUP7 DUP7 DUP6 PUSH2 0x119F JUMP JUMPDEST SWAP1 SWAP6 POP SWAP4 POP JUMPDEST POP POP PUSH1 0x1 ADD PUSH2 0xD02 JUMP JUMPDEST POP DUP3 DUP3 EQ PUSH2 0xE00 JUMPI PUSH1 0x1 DUP5 ADD DUP1 SLOAD PUSH2 0xFFFF NOT AND PUSH2 0xFFFF DUP5 AND OR SWAP1 SSTORE JUMPDEST PUSH1 0x7 DUP3 AND ISZERO PUSH2 0xE22 JUMPI PUSH1 0x3 DUP3 SWAP1 SHR PUSH1 0x0 SWAP1 DUP2 MSTORE PUSH1 0x2 DUP6 ADD PUSH1 0x20 MSTORE PUSH1 0x40 SWAP1 KECCAK256 DUP2 SWAP1 SSTORE JUMPDEST PUSH32 0x8FAA70878671CCD212D20771B795C50AF8FD3FF6CF27F4BDE57E5D4DE0AEB673 DUP8 DUP8 DUP8 PUSH1 0x40 MLOAD PUSH2 0xE55 SWAP4 SWAP3 SWAP2 SWAP1 PUSH2 0x1A6F JUMP JUMPDEST PUSH1 0x40 MLOAD DUP1 SWAP2 SUB SWAP1 LOG1 PUSH2 0xE67 DUP7 DUP7 PUSH2 0x13C2 JUMP JUMPDEST POP POP POP POP POP POP POP JUMP JUMPDEST PUSH1 0x0 PUSH32 0x24AA1F7B31FD188A8D3ECFB06BC55C806040E59B03BD4396283442FCE6617890 PUSH2 0xCA5 JUMP JUMPDEST PUSH2 0xEA1 CALLER PUSH2 0x14A6 JUMP JUMPDEST PUSH32 0x24AA1F7B31FD188A8D3ECFB06BC55C806040E59B03BD4396283442FCE6617890 DUP1 SLOAD PUSH1 0x1 PUSH1 0x1 PUSH1 0xA0 SHL SUB NOT AND SWAP1 SSTORE JUMP JUMPDEST PUSH32 0x24AA1F7B31FD188A8D3ECFB06BC55C806040E59B03BD4396283442FCE6617890 DUP1 SLOAD PUSH1 0x1 PUSH1 0x1 PUSH1 0xA0 SHL SUB NOT AND PUSH1 0x1 PUSH1 0x1 PUSH1 0xA0 SHL SUB DUP4 AND OR SWAP1 SSTORE PUSH2 0xA80 DUP2 DUP2 DUP2 DUP2 JUMP JUMPDEST DUP1 MLOAD PUSH1 0x0 SWAP1 DUP2 SWAP1 PUSH1 0x1 PUSH1 0x1 PUSH1 0xA0 SHL SUB AND ADDRESS EQ DUP1 ISZERO SWAP1 PUSH2 0xF3D JUMPI POP DUP3 MLOAD PUSH1 0x1 PUSH1 0x1 PUSH1 0xA0 SHL SUB AND EXTCODESIZE ISZERO JUMPDEST ISZERO PUSH2 0xF5B JUMPI PUSH1 0x40 MLOAD PUSH4 0x3DDC5CAB PUSH1 0xE2 SHL DUP2 MSTORE PUSH1 0x4 ADD PUSH1 0x40 MLOAD DUP1 SWAP2 SUB SWAP1 REVERT JUMPDEST PUSH1 0x0 JUMPDEST DUP4 PUSH1 0x40 ADD MLOAD MLOAD DUP2 LT ISZERO PUSH2 0x1047 JUMPI PUSH1 0x0 DUP5 PUSH1 0x40 ADD MLOAD DUP3 DUP2 MLOAD DUP2 LT PUSH2 0xF83 JUMPI PUSH2 0xF83 PUSH2 0x19D4 JUMP JUMPDEST PUSH1 0x20 SWAP1 DUP2 MUL SWAP2 SWAP1 SWAP2 ADD DUP2 ADD MLOAD PUSH1 0x1 PUSH1 0x1 PUSH1 0xE0 SHL SUB NOT DUP2 AND PUSH1 0x0 SWAP1 DUP2 MSTORE SWAP2 DUP11 SWAP1 MSTORE PUSH1 0x40 SWAP1 SWAP2 KECCAK256 SLOAD SWAP1 SWAP2 POP PUSH1 0x60 DUP2 SWAP1 SHR ISZERO PUSH2 0xFCF JUMPI PUSH1 0x40 MLOAD PUSH4 0x4923A771 PUSH1 0xE1 SHL DUP2 MSTORE PUSH1 0x4 ADD PUSH1 0x40 MLOAD DUP1 SWAP2 SUB SWAP1 REVERT JUMPDEST DUP6 MLOAD PUSH1 0x1 PUSH1 0x1 PUSH1 0xE0 SHL SUB NOT DUP4 DUP2 AND PUSH1 0x0 DUP2 DUP2 MSTORE PUSH1 0x20 DUP14 SWAP1 MSTORE PUSH1 0x40 SWAP1 KECCAK256 PUSH1 0x60 SWAP4 SWAP1 SWAP4 SHL PUSH1 0x1 PUSH1 0x1 PUSH1 0x60 SHL SUB NOT AND DUP12 OR SWAP1 SWAP3 SSTORE PUSH1 0x5 DUP11 SWAP1 SHL PUSH1 0xE0 SWAP1 DUP2 AND SWAP3 DUP4 SHR SWAP2 DUP4 SHR NOT SWAP10 SWAP1 SWAP10 AND OR SWAP8 DUP2 SWAP1 SUB PUSH2 0x1038 JUMPI PUSH1 0x3 DUP10 SWAP1 SHR PUSH1 0x0 SWAP1 DUP2 MSTORE PUSH1 0x2 DUP12 ADD PUSH1 0x20 MSTORE PUSH1 0x40 DUP2 KECCAK256 SWAP9 SWAP1 SWAP9 SSTORE JUMPDEST POP POP POP PUSH1 0x1 SWAP6 DUP7 ADD SWAP6 ADD PUSH2 0xF5E JUMP JUMPDEST POP SWAP4 SWAP6 SWAP3 SWAP5 POP SWAP2 SWAP3 POP POP POP JUMP JUMPDEST DUP1 MLOAD PUSH1 0x1 PUSH1 0x1 PUSH1 0xA0 SHL SUB AND EXTCODESIZE PUSH2 0x107D JUMPI PUSH1 0x40 MLOAD PUSH4 0x3DDC5CAB PUSH1 0xE2 SHL DUP2 MSTORE PUSH1 0x4 ADD PUSH1 0x40 MLOAD DUP1 SWAP2 SUB SWAP1 REVERT JUMPDEST PUSH1 0x0 JUMPDEST DUP2 PUSH1 0x40 ADD MLOAD MLOAD DUP2 LT ISZERO PUSH2 0x119A JUMPI PUSH1 0x0 DUP3 PUSH1 0x40 ADD MLOAD DUP3 DUP2 MLOAD DUP2 LT PUSH2 0x10A5 JUMPI PUSH2 0x10A5 PUSH2 0x19D4 JUMP JUMPDEST PUSH1 0x20 SWAP1 DUP2 MUL SWAP2 SWAP1 SWAP2 ADD DUP2 ADD MLOAD PUSH1 0x1 PUSH1 0x1 PUSH1 0xE0 SHL SUB NOT DUP2 AND PUSH1 0x0 SWAP1 DUP2 MSTORE SWAP2 DUP7 SWAP1 MSTORE PUSH1 0x40 SWAP1 SWAP2 KECCAK256 SLOAD SWAP1 SWAP2 POP PUSH1 0x60 DUP2 SWAP1 SHR DUP1 PUSH2 0x10F1 JUMPI PUSH1 0x40 MLOAD PUSH4 0x37E25A97 PUSH1 0xE1 SHL DUP2 MSTORE PUSH1 0x4 ADD PUSH1 0x40 MLOAD DUP1 SWAP2 SUB SWAP1 REVERT JUMPDEST ADDRESS PUSH1 0x1 PUSH1 0x1 PUSH1 0xA0 SHL SUB DUP3 AND SUB PUSH2 0x111A JUMPI PUSH1 0x40 MLOAD PUSH4 0xE9835731 PUSH1 0xE0 SHL DUP2 MSTORE PUSH1 0x4 ADD PUSH1 0x40 MLOAD DUP1 SWAP2 SUB SWAP1 REVERT JUMPDEST DUP5 PUSH1 0x0 ADD MLOAD PUSH1 0x1 PUSH1 0x1 PUSH1 0xA0 SHL SUB AND DUP2 PUSH1 0x1 PUSH1 0x1 PUSH1 0xA0 SHL SUB AND SUB PUSH2 0x1150 JUMPI PUSH1 0x40 MLOAD PUSH4 0x30BAABF3 PUSH1 0xE1 SHL DUP2 MSTORE PUSH1 0x4 ADD PUSH1 0x40 MLOAD DUP1 SWAP2 SUB SWAP1 REVERT JUMPDEST POP DUP4 MLOAD PUSH1 0x1 PUSH1 0x1 PUSH1 0xE0 SHL SUB NOT SWAP3 SWAP1 SWAP3 AND PUSH1 0x0 SWAP1 DUP2 MSTORE PUSH1 0x20 DUP7 SWAP1 MSTORE PUSH1 0x40 SWAP1 KECCAK256 PUSH1 0x60 SWAP3 SWAP1 SWAP3 SHL PUSH1 0x1 PUSH1 0x1 PUSH1 0x60 SHL SUB NOT AND PUSH12 0xFFFFFFFFFFFFFFFFFFFFFFFF SWAP2 SWAP1 SWAP2 AND OR SWAP1 SSTORE PUSH1 0x1 ADD PUSH2 0x1080 JUMP JUMPDEST POP POP POP JUMP JUMPDEST DUP1 MLOAD PUSH1 0x0 SWAP1 DUP2 SWAP1 PUSH1 0x1 PUSH1 0x1 PUSH1 0xA0 SHL SUB AND ISZERO PUSH2 0x11CD JUMPI PUSH1 0x40 MLOAD PUSH4 0x3AB34909 PUSH1 0xE2 SHL DUP2 MSTORE PUSH1 0x4 ADD PUSH1 0x40 MLOAD DUP1 SWAP2 SUB SWAP1 REVERT JUMPDEST PUSH1 0x3 DUP6 SWAP1 SHR PUSH1 0x7 DUP7 AND PUSH1 0x0 JUMPDEST DUP6 PUSH1 0x40 ADD MLOAD MLOAD DUP2 LT ISZERO PUSH2 0x13AE JUMPI PUSH1 0x0 DUP7 PUSH1 0x40 ADD MLOAD DUP3 DUP2 MLOAD DUP2 LT PUSH2 0x11FE JUMPI PUSH2 0x11FE PUSH2 0x19D4 JUMP JUMPDEST PUSH1 0x20 SWAP1 DUP2 MUL SWAP2 SWAP1 SWAP2 ADD DUP2 ADD MLOAD PUSH1 0x1 PUSH1 0x1 PUSH1 0xE0 SHL SUB NOT DUP2 AND PUSH1 0x0 SWAP1 DUP2 MSTORE SWAP2 DUP13 SWAP1 MSTORE PUSH1 0x40 SWAP1 SWAP2 KECCAK256 SLOAD SWAP1 SWAP2 POP PUSH1 0x60 DUP2 SWAP1 SHR PUSH2 0x1249 JUMPI PUSH1 0x40 MLOAD PUSH4 0x37E25A97 PUSH1 0xE1 SHL DUP2 MSTORE PUSH1 0x4 ADD PUSH1 0x40 MLOAD DUP1 SWAP2 SUB SWAP1 REVERT JUMPDEST ADDRESS PUSH1 0x60 DUP3 SWAP1 SHR SUB PUSH2 0x126D JUMPI PUSH1 0x40 MLOAD PUSH4 0xE9835731 PUSH1 0xE0 SHL DUP2 MSTORE PUSH1 0x4 ADD PUSH1 0x40 MLOAD DUP1 SWAP2 SUB SWAP1 REVERT JUMPDEST PUSH1 0x0 DUP10 SWAP1 SUB PUSH2 0x1299 JUMPI PUSH1 0x0 NOT SWAP1 SWAP5 ADD PUSH1 0x0 DUP2 DUP2 MSTORE PUSH1 0x2 DUP13 ADD PUSH1 0x20 MSTORE PUSH1 0x40 SWAP1 KECCAK256 SLOAD SWAP9 POP SWAP4 PUSH1 0x7 SWAP4 POP PUSH2 0x12A1 JUMP JUMPDEST PUSH1 0x0 NOT SWAP1 SWAP4 ADD SWAP3 JUMPDEST PUSH1 0x5 DUP5 SWAP1 SHL DUP10 SWAP1 SHL PUSH1 0x0 DUP1 PUSH1 0x1 PUSH1 0x1 PUSH1 0xE0 SHL SUB NOT DUP1 DUP5 AND SWAP1 DUP7 AND EQ PUSH2 0x12F8 JUMPI PUSH1 0x1 PUSH1 0x1 PUSH1 0xE0 SHL SUB NOT DUP4 AND PUSH1 0x0 SWAP1 DUP2 MSTORE PUSH1 0x20 DUP16 SWAP1 MSTORE PUSH1 0x40 SWAP1 KECCAK256 DUP1 SLOAD PUSH1 0x1 PUSH1 0x1 PUSH1 0x60 SHL SUB NOT AND PUSH12 0xFFFFFFFFFFFFFFFFFFFFFFFF DUP7 AND OR SWAP1 SSTORE JUMPDEST POP POP PUSH1 0x1 PUSH1 0x1 PUSH1 0xE0 SHL SUB NOT DUP4 AND PUSH1 0x0 SWAP1 DUP2 MSTORE PUSH1 0x20 DUP14 SWAP1 MSTORE PUSH1 0x40 DUP2 KECCAK256 SSTORE PUSH2 0x1FFF PUSH1 0x3 DUP4 SWAP1 SHR AND PUSH1 0xE0 PUSH1 0x5 DUP5 SWAP1 SHL AND DUP8 DUP3 EQ PUSH2 0x135B JUMPI PUSH1 0x0 DUP3 DUP2 MSTORE PUSH1 0x2 DUP16 ADD PUSH1 0x20 MSTORE PUSH1 0x40 SWAP1 KECCAK256 DUP1 SLOAD PUSH1 0x1 PUSH1 0x1 PUSH1 0xE0 SHL SUB NOT DUP1 DUP5 SHR NOT SWAP1 SWAP2 AND SWAP1 DUP6 AND DUP4 SHR OR SWAP1 SSTORE PUSH2 0x137F JUMP JUMPDEST DUP1 DUP4 PUSH1 0x1 PUSH1 0x1 PUSH1 0xE0 SHL SUB NOT AND SWAP1 SHR DUP2 PUSH1 0x1 PUSH1 0x1 PUSH1 0xE0 SHL SUB NOT PUSH1 0x0 SHL SWAP1 SHR NOT DUP14 AND OR SWAP12 POP JUMPDEST DUP7 PUSH1 0x0 SUB PUSH2 0x139D JUMPI PUSH1 0x0 DUP9 DUP2 MSTORE PUSH1 0x2 DUP16 ADD PUSH1 0x20 MSTORE PUSH1 0x40 DUP2 KECCAK256 DUP2 SWAP1 SSTORE SWAP12 POP JUMPDEST POP POP PUSH1 0x1 SWAP1 SWAP4 ADD SWAP3 POP PUSH2 0x11D9 SWAP2 POP POP JUMP JUMPDEST POP PUSH1 0x3 SWAP2 SWAP1 SWAP2 SHL OR SWAP7 SWAP4 SWAP6 POP SWAP3 SWAP4 POP POP POP POP JUMP JUMPDEST DUP1 MLOAD ISZERO PUSH1 0x1 PUSH1 0x1 PUSH1 0xA0 SHL SUB DUP4 AND ISZERO EQ PUSH2 0x13EE JUMPI PUSH1 0x40 MLOAD PUSH4 0x26DF4CCD PUSH1 0xE0 SHL DUP2 MSTORE PUSH1 0x4 ADD PUSH1 0x40 MLOAD DUP1 SWAP2 SUB SWAP1 REVERT JUMPDEST PUSH1 0x1 PUSH1 0x1 PUSH1 0xA0 SHL SUB DUP3 AND ISZERO PUSH2 0x14A2 JUMPI PUSH1 0x1 PUSH1 0x1 PUSH1 0xA0 SHL SUB DUP3 AND ADDRESS EQ PUSH2 0x1435 JUMPI PUSH1 0x1 PUSH1 0x1 PUSH1 0xA0 SHL SUB DUP3 AND EXTCODESIZE PUSH2 0x1435 JUMPI PUSH1 0x40 MLOAD PUSH4 0x3DDC5CAB PUSH1 0xE2 SHL DUP2 MSTORE PUSH1 0x4 ADD PUSH1 0x40 MLOAD DUP1 SWAP2 SUB SWAP1 REVERT JUMPDEST PUSH1 0x0 DUP3 PUSH1 0x1 PUSH1 0x1 PUSH1 0xA0 SHL SUB AND DUP3 PUSH1 0x40 MLOAD PUSH2 0x144F SWAP2 SWAP1 PUSH2 0x1B38 JUMP JUMPDEST PUSH1 0x0 PUSH1 0x40 MLOAD DUP1 DUP4 SUB DUP2 DUP6 GAS DELEGATECALL SWAP2 POP POP RETURNDATASIZE DUP1 PUSH1 0x0 DUP2 EQ PUSH2 0x148A JUMPI PUSH1 0x40 MLOAD SWAP2 POP PUSH1 0x1F NOT PUSH1 0x3F RETURNDATASIZE ADD AND DUP3 ADD PUSH1 0x40 MSTORE RETURNDATASIZE DUP3 MSTORE RETURNDATASIZE PUSH1 0x0 PUSH1 0x20 DUP5 ADD RETURNDATACOPY PUSH2 0x148F JUMP JUMPDEST PUSH1 0x60 SWAP2 POP JUMPDEST POP POP SWAP1 POP DUP1 PUSH2 0x119A JUMPI RETURNDATASIZE PUSH1 0x0 DUP1 RETURNDATACOPY RETURNDATASIZE PUSH1 0x0 REVERT JUMPDEST POP POP JUMP JUMPDEST PUSH32 0x8A22373512790C48B83A1FE2EFDD2888D4A917BCDC24D0ADF63E60F671680460 DUP1 SLOAD PUSH1 0x40 MLOAD PUSH1 0x1 PUSH1 0x1 PUSH1 0xA0 SHL SUB DUP5 DUP2 AND SWAP3 AND SWAP1 PUSH32 0x8BE0079C531659141344CD1FD0A4F28419497F9722A3DAAFE3B4186F6B6457E0 SWAP1 PUSH1 0x0 SWAP1 LOG3 DUP1 SLOAD PUSH1 0x1 PUSH1 0x1 PUSH1 0xA0 SHL SUB NOT AND PUSH1 0x1 PUSH1 0x1 PUSH1 0xA0 SHL SUB SWAP3 SWAP1 SWAP3 AND SWAP2 SWAP1 SWAP2 OR SWAP1 SSTORE JUMP JUMPDEST DUP1 CALLDATALOAD PUSH1 0x1 PUSH1 0x1 PUSH1 0xE0 SHL SUB NOT DUP2 AND DUP2 EQ PUSH2 0x1538 JUMPI PUSH1 0x0 DUP1 REVERT JUMPDEST SWAP2 SWAP1 POP JUMP JUMPDEST PUSH1 0x0 PUSH1 0x20 DUP3 DUP5 SUB SLT ISZERO PUSH2 0x154F JUMPI PUSH1 0x0 DUP1 REVERT JUMPDEST PUSH2 0x1558 DUP3 PUSH2 0x1520 JUMP JUMPDEST SWAP4 SWAP3 POP POP POP JUMP JUMPDEST DUP1 CALLDATALOAD PUSH1 0x1 PUSH1 0x1 PUSH1 0xA0 SHL SUB DUP2 AND DUP2 EQ PUSH2 0x1538 JUMPI PUSH1 0x0 DUP1 REVERT JUMPDEST PUSH1 0x0 DUP1 DUP4 PUSH1 0x1F DUP5 ADD SLT PUSH2 0x1588 JUMPI PUSH1 0x0 DUP1 REVERT JUMPDEST POP DUP2 CALLDATALOAD PUSH8 0xFFFFFFFFFFFFFFFF DUP2 GT ISZERO PUSH2 0x15A0 JUMPI PUSH1 0x0 DUP1 REVERT JUMPDEST PUSH1 0x20 DUP4 ADD SWAP2 POP DUP4 PUSH1 0x20 DUP3 DUP6 ADD ADD GT ISZERO PUSH2 0x15B8 JUMPI PUSH1 0x0 DUP1 REVERT JUMPDEST SWAP3 POP SWAP3 SWAP1 POP JUMP JUMPDEST PUSH1 0x0 DUP1 PUSH1 0x0 DUP1 PUSH1 0x0 PUSH1 0x60 DUP7 DUP9 SUB SLT ISZERO PUSH2 0x15D7 JUMPI PUSH1 0x0 DUP1 REVERT JUMPDEST DUP6 CALLDATALOAD PUSH8 0xFFFFFFFFFFFFFFFF DUP1 DUP3 GT ISZERO PUSH2 0x15EF JUMPI PUSH1 0x0 DUP1 REVERT JUMPDEST DUP2 DUP9 ADD SWAP2 POP DUP9 PUSH1 0x1F DUP4 ADD SLT PUSH2 0x1603 JUMPI PUSH1 0x0 DUP1 REVERT JUMPDEST DUP2 CALLDATALOAD DUP2 DUP2 GT ISZERO PUSH2 0x1612 JUMPI PUSH1 0x0 DUP1 REVERT JUMPDEST DUP10 PUSH1 0x20 DUP3 PUSH1 0x5 SHL DUP6 ADD ADD GT ISZERO PUSH2 0x1627 JUMPI PUSH1 0x0 DUP1 REVERT JUMPDEST PUSH1 0x20 DUP4 ADD SWAP8 POP DUP1 SWAP7 POP POP PUSH2 0x163D PUSH1 0x20 DUP10 ADD PUSH2 0x155F JUMP JUMPDEST SWAP5 POP PUSH1 0x40 DUP9 ADD CALLDATALOAD SWAP2 POP DUP1 DUP3 GT ISZERO PUSH2 0x1653 JUMPI PUSH1 0x0 DUP1 REVERT JUMPDEST POP PUSH2 0x1660 DUP9 DUP3 DUP10 ADD PUSH2 0x1576 JUMP JUMPDEST SWAP7 SWAP10 SWAP6 SWAP9 POP SWAP4 SWAP7 POP SWAP3 SWAP5 SWAP4 SWAP3 POP POP POP JUMP JUMPDEST PUSH1 0x20 DUP1 DUP3 MSTORE DUP3 MLOAD DUP3 DUP3 ADD DUP2 SWAP1 MSTORE PUSH1 0x0 SWAP2 SWAP1 DUP5 DUP3 ADD SWAP1 PUSH1 0x40 DUP6 ADD SWAP1 DUP5 JUMPDEST DUP2 DUP2 LT ISZERO PUSH2 0x16B2 JUMPI DUP4 MLOAD PUSH1 0x1 PUSH1 0x1 PUSH1 0xA0 SHL SUB AND DUP4 MSTORE SWAP3 DUP5 ADD SWAP3 SWAP2 DUP5 ADD SWAP2 PUSH1 0x1 ADD PUSH2 0x168D JUMP JUMPDEST POP SWAP1 SWAP7 SWAP6 POP POP POP POP POP POP JUMP JUMPDEST PUSH1 0x0 DUP2 MLOAD DUP1 DUP5 MSTORE PUSH1 0x20 DUP1 DUP6 ADD SWAP5 POP DUP1 DUP5 ADD PUSH1 0x0 JUMPDEST DUP4 DUP2 LT ISZERO PUSH2 0x16F8 JUMPI DUP2 MLOAD PUSH1 0x1 PUSH1 0x1 PUSH1 0xE0 SHL SUB NOT AND DUP8 MSTORE SWAP6 DUP3 ADD SWAP6 SWAP1 DUP3 ADD SWAP1 PUSH1 0x1 ADD PUSH2 0x16D2 JUMP JUMPDEST POP SWAP5 SWAP6 SWAP5 POP POP POP POP POP JUMP JUMPDEST PUSH1 0x0 PUSH1 0x20 DUP1 DUP4 ADD DUP2 DUP5 MSTORE DUP1 DUP6 MLOAD DUP1 DUP4 MSTORE PUSH1 0x40 SWAP3 POP DUP3 DUP7 ADD SWAP2 POP DUP3 DUP2 PUSH1 0x5 SHL DUP8 ADD ADD DUP5 DUP9 ADD PUSH1 0x0 JUMPDEST DUP4 DUP2 LT ISZERO PUSH2 0x1772 JUMPI DUP9 DUP4 SUB PUSH1 0x3F NOT ADD DUP6 MSTORE DUP2 MLOAD DUP1 MLOAD PUSH1 0x1 PUSH1 0x1 PUSH1 0xA0 SHL SUB AND DUP5 MSTORE DUP8 ADD MLOAD DUP8 DUP5 ADD DUP8 SWAP1 MSTORE PUSH2 0x175F DUP8 DUP6 ADD DUP3 PUSH2 0x16BE JUMP JUMPDEST SWAP6 DUP9 ADD SWAP6 SWAP4 POP POP SWAP1 DUP7 ADD SWAP1 PUSH1 0x1 ADD PUSH2 0x172A JUMP JUMPDEST POP SWAP1 SWAP9 SWAP8 POP POP POP POP POP POP POP POP JUMP JUMPDEST PUSH1 0x0 PUSH1 0x20 DUP3 DUP5 SUB SLT ISZERO PUSH2 0x1792 JUMPI PUSH1 0x0 DUP1 REVERT JUMPDEST PUSH2 0x1558 DUP3 PUSH2 0x155F JUMP JUMPDEST PUSH1 0x20 DUP1 DUP3 MSTORE DUP3 MLOAD DUP3 DUP3 ADD DUP2 SWAP1 MSTORE PUSH1 0x0 SWAP2 SWAP1 DUP5 DUP3 ADD SWAP1 PUSH1 0x40 DUP6 ADD SWAP1 DUP5 JUMPDEST DUP2 DUP2 LT ISZERO PUSH2 0x16B2 JUMPI DUP4 MLOAD PUSH1 0x1 PUSH1 0x1 PUSH1 0xE0 SHL SUB NOT AND DUP4 MSTORE SWAP3 DUP5 ADD SWAP3 SWAP2 DUP5 ADD SWAP2 PUSH1 0x1 ADD PUSH2 0x17B7 JUMP JUMPDEST PUSH4 0x4E487B71 PUSH1 0xE0 SHL PUSH1 0x0 MSTORE PUSH1 0x41 PUSH1 0x4 MSTORE PUSH1 0x24 PUSH1 0x0 REVERT JUMPDEST PUSH1 0x40 MLOAD PUSH1 0x60 DUP2 ADD PUSH8 0xFFFFFFFFFFFFFFFF DUP2 GT DUP3 DUP3 LT OR ISZERO PUSH2 0x1816 JUMPI PUSH2 0x1816 PUSH2 0x17DD JUMP JUMPDEST PUSH1 0x40 MSTORE SWAP1 JUMP JUMPDEST PUSH1 0x40 MLOAD PUSH1 0x1F DUP3 ADD PUSH1 0x1F NOT AND DUP2 ADD PUSH8 0xFFFFFFFFFFFFFFFF DUP2 GT DUP3 DUP3 LT OR ISZERO PUSH2 0x1845 JUMPI PUSH2 0x1845 PUSH2 0x17DD JUMP JUMPDEST PUSH1 0x40 MSTORE SWAP2 SWAP1 POP JUMP JUMPDEST PUSH1 0x0 PUSH8 0xFFFFFFFFFFFFFFFF DUP3 GT ISZERO PUSH2 0x1867 JUMPI PUSH2 0x1867 PUSH2 0x17DD JUMP JUMPDEST POP PUSH1 0x5 SHL PUSH1 0x20 ADD SWAP1 JUMP JUMPDEST PUSH1 0x0 PUSH2 0x1884 PUSH2 0x187F DUP5 PUSH2 0x184D JUMP JUMPDEST PUSH2 0x181C JUMP JUMPDEST DUP4 DUP2 MSTORE PUSH1 0x20 DUP1 DUP3 ADD SWAP2 SWAP1 PUSH1 0x5 DUP7 DUP2 SHL DUP7 ADD CALLDATASIZE DUP2 GT ISZERO PUSH2 0x18A2 JUMPI PUSH1 0x0 DUP1 REVERT JUMPDEST DUP7 JUMPDEST DUP2 DUP2 LT ISZERO PUSH2 0x1998 JUMPI DUP1 CALLDATALOAD PUSH8 0xFFFFFFFFFFFFFFFF DUP1 DUP3 GT ISZERO PUSH2 0x18C5 JUMPI PUSH1 0x0 DUP1 DUP2 REVERT JUMPDEST DUP2 DUP11 ADD SWAP2 POP PUSH1 0x60 DUP3 CALLDATASIZE SUB SLT ISZERO PUSH2 0x18DB JUMPI PUSH1 0x0 DUP1 DUP2 REVERT JUMPDEST PUSH2 0x18E3 PUSH2 0x17F3 JUMP JUMPDEST PUSH2 0x18EC DUP4 PUSH2 0x155F JUMP JUMPDEST DUP2 MSTORE DUP7 DUP4 ADD CALLDATALOAD PUSH1 0x3 DUP2 LT PUSH2 0x1900 JUMPI PUSH1 0x0 DUP1 DUP2 REVERT JUMPDEST DUP2 DUP9 ADD MSTORE PUSH1 0x40 DUP4 DUP2 ADD CALLDATALOAD DUP4 DUP2 GT ISZERO PUSH2 0x1918 JUMPI PUSH1 0x0 DUP1 DUP2 REVERT JUMPDEST SWAP4 SWAP1 SWAP4 ADD SWAP3 CALLDATASIZE PUSH1 0x1F DUP6 ADD SLT PUSH2 0x192F JUMPI PUSH1 0x0 SWAP3 POP DUP3 DUP4 REVERT JUMPDEST DUP4 CALLDATALOAD SWAP3 POP PUSH2 0x193F PUSH2 0x187F DUP5 PUSH2 0x184D JUMP JUMPDEST DUP4 DUP2 MSTORE SWAP3 DUP8 SHL DUP5 ADD DUP9 ADD SWAP3 DUP9 DUP2 ADD SWAP1 CALLDATASIZE DUP6 GT ISZERO PUSH2 0x195C JUMPI PUSH1 0x0 DUP1 DUP2 REVERT JUMPDEST SWAP5 DUP10 ADD SWAP5 JUMPDEST DUP5 DUP7 LT ISZERO PUSH2 0x1981 JUMPI PUSH2 0x1972 DUP7 PUSH2 0x1520 JUMP JUMPDEST DUP3 MSTORE SWAP5 DUP10 ADD SWAP5 SWAP1 DUP10 ADD SWAP1 PUSH2 0x1961 JUMP JUMPDEST SWAP2 DUP4 ADD SWAP2 SWAP1 SWAP2 MSTORE POP DUP9 MSTORE POP POP SWAP5 DUP4 ADD SWAP5 DUP4 ADD PUSH2 0x18A4 JUMP JUMPDEST POP SWAP3 SWAP8 SWAP7 POP POP POP POP POP POP POP JUMP JUMPDEST PUSH4 0x4E487B71 PUSH1 0xE0 SHL PUSH1 0x0 MSTORE PUSH1 0x11 PUSH1 0x4 MSTORE PUSH1 0x24 PUSH1 0x0 REVERT JUMPDEST PUSH1 0x0 PUSH1 0x1 DUP3 ADD PUSH2 0x19CD JUMPI PUSH2 0x19CD PUSH2 0x19A5 JUMP JUMPDEST POP PUSH1 0x1 ADD SWAP1 JUMP JUMPDEST PUSH4 0x4E487B71 PUSH1 0xE0 SHL PUSH1 0x0 MSTORE PUSH1 0x32 PUSH1 0x4 MSTORE PUSH1 0x24 PUSH1 0x0 REVERT JUMPDEST PUSH1 0x0 PUSH1 0xFF DUP3 AND PUSH1 0xFF DUP2 SUB PUSH2 0x1A00 JUMPI PUSH2 0x1A00 PUSH2 0x19A5 JUMP JUMPDEST PUSH1 0x1 ADD SWAP3 SWAP2 POP POP JUMP JUMPDEST PUSH4 0x4E487B71 PUSH1 0xE0 SHL PUSH1 0x0 MSTORE PUSH1 0x21 PUSH1 0x4 MSTORE PUSH1 0x24 PUSH1 0x0 REVERT JUMPDEST PUSH1 0x0 JUMPDEST DUP4 DUP2 LT ISZERO PUSH2 0x1A3A JUMPI DUP2 DUP2 ADD MLOAD DUP4 DUP3 ADD MSTORE PUSH1 0x20 ADD PUSH2 0x1A22 JUMP JUMPDEST POP POP PUSH1 0x0 SWAP2 ADD MSTORE JUMP JUMPDEST PUSH1 0x0 DUP2 MLOAD DUP1 DUP5 MSTORE PUSH2 0x1A5B DUP2 PUSH1 0x20 DUP7 ADD PUSH1 0x20 DUP7 ADD PUSH2 0x1A1F JUMP JUMPDEST PUSH1 0x1F ADD PUSH1 0x1F NOT AND SWAP3 SWAP1 SWAP3 ADD PUSH1 0x20 ADD SWAP3 SWAP2 POP POP JUMP JUMPDEST PUSH1 0x0 PUSH1 0x60 DUP1 DUP4 ADD DUP2 DUP5 MSTORE DUP1 DUP8 MLOAD DUP1 DUP4 MSTORE PUSH1 0x80 DUP7 ADD SWAP2 POP PUSH1 0x80 DUP2 PUSH1 0x5 SHL DUP8 ADD ADD SWAP3 POP PUSH1 0x20 DUP1 DUP11 ADD PUSH1 0x0 DUP1 JUMPDEST DUP5 DUP2 LT ISZERO PUSH2 0x1B08 JUMPI DUP10 DUP8 SUB PUSH1 0x7F NOT ADD DUP7 MSTORE DUP3 MLOAD DUP1 MLOAD PUSH1 0x1 PUSH1 0x1 PUSH1 0xA0 SHL SUB AND DUP9 MSTORE DUP5 DUP2 ADD MLOAD PUSH1 0x3 DUP2 LT PUSH2 0x1AD9 JUMPI PUSH4 0x4E487B71 PUSH1 0xE0 SHL DUP5 MSTORE PUSH1 0x21 PUSH1 0x4 MSTORE PUSH1 0x24 DUP5 REVERT JUMPDEST DUP9 DUP7 ADD MSTORE PUSH1 0x40 SWAP1 DUP2 ADD MLOAD SWAP1 DUP9 ADD DUP10 SWAP1 MSTORE PUSH2 0x1AF5 DUP10 DUP10 ADD DUP3 PUSH2 0x16BE JUMP JUMPDEST SWAP8 POP POP SWAP5 DUP4 ADD SWAP5 SWAP2 DUP4 ADD SWAP2 PUSH1 0x1 ADD PUSH2 0x1A99 JUMP JUMPDEST POP POP POP PUSH1 0x1 PUSH1 0x1 PUSH1 0xA0 SHL SUB DUP10 AND SWAP1 DUP8 ADD MSTORE POP POP DUP4 DUP2 SUB PUSH1 0x40 DUP6 ADD MSTORE PUSH2 0x1B2D DUP2 DUP7 PUSH2 0x1A43 JUMP JUMPDEST SWAP8 SWAP7 POP POP POP POP POP POP POP JUMP JUMPDEST PUSH1 0x0 DUP3 MLOAD PUSH2 0x1B4A DUP2 DUP5 PUSH1 0x20 DUP8 ADD PUSH2 0x1A1F JUMP JUMPDEST SWAP2 SWAP1 SWAP2 ADD SWAP3 SWAP2 POP POP JUMP INVALID OR PUSH21 0x81AC65E4292921C69F62D1CC7F57541261E5D61C81 PUSH22 0xCF4E36A01C9BFC94177481AC65E4292921C69F62D1CC PUSH32 0x57541261E5D61C8175CF4E36A01C9BFC93A26469706673582212204FD3E61E32 0xCA 0xBD 0x24 0x23 SWAP3 XOR 0xD2 0xA5 PUSH2 0x8D68 GT RETURN 0xC5 RETURNDATASIZE SWAP2 SUB 0xEB 0x5D 0xD7 PUSH20 0xAA327300861664736F6C63430008130033000000 "
		},
		"gasEstimates": {
			"creation": {
				"codeDepositCost": "1422800",
				"executionCost": "infinite",
				"totalCost": "infinite"
			},
			"external": {
				"": "infinite",
				"acceptOwnership()": "54659",
				"diamondCut((address,uint8,bytes4[])[],address,bytes)": "infinite",
				"facetAddress(bytes4)": "infinite",
				"facetAddresses()": "infinite",
				"facetFunctionSelectors(address)": "infinite",
				"facets()": "infinite",
				"getFallbackAddress()": "2414",
				"nomineeOwner()": "2401",
				"owner()": "2412",
				"setFallbackAddress(address)": "26814",
				"supportsInterface(bytes4)": "2545",
				"transferOwnership(address)": "infinite"
			}
		},
		"methodIdentifiers": {
			"acceptOwnership()": "79ba5097",
			"diamondCut((address,uint8,bytes4[])[],address,bytes)": "1f931c1c",
			"facetAddress(bytes4)": "cdffacc6",
			"facetAddresses()": "52ef6b2c",
			"facetFunctionSelectors(address)": "adfca15e",
			"facets()": "7a0ed627",
			"getFallbackAddress()": "2c408059",
			"nomineeOwner()": "8ab5150a",
			"owner()": "8da5cb5b",
			"setFallbackAddress(address)": "91423765",
			"supportsInterface(bytes4)": "01ffc9a7",
			"transferOwnership(address)": "f2fde38b"
		}
	},
	"abi": [
		{
			"inputs": [],
			"name": "DiamondWritable__InvalidInitializationParameters",
			"type": "error"
		},
		{
			"inputs": [],
			"name": "DiamondWritable__RemoveTargetNotZeroAddress",
			"type": "error"
		},
		{
			"inputs": [],
			"name": "DiamondWritable__ReplaceTargetIsIdentical",
			"type": "error"
		},
		{
			"inputs": [],
			"name": "DiamondWritable__SelectorAlreadyAdded",
			"type": "error"
		},
		{
			"inputs": [],
			"name": "DiamondWritable__SelectorIsImmutable",
			"type": "error"
		},
		{
			"inputs": [],
			"name": "DiamondWritable__SelectorNotFound",
			"type": "error"
		},
		{
			"inputs": [],
			"name": "DiamondWritable__SelectorNotSpecified",
			"type": "error"
		},
		{
			"inputs": [],
			"name": "DiamondWritable__TargetHasNoCode",
			"type": "error"
		},
		{
			"inputs": [],
			"name": "ERC165Base__InvalidInterfaceId",
			"type": "error"
		},
		{
			"inputs": [],
			"name": "Ownable__NotOwner",
			"type": "error"
		},
		{
			"inputs": [],
			"name": "Ownable__NotTransitiveOwner",
			"type": "error"
		},
		{
			"inputs": [],
			"name": "Proxy__ImplementationIsNotContract",
			"type": "error"
		},
		{
			"inputs": [],
			"name": "SafeOwnable__NotNomineeOwner",
			"type": "error"
		},
		{
			"anonymous": false,
			"inputs": [
				{
					"components": [
						{
							"internalType": "address",
							"name": "target",
							"type": "address"
						},
						{
							"internalType": "enum IDiamondWritableInternal.FacetCutAction",
							"name": "action",
							"type": "uint8"
						},
						{
							"internalType": "bytes4[]",
							"name": "selectors",
							"type": "bytes4[]"
						}
					],
					"indexed": false,
					"internalType": "struct IDiamondWritableInternal.FacetCut[]",
					"name": "facetCuts",
					"type": "tuple[]"
				},
				{
					"indexed": false,
					"internalType": "address",
					"name": "target",
					"type": "address"
				},
				{
					"indexed": false,
					"internalType": "bytes",
					"name": "data",
					"type": "bytes"
				}
			],
			"name": "DiamondCut",
			"type": "event"
		},
		{
			"anonymous": false,
			"inputs": [
				{
					"indexed": true,
					"internalType": "address",
					"name": "previousOwner",
					"type": "address"
				},
				{
					"indexed": true,
					"internalType": "address",
					"name": "newOwner",
					"type": "address"
				}
			],
			"name": "OwnershipTransferred",
			"type": "event"
		},
		{
			"stateMutability": "payable",
			"type": "fallback"
		},
		{
			"inputs": [],
			"name": "acceptOwnership",
			"outputs": [],
			"stateMutability": "nonpayable",
			"type": "function"
		},
		{
			"inputs": [
				{
					"components": [
						{
							"internalType": "address",
							"name": "target",
							"type": "address"
						},
						{
							"internalType": "enum IDiamondWritableInternal.FacetCutAction",
							"name": "action",
							"type": "uint8"
						},
						{
							"internalType": "bytes4[]",
							"name": "selectors",
							"type": "bytes4[]"
						}
					],
					"internalType": "struct IDiamondWritableInternal.FacetCut[]",
					"name": "facetCuts",
					"type": "tuple[]"
				},
				{
					"internalType": "address",
					"name": "target",
					"type": "address"
				},
				{
					"internalType": "bytes",
					"name": "data",
					"type": "bytes"
				}
			],
			"name": "diamondCut",
			"outputs": [],
			"stateMutability": "nonpayable",
			"type": "function"
		},
		{
			"inputs": [
				{
					"internalType": "bytes4",
					"name": "selector",
					"type": "bytes4"
				}
			],
			"name": "facetAddress",
			"outputs": [
				{
					"internalType": "address",
					"name": "facet",
					"type": "address"
				}
			],
			"stateMutability": "view",
			"type": "function"
		},
		{
			"inputs": [],
			"name": "facetAddresses",
			"outputs": [
				{
					"internalType": "address[]",
					"name": "addresses",
					"type": "address[]"
				}
			],
			"stateMutability": "view",
			"type": "function"
		},
		{
			"inputs": [
				{
					"internalType": "address",
					"name": "facet",
					"type": "address"
				}
			],
			"name": "facetFunctionSelectors",
			"outputs": [
				{
					"internalType": "bytes4[]",
					"name": "selectors",
					"type": "bytes4[]"
				}
			],
			"stateMutability": "view",
			"type": "function"
		},
		{
			"inputs": [],
			"name": "facets",
			"outputs": [
				{
					"components": [
						{
							"internalType": "address",
							"name": "target",
							"type": "address"
						},
						{
							"internalType": "bytes4[]",
							"name": "selectors",
							"type": "bytes4[]"
						}
					],
					"internalType": "struct IDiamondReadable.Facet[]",
					"name": "diamondFacets",
					"type": "tuple[]"
				}
			],
			"stateMutability": "view",
			"type": "function"
		},
		{
			"inputs": [],
			"name": "getFallbackAddress",
			"outputs": [
				{
					"internalType": "address",
					"name": "fallbackAddress",
					"type": "address"
				}
			],
			"stateMutability": "view",
			"type": "function"
		},
		{
			"inputs": [],
			"name": "nomineeOwner",
			"outputs": [
				{
					"internalType": "address",
					"name": "",
					"type": "address"
				}
			],
			"stateMutability": "view",
			"type": "function"
		},
		{
			"inputs": [],
			"name": "owner",
			"outputs": [
				{
					"internalType": "address",
					"name": "",
					"type": "address"
				}
			],
			"stateMutability": "view",
			"type": "function"
		},
		{
			"inputs": [
				{
					"internalType": "address",
					"name": "fallbackAddress",
					"type": "address"
				}
			],
			"name": "setFallbackAddress",
			"outputs": [],
			"stateMutability": "nonpayable",
			"type": "function"
		},
		{
			"inputs": [
				{
					"internalType": "bytes4",
					"name": "interfaceId",
					"type": "bytes4"
				}
			],
			"name": "supportsInterface",
			"outputs": [
				{
					"internalType": "bool",
					"name": "",
					"type": "bool"
				}
			],
			"stateMutability": "view",
			"type": "function"
		},
		{
			"inputs": [
				{
					"internalType": "address",
					"name": "account",
					"type": "address"
				}
			],
			"name": "transferOwnership",
			"outputs": [],
			"stateMutability": "nonpayable",
			"type": "function"
		},
		{
			"stateMutability": "payable",
			"type": "receive"
		}
	]
}