{
	"diamonds/facets/FacetChainlinkOracle.sol": {
		"FacetChainlinkOracle": {
			"abi": [
				{
					"anonymous": false,
					"inputs": [
						{
							"indexed": true,
							"internalType": "address",
							"name": "token",
							"type": "address"
						},
						{
							"indexed": true,
							"internalType": "address",
							"name": "oldPriceFeed",
							"type": "address"
						},
						{
							"indexed": true,
							"internalType": "address",
							"name": "newPriceFeed",
							"type": "address"
						}
					],
					"name": "ChainlinkPriceFeedAssigned",
					"type": "event"
				},
				{
					"inputs": [
						{
							"internalType": "address",
							"name": "token",
							"type": "address"
						},
						{
							"internalType": "address",
							"name": "newPriceFeed",
							"type": "address"
						}
					],
					"name": "____assignTokenToChainlinkPriceFeed",
					"outputs": [],
					"stateMutability": "nonpayable",
					"type": "function"
				},
				{
					"inputs": [
						{
							"internalType": "address",
							"name": "token",
							"type": "address"
						}
					],
					"name": "____unassignTokenToChainlinkPriceFeed",
					"outputs": [],
					"stateMutability": "nonpayable",
					"type": "function"
				},
				{
					"inputs": [
						{
							"internalType": "address",
							"name": "token",
							"type": "address"
						}
					],
					"name": "getChainlinkLatestAnswer",
					"outputs": [
						{
							"internalType": "uint256",
							"name": "",
							"type": "uint256"
						}
					],
					"stateMutability": "view",
					"type": "function"
				},
				{
					"inputs": [
						{
							"internalType": "address",
							"name": "token",
							"type": "address"
						}
					],
					"name": "getChainlinkLatestTimestamp",
					"outputs": [
						{
							"internalType": "uint256",
							"name": "",
							"type": "uint256"
						}
					],
					"stateMutability": "view",
					"type": "function"
				},
				{
					"inputs": [
						{
							"internalType": "address",
							"name": "token",
							"type": "address"
						}
					],
					"name": "getChainlinkPriceFeed",
					"outputs": [
						{
							"internalType": "address",
							"name": "",
							"type": "address"
						}
					],
					"stateMutability": "view",
					"type": "function"
				},
				{
					"inputs": [
						{
							"internalType": "address",
							"name": "token",
							"type": "address"
						}
					],
					"name": "hasChainlinkPriceFeed",
					"outputs": [
						{
							"internalType": "bool",
							"name": "",
							"type": "bool"
						}
					],
					"stateMutability": "view",
					"type": "function"
				}
			],
			"devdoc": {
				"kind": "dev",
				"methods": {},
				"version": 1
			},
			"evm": {
				"assembly": "    /* \"diamonds/facets/FacetChainlinkOracle.sol\":989:2882  contract FacetChainlinkOracle is SlotChainlinkOracle, Context {... */\n  mstore(0x40, 0x80)\n  callvalue\n  dup1\n  iszero\n  tag_1\n  jumpi\n  0x00\n  dup1\n  revert\ntag_1:\n  pop\n  dataSize(sub_0)\n  dup1\n  dataOffset(sub_0)\n  0x00\n  codecopy\n  0x00\n  return\nstop\n\nsub_0: assembly {\n        /* \"diamonds/facets/FacetChainlinkOracle.sol\":989:2882  contract FacetChainlinkOracle is SlotChainlinkOracle, Context {... */\n      mstore(0x40, 0x80)\n      callvalue\n      dup1\n      iszero\n      tag_1\n      jumpi\n      0x00\n      dup1\n      revert\n    tag_1:\n      pop\n      jumpi(tag_2, lt(calldatasize, 0x04))\n      shr(0xe0, calldataload(0x00))\n      dup1\n      0x1128ea3b\n      eq\n      tag_3\n      jumpi\n      dup1\n      0x179dff70\n      eq\n      tag_4\n      jumpi\n      dup1\n      0x82a3abac\n      eq\n      tag_5\n      jumpi\n      dup1\n      0x94abc1af\n      eq\n      tag_6\n      jumpi\n      dup1\n      0xce49c9b3\n      eq\n      tag_7\n      jumpi\n      dup1\n      0xd1a7092c\n      eq\n      tag_8\n      jumpi\n    tag_2:\n      0x00\n      dup1\n      revert\n        /* \"diamonds/facets/FacetChainlinkOracle.sol\":2141:2416  function getChainlinkLatestTimestamp(address token) public view virtual returns (uint) {... */\n    tag_3:\n      tag_9\n      tag_10\n      calldatasize\n      0x04\n      tag_11\n      jump\t// in\n    tag_10:\n      tag_12\n      jump\t// in\n    tag_9:\n      mload(0x40)\n        /* \"#utility.yul\":529:554   */\n      swap1\n      dup2\n      mstore\n        /* \"#utility.yul\":517:519   */\n      0x20\n        /* \"#utility.yul\":502:520   */\n      add\n        /* \"diamonds/facets/FacetChainlinkOracle.sol\":2141:2416  function getChainlinkLatestTimestamp(address token) public view virtual returns (uint) {... */\n    tag_13:\n      mload(0x40)\n      dup1\n      swap2\n      sub\n      swap1\n      return\n        /* \"diamonds/facets/FacetChainlinkOracle.sol\":1530:1851  function ____unassignTokenToChainlinkPriceFeed(address token) public virtual {... */\n    tag_4:\n      tag_15\n      tag_16\n      calldatasize\n      0x04\n      tag_11\n      jump\t// in\n    tag_16:\n      tag_17\n      jump\t// in\n    tag_15:\n      stop\n        /* \"diamonds/facets/FacetChainlinkOracle.sol\":1179:1524  function ____assignTokenToChainlinkPriceFeed(address token, address newPriceFeed) public virtual {... */\n    tag_5:\n      tag_15\n      tag_19\n      calldatasize\n      0x04\n      tag_20\n      jump\t// in\n    tag_19:\n      tag_21\n      jump\t// in\n        /* \"diamonds/facets/FacetChainlinkOracle.sol\":2422:2573  function getChainlinkPriceFeed(address token) public view virtual returns (address) {... */\n    tag_6:\n      tag_22\n      tag_23\n      calldatasize\n      0x04\n      tag_11\n      jump\t// in\n    tag_23:\n      tag_24\n      jump\t// in\n    tag_22:\n      mload(0x40)\n      sub(shl(0xa0, 0x01), 0x01)\n        /* \"#utility.yul\":994:1026   */\n      swap1\n      swap2\n      and\n        /* \"#utility.yul\":976:1027   */\n      dup2\n      mstore\n        /* \"#utility.yul\":964:966   */\n      0x20\n        /* \"#utility.yul\":949:967   */\n      add\n        /* \"diamonds/facets/FacetChainlinkOracle.sol\":2422:2573  function getChainlinkPriceFeed(address token) public view virtual returns (address) {... */\n      tag_13\n        /* \"#utility.yul\":830:1033   */\n      jump\n        /* \"diamonds/facets/FacetChainlinkOracle.sol\":2579:2741  function hasChainlinkPriceFeed(address token) public view virtual returns (bool) {... */\n    tag_7:\n      tag_27\n      tag_28\n      calldatasize\n      0x04\n      tag_11\n      jump\t// in\n    tag_28:\n      tag_29\n      jump\t// in\n    tag_27:\n      mload(0x40)\n        /* \"#utility.yul\":1203:1217   */\n      swap1\n      iszero\n        /* \"#utility.yul\":1196:1218   */\n      iszero\n        /* \"#utility.yul\":1178:1219   */\n      dup2\n      mstore\n        /* \"#utility.yul\":1166:1168   */\n      0x20\n        /* \"#utility.yul\":1151:1169   */\n      add\n        /* \"diamonds/facets/FacetChainlinkOracle.sol\":2579:2741  function hasChainlinkPriceFeed(address token) public view virtual returns (bool) {... */\n      tag_13\n        /* \"#utility.yul\":1038:1225   */\n      jump\n        /* \"diamonds/facets/FacetChainlinkOracle.sol\":1866:2135  function getChainlinkLatestAnswer(address token) public view virtual returns (uint) {... */\n    tag_8:\n      tag_9\n      tag_33\n      calldatasize\n      0x04\n      tag_11\n      jump\t// in\n    tag_33:\n      tag_34\n      jump\t// in\n        /* \"diamonds/facets/FacetChainlinkOracle.sol\":2141:2416  function getChainlinkLatestTimestamp(address token) public view virtual returns (uint) {... */\n    tag_12:\n        /* \"diamonds/facets/FacetChainlinkOracle.sol\":2222:2226  uint */\n      0x00\n        /* \"diamonds/facets/FacetChainlinkOracle.sol\":2242:2270  hasChainlinkPriceFeed(token) */\n      tag_37\n        /* \"diamonds/facets/FacetChainlinkOracle.sol\":2264:2269  token */\n      dup3\n        /* \"diamonds/facets/FacetChainlinkOracle.sol\":2242:2263  hasChainlinkPriceFeed */\n      tag_29\n        /* \"diamonds/facets/FacetChainlinkOracle.sol\":2242:2270  hasChainlinkPriceFeed(token) */\n      jump\t// in\n    tag_37:\n        /* \"diamonds/facets/FacetChainlinkOracle.sol\":2238:2410  if (hasChainlinkPriceFeed(token)) {... */\n      iszero\n      tag_38\n      jumpi\n        /* \"diamonds/facets/FacetChainlinkOracle.sol\":2313:2341  getChainlinkPriceFeed(token) */\n      tag_39\n        /* \"diamonds/facets/FacetChainlinkOracle.sol\":2335:2340  token */\n      dup3\n        /* \"diamonds/facets/FacetChainlinkOracle.sol\":2313:2334  getChainlinkPriceFeed */\n      tag_24\n        /* \"diamonds/facets/FacetChainlinkOracle.sol\":2313:2341  getChainlinkPriceFeed(token) */\n      jump\t// in\n    tag_39:\n      sub(shl(0xa0, 0x01), 0x01)\n        /* \"diamonds/facets/FacetChainlinkOracle.sol\":2293:2358  IEACAggregatorProxy(getChainlinkPriceFeed(token)).latestTimestamp */\n      and\n      0x8205bf6a\n        /* \"diamonds/facets/FacetChainlinkOracle.sol\":2293:2360  IEACAggregatorProxy(getChainlinkPriceFeed(token)).latestTimestamp() */\n      mload(0x40)\n      dup2\n      0xffffffff\n      and\n      0xe0\n      shl\n      dup2\n      mstore\n      0x04\n      add\n      0x20\n      mload(0x40)\n      dup1\n      dup4\n      sub\n      dup2\n      dup7\n      gas\n      staticcall\n      iszero\n      dup1\n      iszero\n      tag_41\n      jumpi\n      returndatasize\n      0x00\n      dup1\n      returndatacopy\n      revert(0x00, returndatasize)\n    tag_41:\n      pop\n      pop\n      pop\n      pop\n      mload(0x40)\n      returndatasize\n      not(0x1f)\n      0x1f\n      dup3\n      add\n      and\n      dup3\n      add\n      dup1\n      0x40\n      mstore\n      pop\n      dup2\n      add\n      swap1\n      tag_42\n      swap2\n      swap1\n      tag_43\n      jump\t// in\n    tag_42:\n        /* \"diamonds/facets/FacetChainlinkOracle.sol\":2286:2360  return IEACAggregatorProxy(getChainlinkPriceFeed(token)).latestTimestamp() */\n      swap3\n        /* \"diamonds/facets/FacetChainlinkOracle.sol\":2141:2416  function getChainlinkLatestTimestamp(address token) public view virtual returns (uint) {... */\n      swap2\n      pop\n      pop\n      jump\t// out\n        /* \"diamonds/facets/FacetChainlinkOracle.sol\":2238:2410  if (hasChainlinkPriceFeed(token)) {... */\n    tag_38:\n      pop\n        /* \"diamonds/facets/FacetChainlinkOracle.sol\":2398:2399  0 */\n      0x00\n      swap2\n        /* \"diamonds/facets/FacetChainlinkOracle.sol\":2141:2416  function getChainlinkLatestTimestamp(address token) public view virtual returns (uint) {... */\n      swap1\n      pop\n      jump\t// out\n        /* \"diamonds/facets/FacetChainlinkOracle.sol\":2238:2410  if (hasChainlinkPriceFeed(token)) {... */\n    tag_44:\n        /* \"diamonds/facets/FacetChainlinkOracle.sol\":2141:2416  function getChainlinkLatestTimestamp(address token) public view virtual returns (uint) {... */\n      swap2\n      swap1\n      pop\n      jump\t// out\n        /* \"diamonds/facets/FacetChainlinkOracle.sol\":1530:1851  function ____unassignTokenToChainlinkPriceFeed(address token) public virtual {... */\n    tag_17:\n        /* \"diamonds/facets/FacetChainlinkOracle.sol\":1617:1628  _onlySelf() */\n      tag_46\n        /* \"diamonds/facets/FacetChainlinkOracle.sol\":1617:1626  _onlySelf */\n      tag_47\n        /* \"diamonds/facets/FacetChainlinkOracle.sol\":1617:1628  _onlySelf() */\n      jump\t// in\n    tag_46:\n      sub(shl(0xa0, 0x01), 0x01)\n        /* \"diamonds/facets/FacetChainlinkOracle.sol\":1661:1704  chainlinkOracle().chainlinkPriceFeed[token] */\n      dup2\n      dup2\n      and\n        /* \"diamonds/facets/FacetChainlinkOracle.sol\":1638:1658  address oldPriceFeed */\n      0x00\n        /* \"diamonds/facets/FacetChainlinkOracle.sol\":1661:1704  chainlinkOracle().chainlinkPriceFeed[token] */\n      dup2\n      dup2\n      mstore\n        /* \"diamonds/facets/slots/SlotChainlinkOracle.sol\":138:172  keccak256('slot.chainlink.oracle') */\n      0x09c1bd07f41f39c402056ed4f84031a21fc6dd44454b5a4bead86cc6d5e198c6\n        /* \"diamonds/facets/FacetChainlinkOracle.sol\":1661:1704  chainlinkOracle().chainlinkPriceFeed[token] */\n      0x20\n      mstore\n      0x40\n      dup1\n      dup3\n      keccak256\n      dup1\n      sload\n      not(sub(shl(0xa0, 0x01), 0x01))\n        /* \"diamonds/facets/FacetChainlinkOracle.sol\":1714:1770  chainlinkOracle().chainlinkPriceFeed[token] = address(0) */\n      dup2\n      and\n      swap1\n      swap2\n      sstore\n        /* \"diamonds/facets/FacetChainlinkOracle.sol\":1785:1844  ChainlinkPriceFeedAssigned(token, oldPriceFeed, address(0)) */\n      swap1\n      mload\n        /* \"diamonds/facets/FacetChainlinkOracle.sol\":1661:1704  chainlinkOracle().chainlinkPriceFeed[token] */\n      swap4\n      and\n      swap3\n        /* \"diamonds/facets/FacetChainlinkOracle.sol\":1638:1658  address oldPriceFeed */\n      swap1\n      swap2\n        /* \"diamonds/facets/FacetChainlinkOracle.sol\":1661:1704  chainlinkOracle().chainlinkPriceFeed[token] */\n      dup4\n      swap2\n        /* \"diamonds/facets/FacetChainlinkOracle.sol\":1785:1844  ChainlinkPriceFeedAssigned(token, oldPriceFeed, address(0)) */\n      0xd0c47dc6b57ec438daaaa3787ddfc8b61a28f0b9a5b44d7cc9b7c4ea533a3df7\n      swap1\n        /* \"diamonds/facets/FacetChainlinkOracle.sol\":1638:1658  address oldPriceFeed */\n      dup5\n      swap1\n        /* \"diamonds/facets/FacetChainlinkOracle.sol\":1785:1844  ChainlinkPriceFeedAssigned(token, oldPriceFeed, address(0)) */\n      log4\n        /* \"diamonds/facets/FacetChainlinkOracle.sol\":1607:1851  {... */\n      pop\n        /* \"diamonds/facets/FacetChainlinkOracle.sol\":1530:1851  function ____unassignTokenToChainlinkPriceFeed(address token) public virtual {... */\n      pop\n      jump\t// out\n        /* \"diamonds/facets/FacetChainlinkOracle.sol\":1179:1524  function ____assignTokenToChainlinkPriceFeed(address token, address newPriceFeed) public virtual {... */\n    tag_21:\n        /* \"diamonds/facets/FacetChainlinkOracle.sol\":1286:1297  _onlySelf() */\n      tag_52\n        /* \"diamonds/facets/FacetChainlinkOracle.sol\":1286:1295  _onlySelf */\n      tag_47\n        /* \"diamonds/facets/FacetChainlinkOracle.sol\":1286:1297  _onlySelf() */\n      jump\t// in\n    tag_52:\n      sub(shl(0xa0, 0x01), 0x01)\n        /* \"diamonds/facets/FacetChainlinkOracle.sol\":1330:1373  chainlinkOracle().chainlinkPriceFeed[token] */\n      dup3\n      dup2\n      and\n        /* \"diamonds/facets/FacetChainlinkOracle.sol\":1307:1327  address oldPriceFeed */\n      0x00\n        /* \"diamonds/facets/FacetChainlinkOracle.sol\":1330:1373  chainlinkOracle().chainlinkPriceFeed[token] */\n      dup2\n      dup2\n      mstore\n        /* \"diamonds/facets/slots/SlotChainlinkOracle.sol\":138:172  keccak256('slot.chainlink.oracle') */\n      0x09c1bd07f41f39c402056ed4f84031a21fc6dd44454b5a4bead86cc6d5e198c6\n        /* \"diamonds/facets/FacetChainlinkOracle.sol\":1330:1373  chainlinkOracle().chainlinkPriceFeed[token] */\n      0x20\n      mstore\n      0x40\n      dup1\n      dup3\n      keccak256\n      dup1\n      sload\n        /* \"diamonds/facets/FacetChainlinkOracle.sol\":1383:1441  chainlinkOracle().chainlinkPriceFeed[token] = newPriceFeed */\n      dup7\n      dup7\n      and\n      not(sub(shl(0xa0, 0x01), 0x01))\n      dup3\n      and\n      dup2\n      or\n      swap1\n      swap3\n      sstore\n        /* \"diamonds/facets/FacetChainlinkOracle.sol\":1456:1517  ChainlinkPriceFeedAssigned(token, oldPriceFeed, newPriceFeed) */\n      swap2\n      mload\n        /* \"diamonds/facets/FacetChainlinkOracle.sol\":1330:1373  chainlinkOracle().chainlinkPriceFeed[token] */\n      swap2\n      swap1\n      swap5\n      and\n      swap4\n        /* \"diamonds/facets/FacetChainlinkOracle.sol\":1383:1441  chainlinkOracle().chainlinkPriceFeed[token] = newPriceFeed */\n      swap3\n        /* \"diamonds/facets/FacetChainlinkOracle.sol\":1330:1373  chainlinkOracle().chainlinkPriceFeed[token] */\n      dup5\n      swap3\n      swap1\n      swap2\n        /* \"diamonds/facets/FacetChainlinkOracle.sol\":1456:1517  ChainlinkPriceFeedAssigned(token, oldPriceFeed, newPriceFeed) */\n      0xd0c47dc6b57ec438daaaa3787ddfc8b61a28f0b9a5b44d7cc9b7c4ea533a3df7\n      swap2\n        /* \"diamonds/facets/FacetChainlinkOracle.sol\":1307:1327  address oldPriceFeed */\n      swap1\n        /* \"diamonds/facets/FacetChainlinkOracle.sol\":1456:1517  ChainlinkPriceFeedAssigned(token, oldPriceFeed, newPriceFeed) */\n      log4\n        /* \"diamonds/facets/FacetChainlinkOracle.sol\":1276:1524  {... */\n      pop\n        /* \"diamonds/facets/FacetChainlinkOracle.sol\":1179:1524  function ____assignTokenToChainlinkPriceFeed(address token, address newPriceFeed) public virtual {... */\n      pop\n      pop\n      jump\t// out\n        /* \"diamonds/facets/FacetChainlinkOracle.sol\":2422:2573  function getChainlinkPriceFeed(address token) public view virtual returns (address) {... */\n    tag_24:\n      sub(shl(0xa0, 0x01), 0x01)\n        /* \"diamonds/facets/FacetChainlinkOracle.sol\":2523:2566  chainlinkOracle().chainlinkPriceFeed[token] */\n      swap1\n      dup2\n      and\n        /* \"diamonds/facets/FacetChainlinkOracle.sol\":2497:2504  address */\n      0x00\n        /* \"diamonds/facets/FacetChainlinkOracle.sol\":2523:2566  chainlinkOracle().chainlinkPriceFeed[token] */\n      swap1\n      dup2\n      mstore\n        /* \"diamonds/facets/slots/SlotChainlinkOracle.sol\":138:172  keccak256('slot.chainlink.oracle') */\n      0x09c1bd07f41f39c402056ed4f84031a21fc6dd44454b5a4bead86cc6d5e198c6\n        /* \"diamonds/facets/FacetChainlinkOracle.sol\":2523:2566  chainlinkOracle().chainlinkPriceFeed[token] */\n      0x20\n      mstore\n      0x40\n      swap1\n      keccak256\n      sload\n      and\n      swap1\n        /* \"diamonds/facets/FacetChainlinkOracle.sol\":2422:2573  function getChainlinkPriceFeed(address token) public view virtual returns (address) {... */\n      jump\t// out\n        /* \"diamonds/facets/FacetChainlinkOracle.sol\":2579:2741  function hasChainlinkPriceFeed(address token) public view virtual returns (bool) {... */\n    tag_29:\n        /* \"diamonds/facets/FacetChainlinkOracle.sol\":2654:2658  bool */\n      0x00\n      dup1\n        /* \"diamonds/facets/FacetChainlinkOracle.sol\":2677:2705  getChainlinkPriceFeed(token) */\n      tag_58\n        /* \"diamonds/facets/FacetChainlinkOracle.sol\":2699:2704  token */\n      dup4\n        /* \"diamonds/facets/FacetChainlinkOracle.sol\":2677:2698  getChainlinkPriceFeed */\n      tag_24\n        /* \"diamonds/facets/FacetChainlinkOracle.sol\":2677:2705  getChainlinkPriceFeed(token) */\n      jump\t// in\n    tag_58:\n      sub(shl(0xa0, 0x01), 0x01)\n        /* \"diamonds/facets/FacetChainlinkOracle.sol\":2677:2719  getChainlinkPriceFeed(token) != address(0) */\n      and\n      sub\n        /* \"diamonds/facets/FacetChainlinkOracle.sol\":2677:2734  getChainlinkPriceFeed(token) != address(0) ? true : false */\n      tag_59\n      jumpi\n        /* \"diamonds/facets/FacetChainlinkOracle.sol\":2729:2734  false */\n      0x00\n        /* \"diamonds/facets/FacetChainlinkOracle.sol\":2677:2734  getChainlinkPriceFeed(token) != address(0) ? true : false */\n      jump(tag_42)\n    tag_59:\n        /* \"diamonds/facets/FacetChainlinkOracle.sol\":2722:2726  true */\n      0x01\n        /* \"diamonds/facets/FacetChainlinkOracle.sol\":2670:2734  return getChainlinkPriceFeed(token) != address(0) ? true : false */\n      swap3\n        /* \"diamonds/facets/FacetChainlinkOracle.sol\":2579:2741  function hasChainlinkPriceFeed(address token) public view virtual returns (bool) {... */\n      swap2\n      pop\n      pop\n      jump\t// out\n        /* \"diamonds/facets/FacetChainlinkOracle.sol\":1866:2135  function getChainlinkLatestAnswer(address token) public view virtual returns (uint) {... */\n    tag_34:\n        /* \"diamonds/facets/FacetChainlinkOracle.sol\":1944:1948  uint */\n      0x00\n        /* \"diamonds/facets/FacetChainlinkOracle.sol\":1964:1992  hasChainlinkPriceFeed(token) */\n      tag_62\n        /* \"diamonds/facets/FacetChainlinkOracle.sol\":1986:1991  token */\n      dup3\n        /* \"diamonds/facets/FacetChainlinkOracle.sol\":1964:1985  hasChainlinkPriceFeed */\n      tag_29\n        /* \"diamonds/facets/FacetChainlinkOracle.sol\":1964:1992  hasChainlinkPriceFeed(token) */\n      jump\t// in\n    tag_62:\n        /* \"diamonds/facets/FacetChainlinkOracle.sol\":1960:2129  if (hasChainlinkPriceFeed(token)) {... */\n      iszero\n      tag_38\n      jumpi\n        /* \"diamonds/facets/FacetChainlinkOracle.sol\":2035:2063  getChainlinkPriceFeed(token) */\n      tag_64\n        /* \"diamonds/facets/FacetChainlinkOracle.sol\":2057:2062  token */\n      dup3\n        /* \"diamonds/facets/FacetChainlinkOracle.sol\":2035:2056  getChainlinkPriceFeed */\n      tag_24\n        /* \"diamonds/facets/FacetChainlinkOracle.sol\":2035:2063  getChainlinkPriceFeed(token) */\n      jump\t// in\n    tag_64:\n      sub(shl(0xa0, 0x01), 0x01)\n        /* \"diamonds/facets/FacetChainlinkOracle.sol\":2015:2077  IEACAggregatorProxy(getChainlinkPriceFeed(token)).latestAnswer */\n      and\n      0x50d25bcd\n        /* \"diamonds/facets/FacetChainlinkOracle.sol\":2015:2079  IEACAggregatorProxy(getChainlinkPriceFeed(token)).latestAnswer() */\n      mload(0x40)\n      dup2\n      0xffffffff\n      and\n      0xe0\n      shl\n      dup2\n      mstore\n      0x04\n      add\n      0x20\n      mload(0x40)\n      dup1\n      dup4\n      sub\n      dup2\n      dup7\n      gas\n      staticcall\n      iszero\n      dup1\n      iszero\n      tag_41\n      jumpi\n      returndatasize\n      0x00\n      dup1\n      returndatacopy\n      revert(0x00, returndatasize)\n        /* \"diamonds/facets/FacetChainlinkOracle.sol\":2747:2880  function _onlySelf() internal view virtual {... */\n    tag_47:\n        /* \"imports/openzeppelin/utils/Context.sol\":720:730  msg.sender */\n      caller\n        /* \"diamonds/facets/FacetChainlinkOracle.sol\":2832:2836  this */\n      address\n        /* \"diamonds/facets/FacetChainlinkOracle.sol\":2808:2837  _msgSender() == address(this) */\n      eq\n        /* \"diamonds/facets/FacetChainlinkOracle.sol\":2800:2873  require(_msgSender() == address(this), 'FacetChainlinkOracle: only self') */\n      tag_72\n      jumpi\n      mload(0x40)\n      shl(0xe5, 0x461bcd)\n      dup2\n      mstore\n        /* \"#utility.yul\":1621:1623   */\n      0x20\n        /* \"diamonds/facets/FacetChainlinkOracle.sol\":2800:2873  require(_msgSender() == address(this), 'FacetChainlinkOracle: only self') */\n      0x04\n      dup3\n      add\n        /* \"#utility.yul\":1603:1624   */\n      mstore\n        /* \"#utility.yul\":1660:1662   */\n      0x1f\n        /* \"#utility.yul\":1640:1658   */\n      0x24\n      dup3\n      add\n        /* \"#utility.yul\":1633:1663   */\n      mstore\n        /* \"#utility.yul\":1699:1732   */\n      0x4661636574436861696e6c696e6b4f7261636c653a206f6e6c792073656c6600\n        /* \"#utility.yul\":1679:1697   */\n      0x44\n      dup3\n      add\n        /* \"#utility.yul\":1672:1733   */\n      mstore\n        /* \"#utility.yul\":1750:1768   */\n      0x64\n      add\n        /* \"diamonds/facets/FacetChainlinkOracle.sol\":2800:2873  require(_msgSender() == address(this), 'FacetChainlinkOracle: only self') */\n      mload(0x40)\n      dup1\n      swap2\n      sub\n      swap1\n      revert\n    tag_72:\n        /* \"diamonds/facets/FacetChainlinkOracle.sol\":2747:2880  function _onlySelf() internal view virtual {... */\n      jump\t// out\n        /* \"#utility.yul\":14:187   */\n    tag_77:\n        /* \"#utility.yul\":82:102   */\n      dup1\n      calldataload\n      sub(shl(0xa0, 0x01), 0x01)\n        /* \"#utility.yul\":131:162   */\n      dup2\n      and\n        /* \"#utility.yul\":121:163   */\n      dup2\n      eq\n        /* \"#utility.yul\":111:181   */\n      tag_44\n      jumpi\n        /* \"#utility.yul\":177:178   */\n      0x00\n        /* \"#utility.yul\":174:175   */\n      dup1\n        /* \"#utility.yul\":167:179   */\n      revert\n        /* \"#utility.yul\":192:378   */\n    tag_11:\n        /* \"#utility.yul\":251:257   */\n      0x00\n        /* \"#utility.yul\":304:306   */\n      0x20\n        /* \"#utility.yul\":292:301   */\n      dup3\n        /* \"#utility.yul\":283:290   */\n      dup5\n        /* \"#utility.yul\":279:302   */\n      sub\n        /* \"#utility.yul\":275:307   */\n      slt\n        /* \"#utility.yul\":272:324   */\n      iszero\n      tag_82\n      jumpi\n        /* \"#utility.yul\":320:321   */\n      0x00\n        /* \"#utility.yul\":317:318   */\n      dup1\n        /* \"#utility.yul\":310:322   */\n      revert\n        /* \"#utility.yul\":272:324   */\n    tag_82:\n        /* \"#utility.yul\":343:372   */\n      tag_83\n        /* \"#utility.yul\":362:371   */\n      dup3\n        /* \"#utility.yul\":343:372   */\n      tag_77\n      jump\t// in\n    tag_83:\n        /* \"#utility.yul\":333:372   */\n      swap4\n        /* \"#utility.yul\":192:378   */\n      swap3\n      pop\n      pop\n      pop\n      jump\t// out\n        /* \"#utility.yul\":565:825   */\n    tag_20:\n        /* \"#utility.yul\":633:639   */\n      0x00\n        /* \"#utility.yul\":641:647   */\n      dup1\n        /* \"#utility.yul\":694:696   */\n      0x40\n        /* \"#utility.yul\":682:691   */\n      dup4\n        /* \"#utility.yul\":673:680   */\n      dup6\n        /* \"#utility.yul\":669:692   */\n      sub\n        /* \"#utility.yul\":665:697   */\n      slt\n        /* \"#utility.yul\":662:714   */\n      iszero\n      tag_86\n      jumpi\n        /* \"#utility.yul\":710:711   */\n      0x00\n        /* \"#utility.yul\":707:708   */\n      dup1\n        /* \"#utility.yul\":700:712   */\n      revert\n        /* \"#utility.yul\":662:714   */\n    tag_86:\n        /* \"#utility.yul\":733:762   */\n      tag_87\n        /* \"#utility.yul\":752:761   */\n      dup4\n        /* \"#utility.yul\":733:762   */\n      tag_77\n      jump\t// in\n    tag_87:\n        /* \"#utility.yul\":723:762   */\n      swap2\n      pop\n        /* \"#utility.yul\":781:819   */\n      tag_88\n        /* \"#utility.yul\":815:817   */\n      0x20\n        /* \"#utility.yul\":804:813   */\n      dup5\n        /* \"#utility.yul\":800:818   */\n      add\n        /* \"#utility.yul\":781:819   */\n      tag_77\n      jump\t// in\n    tag_88:\n        /* \"#utility.yul\":771:819   */\n      swap1\n      pop\n        /* \"#utility.yul\":565:825   */\n      swap3\n      pop\n      swap3\n      swap1\n      pop\n      jump\t// out\n        /* \"#utility.yul\":1230:1414   */\n    tag_43:\n        /* \"#utility.yul\":1300:1306   */\n      0x00\n        /* \"#utility.yul\":1353:1355   */\n      0x20\n        /* \"#utility.yul\":1341:1350   */\n      dup3\n        /* \"#utility.yul\":1332:1339   */\n      dup5\n        /* \"#utility.yul\":1328:1351   */\n      sub\n        /* \"#utility.yul\":1324:1356   */\n      slt\n        /* \"#utility.yul\":1321:1373   */\n      iszero\n      tag_92\n      jumpi\n        /* \"#utility.yul\":1369:1370   */\n      0x00\n        /* \"#utility.yul\":1366:1367   */\n      dup1\n        /* \"#utility.yul\":1359:1371   */\n      revert\n        /* \"#utility.yul\":1321:1373   */\n    tag_92:\n      pop\n        /* \"#utility.yul\":1392:1408   */\n      mload\n      swap2\n        /* \"#utility.yul\":1230:1414   */\n      swap1\n      pop\n      jump\t// out\n\n    auxdata: 0xa2646970667358221220b008712287be1554294283819ba18532ed8cb317d24acd706cdabd7879b4bebf64736f6c63430008130033\n}\n",
				"bytecode": {
					"linkReferences": {},
					"object": "608060405234801561001057600080fd5b5061047d806100206000396000f3fe608060405234801561001057600080fd5b50600436106100625760003560e01c80631128ea3b14610067578063179dff701461008d57806382a3abac146100a257806394abc1af146100b5578063ce49c9b3146100e0578063d1a7092c14610103575b600080fd5b61007a6100753660046103d9565b610116565b6040519081526020015b60405180910390f35b6100a061009b3660046103d9565b6101a3565b005b6100a06100b03660046103fb565b610226565b6100c86100c33660046103d9565b6102b1565b6040516001600160a01b039091168152602001610084565b6100f36100ee3660046103d9565b6102ee565b6040519015158152602001610084565b61007a6101113660046103d9565b610317565b6000610121826102ee565b156101965761012f826102b1565b6001600160a01b0316638205bf6a6040518163ffffffff1660e01b8152600401602060405180830381865afa15801561016c573d6000803e3d6000fd5b505050506040513d601f19601f82011682018060405250810190610190919061042e565b92915050565b506000919050565b919050565b6101ab61036d565b6001600160a01b0381811660008181527f09c1bd07f41f39c402056ed4f84031a21fc6dd44454b5a4bead86cc6d5e198c6602052604080822080546001600160a01b031981169091559051931692909183917fd0c47dc6b57ec438daaaa3787ddfc8b61a28f0b9a5b44d7cc9b7c4ea533a3df7908490a45050565b61022e61036d565b6001600160a01b0382811660008181527f09c1bd07f41f39c402056ed4f84031a21fc6dd44454b5a4bead86cc6d5e198c6602052604080822080548686166001600160a01b0319821681179092559151919094169392849290917fd0c47dc6b57ec438daaaa3787ddfc8b61a28f0b9a5b44d7cc9b7c4ea533a3df79190a4505050565b6001600160a01b0390811660009081527f09c1bd07f41f39c402056ed4f84031a21fc6dd44454b5a4bead86cc6d5e198c660205260409020541690565b6000806102fa836102b1565b6001600160a01b03160361030f576000610190565b600192915050565b6000610322826102ee565b1561019657610330826102b1565b6001600160a01b03166350d25bcd6040518163ffffffff1660e01b8152600401602060405180830381865afa15801561016c573d6000803e3d6000fd5b3330146103c05760405162461bcd60e51b815260206004820152601f60248201527f4661636574436861696e6c696e6b4f7261636c653a206f6e6c792073656c6600604482015260640160405180910390fd5b565b80356001600160a01b038116811461019e57600080fd5b6000602082840312156103eb57600080fd5b6103f4826103c2565b9392505050565b6000806040838503121561040e57600080fd5b610417836103c2565b9150610425602084016103c2565b90509250929050565b60006020828403121561044057600080fd5b505191905056fea2646970667358221220b008712287be1554294283819ba18532ed8cb317d24acd706cdabd7879b4bebf64736f6c63430008130033",
					"opcodes": "PUSH1 0x80 PUSH1 0x40 MSTORE CALLVALUE DUP1 ISZERO PUSH2 0x10 JUMPI PUSH1 0x0 DUP1 REVERT JUMPDEST POP PUSH2 0x47D DUP1 PUSH2 0x20 PUSH1 0x0 CODECOPY PUSH1 0x0 RETURN INVALID PUSH1 0x80 PUSH1 0x40 MSTORE CALLVALUE DUP1 ISZERO PUSH2 0x10 JUMPI PUSH1 0x0 DUP1 REVERT JUMPDEST POP PUSH1 0x4 CALLDATASIZE LT PUSH2 0x62 JUMPI PUSH1 0x0 CALLDATALOAD PUSH1 0xE0 SHR DUP1 PUSH4 0x1128EA3B EQ PUSH2 0x67 JUMPI DUP1 PUSH4 0x179DFF70 EQ PUSH2 0x8D JUMPI DUP1 PUSH4 0x82A3ABAC EQ PUSH2 0xA2 JUMPI DUP1 PUSH4 0x94ABC1AF EQ PUSH2 0xB5 JUMPI DUP1 PUSH4 0xCE49C9B3 EQ PUSH2 0xE0 JUMPI DUP1 PUSH4 0xD1A7092C EQ PUSH2 0x103 JUMPI JUMPDEST PUSH1 0x0 DUP1 REVERT JUMPDEST PUSH2 0x7A PUSH2 0x75 CALLDATASIZE PUSH1 0x4 PUSH2 0x3D9 JUMP JUMPDEST PUSH2 0x116 JUMP JUMPDEST PUSH1 0x40 MLOAD SWAP1 DUP2 MSTORE PUSH1 0x20 ADD JUMPDEST PUSH1 0x40 MLOAD DUP1 SWAP2 SUB SWAP1 RETURN JUMPDEST PUSH2 0xA0 PUSH2 0x9B CALLDATASIZE PUSH1 0x4 PUSH2 0x3D9 JUMP JUMPDEST PUSH2 0x1A3 JUMP JUMPDEST STOP JUMPDEST PUSH2 0xA0 PUSH2 0xB0 CALLDATASIZE PUSH1 0x4 PUSH2 0x3FB JUMP JUMPDEST PUSH2 0x226 JUMP JUMPDEST PUSH2 0xC8 PUSH2 0xC3 CALLDATASIZE PUSH1 0x4 PUSH2 0x3D9 JUMP JUMPDEST PUSH2 0x2B1 JUMP JUMPDEST PUSH1 0x40 MLOAD PUSH1 0x1 PUSH1 0x1 PUSH1 0xA0 SHL SUB SWAP1 SWAP2 AND DUP2 MSTORE PUSH1 0x20 ADD PUSH2 0x84 JUMP JUMPDEST PUSH2 0xF3 PUSH2 0xEE CALLDATASIZE PUSH1 0x4 PUSH2 0x3D9 JUMP JUMPDEST PUSH2 0x2EE JUMP JUMPDEST PUSH1 0x40 MLOAD SWAP1 ISZERO ISZERO DUP2 MSTORE PUSH1 0x20 ADD PUSH2 0x84 JUMP JUMPDEST PUSH2 0x7A PUSH2 0x111 CALLDATASIZE PUSH1 0x4 PUSH2 0x3D9 JUMP JUMPDEST PUSH2 0x317 JUMP JUMPDEST PUSH1 0x0 PUSH2 0x121 DUP3 PUSH2 0x2EE JUMP JUMPDEST ISZERO PUSH2 0x196 JUMPI PUSH2 0x12F DUP3 PUSH2 0x2B1 JUMP JUMPDEST PUSH1 0x1 PUSH1 0x1 PUSH1 0xA0 SHL SUB AND PUSH4 0x8205BF6A PUSH1 0x40 MLOAD DUP2 PUSH4 0xFFFFFFFF AND PUSH1 0xE0 SHL DUP2 MSTORE PUSH1 0x4 ADD PUSH1 0x20 PUSH1 0x40 MLOAD DUP1 DUP4 SUB DUP2 DUP7 GAS STATICCALL ISZERO DUP1 ISZERO PUSH2 0x16C JUMPI RETURNDATASIZE PUSH1 0x0 DUP1 RETURNDATACOPY RETURNDATASIZE PUSH1 0x0 REVERT JUMPDEST POP POP POP POP PUSH1 0x40 MLOAD RETURNDATASIZE PUSH1 0x1F NOT PUSH1 0x1F DUP3 ADD AND DUP3 ADD DUP1 PUSH1 0x40 MSTORE POP DUP2 ADD SWAP1 PUSH2 0x190 SWAP2 SWAP1 PUSH2 0x42E JUMP JUMPDEST SWAP3 SWAP2 POP POP JUMP JUMPDEST POP PUSH1 0x0 SWAP2 SWAP1 POP JUMP JUMPDEST SWAP2 SWAP1 POP JUMP JUMPDEST PUSH2 0x1AB PUSH2 0x36D JUMP JUMPDEST PUSH1 0x1 PUSH1 0x1 PUSH1 0xA0 SHL SUB DUP2 DUP2 AND PUSH1 0x0 DUP2 DUP2 MSTORE PUSH32 0x9C1BD07F41F39C402056ED4F84031A21FC6DD44454B5A4BEAD86CC6D5E198C6 PUSH1 0x20 MSTORE PUSH1 0x40 DUP1 DUP3 KECCAK256 DUP1 SLOAD PUSH1 0x1 PUSH1 0x1 PUSH1 0xA0 SHL SUB NOT DUP2 AND SWAP1 SWAP2 SSTORE SWAP1 MLOAD SWAP4 AND SWAP3 SWAP1 SWAP2 DUP4 SWAP2 PUSH32 0xD0C47DC6B57EC438DAAAA3787DDFC8B61A28F0B9A5B44D7CC9B7C4EA533A3DF7 SWAP1 DUP5 SWAP1 LOG4 POP POP JUMP JUMPDEST PUSH2 0x22E PUSH2 0x36D JUMP JUMPDEST PUSH1 0x1 PUSH1 0x1 PUSH1 0xA0 SHL SUB DUP3 DUP2 AND PUSH1 0x0 DUP2 DUP2 MSTORE PUSH32 0x9C1BD07F41F39C402056ED4F84031A21FC6DD44454B5A4BEAD86CC6D5E198C6 PUSH1 0x20 MSTORE PUSH1 0x40 DUP1 DUP3 KECCAK256 DUP1 SLOAD DUP7 DUP7 AND PUSH1 0x1 PUSH1 0x1 PUSH1 0xA0 SHL SUB NOT DUP3 AND DUP2 OR SWAP1 SWAP3 SSTORE SWAP2 MLOAD SWAP2 SWAP1 SWAP5 AND SWAP4 SWAP3 DUP5 SWAP3 SWAP1 SWAP2 PUSH32 0xD0C47DC6B57EC438DAAAA3787DDFC8B61A28F0B9A5B44D7CC9B7C4EA533A3DF7 SWAP2 SWAP1 LOG4 POP POP POP JUMP JUMPDEST PUSH1 0x1 PUSH1 0x1 PUSH1 0xA0 SHL SUB SWAP1 DUP2 AND PUSH1 0x0 SWAP1 DUP2 MSTORE PUSH32 0x9C1BD07F41F39C402056ED4F84031A21FC6DD44454B5A4BEAD86CC6D5E198C6 PUSH1 0x20 MSTORE PUSH1 0x40 SWAP1 KECCAK256 SLOAD AND SWAP1 JUMP JUMPDEST PUSH1 0x0 DUP1 PUSH2 0x2FA DUP4 PUSH2 0x2B1 JUMP JUMPDEST PUSH1 0x1 PUSH1 0x1 PUSH1 0xA0 SHL SUB AND SUB PUSH2 0x30F JUMPI PUSH1 0x0 PUSH2 0x190 JUMP JUMPDEST PUSH1 0x1 SWAP3 SWAP2 POP POP JUMP JUMPDEST PUSH1 0x0 PUSH2 0x322 DUP3 PUSH2 0x2EE JUMP JUMPDEST ISZERO PUSH2 0x196 JUMPI PUSH2 0x330 DUP3 PUSH2 0x2B1 JUMP JUMPDEST PUSH1 0x1 PUSH1 0x1 PUSH1 0xA0 SHL SUB AND PUSH4 0x50D25BCD PUSH1 0x40 MLOAD DUP2 PUSH4 0xFFFFFFFF AND PUSH1 0xE0 SHL DUP2 MSTORE PUSH1 0x4 ADD PUSH1 0x20 PUSH1 0x40 MLOAD DUP1 DUP4 SUB DUP2 DUP7 GAS STATICCALL ISZERO DUP1 ISZERO PUSH2 0x16C JUMPI RETURNDATASIZE PUSH1 0x0 DUP1 RETURNDATACOPY RETURNDATASIZE PUSH1 0x0 REVERT JUMPDEST CALLER ADDRESS EQ PUSH2 0x3C0 JUMPI PUSH1 0x40 MLOAD PUSH3 0x461BCD PUSH1 0xE5 SHL DUP2 MSTORE PUSH1 0x20 PUSH1 0x4 DUP3 ADD MSTORE PUSH1 0x1F PUSH1 0x24 DUP3 ADD MSTORE PUSH32 0x4661636574436861696E6C696E6B4F7261636C653A206F6E6C792073656C6600 PUSH1 0x44 DUP3 ADD MSTORE PUSH1 0x64 ADD PUSH1 0x40 MLOAD DUP1 SWAP2 SUB SWAP1 REVERT JUMPDEST JUMP JUMPDEST DUP1 CALLDATALOAD PUSH1 0x1 PUSH1 0x1 PUSH1 0xA0 SHL SUB DUP2 AND DUP2 EQ PUSH2 0x19E JUMPI PUSH1 0x0 DUP1 REVERT JUMPDEST PUSH1 0x0 PUSH1 0x20 DUP3 DUP5 SUB SLT ISZERO PUSH2 0x3EB JUMPI PUSH1 0x0 DUP1 REVERT JUMPDEST PUSH2 0x3F4 DUP3 PUSH2 0x3C2 JUMP JUMPDEST SWAP4 SWAP3 POP POP POP JUMP JUMPDEST PUSH1 0x0 DUP1 PUSH1 0x40 DUP4 DUP6 SUB SLT ISZERO PUSH2 0x40E JUMPI PUSH1 0x0 DUP1 REVERT JUMPDEST PUSH2 0x417 DUP4 PUSH2 0x3C2 JUMP JUMPDEST SWAP2 POP PUSH2 0x425 PUSH1 0x20 DUP5 ADD PUSH2 0x3C2 JUMP JUMPDEST SWAP1 POP SWAP3 POP SWAP3 SWAP1 POP JUMP JUMPDEST PUSH1 0x0 PUSH1 0x20 DUP3 DUP5 SUB SLT ISZERO PUSH2 0x440 JUMPI PUSH1 0x0 DUP1 REVERT JUMPDEST POP MLOAD SWAP2 SWAP1 POP JUMP INVALID LOG2 PUSH5 0x6970667358 0x22 SLT KECCAK256 0xB0 ADDMOD PUSH18 0x2287BE1554294283819BA18532ED8CB317D2 0x4A 0xCD PUSH17 0x6CDABD7879B4BEBF64736F6C6343000813 STOP CALLER "
				},
				"gasEstimates": {
					"creation": {
						"codeDepositCost": "229800",
						"executionCost": "269",
						"totalCost": "230069"
					},
					"external": {
						"____assignTokenToChainlinkPriceFeed(address,address)": "infinite",
						"____unassignTokenToChainlinkPriceFeed(address)": "26594",
						"getChainlinkLatestAnswer(address)": "infinite",
						"getChainlinkLatestTimestamp(address)": "2677",
						"getChainlinkPriceFeed(address)": "2623",
						"hasChainlinkPriceFeed(address)": "2722"
					},
					"internal": {
						"_onlySelf()": "infinite"
					}
				},
				"methodIdentifiers": {
					"____assignTokenToChainlinkPriceFeed(address,address)": "82a3abac",
					"____unassignTokenToChainlinkPriceFeed(address)": "179dff70",
					"getChainlinkLatestAnswer(address)": "d1a7092c",
					"getChainlinkLatestTimestamp(address)": "1128ea3b",
					"getChainlinkPriceFeed(address)": "94abc1af",
					"hasChainlinkPriceFeed(address)": "ce49c9b3"
				}
			},
			"storageLayout": {
				"storage": [],
				"types": null
			},
			"userdoc": {
				"kind": "user",
				"methods": {},
				"version": 1
			}
		}
	}
}