{
	"diamonds/facets/FacetSafe.sol": {
		"FacetSafe": {
			"abi": [
				{
					"anonymous": false,
					"inputs": [
						{
							"indexed": true,
							"internalType": "address",
							"name": "from",
							"type": "address"
						},
						{
							"indexed": true,
							"internalType": "address",
							"name": "tokenIn",
							"type": "address"
						},
						{
							"indexed": true,
							"internalType": "uint256",
							"name": "amountIn",
							"type": "uint256"
						}
					],
					"name": "Deposit",
					"type": "event"
				},
				{
					"anonymous": false,
					"inputs": [
						{
							"indexed": true,
							"internalType": "address",
							"name": "tokenIn",
							"type": "address"
						}
					],
					"name": "PermissionGrantedTokenIn",
					"type": "event"
				},
				{
					"anonymous": false,
					"inputs": [
						{
							"indexed": true,
							"internalType": "address",
							"name": "tokenOut",
							"type": "address"
						}
					],
					"name": "PermissionGrantedTokenOut",
					"type": "event"
				},
				{
					"anonymous": false,
					"inputs": [
						{
							"indexed": true,
							"internalType": "address",
							"name": "tokenIn",
							"type": "address"
						}
					],
					"name": "PermissionRevokedTokenIn",
					"type": "event"
				},
				{
					"anonymous": false,
					"inputs": [
						{
							"indexed": true,
							"internalType": "address",
							"name": "tokenOut",
							"type": "address"
						}
					],
					"name": "PermissionRevokedTokenOut",
					"type": "event"
				},
				{
					"anonymous": false,
					"inputs": [
						{
							"indexed": true,
							"internalType": "address",
							"name": "to",
							"type": "address"
						},
						{
							"indexed": true,
							"internalType": "address",
							"name": "tokenOut",
							"type": "address"
						},
						{
							"indexed": true,
							"internalType": "uint256",
							"name": "amountOut",
							"type": "uint256"
						}
					],
					"name": "Withdraw",
					"type": "event"
				},
				{
					"inputs": [
						{
							"internalType": "address",
							"name": "token",
							"type": "address"
						}
					],
					"name": "____allowTokenInToSafe",
					"outputs": [],
					"stateMutability": "nonpayable",
					"type": "function"
				},
				{
					"inputs": [
						{
							"internalType": "address",
							"name": "token",
							"type": "address"
						}
					],
					"name": "____allowTokenOutOfSafe",
					"outputs": [],
					"stateMutability": "nonpayable",
					"type": "function"
				},
				{
					"inputs": [
						{
							"internalType": "address",
							"name": "token",
							"type": "address"
						}
					],
					"name": "____forbidTokenInToSafe",
					"outputs": [],
					"stateMutability": "nonpayable",
					"type": "function"
				},
				{
					"inputs": [
						{
							"internalType": "address",
							"name": "token",
							"type": "address"
						}
					],
					"name": "____forbidTokenOutOfSafe",
					"outputs": [],
					"stateMutability": "nonpayable",
					"type": "function"
				},
				{
					"inputs": [
						{
							"internalType": "address",
							"name": "to",
							"type": "address"
						},
						{
							"internalType": "uint256",
							"name": "amountOut",
							"type": "uint256"
						}
					],
					"name": "____withdraw",
					"outputs": [],
					"stateMutability": "nonpayable",
					"type": "function"
				},
				{
					"inputs": [
						{
							"internalType": "address",
							"name": "to",
							"type": "address"
						},
						{
							"internalType": "address",
							"name": "tokenOut",
							"type": "address"
						},
						{
							"internalType": "uint256",
							"name": "amountOut",
							"type": "uint256"
						}
					],
					"name": "____withdraw",
					"outputs": [],
					"stateMutability": "nonpayable",
					"type": "function"
				},
				{
					"inputs": [
						{
							"internalType": "address",
							"name": "tokenIn",
							"type": "address"
						},
						{
							"internalType": "uint256",
							"name": "amountIn",
							"type": "uint256"
						}
					],
					"name": "deposit",
					"outputs": [],
					"stateMutability": "nonpayable",
					"type": "function"
				},
				{
					"inputs": [],
					"name": "deposit",
					"outputs": [],
					"stateMutability": "payable",
					"type": "function"
				},
				{
					"inputs": [
						{
							"internalType": "address",
							"name": "token",
							"type": "address"
						}
					],
					"name": "getHoldingsInSafe",
					"outputs": [
						{
							"internalType": "uint256",
							"name": "",
							"type": "uint256"
						}
					],
					"stateMutability": "view",
					"type": "function"
				},
				{
					"inputs": [
						{
							"internalType": "uint256",
							"name": "tokenId",
							"type": "uint256"
						}
					],
					"name": "getTokenAllowedInToSafe",
					"outputs": [
						{
							"internalType": "address",
							"name": "",
							"type": "address"
						}
					],
					"stateMutability": "view",
					"type": "function"
				},
				{
					"inputs": [
						{
							"internalType": "uint256",
							"name": "tokenId",
							"type": "uint256"
						}
					],
					"name": "getTokenAllowedOutFromSafe",
					"outputs": [
						{
							"internalType": "address",
							"name": "",
							"type": "address"
						}
					],
					"stateMutability": "view",
					"type": "function"
				},
				{
					"inputs": [],
					"name": "getTokensAllowedInToSafe",
					"outputs": [
						{
							"internalType": "address[]",
							"name": "",
							"type": "address[]"
						}
					],
					"stateMutability": "view",
					"type": "function"
				},
				{
					"inputs": [],
					"name": "getTokensAllowedOutFromSafe",
					"outputs": [
						{
							"internalType": "address[]",
							"name": "",
							"type": "address[]"
						}
					],
					"stateMutability": "view",
					"type": "function"
				},
				{
					"inputs": [
						{
							"internalType": "address",
							"name": "token",
							"type": "address"
						}
					],
					"name": "isAllowedIn",
					"outputs": [
						{
							"internalType": "bool",
							"name": "",
							"type": "bool"
						}
					],
					"stateMutability": "view",
					"type": "function"
				},
				{
					"inputs": [
						{
							"internalType": "address",
							"name": "token",
							"type": "address"
						}
					],
					"name": "isAllowedOut",
					"outputs": [
						{
							"internalType": "bool",
							"name": "",
							"type": "bool"
						}
					],
					"stateMutability": "view",
					"type": "function"
				}
			],
			"devdoc": {
				"kind": "dev",
				"methods": {},
				"version": 1
			},
			"evm": {
				"assembly": "    /* \"diamonds/facets/FacetSafe.sol\":1852:6643  contract FacetSafe is SlotSafe, Context {... */\n  mstore(0x40, 0x80)\n  callvalue\n  dup1\n  iszero\n  tag_1\n  jumpi\n  0x00\n  dup1\n  revert\ntag_1:\n  pop\n  dataSize(sub_0)\n  dup1\n  dataOffset(sub_0)\n  0x00\n  codecopy\n  0x00\n  return\nstop\n\nsub_0: assembly {\n        /* \"diamonds/facets/FacetSafe.sol\":1852:6643  contract FacetSafe is SlotSafe, Context {... */\n      mstore(0x40, 0x80)\n      jumpi(tag_1, lt(calldatasize, 0x04))\n      shr(0xe0, calldataload(0x00))\n      dup1\n      0x464964b1\n      gt\n      tag_17\n      jumpi\n      dup1\n      0xb74cbb41\n      gt\n      tag_18\n      jumpi\n      dup1\n      0xb74cbb41\n      eq\n      tag_13\n      jumpi\n      dup1\n      0xd0e30db0\n      eq\n      tag_14\n      jumpi\n      dup1\n      0xe13a96d6\n      eq\n      tag_15\n      jumpi\n      dup1\n      0xe5e45084\n      eq\n      tag_16\n      jumpi\n      0x00\n      dup1\n      revert\n    tag_18:\n      dup1\n      0x464964b1\n      eq\n      tag_9\n      jumpi\n      dup1\n      0x47e7ef24\n      eq\n      tag_10\n      jumpi\n      dup1\n      0xa6a2fcd7\n      eq\n      tag_11\n      jumpi\n      dup1\n      0xb3a54f1b\n      eq\n      tag_12\n      jumpi\n      0x00\n      dup1\n      revert\n    tag_17:\n      dup1\n      0x2a77d7b8\n      gt\n      tag_19\n      jumpi\n      dup1\n      0x2a77d7b8\n      eq\n      tag_5\n      jumpi\n      dup1\n      0x31b94450\n      eq\n      tag_6\n      jumpi\n      dup1\n      0x36447c4e\n      eq\n      tag_7\n      jumpi\n      dup1\n      0x3e800148\n      eq\n      tag_8\n      jumpi\n      0x00\n      dup1\n      revert\n    tag_19:\n      dup1\n      0x0a885f95\n      eq\n      tag_2\n      jumpi\n      dup1\n      0x182a9420\n      eq\n      tag_3\n      jumpi\n      dup1\n      0x18b31027\n      eq\n      tag_4\n      jumpi\n    tag_1:\n      0x00\n      dup1\n      revert\n        /* \"diamonds/facets/FacetSafe.sol\":4977:5118  function getTokenAllowedOutFromSafe(uint tokenId) public view virtual returns (address) {... */\n    tag_2:\n      callvalue\n      dup1\n      iszero\n      tag_20\n      jumpi\n      0x00\n      dup1\n      revert\n    tag_20:\n      pop\n      tag_21\n      tag_22\n      calldatasize\n      0x04\n      tag_23\n      jump\t// in\n    tag_22:\n      tag_24\n      jump\t// in\n    tag_21:\n      mload(0x40)\n      sub(shl(0xa0, 0x01), 0x01)\n        /* \"#utility.yul\":363:395   */\n      swap1\n      swap2\n      and\n        /* \"#utility.yul\":345:396   */\n      dup2\n      mstore\n        /* \"#utility.yul\":333:335   */\n      0x20\n        /* \"#utility.yul\":318:336   */\n      add\n        /* \"diamonds/facets/FacetSafe.sol\":4977:5118  function getTokenAllowedOutFromSafe(uint tokenId) public view virtual returns (address) {... */\n    tag_25:\n      mload(0x40)\n      dup1\n      swap2\n      sub\n      swap1\n      return\n        /* \"diamonds/facets/FacetSafe.sol\":5257:5386  function isAllowedOut(address token) public view virtual returns (bool) {... */\n    tag_3:\n      callvalue\n      dup1\n      iszero\n      tag_27\n      jumpi\n      0x00\n      dup1\n      revert\n    tag_27:\n      pop\n      tag_28\n      tag_29\n      calldatasize\n      0x04\n      tag_30\n      jump\t// in\n    tag_29:\n      tag_31\n      jump\t// in\n    tag_28:\n      mload(0x40)\n        /* \"#utility.yul\":941:955   */\n      swap1\n      iszero\n        /* \"#utility.yul\":934:956   */\n      iszero\n        /* \"#utility.yul\":916:957   */\n      dup2\n      mstore\n        /* \"#utility.yul\":904:906   */\n      0x20\n        /* \"#utility.yul\":889:907   */\n      add\n        /* \"diamonds/facets/FacetSafe.sol\":5257:5386  function isAllowedOut(address token) public view virtual returns (bool) {... */\n      tag_25\n        /* \"#utility.yul\":776:963   */\n      jump\n        /* \"diamonds/facets/FacetSafe.sol\":2381:2548  function ____allowTokenInToSafe(address token) external {... */\n    tag_4:\n      callvalue\n      dup1\n      iszero\n      tag_34\n      jumpi\n      0x00\n      dup1\n      revert\n    tag_34:\n      pop\n      tag_35\n      tag_36\n      calldatasize\n      0x04\n      tag_30\n      jump\t// in\n    tag_36:\n      tag_37\n      jump\t// in\n    tag_35:\n      stop\n        /* \"diamonds/facets/FacetSafe.sol\":4554:4686  function getTokensAllowedInToSafe() public view virtual returns (address[] memory) {... */\n    tag_5:\n      callvalue\n      dup1\n      iszero\n      tag_38\n      jumpi\n      0x00\n      dup1\n      revert\n    tag_38:\n      pop\n      tag_39\n      tag_40\n      jump\t// in\n    tag_39:\n      mload(0x40)\n      tag_25\n      swap2\n      swap1\n      tag_42\n      jump\t// in\n        /* \"diamonds/facets/FacetSafe.sol\":3733:4239  function ____withdraw(address to, uint amountOut) external {... */\n    tag_6:\n      callvalue\n      dup1\n      iszero\n      tag_43\n      jumpi\n      0x00\n      dup1\n      revert\n    tag_43:\n      pop\n      tag_35\n      tag_45\n      calldatasize\n      0x04\n      tag_46\n      jump\t// in\n    tag_45:\n      tag_47\n      jump\t// in\n        /* \"diamonds/facets/FacetSafe.sol\":3087:3727  function ____withdraw(address to, address tokenOut, uint amountOut) external {... */\n    tag_7:\n      callvalue\n      dup1\n      iszero\n      tag_48\n      jumpi\n      0x00\n      dup1\n      revert\n    tag_48:\n      pop\n      tag_35\n      tag_50\n      calldatasize\n      0x04\n      tag_51\n      jump\t// in\n    tag_50:\n      tag_52\n      jump\t// in\n        /* \"diamonds/facets/FacetSafe.sol\":4425:4548  function getHoldingsInSafe(address token) public view virtual returns (uint) {... */\n    tag_8:\n      callvalue\n      dup1\n      iszero\n      tag_53\n      jumpi\n      0x00\n      dup1\n      revert\n    tag_53:\n      pop\n      tag_54\n      tag_55\n      calldatasize\n      0x04\n      tag_30\n      jump\t// in\n    tag_55:\n      tag_56\n      jump\t// in\n    tag_54:\n      mload(0x40)\n        /* \"#utility.yul\":2369:2394   */\n      swap1\n      dup2\n      mstore\n        /* \"#utility.yul\":2357:2359   */\n      0x20\n        /* \"#utility.yul\":2342:2360   */\n      add\n        /* \"diamonds/facets/FacetSafe.sol\":4425:4548  function getHoldingsInSafe(address token) public view virtual returns (uint) {... */\n      tag_25\n        /* \"#utility.yul\":2223:2400   */\n      jump\n        /* \"diamonds/facets/FacetSafe.sol\":4835:4971  function getTokensAllowedOutFromSafe() public view virtual returns (address[] memory) {... */\n    tag_9:\n      callvalue\n      dup1\n      iszero\n      tag_59\n      jumpi\n      0x00\n      dup1\n      revert\n    tag_59:\n      pop\n      tag_39\n      tag_61\n      jump\t// in\n        /* \"diamonds/facets/FacetSafe.sol\":5410:5533  function deposit(address tokenIn, uint amountIn) nonReentrant() public virtual {... */\n    tag_10:\n      callvalue\n      dup1\n      iszero\n      tag_63\n      jumpi\n      0x00\n      dup1\n      revert\n    tag_63:\n      pop\n      tag_35\n      tag_65\n      calldatasize\n      0x04\n      tag_46\n      jump\t// in\n    tag_65:\n      tag_66\n      jump\t// in\n        /* \"diamonds/facets/FacetSafe.sol\":2731:2901  function ____allowTokenOutOfSafe(address token) external {... */\n    tag_11:\n      callvalue\n      dup1\n      iszero\n      tag_67\n      jumpi\n      0x00\n      dup1\n      revert\n    tag_67:\n      pop\n      tag_35\n      tag_69\n      calldatasize\n      0x04\n      tag_30\n      jump\t// in\n    tag_69:\n      tag_70\n      jump\t// in\n        /* \"diamonds/facets/FacetSafe.sol\":5124:5251  function isAllowedIn(address token) public view virtual returns (bool) {... */\n    tag_12:\n      callvalue\n      dup1\n      iszero\n      tag_71\n      jumpi\n      0x00\n      dup1\n      revert\n    tag_71:\n      pop\n      tag_28\n      tag_73\n      calldatasize\n      0x04\n      tag_30\n      jump\t// in\n    tag_73:\n      tag_74\n      jump\t// in\n        /* \"diamonds/facets/FacetSafe.sol\":2907:3081  function ____forbidTokenOutOfSafe(address token) external {... */\n    tag_13:\n      callvalue\n      dup1\n      iszero\n      tag_76\n      jumpi\n      0x00\n      dup1\n      revert\n    tag_76:\n      pop\n      tag_35\n      tag_78\n      calldatasize\n      0x04\n      tag_30\n      jump\t// in\n    tag_78:\n      tag_79\n      jump\t// in\n        /* \"diamonds/facets/FacetSafe.sol\":5555:5639  function deposit() nonReentrant() public payable virtual {... */\n    tag_14:\n      tag_35\n      tag_81\n      jump\t// in\n        /* \"diamonds/facets/FacetSafe.sol\":4692:4829  function getTokenAllowedInToSafe(uint tokenId) public view virtual returns (address) {... */\n    tag_15:\n      callvalue\n      dup1\n      iszero\n      tag_82\n      jumpi\n      0x00\n      dup1\n      revert\n    tag_82:\n      pop\n      tag_21\n      tag_84\n      calldatasize\n      0x04\n      tag_23\n      jump\t// in\n    tag_84:\n      tag_85\n      jump\t// in\n        /* \"diamonds/facets/FacetSafe.sol\":2554:2725  function ____forbidTokenInToSafe(address token) external {... */\n    tag_16:\n      callvalue\n      dup1\n      iszero\n      tag_87\n      jumpi\n      0x00\n      dup1\n      revert\n    tag_87:\n      pop\n      tag_35\n      tag_89\n      calldatasize\n      0x04\n      tag_30\n      jump\t// in\n    tag_89:\n      tag_90\n      jump\t// in\n        /* \"diamonds/facets/FacetSafe.sol\":4977:5118  function getTokenAllowedOutFromSafe(uint tokenId) public view virtual returns (address) {... */\n    tag_24:\n        /* \"diamonds/facets/FacetSafe.sol\":5056:5063  address */\n      0x00\n        /* \"diamonds/facets/FacetSafe.sol\":5082:5111  safe().allowedOut.at(tokenId) */\n      tag_92\n        /* \"diamonds/facets/FacetSafe.sol\":5103:5110  tokenId */\n      dup3\n        /* \"diamonds/facets/FacetSafe.sol\":5082:5088  safe() */\n      tag_93\n        /* \"diamonds/facets/FacetSafe.sol\":5082:5086  safe */\n      tag_94\n        /* \"diamonds/facets/FacetSafe.sol\":5082:5088  safe() */\n      jump\t// in\n    tag_93:\n        /* \"diamonds/facets/FacetSafe.sol\":5082:5099  safe().allowedOut */\n      0x03\n      add\n      swap1\n        /* \"diamonds/facets/FacetSafe.sol\":5082:5102  safe().allowedOut.at */\n      tag_95\n        /* \"diamonds/facets/FacetSafe.sol\":5082:5111  safe().allowedOut.at(tokenId) */\n      jump\t// in\n    tag_92:\n        /* \"diamonds/facets/FacetSafe.sol\":5075:5111  return safe().allowedOut.at(tokenId) */\n      swap3\n        /* \"diamonds/facets/FacetSafe.sol\":4977:5118  function getTokenAllowedOutFromSafe(uint tokenId) public view virtual returns (address) {... */\n      swap2\n      pop\n      pop\n      jump\t// out\n        /* \"diamonds/facets/FacetSafe.sol\":5257:5386  function isAllowedOut(address token) public view virtual returns (bool) {... */\n    tag_31:\n        /* \"diamonds/facets/FacetSafe.sol\":5323:5327  bool */\n      0x00\n        /* \"diamonds/facets/FacetSafe.sol\":5346:5379  safe().allowedOut.contains(token) */\n      tag_92\n        /* \"diamonds/facets/FacetSafe.sol\":5373:5378  token */\n      dup3\n        /* \"diamonds/facets/FacetSafe.sol\":5346:5352  safe() */\n      tag_98\n        /* \"diamonds/facets/FacetSafe.sol\":5346:5350  safe */\n      tag_94\n        /* \"diamonds/facets/FacetSafe.sol\":5346:5352  safe() */\n      jump\t// in\n    tag_98:\n        /* \"diamonds/facets/FacetSafe.sol\":5346:5363  safe().allowedOut */\n      0x03\n      add\n      swap1\n        /* \"diamonds/facets/FacetSafe.sol\":5346:5372  safe().allowedOut.contains */\n      tag_99\n        /* \"diamonds/facets/FacetSafe.sol\":5346:5379  safe().allowedOut.contains(token) */\n      jump\t// in\n        /* \"diamonds/facets/FacetSafe.sol\":2381:2548  function ____allowTokenInToSafe(address token) external {... */\n    tag_37:\n        /* \"diamonds/facets/FacetSafe.sol\":2447:2458  _onlySelf() */\n      tag_101\n        /* \"diamonds/facets/FacetSafe.sol\":2447:2456  _onlySelf */\n      tag_102\n        /* \"diamonds/facets/FacetSafe.sol\":2447:2458  _onlySelf() */\n      jump\t// in\n    tag_101:\n        /* \"diamonds/facets/FacetSafe.sol\":2468:2495  safe().allowedIn.add(token) */\n      tag_103\n        /* \"diamonds/facets/FacetSafe.sol\":2489:2494  token */\n      dup2\n        /* \"diamonds/facets/FacetSafe.sol\":2468:2474  safe() */\n      tag_104\n        /* \"diamonds/facets/FacetSafe.sol\":2468:2472  safe */\n      tag_94\n        /* \"diamonds/facets/FacetSafe.sol\":2468:2474  safe() */\n      jump\t// in\n    tag_104:\n        /* \"diamonds/facets/FacetSafe.sol\":2468:2484  safe().allowedIn */\n      0x01\n      add\n      swap1\n        /* \"diamonds/facets/FacetSafe.sol\":2468:2488  safe().allowedIn.add */\n      tag_105\n        /* \"diamonds/facets/FacetSafe.sol\":2468:2495  safe().allowedIn.add(token) */\n      jump\t// in\n    tag_103:\n      pop\n        /* \"diamonds/facets/FacetSafe.sol\":2510:2541  PermissionGrantedTokenIn(token) */\n      mload(0x40)\n      sub(shl(0xa0, 0x01), 0x01)\n      dup3\n      and\n      swap1\n      0xf6aea4ebd15c89ff6a16b7819fb6968ad0a0ce7e0085ef4c87a85f8c0cd2e46a\n      swap1\n      0x00\n      swap1\n      log2\n        /* \"diamonds/facets/FacetSafe.sol\":2381:2548  function ____allowTokenInToSafe(address token) external {... */\n      pop\n      jump\t// out\n        /* \"diamonds/facets/FacetSafe.sol\":4554:4686  function getTokensAllowedInToSafe() public view virtual returns (address[] memory) {... */\n    tag_40:\n        /* \"diamonds/facets/FacetSafe.sol\":4619:4635  address[] memory */\n      0x60\n        /* \"diamonds/facets/FacetSafe.sol\":4654:4679  safe().allowedIn.values() */\n      tag_107\n        /* \"diamonds/facets/FacetSafe.sol\":4654:4660  safe() */\n      tag_108\n        /* \"diamonds/facets/FacetSafe.sol\":4654:4658  safe */\n      tag_94\n        /* \"diamonds/facets/FacetSafe.sol\":4654:4660  safe() */\n      jump\t// in\n    tag_108:\n        /* \"diamonds/facets/FacetSafe.sol\":4654:4670  safe().allowedIn */\n      0x01\n      add\n        /* \"diamonds/facets/FacetSafe.sol\":4654:4677  safe().allowedIn.values */\n      tag_109\n        /* \"diamonds/facets/FacetSafe.sol\":4654:4679  safe().allowedIn.values() */\n      jump\t// in\n    tag_107:\n        /* \"diamonds/facets/FacetSafe.sol\":4647:4679  return safe().allowedIn.values() */\n      swap1\n      pop\n        /* \"diamonds/facets/FacetSafe.sol\":4554:4686  function getTokensAllowedInToSafe() public view virtual returns (address[] memory) {... */\n      swap1\n      jump\t// out\n        /* \"diamonds/facets/FacetSafe.sol\":3733:4239  function ____withdraw(address to, uint amountOut) external {... */\n    tag_47:\n        /* \"diamonds/facets/FacetSafe.sol\":3802:3813  _onlySelf() */\n      tag_111\n        /* \"diamonds/facets/FacetSafe.sol\":3802:3811  _onlySelf */\n      tag_102\n        /* \"diamonds/facets/FacetSafe.sol\":3802:3813  _onlySelf() */\n      jump\t// in\n    tag_111:\n        /* \"diamonds/facets/FacetSafe.sol\":3831:3855  isAllowedOut(address(0)) */\n      tag_112\n        /* \"diamonds/facets/FacetSafe.sol\":3852:3853  0 */\n      0x00\n        /* \"diamonds/facets/FacetSafe.sol\":3831:3843  isAllowedOut */\n      tag_31\n        /* \"diamonds/facets/FacetSafe.sol\":3831:3855  isAllowedOut(address(0)) */\n      jump\t// in\n    tag_112:\n        /* \"diamonds/facets/FacetSafe.sol\":3823:3893  require(isAllowedOut(address(0)), 'FacetSafe: eth is not allowed out') */\n      tag_113\n      jumpi\n      mload(0x40)\n      shl(0xe5, 0x461bcd)\n      dup2\n      mstore\n        /* \"#utility.yul\":2607:2609   */\n      0x20\n        /* \"diamonds/facets/FacetSafe.sol\":3823:3893  require(isAllowedOut(address(0)), 'FacetSafe: eth is not allowed out') */\n      0x04\n      dup3\n      add\n        /* \"#utility.yul\":2589:2610   */\n      mstore\n        /* \"#utility.yul\":2646:2648   */\n      0x21\n        /* \"#utility.yul\":2626:2644   */\n      0x24\n      dup3\n      add\n        /* \"#utility.yul\":2619:2649   */\n      mstore\n        /* \"#utility.yul\":2685:2719   */\n      0x4661636574536166653a20657468206973206e6f7420616c6c6f776564206f75\n        /* \"#utility.yul\":2665:2683   */\n      0x44\n      dup3\n      add\n        /* \"#utility.yul\":2658:2720   */\n      mstore\n      shl(0xfa, 0x1d)\n        /* \"#utility.yul\":2736:2754   */\n      0x64\n      dup3\n      add\n        /* \"#utility.yul\":2729:2760   */\n      mstore\n        /* \"#utility.yul\":2777:2796   */\n      0x84\n      add\n        /* \"diamonds/facets/FacetSafe.sol\":3823:3893  require(isAllowedOut(address(0)), 'FacetSafe: eth is not allowed out') */\n    tag_114:\n      mload(0x40)\n      dup1\n      swap2\n      sub\n      swap1\n      revert\n    tag_113:\n        /* \"diamonds/facets/FacetSafe.sol\":3942:3951  amountOut */\n      dup1\n        /* \"diamonds/facets/FacetSafe.sol\":3911:3917  safe() */\n      tag_116\n        /* \"diamonds/facets/FacetSafe.sol\":3911:3915  safe */\n      tag_94\n        /* \"diamonds/facets/FacetSafe.sol\":3911:3917  safe() */\n      jump\t// in\n    tag_116:\n        /* \"diamonds/facets/FacetSafe.sol\":3911:3926  safe().balances */\n      0x00\n        /* \"diamonds/facets/FacetSafe.sol\":3911:3938  safe().balances[address(0)] */\n      dup1\n      dup1\n      mstore\n      0x20\n      swap2\n      swap1\n      swap2\n      mstore\n      0x40\n      swap1\n      keccak256\n      sload\n        /* \"diamonds/facets/FacetSafe.sol\":3911:3951  safe().balances[address(0)] >= amountOut */\n      lt\n      iszero\n        /* \"diamonds/facets/FacetSafe.sol\":3903:3987  require(safe().balances[address(0)] >= amountOut, 'FacetSafe: insufficient balance') */\n      tag_117\n      jumpi\n      mload(0x40)\n      shl(0xe5, 0x461bcd)\n      dup2\n      mstore\n      0x04\n      add\n      tag_114\n      swap1\n      tag_119\n      jump\t// in\n    tag_117:\n        /* \"diamonds/facets/FacetSafe.sol\":4028:4037  amountOut */\n      dup1\n        /* \"diamonds/facets/FacetSafe.sol\":3997:4003  safe() */\n      tag_120\n        /* \"diamonds/facets/FacetSafe.sol\":3997:4001  safe */\n      tag_94\n        /* \"diamonds/facets/FacetSafe.sol\":3997:4003  safe() */\n      jump\t// in\n    tag_120:\n        /* \"diamonds/facets/FacetSafe.sol\":3997:4012  safe().balances */\n      0x00\n        /* \"diamonds/facets/FacetSafe.sol\":3997:4024  safe().balances[address(0)] */\n      dup1\n      dup1\n      mstore\n      0x20\n      swap2\n      swap1\n      swap2\n      mstore\n      0x40\n      dup2\n      keccak256\n        /* \"diamonds/facets/FacetSafe.sol\":3997:4037  safe().balances[address(0)] -= amountOut */\n      dup1\n      sload\n        /* \"diamonds/facets/FacetSafe.sol\":3997:4024  safe().balances[address(0)] */\n      swap1\n      swap2\n        /* \"diamonds/facets/FacetSafe.sol\":3997:4012  safe().balances */\n      swap1\n        /* \"diamonds/facets/FacetSafe.sol\":3997:4037  safe().balances[address(0)] -= amountOut */\n      tag_121\n      swap1\n      dup5\n      swap1\n      tag_122\n      jump\t// in\n    tag_121:\n      swap1\n      swap2\n      sstore\n      pop\n        /* \"diamonds/facets/FacetSafe.sol\":4051:4057  safe() */\n      tag_123\n      swap1\n      pop\n        /* \"diamonds/facets/FacetSafe.sol\":4051:4055  safe */\n      tag_94\n        /* \"diamonds/facets/FacetSafe.sol\":4051:4057  safe() */\n      jump\t// in\n    tag_123:\n        /* \"diamonds/facets/FacetSafe.sol\":4051:4066  safe().balances */\n      0x00\n        /* \"diamonds/facets/FacetSafe.sol\":4051:4078  safe().balances[address(0)] */\n      dup1\n      dup1\n      mstore\n      0x20\n      swap2\n      swap1\n      swap2\n      mstore\n      0x40\n      dup2\n      keccak256\n      sload\n        /* \"diamonds/facets/FacetSafe.sol\":4051:4083  safe().balances[address(0)] == 0 */\n      swap1\n      sub\n        /* \"diamonds/facets/FacetSafe.sol\":4047:4142  if (safe().balances[address(0)] == 0) {... */\n      tag_124\n      jumpi\n        /* \"diamonds/facets/FacetSafe.sol\":4099:4131  safe().onHand.remove(address(0)) */\n      tag_125\n        /* \"diamonds/facets/FacetSafe.sol\":4128:4129  0 */\n      0x00\n        /* \"diamonds/facets/FacetSafe.sol\":4099:4105  safe() */\n      tag_126\n        /* \"diamonds/facets/FacetSafe.sol\":4099:4103  safe */\n      tag_94\n        /* \"diamonds/facets/FacetSafe.sol\":4099:4105  safe() */\n      jump\t// in\n    tag_126:\n        /* \"diamonds/facets/FacetSafe.sol\":4099:4112  safe().onHand */\n      0x05\n      add\n      swap1\n        /* \"diamonds/facets/FacetSafe.sol\":4099:4119  safe().onHand.remove */\n      tag_127\n        /* \"diamonds/facets/FacetSafe.sol\":4099:4131  safe().onHand.remove(address(0)) */\n      jump\t// in\n    tag_125:\n      pop\n        /* \"diamonds/facets/FacetSafe.sol\":4047:4142  if (safe().balances[address(0)] == 0) {... */\n    tag_124:\n        /* \"diamonds/facets/FacetSafe.sol\":4151:4182  payable(to).transfer(amountOut) */\n      mload(0x40)\n      sub(shl(0xa0, 0x01), 0x01)\n        /* \"diamonds/facets/FacetSafe.sol\":4151:4171  payable(to).transfer */\n      dup4\n      and\n      swap1\n        /* \"diamonds/facets/FacetSafe.sol\":4151:4182  payable(to).transfer(amountOut) */\n      dup3\n      iszero\n      0x08fc\n      mul\n      swap1\n        /* \"diamonds/facets/FacetSafe.sol\":4172:4181  amountOut */\n      dup4\n      swap1\n        /* \"diamonds/facets/FacetSafe.sol\":4151:4182  payable(to).transfer(amountOut) */\n      0x00\n      dup2\n      dup2\n      dup2\n        /* \"diamonds/facets/FacetSafe.sol\":4172:4181  amountOut */\n      dup6\n        /* \"diamonds/facets/FacetSafe.sol\":4151:4171  payable(to).transfer */\n      dup9\n        /* \"diamonds/facets/FacetSafe.sol\":4151:4182  payable(to).transfer(amountOut) */\n      dup9\n      call\n      swap4\n      pop\n      pop\n      pop\n      pop\n      iszero\n      dup1\n      iszero\n      tag_129\n      jumpi\n      returndatasize\n      0x00\n      dup1\n      returndatacopy\n      revert(0x00, returndatasize)\n    tag_129:\n      pop\n        /* \"diamonds/facets/FacetSafe.sol\":4197:4232  Withdraw(to, address(0), amountOut) */\n      mload(0x40)\n        /* \"diamonds/facets/FacetSafe.sol\":4222:4231  amountOut */\n      dup2\n      swap1\n        /* \"diamonds/facets/FacetSafe.sol\":4218:4219  0 */\n      0x00\n      swap1\n      sub(shl(0xa0, 0x01), 0x01)\n        /* \"diamonds/facets/FacetSafe.sol\":4197:4232  Withdraw(to, address(0), amountOut) */\n      dup6\n      and\n      swap1\n      0x9b1bfa7fa9ee420a16e124f794c35ac9f90472acc99140eb2f6447c714cad8eb\n      swap1\n        /* \"diamonds/facets/FacetSafe.sol\":4218:4219  0 */\n      dup4\n      swap1\n        /* \"diamonds/facets/FacetSafe.sol\":4197:4232  Withdraw(to, address(0), amountOut) */\n      log4\n        /* \"diamonds/facets/FacetSafe.sol\":3733:4239  function ____withdraw(address to, uint amountOut) external {... */\n      pop\n      pop\n      jump\t// out\n        /* \"diamonds/facets/FacetSafe.sol\":3087:3727  function ____withdraw(address to, address tokenOut, uint amountOut) external {... */\n    tag_52:\n        /* \"diamonds/facets/FacetSafe.sol\":3212:3220  tokenOut */\n      dup2\n        /* \"diamonds/facets/FacetSafe.sol\":3231:3242  _onlySelf() */\n      tag_131\n        /* \"diamonds/facets/FacetSafe.sol\":3231:3240  _onlySelf */\n      tag_102\n        /* \"diamonds/facets/FacetSafe.sol\":3231:3242  _onlySelf() */\n      jump\t// in\n    tag_131:\n      sub(shl(0xa0, 0x01), 0x01)\n        /* \"diamonds/facets/FacetSafe.sol\":3260:3282  tokenOut != address(0) */\n      dup4\n      and\n        /* \"diamonds/facets/FacetSafe.sol\":3252:3313  require(tokenOut != address(0), 'FacetSafe: improper method') */\n      tag_132\n      jumpi\n      mload(0x40)\n      shl(0xe5, 0x461bcd)\n      dup2\n      mstore\n        /* \"#utility.yul\":3634:3636   */\n      0x20\n        /* \"diamonds/facets/FacetSafe.sol\":3252:3313  require(tokenOut != address(0), 'FacetSafe: improper method') */\n      0x04\n      dup3\n      add\n        /* \"#utility.yul\":3616:3637   */\n      mstore\n        /* \"#utility.yul\":3673:3675   */\n      0x1a\n        /* \"#utility.yul\":3653:3671   */\n      0x24\n      dup3\n      add\n        /* \"#utility.yul\":3646:3676   */\n      mstore\n        /* \"#utility.yul\":3712:3740   */\n      0x4661636574536166653a20696d70726f706572206d6574686f64000000000000\n        /* \"#utility.yul\":3692:3710   */\n      0x44\n      dup3\n      add\n        /* \"#utility.yul\":3685:3741   */\n      mstore\n        /* \"#utility.yul\":3758:3776   */\n      0x64\n      add\n        /* \"diamonds/facets/FacetSafe.sol\":3252:3313  require(tokenOut != address(0), 'FacetSafe: improper method') */\n      tag_114\n        /* \"#utility.yul\":3432:3782   */\n      jump\n        /* \"diamonds/facets/FacetSafe.sol\":3252:3313  require(tokenOut != address(0), 'FacetSafe: improper method') */\n    tag_132:\n        /* \"diamonds/facets/FacetSafe.sol\":3331:3353  isAllowedOut(tokenOut) */\n      tag_135\n        /* \"diamonds/facets/FacetSafe.sol\":3344:3352  tokenOut */\n      dup4\n        /* \"diamonds/facets/FacetSafe.sol\":3331:3343  isAllowedOut */\n      tag_31\n        /* \"diamonds/facets/FacetSafe.sol\":3331:3353  isAllowedOut(tokenOut) */\n      jump\t// in\n    tag_135:\n        /* \"diamonds/facets/FacetSafe.sol\":3323:3393  require(isAllowedOut(tokenOut), 'FacetSafe: token is not allowed out') */\n      tag_136\n      jumpi\n      mload(0x40)\n      shl(0xe5, 0x461bcd)\n      dup2\n      mstore\n        /* \"#utility.yul\":3989:3991   */\n      0x20\n        /* \"diamonds/facets/FacetSafe.sol\":3323:3393  require(isAllowedOut(tokenOut), 'FacetSafe: token is not allowed out') */\n      0x04\n      dup3\n      add\n        /* \"#utility.yul\":3971:3992   */\n      mstore\n        /* \"#utility.yul\":4028:4030   */\n      0x23\n        /* \"#utility.yul\":4008:4026   */\n      0x24\n      dup3\n      add\n        /* \"#utility.yul\":4001:4031   */\n      mstore\n        /* \"#utility.yul\":4067:4101   */\n      0x4661636574536166653a20746f6b656e206973206e6f7420616c6c6f77656420\n        /* \"#utility.yul\":4047:4065   */\n      0x44\n      dup3\n      add\n        /* \"#utility.yul\":4040:4102   */\n      mstore\n      shl(0xea, 0x1bdd5d)\n        /* \"#utility.yul\":4118:4136   */\n      0x64\n      dup3\n      add\n        /* \"#utility.yul\":4111:4144   */\n      mstore\n        /* \"#utility.yul\":4161:4180   */\n      0x84\n      add\n        /* \"diamonds/facets/FacetSafe.sol\":3323:3393  require(isAllowedOut(tokenOut), 'FacetSafe: token is not allowed out') */\n      tag_114\n        /* \"#utility.yul\":3787:4186   */\n      jump\n        /* \"diamonds/facets/FacetSafe.sol\":3323:3393  require(isAllowedOut(tokenOut), 'FacetSafe: token is not allowed out') */\n    tag_136:\n        /* \"diamonds/facets/FacetSafe.sol\":3440:3449  amountOut */\n      dup2\n        /* \"diamonds/facets/FacetSafe.sol\":3411:3417  safe() */\n      tag_139\n        /* \"diamonds/facets/FacetSafe.sol\":3411:3415  safe */\n      tag_94\n        /* \"diamonds/facets/FacetSafe.sol\":3411:3417  safe() */\n      jump\t// in\n    tag_139:\n      sub(shl(0xa0, 0x01), 0x01)\n        /* \"diamonds/facets/FacetSafe.sol\":3411:3436  safe().balances[tokenOut] */\n      dup6\n      and\n        /* \"diamonds/facets/FacetSafe.sol\":3411:3426  safe().balances */\n      0x00\n        /* \"diamonds/facets/FacetSafe.sol\":3411:3436  safe().balances[tokenOut] */\n      swap1\n      dup2\n      mstore\n      0x20\n      swap2\n      swap1\n      swap2\n      mstore\n      0x40\n      swap1\n      keccak256\n      sload\n        /* \"diamonds/facets/FacetSafe.sol\":3411:3449  safe().balances[tokenOut] >= amountOut */\n      lt\n      iszero\n        /* \"diamonds/facets/FacetSafe.sol\":3403:3485  require(safe().balances[tokenOut] >= amountOut, 'FacetSafe: insufficient balance') */\n      tag_140\n      jumpi\n      mload(0x40)\n      shl(0xe5, 0x461bcd)\n      dup2\n      mstore\n      0x04\n      add\n      tag_114\n      swap1\n      tag_119\n      jump\t// in\n    tag_140:\n        /* \"diamonds/facets/FacetSafe.sol\":3524:3533  amountOut */\n      dup2\n        /* \"diamonds/facets/FacetSafe.sol\":3495:3501  safe() */\n      tag_142\n        /* \"diamonds/facets/FacetSafe.sol\":3495:3499  safe */\n      tag_94\n        /* \"diamonds/facets/FacetSafe.sol\":3495:3501  safe() */\n      jump\t// in\n    tag_142:\n      sub(shl(0xa0, 0x01), 0x01)\n        /* \"diamonds/facets/FacetSafe.sol\":3495:3520  safe().balances[tokenOut] */\n      dup6\n      and\n        /* \"diamonds/facets/FacetSafe.sol\":3495:3510  safe().balances */\n      0x00\n        /* \"diamonds/facets/FacetSafe.sol\":3495:3520  safe().balances[tokenOut] */\n      swap1\n      dup2\n      mstore\n      0x20\n      swap2\n      swap1\n      swap2\n      mstore\n      0x40\n      dup2\n      keccak256\n        /* \"diamonds/facets/FacetSafe.sol\":3495:3533  safe().balances[tokenOut] -= amountOut */\n      dup1\n      sload\n        /* \"diamonds/facets/FacetSafe.sol\":3495:3520  safe().balances[tokenOut] */\n      swap1\n      swap2\n        /* \"diamonds/facets/FacetSafe.sol\":3495:3510  safe().balances */\n      swap1\n        /* \"diamonds/facets/FacetSafe.sol\":3495:3533  safe().balances[tokenOut] -= amountOut */\n      tag_143\n      swap1\n      dup5\n      swap1\n      tag_122\n      jump\t// in\n    tag_143:\n      swap1\n      swap2\n      sstore\n      pop\n        /* \"diamonds/facets/FacetSafe.sol\":3547:3553  safe() */\n      tag_144\n      swap1\n      pop\n        /* \"diamonds/facets/FacetSafe.sol\":3547:3551  safe */\n      tag_94\n        /* \"diamonds/facets/FacetSafe.sol\":3547:3553  safe() */\n      jump\t// in\n    tag_144:\n      sub(shl(0xa0, 0x01), 0x01)\n        /* \"diamonds/facets/FacetSafe.sol\":3547:3572  safe().balances[tokenOut] */\n      dup5\n      and\n        /* \"diamonds/facets/FacetSafe.sol\":3547:3562  safe().balances */\n      0x00\n        /* \"diamonds/facets/FacetSafe.sol\":3547:3572  safe().balances[tokenOut] */\n      swap1\n      dup2\n      mstore\n      0x20\n      swap2\n      swap1\n      swap2\n      mstore\n      0x40\n      dup2\n      keccak256\n      sload\n        /* \"diamonds/facets/FacetSafe.sol\":3547:3577  safe().balances[tokenOut] == 0 */\n      swap1\n      sub\n        /* \"diamonds/facets/FacetSafe.sol\":3543:3634  if (safe().balances[tokenOut] == 0) {... */\n      tag_145\n      jumpi\n        /* \"diamonds/facets/FacetSafe.sol\":3593:3623  safe().onHand.remove(tokenOut) */\n      tag_146\n        /* \"diamonds/facets/FacetSafe.sol\":3614:3622  tokenOut */\n      dup4\n        /* \"diamonds/facets/FacetSafe.sol\":3593:3599  safe() */\n      tag_126\n        /* \"diamonds/facets/FacetSafe.sol\":3593:3597  safe */\n      tag_94\n        /* \"diamonds/facets/FacetSafe.sol\":3593:3599  safe() */\n      jump\t// in\n        /* \"diamonds/facets/FacetSafe.sol\":3593:3623  safe().onHand.remove(tokenOut) */\n    tag_146:\n      pop\n        /* \"diamonds/facets/FacetSafe.sol\":3543:3634  if (safe().balances[tokenOut] == 0) {... */\n    tag_145:\n        /* \"diamonds/facets/FacetSafe.sol\":3643:3672  token.transfer(to, amountOut) */\n      mload(0x40)\n      shl(0xe0, 0xa9059cbb)\n      dup2\n      mstore\n      sub(shl(0xa0, 0x01), 0x01)\n        /* \"#utility.yul\":4383:4415   */\n      dup6\n      dup2\n      and\n        /* \"diamonds/facets/FacetSafe.sol\":3643:3672  token.transfer(to, amountOut) */\n      0x04\n      dup4\n      add\n        /* \"#utility.yul\":4365:4416   */\n      mstore\n        /* \"#utility.yul\":4432:4450   */\n      0x24\n      dup3\n      add\n        /* \"#utility.yul\":4425:4459   */\n      dup5\n      swap1\n      mstore\n        /* \"diamonds/facets/FacetSafe.sol\":3643:3657  token.transfer */\n      dup3\n      and\n      swap1\n      0xa9059cbb\n      swap1\n        /* \"#utility.yul\":4338:4356   */\n      0x44\n      add\n        /* \"diamonds/facets/FacetSafe.sol\":3643:3672  token.transfer(to, amountOut) */\n      0x20\n      mload(0x40)\n      dup1\n      dup4\n      sub\n      dup2\n      0x00\n      dup8\n      gas\n      call\n      iszero\n      dup1\n      iszero\n      tag_151\n      jumpi\n      returndatasize\n      0x00\n      dup1\n      returndatacopy\n      revert(0x00, returndatasize)\n    tag_151:\n      pop\n      pop\n      pop\n      pop\n      mload(0x40)\n      returndatasize\n      not(0x1f)\n      0x1f\n      dup3\n      add\n      and\n      dup3\n      add\n      dup1\n      0x40\n      mstore\n      pop\n      dup2\n      add\n      swap1\n      tag_152\n      swap2\n      swap1\n      tag_153\n      jump\t// in\n    tag_152:\n      pop\n        /* \"diamonds/facets/FacetSafe.sol\":3710:3719  amountOut */\n      dup2\n        /* \"diamonds/facets/FacetSafe.sol\":3700:3708  tokenOut */\n      dup4\n      sub(shl(0xa0, 0x01), 0x01)\n        /* \"diamonds/facets/FacetSafe.sol\":3687:3720  Withdraw(to, tokenOut, amountOut) */\n      and\n        /* \"diamonds/facets/FacetSafe.sol\":3696:3698  to */\n      dup6\n      sub(shl(0xa0, 0x01), 0x01)\n        /* \"diamonds/facets/FacetSafe.sol\":3687:3720  Withdraw(to, tokenOut, amountOut) */\n      and\n      0x9b1bfa7fa9ee420a16e124f794c35ac9f90472acc99140eb2f6447c714cad8eb\n      mload(0x40)\n      mload(0x40)\n      dup1\n      swap2\n      sub\n      swap1\n      log4\n        /* \"diamonds/facets/FacetSafe.sol\":3164:3727  {... */\n      pop\n        /* \"diamonds/facets/FacetSafe.sol\":3087:3727  function ____withdraw(address to, address tokenOut, uint amountOut) external {... */\n      pop\n      pop\n      pop\n      jump\t// out\n        /* \"diamonds/facets/FacetSafe.sol\":4425:4548  function getHoldingsInSafe(address token) public view virtual returns (uint) {... */\n    tag_56:\n        /* \"diamonds/facets/FacetSafe.sol\":4496:4500  uint */\n      0x00\n        /* \"diamonds/facets/FacetSafe.sol\":4519:4525  safe() */\n      tag_155\n        /* \"diamonds/facets/FacetSafe.sol\":4519:4523  safe */\n      tag_94\n        /* \"diamonds/facets/FacetSafe.sol\":4519:4525  safe() */\n      jump\t// in\n    tag_155:\n      sub(shl(0xa0, 0x01), 0x01)\n        /* \"diamonds/facets/FacetSafe.sol\":4519:4541  safe().balances[token] */\n      swap1\n      swap3\n      and\n        /* \"diamonds/facets/FacetSafe.sol\":4519:4534  safe().balances */\n      0x00\n        /* \"diamonds/facets/FacetSafe.sol\":4519:4541  safe().balances[token] */\n      swap1\n      dup2\n      mstore\n      0x20\n      swap3\n      swap1\n      swap3\n      mstore\n      pop\n      0x40\n      swap1\n      keccak256\n      sload\n      swap1\n        /* \"diamonds/facets/FacetSafe.sol\":4425:4548  function getHoldingsInSafe(address token) public view virtual returns (uint) {... */\n      jump\t// out\n        /* \"diamonds/facets/FacetSafe.sol\":4835:4971  function getTokensAllowedOutFromSafe() public view virtual returns (address[] memory) {... */\n    tag_61:\n        /* \"diamonds/facets/FacetSafe.sol\":4903:4919  address[] memory */\n      0x60\n        /* \"diamonds/facets/FacetSafe.sol\":4938:4964  safe().allowedOut.values() */\n      tag_107\n        /* \"diamonds/facets/FacetSafe.sol\":4938:4944  safe() */\n      tag_158\n        /* \"diamonds/facets/FacetSafe.sol\":4938:4942  safe */\n      tag_94\n        /* \"diamonds/facets/FacetSafe.sol\":4938:4944  safe() */\n      jump\t// in\n    tag_158:\n        /* \"diamonds/facets/FacetSafe.sol\":4938:4955  safe().allowedOut */\n      0x03\n      add\n        /* \"diamonds/facets/FacetSafe.sol\":4938:4962  safe().allowedOut.values */\n      tag_109\n        /* \"diamonds/facets/FacetSafe.sol\":4938:4964  safe().allowedOut.values() */\n      jump\t// in\n        /* \"diamonds/facets/FacetSafe.sol\":5410:5533  function deposit(address tokenIn, uint amountIn) nonReentrant() public virtual {... */\n    tag_66:\n        /* \"diamonds/facets/FacetSafe.sol\":4297:4303  safe() */\n      tag_160\n        /* \"diamonds/facets/FacetSafe.sol\":4297:4301  safe */\n      tag_94\n        /* \"diamonds/facets/FacetSafe.sol\":4297:4303  safe() */\n      jump\t// in\n    tag_160:\n        /* \"diamonds/facets/FacetSafe.sol\":4297:4310  safe().locked */\n      0x07\n      add\n      sload\n      0xff\n      and\n        /* \"diamonds/facets/FacetSafe.sol\":4296:4310  !safe().locked */\n      iszero\n        /* \"diamonds/facets/FacetSafe.sol\":4288:4340  require(!safe().locked, 'FacetSafe: reentrant call') */\n      tag_161\n      jumpi\n      mload(0x40)\n      shl(0xe5, 0x461bcd)\n      dup2\n      mstore\n        /* \"#utility.yul\":4954:4956   */\n      0x20\n        /* \"diamonds/facets/FacetSafe.sol\":4288:4340  require(!safe().locked, 'FacetSafe: reentrant call') */\n      0x04\n      dup3\n      add\n        /* \"#utility.yul\":4936:4957   */\n      mstore\n        /* \"#utility.yul\":4993:4995   */\n      0x19\n        /* \"#utility.yul\":4973:4991   */\n      0x24\n      dup3\n      add\n        /* \"#utility.yul\":4966:4996   */\n      mstore\n      shl(0x3a, 0x119858d95d14d859994e881c99595b9d1c985b9d0818d85b1b)\n        /* \"#utility.yul\":5012:5030   */\n      0x44\n      dup3\n      add\n        /* \"#utility.yul\":5005:5060   */\n      mstore\n        /* \"#utility.yul\":5077:5095   */\n      0x64\n      add\n        /* \"diamonds/facets/FacetSafe.sol\":4288:4340  require(!safe().locked, 'FacetSafe: reentrant call') */\n      tag_114\n        /* \"#utility.yul\":4752:5101   */\n      jump\n        /* \"diamonds/facets/FacetSafe.sol\":4288:4340  require(!safe().locked, 'FacetSafe: reentrant call') */\n    tag_161:\n        /* \"diamonds/facets/FacetSafe.sol\":4366:4370  true */\n      0x01\n        /* \"diamonds/facets/FacetSafe.sol\":4350:4356  safe() */\n      tag_164\n        /* \"diamonds/facets/FacetSafe.sol\":4350:4354  safe */\n      tag_94\n        /* \"diamonds/facets/FacetSafe.sol\":4350:4356  safe() */\n      jump\t// in\n    tag_164:\n        /* \"diamonds/facets/FacetSafe.sol\":4350:4363  safe().locked */\n      0x07\n      add\n        /* \"diamonds/facets/FacetSafe.sol\":4350:4370  safe().locked = true */\n      dup1\n      sload\n      not(0xff)\n      and\n      swap2\n      iszero\n      iszero\n      swap2\n      swap1\n      swap2\n      or\n      swap1\n      sstore\n        /* \"diamonds/facets/FacetSafe.sol\":5499:5526  _deposit(tokenIn, amountIn) */\n      tag_166\n        /* \"diamonds/facets/FacetSafe.sol\":5508:5515  tokenIn */\n      dup3\n        /* \"diamonds/facets/FacetSafe.sol\":5517:5525  amountIn */\n      dup3\n        /* \"diamonds/facets/FacetSafe.sol\":5499:5507  _deposit */\n      tag_167\n        /* \"diamonds/facets/FacetSafe.sol\":5499:5526  _deposit(tokenIn, amountIn) */\n      jump\t// in\n    tag_166:\n        /* \"diamonds/facets/FacetSafe.sol\":4407:4412  false */\n      0x00\n        /* \"diamonds/facets/FacetSafe.sol\":4391:4397  safe() */\n      tag_168\n        /* \"diamonds/facets/FacetSafe.sol\":4391:4395  safe */\n      tag_94\n        /* \"diamonds/facets/FacetSafe.sol\":4391:4397  safe() */\n      jump\t// in\n    tag_168:\n        /* \"diamonds/facets/FacetSafe.sol\":4391:4404  safe().locked */\n      0x07\n      add\n        /* \"diamonds/facets/FacetSafe.sol\":4391:4412  safe().locked = false */\n      dup1\n      sload\n      not(0xff)\n      and\n      swap2\n      iszero\n      iszero\n      swap2\n      swap1\n      swap2\n      or\n      swap1\n      sstore\n      pop\n      pop\n        /* \"diamonds/facets/FacetSafe.sol\":5410:5533  function deposit(address tokenIn, uint amountIn) nonReentrant() public virtual {... */\n      jump\t// out\n        /* \"diamonds/facets/FacetSafe.sol\":2731:2901  function ____allowTokenOutOfSafe(address token) external {... */\n    tag_70:\n        /* \"diamonds/facets/FacetSafe.sol\":2798:2809  _onlySelf() */\n      tag_170\n        /* \"diamonds/facets/FacetSafe.sol\":2798:2807  _onlySelf */\n      tag_102\n        /* \"diamonds/facets/FacetSafe.sol\":2798:2809  _onlySelf() */\n      jump\t// in\n    tag_170:\n        /* \"diamonds/facets/FacetSafe.sol\":2819:2847  safe().allowedOut.add(token) */\n      tag_171\n        /* \"diamonds/facets/FacetSafe.sol\":2841:2846  token */\n      dup2\n        /* \"diamonds/facets/FacetSafe.sol\":2819:2825  safe() */\n      tag_172\n        /* \"diamonds/facets/FacetSafe.sol\":2819:2823  safe */\n      tag_94\n        /* \"diamonds/facets/FacetSafe.sol\":2819:2825  safe() */\n      jump\t// in\n    tag_172:\n        /* \"diamonds/facets/FacetSafe.sol\":2819:2836  safe().allowedOut */\n      0x03\n      add\n      swap1\n        /* \"diamonds/facets/FacetSafe.sol\":2819:2840  safe().allowedOut.add */\n      tag_105\n        /* \"diamonds/facets/FacetSafe.sol\":2819:2847  safe().allowedOut.add(token) */\n      jump\t// in\n    tag_171:\n      pop\n        /* \"diamonds/facets/FacetSafe.sol\":2862:2894  PermissionGrantedTokenOut(token) */\n      mload(0x40)\n      sub(shl(0xa0, 0x01), 0x01)\n      dup3\n      and\n      swap1\n      0xb91009acff1ca23a9fe12400608cae8383f810cac953c1a16a99fe9b9c65abfb\n      swap1\n      0x00\n      swap1\n      log2\n        /* \"diamonds/facets/FacetSafe.sol\":2731:2901  function ____allowTokenOutOfSafe(address token) external {... */\n      pop\n      jump\t// out\n        /* \"diamonds/facets/FacetSafe.sol\":5124:5251  function isAllowedIn(address token) public view virtual returns (bool) {... */\n    tag_74:\n        /* \"diamonds/facets/FacetSafe.sol\":5189:5193  bool */\n      0x00\n        /* \"diamonds/facets/FacetSafe.sol\":5212:5244  safe().allowedIn.contains(token) */\n      tag_92\n        /* \"diamonds/facets/FacetSafe.sol\":5238:5243  token */\n      dup3\n        /* \"diamonds/facets/FacetSafe.sol\":5212:5218  safe() */\n      tag_175\n        /* \"diamonds/facets/FacetSafe.sol\":5212:5216  safe */\n      tag_94\n        /* \"diamonds/facets/FacetSafe.sol\":5212:5218  safe() */\n      jump\t// in\n    tag_175:\n        /* \"diamonds/facets/FacetSafe.sol\":5212:5228  safe().allowedIn */\n      0x01\n      add\n      swap1\n        /* \"diamonds/facets/FacetSafe.sol\":5212:5237  safe().allowedIn.contains */\n      tag_99\n        /* \"diamonds/facets/FacetSafe.sol\":5212:5244  safe().allowedIn.contains(token) */\n      jump\t// in\n        /* \"diamonds/facets/FacetSafe.sol\":2907:3081  function ____forbidTokenOutOfSafe(address token) external {... */\n    tag_79:\n        /* \"diamonds/facets/FacetSafe.sol\":2975:2986  _onlySelf() */\n      tag_177\n        /* \"diamonds/facets/FacetSafe.sol\":2975:2984  _onlySelf */\n      tag_102\n        /* \"diamonds/facets/FacetSafe.sol\":2975:2986  _onlySelf() */\n      jump\t// in\n    tag_177:\n        /* \"diamonds/facets/FacetSafe.sol\":2996:3027  safe().allowedOut.remove(token) */\n      tag_178\n        /* \"diamonds/facets/FacetSafe.sol\":3021:3026  token */\n      dup2\n        /* \"diamonds/facets/FacetSafe.sol\":2996:3002  safe() */\n      tag_179\n        /* \"diamonds/facets/FacetSafe.sol\":2996:3000  safe */\n      tag_94\n        /* \"diamonds/facets/FacetSafe.sol\":2996:3002  safe() */\n      jump\t// in\n    tag_179:\n        /* \"diamonds/facets/FacetSafe.sol\":2996:3013  safe().allowedOut */\n      0x03\n      add\n      swap1\n        /* \"diamonds/facets/FacetSafe.sol\":2996:3020  safe().allowedOut.remove */\n      tag_127\n        /* \"diamonds/facets/FacetSafe.sol\":2996:3027  safe().allowedOut.remove(token) */\n      jump\t// in\n    tag_178:\n      pop\n        /* \"diamonds/facets/FacetSafe.sol\":3042:3074  PermissionRevokedTokenOut(token) */\n      mload(0x40)\n      sub(shl(0xa0, 0x01), 0x01)\n      dup3\n      and\n      swap1\n      0x64f9ae8a27a020b54f63a0d9ff5d3f0dd302b35eef11d16612b2a02b2d8a8248\n      swap1\n      0x00\n      swap1\n      log2\n        /* \"diamonds/facets/FacetSafe.sol\":2907:3081  function ____forbidTokenOutOfSafe(address token) external {... */\n      pop\n      jump\t// out\n        /* \"diamonds/facets/FacetSafe.sol\":5555:5639  function deposit() nonReentrant() public payable virtual {... */\n    tag_81:\n        /* \"diamonds/facets/FacetSafe.sol\":4297:4303  safe() */\n      tag_181\n        /* \"diamonds/facets/FacetSafe.sol\":4297:4301  safe */\n      tag_94\n        /* \"diamonds/facets/FacetSafe.sol\":4297:4303  safe() */\n      jump\t// in\n    tag_181:\n        /* \"diamonds/facets/FacetSafe.sol\":4297:4310  safe().locked */\n      0x07\n      add\n      sload\n      0xff\n      and\n        /* \"diamonds/facets/FacetSafe.sol\":4296:4310  !safe().locked */\n      iszero\n        /* \"diamonds/facets/FacetSafe.sol\":4288:4340  require(!safe().locked, 'FacetSafe: reentrant call') */\n      tag_182\n      jumpi\n      mload(0x40)\n      shl(0xe5, 0x461bcd)\n      dup2\n      mstore\n        /* \"#utility.yul\":4954:4956   */\n      0x20\n        /* \"diamonds/facets/FacetSafe.sol\":4288:4340  require(!safe().locked, 'FacetSafe: reentrant call') */\n      0x04\n      dup3\n      add\n        /* \"#utility.yul\":4936:4957   */\n      mstore\n        /* \"#utility.yul\":4993:4995   */\n      0x19\n        /* \"#utility.yul\":4973:4991   */\n      0x24\n      dup3\n      add\n        /* \"#utility.yul\":4966:4996   */\n      mstore\n      shl(0x3a, 0x119858d95d14d859994e881c99595b9d1c985b9d0818d85b1b)\n        /* \"#utility.yul\":5012:5030   */\n      0x44\n      dup3\n      add\n        /* \"#utility.yul\":5005:5060   */\n      mstore\n        /* \"#utility.yul\":5077:5095   */\n      0x64\n      add\n        /* \"diamonds/facets/FacetSafe.sol\":4288:4340  require(!safe().locked, 'FacetSafe: reentrant call') */\n      tag_114\n        /* \"#utility.yul\":4752:5101   */\n      jump\n        /* \"diamonds/facets/FacetSafe.sol\":4288:4340  require(!safe().locked, 'FacetSafe: reentrant call') */\n    tag_182:\n        /* \"diamonds/facets/FacetSafe.sol\":4366:4370  true */\n      0x01\n        /* \"diamonds/facets/FacetSafe.sol\":4350:4356  safe() */\n      tag_184\n        /* \"diamonds/facets/FacetSafe.sol\":4350:4354  safe */\n      tag_94\n        /* \"diamonds/facets/FacetSafe.sol\":4350:4356  safe() */\n      jump\t// in\n    tag_184:\n        /* \"diamonds/facets/FacetSafe.sol\":4350:4363  safe().locked */\n      0x07\n      add\n        /* \"diamonds/facets/FacetSafe.sol\":4350:4370  safe().locked = true */\n      dup1\n      sload\n      not(0xff)\n      and\n      swap2\n      iszero\n      iszero\n      swap2\n      swap1\n      swap2\n      or\n      swap1\n      sstore\n        /* \"diamonds/facets/FacetSafe.sol\":5622:5632  _deposit() */\n      tag_186\n        /* \"diamonds/facets/FacetSafe.sol\":5622:5630  _deposit */\n      tag_187\n        /* \"diamonds/facets/FacetSafe.sol\":5622:5632  _deposit() */\n      jump\t// in\n    tag_186:\n        /* \"diamonds/facets/FacetSafe.sol\":4407:4412  false */\n      0x00\n        /* \"diamonds/facets/FacetSafe.sol\":4391:4397  safe() */\n      tag_188\n        /* \"diamonds/facets/FacetSafe.sol\":4391:4395  safe */\n      tag_94\n        /* \"diamonds/facets/FacetSafe.sol\":4391:4397  safe() */\n      jump\t// in\n    tag_188:\n        /* \"diamonds/facets/FacetSafe.sol\":4391:4404  safe().locked */\n      0x07\n      add\n        /* \"diamonds/facets/FacetSafe.sol\":4391:4412  safe().locked = false */\n      dup1\n      sload\n      not(0xff)\n      and\n      swap2\n      iszero\n      iszero\n      swap2\n      swap1\n      swap2\n      or\n      swap1\n      sstore\n        /* \"diamonds/facets/FacetSafe.sol\":5555:5639  function deposit() nonReentrant() public payable virtual {... */\n      jump\t// out\n        /* \"diamonds/facets/FacetSafe.sol\":4692:4829  function getTokenAllowedInToSafe(uint tokenId) public view virtual returns (address) {... */\n    tag_85:\n        /* \"diamonds/facets/FacetSafe.sol\":4768:4775  address */\n      0x00\n        /* \"diamonds/facets/FacetSafe.sol\":4794:4822  safe().allowedIn.at(tokenId) */\n      tag_92\n        /* \"diamonds/facets/FacetSafe.sol\":4814:4821  tokenId */\n      dup3\n        /* \"diamonds/facets/FacetSafe.sol\":4794:4800  safe() */\n      tag_191\n        /* \"diamonds/facets/FacetSafe.sol\":4794:4798  safe */\n      tag_94\n        /* \"diamonds/facets/FacetSafe.sol\":4794:4800  safe() */\n      jump\t// in\n    tag_191:\n        /* \"diamonds/facets/FacetSafe.sol\":4794:4810  safe().allowedIn */\n      0x01\n      add\n      swap1\n        /* \"diamonds/facets/FacetSafe.sol\":4794:4813  safe().allowedIn.at */\n      tag_95\n        /* \"diamonds/facets/FacetSafe.sol\":4794:4822  safe().allowedIn.at(tokenId) */\n      jump\t// in\n        /* \"diamonds/facets/FacetSafe.sol\":2554:2725  function ____forbidTokenInToSafe(address token) external {... */\n    tag_90:\n        /* \"diamonds/facets/FacetSafe.sol\":2621:2632  _onlySelf() */\n      tag_193\n        /* \"diamonds/facets/FacetSafe.sol\":2621:2630  _onlySelf */\n      tag_102\n        /* \"diamonds/facets/FacetSafe.sol\":2621:2632  _onlySelf() */\n      jump\t// in\n    tag_193:\n        /* \"diamonds/facets/FacetSafe.sol\":2642:2672  safe().allowedIn.remove(token) */\n      tag_194\n        /* \"diamonds/facets/FacetSafe.sol\":2666:2671  token */\n      dup2\n        /* \"diamonds/facets/FacetSafe.sol\":2642:2648  safe() */\n      tag_195\n        /* \"diamonds/facets/FacetSafe.sol\":2642:2646  safe */\n      tag_94\n        /* \"diamonds/facets/FacetSafe.sol\":2642:2648  safe() */\n      jump\t// in\n    tag_195:\n        /* \"diamonds/facets/FacetSafe.sol\":2642:2658  safe().allowedIn */\n      0x01\n      add\n      swap1\n        /* \"diamonds/facets/FacetSafe.sol\":2642:2665  safe().allowedIn.remove */\n      tag_127\n        /* \"diamonds/facets/FacetSafe.sol\":2642:2672  safe().allowedIn.remove(token) */\n      jump\t// in\n    tag_194:\n      pop\n        /* \"diamonds/facets/FacetSafe.sol\":2687:2718  PermissionRevokedTokenIn(token) */\n      mload(0x40)\n      sub(shl(0xa0, 0x01), 0x01)\n      dup3\n      and\n      swap1\n      0x0a05ed313e53d05b8e9ebe468e240ec174f5190074867a051f35ac20709eed04\n      swap1\n      0x00\n      swap1\n      log2\n        /* \"diamonds/facets/FacetSafe.sol\":2554:2725  function ____forbidTokenInToSafe(address token) external {... */\n      pop\n      jump\t// out\n        /* \"diamonds/facets/slots/SlotSafe.sol\":488:659  function safe() internal pure virtual returns (StorageSafe storage s) {... */\n    tag_94:\n        /* \"diamonds/facets/slots/SlotSafe.sol\":233:255  keccak256('slot.safe') */\n      0xf2eeec4c06050035800631f1916b3a25e1fa154de963ec50f0ac015a5be9e618\n      swap1\n        /* \"diamonds/facets/slots/SlotSafe.sol\":488:659  function safe() internal pure virtual returns (StorageSafe storage s) {... */\n      jump\t// out\n        /* \"imports/openzeppelin/utils/structs/EnumerableSet.sol\":9564:9720  function at(AddressSet storage set, uint256 index) internal view returns (address) {... */\n    tag_95:\n        /* \"imports/openzeppelin/utils/structs/EnumerableSet.sol\":9638:9645  address */\n      0x00\n        /* \"imports/openzeppelin/utils/structs/EnumerableSet.sol\":9688:9710  _at(set._inner, index) */\n      tag_198\n        /* \"imports/openzeppelin/utils/structs/EnumerableSet.sol\":9692:9695  set */\n      dup4\n        /* \"imports/openzeppelin/utils/structs/EnumerableSet.sol\":9704:9709  index */\n      dup4\n        /* \"imports/openzeppelin/utils/structs/EnumerableSet.sol\":9688:9691  _at */\n      tag_199\n        /* \"imports/openzeppelin/utils/structs/EnumerableSet.sol\":9688:9710  _at(set._inner, index) */\n      jump\t// in\n    tag_198:\n        /* \"imports/openzeppelin/utils/structs/EnumerableSet.sol\":9680:9711  uint256(_at(set._inner, index)) */\n      swap4\n        /* \"imports/openzeppelin/utils/structs/EnumerableSet.sol\":9564:9720  function at(AddressSet storage set, uint256 index) internal view returns (address) {... */\n      swap3\n      pop\n      pop\n      pop\n      jump\t// out\n        /* \"imports/openzeppelin/utils/structs/EnumerableSet.sol\":8861:9026  function contains(AddressSet storage set, address value) internal view returns (bool) {... */\n    tag_99:\n      sub(shl(0xa0, 0x01), 0x01)\n        /* \"imports/openzeppelin/utils/structs/EnumerableSet.sol\":8994:9017  uint256(uint160(value)) */\n      dup2\n      and\n        /* \"imports/openzeppelin/utils/structs/EnumerableSet.sol\":8941:8945  bool */\n      0x00\n        /* \"imports/openzeppelin/utils/structs/EnumerableSet.sol\":4352:4371  set._indexes[value] */\n      swap1\n      dup2\n      mstore\n        /* \"imports/openzeppelin/utils/structs/EnumerableSet.sol\":4352:4364  set._indexes */\n      0x01\n      dup4\n      add\n        /* \"imports/openzeppelin/utils/structs/EnumerableSet.sol\":4352:4371  set._indexes[value] */\n      0x20\n      mstore\n      0x40\n      dup2\n      keccak256\n      sload\n        /* \"imports/openzeppelin/utils/structs/EnumerableSet.sol\":4352:4376  set._indexes[value] != 0 */\n      iszero\n      iszero\n        /* \"imports/openzeppelin/utils/structs/EnumerableSet.sol\":8964:9019  _contains(set._inner, bytes32(uint256(uint160(value)))) */\n      tag_198\n        /* \"imports/openzeppelin/utils/structs/EnumerableSet.sol\":4256:4383  function _contains(Set storage set, bytes32 value) private view returns (bool) {... */\n      jump\n        /* \"diamonds/facets/FacetSafe.sol\":5645:5767  function _onlySelf() internal view virtual {... */\n    tag_102:\n        /* \"imports/openzeppelin/utils/Context.sol\":720:730  msg.sender */\n      caller\n        /* \"diamonds/facets/FacetSafe.sol\":5730:5734  this */\n      address\n        /* \"diamonds/facets/FacetSafe.sol\":5706:5735  _msgSender() == address(this) */\n      eq\n        /* \"diamonds/facets/FacetSafe.sol\":5698:5760  require(_msgSender() == address(this), 'FacetSafe: only self') */\n      tag_206\n      jumpi\n      mload(0x40)\n      shl(0xe5, 0x461bcd)\n      dup2\n      mstore\n        /* \"#utility.yul\":5308:5310   */\n      0x20\n        /* \"diamonds/facets/FacetSafe.sol\":5698:5760  require(_msgSender() == address(this), 'FacetSafe: only self') */\n      0x04\n      dup3\n      add\n        /* \"#utility.yul\":5290:5311   */\n      mstore\n        /* \"#utility.yul\":5347:5349   */\n      0x14\n        /* \"#utility.yul\":5327:5345   */\n      0x24\n      dup3\n      add\n        /* \"#utility.yul\":5320:5350   */\n      mstore\n      shl(0x61, 0x2330b1b2ba29b0b3329d1037b7363c9039b2b633)\n        /* \"#utility.yul\":5366:5384   */\n      0x44\n      dup3\n      add\n        /* \"#utility.yul\":5359:5409   */\n      mstore\n        /* \"#utility.yul\":5426:5444   */\n      0x64\n      add\n        /* \"diamonds/facets/FacetSafe.sol\":5698:5760  require(_msgSender() == address(this), 'FacetSafe: only self') */\n      tag_114\n        /* \"#utility.yul\":5106:5450   */\n      jump\n        /* \"diamonds/facets/FacetSafe.sol\":5698:5760  require(_msgSender() == address(this), 'FacetSafe: only self') */\n    tag_206:\n        /* \"diamonds/facets/FacetSafe.sol\":5645:5767  function _onlySelf() internal view virtual {... */\n      jump\t// out\n        /* \"imports/openzeppelin/utils/structs/EnumerableSet.sol\":8306:8456  function add(AddressSet storage set, address value) internal returns (bool) {... */\n    tag_105:\n        /* \"imports/openzeppelin/utils/structs/EnumerableSet.sol\":8376:8380  bool */\n      0x00\n        /* \"imports/openzeppelin/utils/structs/EnumerableSet.sol\":8399:8449  _add(set._inner, bytes32(uint256(uint160(value)))) */\n      tag_198\n        /* \"imports/openzeppelin/utils/structs/EnumerableSet.sol\":8404:8407  set */\n      dup4\n      sub(shl(0xa0, 0x01), 0x01)\n        /* \"imports/openzeppelin/utils/structs/EnumerableSet.sol\":8424:8447  uint256(uint160(value)) */\n      dup5\n      and\n        /* \"imports/openzeppelin/utils/structs/EnumerableSet.sol\":8399:8403  _add */\n      tag_211\n        /* \"imports/openzeppelin/utils/structs/EnumerableSet.sol\":8399:8449  _add(set._inner, bytes32(uint256(uint160(value)))) */\n      jump\t// in\n        /* \"imports/openzeppelin/utils/structs/EnumerableSet.sol\":10260:10560  function values(AddressSet storage set) internal view returns (address[] memory) {... */\n    tag_109:\n        /* \"imports/openzeppelin/utils/structs/EnumerableSet.sol\":10323:10339  address[] memory */\n      0x60\n        /* \"imports/openzeppelin/utils/structs/EnumerableSet.sol\":10351:10373  bytes32[] memory store */\n      0x00\n        /* \"imports/openzeppelin/utils/structs/EnumerableSet.sol\":10376:10395  _values(set._inner) */\n      tag_198\n        /* \"imports/openzeppelin/utils/structs/EnumerableSet.sol\":10384:10387  set */\n      dup4\n        /* \"imports/openzeppelin/utils/structs/EnumerableSet.sol\":10376:10383  _values */\n      tag_214\n        /* \"imports/openzeppelin/utils/structs/EnumerableSet.sol\":10376:10395  _values(set._inner) */\n      jump\t// in\n        /* \"imports/openzeppelin/utils/structs/EnumerableSet.sol\":8624:8780  function remove(AddressSet storage set, address value) internal returns (bool) {... */\n    tag_127:\n        /* \"imports/openzeppelin/utils/structs/EnumerableSet.sol\":8697:8701  bool */\n      0x00\n        /* \"imports/openzeppelin/utils/structs/EnumerableSet.sol\":8720:8773  _remove(set._inner, bytes32(uint256(uint160(value)))) */\n      tag_198\n        /* \"imports/openzeppelin/utils/structs/EnumerableSet.sol\":8728:8731  set */\n      dup4\n      sub(shl(0xa0, 0x01), 0x01)\n        /* \"imports/openzeppelin/utils/structs/EnumerableSet.sol\":8748:8771  uint256(uint160(value)) */\n      dup5\n      and\n        /* \"imports/openzeppelin/utils/structs/EnumerableSet.sol\":8720:8727  _remove */\n      tag_217\n        /* \"imports/openzeppelin/utils/structs/EnumerableSet.sol\":8720:8773  _remove(set._inner, bytes32(uint256(uint160(value)))) */\n      jump\t// in\n        /* \"diamonds/facets/FacetSafe.sol\":5791:6288  function _deposit(address tokenIn, uint amountIn) private {... */\n    tag_167:\n        /* \"diamonds/facets/FacetSafe.sol\":5897:5904  tokenIn */\n      dup2\n        /* \"diamonds/facets/FacetSafe.sol\":5923:5943  isAllowedIn(tokenIn) */\n      tag_219\n        /* \"diamonds/facets/FacetSafe.sol\":5897:5904  tokenIn */\n      dup2\n        /* \"diamonds/facets/FacetSafe.sol\":5923:5934  isAllowedIn */\n      tag_74\n        /* \"diamonds/facets/FacetSafe.sol\":5923:5943  isAllowedIn(tokenIn) */\n      jump\t// in\n    tag_219:\n        /* \"diamonds/facets/FacetSafe.sol\":5915:5982  require(isAllowedIn(tokenIn), 'FacetSafe: token is not allowed in') */\n      tag_220\n      jumpi\n      mload(0x40)\n      shl(0xe5, 0x461bcd)\n      dup2\n      mstore\n        /* \"#utility.yul\":5657:5659   */\n      0x20\n        /* \"diamonds/facets/FacetSafe.sol\":5915:5982  require(isAllowedIn(tokenIn), 'FacetSafe: token is not allowed in') */\n      0x04\n      dup3\n      add\n        /* \"#utility.yul\":5639:5660   */\n      mstore\n        /* \"#utility.yul\":5696:5698   */\n      0x22\n        /* \"#utility.yul\":5676:5694   */\n      0x24\n      dup3\n      add\n        /* \"#utility.yul\":5669:5699   */\n      mstore\n        /* \"#utility.yul\":5735:5769   */\n      0x4661636574536166653a20746f6b656e206973206e6f7420616c6c6f77656420\n        /* \"#utility.yul\":5715:5733   */\n      0x44\n      dup3\n      add\n        /* \"#utility.yul\":5708:5770   */\n      mstore\n      shl(0xf1, 0x34b7)\n        /* \"#utility.yul\":5786:5804   */\n      0x64\n      dup3\n      add\n        /* \"#utility.yul\":5779:5811   */\n      mstore\n        /* \"#utility.yul\":5828:5847   */\n      0x84\n      add\n        /* \"diamonds/facets/FacetSafe.sol\":5915:5982  require(isAllowedIn(tokenIn), 'FacetSafe: token is not allowed in') */\n      tag_114\n        /* \"#utility.yul\":5455:5853   */\n      jump\n        /* \"diamonds/facets/FacetSafe.sol\":5915:5982  require(isAllowedIn(tokenIn), 'FacetSafe: token is not allowed in') */\n    tag_220:\n        /* \"diamonds/facets/FacetSafe.sol\":6033:6041  amountIn */\n      dup2\n      sub(shl(0xa0, 0x01), 0x01)\n        /* \"diamonds/facets/FacetSafe.sol\":6000:6015  token.balanceOf */\n      dup3\n      and\n      0x70a08231\n        /* \"imports/openzeppelin/utils/Context.sol\":720:730  msg.sender */\n      caller\n        /* \"diamonds/facets/FacetSafe.sol\":6000:6029  token.balanceOf(_msgSender()) */\n      mload(0x40)\n      not(sub(shl(0xe0, 0x01), 0x01))\n      0xe0\n      dup5\n      swap1\n      shl\n      and\n      dup2\n      mstore\n      sub(shl(0xa0, 0x01), 0x01)\n        /* \"#utility.yul\":363:395   */\n      swap1\n      swap2\n      and\n        /* \"diamonds/facets/FacetSafe.sol\":6000:6029  token.balanceOf(_msgSender()) */\n      0x04\n      dup3\n      add\n        /* \"#utility.yul\":345:396   */\n      mstore\n        /* \"#utility.yul\":318:336   */\n      0x24\n      add\n        /* \"diamonds/facets/FacetSafe.sol\":6000:6029  token.balanceOf(_msgSender()) */\n      0x20\n      mload(0x40)\n      dup1\n      dup4\n      sub\n      dup2\n      dup7\n      gas\n      staticcall\n      iszero\n      dup1\n      iszero\n      tag_226\n      jumpi\n      returndatasize\n      0x00\n      dup1\n      returndatacopy\n      revert(0x00, returndatasize)\n    tag_226:\n      pop\n      pop\n      pop\n      pop\n      mload(0x40)\n      returndatasize\n      not(0x1f)\n      0x1f\n      dup3\n      add\n      and\n      dup3\n      add\n      dup1\n      0x40\n      mstore\n      pop\n      dup2\n      add\n      swap1\n      tag_227\n      swap2\n      swap1\n      tag_228\n      jump\t// in\n    tag_227:\n        /* \"diamonds/facets/FacetSafe.sol\":6000:6041  token.balanceOf(_msgSender()) >= amountIn */\n      lt\n      iszero\n        /* \"diamonds/facets/FacetSafe.sol\":5992:6077  require(token.balanceOf(_msgSender()) >= amountIn, 'FacetSafe: insufficient balance') */\n      tag_229\n      jumpi\n      mload(0x40)\n      shl(0xe5, 0x461bcd)\n      dup2\n      mstore\n      0x04\n      add\n      tag_114\n      swap1\n      tag_119\n      jump\t// in\n    tag_229:\n      sub(shl(0xa0, 0x01), 0x01)\n        /* \"diamonds/facets/FacetSafe.sol\":6087:6105  token.transferFrom */\n      dup2\n      and\n      0x23b872dd\n        /* \"imports/openzeppelin/utils/Context.sol\":720:730  msg.sender */\n      caller\n        /* \"diamonds/facets/FacetSafe.sol\":6087:6144  token.transferFrom(_msgSender(), address(this), amountIn) */\n      mload(0x40)\n      not(sub(shl(0xe0, 0x01), 0x01))\n      0xe0\n      dup5\n      swap1\n      shl\n      and\n      dup2\n      mstore\n      sub(shl(0xa0, 0x01), 0x01)\n        /* \"#utility.yul\":6305:6320   */\n      swap1\n      swap2\n      and\n        /* \"diamonds/facets/FacetSafe.sol\":6087:6144  token.transferFrom(_msgSender(), address(this), amountIn) */\n      0x04\n      dup3\n      add\n        /* \"#utility.yul\":6287:6321   */\n      mstore\n        /* \"diamonds/facets/FacetSafe.sol\":6128:6132  this */\n      address\n        /* \"#utility.yul\":6337:6355   */\n      0x24\n      dup3\n      add\n        /* \"#utility.yul\":6330:6373   */\n      mstore\n        /* \"#utility.yul\":6389:6407   */\n      0x44\n      dup2\n      add\n        /* \"#utility.yul\":6382:6416   */\n      dup6\n      swap1\n      mstore\n        /* \"#utility.yul\":6222:6240   */\n      0x64\n      add\n        /* \"diamonds/facets/FacetSafe.sol\":6087:6144  token.transferFrom(_msgSender(), address(this), amountIn) */\n      0x20\n      mload(0x40)\n      dup1\n      dup4\n      sub\n      dup2\n      0x00\n      dup8\n      gas\n      call\n      iszero\n      dup1\n      iszero\n      tag_235\n      jumpi\n      returndatasize\n      0x00\n      dup1\n      returndatacopy\n      revert(0x00, returndatasize)\n    tag_235:\n      pop\n      pop\n      pop\n      pop\n      mload(0x40)\n      returndatasize\n      not(0x1f)\n      0x1f\n      dup3\n      add\n      and\n      dup3\n      add\n      dup1\n      0x40\n      mstore\n      pop\n      dup2\n      add\n      swap1\n      tag_236\n      swap2\n      swap1\n      tag_153\n      jump\t// in\n    tag_236:\n      pop\n        /* \"diamonds/facets/FacetSafe.sol\":6182:6190  amountIn */\n      dup2\n        /* \"diamonds/facets/FacetSafe.sol\":6154:6160  safe() */\n      tag_237\n        /* \"diamonds/facets/FacetSafe.sol\":6154:6158  safe */\n      tag_94\n        /* \"diamonds/facets/FacetSafe.sol\":6154:6160  safe() */\n      jump\t// in\n    tag_237:\n      sub(shl(0xa0, 0x01), 0x01)\n        /* \"diamonds/facets/FacetSafe.sol\":6154:6178  safe().balances[tokenIn] */\n      dup6\n      and\n        /* \"diamonds/facets/FacetSafe.sol\":6154:6169  safe().balances */\n      0x00\n        /* \"diamonds/facets/FacetSafe.sol\":6154:6178  safe().balances[tokenIn] */\n      swap1\n      dup2\n      mstore\n      0x20\n      swap2\n      swap1\n      swap2\n      mstore\n      0x40\n      dup2\n      keccak256\n        /* \"diamonds/facets/FacetSafe.sol\":6154:6190  safe().balances[tokenIn] += amountIn */\n      dup1\n      sload\n        /* \"diamonds/facets/FacetSafe.sol\":6154:6178  safe().balances[tokenIn] */\n      swap1\n      swap2\n        /* \"diamonds/facets/FacetSafe.sol\":6154:6169  safe().balances */\n      swap1\n        /* \"diamonds/facets/FacetSafe.sol\":6154:6190  safe().balances[tokenIn] += amountIn */\n      tag_238\n      swap1\n      dup5\n      swap1\n      tag_239\n      jump\t// in\n    tag_238:\n      swap1\n      swap2\n      sstore\n      pop\n        /* \"diamonds/facets/FacetSafe.sol\":6200:6226  safe().onHand.add(tokenIn) */\n      tag_240\n      swap1\n      pop\n        /* \"diamonds/facets/FacetSafe.sol\":6218:6225  tokenIn */\n      dup4\n        /* \"diamonds/facets/FacetSafe.sol\":6200:6206  safe() */\n      tag_241\n        /* \"diamonds/facets/FacetSafe.sol\":6200:6204  safe */\n      tag_94\n        /* \"diamonds/facets/FacetSafe.sol\":6200:6206  safe() */\n      jump\t// in\n    tag_241:\n        /* \"diamonds/facets/FacetSafe.sol\":6200:6213  safe().onHand */\n      0x05\n      add\n      swap1\n        /* \"diamonds/facets/FacetSafe.sol\":6200:6217  safe().onHand.add */\n      tag_105\n        /* \"diamonds/facets/FacetSafe.sol\":6200:6226  safe().onHand.add(tokenIn) */\n      jump\t// in\n    tag_240:\n      pop\n        /* \"diamonds/facets/FacetSafe.sol\":6241:6281  Deposit(_msgSender(), tokenIn, amountIn) */\n      mload(0x40)\n        /* \"diamonds/facets/FacetSafe.sol\":6272:6280  amountIn */\n      dup3\n      swap1\n      sub(shl(0xa0, 0x01), 0x01)\n        /* \"diamonds/facets/FacetSafe.sol\":6241:6281  Deposit(_msgSender(), tokenIn, amountIn) */\n      dup6\n      and\n      swap1\n        /* \"imports/openzeppelin/utils/Context.sol\":720:730  msg.sender */\n      caller\n      swap1\n        /* \"diamonds/facets/FacetSafe.sol\":6241:6281  Deposit(_msgSender(), tokenIn, amountIn) */\n      0x5548c837ab068cf56a2c2479df0882a4922fd203edb7517321831d95078c5f62\n      swap1\n      0x00\n      swap1\n      log4\n        /* \"diamonds/facets/FacetSafe.sol\":5849:6288  {... */\n      pop\n        /* \"diamonds/facets/FacetSafe.sol\":5791:6288  function _deposit(address tokenIn, uint amountIn) private {... */\n      pop\n      pop\n      jump\t// out\n        /* \"diamonds/facets/FacetSafe.sol\":6310:6641  function _deposit() private {... */\n    tag_187:\n        /* \"diamonds/facets/FacetSafe.sol\":6356:6379  isAllowedIn(address(0)) */\n      tag_244\n        /* \"diamonds/facets/FacetSafe.sol\":6376:6377  0 */\n      0x00\n        /* \"diamonds/facets/FacetSafe.sol\":6356:6367  isAllowedIn */\n      tag_74\n        /* \"diamonds/facets/FacetSafe.sol\":6356:6379  isAllowedIn(address(0)) */\n      jump\t// in\n    tag_244:\n        /* \"diamonds/facets/FacetSafe.sol\":6348:6416  require(isAllowedIn(address(0)), 'FacetSafe: eth is not allowed in') */\n      tag_245\n      jumpi\n      mload(0x40)\n      shl(0xe5, 0x461bcd)\n      dup2\n      mstore\n        /* \"#utility.yul\":6759:6761   */\n      0x20\n        /* \"diamonds/facets/FacetSafe.sol\":6348:6416  require(isAllowedIn(address(0)), 'FacetSafe: eth is not allowed in') */\n      0x04\n      dup3\n      add\n        /* \"#utility.yul\":6741:6762   */\n      dup2\n      swap1\n      mstore\n        /* \"#utility.yul\":6778:6796   */\n      0x24\n      dup3\n      add\n        /* \"#utility.yul\":6771:6801   */\n      mstore\n        /* \"#utility.yul\":6837:6871   */\n      0x4661636574536166653a20657468206973206e6f7420616c6c6f77656420696e\n        /* \"#utility.yul\":6817:6835   */\n      0x44\n      dup3\n      add\n        /* \"#utility.yul\":6810:6872   */\n      mstore\n        /* \"#utility.yul\":6889:6907   */\n      0x64\n      add\n        /* \"diamonds/facets/FacetSafe.sol\":6348:6416  require(isAllowedIn(address(0)), 'FacetSafe: eth is not allowed in') */\n      tag_114\n        /* \"#utility.yul\":6557:6913   */\n      jump\n        /* \"diamonds/facets/FacetSafe.sol\":6348:6416  require(isAllowedIn(address(0)), 'FacetSafe: eth is not allowed in') */\n    tag_245:\n        /* \"diamonds/facets/FacetSafe.sol\":6447:6448  1 */\n      0x01\n        /* \"diamonds/facets/FacetSafe.sol\":6434:6443  msg.value */\n      callvalue\n        /* \"diamonds/facets/FacetSafe.sol\":6434:6448  msg.value >= 1 */\n      lt\n      iszero\n        /* \"diamonds/facets/FacetSafe.sol\":6426:6486  require(msg.value >= 1, 'FacetSafe: insufficient amount in') */\n      tag_248\n      jumpi\n      mload(0x40)\n      shl(0xe5, 0x461bcd)\n      dup2\n      mstore\n        /* \"#utility.yul\":7120:7122   */\n      0x20\n        /* \"diamonds/facets/FacetSafe.sol\":6426:6486  require(msg.value >= 1, 'FacetSafe: insufficient amount in') */\n      0x04\n      dup3\n      add\n        /* \"#utility.yul\":7102:7123   */\n      mstore\n        /* \"#utility.yul\":7159:7161   */\n      0x21\n        /* \"#utility.yul\":7139:7157   */\n      0x24\n      dup3\n      add\n        /* \"#utility.yul\":7132:7162   */\n      mstore\n        /* \"#utility.yul\":7198:7232   */\n      0x4661636574536166653a20696e73756666696369656e7420616d6f756e742069\n        /* \"#utility.yul\":7178:7196   */\n      0x44\n      dup3\n      add\n        /* \"#utility.yul\":7171:7233   */\n      mstore\n      shl(0xf9, 0x37)\n        /* \"#utility.yul\":7249:7267   */\n      0x64\n      dup3\n      add\n        /* \"#utility.yul\":7242:7273   */\n      mstore\n        /* \"#utility.yul\":7290:7309   */\n      0x84\n      add\n        /* \"diamonds/facets/FacetSafe.sol\":6426:6486  require(msg.value >= 1, 'FacetSafe: insufficient amount in') */\n      tag_114\n        /* \"#utility.yul\":6918:7315   */\n      jump\n        /* \"diamonds/facets/FacetSafe.sol\":6426:6486  require(msg.value >= 1, 'FacetSafe: insufficient amount in') */\n    tag_248:\n        /* \"diamonds/facets/FacetSafe.sol\":6527:6536  msg.value */\n      callvalue\n        /* \"diamonds/facets/FacetSafe.sol\":6496:6502  safe() */\n      tag_251\n        /* \"diamonds/facets/FacetSafe.sol\":6496:6500  safe */\n      tag_94\n        /* \"diamonds/facets/FacetSafe.sol\":6496:6502  safe() */\n      jump\t// in\n    tag_251:\n        /* \"diamonds/facets/FacetSafe.sol\":6496:6511  safe().balances */\n      0x00\n        /* \"diamonds/facets/FacetSafe.sol\":6496:6523  safe().balances[address(0)] */\n      dup1\n      dup1\n      mstore\n      0x20\n      swap2\n      swap1\n      swap2\n      mstore\n      0x40\n      dup2\n      keccak256\n        /* \"diamonds/facets/FacetSafe.sol\":6496:6536  safe().balances[address(0)] += msg.value */\n      dup1\n      sload\n        /* \"diamonds/facets/FacetSafe.sol\":6496:6523  safe().balances[address(0)] */\n      swap1\n      swap2\n        /* \"diamonds/facets/FacetSafe.sol\":6496:6511  safe().balances */\n      swap1\n        /* \"diamonds/facets/FacetSafe.sol\":6496:6536  safe().balances[address(0)] += msg.value */\n      tag_252\n      swap1\n      dup5\n      swap1\n      tag_239\n      jump\t// in\n    tag_252:\n      swap1\n      swap2\n      sstore\n      pop\n        /* \"diamonds/facets/FacetSafe.sol\":6546:6575  safe().onHand.add(address(0)) */\n      tag_253\n      swap1\n      pop\n        /* \"diamonds/facets/FacetSafe.sol\":6572:6573  0 */\n      0x00\n        /* \"diamonds/facets/FacetSafe.sol\":6546:6552  safe() */\n      tag_241\n        /* \"diamonds/facets/FacetSafe.sol\":6546:6550  safe */\n      tag_94\n        /* \"diamonds/facets/FacetSafe.sol\":6546:6552  safe() */\n      jump\t// in\n        /* \"diamonds/facets/FacetSafe.sol\":6546:6575  safe().onHand.add(address(0)) */\n    tag_253:\n      pop\n        /* \"diamonds/facets/FacetSafe.sol\":6590:6634  Deposit(_msgSender(), address(0), msg.value) */\n      mload(0x40)\n        /* \"diamonds/facets/FacetSafe.sol\":6624:6633  msg.value */\n      callvalue\n      swap1\n        /* \"diamonds/facets/FacetSafe.sol\":6620:6621  0 */\n      0x00\n      swap1\n        /* \"imports/openzeppelin/utils/Context.sol\":720:730  msg.sender */\n      caller\n      swap1\n        /* \"diamonds/facets/FacetSafe.sol\":6590:6634  Deposit(_msgSender(), address(0), msg.value) */\n      0x5548c837ab068cf56a2c2479df0882a4922fd203edb7517321831d95078c5f62\n      swap1\n        /* \"diamonds/facets/FacetSafe.sol\":6620:6621  0 */\n      dup4\n      swap1\n        /* \"diamonds/facets/FacetSafe.sol\":6590:6634  Deposit(_msgSender(), address(0), msg.value) */\n      log4\n        /* \"diamonds/facets/FacetSafe.sol\":6310:6641  function _deposit() private {... */\n      jump\t// out\n        /* \"imports/openzeppelin/utils/structs/EnumerableSet.sol\":4913:5031  function _at(Set storage set, uint256 index) private view returns (bytes32) {... */\n    tag_199:\n        /* \"imports/openzeppelin/utils/structs/EnumerableSet.sol\":4980:4987  bytes32 */\n      0x00\n        /* \"imports/openzeppelin/utils/structs/EnumerableSet.sol\":5006:5009  set */\n      dup3\n        /* \"imports/openzeppelin/utils/structs/EnumerableSet.sol\":5006:5017  set._values */\n      0x00\n      add\n        /* \"imports/openzeppelin/utils/structs/EnumerableSet.sol\":5018:5023  index */\n      dup3\n        /* \"imports/openzeppelin/utils/structs/EnumerableSet.sol\":5006:5024  set._values[index] */\n      dup2\n      sload\n      dup2\n      lt\n      tag_258\n      jumpi\n      tag_258\n      tag_259\n      jump\t// in\n    tag_258:\n      swap1\n      0x00\n      mstore\n      keccak256(0x00, 0x20)\n      add\n      sload\n        /* \"imports/openzeppelin/utils/structs/EnumerableSet.sol\":4999:5024  return set._values[index] */\n      swap1\n      pop\n        /* \"imports/openzeppelin/utils/structs/EnumerableSet.sol\":4913:5031  function _at(Set storage set, uint256 index) private view returns (bytes32) {... */\n      swap3\n      swap2\n      pop\n      pop\n      jump\t// out\n        /* \"imports/openzeppelin/utils/structs/EnumerableSet.sol\":2215:2619  function _add(Set storage set, bytes32 value) private returns (bool) {... */\n    tag_211:\n        /* \"imports/openzeppelin/utils/structs/EnumerableSet.sol\":2278:2282  bool */\n      0x00\n        /* \"imports/openzeppelin/utils/structs/EnumerableSet.sol\":4352:4371  set._indexes[value] */\n      dup2\n      dup2\n      mstore\n        /* \"imports/openzeppelin/utils/structs/EnumerableSet.sol\":4352:4364  set._indexes */\n      0x01\n      dup4\n      add\n        /* \"imports/openzeppelin/utils/structs/EnumerableSet.sol\":4352:4371  set._indexes[value] */\n      0x20\n      mstore\n      0x40\n      dup2\n      keccak256\n      sload\n        /* \"imports/openzeppelin/utils/structs/EnumerableSet.sol\":2294:2613  if (!_contains(set, value)) {... */\n      tag_265\n      jumpi\n      pop\n        /* \"imports/openzeppelin/utils/structs/EnumerableSet.sol\":2336:2359  set._values.push(value) */\n      dup2\n      sload\n      0x01\n      dup2\n      dup2\n      add\n      dup5\n      sstore\n        /* \"imports/openzeppelin/utils/structs/EnumerableSet.sol\":2336:2347  set._values */\n      0x00\n        /* \"imports/openzeppelin/utils/structs/EnumerableSet.sol\":2336:2359  set._values.push(value) */\n      dup5\n      dup2\n      mstore\n      0x20\n      dup1\n      dup3\n      keccak256\n      swap1\n      swap4\n      add\n      dup5\n      swap1\n      sstore\n        /* \"imports/openzeppelin/utils/structs/EnumerableSet.sol\":2516:2534  set._values.length */\n      dup5\n      sload\n        /* \"imports/openzeppelin/utils/structs/EnumerableSet.sol\":2494:2513  set._indexes[value] */\n      dup5\n      dup3\n      mstore\n        /* \"imports/openzeppelin/utils/structs/EnumerableSet.sol\":2494:2506  set._indexes */\n      dup3\n      dup7\n      add\n        /* \"imports/openzeppelin/utils/structs/EnumerableSet.sol\":2494:2513  set._indexes[value] */\n      swap1\n      swap4\n      mstore\n      0x40\n      swap1\n      keccak256\n        /* \"imports/openzeppelin/utils/structs/EnumerableSet.sol\":2494:2534  set._indexes[value] = set._values.length */\n      swap2\n      swap1\n      swap2\n      sstore\n        /* \"imports/openzeppelin/utils/structs/EnumerableSet.sol\":2548:2559  return true */\n      jump(tag_92)\n        /* \"imports/openzeppelin/utils/structs/EnumerableSet.sol\":2294:2613  if (!_contains(set, value)) {... */\n    tag_265:\n      pop\n        /* \"imports/openzeppelin/utils/structs/EnumerableSet.sol\":2597:2602  false */\n      0x00\n        /* \"imports/openzeppelin/utils/structs/EnumerableSet.sol\":2590:2602  return false */\n      jump(tag_92)\n        /* \"imports/openzeppelin/utils/structs/EnumerableSet.sol\":5571:5680  function _values(Set storage set) private view returns (bytes32[] memory) {... */\n    tag_214:\n        /* \"imports/openzeppelin/utils/structs/EnumerableSet.sol\":5627:5643  bytes32[] memory */\n      0x60\n        /* \"imports/openzeppelin/utils/structs/EnumerableSet.sol\":5662:5665  set */\n      dup2\n        /* \"imports/openzeppelin/utils/structs/EnumerableSet.sol\":5662:5673  set._values */\n      0x00\n      add\n        /* \"imports/openzeppelin/utils/structs/EnumerableSet.sol\":5655:5673  return set._values */\n      dup1\n      sload\n      dup1\n      0x20\n      mul\n      0x20\n      add\n      mload(0x40)\n      swap1\n      dup2\n      add\n      0x40\n      mstore\n      dup1\n      swap3\n      swap2\n      swap1\n      dup2\n      dup2\n      mstore\n      0x20\n      add\n      dup3\n      dup1\n      sload\n      dup1\n      iszero\n      tag_269\n      jumpi\n      0x20\n      mul\n      dup3\n      add\n      swap2\n      swap1\n      0x00\n      mstore\n      keccak256(0x00, 0x20)\n      swap1\n    tag_270:\n      dup2\n      sload\n      dup2\n      mstore\n      0x20\n      add\n      swap1\n      0x01\n      add\n      swap1\n      dup1\n      dup4\n      gt\n      tag_270\n      jumpi\n    tag_269:\n      pop\n      pop\n      pop\n      pop\n      pop\n      swap1\n      pop\n        /* \"imports/openzeppelin/utils/structs/EnumerableSet.sol\":5571:5680  function _values(Set storage set) private view returns (bytes32[] memory) {... */\n      swap2\n      swap1\n      pop\n      jump\t// out\n        /* \"imports/openzeppelin/utils/structs/EnumerableSet.sol\":2787:4175  function _remove(Set storage set, bytes32 value) private returns (bool) {... */\n    tag_217:\n        /* \"imports/openzeppelin/utils/structs/EnumerableSet.sol\":2853:2857  bool */\n      0x00\n        /* \"imports/openzeppelin/utils/structs/EnumerableSet.sol\":2990:3009  set._indexes[value] */\n      dup2\n      dup2\n      mstore\n        /* \"imports/openzeppelin/utils/structs/EnumerableSet.sol\":2990:3002  set._indexes */\n      0x01\n      dup4\n      add\n        /* \"imports/openzeppelin/utils/structs/EnumerableSet.sol\":2990:3009  set._indexes[value] */\n      0x20\n      mstore\n      0x40\n      dup2\n      keccak256\n      sload\n        /* \"imports/openzeppelin/utils/structs/EnumerableSet.sol\":3024:3039  valueIndex != 0 */\n      dup1\n      iszero\n        /* \"imports/openzeppelin/utils/structs/EnumerableSet.sol\":3020:4169  if (valueIndex != 0) {... */\n      tag_272\n      jumpi\n        /* \"imports/openzeppelin/utils/structs/EnumerableSet.sol\":3393:3414  uint256 toDeleteIndex */\n      0x00\n        /* \"imports/openzeppelin/utils/structs/EnumerableSet.sol\":3417:3431  valueIndex - 1 */\n      tag_273\n        /* \"imports/openzeppelin/utils/structs/EnumerableSet.sol\":3430:3431  1 */\n      0x01\n        /* \"imports/openzeppelin/utils/structs/EnumerableSet.sol\":3417:3427  valueIndex */\n      dup4\n        /* \"imports/openzeppelin/utils/structs/EnumerableSet.sol\":3417:3431  valueIndex - 1 */\n      tag_122\n      jump\t// in\n    tag_273:\n        /* \"imports/openzeppelin/utils/structs/EnumerableSet.sol\":3465:3483  set._values.length */\n      dup6\n      sload\n        /* \"imports/openzeppelin/utils/structs/EnumerableSet.sol\":3393:3431  uint256 toDeleteIndex = valueIndex - 1 */\n      swap1\n      swap2\n      pop\n        /* \"imports/openzeppelin/utils/structs/EnumerableSet.sol\":3445:3462  uint256 lastIndex */\n      0x00\n      swap1\n        /* \"imports/openzeppelin/utils/structs/EnumerableSet.sol\":3465:3487  set._values.length - 1 */\n      tag_274\n      swap1\n        /* \"imports/openzeppelin/utils/structs/EnumerableSet.sol\":3486:3487  1 */\n      0x01\n      swap1\n        /* \"imports/openzeppelin/utils/structs/EnumerableSet.sol\":3465:3487  set._values.length - 1 */\n      tag_122\n      jump\t// in\n    tag_274:\n        /* \"imports/openzeppelin/utils/structs/EnumerableSet.sol\":3445:3487  uint256 lastIndex = set._values.length - 1 */\n      swap1\n      pop\n        /* \"imports/openzeppelin/utils/structs/EnumerableSet.sol\":3519:3532  toDeleteIndex */\n      dup2\n        /* \"imports/openzeppelin/utils/structs/EnumerableSet.sol\":3506:3515  lastIndex */\n      dup2\n        /* \"imports/openzeppelin/utils/structs/EnumerableSet.sol\":3506:3532  lastIndex != toDeleteIndex */\n      eq\n        /* \"imports/openzeppelin/utils/structs/EnumerableSet.sol\":3502:3900  if (lastIndex != toDeleteIndex) {... */\n      tag_275\n      jumpi\n        /* \"imports/openzeppelin/utils/structs/EnumerableSet.sol\":3552:3569  bytes32 lastValue */\n      0x00\n        /* \"imports/openzeppelin/utils/structs/EnumerableSet.sol\":3572:3575  set */\n      dup7\n        /* \"imports/openzeppelin/utils/structs/EnumerableSet.sol\":3572:3583  set._values */\n      0x00\n      add\n        /* \"imports/openzeppelin/utils/structs/EnumerableSet.sol\":3584:3593  lastIndex */\n      dup3\n        /* \"imports/openzeppelin/utils/structs/EnumerableSet.sol\":3572:3594  set._values[lastIndex] */\n      dup2\n      sload\n      dup2\n      lt\n      tag_277\n      jumpi\n      tag_277\n      tag_259\n      jump\t// in\n    tag_277:\n      swap1\n      0x00\n      mstore\n      keccak256(0x00, 0x20)\n      add\n      sload\n        /* \"imports/openzeppelin/utils/structs/EnumerableSet.sol\":3552:3594  bytes32 lastValue = set._values[lastIndex] */\n      swap1\n      pop\n        /* \"imports/openzeppelin/utils/structs/EnumerableSet.sol\":3723:3732  lastValue */\n      dup1\n        /* \"imports/openzeppelin/utils/structs/EnumerableSet.sol\":3694:3697  set */\n      dup8\n        /* \"imports/openzeppelin/utils/structs/EnumerableSet.sol\":3694:3705  set._values */\n      0x00\n      add\n        /* \"imports/openzeppelin/utils/structs/EnumerableSet.sol\":3706:3719  toDeleteIndex */\n      dup5\n        /* \"imports/openzeppelin/utils/structs/EnumerableSet.sol\":3694:3720  set._values[toDeleteIndex] */\n      dup2\n      sload\n      dup2\n      lt\n      tag_280\n      jumpi\n      tag_280\n      tag_259\n      jump\t// in\n    tag_280:\n      0x00\n      swap2\n      dup3\n      mstore\n      0x20\n      dup1\n      dup4\n      keccak256\n      swap1\n      swap2\n      add\n        /* \"imports/openzeppelin/utils/structs/EnumerableSet.sol\":3694:3732  set._values[toDeleteIndex] = lastValue */\n      swap3\n      swap1\n      swap3\n      sstore\n        /* \"imports/openzeppelin/utils/structs/EnumerableSet.sol\":3806:3829  set._indexes[lastValue] */\n      swap2\n      dup3\n      mstore\n        /* \"imports/openzeppelin/utils/structs/EnumerableSet.sol\":3806:3818  set._indexes */\n      0x01\n      dup9\n      add\n        /* \"imports/openzeppelin/utils/structs/EnumerableSet.sol\":3806:3829  set._indexes[lastValue] */\n      swap1\n      mstore\n      0x40\n      swap1\n      keccak256\n        /* \"imports/openzeppelin/utils/structs/EnumerableSet.sol\":3806:3842  set._indexes[lastValue] = valueIndex */\n      dup4\n      swap1\n      sstore\n        /* \"imports/openzeppelin/utils/structs/EnumerableSet.sol\":3502:3900  if (lastIndex != toDeleteIndex) {... */\n    tag_275:\n        /* \"imports/openzeppelin/utils/structs/EnumerableSet.sol\":3978:3995  set._values.pop() */\n      dup6\n      sload\n        /* \"imports/openzeppelin/utils/structs/EnumerableSet.sol\":3978:3981  set */\n      dup7\n      swap1\n        /* \"imports/openzeppelin/utils/structs/EnumerableSet.sol\":3978:3995  set._values.pop() */\n      dup1\n      tag_283\n      jumpi\n      tag_283\n      tag_284\n      jump\t// in\n    tag_283:\n      0x01\n      swap1\n      sub\n      dup2\n      dup2\n      swap1\n      0x00\n      mstore\n      keccak256(0x00, 0x20)\n      add\n      0x00\n      swap1\n      sstore\n      swap1\n      sstore\n        /* \"imports/openzeppelin/utils/structs/EnumerableSet.sol\":4070:4073  set */\n      dup6\n        /* \"imports/openzeppelin/utils/structs/EnumerableSet.sol\":4070:4082  set._indexes */\n      0x01\n      add\n        /* \"imports/openzeppelin/utils/structs/EnumerableSet.sol\":4070:4089  set._indexes[value] */\n      0x00\n        /* \"imports/openzeppelin/utils/structs/EnumerableSet.sol\":4083:4088  value */\n      dup7\n        /* \"imports/openzeppelin/utils/structs/EnumerableSet.sol\":4070:4089  set._indexes[value] */\n      dup2\n      mstore\n      0x20\n      add\n      swap1\n      dup2\n      mstore\n      0x20\n      add\n      0x00\n      keccak256\n        /* \"imports/openzeppelin/utils/structs/EnumerableSet.sol\":4063:4089  delete set._indexes[value] */\n      0x00\n      swap1\n      sstore\n        /* \"imports/openzeppelin/utils/structs/EnumerableSet.sol\":4111:4115  true */\n      0x01\n        /* \"imports/openzeppelin/utils/structs/EnumerableSet.sol\":4104:4115  return true */\n      swap4\n      pop\n      pop\n      pop\n      pop\n      jump(tag_92)\n        /* \"imports/openzeppelin/utils/structs/EnumerableSet.sol\":3020:4169  if (valueIndex != 0) {... */\n    tag_272:\n        /* \"imports/openzeppelin/utils/structs/EnumerableSet.sol\":4153:4158  false */\n      0x00\n        /* \"imports/openzeppelin/utils/structs/EnumerableSet.sol\":4146:4158  return false */\n      swap2\n      pop\n      pop\n      jump(tag_92)\n        /* \"#utility.yul\":14:194   */\n    tag_23:\n        /* \"#utility.yul\":73:79   */\n      0x00\n        /* \"#utility.yul\":126:128   */\n      0x20\n        /* \"#utility.yul\":114:123   */\n      dup3\n        /* \"#utility.yul\":105:112   */\n      dup5\n        /* \"#utility.yul\":101:124   */\n      sub\n        /* \"#utility.yul\":97:129   */\n      slt\n        /* \"#utility.yul\":94:146   */\n      iszero\n      tag_291\n      jumpi\n        /* \"#utility.yul\":142:143   */\n      0x00\n        /* \"#utility.yul\":139:140   */\n      dup1\n        /* \"#utility.yul\":132:144   */\n      revert\n        /* \"#utility.yul\":94:146   */\n    tag_291:\n      pop\n        /* \"#utility.yul\":165:188   */\n      calldataload\n      swap2\n        /* \"#utility.yul\":14:194   */\n      swap1\n      pop\n      jump\t// out\n        /* \"#utility.yul\":407:580   */\n    tag_287:\n        /* \"#utility.yul\":475:495   */\n      dup1\n      calldataload\n      sub(shl(0xa0, 0x01), 0x01)\n        /* \"#utility.yul\":524:555   */\n      dup2\n      and\n        /* \"#utility.yul\":514:556   */\n      dup2\n      eq\n        /* \"#utility.yul\":504:574   */\n      tag_294\n      jumpi\n        /* \"#utility.yul\":570:571   */\n      0x00\n        /* \"#utility.yul\":567:568   */\n      dup1\n        /* \"#utility.yul\":560:572   */\n      revert\n        /* \"#utility.yul\":504:574   */\n    tag_294:\n        /* \"#utility.yul\":407:580   */\n      swap2\n      swap1\n      pop\n      jump\t// out\n        /* \"#utility.yul\":585:771   */\n    tag_30:\n        /* \"#utility.yul\":644:650   */\n      0x00\n        /* \"#utility.yul\":697:699   */\n      0x20\n        /* \"#utility.yul\":685:694   */\n      dup3\n        /* \"#utility.yul\":676:683   */\n      dup5\n        /* \"#utility.yul\":672:695   */\n      sub\n        /* \"#utility.yul\":668:700   */\n      slt\n        /* \"#utility.yul\":665:717   */\n      iszero\n      tag_296\n      jumpi\n        /* \"#utility.yul\":713:714   */\n      0x00\n        /* \"#utility.yul\":710:711   */\n      dup1\n        /* \"#utility.yul\":703:715   */\n      revert\n        /* \"#utility.yul\":665:717   */\n    tag_296:\n        /* \"#utility.yul\":736:765   */\n      tag_198\n        /* \"#utility.yul\":755:764   */\n      dup3\n        /* \"#utility.yul\":736:765   */\n      tag_287\n      jump\t// in\n        /* \"#utility.yul\":968:1626   */\n    tag_42:\n        /* \"#utility.yul\":1139:1141   */\n      0x20\n        /* \"#utility.yul\":1191:1212   */\n      dup1\n      dup3\n      mstore\n        /* \"#utility.yul\":1261:1274   */\n      dup3\n      mload\n        /* \"#utility.yul\":1164:1182   */\n      dup3\n      dup3\n      add\n        /* \"#utility.yul\":1283:1305   */\n      dup2\n      swap1\n      mstore\n        /* \"#utility.yul\":1110:1114   */\n      0x00\n      swap2\n        /* \"#utility.yul\":1139:1141   */\n      swap1\n        /* \"#utility.yul\":1362:1377   */\n      dup5\n      dup3\n      add\n      swap1\n        /* \"#utility.yul\":1336:1338   */\n      0x40\n        /* \"#utility.yul\":1321:1339   */\n      dup6\n      add\n      swap1\n        /* \"#utility.yul\":1110:1114   */\n      dup5\n        /* \"#utility.yul\":1405:1600   */\n    tag_300:\n        /* \"#utility.yul\":1419:1425   */\n      dup2\n        /* \"#utility.yul\":1416:1417   */\n      dup2\n        /* \"#utility.yul\":1413:1426   */\n      lt\n        /* \"#utility.yul\":1405:1600   */\n      iszero\n      tag_302\n      jumpi\n        /* \"#utility.yul\":1484:1497   */\n      dup4\n      mload\n      sub(shl(0xa0, 0x01), 0x01)\n        /* \"#utility.yul\":1480:1519   */\n      and\n        /* \"#utility.yul\":1468:1520   */\n      dup4\n      mstore\n        /* \"#utility.yul\":1575:1590   */\n      swap3\n      dup5\n      add\n      swap3\n        /* \"#utility.yul\":1540:1552   */\n      swap2\n      dup5\n      add\n      swap2\n        /* \"#utility.yul\":1516:1517   */\n      0x01\n        /* \"#utility.yul\":1434:1443   */\n      add\n        /* \"#utility.yul\":1405:1600   */\n      jump(tag_300)\n    tag_302:\n      pop\n        /* \"#utility.yul\":1617:1620   */\n      swap1\n      swap7\n        /* \"#utility.yul\":968:1626   */\n      swap6\n      pop\n      pop\n      pop\n      pop\n      pop\n      pop\n      jump\t// out\n        /* \"#utility.yul\":1631:1885   */\n    tag_46:\n        /* \"#utility.yul\":1699:1705   */\n      0x00\n        /* \"#utility.yul\":1707:1713   */\n      dup1\n        /* \"#utility.yul\":1760:1762   */\n      0x40\n        /* \"#utility.yul\":1748:1757   */\n      dup4\n        /* \"#utility.yul\":1739:1746   */\n      dup6\n        /* \"#utility.yul\":1735:1758   */\n      sub\n        /* \"#utility.yul\":1731:1763   */\n      slt\n        /* \"#utility.yul\":1728:1780   */\n      iszero\n      tag_304\n      jumpi\n        /* \"#utility.yul\":1776:1777   */\n      0x00\n        /* \"#utility.yul\":1773:1774   */\n      dup1\n        /* \"#utility.yul\":1766:1778   */\n      revert\n        /* \"#utility.yul\":1728:1780   */\n    tag_304:\n        /* \"#utility.yul\":1799:1828   */\n      tag_305\n        /* \"#utility.yul\":1818:1827   */\n      dup4\n        /* \"#utility.yul\":1799:1828   */\n      tag_287\n      jump\t// in\n    tag_305:\n        /* \"#utility.yul\":1789:1828   */\n      swap5\n        /* \"#utility.yul\":1875:1877   */\n      0x20\n        /* \"#utility.yul\":1860:1878   */\n      swap4\n      swap1\n      swap4\n      add\n        /* \"#utility.yul\":1847:1879   */\n      calldataload\n      swap4\n      pop\n      pop\n      pop\n        /* \"#utility.yul\":1631:1885   */\n      jump\t// out\n        /* \"#utility.yul\":1890:2218   */\n    tag_51:\n        /* \"#utility.yul\":1967:1973   */\n      0x00\n        /* \"#utility.yul\":1975:1981   */\n      dup1\n        /* \"#utility.yul\":1983:1989   */\n      0x00\n        /* \"#utility.yul\":2036:2038   */\n      0x60\n        /* \"#utility.yul\":2024:2033   */\n      dup5\n        /* \"#utility.yul\":2015:2022   */\n      dup7\n        /* \"#utility.yul\":2011:2034   */\n      sub\n        /* \"#utility.yul\":2007:2039   */\n      slt\n        /* \"#utility.yul\":2004:2056   */\n      iszero\n      tag_307\n      jumpi\n        /* \"#utility.yul\":2052:2053   */\n      0x00\n        /* \"#utility.yul\":2049:2050   */\n      dup1\n        /* \"#utility.yul\":2042:2054   */\n      revert\n        /* \"#utility.yul\":2004:2056   */\n    tag_307:\n        /* \"#utility.yul\":2075:2104   */\n      tag_308\n        /* \"#utility.yul\":2094:2103   */\n      dup5\n        /* \"#utility.yul\":2075:2104   */\n      tag_287\n      jump\t// in\n    tag_308:\n        /* \"#utility.yul\":2065:2104   */\n      swap3\n      pop\n        /* \"#utility.yul\":2123:2161   */\n      tag_309\n        /* \"#utility.yul\":2157:2159   */\n      0x20\n        /* \"#utility.yul\":2146:2155   */\n      dup6\n        /* \"#utility.yul\":2142:2160   */\n      add\n        /* \"#utility.yul\":2123:2161   */\n      tag_287\n      jump\t// in\n    tag_309:\n        /* \"#utility.yul\":2113:2161   */\n      swap2\n      pop\n        /* \"#utility.yul\":2208:2210   */\n      0x40\n        /* \"#utility.yul\":2197:2206   */\n      dup5\n        /* \"#utility.yul\":2193:2211   */\n      add\n        /* \"#utility.yul\":2180:2212   */\n      calldataload\n        /* \"#utility.yul\":2170:2212   */\n      swap1\n      pop\n        /* \"#utility.yul\":1890:2218   */\n      swap3\n      pop\n      swap3\n      pop\n      swap3\n      jump\t// out\n        /* \"#utility.yul\":2807:3162   */\n    tag_119:\n        /* \"#utility.yul\":3009:3011   */\n      0x20\n        /* \"#utility.yul\":2991:3012   */\n      dup1\n      dup3\n      mstore\n        /* \"#utility.yul\":3048:3050   */\n      0x1f\n        /* \"#utility.yul\":3028:3046   */\n      swap1\n      dup3\n      add\n        /* \"#utility.yul\":3021:3051   */\n      mstore\n        /* \"#utility.yul\":3087:3120   */\n      0x4661636574536166653a20696e73756666696369656e742062616c616e636500\n        /* \"#utility.yul\":3082:3084   */\n      0x40\n        /* \"#utility.yul\":3067:3085   */\n      dup3\n      add\n        /* \"#utility.yul\":3060:3121   */\n      mstore\n        /* \"#utility.yul\":3153:3155   */\n      0x60\n        /* \"#utility.yul\":3138:3156   */\n      add\n      swap1\n        /* \"#utility.yul\":2807:3162   */\n      jump\t// out\n        /* \"#utility.yul\":3167:3294   */\n    tag_288:\n        /* \"#utility.yul\":3228:3238   */\n      0x4e487b71\n        /* \"#utility.yul\":3223:3226   */\n      0xe0\n        /* \"#utility.yul\":3219:3239   */\n      shl\n        /* \"#utility.yul\":3216:3217   */\n      0x00\n        /* \"#utility.yul\":3209:3240   */\n      mstore\n        /* \"#utility.yul\":3259:3263   */\n      0x11\n        /* \"#utility.yul\":3256:3257   */\n      0x04\n        /* \"#utility.yul\":3249:3264   */\n      mstore\n        /* \"#utility.yul\":3283:3287   */\n      0x24\n        /* \"#utility.yul\":3280:3281   */\n      0x00\n        /* \"#utility.yul\":3273:3288   */\n      revert\n        /* \"#utility.yul\":3299:3427   */\n    tag_122:\n        /* \"#utility.yul\":3366:3375   */\n      dup2\n      dup2\n      sub\n        /* \"#utility.yul\":3387:3398   */\n      dup2\n      dup2\n      gt\n        /* \"#utility.yul\":3384:3421   */\n      iszero\n      tag_92\n      jumpi\n        /* \"#utility.yul\":3401:3419   */\n      tag_92\n      tag_288\n      jump\t// in\n        /* \"#utility.yul\":4470:4747   */\n    tag_153:\n        /* \"#utility.yul\":4537:4543   */\n      0x00\n        /* \"#utility.yul\":4590:4592   */\n      0x20\n        /* \"#utility.yul\":4578:4587   */\n      dup3\n        /* \"#utility.yul\":4569:4576   */\n      dup5\n        /* \"#utility.yul\":4565:4588   */\n      sub\n        /* \"#utility.yul\":4561:4593   */\n      slt\n        /* \"#utility.yul\":4558:4610   */\n      iszero\n      tag_321\n      jumpi\n        /* \"#utility.yul\":4606:4607   */\n      0x00\n        /* \"#utility.yul\":4603:4604   */\n      dup1\n        /* \"#utility.yul\":4596:4608   */\n      revert\n        /* \"#utility.yul\":4558:4610   */\n    tag_321:\n        /* \"#utility.yul\":4638:4647   */\n      dup2\n        /* \"#utility.yul\":4632:4648   */\n      mload\n        /* \"#utility.yul\":4691:4696   */\n      dup1\n        /* \"#utility.yul\":4684:4697   */\n      iszero\n        /* \"#utility.yul\":4677:4698   */\n      iszero\n        /* \"#utility.yul\":4670:4675   */\n      dup2\n        /* \"#utility.yul\":4667:4699   */\n      eq\n        /* \"#utility.yul\":4657:4717   */\n      tag_198\n      jumpi\n        /* \"#utility.yul\":4713:4714   */\n      0x00\n        /* \"#utility.yul\":4710:4711   */\n      dup1\n        /* \"#utility.yul\":4703:4715   */\n      revert\n        /* \"#utility.yul\":5858:6042   */\n    tag_228:\n        /* \"#utility.yul\":5928:5934   */\n      0x00\n        /* \"#utility.yul\":5981:5983   */\n      0x20\n        /* \"#utility.yul\":5969:5978   */\n      dup3\n        /* \"#utility.yul\":5960:5967   */\n      dup5\n        /* \"#utility.yul\":5956:5979   */\n      sub\n        /* \"#utility.yul\":5952:5984   */\n      slt\n        /* \"#utility.yul\":5949:6001   */\n      iszero\n      tag_327\n      jumpi\n        /* \"#utility.yul\":5997:5998   */\n      0x00\n        /* \"#utility.yul\":5994:5995   */\n      dup1\n        /* \"#utility.yul\":5987:5999   */\n      revert\n        /* \"#utility.yul\":5949:6001   */\n    tag_327:\n      pop\n        /* \"#utility.yul\":6020:6036   */\n      mload\n      swap2\n        /* \"#utility.yul\":5858:6042   */\n      swap1\n      pop\n      jump\t// out\n        /* \"#utility.yul\":6427:6552   */\n    tag_239:\n        /* \"#utility.yul\":6492:6501   */\n      dup1\n      dup3\n      add\n        /* \"#utility.yul\":6513:6523   */\n      dup1\n      dup3\n      gt\n        /* \"#utility.yul\":6510:6546   */\n      iszero\n      tag_92\n      jumpi\n        /* \"#utility.yul\":6526:6544   */\n      tag_92\n      tag_288\n      jump\t// in\n        /* \"#utility.yul\":7320:7447   */\n    tag_259:\n        /* \"#utility.yul\":7381:7391   */\n      0x4e487b71\n        /* \"#utility.yul\":7376:7379   */\n      0xe0\n        /* \"#utility.yul\":7372:7392   */\n      shl\n        /* \"#utility.yul\":7369:7370   */\n      0x00\n        /* \"#utility.yul\":7362:7393   */\n      mstore\n        /* \"#utility.yul\":7412:7416   */\n      0x32\n        /* \"#utility.yul\":7409:7410   */\n      0x04\n        /* \"#utility.yul\":7402:7417   */\n      mstore\n        /* \"#utility.yul\":7436:7440   */\n      0x24\n        /* \"#utility.yul\":7433:7434   */\n      0x00\n        /* \"#utility.yul\":7426:7441   */\n      revert\n        /* \"#utility.yul\":7452:7579   */\n    tag_284:\n        /* \"#utility.yul\":7513:7523   */\n      0x4e487b71\n        /* \"#utility.yul\":7508:7511   */\n      0xe0\n        /* \"#utility.yul\":7504:7524   */\n      shl\n        /* \"#utility.yul\":7501:7502   */\n      0x00\n        /* \"#utility.yul\":7494:7525   */\n      mstore\n        /* \"#utility.yul\":7544:7548   */\n      0x31\n        /* \"#utility.yul\":7541:7542   */\n      0x04\n        /* \"#utility.yul\":7534:7549   */\n      mstore\n        /* \"#utility.yul\":7568:7572   */\n      0x24\n        /* \"#utility.yul\":7565:7566   */\n      0x00\n        /* \"#utility.yul\":7558:7573   */\n      revert\n\n    auxdata: 0xa264697066735822122002dcf7262d847738791776c65e9a67a982921859824c43db08be75a339d9fed064736f6c63430008130033\n}\n",
				"bytecode": {
					"linkReferences": {},
					"object": "608060405234801561001057600080fd5b506111b0806100206000396000f3fe6080604052600436106100e85760003560e01c8063464964b11161008a578063b74cbb4111610059578063b74cbb4114610281578063d0e30db0146102a1578063e13a96d6146102a9578063e5e45084146102c957600080fd5b8063464964b11461020c57806347e7ef2414610221578063a6a2fcd714610241578063b3a54f1b1461026157600080fd5b80632a77d7b8116100c65780632a77d7b81461017c57806331b944501461019e57806336447c4e146101be5780633e800148146101de57600080fd5b80630a885f95146100ed578063182a94201461012a57806318b310271461015a575b600080fd5b3480156100f957600080fd5b5061010d610108366004610f9d565b6102e9565b6040516001600160a01b0390911681526020015b60405180910390f35b34801561013657600080fd5b5061014a610145366004610fd2565b610306565b6040519015158152602001610121565b34801561016657600080fd5b5061017a610175366004610fd2565b61031d565b005b34801561018857600080fd5b50610191610372565b6040516101219190610fed565b3480156101aa57600080fd5b5061017a6101b936600461103a565b61038c565b3480156101ca57600080fd5b5061017a6101d9366004611064565b610507565b3480156101ea57600080fd5b506101fe6101f9366004610fd2565b610731565b604051908152602001610121565b34801561021857600080fd5b5061019161075a565b34801561022d57600080fd5b5061017a61023c36600461103a565b61076f565b34801561024d57600080fd5b5061017a61025c366004610fd2565b61080d565b34801561026d57600080fd5b5061014a61027c366004610fd2565b610862565b34801561028d57600080fd5b5061017a61029c366004610fd2565b610879565b61017a6108ce565b3480156102b557600080fd5b5061010d6102c4366004610f9d565b610968565b3480156102d557600080fd5b5061017a6102e4366004610fd2565b61097f565b6000610300826102f76109d4565b600301906109f8565b92915050565b6000610300826103146109d4565b60030190610a0b565b610325610a2d565b61033a816103316109d4565b60010190610a75565b506040516001600160a01b038216907ff6aea4ebd15c89ff6a16b7819fb6968ad0a0ce7e0085ef4c87a85f8c0cd2e46a90600090a250565b606061038761037f6109d4565b600101610a8a565b905090565b610394610a2d565b61039e6000610306565b6103f95760405162461bcd60e51b815260206004820152602160248201527f4661636574536166653a20657468206973206e6f7420616c6c6f776564206f756044820152601d60fa1b60648201526084015b60405180910390fd5b806104026109d4565b6000808052602091909152604090205410156104305760405162461bcd60e51b81526004016103f0906110a0565b806104396109d4565b60008080526020919091526040812080549091906104589084906110ed565b9091555061046690506109d4565b6000808052602091909152604081205490036104945761049260006104896109d4565b60050190610a97565b505b6040516001600160a01b0383169082156108fc029083906000818181858888f193505050501580156104ca573d6000803e3d6000fd5b5060405181906000906001600160a01b038516907f9b1bfa7fa9ee420a16e124f794c35ac9f90472acc99140eb2f6447c714cad8eb908390a45050565b81610510610a2d565b6001600160a01b0383166105665760405162461bcd60e51b815260206004820152601a60248201527f4661636574536166653a20696d70726f706572206d6574686f6400000000000060448201526064016103f0565b61056f83610306565b6105c75760405162461bcd60e51b815260206004820152602360248201527f4661636574536166653a20746f6b656e206973206e6f7420616c6c6f776564206044820152621bdd5d60ea1b60648201526084016103f0565b816105d06109d4565b6001600160a01b0385166000908152602091909152604090205410156106085760405162461bcd60e51b81526004016103f0906110a0565b816106116109d4565b6001600160a01b038516600090815260209190915260408120805490919061063a9084906110ed565b9091555061064890506109d4565b6001600160a01b03841660009081526020919091526040812054900361067657610674836104896109d4565b505b60405163a9059cbb60e01b81526001600160a01b0385811660048301526024820184905282169063a9059cbb906044016020604051808303816000875af11580156106c5573d6000803e3d6000fd5b505050506040513d601f19601f820116820180604052508101906106e99190611100565b5081836001600160a01b0316856001600160a01b03167f9b1bfa7fa9ee420a16e124f794c35ac9f90472acc99140eb2f6447c714cad8eb60405160405180910390a450505050565b600061073b6109d4565b6001600160a01b03909216600090815260209290925250604090205490565b60606103876107676109d4565b600301610a8a565b6107776109d4565b6007015460ff16156107c75760405162461bcd60e51b8152602060048201526019602482015278119858d95d14d859994e881c99595b9d1c985b9d0818d85b1b603a1b60448201526064016103f0565b60016107d16109d4565b600701805460ff19169115159190911790556107ed8282610aac565b60006107f76109d4565b600701805460ff19169115159190911790555050565b610815610a2d565b61082a816108216109d4565b60030190610a75565b506040516001600160a01b038216907fb91009acff1ca23a9fe12400608cae8383f810cac953c1a16a99fe9b9c65abfb90600090a250565b6000610300826108706109d4565b60010190610a0b565b610881610a2d565b6108968161088d6109d4565b60030190610a97565b506040516001600160a01b038216907f64f9ae8a27a020b54f63a0d9ff5d3f0dd302b35eef11d16612b2a02b2d8a824890600090a250565b6108d66109d4565b6007015460ff16156109265760405162461bcd60e51b8152602060048201526019602482015278119858d95d14d859994e881c99595b9d1c985b9d0818d85b1b603a1b60448201526064016103f0565b60016109306109d4565b600701805460ff191691151591909117905561094a610cb7565b60006109546109d4565b600701805460ff1916911515919091179055565b6000610300826109766109d4565b600101906109f8565b610987610a2d565b61099c816109936109d4565b60010190610a97565b506040516001600160a01b038216907f0a05ed313e53d05b8e9ebe468e240ec174f5190074867a051f35ac20709eed0490600090a250565b7ff2eeec4c06050035800631f1916b3a25e1fa154de963ec50f0ac015a5be9e61890565b6000610a048383610dd5565b9392505050565b6001600160a01b03811660009081526001830160205260408120541515610a04565b333014610a735760405162461bcd60e51b81526020600482015260146024820152732330b1b2ba29b0b3329d1037b7363c9039b2b63360611b60448201526064016103f0565b565b6000610a04836001600160a01b038416610dff565b60606000610a0483610e4e565b6000610a04836001600160a01b038416610eaa565b81610ab681610862565b610b0d5760405162461bcd60e51b815260206004820152602260248201527f4661636574536166653a20746f6b656e206973206e6f7420616c6c6f7765642060448201526134b760f11b60648201526084016103f0565b816001600160a01b0382166370a08231336040516001600160e01b031960e084901b1681526001600160a01b039091166004820152602401602060405180830381865afa158015610b62573d6000803e3d6000fd5b505050506040513d601f19601f82011682018060405250810190610b869190611122565b1015610ba45760405162461bcd60e51b81526004016103f0906110a0565b6001600160a01b0381166323b872dd336040516001600160e01b031960e084901b1681526001600160a01b039091166004820152306024820152604481018590526064016020604051808303816000875af1158015610c07573d6000803e3d6000fd5b505050506040513d601f19601f82011682018060405250810190610c2b9190611100565b5081610c356109d4565b6001600160a01b0385166000908152602091909152604081208054909190610c5e90849061113b565b90915550610c79905083610c706109d4565b60050190610a75565b5060405182906001600160a01b0385169033907f5548c837ab068cf56a2c2479df0882a4922fd203edb7517321831d95078c5f6290600090a4505050565b610cc16000610862565b610d0d5760405162461bcd60e51b815260206004820181905260248201527f4661636574536166653a20657468206973206e6f7420616c6c6f77656420696e60448201526064016103f0565b6001341015610d685760405162461bcd60e51b815260206004820152602160248201527f4661636574536166653a20696e73756666696369656e7420616d6f756e7420696044820152603760f91b60648201526084016103f0565b34610d716109d4565b6000808052602091909152604081208054909190610d9090849061113b565b90915550610da390506000610c706109d4565b50604051349060009033907f5548c837ab068cf56a2c2479df0882a4922fd203edb7517321831d95078c5f62908390a4565b6000826000018281548110610dec57610dec61114e565b9060005260206000200154905092915050565b6000818152600183016020526040812054610e4657508154600181810184556000848152602080822090930184905584548482528286019093526040902091909155610300565b506000610300565b606081600001805480602002602001604051908101604052809291908181526020018280548015610e9e57602002820191906000526020600020905b815481526020019060010190808311610e8a575b50505050509050919050565b60008181526001830160205260408120548015610f93576000610ece6001836110ed565b8554909150600090610ee2906001906110ed565b9050818114610f47576000866000018281548110610f0257610f0261114e565b9060005260206000200154905080876000018481548110610f2557610f2561114e565b6000918252602080832090910192909255918252600188019052604090208390555b8554869080610f5857610f58611164565b600190038181906000526020600020016000905590558560010160008681526020019081526020016000206000905560019350505050610300565b6000915050610300565b600060208284031215610faf57600080fd5b5035919050565b80356001600160a01b0381168114610fcd57600080fd5b919050565b600060208284031215610fe457600080fd5b610a0482610fb6565b6020808252825182820181905260009190848201906040850190845b8181101561102e5783516001600160a01b031683529284019291840191600101611009565b50909695505050505050565b6000806040838503121561104d57600080fd5b61105683610fb6565b946020939093013593505050565b60008060006060848603121561107957600080fd5b61108284610fb6565b925061109060208501610fb6565b9150604084013590509250925092565b6020808252601f908201527f4661636574536166653a20696e73756666696369656e742062616c616e636500604082015260600190565b634e487b7160e01b600052601160045260246000fd5b81810381811115610300576103006110d7565b60006020828403121561111257600080fd5b81518015158114610a0457600080fd5b60006020828403121561113457600080fd5b5051919050565b80820180821115610300576103006110d7565b634e487b7160e01b600052603260045260246000fd5b634e487b7160e01b600052603160045260246000fdfea264697066735822122002dcf7262d847738791776c65e9a67a982921859824c43db08be75a339d9fed064736f6c63430008130033",
					"opcodes": "PUSH1 0x80 PUSH1 0x40 MSTORE CALLVALUE DUP1 ISZERO PUSH2 0x10 JUMPI PUSH1 0x0 DUP1 REVERT JUMPDEST POP PUSH2 0x11B0 DUP1 PUSH2 0x20 PUSH1 0x0 CODECOPY PUSH1 0x0 RETURN INVALID PUSH1 0x80 PUSH1 0x40 MSTORE PUSH1 0x4 CALLDATASIZE LT PUSH2 0xE8 JUMPI PUSH1 0x0 CALLDATALOAD PUSH1 0xE0 SHR DUP1 PUSH4 0x464964B1 GT PUSH2 0x8A JUMPI DUP1 PUSH4 0xB74CBB41 GT PUSH2 0x59 JUMPI DUP1 PUSH4 0xB74CBB41 EQ PUSH2 0x281 JUMPI DUP1 PUSH4 0xD0E30DB0 EQ PUSH2 0x2A1 JUMPI DUP1 PUSH4 0xE13A96D6 EQ PUSH2 0x2A9 JUMPI DUP1 PUSH4 0xE5E45084 EQ PUSH2 0x2C9 JUMPI PUSH1 0x0 DUP1 REVERT JUMPDEST DUP1 PUSH4 0x464964B1 EQ PUSH2 0x20C JUMPI DUP1 PUSH4 0x47E7EF24 EQ PUSH2 0x221 JUMPI DUP1 PUSH4 0xA6A2FCD7 EQ PUSH2 0x241 JUMPI DUP1 PUSH4 0xB3A54F1B EQ PUSH2 0x261 JUMPI PUSH1 0x0 DUP1 REVERT JUMPDEST DUP1 PUSH4 0x2A77D7B8 GT PUSH2 0xC6 JUMPI DUP1 PUSH4 0x2A77D7B8 EQ PUSH2 0x17C JUMPI DUP1 PUSH4 0x31B94450 EQ PUSH2 0x19E JUMPI DUP1 PUSH4 0x36447C4E EQ PUSH2 0x1BE JUMPI DUP1 PUSH4 0x3E800148 EQ PUSH2 0x1DE JUMPI PUSH1 0x0 DUP1 REVERT JUMPDEST DUP1 PUSH4 0xA885F95 EQ PUSH2 0xED JUMPI DUP1 PUSH4 0x182A9420 EQ PUSH2 0x12A JUMPI DUP1 PUSH4 0x18B31027 EQ PUSH2 0x15A JUMPI JUMPDEST PUSH1 0x0 DUP1 REVERT JUMPDEST CALLVALUE DUP1 ISZERO PUSH2 0xF9 JUMPI PUSH1 0x0 DUP1 REVERT JUMPDEST POP PUSH2 0x10D PUSH2 0x108 CALLDATASIZE PUSH1 0x4 PUSH2 0xF9D JUMP JUMPDEST PUSH2 0x2E9 JUMP JUMPDEST PUSH1 0x40 MLOAD PUSH1 0x1 PUSH1 0x1 PUSH1 0xA0 SHL SUB SWAP1 SWAP2 AND DUP2 MSTORE PUSH1 0x20 ADD JUMPDEST PUSH1 0x40 MLOAD DUP1 SWAP2 SUB SWAP1 RETURN JUMPDEST CALLVALUE DUP1 ISZERO PUSH2 0x136 JUMPI PUSH1 0x0 DUP1 REVERT JUMPDEST POP PUSH2 0x14A PUSH2 0x145 CALLDATASIZE PUSH1 0x4 PUSH2 0xFD2 JUMP JUMPDEST PUSH2 0x306 JUMP JUMPDEST PUSH1 0x40 MLOAD SWAP1 ISZERO ISZERO DUP2 MSTORE PUSH1 0x20 ADD PUSH2 0x121 JUMP JUMPDEST CALLVALUE DUP1 ISZERO PUSH2 0x166 JUMPI PUSH1 0x0 DUP1 REVERT JUMPDEST POP PUSH2 0x17A PUSH2 0x175 CALLDATASIZE PUSH1 0x4 PUSH2 0xFD2 JUMP JUMPDEST PUSH2 0x31D JUMP JUMPDEST STOP JUMPDEST CALLVALUE DUP1 ISZERO PUSH2 0x188 JUMPI PUSH1 0x0 DUP1 REVERT JUMPDEST POP PUSH2 0x191 PUSH2 0x372 JUMP JUMPDEST PUSH1 0x40 MLOAD PUSH2 0x121 SWAP2 SWAP1 PUSH2 0xFED JUMP JUMPDEST CALLVALUE DUP1 ISZERO PUSH2 0x1AA JUMPI PUSH1 0x0 DUP1 REVERT JUMPDEST POP PUSH2 0x17A PUSH2 0x1B9 CALLDATASIZE PUSH1 0x4 PUSH2 0x103A JUMP JUMPDEST PUSH2 0x38C JUMP JUMPDEST CALLVALUE DUP1 ISZERO PUSH2 0x1CA JUMPI PUSH1 0x0 DUP1 REVERT JUMPDEST POP PUSH2 0x17A PUSH2 0x1D9 CALLDATASIZE PUSH1 0x4 PUSH2 0x1064 JUMP JUMPDEST PUSH2 0x507 JUMP JUMPDEST CALLVALUE DUP1 ISZERO PUSH2 0x1EA JUMPI PUSH1 0x0 DUP1 REVERT JUMPDEST POP PUSH2 0x1FE PUSH2 0x1F9 CALLDATASIZE PUSH1 0x4 PUSH2 0xFD2 JUMP JUMPDEST PUSH2 0x731 JUMP JUMPDEST PUSH1 0x40 MLOAD SWAP1 DUP2 MSTORE PUSH1 0x20 ADD PUSH2 0x121 JUMP JUMPDEST CALLVALUE DUP1 ISZERO PUSH2 0x218 JUMPI PUSH1 0x0 DUP1 REVERT JUMPDEST POP PUSH2 0x191 PUSH2 0x75A JUMP JUMPDEST CALLVALUE DUP1 ISZERO PUSH2 0x22D JUMPI PUSH1 0x0 DUP1 REVERT JUMPDEST POP PUSH2 0x17A PUSH2 0x23C CALLDATASIZE PUSH1 0x4 PUSH2 0x103A JUMP JUMPDEST PUSH2 0x76F JUMP JUMPDEST CALLVALUE DUP1 ISZERO PUSH2 0x24D JUMPI PUSH1 0x0 DUP1 REVERT JUMPDEST POP PUSH2 0x17A PUSH2 0x25C CALLDATASIZE PUSH1 0x4 PUSH2 0xFD2 JUMP JUMPDEST PUSH2 0x80D JUMP JUMPDEST CALLVALUE DUP1 ISZERO PUSH2 0x26D JUMPI PUSH1 0x0 DUP1 REVERT JUMPDEST POP PUSH2 0x14A PUSH2 0x27C CALLDATASIZE PUSH1 0x4 PUSH2 0xFD2 JUMP JUMPDEST PUSH2 0x862 JUMP JUMPDEST CALLVALUE DUP1 ISZERO PUSH2 0x28D JUMPI PUSH1 0x0 DUP1 REVERT JUMPDEST POP PUSH2 0x17A PUSH2 0x29C CALLDATASIZE PUSH1 0x4 PUSH2 0xFD2 JUMP JUMPDEST PUSH2 0x879 JUMP JUMPDEST PUSH2 0x17A PUSH2 0x8CE JUMP JUMPDEST CALLVALUE DUP1 ISZERO PUSH2 0x2B5 JUMPI PUSH1 0x0 DUP1 REVERT JUMPDEST POP PUSH2 0x10D PUSH2 0x2C4 CALLDATASIZE PUSH1 0x4 PUSH2 0xF9D JUMP JUMPDEST PUSH2 0x968 JUMP JUMPDEST CALLVALUE DUP1 ISZERO PUSH2 0x2D5 JUMPI PUSH1 0x0 DUP1 REVERT JUMPDEST POP PUSH2 0x17A PUSH2 0x2E4 CALLDATASIZE PUSH1 0x4 PUSH2 0xFD2 JUMP JUMPDEST PUSH2 0x97F JUMP JUMPDEST PUSH1 0x0 PUSH2 0x300 DUP3 PUSH2 0x2F7 PUSH2 0x9D4 JUMP JUMPDEST PUSH1 0x3 ADD SWAP1 PUSH2 0x9F8 JUMP JUMPDEST SWAP3 SWAP2 POP POP JUMP JUMPDEST PUSH1 0x0 PUSH2 0x300 DUP3 PUSH2 0x314 PUSH2 0x9D4 JUMP JUMPDEST PUSH1 0x3 ADD SWAP1 PUSH2 0xA0B JUMP JUMPDEST PUSH2 0x325 PUSH2 0xA2D JUMP JUMPDEST PUSH2 0x33A DUP2 PUSH2 0x331 PUSH2 0x9D4 JUMP JUMPDEST PUSH1 0x1 ADD SWAP1 PUSH2 0xA75 JUMP JUMPDEST POP PUSH1 0x40 MLOAD PUSH1 0x1 PUSH1 0x1 PUSH1 0xA0 SHL SUB DUP3 AND SWAP1 PUSH32 0xF6AEA4EBD15C89FF6A16B7819FB6968AD0A0CE7E0085EF4C87A85F8C0CD2E46A SWAP1 PUSH1 0x0 SWAP1 LOG2 POP JUMP JUMPDEST PUSH1 0x60 PUSH2 0x387 PUSH2 0x37F PUSH2 0x9D4 JUMP JUMPDEST PUSH1 0x1 ADD PUSH2 0xA8A JUMP JUMPDEST SWAP1 POP SWAP1 JUMP JUMPDEST PUSH2 0x394 PUSH2 0xA2D JUMP JUMPDEST PUSH2 0x39E PUSH1 0x0 PUSH2 0x306 JUMP JUMPDEST PUSH2 0x3F9 JUMPI PUSH1 0x40 MLOAD PUSH3 0x461BCD PUSH1 0xE5 SHL DUP2 MSTORE PUSH1 0x20 PUSH1 0x4 DUP3 ADD MSTORE PUSH1 0x21 PUSH1 0x24 DUP3 ADD MSTORE PUSH32 0x4661636574536166653A20657468206973206E6F7420616C6C6F776564206F75 PUSH1 0x44 DUP3 ADD MSTORE PUSH1 0x1D PUSH1 0xFA SHL PUSH1 0x64 DUP3 ADD MSTORE PUSH1 0x84 ADD JUMPDEST PUSH1 0x40 MLOAD DUP1 SWAP2 SUB SWAP1 REVERT JUMPDEST DUP1 PUSH2 0x402 PUSH2 0x9D4 JUMP JUMPDEST PUSH1 0x0 DUP1 DUP1 MSTORE PUSH1 0x20 SWAP2 SWAP1 SWAP2 MSTORE PUSH1 0x40 SWAP1 KECCAK256 SLOAD LT ISZERO PUSH2 0x430 JUMPI PUSH1 0x40 MLOAD PUSH3 0x461BCD PUSH1 0xE5 SHL DUP2 MSTORE PUSH1 0x4 ADD PUSH2 0x3F0 SWAP1 PUSH2 0x10A0 JUMP JUMPDEST DUP1 PUSH2 0x439 PUSH2 0x9D4 JUMP JUMPDEST PUSH1 0x0 DUP1 DUP1 MSTORE PUSH1 0x20 SWAP2 SWAP1 SWAP2 MSTORE PUSH1 0x40 DUP2 KECCAK256 DUP1 SLOAD SWAP1 SWAP2 SWAP1 PUSH2 0x458 SWAP1 DUP5 SWAP1 PUSH2 0x10ED JUMP JUMPDEST SWAP1 SWAP2 SSTORE POP PUSH2 0x466 SWAP1 POP PUSH2 0x9D4 JUMP JUMPDEST PUSH1 0x0 DUP1 DUP1 MSTORE PUSH1 0x20 SWAP2 SWAP1 SWAP2 MSTORE PUSH1 0x40 DUP2 KECCAK256 SLOAD SWAP1 SUB PUSH2 0x494 JUMPI PUSH2 0x492 PUSH1 0x0 PUSH2 0x489 PUSH2 0x9D4 JUMP JUMPDEST PUSH1 0x5 ADD SWAP1 PUSH2 0xA97 JUMP JUMPDEST POP JUMPDEST PUSH1 0x40 MLOAD PUSH1 0x1 PUSH1 0x1 PUSH1 0xA0 SHL SUB DUP4 AND SWAP1 DUP3 ISZERO PUSH2 0x8FC MUL SWAP1 DUP4 SWAP1 PUSH1 0x0 DUP2 DUP2 DUP2 DUP6 DUP9 DUP9 CALL SWAP4 POP POP POP POP ISZERO DUP1 ISZERO PUSH2 0x4CA JUMPI RETURNDATASIZE PUSH1 0x0 DUP1 RETURNDATACOPY RETURNDATASIZE PUSH1 0x0 REVERT JUMPDEST POP PUSH1 0x40 MLOAD DUP2 SWAP1 PUSH1 0x0 SWAP1 PUSH1 0x1 PUSH1 0x1 PUSH1 0xA0 SHL SUB DUP6 AND SWAP1 PUSH32 0x9B1BFA7FA9EE420A16E124F794C35AC9F90472ACC99140EB2F6447C714CAD8EB SWAP1 DUP4 SWAP1 LOG4 POP POP JUMP JUMPDEST DUP2 PUSH2 0x510 PUSH2 0xA2D JUMP JUMPDEST PUSH1 0x1 PUSH1 0x1 PUSH1 0xA0 SHL SUB DUP4 AND PUSH2 0x566 JUMPI PUSH1 0x40 MLOAD PUSH3 0x461BCD PUSH1 0xE5 SHL DUP2 MSTORE PUSH1 0x20 PUSH1 0x4 DUP3 ADD MSTORE PUSH1 0x1A PUSH1 0x24 DUP3 ADD MSTORE PUSH32 0x4661636574536166653A20696D70726F706572206D6574686F64000000000000 PUSH1 0x44 DUP3 ADD MSTORE PUSH1 0x64 ADD PUSH2 0x3F0 JUMP JUMPDEST PUSH2 0x56F DUP4 PUSH2 0x306 JUMP JUMPDEST PUSH2 0x5C7 JUMPI PUSH1 0x40 MLOAD PUSH3 0x461BCD PUSH1 0xE5 SHL DUP2 MSTORE PUSH1 0x20 PUSH1 0x4 DUP3 ADD MSTORE PUSH1 0x23 PUSH1 0x24 DUP3 ADD MSTORE PUSH32 0x4661636574536166653A20746F6B656E206973206E6F7420616C6C6F77656420 PUSH1 0x44 DUP3 ADD MSTORE PUSH3 0x1BDD5D PUSH1 0xEA SHL PUSH1 0x64 DUP3 ADD MSTORE PUSH1 0x84 ADD PUSH2 0x3F0 JUMP JUMPDEST DUP2 PUSH2 0x5D0 PUSH2 0x9D4 JUMP JUMPDEST PUSH1 0x1 PUSH1 0x1 PUSH1 0xA0 SHL SUB DUP6 AND PUSH1 0x0 SWAP1 DUP2 MSTORE PUSH1 0x20 SWAP2 SWAP1 SWAP2 MSTORE PUSH1 0x40 SWAP1 KECCAK256 SLOAD LT ISZERO PUSH2 0x608 JUMPI PUSH1 0x40 MLOAD PUSH3 0x461BCD PUSH1 0xE5 SHL DUP2 MSTORE PUSH1 0x4 ADD PUSH2 0x3F0 SWAP1 PUSH2 0x10A0 JUMP JUMPDEST DUP2 PUSH2 0x611 PUSH2 0x9D4 JUMP JUMPDEST PUSH1 0x1 PUSH1 0x1 PUSH1 0xA0 SHL SUB DUP6 AND PUSH1 0x0 SWAP1 DUP2 MSTORE PUSH1 0x20 SWAP2 SWAP1 SWAP2 MSTORE PUSH1 0x40 DUP2 KECCAK256 DUP1 SLOAD SWAP1 SWAP2 SWAP1 PUSH2 0x63A SWAP1 DUP5 SWAP1 PUSH2 0x10ED JUMP JUMPDEST SWAP1 SWAP2 SSTORE POP PUSH2 0x648 SWAP1 POP PUSH2 0x9D4 JUMP JUMPDEST PUSH1 0x1 PUSH1 0x1 PUSH1 0xA0 SHL SUB DUP5 AND PUSH1 0x0 SWAP1 DUP2 MSTORE PUSH1 0x20 SWAP2 SWAP1 SWAP2 MSTORE PUSH1 0x40 DUP2 KECCAK256 SLOAD SWAP1 SUB PUSH2 0x676 JUMPI PUSH2 0x674 DUP4 PUSH2 0x489 PUSH2 0x9D4 JUMP JUMPDEST POP JUMPDEST PUSH1 0x40 MLOAD PUSH4 0xA9059CBB PUSH1 0xE0 SHL DUP2 MSTORE PUSH1 0x1 PUSH1 0x1 PUSH1 0xA0 SHL SUB DUP6 DUP2 AND PUSH1 0x4 DUP4 ADD MSTORE PUSH1 0x24 DUP3 ADD DUP5 SWAP1 MSTORE DUP3 AND SWAP1 PUSH4 0xA9059CBB SWAP1 PUSH1 0x44 ADD PUSH1 0x20 PUSH1 0x40 MLOAD DUP1 DUP4 SUB DUP2 PUSH1 0x0 DUP8 GAS CALL ISZERO DUP1 ISZERO PUSH2 0x6C5 JUMPI RETURNDATASIZE PUSH1 0x0 DUP1 RETURNDATACOPY RETURNDATASIZE PUSH1 0x0 REVERT JUMPDEST POP POP POP POP PUSH1 0x40 MLOAD RETURNDATASIZE PUSH1 0x1F NOT PUSH1 0x1F DUP3 ADD AND DUP3 ADD DUP1 PUSH1 0x40 MSTORE POP DUP2 ADD SWAP1 PUSH2 0x6E9 SWAP2 SWAP1 PUSH2 0x1100 JUMP JUMPDEST POP DUP2 DUP4 PUSH1 0x1 PUSH1 0x1 PUSH1 0xA0 SHL SUB AND DUP6 PUSH1 0x1 PUSH1 0x1 PUSH1 0xA0 SHL SUB AND PUSH32 0x9B1BFA7FA9EE420A16E124F794C35AC9F90472ACC99140EB2F6447C714CAD8EB PUSH1 0x40 MLOAD PUSH1 0x40 MLOAD DUP1 SWAP2 SUB SWAP1 LOG4 POP POP POP POP JUMP JUMPDEST PUSH1 0x0 PUSH2 0x73B PUSH2 0x9D4 JUMP JUMPDEST PUSH1 0x1 PUSH1 0x1 PUSH1 0xA0 SHL SUB SWAP1 SWAP3 AND PUSH1 0x0 SWAP1 DUP2 MSTORE PUSH1 0x20 SWAP3 SWAP1 SWAP3 MSTORE POP PUSH1 0x40 SWAP1 KECCAK256 SLOAD SWAP1 JUMP JUMPDEST PUSH1 0x60 PUSH2 0x387 PUSH2 0x767 PUSH2 0x9D4 JUMP JUMPDEST PUSH1 0x3 ADD PUSH2 0xA8A JUMP JUMPDEST PUSH2 0x777 PUSH2 0x9D4 JUMP JUMPDEST PUSH1 0x7 ADD SLOAD PUSH1 0xFF AND ISZERO PUSH2 0x7C7 JUMPI PUSH1 0x40 MLOAD PUSH3 0x461BCD PUSH1 0xE5 SHL DUP2 MSTORE PUSH1 0x20 PUSH1 0x4 DUP3 ADD MSTORE PUSH1 0x19 PUSH1 0x24 DUP3 ADD MSTORE PUSH25 0x119858D95D14D859994E881C99595B9D1C985B9D0818D85B1B PUSH1 0x3A SHL PUSH1 0x44 DUP3 ADD MSTORE PUSH1 0x64 ADD PUSH2 0x3F0 JUMP JUMPDEST PUSH1 0x1 PUSH2 0x7D1 PUSH2 0x9D4 JUMP JUMPDEST PUSH1 0x7 ADD DUP1 SLOAD PUSH1 0xFF NOT AND SWAP2 ISZERO ISZERO SWAP2 SWAP1 SWAP2 OR SWAP1 SSTORE PUSH2 0x7ED DUP3 DUP3 PUSH2 0xAAC JUMP JUMPDEST PUSH1 0x0 PUSH2 0x7F7 PUSH2 0x9D4 JUMP JUMPDEST PUSH1 0x7 ADD DUP1 SLOAD PUSH1 0xFF NOT AND SWAP2 ISZERO ISZERO SWAP2 SWAP1 SWAP2 OR SWAP1 SSTORE POP POP JUMP JUMPDEST PUSH2 0x815 PUSH2 0xA2D JUMP JUMPDEST PUSH2 0x82A DUP2 PUSH2 0x821 PUSH2 0x9D4 JUMP JUMPDEST PUSH1 0x3 ADD SWAP1 PUSH2 0xA75 JUMP JUMPDEST POP PUSH1 0x40 MLOAD PUSH1 0x1 PUSH1 0x1 PUSH1 0xA0 SHL SUB DUP3 AND SWAP1 PUSH32 0xB91009ACFF1CA23A9FE12400608CAE8383F810CAC953C1A16A99FE9B9C65ABFB SWAP1 PUSH1 0x0 SWAP1 LOG2 POP JUMP JUMPDEST PUSH1 0x0 PUSH2 0x300 DUP3 PUSH2 0x870 PUSH2 0x9D4 JUMP JUMPDEST PUSH1 0x1 ADD SWAP1 PUSH2 0xA0B JUMP JUMPDEST PUSH2 0x881 PUSH2 0xA2D JUMP JUMPDEST PUSH2 0x896 DUP2 PUSH2 0x88D PUSH2 0x9D4 JUMP JUMPDEST PUSH1 0x3 ADD SWAP1 PUSH2 0xA97 JUMP JUMPDEST POP PUSH1 0x40 MLOAD PUSH1 0x1 PUSH1 0x1 PUSH1 0xA0 SHL SUB DUP3 AND SWAP1 PUSH32 0x64F9AE8A27A020B54F63A0D9FF5D3F0DD302B35EEF11D16612B2A02B2D8A8248 SWAP1 PUSH1 0x0 SWAP1 LOG2 POP JUMP JUMPDEST PUSH2 0x8D6 PUSH2 0x9D4 JUMP JUMPDEST PUSH1 0x7 ADD SLOAD PUSH1 0xFF AND ISZERO PUSH2 0x926 JUMPI PUSH1 0x40 MLOAD PUSH3 0x461BCD PUSH1 0xE5 SHL DUP2 MSTORE PUSH1 0x20 PUSH1 0x4 DUP3 ADD MSTORE PUSH1 0x19 PUSH1 0x24 DUP3 ADD MSTORE PUSH25 0x119858D95D14D859994E881C99595B9D1C985B9D0818D85B1B PUSH1 0x3A SHL PUSH1 0x44 DUP3 ADD MSTORE PUSH1 0x64 ADD PUSH2 0x3F0 JUMP JUMPDEST PUSH1 0x1 PUSH2 0x930 PUSH2 0x9D4 JUMP JUMPDEST PUSH1 0x7 ADD DUP1 SLOAD PUSH1 0xFF NOT AND SWAP2 ISZERO ISZERO SWAP2 SWAP1 SWAP2 OR SWAP1 SSTORE PUSH2 0x94A PUSH2 0xCB7 JUMP JUMPDEST PUSH1 0x0 PUSH2 0x954 PUSH2 0x9D4 JUMP JUMPDEST PUSH1 0x7 ADD DUP1 SLOAD PUSH1 0xFF NOT AND SWAP2 ISZERO ISZERO SWAP2 SWAP1 SWAP2 OR SWAP1 SSTORE JUMP JUMPDEST PUSH1 0x0 PUSH2 0x300 DUP3 PUSH2 0x976 PUSH2 0x9D4 JUMP JUMPDEST PUSH1 0x1 ADD SWAP1 PUSH2 0x9F8 JUMP JUMPDEST PUSH2 0x987 PUSH2 0xA2D JUMP JUMPDEST PUSH2 0x99C DUP2 PUSH2 0x993 PUSH2 0x9D4 JUMP JUMPDEST PUSH1 0x1 ADD SWAP1 PUSH2 0xA97 JUMP JUMPDEST POP PUSH1 0x40 MLOAD PUSH1 0x1 PUSH1 0x1 PUSH1 0xA0 SHL SUB DUP3 AND SWAP1 PUSH32 0xA05ED313E53D05B8E9EBE468E240EC174F5190074867A051F35AC20709EED04 SWAP1 PUSH1 0x0 SWAP1 LOG2 POP JUMP JUMPDEST PUSH32 0xF2EEEC4C06050035800631F1916B3A25E1FA154DE963EC50F0AC015A5BE9E618 SWAP1 JUMP JUMPDEST PUSH1 0x0 PUSH2 0xA04 DUP4 DUP4 PUSH2 0xDD5 JUMP JUMPDEST SWAP4 SWAP3 POP POP POP JUMP JUMPDEST PUSH1 0x1 PUSH1 0x1 PUSH1 0xA0 SHL SUB DUP2 AND PUSH1 0x0 SWAP1 DUP2 MSTORE PUSH1 0x1 DUP4 ADD PUSH1 0x20 MSTORE PUSH1 0x40 DUP2 KECCAK256 SLOAD ISZERO ISZERO PUSH2 0xA04 JUMP JUMPDEST CALLER ADDRESS EQ PUSH2 0xA73 JUMPI PUSH1 0x40 MLOAD PUSH3 0x461BCD PUSH1 0xE5 SHL DUP2 MSTORE PUSH1 0x20 PUSH1 0x4 DUP3 ADD MSTORE PUSH1 0x14 PUSH1 0x24 DUP3 ADD MSTORE PUSH20 0x2330B1B2BA29B0B3329D1037B7363C9039B2B633 PUSH1 0x61 SHL PUSH1 0x44 DUP3 ADD MSTORE PUSH1 0x64 ADD PUSH2 0x3F0 JUMP JUMPDEST JUMP JUMPDEST PUSH1 0x0 PUSH2 0xA04 DUP4 PUSH1 0x1 PUSH1 0x1 PUSH1 0xA0 SHL SUB DUP5 AND PUSH2 0xDFF JUMP JUMPDEST PUSH1 0x60 PUSH1 0x0 PUSH2 0xA04 DUP4 PUSH2 0xE4E JUMP JUMPDEST PUSH1 0x0 PUSH2 0xA04 DUP4 PUSH1 0x1 PUSH1 0x1 PUSH1 0xA0 SHL SUB DUP5 AND PUSH2 0xEAA JUMP JUMPDEST DUP2 PUSH2 0xAB6 DUP2 PUSH2 0x862 JUMP JUMPDEST PUSH2 0xB0D JUMPI PUSH1 0x40 MLOAD PUSH3 0x461BCD PUSH1 0xE5 SHL DUP2 MSTORE PUSH1 0x20 PUSH1 0x4 DUP3 ADD MSTORE PUSH1 0x22 PUSH1 0x24 DUP3 ADD MSTORE PUSH32 0x4661636574536166653A20746F6B656E206973206E6F7420616C6C6F77656420 PUSH1 0x44 DUP3 ADD MSTORE PUSH2 0x34B7 PUSH1 0xF1 SHL PUSH1 0x64 DUP3 ADD MSTORE PUSH1 0x84 ADD PUSH2 0x3F0 JUMP JUMPDEST DUP2 PUSH1 0x1 PUSH1 0x1 PUSH1 0xA0 SHL SUB DUP3 AND PUSH4 0x70A08231 CALLER PUSH1 0x40 MLOAD PUSH1 0x1 PUSH1 0x1 PUSH1 0xE0 SHL SUB NOT PUSH1 0xE0 DUP5 SWAP1 SHL AND DUP2 MSTORE PUSH1 0x1 PUSH1 0x1 PUSH1 0xA0 SHL SUB SWAP1 SWAP2 AND PUSH1 0x4 DUP3 ADD MSTORE PUSH1 0x24 ADD PUSH1 0x20 PUSH1 0x40 MLOAD DUP1 DUP4 SUB DUP2 DUP7 GAS STATICCALL ISZERO DUP1 ISZERO PUSH2 0xB62 JUMPI RETURNDATASIZE PUSH1 0x0 DUP1 RETURNDATACOPY RETURNDATASIZE PUSH1 0x0 REVERT JUMPDEST POP POP POP POP PUSH1 0x40 MLOAD RETURNDATASIZE PUSH1 0x1F NOT PUSH1 0x1F DUP3 ADD AND DUP3 ADD DUP1 PUSH1 0x40 MSTORE POP DUP2 ADD SWAP1 PUSH2 0xB86 SWAP2 SWAP1 PUSH2 0x1122 JUMP JUMPDEST LT ISZERO PUSH2 0xBA4 JUMPI PUSH1 0x40 MLOAD PUSH3 0x461BCD PUSH1 0xE5 SHL DUP2 MSTORE PUSH1 0x4 ADD PUSH2 0x3F0 SWAP1 PUSH2 0x10A0 JUMP JUMPDEST PUSH1 0x1 PUSH1 0x1 PUSH1 0xA0 SHL SUB DUP2 AND PUSH4 0x23B872DD CALLER PUSH1 0x40 MLOAD PUSH1 0x1 PUSH1 0x1 PUSH1 0xE0 SHL SUB NOT PUSH1 0xE0 DUP5 SWAP1 SHL AND DUP2 MSTORE PUSH1 0x1 PUSH1 0x1 PUSH1 0xA0 SHL SUB SWAP1 SWAP2 AND PUSH1 0x4 DUP3 ADD MSTORE ADDRESS PUSH1 0x24 DUP3 ADD MSTORE PUSH1 0x44 DUP2 ADD DUP6 SWAP1 MSTORE PUSH1 0x64 ADD PUSH1 0x20 PUSH1 0x40 MLOAD DUP1 DUP4 SUB DUP2 PUSH1 0x0 DUP8 GAS CALL ISZERO DUP1 ISZERO PUSH2 0xC07 JUMPI RETURNDATASIZE PUSH1 0x0 DUP1 RETURNDATACOPY RETURNDATASIZE PUSH1 0x0 REVERT JUMPDEST POP POP POP POP PUSH1 0x40 MLOAD RETURNDATASIZE PUSH1 0x1F NOT PUSH1 0x1F DUP3 ADD AND DUP3 ADD DUP1 PUSH1 0x40 MSTORE POP DUP2 ADD SWAP1 PUSH2 0xC2B SWAP2 SWAP1 PUSH2 0x1100 JUMP JUMPDEST POP DUP2 PUSH2 0xC35 PUSH2 0x9D4 JUMP JUMPDEST PUSH1 0x1 PUSH1 0x1 PUSH1 0xA0 SHL SUB DUP6 AND PUSH1 0x0 SWAP1 DUP2 MSTORE PUSH1 0x20 SWAP2 SWAP1 SWAP2 MSTORE PUSH1 0x40 DUP2 KECCAK256 DUP1 SLOAD SWAP1 SWAP2 SWAP1 PUSH2 0xC5E SWAP1 DUP5 SWAP1 PUSH2 0x113B JUMP JUMPDEST SWAP1 SWAP2 SSTORE POP PUSH2 0xC79 SWAP1 POP DUP4 PUSH2 0xC70 PUSH2 0x9D4 JUMP JUMPDEST PUSH1 0x5 ADD SWAP1 PUSH2 0xA75 JUMP JUMPDEST POP PUSH1 0x40 MLOAD DUP3 SWAP1 PUSH1 0x1 PUSH1 0x1 PUSH1 0xA0 SHL SUB DUP6 AND SWAP1 CALLER SWAP1 PUSH32 0x5548C837AB068CF56A2C2479DF0882A4922FD203EDB7517321831D95078C5F62 SWAP1 PUSH1 0x0 SWAP1 LOG4 POP POP POP JUMP JUMPDEST PUSH2 0xCC1 PUSH1 0x0 PUSH2 0x862 JUMP JUMPDEST PUSH2 0xD0D JUMPI PUSH1 0x40 MLOAD PUSH3 0x461BCD PUSH1 0xE5 SHL DUP2 MSTORE PUSH1 0x20 PUSH1 0x4 DUP3 ADD DUP2 SWAP1 MSTORE PUSH1 0x24 DUP3 ADD MSTORE PUSH32 0x4661636574536166653A20657468206973206E6F7420616C6C6F77656420696E PUSH1 0x44 DUP3 ADD MSTORE PUSH1 0x64 ADD PUSH2 0x3F0 JUMP JUMPDEST PUSH1 0x1 CALLVALUE LT ISZERO PUSH2 0xD68 JUMPI PUSH1 0x40 MLOAD PUSH3 0x461BCD PUSH1 0xE5 SHL DUP2 MSTORE PUSH1 0x20 PUSH1 0x4 DUP3 ADD MSTORE PUSH1 0x21 PUSH1 0x24 DUP3 ADD MSTORE PUSH32 0x4661636574536166653A20696E73756666696369656E7420616D6F756E742069 PUSH1 0x44 DUP3 ADD MSTORE PUSH1 0x37 PUSH1 0xF9 SHL PUSH1 0x64 DUP3 ADD MSTORE PUSH1 0x84 ADD PUSH2 0x3F0 JUMP JUMPDEST CALLVALUE PUSH2 0xD71 PUSH2 0x9D4 JUMP JUMPDEST PUSH1 0x0 DUP1 DUP1 MSTORE PUSH1 0x20 SWAP2 SWAP1 SWAP2 MSTORE PUSH1 0x40 DUP2 KECCAK256 DUP1 SLOAD SWAP1 SWAP2 SWAP1 PUSH2 0xD90 SWAP1 DUP5 SWAP1 PUSH2 0x113B JUMP JUMPDEST SWAP1 SWAP2 SSTORE POP PUSH2 0xDA3 SWAP1 POP PUSH1 0x0 PUSH2 0xC70 PUSH2 0x9D4 JUMP JUMPDEST POP PUSH1 0x40 MLOAD CALLVALUE SWAP1 PUSH1 0x0 SWAP1 CALLER SWAP1 PUSH32 0x5548C837AB068CF56A2C2479DF0882A4922FD203EDB7517321831D95078C5F62 SWAP1 DUP4 SWAP1 LOG4 JUMP JUMPDEST PUSH1 0x0 DUP3 PUSH1 0x0 ADD DUP3 DUP2 SLOAD DUP2 LT PUSH2 0xDEC JUMPI PUSH2 0xDEC PUSH2 0x114E JUMP JUMPDEST SWAP1 PUSH1 0x0 MSTORE PUSH1 0x20 PUSH1 0x0 KECCAK256 ADD SLOAD SWAP1 POP SWAP3 SWAP2 POP POP JUMP JUMPDEST PUSH1 0x0 DUP2 DUP2 MSTORE PUSH1 0x1 DUP4 ADD PUSH1 0x20 MSTORE PUSH1 0x40 DUP2 KECCAK256 SLOAD PUSH2 0xE46 JUMPI POP DUP2 SLOAD PUSH1 0x1 DUP2 DUP2 ADD DUP5 SSTORE PUSH1 0x0 DUP5 DUP2 MSTORE PUSH1 0x20 DUP1 DUP3 KECCAK256 SWAP1 SWAP4 ADD DUP5 SWAP1 SSTORE DUP5 SLOAD DUP5 DUP3 MSTORE DUP3 DUP7 ADD SWAP1 SWAP4 MSTORE PUSH1 0x40 SWAP1 KECCAK256 SWAP2 SWAP1 SWAP2 SSTORE PUSH2 0x300 JUMP JUMPDEST POP PUSH1 0x0 PUSH2 0x300 JUMP JUMPDEST PUSH1 0x60 DUP2 PUSH1 0x0 ADD DUP1 SLOAD DUP1 PUSH1 0x20 MUL PUSH1 0x20 ADD PUSH1 0x40 MLOAD SWAP1 DUP2 ADD PUSH1 0x40 MSTORE DUP1 SWAP3 SWAP2 SWAP1 DUP2 DUP2 MSTORE PUSH1 0x20 ADD DUP3 DUP1 SLOAD DUP1 ISZERO PUSH2 0xE9E JUMPI PUSH1 0x20 MUL DUP3 ADD SWAP2 SWAP1 PUSH1 0x0 MSTORE PUSH1 0x20 PUSH1 0x0 KECCAK256 SWAP1 JUMPDEST DUP2 SLOAD DUP2 MSTORE PUSH1 0x20 ADD SWAP1 PUSH1 0x1 ADD SWAP1 DUP1 DUP4 GT PUSH2 0xE8A JUMPI JUMPDEST POP POP POP POP POP SWAP1 POP SWAP2 SWAP1 POP JUMP JUMPDEST PUSH1 0x0 DUP2 DUP2 MSTORE PUSH1 0x1 DUP4 ADD PUSH1 0x20 MSTORE PUSH1 0x40 DUP2 KECCAK256 SLOAD DUP1 ISZERO PUSH2 0xF93 JUMPI PUSH1 0x0 PUSH2 0xECE PUSH1 0x1 DUP4 PUSH2 0x10ED JUMP JUMPDEST DUP6 SLOAD SWAP1 SWAP2 POP PUSH1 0x0 SWAP1 PUSH2 0xEE2 SWAP1 PUSH1 0x1 SWAP1 PUSH2 0x10ED JUMP JUMPDEST SWAP1 POP DUP2 DUP2 EQ PUSH2 0xF47 JUMPI PUSH1 0x0 DUP7 PUSH1 0x0 ADD DUP3 DUP2 SLOAD DUP2 LT PUSH2 0xF02 JUMPI PUSH2 0xF02 PUSH2 0x114E JUMP JUMPDEST SWAP1 PUSH1 0x0 MSTORE PUSH1 0x20 PUSH1 0x0 KECCAK256 ADD SLOAD SWAP1 POP DUP1 DUP8 PUSH1 0x0 ADD DUP5 DUP2 SLOAD DUP2 LT PUSH2 0xF25 JUMPI PUSH2 0xF25 PUSH2 0x114E JUMP JUMPDEST PUSH1 0x0 SWAP2 DUP3 MSTORE PUSH1 0x20 DUP1 DUP4 KECCAK256 SWAP1 SWAP2 ADD SWAP3 SWAP1 SWAP3 SSTORE SWAP2 DUP3 MSTORE PUSH1 0x1 DUP9 ADD SWAP1 MSTORE PUSH1 0x40 SWAP1 KECCAK256 DUP4 SWAP1 SSTORE JUMPDEST DUP6 SLOAD DUP7 SWAP1 DUP1 PUSH2 0xF58 JUMPI PUSH2 0xF58 PUSH2 0x1164 JUMP JUMPDEST PUSH1 0x1 SWAP1 SUB DUP2 DUP2 SWAP1 PUSH1 0x0 MSTORE PUSH1 0x20 PUSH1 0x0 KECCAK256 ADD PUSH1 0x0 SWAP1 SSTORE SWAP1 SSTORE DUP6 PUSH1 0x1 ADD PUSH1 0x0 DUP7 DUP2 MSTORE PUSH1 0x20 ADD SWAP1 DUP2 MSTORE PUSH1 0x20 ADD PUSH1 0x0 KECCAK256 PUSH1 0x0 SWAP1 SSTORE PUSH1 0x1 SWAP4 POP POP POP POP PUSH2 0x300 JUMP JUMPDEST PUSH1 0x0 SWAP2 POP POP PUSH2 0x300 JUMP JUMPDEST PUSH1 0x0 PUSH1 0x20 DUP3 DUP5 SUB SLT ISZERO PUSH2 0xFAF JUMPI PUSH1 0x0 DUP1 REVERT JUMPDEST POP CALLDATALOAD SWAP2 SWAP1 POP JUMP JUMPDEST DUP1 CALLDATALOAD PUSH1 0x1 PUSH1 0x1 PUSH1 0xA0 SHL SUB DUP2 AND DUP2 EQ PUSH2 0xFCD JUMPI PUSH1 0x0 DUP1 REVERT JUMPDEST SWAP2 SWAP1 POP JUMP JUMPDEST PUSH1 0x0 PUSH1 0x20 DUP3 DUP5 SUB SLT ISZERO PUSH2 0xFE4 JUMPI PUSH1 0x0 DUP1 REVERT JUMPDEST PUSH2 0xA04 DUP3 PUSH2 0xFB6 JUMP JUMPDEST PUSH1 0x20 DUP1 DUP3 MSTORE DUP3 MLOAD DUP3 DUP3 ADD DUP2 SWAP1 MSTORE PUSH1 0x0 SWAP2 SWAP1 DUP5 DUP3 ADD SWAP1 PUSH1 0x40 DUP6 ADD SWAP1 DUP5 JUMPDEST DUP2 DUP2 LT ISZERO PUSH2 0x102E JUMPI DUP4 MLOAD PUSH1 0x1 PUSH1 0x1 PUSH1 0xA0 SHL SUB AND DUP4 MSTORE SWAP3 DUP5 ADD SWAP3 SWAP2 DUP5 ADD SWAP2 PUSH1 0x1 ADD PUSH2 0x1009 JUMP JUMPDEST POP SWAP1 SWAP7 SWAP6 POP POP POP POP POP POP JUMP JUMPDEST PUSH1 0x0 DUP1 PUSH1 0x40 DUP4 DUP6 SUB SLT ISZERO PUSH2 0x104D JUMPI PUSH1 0x0 DUP1 REVERT JUMPDEST PUSH2 0x1056 DUP4 PUSH2 0xFB6 JUMP JUMPDEST SWAP5 PUSH1 0x20 SWAP4 SWAP1 SWAP4 ADD CALLDATALOAD SWAP4 POP POP POP JUMP JUMPDEST PUSH1 0x0 DUP1 PUSH1 0x0 PUSH1 0x60 DUP5 DUP7 SUB SLT ISZERO PUSH2 0x1079 JUMPI PUSH1 0x0 DUP1 REVERT JUMPDEST PUSH2 0x1082 DUP5 PUSH2 0xFB6 JUMP JUMPDEST SWAP3 POP PUSH2 0x1090 PUSH1 0x20 DUP6 ADD PUSH2 0xFB6 JUMP JUMPDEST SWAP2 POP PUSH1 0x40 DUP5 ADD CALLDATALOAD SWAP1 POP SWAP3 POP SWAP3 POP SWAP3 JUMP JUMPDEST PUSH1 0x20 DUP1 DUP3 MSTORE PUSH1 0x1F SWAP1 DUP3 ADD MSTORE PUSH32 0x4661636574536166653A20696E73756666696369656E742062616C616E636500 PUSH1 0x40 DUP3 ADD MSTORE PUSH1 0x60 ADD SWAP1 JUMP JUMPDEST PUSH4 0x4E487B71 PUSH1 0xE0 SHL PUSH1 0x0 MSTORE PUSH1 0x11 PUSH1 0x4 MSTORE PUSH1 0x24 PUSH1 0x0 REVERT JUMPDEST DUP2 DUP2 SUB DUP2 DUP2 GT ISZERO PUSH2 0x300 JUMPI PUSH2 0x300 PUSH2 0x10D7 JUMP JUMPDEST PUSH1 0x0 PUSH1 0x20 DUP3 DUP5 SUB SLT ISZERO PUSH2 0x1112 JUMPI PUSH1 0x0 DUP1 REVERT JUMPDEST DUP2 MLOAD DUP1 ISZERO ISZERO DUP2 EQ PUSH2 0xA04 JUMPI PUSH1 0x0 DUP1 REVERT JUMPDEST PUSH1 0x0 PUSH1 0x20 DUP3 DUP5 SUB SLT ISZERO PUSH2 0x1134 JUMPI PUSH1 0x0 DUP1 REVERT JUMPDEST POP MLOAD SWAP2 SWAP1 POP JUMP JUMPDEST DUP1 DUP3 ADD DUP1 DUP3 GT ISZERO PUSH2 0x300 JUMPI PUSH2 0x300 PUSH2 0x10D7 JUMP JUMPDEST PUSH4 0x4E487B71 PUSH1 0xE0 SHL PUSH1 0x0 MSTORE PUSH1 0x32 PUSH1 0x4 MSTORE PUSH1 0x24 PUSH1 0x0 REVERT JUMPDEST PUSH4 0x4E487B71 PUSH1 0xE0 SHL PUSH1 0x0 MSTORE PUSH1 0x31 PUSH1 0x4 MSTORE PUSH1 0x24 PUSH1 0x0 REVERT INVALID LOG2 PUSH5 0x6970667358 0x22 SLT KECCAK256 MUL 0xDC 0xF7 0x26 0x2D DUP5 PUSH24 0x38791776C65E9A67A982921859824C43DB08BE75A339D9FE 0xD0 PUSH5 0x736F6C6343 STOP ADDMOD SGT STOP CALLER "
				},
				"gasEstimates": {
					"creation": {
						"codeDepositCost": "905600",
						"executionCost": "942",
						"totalCost": "906542"
					},
					"external": {
						"____allowTokenInToSafe(address)": "infinite",
						"____allowTokenOutOfSafe(address)": "infinite",
						"____forbidTokenInToSafe(address)": "infinite",
						"____forbidTokenOutOfSafe(address)": "infinite",
						"____withdraw(address,address,uint256)": "infinite",
						"____withdraw(address,uint256)": "infinite",
						"deposit()": "infinite",
						"deposit(address,uint256)": "infinite",
						"getHoldingsInSafe(address)": "2685",
						"getTokenAllowedInToSafe(uint256)": "4785",
						"getTokenAllowedOutFromSafe(uint256)": "4743",
						"getTokensAllowedInToSafe()": "infinite",
						"getTokensAllowedOutFromSafe()": "infinite",
						"isAllowedIn(address)": "infinite",
						"isAllowedOut(address)": "infinite"
					},
					"internal": {
						"_deposit()": "infinite",
						"_deposit(address,uint256)": "infinite",
						"_onlySelf()": "infinite"
					}
				},
				"methodIdentifiers": {
					"____allowTokenInToSafe(address)": "18b31027",
					"____allowTokenOutOfSafe(address)": "a6a2fcd7",
					"____forbidTokenInToSafe(address)": "e5e45084",
					"____forbidTokenOutOfSafe(address)": "b74cbb41",
					"____withdraw(address,address,uint256)": "36447c4e",
					"____withdraw(address,uint256)": "31b94450",
					"deposit()": "d0e30db0",
					"deposit(address,uint256)": "47e7ef24",
					"getHoldingsInSafe(address)": "3e800148",
					"getTokenAllowedInToSafe(uint256)": "e13a96d6",
					"getTokenAllowedOutFromSafe(uint256)": "0a885f95",
					"getTokensAllowedInToSafe()": "2a77d7b8",
					"getTokensAllowedOutFromSafe()": "464964b1",
					"isAllowedIn(address)": "b3a54f1b",
					"isAllowedOut(address)": "182a9420"
				}
			},
			"storageLayout": {
				"storage": [],
				"types": null
			},
			"userdoc": {
				"kind": "user",
				"methods": {
					"deposit()": {
						"notice": "for eth"
					},
					"deposit(address,uint256)": {
						"notice": "for erc20"
					}
				},
				"notice": "simple safe to move funds in and out of contract",
				"version": 1
			}
		}
	}
}