{
	"diamonds/facets/FacetEmergencyConsole.sol": {
		"FacetEmergencyConsole": {
			"abi": [
				{
					"anonymous": false,
					"inputs": [
						{
							"indexed": true,
							"internalType": "uint256",
							"name": "requestId",
							"type": "uint256"
						}
					],
					"name": "EmergencyRequestPassed",
					"type": "event"
				},
				{
					"anonymous": false,
					"inputs": [
						{
							"indexed": true,
							"internalType": "uint256",
							"name": "requestId",
							"type": "uint256"
						},
						{
							"indexed": true,
							"internalType": "address",
							"name": "signer",
							"type": "address"
						}
					],
					"name": "EmergencyRequestSigned",
					"type": "event"
				},
				{
					"anonymous": false,
					"inputs": [
						{
							"indexed": true,
							"internalType": "uint256",
							"name": "oldRequiredSignatures",
							"type": "uint256"
						},
						{
							"indexed": true,
							"internalType": "uint256",
							"name": "newRequiredSignatures",
							"type": "uint256"
						}
					],
					"name": "EmergencyRequiredSignaturesChanged",
					"type": "event"
				},
				{
					"anonymous": false,
					"inputs": [
						{
							"indexed": true,
							"internalType": "uint256",
							"name": "oldTimelockSeconds",
							"type": "uint256"
						},
						{
							"indexed": true,
							"internalType": "uint256",
							"name": "newTimelockSeconds",
							"type": "uint256"
						}
					],
					"name": "EmergencyTimelockChanged",
					"type": "event"
				},
				{
					"anonymous": false,
					"inputs": [
						{
							"indexed": true,
							"internalType": "uint256",
							"name": "requestId",
							"type": "uint256"
						},
						{
							"indexed": true,
							"internalType": "address",
							"name": "to",
							"type": "address"
						},
						{
							"indexed": true,
							"internalType": "bytes",
							"name": "args",
							"type": "bytes"
						}
					],
					"name": "NewEmergencyRequest",
					"type": "event"
				},
				{
					"anonymous": false,
					"inputs": [
						{
							"indexed": true,
							"internalType": "address",
							"name": "account",
							"type": "address"
						}
					],
					"name": "RoleGrantedEmergencyOperator",
					"type": "event"
				},
				{
					"anonymous": false,
					"inputs": [
						{
							"indexed": true,
							"internalType": "address",
							"name": "account",
							"type": "address"
						}
					],
					"name": "RoleRevokedEmergencyOperator",
					"type": "event"
				},
				{
					"inputs": [
						{
							"internalType": "address",
							"name": "account",
							"type": "address"
						}
					],
					"name": "____grantRoleEmergencyOperator",
					"outputs": [],
					"stateMutability": "nonpayable",
					"type": "function"
				},
				{
					"inputs": [
						{
							"internalType": "address",
							"name": "account",
							"type": "address"
						}
					],
					"name": "____revokeRoleEmergencyOperator",
					"outputs": [],
					"stateMutability": "nonpayable",
					"type": "function"
				},
				{
					"inputs": [
						{
							"internalType": "uint256",
							"name": "newRequiredSignatures",
							"type": "uint256"
						}
					],
					"name": "____setEmergencyRequiredSignatures",
					"outputs": [],
					"stateMutability": "nonpayable",
					"type": "function"
				},
				{
					"inputs": [
						{
							"internalType": "uint256",
							"name": "newTimelockSeconds",
							"type": "uint256"
						}
					],
					"name": "____setEmergencyTimelock",
					"outputs": [],
					"stateMutability": "nonpayable",
					"type": "function"
				},
				{
					"inputs": [
						{
							"internalType": "uint256",
							"name": "operatorId",
							"type": "uint256"
						}
					],
					"name": "emergencyOperator",
					"outputs": [
						{
							"internalType": "address",
							"name": "",
							"type": "address"
						}
					],
					"stateMutability": "view",
					"type": "function"
				},
				{
					"inputs": [],
					"name": "emergencyOperators",
					"outputs": [
						{
							"internalType": "address[]",
							"name": "",
							"type": "address[]"
						}
					],
					"stateMutability": "view",
					"type": "function"
				},
				{
					"inputs": [
						{
							"internalType": "address",
							"name": "to",
							"type": "address"
						},
						{
							"internalType": "bytes",
							"name": "args",
							"type": "bytes"
						}
					],
					"name": "emergencyRequest",
					"outputs": [
						{
							"internalType": "uint256",
							"name": "",
							"type": "uint256"
						}
					],
					"stateMutability": "nonpayable",
					"type": "function"
				},
				{
					"inputs": [
						{
							"internalType": "uint256",
							"name": "requestId",
							"type": "uint256"
						}
					],
					"name": "emergencyRequestHasBeenExecuted",
					"outputs": [
						{
							"internalType": "bool",
							"name": "",
							"type": "bool"
						}
					],
					"stateMutability": "view",
					"type": "function"
				},
				{
					"inputs": [
						{
							"internalType": "uint256",
							"name": "requestId",
							"type": "uint256"
						}
					],
					"name": "executeEmergencyRequest",
					"outputs": [
						{
							"internalType": "bool",
							"name": "",
							"type": "bool"
						},
						{
							"internalType": "bytes",
							"name": "",
							"type": "bytes"
						}
					],
					"stateMutability": "nonpayable",
					"type": "function"
				},
				{
					"inputs": [],
					"name": "getCurrentEmergencyRequestId",
					"outputs": [
						{
							"internalType": "uint256",
							"name": "",
							"type": "uint256"
						}
					],
					"stateMutability": "view",
					"type": "function"
				},
				{
					"inputs": [
						{
							"internalType": "uint256",
							"name": "requestId",
							"type": "uint256"
						}
					],
					"name": "getEmergencyRequestArgs",
					"outputs": [
						{
							"internalType": "bytes",
							"name": "",
							"type": "bytes"
						}
					],
					"stateMutability": "view",
					"type": "function"
				},
				{
					"inputs": [
						{
							"internalType": "uint256",
							"name": "requestId",
							"type": "uint256"
						}
					],
					"name": "getEmergencyRequestDuration",
					"outputs": [
						{
							"internalType": "uint256",
							"name": "",
							"type": "uint256"
						}
					],
					"stateMutability": "view",
					"type": "function"
				},
				{
					"inputs": [
						{
							"internalType": "uint256",
							"name": "requestId",
							"type": "uint256"
						},
						{
							"internalType": "uint256",
							"name": "signerId",
							"type": "uint256"
						}
					],
					"name": "getEmergencyRequestExpectedSigner",
					"outputs": [
						{
							"internalType": "address",
							"name": "",
							"type": "address"
						}
					],
					"stateMutability": "view",
					"type": "function"
				},
				{
					"inputs": [
						{
							"internalType": "uint256",
							"name": "requestId",
							"type": "uint256"
						}
					],
					"name": "getEmergencyRequestExpectedSigners",
					"outputs": [
						{
							"internalType": "address[]",
							"name": "",
							"type": "address[]"
						}
					],
					"stateMutability": "view",
					"type": "function"
				},
				{
					"inputs": [
						{
							"internalType": "uint256",
							"name": "requestId",
							"type": "uint256"
						}
					],
					"name": "getEmergencyRequestRequiredSignatures",
					"outputs": [
						{
							"internalType": "uint256",
							"name": "",
							"type": "uint256"
						}
					],
					"stateMutability": "view",
					"type": "function"
				},
				{
					"inputs": [
						{
							"internalType": "uint256",
							"name": "requestId",
							"type": "uint256"
						}
					],
					"name": "getEmergencyRequestStartTimestamp",
					"outputs": [
						{
							"internalType": "uint256",
							"name": "",
							"type": "uint256"
						}
					],
					"stateMutability": "view",
					"type": "function"
				},
				{
					"inputs": [
						{
							"internalType": "uint256",
							"name": "requestId",
							"type": "uint256"
						}
					],
					"name": "getEmergencyRequestTarget",
					"outputs": [
						{
							"internalType": "address",
							"name": "",
							"type": "address"
						}
					],
					"stateMutability": "view",
					"type": "function"
				},
				{
					"inputs": [
						{
							"internalType": "uint256",
							"name": "requestId",
							"type": "uint256"
						},
						{
							"internalType": "uint256",
							"name": "signatureId",
							"type": "uint256"
						}
					],
					"name": "getEmergencySignature",
					"outputs": [
						{
							"internalType": "address",
							"name": "",
							"type": "address"
						}
					],
					"stateMutability": "view",
					"type": "function"
				},
				{
					"inputs": [
						{
							"internalType": "uint256",
							"name": "requestId",
							"type": "uint256"
						}
					],
					"name": "getEmergencySignatures",
					"outputs": [
						{
							"internalType": "address[]",
							"name": "",
							"type": "address[]"
						}
					],
					"stateMutability": "view",
					"type": "function"
				},
				{
					"inputs": [
						{
							"internalType": "uint256",
							"name": "requestId",
							"type": "uint256"
						}
					],
					"name": "signEmergencyRequest",
					"outputs": [],
					"stateMutability": "nonpayable",
					"type": "function"
				}
			],
			"devdoc": {
				"kind": "dev",
				"methods": {},
				"version": 1
			},
			"evm": {
				"assembly": "    /* \"diamonds/facets/FacetEmergencyConsole.sol\":226:7742  contract FacetEmergencyConsole is SlotEmergencyConsole, Context {... */\n  mstore(0x40, 0x80)\n  callvalue\n  dup1\n  iszero\n  tag_1\n  jumpi\n  0x00\n  dup1\n  revert\ntag_1:\n  pop\n  dataSize(sub_0)\n  dup1\n  dataOffset(sub_0)\n  0x00\n  codecopy\n  0x00\n  return\nstop\n\nsub_0: assembly {\n        /* \"diamonds/facets/FacetEmergencyConsole.sol\":226:7742  contract FacetEmergencyConsole is SlotEmergencyConsole, Context {... */\n      mstore(0x40, 0x80)\n      callvalue\n      dup1\n      iszero\n      tag_1\n      jumpi\n      0x00\n      dup1\n      revert\n    tag_1:\n      pop\n      jumpi(tag_2, lt(calldatasize, 0x04))\n      shr(0xe0, calldataload(0x00))\n      dup1\n      0x62d7f1b2\n      gt\n      tag_23\n      jumpi\n      dup1\n      0x7e7b7ccf\n      gt\n      tag_24\n      jumpi\n      dup1\n      0x7e7b7ccf\n      eq\n      tag_18\n      jumpi\n      dup1\n      0x85b2c065\n      eq\n      tag_19\n      jumpi\n      dup1\n      0xac6193c5\n      eq\n      tag_20\n      jumpi\n      dup1\n      0xc3d511e9\n      eq\n      tag_21\n      jumpi\n      dup1\n      0xce71d4bc\n      eq\n      tag_22\n      jumpi\n      0x00\n      dup1\n      revert\n    tag_24:\n      dup1\n      0x62d7f1b2\n      eq\n      tag_13\n      jumpi\n      dup1\n      0x65fd04fb\n      eq\n      tag_14\n      jumpi\n      dup1\n      0x71dedccf\n      eq\n      tag_15\n      jumpi\n      dup1\n      0x7526c09a\n      eq\n      tag_16\n      jumpi\n      dup1\n      0x797ae568\n      eq\n      tag_17\n      jumpi\n      0x00\n      dup1\n      revert\n    tag_23:\n      dup1\n      0x3e46d27b\n      gt\n      tag_25\n      jumpi\n      dup1\n      0x3e46d27b\n      eq\n      tag_8\n      jumpi\n      dup1\n      0x48d7b567\n      eq\n      tag_9\n      jumpi\n      dup1\n      0x51f2aa47\n      eq\n      tag_10\n      jumpi\n      dup1\n      0x56db323b\n      eq\n      tag_11\n      jumpi\n      dup1\n      0x579d9f0c\n      eq\n      tag_12\n      jumpi\n      0x00\n      dup1\n      revert\n    tag_25:\n      dup1\n      0x0548dd96\n      eq\n      tag_3\n      jumpi\n      dup1\n      0x0792ac9e\n      eq\n      tag_4\n      jumpi\n      dup1\n      0x166e34dd\n      eq\n      tag_5\n      jumpi\n      dup1\n      0x348f3a0e\n      eq\n      tag_6\n      jumpi\n      dup1\n      0x366c7c2f\n      eq\n      tag_7\n      jumpi\n    tag_2:\n      0x00\n      dup1\n      revert\n        /* \"diamonds/facets/FacetEmergencyConsole.sol\":2841:3009  function getEmergencyRequestArgs(uint requestId) public view virtual returns (bytes memory) {... */\n    tag_3:\n      tag_26\n      tag_27\n      calldatasize\n      0x04\n      tag_28\n      jump\t// in\n    tag_27:\n      tag_29\n      jump\t// in\n    tag_26:\n      mload(0x40)\n      tag_30\n      swap2\n      swap1\n      tag_31\n      jump\t// in\n    tag_30:\n      mload(0x40)\n      dup1\n      swap2\n      sub\n      swap1\n      return\n        /* \"diamonds/facets/FacetEmergencyConsole.sol\":4408:4580  function emergencyRequestHasBeenExecuted(uint requestId) public view virtual returns (bool) {... */\n    tag_4:\n      tag_32\n      tag_33\n      calldatasize\n      0x04\n      tag_28\n      jump\t// in\n    tag_33:\n      tag_34\n      jump\t// in\n    tag_32:\n      mload(0x40)\n        /* \"#utility.yul\":1116:1130   */\n      swap1\n      iszero\n        /* \"#utility.yul\":1109:1131   */\n      iszero\n        /* \"#utility.yul\":1091:1132   */\n      dup2\n      mstore\n        /* \"#utility.yul\":1079:1081   */\n      0x20\n        /* \"#utility.yul\":1064:1082   */\n      add\n        /* \"diamonds/facets/FacetEmergencyConsole.sol\":4408:4580  function emergencyRequestHasBeenExecuted(uint requestId) public view virtual returns (bool) {... */\n      tag_30\n        /* \"#utility.yul\":951:1138   */\n      jump\n        /* \"diamonds/facets/FacetEmergencyConsole.sol\":2356:2514  function emergencyOperator(uint operatorId) public view virtual returns (address) {... */\n    tag_5:\n      tag_37\n      tag_38\n      calldatasize\n      0x04\n      tag_28\n      jump\t// in\n    tag_38:\n      tag_39\n      jump\t// in\n    tag_37:\n      mload(0x40)\n      sub(shl(0xa0, 0x01), 0x01)\n        /* \"#utility.yul\":1307:1339   */\n      swap1\n      swap2\n      and\n        /* \"#utility.yul\":1289:1340   */\n      dup2\n      mstore\n        /* \"#utility.yul\":1277:1279   */\n      0x20\n        /* \"#utility.yul\":1262:1280   */\n      add\n        /* \"diamonds/facets/FacetEmergencyConsole.sol\":2356:2514  function emergencyOperator(uint operatorId) public view virtual returns (address) {... */\n      tag_30\n        /* \"#utility.yul\":1143:1346   */\n      jump\n        /* \"diamonds/facets/FacetEmergencyConsole.sol\":4201:4402  function getEmergencyRequestRequiredSignatures(uint requestId) public view virtual returns (uint) {... */\n    tag_6:\n      tag_42\n      tag_43\n      calldatasize\n      0x04\n      tag_28\n      jump\t// in\n    tag_43:\n      tag_44\n      jump\t// in\n    tag_42:\n      mload(0x40)\n        /* \"#utility.yul\":1497:1522   */\n      swap1\n      dup2\n      mstore\n        /* \"#utility.yul\":1485:1487   */\n      0x20\n        /* \"#utility.yul\":1470:1488   */\n      add\n        /* \"diamonds/facets/FacetEmergencyConsole.sol\":4201:4402  function getEmergencyRequestRequiredSignatures(uint requestId) public view virtual returns (uint) {... */\n      tag_30\n        /* \"#utility.yul\":1351:1528   */\n      jump\n        /* \"diamonds/facets/FacetEmergencyConsole.sol\":3802:3988  function getEmergencySignatures(uint requestId) public view virtual returns (address[] memory) {... */\n    tag_7:\n      tag_47\n      tag_48\n      calldatasize\n      0x04\n      tag_28\n      jump\t// in\n    tag_48:\n      tag_49\n      jump\t// in\n    tag_47:\n      mload(0x40)\n      tag_30\n      swap2\n      swap1\n      tag_51\n      jump\t// in\n        /* \"diamonds/facets/FacetEmergencyConsole.sol\":937:1151  function ____grantRoleEmergencyOperator(address account) external virtual {... */\n    tag_8:\n      tag_52\n      tag_53\n      calldatasize\n      0x04\n      tag_54\n      jump\t// in\n    tag_53:\n      tag_55\n      jump\t// in\n    tag_52:\n      stop\n        /* \"diamonds/facets/FacetEmergencyConsole.sol\":1699:2188  function ____setEmergencyRequiredSignatures(uint newRequiredSignatures) external virtual {... */\n    tag_9:\n      tag_52\n      tag_57\n      calldatasize\n      0x04\n      tag_28\n      jump\t// in\n    tag_57:\n      tag_58\n      jump\t// in\n        /* \"diamonds/facets/FacetEmergencyConsole.sol\":3375:3578  function getEmergencyRequestExpectedSigners(uint requestId) public view virtual returns (address[] memory) {... */\n    tag_10:\n      tag_47\n      tag_60\n      calldatasize\n      0x04\n      tag_28\n      jump\t// in\n    tag_60:\n      tag_61\n      jump\t// in\n        /* \"diamonds/facets/FacetEmergencyConsole.sol\":2203:2350  function emergencyOperators() public view virtual returns (address[] memory) {... */\n    tag_11:\n      tag_47\n      tag_64\n      jump\t// in\n        /* \"diamonds/facets/FacetEmergencyConsole.sol\":5743:6254  function signEmergencyRequest(uint requestId) public virtual {... */\n    tag_12:\n      tag_52\n      tag_67\n      calldatasize\n      0x04\n      tag_28\n      jump\t// in\n    tag_67:\n      tag_68\n      jump\t// in\n        /* \"diamonds/facets/FacetEmergencyConsole.sol\":3201:3369  function getEmergencyRequestDuration(uint requestId) public view virtual returns (uint) {... */\n    tag_13:\n      tag_42\n      tag_70\n      calldatasize\n      0x04\n      tag_28\n      jump\t// in\n    tag_70:\n      tag_71\n      jump\t// in\n        /* \"diamonds/facets/FacetEmergencyConsole.sol\":2520:2666  function getCurrentEmergencyRequestId() public view virtual returns (uint) {... */\n    tag_14:\n      tag_42\n      tag_74\n      jump\t// in\n        /* \"diamonds/facets/FacetEmergencyConsole.sol\":1157:1375  function ____revokeRoleEmergencyOperator(address account) external virtual {... */\n    tag_15:\n      tag_52\n      tag_77\n      calldatasize\n      0x04\n      tag_54\n      jump\t// in\n    tag_77:\n      tag_78\n      jump\t// in\n        /* \"diamonds/facets/FacetEmergencyConsole.sol\":1381:1693  function ____setEmergencyTimelock(uint newTimelockSeconds) external virtual {... */\n    tag_16:\n      tag_52\n      tag_80\n      calldatasize\n      0x04\n      tag_28\n      jump\t// in\n    tag_80:\n      tag_81\n      jump\t// in\n        /* \"diamonds/facets/FacetEmergencyConsole.sol\":4586:5737  function emergencyRequest(address to, bytes memory args) public virtual returns (uint) {... */\n    tag_17:\n      tag_42\n      tag_83\n      calldatasize\n      0x04\n      tag_84\n      jump\t// in\n    tag_83:\n      tag_85\n      jump\t// in\n        /* \"diamonds/facets/FacetEmergencyConsole.sol\":3584:3796  function getEmergencyRequestExpectedSigner(uint requestId, uint signerId) public view virtual returns (address) {... */\n    tag_18:\n      tag_37\n      tag_88\n      calldatasize\n      0x04\n      tag_89\n      jump\t// in\n    tag_88:\n      tag_90\n      jump\t// in\n        /* \"diamonds/facets/FacetEmergencyConsole.sol\":2672:2835  function getEmergencyRequestTarget(uint requestId) public view virtual returns (address) {... */\n    tag_19:\n      tag_37\n      tag_93\n      calldatasize\n      0x04\n      tag_28\n      jump\t// in\n    tag_93:\n      tag_94\n      jump\t// in\n        /* \"diamonds/facets/FacetEmergencyConsole.sol\":3994:4195  function getEmergencySignature(uint requestId, uint signatureId) public view virtual returns (address) {... */\n    tag_20:\n      tag_37\n      tag_97\n      calldatasize\n      0x04\n      tag_89\n      jump\t// in\n    tag_97:\n      tag_98\n      jump\t// in\n        /* \"diamonds/facets/FacetEmergencyConsole.sol\":3015:3195  function getEmergencyRequestStartTimestamp(uint requestId) public view virtual returns (uint) {... */\n    tag_21:\n      tag_42\n      tag_101\n      calldatasize\n      0x04\n      tag_28\n      jump\t// in\n    tag_101:\n      tag_102\n      jump\t// in\n        /* \"diamonds/facets/FacetEmergencyConsole.sol\":6260:7623  function executeEmergencyRequest(uint requestId) public virtual returns (bool, bytes memory) {... */\n    tag_22:\n      tag_104\n      tag_105\n      calldatasize\n      0x04\n      tag_28\n      jump\t// in\n    tag_105:\n      tag_106\n      jump\t// in\n    tag_104:\n      mload(0x40)\n      tag_30\n      swap3\n      swap2\n      swap1\n      tag_108\n      jump\t// in\n        /* \"diamonds/facets/FacetEmergencyConsole.sol\":2841:3009  function getEmergencyRequestArgs(uint requestId) public view virtual returns (bytes memory) {... */\n    tag_29:\n        /* \"diamonds/facets/FacetEmergencyConsole.sol\":2919:2931  bytes memory */\n      0x60\n        /* \"diamonds/facets/FacetEmergencyConsole.sol\":2950:2968  emergencyConsole() */\n      tag_110\n        /* \"diamonds/facets/FacetEmergencyConsole.sol\":2950:2966  emergencyConsole */\n      tag_111\n        /* \"diamonds/facets/FacetEmergencyConsole.sol\":2950:2968  emergencyConsole() */\n      jump\t// in\n    tag_110:\n        /* \"diamonds/facets/FacetEmergencyConsole.sol\":2950:2986  emergencyConsole().emergencyRequests */\n      0x02\n      add\n        /* \"diamonds/facets/FacetEmergencyConsole.sol\":2987:2996  requestId */\n      dup3\n        /* \"diamonds/facets/FacetEmergencyConsole.sol\":2950:2997  emergencyConsole().emergencyRequests[requestId] */\n      dup2\n      sload\n      dup2\n      lt\n      tag_113\n      jumpi\n      tag_113\n      tag_114\n      jump\t// in\n    tag_113:\n      swap1\n      0x00\n      mstore\n      keccak256(0x00, 0x20)\n      swap1\n      0x0a\n      mul\n      add\n        /* \"diamonds/facets/FacetEmergencyConsole.sol\":2950:3002  emergencyConsole().emergencyRequests[requestId].args */\n      0x05\n      add\n        /* \"diamonds/facets/FacetEmergencyConsole.sol\":2943:3002  return emergencyConsole().emergencyRequests[requestId].args */\n      dup1\n      sload\n      tag_116\n      swap1\n      tag_117\n      jump\t// in\n    tag_116:\n      dup1\n      0x1f\n      add\n      0x20\n      dup1\n      swap2\n      div\n      mul\n      0x20\n      add\n      mload(0x40)\n      swap1\n      dup2\n      add\n      0x40\n      mstore\n      dup1\n      swap3\n      swap2\n      swap1\n      dup2\n      dup2\n      mstore\n      0x20\n      add\n      dup3\n      dup1\n      sload\n      tag_118\n      swap1\n      tag_117\n      jump\t// in\n    tag_118:\n      dup1\n      iszero\n      tag_119\n      jumpi\n      dup1\n      0x1f\n      lt\n      tag_120\n      jumpi\n      0x0100\n      dup1\n      dup4\n      sload\n      div\n      mul\n      dup4\n      mstore\n      swap2\n      0x20\n      add\n      swap2\n      jump(tag_119)\n    tag_120:\n      dup3\n      add\n      swap2\n      swap1\n      0x00\n      mstore\n      keccak256(0x00, 0x20)\n      swap1\n    tag_121:\n      dup2\n      sload\n      dup2\n      mstore\n      swap1\n      0x01\n      add\n      swap1\n      0x20\n      add\n      dup1\n      dup4\n      gt\n      tag_121\n      jumpi\n      dup3\n      swap1\n      sub\n      0x1f\n      and\n      dup3\n      add\n      swap2\n    tag_119:\n      pop\n      pop\n      pop\n      pop\n      pop\n      swap1\n      pop\n        /* \"diamonds/facets/FacetEmergencyConsole.sol\":2841:3009  function getEmergencyRequestArgs(uint requestId) public view virtual returns (bytes memory) {... */\n      swap2\n      swap1\n      pop\n      jump\t// out\n        /* \"diamonds/facets/FacetEmergencyConsole.sol\":4408:4580  function emergencyRequestHasBeenExecuted(uint requestId) public view virtual returns (bool) {... */\n    tag_34:\n        /* \"diamonds/facets/FacetEmergencyConsole.sol\":4494:4498  bool */\n      0x00\n        /* \"diamonds/facets/FacetEmergencyConsole.sol\":4517:4535  emergencyConsole() */\n      tag_123\n        /* \"diamonds/facets/FacetEmergencyConsole.sol\":4517:4533  emergencyConsole */\n      tag_111\n        /* \"diamonds/facets/FacetEmergencyConsole.sol\":4517:4535  emergencyConsole() */\n      jump\t// in\n    tag_123:\n        /* \"diamonds/facets/FacetEmergencyConsole.sol\":4517:4553  emergencyConsole().emergencyRequests */\n      0x02\n      add\n        /* \"diamonds/facets/FacetEmergencyConsole.sol\":4554:4563  requestId */\n      dup3\n        /* \"diamonds/facets/FacetEmergencyConsole.sol\":4517:4564  emergencyConsole().emergencyRequests[requestId] */\n      dup2\n      sload\n      dup2\n      lt\n      tag_125\n      jumpi\n      tag_125\n      tag_114\n      jump\t// in\n    tag_125:\n      0x00\n      swap2\n      dup3\n      mstore\n      0x20\n      swap1\n      swap2\n      keccak256\n        /* \"diamonds/facets/FacetEmergencyConsole.sol\":4517:4573  emergencyConsole().emergencyRequests[requestId].executed */\n      0x09\n        /* \"diamonds/facets/FacetEmergencyConsole.sol\":4517:4564  emergencyConsole().emergencyRequests[requestId] */\n      0x0a\n      swap1\n      swap3\n      mul\n      add\n        /* \"diamonds/facets/FacetEmergencyConsole.sol\":4517:4573  emergencyConsole().emergencyRequests[requestId].executed */\n      add\n      sload\n      0xff\n      and\n      swap3\n        /* \"diamonds/facets/FacetEmergencyConsole.sol\":4408:4580  function emergencyRequestHasBeenExecuted(uint requestId) public view virtual returns (bool) {... */\n      swap2\n      pop\n      pop\n      jump\t// out\n        /* \"diamonds/facets/FacetEmergencyConsole.sol\":2356:2514  function emergencyOperator(uint operatorId) public view virtual returns (address) {... */\n    tag_39:\n        /* \"diamonds/facets/FacetEmergencyConsole.sol\":2429:2436  address */\n      0x00\n        /* \"diamonds/facets/FacetEmergencyConsole.sol\":2455:2507  emergencyConsole().emergencyOperators.at(operatorId) */\n      tag_128\n        /* \"diamonds/facets/FacetEmergencyConsole.sol\":2496:2506  operatorId */\n      dup3\n        /* \"diamonds/facets/FacetEmergencyConsole.sol\":2455:2473  emergencyConsole() */\n      tag_129\n        /* \"diamonds/facets/FacetEmergencyConsole.sol\":2455:2471  emergencyConsole */\n      tag_111\n        /* \"diamonds/facets/FacetEmergencyConsole.sol\":2455:2473  emergencyConsole() */\n      jump\t// in\n    tag_129:\n        /* \"diamonds/facets/FacetEmergencyConsole.sol\":2455:2492  emergencyConsole().emergencyOperators */\n      swap1\n        /* \"diamonds/facets/FacetEmergencyConsole.sol\":2455:2495  emergencyConsole().emergencyOperators.at */\n      tag_130\n        /* \"diamonds/facets/FacetEmergencyConsole.sol\":2455:2507  emergencyConsole().emergencyOperators.at(operatorId) */\n      jump\t// in\n    tag_128:\n        /* \"diamonds/facets/FacetEmergencyConsole.sol\":2448:2507  return emergencyConsole().emergencyOperators.at(operatorId) */\n      swap3\n        /* \"diamonds/facets/FacetEmergencyConsole.sol\":2356:2514  function emergencyOperator(uint operatorId) public view virtual returns (address) {... */\n      swap2\n      pop\n      pop\n      jump\t// out\n        /* \"diamonds/facets/FacetEmergencyConsole.sol\":4201:4402  function getEmergencyRequestRequiredSignatures(uint requestId) public view virtual returns (uint) {... */\n    tag_44:\n        /* \"diamonds/facets/FacetEmergencyConsole.sol\":4293:4297  uint */\n      0x00\n        /* \"diamonds/facets/FacetEmergencyConsole.sol\":4316:4334  emergencyConsole() */\n      tag_132\n        /* \"diamonds/facets/FacetEmergencyConsole.sol\":4316:4332  emergencyConsole */\n      tag_111\n        /* \"diamonds/facets/FacetEmergencyConsole.sol\":4316:4334  emergencyConsole() */\n      jump\t// in\n    tag_132:\n        /* \"diamonds/facets/FacetEmergencyConsole.sol\":4316:4352  emergencyConsole().emergencyRequests */\n      0x02\n      add\n        /* \"diamonds/facets/FacetEmergencyConsole.sol\":4353:4362  requestId */\n      dup3\n        /* \"diamonds/facets/FacetEmergencyConsole.sol\":4316:4363  emergencyConsole().emergencyRequests[requestId] */\n      dup2\n      sload\n      dup2\n      lt\n      tag_134\n      jumpi\n      tag_134\n      tag_114\n      jump\t// in\n    tag_134:\n      swap1\n      0x00\n      mstore\n      keccak256(0x00, 0x20)\n      swap1\n      0x0a\n      mul\n      add\n        /* \"diamonds/facets/FacetEmergencyConsole.sol\":4316:4395  emergencyConsole().emergencyRequests[requestId].requiredSignaturesInBasisPoints */\n      0x08\n      add\n      sload\n        /* \"diamonds/facets/FacetEmergencyConsole.sol\":4309:4395  return emergencyConsole().emergencyRequests[requestId].requiredSignaturesInBasisPoints */\n      swap1\n      pop\n        /* \"diamonds/facets/FacetEmergencyConsole.sol\":4201:4402  function getEmergencyRequestRequiredSignatures(uint requestId) public view virtual returns (uint) {... */\n      swap2\n      swap1\n      pop\n      jump\t// out\n        /* \"diamonds/facets/FacetEmergencyConsole.sol\":3802:3988  function getEmergencySignatures(uint requestId) public view virtual returns (address[] memory) {... */\n    tag_49:\n        /* \"diamonds/facets/FacetEmergencyConsole.sol\":3879:3895  address[] memory */\n      0x60\n        /* \"diamonds/facets/FacetEmergencyConsole.sol\":3914:3981  emergencyConsole().emergencyRequests[requestId].signatures.values() */\n      tag_128\n        /* \"diamonds/facets/FacetEmergencyConsole.sol\":3914:3932  emergencyConsole() */\n      tag_138\n        /* \"diamonds/facets/FacetEmergencyConsole.sol\":3914:3930  emergencyConsole */\n      tag_111\n        /* \"diamonds/facets/FacetEmergencyConsole.sol\":3914:3932  emergencyConsole() */\n      jump\t// in\n    tag_138:\n        /* \"diamonds/facets/FacetEmergencyConsole.sol\":3914:3950  emergencyConsole().emergencyRequests */\n      0x02\n      add\n        /* \"diamonds/facets/FacetEmergencyConsole.sol\":3951:3960  requestId */\n      dup4\n        /* \"diamonds/facets/FacetEmergencyConsole.sol\":3914:3961  emergencyConsole().emergencyRequests[requestId] */\n      dup2\n      sload\n      dup2\n      lt\n      tag_140\n      jumpi\n      tag_140\n      tag_114\n      jump\t// in\n    tag_140:\n      swap1\n      0x00\n      mstore\n      keccak256(0x00, 0x20)\n      swap1\n      0x0a\n      mul\n      add\n        /* \"diamonds/facets/FacetEmergencyConsole.sol\":3914:3972  emergencyConsole().emergencyRequests[requestId].signatures */\n      0x02\n      add\n        /* \"diamonds/facets/FacetEmergencyConsole.sol\":3914:3979  emergencyConsole().emergencyRequests[requestId].signatures.values */\n      tag_142\n        /* \"diamonds/facets/FacetEmergencyConsole.sol\":3914:3981  emergencyConsole().emergencyRequests[requestId].signatures.values() */\n      jump\t// in\n        /* \"diamonds/facets/FacetEmergencyConsole.sol\":937:1151  function ____grantRoleEmergencyOperator(address account) external virtual {... */\n    tag_55:\n        /* \"diamonds/facets/FacetEmergencyConsole.sol\":1021:1032  _onlySelf() */\n      tag_144\n        /* \"diamonds/facets/FacetEmergencyConsole.sol\":1021:1030  _onlySelf */\n      tag_145\n        /* \"diamonds/facets/FacetEmergencyConsole.sol\":1021:1032  _onlySelf() */\n      jump\t// in\n    tag_144:\n        /* \"diamonds/facets/FacetEmergencyConsole.sol\":1042:1092  emergencyConsole().emergencyOperators.add(account) */\n      tag_146\n        /* \"diamonds/facets/FacetEmergencyConsole.sol\":1084:1091  account */\n      dup2\n        /* \"diamonds/facets/FacetEmergencyConsole.sol\":1042:1060  emergencyConsole() */\n      tag_147\n        /* \"diamonds/facets/FacetEmergencyConsole.sol\":1042:1058  emergencyConsole */\n      tag_111\n        /* \"diamonds/facets/FacetEmergencyConsole.sol\":1042:1060  emergencyConsole() */\n      jump\t// in\n    tag_147:\n        /* \"diamonds/facets/FacetEmergencyConsole.sol\":1042:1079  emergencyConsole().emergencyOperators */\n      swap1\n        /* \"diamonds/facets/FacetEmergencyConsole.sol\":1042:1083  emergencyConsole().emergencyOperators.add */\n      tag_148\n        /* \"diamonds/facets/FacetEmergencyConsole.sol\":1042:1092  emergencyConsole().emergencyOperators.add(account) */\n      jump\t// in\n    tag_146:\n      pop\n        /* \"diamonds/facets/FacetEmergencyConsole.sol\":1107:1144  RoleGrantedEmergencyOperator(account) */\n      mload(0x40)\n      sub(shl(0xa0, 0x01), 0x01)\n      dup3\n      and\n      swap1\n      0x17c697847a800b2606a1d6dbf707bfe0ab37f282b715bf83974d22aef6c6c5b1\n      swap1\n      0x00\n      swap1\n      log2\n        /* \"diamonds/facets/FacetEmergencyConsole.sol\":937:1151  function ____grantRoleEmergencyOperator(address account) external virtual {... */\n      pop\n      jump\t// out\n        /* \"diamonds/facets/FacetEmergencyConsole.sol\":1699:2188  function ____setEmergencyRequiredSignatures(uint newRequiredSignatures) external virtual {... */\n    tag_58:\n        /* \"diamonds/facets/FacetEmergencyConsole.sol\":1798:1809  _onlySelf() */\n      tag_150\n        /* \"diamonds/facets/FacetEmergencyConsole.sol\":1798:1807  _onlySelf */\n      tag_145\n        /* \"diamonds/facets/FacetEmergencyConsole.sol\":1798:1809  _onlySelf() */\n      jump\t// in\n    tag_150:\n        /* \"diamonds/facets/FacetEmergencyConsole.sol\":1852:1857  10000 */\n      0x2710\n        /* \"diamonds/facets/FacetEmergencyConsole.sol\":1827:1848  newRequiredSignatures */\n      dup2\n        /* \"diamonds/facets/FacetEmergencyConsole.sol\":1827:1857  newRequiredSignatures <= 10000 */\n      gt\n      iszero\n        /* \"diamonds/facets/FacetEmergencyConsole.sol\":1819:1913  require(newRequiredSignatures <= 10000, 'FacetEmergencyConsole: cannot be greater than 10000') */\n      tag_151\n      jumpi\n      mload(0x40)\n      shl(0xe5, 0x461bcd)\n      dup2\n      mstore\n        /* \"#utility.yul\":4972:4974   */\n      0x20\n        /* \"diamonds/facets/FacetEmergencyConsole.sol\":1819:1913  require(newRequiredSignatures <= 10000, 'FacetEmergencyConsole: cannot be greater than 10000') */\n      0x04\n      dup3\n      add\n        /* \"#utility.yul\":4954:4975   */\n      mstore\n        /* \"#utility.yul\":5011:5013   */\n      0x33\n        /* \"#utility.yul\":4991:5009   */\n      0x24\n      dup3\n      add\n        /* \"#utility.yul\":4984:5014   */\n      mstore\n        /* \"#utility.yul\":5050:5084   */\n      0x4661636574456d657267656e6379436f6e736f6c653a2063616e6e6f74206265\n        /* \"#utility.yul\":5030:5048   */\n      0x44\n      dup3\n      add\n        /* \"#utility.yul\":5023:5085   */\n      mstore\n      shl(0x6c, 0x02067726561746572207468616e20313030303)\n        /* \"#utility.yul\":5101:5119   */\n      0x64\n      dup3\n      add\n        /* \"#utility.yul\":5094:5143   */\n      mstore\n        /* \"#utility.yul\":5160:5179   */\n      0x84\n      add\n        /* \"diamonds/facets/FacetEmergencyConsole.sol\":1819:1913  require(newRequiredSignatures <= 10000, 'FacetEmergencyConsole: cannot be greater than 10000') */\n    tag_152:\n      mload(0x40)\n      dup1\n      swap2\n      sub\n      swap1\n      revert\n    tag_151:\n        /* \"diamonds/facets/FacetEmergencyConsole.sol\":1923:1949  uint oldRequiredSignatures */\n      0x00\n        /* \"diamonds/facets/FacetEmergencyConsole.sol\":1952:1970  emergencyConsole() */\n      tag_154\n        /* \"diamonds/facets/FacetEmergencyConsole.sol\":1952:1968  emergencyConsole */\n      tag_111\n        /* \"diamonds/facets/FacetEmergencyConsole.sol\":1952:1970  emergencyConsole() */\n      jump\t// in\n    tag_154:\n        /* \"diamonds/facets/FacetEmergencyConsole.sol\":1952:2002  emergencyConsole().requiredSignaturesInBasisPoints */\n      0x03\n      add\n      sload\n        /* \"diamonds/facets/FacetEmergencyConsole.sol\":1923:2002  uint oldRequiredSignatures = emergencyConsole().requiredSignaturesInBasisPoints */\n      swap1\n      pop\n        /* \"diamonds/facets/FacetEmergencyConsole.sol\":2065:2086  newRequiredSignatures */\n      dup2\n        /* \"diamonds/facets/FacetEmergencyConsole.sol\":2012:2030  emergencyConsole() */\n      tag_155\n        /* \"diamonds/facets/FacetEmergencyConsole.sol\":2012:2028  emergencyConsole */\n      tag_111\n        /* \"diamonds/facets/FacetEmergencyConsole.sol\":2012:2030  emergencyConsole() */\n      jump\t// in\n    tag_155:\n        /* \"diamonds/facets/FacetEmergencyConsole.sol\":2012:2062  emergencyConsole().requiredSignaturesInBasisPoints */\n      0x03\n      add\n        /* \"diamonds/facets/FacetEmergencyConsole.sol\":2012:2086  emergencyConsole().requiredSignaturesInBasisPoints = newRequiredSignatures */\n      sstore\n        /* \"diamonds/facets/FacetEmergencyConsole.sol\":2101:2181  EmergencyRequiredSignaturesChanged(oldRequiredSignatures, newRequiredSignatures) */\n      mload(0x40)\n        /* \"diamonds/facets/FacetEmergencyConsole.sol\":2159:2180  newRequiredSignatures */\n      dup3\n      swap1\n        /* \"diamonds/facets/FacetEmergencyConsole.sol\":2136:2157  oldRequiredSignatures */\n      dup3\n      swap1\n        /* \"diamonds/facets/FacetEmergencyConsole.sol\":2101:2181  EmergencyRequiredSignaturesChanged(oldRequiredSignatures, newRequiredSignatures) */\n      0xfcf3f87afc01f87de89a2654d7b7108ede6ef634baf9a0e52fb8bae9d2ae72cf\n      swap1\n      0x00\n      swap1\n      log3\n        /* \"diamonds/facets/FacetEmergencyConsole.sol\":1788:2188  {... */\n      pop\n        /* \"diamonds/facets/FacetEmergencyConsole.sol\":1699:2188  function ____setEmergencyRequiredSignatures(uint newRequiredSignatures) external virtual {... */\n      pop\n      jump\t// out\n        /* \"diamonds/facets/FacetEmergencyConsole.sol\":3375:3578  function getEmergencyRequestExpectedSigners(uint requestId) public view virtual returns (address[] memory) {... */\n    tag_61:\n        /* \"diamonds/facets/FacetEmergencyConsole.sol\":3464:3480  address[] memory */\n      0x60\n        /* \"diamonds/facets/FacetEmergencyConsole.sol\":3499:3571  emergencyConsole().emergencyRequests[requestId].expectedSigners.values() */\n      tag_128\n        /* \"diamonds/facets/FacetEmergencyConsole.sol\":3499:3517  emergencyConsole() */\n      tag_158\n        /* \"diamonds/facets/FacetEmergencyConsole.sol\":3499:3515  emergencyConsole */\n      tag_111\n        /* \"diamonds/facets/FacetEmergencyConsole.sol\":3499:3517  emergencyConsole() */\n      jump\t// in\n    tag_158:\n        /* \"diamonds/facets/FacetEmergencyConsole.sol\":3499:3535  emergencyConsole().emergencyRequests */\n      0x02\n      add\n        /* \"diamonds/facets/FacetEmergencyConsole.sol\":3536:3545  requestId */\n      dup4\n        /* \"diamonds/facets/FacetEmergencyConsole.sol\":3499:3546  emergencyConsole().emergencyRequests[requestId] */\n      dup2\n      sload\n      dup2\n      lt\n      tag_160\n      jumpi\n      tag_160\n      tag_114\n      jump\t// in\n    tag_160:\n      swap1\n      0x00\n      mstore\n      keccak256(0x00, 0x20)\n      swap1\n      0x0a\n      mul\n      add\n        /* \"diamonds/facets/FacetEmergencyConsole.sol\":3499:3562  emergencyConsole().emergencyRequests[requestId].expectedSigners */\n      0x00\n      add\n        /* \"diamonds/facets/FacetEmergencyConsole.sol\":3499:3569  emergencyConsole().emergencyRequests[requestId].expectedSigners.values */\n      tag_142\n        /* \"diamonds/facets/FacetEmergencyConsole.sol\":3499:3571  emergencyConsole().emergencyRequests[requestId].expectedSigners.values() */\n      jump\t// in\n        /* \"diamonds/facets/FacetEmergencyConsole.sol\":2203:2350  function emergencyOperators() public view virtual returns (address[] memory) {... */\n    tag_64:\n        /* \"diamonds/facets/FacetEmergencyConsole.sol\":2262:2278  address[] memory */\n      0x60\n        /* \"diamonds/facets/FacetEmergencyConsole.sol\":2297:2343  emergencyConsole().emergencyOperators.values() */\n      tag_163\n        /* \"diamonds/facets/FacetEmergencyConsole.sol\":2297:2315  emergencyConsole() */\n      tag_164\n        /* \"diamonds/facets/FacetEmergencyConsole.sol\":2297:2313  emergencyConsole */\n      tag_111\n        /* \"diamonds/facets/FacetEmergencyConsole.sol\":2297:2315  emergencyConsole() */\n      jump\t// in\n    tag_164:\n        /* \"diamonds/facets/FacetEmergencyConsole.sol\":2297:2341  emergencyConsole().emergencyOperators.values */\n      tag_142\n        /* \"diamonds/facets/FacetEmergencyConsole.sol\":2297:2343  emergencyConsole().emergencyOperators.values() */\n      jump\t// in\n    tag_163:\n        /* \"diamonds/facets/FacetEmergencyConsole.sol\":2290:2343  return emergencyConsole().emergencyOperators.values() */\n      swap1\n      pop\n        /* \"diamonds/facets/FacetEmergencyConsole.sol\":2203:2350  function emergencyOperators() public view virtual returns (address[] memory) {... */\n      swap1\n      jump\t// out\n        /* \"diamonds/facets/FacetEmergencyConsole.sol\":5743:6254  function signEmergencyRequest(uint requestId) public virtual {... */\n    tag_68:\n        /* \"diamonds/facets/FacetEmergencyConsole.sol\":5822:5908  emergencyConsole().emergencyRequests[requestId].expectedSigners.contains(_msgSender()) */\n      tag_166\n        /* \"imports/openzeppelin/utils/Context.sol\":720:730  msg.sender */\n      caller\n        /* \"diamonds/facets/FacetEmergencyConsole.sol\":5822:5840  emergencyConsole() */\n      tag_169\n        /* \"diamonds/facets/FacetEmergencyConsole.sol\":5822:5838  emergencyConsole */\n      tag_111\n        /* \"diamonds/facets/FacetEmergencyConsole.sol\":5822:5840  emergencyConsole() */\n      jump\t// in\n    tag_169:\n        /* \"diamonds/facets/FacetEmergencyConsole.sol\":5822:5858  emergencyConsole().emergencyRequests */\n      0x02\n      add\n        /* \"diamonds/facets/FacetEmergencyConsole.sol\":5859:5868  requestId */\n      dup4\n        /* \"diamonds/facets/FacetEmergencyConsole.sol\":5822:5869  emergencyConsole().emergencyRequests[requestId] */\n      dup2\n      sload\n      dup2\n      lt\n      tag_171\n      jumpi\n      tag_171\n      tag_114\n      jump\t// in\n    tag_171:\n      0x00\n      swap2\n      dup3\n      mstore\n      0x20\n      swap1\n      swap2\n      keccak256\n      0x0a\n      swap1\n      swap2\n      mul\n      add\n      swap1\n        /* \"diamonds/facets/FacetEmergencyConsole.sol\":5822:5894  emergencyConsole().emergencyRequests[requestId].expectedSigners.contains */\n      tag_173\n        /* \"diamonds/facets/FacetEmergencyConsole.sol\":5822:5908  emergencyConsole().emergencyRequests[requestId].expectedSigners.contains(_msgSender()) */\n      jump\t// in\n    tag_166:\n        /* \"diamonds/facets/FacetEmergencyConsole.sol\":5814:5957  require(emergencyConsole().emergencyRequests[requestId].expectedSigners.contains(_msgSender()), 'FacetEmergencyConsole: only expected signers') */\n      tag_174\n      jumpi\n      mload(0x40)\n      shl(0xe5, 0x461bcd)\n      dup2\n      mstore\n        /* \"#utility.yul\":5392:5394   */\n      0x20\n        /* \"diamonds/facets/FacetEmergencyConsole.sol\":5814:5957  require(emergencyConsole().emergencyRequests[requestId].expectedSigners.contains(_msgSender()), 'FacetEmergencyConsole: only expected signers') */\n      0x04\n      dup3\n      add\n        /* \"#utility.yul\":5374:5395   */\n      mstore\n        /* \"#utility.yul\":5431:5433   */\n      0x2c\n        /* \"#utility.yul\":5411:5429   */\n      0x24\n      dup3\n      add\n        /* \"#utility.yul\":5404:5434   */\n      mstore\n        /* \"#utility.yul\":5470:5504   */\n      0x4661636574456d657267656e6379436f6e736f6c653a206f6e6c792065787065\n        /* \"#utility.yul\":5450:5468   */\n      0x44\n      dup3\n      add\n        /* \"#utility.yul\":5443:5505   */\n      mstore\n      shl(0xa0, 0x63746564207369676e657273)\n        /* \"#utility.yul\":5521:5539   */\n      0x64\n      dup3\n      add\n        /* \"#utility.yul\":5514:5556   */\n      mstore\n        /* \"#utility.yul\":5573:5592   */\n      0x84\n      add\n        /* \"diamonds/facets/FacetEmergencyConsole.sol\":5814:5957  require(emergencyConsole().emergencyRequests[requestId].expectedSigners.contains(_msgSender()), 'FacetEmergencyConsole: only expected signers') */\n      tag_152\n        /* \"#utility.yul\":5190:5598   */\n      jump\n        /* \"diamonds/facets/FacetEmergencyConsole.sol\":5814:5957  require(emergencyConsole().emergencyRequests[requestId].expectedSigners.contains(_msgSender()), 'FacetEmergencyConsole: only expected signers') */\n    tag_174:\n        /* \"diamonds/facets/FacetEmergencyConsole.sol\":5976:6057  emergencyConsole().emergencyRequests[requestId].signatures.contains(_msgSender()) */\n      tag_177\n        /* \"imports/openzeppelin/utils/Context.sol\":720:730  msg.sender */\n      caller\n        /* \"diamonds/facets/FacetEmergencyConsole.sol\":5976:5994  emergencyConsole() */\n      tag_179\n        /* \"diamonds/facets/FacetEmergencyConsole.sol\":5976:5992  emergencyConsole */\n      tag_111\n        /* \"diamonds/facets/FacetEmergencyConsole.sol\":5976:5994  emergencyConsole() */\n      jump\t// in\n    tag_179:\n        /* \"diamonds/facets/FacetEmergencyConsole.sol\":5976:6012  emergencyConsole().emergencyRequests */\n      0x02\n      add\n        /* \"diamonds/facets/FacetEmergencyConsole.sol\":6013:6022  requestId */\n      dup4\n        /* \"diamonds/facets/FacetEmergencyConsole.sol\":5976:6023  emergencyConsole().emergencyRequests[requestId] */\n      dup2\n      sload\n      dup2\n      lt\n      tag_181\n      jumpi\n      tag_181\n      tag_114\n      jump\t// in\n    tag_181:\n      swap1\n      0x00\n      mstore\n      keccak256(0x00, 0x20)\n      swap1\n      0x0a\n      mul\n      add\n        /* \"diamonds/facets/FacetEmergencyConsole.sol\":5976:6034  emergencyConsole().emergencyRequests[requestId].signatures */\n      0x02\n      add\n        /* \"diamonds/facets/FacetEmergencyConsole.sol\":5976:6043  emergencyConsole().emergencyRequests[requestId].signatures.contains */\n      tag_173\n      swap1\n        /* \"diamonds/facets/FacetEmergencyConsole.sol\":5976:6057  emergencyConsole().emergencyRequests[requestId].signatures.contains(_msgSender()) */\n      swap2\n      swap1\n      0xffffffff\n      and\n      jump\t// in\n    tag_177:\n        /* \"diamonds/facets/FacetEmergencyConsole.sol\":5975:6057  !emergencyConsole().emergencyRequests[requestId].signatures.contains(_msgSender()) */\n      iszero\n        /* \"diamonds/facets/FacetEmergencyConsole.sol\":5967:6099  require(!emergencyConsole().emergencyRequests[requestId].signatures.contains(_msgSender()), 'FacetEmergencyConsole: already signed') */\n      tag_183\n      jumpi\n      mload(0x40)\n      shl(0xe5, 0x461bcd)\n      dup2\n      mstore\n        /* \"#utility.yul\":5805:5807   */\n      0x20\n        /* \"diamonds/facets/FacetEmergencyConsole.sol\":5967:6099  require(!emergencyConsole().emergencyRequests[requestId].signatures.contains(_msgSender()), 'FacetEmergencyConsole: already signed') */\n      0x04\n      dup3\n      add\n        /* \"#utility.yul\":5787:5808   */\n      mstore\n        /* \"#utility.yul\":5844:5846   */\n      0x25\n        /* \"#utility.yul\":5824:5842   */\n      0x24\n      dup3\n      add\n        /* \"#utility.yul\":5817:5847   */\n      mstore\n        /* \"#utility.yul\":5883:5917   */\n      0x4661636574456d657267656e6379436f6e736f6c653a20616c72656164792073\n        /* \"#utility.yul\":5863:5881   */\n      0x44\n      dup3\n      add\n        /* \"#utility.yul\":5856:5918   */\n      mstore\n      shl(0xda, 0x1a59db9959)\n        /* \"#utility.yul\":5934:5952   */\n      0x64\n      dup3\n      add\n        /* \"#utility.yul\":5927:5962   */\n      mstore\n        /* \"#utility.yul\":5979:5998   */\n      0x84\n      add\n        /* \"diamonds/facets/FacetEmergencyConsole.sol\":5967:6099  require(!emergencyConsole().emergencyRequests[requestId].signatures.contains(_msgSender()), 'FacetEmergencyConsole: already signed') */\n      tag_152\n        /* \"#utility.yul\":5603:6004   */\n      jump\n        /* \"diamonds/facets/FacetEmergencyConsole.sol\":5967:6099  require(!emergencyConsole().emergencyRequests[requestId].signatures.contains(_msgSender()), 'FacetEmergencyConsole: already signed') */\n    tag_183:\n        /* \"diamonds/facets/FacetEmergencyConsole.sol\":6109:6185  emergencyConsole().emergencyRequests[requestId].signatures.add(_msgSender()) */\n      tag_186\n        /* \"imports/openzeppelin/utils/Context.sol\":720:730  msg.sender */\n      caller\n        /* \"diamonds/facets/FacetEmergencyConsole.sol\":6109:6127  emergencyConsole() */\n      tag_188\n        /* \"diamonds/facets/FacetEmergencyConsole.sol\":6109:6125  emergencyConsole */\n      tag_111\n        /* \"diamonds/facets/FacetEmergencyConsole.sol\":6109:6127  emergencyConsole() */\n      jump\t// in\n    tag_188:\n        /* \"diamonds/facets/FacetEmergencyConsole.sol\":6109:6145  emergencyConsole().emergencyRequests */\n      0x02\n      add\n        /* \"diamonds/facets/FacetEmergencyConsole.sol\":6146:6155  requestId */\n      dup4\n        /* \"diamonds/facets/FacetEmergencyConsole.sol\":6109:6156  emergencyConsole().emergencyRequests[requestId] */\n      dup2\n      sload\n      dup2\n      lt\n      tag_190\n      jumpi\n      tag_190\n      tag_114\n      jump\t// in\n    tag_190:\n      swap1\n      0x00\n      mstore\n      keccak256(0x00, 0x20)\n      swap1\n      0x0a\n      mul\n      add\n        /* \"diamonds/facets/FacetEmergencyConsole.sol\":6109:6167  emergencyConsole().emergencyRequests[requestId].signatures */\n      0x02\n      add\n        /* \"diamonds/facets/FacetEmergencyConsole.sol\":6109:6171  emergencyConsole().emergencyRequests[requestId].signatures.add */\n      tag_148\n      swap1\n        /* \"diamonds/facets/FacetEmergencyConsole.sol\":6109:6185  emergencyConsole().emergencyRequests[requestId].signatures.add(_msgSender()) */\n      swap2\n      swap1\n      0xffffffff\n      and\n      jump\t// in\n    tag_186:\n      pop\n        /* \"diamonds/facets/FacetEmergencyConsole.sol\":6200:6247  EmergencyRequestSigned(requestId, _msgSender()) */\n      mload(0x40)\n        /* \"imports/openzeppelin/utils/Context.sol\":720:730  msg.sender */\n      caller\n      swap1\n        /* \"diamonds/facets/FacetEmergencyConsole.sol\":6223:6232  requestId */\n      dup3\n      swap1\n        /* \"diamonds/facets/FacetEmergencyConsole.sol\":6200:6247  EmergencyRequestSigned(requestId, _msgSender()) */\n      0x60e5ab4071e3b4c747a2d2dbb76be81ca6490c4c66c94aee951edbcdf24c31b7\n      swap1\n      0x00\n      swap1\n      log3\n        /* \"diamonds/facets/FacetEmergencyConsole.sol\":5743:6254  function signEmergencyRequest(uint requestId) public virtual {... */\n      pop\n      jump\t// out\n        /* \"diamonds/facets/FacetEmergencyConsole.sol\":3201:3369  function getEmergencyRequestDuration(uint requestId) public view virtual returns (uint) {... */\n    tag_71:\n        /* \"diamonds/facets/FacetEmergencyConsole.sol\":3283:3287  uint */\n      0x00\n        /* \"diamonds/facets/FacetEmergencyConsole.sol\":3306:3324  emergencyConsole() */\n      tag_194\n        /* \"diamonds/facets/FacetEmergencyConsole.sol\":3306:3322  emergencyConsole */\n      tag_111\n        /* \"diamonds/facets/FacetEmergencyConsole.sol\":3306:3324  emergencyConsole() */\n      jump\t// in\n    tag_194:\n        /* \"diamonds/facets/FacetEmergencyConsole.sol\":3306:3342  emergencyConsole().emergencyRequests */\n      0x02\n      add\n        /* \"diamonds/facets/FacetEmergencyConsole.sol\":3343:3352  requestId */\n      dup3\n        /* \"diamonds/facets/FacetEmergencyConsole.sol\":3306:3353  emergencyConsole().emergencyRequests[requestId] */\n      dup2\n      sload\n      dup2\n      lt\n      tag_196\n      jumpi\n      tag_196\n      tag_114\n      jump\t// in\n    tag_196:\n      swap1\n      0x00\n      mstore\n      keccak256(0x00, 0x20)\n      swap1\n      0x0a\n      mul\n      add\n        /* \"diamonds/facets/FacetEmergencyConsole.sol\":3306:3362  emergencyConsole().emergencyRequests[requestId].duration */\n      0x07\n      add\n      sload\n        /* \"diamonds/facets/FacetEmergencyConsole.sol\":3299:3362  return emergencyConsole().emergencyRequests[requestId].duration */\n      swap1\n      pop\n        /* \"diamonds/facets/FacetEmergencyConsole.sol\":3201:3369  function getEmergencyRequestDuration(uint requestId) public view virtual returns (uint) {... */\n      swap2\n      swap1\n      pop\n      jump\t// out\n        /* \"diamonds/facets/FacetEmergencyConsole.sol\":2520:2666  function getCurrentEmergencyRequestId() public view virtual returns (uint) {... */\n    tag_74:\n        /* \"diamonds/facets/FacetEmergencyConsole.sol\":2589:2593  uint */\n      0x00\n        /* \"diamonds/facets/FacetEmergencyConsole.sol\":2658:2659  1 */\n      0x01\n        /* \"diamonds/facets/FacetEmergencyConsole.sol\":2612:2630  emergencyConsole() */\n      tag_199\n        /* \"diamonds/facets/FacetEmergencyConsole.sol\":2612:2628  emergencyConsole */\n      tag_111\n        /* \"diamonds/facets/FacetEmergencyConsole.sol\":2612:2630  emergencyConsole() */\n      jump\t// in\n    tag_199:\n        /* \"diamonds/facets/FacetEmergencyConsole.sol\":2612:2648  emergencyConsole().emergencyRequests */\n      0x02\n      add\n        /* \"diamonds/facets/FacetEmergencyConsole.sol\":2612:2655  emergencyConsole().emergencyRequests.length */\n      sload\n        /* \"diamonds/facets/FacetEmergencyConsole.sol\":2612:2659  emergencyConsole().emergencyRequests.length - 1 */\n      tag_163\n      swap2\n      swap1\n      tag_201\n      jump\t// in\n        /* \"diamonds/facets/FacetEmergencyConsole.sol\":1157:1375  function ____revokeRoleEmergencyOperator(address account) external virtual {... */\n    tag_78:\n        /* \"diamonds/facets/FacetEmergencyConsole.sol\":1242:1253  _onlySelf() */\n      tag_203\n        /* \"diamonds/facets/FacetEmergencyConsole.sol\":1242:1251  _onlySelf */\n      tag_145\n        /* \"diamonds/facets/FacetEmergencyConsole.sol\":1242:1253  _onlySelf() */\n      jump\t// in\n    tag_203:\n        /* \"diamonds/facets/FacetEmergencyConsole.sol\":1263:1316  emergencyConsole().emergencyOperators.remove(account) */\n      tag_204\n        /* \"diamonds/facets/FacetEmergencyConsole.sol\":1308:1315  account */\n      dup2\n        /* \"diamonds/facets/FacetEmergencyConsole.sol\":1263:1281  emergencyConsole() */\n      tag_205\n        /* \"diamonds/facets/FacetEmergencyConsole.sol\":1263:1279  emergencyConsole */\n      tag_111\n        /* \"diamonds/facets/FacetEmergencyConsole.sol\":1263:1281  emergencyConsole() */\n      jump\t// in\n    tag_205:\n        /* \"diamonds/facets/FacetEmergencyConsole.sol\":1263:1300  emergencyConsole().emergencyOperators */\n      swap1\n        /* \"diamonds/facets/FacetEmergencyConsole.sol\":1263:1307  emergencyConsole().emergencyOperators.remove */\n      tag_206\n        /* \"diamonds/facets/FacetEmergencyConsole.sol\":1263:1316  emergencyConsole().emergencyOperators.remove(account) */\n      jump\t// in\n    tag_204:\n      pop\n        /* \"diamonds/facets/FacetEmergencyConsole.sol\":1331:1368  RoleRevokedEmergencyOperator(account) */\n      mload(0x40)\n      sub(shl(0xa0, 0x01), 0x01)\n      dup3\n      and\n      swap1\n      0x0e3f59f467dbe99c689848a95522753581e0bcb090b840b2ebe20976b4b299cf\n      swap1\n      0x00\n      swap1\n      log2\n        /* \"diamonds/facets/FacetEmergencyConsole.sol\":1157:1375  function ____revokeRoleEmergencyOperator(address account) external virtual {... */\n      pop\n      jump\t// out\n        /* \"diamonds/facets/FacetEmergencyConsole.sol\":1381:1693  function ____setEmergencyTimelock(uint newTimelockSeconds) external virtual {... */\n    tag_81:\n        /* \"diamonds/facets/FacetEmergencyConsole.sol\":1467:1478  _onlySelf() */\n      tag_208\n        /* \"diamonds/facets/FacetEmergencyConsole.sol\":1467:1476  _onlySelf */\n      tag_145\n        /* \"diamonds/facets/FacetEmergencyConsole.sol\":1467:1478  _onlySelf() */\n      jump\t// in\n    tag_208:\n        /* \"diamonds/facets/FacetEmergencyConsole.sol\":1488:1511  uint oldTimelockSeconds */\n      0x00\n        /* \"diamonds/facets/FacetEmergencyConsole.sol\":1514:1532  emergencyConsole() */\n      tag_209\n        /* \"diamonds/facets/FacetEmergencyConsole.sol\":1514:1530  emergencyConsole */\n      tag_111\n        /* \"diamonds/facets/FacetEmergencyConsole.sol\":1514:1532  emergencyConsole() */\n      jump\t// in\n    tag_209:\n        /* \"diamonds/facets/FacetEmergencyConsole.sol\":1514:1545  emergencyConsole().delaySeconds */\n      0x04\n      add\n      sload\n        /* \"diamonds/facets/FacetEmergencyConsole.sol\":1488:1545  uint oldTimelockSeconds = emergencyConsole().delaySeconds */\n      swap1\n      pop\n        /* \"diamonds/facets/FacetEmergencyConsole.sol\":1589:1607  newTimelockSeconds */\n      dup2\n        /* \"diamonds/facets/FacetEmergencyConsole.sol\":1555:1573  emergencyConsole() */\n      tag_210\n        /* \"diamonds/facets/FacetEmergencyConsole.sol\":1555:1571  emergencyConsole */\n      tag_111\n        /* \"diamonds/facets/FacetEmergencyConsole.sol\":1555:1573  emergencyConsole() */\n      jump\t// in\n    tag_210:\n        /* \"diamonds/facets/FacetEmergencyConsole.sol\":1555:1586  emergencyConsole().delaySeconds */\n      0x04\n      add\n        /* \"diamonds/facets/FacetEmergencyConsole.sol\":1555:1607  emergencyConsole().delaySeconds = newTimelockSeconds */\n      sstore\n        /* \"diamonds/facets/FacetEmergencyConsole.sol\":1622:1686  EmergencyTimelockChanged(oldTimelockSeconds, newTimelockSeconds) */\n      mload(0x40)\n        /* \"diamonds/facets/FacetEmergencyConsole.sol\":1667:1685  newTimelockSeconds */\n      dup3\n      swap1\n        /* \"diamonds/facets/FacetEmergencyConsole.sol\":1647:1665  oldTimelockSeconds */\n      dup3\n      swap1\n        /* \"diamonds/facets/FacetEmergencyConsole.sol\":1622:1686  EmergencyTimelockChanged(oldTimelockSeconds, newTimelockSeconds) */\n      0x9e67c70303ddf23f5294553784250d200c84de0e011c05061c99ed5e4a221c15\n      swap1\n      0x00\n      swap1\n      log3\n        /* \"diamonds/facets/FacetEmergencyConsole.sol\":1457:1693  {... */\n      pop\n        /* \"diamonds/facets/FacetEmergencyConsole.sol\":1381:1693  function ____setEmergencyTimelock(uint newTimelockSeconds) external virtual {... */\n      pop\n      jump\t// out\n        /* \"diamonds/facets/FacetEmergencyConsole.sol\":4586:5737  function emergencyRequest(address to, bytes memory args) public virtual returns (uint) {... */\n    tag_85:\n        /* \"diamonds/facets/FacetEmergencyConsole.sol\":4667:4671  uint */\n      0x00\n        /* \"diamonds/facets/FacetEmergencyConsole.sol\":4691:4751  emergencyConsole().emergencyOperators.contains(_msgSender()) */\n      tag_212\n        /* \"imports/openzeppelin/utils/Context.sol\":720:730  msg.sender */\n      caller\n        /* \"diamonds/facets/FacetEmergencyConsole.sol\":4738:4750  _msgSender() */\n    tag_213:\n        /* \"diamonds/facets/FacetEmergencyConsole.sol\":4691:4709  emergencyConsole() */\n      tag_214\n        /* \"diamonds/facets/FacetEmergencyConsole.sol\":4691:4707  emergencyConsole */\n      tag_111\n        /* \"diamonds/facets/FacetEmergencyConsole.sol\":4691:4709  emergencyConsole() */\n      jump\t// in\n    tag_214:\n        /* \"diamonds/facets/FacetEmergencyConsole.sol\":4691:4728  emergencyConsole().emergencyOperators */\n      swap1\n        /* \"diamonds/facets/FacetEmergencyConsole.sol\":4691:4737  emergencyConsole().emergencyOperators.contains */\n      tag_173\n        /* \"diamonds/facets/FacetEmergencyConsole.sol\":4691:4751  emergencyConsole().emergencyOperators.contains(_msgSender()) */\n      jump\t// in\n    tag_212:\n        /* \"diamonds/facets/FacetEmergencyConsole.sol\":4683:4802  require(emergencyConsole().emergencyOperators.contains(_msgSender()), 'FacetEmergencyConsole: only emergency operator') */\n      tag_215\n      jumpi\n      mload(0x40)\n      shl(0xe5, 0x461bcd)\n      dup2\n      mstore\n      0x04\n      add\n      tag_152\n      swap1\n      tag_217\n      jump\t// in\n    tag_215:\n        /* \"diamonds/facets/FacetEmergencyConsole.sol\":4812:4830  emergencyConsole() */\n      tag_218\n        /* \"diamonds/facets/FacetEmergencyConsole.sol\":4812:4828  emergencyConsole */\n      tag_111\n        /* \"diamonds/facets/FacetEmergencyConsole.sol\":4812:4830  emergencyConsole() */\n      jump\t// in\n    tag_218:\n        /* \"diamonds/facets/FacetEmergencyConsole.sol\":4812:4848  emergencyConsole().emergencyRequests */\n      0x02\n      add\n        /* \"diamonds/facets/FacetEmergencyConsole.sol\":4812:4855  emergencyConsole().emergencyRequests.push() */\n      dup1\n      sload\n      0x01\n      swap1\n      dup2\n      add\n      dup3\n      sstore\n      0x00\n      swap2\n      dup3\n      mstore\n        /* \"diamonds/facets/FacetEmergencyConsole.sol\":4878:4896  emergencyConsole() */\n      tag_220\n        /* \"diamonds/facets/FacetEmergencyConsole.sol\":4878:4894  emergencyConsole */\n      tag_111\n        /* \"diamonds/facets/FacetEmergencyConsole.sol\":4878:4896  emergencyConsole() */\n      jump\t// in\n    tag_220:\n        /* \"diamonds/facets/FacetEmergencyConsole.sol\":4878:4914  emergencyConsole().emergencyRequests */\n      0x02\n      add\n        /* \"diamonds/facets/FacetEmergencyConsole.sol\":4878:4921  emergencyConsole().emergencyRequests.length */\n      sload\n        /* \"diamonds/facets/FacetEmergencyConsole.sol\":4878:4925  emergencyConsole().emergencyRequests.length - 1 */\n      tag_221\n      swap2\n      swap1\n      tag_201\n      jump\t// in\n    tag_221:\n        /* \"diamonds/facets/FacetEmergencyConsole.sol\":4865:4925  uint newId = emergencyConsole().emergencyRequests.length - 1 */\n      swap1\n      pop\n        /* \"diamonds/facets/FacetEmergencyConsole.sol\":4984:4986  to */\n      dup4\n        /* \"diamonds/facets/FacetEmergencyConsole.sol\":4935:4953  emergencyConsole() */\n      tag_222\n        /* \"diamonds/facets/FacetEmergencyConsole.sol\":4935:4951  emergencyConsole */\n      tag_111\n        /* \"diamonds/facets/FacetEmergencyConsole.sol\":4935:4953  emergencyConsole() */\n      jump\t// in\n    tag_222:\n        /* \"diamonds/facets/FacetEmergencyConsole.sol\":4935:4971  emergencyConsole().emergencyRequests */\n      0x02\n      add\n        /* \"diamonds/facets/FacetEmergencyConsole.sol\":4972:4977  newId */\n      dup3\n        /* \"diamonds/facets/FacetEmergencyConsole.sol\":4935:4978  emergencyConsole().emergencyRequests[newId] */\n      dup2\n      sload\n      dup2\n      lt\n      tag_224\n      jumpi\n      tag_224\n      tag_114\n      jump\t// in\n    tag_224:\n      swap1\n      0x00\n      mstore\n      keccak256(0x00, 0x20)\n      swap1\n      0x0a\n      mul\n      add\n        /* \"diamonds/facets/FacetEmergencyConsole.sol\":4935:4981  emergencyConsole().emergencyRequests[newId].to */\n      0x04\n      add\n      0x00\n        /* \"diamonds/facets/FacetEmergencyConsole.sol\":4935:4986  emergencyConsole().emergencyRequests[newId].to = to */\n      0x0100\n      exp\n      dup2\n      sload\n      dup2\n      sub(shl(0xa0, 0x01), 0x01)\n      mul\n      not\n      and\n      swap1\n      dup4\n      sub(shl(0xa0, 0x01), 0x01)\n      and\n      mul\n      or\n      swap1\n      sstore\n      pop\n        /* \"diamonds/facets/FacetEmergencyConsole.sol\":5047:5051  args */\n      dup3\n        /* \"diamonds/facets/FacetEmergencyConsole.sol\":4996:5014  emergencyConsole() */\n      tag_226\n        /* \"diamonds/facets/FacetEmergencyConsole.sol\":4996:5012  emergencyConsole */\n      tag_111\n        /* \"diamonds/facets/FacetEmergencyConsole.sol\":4996:5014  emergencyConsole() */\n      jump\t// in\n    tag_226:\n        /* \"diamonds/facets/FacetEmergencyConsole.sol\":4996:5032  emergencyConsole().emergencyRequests */\n      0x02\n      add\n        /* \"diamonds/facets/FacetEmergencyConsole.sol\":5033:5038  newId */\n      dup3\n        /* \"diamonds/facets/FacetEmergencyConsole.sol\":4996:5039  emergencyConsole().emergencyRequests[newId] */\n      dup2\n      sload\n      dup2\n      lt\n      tag_228\n      jumpi\n      tag_228\n      tag_114\n      jump\t// in\n    tag_228:\n      swap1\n      0x00\n      mstore\n      keccak256(0x00, 0x20)\n      swap1\n      0x0a\n      mul\n      add\n        /* \"diamonds/facets/FacetEmergencyConsole.sol\":4996:5044  emergencyConsole().emergencyRequests[newId].args */\n      0x05\n      add\n        /* \"diamonds/facets/FacetEmergencyConsole.sol\":4996:5051  emergencyConsole().emergencyRequests[newId].args = args */\n      swap1\n      dup2\n      tag_230\n      swap2\n      swap1\n      tag_231\n      jump\t// in\n    tag_230:\n      pop\n        /* \"diamonds/facets/FacetEmergencyConsole.sol\":5122:5137  block.timestamp */\n      timestamp\n        /* \"diamonds/facets/FacetEmergencyConsole.sol\":5061:5079  emergencyConsole() */\n      tag_232\n        /* \"diamonds/facets/FacetEmergencyConsole.sol\":5061:5077  emergencyConsole */\n      tag_111\n        /* \"diamonds/facets/FacetEmergencyConsole.sol\":5061:5079  emergencyConsole() */\n      jump\t// in\n    tag_232:\n        /* \"diamonds/facets/FacetEmergencyConsole.sol\":5061:5097  emergencyConsole().emergencyRequests */\n      0x02\n      add\n        /* \"diamonds/facets/FacetEmergencyConsole.sol\":5098:5103  newId */\n      dup3\n        /* \"diamonds/facets/FacetEmergencyConsole.sol\":5061:5104  emergencyConsole().emergencyRequests[newId] */\n      dup2\n      sload\n      dup2\n      lt\n      tag_234\n      jumpi\n      tag_234\n      tag_114\n      jump\t// in\n    tag_234:\n      swap1\n      0x00\n      mstore\n      keccak256(0x00, 0x20)\n      swap1\n      0x0a\n      mul\n      add\n        /* \"diamonds/facets/FacetEmergencyConsole.sol\":5061:5119  emergencyConsole().emergencyRequests[newId].startTimestamp */\n      0x06\n      add\n        /* \"diamonds/facets/FacetEmergencyConsole.sol\":5061:5137  emergencyConsole().emergencyRequests[newId].startTimestamp = block.timestamp */\n      dup2\n      swap1\n      sstore\n      pop\n        /* \"diamonds/facets/FacetEmergencyConsole.sol\":5202:5220  emergencyConsole() */\n      tag_236\n        /* \"diamonds/facets/FacetEmergencyConsole.sol\":5202:5218  emergencyConsole */\n      tag_111\n        /* \"diamonds/facets/FacetEmergencyConsole.sol\":5202:5220  emergencyConsole() */\n      jump\t// in\n    tag_236:\n        /* \"diamonds/facets/FacetEmergencyConsole.sol\":5202:5233  emergencyConsole().delaySeconds */\n      0x04\n      add\n      sload\n        /* \"diamonds/facets/FacetEmergencyConsole.sol\":5147:5165  emergencyConsole() */\n      tag_237\n        /* \"diamonds/facets/FacetEmergencyConsole.sol\":5147:5163  emergencyConsole */\n      tag_111\n        /* \"diamonds/facets/FacetEmergencyConsole.sol\":5147:5165  emergencyConsole() */\n      jump\t// in\n    tag_237:\n        /* \"diamonds/facets/FacetEmergencyConsole.sol\":5147:5183  emergencyConsole().emergencyRequests */\n      0x02\n      add\n        /* \"diamonds/facets/FacetEmergencyConsole.sol\":5184:5189  newId */\n      dup3\n        /* \"diamonds/facets/FacetEmergencyConsole.sol\":5147:5190  emergencyConsole().emergencyRequests[newId] */\n      dup2\n      sload\n      dup2\n      lt\n      tag_239\n      jumpi\n      tag_239\n      tag_114\n      jump\t// in\n    tag_239:\n      swap1\n      0x00\n      mstore\n      keccak256(0x00, 0x20)\n      swap1\n      0x0a\n      mul\n      add\n        /* \"diamonds/facets/FacetEmergencyConsole.sol\":5147:5199  emergencyConsole().emergencyRequests[newId].duration */\n      0x07\n      add\n        /* \"diamonds/facets/FacetEmergencyConsole.sol\":5147:5233  emergencyConsole().emergencyRequests[newId].duration = emergencyConsole().delaySeconds */\n      dup2\n      swap1\n      sstore\n      pop\n        /* \"diamonds/facets/FacetEmergencyConsole.sol\":5321:5339  emergencyConsole() */\n      tag_241\n        /* \"diamonds/facets/FacetEmergencyConsole.sol\":5321:5337  emergencyConsole */\n      tag_111\n        /* \"diamonds/facets/FacetEmergencyConsole.sol\":5321:5339  emergencyConsole() */\n      jump\t// in\n    tag_241:\n        /* \"diamonds/facets/FacetEmergencyConsole.sol\":5321:5371  emergencyConsole().requiredSignaturesInBasisPoints */\n      0x03\n      add\n      sload\n        /* \"diamonds/facets/FacetEmergencyConsole.sol\":5243:5261  emergencyConsole() */\n      tag_242\n        /* \"diamonds/facets/FacetEmergencyConsole.sol\":5243:5259  emergencyConsole */\n      tag_111\n        /* \"diamonds/facets/FacetEmergencyConsole.sol\":5243:5261  emergencyConsole() */\n      jump\t// in\n    tag_242:\n        /* \"diamonds/facets/FacetEmergencyConsole.sol\":5243:5279  emergencyConsole().emergencyRequests */\n      0x02\n      add\n        /* \"diamonds/facets/FacetEmergencyConsole.sol\":5280:5285  newId */\n      dup3\n        /* \"diamonds/facets/FacetEmergencyConsole.sol\":5243:5286  emergencyConsole().emergencyRequests[newId] */\n      dup2\n      sload\n      dup2\n      lt\n      tag_244\n      jumpi\n      tag_244\n      tag_114\n      jump\t// in\n    tag_244:\n      swap1\n      0x00\n      mstore\n      keccak256(0x00, 0x20)\n      swap1\n      0x0a\n      mul\n      add\n        /* \"diamonds/facets/FacetEmergencyConsole.sol\":5243:5318  emergencyConsole().emergencyRequests[newId].requiredSignaturesInBasisPoints */\n      0x08\n      add\n        /* \"diamonds/facets/FacetEmergencyConsole.sol\":5243:5371  emergencyConsole().emergencyRequests[newId].requiredSignaturesInBasisPoints = emergencyConsole().requiredSignaturesInBasisPoints */\n      dup2\n      swap1\n      sstore\n      pop\n        /* \"diamonds/facets/FacetEmergencyConsole.sol\":5386:5392  uint i */\n      0x00\n        /* \"diamonds/facets/FacetEmergencyConsole.sol\":5381:5588  for (uint i = 0; i < emergencyConsole().emergencyOperators.length(); i++) {... */\n    tag_246:\n        /* \"diamonds/facets/FacetEmergencyConsole.sol\":5402:5448  emergencyConsole().emergencyOperators.length() */\n      tag_249\n        /* \"diamonds/facets/FacetEmergencyConsole.sol\":5402:5420  emergencyConsole() */\n      tag_250\n        /* \"diamonds/facets/FacetEmergencyConsole.sol\":5402:5418  emergencyConsole */\n      tag_111\n        /* \"diamonds/facets/FacetEmergencyConsole.sol\":5402:5420  emergencyConsole() */\n      jump\t// in\n    tag_250:\n        /* \"diamonds/facets/FacetEmergencyConsole.sol\":5402:5446  emergencyConsole().emergencyOperators.length */\n      tag_251\n        /* \"diamonds/facets/FacetEmergencyConsole.sol\":5402:5448  emergencyConsole().emergencyOperators.length() */\n      jump\t// in\n    tag_249:\n        /* \"diamonds/facets/FacetEmergencyConsole.sol\":5398:5399  i */\n      dup2\n        /* \"diamonds/facets/FacetEmergencyConsole.sol\":5398:5448  i < emergencyConsole().emergencyOperators.length() */\n      lt\n        /* \"diamonds/facets/FacetEmergencyConsole.sol\":5381:5588  for (uint i = 0; i < emergencyConsole().emergencyOperators.length(); i++) {... */\n      iszero\n      tag_247\n      jumpi\n        /* \"diamonds/facets/FacetEmergencyConsole.sol\":5469:5577  emergencyConsole().emergencyRequests[newId].expectedSigners.add(emergencyConsole().emergencyOperators.at(i)) */\n      tag_252\n        /* \"diamonds/facets/FacetEmergencyConsole.sol\":5533:5576  emergencyConsole().emergencyOperators.at(i) */\n      tag_253\n        /* \"diamonds/facets/FacetEmergencyConsole.sol\":5574:5575  i */\n      dup3\n        /* \"diamonds/facets/FacetEmergencyConsole.sol\":5533:5551  emergencyConsole() */\n      tag_129\n        /* \"diamonds/facets/FacetEmergencyConsole.sol\":5533:5549  emergencyConsole */\n      tag_111\n        /* \"diamonds/facets/FacetEmergencyConsole.sol\":5533:5551  emergencyConsole() */\n      jump\t// in\n        /* \"diamonds/facets/FacetEmergencyConsole.sol\":5533:5576  emergencyConsole().emergencyOperators.at(i) */\n    tag_253:\n        /* \"diamonds/facets/FacetEmergencyConsole.sol\":5469:5487  emergencyConsole() */\n      tag_255\n        /* \"diamonds/facets/FacetEmergencyConsole.sol\":5469:5485  emergencyConsole */\n      tag_111\n        /* \"diamonds/facets/FacetEmergencyConsole.sol\":5469:5487  emergencyConsole() */\n      jump\t// in\n    tag_255:\n        /* \"diamonds/facets/FacetEmergencyConsole.sol\":5469:5505  emergencyConsole().emergencyRequests */\n      0x02\n      add\n        /* \"diamonds/facets/FacetEmergencyConsole.sol\":5506:5511  newId */\n      dup5\n        /* \"diamonds/facets/FacetEmergencyConsole.sol\":5469:5512  emergencyConsole().emergencyRequests[newId] */\n      dup2\n      sload\n      dup2\n      lt\n      tag_257\n      jumpi\n      tag_257\n      tag_114\n      jump\t// in\n    tag_257:\n      0x00\n      swap2\n      dup3\n      mstore\n      0x20\n      swap1\n      swap2\n      keccak256\n      0x0a\n      swap1\n      swap2\n      mul\n      add\n      swap1\n        /* \"diamonds/facets/FacetEmergencyConsole.sol\":5469:5532  emergencyConsole().emergencyRequests[newId].expectedSigners.add */\n      tag_148\n        /* \"diamonds/facets/FacetEmergencyConsole.sol\":5469:5577  emergencyConsole().emergencyRequests[newId].expectedSigners.add(emergencyConsole().emergencyOperators.at(i)) */\n      jump\t// in\n    tag_252:\n      pop\n        /* \"diamonds/facets/FacetEmergencyConsole.sol\":5450:5453  i++ */\n      dup1\n      tag_259\n      dup2\n      tag_260\n      jump\t// in\n    tag_259:\n      swap2\n      pop\n      pop\n        /* \"diamonds/facets/FacetEmergencyConsole.sol\":5381:5588  for (uint i = 0; i < emergencyConsole().emergencyOperators.length(); i++) {... */\n      jump(tag_246)\n    tag_247:\n      pop\n        /* \"diamonds/facets/FacetEmergencyConsole.sol\":5652:5657  false */\n      0x00\n        /* \"diamonds/facets/FacetEmergencyConsole.sol\":5597:5615  emergencyConsole() */\n      tag_261\n        /* \"diamonds/facets/FacetEmergencyConsole.sol\":5597:5613  emergencyConsole */\n      tag_111\n        /* \"diamonds/facets/FacetEmergencyConsole.sol\":5597:5615  emergencyConsole() */\n      jump\t// in\n    tag_261:\n        /* \"diamonds/facets/FacetEmergencyConsole.sol\":5597:5633  emergencyConsole().emergencyRequests */\n      0x02\n      add\n        /* \"diamonds/facets/FacetEmergencyConsole.sol\":5634:5639  newId */\n      dup3\n        /* \"diamonds/facets/FacetEmergencyConsole.sol\":5597:5640  emergencyConsole().emergencyRequests[newId] */\n      dup2\n      sload\n      dup2\n      lt\n      tag_263\n      jumpi\n      tag_263\n      tag_114\n      jump\t// in\n    tag_263:\n      0x00\n      swap2\n      dup3\n      mstore\n      0x20\n      swap1\n      swap2\n      keccak256\n      0x0a\n      swap1\n      swap2\n      mul\n      add\n        /* \"diamonds/facets/FacetEmergencyConsole.sol\":5597:5649  emergencyConsole().emergencyRequests[newId].executed */\n      0x09\n      add\n        /* \"diamonds/facets/FacetEmergencyConsole.sol\":5597:5657  emergencyConsole().emergencyRequests[newId].executed = false */\n      dup1\n      sload\n      not(0xff)\n      and\n      swap2\n      iszero\n      iszero\n      swap2\n      swap1\n      swap2\n      or\n      swap1\n      sstore\n        /* \"diamonds/facets/FacetEmergencyConsole.sol\":5672:5708  NewEmergencyRequest(newId, to, args) */\n      mload(0x40)\n      tag_265\n      swap1\n        /* \"diamonds/facets/FacetEmergencyConsole.sol\":5703:5707  args */\n      dup5\n      swap1\n        /* \"diamonds/facets/FacetEmergencyConsole.sol\":5672:5708  NewEmergencyRequest(newId, to, args) */\n      tag_266\n      jump\t// in\n    tag_265:\n      mload(0x40)\n      swap1\n      dup2\n      swap1\n      sub\n      dup2\n      keccak256\n      swap1\n      sub(shl(0xa0, 0x01), 0x01)\n      dup7\n      and\n      swap1\n        /* \"diamonds/facets/FacetEmergencyConsole.sol\":5692:5697  newId */\n      dup4\n      swap1\n        /* \"diamonds/facets/FacetEmergencyConsole.sol\":5672:5708  NewEmergencyRequest(newId, to, args) */\n      0xc9126753fedc269b93024d5f733c6b59ad9944ff77a1cbc233590df6d6124c70\n      swap1\n      0x00\n      swap1\n      log4\n        /* \"diamonds/facets/FacetEmergencyConsole.sol\":5725:5730  newId */\n      swap4\n        /* \"diamonds/facets/FacetEmergencyConsole.sol\":4586:5737  function emergencyRequest(address to, bytes memory args) public virtual returns (uint) {... */\n      swap3\n      pop\n      pop\n      pop\n      jump\t// out\n        /* \"diamonds/facets/FacetEmergencyConsole.sol\":3584:3796  function getEmergencyRequestExpectedSigner(uint requestId, uint signerId) public view virtual returns (address) {... */\n    tag_90:\n        /* \"diamonds/facets/FacetEmergencyConsole.sol\":3687:3694  address */\n      0x00\n        /* \"diamonds/facets/FacetEmergencyConsole.sol\":3713:3789  emergencyConsole().emergencyRequests[requestId].expectedSigners.at(signerId) */\n      tag_268\n        /* \"diamonds/facets/FacetEmergencyConsole.sol\":3780:3788  signerId */\n      dup3\n        /* \"diamonds/facets/FacetEmergencyConsole.sol\":3713:3731  emergencyConsole() */\n      tag_269\n        /* \"diamonds/facets/FacetEmergencyConsole.sol\":3713:3729  emergencyConsole */\n      tag_111\n        /* \"diamonds/facets/FacetEmergencyConsole.sol\":3713:3731  emergencyConsole() */\n      jump\t// in\n    tag_269:\n        /* \"diamonds/facets/FacetEmergencyConsole.sol\":3713:3749  emergencyConsole().emergencyRequests */\n      0x02\n      add\n        /* \"diamonds/facets/FacetEmergencyConsole.sol\":3750:3759  requestId */\n      dup6\n        /* \"diamonds/facets/FacetEmergencyConsole.sol\":3713:3760  emergencyConsole().emergencyRequests[requestId] */\n      dup2\n      sload\n      dup2\n      lt\n      tag_271\n      jumpi\n      tag_271\n      tag_114\n      jump\t// in\n    tag_271:\n      0x00\n      swap2\n      dup3\n      mstore\n      0x20\n      swap1\n      swap2\n      keccak256\n      0x0a\n      swap1\n      swap2\n      mul\n      add\n      swap1\n        /* \"diamonds/facets/FacetEmergencyConsole.sol\":3713:3779  emergencyConsole().emergencyRequests[requestId].expectedSigners.at */\n      tag_130\n        /* \"diamonds/facets/FacetEmergencyConsole.sol\":3713:3789  emergencyConsole().emergencyRequests[requestId].expectedSigners.at(signerId) */\n      jump\t// in\n    tag_268:\n        /* \"diamonds/facets/FacetEmergencyConsole.sol\":3706:3789  return emergencyConsole().emergencyRequests[requestId].expectedSigners.at(signerId) */\n      swap4\n        /* \"diamonds/facets/FacetEmergencyConsole.sol\":3584:3796  function getEmergencyRequestExpectedSigner(uint requestId, uint signerId) public view virtual returns (address) {... */\n      swap3\n      pop\n      pop\n      pop\n      jump\t// out\n        /* \"diamonds/facets/FacetEmergencyConsole.sol\":2672:2835  function getEmergencyRequestTarget(uint requestId) public view virtual returns (address) {... */\n    tag_94:\n        /* \"diamonds/facets/FacetEmergencyConsole.sol\":2752:2759  address */\n      0x00\n        /* \"diamonds/facets/FacetEmergencyConsole.sol\":2778:2796  emergencyConsole() */\n      tag_274\n        /* \"diamonds/facets/FacetEmergencyConsole.sol\":2778:2794  emergencyConsole */\n      tag_111\n        /* \"diamonds/facets/FacetEmergencyConsole.sol\":2778:2796  emergencyConsole() */\n      jump\t// in\n    tag_274:\n        /* \"diamonds/facets/FacetEmergencyConsole.sol\":2778:2814  emergencyConsole().emergencyRequests */\n      0x02\n      add\n        /* \"diamonds/facets/FacetEmergencyConsole.sol\":2815:2824  requestId */\n      dup3\n        /* \"diamonds/facets/FacetEmergencyConsole.sol\":2778:2825  emergencyConsole().emergencyRequests[requestId] */\n      dup2\n      sload\n      dup2\n      lt\n      tag_276\n      jumpi\n      tag_276\n      tag_114\n      jump\t// in\n    tag_276:\n      0x00\n      swap2\n      dup3\n      mstore\n      0x20\n      swap1\n      swap2\n      keccak256\n        /* \"diamonds/facets/FacetEmergencyConsole.sol\":2778:2828  emergencyConsole().emergencyRequests[requestId].to */\n      0x04\n        /* \"diamonds/facets/FacetEmergencyConsole.sol\":2778:2825  emergencyConsole().emergencyRequests[requestId] */\n      0x0a\n      swap1\n      swap3\n      mul\n      add\n        /* \"diamonds/facets/FacetEmergencyConsole.sol\":2778:2828  emergencyConsole().emergencyRequests[requestId].to */\n      add\n      sload\n      sub(shl(0xa0, 0x01), 0x01)\n      and\n      swap3\n        /* \"diamonds/facets/FacetEmergencyConsole.sol\":2672:2835  function getEmergencyRequestTarget(uint requestId) public view virtual returns (address) {... */\n      swap2\n      pop\n      pop\n      jump\t// out\n        /* \"diamonds/facets/FacetEmergencyConsole.sol\":3994:4195  function getEmergencySignature(uint requestId, uint signatureId) public view virtual returns (address) {... */\n    tag_98:\n        /* \"diamonds/facets/FacetEmergencyConsole.sol\":4088:4095  address */\n      0x00\n        /* \"diamonds/facets/FacetEmergencyConsole.sol\":4114:4188  emergencyConsole().emergencyRequests[requestId].signatures.at(signatureId) */\n      tag_268\n        /* \"diamonds/facets/FacetEmergencyConsole.sol\":4176:4187  signatureId */\n      dup3\n        /* \"diamonds/facets/FacetEmergencyConsole.sol\":4114:4132  emergencyConsole() */\n      tag_280\n        /* \"diamonds/facets/FacetEmergencyConsole.sol\":4114:4130  emergencyConsole */\n      tag_111\n        /* \"diamonds/facets/FacetEmergencyConsole.sol\":4114:4132  emergencyConsole() */\n      jump\t// in\n    tag_280:\n        /* \"diamonds/facets/FacetEmergencyConsole.sol\":4114:4150  emergencyConsole().emergencyRequests */\n      0x02\n      add\n        /* \"diamonds/facets/FacetEmergencyConsole.sol\":4151:4160  requestId */\n      dup6\n        /* \"diamonds/facets/FacetEmergencyConsole.sol\":4114:4161  emergencyConsole().emergencyRequests[requestId] */\n      dup2\n      sload\n      dup2\n      lt\n      tag_282\n      jumpi\n      tag_282\n      tag_114\n      jump\t// in\n    tag_282:\n      swap1\n      0x00\n      mstore\n      keccak256(0x00, 0x20)\n      swap1\n      0x0a\n      mul\n      add\n        /* \"diamonds/facets/FacetEmergencyConsole.sol\":4114:4172  emergencyConsole().emergencyRequests[requestId].signatures */\n      0x02\n      add\n        /* \"diamonds/facets/FacetEmergencyConsole.sol\":4114:4175  emergencyConsole().emergencyRequests[requestId].signatures.at */\n      tag_130\n      swap1\n        /* \"diamonds/facets/FacetEmergencyConsole.sol\":4114:4188  emergencyConsole().emergencyRequests[requestId].signatures.at(signatureId) */\n      swap2\n      swap1\n      0xffffffff\n      and\n      jump\t// in\n        /* \"diamonds/facets/FacetEmergencyConsole.sol\":3015:3195  function getEmergencyRequestStartTimestamp(uint requestId) public view virtual returns (uint) {... */\n    tag_102:\n        /* \"diamonds/facets/FacetEmergencyConsole.sol\":3103:3107  uint */\n      0x00\n        /* \"diamonds/facets/FacetEmergencyConsole.sol\":3126:3144  emergencyConsole() */\n      tag_285\n        /* \"diamonds/facets/FacetEmergencyConsole.sol\":3126:3142  emergencyConsole */\n      tag_111\n        /* \"diamonds/facets/FacetEmergencyConsole.sol\":3126:3144  emergencyConsole() */\n      jump\t// in\n    tag_285:\n        /* \"diamonds/facets/FacetEmergencyConsole.sol\":3126:3162  emergencyConsole().emergencyRequests */\n      0x02\n      add\n        /* \"diamonds/facets/FacetEmergencyConsole.sol\":3163:3172  requestId */\n      dup3\n        /* \"diamonds/facets/FacetEmergencyConsole.sol\":3126:3173  emergencyConsole().emergencyRequests[requestId] */\n      dup2\n      sload\n      dup2\n      lt\n      tag_287\n      jumpi\n      tag_287\n      tag_114\n      jump\t// in\n    tag_287:\n      swap1\n      0x00\n      mstore\n      keccak256(0x00, 0x20)\n      swap1\n      0x0a\n      mul\n      add\n        /* \"diamonds/facets/FacetEmergencyConsole.sol\":3126:3188  emergencyConsole().emergencyRequests[requestId].startTimestamp */\n      0x06\n      add\n      sload\n        /* \"diamonds/facets/FacetEmergencyConsole.sol\":3119:3188  return emergencyConsole().emergencyRequests[requestId].startTimestamp */\n      swap1\n      pop\n        /* \"diamonds/facets/FacetEmergencyConsole.sol\":3015:3195  function getEmergencyRequestStartTimestamp(uint requestId) public view virtual returns (uint) {... */\n      swap2\n      swap1\n      pop\n      jump\t// out\n        /* \"diamonds/facets/FacetEmergencyConsole.sol\":6260:7623  function executeEmergencyRequest(uint requestId) public virtual returns (bool, bytes memory) {... */\n    tag_106:\n        /* \"diamonds/facets/FacetEmergencyConsole.sol\":6333:6337  bool */\n      0x00\n        /* \"diamonds/facets/FacetEmergencyConsole.sol\":6339:6351  bytes memory */\n      0x60\n        /* \"diamonds/facets/FacetEmergencyConsole.sol\":6371:6431  emergencyConsole().emergencyOperators.contains(_msgSender()) */\n      tag_290\n        /* \"imports/openzeppelin/utils/Context.sol\":720:730  msg.sender */\n      caller\n        /* \"diamonds/facets/FacetEmergencyConsole.sol\":6418:6430  _msgSender() */\n      tag_213\n        /* \"imports/openzeppelin/utils/Context.sol\":641:737  function _msgSender() internal view virtual returns (address) {... */\n      jump\n        /* \"diamonds/facets/FacetEmergencyConsole.sol\":6371:6431  emergencyConsole().emergencyOperators.contains(_msgSender()) */\n    tag_290:\n        /* \"diamonds/facets/FacetEmergencyConsole.sol\":6363:6482  require(emergencyConsole().emergencyOperators.contains(_msgSender()), 'FacetEmergencyConsole: only emergency operator') */\n      tag_293\n      jumpi\n      mload(0x40)\n      shl(0xe5, 0x461bcd)\n      dup2\n      mstore\n      0x04\n      add\n      tag_152\n      swap1\n      tag_217\n      jump\t// in\n    tag_293:\n        /* \"diamonds/facets/FacetEmergencyConsole.sol\":6492:6516  uint requestEndTimestamp */\n      0x00\n        /* \"diamonds/facets/FacetEmergencyConsole.sol\":6584:6602  emergencyConsole() */\n      tag_295\n        /* \"diamonds/facets/FacetEmergencyConsole.sol\":6584:6600  emergencyConsole */\n      tag_111\n        /* \"diamonds/facets/FacetEmergencyConsole.sol\":6584:6602  emergencyConsole() */\n      jump\t// in\n    tag_295:\n        /* \"diamonds/facets/FacetEmergencyConsole.sol\":6584:6620  emergencyConsole().emergencyRequests */\n      0x02\n      add\n        /* \"diamonds/facets/FacetEmergencyConsole.sol\":6621:6630  requestId */\n      dup5\n        /* \"diamonds/facets/FacetEmergencyConsole.sol\":6584:6631  emergencyConsole().emergencyRequests[requestId] */\n      dup2\n      sload\n      dup2\n      lt\n      tag_297\n      jumpi\n      tag_297\n      tag_114\n      jump\t// in\n    tag_297:\n      swap1\n      0x00\n      mstore\n      keccak256(0x00, 0x20)\n      swap1\n      0x0a\n      mul\n      add\n        /* \"diamonds/facets/FacetEmergencyConsole.sol\":6584:6640  emergencyConsole().emergencyRequests[requestId].duration */\n      0x07\n      add\n      sload\n        /* \"diamonds/facets/FacetEmergencyConsole.sol\":6519:6537  emergencyConsole() */\n      tag_299\n        /* \"diamonds/facets/FacetEmergencyConsole.sol\":6519:6535  emergencyConsole */\n      tag_111\n        /* \"diamonds/facets/FacetEmergencyConsole.sol\":6519:6537  emergencyConsole() */\n      jump\t// in\n    tag_299:\n        /* \"diamonds/facets/FacetEmergencyConsole.sol\":6519:6555  emergencyConsole().emergencyRequests */\n      0x02\n      add\n        /* \"diamonds/facets/FacetEmergencyConsole.sol\":6556:6565  requestId */\n      dup6\n        /* \"diamonds/facets/FacetEmergencyConsole.sol\":6519:6566  emergencyConsole().emergencyRequests[requestId] */\n      dup2\n      sload\n      dup2\n      lt\n      tag_301\n      jumpi\n      tag_301\n      tag_114\n      jump\t// in\n    tag_301:\n      swap1\n      0x00\n      mstore\n      keccak256(0x00, 0x20)\n      swap1\n      0x0a\n      mul\n      add\n        /* \"diamonds/facets/FacetEmergencyConsole.sol\":6519:6581  emergencyConsole().emergencyRequests[requestId].startTimestamp */\n      0x06\n      add\n      sload\n        /* \"diamonds/facets/FacetEmergencyConsole.sol\":6519:6640  emergencyConsole().emergencyRequests[requestId].startTimestamp + emergencyConsole().emergencyRequests[requestId].duration */\n      tag_303\n      swap2\n      swap1\n      tag_304\n      jump\t// in\n    tag_303:\n        /* \"diamonds/facets/FacetEmergencyConsole.sol\":6492:6640  uint requestEndTimestamp = emergencyConsole().emergencyRequests[requestId].startTimestamp + emergencyConsole().emergencyRequests[requestId].duration */\n      swap1\n      pop\n        /* \"diamonds/facets/FacetEmergencyConsole.sol\":6677:6696  requestEndTimestamp */\n      dup1\n        /* \"diamonds/facets/FacetEmergencyConsole.sol\":6658:6673  block.timestamp */\n      timestamp\n        /* \"diamonds/facets/FacetEmergencyConsole.sol\":6658:6696  block.timestamp >= requestEndTimestamp */\n      lt\n      iszero\n        /* \"diamonds/facets/FacetEmergencyConsole.sol\":6650:6755  require(block.timestamp >= requestEndTimestamp, 'FacetEmergencyConsole: emergency request is timelocked') */\n      tag_305\n      jumpi\n      mload(0x40)\n      shl(0xe5, 0x461bcd)\n      dup2\n      mstore\n        /* \"#utility.yul\":9651:9653   */\n      0x20\n        /* \"diamonds/facets/FacetEmergencyConsole.sol\":6650:6755  require(block.timestamp >= requestEndTimestamp, 'FacetEmergencyConsole: emergency request is timelocked') */\n      0x04\n      dup3\n      add\n        /* \"#utility.yul\":9633:9654   */\n      mstore\n        /* \"#utility.yul\":9690:9692   */\n      0x36\n        /* \"#utility.yul\":9670:9688   */\n      0x24\n      dup3\n      add\n        /* \"#utility.yul\":9663:9693   */\n      mstore\n        /* \"#utility.yul\":9729:9763   */\n      0x4661636574456d657267656e6379436f6e736f6c653a20656d657267656e6379\n        /* \"#utility.yul\":9709:9727   */\n      0x44\n      dup3\n      add\n        /* \"#utility.yul\":9702:9764   */\n      mstore\n      shl(0x52, 0x081c995c5d595cdd081a5cc81d1a5b595b1bd8dad959)\n        /* \"#utility.yul\":9780:9798   */\n      0x64\n      dup3\n      add\n        /* \"#utility.yul\":9773:9825   */\n      mstore\n        /* \"#utility.yul\":9842:9861   */\n      0x84\n      add\n        /* \"diamonds/facets/FacetEmergencyConsole.sol\":6650:6755  require(block.timestamp >= requestEndTimestamp, 'FacetEmergencyConsole: emergency request is timelocked') */\n      tag_152\n        /* \"#utility.yul\":9449:9867   */\n      jump\n        /* \"diamonds/facets/FacetEmergencyConsole.sol\":6650:6755  require(block.timestamp >= requestEndTimestamp, 'FacetEmergencyConsole: emergency request is timelocked') */\n    tag_305:\n        /* \"diamonds/facets/FacetEmergencyConsole.sol\":6774:6792  emergencyConsole() */\n      tag_308\n        /* \"diamonds/facets/FacetEmergencyConsole.sol\":6774:6790  emergencyConsole */\n      tag_111\n        /* \"diamonds/facets/FacetEmergencyConsole.sol\":6774:6792  emergencyConsole() */\n      jump\t// in\n    tag_308:\n        /* \"diamonds/facets/FacetEmergencyConsole.sol\":6774:6810  emergencyConsole().emergencyRequests */\n      0x02\n      add\n        /* \"diamonds/facets/FacetEmergencyConsole.sol\":6811:6820  requestId */\n      dup5\n        /* \"diamonds/facets/FacetEmergencyConsole.sol\":6774:6821  emergencyConsole().emergencyRequests[requestId] */\n      dup2\n      sload\n      dup2\n      lt\n      tag_310\n      jumpi\n      tag_310\n      tag_114\n      jump\t// in\n    tag_310:\n      0x00\n      swap2\n      dup3\n      mstore\n      0x20\n      swap1\n      swap2\n      keccak256\n        /* \"diamonds/facets/FacetEmergencyConsole.sol\":6774:6830  emergencyConsole().emergencyRequests[requestId].executed */\n      0x09\n        /* \"diamonds/facets/FacetEmergencyConsole.sol\":6774:6821  emergencyConsole().emergencyRequests[requestId] */\n      0x0a\n      swap1\n      swap3\n      mul\n      add\n        /* \"diamonds/facets/FacetEmergencyConsole.sol\":6774:6830  emergencyConsole().emergencyRequests[requestId].executed */\n      add\n      sload\n      0xff\n      and\n        /* \"diamonds/facets/FacetEmergencyConsole.sol\":6773:6830  !emergencyConsole().emergencyRequests[requestId].executed */\n      iszero\n        /* \"diamonds/facets/FacetEmergencyConsole.sol\":6765:6892  require(!emergencyConsole().emergencyRequests[requestId].executed, 'FacetEmergencyConsole: emergency request already executed') */\n      tag_312\n      jumpi\n      mload(0x40)\n      shl(0xe5, 0x461bcd)\n      dup2\n      mstore\n        /* \"#utility.yul\":10074:10076   */\n      0x20\n        /* \"diamonds/facets/FacetEmergencyConsole.sol\":6765:6892  require(!emergencyConsole().emergencyRequests[requestId].executed, 'FacetEmergencyConsole: emergency request already executed') */\n      0x04\n      dup3\n      add\n        /* \"#utility.yul\":10056:10077   */\n      mstore\n        /* \"#utility.yul\":10113:10115   */\n      0x39\n        /* \"#utility.yul\":10093:10111   */\n      0x24\n      dup3\n      add\n        /* \"#utility.yul\":10086:10116   */\n      mstore\n        /* \"#utility.yul\":10152:10186   */\n      0x4661636574456d657267656e6379436f6e736f6c653a20656d657267656e6379\n        /* \"#utility.yul\":10132:10150   */\n      0x44\n      dup3\n      add\n        /* \"#utility.yul\":10125:10187   */\n      mstore\n        /* \"#utility.yul\":10223:10250   */\n      0x207265717565737420616c726561647920657865637574656400000000000000\n        /* \"#utility.yul\":10203:10221   */\n      0x64\n      dup3\n      add\n        /* \"#utility.yul\":10196:10251   */\n      mstore\n        /* \"#utility.yul\":10268:10287   */\n      0x84\n      add\n        /* \"diamonds/facets/FacetEmergencyConsole.sol\":6765:6892  require(!emergencyConsole().emergencyRequests[requestId].executed, 'FacetEmergencyConsole: emergency request already executed') */\n      tag_152\n        /* \"#utility.yul\":9872:10293   */\n      jump\n        /* \"diamonds/facets/FacetEmergencyConsole.sol\":6765:6892  require(!emergencyConsole().emergencyRequests[requestId].executed, 'FacetEmergencyConsole: emergency request already executed') */\n    tag_312:\n        /* \"diamonds/facets/FacetEmergencyConsole.sol\":6902:6930  bool hasSufficientSignatures */\n      0x00\n        /* \"diamonds/facets/FacetEmergencyConsole.sol\":7091:7109  emergencyConsole() */\n      tag_315\n        /* \"diamonds/facets/FacetEmergencyConsole.sol\":7091:7107  emergencyConsole */\n      tag_111\n        /* \"diamonds/facets/FacetEmergencyConsole.sol\":7091:7109  emergencyConsole() */\n      jump\t// in\n    tag_315:\n        /* \"diamonds/facets/FacetEmergencyConsole.sol\":7091:7141  emergencyConsole().requiredSignaturesInBasisPoints */\n      0x03\n      add\n      sload\n        /* \"diamonds/facets/FacetEmergencyConsole.sol\":7014:7086  emergencyConsole().emergencyRequests[requestId].expectedSigners.length() */\n      tag_316\n        /* \"diamonds/facets/FacetEmergencyConsole.sol\":7014:7032  emergencyConsole() */\n      tag_317\n        /* \"diamonds/facets/FacetEmergencyConsole.sol\":7014:7030  emergencyConsole */\n      tag_111\n        /* \"diamonds/facets/FacetEmergencyConsole.sol\":7014:7032  emergencyConsole() */\n      jump\t// in\n    tag_317:\n        /* \"diamonds/facets/FacetEmergencyConsole.sol\":7014:7050  emergencyConsole().emergencyRequests */\n      0x02\n      add\n        /* \"diamonds/facets/FacetEmergencyConsole.sol\":7051:7060  requestId */\n      dup8\n        /* \"diamonds/facets/FacetEmergencyConsole.sol\":7014:7061  emergencyConsole().emergencyRequests[requestId] */\n      dup2\n      sload\n      dup2\n      lt\n      tag_319\n      jumpi\n      tag_319\n      tag_114\n      jump\t// in\n    tag_319:\n      swap1\n      0x00\n      mstore\n      keccak256(0x00, 0x20)\n      swap1\n      0x0a\n      mul\n      add\n        /* \"diamonds/facets/FacetEmergencyConsole.sol\":7014:7077  emergencyConsole().emergencyRequests[requestId].expectedSigners */\n      0x00\n      add\n        /* \"diamonds/facets/FacetEmergencyConsole.sol\":7014:7084  emergencyConsole().emergencyRequests[requestId].expectedSigners.length */\n      tag_251\n        /* \"diamonds/facets/FacetEmergencyConsole.sol\":7014:7086  emergencyConsole().emergencyRequests[requestId].expectedSigners.length() */\n      jump\t// in\n    tag_316:\n        /* \"diamonds/facets/FacetEmergencyConsole.sol\":6935:7002  emergencyConsole().emergencyRequests[requestId].signatures.length() */\n      tag_321\n        /* \"diamonds/facets/FacetEmergencyConsole.sol\":6935:6953  emergencyConsole() */\n      tag_322\n        /* \"diamonds/facets/FacetEmergencyConsole.sol\":6935:6951  emergencyConsole */\n      tag_111\n        /* \"diamonds/facets/FacetEmergencyConsole.sol\":6935:6953  emergencyConsole() */\n      jump\t// in\n    tag_322:\n        /* \"diamonds/facets/FacetEmergencyConsole.sol\":6935:6971  emergencyConsole().emergencyRequests */\n      0x02\n      add\n        /* \"diamonds/facets/FacetEmergencyConsole.sol\":6972:6981  requestId */\n      dup9\n        /* \"diamonds/facets/FacetEmergencyConsole.sol\":6935:6982  emergencyConsole().emergencyRequests[requestId] */\n      dup2\n      sload\n      dup2\n      lt\n      tag_324\n      jumpi\n      tag_324\n      tag_114\n      jump\t// in\n    tag_324:\n      swap1\n      0x00\n      mstore\n      keccak256(0x00, 0x20)\n      swap1\n      0x0a\n      mul\n      add\n        /* \"diamonds/facets/FacetEmergencyConsole.sol\":6935:6993  emergencyConsole().emergencyRequests[requestId].signatures */\n      0x02\n      add\n        /* \"diamonds/facets/FacetEmergencyConsole.sol\":6935:7000  emergencyConsole().emergencyRequests[requestId].signatures.length */\n      tag_251\n        /* \"diamonds/facets/FacetEmergencyConsole.sol\":6935:7002  emergencyConsole().emergencyRequests[requestId].signatures.length() */\n      jump\t// in\n    tag_321:\n        /* \"diamonds/facets/FacetEmergencyConsole.sol\":6935:7010  emergencyConsole().emergencyRequests[requestId].signatures.length() * 10000 */\n      tag_326\n      swap1\n        /* \"diamonds/facets/FacetEmergencyConsole.sol\":7005:7010  10000 */\n      0x2710\n        /* \"diamonds/facets/FacetEmergencyConsole.sol\":6935:7010  emergencyConsole().emergencyRequests[requestId].signatures.length() * 10000 */\n      tag_327\n      jump\t// in\n    tag_326:\n        /* \"diamonds/facets/FacetEmergencyConsole.sol\":6934:7086  (emergencyConsole().emergencyRequests[requestId].signatures.length() * 10000) / emergencyConsole().emergencyRequests[requestId].expectedSigners.length() */\n      tag_328\n      swap2\n      swap1\n      tag_329\n      jump\t// in\n    tag_328:\n        /* \"diamonds/facets/FacetEmergencyConsole.sol\":6933:7141  ((emergencyConsole().emergencyRequests[requestId].signatures.length() * 10000) / emergencyConsole().emergencyRequests[requestId].expectedSigners.length()) >= emergencyConsole().requiredSignaturesInBasisPoints */\n      lt\n      iszero\n        /* \"diamonds/facets/FacetEmergencyConsole.sol\":6902:7141  bool hasSufficientSignatures = ((emergencyConsole().emergencyRequests[requestId].signatures.length() * 10000) / emergencyConsole().emergencyRequests[requestId].expectedSigners.length()) >= emergencyConsole().requiredSignaturesInBasisPoints */\n      swap1\n      pop\n        /* \"diamonds/facets/FacetEmergencyConsole.sol\":7159:7182  hasSufficientSignatures */\n      dup1\n        /* \"diamonds/facets/FacetEmergencyConsole.sol\":7151:7233  require(hasSufficientSignatures, 'FacetEmergencyConsole: insufficient signatures') */\n      tag_330\n      jumpi\n      mload(0x40)\n      shl(0xe5, 0x461bcd)\n      dup2\n      mstore\n        /* \"#utility.yul\":10895:10897   */\n      0x20\n        /* \"diamonds/facets/FacetEmergencyConsole.sol\":7151:7233  require(hasSufficientSignatures, 'FacetEmergencyConsole: insufficient signatures') */\n      0x04\n      dup3\n      add\n        /* \"#utility.yul\":10877:10898   */\n      mstore\n        /* \"#utility.yul\":10934:10936   */\n      0x2e\n        /* \"#utility.yul\":10914:10932   */\n      0x24\n      dup3\n      add\n        /* \"#utility.yul\":10907:10937   */\n      mstore\n        /* \"#utility.yul\":10973:11007   */\n      0x4661636574456d657267656e6379436f6e736f6c653a20696e73756666696369\n        /* \"#utility.yul\":10953:10971   */\n      0x44\n      dup3\n      add\n        /* \"#utility.yul\":10946:11008   */\n      mstore\n      shl(0x90, 0x656e74207369676e617475726573)\n        /* \"#utility.yul\":11024:11042   */\n      0x64\n      dup3\n      add\n        /* \"#utility.yul\":11017:11061   */\n      mstore\n        /* \"#utility.yul\":11078:11097   */\n      0x84\n      add\n        /* \"diamonds/facets/FacetEmergencyConsole.sol\":7151:7233  require(hasSufficientSignatures, 'FacetEmergencyConsole: insufficient signatures') */\n      tag_152\n        /* \"#utility.yul\":10693:11103   */\n      jump\n        /* \"diamonds/facets/FacetEmergencyConsole.sol\":7151:7233  require(hasSufficientSignatures, 'FacetEmergencyConsole: insufficient signatures') */\n    tag_330:\n        /* \"diamonds/facets/FacetEmergencyConsole.sol\":7243:7257  address target */\n      0x00\n        /* \"diamonds/facets/FacetEmergencyConsole.sol\":7260:7278  emergencyConsole() */\n      tag_333\n        /* \"diamonds/facets/FacetEmergencyConsole.sol\":7260:7276  emergencyConsole */\n      tag_111\n        /* \"diamonds/facets/FacetEmergencyConsole.sol\":7260:7278  emergencyConsole() */\n      jump\t// in\n    tag_333:\n        /* \"diamonds/facets/FacetEmergencyConsole.sol\":7260:7296  emergencyConsole().emergencyRequests */\n      0x02\n      add\n        /* \"diamonds/facets/FacetEmergencyConsole.sol\":7297:7306  requestId */\n      dup7\n        /* \"diamonds/facets/FacetEmergencyConsole.sol\":7260:7307  emergencyConsole().emergencyRequests[requestId] */\n      dup2\n      sload\n      dup2\n      lt\n      tag_335\n      jumpi\n      tag_335\n      tag_114\n      jump\t// in\n    tag_335:\n      0x00\n      swap2\n      dup3\n      mstore\n      0x20\n      dup3\n      keccak256\n        /* \"diamonds/facets/FacetEmergencyConsole.sol\":7260:7310  emergencyConsole().emergencyRequests[requestId].to */\n      0x04\n        /* \"diamonds/facets/FacetEmergencyConsole.sol\":7260:7307  emergencyConsole().emergencyRequests[requestId] */\n      0x0a\n      swap1\n      swap3\n      mul\n      add\n        /* \"diamonds/facets/FacetEmergencyConsole.sol\":7260:7310  emergencyConsole().emergencyRequests[requestId].to */\n      add\n      sload\n      sub(shl(0xa0, 0x01), 0x01)\n      and\n      swap2\n      pop\n        /* \"diamonds/facets/FacetEmergencyConsole.sol\":7340:7358  emergencyConsole() */\n      tag_337\n        /* \"diamonds/facets/FacetEmergencyConsole.sol\":7340:7356  emergencyConsole */\n      tag_111\n        /* \"diamonds/facets/FacetEmergencyConsole.sol\":7340:7358  emergencyConsole() */\n      jump\t// in\n    tag_337:\n        /* \"diamonds/facets/FacetEmergencyConsole.sol\":7340:7376  emergencyConsole().emergencyRequests */\n      0x02\n      add\n        /* \"diamonds/facets/FacetEmergencyConsole.sol\":7377:7386  requestId */\n      dup8\n        /* \"diamonds/facets/FacetEmergencyConsole.sol\":7340:7387  emergencyConsole().emergencyRequests[requestId] */\n      dup2\n      sload\n      dup2\n      lt\n      tag_339\n      jumpi\n      tag_339\n      tag_114\n      jump\t// in\n    tag_339:\n      swap1\n      0x00\n      mstore\n      keccak256(0x00, 0x20)\n      swap1\n      0x0a\n      mul\n      add\n        /* \"diamonds/facets/FacetEmergencyConsole.sol\":7340:7392  emergencyConsole().emergencyRequests[requestId].args */\n      0x05\n      add\n        /* \"diamonds/facets/FacetEmergencyConsole.sol\":7320:7392  bytes memory args = emergencyConsole().emergencyRequests[requestId].args */\n      dup1\n      sload\n      tag_341\n      swap1\n      tag_117\n      jump\t// in\n    tag_341:\n      dup1\n      0x1f\n      add\n      0x20\n      dup1\n      swap2\n      div\n      mul\n      0x20\n      add\n      mload(0x40)\n      swap1\n      dup2\n      add\n      0x40\n      mstore\n      dup1\n      swap3\n      swap2\n      swap1\n      dup2\n      dup2\n      mstore\n      0x20\n      add\n      dup3\n      dup1\n      sload\n      tag_342\n      swap1\n      tag_117\n      jump\t// in\n    tag_342:\n      dup1\n      iszero\n      tag_343\n      jumpi\n      dup1\n      0x1f\n      lt\n      tag_344\n      jumpi\n      0x0100\n      dup1\n      dup4\n      sload\n      div\n      mul\n      dup4\n      mstore\n      swap2\n      0x20\n      add\n      swap2\n      jump(tag_343)\n    tag_344:\n      dup3\n      add\n      swap2\n      swap1\n      0x00\n      mstore\n      keccak256(0x00, 0x20)\n      swap1\n    tag_345:\n      dup2\n      sload\n      dup2\n      mstore\n      swap1\n      0x01\n      add\n      swap1\n      0x20\n      add\n      dup1\n      dup4\n      gt\n      tag_345\n      jumpi\n      dup3\n      swap1\n      sub\n      0x1f\n      and\n      dup3\n      add\n      swap2\n    tag_343:\n      pop\n      pop\n      pop\n      pop\n      pop\n      swap1\n      pop\n        /* \"diamonds/facets/FacetEmergencyConsole.sol\":7403:7415  bool success */\n      0x00\n        /* \"diamonds/facets/FacetEmergencyConsole.sol\":7417:7438  bytes memory response */\n      dup1\n        /* \"diamonds/facets/FacetEmergencyConsole.sol\":7442:7448  target */\n      dup4\n      sub(shl(0xa0, 0x01), 0x01)\n        /* \"diamonds/facets/FacetEmergencyConsole.sol\":7442:7453  target.call */\n      and\n        /* \"diamonds/facets/FacetEmergencyConsole.sol\":7454:7458  args */\n      dup4\n        /* \"diamonds/facets/FacetEmergencyConsole.sol\":7442:7459  target.call(args) */\n      mload(0x40)\n      tag_346\n      swap2\n      swap1\n      tag_266\n      jump\t// in\n    tag_346:\n      0x00\n      mload(0x40)\n      dup1\n      dup4\n      sub\n      dup2\n      0x00\n      dup7\n      gas\n      call\n      swap2\n      pop\n      pop\n      returndatasize\n      dup1\n      0x00\n      dup2\n      eq\n      tag_349\n      jumpi\n      mload(0x40)\n      swap2\n      pop\n      and(add(returndatasize, 0x3f), not(0x1f))\n      dup3\n      add\n      0x40\n      mstore\n      returndatasize\n      dup3\n      mstore\n      returndatasize\n      0x00\n      0x20\n      dup5\n      add\n      returndatacopy\n      jump(tag_348)\n    tag_349:\n      0x60\n      swap2\n      pop\n    tag_348:\n      pop\n        /* \"diamonds/facets/FacetEmergencyConsole.sol\":7402:7459  (bool success, bytes memory response) = target.call(args) */\n      swap2\n      pop\n      swap2\n      pop\n        /* \"diamonds/facets/FacetEmergencyConsole.sol\":7528:7532  true */\n      0x01\n        /* \"diamonds/facets/FacetEmergencyConsole.sol\":7469:7487  emergencyConsole() */\n      tag_350\n        /* \"diamonds/facets/FacetEmergencyConsole.sol\":7469:7485  emergencyConsole */\n      tag_111\n        /* \"diamonds/facets/FacetEmergencyConsole.sol\":7469:7487  emergencyConsole() */\n      jump\t// in\n    tag_350:\n        /* \"diamonds/facets/FacetEmergencyConsole.sol\":7469:7505  emergencyConsole().emergencyRequests */\n      0x02\n      add\n        /* \"diamonds/facets/FacetEmergencyConsole.sol\":7506:7515  requestId */\n      dup11\n        /* \"diamonds/facets/FacetEmergencyConsole.sol\":7469:7516  emergencyConsole().emergencyRequests[requestId] */\n      dup2\n      sload\n      dup2\n      lt\n      tag_352\n      jumpi\n      tag_352\n      tag_114\n      jump\t// in\n    tag_352:\n      0x00\n      swap2\n      dup3\n      mstore\n      0x20\n      dup3\n      keccak256\n      0x0a\n      swap2\n      swap1\n      swap2\n      mul\n      add\n        /* \"diamonds/facets/FacetEmergencyConsole.sol\":7469:7525  emergencyConsole().emergencyRequests[requestId].executed */\n      0x09\n      add\n        /* \"diamonds/facets/FacetEmergencyConsole.sol\":7469:7532  emergencyConsole().emergencyRequests[requestId].executed = true */\n      dup1\n      sload\n      not(0xff)\n      and\n      swap3\n      iszero\n      iszero\n      swap3\n      swap1\n      swap3\n      or\n      swap1\n      swap2\n      sstore\n        /* \"diamonds/facets/FacetEmergencyConsole.sol\":7547:7580  EmergencyRequestPassed(requestId) */\n      mload(0x40)\n        /* \"diamonds/facets/FacetEmergencyConsole.sol\":7570:7579  requestId */\n      dup11\n      swap2\n        /* \"diamonds/facets/FacetEmergencyConsole.sol\":7547:7580  EmergencyRequestPassed(requestId) */\n      0x5b9d5bd381bd2bbecc9dc1a2bbaa7eb0a074191ad5e8f14605b3993e0e1679f1\n      swap2\n      log2\n        /* \"diamonds/facets/FacetEmergencyConsole.sol\":7598:7605  success */\n      swap1\n      swap9\n        /* \"diamonds/facets/FacetEmergencyConsole.sol\":7607:7615  response */\n      swap1\n      swap8\n      pop\n        /* \"diamonds/facets/FacetEmergencyConsole.sol\":6260:7623  function executeEmergencyRequest(uint requestId) public virtual returns (bool, bytes memory) {... */\n      swap6\n      pop\n      pop\n      pop\n      pop\n      pop\n      pop\n      jump\t// out\n        /* \"diamonds/facets/slots/SlotEmergencyConsole.sol\":809:1017  function emergencyConsole() internal pure virtual returns (StorageEmergencyConsole storage s) {... */\n    tag_111:\n        /* \"diamonds/facets/slots/SlotEmergencyConsole.sol\":258:293  keccak256('slot.emergency.console') */\n      0xaa2c9fde45f1d226339092d8009e028be3452848d3f6b92b731ecf82c0d31f74\n      swap1\n        /* \"diamonds/facets/slots/SlotEmergencyConsole.sol\":809:1017  function emergencyConsole() internal pure virtual returns (StorageEmergencyConsole storage s) {... */\n      jump\t// out\n        /* \"imports/openzeppelin/utils/structs/EnumerableSet.sol\":9564:9720  function at(AddressSet storage set, uint256 index) internal view returns (address) {... */\n    tag_130:\n        /* \"imports/openzeppelin/utils/structs/EnumerableSet.sol\":9638:9645  address */\n      0x00\n        /* \"imports/openzeppelin/utils/structs/EnumerableSet.sol\":9688:9710  _at(set._inner, index) */\n      tag_268\n        /* \"imports/openzeppelin/utils/structs/EnumerableSet.sol\":9692:9695  set */\n      dup4\n        /* \"imports/openzeppelin/utils/structs/EnumerableSet.sol\":9704:9709  index */\n      dup4\n        /* \"imports/openzeppelin/utils/structs/EnumerableSet.sol\":9688:9691  _at */\n      tag_357\n        /* \"imports/openzeppelin/utils/structs/EnumerableSet.sol\":9688:9710  _at(set._inner, index) */\n      jump\t// in\n        /* \"imports/openzeppelin/utils/structs/EnumerableSet.sol\":10260:10560  function values(AddressSet storage set) internal view returns (address[] memory) {... */\n    tag_142:\n        /* \"imports/openzeppelin/utils/structs/EnumerableSet.sol\":10323:10339  address[] memory */\n      0x60\n        /* \"imports/openzeppelin/utils/structs/EnumerableSet.sol\":10351:10373  bytes32[] memory store */\n      0x00\n        /* \"imports/openzeppelin/utils/structs/EnumerableSet.sol\":10376:10395  _values(set._inner) */\n      tag_268\n        /* \"imports/openzeppelin/utils/structs/EnumerableSet.sol\":10384:10387  set */\n      dup4\n        /* \"imports/openzeppelin/utils/structs/EnumerableSet.sol\":10376:10383  _values */\n      tag_360\n        /* \"imports/openzeppelin/utils/structs/EnumerableSet.sol\":10376:10395  _values(set._inner) */\n      jump\t// in\n        /* \"diamonds/facets/FacetEmergencyConsole.sol\":7629:7740  function _onlySelf() internal view virtual {... */\n    tag_145:\n        /* \"imports/openzeppelin/utils/Context.sol\":720:730  msg.sender */\n      caller\n        /* \"diamonds/facets/FacetEmergencyConsole.sol\":7714:7718  this */\n      address\n        /* \"diamonds/facets/FacetEmergencyConsole.sol\":7690:7719  _msgSender() == address(this) */\n      eq\n        /* \"diamonds/facets/FacetEmergencyConsole.sol\":7682:7733  require(_msgSender() == address(this), 'only self') */\n      tag_363\n      jumpi\n      mload(0x40)\n      shl(0xe5, 0x461bcd)\n      dup2\n      mstore\n        /* \"#utility.yul\":11310:11312   */\n      0x20\n        /* \"diamonds/facets/FacetEmergencyConsole.sol\":7682:7733  require(_msgSender() == address(this), 'only self') */\n      0x04\n      dup3\n      add\n        /* \"#utility.yul\":11292:11313   */\n      mstore\n        /* \"#utility.yul\":11349:11350   */\n      0x09\n        /* \"#utility.yul\":11329:11347   */\n      0x24\n      dup3\n      add\n        /* \"#utility.yul\":11322:11351   */\n      mstore\n      shl(0xb9, 0x37b7363c9039b2b633)\n        /* \"#utility.yul\":11367:11385   */\n      0x44\n      dup3\n      add\n        /* \"#utility.yul\":11360:11399   */\n      mstore\n        /* \"#utility.yul\":11416:11434   */\n      0x64\n      add\n        /* \"diamonds/facets/FacetEmergencyConsole.sol\":7682:7733  require(_msgSender() == address(this), 'only self') */\n      tag_152\n        /* \"#utility.yul\":11108:11440   */\n      jump\n        /* \"diamonds/facets/FacetEmergencyConsole.sol\":7682:7733  require(_msgSender() == address(this), 'only self') */\n    tag_363:\n        /* \"diamonds/facets/FacetEmergencyConsole.sol\":7629:7740  function _onlySelf() internal view virtual {... */\n      jump\t// out\n        /* \"imports/openzeppelin/utils/structs/EnumerableSet.sol\":8306:8456  function add(AddressSet storage set, address value) internal returns (bool) {... */\n    tag_148:\n        /* \"imports/openzeppelin/utils/structs/EnumerableSet.sol\":8376:8380  bool */\n      0x00\n        /* \"imports/openzeppelin/utils/structs/EnumerableSet.sol\":8399:8449  _add(set._inner, bytes32(uint256(uint160(value)))) */\n      tag_268\n        /* \"imports/openzeppelin/utils/structs/EnumerableSet.sol\":8404:8407  set */\n      dup4\n      sub(shl(0xa0, 0x01), 0x01)\n        /* \"imports/openzeppelin/utils/structs/EnumerableSet.sol\":8424:8447  uint256(uint160(value)) */\n      dup5\n      and\n        /* \"imports/openzeppelin/utils/structs/EnumerableSet.sol\":8399:8403  _add */\n      tag_368\n        /* \"imports/openzeppelin/utils/structs/EnumerableSet.sol\":8399:8449  _add(set._inner, bytes32(uint256(uint160(value)))) */\n      jump\t// in\n        /* \"imports/openzeppelin/utils/structs/EnumerableSet.sol\":8861:9026  function contains(AddressSet storage set, address value) internal view returns (bool) {... */\n    tag_173:\n      sub(shl(0xa0, 0x01), 0x01)\n        /* \"imports/openzeppelin/utils/structs/EnumerableSet.sol\":8994:9017  uint256(uint160(value)) */\n      dup2\n      and\n        /* \"imports/openzeppelin/utils/structs/EnumerableSet.sol\":8941:8945  bool */\n      0x00\n        /* \"imports/openzeppelin/utils/structs/EnumerableSet.sol\":4352:4371  set._indexes[value] */\n      swap1\n      dup2\n      mstore\n        /* \"imports/openzeppelin/utils/structs/EnumerableSet.sol\":4352:4364  set._indexes */\n      0x01\n      dup4\n      add\n        /* \"imports/openzeppelin/utils/structs/EnumerableSet.sol\":4352:4371  set._indexes[value] */\n      0x20\n      mstore\n      0x40\n      dup2\n      keccak256\n      sload\n        /* \"imports/openzeppelin/utils/structs/EnumerableSet.sol\":4352:4376  set._indexes[value] != 0 */\n      iszero\n      iszero\n        /* \"imports/openzeppelin/utils/structs/EnumerableSet.sol\":8964:9019  _contains(set._inner, bytes32(uint256(uint160(value)))) */\n      tag_268\n        /* \"imports/openzeppelin/utils/structs/EnumerableSet.sol\":4256:4383  function _contains(Set storage set, bytes32 value) private view returns (bool) {... */\n      jump\n        /* \"imports/openzeppelin/utils/structs/EnumerableSet.sol\":8624:8780  function remove(AddressSet storage set, address value) internal returns (bool) {... */\n    tag_206:\n        /* \"imports/openzeppelin/utils/structs/EnumerableSet.sol\":8697:8701  bool */\n      0x00\n        /* \"imports/openzeppelin/utils/structs/EnumerableSet.sol\":8720:8773  _remove(set._inner, bytes32(uint256(uint160(value)))) */\n      tag_268\n        /* \"imports/openzeppelin/utils/structs/EnumerableSet.sol\":8728:8731  set */\n      dup4\n      sub(shl(0xa0, 0x01), 0x01)\n        /* \"imports/openzeppelin/utils/structs/EnumerableSet.sol\":8748:8771  uint256(uint160(value)) */\n      dup5\n      and\n        /* \"imports/openzeppelin/utils/structs/EnumerableSet.sol\":8720:8727  _remove */\n      tag_375\n        /* \"imports/openzeppelin/utils/structs/EnumerableSet.sol\":8720:8773  _remove(set._inner, bytes32(uint256(uint160(value)))) */\n      jump\t// in\n        /* \"imports/openzeppelin/utils/structs/EnumerableSet.sol\":9107:9222  function length(AddressSet storage set) internal view returns (uint256) {... */\n    tag_251:\n        /* \"imports/openzeppelin/utils/structs/EnumerableSet.sol\":9170:9177  uint256 */\n      0x00\n        /* \"imports/openzeppelin/utils/structs/EnumerableSet.sol\":9196:9215  _length(set._inner) */\n      tag_128\n        /* \"imports/openzeppelin/utils/structs/EnumerableSet.sol\":9204:9207  set */\n      dup3\n        /* \"imports/openzeppelin/utils/structs/EnumerableSet.sol\":4546:4564  set._values.length */\n      sload\n      swap1\n        /* \"imports/openzeppelin/utils/structs/EnumerableSet.sol\":4464:4571  function _length(Set storage set) private view returns (uint256) {... */\n      jump\n        /* \"imports/openzeppelin/utils/structs/EnumerableSet.sol\":4913:5031  function _at(Set storage set, uint256 index) private view returns (bytes32) {... */\n    tag_357:\n        /* \"imports/openzeppelin/utils/structs/EnumerableSet.sol\":4980:4987  bytes32 */\n      0x00\n        /* \"imports/openzeppelin/utils/structs/EnumerableSet.sol\":5006:5009  set */\n      dup3\n        /* \"imports/openzeppelin/utils/structs/EnumerableSet.sol\":5006:5017  set._values */\n      0x00\n      add\n        /* \"imports/openzeppelin/utils/structs/EnumerableSet.sol\":5018:5023  index */\n      dup3\n        /* \"imports/openzeppelin/utils/structs/EnumerableSet.sol\":5006:5024  set._values[index] */\n      dup2\n      sload\n      dup2\n      lt\n      tag_381\n      jumpi\n      tag_381\n      tag_114\n      jump\t// in\n    tag_381:\n      swap1\n      0x00\n      mstore\n      keccak256(0x00, 0x20)\n      add\n      sload\n        /* \"imports/openzeppelin/utils/structs/EnumerableSet.sol\":4999:5024  return set._values[index] */\n      swap1\n      pop\n        /* \"imports/openzeppelin/utils/structs/EnumerableSet.sol\":4913:5031  function _at(Set storage set, uint256 index) private view returns (bytes32) {... */\n      swap3\n      swap2\n      pop\n      pop\n      jump\t// out\n        /* \"imports/openzeppelin/utils/structs/EnumerableSet.sol\":5571:5680  function _values(Set storage set) private view returns (bytes32[] memory) {... */\n    tag_360:\n        /* \"imports/openzeppelin/utils/structs/EnumerableSet.sol\":5627:5643  bytes32[] memory */\n      0x60\n        /* \"imports/openzeppelin/utils/structs/EnumerableSet.sol\":5662:5665  set */\n      dup2\n        /* \"imports/openzeppelin/utils/structs/EnumerableSet.sol\":5662:5673  set._values */\n      0x00\n      add\n        /* \"imports/openzeppelin/utils/structs/EnumerableSet.sol\":5655:5673  return set._values */\n      dup1\n      sload\n      dup1\n      0x20\n      mul\n      0x20\n      add\n      mload(0x40)\n      swap1\n      dup2\n      add\n      0x40\n      mstore\n      dup1\n      swap3\n      swap2\n      swap1\n      dup2\n      dup2\n      mstore\n      0x20\n      add\n      dup3\n      dup1\n      sload\n      dup1\n      iszero\n      tag_119\n      jumpi\n      0x20\n      mul\n      dup3\n      add\n      swap2\n      swap1\n      0x00\n      mstore\n      keccak256(0x00, 0x20)\n      swap1\n    tag_385:\n      dup2\n      sload\n      dup2\n      mstore\n      0x20\n      add\n      swap1\n      0x01\n      add\n      swap1\n      dup1\n      dup4\n      gt\n      tag_385\n      jumpi\n      pop\n      pop\n      pop\n      pop\n      pop\n      swap1\n      pop\n        /* \"imports/openzeppelin/utils/structs/EnumerableSet.sol\":5571:5680  function _values(Set storage set) private view returns (bytes32[] memory) {... */\n      swap2\n      swap1\n      pop\n      jump\t// out\n        /* \"imports/openzeppelin/utils/structs/EnumerableSet.sol\":2215:2619  function _add(Set storage set, bytes32 value) private returns (bool) {... */\n    tag_368:\n        /* \"imports/openzeppelin/utils/structs/EnumerableSet.sol\":2278:2282  bool */\n      0x00\n        /* \"imports/openzeppelin/utils/structs/EnumerableSet.sol\":4352:4371  set._indexes[value] */\n      dup2\n      dup2\n      mstore\n        /* \"imports/openzeppelin/utils/structs/EnumerableSet.sol\":4352:4364  set._indexes */\n      0x01\n      dup4\n      add\n        /* \"imports/openzeppelin/utils/structs/EnumerableSet.sol\":4352:4371  set._indexes[value] */\n      0x20\n      mstore\n      0x40\n      dup2\n      keccak256\n      sload\n        /* \"imports/openzeppelin/utils/structs/EnumerableSet.sol\":2294:2613  if (!_contains(set, value)) {... */\n      tag_388\n      jumpi\n      pop\n        /* \"imports/openzeppelin/utils/structs/EnumerableSet.sol\":2336:2359  set._values.push(value) */\n      dup2\n      sload\n      0x01\n      dup2\n      dup2\n      add\n      dup5\n      sstore\n        /* \"imports/openzeppelin/utils/structs/EnumerableSet.sol\":2336:2347  set._values */\n      0x00\n        /* \"imports/openzeppelin/utils/structs/EnumerableSet.sol\":2336:2359  set._values.push(value) */\n      dup5\n      dup2\n      mstore\n      0x20\n      dup1\n      dup3\n      keccak256\n      swap1\n      swap4\n      add\n      dup5\n      swap1\n      sstore\n        /* \"imports/openzeppelin/utils/structs/EnumerableSet.sol\":2516:2534  set._values.length */\n      dup5\n      sload\n        /* \"imports/openzeppelin/utils/structs/EnumerableSet.sol\":2494:2513  set._indexes[value] */\n      dup5\n      dup3\n      mstore\n        /* \"imports/openzeppelin/utils/structs/EnumerableSet.sol\":2494:2506  set._indexes */\n      dup3\n      dup7\n      add\n        /* \"imports/openzeppelin/utils/structs/EnumerableSet.sol\":2494:2513  set._indexes[value] */\n      swap1\n      swap4\n      mstore\n      0x40\n      swap1\n      keccak256\n        /* \"imports/openzeppelin/utils/structs/EnumerableSet.sol\":2494:2534  set._indexes[value] = set._values.length */\n      swap2\n      swap1\n      swap2\n      sstore\n        /* \"imports/openzeppelin/utils/structs/EnumerableSet.sol\":2548:2559  return true */\n      jump(tag_128)\n        /* \"imports/openzeppelin/utils/structs/EnumerableSet.sol\":2294:2613  if (!_contains(set, value)) {... */\n    tag_388:\n      pop\n        /* \"imports/openzeppelin/utils/structs/EnumerableSet.sol\":2597:2602  false */\n      0x00\n        /* \"imports/openzeppelin/utils/structs/EnumerableSet.sol\":2590:2602  return false */\n      jump(tag_128)\n        /* \"imports/openzeppelin/utils/structs/EnumerableSet.sol\":2787:4175  function _remove(Set storage set, bytes32 value) private returns (bool) {... */\n    tag_375:\n        /* \"imports/openzeppelin/utils/structs/EnumerableSet.sol\":2853:2857  bool */\n      0x00\n        /* \"imports/openzeppelin/utils/structs/EnumerableSet.sol\":2990:3009  set._indexes[value] */\n      dup2\n      dup2\n      mstore\n        /* \"imports/openzeppelin/utils/structs/EnumerableSet.sol\":2990:3002  set._indexes */\n      0x01\n      dup4\n      add\n        /* \"imports/openzeppelin/utils/structs/EnumerableSet.sol\":2990:3009  set._indexes[value] */\n      0x20\n      mstore\n      0x40\n      dup2\n      keccak256\n      sload\n        /* \"imports/openzeppelin/utils/structs/EnumerableSet.sol\":3024:3039  valueIndex != 0 */\n      dup1\n      iszero\n        /* \"imports/openzeppelin/utils/structs/EnumerableSet.sol\":3020:4169  if (valueIndex != 0) {... */\n      tag_393\n      jumpi\n        /* \"imports/openzeppelin/utils/structs/EnumerableSet.sol\":3393:3414  uint256 toDeleteIndex */\n      0x00\n        /* \"imports/openzeppelin/utils/structs/EnumerableSet.sol\":3417:3431  valueIndex - 1 */\n      tag_394\n        /* \"imports/openzeppelin/utils/structs/EnumerableSet.sol\":3430:3431  1 */\n      0x01\n        /* \"imports/openzeppelin/utils/structs/EnumerableSet.sol\":3417:3427  valueIndex */\n      dup4\n        /* \"imports/openzeppelin/utils/structs/EnumerableSet.sol\":3417:3431  valueIndex - 1 */\n      tag_201\n      jump\t// in\n    tag_394:\n        /* \"imports/openzeppelin/utils/structs/EnumerableSet.sol\":3465:3483  set._values.length */\n      dup6\n      sload\n        /* \"imports/openzeppelin/utils/structs/EnumerableSet.sol\":3393:3431  uint256 toDeleteIndex = valueIndex - 1 */\n      swap1\n      swap2\n      pop\n        /* \"imports/openzeppelin/utils/structs/EnumerableSet.sol\":3445:3462  uint256 lastIndex */\n      0x00\n      swap1\n        /* \"imports/openzeppelin/utils/structs/EnumerableSet.sol\":3465:3487  set._values.length - 1 */\n      tag_395\n      swap1\n        /* \"imports/openzeppelin/utils/structs/EnumerableSet.sol\":3486:3487  1 */\n      0x01\n      swap1\n        /* \"imports/openzeppelin/utils/structs/EnumerableSet.sol\":3465:3487  set._values.length - 1 */\n      tag_201\n      jump\t// in\n    tag_395:\n        /* \"imports/openzeppelin/utils/structs/EnumerableSet.sol\":3445:3487  uint256 lastIndex = set._values.length - 1 */\n      swap1\n      pop\n        /* \"imports/openzeppelin/utils/structs/EnumerableSet.sol\":3519:3532  toDeleteIndex */\n      dup2\n        /* \"imports/openzeppelin/utils/structs/EnumerableSet.sol\":3506:3515  lastIndex */\n      dup2\n        /* \"imports/openzeppelin/utils/structs/EnumerableSet.sol\":3506:3532  lastIndex != toDeleteIndex */\n      eq\n        /* \"imports/openzeppelin/utils/structs/EnumerableSet.sol\":3502:3900  if (lastIndex != toDeleteIndex) {... */\n      tag_396\n      jumpi\n        /* \"imports/openzeppelin/utils/structs/EnumerableSet.sol\":3552:3569  bytes32 lastValue */\n      0x00\n        /* \"imports/openzeppelin/utils/structs/EnumerableSet.sol\":3572:3575  set */\n      dup7\n        /* \"imports/openzeppelin/utils/structs/EnumerableSet.sol\":3572:3583  set._values */\n      0x00\n      add\n        /* \"imports/openzeppelin/utils/structs/EnumerableSet.sol\":3584:3593  lastIndex */\n      dup3\n        /* \"imports/openzeppelin/utils/structs/EnumerableSet.sol\":3572:3594  set._values[lastIndex] */\n      dup2\n      sload\n      dup2\n      lt\n      tag_398\n      jumpi\n      tag_398\n      tag_114\n      jump\t// in\n    tag_398:\n      swap1\n      0x00\n      mstore\n      keccak256(0x00, 0x20)\n      add\n      sload\n        /* \"imports/openzeppelin/utils/structs/EnumerableSet.sol\":3552:3594  bytes32 lastValue = set._values[lastIndex] */\n      swap1\n      pop\n        /* \"imports/openzeppelin/utils/structs/EnumerableSet.sol\":3723:3732  lastValue */\n      dup1\n        /* \"imports/openzeppelin/utils/structs/EnumerableSet.sol\":3694:3697  set */\n      dup8\n        /* \"imports/openzeppelin/utils/structs/EnumerableSet.sol\":3694:3705  set._values */\n      0x00\n      add\n        /* \"imports/openzeppelin/utils/structs/EnumerableSet.sol\":3706:3719  toDeleteIndex */\n      dup5\n        /* \"imports/openzeppelin/utils/structs/EnumerableSet.sol\":3694:3720  set._values[toDeleteIndex] */\n      dup2\n      sload\n      dup2\n      lt\n      tag_401\n      jumpi\n      tag_401\n      tag_114\n      jump\t// in\n    tag_401:\n      0x00\n      swap2\n      dup3\n      mstore\n      0x20\n      dup1\n      dup4\n      keccak256\n      swap1\n      swap2\n      add\n        /* \"imports/openzeppelin/utils/structs/EnumerableSet.sol\":3694:3732  set._values[toDeleteIndex] = lastValue */\n      swap3\n      swap1\n      swap3\n      sstore\n        /* \"imports/openzeppelin/utils/structs/EnumerableSet.sol\":3806:3829  set._indexes[lastValue] */\n      swap2\n      dup3\n      mstore\n        /* \"imports/openzeppelin/utils/structs/EnumerableSet.sol\":3806:3818  set._indexes */\n      0x01\n      dup9\n      add\n        /* \"imports/openzeppelin/utils/structs/EnumerableSet.sol\":3806:3829  set._indexes[lastValue] */\n      swap1\n      mstore\n      0x40\n      swap1\n      keccak256\n        /* \"imports/openzeppelin/utils/structs/EnumerableSet.sol\":3806:3842  set._indexes[lastValue] = valueIndex */\n      dup4\n      swap1\n      sstore\n        /* \"imports/openzeppelin/utils/structs/EnumerableSet.sol\":3502:3900  if (lastIndex != toDeleteIndex) {... */\n    tag_396:\n        /* \"imports/openzeppelin/utils/structs/EnumerableSet.sol\":3978:3995  set._values.pop() */\n      dup6\n      sload\n        /* \"imports/openzeppelin/utils/structs/EnumerableSet.sol\":3978:3981  set */\n      dup7\n      swap1\n        /* \"imports/openzeppelin/utils/structs/EnumerableSet.sol\":3978:3995  set._values.pop() */\n      dup1\n      tag_404\n      jumpi\n      tag_404\n      tag_405\n      jump\t// in\n    tag_404:\n      0x01\n      swap1\n      sub\n      dup2\n      dup2\n      swap1\n      0x00\n      mstore\n      keccak256(0x00, 0x20)\n      add\n      0x00\n      swap1\n      sstore\n      swap1\n      sstore\n        /* \"imports/openzeppelin/utils/structs/EnumerableSet.sol\":4070:4073  set */\n      dup6\n        /* \"imports/openzeppelin/utils/structs/EnumerableSet.sol\":4070:4082  set._indexes */\n      0x01\n      add\n        /* \"imports/openzeppelin/utils/structs/EnumerableSet.sol\":4070:4089  set._indexes[value] */\n      0x00\n        /* \"imports/openzeppelin/utils/structs/EnumerableSet.sol\":4083:4088  value */\n      dup7\n        /* \"imports/openzeppelin/utils/structs/EnumerableSet.sol\":4070:4089  set._indexes[value] */\n      dup2\n      mstore\n      0x20\n      add\n      swap1\n      dup2\n      mstore\n      0x20\n      add\n      0x00\n      keccak256\n        /* \"imports/openzeppelin/utils/structs/EnumerableSet.sol\":4063:4089  delete set._indexes[value] */\n      0x00\n      swap1\n      sstore\n        /* \"imports/openzeppelin/utils/structs/EnumerableSet.sol\":4111:4115  true */\n      0x01\n        /* \"imports/openzeppelin/utils/structs/EnumerableSet.sol\":4104:4115  return true */\n      swap4\n      pop\n      pop\n      pop\n      pop\n      jump(tag_128)\n        /* \"imports/openzeppelin/utils/structs/EnumerableSet.sol\":3020:4169  if (valueIndex != 0) {... */\n    tag_393:\n        /* \"imports/openzeppelin/utils/structs/EnumerableSet.sol\":4153:4158  false */\n      0x00\n        /* \"imports/openzeppelin/utils/structs/EnumerableSet.sol\":4146:4158  return false */\n      swap2\n      pop\n      pop\n      jump(tag_128)\n        /* \"#utility.yul\":14:194   */\n    tag_28:\n        /* \"#utility.yul\":73:79   */\n      0x00\n        /* \"#utility.yul\":126:128   */\n      0x20\n        /* \"#utility.yul\":114:123   */\n      dup3\n        /* \"#utility.yul\":105:112   */\n      dup5\n        /* \"#utility.yul\":101:124   */\n      sub\n        /* \"#utility.yul\":97:129   */\n      slt\n        /* \"#utility.yul\":94:146   */\n      iszero\n      tag_419\n      jumpi\n        /* \"#utility.yul\":142:143   */\n      0x00\n        /* \"#utility.yul\":139:140   */\n      dup1\n        /* \"#utility.yul\":132:144   */\n      revert\n        /* \"#utility.yul\":94:146   */\n    tag_419:\n      pop\n        /* \"#utility.yul\":165:188   */\n      calldataload\n      swap2\n        /* \"#utility.yul\":14:194   */\n      swap1\n      pop\n      jump\t// out\n        /* \"#utility.yul\":199:449   */\n    tag_409:\n        /* \"#utility.yul\":284:285   */\n      0x00\n        /* \"#utility.yul\":294:407   */\n    tag_421:\n        /* \"#utility.yul\":308:314   */\n      dup4\n        /* \"#utility.yul\":305:306   */\n      dup2\n        /* \"#utility.yul\":302:315   */\n      lt\n        /* \"#utility.yul\":294:407   */\n      iszero\n      tag_423\n      jumpi\n        /* \"#utility.yul\":384:395   */\n      dup2\n      dup2\n      add\n        /* \"#utility.yul\":378:396   */\n      mload\n        /* \"#utility.yul\":365:376   */\n      dup4\n      dup3\n      add\n        /* \"#utility.yul\":358:397   */\n      mstore\n        /* \"#utility.yul\":330:332   */\n      0x20\n        /* \"#utility.yul\":323:333   */\n      add\n        /* \"#utility.yul\":294:407   */\n      jump(tag_421)\n    tag_423:\n      pop\n      pop\n        /* \"#utility.yul\":441:442   */\n      0x00\n        /* \"#utility.yul\":423:439   */\n      swap2\n      add\n        /* \"#utility.yul\":416:443   */\n      mstore\n        /* \"#utility.yul\":199:449   */\n      jump\t// out\n        /* \"#utility.yul\":454:724   */\n    tag_410:\n        /* \"#utility.yul\":495:498   */\n      0x00\n        /* \"#utility.yul\":533:538   */\n      dup2\n        /* \"#utility.yul\":527:539   */\n      mload\n        /* \"#utility.yul\":560:566   */\n      dup1\n        /* \"#utility.yul\":555:558   */\n      dup5\n        /* \"#utility.yul\":548:567   */\n      mstore\n        /* \"#utility.yul\":576:652   */\n      tag_425\n        /* \"#utility.yul\":645:651   */\n      dup2\n        /* \"#utility.yul\":638:642   */\n      0x20\n        /* \"#utility.yul\":633:636   */\n      dup7\n        /* \"#utility.yul\":629:643   */\n      add\n        /* \"#utility.yul\":622:626   */\n      0x20\n        /* \"#utility.yul\":615:620   */\n      dup7\n        /* \"#utility.yul\":611:627   */\n      add\n        /* \"#utility.yul\":576:652   */\n      tag_409\n      jump\t// in\n    tag_425:\n        /* \"#utility.yul\":706:708   */\n      0x1f\n        /* \"#utility.yul\":685:700   */\n      add\n      not(0x1f)\n        /* \"#utility.yul\":681:710   */\n      and\n        /* \"#utility.yul\":672:711   */\n      swap3\n      swap1\n      swap3\n      add\n        /* \"#utility.yul\":713:717   */\n      0x20\n        /* \"#utility.yul\":668:718   */\n      add\n      swap3\n        /* \"#utility.yul\":454:724   */\n      swap2\n      pop\n      pop\n      jump\t// out\n        /* \"#utility.yul\":729:946   */\n    tag_31:\n        /* \"#utility.yul\":876:878   */\n      0x20\n        /* \"#utility.yul\":865:874   */\n      dup2\n        /* \"#utility.yul\":858:879   */\n      mstore\n        /* \"#utility.yul\":839:843   */\n      0x00\n        /* \"#utility.yul\":896:940   */\n      tag_268\n        /* \"#utility.yul\":936:938   */\n      0x20\n        /* \"#utility.yul\":925:934   */\n      dup4\n        /* \"#utility.yul\":921:939   */\n      add\n        /* \"#utility.yul\":913:919   */\n      dup5\n        /* \"#utility.yul\":896:940   */\n      tag_410\n      jump\t// in\n        /* \"#utility.yul\":1533:2191   */\n    tag_51:\n        /* \"#utility.yul\":1704:1706   */\n      0x20\n        /* \"#utility.yul\":1756:1777   */\n      dup1\n      dup3\n      mstore\n        /* \"#utility.yul\":1826:1839   */\n      dup3\n      mload\n        /* \"#utility.yul\":1729:1747   */\n      dup3\n      dup3\n      add\n        /* \"#utility.yul\":1848:1870   */\n      dup2\n      swap1\n      mstore\n        /* \"#utility.yul\":1675:1679   */\n      0x00\n      swap2\n        /* \"#utility.yul\":1704:1706   */\n      swap1\n        /* \"#utility.yul\":1927:1942   */\n      dup5\n      dup3\n      add\n      swap1\n        /* \"#utility.yul\":1901:1903   */\n      0x40\n        /* \"#utility.yul\":1886:1904   */\n      dup6\n      add\n      swap1\n        /* \"#utility.yul\":1675:1679   */\n      dup5\n        /* \"#utility.yul\":1970:2165   */\n    tag_432:\n        /* \"#utility.yul\":1984:1990   */\n      dup2\n        /* \"#utility.yul\":1981:1982   */\n      dup2\n        /* \"#utility.yul\":1978:1991   */\n      lt\n        /* \"#utility.yul\":1970:2165   */\n      iszero\n      tag_434\n      jumpi\n        /* \"#utility.yul\":2049:2062   */\n      dup4\n      mload\n      sub(shl(0xa0, 0x01), 0x01)\n        /* \"#utility.yul\":2045:2084   */\n      and\n        /* \"#utility.yul\":2033:2085   */\n      dup4\n      mstore\n        /* \"#utility.yul\":2140:2155   */\n      swap3\n      dup5\n      add\n      swap3\n        /* \"#utility.yul\":2105:2117   */\n      swap2\n      dup5\n      add\n      swap2\n        /* \"#utility.yul\":2081:2082   */\n      0x01\n        /* \"#utility.yul\":1999:2008   */\n      add\n        /* \"#utility.yul\":1970:2165   */\n      jump(tag_432)\n    tag_434:\n      pop\n        /* \"#utility.yul\":2182:2185   */\n      swap1\n      swap7\n        /* \"#utility.yul\":1533:2191   */\n      swap6\n      pop\n      pop\n      pop\n      pop\n      pop\n      pop\n      jump\t// out\n        /* \"#utility.yul\":2196:2369   */\n    tag_411:\n        /* \"#utility.yul\":2264:2284   */\n      dup1\n      calldataload\n      sub(shl(0xa0, 0x01), 0x01)\n        /* \"#utility.yul\":2313:2344   */\n      dup2\n      and\n        /* \"#utility.yul\":2303:2345   */\n      dup2\n      eq\n        /* \"#utility.yul\":2293:2363   */\n      tag_436\n      jumpi\n        /* \"#utility.yul\":2359:2360   */\n      0x00\n        /* \"#utility.yul\":2356:2357   */\n      dup1\n        /* \"#utility.yul\":2349:2361   */\n      revert\n        /* \"#utility.yul\":2293:2363   */\n    tag_436:\n        /* \"#utility.yul\":2196:2369   */\n      swap2\n      swap1\n      pop\n      jump\t// out\n        /* \"#utility.yul\":2374:2560   */\n    tag_54:\n        /* \"#utility.yul\":2433:2439   */\n      0x00\n        /* \"#utility.yul\":2486:2488   */\n      0x20\n        /* \"#utility.yul\":2474:2483   */\n      dup3\n        /* \"#utility.yul\":2465:2472   */\n      dup5\n        /* \"#utility.yul\":2461:2484   */\n      sub\n        /* \"#utility.yul\":2457:2489   */\n      slt\n        /* \"#utility.yul\":2454:2506   */\n      iszero\n      tag_438\n      jumpi\n        /* \"#utility.yul\":2502:2503   */\n      0x00\n        /* \"#utility.yul\":2499:2500   */\n      dup1\n        /* \"#utility.yul\":2492:2504   */\n      revert\n        /* \"#utility.yul\":2454:2506   */\n    tag_438:\n        /* \"#utility.yul\":2525:2554   */\n      tag_268\n        /* \"#utility.yul\":2544:2553   */\n      dup3\n        /* \"#utility.yul\":2525:2554   */\n      tag_411\n      jump\t// in\n        /* \"#utility.yul\":2565:2692   */\n    tag_412:\n        /* \"#utility.yul\":2626:2636   */\n      0x4e487b71\n        /* \"#utility.yul\":2621:2624   */\n      0xe0\n        /* \"#utility.yul\":2617:2637   */\n      shl\n        /* \"#utility.yul\":2614:2615   */\n      0x00\n        /* \"#utility.yul\":2607:2638   */\n      mstore\n        /* \"#utility.yul\":2657:2661   */\n      0x41\n        /* \"#utility.yul\":2654:2655   */\n      0x04\n        /* \"#utility.yul\":2647:2662   */\n      mstore\n        /* \"#utility.yul\":2681:2685   */\n      0x24\n        /* \"#utility.yul\":2678:2679   */\n      0x00\n        /* \"#utility.yul\":2671:2686   */\n      revert\n        /* \"#utility.yul\":2697:3692   */\n    tag_84:\n        /* \"#utility.yul\":2774:2780   */\n      0x00\n        /* \"#utility.yul\":2782:2788   */\n      dup1\n        /* \"#utility.yul\":2835:2837   */\n      0x40\n        /* \"#utility.yul\":2823:2832   */\n      dup4\n        /* \"#utility.yul\":2814:2821   */\n      dup6\n        /* \"#utility.yul\":2810:2833   */\n      sub\n        /* \"#utility.yul\":2806:2838   */\n      slt\n        /* \"#utility.yul\":2803:2855   */\n      iszero\n      tag_442\n      jumpi\n        /* \"#utility.yul\":2851:2852   */\n      0x00\n        /* \"#utility.yul\":2848:2849   */\n      dup1\n        /* \"#utility.yul\":2841:2853   */\n      revert\n        /* \"#utility.yul\":2803:2855   */\n    tag_442:\n        /* \"#utility.yul\":2874:2903   */\n      tag_443\n        /* \"#utility.yul\":2893:2902   */\n      dup4\n        /* \"#utility.yul\":2874:2903   */\n      tag_411\n      jump\t// in\n    tag_443:\n        /* \"#utility.yul\":2864:2903   */\n      swap2\n      pop\n        /* \"#utility.yul\":2954:2956   */\n      0x20\n        /* \"#utility.yul\":2943:2952   */\n      dup4\n        /* \"#utility.yul\":2939:2957   */\n      add\n        /* \"#utility.yul\":2926:2958   */\n      calldataload\n        /* \"#utility.yul\":2977:2995   */\n      0xffffffffffffffff\n        /* \"#utility.yul\":3018:3020   */\n      dup1\n        /* \"#utility.yul\":3010:3016   */\n      dup3\n        /* \"#utility.yul\":3007:3021   */\n      gt\n        /* \"#utility.yul\":3004:3038   */\n      iszero\n      tag_444\n      jumpi\n        /* \"#utility.yul\":3034:3035   */\n      0x00\n        /* \"#utility.yul\":3031:3032   */\n      dup1\n        /* \"#utility.yul\":3024:3036   */\n      revert\n        /* \"#utility.yul\":3004:3038   */\n    tag_444:\n        /* \"#utility.yul\":3072:3078   */\n      dup2\n        /* \"#utility.yul\":3061:3070   */\n      dup6\n        /* \"#utility.yul\":3057:3079   */\n      add\n        /* \"#utility.yul\":3047:3079   */\n      swap2\n      pop\n        /* \"#utility.yul\":3117:3124   */\n      dup6\n        /* \"#utility.yul\":3110:3114   */\n      0x1f\n        /* \"#utility.yul\":3106:3108   */\n      dup4\n        /* \"#utility.yul\":3102:3115   */\n      add\n        /* \"#utility.yul\":3098:3125   */\n      slt\n        /* \"#utility.yul\":3088:3143   */\n      tag_445\n      jumpi\n        /* \"#utility.yul\":3139:3140   */\n      0x00\n        /* \"#utility.yul\":3136:3137   */\n      dup1\n        /* \"#utility.yul\":3129:3141   */\n      revert\n        /* \"#utility.yul\":3088:3143   */\n    tag_445:\n        /* \"#utility.yul\":3175:3177   */\n      dup2\n        /* \"#utility.yul\":3162:3178   */\n      calldataload\n        /* \"#utility.yul\":3197:3199   */\n      dup2\n        /* \"#utility.yul\":3193:3195   */\n      dup2\n        /* \"#utility.yul\":3190:3200   */\n      gt\n        /* \"#utility.yul\":3187:3223   */\n      iszero\n      tag_447\n      jumpi\n        /* \"#utility.yul\":3203:3221   */\n      tag_447\n      tag_412\n      jump\t// in\n    tag_447:\n        /* \"#utility.yul\":3278:3280   */\n      0x40\n        /* \"#utility.yul\":3272:3281   */\n      mload\n        /* \"#utility.yul\":3246:3248   */\n      0x1f\n        /* \"#utility.yul\":3332:3345   */\n      dup3\n      add\n      not(0x1f)\n        /* \"#utility.yul\":3328:3350   */\n      swap1\n      dup2\n      and\n        /* \"#utility.yul\":3352:3354   */\n      0x3f\n        /* \"#utility.yul\":3324:3355   */\n      add\n        /* \"#utility.yul\":3320:3360   */\n      and\n        /* \"#utility.yul\":3308:3361   */\n      dup2\n      add\n      swap1\n        /* \"#utility.yul\":3376:3394   */\n      dup4\n      dup3\n      gt\n        /* \"#utility.yul\":3396:3418   */\n      dup2\n      dup4\n      lt\n        /* \"#utility.yul\":3373:3419   */\n      or\n        /* \"#utility.yul\":3370:3442   */\n      iszero\n      tag_449\n      jumpi\n        /* \"#utility.yul\":3422:3440   */\n      tag_449\n      tag_412\n      jump\t// in\n    tag_449:\n        /* \"#utility.yul\":3462:3472   */\n      dup2\n        /* \"#utility.yul\":3458:3460   */\n      0x40\n        /* \"#utility.yul\":3451:3473   */\n      mstore\n        /* \"#utility.yul\":3497:3499   */\n      dup3\n        /* \"#utility.yul\":3489:3495   */\n      dup2\n        /* \"#utility.yul\":3482:3500   */\n      mstore\n        /* \"#utility.yul\":3537:3544   */\n      dup9\n        /* \"#utility.yul\":3532:3534   */\n      0x20\n        /* \"#utility.yul\":3527:3529   */\n      dup5\n        /* \"#utility.yul\":3523:3525   */\n      dup8\n        /* \"#utility.yul\":3519:3530   */\n      add\n        /* \"#utility.yul\":3515:3535   */\n      add\n        /* \"#utility.yul\":3512:3545   */\n      gt\n        /* \"#utility.yul\":3509:3562   */\n      iszero\n      tag_450\n      jumpi\n        /* \"#utility.yul\":3558:3559   */\n      0x00\n        /* \"#utility.yul\":3555:3556   */\n      dup1\n        /* \"#utility.yul\":3548:3560   */\n      revert\n        /* \"#utility.yul\":3509:3562   */\n    tag_450:\n        /* \"#utility.yul\":3614:3616   */\n      dup3\n        /* \"#utility.yul\":3609:3611   */\n      0x20\n        /* \"#utility.yul\":3605:3607   */\n      dup7\n        /* \"#utility.yul\":3601:3612   */\n      add\n        /* \"#utility.yul\":3596:3598   */\n      0x20\n        /* \"#utility.yul\":3588:3594   */\n      dup4\n        /* \"#utility.yul\":3584:3599   */\n      add\n        /* \"#utility.yul\":3571:3617   */\n      calldatacopy\n        /* \"#utility.yul\":3659:3660   */\n      0x00\n        /* \"#utility.yul\":3654:3656   */\n      0x20\n        /* \"#utility.yul\":3649:3651   */\n      dup5\n        /* \"#utility.yul\":3641:3647   */\n      dup4\n        /* \"#utility.yul\":3637:3652   */\n      add\n        /* \"#utility.yul\":3633:3657   */\n      add\n        /* \"#utility.yul\":3626:3661   */\n      mstore\n        /* \"#utility.yul\":3680:3686   */\n      dup1\n        /* \"#utility.yul\":3670:3686   */\n      swap6\n      pop\n      pop\n      pop\n      pop\n      pop\n      pop\n        /* \"#utility.yul\":2697:3692   */\n      swap3\n      pop\n      swap3\n      swap1\n      pop\n      jump\t// out\n        /* \"#utility.yul\":3697:3945   */\n    tag_89:\n        /* \"#utility.yul\":3765:3771   */\n      0x00\n        /* \"#utility.yul\":3773:3779   */\n      dup1\n        /* \"#utility.yul\":3826:3828   */\n      0x40\n        /* \"#utility.yul\":3814:3823   */\n      dup4\n        /* \"#utility.yul\":3805:3812   */\n      dup6\n        /* \"#utility.yul\":3801:3824   */\n      sub\n        /* \"#utility.yul\":3797:3829   */\n      slt\n        /* \"#utility.yul\":3794:3846   */\n      iszero\n      tag_452\n      jumpi\n        /* \"#utility.yul\":3842:3843   */\n      0x00\n        /* \"#utility.yul\":3839:3840   */\n      dup1\n        /* \"#utility.yul\":3832:3844   */\n      revert\n        /* \"#utility.yul\":3794:3846   */\n    tag_452:\n      pop\n      pop\n        /* \"#utility.yul\":3865:3888   */\n      dup1\n      calldataload\n      swap3\n        /* \"#utility.yul\":3935:3937   */\n      0x20\n        /* \"#utility.yul\":3920:3938   */\n      swap1\n      swap2\n      add\n        /* \"#utility.yul\":3907:3939   */\n      calldataload\n      swap2\n      pop\n        /* \"#utility.yul\":3697:3945   */\n      jump\t// out\n        /* \"#utility.yul\":3950:4248   */\n    tag_108:\n        /* \"#utility.yul\":4133:4139   */\n      dup3\n        /* \"#utility.yul\":4126:4140   */\n      iszero\n        /* \"#utility.yul\":4119:4141   */\n      iszero\n        /* \"#utility.yul\":4108:4117   */\n      dup2\n        /* \"#utility.yul\":4101:4142   */\n      mstore\n        /* \"#utility.yul\":4178:4180   */\n      0x40\n        /* \"#utility.yul\":4173:4175   */\n      0x20\n        /* \"#utility.yul\":4162:4171   */\n      dup3\n        /* \"#utility.yul\":4158:4176   */\n      add\n        /* \"#utility.yul\":4151:4181   */\n      mstore\n        /* \"#utility.yul\":4082:4086   */\n      0x00\n        /* \"#utility.yul\":4198:4242   */\n      tag_454\n        /* \"#utility.yul\":4238:4240   */\n      0x40\n        /* \"#utility.yul\":4227:4236   */\n      dup4\n        /* \"#utility.yul\":4223:4241   */\n      add\n        /* \"#utility.yul\":4215:4221   */\n      dup5\n        /* \"#utility.yul\":4198:4242   */\n      tag_410\n      jump\t// in\n    tag_454:\n        /* \"#utility.yul\":4190:4242   */\n      swap5\n        /* \"#utility.yul\":3950:4248   */\n      swap4\n      pop\n      pop\n      pop\n      pop\n      jump\t// out\n        /* \"#utility.yul\":4253:4380   */\n    tag_114:\n        /* \"#utility.yul\":4314:4324   */\n      0x4e487b71\n        /* \"#utility.yul\":4309:4312   */\n      0xe0\n        /* \"#utility.yul\":4305:4325   */\n      shl\n        /* \"#utility.yul\":4302:4303   */\n      0x00\n        /* \"#utility.yul\":4295:4326   */\n      mstore\n        /* \"#utility.yul\":4345:4349   */\n      0x32\n        /* \"#utility.yul\":4342:4343   */\n      0x04\n        /* \"#utility.yul\":4335:4350   */\n      mstore\n        /* \"#utility.yul\":4369:4373   */\n      0x24\n        /* \"#utility.yul\":4366:4367   */\n      0x00\n        /* \"#utility.yul\":4359:4374   */\n      revert\n        /* \"#utility.yul\":4385:4765   */\n    tag_117:\n        /* \"#utility.yul\":4464:4465   */\n      0x01\n        /* \"#utility.yul\":4460:4472   */\n      dup2\n      dup2\n      shr\n      swap1\n        /* \"#utility.yul\":4507:4519   */\n      dup3\n      and\n      dup1\n        /* \"#utility.yul\":4528:4589   */\n      tag_457\n      jumpi\n        /* \"#utility.yul\":4582:4586   */\n      0x7f\n        /* \"#utility.yul\":4574:4580   */\n      dup3\n        /* \"#utility.yul\":4570:4587   */\n      and\n        /* \"#utility.yul\":4560:4587   */\n      swap2\n      pop\n        /* \"#utility.yul\":4528:4589   */\n    tag_457:\n        /* \"#utility.yul\":4635:4637   */\n      0x20\n        /* \"#utility.yul\":4627:4633   */\n      dup3\n        /* \"#utility.yul\":4624:4638   */\n      lt\n        /* \"#utility.yul\":4604:4622   */\n      dup2\n        /* \"#utility.yul\":4601:4639   */\n      sub\n        /* \"#utility.yul\":4598:4759   */\n      tag_458\n      jumpi\n        /* \"#utility.yul\":4681:4691   */\n      0x4e487b71\n        /* \"#utility.yul\":4676:4679   */\n      0xe0\n        /* \"#utility.yul\":4672:4692   */\n      shl\n        /* \"#utility.yul\":4669:4670   */\n      0x00\n        /* \"#utility.yul\":4662:4693   */\n      mstore\n        /* \"#utility.yul\":4716:4720   */\n      0x22\n        /* \"#utility.yul\":4713:4714   */\n      0x04\n        /* \"#utility.yul\":4706:4721   */\n      mstore\n        /* \"#utility.yul\":4744:4748   */\n      0x24\n        /* \"#utility.yul\":4741:4742   */\n      0x00\n        /* \"#utility.yul\":4734:4749   */\n      revert\n        /* \"#utility.yul\":4598:4759   */\n    tag_458:\n      pop\n        /* \"#utility.yul\":4385:4765   */\n      swap2\n      swap1\n      pop\n      jump\t// out\n        /* \"#utility.yul\":6009:6136   */\n    tag_413:\n        /* \"#utility.yul\":6070:6080   */\n      0x4e487b71\n        /* \"#utility.yul\":6065:6068   */\n      0xe0\n        /* \"#utility.yul\":6061:6081   */\n      shl\n        /* \"#utility.yul\":6058:6059   */\n      0x00\n        /* \"#utility.yul\":6051:6082   */\n      mstore\n        /* \"#utility.yul\":6101:6105   */\n      0x11\n        /* \"#utility.yul\":6098:6099   */\n      0x04\n        /* \"#utility.yul\":6091:6106   */\n      mstore\n        /* \"#utility.yul\":6125:6129   */\n      0x24\n        /* \"#utility.yul\":6122:6123   */\n      0x00\n        /* \"#utility.yul\":6115:6130   */\n      revert\n        /* \"#utility.yul\":6141:6269   */\n    tag_201:\n        /* \"#utility.yul\":6208:6217   */\n      dup2\n      dup2\n      sub\n        /* \"#utility.yul\":6229:6240   */\n      dup2\n      dup2\n      gt\n        /* \"#utility.yul\":6226:6263   */\n      iszero\n      tag_128\n      jumpi\n        /* \"#utility.yul\":6243:6261   */\n      tag_128\n      tag_413\n      jump\t// in\n        /* \"#utility.yul\":6274:6684   */\n    tag_217:\n        /* \"#utility.yul\":6476:6478   */\n      0x20\n        /* \"#utility.yul\":6458:6479   */\n      dup1\n      dup3\n      mstore\n        /* \"#utility.yul\":6515:6517   */\n      0x2e\n        /* \"#utility.yul\":6495:6513   */\n      swap1\n      dup3\n      add\n        /* \"#utility.yul\":6488:6518   */\n      mstore\n        /* \"#utility.yul\":6554:6588   */\n      0x4661636574456d657267656e6379436f6e736f6c653a206f6e6c7920656d6572\n        /* \"#utility.yul\":6549:6551   */\n      0x40\n        /* \"#utility.yul\":6534:6552   */\n      dup3\n      add\n        /* \"#utility.yul\":6527:6589   */\n      mstore\n      shl(0x91, 0x33b2b731bc9037b832b930ba37b9)\n        /* \"#utility.yul\":6620:6622   */\n      0x60\n        /* \"#utility.yul\":6605:6623   */\n      dup3\n      add\n        /* \"#utility.yul\":6598:6642   */\n      mstore\n        /* \"#utility.yul\":6674:6677   */\n      0x80\n        /* \"#utility.yul\":6659:6678   */\n      add\n      swap1\n        /* \"#utility.yul\":6274:6684   */\n      jump\t// out\n        /* \"#utility.yul\":6814:7358   */\n    tag_415:\n        /* \"#utility.yul\":6915:6917   */\n      0x1f\n        /* \"#utility.yul\":6910:6913   */\n      dup3\n        /* \"#utility.yul\":6907:6918   */\n      gt\n        /* \"#utility.yul\":6904:7352   */\n      iszero\n      tag_469\n      jumpi\n        /* \"#utility.yul\":6951:6952   */\n      0x00\n        /* \"#utility.yul\":6976:6981   */\n      dup2\n        /* \"#utility.yul\":6972:6974   */\n      dup2\n        /* \"#utility.yul\":6965:6982   */\n      mstore\n        /* \"#utility.yul\":7021:7025   */\n      0x20\n        /* \"#utility.yul\":7017:7019   */\n      dup2\n        /* \"#utility.yul\":7007:7026   */\n      keccak256\n        /* \"#utility.yul\":7091:7093   */\n      0x1f\n        /* \"#utility.yul\":7079:7089   */\n      dup6\n        /* \"#utility.yul\":7075:7094   */\n      add\n        /* \"#utility.yul\":7072:7073   */\n      0x05\n        /* \"#utility.yul\":7068:7095   */\n      shr\n        /* \"#utility.yul\":7062:7066   */\n      dup2\n        /* \"#utility.yul\":7058:7096   */\n      add\n        /* \"#utility.yul\":7127:7131   */\n      0x20\n        /* \"#utility.yul\":7115:7125   */\n      dup7\n        /* \"#utility.yul\":7112:7132   */\n      lt\n        /* \"#utility.yul\":7109:7156   */\n      iszero\n      tag_470\n      jumpi\n      pop\n        /* \"#utility.yul\":7150:7154   */\n      dup1\n        /* \"#utility.yul\":7109:7156   */\n    tag_470:\n        /* \"#utility.yul\":7205:7207   */\n      0x1f\n        /* \"#utility.yul\":7200:7203   */\n      dup6\n        /* \"#utility.yul\":7196:7208   */\n      add\n        /* \"#utility.yul\":7193:7194   */\n      0x05\n        /* \"#utility.yul\":7189:7209   */\n      shr\n        /* \"#utility.yul\":7183:7187   */\n      dup3\n        /* \"#utility.yul\":7179:7210   */\n      add\n        /* \"#utility.yul\":7169:7210   */\n      swap2\n      pop\n        /* \"#utility.yul\":7260:7342   */\n    tag_471:\n        /* \"#utility.yul\":7278:7280   */\n      dup2\n        /* \"#utility.yul\":7271:7276   */\n      dup2\n        /* \"#utility.yul\":7268:7281   */\n      lt\n        /* \"#utility.yul\":7260:7342   */\n      iszero\n      tag_473\n      jumpi\n        /* \"#utility.yul\":7323:7340   */\n      dup3\n      dup2\n      sstore\n        /* \"#utility.yul\":7304:7305   */\n      0x01\n        /* \"#utility.yul\":7293:7306   */\n      add\n        /* \"#utility.yul\":7260:7342   */\n      jump(tag_471)\n    tag_473:\n        /* \"#utility.yul\":7264:7267   */\n      pop\n      pop\n      pop\n        /* \"#utility.yul\":6904:7352   */\n    tag_469:\n        /* \"#utility.yul\":6814:7358   */\n      pop\n      pop\n      pop\n      jump\t// out\n        /* \"#utility.yul\":7534:8882   */\n    tag_231:\n        /* \"#utility.yul\":7658:7661   */\n      dup2\n        /* \"#utility.yul\":7652:7662   */\n      mload\n        /* \"#utility.yul\":7685:7703   */\n      0xffffffffffffffff\n        /* \"#utility.yul\":7677:7683   */\n      dup2\n        /* \"#utility.yul\":7674:7704   */\n      gt\n        /* \"#utility.yul\":7671:7727   */\n      iszero\n      tag_477\n      jumpi\n        /* \"#utility.yul\":7707:7725   */\n      tag_477\n      tag_412\n      jump\t// in\n    tag_477:\n        /* \"#utility.yul\":7736:7832   */\n      tag_478\n        /* \"#utility.yul\":7825:7831   */\n      dup2\n        /* \"#utility.yul\":7785:7823   */\n      tag_479\n        /* \"#utility.yul\":7817:7821   */\n      dup5\n        /* \"#utility.yul\":7811:7822   */\n      sload\n        /* \"#utility.yul\":7785:7823   */\n      tag_117\n      jump\t// in\n    tag_479:\n        /* \"#utility.yul\":7779:7783   */\n      dup5\n        /* \"#utility.yul\":7736:7832   */\n      tag_415\n      jump\t// in\n    tag_478:\n        /* \"#utility.yul\":7887:7891   */\n      0x20\n      dup1\n        /* \"#utility.yul\":7951:7953   */\n      0x1f\n        /* \"#utility.yul\":7940:7954   */\n      dup4\n      gt\n        /* \"#utility.yul\":7968:7969   */\n      0x01\n        /* \"#utility.yul\":7963:8625   */\n      dup2\n      eq\n      tag_481\n      jumpi\n        /* \"#utility.yul\":8669:8670   */\n      0x00\n        /* \"#utility.yul\":8686:8692   */\n      dup5\n        /* \"#utility.yul\":8683:8772   */\n      iszero\n      tag_482\n      jumpi\n      pop\n        /* \"#utility.yul\":8738:8757   */\n      dup6\n      dup4\n      add\n        /* \"#utility.yul\":8732:8758   */\n      mload\n        /* \"#utility.yul\":8683:8772   */\n    tag_482:\n      not(0x00)\n        /* \"#utility.yul\":7491:7492   */\n      0x03\n        /* \"#utility.yul\":7487:7498   */\n      dup7\n      swap1\n      shl\n        /* \"#utility.yul\":7483:7507   */\n      shr\n        /* \"#utility.yul\":7479:7508   */\n      not\n        /* \"#utility.yul\":7469:7509   */\n      and\n        /* \"#utility.yul\":7515:7516   */\n      0x01\n        /* \"#utility.yul\":7511:7522   */\n      dup6\n      swap1\n      shl\n        /* \"#utility.yul\":7466:7523   */\n      or\n        /* \"#utility.yul\":8785:8866   */\n      dup6\n      sstore\n        /* \"#utility.yul\":7933:8876   */\n      jump(tag_473)\n        /* \"#utility.yul\":7963:8625   */\n    tag_481:\n        /* \"#utility.yul\":6761:6762   */\n      0x00\n        /* \"#utility.yul\":6754:6768   */\n      dup6\n      dup2\n      mstore\n        /* \"#utility.yul\":6798:6802   */\n      0x20\n        /* \"#utility.yul\":6785:6803   */\n      dup2\n      keccak256\n      not(0x1f)\n        /* \"#utility.yul\":7999:8019   */\n      dup7\n      and\n      swap2\n        /* \"#utility.yul\":8116:8352   */\n    tag_485:\n        /* \"#utility.yul\":8130:8137   */\n      dup3\n        /* \"#utility.yul\":8127:8128   */\n      dup2\n        /* \"#utility.yul\":8124:8138   */\n      lt\n        /* \"#utility.yul\":8116:8352   */\n      iszero\n      tag_487\n      jumpi\n        /* \"#utility.yul\":8219:8238   */\n      dup9\n      dup7\n      add\n        /* \"#utility.yul\":8213:8239   */\n      mload\n        /* \"#utility.yul\":8198:8240   */\n      dup3\n      sstore\n        /* \"#utility.yul\":8311:8338   */\n      swap5\n      dup5\n      add\n      swap5\n        /* \"#utility.yul\":8279:8280   */\n      0x01\n        /* \"#utility.yul\":8267:8281   */\n      swap1\n      swap2\n      add\n      swap1\n        /* \"#utility.yul\":8146:8165   */\n      dup5\n      add\n        /* \"#utility.yul\":8116:8352   */\n      jump(tag_485)\n    tag_487:\n        /* \"#utility.yul\":8120:8123   */\n      pop\n        /* \"#utility.yul\":8380:8386   */\n      dup6\n        /* \"#utility.yul\":8371:8378   */\n      dup3\n        /* \"#utility.yul\":8368:8387   */\n      lt\n        /* \"#utility.yul\":8365:8566   */\n      iszero\n      tag_488\n      jumpi\n        /* \"#utility.yul\":8441:8460   */\n      dup8\n      dup6\n      add\n        /* \"#utility.yul\":8435:8461   */\n      mload\n      not(0x00)\n        /* \"#utility.yul\":8524:8525   */\n      0x03\n        /* \"#utility.yul\":8520:8534   */\n      dup9\n      swap1\n      shl\n        /* \"#utility.yul\":8536:8539   */\n      0xf8\n        /* \"#utility.yul\":8516:8540   */\n      and\n        /* \"#utility.yul\":8512:8549   */\n      shr\n        /* \"#utility.yul\":8508:8550   */\n      not\n        /* \"#utility.yul\":8493:8551   */\n      and\n        /* \"#utility.yul\":8478:8552   */\n      dup2\n      sstore\n        /* \"#utility.yul\":8365:8566   */\n    tag_488:\n      pop\n      pop\n      pop\n      pop\n      pop\n        /* \"#utility.yul\":8612:8613   */\n      0x01\n        /* \"#utility.yul\":8596:8610   */\n      swap1\n      dup2\n      shl\n        /* \"#utility.yul\":8592:8614   */\n      add\n        /* \"#utility.yul\":8579:8615   */\n      swap1\n      sstore\n      pop\n        /* \"#utility.yul\":7534:8882   */\n      jump\t// out\n        /* \"#utility.yul\":8887:9022   */\n    tag_260:\n        /* \"#utility.yul\":8926:8929   */\n      0x00\n        /* \"#utility.yul\":8947:8964   */\n      0x01\n      dup3\n      add\n        /* \"#utility.yul\":8944:8987   */\n      tag_491\n      jumpi\n        /* \"#utility.yul\":8967:8985   */\n      tag_491\n      tag_413\n      jump\t// in\n    tag_491:\n      pop\n        /* \"#utility.yul\":9014:9015   */\n      0x01\n        /* \"#utility.yul\":9003:9016   */\n      add\n      swap1\n        /* \"#utility.yul\":8887:9022   */\n      jump\t// out\n        /* \"#utility.yul\":9027:9314   */\n    tag_266:\n        /* \"#utility.yul\":9156:9159   */\n      0x00\n        /* \"#utility.yul\":9194:9200   */\n      dup3\n        /* \"#utility.yul\":9188:9201   */\n      mload\n        /* \"#utility.yul\":9210:9276   */\n      tag_493\n        /* \"#utility.yul\":9269:9275   */\n      dup2\n        /* \"#utility.yul\":9264:9267   */\n      dup5\n        /* \"#utility.yul\":9257:9261   */\n      0x20\n        /* \"#utility.yul\":9249:9255   */\n      dup8\n        /* \"#utility.yul\":9245:9262   */\n      add\n        /* \"#utility.yul\":9210:9276   */\n      tag_409\n      jump\t// in\n    tag_493:\n        /* \"#utility.yul\":9292:9308   */\n      swap2\n      swap1\n      swap2\n      add\n      swap3\n        /* \"#utility.yul\":9027:9314   */\n      swap2\n      pop\n      pop\n      jump\t// out\n        /* \"#utility.yul\":9319:9444   */\n    tag_304:\n        /* \"#utility.yul\":9384:9393   */\n      dup1\n      dup3\n      add\n        /* \"#utility.yul\":9405:9415   */\n      dup1\n      dup3\n      gt\n        /* \"#utility.yul\":9402:9438   */\n      iszero\n      tag_128\n      jumpi\n        /* \"#utility.yul\":9418:9436   */\n      tag_128\n      tag_413\n      jump\t// in\n        /* \"#utility.yul\":10298:10466   */\n    tag_327:\n        /* \"#utility.yul\":10371:10380   */\n      dup1\n      dup3\n      mul\n        /* \"#utility.yul\":10402:10411   */\n      dup2\n      iszero\n        /* \"#utility.yul\":10419:10434   */\n      dup3\n      dup3\n      div\n        /* \"#utility.yul\":10413:10435   */\n      dup5\n      eq\n        /* \"#utility.yul\":10399:10436   */\n      or\n        /* \"#utility.yul\":10389:10460   */\n      tag_128\n      jumpi\n        /* \"#utility.yul\":10440:10458   */\n      tag_128\n      tag_413\n      jump\t// in\n        /* \"#utility.yul\":10471:10688   */\n    tag_329:\n        /* \"#utility.yul\":10511:10512   */\n      0x00\n        /* \"#utility.yul\":10537:10538   */\n      dup3\n        /* \"#utility.yul\":10527:10659   */\n      tag_503\n      jumpi\n        /* \"#utility.yul\":10581:10591   */\n      0x4e487b71\n        /* \"#utility.yul\":10576:10579   */\n      0xe0\n        /* \"#utility.yul\":10572:10592   */\n      shl\n        /* \"#utility.yul\":10569:10570   */\n      0x00\n        /* \"#utility.yul\":10562:10593   */\n      mstore\n        /* \"#utility.yul\":10616:10620   */\n      0x12\n        /* \"#utility.yul\":10613:10614   */\n      0x04\n        /* \"#utility.yul\":10606:10621   */\n      mstore\n        /* \"#utility.yul\":10644:10648   */\n      0x24\n        /* \"#utility.yul\":10641:10642   */\n      0x00\n        /* \"#utility.yul\":10634:10649   */\n      revert\n        /* \"#utility.yul\":10527:10659   */\n    tag_503:\n      pop\n        /* \"#utility.yul\":10673:10682   */\n      div\n      swap1\n        /* \"#utility.yul\":10471:10688   */\n      jump\t// out\n        /* \"#utility.yul\":11445:11572   */\n    tag_405:\n        /* \"#utility.yul\":11506:11516   */\n      0x4e487b71\n        /* \"#utility.yul\":11501:11504   */\n      0xe0\n        /* \"#utility.yul\":11497:11517   */\n      shl\n        /* \"#utility.yul\":11494:11495   */\n      0x00\n        /* \"#utility.yul\":11487:11518   */\n      mstore\n        /* \"#utility.yul\":11537:11541   */\n      0x31\n        /* \"#utility.yul\":11534:11535   */\n      0x04\n        /* \"#utility.yul\":11527:11542   */\n      mstore\n        /* \"#utility.yul\":11561:11565   */\n      0x24\n        /* \"#utility.yul\":11558:11559   */\n      0x00\n        /* \"#utility.yul\":11551:11566   */\n      revert\n\n    auxdata: 0xa2646970667358221220def9b367cb53178ed9135402a9d032073f5eed9ab255d7fbe6a8fb460e8051d364736f6c63430008130033\n}\n",
				"bytecode": {
					"linkReferences": {},
					"object": "608060405234801561001057600080fd5b506117db806100206000396000f3fe608060405234801561001057600080fd5b506004361061012c5760003560e01c806362d7f1b2116100ad5780637e7b7ccf116100715780637e7b7ccf1461029357806385b2c065146102a6578063ac6193c5146102b9578063c3d511e9146102cc578063ce71d4bc146102df57600080fd5b806362d7f1b21461023f57806365fd04fb1461025257806371dedccf1461025a5780637526c09a1461026d578063797ae5681461028057600080fd5b80633e46d27b116100f45780633e46d27b146101e957806348d7b567146101fe57806351f2aa471461021157806356db323b14610224578063579d9f0c1461022c57600080fd5b80630548dd96146101315780630792ac9e1461015a578063166e34dd1461017d578063348f3a0e146101a8578063366c7c2f146101c9575b600080fd5b61014461013f36600461131b565b610300565b6040516101519190611384565b60405180910390f35b61016d61016836600461131b565b6103bf565b6040519015158152602001610151565b61019061018b36600461131b565b6103fa565b6040516001600160a01b039091168152602001610151565b6101bb6101b636600461131b565b610414565b604051908152602001610151565b6101dc6101d736600461131b565b61044b565b6040516101519190611397565b6101fc6101f7366004611400565b610482565b005b6101fc61020c36600461131b565b6104d4565b6101dc61021f36600461131b565b61059d565b6101dc6105d4565b6101fc61023a36600461131b565b6105eb565b6101bb61024d36600461131b565b61078c565b6101bb6107c3565b6101fc610268366004611400565b6107dd565b6101fc61027b36600461131b565b61082f565b6101bb61028e366004611431565b610885565b6101906102a13660046114f3565b610b21565b6101906102b436600461131b565b610b60565b6101906102c73660046114f3565b610ba1565b6101bb6102da36600461131b565b610be2565b6102f26102ed36600461131b565b610c19565b604051610151929190611515565b606061030a611084565b600201828154811061031e5761031e611538565b90600052602060002090600a0201600501805461033a9061154e565b80601f01602080910402602001604051908101604052809291908181526020018280546103669061154e565b80156103b35780601f10610388576101008083540402835291602001916103b3565b820191906000526020600020905b81548152906001019060200180831161039657829003601f168201915b50505050509050919050565b60006103c9611084565b60020182815481106103dd576103dd611538565b600091825260209091206009600a90920201015460ff1692915050565b600061040e82610408611084565b906110a8565b92915050565b600061041e611084565b600201828154811061043257610432611538565b90600052602060002090600a0201600801549050919050565b606061040e610458611084565b600201838154811061046c5761046c611538565b90600052602060002090600a02016002016110b4565b61048a6110c1565b61049c81610496611084565b906110fe565b506040516001600160a01b038216907f17c697847a800b2606a1d6dbf707bfe0ab37f282b715bf83974d22aef6c6c5b190600090a250565b6104dc6110c1565b61271081111561054f5760405162461bcd60e51b815260206004820152603360248201527f4661636574456d657267656e6379436f6e736f6c653a2063616e6e6f7420626560448201527202067726561746572207468616e20313030303606c1b60648201526084015b60405180910390fd5b6000610559611084565b60030154905081610568611084565b60030155604051829082907ffcf3f87afc01f87de89a2654d7b7108ede6ef634baf9a0e52fb8bae9d2ae72cf90600090a35050565b606061040e6105aa611084565b60020183815481106105be576105be611538565b90600052602060002090600a02016000016110b4565b60606105e66105e1611084565b6110b4565b905090565b610621336105f7611084565b600201838154811061060b5761060b611538565b60009182526020909120600a9091020190611113565b6106825760405162461bcd60e51b815260206004820152602c60248201527f4661636574456d657267656e6379436f6e736f6c653a206f6e6c79206578706560448201526b63746564207369676e65727360a01b6064820152608401610546565b6106c13361068e611084565b60020183815481106106a2576106a2611538565b90600052602060002090600a020160020161111390919063ffffffff16565b1561071c5760405162461bcd60e51b815260206004820152602560248201527f4661636574456d657267656e6379436f6e736f6c653a20616c726561647920736044820152641a59db995960da1b6064820152608401610546565b61075b33610728611084565b600201838154811061073c5761073c611538565b90600052602060002090600a02016002016110fe90919063ffffffff16565b50604051339082907f60e5ab4071e3b4c747a2d2dbb76be81ca6490c4c66c94aee951edbcdf24c31b790600090a350565b6000610796611084565b60020182815481106107aa576107aa611538565b90600052602060002090600a0201600701549050919050565b600060016107cf611084565b600201546105e6919061159e565b6107e56110c1565b6107f7816107f1611084565b90611135565b506040516001600160a01b038216907f0e3f59f467dbe99c689848a95522753581e0bcb090b840b2ebe20976b4b299cf90600090a250565b6108376110c1565b6000610841611084565b60040154905081610850611084565b60040155604051829082907f9e67c70303ddf23f5294553784250d200c84de0e011c05061c99ed5e4a221c1590600090a35050565b600061089a335b610894611084565b90611113565b6108b65760405162461bcd60e51b8152600401610546906115b1565b6108be611084565b60020180546001908101825560009182526108d7611084565b600201546108e5919061159e565b9050836108f0611084565b600201828154811061090457610904611538565b90600052602060002090600a020160040160006101000a8154816001600160a01b0302191690836001600160a01b0316021790555082610942611084565b600201828154811061095657610956611538565b90600052602060002090600a02016005019081610973919061164e565b504261097d611084565b600201828154811061099157610991611538565b90600052602060002090600a0201600601819055506109ae611084565b600401546109ba611084565b60020182815481106109ce576109ce611538565b90600052602060002090600a0201600701819055506109eb611084565b600301546109f7611084565b6002018281548110610a0b57610a0b611538565b90600052602060002090600a02016008018190555060005b610a33610a2e611084565b61114a565b811015610a8e57610a7b610a4982610408611084565b610a51611084565b6002018481548110610a6557610a65611538565b60009182526020909120600a90910201906110fe565b5080610a868161170e565b915050610a23565b506000610a99611084565b6002018281548110610aad57610aad611538565b60009182526020909120600a90910201600901805460ff1916911515919091179055604051610add908490611727565b604051908190038120906001600160a01b0386169083907fc9126753fedc269b93024d5f733c6b59ad9944ff77a1cbc233590df6d6124c7090600090a49392505050565b6000610b5982610b2f611084565b6002018581548110610b4357610b43611538565b60009182526020909120600a90910201906110a8565b9392505050565b6000610b6a611084565b6002018281548110610b7e57610b7e611538565b600091825260209091206004600a9092020101546001600160a01b031692915050565b6000610b5982610baf611084565b6002018581548110610bc357610bc3611538565b90600052602060002090600a02016002016110a890919063ffffffff16565b6000610bec611084565b6002018281548110610c0057610c00611538565b90600052602060002090600a0201600601549050919050565b60006060610c263361088c565b610c425760405162461bcd60e51b8152600401610546906115b1565b6000610c4c611084565b6002018481548110610c6057610c60611538565b90600052602060002090600a020160070154610c7a611084565b6002018581548110610c8e57610c8e611538565b90600052602060002090600a020160060154610caa9190611743565b905080421015610d1b5760405162461bcd60e51b815260206004820152603660248201527f4661636574456d657267656e6379436f6e736f6c653a20656d657267656e6379604482015275081c995c5d595cdd081a5cc81d1a5b595b1bd8dad95960521b6064820152608401610546565b610d23611084565b6002018481548110610d3757610d37611538565b600091825260209091206009600a90920201015460ff1615610dc15760405162461bcd60e51b815260206004820152603960248201527f4661636574456d657267656e6379436f6e736f6c653a20656d657267656e637960448201527f207265717565737420616c7265616479206578656375746564000000000000006064820152608401610546565b6000610dcb611084565b60030154610e04610dda611084565b6002018781548110610dee57610dee611538565b90600052602060002090600a020160000161114a565b610e39610e0f611084565b6002018881548110610e2357610e23611538565b90600052602060002090600a020160020161114a565b610e4590612710611756565b610e4f919061176d565b1015905080610eb75760405162461bcd60e51b815260206004820152602e60248201527f4661636574456d657267656e6379436f6e736f6c653a20696e7375666669636960448201526d656e74207369676e61747572657360901b6064820152608401610546565b6000610ec1611084565b6002018681548110610ed557610ed5611538565b6000918252602082206004600a9092020101546001600160a01b03169150610efb611084565b6002018781548110610f0f57610f0f611538565b90600052602060002090600a02016005018054610f2b9061154e565b80601f0160208091040260200160405190810160405280929190818152602001828054610f579061154e565b8015610fa45780601f10610f7957610100808354040283529160200191610fa4565b820191906000526020600020905b815481529060010190602001808311610f8757829003601f168201915b50505050509050600080836001600160a01b031683604051610fc69190611727565b6000604051808303816000865af19150503d8060008114611003576040519150601f19603f3d011682016040523d82523d6000602084013e611008565b606091505b50915091506001611017611084565b6002018a8154811061102b5761102b611538565b600091825260208220600a9190910201600901805460ff1916921515929092179091556040518a917f5b9d5bd381bd2bbecc9dc1a2bbaa7eb0a074191ad5e8f14605b3993e0e1679f191a2909890975095505050505050565b7faa2c9fde45f1d226339092d8009e028be3452848d3f6b92b731ecf82c0d31f7490565b6000610b598383611154565b60606000610b598361117e565b3330146110fc5760405162461bcd60e51b815260206004820152600960248201526837b7363c9039b2b63360b91b6044820152606401610546565b565b6000610b59836001600160a01b0384166111d9565b6001600160a01b03811660009081526001830160205260408120541515610b59565b6000610b59836001600160a01b038416611228565b600061040e825490565b600082600001828154811061116b5761116b611538565b9060005260206000200154905092915050565b6060816000018054806020026020016040519081016040528092919081815260200182805480156103b357602002820191906000526020600020905b8154815260200190600101908083116111ba5750505050509050919050565b60008181526001830160205260408120546112205750815460018181018455600084815260208082209093018490558454848252828601909352604090209190915561040e565b50600061040e565b6000818152600183016020526040812054801561131157600061124c60018361159e565b85549091506000906112609060019061159e565b90508181146112c557600086600001828154811061128057611280611538565b90600052602060002001549050808760000184815481106112a3576112a3611538565b6000918252602080832090910192909255918252600188019052604090208390555b85548690806112d6576112d661178f565b60019003818190600052602060002001600090559055856001016000868152602001908152602001600020600090556001935050505061040e565b600091505061040e565b60006020828403121561132d57600080fd5b5035919050565b60005b8381101561134f578181015183820152602001611337565b50506000910152565b60008151808452611370816020860160208601611334565b601f01601f19169290920160200192915050565b602081526000610b596020830184611358565b6020808252825182820181905260009190848201906040850190845b818110156113d85783516001600160a01b0316835292840192918401916001016113b3565b50909695505050505050565b80356001600160a01b03811681146113fb57600080fd5b919050565b60006020828403121561141257600080fd5b610b59826113e4565b634e487b7160e01b600052604160045260246000fd5b6000806040838503121561144457600080fd5b61144d836113e4565b9150602083013567ffffffffffffffff8082111561146a57600080fd5b818501915085601f83011261147e57600080fd5b8135818111156114905761149061141b565b604051601f8201601f19908116603f011681019083821181831017156114b8576114b861141b565b816040528281528860208487010111156114d157600080fd5b8260208601602083013760006020848301015280955050505050509250929050565b6000806040838503121561150657600080fd5b50508035926020909101359150565b82151581526040602082015260006115306040830184611358565b949350505050565b634e487b7160e01b600052603260045260246000fd5b600181811c9082168061156257607f821691505b60208210810361158257634e487b7160e01b600052602260045260246000fd5b50919050565b634e487b7160e01b600052601160045260246000fd5b8181038181111561040e5761040e611588565b6020808252602e908201527f4661636574456d657267656e6379436f6e736f6c653a206f6e6c7920656d657260408201526d33b2b731bc9037b832b930ba37b960911b606082015260800190565b601f82111561164957600081815260208120601f850160051c810160208610156116265750805b601f850160051c820191505b8181101561164557828155600101611632565b5050505b505050565b815167ffffffffffffffff8111156116685761166861141b565b61167c81611676845461154e565b846115ff565b602080601f8311600181146116b157600084156116995750858301515b600019600386901b1c1916600185901b178555611645565b600085815260208120601f198616915b828110156116e0578886015182559484019460019091019084016116c1565b50858210156116fe5787850151600019600388901b60f8161c191681555b5050505050600190811b01905550565b60006001820161172057611720611588565b5060010190565b60008251611739818460208701611334565b9190910192915050565b8082018082111561040e5761040e611588565b808202811582820484141761040e5761040e611588565b60008261178a57634e487b7160e01b600052601260045260246000fd5b500490565b634e487b7160e01b600052603160045260246000fdfea2646970667358221220def9b367cb53178ed9135402a9d032073f5eed9ab255d7fbe6a8fb460e8051d364736f6c63430008130033",
					"opcodes": "PUSH1 0x80 PUSH1 0x40 MSTORE CALLVALUE DUP1 ISZERO PUSH2 0x10 JUMPI PUSH1 0x0 DUP1 REVERT JUMPDEST POP PUSH2 0x17DB DUP1 PUSH2 0x20 PUSH1 0x0 CODECOPY PUSH1 0x0 RETURN INVALID PUSH1 0x80 PUSH1 0x40 MSTORE CALLVALUE DUP1 ISZERO PUSH2 0x10 JUMPI PUSH1 0x0 DUP1 REVERT JUMPDEST POP PUSH1 0x4 CALLDATASIZE LT PUSH2 0x12C JUMPI PUSH1 0x0 CALLDATALOAD PUSH1 0xE0 SHR DUP1 PUSH4 0x62D7F1B2 GT PUSH2 0xAD JUMPI DUP1 PUSH4 0x7E7B7CCF GT PUSH2 0x71 JUMPI DUP1 PUSH4 0x7E7B7CCF EQ PUSH2 0x293 JUMPI DUP1 PUSH4 0x85B2C065 EQ PUSH2 0x2A6 JUMPI DUP1 PUSH4 0xAC6193C5 EQ PUSH2 0x2B9 JUMPI DUP1 PUSH4 0xC3D511E9 EQ PUSH2 0x2CC JUMPI DUP1 PUSH4 0xCE71D4BC EQ PUSH2 0x2DF JUMPI PUSH1 0x0 DUP1 REVERT JUMPDEST DUP1 PUSH4 0x62D7F1B2 EQ PUSH2 0x23F JUMPI DUP1 PUSH4 0x65FD04FB EQ PUSH2 0x252 JUMPI DUP1 PUSH4 0x71DEDCCF EQ PUSH2 0x25A JUMPI DUP1 PUSH4 0x7526C09A EQ PUSH2 0x26D JUMPI DUP1 PUSH4 0x797AE568 EQ PUSH2 0x280 JUMPI PUSH1 0x0 DUP1 REVERT JUMPDEST DUP1 PUSH4 0x3E46D27B GT PUSH2 0xF4 JUMPI DUP1 PUSH4 0x3E46D27B EQ PUSH2 0x1E9 JUMPI DUP1 PUSH4 0x48D7B567 EQ PUSH2 0x1FE JUMPI DUP1 PUSH4 0x51F2AA47 EQ PUSH2 0x211 JUMPI DUP1 PUSH4 0x56DB323B EQ PUSH2 0x224 JUMPI DUP1 PUSH4 0x579D9F0C EQ PUSH2 0x22C JUMPI PUSH1 0x0 DUP1 REVERT JUMPDEST DUP1 PUSH4 0x548DD96 EQ PUSH2 0x131 JUMPI DUP1 PUSH4 0x792AC9E EQ PUSH2 0x15A JUMPI DUP1 PUSH4 0x166E34DD EQ PUSH2 0x17D JUMPI DUP1 PUSH4 0x348F3A0E EQ PUSH2 0x1A8 JUMPI DUP1 PUSH4 0x366C7C2F EQ PUSH2 0x1C9 JUMPI JUMPDEST PUSH1 0x0 DUP1 REVERT JUMPDEST PUSH2 0x144 PUSH2 0x13F CALLDATASIZE PUSH1 0x4 PUSH2 0x131B JUMP JUMPDEST PUSH2 0x300 JUMP JUMPDEST PUSH1 0x40 MLOAD PUSH2 0x151 SWAP2 SWAP1 PUSH2 0x1384 JUMP JUMPDEST PUSH1 0x40 MLOAD DUP1 SWAP2 SUB SWAP1 RETURN JUMPDEST PUSH2 0x16D PUSH2 0x168 CALLDATASIZE PUSH1 0x4 PUSH2 0x131B JUMP JUMPDEST PUSH2 0x3BF JUMP JUMPDEST PUSH1 0x40 MLOAD SWAP1 ISZERO ISZERO DUP2 MSTORE PUSH1 0x20 ADD PUSH2 0x151 JUMP JUMPDEST PUSH2 0x190 PUSH2 0x18B CALLDATASIZE PUSH1 0x4 PUSH2 0x131B JUMP JUMPDEST PUSH2 0x3FA JUMP JUMPDEST PUSH1 0x40 MLOAD PUSH1 0x1 PUSH1 0x1 PUSH1 0xA0 SHL SUB SWAP1 SWAP2 AND DUP2 MSTORE PUSH1 0x20 ADD PUSH2 0x151 JUMP JUMPDEST PUSH2 0x1BB PUSH2 0x1B6 CALLDATASIZE PUSH1 0x4 PUSH2 0x131B JUMP JUMPDEST PUSH2 0x414 JUMP JUMPDEST PUSH1 0x40 MLOAD SWAP1 DUP2 MSTORE PUSH1 0x20 ADD PUSH2 0x151 JUMP JUMPDEST PUSH2 0x1DC PUSH2 0x1D7 CALLDATASIZE PUSH1 0x4 PUSH2 0x131B JUMP JUMPDEST PUSH2 0x44B JUMP JUMPDEST PUSH1 0x40 MLOAD PUSH2 0x151 SWAP2 SWAP1 PUSH2 0x1397 JUMP JUMPDEST PUSH2 0x1FC PUSH2 0x1F7 CALLDATASIZE PUSH1 0x4 PUSH2 0x1400 JUMP JUMPDEST PUSH2 0x482 JUMP JUMPDEST STOP JUMPDEST PUSH2 0x1FC PUSH2 0x20C CALLDATASIZE PUSH1 0x4 PUSH2 0x131B JUMP JUMPDEST PUSH2 0x4D4 JUMP JUMPDEST PUSH2 0x1DC PUSH2 0x21F CALLDATASIZE PUSH1 0x4 PUSH2 0x131B JUMP JUMPDEST PUSH2 0x59D JUMP JUMPDEST PUSH2 0x1DC PUSH2 0x5D4 JUMP JUMPDEST PUSH2 0x1FC PUSH2 0x23A CALLDATASIZE PUSH1 0x4 PUSH2 0x131B JUMP JUMPDEST PUSH2 0x5EB JUMP JUMPDEST PUSH2 0x1BB PUSH2 0x24D CALLDATASIZE PUSH1 0x4 PUSH2 0x131B JUMP JUMPDEST PUSH2 0x78C JUMP JUMPDEST PUSH2 0x1BB PUSH2 0x7C3 JUMP JUMPDEST PUSH2 0x1FC PUSH2 0x268 CALLDATASIZE PUSH1 0x4 PUSH2 0x1400 JUMP JUMPDEST PUSH2 0x7DD JUMP JUMPDEST PUSH2 0x1FC PUSH2 0x27B CALLDATASIZE PUSH1 0x4 PUSH2 0x131B JUMP JUMPDEST PUSH2 0x82F JUMP JUMPDEST PUSH2 0x1BB PUSH2 0x28E CALLDATASIZE PUSH1 0x4 PUSH2 0x1431 JUMP JUMPDEST PUSH2 0x885 JUMP JUMPDEST PUSH2 0x190 PUSH2 0x2A1 CALLDATASIZE PUSH1 0x4 PUSH2 0x14F3 JUMP JUMPDEST PUSH2 0xB21 JUMP JUMPDEST PUSH2 0x190 PUSH2 0x2B4 CALLDATASIZE PUSH1 0x4 PUSH2 0x131B JUMP JUMPDEST PUSH2 0xB60 JUMP JUMPDEST PUSH2 0x190 PUSH2 0x2C7 CALLDATASIZE PUSH1 0x4 PUSH2 0x14F3 JUMP JUMPDEST PUSH2 0xBA1 JUMP JUMPDEST PUSH2 0x1BB PUSH2 0x2DA CALLDATASIZE PUSH1 0x4 PUSH2 0x131B JUMP JUMPDEST PUSH2 0xBE2 JUMP JUMPDEST PUSH2 0x2F2 PUSH2 0x2ED CALLDATASIZE PUSH1 0x4 PUSH2 0x131B JUMP JUMPDEST PUSH2 0xC19 JUMP JUMPDEST PUSH1 0x40 MLOAD PUSH2 0x151 SWAP3 SWAP2 SWAP1 PUSH2 0x1515 JUMP JUMPDEST PUSH1 0x60 PUSH2 0x30A PUSH2 0x1084 JUMP JUMPDEST PUSH1 0x2 ADD DUP3 DUP2 SLOAD DUP2 LT PUSH2 0x31E JUMPI PUSH2 0x31E PUSH2 0x1538 JUMP JUMPDEST SWAP1 PUSH1 0x0 MSTORE PUSH1 0x20 PUSH1 0x0 KECCAK256 SWAP1 PUSH1 0xA MUL ADD PUSH1 0x5 ADD DUP1 SLOAD PUSH2 0x33A SWAP1 PUSH2 0x154E JUMP JUMPDEST DUP1 PUSH1 0x1F ADD PUSH1 0x20 DUP1 SWAP2 DIV MUL PUSH1 0x20 ADD PUSH1 0x40 MLOAD SWAP1 DUP2 ADD PUSH1 0x40 MSTORE DUP1 SWAP3 SWAP2 SWAP1 DUP2 DUP2 MSTORE PUSH1 0x20 ADD DUP3 DUP1 SLOAD PUSH2 0x366 SWAP1 PUSH2 0x154E JUMP JUMPDEST DUP1 ISZERO PUSH2 0x3B3 JUMPI DUP1 PUSH1 0x1F LT PUSH2 0x388 JUMPI PUSH2 0x100 DUP1 DUP4 SLOAD DIV MUL DUP4 MSTORE SWAP2 PUSH1 0x20 ADD SWAP2 PUSH2 0x3B3 JUMP JUMPDEST DUP3 ADD SWAP2 SWAP1 PUSH1 0x0 MSTORE PUSH1 0x20 PUSH1 0x0 KECCAK256 SWAP1 JUMPDEST DUP2 SLOAD DUP2 MSTORE SWAP1 PUSH1 0x1 ADD SWAP1 PUSH1 0x20 ADD DUP1 DUP4 GT PUSH2 0x396 JUMPI DUP3 SWAP1 SUB PUSH1 0x1F AND DUP3 ADD SWAP2 JUMPDEST POP POP POP POP POP SWAP1 POP SWAP2 SWAP1 POP JUMP JUMPDEST PUSH1 0x0 PUSH2 0x3C9 PUSH2 0x1084 JUMP JUMPDEST PUSH1 0x2 ADD DUP3 DUP2 SLOAD DUP2 LT PUSH2 0x3DD JUMPI PUSH2 0x3DD PUSH2 0x1538 JUMP JUMPDEST PUSH1 0x0 SWAP2 DUP3 MSTORE PUSH1 0x20 SWAP1 SWAP2 KECCAK256 PUSH1 0x9 PUSH1 0xA SWAP1 SWAP3 MUL ADD ADD SLOAD PUSH1 0xFF AND SWAP3 SWAP2 POP POP JUMP JUMPDEST PUSH1 0x0 PUSH2 0x40E DUP3 PUSH2 0x408 PUSH2 0x1084 JUMP JUMPDEST SWAP1 PUSH2 0x10A8 JUMP JUMPDEST SWAP3 SWAP2 POP POP JUMP JUMPDEST PUSH1 0x0 PUSH2 0x41E PUSH2 0x1084 JUMP JUMPDEST PUSH1 0x2 ADD DUP3 DUP2 SLOAD DUP2 LT PUSH2 0x432 JUMPI PUSH2 0x432 PUSH2 0x1538 JUMP JUMPDEST SWAP1 PUSH1 0x0 MSTORE PUSH1 0x20 PUSH1 0x0 KECCAK256 SWAP1 PUSH1 0xA MUL ADD PUSH1 0x8 ADD SLOAD SWAP1 POP SWAP2 SWAP1 POP JUMP JUMPDEST PUSH1 0x60 PUSH2 0x40E PUSH2 0x458 PUSH2 0x1084 JUMP JUMPDEST PUSH1 0x2 ADD DUP4 DUP2 SLOAD DUP2 LT PUSH2 0x46C JUMPI PUSH2 0x46C PUSH2 0x1538 JUMP JUMPDEST SWAP1 PUSH1 0x0 MSTORE PUSH1 0x20 PUSH1 0x0 KECCAK256 SWAP1 PUSH1 0xA MUL ADD PUSH1 0x2 ADD PUSH2 0x10B4 JUMP JUMPDEST PUSH2 0x48A PUSH2 0x10C1 JUMP JUMPDEST PUSH2 0x49C DUP2 PUSH2 0x496 PUSH2 0x1084 JUMP JUMPDEST SWAP1 PUSH2 0x10FE JUMP JUMPDEST POP PUSH1 0x40 MLOAD PUSH1 0x1 PUSH1 0x1 PUSH1 0xA0 SHL SUB DUP3 AND SWAP1 PUSH32 0x17C697847A800B2606A1D6DBF707BFE0AB37F282B715BF83974D22AEF6C6C5B1 SWAP1 PUSH1 0x0 SWAP1 LOG2 POP JUMP JUMPDEST PUSH2 0x4DC PUSH2 0x10C1 JUMP JUMPDEST PUSH2 0x2710 DUP2 GT ISZERO PUSH2 0x54F JUMPI PUSH1 0x40 MLOAD PUSH3 0x461BCD PUSH1 0xE5 SHL DUP2 MSTORE PUSH1 0x20 PUSH1 0x4 DUP3 ADD MSTORE PUSH1 0x33 PUSH1 0x24 DUP3 ADD MSTORE PUSH32 0x4661636574456D657267656E6379436F6E736F6C653A2063616E6E6F74206265 PUSH1 0x44 DUP3 ADD MSTORE PUSH19 0x2067726561746572207468616E20313030303 PUSH1 0x6C SHL PUSH1 0x64 DUP3 ADD MSTORE PUSH1 0x84 ADD JUMPDEST PUSH1 0x40 MLOAD DUP1 SWAP2 SUB SWAP1 REVERT JUMPDEST PUSH1 0x0 PUSH2 0x559 PUSH2 0x1084 JUMP JUMPDEST PUSH1 0x3 ADD SLOAD SWAP1 POP DUP2 PUSH2 0x568 PUSH2 0x1084 JUMP JUMPDEST PUSH1 0x3 ADD SSTORE PUSH1 0x40 MLOAD DUP3 SWAP1 DUP3 SWAP1 PUSH32 0xFCF3F87AFC01F87DE89A2654D7B7108EDE6EF634BAF9A0E52FB8BAE9D2AE72CF SWAP1 PUSH1 0x0 SWAP1 LOG3 POP POP JUMP JUMPDEST PUSH1 0x60 PUSH2 0x40E PUSH2 0x5AA PUSH2 0x1084 JUMP JUMPDEST PUSH1 0x2 ADD DUP4 DUP2 SLOAD DUP2 LT PUSH2 0x5BE JUMPI PUSH2 0x5BE PUSH2 0x1538 JUMP JUMPDEST SWAP1 PUSH1 0x0 MSTORE PUSH1 0x20 PUSH1 0x0 KECCAK256 SWAP1 PUSH1 0xA MUL ADD PUSH1 0x0 ADD PUSH2 0x10B4 JUMP JUMPDEST PUSH1 0x60 PUSH2 0x5E6 PUSH2 0x5E1 PUSH2 0x1084 JUMP JUMPDEST PUSH2 0x10B4 JUMP JUMPDEST SWAP1 POP SWAP1 JUMP JUMPDEST PUSH2 0x621 CALLER PUSH2 0x5F7 PUSH2 0x1084 JUMP JUMPDEST PUSH1 0x2 ADD DUP4 DUP2 SLOAD DUP2 LT PUSH2 0x60B JUMPI PUSH2 0x60B PUSH2 0x1538 JUMP JUMPDEST PUSH1 0x0 SWAP2 DUP3 MSTORE PUSH1 0x20 SWAP1 SWAP2 KECCAK256 PUSH1 0xA SWAP1 SWAP2 MUL ADD SWAP1 PUSH2 0x1113 JUMP JUMPDEST PUSH2 0x682 JUMPI PUSH1 0x40 MLOAD PUSH3 0x461BCD PUSH1 0xE5 SHL DUP2 MSTORE PUSH1 0x20 PUSH1 0x4 DUP3 ADD MSTORE PUSH1 0x2C PUSH1 0x24 DUP3 ADD MSTORE PUSH32 0x4661636574456D657267656E6379436F6E736F6C653A206F6E6C792065787065 PUSH1 0x44 DUP3 ADD MSTORE PUSH12 0x63746564207369676E657273 PUSH1 0xA0 SHL PUSH1 0x64 DUP3 ADD MSTORE PUSH1 0x84 ADD PUSH2 0x546 JUMP JUMPDEST PUSH2 0x6C1 CALLER PUSH2 0x68E PUSH2 0x1084 JUMP JUMPDEST PUSH1 0x2 ADD DUP4 DUP2 SLOAD DUP2 LT PUSH2 0x6A2 JUMPI PUSH2 0x6A2 PUSH2 0x1538 JUMP JUMPDEST SWAP1 PUSH1 0x0 MSTORE PUSH1 0x20 PUSH1 0x0 KECCAK256 SWAP1 PUSH1 0xA MUL ADD PUSH1 0x2 ADD PUSH2 0x1113 SWAP1 SWAP2 SWAP1 PUSH4 0xFFFFFFFF AND JUMP JUMPDEST ISZERO PUSH2 0x71C JUMPI PUSH1 0x40 MLOAD PUSH3 0x461BCD PUSH1 0xE5 SHL DUP2 MSTORE PUSH1 0x20 PUSH1 0x4 DUP3 ADD MSTORE PUSH1 0x25 PUSH1 0x24 DUP3 ADD MSTORE PUSH32 0x4661636574456D657267656E6379436F6E736F6C653A20616C72656164792073 PUSH1 0x44 DUP3 ADD MSTORE PUSH5 0x1A59DB9959 PUSH1 0xDA SHL PUSH1 0x64 DUP3 ADD MSTORE PUSH1 0x84 ADD PUSH2 0x546 JUMP JUMPDEST PUSH2 0x75B CALLER PUSH2 0x728 PUSH2 0x1084 JUMP JUMPDEST PUSH1 0x2 ADD DUP4 DUP2 SLOAD DUP2 LT PUSH2 0x73C JUMPI PUSH2 0x73C PUSH2 0x1538 JUMP JUMPDEST SWAP1 PUSH1 0x0 MSTORE PUSH1 0x20 PUSH1 0x0 KECCAK256 SWAP1 PUSH1 0xA MUL ADD PUSH1 0x2 ADD PUSH2 0x10FE SWAP1 SWAP2 SWAP1 PUSH4 0xFFFFFFFF AND JUMP JUMPDEST POP PUSH1 0x40 MLOAD CALLER SWAP1 DUP3 SWAP1 PUSH32 0x60E5AB4071E3B4C747A2D2DBB76BE81CA6490C4C66C94AEE951EDBCDF24C31B7 SWAP1 PUSH1 0x0 SWAP1 LOG3 POP JUMP JUMPDEST PUSH1 0x0 PUSH2 0x796 PUSH2 0x1084 JUMP JUMPDEST PUSH1 0x2 ADD DUP3 DUP2 SLOAD DUP2 LT PUSH2 0x7AA JUMPI PUSH2 0x7AA PUSH2 0x1538 JUMP JUMPDEST SWAP1 PUSH1 0x0 MSTORE PUSH1 0x20 PUSH1 0x0 KECCAK256 SWAP1 PUSH1 0xA MUL ADD PUSH1 0x7 ADD SLOAD SWAP1 POP SWAP2 SWAP1 POP JUMP JUMPDEST PUSH1 0x0 PUSH1 0x1 PUSH2 0x7CF PUSH2 0x1084 JUMP JUMPDEST PUSH1 0x2 ADD SLOAD PUSH2 0x5E6 SWAP2 SWAP1 PUSH2 0x159E JUMP JUMPDEST PUSH2 0x7E5 PUSH2 0x10C1 JUMP JUMPDEST PUSH2 0x7F7 DUP2 PUSH2 0x7F1 PUSH2 0x1084 JUMP JUMPDEST SWAP1 PUSH2 0x1135 JUMP JUMPDEST POP PUSH1 0x40 MLOAD PUSH1 0x1 PUSH1 0x1 PUSH1 0xA0 SHL SUB DUP3 AND SWAP1 PUSH32 0xE3F59F467DBE99C689848A95522753581E0BCB090B840B2EBE20976B4B299CF SWAP1 PUSH1 0x0 SWAP1 LOG2 POP JUMP JUMPDEST PUSH2 0x837 PUSH2 0x10C1 JUMP JUMPDEST PUSH1 0x0 PUSH2 0x841 PUSH2 0x1084 JUMP JUMPDEST PUSH1 0x4 ADD SLOAD SWAP1 POP DUP2 PUSH2 0x850 PUSH2 0x1084 JUMP JUMPDEST PUSH1 0x4 ADD SSTORE PUSH1 0x40 MLOAD DUP3 SWAP1 DUP3 SWAP1 PUSH32 0x9E67C70303DDF23F5294553784250D200C84DE0E011C05061C99ED5E4A221C15 SWAP1 PUSH1 0x0 SWAP1 LOG3 POP POP JUMP JUMPDEST PUSH1 0x0 PUSH2 0x89A CALLER JUMPDEST PUSH2 0x894 PUSH2 0x1084 JUMP JUMPDEST SWAP1 PUSH2 0x1113 JUMP JUMPDEST PUSH2 0x8B6 JUMPI PUSH1 0x40 MLOAD PUSH3 0x461BCD PUSH1 0xE5 SHL DUP2 MSTORE PUSH1 0x4 ADD PUSH2 0x546 SWAP1 PUSH2 0x15B1 JUMP JUMPDEST PUSH2 0x8BE PUSH2 0x1084 JUMP JUMPDEST PUSH1 0x2 ADD DUP1 SLOAD PUSH1 0x1 SWAP1 DUP2 ADD DUP3 SSTORE PUSH1 0x0 SWAP2 DUP3 MSTORE PUSH2 0x8D7 PUSH2 0x1084 JUMP JUMPDEST PUSH1 0x2 ADD SLOAD PUSH2 0x8E5 SWAP2 SWAP1 PUSH2 0x159E JUMP JUMPDEST SWAP1 POP DUP4 PUSH2 0x8F0 PUSH2 0x1084 JUMP JUMPDEST PUSH1 0x2 ADD DUP3 DUP2 SLOAD DUP2 LT PUSH2 0x904 JUMPI PUSH2 0x904 PUSH2 0x1538 JUMP JUMPDEST SWAP1 PUSH1 0x0 MSTORE PUSH1 0x20 PUSH1 0x0 KECCAK256 SWAP1 PUSH1 0xA MUL ADD PUSH1 0x4 ADD PUSH1 0x0 PUSH2 0x100 EXP DUP2 SLOAD DUP2 PUSH1 0x1 PUSH1 0x1 PUSH1 0xA0 SHL SUB MUL NOT AND SWAP1 DUP4 PUSH1 0x1 PUSH1 0x1 PUSH1 0xA0 SHL SUB AND MUL OR SWAP1 SSTORE POP DUP3 PUSH2 0x942 PUSH2 0x1084 JUMP JUMPDEST PUSH1 0x2 ADD DUP3 DUP2 SLOAD DUP2 LT PUSH2 0x956 JUMPI PUSH2 0x956 PUSH2 0x1538 JUMP JUMPDEST SWAP1 PUSH1 0x0 MSTORE PUSH1 0x20 PUSH1 0x0 KECCAK256 SWAP1 PUSH1 0xA MUL ADD PUSH1 0x5 ADD SWAP1 DUP2 PUSH2 0x973 SWAP2 SWAP1 PUSH2 0x164E JUMP JUMPDEST POP TIMESTAMP PUSH2 0x97D PUSH2 0x1084 JUMP JUMPDEST PUSH1 0x2 ADD DUP3 DUP2 SLOAD DUP2 LT PUSH2 0x991 JUMPI PUSH2 0x991 PUSH2 0x1538 JUMP JUMPDEST SWAP1 PUSH1 0x0 MSTORE PUSH1 0x20 PUSH1 0x0 KECCAK256 SWAP1 PUSH1 0xA MUL ADD PUSH1 0x6 ADD DUP2 SWAP1 SSTORE POP PUSH2 0x9AE PUSH2 0x1084 JUMP JUMPDEST PUSH1 0x4 ADD SLOAD PUSH2 0x9BA PUSH2 0x1084 JUMP JUMPDEST PUSH1 0x2 ADD DUP3 DUP2 SLOAD DUP2 LT PUSH2 0x9CE JUMPI PUSH2 0x9CE PUSH2 0x1538 JUMP JUMPDEST SWAP1 PUSH1 0x0 MSTORE PUSH1 0x20 PUSH1 0x0 KECCAK256 SWAP1 PUSH1 0xA MUL ADD PUSH1 0x7 ADD DUP2 SWAP1 SSTORE POP PUSH2 0x9EB PUSH2 0x1084 JUMP JUMPDEST PUSH1 0x3 ADD SLOAD PUSH2 0x9F7 PUSH2 0x1084 JUMP JUMPDEST PUSH1 0x2 ADD DUP3 DUP2 SLOAD DUP2 LT PUSH2 0xA0B JUMPI PUSH2 0xA0B PUSH2 0x1538 JUMP JUMPDEST SWAP1 PUSH1 0x0 MSTORE PUSH1 0x20 PUSH1 0x0 KECCAK256 SWAP1 PUSH1 0xA MUL ADD PUSH1 0x8 ADD DUP2 SWAP1 SSTORE POP PUSH1 0x0 JUMPDEST PUSH2 0xA33 PUSH2 0xA2E PUSH2 0x1084 JUMP JUMPDEST PUSH2 0x114A JUMP JUMPDEST DUP2 LT ISZERO PUSH2 0xA8E JUMPI PUSH2 0xA7B PUSH2 0xA49 DUP3 PUSH2 0x408 PUSH2 0x1084 JUMP JUMPDEST PUSH2 0xA51 PUSH2 0x1084 JUMP JUMPDEST PUSH1 0x2 ADD DUP5 DUP2 SLOAD DUP2 LT PUSH2 0xA65 JUMPI PUSH2 0xA65 PUSH2 0x1538 JUMP JUMPDEST PUSH1 0x0 SWAP2 DUP3 MSTORE PUSH1 0x20 SWAP1 SWAP2 KECCAK256 PUSH1 0xA SWAP1 SWAP2 MUL ADD SWAP1 PUSH2 0x10FE JUMP JUMPDEST POP DUP1 PUSH2 0xA86 DUP2 PUSH2 0x170E JUMP JUMPDEST SWAP2 POP POP PUSH2 0xA23 JUMP JUMPDEST POP PUSH1 0x0 PUSH2 0xA99 PUSH2 0x1084 JUMP JUMPDEST PUSH1 0x2 ADD DUP3 DUP2 SLOAD DUP2 LT PUSH2 0xAAD JUMPI PUSH2 0xAAD PUSH2 0x1538 JUMP JUMPDEST PUSH1 0x0 SWAP2 DUP3 MSTORE PUSH1 0x20 SWAP1 SWAP2 KECCAK256 PUSH1 0xA SWAP1 SWAP2 MUL ADD PUSH1 0x9 ADD DUP1 SLOAD PUSH1 0xFF NOT AND SWAP2 ISZERO ISZERO SWAP2 SWAP1 SWAP2 OR SWAP1 SSTORE PUSH1 0x40 MLOAD PUSH2 0xADD SWAP1 DUP5 SWAP1 PUSH2 0x1727 JUMP JUMPDEST PUSH1 0x40 MLOAD SWAP1 DUP2 SWAP1 SUB DUP2 KECCAK256 SWAP1 PUSH1 0x1 PUSH1 0x1 PUSH1 0xA0 SHL SUB DUP7 AND SWAP1 DUP4 SWAP1 PUSH32 0xC9126753FEDC269B93024D5F733C6B59AD9944FF77A1CBC233590DF6D6124C70 SWAP1 PUSH1 0x0 SWAP1 LOG4 SWAP4 SWAP3 POP POP POP JUMP JUMPDEST PUSH1 0x0 PUSH2 0xB59 DUP3 PUSH2 0xB2F PUSH2 0x1084 JUMP JUMPDEST PUSH1 0x2 ADD DUP6 DUP2 SLOAD DUP2 LT PUSH2 0xB43 JUMPI PUSH2 0xB43 PUSH2 0x1538 JUMP JUMPDEST PUSH1 0x0 SWAP2 DUP3 MSTORE PUSH1 0x20 SWAP1 SWAP2 KECCAK256 PUSH1 0xA SWAP1 SWAP2 MUL ADD SWAP1 PUSH2 0x10A8 JUMP JUMPDEST SWAP4 SWAP3 POP POP POP JUMP JUMPDEST PUSH1 0x0 PUSH2 0xB6A PUSH2 0x1084 JUMP JUMPDEST PUSH1 0x2 ADD DUP3 DUP2 SLOAD DUP2 LT PUSH2 0xB7E JUMPI PUSH2 0xB7E PUSH2 0x1538 JUMP JUMPDEST PUSH1 0x0 SWAP2 DUP3 MSTORE PUSH1 0x20 SWAP1 SWAP2 KECCAK256 PUSH1 0x4 PUSH1 0xA SWAP1 SWAP3 MUL ADD ADD SLOAD PUSH1 0x1 PUSH1 0x1 PUSH1 0xA0 SHL SUB AND SWAP3 SWAP2 POP POP JUMP JUMPDEST PUSH1 0x0 PUSH2 0xB59 DUP3 PUSH2 0xBAF PUSH2 0x1084 JUMP JUMPDEST PUSH1 0x2 ADD DUP6 DUP2 SLOAD DUP2 LT PUSH2 0xBC3 JUMPI PUSH2 0xBC3 PUSH2 0x1538 JUMP JUMPDEST SWAP1 PUSH1 0x0 MSTORE PUSH1 0x20 PUSH1 0x0 KECCAK256 SWAP1 PUSH1 0xA MUL ADD PUSH1 0x2 ADD PUSH2 0x10A8 SWAP1 SWAP2 SWAP1 PUSH4 0xFFFFFFFF AND JUMP JUMPDEST PUSH1 0x0 PUSH2 0xBEC PUSH2 0x1084 JUMP JUMPDEST PUSH1 0x2 ADD DUP3 DUP2 SLOAD DUP2 LT PUSH2 0xC00 JUMPI PUSH2 0xC00 PUSH2 0x1538 JUMP JUMPDEST SWAP1 PUSH1 0x0 MSTORE PUSH1 0x20 PUSH1 0x0 KECCAK256 SWAP1 PUSH1 0xA MUL ADD PUSH1 0x6 ADD SLOAD SWAP1 POP SWAP2 SWAP1 POP JUMP JUMPDEST PUSH1 0x0 PUSH1 0x60 PUSH2 0xC26 CALLER PUSH2 0x88C JUMP JUMPDEST PUSH2 0xC42 JUMPI PUSH1 0x40 MLOAD PUSH3 0x461BCD PUSH1 0xE5 SHL DUP2 MSTORE PUSH1 0x4 ADD PUSH2 0x546 SWAP1 PUSH2 0x15B1 JUMP JUMPDEST PUSH1 0x0 PUSH2 0xC4C PUSH2 0x1084 JUMP JUMPDEST PUSH1 0x2 ADD DUP5 DUP2 SLOAD DUP2 LT PUSH2 0xC60 JUMPI PUSH2 0xC60 PUSH2 0x1538 JUMP JUMPDEST SWAP1 PUSH1 0x0 MSTORE PUSH1 0x20 PUSH1 0x0 KECCAK256 SWAP1 PUSH1 0xA MUL ADD PUSH1 0x7 ADD SLOAD PUSH2 0xC7A PUSH2 0x1084 JUMP JUMPDEST PUSH1 0x2 ADD DUP6 DUP2 SLOAD DUP2 LT PUSH2 0xC8E JUMPI PUSH2 0xC8E PUSH2 0x1538 JUMP JUMPDEST SWAP1 PUSH1 0x0 MSTORE PUSH1 0x20 PUSH1 0x0 KECCAK256 SWAP1 PUSH1 0xA MUL ADD PUSH1 0x6 ADD SLOAD PUSH2 0xCAA SWAP2 SWAP1 PUSH2 0x1743 JUMP JUMPDEST SWAP1 POP DUP1 TIMESTAMP LT ISZERO PUSH2 0xD1B JUMPI PUSH1 0x40 MLOAD PUSH3 0x461BCD PUSH1 0xE5 SHL DUP2 MSTORE PUSH1 0x20 PUSH1 0x4 DUP3 ADD MSTORE PUSH1 0x36 PUSH1 0x24 DUP3 ADD MSTORE PUSH32 0x4661636574456D657267656E6379436F6E736F6C653A20656D657267656E6379 PUSH1 0x44 DUP3 ADD MSTORE PUSH22 0x81C995C5D595CDD081A5CC81D1A5B595B1BD8DAD959 PUSH1 0x52 SHL PUSH1 0x64 DUP3 ADD MSTORE PUSH1 0x84 ADD PUSH2 0x546 JUMP JUMPDEST PUSH2 0xD23 PUSH2 0x1084 JUMP JUMPDEST PUSH1 0x2 ADD DUP5 DUP2 SLOAD DUP2 LT PUSH2 0xD37 JUMPI PUSH2 0xD37 PUSH2 0x1538 JUMP JUMPDEST PUSH1 0x0 SWAP2 DUP3 MSTORE PUSH1 0x20 SWAP1 SWAP2 KECCAK256 PUSH1 0x9 PUSH1 0xA SWAP1 SWAP3 MUL ADD ADD SLOAD PUSH1 0xFF AND ISZERO PUSH2 0xDC1 JUMPI PUSH1 0x40 MLOAD PUSH3 0x461BCD PUSH1 0xE5 SHL DUP2 MSTORE PUSH1 0x20 PUSH1 0x4 DUP3 ADD MSTORE PUSH1 0x39 PUSH1 0x24 DUP3 ADD MSTORE PUSH32 0x4661636574456D657267656E6379436F6E736F6C653A20656D657267656E6379 PUSH1 0x44 DUP3 ADD MSTORE PUSH32 0x207265717565737420616C726561647920657865637574656400000000000000 PUSH1 0x64 DUP3 ADD MSTORE PUSH1 0x84 ADD PUSH2 0x546 JUMP JUMPDEST PUSH1 0x0 PUSH2 0xDCB PUSH2 0x1084 JUMP JUMPDEST PUSH1 0x3 ADD SLOAD PUSH2 0xE04 PUSH2 0xDDA PUSH2 0x1084 JUMP JUMPDEST PUSH1 0x2 ADD DUP8 DUP2 SLOAD DUP2 LT PUSH2 0xDEE JUMPI PUSH2 0xDEE PUSH2 0x1538 JUMP JUMPDEST SWAP1 PUSH1 0x0 MSTORE PUSH1 0x20 PUSH1 0x0 KECCAK256 SWAP1 PUSH1 0xA MUL ADD PUSH1 0x0 ADD PUSH2 0x114A JUMP JUMPDEST PUSH2 0xE39 PUSH2 0xE0F PUSH2 0x1084 JUMP JUMPDEST PUSH1 0x2 ADD DUP9 DUP2 SLOAD DUP2 LT PUSH2 0xE23 JUMPI PUSH2 0xE23 PUSH2 0x1538 JUMP JUMPDEST SWAP1 PUSH1 0x0 MSTORE PUSH1 0x20 PUSH1 0x0 KECCAK256 SWAP1 PUSH1 0xA MUL ADD PUSH1 0x2 ADD PUSH2 0x114A JUMP JUMPDEST PUSH2 0xE45 SWAP1 PUSH2 0x2710 PUSH2 0x1756 JUMP JUMPDEST PUSH2 0xE4F SWAP2 SWAP1 PUSH2 0x176D JUMP JUMPDEST LT ISZERO SWAP1 POP DUP1 PUSH2 0xEB7 JUMPI PUSH1 0x40 MLOAD PUSH3 0x461BCD PUSH1 0xE5 SHL DUP2 MSTORE PUSH1 0x20 PUSH1 0x4 DUP3 ADD MSTORE PUSH1 0x2E PUSH1 0x24 DUP3 ADD MSTORE PUSH32 0x4661636574456D657267656E6379436F6E736F6C653A20696E73756666696369 PUSH1 0x44 DUP3 ADD MSTORE PUSH14 0x656E74207369676E617475726573 PUSH1 0x90 SHL PUSH1 0x64 DUP3 ADD MSTORE PUSH1 0x84 ADD PUSH2 0x546 JUMP JUMPDEST PUSH1 0x0 PUSH2 0xEC1 PUSH2 0x1084 JUMP JUMPDEST PUSH1 0x2 ADD DUP7 DUP2 SLOAD DUP2 LT PUSH2 0xED5 JUMPI PUSH2 0xED5 PUSH2 0x1538 JUMP JUMPDEST PUSH1 0x0 SWAP2 DUP3 MSTORE PUSH1 0x20 DUP3 KECCAK256 PUSH1 0x4 PUSH1 0xA SWAP1 SWAP3 MUL ADD ADD SLOAD PUSH1 0x1 PUSH1 0x1 PUSH1 0xA0 SHL SUB AND SWAP2 POP PUSH2 0xEFB PUSH2 0x1084 JUMP JUMPDEST PUSH1 0x2 ADD DUP8 DUP2 SLOAD DUP2 LT PUSH2 0xF0F JUMPI PUSH2 0xF0F PUSH2 0x1538 JUMP JUMPDEST SWAP1 PUSH1 0x0 MSTORE PUSH1 0x20 PUSH1 0x0 KECCAK256 SWAP1 PUSH1 0xA MUL ADD PUSH1 0x5 ADD DUP1 SLOAD PUSH2 0xF2B SWAP1 PUSH2 0x154E JUMP JUMPDEST DUP1 PUSH1 0x1F ADD PUSH1 0x20 DUP1 SWAP2 DIV MUL PUSH1 0x20 ADD PUSH1 0x40 MLOAD SWAP1 DUP2 ADD PUSH1 0x40 MSTORE DUP1 SWAP3 SWAP2 SWAP1 DUP2 DUP2 MSTORE PUSH1 0x20 ADD DUP3 DUP1 SLOAD PUSH2 0xF57 SWAP1 PUSH2 0x154E JUMP JUMPDEST DUP1 ISZERO PUSH2 0xFA4 JUMPI DUP1 PUSH1 0x1F LT PUSH2 0xF79 JUMPI PUSH2 0x100 DUP1 DUP4 SLOAD DIV MUL DUP4 MSTORE SWAP2 PUSH1 0x20 ADD SWAP2 PUSH2 0xFA4 JUMP JUMPDEST DUP3 ADD SWAP2 SWAP1 PUSH1 0x0 MSTORE PUSH1 0x20 PUSH1 0x0 KECCAK256 SWAP1 JUMPDEST DUP2 SLOAD DUP2 MSTORE SWAP1 PUSH1 0x1 ADD SWAP1 PUSH1 0x20 ADD DUP1 DUP4 GT PUSH2 0xF87 JUMPI DUP3 SWAP1 SUB PUSH1 0x1F AND DUP3 ADD SWAP2 JUMPDEST POP POP POP POP POP SWAP1 POP PUSH1 0x0 DUP1 DUP4 PUSH1 0x1 PUSH1 0x1 PUSH1 0xA0 SHL SUB AND DUP4 PUSH1 0x40 MLOAD PUSH2 0xFC6 SWAP2 SWAP1 PUSH2 0x1727 JUMP JUMPDEST PUSH1 0x0 PUSH1 0x40 MLOAD DUP1 DUP4 SUB DUP2 PUSH1 0x0 DUP7 GAS CALL SWAP2 POP POP RETURNDATASIZE DUP1 PUSH1 0x0 DUP2 EQ PUSH2 0x1003 JUMPI PUSH1 0x40 MLOAD SWAP2 POP PUSH1 0x1F NOT PUSH1 0x3F RETURNDATASIZE ADD AND DUP3 ADD PUSH1 0x40 MSTORE RETURNDATASIZE DUP3 MSTORE RETURNDATASIZE PUSH1 0x0 PUSH1 0x20 DUP5 ADD RETURNDATACOPY PUSH2 0x1008 JUMP JUMPDEST PUSH1 0x60 SWAP2 POP JUMPDEST POP SWAP2 POP SWAP2 POP PUSH1 0x1 PUSH2 0x1017 PUSH2 0x1084 JUMP JUMPDEST PUSH1 0x2 ADD DUP11 DUP2 SLOAD DUP2 LT PUSH2 0x102B JUMPI PUSH2 0x102B PUSH2 0x1538 JUMP JUMPDEST PUSH1 0x0 SWAP2 DUP3 MSTORE PUSH1 0x20 DUP3 KECCAK256 PUSH1 0xA SWAP2 SWAP1 SWAP2 MUL ADD PUSH1 0x9 ADD DUP1 SLOAD PUSH1 0xFF NOT AND SWAP3 ISZERO ISZERO SWAP3 SWAP1 SWAP3 OR SWAP1 SWAP2 SSTORE PUSH1 0x40 MLOAD DUP11 SWAP2 PUSH32 0x5B9D5BD381BD2BBECC9DC1A2BBAA7EB0A074191AD5E8F14605B3993E0E1679F1 SWAP2 LOG2 SWAP1 SWAP9 SWAP1 SWAP8 POP SWAP6 POP POP POP POP POP POP JUMP JUMPDEST PUSH32 0xAA2C9FDE45F1D226339092D8009E028BE3452848D3F6B92B731ECF82C0D31F74 SWAP1 JUMP JUMPDEST PUSH1 0x0 PUSH2 0xB59 DUP4 DUP4 PUSH2 0x1154 JUMP JUMPDEST PUSH1 0x60 PUSH1 0x0 PUSH2 0xB59 DUP4 PUSH2 0x117E JUMP JUMPDEST CALLER ADDRESS EQ PUSH2 0x10FC JUMPI PUSH1 0x40 MLOAD PUSH3 0x461BCD PUSH1 0xE5 SHL DUP2 MSTORE PUSH1 0x20 PUSH1 0x4 DUP3 ADD MSTORE PUSH1 0x9 PUSH1 0x24 DUP3 ADD MSTORE PUSH9 0x37B7363C9039B2B633 PUSH1 0xB9 SHL PUSH1 0x44 DUP3 ADD MSTORE PUSH1 0x64 ADD PUSH2 0x546 JUMP JUMPDEST JUMP JUMPDEST PUSH1 0x0 PUSH2 0xB59 DUP4 PUSH1 0x1 PUSH1 0x1 PUSH1 0xA0 SHL SUB DUP5 AND PUSH2 0x11D9 JUMP JUMPDEST PUSH1 0x1 PUSH1 0x1 PUSH1 0xA0 SHL SUB DUP2 AND PUSH1 0x0 SWAP1 DUP2 MSTORE PUSH1 0x1 DUP4 ADD PUSH1 0x20 MSTORE PUSH1 0x40 DUP2 KECCAK256 SLOAD ISZERO ISZERO PUSH2 0xB59 JUMP JUMPDEST PUSH1 0x0 PUSH2 0xB59 DUP4 PUSH1 0x1 PUSH1 0x1 PUSH1 0xA0 SHL SUB DUP5 AND PUSH2 0x1228 JUMP JUMPDEST PUSH1 0x0 PUSH2 0x40E DUP3 SLOAD SWAP1 JUMP JUMPDEST PUSH1 0x0 DUP3 PUSH1 0x0 ADD DUP3 DUP2 SLOAD DUP2 LT PUSH2 0x116B JUMPI PUSH2 0x116B PUSH2 0x1538 JUMP JUMPDEST SWAP1 PUSH1 0x0 MSTORE PUSH1 0x20 PUSH1 0x0 KECCAK256 ADD SLOAD SWAP1 POP SWAP3 SWAP2 POP POP JUMP JUMPDEST PUSH1 0x60 DUP2 PUSH1 0x0 ADD DUP1 SLOAD DUP1 PUSH1 0x20 MUL PUSH1 0x20 ADD PUSH1 0x40 MLOAD SWAP1 DUP2 ADD PUSH1 0x40 MSTORE DUP1 SWAP3 SWAP2 SWAP1 DUP2 DUP2 MSTORE PUSH1 0x20 ADD DUP3 DUP1 SLOAD DUP1 ISZERO PUSH2 0x3B3 JUMPI PUSH1 0x20 MUL DUP3 ADD SWAP2 SWAP1 PUSH1 0x0 MSTORE PUSH1 0x20 PUSH1 0x0 KECCAK256 SWAP1 JUMPDEST DUP2 SLOAD DUP2 MSTORE PUSH1 0x20 ADD SWAP1 PUSH1 0x1 ADD SWAP1 DUP1 DUP4 GT PUSH2 0x11BA JUMPI POP POP POP POP POP SWAP1 POP SWAP2 SWAP1 POP JUMP JUMPDEST PUSH1 0x0 DUP2 DUP2 MSTORE PUSH1 0x1 DUP4 ADD PUSH1 0x20 MSTORE PUSH1 0x40 DUP2 KECCAK256 SLOAD PUSH2 0x1220 JUMPI POP DUP2 SLOAD PUSH1 0x1 DUP2 DUP2 ADD DUP5 SSTORE PUSH1 0x0 DUP5 DUP2 MSTORE PUSH1 0x20 DUP1 DUP3 KECCAK256 SWAP1 SWAP4 ADD DUP5 SWAP1 SSTORE DUP5 SLOAD DUP5 DUP3 MSTORE DUP3 DUP7 ADD SWAP1 SWAP4 MSTORE PUSH1 0x40 SWAP1 KECCAK256 SWAP2 SWAP1 SWAP2 SSTORE PUSH2 0x40E JUMP JUMPDEST POP PUSH1 0x0 PUSH2 0x40E JUMP JUMPDEST PUSH1 0x0 DUP2 DUP2 MSTORE PUSH1 0x1 DUP4 ADD PUSH1 0x20 MSTORE PUSH1 0x40 DUP2 KECCAK256 SLOAD DUP1 ISZERO PUSH2 0x1311 JUMPI PUSH1 0x0 PUSH2 0x124C PUSH1 0x1 DUP4 PUSH2 0x159E JUMP JUMPDEST DUP6 SLOAD SWAP1 SWAP2 POP PUSH1 0x0 SWAP1 PUSH2 0x1260 SWAP1 PUSH1 0x1 SWAP1 PUSH2 0x159E JUMP JUMPDEST SWAP1 POP DUP2 DUP2 EQ PUSH2 0x12C5 JUMPI PUSH1 0x0 DUP7 PUSH1 0x0 ADD DUP3 DUP2 SLOAD DUP2 LT PUSH2 0x1280 JUMPI PUSH2 0x1280 PUSH2 0x1538 JUMP JUMPDEST SWAP1 PUSH1 0x0 MSTORE PUSH1 0x20 PUSH1 0x0 KECCAK256 ADD SLOAD SWAP1 POP DUP1 DUP8 PUSH1 0x0 ADD DUP5 DUP2 SLOAD DUP2 LT PUSH2 0x12A3 JUMPI PUSH2 0x12A3 PUSH2 0x1538 JUMP JUMPDEST PUSH1 0x0 SWAP2 DUP3 MSTORE PUSH1 0x20 DUP1 DUP4 KECCAK256 SWAP1 SWAP2 ADD SWAP3 SWAP1 SWAP3 SSTORE SWAP2 DUP3 MSTORE PUSH1 0x1 DUP9 ADD SWAP1 MSTORE PUSH1 0x40 SWAP1 KECCAK256 DUP4 SWAP1 SSTORE JUMPDEST DUP6 SLOAD DUP7 SWAP1 DUP1 PUSH2 0x12D6 JUMPI PUSH2 0x12D6 PUSH2 0x178F JUMP JUMPDEST PUSH1 0x1 SWAP1 SUB DUP2 DUP2 SWAP1 PUSH1 0x0 MSTORE PUSH1 0x20 PUSH1 0x0 KECCAK256 ADD PUSH1 0x0 SWAP1 SSTORE SWAP1 SSTORE DUP6 PUSH1 0x1 ADD PUSH1 0x0 DUP7 DUP2 MSTORE PUSH1 0x20 ADD SWAP1 DUP2 MSTORE PUSH1 0x20 ADD PUSH1 0x0 KECCAK256 PUSH1 0x0 SWAP1 SSTORE PUSH1 0x1 SWAP4 POP POP POP POP PUSH2 0x40E JUMP JUMPDEST PUSH1 0x0 SWAP2 POP POP PUSH2 0x40E JUMP JUMPDEST PUSH1 0x0 PUSH1 0x20 DUP3 DUP5 SUB SLT ISZERO PUSH2 0x132D JUMPI PUSH1 0x0 DUP1 REVERT JUMPDEST POP CALLDATALOAD SWAP2 SWAP1 POP JUMP JUMPDEST PUSH1 0x0 JUMPDEST DUP4 DUP2 LT ISZERO PUSH2 0x134F JUMPI DUP2 DUP2 ADD MLOAD DUP4 DUP3 ADD MSTORE PUSH1 0x20 ADD PUSH2 0x1337 JUMP JUMPDEST POP POP PUSH1 0x0 SWAP2 ADD MSTORE JUMP JUMPDEST PUSH1 0x0 DUP2 MLOAD DUP1 DUP5 MSTORE PUSH2 0x1370 DUP2 PUSH1 0x20 DUP7 ADD PUSH1 0x20 DUP7 ADD PUSH2 0x1334 JUMP JUMPDEST PUSH1 0x1F ADD PUSH1 0x1F NOT AND SWAP3 SWAP1 SWAP3 ADD PUSH1 0x20 ADD SWAP3 SWAP2 POP POP JUMP JUMPDEST PUSH1 0x20 DUP2 MSTORE PUSH1 0x0 PUSH2 0xB59 PUSH1 0x20 DUP4 ADD DUP5 PUSH2 0x1358 JUMP JUMPDEST PUSH1 0x20 DUP1 DUP3 MSTORE DUP3 MLOAD DUP3 DUP3 ADD DUP2 SWAP1 MSTORE PUSH1 0x0 SWAP2 SWAP1 DUP5 DUP3 ADD SWAP1 PUSH1 0x40 DUP6 ADD SWAP1 DUP5 JUMPDEST DUP2 DUP2 LT ISZERO PUSH2 0x13D8 JUMPI DUP4 MLOAD PUSH1 0x1 PUSH1 0x1 PUSH1 0xA0 SHL SUB AND DUP4 MSTORE SWAP3 DUP5 ADD SWAP3 SWAP2 DUP5 ADD SWAP2 PUSH1 0x1 ADD PUSH2 0x13B3 JUMP JUMPDEST POP SWAP1 SWAP7 SWAP6 POP POP POP POP POP POP JUMP JUMPDEST DUP1 CALLDATALOAD PUSH1 0x1 PUSH1 0x1 PUSH1 0xA0 SHL SUB DUP2 AND DUP2 EQ PUSH2 0x13FB JUMPI PUSH1 0x0 DUP1 REVERT JUMPDEST SWAP2 SWAP1 POP JUMP JUMPDEST PUSH1 0x0 PUSH1 0x20 DUP3 DUP5 SUB SLT ISZERO PUSH2 0x1412 JUMPI PUSH1 0x0 DUP1 REVERT JUMPDEST PUSH2 0xB59 DUP3 PUSH2 0x13E4 JUMP JUMPDEST PUSH4 0x4E487B71 PUSH1 0xE0 SHL PUSH1 0x0 MSTORE PUSH1 0x41 PUSH1 0x4 MSTORE PUSH1 0x24 PUSH1 0x0 REVERT JUMPDEST PUSH1 0x0 DUP1 PUSH1 0x40 DUP4 DUP6 SUB SLT ISZERO PUSH2 0x1444 JUMPI PUSH1 0x0 DUP1 REVERT JUMPDEST PUSH2 0x144D DUP4 PUSH2 0x13E4 JUMP JUMPDEST SWAP2 POP PUSH1 0x20 DUP4 ADD CALLDATALOAD PUSH8 0xFFFFFFFFFFFFFFFF DUP1 DUP3 GT ISZERO PUSH2 0x146A JUMPI PUSH1 0x0 DUP1 REVERT JUMPDEST DUP2 DUP6 ADD SWAP2 POP DUP6 PUSH1 0x1F DUP4 ADD SLT PUSH2 0x147E JUMPI PUSH1 0x0 DUP1 REVERT JUMPDEST DUP2 CALLDATALOAD DUP2 DUP2 GT ISZERO PUSH2 0x1490 JUMPI PUSH2 0x1490 PUSH2 0x141B JUMP JUMPDEST PUSH1 0x40 MLOAD PUSH1 0x1F DUP3 ADD PUSH1 0x1F NOT SWAP1 DUP2 AND PUSH1 0x3F ADD AND DUP2 ADD SWAP1 DUP4 DUP3 GT DUP2 DUP4 LT OR ISZERO PUSH2 0x14B8 JUMPI PUSH2 0x14B8 PUSH2 0x141B JUMP JUMPDEST DUP2 PUSH1 0x40 MSTORE DUP3 DUP2 MSTORE DUP9 PUSH1 0x20 DUP5 DUP8 ADD ADD GT ISZERO PUSH2 0x14D1 JUMPI PUSH1 0x0 DUP1 REVERT JUMPDEST DUP3 PUSH1 0x20 DUP7 ADD PUSH1 0x20 DUP4 ADD CALLDATACOPY PUSH1 0x0 PUSH1 0x20 DUP5 DUP4 ADD ADD MSTORE DUP1 SWAP6 POP POP POP POP POP POP SWAP3 POP SWAP3 SWAP1 POP JUMP JUMPDEST PUSH1 0x0 DUP1 PUSH1 0x40 DUP4 DUP6 SUB SLT ISZERO PUSH2 0x1506 JUMPI PUSH1 0x0 DUP1 REVERT JUMPDEST POP POP DUP1 CALLDATALOAD SWAP3 PUSH1 0x20 SWAP1 SWAP2 ADD CALLDATALOAD SWAP2 POP JUMP JUMPDEST DUP3 ISZERO ISZERO DUP2 MSTORE PUSH1 0x40 PUSH1 0x20 DUP3 ADD MSTORE PUSH1 0x0 PUSH2 0x1530 PUSH1 0x40 DUP4 ADD DUP5 PUSH2 0x1358 JUMP JUMPDEST SWAP5 SWAP4 POP POP POP POP JUMP JUMPDEST PUSH4 0x4E487B71 PUSH1 0xE0 SHL PUSH1 0x0 MSTORE PUSH1 0x32 PUSH1 0x4 MSTORE PUSH1 0x24 PUSH1 0x0 REVERT JUMPDEST PUSH1 0x1 DUP2 DUP2 SHR SWAP1 DUP3 AND DUP1 PUSH2 0x1562 JUMPI PUSH1 0x7F DUP3 AND SWAP2 POP JUMPDEST PUSH1 0x20 DUP3 LT DUP2 SUB PUSH2 0x1582 JUMPI PUSH4 0x4E487B71 PUSH1 0xE0 SHL PUSH1 0x0 MSTORE PUSH1 0x22 PUSH1 0x4 MSTORE PUSH1 0x24 PUSH1 0x0 REVERT JUMPDEST POP SWAP2 SWAP1 POP JUMP JUMPDEST PUSH4 0x4E487B71 PUSH1 0xE0 SHL PUSH1 0x0 MSTORE PUSH1 0x11 PUSH1 0x4 MSTORE PUSH1 0x24 PUSH1 0x0 REVERT JUMPDEST DUP2 DUP2 SUB DUP2 DUP2 GT ISZERO PUSH2 0x40E JUMPI PUSH2 0x40E PUSH2 0x1588 JUMP JUMPDEST PUSH1 0x20 DUP1 DUP3 MSTORE PUSH1 0x2E SWAP1 DUP3 ADD MSTORE PUSH32 0x4661636574456D657267656E6379436F6E736F6C653A206F6E6C7920656D6572 PUSH1 0x40 DUP3 ADD MSTORE PUSH14 0x33B2B731BC9037B832B930BA37B9 PUSH1 0x91 SHL PUSH1 0x60 DUP3 ADD MSTORE PUSH1 0x80 ADD SWAP1 JUMP JUMPDEST PUSH1 0x1F DUP3 GT ISZERO PUSH2 0x1649 JUMPI PUSH1 0x0 DUP2 DUP2 MSTORE PUSH1 0x20 DUP2 KECCAK256 PUSH1 0x1F DUP6 ADD PUSH1 0x5 SHR DUP2 ADD PUSH1 0x20 DUP7 LT ISZERO PUSH2 0x1626 JUMPI POP DUP1 JUMPDEST PUSH1 0x1F DUP6 ADD PUSH1 0x5 SHR DUP3 ADD SWAP2 POP JUMPDEST DUP2 DUP2 LT ISZERO PUSH2 0x1645 JUMPI DUP3 DUP2 SSTORE PUSH1 0x1 ADD PUSH2 0x1632 JUMP JUMPDEST POP POP POP JUMPDEST POP POP POP JUMP JUMPDEST DUP2 MLOAD PUSH8 0xFFFFFFFFFFFFFFFF DUP2 GT ISZERO PUSH2 0x1668 JUMPI PUSH2 0x1668 PUSH2 0x141B JUMP JUMPDEST PUSH2 0x167C DUP2 PUSH2 0x1676 DUP5 SLOAD PUSH2 0x154E JUMP JUMPDEST DUP5 PUSH2 0x15FF JUMP JUMPDEST PUSH1 0x20 DUP1 PUSH1 0x1F DUP4 GT PUSH1 0x1 DUP2 EQ PUSH2 0x16B1 JUMPI PUSH1 0x0 DUP5 ISZERO PUSH2 0x1699 JUMPI POP DUP6 DUP4 ADD MLOAD JUMPDEST PUSH1 0x0 NOT PUSH1 0x3 DUP7 SWAP1 SHL SHR NOT AND PUSH1 0x1 DUP6 SWAP1 SHL OR DUP6 SSTORE PUSH2 0x1645 JUMP JUMPDEST PUSH1 0x0 DUP6 DUP2 MSTORE PUSH1 0x20 DUP2 KECCAK256 PUSH1 0x1F NOT DUP7 AND SWAP2 JUMPDEST DUP3 DUP2 LT ISZERO PUSH2 0x16E0 JUMPI DUP9 DUP7 ADD MLOAD DUP3 SSTORE SWAP5 DUP5 ADD SWAP5 PUSH1 0x1 SWAP1 SWAP2 ADD SWAP1 DUP5 ADD PUSH2 0x16C1 JUMP JUMPDEST POP DUP6 DUP3 LT ISZERO PUSH2 0x16FE JUMPI DUP8 DUP6 ADD MLOAD PUSH1 0x0 NOT PUSH1 0x3 DUP9 SWAP1 SHL PUSH1 0xF8 AND SHR NOT AND DUP2 SSTORE JUMPDEST POP POP POP POP POP PUSH1 0x1 SWAP1 DUP2 SHL ADD SWAP1 SSTORE POP JUMP JUMPDEST PUSH1 0x0 PUSH1 0x1 DUP3 ADD PUSH2 0x1720 JUMPI PUSH2 0x1720 PUSH2 0x1588 JUMP JUMPDEST POP PUSH1 0x1 ADD SWAP1 JUMP JUMPDEST PUSH1 0x0 DUP3 MLOAD PUSH2 0x1739 DUP2 DUP5 PUSH1 0x20 DUP8 ADD PUSH2 0x1334 JUMP JUMPDEST SWAP2 SWAP1 SWAP2 ADD SWAP3 SWAP2 POP POP JUMP JUMPDEST DUP1 DUP3 ADD DUP1 DUP3 GT ISZERO PUSH2 0x40E JUMPI PUSH2 0x40E PUSH2 0x1588 JUMP JUMPDEST DUP1 DUP3 MUL DUP2 ISZERO DUP3 DUP3 DIV DUP5 EQ OR PUSH2 0x40E JUMPI PUSH2 0x40E PUSH2 0x1588 JUMP JUMPDEST PUSH1 0x0 DUP3 PUSH2 0x178A JUMPI PUSH4 0x4E487B71 PUSH1 0xE0 SHL PUSH1 0x0 MSTORE PUSH1 0x12 PUSH1 0x4 MSTORE PUSH1 0x24 PUSH1 0x0 REVERT JUMPDEST POP DIV SWAP1 JUMP JUMPDEST PUSH4 0x4E487B71 PUSH1 0xE0 SHL PUSH1 0x0 MSTORE PUSH1 0x31 PUSH1 0x4 MSTORE PUSH1 0x24 PUSH1 0x0 REVERT INVALID LOG2 PUSH5 0x6970667358 0x22 SLT KECCAK256 0xDE 0xF9 0xB3 PUSH8 0xCB53178ED9135402 0xA9 0xD0 ORIGIN SMOD EXTCODEHASH 0x5E 0xED SWAP11 0xB2 SSTORE 0xD7 0xFB 0xE6 0xA8 0xFB CHAINID 0xE DUP1 MLOAD 0xD3 PUSH5 0x736F6C6343 STOP ADDMOD SGT STOP CALLER "
				},
				"gasEstimates": {
					"creation": {
						"codeDepositCost": "1221400",
						"executionCost": "1268",
						"totalCost": "1222668"
					},
					"external": {
						"____grantRoleEmergencyOperator(address)": "infinite",
						"____revokeRoleEmergencyOperator(address)": "infinite",
						"____setEmergencyRequiredSignatures(uint256)": "infinite",
						"____setEmergencyTimelock(uint256)": "infinite",
						"emergencyOperator(uint256)": "4792",
						"emergencyOperators()": "infinite",
						"emergencyRequest(address,bytes)": "infinite",
						"emergencyRequestHasBeenExecuted(uint256)": "4691",
						"executeEmergencyRequest(uint256)": "infinite",
						"getCurrentEmergencyRequestId()": "2471",
						"getEmergencyRequestArgs(uint256)": "infinite",
						"getEmergencyRequestDuration(uint256)": "4650",
						"getEmergencyRequestExpectedSigner(uint256,uint256)": "infinite",
						"getEmergencyRequestExpectedSigners(uint256)": "infinite",
						"getEmergencyRequestRequiredSignatures(uint256)": "4717",
						"getEmergencyRequestStartTimestamp(uint256)": "4715",
						"getEmergencyRequestTarget(uint256)": "4716",
						"getEmergencySignature(uint256,uint256)": "infinite",
						"getEmergencySignatures(uint256)": "infinite",
						"signEmergencyRequest(uint256)": "infinite"
					},
					"internal": {
						"_onlySelf()": "infinite"
					}
				},
				"methodIdentifiers": {
					"____grantRoleEmergencyOperator(address)": "3e46d27b",
					"____revokeRoleEmergencyOperator(address)": "71dedccf",
					"____setEmergencyRequiredSignatures(uint256)": "48d7b567",
					"____setEmergencyTimelock(uint256)": "7526c09a",
					"emergencyOperator(uint256)": "166e34dd",
					"emergencyOperators()": "56db323b",
					"emergencyRequest(address,bytes)": "797ae568",
					"emergencyRequestHasBeenExecuted(uint256)": "0792ac9e",
					"executeEmergencyRequest(uint256)": "ce71d4bc",
					"getCurrentEmergencyRequestId()": "65fd04fb",
					"getEmergencyRequestArgs(uint256)": "0548dd96",
					"getEmergencyRequestDuration(uint256)": "62d7f1b2",
					"getEmergencyRequestExpectedSigner(uint256,uint256)": "7e7b7ccf",
					"getEmergencyRequestExpectedSigners(uint256)": "51f2aa47",
					"getEmergencyRequestRequiredSignatures(uint256)": "348f3a0e",
					"getEmergencyRequestStartTimestamp(uint256)": "c3d511e9",
					"getEmergencyRequestTarget(uint256)": "85b2c065",
					"getEmergencySignature(uint256,uint256)": "ac6193c5",
					"getEmergencySignatures(uint256)": "366c7c2f",
					"signEmergencyRequest(uint256)": "579d9f0c"
				}
			},
			"storageLayout": {
				"storage": [],
				"types": null
			},
			"userdoc": {
				"kind": "user",
				"methods": {},
				"version": 1
			}
		}
	}
}