{
	"diamonds/facets/FacetToken.sol": {
		"FacetToken": {
			"abi": [
				{
					"anonymous": false,
					"inputs": [
						{
							"indexed": true,
							"internalType": "address",
							"name": "owner",
							"type": "address"
						},
						{
							"indexed": true,
							"internalType": "address",
							"name": "spender",
							"type": "address"
						},
						{
							"indexed": false,
							"internalType": "uint256",
							"name": "value",
							"type": "uint256"
						}
					],
					"name": "Approval",
					"type": "event"
				},
				{
					"anonymous": false,
					"inputs": [
						{
							"indexed": false,
							"internalType": "uint256",
							"name": "id",
							"type": "uint256"
						}
					],
					"name": "Snapshot",
					"type": "event"
				},
				{
					"anonymous": false,
					"inputs": [
						{
							"indexed": true,
							"internalType": "string",
							"name": "oldName",
							"type": "string"
						},
						{
							"indexed": true,
							"internalType": "string",
							"name": "newName",
							"type": "string"
						}
					],
					"name": "TokenNameChanged",
					"type": "event"
				},
				{
					"anonymous": false,
					"inputs": [
						{
							"indexed": true,
							"internalType": "string",
							"name": "oldSymbol",
							"type": "string"
						},
						{
							"indexed": true,
							"internalType": "string",
							"name": "newSymbol",
							"type": "string"
						}
					],
					"name": "TokenSymbolChanged",
					"type": "event"
				},
				{
					"anonymous": false,
					"inputs": [
						{
							"indexed": true,
							"internalType": "address",
							"name": "from",
							"type": "address"
						},
						{
							"indexed": true,
							"internalType": "address",
							"name": "to",
							"type": "address"
						},
						{
							"indexed": false,
							"internalType": "uint256",
							"name": "value",
							"type": "uint256"
						}
					],
					"name": "Transfer",
					"type": "event"
				},
				{
					"inputs": [
						{
							"internalType": "uint256",
							"name": "amount",
							"type": "uint256"
						}
					],
					"name": "____burn",
					"outputs": [],
					"stateMutability": "nonpayable",
					"type": "function"
				},
				{
					"inputs": [
						{
							"internalType": "uint256",
							"name": "amount",
							"type": "uint256"
						}
					],
					"name": "____mint",
					"outputs": [],
					"stateMutability": "nonpayable",
					"type": "function"
				},
				{
					"inputs": [
						{
							"internalType": "string",
							"name": "newName",
							"type": "string"
						}
					],
					"name": "____setName",
					"outputs": [],
					"stateMutability": "nonpayable",
					"type": "function"
				},
				{
					"inputs": [
						{
							"internalType": "string",
							"name": "newSymbol",
							"type": "string"
						}
					],
					"name": "____setSymbol",
					"outputs": [],
					"stateMutability": "nonpayable",
					"type": "function"
				},
				{
					"inputs": [
						{
							"internalType": "address",
							"name": "owner_",
							"type": "address"
						},
						{
							"internalType": "address",
							"name": "spender",
							"type": "address"
						}
					],
					"name": "allowance",
					"outputs": [
						{
							"internalType": "uint256",
							"name": "",
							"type": "uint256"
						}
					],
					"stateMutability": "view",
					"type": "function"
				},
				{
					"inputs": [
						{
							"internalType": "address",
							"name": "spender",
							"type": "address"
						},
						{
							"internalType": "uint256",
							"name": "amount",
							"type": "uint256"
						}
					],
					"name": "approve",
					"outputs": [
						{
							"internalType": "bool",
							"name": "",
							"type": "bool"
						}
					],
					"stateMutability": "nonpayable",
					"type": "function"
				},
				{
					"inputs": [
						{
							"internalType": "address",
							"name": "account",
							"type": "address"
						}
					],
					"name": "balanceOf",
					"outputs": [
						{
							"internalType": "uint256",
							"name": "",
							"type": "uint256"
						}
					],
					"stateMutability": "view",
					"type": "function"
				},
				{
					"inputs": [
						{
							"internalType": "address",
							"name": "account",
							"type": "address"
						},
						{
							"internalType": "uint256",
							"name": "snapshotId",
							"type": "uint256"
						}
					],
					"name": "balanceOfAt",
					"outputs": [
						{
							"internalType": "uint256",
							"name": "",
							"type": "uint256"
						}
					],
					"stateMutability": "view",
					"type": "function"
				},
				{
					"inputs": [],
					"name": "decimals",
					"outputs": [
						{
							"internalType": "uint8",
							"name": "",
							"type": "uint8"
						}
					],
					"stateMutability": "view",
					"type": "function"
				},
				{
					"inputs": [
						{
							"internalType": "address",
							"name": "spender",
							"type": "address"
						},
						{
							"internalType": "uint256",
							"name": "subtractedValue",
							"type": "uint256"
						}
					],
					"name": "decreaseAllowance",
					"outputs": [
						{
							"internalType": "bool",
							"name": "",
							"type": "bool"
						}
					],
					"stateMutability": "nonpayable",
					"type": "function"
				},
				{
					"inputs": [],
					"name": "getCurrentSnapshotId",
					"outputs": [
						{
							"internalType": "uint256",
							"name": "",
							"type": "uint256"
						}
					],
					"stateMutability": "view",
					"type": "function"
				},
				{
					"inputs": [
						{
							"internalType": "address",
							"name": "spender",
							"type": "address"
						},
						{
							"internalType": "uint256",
							"name": "addedValue",
							"type": "uint256"
						}
					],
					"name": "increaseAllowance",
					"outputs": [
						{
							"internalType": "bool",
							"name": "",
							"type": "bool"
						}
					],
					"stateMutability": "nonpayable",
					"type": "function"
				},
				{
					"inputs": [],
					"name": "name",
					"outputs": [
						{
							"internalType": "string",
							"name": "",
							"type": "string"
						}
					],
					"stateMutability": "view",
					"type": "function"
				},
				{
					"inputs": [],
					"name": "snapshot",
					"outputs": [
						{
							"internalType": "uint256",
							"name": "",
							"type": "uint256"
						}
					],
					"stateMutability": "nonpayable",
					"type": "function"
				},
				{
					"inputs": [],
					"name": "symbol",
					"outputs": [
						{
							"internalType": "string",
							"name": "",
							"type": "string"
						}
					],
					"stateMutability": "view",
					"type": "function"
				},
				{
					"inputs": [],
					"name": "totalSupply",
					"outputs": [
						{
							"internalType": "uint256",
							"name": "",
							"type": "uint256"
						}
					],
					"stateMutability": "view",
					"type": "function"
				},
				{
					"inputs": [
						{
							"internalType": "uint256",
							"name": "snapshotId",
							"type": "uint256"
						}
					],
					"name": "totalSupplyAt",
					"outputs": [
						{
							"internalType": "uint256",
							"name": "",
							"type": "uint256"
						}
					],
					"stateMutability": "view",
					"type": "function"
				},
				{
					"inputs": [
						{
							"internalType": "address",
							"name": "to",
							"type": "address"
						},
						{
							"internalType": "uint256",
							"name": "amount",
							"type": "uint256"
						}
					],
					"name": "transfer",
					"outputs": [
						{
							"internalType": "bool",
							"name": "",
							"type": "bool"
						}
					],
					"stateMutability": "nonpayable",
					"type": "function"
				},
				{
					"inputs": [
						{
							"internalType": "address",
							"name": "from",
							"type": "address"
						},
						{
							"internalType": "address",
							"name": "to",
							"type": "address"
						},
						{
							"internalType": "uint256",
							"name": "amount",
							"type": "uint256"
						}
					],
					"name": "transferFrom",
					"outputs": [
						{
							"internalType": "bool",
							"name": "",
							"type": "bool"
						}
					],
					"stateMutability": "nonpayable",
					"type": "function"
				}
			],
			"devdoc": {
				"events": {
					"Approval(address,address,uint256)": {
						"details": "Emitted when the allowance of a `spender` for an `owner` is set by a call to {approve}. `value` is the new allowance."
					},
					"Transfer(address,address,uint256)": {
						"details": "Emitted when `value` tokens are moved from one account (`from`) to another (`to`). Note that `value` may be zero."
					}
				},
				"kind": "dev",
				"methods": {
					"approve(address,uint256)": {
						"details": "Sets `amount` as the allowance of `spender` over the caller's tokens. Returns a boolean value indicating whether the operation succeeded. IMPORTANT: Beware that changing an allowance with this method brings the risk that someone may use both the old and the new allowance by unfortunate transaction ordering. One possible solution to mitigate this race condition is to first reduce the spender's allowance to 0 and set the desired value afterwards: https://github.com/ethereum/EIPs/issues/20#issuecomment-263524729 Emits an {Approval} event."
					},
					"balanceOf(address)": {
						"details": "Returns the amount of tokens owned by `account`."
					},
					"decimals()": {
						"details": "Returns the decimals places of the token."
					},
					"name()": {
						"details": "Returns the name of the token."
					},
					"symbol()": {
						"details": "Returns the symbol of the token."
					},
					"totalSupply()": {
						"details": "Returns the amount of tokens in existence."
					},
					"transfer(address,uint256)": {
						"details": "Moves `amount` tokens from the caller's account to `to`. Returns a boolean value indicating whether the operation succeeded. Emits a {Transfer} event."
					},
					"transferFrom(address,address,uint256)": {
						"details": "Moves `amount` tokens from `from` to `to` using the allowance mechanism. `amount` is then deducted from the caller's allowance. Returns a boolean value indicating whether the operation succeeded. Emits a {Transfer} event."
					}
				},
				"version": 1
			},
			"evm": {
				"assembly": "    /* \"diamonds/facets/FacetToken.sol\":1116:9466  contract FacetToken is SlotToken, Context, IERC20, IERC20Metadata {... */\n  mstore(0x40, 0x80)\n  callvalue\n  dup1\n  iszero\n  tag_1\n  jumpi\n  0x00\n  dup1\n  revert\ntag_1:\n  pop\n  dataSize(sub_0)\n  dup1\n  dataOffset(sub_0)\n  0x00\n  codecopy\n  0x00\n  return\nstop\n\nsub_0: assembly {\n        /* \"diamonds/facets/FacetToken.sol\":1116:9466  contract FacetToken is SlotToken, Context, IERC20, IERC20Metadata {... */\n      mstore(0x40, 0x80)\n      callvalue\n      dup1\n      iszero\n      tag_1\n      jumpi\n      0x00\n      dup1\n      revert\n    tag_1:\n      pop\n      jumpi(tag_2, lt(calldatasize, 0x04))\n      shr(0xe0, calldataload(0x00))\n      dup1\n      0x5439ad86\n      gt\n      tag_22\n      jumpi\n      dup1\n      0xa457c2d7\n      gt\n      tag_23\n      jumpi\n      dup1\n      0xa457c2d7\n      eq\n      tag_17\n      jumpi\n      dup1\n      0xa9059cbb\n      eq\n      tag_18\n      jumpi\n      dup1\n      0xb74456f2\n      eq\n      tag_19\n      jumpi\n      dup1\n      0xdd62ed3e\n      eq\n      tag_20\n      jumpi\n      dup1\n      0xe0089dc3\n      eq\n      tag_21\n      jumpi\n      0x00\n      dup1\n      revert\n    tag_23:\n      dup1\n      0x5439ad86\n      eq\n      tag_12\n      jumpi\n      dup1\n      0x70a08231\n      eq\n      tag_13\n      jumpi\n      dup1\n      0x95d89b41\n      eq\n      tag_14\n      jumpi\n      dup1\n      0x9711715a\n      eq\n      tag_15\n      jumpi\n      dup1\n      0x981b24d0\n      eq\n      tag_16\n      jumpi\n      0x00\n      dup1\n      revert\n    tag_22:\n      dup1\n      0x23b872dd\n      gt\n      tag_24\n      jumpi\n      dup1\n      0x23b872dd\n      eq\n      tag_7\n      jumpi\n      dup1\n      0x313ce567\n      eq\n      tag_8\n      jumpi\n      dup1\n      0x39509351\n      eq\n      tag_9\n      jumpi\n      dup1\n      0x49e7012c\n      eq\n      tag_10\n      jumpi\n      dup1\n      0x4ee2cd7e\n      eq\n      tag_11\n      jumpi\n      0x00\n      dup1\n      revert\n    tag_24:\n      dup1\n      0x06fdde03\n      eq\n      tag_3\n      jumpi\n      dup1\n      0x095ea7b3\n      eq\n      tag_4\n      jumpi\n      dup1\n      0x18160ddd\n      eq\n      tag_5\n      jumpi\n      dup1\n      0x1e96c1dd\n      eq\n      tag_6\n      jumpi\n    tag_2:\n      0x00\n      dup1\n      revert\n        /* \"diamonds/facets/FacetToken.sol\":2156:2261  function name() public view virtual override returns (string memory) {... */\n    tag_3:\n      tag_25\n      tag_26\n      jump\t// in\n    tag_25:\n      mload(0x40)\n      tag_27\n      swap2\n      swap1\n      tag_28\n      jump\t// in\n    tag_27:\n      mload(0x40)\n      dup1\n      swap2\n      sub\n      swap1\n      return\n        /* \"diamonds/facets/FacetToken.sol\":3518:3714  function approve(address spender, uint amount) public virtual override returns (bool) {... */\n    tag_4:\n      tag_29\n      tag_30\n      calldatasize\n      0x04\n      tag_31\n      jump\t// in\n    tag_30:\n      tag_32\n      jump\t// in\n    tag_29:\n      mload(0x40)\n        /* \"#utility.yul\":1272:1286   */\n      swap1\n      iszero\n        /* \"#utility.yul\":1265:1287   */\n      iszero\n        /* \"#utility.yul\":1247:1288   */\n      dup2\n      mstore\n        /* \"#utility.yul\":1235:1237   */\n      0x20\n        /* \"#utility.yul\":1220:1238   */\n      add\n        /* \"diamonds/facets/FacetToken.sol\":3518:3714  function approve(address spender, uint amount) public virtual override returns (bool) {... */\n      tag_27\n        /* \"#utility.yul\":1107:1294   */\n      jump\n        /* \"diamonds/facets/FacetToken.sol\":2479:2589  function totalSupply() public view virtual override returns (uint) {... */\n    tag_5:\n      tag_35\n      tag_36\n      jump\t// in\n    tag_35:\n      mload(0x40)\n        /* \"#utility.yul\":1445:1470   */\n      swap1\n      dup2\n      mstore\n        /* \"#utility.yul\":1433:1435   */\n      0x20\n        /* \"#utility.yul\":1418:1436   */\n      add\n        /* \"diamonds/facets/FacetToken.sol\":2479:2589  function totalSupply() public view virtual override returns (uint) {... */\n      tag_27\n        /* \"#utility.yul\":1299:1476   */\n      jump\n        /* \"diamonds/facets/FacetToken.sol\":1669:1903  function ____setSymbol(string memory newSymbol) external virtual {... */\n    tag_6:\n      tag_39\n      tag_40\n      calldatasize\n      0x04\n      tag_41\n      jump\t// in\n    tag_40:\n      tag_42\n      jump\t// in\n    tag_39:\n      stop\n        /* \"diamonds/facets/FacetToken.sol\":3914:4167  function transferFrom(address from, address to, uint amount) public virtual override returns (bool) {... */\n    tag_7:\n      tag_29\n      tag_44\n      calldatasize\n      0x04\n      tag_45\n      jump\t// in\n    tag_44:\n      tag_46\n      jump\t// in\n        /* \"diamonds/facets/FacetToken.sol\":2382:2473  function decimals() public view virtual override returns (uint8) {... */\n    tag_8:\n      mload(0x40)\n        /* \"diamonds/facets/FacetToken.sol\":2464:2466  18 */\n      0x12\n        /* \"#utility.yul\":3015:3051   */\n      dup2\n      mstore\n        /* \"#utility.yul\":3003:3005   */\n      0x20\n        /* \"#utility.yul\":2988:3006   */\n      add\n        /* \"diamonds/facets/FacetToken.sol\":2382:2473  function decimals() public view virtual override returns (uint8) {... */\n      tag_27\n        /* \"#utility.yul\":2873:3057   */\n      jump\n        /* \"diamonds/facets/FacetToken.sol\":4173:4407  function increaseAllowance(address spender, uint addedValue) public virtual returns (bool) {... */\n    tag_9:\n      tag_29\n      tag_53\n      calldatasize\n      0x04\n      tag_31\n      jump\t// in\n    tag_53:\n      tag_54\n      jump\t// in\n        /* \"diamonds/facets/FacetToken.sol\":1909:2022  function ____mint(uint amount) external virtual {... */\n    tag_10:\n      tag_39\n      tag_57\n      calldatasize\n      0x04\n      tag_58\n      jump\t// in\n    tag_57:\n      tag_59\n      jump\t// in\n        /* \"diamonds/facets/FacetToken.sol\":2965:3219  function balanceOfAt(address account, uint snapshotId) public view virtual returns (uint) {... */\n    tag_11:\n      tag_35\n      tag_61\n      calldatasize\n      0x04\n      tag_31\n      jump\t// in\n    tag_61:\n      tag_62\n      jump\t// in\n        /* \"diamonds/facets/FacetToken.sol\":3386:3512  function getCurrentSnapshotId() public view virtual returns (uint) {... */\n    tag_12:\n      tag_35\n      tag_65\n      jump\t// in\n        /* \"diamonds/facets/FacetToken.sol\":2830:2959  function balanceOf(address account) public view virtual override returns (uint) {... */\n    tag_13:\n      tag_35\n      tag_68\n      calldatasize\n      0x04\n      tag_69\n      jump\t// in\n    tag_68:\n      tag_70\n      jump\t// in\n        /* \"diamonds/facets/FacetToken.sol\":2267:2376  function symbol() public view virtual override returns (string memory) {... */\n    tag_14:\n      tag_25\n      tag_73\n      jump\t// in\n        /* \"diamonds/facets/FacetToken.sol\":4847:5060  function snapshot() public virtual returns (uint) {... */\n    tag_15:\n      tag_35\n      tag_76\n      jump\t// in\n        /* \"diamonds/facets/FacetToken.sol\":2595:2824  function totalSupplyAt(uint snapshotId) public view virtual returns (uint) {... */\n    tag_16:\n      tag_35\n      tag_79\n      calldatasize\n      0x04\n      tag_58\n      jump\t// in\n    tag_79:\n      tag_80\n      jump\t// in\n        /* \"diamonds/facets/FacetToken.sol\":4413:4841  function decreaseAllowance(address spender, uint subtractedValue) public virtual returns (bool) {... */\n    tag_17:\n      tag_29\n      tag_83\n      calldatasize\n      0x04\n      tag_31\n      jump\t// in\n    tag_83:\n      tag_84\n      jump\t// in\n        /* \"diamonds/facets/FacetToken.sol\":3720:3908  function transfer(address to, uint amount) public virtual override returns (bool) {... */\n    tag_18:\n      tag_29\n      tag_87\n      calldatasize\n      0x04\n      tag_31\n      jump\t// in\n    tag_87:\n      tag_88\n      jump\t// in\n        /* \"diamonds/facets/FacetToken.sol\":2028:2141  function ____burn(uint amount) external virtual {... */\n    tag_19:\n      tag_39\n      tag_91\n      calldatasize\n      0x04\n      tag_58\n      jump\t// in\n    tag_91:\n      tag_92\n      jump\t// in\n        /* \"diamonds/facets/FacetToken.sol\":3225:3380  function allowance(address owner_, address spender) public view virtual override returns (uint) {... */\n    tag_20:\n      tag_35\n      tag_94\n      calldatasize\n      0x04\n      tag_95\n      jump\t// in\n    tag_94:\n      tag_96\n      jump\t// in\n        /* \"diamonds/facets/FacetToken.sol\":1447:1663  function ____setName(string memory newName) external virtual {... */\n    tag_21:\n      tag_39\n      tag_99\n      calldatasize\n      0x04\n      tag_41\n      jump\t// in\n    tag_99:\n      tag_100\n      jump\t// in\n        /* \"diamonds/facets/FacetToken.sol\":2156:2261  function name() public view virtual override returns (string memory) {... */\n    tag_26:\n        /* \"diamonds/facets/FacetToken.sol\":2210:2223  string memory */\n      0x60\n        /* \"diamonds/facets/FacetToken.sol\":2242:2249  token() */\n      tag_102\n        /* \"diamonds/facets/FacetToken.sol\":2242:2247  token */\n      tag_103\n        /* \"diamonds/facets/FacetToken.sol\":2242:2249  token() */\n      jump\t// in\n    tag_102:\n        /* \"diamonds/facets/FacetToken.sol\":2242:2254  token().name */\n      0x06\n      add\n        /* \"diamonds/facets/FacetToken.sol\":2235:2254  return token().name */\n      dup1\n      sload\n      tag_104\n      swap1\n      tag_105\n      jump\t// in\n    tag_104:\n      dup1\n      0x1f\n      add\n      0x20\n      dup1\n      swap2\n      div\n      mul\n      0x20\n      add\n      mload(0x40)\n      swap1\n      dup2\n      add\n      0x40\n      mstore\n      dup1\n      swap3\n      swap2\n      swap1\n      dup2\n      dup2\n      mstore\n      0x20\n      add\n      dup3\n      dup1\n      sload\n      tag_106\n      swap1\n      tag_105\n      jump\t// in\n    tag_106:\n      dup1\n      iszero\n      tag_107\n      jumpi\n      dup1\n      0x1f\n      lt\n      tag_108\n      jumpi\n      0x0100\n      dup1\n      dup4\n      sload\n      div\n      mul\n      dup4\n      mstore\n      swap2\n      0x20\n      add\n      swap2\n      jump(tag_107)\n    tag_108:\n      dup3\n      add\n      swap2\n      swap1\n      0x00\n      mstore\n      keccak256(0x00, 0x20)\n      swap1\n    tag_109:\n      dup2\n      sload\n      dup2\n      mstore\n      swap1\n      0x01\n      add\n      swap1\n      0x20\n      add\n      dup1\n      dup4\n      gt\n      tag_109\n      jumpi\n      dup3\n      swap1\n      sub\n      0x1f\n      and\n      dup3\n      add\n      swap2\n    tag_107:\n      pop\n      pop\n      pop\n      pop\n      pop\n      swap1\n      pop\n        /* \"diamonds/facets/FacetToken.sol\":2156:2261  function name() public view virtual override returns (string memory) {... */\n      swap1\n      jump\t// out\n        /* \"diamonds/facets/FacetToken.sol\":3518:3714  function approve(address spender, uint amount) public virtual override returns (bool) {... */\n    tag_32:\n        /* \"diamonds/facets/FacetToken.sol\":3598:3602  bool */\n      0x00\n        /* \"imports/openzeppelin/utils/Context.sol\":720:730  msg.sender */\n      caller\n        /* \"diamonds/facets/FacetToken.sol\":3653:3686  _approve(owner_, spender, amount) */\n      tag_113\n        /* \"imports/openzeppelin/utils/Context.sol\":720:730  msg.sender */\n      dup2\n        /* \"diamonds/facets/FacetToken.sol\":3670:3677  spender */\n      dup6\n        /* \"diamonds/facets/FacetToken.sol\":3679:3685  amount */\n      dup6\n        /* \"diamonds/facets/FacetToken.sol\":3653:3661  _approve */\n      tag_114\n        /* \"diamonds/facets/FacetToken.sol\":3653:3686  _approve(owner_, spender, amount) */\n      jump\t// in\n    tag_113:\n        /* \"diamonds/facets/FacetToken.sol\":3703:3707  true */\n      0x01\n        /* \"diamonds/facets/FacetToken.sol\":3696:3707  return true */\n      swap2\n      pop\n      pop\n        /* \"diamonds/facets/FacetToken.sol\":3518:3714  function approve(address spender, uint amount) public virtual override returns (bool) {... */\n    tag_110:\n      swap3\n      swap2\n      pop\n      pop\n      jump\t// out\n        /* \"diamonds/facets/FacetToken.sol\":2479:2589  function totalSupply() public view virtual override returns (uint) {... */\n    tag_36:\n        /* \"diamonds/facets/FacetToken.sol\":2540:2544  uint */\n      0x00\n        /* \"diamonds/facets/FacetToken.sol\":2563:2570  token() */\n      tag_116\n        /* \"diamonds/facets/FacetToken.sol\":2563:2568  token */\n      tag_103\n        /* \"diamonds/facets/FacetToken.sol\":2563:2570  token() */\n      jump\t// in\n    tag_116:\n        /* \"diamonds/facets/FacetToken.sol\":2563:2582  token().totalSupply */\n      0x08\n      add\n      sload\n        /* \"diamonds/facets/FacetToken.sol\":2556:2582  return token().totalSupply */\n      swap1\n      pop\n        /* \"diamonds/facets/FacetToken.sol\":2479:2589  function totalSupply() public view virtual override returns (uint) {... */\n      swap1\n      jump\t// out\n        /* \"diamonds/facets/FacetToken.sol\":1669:1903  function ____setSymbol(string memory newSymbol) external virtual {... */\n    tag_42:\n        /* \"diamonds/facets/FacetToken.sol\":1744:1755  _onlySelf() */\n      tag_118\n        /* \"diamonds/facets/FacetToken.sol\":1744:1753  _onlySelf */\n      tag_119\n        /* \"diamonds/facets/FacetToken.sol\":1744:1755  _onlySelf() */\n      jump\t// in\n    tag_118:\n        /* \"diamonds/facets/FacetToken.sol\":1765:1788  string memory oldSymbol */\n      0x00\n        /* \"diamonds/facets/FacetToken.sol\":1791:1798  token() */\n      tag_120\n        /* \"diamonds/facets/FacetToken.sol\":1791:1796  token */\n      tag_103\n        /* \"diamonds/facets/FacetToken.sol\":1791:1798  token() */\n      jump\t// in\n    tag_120:\n        /* \"diamonds/facets/FacetToken.sol\":1791:1805  token().symbol */\n      0x07\n      add\n        /* \"diamonds/facets/FacetToken.sol\":1765:1805  string memory oldSymbol = token().symbol */\n      dup1\n      sload\n      tag_121\n      swap1\n      tag_105\n      jump\t// in\n    tag_121:\n      dup1\n      0x1f\n      add\n      0x20\n      dup1\n      swap2\n      div\n      mul\n      0x20\n      add\n      mload(0x40)\n      swap1\n      dup2\n      add\n      0x40\n      mstore\n      dup1\n      swap3\n      swap2\n      swap1\n      dup2\n      dup2\n      mstore\n      0x20\n      add\n      dup3\n      dup1\n      sload\n      tag_122\n      swap1\n      tag_105\n      jump\t// in\n    tag_122:\n      dup1\n      iszero\n      tag_123\n      jumpi\n      dup1\n      0x1f\n      lt\n      tag_124\n      jumpi\n      0x0100\n      dup1\n      dup4\n      sload\n      div\n      mul\n      dup4\n      mstore\n      swap2\n      0x20\n      add\n      swap2\n      jump(tag_123)\n    tag_124:\n      dup3\n      add\n      swap2\n      swap1\n      0x00\n      mstore\n      keccak256(0x00, 0x20)\n      swap1\n    tag_125:\n      dup2\n      sload\n      dup2\n      mstore\n      swap1\n      0x01\n      add\n      swap1\n      0x20\n      add\n      dup1\n      dup4\n      gt\n      tag_125\n      jumpi\n      dup3\n      swap1\n      sub\n      0x1f\n      and\n      dup3\n      add\n      swap2\n    tag_123:\n      pop\n      pop\n      pop\n      pop\n      pop\n      swap1\n      pop\n        /* \"diamonds/facets/FacetToken.sol\":1832:1841  newSymbol */\n      dup2\n        /* \"diamonds/facets/FacetToken.sol\":1815:1822  token() */\n      tag_126\n        /* \"diamonds/facets/FacetToken.sol\":1815:1820  token */\n      tag_103\n        /* \"diamonds/facets/FacetToken.sol\":1815:1822  token() */\n      jump\t// in\n    tag_126:\n        /* \"diamonds/facets/FacetToken.sol\":1815:1829  token().symbol */\n      0x07\n      add\n      swap1\n        /* \"diamonds/facets/FacetToken.sol\":1815:1841  token().symbol = newSymbol */\n      tag_127\n      swap1\n        /* \"diamonds/facets/FacetToken.sol\":1815:1829  token().symbol */\n      dup3\n        /* \"diamonds/facets/FacetToken.sol\":1815:1841  token().symbol = newSymbol */\n      tag_128\n      jump\t// in\n    tag_127:\n      pop\n        /* \"diamonds/facets/FacetToken.sol\":1886:1895  newSymbol */\n      dup2\n        /* \"diamonds/facets/FacetToken.sol\":1856:1896  TokenSymbolChanged(oldSymbol, newSymbol) */\n      mload(0x40)\n      tag_129\n      swap2\n      swap1\n      tag_130\n      jump\t// in\n    tag_129:\n      mload(0x40)\n      dup1\n      swap2\n      sub\n      swap1\n      keccak256\n        /* \"diamonds/facets/FacetToken.sol\":1875:1884  oldSymbol */\n      dup2\n        /* \"diamonds/facets/FacetToken.sol\":1856:1896  TokenSymbolChanged(oldSymbol, newSymbol) */\n      mload(0x40)\n      tag_131\n      swap2\n      swap1\n      tag_130\n      jump\t// in\n    tag_131:\n      mload(0x40)\n      swap1\n      dup2\n      swap1\n      sub\n      dup2\n      keccak256\n      swap1\n      0x68023cab388c6052af3fa625f164cd0c14cc9125d57286fbe0d9b384847c4c02\n      swap1\n      0x00\n      swap1\n      log3\n        /* \"diamonds/facets/FacetToken.sol\":1734:1903  {... */\n      pop\n        /* \"diamonds/facets/FacetToken.sol\":1669:1903  function ____setSymbol(string memory newSymbol) external virtual {... */\n      pop\n      jump\t// out\n        /* \"diamonds/facets/FacetToken.sol\":3914:4167  function transferFrom(address from, address to, uint amount) public virtual override returns (bool) {... */\n    tag_46:\n        /* \"diamonds/facets/FacetToken.sol\":4008:4012  bool */\n      0x00\n        /* \"imports/openzeppelin/utils/Context.sol\":720:730  msg.sender */\n      caller\n        /* \"diamonds/facets/FacetToken.sol\":4064:4102  _spendAllowance(from, spender, amount) */\n      tag_134\n        /* \"diamonds/facets/FacetToken.sol\":4080:4084  from */\n      dup6\n        /* \"imports/openzeppelin/utils/Context.sol\":720:730  msg.sender */\n      dup3\n        /* \"diamonds/facets/FacetToken.sol\":4095:4101  amount */\n      dup6\n        /* \"diamonds/facets/FacetToken.sol\":4064:4079  _spendAllowance */\n      tag_135\n        /* \"diamonds/facets/FacetToken.sol\":4064:4102  _spendAllowance(from, spender, amount) */\n      jump\t// in\n    tag_134:\n        /* \"diamonds/facets/FacetToken.sol\":4112:4139  _transfer(from, to, amount) */\n      tag_136\n        /* \"diamonds/facets/FacetToken.sol\":4122:4126  from */\n      dup6\n        /* \"diamonds/facets/FacetToken.sol\":4128:4130  to */\n      dup6\n        /* \"diamonds/facets/FacetToken.sol\":4132:4138  amount */\n      dup6\n        /* \"diamonds/facets/FacetToken.sol\":4112:4121  _transfer */\n      tag_137\n        /* \"diamonds/facets/FacetToken.sol\":4112:4139  _transfer(from, to, amount) */\n      jump\t// in\n    tag_136:\n      pop\n        /* \"diamonds/facets/FacetToken.sol\":4156:4160  true */\n      0x01\n      swap5\n        /* \"diamonds/facets/FacetToken.sol\":3914:4167  function transferFrom(address from, address to, uint amount) public virtual override returns (bool) {... */\n      swap4\n      pop\n      pop\n      pop\n      pop\n      jump\t// out\n        /* \"diamonds/facets/FacetToken.sol\":4173:4407  function increaseAllowance(address spender, uint addedValue) public virtual returns (bool) {... */\n    tag_54:\n        /* \"diamonds/facets/FacetToken.sol\":4258:4262  bool */\n      0x00\n        /* \"imports/openzeppelin/utils/Context.sol\":720:730  msg.sender */\n      caller\n        /* \"diamonds/facets/FacetToken.sol\":4313:4379  _approve(owner_, spender, allowance(owner_, spender) + addedValue) */\n      tag_113\n        /* \"imports/openzeppelin/utils/Context.sol\":720:730  msg.sender */\n      dup2\n        /* \"diamonds/facets/FacetToken.sol\":4330:4337  spender */\n      dup6\n        /* \"diamonds/facets/FacetToken.sol\":4368:4378  addedValue */\n      dup6\n        /* \"diamonds/facets/FacetToken.sol\":4339:4365  allowance(owner_, spender) */\n      tag_142\n        /* \"imports/openzeppelin/utils/Context.sol\":720:730  msg.sender */\n      dup4\n        /* \"diamonds/facets/FacetToken.sol\":4330:4337  spender */\n      dup4\n        /* \"diamonds/facets/FacetToken.sol\":4339:4348  allowance */\n      tag_96\n        /* \"diamonds/facets/FacetToken.sol\":4339:4365  allowance(owner_, spender) */\n      jump\t// in\n    tag_142:\n        /* \"diamonds/facets/FacetToken.sol\":4339:4378  allowance(owner_, spender) + addedValue */\n      tag_143\n      swap2\n      swap1\n      tag_144\n      jump\t// in\n    tag_143:\n        /* \"diamonds/facets/FacetToken.sol\":4313:4321  _approve */\n      tag_114\n        /* \"diamonds/facets/FacetToken.sol\":4313:4379  _approve(owner_, spender, allowance(owner_, spender) + addedValue) */\n      jump\t// in\n        /* \"diamonds/facets/FacetToken.sol\":1909:2022  function ____mint(uint amount) external virtual {... */\n    tag_59:\n        /* \"diamonds/facets/FacetToken.sol\":1967:1978  _onlySelf() */\n      tag_146\n        /* \"diamonds/facets/FacetToken.sol\":1967:1976  _onlySelf */\n      tag_119\n        /* \"diamonds/facets/FacetToken.sol\":1967:1978  _onlySelf() */\n      jump\t// in\n    tag_146:\n        /* \"diamonds/facets/FacetToken.sol\":1988:2015  _mint(_msgSender(), amount) */\n      tag_147\n        /* \"imports/openzeppelin/utils/Context.sol\":720:730  msg.sender */\n      caller\n        /* \"diamonds/facets/FacetToken.sol\":2008:2014  amount */\n      dup3\n        /* \"diamonds/facets/FacetToken.sol\":1988:1993  _mint */\n      tag_149\n        /* \"diamonds/facets/FacetToken.sol\":1988:2015  _mint(_msgSender(), amount) */\n      jump\t// in\n    tag_147:\n        /* \"diamonds/facets/FacetToken.sol\":1909:2022  function ____mint(uint amount) external virtual {... */\n      pop\n      jump\t// out\n        /* \"diamonds/facets/FacetToken.sol\":2965:3219  function balanceOfAt(address account, uint snapshotId) public view virtual returns (uint) {... */\n    tag_62:\n        /* \"diamonds/facets/FacetToken.sol\":3049:3053  uint */\n      0x00\n        /* \"diamonds/facets/FacetToken.sol\":3066:3082  bool snapshotted */\n      dup1\n        /* \"diamonds/facets/FacetToken.sol\":3084:3094  uint value */\n      0x00\n        /* \"diamonds/facets/FacetToken.sol\":3098:3155  _valueAt(snapshotId, token().snapshotsOfBalance[account]) */\n      tag_151\n        /* \"diamonds/facets/FacetToken.sol\":3107:3117  snapshotId */\n      dup5\n        /* \"diamonds/facets/FacetToken.sol\":3119:3126  token() */\n      tag_152\n        /* \"diamonds/facets/FacetToken.sol\":3119:3124  token */\n      tag_103\n        /* \"diamonds/facets/FacetToken.sol\":3119:3126  token() */\n      jump\t// in\n    tag_152:\n      sub(shl(0xa0, 0x01), 0x01)\n        /* \"diamonds/facets/FacetToken.sol\":3119:3154  token().snapshotsOfBalance[account] */\n      dup9\n      and\n      0x00\n      swap1\n      dup2\n      mstore\n        /* \"diamonds/facets/FacetToken.sol\":3119:3145  token().snapshotsOfBalance */\n      0x02\n      swap2\n      swap1\n      swap2\n      add\n        /* \"diamonds/facets/FacetToken.sol\":3119:3154  token().snapshotsOfBalance[account] */\n      0x20\n      mstore\n      0x40\n      swap1\n      keccak256\n        /* \"diamonds/facets/FacetToken.sol\":3098:3106  _valueAt */\n      tag_153\n        /* \"diamonds/facets/FacetToken.sol\":3098:3155  _valueAt(snapshotId, token().snapshotsOfBalance[account]) */\n      jump\t// in\n    tag_151:\n        /* \"diamonds/facets/FacetToken.sol\":3065:3155  (bool snapshotted, uint value) = _valueAt(snapshotId, token().snapshotsOfBalance[account]) */\n      swap2\n      pop\n      swap2\n      pop\n        /* \"diamonds/facets/FacetToken.sol\":3172:3183  snapshotted */\n      dup2\n        /* \"diamonds/facets/FacetToken.sol\":3172:3212  snapshotted ? value : balanceOf(account) */\n      tag_154\n      jumpi\n        /* \"diamonds/facets/FacetToken.sol\":3194:3212  balanceOf(account) */\n      tag_155\n        /* \"diamonds/facets/FacetToken.sol\":3204:3211  account */\n      dup6\n        /* \"diamonds/facets/FacetToken.sol\":3194:3203  balanceOf */\n      tag_70\n        /* \"diamonds/facets/FacetToken.sol\":3194:3212  balanceOf(account) */\n      jump\t// in\n    tag_155:\n        /* \"diamonds/facets/FacetToken.sol\":3172:3212  snapshotted ? value : balanceOf(account) */\n      jump(tag_156)\n    tag_154:\n        /* \"diamonds/facets/FacetToken.sol\":3186:3191  value */\n      dup1\n        /* \"diamonds/facets/FacetToken.sol\":3172:3212  snapshotted ? value : balanceOf(account) */\n    tag_156:\n        /* \"diamonds/facets/FacetToken.sol\":3165:3212  return snapshotted ? value : balanceOf(account) */\n      swap6\n        /* \"diamonds/facets/FacetToken.sol\":2965:3219  function balanceOfAt(address account, uint snapshotId) public view virtual returns (uint) {... */\n      swap5\n      pop\n      pop\n      pop\n      pop\n      pop\n      jump\t// out\n        /* \"diamonds/facets/FacetToken.sol\":3386:3512  function getCurrentSnapshotId() public view virtual returns (uint) {... */\n    tag_65:\n        /* \"diamonds/facets/FacetToken.sol\":3447:3451  uint */\n      0x00\n        /* \"diamonds/facets/FacetToken.sol\":3470:3505  token().currentSnapshotId.current() */\n      tag_158\n        /* \"diamonds/facets/FacetToken.sol\":3470:3477  token() */\n      tag_159\n        /* \"diamonds/facets/FacetToken.sol\":3470:3475  token */\n      tag_103\n        /* \"diamonds/facets/FacetToken.sol\":3470:3477  token() */\n      jump\t// in\n    tag_159:\n        /* \"diamonds/facets/FacetToken.sol\":3470:3495  token().currentSnapshotId */\n      0x05\n      add\n        /* \"imports/openzeppelin/utils/Counters.sol\":918:932  counter._value */\n      sload\n      swap1\n        /* \"imports/openzeppelin/utils/Counters.sol\":827:939  function current(Counter storage counter) internal view returns (uint256) {... */\n      jump\n        /* \"diamonds/facets/FacetToken.sol\":3470:3505  token().currentSnapshotId.current() */\n    tag_158:\n        /* \"diamonds/facets/FacetToken.sol\":3463:3505  return token().currentSnapshotId.current() */\n      swap1\n      pop\n        /* \"diamonds/facets/FacetToken.sol\":3386:3512  function getCurrentSnapshotId() public view virtual returns (uint) {... */\n      swap1\n      jump\t// out\n        /* \"diamonds/facets/FacetToken.sol\":2830:2959  function balanceOf(address account) public view virtual override returns (uint) {... */\n    tag_70:\n        /* \"diamonds/facets/FacetToken.sol\":2904:2908  uint */\n      0x00\n        /* \"diamonds/facets/FacetToken.sol\":2927:2934  token() */\n      tag_162\n        /* \"diamonds/facets/FacetToken.sol\":2927:2932  token */\n      tag_103\n        /* \"diamonds/facets/FacetToken.sol\":2927:2934  token() */\n      jump\t// in\n    tag_162:\n      sub(shl(0xa0, 0x01), 0x01)\n        /* \"diamonds/facets/FacetToken.sol\":2927:2952  token().balances[account] */\n      swap1\n      swap3\n      and\n        /* \"diamonds/facets/FacetToken.sol\":2927:2943  token().balances */\n      0x00\n        /* \"diamonds/facets/FacetToken.sol\":2927:2952  token().balances[account] */\n      swap1\n      dup2\n      mstore\n      0x20\n      swap3\n      swap1\n      swap3\n      mstore\n      pop\n      0x40\n      swap1\n      keccak256\n      sload\n      swap1\n        /* \"diamonds/facets/FacetToken.sol\":2830:2959  function balanceOf(address account) public view virtual override returns (uint) {... */\n      jump\t// out\n        /* \"diamonds/facets/FacetToken.sol\":2267:2376  function symbol() public view virtual override returns (string memory) {... */\n    tag_73:\n        /* \"diamonds/facets/FacetToken.sol\":2323:2336  string memory */\n      0x60\n        /* \"diamonds/facets/FacetToken.sol\":2355:2362  token() */\n      tag_164\n        /* \"diamonds/facets/FacetToken.sol\":2355:2360  token */\n      tag_103\n        /* \"diamonds/facets/FacetToken.sol\":2355:2362  token() */\n      jump\t// in\n    tag_164:\n        /* \"diamonds/facets/FacetToken.sol\":2355:2369  token().symbol */\n      0x07\n      add\n        /* \"diamonds/facets/FacetToken.sol\":2348:2369  return token().symbol */\n      dup1\n      sload\n      tag_104\n      swap1\n      tag_105\n      jump\t// in\n        /* \"diamonds/facets/FacetToken.sol\":4847:5060  function snapshot() public virtual returns (uint) {... */\n    tag_76:\n        /* \"diamonds/facets/FacetToken.sol\":4891:4895  uint */\n      0x00\n        /* \"diamonds/facets/FacetToken.sol\":4907:4944  token().currentSnapshotId.increment() */\n      tag_171\n        /* \"diamonds/facets/FacetToken.sol\":4907:4914  token() */\n      tag_172\n        /* \"diamonds/facets/FacetToken.sol\":4907:4912  token */\n      tag_103\n        /* \"diamonds/facets/FacetToken.sol\":4907:4914  token() */\n      jump\t// in\n    tag_172:\n        /* \"diamonds/facets/FacetToken.sol\":4907:4932  token().currentSnapshotId */\n      0x05\n      add\n        /* \"imports/openzeppelin/utils/Counters.sol\":1032:1051  counter._value += 1 */\n      dup1\n      sload\n        /* \"imports/openzeppelin/utils/Counters.sol\":1050:1051  1 */\n      0x01\n        /* \"imports/openzeppelin/utils/Counters.sol\":1032:1051  counter._value += 1 */\n      add\n      swap1\n      sstore\n        /* \"imports/openzeppelin/utils/Counters.sol\":945:1068  function increment(Counter storage counter) internal {... */\n      jump\n        /* \"diamonds/facets/FacetToken.sol\":4907:4944  token().currentSnapshotId.increment() */\n    tag_171:\n        /* \"diamonds/facets/FacetToken.sol\":4954:4968  uint currentId */\n      0x00\n        /* \"diamonds/facets/FacetToken.sol\":4971:4993  getCurrentSnapshotId() */\n      tag_174\n        /* \"diamonds/facets/FacetToken.sol\":4971:4991  getCurrentSnapshotId */\n      tag_65\n        /* \"diamonds/facets/FacetToken.sol\":4971:4993  getCurrentSnapshotId() */\n      jump\t// in\n    tag_174:\n        /* \"diamonds/facets/FacetToken.sol\":4954:4993  uint currentId = getCurrentSnapshotId() */\n      swap1\n      pop\n        /* \"diamonds/facets/FacetToken.sol\":5008:5027  Snapshot(currentId) */\n      0x8030e83b04d87bef53480e26263266d6ca66863aa8506aca6f2559d18aa1cb67\n        /* \"diamonds/facets/FacetToken.sol\":5017:5026  currentId */\n      dup2\n        /* \"diamonds/facets/FacetToken.sol\":5008:5027  Snapshot(currentId) */\n      mload(0x40)\n      tag_175\n      swap2\n        /* \"#utility.yul\":1445:1470   */\n      dup2\n      mstore\n        /* \"#utility.yul\":1433:1435   */\n      0x20\n        /* \"#utility.yul\":1418:1436   */\n      add\n      swap1\n        /* \"#utility.yul\":1299:1476   */\n      jump\n        /* \"diamonds/facets/FacetToken.sol\":5008:5027  Snapshot(currentId) */\n    tag_175:\n      mload(0x40)\n      dup1\n      swap2\n      sub\n      swap1\n      log1\n        /* \"diamonds/facets/FacetToken.sol\":5044:5053  currentId */\n      swap2\n        /* \"diamonds/facets/FacetToken.sol\":4847:5060  function snapshot() public virtual returns (uint) {... */\n      swap1\n      pop\n      jump\t// out\n        /* \"diamonds/facets/FacetToken.sol\":2595:2824  function totalSupplyAt(uint snapshotId) public view virtual returns (uint) {... */\n    tag_80:\n        /* \"diamonds/facets/FacetToken.sol\":2664:2668  uint */\n      0x00\n        /* \"diamonds/facets/FacetToken.sol\":2681:2697  bool snapshotted */\n      dup1\n        /* \"diamonds/facets/FacetToken.sol\":2699:2709  uint value */\n      0x00\n        /* \"diamonds/facets/FacetToken.sol\":2713:2765  _valueAt(snapshotId, token().snapshotsOfTotalSupply) */\n      tag_177\n        /* \"diamonds/facets/FacetToken.sol\":2722:2732  snapshotId */\n      dup5\n        /* \"diamonds/facets/FacetToken.sol\":2734:2741  token() */\n      tag_178\n        /* \"diamonds/facets/FacetToken.sol\":2734:2739  token */\n      tag_103\n        /* \"diamonds/facets/FacetToken.sol\":2734:2741  token() */\n      jump\t// in\n    tag_178:\n        /* \"diamonds/facets/FacetToken.sol\":2734:2764  token().snapshotsOfTotalSupply */\n      0x03\n      add\n        /* \"diamonds/facets/FacetToken.sol\":2713:2721  _valueAt */\n      tag_153\n        /* \"diamonds/facets/FacetToken.sol\":2713:2765  _valueAt(snapshotId, token().snapshotsOfTotalSupply) */\n      jump\t// in\n    tag_177:\n        /* \"diamonds/facets/FacetToken.sol\":2680:2765  (bool snapshotted, uint value) = _valueAt(snapshotId, token().snapshotsOfTotalSupply) */\n      swap2\n      pop\n      swap2\n      pop\n        /* \"diamonds/facets/FacetToken.sol\":2782:2793  snapshotted */\n      dup2\n        /* \"diamonds/facets/FacetToken.sol\":2782:2817  snapshotted ? value : totalSupply() */\n      tag_179\n      jumpi\n        /* \"diamonds/facets/FacetToken.sol\":2804:2817  totalSupply() */\n      tag_180\n        /* \"diamonds/facets/FacetToken.sol\":2804:2815  totalSupply */\n      tag_36\n        /* \"diamonds/facets/FacetToken.sol\":2804:2817  totalSupply() */\n      jump\t// in\n    tag_180:\n        /* \"diamonds/facets/FacetToken.sol\":2782:2817  snapshotted ? value : totalSupply() */\n      jump(tag_181)\n    tag_179:\n        /* \"diamonds/facets/FacetToken.sol\":2796:2801  value */\n      dup1\n        /* \"diamonds/facets/FacetToken.sol\":2782:2817  snapshotted ? value : totalSupply() */\n    tag_181:\n        /* \"diamonds/facets/FacetToken.sol\":2775:2817  return snapshotted ? value : totalSupply() */\n      swap5\n        /* \"diamonds/facets/FacetToken.sol\":2595:2824  function totalSupplyAt(uint snapshotId) public view virtual returns (uint) {... */\n      swap4\n      pop\n      pop\n      pop\n      pop\n      jump\t// out\n        /* \"diamonds/facets/FacetToken.sol\":4413:4841  function decreaseAllowance(address spender, uint subtractedValue) public virtual returns (bool) {... */\n    tag_84:\n        /* \"diamonds/facets/FacetToken.sol\":4503:4507  bool */\n      0x00\n        /* \"imports/openzeppelin/utils/Context.sol\":720:730  msg.sender */\n      caller\n        /* \"diamonds/facets/FacetToken.sol\":4503:4507  bool */\n      dup2\n        /* \"diamonds/facets/FacetToken.sol\":4582:4608  allowance(owner_, spender) */\n      tag_184\n        /* \"imports/openzeppelin/utils/Context.sol\":720:730  msg.sender */\n      dup3\n        /* \"diamonds/facets/FacetToken.sol\":4600:4607  spender */\n      dup7\n        /* \"diamonds/facets/FacetToken.sol\":4582:4591  allowance */\n      tag_96\n        /* \"diamonds/facets/FacetToken.sol\":4582:4608  allowance(owner_, spender) */\n      jump\t// in\n    tag_184:\n        /* \"diamonds/facets/FacetToken.sol\":4558:4608  uint currentAllowance = allowance(owner_, spender) */\n      swap1\n      pop\n        /* \"diamonds/facets/FacetToken.sol\":4646:4661  subtractedValue */\n      dup4\n        /* \"diamonds/facets/FacetToken.sol\":4626:4642  currentAllowance */\n      dup2\n        /* \"diamonds/facets/FacetToken.sol\":4626:4661  currentAllowance >= subtractedValue */\n      lt\n      iszero\n        /* \"diamonds/facets/FacetToken.sol\":4618:4708  require(currentAllowance >= subtractedValue, 'FacetToken: decreased allowance below zero') */\n      tag_185\n      jumpi\n      mload(0x40)\n      shl(0xe5, 0x461bcd)\n      dup2\n      mstore\n        /* \"#utility.yul\":7050:7052   */\n      0x20\n        /* \"diamonds/facets/FacetToken.sol\":4618:4708  require(currentAllowance >= subtractedValue, 'FacetToken: decreased allowance below zero') */\n      0x04\n      dup3\n      add\n        /* \"#utility.yul\":7032:7053   */\n      mstore\n        /* \"#utility.yul\":7089:7091   */\n      0x2a\n        /* \"#utility.yul\":7069:7087   */\n      0x24\n      dup3\n      add\n        /* \"#utility.yul\":7062:7092   */\n      mstore\n        /* \"#utility.yul\":7128:7162   */\n      0x4661636574546f6b656e3a2064656372656173656420616c6c6f77616e636520\n        /* \"#utility.yul\":7108:7126   */\n      0x44\n      dup3\n      add\n        /* \"#utility.yul\":7101:7163   */\n      mstore\n      shl(0xb0, 0x62656c6f77207a65726f)\n        /* \"#utility.yul\":7179:7197   */\n      0x64\n      dup3\n      add\n        /* \"#utility.yul\":7172:7212   */\n      mstore\n        /* \"#utility.yul\":7229:7248   */\n      0x84\n      add\n        /* \"diamonds/facets/FacetToken.sol\":4618:4708  require(currentAllowance >= subtractedValue, 'FacetToken: decreased allowance below zero') */\n    tag_186:\n      mload(0x40)\n      dup1\n      swap2\n      sub\n      swap1\n      revert\n    tag_185:\n        /* \"diamonds/facets/FacetToken.sol\":4742:4803  _approve(owner_, spender, currentAllowance - subtractedValue) */\n      tag_136\n        /* \"diamonds/facets/FacetToken.sol\":4751:4757  owner_ */\n      dup3\n        /* \"diamonds/facets/FacetToken.sol\":4759:4766  spender */\n      dup7\n        /* \"diamonds/facets/FacetToken.sol\":4787:4802  subtractedValue */\n      dup7\n        /* \"diamonds/facets/FacetToken.sol\":4768:4784  currentAllowance */\n      dup5\n        /* \"diamonds/facets/FacetToken.sol\":4768:4802  currentAllowance - subtractedValue */\n      sub\n        /* \"diamonds/facets/FacetToken.sol\":4742:4750  _approve */\n      tag_114\n        /* \"diamonds/facets/FacetToken.sol\":4742:4803  _approve(owner_, spender, currentAllowance - subtractedValue) */\n      jump\t// in\n        /* \"diamonds/facets/FacetToken.sol\":3720:3908  function transfer(address to, uint amount) public virtual override returns (bool) {... */\n    tag_88:\n        /* \"diamonds/facets/FacetToken.sol\":3796:3800  bool */\n      0x00\n        /* \"imports/openzeppelin/utils/Context.sol\":720:730  msg.sender */\n      caller\n        /* \"diamonds/facets/FacetToken.sol\":3851:3880  _transfer(owner_, to, amount) */\n      tag_113\n        /* \"imports/openzeppelin/utils/Context.sol\":720:730  msg.sender */\n      dup2\n        /* \"diamonds/facets/FacetToken.sol\":3869:3871  to */\n      dup6\n        /* \"diamonds/facets/FacetToken.sol\":3873:3879  amount */\n      dup6\n        /* \"diamonds/facets/FacetToken.sol\":3851:3860  _transfer */\n      tag_137\n        /* \"diamonds/facets/FacetToken.sol\":3851:3880  _transfer(owner_, to, amount) */\n      jump\t// in\n        /* \"diamonds/facets/FacetToken.sol\":2028:2141  function ____burn(uint amount) external virtual {... */\n    tag_92:\n        /* \"diamonds/facets/FacetToken.sol\":2086:2097  _onlySelf() */\n      tag_193\n        /* \"diamonds/facets/FacetToken.sol\":2086:2095  _onlySelf */\n      tag_119\n        /* \"diamonds/facets/FacetToken.sol\":2086:2097  _onlySelf() */\n      jump\t// in\n    tag_193:\n        /* \"diamonds/facets/FacetToken.sol\":2107:2134  _burn(_msgSender(), amount) */\n      tag_147\n        /* \"imports/openzeppelin/utils/Context.sol\":720:730  msg.sender */\n      caller\n        /* \"diamonds/facets/FacetToken.sol\":2127:2133  amount */\n      dup3\n        /* \"diamonds/facets/FacetToken.sol\":2107:2112  _burn */\n      tag_196\n        /* \"diamonds/facets/FacetToken.sol\":2107:2134  _burn(_msgSender(), amount) */\n      jump\t// in\n        /* \"diamonds/facets/FacetToken.sol\":3225:3380  function allowance(address owner_, address spender) public view virtual override returns (uint) {... */\n    tag_96:\n        /* \"diamonds/facets/FacetToken.sol\":3315:3319  uint */\n      0x00\n        /* \"diamonds/facets/FacetToken.sol\":3338:3345  token() */\n      tag_198\n        /* \"diamonds/facets/FacetToken.sol\":3338:3343  token */\n      tag_103\n        /* \"diamonds/facets/FacetToken.sol\":3338:3345  token() */\n      jump\t// in\n    tag_198:\n      sub(shl(0xa0, 0x01), 0x01)\n        /* \"diamonds/facets/FacetToken.sol\":3338:3364  token().allowances[owner_] */\n      swap4\n      dup5\n      and\n      0x00\n      swap1\n      dup2\n      mstore\n        /* \"diamonds/facets/FacetToken.sol\":3338:3356  token().allowances */\n      0x01\n      swap2\n      swap1\n      swap2\n      add\n        /* \"diamonds/facets/FacetToken.sol\":3338:3364  token().allowances[owner_] */\n      0x20\n      swap1\n      dup2\n      mstore\n      0x40\n      dup1\n      dup4\n      keccak256\n        /* \"diamonds/facets/FacetToken.sol\":3338:3373  token().allowances[owner_][spender] */\n      swap5\n      swap1\n      swap6\n      and\n      dup3\n      mstore\n      swap3\n      swap1\n      swap3\n      mstore\n      pop\n      keccak256\n      sload\n      swap1\n        /* \"diamonds/facets/FacetToken.sol\":3225:3380  function allowance(address owner_, address spender) public view virtual override returns (uint) {... */\n      jump\t// out\n        /* \"diamonds/facets/FacetToken.sol\":1447:1663  function ____setName(string memory newName) external virtual {... */\n    tag_100:\n        /* \"diamonds/facets/FacetToken.sol\":1518:1529  _onlySelf() */\n      tag_200\n        /* \"diamonds/facets/FacetToken.sol\":1518:1527  _onlySelf */\n      tag_119\n        /* \"diamonds/facets/FacetToken.sol\":1518:1529  _onlySelf() */\n      jump\t// in\n    tag_200:\n        /* \"diamonds/facets/FacetToken.sol\":1539:1560  string memory oldName */\n      0x00\n        /* \"diamonds/facets/FacetToken.sol\":1563:1570  token() */\n      tag_201\n        /* \"diamonds/facets/FacetToken.sol\":1563:1568  token */\n      tag_103\n        /* \"diamonds/facets/FacetToken.sol\":1563:1570  token() */\n      jump\t// in\n    tag_201:\n        /* \"diamonds/facets/FacetToken.sol\":1563:1575  token().name */\n      0x06\n      add\n        /* \"diamonds/facets/FacetToken.sol\":1539:1575  string memory oldName = token().name */\n      dup1\n      sload\n      tag_202\n      swap1\n      tag_105\n      jump\t// in\n    tag_202:\n      dup1\n      0x1f\n      add\n      0x20\n      dup1\n      swap2\n      div\n      mul\n      0x20\n      add\n      mload(0x40)\n      swap1\n      dup2\n      add\n      0x40\n      mstore\n      dup1\n      swap3\n      swap2\n      swap1\n      dup2\n      dup2\n      mstore\n      0x20\n      add\n      dup3\n      dup1\n      sload\n      tag_203\n      swap1\n      tag_105\n      jump\t// in\n    tag_203:\n      dup1\n      iszero\n      tag_204\n      jumpi\n      dup1\n      0x1f\n      lt\n      tag_205\n      jumpi\n      0x0100\n      dup1\n      dup4\n      sload\n      div\n      mul\n      dup4\n      mstore\n      swap2\n      0x20\n      add\n      swap2\n      jump(tag_204)\n    tag_205:\n      dup3\n      add\n      swap2\n      swap1\n      0x00\n      mstore\n      keccak256(0x00, 0x20)\n      swap1\n    tag_206:\n      dup2\n      sload\n      dup2\n      mstore\n      swap1\n      0x01\n      add\n      swap1\n      0x20\n      add\n      dup1\n      dup4\n      gt\n      tag_206\n      jumpi\n      dup3\n      swap1\n      sub\n      0x1f\n      and\n      dup3\n      add\n      swap2\n    tag_204:\n      pop\n      pop\n      pop\n      pop\n      pop\n      swap1\n      pop\n        /* \"diamonds/facets/FacetToken.sol\":1600:1607  newName */\n      dup2\n        /* \"diamonds/facets/FacetToken.sol\":1585:1592  token() */\n      tag_207\n        /* \"diamonds/facets/FacetToken.sol\":1585:1590  token */\n      tag_103\n        /* \"diamonds/facets/FacetToken.sol\":1585:1592  token() */\n      jump\t// in\n    tag_207:\n        /* \"diamonds/facets/FacetToken.sol\":1585:1597  token().name */\n      0x06\n      add\n      swap1\n        /* \"diamonds/facets/FacetToken.sol\":1585:1607  token().name = newName */\n      tag_208\n      swap1\n        /* \"diamonds/facets/FacetToken.sol\":1585:1597  token().name */\n      dup3\n        /* \"diamonds/facets/FacetToken.sol\":1585:1607  token().name = newName */\n      tag_128\n      jump\t// in\n    tag_208:\n      pop\n        /* \"diamonds/facets/FacetToken.sol\":1648:1655  newName */\n      dup2\n        /* \"diamonds/facets/FacetToken.sol\":1622:1656  TokenNameChanged(oldName, newName) */\n      mload(0x40)\n      tag_209\n      swap2\n      swap1\n      tag_130\n      jump\t// in\n    tag_209:\n      mload(0x40)\n      dup1\n      swap2\n      sub\n      swap1\n      keccak256\n        /* \"diamonds/facets/FacetToken.sol\":1639:1646  oldName */\n      dup2\n        /* \"diamonds/facets/FacetToken.sol\":1622:1656  TokenNameChanged(oldName, newName) */\n      mload(0x40)\n      tag_210\n      swap2\n      swap1\n      tag_130\n      jump\t// in\n    tag_210:\n      mload(0x40)\n      swap1\n      dup2\n      swap1\n      sub\n      dup2\n      keccak256\n      swap1\n      0xe08ba098c56583ff7ce264f98fb97b7ddc5e6af834acc0556b24327f72a555f9\n      swap1\n      0x00\n      swap1\n      log3\n        /* \"diamonds/facets/FacetToken.sol\":1508:1663  {... */\n      pop\n        /* \"diamonds/facets/FacetToken.sol\":1447:1663  function ____setName(string memory newName) external virtual {... */\n      pop\n      jump\t// out\n        /* \"diamonds/facets/slots/SlotToken.sol\":673:847  function token() internal pure virtual returns (StorageToken storage s) {... */\n    tag_103:\n        /* \"diamonds/facets/slots/SlotToken.sol\":215:238  keccak256('slot.token') */\n      0x667c0cf071c712f94f97f65a859cdaa470fe424825756c2cae5a4d1adcee538b\n      swap1\n        /* \"diamonds/facets/slots/SlotToken.sol\":673:847  function token() internal pure virtual returns (StorageToken storage s) {... */\n      jump\t// out\n        /* \"diamonds/facets/FacetToken.sol\":7305:7662  function _approve(address owner_, address spender, uint amount) internal virtual {... */\n    tag_114:\n      sub(shl(0xa0, 0x01), 0x01)\n        /* \"diamonds/facets/FacetToken.sol\":7404:7424  owner_ != address(0) */\n      dup4\n      and\n        /* \"diamonds/facets/FacetToken.sol\":7396:7470  require(owner_ != address(0), 'FacetToken: approve from the zero address') */\n      tag_214\n      jumpi\n      mload(0x40)\n      shl(0xe5, 0x461bcd)\n      dup2\n      mstore\n        /* \"#utility.yul\":7461:7463   */\n      0x20\n        /* \"diamonds/facets/FacetToken.sol\":7396:7470  require(owner_ != address(0), 'FacetToken: approve from the zero address') */\n      0x04\n      dup3\n      add\n        /* \"#utility.yul\":7443:7464   */\n      mstore\n        /* \"#utility.yul\":7500:7502   */\n      0x29\n        /* \"#utility.yul\":7480:7498   */\n      0x24\n      dup3\n      add\n        /* \"#utility.yul\":7473:7503   */\n      mstore\n        /* \"#utility.yul\":7539:7573   */\n      0x4661636574546f6b656e3a20617070726f76652066726f6d20746865207a6572\n        /* \"#utility.yul\":7519:7537   */\n      0x44\n      dup3\n      add\n        /* \"#utility.yul\":7512:7574   */\n      mstore\n      shl(0xb8, 0x6f2061646472657373)\n        /* \"#utility.yul\":7590:7608   */\n      0x64\n      dup3\n      add\n        /* \"#utility.yul\":7583:7622   */\n      mstore\n        /* \"#utility.yul\":7639:7658   */\n      0x84\n      add\n        /* \"diamonds/facets/FacetToken.sol\":7396:7470  require(owner_ != address(0), 'FacetToken: approve from the zero address') */\n      tag_186\n        /* \"#utility.yul\":7259:7664   */\n      jump\n        /* \"diamonds/facets/FacetToken.sol\":7396:7470  require(owner_ != address(0), 'FacetToken: approve from the zero address') */\n    tag_214:\n      sub(shl(0xa0, 0x01), 0x01)\n        /* \"diamonds/facets/FacetToken.sol\":7488:7509  spender != address(0) */\n      dup3\n      and\n        /* \"diamonds/facets/FacetToken.sol\":7480:7553  require(spender != address(0), 'FacetToken: approve to the zero address') */\n      tag_217\n      jumpi\n      mload(0x40)\n      shl(0xe5, 0x461bcd)\n      dup2\n      mstore\n        /* \"#utility.yul\":7871:7873   */\n      0x20\n        /* \"diamonds/facets/FacetToken.sol\":7480:7553  require(spender != address(0), 'FacetToken: approve to the zero address') */\n      0x04\n      dup3\n      add\n        /* \"#utility.yul\":7853:7874   */\n      mstore\n        /* \"#utility.yul\":7910:7912   */\n      0x27\n        /* \"#utility.yul\":7890:7908   */\n      0x24\n      dup3\n      add\n        /* \"#utility.yul\":7883:7913   */\n      mstore\n        /* \"#utility.yul\":7949:7983   */\n      0x4661636574546f6b656e3a20617070726f766520746f20746865207a65726f20\n        /* \"#utility.yul\":7929:7947   */\n      0x44\n      dup3\n      add\n        /* \"#utility.yul\":7922:7984   */\n      mstore\n      shl(0xc8, 0x61646472657373)\n        /* \"#utility.yul\":8000:8018   */\n      0x64\n      dup3\n      add\n        /* \"#utility.yul\":7993:8030   */\n      mstore\n        /* \"#utility.yul\":8047:8066   */\n      0x84\n      add\n        /* \"diamonds/facets/FacetToken.sol\":7480:7553  require(spender != address(0), 'FacetToken: approve to the zero address') */\n      tag_186\n        /* \"#utility.yul\":7669:8072   */\n      jump\n        /* \"diamonds/facets/FacetToken.sol\":7480:7553  require(spender != address(0), 'FacetToken: approve to the zero address') */\n    tag_217:\n        /* \"diamonds/facets/FacetToken.sol\":7601:7607  amount */\n      dup1\n        /* \"diamonds/facets/FacetToken.sol\":7563:7570  token() */\n      tag_220\n        /* \"diamonds/facets/FacetToken.sol\":7563:7568  token */\n      tag_103\n        /* \"diamonds/facets/FacetToken.sol\":7563:7570  token() */\n      jump\t// in\n    tag_220:\n      sub(shl(0xa0, 0x01), 0x01)\n        /* \"diamonds/facets/FacetToken.sol\":7563:7589  token().allowances[owner_] */\n      dup6\n      dup2\n      and\n      0x00\n      dup2\n      dup2\n      mstore\n        /* \"diamonds/facets/FacetToken.sol\":7563:7581  token().allowances */\n      0x01\n      swap4\n      swap1\n      swap4\n      add\n        /* \"diamonds/facets/FacetToken.sol\":7563:7589  token().allowances[owner_] */\n      0x20\n      swap1\n      dup2\n      mstore\n      0x40\n      dup1\n      dup6\n      keccak256\n        /* \"diamonds/facets/FacetToken.sol\":7563:7598  token().allowances[owner_][spender] */\n      swap4\n      dup9\n      and\n      dup1\n      dup7\n      mstore\n      swap4\n      dup3\n      mstore\n      swap4\n      dup5\n      swap1\n      keccak256\n        /* \"diamonds/facets/FacetToken.sol\":7563:7607  token().allowances[owner_][spender] = amount */\n      swap5\n      swap1\n      swap5\n      sstore\n        /* \"diamonds/facets/FacetToken.sol\":7622:7655  Approval(owner_, spender, amount) */\n      swap2\n      mload\n        /* \"#utility.yul\":1445:1470   */\n      dup5\n      dup2\n      mstore\n        /* \"diamonds/facets/FacetToken.sol\":7563:7598  token().allowances[owner_][spender] */\n      swap1\n      swap3\n        /* \"diamonds/facets/FacetToken.sol\":7622:7655  Approval(owner_, spender, amount) */\n      0x8c5be1e5ebec7d5bd14f71427d1e84f3dd0314c0f7b2291e5b200ac8c7c3b925\n      swap2\n        /* \"#utility.yul\":1418:1436   */\n      add\n        /* \"diamonds/facets/FacetToken.sol\":7622:7655  Approval(owner_, spender, amount) */\n    tag_221:\n      mload(0x40)\n      dup1\n      swap2\n      sub\n      swap1\n      log3\n        /* \"diamonds/facets/FacetToken.sol\":7305:7662  function _approve(address owner_, address spender, uint amount) internal virtual {... */\n      pop\n      pop\n      pop\n      jump\t// out\n        /* \"diamonds/facets/FacetToken.sol\":5066:5177  function _onlySelf() internal view virtual {... */\n    tag_119:\n        /* \"imports/openzeppelin/utils/Context.sol\":720:730  msg.sender */\n      caller\n        /* \"diamonds/facets/FacetToken.sol\":5151:5155  this */\n      address\n        /* \"diamonds/facets/FacetToken.sol\":5127:5156  _msgSender() == address(this) */\n      eq\n        /* \"diamonds/facets/FacetToken.sol\":5119:5170  require(_msgSender() == address(this), 'only self') */\n      tag_224\n      jumpi\n      mload(0x40)\n      shl(0xe5, 0x461bcd)\n      dup2\n      mstore\n        /* \"#utility.yul\":8279:8281   */\n      0x20\n        /* \"diamonds/facets/FacetToken.sol\":5119:5170  require(_msgSender() == address(this), 'only self') */\n      0x04\n      dup3\n      add\n        /* \"#utility.yul\":8261:8282   */\n      mstore\n        /* \"#utility.yul\":8318:8319   */\n      0x09\n        /* \"#utility.yul\":8298:8316   */\n      0x24\n      dup3\n      add\n        /* \"#utility.yul\":8291:8320   */\n      mstore\n      shl(0xb9, 0x37b7363c9039b2b633)\n        /* \"#utility.yul\":8336:8354   */\n      0x44\n      dup3\n      add\n        /* \"#utility.yul\":8329:8368   */\n      mstore\n        /* \"#utility.yul\":8385:8403   */\n      0x64\n      add\n        /* \"diamonds/facets/FacetToken.sol\":5119:5170  require(_msgSender() == address(this), 'only self') */\n      tag_186\n        /* \"#utility.yul\":8077:8409   */\n      jump\n        /* \"diamonds/facets/FacetToken.sol\":5119:5170  require(_msgSender() == address(this), 'only self') */\n    tag_224:\n        /* \"diamonds/facets/FacetToken.sol\":5066:5177  function _onlySelf() internal view virtual {... */\n      jump\t// out\n        /* \"diamonds/facets/FacetToken.sol\":6889:7299  function _spendAllowance(address owner_, address spender, uint amount) internal virtual {... */\n    tag_135:\n        /* \"diamonds/facets/FacetToken.sol\":6987:7008  uint currentAllowance */\n      0x00\n        /* \"diamonds/facets/FacetToken.sol\":7011:7037  allowance(owner_, spender) */\n      tag_228\n        /* \"diamonds/facets/FacetToken.sol\":7021:7027  owner_ */\n      dup5\n        /* \"diamonds/facets/FacetToken.sol\":7029:7036  spender */\n      dup5\n        /* \"diamonds/facets/FacetToken.sol\":7011:7020  allowance */\n      tag_96\n        /* \"diamonds/facets/FacetToken.sol\":7011:7037  allowance(owner_, spender) */\n      jump\t// in\n    tag_228:\n        /* \"diamonds/facets/FacetToken.sol\":6987:7037  uint currentAllowance = allowance(owner_, spender) */\n      swap1\n      pop\n      not(0x00)\n        /* \"diamonds/facets/FacetToken.sol\":7051:7067  currentAllowance */\n      dup2\n        /* \"diamonds/facets/FacetToken.sol\":7051:7085  currentAllowance != type(uint).max */\n      eq\n        /* \"diamonds/facets/FacetToken.sol\":7047:7293  if (currentAllowance != type(uint).max) {... */\n      tag_233\n      jumpi\n        /* \"diamonds/facets/FacetToken.sol\":7129:7135  amount */\n      dup2\n        /* \"diamonds/facets/FacetToken.sol\":7109:7125  currentAllowance */\n      dup2\n        /* \"diamonds/facets/FacetToken.sol\":7109:7135  currentAllowance >= amount */\n      lt\n      iszero\n        /* \"diamonds/facets/FacetToken.sol\":7101:7174  require(currentAllowance >= amount, 'FacetToken: insufficient allowance') */\n      tag_230\n      jumpi\n      mload(0x40)\n      shl(0xe5, 0x461bcd)\n      dup2\n      mstore\n        /* \"#utility.yul\":8616:8618   */\n      0x20\n        /* \"diamonds/facets/FacetToken.sol\":7101:7174  require(currentAllowance >= amount, 'FacetToken: insufficient allowance') */\n      0x04\n      dup3\n      add\n        /* \"#utility.yul\":8598:8619   */\n      mstore\n        /* \"#utility.yul\":8655:8657   */\n      0x22\n        /* \"#utility.yul\":8635:8653   */\n      0x24\n      dup3\n      add\n        /* \"#utility.yul\":8628:8658   */\n      mstore\n        /* \"#utility.yul\":8694:8728   */\n      0x4661636574546f6b656e3a20696e73756666696369656e7420616c6c6f77616e\n        /* \"#utility.yul\":8674:8692   */\n      0x44\n      dup3\n      add\n        /* \"#utility.yul\":8667:8729   */\n      mstore\n      shl(0xf0, 0x6365)\n        /* \"#utility.yul\":8745:8763   */\n      0x64\n      dup3\n      add\n        /* \"#utility.yul\":8738:8770   */\n      mstore\n        /* \"#utility.yul\":8787:8806   */\n      0x84\n      add\n        /* \"diamonds/facets/FacetToken.sol\":7101:7174  require(currentAllowance >= amount, 'FacetToken: insufficient allowance') */\n      tag_186\n        /* \"#utility.yul\":8414:8812   */\n      jump\n        /* \"diamonds/facets/FacetToken.sol\":7101:7174  require(currentAllowance >= amount, 'FacetToken: insufficient allowance') */\n    tag_230:\n        /* \"diamonds/facets/FacetToken.sol\":7216:7268  _approve(owner_, spender, currentAllowance - amount) */\n      tag_233\n        /* \"diamonds/facets/FacetToken.sol\":7225:7231  owner_ */\n      dup5\n        /* \"diamonds/facets/FacetToken.sol\":7233:7240  spender */\n      dup5\n        /* \"diamonds/facets/FacetToken.sol\":7261:7267  amount */\n      dup5\n        /* \"diamonds/facets/FacetToken.sol\":7242:7258  currentAllowance */\n      dup5\n        /* \"diamonds/facets/FacetToken.sol\":7242:7267  currentAllowance - amount */\n      sub\n        /* \"diamonds/facets/FacetToken.sol\":7216:7224  _approve */\n      tag_114\n        /* \"diamonds/facets/FacetToken.sol\":7216:7268  _approve(owner_, spender, currentAllowance - amount) */\n      jump\t// in\n    tag_233:\n        /* \"diamonds/facets/FacetToken.sol\":6977:7299  {... */\n      pop\n        /* \"diamonds/facets/FacetToken.sol\":6889:7299  function _spendAllowance(address owner_, address spender, uint amount) internal virtual {... */\n      pop\n      pop\n      pop\n      jump\t// out\n        /* \"diamonds/facets/FacetToken.sol\":5183:5834  function _transfer(address from, address to, uint amount) internal virtual {... */\n    tag_137:\n      sub(shl(0xa0, 0x01), 0x01)\n        /* \"diamonds/facets/FacetToken.sol\":5276:5294  from != address(0) */\n      dup4\n      and\n        /* \"diamonds/facets/FacetToken.sol\":5268:5341  require(from != address(0), 'FacetToken: transfer from the zero address') */\n      tag_235\n      jumpi\n      mload(0x40)\n      shl(0xe5, 0x461bcd)\n      dup2\n      mstore\n        /* \"#utility.yul\":9019:9021   */\n      0x20\n        /* \"diamonds/facets/FacetToken.sol\":5268:5341  require(from != address(0), 'FacetToken: transfer from the zero address') */\n      0x04\n      dup3\n      add\n        /* \"#utility.yul\":9001:9022   */\n      mstore\n        /* \"#utility.yul\":9058:9060   */\n      0x2a\n        /* \"#utility.yul\":9038:9056   */\n      0x24\n      dup3\n      add\n        /* \"#utility.yul\":9031:9061   */\n      mstore\n        /* \"#utility.yul\":9097:9131   */\n      0x4661636574546f6b656e3a207472616e736665722066726f6d20746865207a65\n        /* \"#utility.yul\":9077:9095   */\n      0x44\n      dup3\n      add\n        /* \"#utility.yul\":9070:9132   */\n      mstore\n      shl(0xb0, 0x726f2061646472657373)\n        /* \"#utility.yul\":9148:9166   */\n      0x64\n      dup3\n      add\n        /* \"#utility.yul\":9141:9181   */\n      mstore\n        /* \"#utility.yul\":9198:9217   */\n      0x84\n      add\n        /* \"diamonds/facets/FacetToken.sol\":5268:5341  require(from != address(0), 'FacetToken: transfer from the zero address') */\n      tag_186\n        /* \"#utility.yul\":8817:9223   */\n      jump\n        /* \"diamonds/facets/FacetToken.sol\":5268:5341  require(from != address(0), 'FacetToken: transfer from the zero address') */\n    tag_235:\n      sub(shl(0xa0, 0x01), 0x01)\n        /* \"diamonds/facets/FacetToken.sol\":5359:5375  to != address(0) */\n      dup3\n      and\n        /* \"diamonds/facets/FacetToken.sol\":5351:5420  require(to != address(0), 'FacetToken: transfer to the zero address') */\n      tag_238\n      jumpi\n      mload(0x40)\n      shl(0xe5, 0x461bcd)\n      dup2\n      mstore\n        /* \"#utility.yul\":9430:9432   */\n      0x20\n        /* \"diamonds/facets/FacetToken.sol\":5351:5420  require(to != address(0), 'FacetToken: transfer to the zero address') */\n      0x04\n      dup3\n      add\n        /* \"#utility.yul\":9412:9433   */\n      mstore\n        /* \"#utility.yul\":9469:9471   */\n      0x28\n        /* \"#utility.yul\":9449:9467   */\n      0x24\n      dup3\n      add\n        /* \"#utility.yul\":9442:9472   */\n      mstore\n        /* \"#utility.yul\":9508:9542   */\n      0x4661636574546f6b656e3a207472616e7366657220746f20746865207a65726f\n        /* \"#utility.yul\":9488:9506   */\n      0x44\n      dup3\n      add\n        /* \"#utility.yul\":9481:9543   */\n      mstore\n      shl(0xc0, 0x2061646472657373)\n        /* \"#utility.yul\":9559:9577   */\n      0x64\n      dup3\n      add\n        /* \"#utility.yul\":9552:9590   */\n      mstore\n        /* \"#utility.yul\":9607:9626   */\n      0x84\n      add\n        /* \"diamonds/facets/FacetToken.sol\":5351:5420  require(to != address(0), 'FacetToken: transfer to the zero address') */\n      tag_186\n        /* \"#utility.yul\":9228:9632   */\n      jump\n        /* \"diamonds/facets/FacetToken.sol\":5351:5420  require(to != address(0), 'FacetToken: transfer to the zero address') */\n    tag_238:\n        /* \"diamonds/facets/FacetToken.sol\":5430:5468  _beforeTokenTransfer(from, to, amount) */\n      tag_241\n        /* \"diamonds/facets/FacetToken.sol\":5451:5455  from */\n      dup4\n        /* \"diamonds/facets/FacetToken.sol\":5457:5459  to */\n      dup4\n        /* \"diamonds/facets/FacetToken.sol\":5461:5467  amount */\n      dup4\n        /* \"diamonds/facets/FacetToken.sol\":5430:5450  _beforeTokenTransfer */\n      tag_242\n        /* \"diamonds/facets/FacetToken.sol\":5430:5468  _beforeTokenTransfer(from, to, amount) */\n      jump\t// in\n    tag_241:\n        /* \"diamonds/facets/FacetToken.sol\":5478:5494  uint fromBalance */\n      0x00\n        /* \"diamonds/facets/FacetToken.sol\":5497:5504  token() */\n      tag_243\n        /* \"diamonds/facets/FacetToken.sol\":5497:5502  token */\n      tag_103\n        /* \"diamonds/facets/FacetToken.sol\":5497:5504  token() */\n      jump\t// in\n    tag_243:\n      sub(shl(0xa0, 0x01), 0x01)\n        /* \"diamonds/facets/FacetToken.sol\":5497:5519  token().balances[from] */\n      dup6\n      and\n        /* \"diamonds/facets/FacetToken.sol\":5497:5513  token().balances */\n      0x00\n        /* \"diamonds/facets/FacetToken.sol\":5497:5519  token().balances[from] */\n      swap1\n      dup2\n      mstore\n      0x20\n      swap2\n      swap1\n      swap2\n      mstore\n      0x40\n      swap1\n      keccak256\n      sload\n      swap1\n      pop\n        /* \"diamonds/facets/FacetToken.sol\":5537:5558  fromBalance >= amount */\n      dup2\n      dup2\n      lt\n      iszero\n        /* \"diamonds/facets/FacetToken.sol\":5529:5606  require(fromBalance >= amount, 'FacetToken: transfer amount exceeds balance') */\n      tag_244\n      jumpi\n      mload(0x40)\n      shl(0xe5, 0x461bcd)\n      dup2\n      mstore\n        /* \"#utility.yul\":9839:9841   */\n      0x20\n        /* \"diamonds/facets/FacetToken.sol\":5529:5606  require(fromBalance >= amount, 'FacetToken: transfer amount exceeds balance') */\n      0x04\n      dup3\n      add\n        /* \"#utility.yul\":9821:9842   */\n      mstore\n        /* \"#utility.yul\":9878:9880   */\n      0x2b\n        /* \"#utility.yul\":9858:9876   */\n      0x24\n      dup3\n      add\n        /* \"#utility.yul\":9851:9881   */\n      mstore\n        /* \"#utility.yul\":9917:9951   */\n      0x4661636574546f6b656e3a207472616e7366657220616d6f756e742065786365\n        /* \"#utility.yul\":9897:9915   */\n      0x44\n      dup3\n      add\n        /* \"#utility.yul\":9890:9952   */\n      mstore\n      shl(0xa8, 0x6564732062616c616e6365)\n        /* \"#utility.yul\":9968:9986   */\n      0x64\n      dup3\n      add\n        /* \"#utility.yul\":9961:10002   */\n      mstore\n        /* \"#utility.yul\":10019:10038   */\n      0x84\n      add\n        /* \"diamonds/facets/FacetToken.sol\":5529:5606  require(fromBalance >= amount, 'FacetToken: transfer amount exceeds balance') */\n      tag_186\n        /* \"#utility.yul\":9637:10044   */\n      jump\n        /* \"diamonds/facets/FacetToken.sol\":5529:5606  require(fromBalance >= amount, 'FacetToken: transfer amount exceeds balance') */\n    tag_244:\n        /* \"diamonds/facets/FacetToken.sol\":5679:5685  amount */\n      dup2\n        /* \"diamonds/facets/FacetToken.sol\":5665:5676  fromBalance */\n      dup2\n        /* \"diamonds/facets/FacetToken.sol\":5665:5685  fromBalance - amount */\n      sub\n        /* \"diamonds/facets/FacetToken.sol\":5640:5647  token() */\n      tag_247\n        /* \"diamonds/facets/FacetToken.sol\":5640:5645  token */\n      tag_103\n        /* \"diamonds/facets/FacetToken.sol\":5640:5647  token() */\n      jump\t// in\n    tag_247:\n      sub(shl(0xa0, 0x01), 0x01)\n        /* \"diamonds/facets/FacetToken.sol\":5640:5662  token().balances[from] */\n      dup7\n      and\n        /* \"diamonds/facets/FacetToken.sol\":5640:5656  token().balances */\n      0x00\n        /* \"diamonds/facets/FacetToken.sol\":5640:5662  token().balances[from] */\n      swap1\n      dup2\n      mstore\n      0x20\n      swap2\n      swap1\n      swap2\n      mstore\n      0x40\n      swap1\n      keccak256\n        /* \"diamonds/facets/FacetToken.sol\":5640:5685  token().balances[from] = fromBalance - amount */\n      sstore\n        /* \"diamonds/facets/FacetToken.sol\":5723:5729  amount */\n      dup2\n        /* \"diamonds/facets/FacetToken.sol\":5699:5706  token() */\n      tag_248\n        /* \"diamonds/facets/FacetToken.sol\":5699:5704  token */\n      tag_103\n        /* \"diamonds/facets/FacetToken.sol\":5699:5706  token() */\n      jump\t// in\n    tag_248:\n      sub(shl(0xa0, 0x01), 0x01)\n        /* \"diamonds/facets/FacetToken.sol\":5699:5719  token().balances[to] */\n      dup6\n      dup2\n      and\n        /* \"diamonds/facets/FacetToken.sol\":5699:5715  token().balances */\n      0x00\n        /* \"diamonds/facets/FacetToken.sol\":5699:5719  token().balances[to] */\n      dup2\n      dup2\n      mstore\n      0x20\n      swap4\n      dup5\n      mstore\n      0x40\n      swap1\n      dup2\n      swap1\n      keccak256\n        /* \"diamonds/facets/FacetToken.sol\":5699:5729  token().balances[to] += amount */\n      dup1\n      sload\n      swap6\n      swap1\n      swap6\n      add\n      swap1\n      swap5\n      sstore\n        /* \"diamonds/facets/FacetToken.sol\":5754:5780  Transfer(from, to, amount) */\n      swap3\n      mload\n        /* \"#utility.yul\":1445:1470   */\n      dup6\n      dup2\n      mstore\n        /* \"diamonds/facets/FacetToken.sol\":5754:5780  Transfer(from, to, amount) */\n      swap1\n      dup8\n      and\n      swap2\n      0xddf252ad1be2c89b69c2b068fc378daa952ba7f163c4a11628f55a4df523b3ef\n      swap2\n        /* \"#utility.yul\":1418:1436   */\n      add\n        /* \"diamonds/facets/FacetToken.sol\":5754:5780  Transfer(from, to, amount) */\n      mload(0x40)\n      dup1\n      swap2\n      sub\n      swap1\n      log3\n        /* \"diamonds/facets/FacetToken.sol\":5790:5827  _afterTokenTransfer(from, to, amount) */\n      tag_233\n        /* \"diamonds/facets/FacetToken.sol\":6282:6883  function _burn(address account, uint amount) internal virtual {... */\n      jump\n        /* \"diamonds/facets/FacetToken.sol\":5840:6276  function _mint(address account, uint amount) internal virtual {... */\n    tag_149:\n      sub(shl(0xa0, 0x01), 0x01)\n        /* \"diamonds/facets/FacetToken.sol\":5920:5941  account != address(0) */\n      dup3\n      and\n        /* \"diamonds/facets/FacetToken.sol\":5912:5982  require(account != address(0), 'FacetToken: mint to the zero address') */\n      tag_253\n      jumpi\n      mload(0x40)\n      shl(0xe5, 0x461bcd)\n      dup2\n      mstore\n        /* \"#utility.yul\":10251:10253   */\n      0x20\n        /* \"diamonds/facets/FacetToken.sol\":5912:5982  require(account != address(0), 'FacetToken: mint to the zero address') */\n      0x04\n      dup3\n      add\n        /* \"#utility.yul\":10233:10254   */\n      mstore\n        /* \"#utility.yul\":10290:10292   */\n      0x24\n        /* \"#utility.yul\":10270:10288   */\n      dup1\n      dup3\n      add\n        /* \"#utility.yul\":10263:10293   */\n      mstore\n        /* \"#utility.yul\":10329:10363   */\n      0x4661636574546f6b656e3a206d696e7420746f20746865207a65726f20616464\n        /* \"#utility.yul\":10309:10327   */\n      0x44\n      dup3\n      add\n        /* \"#utility.yul\":10302:10364   */\n      mstore\n      shl(0xe0, 0x72657373)\n        /* \"#utility.yul\":10380:10398   */\n      0x64\n      dup3\n      add\n        /* \"#utility.yul\":10373:10407   */\n      mstore\n        /* \"#utility.yul\":10424:10443   */\n      0x84\n      add\n        /* \"diamonds/facets/FacetToken.sol\":5912:5982  require(account != address(0), 'FacetToken: mint to the zero address') */\n      tag_186\n        /* \"#utility.yul\":10049:10449   */\n      jump\n        /* \"diamonds/facets/FacetToken.sol\":5912:5982  require(account != address(0), 'FacetToken: mint to the zero address') */\n    tag_253:\n        /* \"diamonds/facets/FacetToken.sol\":5992:6041  _beforeTokenTransfer(address(0), account, amount) */\n      tag_256\n        /* \"diamonds/facets/FacetToken.sol\":6021:6022  0 */\n      0x00\n        /* \"diamonds/facets/FacetToken.sol\":6025:6032  account */\n      dup4\n        /* \"diamonds/facets/FacetToken.sol\":6034:6040  amount */\n      dup4\n        /* \"diamonds/facets/FacetToken.sol\":5992:6012  _beforeTokenTransfer */\n      tag_242\n        /* \"diamonds/facets/FacetToken.sol\":5992:6041  _beforeTokenTransfer(address(0), account, amount) */\n      jump\t// in\n    tag_256:\n        /* \"diamonds/facets/FacetToken.sol\":6074:6080  amount */\n      dup1\n        /* \"diamonds/facets/FacetToken.sol\":6051:6058  token() */\n      tag_257\n        /* \"diamonds/facets/FacetToken.sol\":6051:6056  token */\n      tag_103\n        /* \"diamonds/facets/FacetToken.sol\":6051:6058  token() */\n      jump\t// in\n    tag_257:\n        /* \"diamonds/facets/FacetToken.sol\":6051:6070  token().totalSupply */\n      0x08\n      add\n      0x00\n        /* \"diamonds/facets/FacetToken.sol\":6051:6080  token().totalSupply += amount */\n      dup3\n      dup3\n      sload\n      tag_258\n      swap2\n      swap1\n      tag_144\n      jump\t// in\n    tag_258:\n      swap1\n      swap2\n      sstore\n      pop\n        /* \"diamonds/facets/FacetToken.sol\":6143:6149  amount */\n      dup2\n      swap1\n      pop\n        /* \"diamonds/facets/FacetToken.sol\":6114:6121  token() */\n      tag_259\n        /* \"diamonds/facets/FacetToken.sol\":6114:6119  token */\n      tag_103\n        /* \"diamonds/facets/FacetToken.sol\":6114:6121  token() */\n      jump\t// in\n    tag_259:\n      sub(shl(0xa0, 0x01), 0x01)\n        /* \"diamonds/facets/FacetToken.sol\":6114:6139  token().balances[account] */\n      dup5\n      and\n        /* \"diamonds/facets/FacetToken.sol\":6114:6130  token().balances */\n      0x00\n        /* \"diamonds/facets/FacetToken.sol\":6114:6139  token().balances[account] */\n      dup2\n      dup2\n      mstore\n      0x20\n      swap3\n      swap1\n      swap3\n      mstore\n      0x40\n      dup1\n      dup4\n      keccak256\n        /* \"diamonds/facets/FacetToken.sol\":6114:6149  token().balances[account] += amount */\n      dup1\n      sload\n      swap1\n      swap5\n      add\n      swap1\n      swap4\n      sstore\n        /* \"diamonds/facets/FacetToken.sol\":6174:6211  Transfer(address(0), account, amount) */\n      swap2\n      mload\n      0xddf252ad1be2c89b69c2b068fc378daa952ba7f163c4a11628f55a4df523b3ef\n      swap1\n      tag_260\n      swap1\n        /* \"diamonds/facets/FacetToken.sol\":6204:6210  amount */\n      dup6\n        /* \"#utility.yul\":1445:1470   */\n      dup2\n      mstore\n        /* \"#utility.yul\":1433:1435   */\n      0x20\n        /* \"#utility.yul\":1418:1436   */\n      add\n      swap1\n        /* \"#utility.yul\":1299:1476   */\n      jump\n        /* \"diamonds/facets/FacetToken.sol\":6174:6211  Transfer(address(0), account, amount) */\n    tag_260:\n      mload(0x40)\n      dup1\n      swap2\n      sub\n      swap1\n      log3\n        /* \"diamonds/facets/FacetToken.sol\":5840:6276  function _mint(address account, uint amount) internal virtual {... */\n      pop\n      pop\n      jump\t// out\n        /* \"diamonds/facets/FacetToken.sol\":8208:8672  function _valueAt(uint snapshotId, Snapshots storage snapshots) private view returns (bool, uint) {... */\n    tag_153:\n        /* \"diamonds/facets/FacetToken.sol\":8294:8298  bool */\n      0x00\n        /* \"diamonds/facets/FacetToken.sol\":8300:8304  uint */\n      dup1\n        /* \"diamonds/facets/FacetToken.sol\":8337:8338  0 */\n      0x00\n        /* \"diamonds/facets/FacetToken.sol\":8324:8334  snapshotId */\n      dup5\n        /* \"diamonds/facets/FacetToken.sol\":8324:8338  snapshotId > 0 */\n      gt\n        /* \"diamonds/facets/FacetToken.sol\":8316:8362  require(snapshotId > 0, 'FacetToken: id is 0') */\n      tag_263\n      jumpi\n      mload(0x40)\n      shl(0xe5, 0x461bcd)\n      dup2\n      mstore\n        /* \"#utility.yul\":10656:10658   */\n      0x20\n        /* \"diamonds/facets/FacetToken.sol\":8316:8362  require(snapshotId > 0, 'FacetToken: id is 0') */\n      0x04\n      dup3\n      add\n        /* \"#utility.yul\":10638:10659   */\n      mstore\n        /* \"#utility.yul\":10695:10697   */\n      0x13\n        /* \"#utility.yul\":10675:10693   */\n      0x24\n      dup3\n      add\n        /* \"#utility.yul\":10668:10698   */\n      mstore\n      shl(0x6c, 0x04661636574546f6b656e3a206964206973203)\n        /* \"#utility.yul\":10714:10732   */\n      0x44\n      dup3\n      add\n        /* \"#utility.yul\":10707:10756   */\n      mstore\n        /* \"#utility.yul\":10773:10791   */\n      0x64\n      add\n        /* \"diamonds/facets/FacetToken.sol\":8316:8362  require(snapshotId > 0, 'FacetToken: id is 0') */\n      tag_186\n        /* \"#utility.yul\":10454:10797   */\n      jump\n        /* \"diamonds/facets/FacetToken.sol\":8316:8362  require(snapshotId > 0, 'FacetToken: id is 0') */\n    tag_263:\n        /* \"diamonds/facets/FacetToken.sol\":8394:8416  getCurrentSnapshotId() */\n      tag_266\n        /* \"diamonds/facets/FacetToken.sol\":8394:8414  getCurrentSnapshotId */\n      tag_65\n        /* \"diamonds/facets/FacetToken.sol\":8394:8416  getCurrentSnapshotId() */\n      jump\t// in\n    tag_266:\n        /* \"diamonds/facets/FacetToken.sol\":8380:8390  snapshotId */\n      dup5\n        /* \"diamonds/facets/FacetToken.sol\":8380:8416  snapshotId <= getCurrentSnapshotId() */\n      gt\n      iszero\n        /* \"diamonds/facets/FacetToken.sol\":8372:8447  require(snapshotId <= getCurrentSnapshotId(), 'FacetToken: nonexistent id') */\n      tag_267\n      jumpi\n      mload(0x40)\n      shl(0xe5, 0x461bcd)\n      dup2\n      mstore\n        /* \"#utility.yul\":11004:11006   */\n      0x20\n        /* \"diamonds/facets/FacetToken.sol\":8372:8447  require(snapshotId <= getCurrentSnapshotId(), 'FacetToken: nonexistent id') */\n      0x04\n      dup3\n      add\n        /* \"#utility.yul\":10986:11007   */\n      mstore\n        /* \"#utility.yul\":11043:11045   */\n      0x1a\n        /* \"#utility.yul\":11023:11041   */\n      0x24\n      dup3\n      add\n        /* \"#utility.yul\":11016:11046   */\n      mstore\n        /* \"#utility.yul\":11082:11110   */\n      0x4661636574546f6b656e3a206e6f6e6578697374656e74206964000000000000\n        /* \"#utility.yul\":11062:11080   */\n      0x44\n      dup3\n      add\n        /* \"#utility.yul\":11055:11111   */\n      mstore\n        /* \"#utility.yul\":11128:11146   */\n      0x64\n      add\n        /* \"diamonds/facets/FacetToken.sol\":8372:8447  require(snapshotId <= getCurrentSnapshotId(), 'FacetToken: nonexistent id') */\n      tag_186\n        /* \"#utility.yul\":10802:11152   */\n      jump\n        /* \"diamonds/facets/FacetToken.sol\":8372:8447  require(snapshotId <= getCurrentSnapshotId(), 'FacetToken: nonexistent id') */\n    tag_267:\n        /* \"diamonds/facets/FacetToken.sol\":8457:8467  uint index */\n      0x00\n        /* \"diamonds/facets/FacetToken.sol\":8470:8510  snapshots.ids.findUpperBound(snapshotId) */\n      tag_270\n        /* \"diamonds/facets/FacetToken.sol\":8470:8479  snapshots */\n      dup5\n        /* \"diamonds/facets/FacetToken.sol\":8499:8509  snapshotId */\n      dup7\n        /* \"diamonds/facets/FacetToken.sol\":8470:8498  snapshots.ids.findUpperBound */\n      tag_271\n        /* \"diamonds/facets/FacetToken.sol\":8470:8510  snapshots.ids.findUpperBound(snapshotId) */\n      jump\t// in\n    tag_270:\n        /* \"diamonds/facets/FacetToken.sol\":8533:8553  snapshots.ids.length */\n      dup5\n      sload\n        /* \"diamonds/facets/FacetToken.sol\":8457:8510  uint index = snapshots.ids.findUpperBound(snapshotId) */\n      swap1\n      swap2\n      pop\n        /* \"diamonds/facets/FacetToken.sol\":8524:8553  index == snapshots.ids.length */\n      dup2\n      sub\n        /* \"diamonds/facets/FacetToken.sol\":8520:8666  if (index == snapshots.ids.length) {... */\n      tag_272\n      jumpi\n        /* \"diamonds/facets/FacetToken.sol\":8577:8582  false */\n      0x00\n        /* \"diamonds/facets/FacetToken.sol\":8584:8585  0 */\n      dup1\n        /* \"diamonds/facets/FacetToken.sol\":8569:8586  return (false, 0) */\n      swap3\n      pop\n      swap3\n      pop\n      pop\n      jump(tag_262)\n        /* \"diamonds/facets/FacetToken.sol\":8520:8666  if (index == snapshots.ids.length) {... */\n    tag_272:\n        /* \"diamonds/facets/FacetToken.sol\":8625:8629  true */\n      0x01\n        /* \"diamonds/facets/FacetToken.sol\":8631:8640  snapshots */\n      dup5\n        /* \"diamonds/facets/FacetToken.sol\":8631:8647  snapshots.values */\n      0x01\n      add\n        /* \"diamonds/facets/FacetToken.sol\":8648:8653  index */\n      dup3\n        /* \"diamonds/facets/FacetToken.sol\":8631:8654  snapshots.values[index] */\n      dup2\n      sload\n      dup2\n      lt\n      tag_275\n      jumpi\n      tag_275\n      tag_276\n      jump\t// in\n    tag_275:\n      swap1\n      0x00\n      mstore\n      keccak256(0x00, 0x20)\n      add\n      sload\n        /* \"diamonds/facets/FacetToken.sol\":8617:8655  return (true, snapshots.values[index]) */\n      swap3\n      pop\n      swap3\n      pop\n      pop\n        /* \"diamonds/facets/FacetToken.sol\":8208:8672  function _valueAt(uint snapshotId, Snapshots storage snapshots) private view returns (bool, uint) {... */\n    tag_262:\n      swap3\n      pop\n      swap3\n      swap1\n      pop\n      jump\t// out\n        /* \"diamonds/facets/FacetToken.sol\":6282:6883  function _burn(address account, uint amount) internal virtual {... */\n    tag_196:\n      sub(shl(0xa0, 0x01), 0x01)\n        /* \"diamonds/facets/FacetToken.sol\":6362:6383  account != address(0) */\n      dup3\n      and\n        /* \"diamonds/facets/FacetToken.sol\":6354:6426  require(account != address(0), 'FacetToken: burn from the zero address') */\n      tag_281\n      jumpi\n      mload(0x40)\n      shl(0xe5, 0x461bcd)\n      dup2\n      mstore\n        /* \"#utility.yul\":11491:11493   */\n      0x20\n        /* \"diamonds/facets/FacetToken.sol\":6354:6426  require(account != address(0), 'FacetToken: burn from the zero address') */\n      0x04\n      dup3\n      add\n        /* \"#utility.yul\":11473:11494   */\n      mstore\n        /* \"#utility.yul\":11530:11532   */\n      0x26\n        /* \"#utility.yul\":11510:11528   */\n      0x24\n      dup3\n      add\n        /* \"#utility.yul\":11503:11533   */\n      mstore\n        /* \"#utility.yul\":11569:11603   */\n      0x4661636574546f6b656e3a206275726e2066726f6d20746865207a65726f2061\n        /* \"#utility.yul\":11549:11567   */\n      0x44\n      dup3\n      add\n        /* \"#utility.yul\":11542:11604   */\n      mstore\n      shl(0xd0, 0x646472657373)\n        /* \"#utility.yul\":11620:11638   */\n      0x64\n      dup3\n      add\n        /* \"#utility.yul\":11613:11649   */\n      mstore\n        /* \"#utility.yul\":11666:11685   */\n      0x84\n      add\n        /* \"diamonds/facets/FacetToken.sol\":6354:6426  require(account != address(0), 'FacetToken: burn from the zero address') */\n      tag_186\n        /* \"#utility.yul\":11289:11691   */\n      jump\n        /* \"diamonds/facets/FacetToken.sol\":6354:6426  require(account != address(0), 'FacetToken: burn from the zero address') */\n    tag_281:\n        /* \"diamonds/facets/FacetToken.sol\":6436:6485  _beforeTokenTransfer(account, address(0), amount) */\n      tag_284\n        /* \"diamonds/facets/FacetToken.sol\":6457:6464  account */\n      dup3\n        /* \"diamonds/facets/FacetToken.sol\":6474:6475  0 */\n      0x00\n        /* \"diamonds/facets/FacetToken.sol\":6478:6484  amount */\n      dup4\n        /* \"diamonds/facets/FacetToken.sol\":6436:6456  _beforeTokenTransfer */\n      tag_242\n        /* \"diamonds/facets/FacetToken.sol\":6436:6485  _beforeTokenTransfer(account, address(0), amount) */\n      jump\t// in\n    tag_284:\n        /* \"diamonds/facets/FacetToken.sol\":6495:6514  uint accountBalance */\n      0x00\n        /* \"diamonds/facets/FacetToken.sol\":6517:6524  token() */\n      tag_285\n        /* \"diamonds/facets/FacetToken.sol\":6517:6522  token */\n      tag_103\n        /* \"diamonds/facets/FacetToken.sol\":6517:6524  token() */\n      jump\t// in\n    tag_285:\n      sub(shl(0xa0, 0x01), 0x01)\n        /* \"diamonds/facets/FacetToken.sol\":6517:6542  token().balances[account] */\n      dup5\n      and\n        /* \"diamonds/facets/FacetToken.sol\":6517:6533  token().balances */\n      0x00\n        /* \"diamonds/facets/FacetToken.sol\":6517:6542  token().balances[account] */\n      swap1\n      dup2\n      mstore\n      0x20\n      swap2\n      swap1\n      swap2\n      mstore\n      0x40\n      swap1\n      keccak256\n      sload\n      swap1\n      pop\n        /* \"diamonds/facets/FacetToken.sol\":6560:6584  accountBalance >= amount */\n      dup2\n      dup2\n      lt\n      iszero\n        /* \"diamonds/facets/FacetToken.sol\":6552:6628  require(accountBalance >= amount, 'FacetToken: burn amount exceeds balance') */\n      tag_286\n      jumpi\n      mload(0x40)\n      shl(0xe5, 0x461bcd)\n      dup2\n      mstore\n        /* \"#utility.yul\":11898:11900   */\n      0x20\n        /* \"diamonds/facets/FacetToken.sol\":6552:6628  require(accountBalance >= amount, 'FacetToken: burn amount exceeds balance') */\n      0x04\n      dup3\n      add\n        /* \"#utility.yul\":11880:11901   */\n      mstore\n        /* \"#utility.yul\":11937:11939   */\n      0x27\n        /* \"#utility.yul\":11917:11935   */\n      0x24\n      dup3\n      add\n        /* \"#utility.yul\":11910:11940   */\n      mstore\n        /* \"#utility.yul\":11976:12010   */\n      0x4661636574546f6b656e3a206275726e20616d6f756e74206578636565647320\n        /* \"#utility.yul\":11956:11974   */\n      0x44\n      dup3\n      add\n        /* \"#utility.yul\":11949:12011   */\n      mstore\n      shl(0xc8, 0x62616c616e6365)\n        /* \"#utility.yul\":12027:12045   */\n      0x64\n      dup3\n      add\n        /* \"#utility.yul\":12020:12057   */\n      mstore\n        /* \"#utility.yul\":12074:12093   */\n      0x84\n      add\n        /* \"diamonds/facets/FacetToken.sol\":6552:6628  require(accountBalance >= amount, 'FacetToken: burn amount exceeds balance') */\n      tag_186\n        /* \"#utility.yul\":11696:12099   */\n      jump\n        /* \"diamonds/facets/FacetToken.sol\":6552:6628  require(accountBalance >= amount, 'FacetToken: burn amount exceeds balance') */\n    tag_286:\n        /* \"diamonds/facets/FacetToken.sol\":6707:6713  amount */\n      dup2\n        /* \"diamonds/facets/FacetToken.sol\":6690:6704  accountBalance */\n      dup2\n        /* \"diamonds/facets/FacetToken.sol\":6690:6713  accountBalance - amount */\n      sub\n        /* \"diamonds/facets/FacetToken.sol\":6662:6669  token() */\n      tag_289\n        /* \"diamonds/facets/FacetToken.sol\":6662:6667  token */\n      tag_103\n        /* \"diamonds/facets/FacetToken.sol\":6662:6669  token() */\n      jump\t// in\n    tag_289:\n      sub(shl(0xa0, 0x01), 0x01)\n        /* \"diamonds/facets/FacetToken.sol\":6662:6687  token().balances[account] */\n      dup6\n      and\n        /* \"diamonds/facets/FacetToken.sol\":6662:6678  token().balances */\n      0x00\n        /* \"diamonds/facets/FacetToken.sol\":6662:6687  token().balances[account] */\n      swap1\n      dup2\n      mstore\n      0x20\n      swap2\n      swap1\n      swap2\n      mstore\n      0x40\n      swap1\n      keccak256\n        /* \"diamonds/facets/FacetToken.sol\":6662:6713  token().balances[account] = accountBalance - amount */\n      sstore\n        /* \"diamonds/facets/FacetToken.sol\":6750:6756  amount */\n      dup2\n        /* \"diamonds/facets/FacetToken.sol\":6727:6734  token() */\n      tag_290\n        /* \"diamonds/facets/FacetToken.sol\":6727:6732  token */\n      tag_103\n        /* \"diamonds/facets/FacetToken.sol\":6727:6734  token() */\n      jump\t// in\n    tag_290:\n        /* \"diamonds/facets/FacetToken.sol\":6727:6746  token().totalSupply */\n      0x08\n      add\n        /* \"diamonds/facets/FacetToken.sol\":6727:6756  token().totalSupply -= amount */\n      dup1\n      sload\n      swap2\n      swap1\n      swap2\n      sub\n      swap1\n      sstore\n        /* \"diamonds/facets/FacetToken.sol\":6781:6818  Transfer(account, address(0), amount) */\n      mload(0x40)\n        /* \"#utility.yul\":1445:1470   */\n      dup3\n      dup2\n      mstore\n      0x00\n      swap1\n      sub(shl(0xa0, 0x01), 0x01)\n        /* \"diamonds/facets/FacetToken.sol\":6781:6818  Transfer(account, address(0), amount) */\n      dup6\n      and\n      swap1\n      0xddf252ad1be2c89b69c2b068fc378daa952ba7f163c4a11628f55a4df523b3ef\n      swap1\n        /* \"#utility.yul\":1433:1435   */\n      0x20\n        /* \"#utility.yul\":1418:1436   */\n      add\n        /* \"diamonds/facets/FacetToken.sol\":6781:6818  Transfer(account, address(0), amount) */\n      tag_221\n        /* \"#utility.yul\":1299:1476   */\n      jump\n        /* \"diamonds/facets/FacetToken.sol\":6828:6876  _afterTokenTransfer(account, address(0), amount) */\n    tag_292:\n        /* \"diamonds/facets/FacetToken.sol\":6344:6883  {... */\n      pop\n        /* \"diamonds/facets/FacetToken.sol\":6282:6883  function _burn(address account, uint amount) internal virtual {... */\n      pop\n      pop\n      jump\t// out\n        /* \"diamonds/facets/FacetToken.sol\":7668:8109  function _beforeTokenTransfer(address from, address to, uint amount) internal virtual {... */\n    tag_242:\n      sub(shl(0xa0, 0x01), 0x01)\n        /* \"diamonds/facets/FacetToken.sol\":7768:7786  from == address(0) */\n      dup4\n      and\n        /* \"diamonds/facets/FacetToken.sol\":7764:8103  if (from == address(0)) {... */\n      tag_294\n      jumpi\n        /* \"diamonds/facets/FacetToken.sol\":7802:7828  _updateAccountSnapshot(to) */\n      tag_295\n        /* \"diamonds/facets/FacetToken.sol\":7825:7827  to */\n      dup3\n        /* \"diamonds/facets/FacetToken.sol\":7802:7824  _updateAccountSnapshot */\n      tag_296\n        /* \"diamonds/facets/FacetToken.sol\":7802:7828  _updateAccountSnapshot(to) */\n      jump\t// in\n    tag_295:\n        /* \"diamonds/facets/FacetToken.sol\":7842:7870  _updateTotalSupplySnapshot() */\n      tag_292\n        /* \"diamonds/facets/FacetToken.sol\":7842:7868  _updateTotalSupplySnapshot */\n      tag_298\n        /* \"diamonds/facets/FacetToken.sol\":7842:7870  _updateTotalSupplySnapshot() */\n      jump\t// in\n        /* \"diamonds/facets/FacetToken.sol\":7764:8103  if (from == address(0)) {... */\n    tag_294:\n      sub(shl(0xa0, 0x01), 0x01)\n        /* \"diamonds/facets/FacetToken.sol\":7891:7907  to == address(0) */\n      dup3\n      and\n        /* \"diamonds/facets/FacetToken.sol\":7887:8103  if (to == address(0)) {... */\n      tag_300\n      jumpi\n        /* \"diamonds/facets/FacetToken.sol\":7923:7951  _updateAccountSnapshot(from) */\n      tag_295\n        /* \"diamonds/facets/FacetToken.sol\":7946:7950  from */\n      dup4\n        /* \"diamonds/facets/FacetToken.sol\":7923:7945  _updateAccountSnapshot */\n      tag_296\n        /* \"diamonds/facets/FacetToken.sol\":7923:7951  _updateAccountSnapshot(from) */\n      jump\t// in\n        /* \"diamonds/facets/FacetToken.sol\":7887:8103  if (to == address(0)) {... */\n    tag_300:\n        /* \"diamonds/facets/FacetToken.sol\":8024:8052  _updateAccountSnapshot(from) */\n      tag_304\n        /* \"diamonds/facets/FacetToken.sol\":8047:8051  from */\n      dup4\n        /* \"diamonds/facets/FacetToken.sol\":8024:8046  _updateAccountSnapshot */\n      tag_296\n        /* \"diamonds/facets/FacetToken.sol\":8024:8052  _updateAccountSnapshot(from) */\n      jump\t// in\n    tag_304:\n        /* \"diamonds/facets/FacetToken.sol\":8066:8092  _updateAccountSnapshot(to) */\n      tag_292\n        /* \"diamonds/facets/FacetToken.sol\":8089:8091  to */\n      dup3\n        /* \"diamonds/facets/FacetToken.sol\":8066:8088  _updateAccountSnapshot */\n      tag_296\n        /* \"diamonds/facets/FacetToken.sol\":8066:8092  _updateAccountSnapshot(to) */\n      jump\t// in\n        /* \"imports/openzeppelin/utils/Arrays.sol\":714:1646  function findUpperBound(uint256[] storage array, uint256 element) internal view returns (uint256) {... */\n    tag_271:\n        /* \"imports/openzeppelin/utils/Arrays.sol\":826:838  array.length */\n      dup2\n      sload\n        /* \"imports/openzeppelin/utils/Arrays.sol\":803:810  uint256 */\n      0x00\n      swap1\n        /* \"imports/openzeppelin/utils/Arrays.sol\":826:843  array.length == 0 */\n      dup2\n      sub\n        /* \"imports/openzeppelin/utils/Arrays.sol\":822:878  if (array.length == 0) {... */\n      tag_308\n      jumpi\n      pop\n        /* \"imports/openzeppelin/utils/Arrays.sol\":866:867  0 */\n      0x00\n        /* \"imports/openzeppelin/utils/Arrays.sol\":859:867  return 0 */\n      jump(tag_110)\n        /* \"imports/openzeppelin/utils/Arrays.sol\":822:878  if (array.length == 0) {... */\n    tag_308:\n        /* \"imports/openzeppelin/utils/Arrays.sol\":928:940  array.length */\n      dup3\n      sload\n        /* \"imports/openzeppelin/utils/Arrays.sol\":888:899  uint256 low */\n      0x00\n      swap1\n        /* \"imports/openzeppelin/utils/Arrays.sol\":951:1385  while (low < high) {... */\n    tag_309:\n        /* \"imports/openzeppelin/utils/Arrays.sol\":964:968  high */\n      dup1\n        /* \"imports/openzeppelin/utils/Arrays.sol\":958:961  low */\n      dup3\n        /* \"imports/openzeppelin/utils/Arrays.sol\":958:968  low < high */\n      lt\n        /* \"imports/openzeppelin/utils/Arrays.sol\":951:1385  while (low < high) {... */\n      iszero\n      tag_310\n      jumpi\n        /* \"imports/openzeppelin/utils/Arrays.sol\":984:995  uint256 mid */\n      0x00\n        /* \"imports/openzeppelin/utils/Arrays.sol\":998:1021  Math.average(low, high) */\n      tag_311\n        /* \"imports/openzeppelin/utils/Arrays.sol\":1011:1014  low */\n      dup4\n        /* \"imports/openzeppelin/utils/Arrays.sol\":1016:1020  high */\n      dup4\n        /* \"imports/openzeppelin/utils/Arrays.sol\":998:1010  Math.average */\n      tag_312\n        /* \"imports/openzeppelin/utils/Arrays.sol\":998:1021  Math.average(low, high) */\n      jump\t// in\n    tag_311:\n        /* \"imports/openzeppelin/utils/Arrays.sol\":3479:3510  StorageSlot.Uint256Slot storage */\n      0x00\n        /* \"imports/openzeppelin/utils/Arrays.sol\":3849:3868  mstore(0, arr.slot) */\n      dup8\n      dup2\n      mstore\n        /* \"imports/openzeppelin/utils/Arrays.sol\":3906:3910  0x20 */\n      0x20\n        /* \"imports/openzeppelin/utils/Arrays.sol\":3893:3911  keccak256(0, 0x20) */\n      swap1\n      keccak256\n        /* \"imports/openzeppelin/utils/Arrays.sol\":984:1021  uint256 mid = Math.average(low, high) */\n      swap1\n      swap2\n      pop\n        /* \"imports/openzeppelin/utils/Arrays.sol\":1271:1278  element */\n      dup6\n      swap1\n        /* \"imports/openzeppelin/utils/Arrays.sol\":3889:3917  add(keccak256(0, 0x20), pos) */\n      dup3\n      add\n        /* \"imports/openzeppelin/utils/Arrays.sol\":1238:1268  unsafeAccess(array, mid).value */\n      sload\n        /* \"imports/openzeppelin/utils/Arrays.sol\":1238:1278  unsafeAccess(array, mid).value > element */\n      gt\n        /* \"imports/openzeppelin/utils/Arrays.sol\":1234:1375  if (unsafeAccess(array, mid).value > element) {... */\n      iszero\n      tag_315\n      jumpi\n        /* \"imports/openzeppelin/utils/Arrays.sol\":1305:1308  mid */\n      dup1\n        /* \"imports/openzeppelin/utils/Arrays.sol\":1298:1308  high = mid */\n      swap2\n      pop\n        /* \"imports/openzeppelin/utils/Arrays.sol\":1234:1375  if (unsafeAccess(array, mid).value > element) {... */\n      jump(tag_316)\n    tag_315:\n        /* \"imports/openzeppelin/utils/Arrays.sol\":1353:1360  mid + 1 */\n      tag_317\n        /* \"imports/openzeppelin/utils/Arrays.sol\":1353:1356  mid */\n      dup2\n        /* \"imports/openzeppelin/utils/Arrays.sol\":1359:1360  1 */\n      0x01\n        /* \"imports/openzeppelin/utils/Arrays.sol\":1353:1360  mid + 1 */\n      tag_144\n      jump\t// in\n    tag_317:\n        /* \"imports/openzeppelin/utils/Arrays.sol\":1347:1360  low = mid + 1 */\n      swap3\n      pop\n        /* \"imports/openzeppelin/utils/Arrays.sol\":1234:1375  if (unsafeAccess(array, mid).value > element) {... */\n    tag_316:\n        /* \"imports/openzeppelin/utils/Arrays.sol\":970:1385  {... */\n      pop\n        /* \"imports/openzeppelin/utils/Arrays.sol\":951:1385  while (low < high) {... */\n      jump(tag_309)\n    tag_310:\n        /* \"imports/openzeppelin/utils/Arrays.sol\":1508:1509  0 */\n      0x00\n        /* \"imports/openzeppelin/utils/Arrays.sol\":1502:1505  low */\n      dup3\n        /* \"imports/openzeppelin/utils/Arrays.sol\":1502:1509  low > 0 */\n      gt\n        /* \"imports/openzeppelin/utils/Arrays.sol\":1502:1558  low > 0 && unsafeAccess(array, low - 1).value == element */\n      dup1\n      iszero\n      tag_318\n      jumpi\n      pop\n        /* \"imports/openzeppelin/utils/Arrays.sol\":1551:1558  element */\n      dup4\n        /* \"imports/openzeppelin/utils/Arrays.sol\":1513:1541  unsafeAccess(array, low - 1) */\n      tag_319\n        /* \"imports/openzeppelin/utils/Arrays.sol\":1526:1531  array */\n      dup7\n        /* \"imports/openzeppelin/utils/Arrays.sol\":1533:1540  low - 1 */\n      tag_320\n        /* \"imports/openzeppelin/utils/Arrays.sol\":1539:1540  1 */\n      0x01\n        /* \"imports/openzeppelin/utils/Arrays.sol\":1533:1536  low */\n      dup7\n        /* \"imports/openzeppelin/utils/Arrays.sol\":1533:1540  low - 1 */\n      tag_321\n      jump\t// in\n    tag_320:\n        /* \"imports/openzeppelin/utils/Arrays.sol\":3479:3510  StorageSlot.Uint256Slot storage */\n      0x00\n        /* \"imports/openzeppelin/utils/Arrays.sol\":3849:3868  mstore(0, arr.slot) */\n      swap2\n      dup3\n      mstore\n        /* \"imports/openzeppelin/utils/Arrays.sol\":3906:3910  0x20 */\n      0x20\n        /* \"imports/openzeppelin/utils/Arrays.sol\":3893:3911  keccak256(0, 0x20) */\n      swap1\n      swap2\n      keccak256\n        /* \"imports/openzeppelin/utils/Arrays.sol\":3889:3917  add(keccak256(0, 0x20), pos) */\n      add\n      swap1\n        /* \"imports/openzeppelin/utils/Arrays.sol\":3398:3971  function unsafeAccess(uint256[] storage arr, uint256 pos) internal pure returns (StorageSlot.Uint256Slot storage) {... */\n      jump\n        /* \"imports/openzeppelin/utils/Arrays.sol\":1513:1541  unsafeAccess(array, low - 1) */\n    tag_319:\n        /* \"imports/openzeppelin/utils/Arrays.sol\":1513:1547  unsafeAccess(array, low - 1).value */\n      sload\n        /* \"imports/openzeppelin/utils/Arrays.sol\":1513:1558  unsafeAccess(array, low - 1).value == element */\n      eq\n        /* \"imports/openzeppelin/utils/Arrays.sol\":1502:1558  low > 0 && unsafeAccess(array, low - 1).value == element */\n    tag_318:\n        /* \"imports/openzeppelin/utils/Arrays.sol\":1498:1640  if (low > 0 && unsafeAccess(array, low - 1).value == element) {... */\n      iszero\n      tag_322\n      jumpi\n        /* \"imports/openzeppelin/utils/Arrays.sol\":1581:1588  low - 1 */\n      tag_323\n        /* \"imports/openzeppelin/utils/Arrays.sol\":1587:1588  1 */\n      0x01\n        /* \"imports/openzeppelin/utils/Arrays.sol\":1581:1584  low */\n      dup4\n        /* \"imports/openzeppelin/utils/Arrays.sol\":1581:1588  low - 1 */\n      tag_321\n      jump\t// in\n    tag_323:\n        /* \"imports/openzeppelin/utils/Arrays.sol\":1574:1588  return low - 1 */\n      swap3\n      pop\n      pop\n      pop\n      jump(tag_110)\n        /* \"imports/openzeppelin/utils/Arrays.sol\":1498:1640  if (low > 0 && unsafeAccess(array, low - 1).value == element) {... */\n    tag_322:\n      pop\n        /* \"imports/openzeppelin/utils/Arrays.sol\":1626:1629  low */\n      swap1\n      pop\n        /* \"imports/openzeppelin/utils/Arrays.sol\":1619:1629  return low */\n      jump(tag_110)\n        /* \"diamonds/facets/FacetToken.sol\":8678:8824  function _updateAccountSnapshot(address account) private {... */\n    tag_296:\n        /* \"diamonds/facets/FacetToken.sol\":8745:8817  _updateSnapshot(token().snapshotsOfBalance[account], balanceOf(account)) */\n      tag_147\n        /* \"diamonds/facets/FacetToken.sol\":8761:8768  token() */\n      tag_327\n        /* \"diamonds/facets/FacetToken.sol\":8761:8766  token */\n      tag_103\n        /* \"diamonds/facets/FacetToken.sol\":8761:8768  token() */\n      jump\t// in\n    tag_327:\n      sub(shl(0xa0, 0x01), 0x01)\n        /* \"diamonds/facets/FacetToken.sol\":8761:8796  token().snapshotsOfBalance[account] */\n      dup4\n      and\n      0x00\n      swap1\n      dup2\n      mstore\n        /* \"diamonds/facets/FacetToken.sol\":8761:8787  token().snapshotsOfBalance */\n      0x02\n      swap2\n      swap1\n      swap2\n      add\n        /* \"diamonds/facets/FacetToken.sol\":8761:8796  token().snapshotsOfBalance[account] */\n      0x20\n      mstore\n      0x40\n      swap1\n      keccak256\n        /* \"diamonds/facets/FacetToken.sol\":8798:8816  balanceOf(account) */\n      tag_328\n        /* \"diamonds/facets/FacetToken.sol\":8788:8795  account */\n      dup4\n        /* \"diamonds/facets/FacetToken.sol\":8798:8807  balanceOf */\n      tag_70\n        /* \"diamonds/facets/FacetToken.sol\":8798:8816  balanceOf(account) */\n      jump\t// in\n    tag_328:\n        /* \"diamonds/facets/FacetToken.sol\":8745:8760  _updateSnapshot */\n      tag_329\n        /* \"diamonds/facets/FacetToken.sol\":8745:8817  _updateSnapshot(token().snapshotsOfBalance[account], balanceOf(account)) */\n      jump\t// in\n        /* \"diamonds/facets/FacetToken.sol\":8830:8955  function _updateTotalSupplySnapshot() private {... */\n    tag_298:\n        /* \"diamonds/facets/FacetToken.sol\":8886:8948  _updateSnapshot(token().snapshotsOfTotalSupply, totalSupply()) */\n      tag_224\n        /* \"diamonds/facets/FacetToken.sol\":8902:8909  token() */\n      tag_332\n        /* \"diamonds/facets/FacetToken.sol\":8902:8907  token */\n      tag_103\n        /* \"diamonds/facets/FacetToken.sol\":8902:8909  token() */\n      jump\t// in\n    tag_332:\n        /* \"diamonds/facets/FacetToken.sol\":8902:8932  token().snapshotsOfTotalSupply */\n      0x03\n      add\n        /* \"diamonds/facets/FacetToken.sol\":8934:8947  totalSupply() */\n      tag_328\n        /* \"diamonds/facets/FacetToken.sol\":8934:8945  totalSupply */\n      tag_36\n        /* \"diamonds/facets/FacetToken.sol\":8934:8947  totalSupply() */\n      jump\t// in\n        /* \"imports/openzeppelin/utils/math/Math.sol\":2827:2980  function average(uint256 a, uint256 b) internal pure returns (uint256) {... */\n    tag_312:\n        /* \"imports/openzeppelin/utils/math/Math.sol\":2889:2896  uint256 */\n      0x00\n        /* \"imports/openzeppelin/utils/math/Math.sol\":2962:2973  (a ^ b) / 2 */\n      tag_335\n        /* \"imports/openzeppelin/utils/math/Math.sol\":2972:2973  2 */\n      0x02\n        /* \"imports/openzeppelin/utils/math/Math.sol\":2963:2968  a ^ b */\n      dup5\n      dup5\n      xor\n        /* \"imports/openzeppelin/utils/math/Math.sol\":2962:2973  (a ^ b) / 2 */\n      tag_336\n      jump\t// in\n    tag_335:\n        /* \"imports/openzeppelin/utils/math/Math.sol\":2952:2973  (a & b) + (a ^ b) / 2 */\n      tag_337\n      swap1\n        /* \"imports/openzeppelin/utils/math/Math.sol\":2953:2958  a & b */\n      dup5\n      dup5\n      and\n        /* \"imports/openzeppelin/utils/math/Math.sol\":2952:2973  (a & b) + (a ^ b) / 2 */\n      tag_144\n      jump\t// in\n    tag_337:\n        /* \"imports/openzeppelin/utils/math/Math.sol\":2945:2973  return (a & b) + (a ^ b) / 2 */\n      swap4\n        /* \"imports/openzeppelin/utils/math/Math.sol\":2827:2980  function average(uint256 a, uint256 b) internal pure returns (uint256) {... */\n      swap3\n      pop\n      pop\n      pop\n      jump\t// out\n        /* \"diamonds/facets/FacetToken.sol\":8961:9258  function _updateSnapshot(Snapshots storage snapshots, uint currentValue) private {... */\n    tag_329:\n        /* \"diamonds/facets/FacetToken.sol\":9052:9066  uint currentId */\n      0x00\n        /* \"diamonds/facets/FacetToken.sol\":9069:9091  getCurrentSnapshotId() */\n      tag_342\n        /* \"diamonds/facets/FacetToken.sol\":9069:9089  getCurrentSnapshotId */\n      tag_65\n        /* \"diamonds/facets/FacetToken.sol\":9069:9091  getCurrentSnapshotId() */\n      jump\t// in\n    tag_342:\n        /* \"diamonds/facets/FacetToken.sol\":9052:9091  uint currentId = getCurrentSnapshotId() */\n      swap1\n      pop\n      dup1\n        /* \"diamonds/facets/FacetToken.sol\":9105:9135  _lastSnapshotId(snapshots.ids) */\n      tag_343\n        /* \"diamonds/facets/FacetToken.sol\":9121:9130  snapshots */\n      dup5\n        /* \"diamonds/facets/FacetToken.sol\":9105:9120  _lastSnapshotId */\n      tag_344\n        /* \"diamonds/facets/FacetToken.sol\":9105:9135  _lastSnapshotId(snapshots.ids) */\n      jump\t// in\n    tag_343:\n        /* \"diamonds/facets/FacetToken.sol\":9105:9147  _lastSnapshotId(snapshots.ids) < currentId */\n      lt\n        /* \"diamonds/facets/FacetToken.sol\":9101:9252  if (_lastSnapshotId(snapshots.ids) < currentId) {... */\n      iszero\n      tag_292\n      jumpi\n        /* \"diamonds/facets/FacetToken.sol\":9163:9192  snapshots.ids.push(currentId) */\n      dup3\n      sload\n      0x01\n      dup1\n      dup3\n      add\n      dup6\n      sstore\n      0x00\n      dup6\n      dup2\n      mstore\n      0x20\n      dup1\n      dup3\n      keccak256\n      swap1\n      swap4\n      add\n      swap4\n      swap1\n      swap4\n      sstore\n        /* \"diamonds/facets/FacetToken.sol\":9206:9222  snapshots.values */\n      swap4\n      dup5\n      add\n        /* \"diamonds/facets/FacetToken.sol\":9206:9241  snapshots.values.push(currentValue) */\n      dup1\n      sload\n      swap5\n      dup6\n      add\n      dup2\n      sstore\n      dup3\n      mstore\n      swap1\n      keccak256\n      swap1\n      swap2\n      add\n      sstore\n        /* \"diamonds/facets/FacetToken.sol\":8961:9258  function _updateSnapshot(Snapshots storage snapshots, uint currentValue) private {... */\n      jump\t// out\n        /* \"diamonds/facets/FacetToken.sol\":9264:9464  function _lastSnapshotId(uint[] storage ids) private view returns (uint) {... */\n    tag_344:\n        /* \"diamonds/facets/FacetToken.sol\":9351:9361  ids.length */\n      dup1\n      sload\n        /* \"diamonds/facets/FacetToken.sol\":9331:9335  uint */\n      0x00\n      swap1\n        /* \"diamonds/facets/FacetToken.sol\":9351:9366  ids.length == 0 */\n      dup2\n      sub\n        /* \"diamonds/facets/FacetToken.sol\":9347:9458  if (ids.length == 0) {... */\n      tag_350\n      jumpi\n      pop\n        /* \"diamonds/facets/FacetToken.sol\":9389:9390  0 */\n      0x00\n      swap2\n        /* \"diamonds/facets/FacetToken.sol\":9264:9464  function _lastSnapshotId(uint[] storage ids) private view returns (uint) {... */\n      swap1\n      pop\n      jump\t// out\n        /* \"diamonds/facets/FacetToken.sol\":9347:9458  if (ids.length == 0) {... */\n    tag_350:\n        /* \"diamonds/facets/FacetToken.sol\":9432:9442  ids.length */\n      dup2\n      sload\n        /* \"diamonds/facets/FacetToken.sol\":9428:9431  ids */\n      dup3\n      swap1\n        /* \"diamonds/facets/FacetToken.sol\":9432:9446  ids.length - 1 */\n      tag_352\n      swap1\n        /* \"diamonds/facets/FacetToken.sol\":9445:9446  1 */\n      0x01\n      swap1\n        /* \"diamonds/facets/FacetToken.sol\":9432:9446  ids.length - 1 */\n      tag_321\n      jump\t// in\n    tag_352:\n        /* \"diamonds/facets/FacetToken.sol\":9428:9447  ids[ids.length - 1] */\n      dup2\n      sload\n      dup2\n      lt\n      tag_354\n      jumpi\n      tag_354\n      tag_276\n      jump\t// in\n    tag_354:\n      swap1\n      0x00\n      mstore\n      keccak256(0x00, 0x20)\n      add\n      sload\n        /* \"diamonds/facets/FacetToken.sol\":9421:9447  return ids[ids.length - 1] */\n      swap1\n      pop\n        /* \"diamonds/facets/FacetToken.sol\":9264:9464  function _lastSnapshotId(uint[] storage ids) private view returns (uint) {... */\n      swap2\n      swap1\n      pop\n      jump\t// out\n        /* \"diamonds/facets/FacetToken.sol\":9347:9458  if (ids.length == 0) {... */\n    tag_351:\n        /* \"diamonds/facets/FacetToken.sol\":9264:9464  function _lastSnapshotId(uint[] storage ids) private view returns (uint) {... */\n      swap2\n      swap1\n      pop\n      jump\t// out\n        /* \"#utility.yul\":14:264   */\n    tag_356:\n        /* \"#utility.yul\":99:100   */\n      0x00\n        /* \"#utility.yul\":109:222   */\n    tag_365:\n        /* \"#utility.yul\":123:129   */\n      dup4\n        /* \"#utility.yul\":120:121   */\n      dup2\n        /* \"#utility.yul\":117:130   */\n      lt\n        /* \"#utility.yul\":109:222   */\n      iszero\n      tag_367\n      jumpi\n        /* \"#utility.yul\":199:210   */\n      dup2\n      dup2\n      add\n        /* \"#utility.yul\":193:211   */\n      mload\n        /* \"#utility.yul\":180:191   */\n      dup4\n      dup3\n      add\n        /* \"#utility.yul\":173:212   */\n      mstore\n        /* \"#utility.yul\":145:147   */\n      0x20\n        /* \"#utility.yul\":138:148   */\n      add\n        /* \"#utility.yul\":109:222   */\n      jump(tag_365)\n    tag_367:\n      pop\n      pop\n        /* \"#utility.yul\":256:257   */\n      0x00\n        /* \"#utility.yul\":238:254   */\n      swap2\n      add\n        /* \"#utility.yul\":231:258   */\n      mstore\n        /* \"#utility.yul\":14:264   */\n      jump\t// out\n        /* \"#utility.yul\":269:665   */\n    tag_28:\n        /* \"#utility.yul\":418:420   */\n      0x20\n        /* \"#utility.yul\":407:416   */\n      dup2\n        /* \"#utility.yul\":400:421   */\n      mstore\n        /* \"#utility.yul\":381:385   */\n      0x00\n        /* \"#utility.yul\":450:456   */\n      dup3\n        /* \"#utility.yul\":444:457   */\n      mload\n        /* \"#utility.yul\":493:499   */\n      dup1\n        /* \"#utility.yul\":488:490   */\n      0x20\n        /* \"#utility.yul\":477:486   */\n      dup5\n        /* \"#utility.yul\":473:491   */\n      add\n        /* \"#utility.yul\":466:500   */\n      mstore\n        /* \"#utility.yul\":509:588   */\n      tag_369\n        /* \"#utility.yul\":581:587   */\n      dup2\n        /* \"#utility.yul\":576:578   */\n      0x40\n        /* \"#utility.yul\":565:574   */\n      dup6\n        /* \"#utility.yul\":561:579   */\n      add\n        /* \"#utility.yul\":556:558   */\n      0x20\n        /* \"#utility.yul\":548:554   */\n      dup8\n        /* \"#utility.yul\":544:559   */\n      add\n        /* \"#utility.yul\":509:588   */\n      tag_356\n      jump\t// in\n    tag_369:\n        /* \"#utility.yul\":649:651   */\n      0x1f\n        /* \"#utility.yul\":628:643   */\n      add\n      not(0x1f)\n        /* \"#utility.yul\":624:653   */\n      and\n        /* \"#utility.yul\":609:654   */\n      swap2\n      swap1\n      swap2\n      add\n        /* \"#utility.yul\":656:658   */\n      0x40\n        /* \"#utility.yul\":605:659   */\n      add\n      swap3\n        /* \"#utility.yul\":269:665   */\n      swap2\n      pop\n      pop\n      jump\t// out\n        /* \"#utility.yul\":670:843   */\n    tag_357:\n        /* \"#utility.yul\":738:758   */\n      dup1\n      calldataload\n      sub(shl(0xa0, 0x01), 0x01)\n        /* \"#utility.yul\":787:818   */\n      dup2\n      and\n        /* \"#utility.yul\":777:819   */\n      dup2\n      eq\n        /* \"#utility.yul\":767:837   */\n      tag_351\n      jumpi\n        /* \"#utility.yul\":833:834   */\n      0x00\n        /* \"#utility.yul\":830:831   */\n      dup1\n        /* \"#utility.yul\":823:835   */\n      revert\n        /* \"#utility.yul\":848:1102   */\n    tag_31:\n        /* \"#utility.yul\":916:922   */\n      0x00\n        /* \"#utility.yul\":924:930   */\n      dup1\n        /* \"#utility.yul\":977:979   */\n      0x40\n        /* \"#utility.yul\":965:974   */\n      dup4\n        /* \"#utility.yul\":956:963   */\n      dup6\n        /* \"#utility.yul\":952:975   */\n      sub\n        /* \"#utility.yul\":948:980   */\n      slt\n        /* \"#utility.yul\":945:997   */\n      iszero\n      tag_373\n      jumpi\n        /* \"#utility.yul\":993:994   */\n      0x00\n        /* \"#utility.yul\":990:991   */\n      dup1\n        /* \"#utility.yul\":983:995   */\n      revert\n        /* \"#utility.yul\":945:997   */\n    tag_373:\n        /* \"#utility.yul\":1016:1045   */\n      tag_374\n        /* \"#utility.yul\":1035:1044   */\n      dup4\n        /* \"#utility.yul\":1016:1045   */\n      tag_357\n      jump\t// in\n    tag_374:\n        /* \"#utility.yul\":1006:1045   */\n      swap5\n        /* \"#utility.yul\":1092:1094   */\n      0x20\n        /* \"#utility.yul\":1077:1095   */\n      swap4\n      swap1\n      swap4\n      add\n        /* \"#utility.yul\":1064:1096   */\n      calldataload\n      swap4\n      pop\n      pop\n      pop\n        /* \"#utility.yul\":848:1102   */\n      jump\t// out\n        /* \"#utility.yul\":1481:1608   */\n    tag_358:\n        /* \"#utility.yul\":1542:1552   */\n      0x4e487b71\n        /* \"#utility.yul\":1537:1540   */\n      0xe0\n        /* \"#utility.yul\":1533:1553   */\n      shl\n        /* \"#utility.yul\":1530:1531   */\n      0x00\n        /* \"#utility.yul\":1523:1554   */\n      mstore\n        /* \"#utility.yul\":1573:1577   */\n      0x41\n        /* \"#utility.yul\":1570:1571   */\n      0x04\n        /* \"#utility.yul\":1563:1578   */\n      mstore\n        /* \"#utility.yul\":1597:1601   */\n      0x24\n        /* \"#utility.yul\":1594:1595   */\n      0x00\n        /* \"#utility.yul\":1587:1602   */\n      revert\n        /* \"#utility.yul\":1613:2535   */\n    tag_41:\n        /* \"#utility.yul\":1682:1688   */\n      0x00\n        /* \"#utility.yul\":1735:1737   */\n      0x20\n        /* \"#utility.yul\":1723:1732   */\n      dup3\n        /* \"#utility.yul\":1714:1721   */\n      dup5\n        /* \"#utility.yul\":1710:1733   */\n      sub\n        /* \"#utility.yul\":1706:1738   */\n      slt\n        /* \"#utility.yul\":1703:1755   */\n      iszero\n      tag_379\n      jumpi\n        /* \"#utility.yul\":1751:1752   */\n      0x00\n        /* \"#utility.yul\":1748:1749   */\n      dup1\n        /* \"#utility.yul\":1741:1753   */\n      revert\n        /* \"#utility.yul\":1703:1755   */\n    tag_379:\n        /* \"#utility.yul\":1791:1800   */\n      dup2\n        /* \"#utility.yul\":1778:1801   */\n      calldataload\n        /* \"#utility.yul\":1820:1838   */\n      0xffffffffffffffff\n        /* \"#utility.yul\":1861:1863   */\n      dup1\n        /* \"#utility.yul\":1853:1859   */\n      dup3\n        /* \"#utility.yul\":1850:1864   */\n      gt\n        /* \"#utility.yul\":1847:1881   */\n      iszero\n      tag_380\n      jumpi\n        /* \"#utility.yul\":1877:1878   */\n      0x00\n        /* \"#utility.yul\":1874:1875   */\n      dup1\n        /* \"#utility.yul\":1867:1879   */\n      revert\n        /* \"#utility.yul\":1847:1881   */\n    tag_380:\n        /* \"#utility.yul\":1915:1921   */\n      dup2\n        /* \"#utility.yul\":1904:1913   */\n      dup5\n        /* \"#utility.yul\":1900:1922   */\n      add\n        /* \"#utility.yul\":1890:1922   */\n      swap2\n      pop\n        /* \"#utility.yul\":1960:1967   */\n      dup5\n        /* \"#utility.yul\":1953:1957   */\n      0x1f\n        /* \"#utility.yul\":1949:1951   */\n      dup4\n        /* \"#utility.yul\":1945:1958   */\n      add\n        /* \"#utility.yul\":1941:1968   */\n      slt\n        /* \"#utility.yul\":1931:1986   */\n      tag_381\n      jumpi\n        /* \"#utility.yul\":1982:1983   */\n      0x00\n        /* \"#utility.yul\":1979:1980   */\n      dup1\n        /* \"#utility.yul\":1972:1984   */\n      revert\n        /* \"#utility.yul\":1931:1986   */\n    tag_381:\n        /* \"#utility.yul\":2018:2020   */\n      dup2\n        /* \"#utility.yul\":2005:2021   */\n      calldataload\n        /* \"#utility.yul\":2040:2042   */\n      dup2\n        /* \"#utility.yul\":2036:2038   */\n      dup2\n        /* \"#utility.yul\":2033:2043   */\n      gt\n        /* \"#utility.yul\":2030:2066   */\n      iszero\n      tag_383\n      jumpi\n        /* \"#utility.yul\":2046:2064   */\n      tag_383\n      tag_358\n      jump\t// in\n    tag_383:\n        /* \"#utility.yul\":2121:2123   */\n      0x40\n        /* \"#utility.yul\":2115:2124   */\n      mload\n        /* \"#utility.yul\":2089:2091   */\n      0x1f\n        /* \"#utility.yul\":2175:2188   */\n      dup3\n      add\n      not(0x1f)\n        /* \"#utility.yul\":2171:2193   */\n      swap1\n      dup2\n      and\n        /* \"#utility.yul\":2195:2197   */\n      0x3f\n        /* \"#utility.yul\":2167:2198   */\n      add\n        /* \"#utility.yul\":2163:2203   */\n      and\n        /* \"#utility.yul\":2151:2204   */\n      dup2\n      add\n      swap1\n        /* \"#utility.yul\":2219:2237   */\n      dup4\n      dup3\n      gt\n        /* \"#utility.yul\":2239:2261   */\n      dup2\n      dup4\n      lt\n        /* \"#utility.yul\":2216:2262   */\n      or\n        /* \"#utility.yul\":2213:2285   */\n      iszero\n      tag_385\n      jumpi\n        /* \"#utility.yul\":2265:2283   */\n      tag_385\n      tag_358\n      jump\t// in\n    tag_385:\n        /* \"#utility.yul\":2305:2315   */\n      dup2\n        /* \"#utility.yul\":2301:2303   */\n      0x40\n        /* \"#utility.yul\":2294:2316   */\n      mstore\n        /* \"#utility.yul\":2340:2342   */\n      dup3\n        /* \"#utility.yul\":2332:2338   */\n      dup2\n        /* \"#utility.yul\":2325:2343   */\n      mstore\n        /* \"#utility.yul\":2380:2387   */\n      dup8\n        /* \"#utility.yul\":2375:2377   */\n      0x20\n        /* \"#utility.yul\":2370:2372   */\n      dup5\n        /* \"#utility.yul\":2366:2368   */\n      dup8\n        /* \"#utility.yul\":2362:2373   */\n      add\n        /* \"#utility.yul\":2358:2378   */\n      add\n        /* \"#utility.yul\":2355:2388   */\n      gt\n        /* \"#utility.yul\":2352:2405   */\n      iszero\n      tag_386\n      jumpi\n        /* \"#utility.yul\":2401:2402   */\n      0x00\n        /* \"#utility.yul\":2398:2399   */\n      dup1\n        /* \"#utility.yul\":2391:2403   */\n      revert\n        /* \"#utility.yul\":2352:2405   */\n    tag_386:\n        /* \"#utility.yul\":2457:2459   */\n      dup3\n        /* \"#utility.yul\":2452:2454   */\n      0x20\n        /* \"#utility.yul\":2448:2450   */\n      dup7\n        /* \"#utility.yul\":2444:2455   */\n      add\n        /* \"#utility.yul\":2439:2441   */\n      0x20\n        /* \"#utility.yul\":2431:2437   */\n      dup4\n        /* \"#utility.yul\":2427:2442   */\n      add\n        /* \"#utility.yul\":2414:2460   */\n      calldatacopy\n        /* \"#utility.yul\":2502:2503   */\n      0x00\n        /* \"#utility.yul\":2480:2495   */\n      swap3\n      dup2\n      add\n        /* \"#utility.yul\":2497:2499   */\n      0x20\n        /* \"#utility.yul\":2476:2500   */\n      add\n        /* \"#utility.yul\":2469:2504   */\n      swap3\n      swap1\n      swap3\n      mstore\n      pop\n        /* \"#utility.yul\":2484:2490   */\n      swap6\n        /* \"#utility.yul\":1613:2535   */\n      swap5\n      pop\n      pop\n      pop\n      pop\n      pop\n      jump\t// out\n        /* \"#utility.yul\":2540:2868   */\n    tag_45:\n        /* \"#utility.yul\":2617:2623   */\n      0x00\n        /* \"#utility.yul\":2625:2631   */\n      dup1\n        /* \"#utility.yul\":2633:2639   */\n      0x00\n        /* \"#utility.yul\":2686:2688   */\n      0x60\n        /* \"#utility.yul\":2674:2683   */\n      dup5\n        /* \"#utility.yul\":2665:2672   */\n      dup7\n        /* \"#utility.yul\":2661:2684   */\n      sub\n        /* \"#utility.yul\":2657:2689   */\n      slt\n        /* \"#utility.yul\":2654:2706   */\n      iszero\n      tag_388\n      jumpi\n        /* \"#utility.yul\":2702:2703   */\n      0x00\n        /* \"#utility.yul\":2699:2700   */\n      dup1\n        /* \"#utility.yul\":2692:2704   */\n      revert\n        /* \"#utility.yul\":2654:2706   */\n    tag_388:\n        /* \"#utility.yul\":2725:2754   */\n      tag_389\n        /* \"#utility.yul\":2744:2753   */\n      dup5\n        /* \"#utility.yul\":2725:2754   */\n      tag_357\n      jump\t// in\n    tag_389:\n        /* \"#utility.yul\":2715:2754   */\n      swap3\n      pop\n        /* \"#utility.yul\":2773:2811   */\n      tag_390\n        /* \"#utility.yul\":2807:2809   */\n      0x20\n        /* \"#utility.yul\":2796:2805   */\n      dup6\n        /* \"#utility.yul\":2792:2810   */\n      add\n        /* \"#utility.yul\":2773:2811   */\n      tag_357\n      jump\t// in\n    tag_390:\n        /* \"#utility.yul\":2763:2811   */\n      swap2\n      pop\n        /* \"#utility.yul\":2858:2860   */\n      0x40\n        /* \"#utility.yul\":2847:2856   */\n      dup5\n        /* \"#utility.yul\":2843:2861   */\n      add\n        /* \"#utility.yul\":2830:2862   */\n      calldataload\n        /* \"#utility.yul\":2820:2862   */\n      swap1\n      pop\n        /* \"#utility.yul\":2540:2868   */\n      swap3\n      pop\n      swap3\n      pop\n      swap3\n      jump\t// out\n        /* \"#utility.yul\":3062:3242   */\n    tag_58:\n        /* \"#utility.yul\":3121:3127   */\n      0x00\n        /* \"#utility.yul\":3174:3176   */\n      0x20\n        /* \"#utility.yul\":3162:3171   */\n      dup3\n        /* \"#utility.yul\":3153:3160   */\n      dup5\n        /* \"#utility.yul\":3149:3172   */\n      sub\n        /* \"#utility.yul\":3145:3177   */\n      slt\n        /* \"#utility.yul\":3142:3194   */\n      iszero\n      tag_393\n      jumpi\n        /* \"#utility.yul\":3190:3191   */\n      0x00\n        /* \"#utility.yul\":3187:3188   */\n      dup1\n        /* \"#utility.yul\":3180:3192   */\n      revert\n        /* \"#utility.yul\":3142:3194   */\n    tag_393:\n      pop\n        /* \"#utility.yul\":3213:3236   */\n      calldataload\n      swap2\n        /* \"#utility.yul\":3062:3242   */\n      swap1\n      pop\n      jump\t// out\n        /* \"#utility.yul\":3247:3433   */\n    tag_69:\n        /* \"#utility.yul\":3306:3312   */\n      0x00\n        /* \"#utility.yul\":3359:3361   */\n      0x20\n        /* \"#utility.yul\":3347:3356   */\n      dup3\n        /* \"#utility.yul\":3338:3345   */\n      dup5\n        /* \"#utility.yul\":3334:3357   */\n      sub\n        /* \"#utility.yul\":3330:3362   */\n      slt\n        /* \"#utility.yul\":3327:3379   */\n      iszero\n      tag_395\n      jumpi\n        /* \"#utility.yul\":3375:3376   */\n      0x00\n        /* \"#utility.yul\":3372:3373   */\n      dup1\n        /* \"#utility.yul\":3365:3377   */\n      revert\n        /* \"#utility.yul\":3327:3379   */\n    tag_395:\n        /* \"#utility.yul\":3398:3427   */\n      tag_337\n        /* \"#utility.yul\":3417:3426   */\n      dup3\n        /* \"#utility.yul\":3398:3427   */\n      tag_357\n      jump\t// in\n        /* \"#utility.yul\":3438:3698   */\n    tag_95:\n        /* \"#utility.yul\":3506:3512   */\n      0x00\n        /* \"#utility.yul\":3514:3520   */\n      dup1\n        /* \"#utility.yul\":3567:3569   */\n      0x40\n        /* \"#utility.yul\":3555:3564   */\n      dup4\n        /* \"#utility.yul\":3546:3553   */\n      dup6\n        /* \"#utility.yul\":3542:3565   */\n      sub\n        /* \"#utility.yul\":3538:3570   */\n      slt\n        /* \"#utility.yul\":3535:3587   */\n      iszero\n      tag_398\n      jumpi\n        /* \"#utility.yul\":3583:3584   */\n      0x00\n        /* \"#utility.yul\":3580:3581   */\n      dup1\n        /* \"#utility.yul\":3573:3585   */\n      revert\n        /* \"#utility.yul\":3535:3587   */\n    tag_398:\n        /* \"#utility.yul\":3606:3635   */\n      tag_399\n        /* \"#utility.yul\":3625:3634   */\n      dup4\n        /* \"#utility.yul\":3606:3635   */\n      tag_357\n      jump\t// in\n    tag_399:\n        /* \"#utility.yul\":3596:3635   */\n      swap2\n      pop\n        /* \"#utility.yul\":3654:3692   */\n      tag_400\n        /* \"#utility.yul\":3688:3690   */\n      0x20\n        /* \"#utility.yul\":3677:3686   */\n      dup5\n        /* \"#utility.yul\":3673:3691   */\n      add\n        /* \"#utility.yul\":3654:3692   */\n      tag_357\n      jump\t// in\n    tag_400:\n        /* \"#utility.yul\":3644:3692   */\n      swap1\n      pop\n        /* \"#utility.yul\":3438:3698   */\n      swap3\n      pop\n      swap3\n      swap1\n      pop\n      jump\t// out\n        /* \"#utility.yul\":3703:4083   */\n    tag_105:\n        /* \"#utility.yul\":3782:3783   */\n      0x01\n        /* \"#utility.yul\":3778:3790   */\n      dup2\n      dup2\n      shr\n      swap1\n        /* \"#utility.yul\":3825:3837   */\n      dup3\n      and\n      dup1\n        /* \"#utility.yul\":3846:3907   */\n      tag_402\n      jumpi\n        /* \"#utility.yul\":3900:3904   */\n      0x7f\n        /* \"#utility.yul\":3892:3898   */\n      dup3\n        /* \"#utility.yul\":3888:3905   */\n      and\n        /* \"#utility.yul\":3878:3905   */\n      swap2\n      pop\n        /* \"#utility.yul\":3846:3907   */\n    tag_402:\n        /* \"#utility.yul\":3953:3955   */\n      0x20\n        /* \"#utility.yul\":3945:3951   */\n      dup3\n        /* \"#utility.yul\":3942:3956   */\n      lt\n        /* \"#utility.yul\":3922:3940   */\n      dup2\n        /* \"#utility.yul\":3919:3957   */\n      sub\n        /* \"#utility.yul\":3916:4077   */\n      tag_403\n      jumpi\n        /* \"#utility.yul\":3999:4009   */\n      0x4e487b71\n        /* \"#utility.yul\":3994:3997   */\n      0xe0\n        /* \"#utility.yul\":3990:4010   */\n      shl\n        /* \"#utility.yul\":3987:3988   */\n      0x00\n        /* \"#utility.yul\":3980:4011   */\n      mstore\n        /* \"#utility.yul\":4034:4038   */\n      0x22\n        /* \"#utility.yul\":4031:4032   */\n      0x04\n        /* \"#utility.yul\":4024:4039   */\n      mstore\n        /* \"#utility.yul\":4062:4066   */\n      0x24\n        /* \"#utility.yul\":4059:4060   */\n      0x00\n        /* \"#utility.yul\":4052:4067   */\n      revert\n        /* \"#utility.yul\":3916:4077   */\n    tag_403:\n      pop\n        /* \"#utility.yul\":3703:4083   */\n      swap2\n      swap1\n      pop\n      jump\t// out\n        /* \"#utility.yul\":4214:4759   */\n    tag_360:\n        /* \"#utility.yul\":4316:4318   */\n      0x1f\n        /* \"#utility.yul\":4311:4314   */\n      dup3\n        /* \"#utility.yul\":4308:4319   */\n      gt\n        /* \"#utility.yul\":4305:4753   */\n      iszero\n      tag_292\n      jumpi\n        /* \"#utility.yul\":4352:4353   */\n      0x00\n        /* \"#utility.yul\":4377:4382   */\n      dup2\n        /* \"#utility.yul\":4373:4375   */\n      dup2\n        /* \"#utility.yul\":4366:4383   */\n      mstore\n        /* \"#utility.yul\":4422:4426   */\n      0x20\n        /* \"#utility.yul\":4418:4420   */\n      dup2\n        /* \"#utility.yul\":4408:4427   */\n      keccak256\n        /* \"#utility.yul\":4492:4494   */\n      0x1f\n        /* \"#utility.yul\":4480:4490   */\n      dup6\n        /* \"#utility.yul\":4476:4495   */\n      add\n        /* \"#utility.yul\":4473:4474   */\n      0x05\n        /* \"#utility.yul\":4469:4496   */\n      shr\n        /* \"#utility.yul\":4463:4467   */\n      dup2\n        /* \"#utility.yul\":4459:4497   */\n      add\n        /* \"#utility.yul\":4528:4532   */\n      0x20\n        /* \"#utility.yul\":4516:4526   */\n      dup7\n        /* \"#utility.yul\":4513:4533   */\n      lt\n        /* \"#utility.yul\":4510:4557   */\n      iszero\n      tag_407\n      jumpi\n      pop\n        /* \"#utility.yul\":4551:4555   */\n      dup1\n        /* \"#utility.yul\":4510:4557   */\n    tag_407:\n        /* \"#utility.yul\":4606:4608   */\n      0x1f\n        /* \"#utility.yul\":4601:4604   */\n      dup6\n        /* \"#utility.yul\":4597:4609   */\n      add\n        /* \"#utility.yul\":4594:4595   */\n      0x05\n        /* \"#utility.yul\":4590:4610   */\n      shr\n        /* \"#utility.yul\":4584:4588   */\n      dup3\n        /* \"#utility.yul\":4580:4611   */\n      add\n        /* \"#utility.yul\":4570:4611   */\n      swap2\n      pop\n        /* \"#utility.yul\":4661:4743   */\n    tag_408:\n        /* \"#utility.yul\":4679:4681   */\n      dup2\n        /* \"#utility.yul\":4672:4677   */\n      dup2\n        /* \"#utility.yul\":4669:4682   */\n      lt\n        /* \"#utility.yul\":4661:4743   */\n      iszero\n      tag_410\n      jumpi\n        /* \"#utility.yul\":4724:4741   */\n      dup3\n      dup2\n      sstore\n        /* \"#utility.yul\":4705:4706   */\n      0x01\n        /* \"#utility.yul\":4694:4707   */\n      add\n        /* \"#utility.yul\":4661:4743   */\n      jump(tag_408)\n    tag_410:\n        /* \"#utility.yul\":4665:4668   */\n      pop\n      pop\n      pop\n        /* \"#utility.yul\":4214:4759   */\n      pop\n      pop\n      pop\n      jump\t// out\n        /* \"#utility.yul\":4935:6287   */\n    tag_128:\n        /* \"#utility.yul\":5061:5064   */\n      dup2\n        /* \"#utility.yul\":5055:5065   */\n      mload\n        /* \"#utility.yul\":5088:5106   */\n      0xffffffffffffffff\n        /* \"#utility.yul\":5080:5086   */\n      dup2\n        /* \"#utility.yul\":5077:5107   */\n      gt\n        /* \"#utility.yul\":5074:5130   */\n      iszero\n      tag_414\n      jumpi\n        /* \"#utility.yul\":5110:5128   */\n      tag_414\n      tag_358\n      jump\t// in\n    tag_414:\n        /* \"#utility.yul\":5139:5236   */\n      tag_415\n        /* \"#utility.yul\":5229:5235   */\n      dup2\n        /* \"#utility.yul\":5189:5227   */\n      tag_416\n        /* \"#utility.yul\":5221:5225   */\n      dup5\n        /* \"#utility.yul\":5215:5226   */\n      sload\n        /* \"#utility.yul\":5189:5227   */\n      tag_105\n      jump\t// in\n    tag_416:\n        /* \"#utility.yul\":5183:5187   */\n      dup5\n        /* \"#utility.yul\":5139:5236   */\n      tag_360\n      jump\t// in\n    tag_415:\n        /* \"#utility.yul\":5291:5295   */\n      0x20\n      dup1\n        /* \"#utility.yul\":5355:5357   */\n      0x1f\n        /* \"#utility.yul\":5344:5358   */\n      dup4\n      gt\n        /* \"#utility.yul\":5372:5373   */\n      0x01\n        /* \"#utility.yul\":5367:6030   */\n      dup2\n      eq\n      tag_418\n      jumpi\n        /* \"#utility.yul\":6074:6075   */\n      0x00\n        /* \"#utility.yul\":6091:6097   */\n      dup5\n        /* \"#utility.yul\":6088:6177   */\n      iszero\n      tag_419\n      jumpi\n      pop\n        /* \"#utility.yul\":6143:6162   */\n      dup6\n      dup4\n      add\n        /* \"#utility.yul\":6137:6163   */\n      mload\n        /* \"#utility.yul\":6088:6177   */\n    tag_419:\n      not(0x00)\n        /* \"#utility.yul\":4892:4893   */\n      0x03\n        /* \"#utility.yul\":4888:4899   */\n      dup7\n      swap1\n      shl\n        /* \"#utility.yul\":4884:4908   */\n      shr\n        /* \"#utility.yul\":4880:4909   */\n      not\n        /* \"#utility.yul\":4870:4910   */\n      and\n        /* \"#utility.yul\":4916:4917   */\n      0x01\n        /* \"#utility.yul\":4912:4923   */\n      dup6\n      swap1\n      shl\n        /* \"#utility.yul\":4867:4924   */\n      or\n        /* \"#utility.yul\":6190:6271   */\n      dup6\n      sstore\n        /* \"#utility.yul\":5337:6281   */\n      jump(tag_410)\n        /* \"#utility.yul\":5367:6030   */\n    tag_418:\n        /* \"#utility.yul\":4161:4162   */\n      0x00\n        /* \"#utility.yul\":4154:4168   */\n      dup6\n      dup2\n      mstore\n        /* \"#utility.yul\":4198:4202   */\n      0x20\n        /* \"#utility.yul\":4185:4203   */\n      dup2\n      keccak256\n      not(0x1f)\n        /* \"#utility.yul\":5403:5423   */\n      dup7\n      and\n      swap2\n        /* \"#utility.yul\":5521:5757   */\n    tag_422:\n        /* \"#utility.yul\":5535:5542   */\n      dup3\n        /* \"#utility.yul\":5532:5533   */\n      dup2\n        /* \"#utility.yul\":5529:5543   */\n      lt\n        /* \"#utility.yul\":5521:5757   */\n      iszero\n      tag_424\n      jumpi\n        /* \"#utility.yul\":5624:5643   */\n      dup9\n      dup7\n      add\n        /* \"#utility.yul\":5618:5644   */\n      mload\n        /* \"#utility.yul\":5603:5645   */\n      dup3\n      sstore\n        /* \"#utility.yul\":5716:5743   */\n      swap5\n      dup5\n      add\n      swap5\n        /* \"#utility.yul\":5684:5685   */\n      0x01\n        /* \"#utility.yul\":5672:5686   */\n      swap1\n      swap2\n      add\n      swap1\n        /* \"#utility.yul\":5551:5570   */\n      dup5\n      add\n        /* \"#utility.yul\":5521:5757   */\n      jump(tag_422)\n    tag_424:\n        /* \"#utility.yul\":5525:5528   */\n      pop\n        /* \"#utility.yul\":5785:5791   */\n      dup6\n        /* \"#utility.yul\":5776:5783   */\n      dup3\n        /* \"#utility.yul\":5773:5792   */\n      lt\n        /* \"#utility.yul\":5770:5971   */\n      iszero\n      tag_425\n      jumpi\n        /* \"#utility.yul\":5846:5865   */\n      dup8\n      dup6\n      add\n        /* \"#utility.yul\":5840:5866   */\n      mload\n      not(0x00)\n        /* \"#utility.yul\":5929:5930   */\n      0x03\n        /* \"#utility.yul\":5925:5939   */\n      dup9\n      swap1\n      shl\n        /* \"#utility.yul\":5941:5944   */\n      0xf8\n        /* \"#utility.yul\":5921:5945   */\n      and\n        /* \"#utility.yul\":5917:5954   */\n      shr\n        /* \"#utility.yul\":5913:5955   */\n      not\n        /* \"#utility.yul\":5898:5956   */\n      and\n        /* \"#utility.yul\":5883:5957   */\n      dup2\n      sstore\n        /* \"#utility.yul\":5770:5971   */\n    tag_425:\n      pop\n      pop\n      pop\n      pop\n      pop\n        /* \"#utility.yul\":6017:6018   */\n      0x01\n        /* \"#utility.yul\":6001:6015   */\n      swap1\n      dup2\n      shl\n        /* \"#utility.yul\":5997:6019   */\n      add\n        /* \"#utility.yul\":5984:6020   */\n      swap1\n      sstore\n      pop\n        /* \"#utility.yul\":4935:6287   */\n      jump\t// out\n        /* \"#utility.yul\":6292:6581   */\n    tag_130:\n        /* \"#utility.yul\":6423:6426   */\n      0x00\n        /* \"#utility.yul\":6461:6467   */\n      dup3\n        /* \"#utility.yul\":6455:6468   */\n      mload\n        /* \"#utility.yul\":6477:6543   */\n      tag_427\n        /* \"#utility.yul\":6536:6542   */\n      dup2\n        /* \"#utility.yul\":6531:6534   */\n      dup5\n        /* \"#utility.yul\":6524:6528   */\n      0x20\n        /* \"#utility.yul\":6516:6522   */\n      dup8\n        /* \"#utility.yul\":6512:6529   */\n      add\n        /* \"#utility.yul\":6477:6543   */\n      tag_356\n      jump\t// in\n    tag_427:\n        /* \"#utility.yul\":6559:6575   */\n      swap2\n      swap1\n      swap2\n      add\n      swap3\n        /* \"#utility.yul\":6292:6581   */\n      swap2\n      pop\n      pop\n      jump\t// out\n        /* \"#utility.yul\":6586:6713   */\n    tag_362:\n        /* \"#utility.yul\":6647:6657   */\n      0x4e487b71\n        /* \"#utility.yul\":6642:6645   */\n      0xe0\n        /* \"#utility.yul\":6638:6658   */\n      shl\n        /* \"#utility.yul\":6635:6636   */\n      0x00\n        /* \"#utility.yul\":6628:6659   */\n      mstore\n        /* \"#utility.yul\":6678:6682   */\n      0x11\n        /* \"#utility.yul\":6675:6676   */\n      0x04\n        /* \"#utility.yul\":6668:6683   */\n      mstore\n        /* \"#utility.yul\":6702:6706   */\n      0x24\n        /* \"#utility.yul\":6699:6700   */\n      0x00\n        /* \"#utility.yul\":6692:6707   */\n      revert\n        /* \"#utility.yul\":6718:6843   */\n    tag_144:\n        /* \"#utility.yul\":6783:6792   */\n      dup1\n      dup3\n      add\n        /* \"#utility.yul\":6804:6814   */\n      dup1\n      dup3\n      gt\n        /* \"#utility.yul\":6801:6837   */\n      iszero\n      tag_110\n      jumpi\n        /* \"#utility.yul\":6817:6835   */\n      tag_110\n      tag_362\n      jump\t// in\n        /* \"#utility.yul\":11157:11284   */\n    tag_276:\n        /* \"#utility.yul\":11218:11228   */\n      0x4e487b71\n        /* \"#utility.yul\":11213:11216   */\n      0xe0\n        /* \"#utility.yul\":11209:11229   */\n      shl\n        /* \"#utility.yul\":11206:11207   */\n      0x00\n        /* \"#utility.yul\":11199:11230   */\n      mstore\n        /* \"#utility.yul\":11249:11253   */\n      0x32\n        /* \"#utility.yul\":11246:11247   */\n      0x04\n        /* \"#utility.yul\":11239:11254   */\n      mstore\n        /* \"#utility.yul\":11273:11277   */\n      0x24\n        /* \"#utility.yul\":11270:11271   */\n      0x00\n        /* \"#utility.yul\":11263:11278   */\n      revert\n        /* \"#utility.yul\":12104:12232   */\n    tag_321:\n        /* \"#utility.yul\":12171:12180   */\n      dup2\n      dup2\n      sub\n        /* \"#utility.yul\":12192:12203   */\n      dup2\n      dup2\n      gt\n        /* \"#utility.yul\":12189:12226   */\n      iszero\n      tag_110\n      jumpi\n        /* \"#utility.yul\":12206:12224   */\n      tag_110\n      tag_362\n      jump\t// in\n        /* \"#utility.yul\":12237:12454   */\n    tag_336:\n        /* \"#utility.yul\":12277:12278   */\n      0x00\n        /* \"#utility.yul\":12303:12304   */\n      dup3\n        /* \"#utility.yul\":12293:12425   */\n      tag_450\n      jumpi\n        /* \"#utility.yul\":12347:12357   */\n      0x4e487b71\n        /* \"#utility.yul\":12342:12345   */\n      0xe0\n        /* \"#utility.yul\":12338:12358   */\n      shl\n        /* \"#utility.yul\":12335:12336   */\n      0x00\n        /* \"#utility.yul\":12328:12359   */\n      mstore\n        /* \"#utility.yul\":12382:12386   */\n      0x12\n        /* \"#utility.yul\":12379:12380   */\n      0x04\n        /* \"#utility.yul\":12372:12387   */\n      mstore\n        /* \"#utility.yul\":12410:12414   */\n      0x24\n        /* \"#utility.yul\":12407:12408   */\n      0x00\n        /* \"#utility.yul\":12400:12415   */\n      revert\n        /* \"#utility.yul\":12293:12425   */\n    tag_450:\n      pop\n        /* \"#utility.yul\":12439:12448   */\n      div\n      swap1\n        /* \"#utility.yul\":12237:12454   */\n      jump\t// out\n\n    auxdata: 0xa2646970667358221220b14b2778c0d2c2125a37ccb1fcea266a39077357974af641c6d8fe074b4a968f64736f6c63430008130033\n}\n",
				"bytecode": {
					"linkReferences": {},
					"object": "608060405234801561001057600080fd5b5061156f806100206000396000f3fe608060405234801561001057600080fd5b50600436106101215760003560e01c80635439ad86116100ad578063a457c2d711610071578063a457c2d71461022b578063a9059cbb1461023e578063b74456f214610251578063dd62ed3e14610264578063e0089dc31461027757600080fd5b80635439ad86146101ed57806370a08231146101f557806395d89b41146102085780639711715a14610210578063981b24d01461021857600080fd5b806323b872dd116100f457806323b872dd14610192578063313ce567146101a557806339509351146101b457806349e7012c146101c75780634ee2cd7e146101da57600080fd5b806306fdde0314610126578063095ea7b31461014457806318160ddd146101675780631e96c1dd1461017d575b600080fd5b61012e61028a565b60405161013b9190611183565b60405180910390f35b6101576101523660046111cd565b610325565b604051901515815260200161013b565b61016f61033f565b60405190815260200161013b565b61019061018b36600461120d565b610352565b005b6101576101a03660046112be565b610462565b6040516012815260200161013b565b6101576101c23660046111cd565b610486565b6101906101d53660046112fa565b6104a8565b61016f6101e83660046111cd565b6104bd565b61016f610511565b61016f610203366004611313565b61052a565b61012e610553565b61016f61056b565b61016f6102263660046112fa565b6105ce565b6101576102393660046111cd565b610607565b61015761024c3660046111cd565b61068c565b61019061025f3660046112fa565b61069a565b61016f61027236600461132e565b6106ac565b61019061028536600461120d565b6106e6565b60606102946107f6565b60060180546102a290611361565b80601f01602080910402602001604051908101604052809291908181526020018280546102ce90611361565b801561031b5780601f106102f05761010080835404028352916020019161031b565b820191906000526020600020905b8154815290600101906020018083116102fe57829003601f168201915b5050505050905090565b60003361033381858561081a565b60019150505b92915050565b60006103496107f6565b60080154905090565b61035a61095a565b60006103646107f6565b600701805461037290611361565b80601f016020809104026020016040519081016040528092919081815260200182805461039e90611361565b80156103eb5780601f106103c0576101008083540402835291602001916103eb565b820191906000526020600020905b8154815290600101906020018083116103ce57829003601f168201915b50505050509050816103fb6107f6565b6007019061040990826113e9565b508160405161041891906114a9565b60405180910390208160405161042e91906114a9565b604051908190038120907f68023cab388c6052af3fa625f164cd0c14cc9125d57286fbe0d9b384847c4c0290600090a35050565b600033610470858285610997565b61047b858585610a1c565b506001949350505050565b60003361033381858561049983836106ac565b6104a391906114db565b61081a565b6104b061095a565b6104ba3382610c0c565b50565b60008060006104ef846104ce6107f6565b6001600160a01b038816600090815260029190910160205260409020610d03565b9150915081610506576105018561052a565b610508565b805b95945050505050565b600061052561051e6107f6565b6005015490565b905090565b60006105346107f6565b6001600160a01b03909216600090815260209290925250604090205490565b606061055d6107f6565b60070180546102a290611361565b60006105846105786107f6565b60050180546001019055565b600061058e610511565b90507f8030e83b04d87bef53480e26263266d6ca66863aa8506aca6f2559d18aa1cb67816040516105c191815260200190565b60405180910390a1919050565b60008060006105e7846105df6107f6565b600301610d03565b91509150816105fd576105f861033f565b6105ff565b805b949350505050565b6000338161061582866106ac565b90508381101561067f5760405162461bcd60e51b815260206004820152602a60248201527f4661636574546f6b656e3a2064656372656173656420616c6c6f77616e63652060448201526962656c6f77207a65726f60b01b60648201526084015b60405180910390fd5b61047b828686840361081a565b600033610333818585610a1c565b6106a261095a565b6104ba3382610df6565b60006106b66107f6565b6001600160a01b039384166000908152600191909101602090815260408083209490951682529290925250205490565b6106ee61095a565b60006106f86107f6565b600601805461070690611361565b80601f016020809104026020016040519081016040528092919081815260200182805461073290611361565b801561077f5780601f106107545761010080835404028352916020019161077f565b820191906000526020600020905b81548152906001019060200180831161076257829003601f168201915b505050505090508161078f6107f6565b6006019061079d90826113e9565b50816040516107ac91906114a9565b6040518091039020816040516107c291906114a9565b604051908190038120907fe08ba098c56583ff7ce264f98fb97b7ddc5e6af834acc0556b24327f72a555f990600090a35050565b7f667c0cf071c712f94f97f65a859cdaa470fe424825756c2cae5a4d1adcee538b90565b6001600160a01b0383166108825760405162461bcd60e51b815260206004820152602960248201527f4661636574546f6b656e3a20617070726f76652066726f6d20746865207a65726044820152686f206164647265737360b81b6064820152608401610676565b6001600160a01b0382166108e85760405162461bcd60e51b815260206004820152602760248201527f4661636574546f6b656e3a20617070726f766520746f20746865207a65726f206044820152666164647265737360c81b6064820152608401610676565b806108f16107f6565b6001600160a01b038581166000818152600193909301602090815260408085209388168086529382529384902094909455915184815290927f8c5be1e5ebec7d5bd14f71427d1e84f3dd0314c0f7b2291e5b200ac8c7c3b92591015b60405180910390a3505050565b3330146109955760405162461bcd60e51b815260206004820152600960248201526837b7363c9039b2b63360b91b6044820152606401610676565b565b60006109a384846106ac565b90506000198114610a165781811015610a095760405162461bcd60e51b815260206004820152602260248201527f4661636574546f6b656e3a20696e73756666696369656e7420616c6c6f77616e604482015261636560f01b6064820152608401610676565b610a16848484840361081a565b50505050565b6001600160a01b038316610a855760405162461bcd60e51b815260206004820152602a60248201527f4661636574546f6b656e3a207472616e736665722066726f6d20746865207a65604482015269726f206164647265737360b01b6064820152608401610676565b6001600160a01b038216610aec5760405162461bcd60e51b815260206004820152602860248201527f4661636574546f6b656e3a207472616e7366657220746f20746865207a65726f604482015267206164647265737360c01b6064820152608401610676565b610af7838383610f69565b6000610b016107f6565b6001600160a01b03851660009081526020919091526040902054905081811015610b815760405162461bcd60e51b815260206004820152602b60248201527f4661636574546f6b656e3a207472616e7366657220616d6f756e74206578636560448201526a6564732062616c616e636560a81b6064820152608401610676565b818103610b8c6107f6565b6001600160a01b0386166000908152602091909152604090205581610baf6107f6565b6001600160a01b03858116600081815260209384526040908190208054959095019094559251858152908716917fddf252ad1be2c89b69c2b068fc378daa952ba7f163c4a11628f55a4df523b3ef910160405180910390a3610a16565b6001600160a01b038216610c6e5760405162461bcd60e51b8152602060048201526024808201527f4661636574546f6b656e3a206d696e7420746f20746865207a65726f206164646044820152637265737360e01b6064820152608401610676565b610c7a60008383610f69565b80610c836107f6565b6008016000828254610c9591906114db565b90915550819050610ca46107f6565b6001600160a01b03841660008181526020929092526040808320805490940190935591517fddf252ad1be2c89b69c2b068fc378daa952ba7f163c4a11628f55a4df523b3ef90610cf79085815260200190565b60405180910390a35050565b60008060008411610d4c5760405162461bcd60e51b815260206004820152601360248201527204661636574546f6b656e3a206964206973203606c1b6044820152606401610676565b610d54610511565b841115610da35760405162461bcd60e51b815260206004820152601a60248201527f4661636574546f6b656e3a206e6f6e6578697374656e742069640000000000006044820152606401610676565b6000610daf8486610fb1565b84549091508103610dc7576000809250925050610def565b6001846001018281548110610dde57610dde6114ee565b906000526020600020015492509250505b9250929050565b6001600160a01b038216610e5b5760405162461bcd60e51b815260206004820152602660248201527f4661636574546f6b656e3a206275726e2066726f6d20746865207a65726f206160448201526564647265737360d01b6064820152608401610676565b610e6782600083610f69565b6000610e716107f6565b6001600160a01b03841660009081526020919091526040902054905081811015610eed5760405162461bcd60e51b815260206004820152602760248201527f4661636574546f6b656e3a206275726e20616d6f756e7420657863656564732060448201526662616c616e636560c81b6064820152608401610676565b818103610ef86107f6565b6001600160a01b0385166000908152602091909152604090205581610f1b6107f6565b60080180549190910390556040518281526000906001600160a01b038516907fddf252ad1be2c89b69c2b068fc378daa952ba7f163c4a11628f55a4df523b3ef9060200161094d565b505050565b6001600160a01b038316610f8857610f808261105e565b610f64611093565b6001600160a01b038216610f9f57610f808361105e565b610fa88361105e565b610f648261105e565b81546000908103610fc457506000610339565b82546000905b80821015611011576000610fde83836110a9565b60008781526020902090915085908201541115610ffd5780915061100b565b6110088160016114db565b92505b50610fca565b60008211801561103d57508361103a8661102c600186611504565b600091825260209091200190565b54145b156110565761104d600183611504565b92505050610339565b509050610339565b6104ba6110696107f6565b6001600160a01b03831660009081526002919091016020526040902061108e8361052a565b6110cb565b61099561109e6107f6565b60030161108e61033f565b60006110b86002848418611517565b6110c4908484166114db565b9392505050565b60006110d5610511565b9050806110e184611115565b1015610f64578254600180820185556000858152602080822090930193909355938401805494850181558252902090910155565b8054600090810361112857506000919050565b8154829061113890600190611504565b81548110611148576111486114ee565b90600052602060002001549050919050565b919050565b60005b8381101561117a578181015183820152602001611162565b50506000910152565b60208152600082518060208401526111a281604085016020870161115f565b601f01601f19169190910160400192915050565b80356001600160a01b038116811461115a57600080fd5b600080604083850312156111e057600080fd5b6111e9836111b6565b946020939093013593505050565b634e487b7160e01b600052604160045260246000fd5b60006020828403121561121f57600080fd5b813567ffffffffffffffff8082111561123757600080fd5b818401915084601f83011261124b57600080fd5b81358181111561125d5761125d6111f7565b604051601f8201601f19908116603f01168101908382118183101715611285576112856111f7565b8160405282815287602084870101111561129e57600080fd5b826020860160208301376000928101602001929092525095945050505050565b6000806000606084860312156112d357600080fd5b6112dc846111b6565b92506112ea602085016111b6565b9150604084013590509250925092565b60006020828403121561130c57600080fd5b5035919050565b60006020828403121561132557600080fd5b6110c4826111b6565b6000806040838503121561134157600080fd5b61134a836111b6565b9150611358602084016111b6565b90509250929050565b600181811c9082168061137557607f821691505b60208210810361139557634e487b7160e01b600052602260045260246000fd5b50919050565b601f821115610f6457600081815260208120601f850160051c810160208610156113c25750805b601f850160051c820191505b818110156113e1578281556001016113ce565b505050505050565b815167ffffffffffffffff811115611403576114036111f7565b611417816114118454611361565b8461139b565b602080601f83116001811461144c57600084156114345750858301515b600019600386901b1c1916600185901b1785556113e1565b600085815260208120601f198616915b8281101561147b5788860151825594840194600190910190840161145c565b50858210156114995787850151600019600388901b60f8161c191681555b5050505050600190811b01905550565b600082516114bb81846020870161115f565b9190910192915050565b634e487b7160e01b600052601160045260246000fd5b80820180821115610339576103396114c5565b634e487b7160e01b600052603260045260246000fd5b81810381811115610339576103396114c5565b60008261153457634e487b7160e01b600052601260045260246000fd5b50049056fea2646970667358221220b14b2778c0d2c2125a37ccb1fcea266a39077357974af641c6d8fe074b4a968f64736f6c63430008130033",
					"opcodes": "PUSH1 0x80 PUSH1 0x40 MSTORE CALLVALUE DUP1 ISZERO PUSH2 0x10 JUMPI PUSH1 0x0 DUP1 REVERT JUMPDEST POP PUSH2 0x156F DUP1 PUSH2 0x20 PUSH1 0x0 CODECOPY PUSH1 0x0 RETURN INVALID PUSH1 0x80 PUSH1 0x40 MSTORE CALLVALUE DUP1 ISZERO PUSH2 0x10 JUMPI PUSH1 0x0 DUP1 REVERT JUMPDEST POP PUSH1 0x4 CALLDATASIZE LT PUSH2 0x121 JUMPI PUSH1 0x0 CALLDATALOAD PUSH1 0xE0 SHR DUP1 PUSH4 0x5439AD86 GT PUSH2 0xAD JUMPI DUP1 PUSH4 0xA457C2D7 GT PUSH2 0x71 JUMPI DUP1 PUSH4 0xA457C2D7 EQ PUSH2 0x22B JUMPI DUP1 PUSH4 0xA9059CBB EQ PUSH2 0x23E JUMPI DUP1 PUSH4 0xB74456F2 EQ PUSH2 0x251 JUMPI DUP1 PUSH4 0xDD62ED3E EQ PUSH2 0x264 JUMPI DUP1 PUSH4 0xE0089DC3 EQ PUSH2 0x277 JUMPI PUSH1 0x0 DUP1 REVERT JUMPDEST DUP1 PUSH4 0x5439AD86 EQ PUSH2 0x1ED JUMPI DUP1 PUSH4 0x70A08231 EQ PUSH2 0x1F5 JUMPI DUP1 PUSH4 0x95D89B41 EQ PUSH2 0x208 JUMPI DUP1 PUSH4 0x9711715A EQ PUSH2 0x210 JUMPI DUP1 PUSH4 0x981B24D0 EQ PUSH2 0x218 JUMPI PUSH1 0x0 DUP1 REVERT JUMPDEST DUP1 PUSH4 0x23B872DD GT PUSH2 0xF4 JUMPI DUP1 PUSH4 0x23B872DD EQ PUSH2 0x192 JUMPI DUP1 PUSH4 0x313CE567 EQ PUSH2 0x1A5 JUMPI DUP1 PUSH4 0x39509351 EQ PUSH2 0x1B4 JUMPI DUP1 PUSH4 0x49E7012C EQ PUSH2 0x1C7 JUMPI DUP1 PUSH4 0x4EE2CD7E EQ PUSH2 0x1DA JUMPI PUSH1 0x0 DUP1 REVERT JUMPDEST DUP1 PUSH4 0x6FDDE03 EQ PUSH2 0x126 JUMPI DUP1 PUSH4 0x95EA7B3 EQ PUSH2 0x144 JUMPI DUP1 PUSH4 0x18160DDD EQ PUSH2 0x167 JUMPI DUP1 PUSH4 0x1E96C1DD EQ PUSH2 0x17D JUMPI JUMPDEST PUSH1 0x0 DUP1 REVERT JUMPDEST PUSH2 0x12E PUSH2 0x28A JUMP JUMPDEST PUSH1 0x40 MLOAD PUSH2 0x13B SWAP2 SWAP1 PUSH2 0x1183 JUMP JUMPDEST PUSH1 0x40 MLOAD DUP1 SWAP2 SUB SWAP1 RETURN JUMPDEST PUSH2 0x157 PUSH2 0x152 CALLDATASIZE PUSH1 0x4 PUSH2 0x11CD JUMP JUMPDEST PUSH2 0x325 JUMP JUMPDEST PUSH1 0x40 MLOAD SWAP1 ISZERO ISZERO DUP2 MSTORE PUSH1 0x20 ADD PUSH2 0x13B JUMP JUMPDEST PUSH2 0x16F PUSH2 0x33F JUMP JUMPDEST PUSH1 0x40 MLOAD SWAP1 DUP2 MSTORE PUSH1 0x20 ADD PUSH2 0x13B JUMP JUMPDEST PUSH2 0x190 PUSH2 0x18B CALLDATASIZE PUSH1 0x4 PUSH2 0x120D JUMP JUMPDEST PUSH2 0x352 JUMP JUMPDEST STOP JUMPDEST PUSH2 0x157 PUSH2 0x1A0 CALLDATASIZE PUSH1 0x4 PUSH2 0x12BE JUMP JUMPDEST PUSH2 0x462 JUMP JUMPDEST PUSH1 0x40 MLOAD PUSH1 0x12 DUP2 MSTORE PUSH1 0x20 ADD PUSH2 0x13B JUMP JUMPDEST PUSH2 0x157 PUSH2 0x1C2 CALLDATASIZE PUSH1 0x4 PUSH2 0x11CD JUMP JUMPDEST PUSH2 0x486 JUMP JUMPDEST PUSH2 0x190 PUSH2 0x1D5 CALLDATASIZE PUSH1 0x4 PUSH2 0x12FA JUMP JUMPDEST PUSH2 0x4A8 JUMP JUMPDEST PUSH2 0x16F PUSH2 0x1E8 CALLDATASIZE PUSH1 0x4 PUSH2 0x11CD JUMP JUMPDEST PUSH2 0x4BD JUMP JUMPDEST PUSH2 0x16F PUSH2 0x511 JUMP JUMPDEST PUSH2 0x16F PUSH2 0x203 CALLDATASIZE PUSH1 0x4 PUSH2 0x1313 JUMP JUMPDEST PUSH2 0x52A JUMP JUMPDEST PUSH2 0x12E PUSH2 0x553 JUMP JUMPDEST PUSH2 0x16F PUSH2 0x56B JUMP JUMPDEST PUSH2 0x16F PUSH2 0x226 CALLDATASIZE PUSH1 0x4 PUSH2 0x12FA JUMP JUMPDEST PUSH2 0x5CE JUMP JUMPDEST PUSH2 0x157 PUSH2 0x239 CALLDATASIZE PUSH1 0x4 PUSH2 0x11CD JUMP JUMPDEST PUSH2 0x607 JUMP JUMPDEST PUSH2 0x157 PUSH2 0x24C CALLDATASIZE PUSH1 0x4 PUSH2 0x11CD JUMP JUMPDEST PUSH2 0x68C JUMP JUMPDEST PUSH2 0x190 PUSH2 0x25F CALLDATASIZE PUSH1 0x4 PUSH2 0x12FA JUMP JUMPDEST PUSH2 0x69A JUMP JUMPDEST PUSH2 0x16F PUSH2 0x272 CALLDATASIZE PUSH1 0x4 PUSH2 0x132E JUMP JUMPDEST PUSH2 0x6AC JUMP JUMPDEST PUSH2 0x190 PUSH2 0x285 CALLDATASIZE PUSH1 0x4 PUSH2 0x120D JUMP JUMPDEST PUSH2 0x6E6 JUMP JUMPDEST PUSH1 0x60 PUSH2 0x294 PUSH2 0x7F6 JUMP JUMPDEST PUSH1 0x6 ADD DUP1 SLOAD PUSH2 0x2A2 SWAP1 PUSH2 0x1361 JUMP JUMPDEST DUP1 PUSH1 0x1F ADD PUSH1 0x20 DUP1 SWAP2 DIV MUL PUSH1 0x20 ADD PUSH1 0x40 MLOAD SWAP1 DUP2 ADD PUSH1 0x40 MSTORE DUP1 SWAP3 SWAP2 SWAP1 DUP2 DUP2 MSTORE PUSH1 0x20 ADD DUP3 DUP1 SLOAD PUSH2 0x2CE SWAP1 PUSH2 0x1361 JUMP JUMPDEST DUP1 ISZERO PUSH2 0x31B JUMPI DUP1 PUSH1 0x1F LT PUSH2 0x2F0 JUMPI PUSH2 0x100 DUP1 DUP4 SLOAD DIV MUL DUP4 MSTORE SWAP2 PUSH1 0x20 ADD SWAP2 PUSH2 0x31B JUMP JUMPDEST DUP3 ADD SWAP2 SWAP1 PUSH1 0x0 MSTORE PUSH1 0x20 PUSH1 0x0 KECCAK256 SWAP1 JUMPDEST DUP2 SLOAD DUP2 MSTORE SWAP1 PUSH1 0x1 ADD SWAP1 PUSH1 0x20 ADD DUP1 DUP4 GT PUSH2 0x2FE JUMPI DUP3 SWAP1 SUB PUSH1 0x1F AND DUP3 ADD SWAP2 JUMPDEST POP POP POP POP POP SWAP1 POP SWAP1 JUMP JUMPDEST PUSH1 0x0 CALLER PUSH2 0x333 DUP2 DUP6 DUP6 PUSH2 0x81A JUMP JUMPDEST PUSH1 0x1 SWAP2 POP POP JUMPDEST SWAP3 SWAP2 POP POP JUMP JUMPDEST PUSH1 0x0 PUSH2 0x349 PUSH2 0x7F6 JUMP JUMPDEST PUSH1 0x8 ADD SLOAD SWAP1 POP SWAP1 JUMP JUMPDEST PUSH2 0x35A PUSH2 0x95A JUMP JUMPDEST PUSH1 0x0 PUSH2 0x364 PUSH2 0x7F6 JUMP JUMPDEST PUSH1 0x7 ADD DUP1 SLOAD PUSH2 0x372 SWAP1 PUSH2 0x1361 JUMP JUMPDEST DUP1 PUSH1 0x1F ADD PUSH1 0x20 DUP1 SWAP2 DIV MUL PUSH1 0x20 ADD PUSH1 0x40 MLOAD SWAP1 DUP2 ADD PUSH1 0x40 MSTORE DUP1 SWAP3 SWAP2 SWAP1 DUP2 DUP2 MSTORE PUSH1 0x20 ADD DUP3 DUP1 SLOAD PUSH2 0x39E SWAP1 PUSH2 0x1361 JUMP JUMPDEST DUP1 ISZERO PUSH2 0x3EB JUMPI DUP1 PUSH1 0x1F LT PUSH2 0x3C0 JUMPI PUSH2 0x100 DUP1 DUP4 SLOAD DIV MUL DUP4 MSTORE SWAP2 PUSH1 0x20 ADD SWAP2 PUSH2 0x3EB JUMP JUMPDEST DUP3 ADD SWAP2 SWAP1 PUSH1 0x0 MSTORE PUSH1 0x20 PUSH1 0x0 KECCAK256 SWAP1 JUMPDEST DUP2 SLOAD DUP2 MSTORE SWAP1 PUSH1 0x1 ADD SWAP1 PUSH1 0x20 ADD DUP1 DUP4 GT PUSH2 0x3CE JUMPI DUP3 SWAP1 SUB PUSH1 0x1F AND DUP3 ADD SWAP2 JUMPDEST POP POP POP POP POP SWAP1 POP DUP2 PUSH2 0x3FB PUSH2 0x7F6 JUMP JUMPDEST PUSH1 0x7 ADD SWAP1 PUSH2 0x409 SWAP1 DUP3 PUSH2 0x13E9 JUMP JUMPDEST POP DUP2 PUSH1 0x40 MLOAD PUSH2 0x418 SWAP2 SWAP1 PUSH2 0x14A9 JUMP JUMPDEST PUSH1 0x40 MLOAD DUP1 SWAP2 SUB SWAP1 KECCAK256 DUP2 PUSH1 0x40 MLOAD PUSH2 0x42E SWAP2 SWAP1 PUSH2 0x14A9 JUMP JUMPDEST PUSH1 0x40 MLOAD SWAP1 DUP2 SWAP1 SUB DUP2 KECCAK256 SWAP1 PUSH32 0x68023CAB388C6052AF3FA625F164CD0C14CC9125D57286FBE0D9B384847C4C02 SWAP1 PUSH1 0x0 SWAP1 LOG3 POP POP JUMP JUMPDEST PUSH1 0x0 CALLER PUSH2 0x470 DUP6 DUP3 DUP6 PUSH2 0x997 JUMP JUMPDEST PUSH2 0x47B DUP6 DUP6 DUP6 PUSH2 0xA1C JUMP JUMPDEST POP PUSH1 0x1 SWAP5 SWAP4 POP POP POP POP JUMP JUMPDEST PUSH1 0x0 CALLER PUSH2 0x333 DUP2 DUP6 DUP6 PUSH2 0x499 DUP4 DUP4 PUSH2 0x6AC JUMP JUMPDEST PUSH2 0x4A3 SWAP2 SWAP1 PUSH2 0x14DB JUMP JUMPDEST PUSH2 0x81A JUMP JUMPDEST PUSH2 0x4B0 PUSH2 0x95A JUMP JUMPDEST PUSH2 0x4BA CALLER DUP3 PUSH2 0xC0C JUMP JUMPDEST POP JUMP JUMPDEST PUSH1 0x0 DUP1 PUSH1 0x0 PUSH2 0x4EF DUP5 PUSH2 0x4CE PUSH2 0x7F6 JUMP JUMPDEST PUSH1 0x1 PUSH1 0x1 PUSH1 0xA0 SHL SUB DUP9 AND PUSH1 0x0 SWAP1 DUP2 MSTORE PUSH1 0x2 SWAP2 SWAP1 SWAP2 ADD PUSH1 0x20 MSTORE PUSH1 0x40 SWAP1 KECCAK256 PUSH2 0xD03 JUMP JUMPDEST SWAP2 POP SWAP2 POP DUP2 PUSH2 0x506 JUMPI PUSH2 0x501 DUP6 PUSH2 0x52A JUMP JUMPDEST PUSH2 0x508 JUMP JUMPDEST DUP1 JUMPDEST SWAP6 SWAP5 POP POP POP POP POP JUMP JUMPDEST PUSH1 0x0 PUSH2 0x525 PUSH2 0x51E PUSH2 0x7F6 JUMP JUMPDEST PUSH1 0x5 ADD SLOAD SWAP1 JUMP JUMPDEST SWAP1 POP SWAP1 JUMP JUMPDEST PUSH1 0x0 PUSH2 0x534 PUSH2 0x7F6 JUMP JUMPDEST PUSH1 0x1 PUSH1 0x1 PUSH1 0xA0 SHL SUB SWAP1 SWAP3 AND PUSH1 0x0 SWAP1 DUP2 MSTORE PUSH1 0x20 SWAP3 SWAP1 SWAP3 MSTORE POP PUSH1 0x40 SWAP1 KECCAK256 SLOAD SWAP1 JUMP JUMPDEST PUSH1 0x60 PUSH2 0x55D PUSH2 0x7F6 JUMP JUMPDEST PUSH1 0x7 ADD DUP1 SLOAD PUSH2 0x2A2 SWAP1 PUSH2 0x1361 JUMP JUMPDEST PUSH1 0x0 PUSH2 0x584 PUSH2 0x578 PUSH2 0x7F6 JUMP JUMPDEST PUSH1 0x5 ADD DUP1 SLOAD PUSH1 0x1 ADD SWAP1 SSTORE JUMP JUMPDEST PUSH1 0x0 PUSH2 0x58E PUSH2 0x511 JUMP JUMPDEST SWAP1 POP PUSH32 0x8030E83B04D87BEF53480E26263266D6CA66863AA8506ACA6F2559D18AA1CB67 DUP2 PUSH1 0x40 MLOAD PUSH2 0x5C1 SWAP2 DUP2 MSTORE PUSH1 0x20 ADD SWAP1 JUMP JUMPDEST PUSH1 0x40 MLOAD DUP1 SWAP2 SUB SWAP1 LOG1 SWAP2 SWAP1 POP JUMP JUMPDEST PUSH1 0x0 DUP1 PUSH1 0x0 PUSH2 0x5E7 DUP5 PUSH2 0x5DF PUSH2 0x7F6 JUMP JUMPDEST PUSH1 0x3 ADD PUSH2 0xD03 JUMP JUMPDEST SWAP2 POP SWAP2 POP DUP2 PUSH2 0x5FD JUMPI PUSH2 0x5F8 PUSH2 0x33F JUMP JUMPDEST PUSH2 0x5FF JUMP JUMPDEST DUP1 JUMPDEST SWAP5 SWAP4 POP POP POP POP JUMP JUMPDEST PUSH1 0x0 CALLER DUP2 PUSH2 0x615 DUP3 DUP7 PUSH2 0x6AC JUMP JUMPDEST SWAP1 POP DUP4 DUP2 LT ISZERO PUSH2 0x67F JUMPI PUSH1 0x40 MLOAD PUSH3 0x461BCD PUSH1 0xE5 SHL DUP2 MSTORE PUSH1 0x20 PUSH1 0x4 DUP3 ADD MSTORE PUSH1 0x2A PUSH1 0x24 DUP3 ADD MSTORE PUSH32 0x4661636574546F6B656E3A2064656372656173656420616C6C6F77616E636520 PUSH1 0x44 DUP3 ADD MSTORE PUSH10 0x62656C6F77207A65726F PUSH1 0xB0 SHL PUSH1 0x64 DUP3 ADD MSTORE PUSH1 0x84 ADD JUMPDEST PUSH1 0x40 MLOAD DUP1 SWAP2 SUB SWAP1 REVERT JUMPDEST PUSH2 0x47B DUP3 DUP7 DUP7 DUP5 SUB PUSH2 0x81A JUMP JUMPDEST PUSH1 0x0 CALLER PUSH2 0x333 DUP2 DUP6 DUP6 PUSH2 0xA1C JUMP JUMPDEST PUSH2 0x6A2 PUSH2 0x95A JUMP JUMPDEST PUSH2 0x4BA CALLER DUP3 PUSH2 0xDF6 JUMP JUMPDEST PUSH1 0x0 PUSH2 0x6B6 PUSH2 0x7F6 JUMP JUMPDEST PUSH1 0x1 PUSH1 0x1 PUSH1 0xA0 SHL SUB SWAP4 DUP5 AND PUSH1 0x0 SWAP1 DUP2 MSTORE PUSH1 0x1 SWAP2 SWAP1 SWAP2 ADD PUSH1 0x20 SWAP1 DUP2 MSTORE PUSH1 0x40 DUP1 DUP4 KECCAK256 SWAP5 SWAP1 SWAP6 AND DUP3 MSTORE SWAP3 SWAP1 SWAP3 MSTORE POP KECCAK256 SLOAD SWAP1 JUMP JUMPDEST PUSH2 0x6EE PUSH2 0x95A JUMP JUMPDEST PUSH1 0x0 PUSH2 0x6F8 PUSH2 0x7F6 JUMP JUMPDEST PUSH1 0x6 ADD DUP1 SLOAD PUSH2 0x706 SWAP1 PUSH2 0x1361 JUMP JUMPDEST DUP1 PUSH1 0x1F ADD PUSH1 0x20 DUP1 SWAP2 DIV MUL PUSH1 0x20 ADD PUSH1 0x40 MLOAD SWAP1 DUP2 ADD PUSH1 0x40 MSTORE DUP1 SWAP3 SWAP2 SWAP1 DUP2 DUP2 MSTORE PUSH1 0x20 ADD DUP3 DUP1 SLOAD PUSH2 0x732 SWAP1 PUSH2 0x1361 JUMP JUMPDEST DUP1 ISZERO PUSH2 0x77F JUMPI DUP1 PUSH1 0x1F LT PUSH2 0x754 JUMPI PUSH2 0x100 DUP1 DUP4 SLOAD DIV MUL DUP4 MSTORE SWAP2 PUSH1 0x20 ADD SWAP2 PUSH2 0x77F JUMP JUMPDEST DUP3 ADD SWAP2 SWAP1 PUSH1 0x0 MSTORE PUSH1 0x20 PUSH1 0x0 KECCAK256 SWAP1 JUMPDEST DUP2 SLOAD DUP2 MSTORE SWAP1 PUSH1 0x1 ADD SWAP1 PUSH1 0x20 ADD DUP1 DUP4 GT PUSH2 0x762 JUMPI DUP3 SWAP1 SUB PUSH1 0x1F AND DUP3 ADD SWAP2 JUMPDEST POP POP POP POP POP SWAP1 POP DUP2 PUSH2 0x78F PUSH2 0x7F6 JUMP JUMPDEST PUSH1 0x6 ADD SWAP1 PUSH2 0x79D SWAP1 DUP3 PUSH2 0x13E9 JUMP JUMPDEST POP DUP2 PUSH1 0x40 MLOAD PUSH2 0x7AC SWAP2 SWAP1 PUSH2 0x14A9 JUMP JUMPDEST PUSH1 0x40 MLOAD DUP1 SWAP2 SUB SWAP1 KECCAK256 DUP2 PUSH1 0x40 MLOAD PUSH2 0x7C2 SWAP2 SWAP1 PUSH2 0x14A9 JUMP JUMPDEST PUSH1 0x40 MLOAD SWAP1 DUP2 SWAP1 SUB DUP2 KECCAK256 SWAP1 PUSH32 0xE08BA098C56583FF7CE264F98FB97B7DDC5E6AF834ACC0556B24327F72A555F9 SWAP1 PUSH1 0x0 SWAP1 LOG3 POP POP JUMP JUMPDEST PUSH32 0x667C0CF071C712F94F97F65A859CDAA470FE424825756C2CAE5A4D1ADCEE538B SWAP1 JUMP JUMPDEST PUSH1 0x1 PUSH1 0x1 PUSH1 0xA0 SHL SUB DUP4 AND PUSH2 0x882 JUMPI PUSH1 0x40 MLOAD PUSH3 0x461BCD PUSH1 0xE5 SHL DUP2 MSTORE PUSH1 0x20 PUSH1 0x4 DUP3 ADD MSTORE PUSH1 0x29 PUSH1 0x24 DUP3 ADD MSTORE PUSH32 0x4661636574546F6B656E3A20617070726F76652066726F6D20746865207A6572 PUSH1 0x44 DUP3 ADD MSTORE PUSH9 0x6F2061646472657373 PUSH1 0xB8 SHL PUSH1 0x64 DUP3 ADD MSTORE PUSH1 0x84 ADD PUSH2 0x676 JUMP JUMPDEST PUSH1 0x1 PUSH1 0x1 PUSH1 0xA0 SHL SUB DUP3 AND PUSH2 0x8E8 JUMPI PUSH1 0x40 MLOAD PUSH3 0x461BCD PUSH1 0xE5 SHL DUP2 MSTORE PUSH1 0x20 PUSH1 0x4 DUP3 ADD MSTORE PUSH1 0x27 PUSH1 0x24 DUP3 ADD MSTORE PUSH32 0x4661636574546F6B656E3A20617070726F766520746F20746865207A65726F20 PUSH1 0x44 DUP3 ADD MSTORE PUSH7 0x61646472657373 PUSH1 0xC8 SHL PUSH1 0x64 DUP3 ADD MSTORE PUSH1 0x84 ADD PUSH2 0x676 JUMP JUMPDEST DUP1 PUSH2 0x8F1 PUSH2 0x7F6 JUMP JUMPDEST PUSH1 0x1 PUSH1 0x1 PUSH1 0xA0 SHL SUB DUP6 DUP2 AND PUSH1 0x0 DUP2 DUP2 MSTORE PUSH1 0x1 SWAP4 SWAP1 SWAP4 ADD PUSH1 0x20 SWAP1 DUP2 MSTORE PUSH1 0x40 DUP1 DUP6 KECCAK256 SWAP4 DUP9 AND DUP1 DUP7 MSTORE SWAP4 DUP3 MSTORE SWAP4 DUP5 SWAP1 KECCAK256 SWAP5 SWAP1 SWAP5 SSTORE SWAP2 MLOAD DUP5 DUP2 MSTORE SWAP1 SWAP3 PUSH32 0x8C5BE1E5EBEC7D5BD14F71427D1E84F3DD0314C0F7B2291E5B200AC8C7C3B925 SWAP2 ADD JUMPDEST PUSH1 0x40 MLOAD DUP1 SWAP2 SUB SWAP1 LOG3 POP POP POP JUMP JUMPDEST CALLER ADDRESS EQ PUSH2 0x995 JUMPI PUSH1 0x40 MLOAD PUSH3 0x461BCD PUSH1 0xE5 SHL DUP2 MSTORE PUSH1 0x20 PUSH1 0x4 DUP3 ADD MSTORE PUSH1 0x9 PUSH1 0x24 DUP3 ADD MSTORE PUSH9 0x37B7363C9039B2B633 PUSH1 0xB9 SHL PUSH1 0x44 DUP3 ADD MSTORE PUSH1 0x64 ADD PUSH2 0x676 JUMP JUMPDEST JUMP JUMPDEST PUSH1 0x0 PUSH2 0x9A3 DUP5 DUP5 PUSH2 0x6AC JUMP JUMPDEST SWAP1 POP PUSH1 0x0 NOT DUP2 EQ PUSH2 0xA16 JUMPI DUP2 DUP2 LT ISZERO PUSH2 0xA09 JUMPI PUSH1 0x40 MLOAD PUSH3 0x461BCD PUSH1 0xE5 SHL DUP2 MSTORE PUSH1 0x20 PUSH1 0x4 DUP3 ADD MSTORE PUSH1 0x22 PUSH1 0x24 DUP3 ADD MSTORE PUSH32 0x4661636574546F6B656E3A20696E73756666696369656E7420616C6C6F77616E PUSH1 0x44 DUP3 ADD MSTORE PUSH2 0x6365 PUSH1 0xF0 SHL PUSH1 0x64 DUP3 ADD MSTORE PUSH1 0x84 ADD PUSH2 0x676 JUMP JUMPDEST PUSH2 0xA16 DUP5 DUP5 DUP5 DUP5 SUB PUSH2 0x81A JUMP JUMPDEST POP POP POP POP JUMP JUMPDEST PUSH1 0x1 PUSH1 0x1 PUSH1 0xA0 SHL SUB DUP4 AND PUSH2 0xA85 JUMPI PUSH1 0x40 MLOAD PUSH3 0x461BCD PUSH1 0xE5 SHL DUP2 MSTORE PUSH1 0x20 PUSH1 0x4 DUP3 ADD MSTORE PUSH1 0x2A PUSH1 0x24 DUP3 ADD MSTORE PUSH32 0x4661636574546F6B656E3A207472616E736665722066726F6D20746865207A65 PUSH1 0x44 DUP3 ADD MSTORE PUSH10 0x726F2061646472657373 PUSH1 0xB0 SHL PUSH1 0x64 DUP3 ADD MSTORE PUSH1 0x84 ADD PUSH2 0x676 JUMP JUMPDEST PUSH1 0x1 PUSH1 0x1 PUSH1 0xA0 SHL SUB DUP3 AND PUSH2 0xAEC JUMPI PUSH1 0x40 MLOAD PUSH3 0x461BCD PUSH1 0xE5 SHL DUP2 MSTORE PUSH1 0x20 PUSH1 0x4 DUP3 ADD MSTORE PUSH1 0x28 PUSH1 0x24 DUP3 ADD MSTORE PUSH32 0x4661636574546F6B656E3A207472616E7366657220746F20746865207A65726F PUSH1 0x44 DUP3 ADD MSTORE PUSH8 0x2061646472657373 PUSH1 0xC0 SHL PUSH1 0x64 DUP3 ADD MSTORE PUSH1 0x84 ADD PUSH2 0x676 JUMP JUMPDEST PUSH2 0xAF7 DUP4 DUP4 DUP4 PUSH2 0xF69 JUMP JUMPDEST PUSH1 0x0 PUSH2 0xB01 PUSH2 0x7F6 JUMP JUMPDEST PUSH1 0x1 PUSH1 0x1 PUSH1 0xA0 SHL SUB DUP6 AND PUSH1 0x0 SWAP1 DUP2 MSTORE PUSH1 0x20 SWAP2 SWAP1 SWAP2 MSTORE PUSH1 0x40 SWAP1 KECCAK256 SLOAD SWAP1 POP DUP2 DUP2 LT ISZERO PUSH2 0xB81 JUMPI PUSH1 0x40 MLOAD PUSH3 0x461BCD PUSH1 0xE5 SHL DUP2 MSTORE PUSH1 0x20 PUSH1 0x4 DUP3 ADD MSTORE PUSH1 0x2B PUSH1 0x24 DUP3 ADD MSTORE PUSH32 0x4661636574546F6B656E3A207472616E7366657220616D6F756E742065786365 PUSH1 0x44 DUP3 ADD MSTORE PUSH11 0x6564732062616C616E6365 PUSH1 0xA8 SHL PUSH1 0x64 DUP3 ADD MSTORE PUSH1 0x84 ADD PUSH2 0x676 JUMP JUMPDEST DUP2 DUP2 SUB PUSH2 0xB8C PUSH2 0x7F6 JUMP JUMPDEST PUSH1 0x1 PUSH1 0x1 PUSH1 0xA0 SHL SUB DUP7 AND PUSH1 0x0 SWAP1 DUP2 MSTORE PUSH1 0x20 SWAP2 SWAP1 SWAP2 MSTORE PUSH1 0x40 SWAP1 KECCAK256 SSTORE DUP2 PUSH2 0xBAF PUSH2 0x7F6 JUMP JUMPDEST PUSH1 0x1 PUSH1 0x1 PUSH1 0xA0 SHL SUB DUP6 DUP2 AND PUSH1 0x0 DUP2 DUP2 MSTORE PUSH1 0x20 SWAP4 DUP5 MSTORE PUSH1 0x40 SWAP1 DUP2 SWAP1 KECCAK256 DUP1 SLOAD SWAP6 SWAP1 SWAP6 ADD SWAP1 SWAP5 SSTORE SWAP3 MLOAD DUP6 DUP2 MSTORE SWAP1 DUP8 AND SWAP2 PUSH32 0xDDF252AD1BE2C89B69C2B068FC378DAA952BA7F163C4A11628F55A4DF523B3EF SWAP2 ADD PUSH1 0x40 MLOAD DUP1 SWAP2 SUB SWAP1 LOG3 PUSH2 0xA16 JUMP JUMPDEST PUSH1 0x1 PUSH1 0x1 PUSH1 0xA0 SHL SUB DUP3 AND PUSH2 0xC6E JUMPI PUSH1 0x40 MLOAD PUSH3 0x461BCD PUSH1 0xE5 SHL DUP2 MSTORE PUSH1 0x20 PUSH1 0x4 DUP3 ADD MSTORE PUSH1 0x24 DUP1 DUP3 ADD MSTORE PUSH32 0x4661636574546F6B656E3A206D696E7420746F20746865207A65726F20616464 PUSH1 0x44 DUP3 ADD MSTORE PUSH4 0x72657373 PUSH1 0xE0 SHL PUSH1 0x64 DUP3 ADD MSTORE PUSH1 0x84 ADD PUSH2 0x676 JUMP JUMPDEST PUSH2 0xC7A PUSH1 0x0 DUP4 DUP4 PUSH2 0xF69 JUMP JUMPDEST DUP1 PUSH2 0xC83 PUSH2 0x7F6 JUMP JUMPDEST PUSH1 0x8 ADD PUSH1 0x0 DUP3 DUP3 SLOAD PUSH2 0xC95 SWAP2 SWAP1 PUSH2 0x14DB JUMP JUMPDEST SWAP1 SWAP2 SSTORE POP DUP2 SWAP1 POP PUSH2 0xCA4 PUSH2 0x7F6 JUMP JUMPDEST PUSH1 0x1 PUSH1 0x1 PUSH1 0xA0 SHL SUB DUP5 AND PUSH1 0x0 DUP2 DUP2 MSTORE PUSH1 0x20 SWAP3 SWAP1 SWAP3 MSTORE PUSH1 0x40 DUP1 DUP4 KECCAK256 DUP1 SLOAD SWAP1 SWAP5 ADD SWAP1 SWAP4 SSTORE SWAP2 MLOAD PUSH32 0xDDF252AD1BE2C89B69C2B068FC378DAA952BA7F163C4A11628F55A4DF523B3EF SWAP1 PUSH2 0xCF7 SWAP1 DUP6 DUP2 MSTORE PUSH1 0x20 ADD SWAP1 JUMP JUMPDEST PUSH1 0x40 MLOAD DUP1 SWAP2 SUB SWAP1 LOG3 POP POP JUMP JUMPDEST PUSH1 0x0 DUP1 PUSH1 0x0 DUP5 GT PUSH2 0xD4C JUMPI PUSH1 0x40 MLOAD PUSH3 0x461BCD PUSH1 0xE5 SHL DUP2 MSTORE PUSH1 0x20 PUSH1 0x4 DUP3 ADD MSTORE PUSH1 0x13 PUSH1 0x24 DUP3 ADD MSTORE PUSH19 0x4661636574546F6B656E3A206964206973203 PUSH1 0x6C SHL PUSH1 0x44 DUP3 ADD MSTORE PUSH1 0x64 ADD PUSH2 0x676 JUMP JUMPDEST PUSH2 0xD54 PUSH2 0x511 JUMP JUMPDEST DUP5 GT ISZERO PUSH2 0xDA3 JUMPI PUSH1 0x40 MLOAD PUSH3 0x461BCD PUSH1 0xE5 SHL DUP2 MSTORE PUSH1 0x20 PUSH1 0x4 DUP3 ADD MSTORE PUSH1 0x1A PUSH1 0x24 DUP3 ADD MSTORE PUSH32 0x4661636574546F6B656E3A206E6F6E6578697374656E74206964000000000000 PUSH1 0x44 DUP3 ADD MSTORE PUSH1 0x64 ADD PUSH2 0x676 JUMP JUMPDEST PUSH1 0x0 PUSH2 0xDAF DUP5 DUP7 PUSH2 0xFB1 JUMP JUMPDEST DUP5 SLOAD SWAP1 SWAP2 POP DUP2 SUB PUSH2 0xDC7 JUMPI PUSH1 0x0 DUP1 SWAP3 POP SWAP3 POP POP PUSH2 0xDEF JUMP JUMPDEST PUSH1 0x1 DUP5 PUSH1 0x1 ADD DUP3 DUP2 SLOAD DUP2 LT PUSH2 0xDDE JUMPI PUSH2 0xDDE PUSH2 0x14EE JUMP JUMPDEST SWAP1 PUSH1 0x0 MSTORE PUSH1 0x20 PUSH1 0x0 KECCAK256 ADD SLOAD SWAP3 POP SWAP3 POP POP JUMPDEST SWAP3 POP SWAP3 SWAP1 POP JUMP JUMPDEST PUSH1 0x1 PUSH1 0x1 PUSH1 0xA0 SHL SUB DUP3 AND PUSH2 0xE5B JUMPI PUSH1 0x40 MLOAD PUSH3 0x461BCD PUSH1 0xE5 SHL DUP2 MSTORE PUSH1 0x20 PUSH1 0x4 DUP3 ADD MSTORE PUSH1 0x26 PUSH1 0x24 DUP3 ADD MSTORE PUSH32 0x4661636574546F6B656E3A206275726E2066726F6D20746865207A65726F2061 PUSH1 0x44 DUP3 ADD MSTORE PUSH6 0x646472657373 PUSH1 0xD0 SHL PUSH1 0x64 DUP3 ADD MSTORE PUSH1 0x84 ADD PUSH2 0x676 JUMP JUMPDEST PUSH2 0xE67 DUP3 PUSH1 0x0 DUP4 PUSH2 0xF69 JUMP JUMPDEST PUSH1 0x0 PUSH2 0xE71 PUSH2 0x7F6 JUMP JUMPDEST PUSH1 0x1 PUSH1 0x1 PUSH1 0xA0 SHL SUB DUP5 AND PUSH1 0x0 SWAP1 DUP2 MSTORE PUSH1 0x20 SWAP2 SWAP1 SWAP2 MSTORE PUSH1 0x40 SWAP1 KECCAK256 SLOAD SWAP1 POP DUP2 DUP2 LT ISZERO PUSH2 0xEED JUMPI PUSH1 0x40 MLOAD PUSH3 0x461BCD PUSH1 0xE5 SHL DUP2 MSTORE PUSH1 0x20 PUSH1 0x4 DUP3 ADD MSTORE PUSH1 0x27 PUSH1 0x24 DUP3 ADD MSTORE PUSH32 0x4661636574546F6B656E3A206275726E20616D6F756E74206578636565647320 PUSH1 0x44 DUP3 ADD MSTORE PUSH7 0x62616C616E6365 PUSH1 0xC8 SHL PUSH1 0x64 DUP3 ADD MSTORE PUSH1 0x84 ADD PUSH2 0x676 JUMP JUMPDEST DUP2 DUP2 SUB PUSH2 0xEF8 PUSH2 0x7F6 JUMP JUMPDEST PUSH1 0x1 PUSH1 0x1 PUSH1 0xA0 SHL SUB DUP6 AND PUSH1 0x0 SWAP1 DUP2 MSTORE PUSH1 0x20 SWAP2 SWAP1 SWAP2 MSTORE PUSH1 0x40 SWAP1 KECCAK256 SSTORE DUP2 PUSH2 0xF1B PUSH2 0x7F6 JUMP JUMPDEST PUSH1 0x8 ADD DUP1 SLOAD SWAP2 SWAP1 SWAP2 SUB SWAP1 SSTORE PUSH1 0x40 MLOAD DUP3 DUP2 MSTORE PUSH1 0x0 SWAP1 PUSH1 0x1 PUSH1 0x1 PUSH1 0xA0 SHL SUB DUP6 AND SWAP1 PUSH32 0xDDF252AD1BE2C89B69C2B068FC378DAA952BA7F163C4A11628F55A4DF523B3EF SWAP1 PUSH1 0x20 ADD PUSH2 0x94D JUMP JUMPDEST POP POP POP JUMP JUMPDEST PUSH1 0x1 PUSH1 0x1 PUSH1 0xA0 SHL SUB DUP4 AND PUSH2 0xF88 JUMPI PUSH2 0xF80 DUP3 PUSH2 0x105E JUMP JUMPDEST PUSH2 0xF64 PUSH2 0x1093 JUMP JUMPDEST PUSH1 0x1 PUSH1 0x1 PUSH1 0xA0 SHL SUB DUP3 AND PUSH2 0xF9F JUMPI PUSH2 0xF80 DUP4 PUSH2 0x105E JUMP JUMPDEST PUSH2 0xFA8 DUP4 PUSH2 0x105E JUMP JUMPDEST PUSH2 0xF64 DUP3 PUSH2 0x105E JUMP JUMPDEST DUP2 SLOAD PUSH1 0x0 SWAP1 DUP2 SUB PUSH2 0xFC4 JUMPI POP PUSH1 0x0 PUSH2 0x339 JUMP JUMPDEST DUP3 SLOAD PUSH1 0x0 SWAP1 JUMPDEST DUP1 DUP3 LT ISZERO PUSH2 0x1011 JUMPI PUSH1 0x0 PUSH2 0xFDE DUP4 DUP4 PUSH2 0x10A9 JUMP JUMPDEST PUSH1 0x0 DUP8 DUP2 MSTORE PUSH1 0x20 SWAP1 KECCAK256 SWAP1 SWAP2 POP DUP6 SWAP1 DUP3 ADD SLOAD GT ISZERO PUSH2 0xFFD JUMPI DUP1 SWAP2 POP PUSH2 0x100B JUMP JUMPDEST PUSH2 0x1008 DUP2 PUSH1 0x1 PUSH2 0x14DB JUMP JUMPDEST SWAP3 POP JUMPDEST POP PUSH2 0xFCA JUMP JUMPDEST PUSH1 0x0 DUP3 GT DUP1 ISZERO PUSH2 0x103D JUMPI POP DUP4 PUSH2 0x103A DUP7 PUSH2 0x102C PUSH1 0x1 DUP7 PUSH2 0x1504 JUMP JUMPDEST PUSH1 0x0 SWAP2 DUP3 MSTORE PUSH1 0x20 SWAP1 SWAP2 KECCAK256 ADD SWAP1 JUMP JUMPDEST SLOAD EQ JUMPDEST ISZERO PUSH2 0x1056 JUMPI PUSH2 0x104D PUSH1 0x1 DUP4 PUSH2 0x1504 JUMP JUMPDEST SWAP3 POP POP POP PUSH2 0x339 JUMP JUMPDEST POP SWAP1 POP PUSH2 0x339 JUMP JUMPDEST PUSH2 0x4BA PUSH2 0x1069 PUSH2 0x7F6 JUMP JUMPDEST PUSH1 0x1 PUSH1 0x1 PUSH1 0xA0 SHL SUB DUP4 AND PUSH1 0x0 SWAP1 DUP2 MSTORE PUSH1 0x2 SWAP2 SWAP1 SWAP2 ADD PUSH1 0x20 MSTORE PUSH1 0x40 SWAP1 KECCAK256 PUSH2 0x108E DUP4 PUSH2 0x52A JUMP JUMPDEST PUSH2 0x10CB JUMP JUMPDEST PUSH2 0x995 PUSH2 0x109E PUSH2 0x7F6 JUMP JUMPDEST PUSH1 0x3 ADD PUSH2 0x108E PUSH2 0x33F JUMP JUMPDEST PUSH1 0x0 PUSH2 0x10B8 PUSH1 0x2 DUP5 DUP5 XOR PUSH2 0x1517 JUMP JUMPDEST PUSH2 0x10C4 SWAP1 DUP5 DUP5 AND PUSH2 0x14DB JUMP JUMPDEST SWAP4 SWAP3 POP POP POP JUMP JUMPDEST PUSH1 0x0 PUSH2 0x10D5 PUSH2 0x511 JUMP JUMPDEST SWAP1 POP DUP1 PUSH2 0x10E1 DUP5 PUSH2 0x1115 JUMP JUMPDEST LT ISZERO PUSH2 0xF64 JUMPI DUP3 SLOAD PUSH1 0x1 DUP1 DUP3 ADD DUP6 SSTORE PUSH1 0x0 DUP6 DUP2 MSTORE PUSH1 0x20 DUP1 DUP3 KECCAK256 SWAP1 SWAP4 ADD SWAP4 SWAP1 SWAP4 SSTORE SWAP4 DUP5 ADD DUP1 SLOAD SWAP5 DUP6 ADD DUP2 SSTORE DUP3 MSTORE SWAP1 KECCAK256 SWAP1 SWAP2 ADD SSTORE JUMP JUMPDEST DUP1 SLOAD PUSH1 0x0 SWAP1 DUP2 SUB PUSH2 0x1128 JUMPI POP PUSH1 0x0 SWAP2 SWAP1 POP JUMP JUMPDEST DUP2 SLOAD DUP3 SWAP1 PUSH2 0x1138 SWAP1 PUSH1 0x1 SWAP1 PUSH2 0x1504 JUMP JUMPDEST DUP2 SLOAD DUP2 LT PUSH2 0x1148 JUMPI PUSH2 0x1148 PUSH2 0x14EE JUMP JUMPDEST SWAP1 PUSH1 0x0 MSTORE PUSH1 0x20 PUSH1 0x0 KECCAK256 ADD SLOAD SWAP1 POP SWAP2 SWAP1 POP JUMP JUMPDEST SWAP2 SWAP1 POP JUMP JUMPDEST PUSH1 0x0 JUMPDEST DUP4 DUP2 LT ISZERO PUSH2 0x117A JUMPI DUP2 DUP2 ADD MLOAD DUP4 DUP3 ADD MSTORE PUSH1 0x20 ADD PUSH2 0x1162 JUMP JUMPDEST POP POP PUSH1 0x0 SWAP2 ADD MSTORE JUMP JUMPDEST PUSH1 0x20 DUP2 MSTORE PUSH1 0x0 DUP3 MLOAD DUP1 PUSH1 0x20 DUP5 ADD MSTORE PUSH2 0x11A2 DUP2 PUSH1 0x40 DUP6 ADD PUSH1 0x20 DUP8 ADD PUSH2 0x115F JUMP JUMPDEST PUSH1 0x1F ADD PUSH1 0x1F NOT AND SWAP2 SWAP1 SWAP2 ADD PUSH1 0x40 ADD SWAP3 SWAP2 POP POP JUMP JUMPDEST DUP1 CALLDATALOAD PUSH1 0x1 PUSH1 0x1 PUSH1 0xA0 SHL SUB DUP2 AND DUP2 EQ PUSH2 0x115A JUMPI PUSH1 0x0 DUP1 REVERT JUMPDEST PUSH1 0x0 DUP1 PUSH1 0x40 DUP4 DUP6 SUB SLT ISZERO PUSH2 0x11E0 JUMPI PUSH1 0x0 DUP1 REVERT JUMPDEST PUSH2 0x11E9 DUP4 PUSH2 0x11B6 JUMP JUMPDEST SWAP5 PUSH1 0x20 SWAP4 SWAP1 SWAP4 ADD CALLDATALOAD SWAP4 POP POP POP JUMP JUMPDEST PUSH4 0x4E487B71 PUSH1 0xE0 SHL PUSH1 0x0 MSTORE PUSH1 0x41 PUSH1 0x4 MSTORE PUSH1 0x24 PUSH1 0x0 REVERT JUMPDEST PUSH1 0x0 PUSH1 0x20 DUP3 DUP5 SUB SLT ISZERO PUSH2 0x121F JUMPI PUSH1 0x0 DUP1 REVERT JUMPDEST DUP2 CALLDATALOAD PUSH8 0xFFFFFFFFFFFFFFFF DUP1 DUP3 GT ISZERO PUSH2 0x1237 JUMPI PUSH1 0x0 DUP1 REVERT JUMPDEST DUP2 DUP5 ADD SWAP2 POP DUP5 PUSH1 0x1F DUP4 ADD SLT PUSH2 0x124B JUMPI PUSH1 0x0 DUP1 REVERT JUMPDEST DUP2 CALLDATALOAD DUP2 DUP2 GT ISZERO PUSH2 0x125D JUMPI PUSH2 0x125D PUSH2 0x11F7 JUMP JUMPDEST PUSH1 0x40 MLOAD PUSH1 0x1F DUP3 ADD PUSH1 0x1F NOT SWAP1 DUP2 AND PUSH1 0x3F ADD AND DUP2 ADD SWAP1 DUP4 DUP3 GT DUP2 DUP4 LT OR ISZERO PUSH2 0x1285 JUMPI PUSH2 0x1285 PUSH2 0x11F7 JUMP JUMPDEST DUP2 PUSH1 0x40 MSTORE DUP3 DUP2 MSTORE DUP8 PUSH1 0x20 DUP5 DUP8 ADD ADD GT ISZERO PUSH2 0x129E JUMPI PUSH1 0x0 DUP1 REVERT JUMPDEST DUP3 PUSH1 0x20 DUP7 ADD PUSH1 0x20 DUP4 ADD CALLDATACOPY PUSH1 0x0 SWAP3 DUP2 ADD PUSH1 0x20 ADD SWAP3 SWAP1 SWAP3 MSTORE POP SWAP6 SWAP5 POP POP POP POP POP JUMP JUMPDEST PUSH1 0x0 DUP1 PUSH1 0x0 PUSH1 0x60 DUP5 DUP7 SUB SLT ISZERO PUSH2 0x12D3 JUMPI PUSH1 0x0 DUP1 REVERT JUMPDEST PUSH2 0x12DC DUP5 PUSH2 0x11B6 JUMP JUMPDEST SWAP3 POP PUSH2 0x12EA PUSH1 0x20 DUP6 ADD PUSH2 0x11B6 JUMP JUMPDEST SWAP2 POP PUSH1 0x40 DUP5 ADD CALLDATALOAD SWAP1 POP SWAP3 POP SWAP3 POP SWAP3 JUMP JUMPDEST PUSH1 0x0 PUSH1 0x20 DUP3 DUP5 SUB SLT ISZERO PUSH2 0x130C JUMPI PUSH1 0x0 DUP1 REVERT JUMPDEST POP CALLDATALOAD SWAP2 SWAP1 POP JUMP JUMPDEST PUSH1 0x0 PUSH1 0x20 DUP3 DUP5 SUB SLT ISZERO PUSH2 0x1325 JUMPI PUSH1 0x0 DUP1 REVERT JUMPDEST PUSH2 0x10C4 DUP3 PUSH2 0x11B6 JUMP JUMPDEST PUSH1 0x0 DUP1 PUSH1 0x40 DUP4 DUP6 SUB SLT ISZERO PUSH2 0x1341 JUMPI PUSH1 0x0 DUP1 REVERT JUMPDEST PUSH2 0x134A DUP4 PUSH2 0x11B6 JUMP JUMPDEST SWAP2 POP PUSH2 0x1358 PUSH1 0x20 DUP5 ADD PUSH2 0x11B6 JUMP JUMPDEST SWAP1 POP SWAP3 POP SWAP3 SWAP1 POP JUMP JUMPDEST PUSH1 0x1 DUP2 DUP2 SHR SWAP1 DUP3 AND DUP1 PUSH2 0x1375 JUMPI PUSH1 0x7F DUP3 AND SWAP2 POP JUMPDEST PUSH1 0x20 DUP3 LT DUP2 SUB PUSH2 0x1395 JUMPI PUSH4 0x4E487B71 PUSH1 0xE0 SHL PUSH1 0x0 MSTORE PUSH1 0x22 PUSH1 0x4 MSTORE PUSH1 0x24 PUSH1 0x0 REVERT JUMPDEST POP SWAP2 SWAP1 POP JUMP JUMPDEST PUSH1 0x1F DUP3 GT ISZERO PUSH2 0xF64 JUMPI PUSH1 0x0 DUP2 DUP2 MSTORE PUSH1 0x20 DUP2 KECCAK256 PUSH1 0x1F DUP6 ADD PUSH1 0x5 SHR DUP2 ADD PUSH1 0x20 DUP7 LT ISZERO PUSH2 0x13C2 JUMPI POP DUP1 JUMPDEST PUSH1 0x1F DUP6 ADD PUSH1 0x5 SHR DUP3 ADD SWAP2 POP JUMPDEST DUP2 DUP2 LT ISZERO PUSH2 0x13E1 JUMPI DUP3 DUP2 SSTORE PUSH1 0x1 ADD PUSH2 0x13CE JUMP JUMPDEST POP POP POP POP POP POP JUMP JUMPDEST DUP2 MLOAD PUSH8 0xFFFFFFFFFFFFFFFF DUP2 GT ISZERO PUSH2 0x1403 JUMPI PUSH2 0x1403 PUSH2 0x11F7 JUMP JUMPDEST PUSH2 0x1417 DUP2 PUSH2 0x1411 DUP5 SLOAD PUSH2 0x1361 JUMP JUMPDEST DUP5 PUSH2 0x139B JUMP JUMPDEST PUSH1 0x20 DUP1 PUSH1 0x1F DUP4 GT PUSH1 0x1 DUP2 EQ PUSH2 0x144C JUMPI PUSH1 0x0 DUP5 ISZERO PUSH2 0x1434 JUMPI POP DUP6 DUP4 ADD MLOAD JUMPDEST PUSH1 0x0 NOT PUSH1 0x3 DUP7 SWAP1 SHL SHR NOT AND PUSH1 0x1 DUP6 SWAP1 SHL OR DUP6 SSTORE PUSH2 0x13E1 JUMP JUMPDEST PUSH1 0x0 DUP6 DUP2 MSTORE PUSH1 0x20 DUP2 KECCAK256 PUSH1 0x1F NOT DUP7 AND SWAP2 JUMPDEST DUP3 DUP2 LT ISZERO PUSH2 0x147B JUMPI DUP9 DUP7 ADD MLOAD DUP3 SSTORE SWAP5 DUP5 ADD SWAP5 PUSH1 0x1 SWAP1 SWAP2 ADD SWAP1 DUP5 ADD PUSH2 0x145C JUMP JUMPDEST POP DUP6 DUP3 LT ISZERO PUSH2 0x1499 JUMPI DUP8 DUP6 ADD MLOAD PUSH1 0x0 NOT PUSH1 0x3 DUP9 SWAP1 SHL PUSH1 0xF8 AND SHR NOT AND DUP2 SSTORE JUMPDEST POP POP POP POP POP PUSH1 0x1 SWAP1 DUP2 SHL ADD SWAP1 SSTORE POP JUMP JUMPDEST PUSH1 0x0 DUP3 MLOAD PUSH2 0x14BB DUP2 DUP5 PUSH1 0x20 DUP8 ADD PUSH2 0x115F JUMP JUMPDEST SWAP2 SWAP1 SWAP2 ADD SWAP3 SWAP2 POP POP JUMP JUMPDEST PUSH4 0x4E487B71 PUSH1 0xE0 SHL PUSH1 0x0 MSTORE PUSH1 0x11 PUSH1 0x4 MSTORE PUSH1 0x24 PUSH1 0x0 REVERT JUMPDEST DUP1 DUP3 ADD DUP1 DUP3 GT ISZERO PUSH2 0x339 JUMPI PUSH2 0x339 PUSH2 0x14C5 JUMP JUMPDEST PUSH4 0x4E487B71 PUSH1 0xE0 SHL PUSH1 0x0 MSTORE PUSH1 0x32 PUSH1 0x4 MSTORE PUSH1 0x24 PUSH1 0x0 REVERT JUMPDEST DUP2 DUP2 SUB DUP2 DUP2 GT ISZERO PUSH2 0x339 JUMPI PUSH2 0x339 PUSH2 0x14C5 JUMP JUMPDEST PUSH1 0x0 DUP3 PUSH2 0x1534 JUMPI PUSH4 0x4E487B71 PUSH1 0xE0 SHL PUSH1 0x0 MSTORE PUSH1 0x12 PUSH1 0x4 MSTORE PUSH1 0x24 PUSH1 0x0 REVERT JUMPDEST POP DIV SWAP1 JUMP INVALID LOG2 PUSH5 0x6970667358 0x22 SLT KECCAK256 0xB1 0x4B 0x27 PUSH25 0xC0D2C2125A37CCB1FCEA266A39077357974AF641C6D8FE074B 0x4A SWAP7 DUP16 PUSH5 0x736F6C6343 STOP ADDMOD SGT STOP CALLER "
				},
				"gasEstimates": {
					"creation": {
						"codeDepositCost": "1097400",
						"executionCost": "1140",
						"totalCost": "1098540"
					},
					"external": {
						"____burn(uint256)": "infinite",
						"____mint(uint256)": "infinite",
						"____setName(string)": "infinite",
						"____setSymbol(string)": "infinite",
						"allowance(address,address)": "infinite",
						"approve(address,uint256)": "24706",
						"balanceOf(address)": "2641",
						"balanceOfAt(address,uint256)": "infinite",
						"decimals()": "222",
						"decreaseAllowance(address,uint256)": "infinite",
						"getCurrentSnapshotId()": "2386",
						"increaseAllowance(address,uint256)": "infinite",
						"name()": "infinite",
						"snapshot()": "infinite",
						"symbol()": "infinite",
						"totalSupply()": "2416",
						"totalSupplyAt(uint256)": "infinite",
						"transfer(address,uint256)": "infinite",
						"transferFrom(address,address,uint256)": "infinite"
					},
					"internal": {
						"_afterTokenTransfer(address,address,uint256)": "infinite",
						"_approve(address,address,uint256)": "infinite",
						"_beforeTokenTransfer(address,address,uint256)": "infinite",
						"_burn(address,uint256)": "infinite",
						"_lastSnapshotId(uint256[] storage pointer)": "8618",
						"_mint(address,uint256)": "infinite",
						"_onlySelf()": "infinite",
						"_spendAllowance(address,address,uint256)": "infinite",
						"_transfer(address,address,uint256)": "infinite",
						"_updateAccountSnapshot(address)": "infinite",
						"_updateSnapshot(struct SlotToken.Snapshots storage pointer,uint256)": "103632",
						"_updateTotalSupplySnapshot()": "infinite",
						"_valueAt(uint256,struct SlotToken.Snapshots storage pointer)": "infinite"
					}
				},
				"methodIdentifiers": {
					"____burn(uint256)": "b74456f2",
					"____mint(uint256)": "49e7012c",
					"____setName(string)": "e0089dc3",
					"____setSymbol(string)": "1e96c1dd",
					"allowance(address,address)": "dd62ed3e",
					"approve(address,uint256)": "095ea7b3",
					"balanceOf(address)": "70a08231",
					"balanceOfAt(address,uint256)": "4ee2cd7e",
					"decimals()": "313ce567",
					"decreaseAllowance(address,uint256)": "a457c2d7",
					"getCurrentSnapshotId()": "5439ad86",
					"increaseAllowance(address,uint256)": "39509351",
					"name()": "06fdde03",
					"snapshot()": "9711715a",
					"symbol()": "95d89b41",
					"totalSupply()": "18160ddd",
					"totalSupplyAt(uint256)": "981b24d0",
					"transfer(address,uint256)": "a9059cbb",
					"transferFrom(address,address,uint256)": "23b872dd"
				}
			},
			"storageLayout": {
				"storage": [],
				"types": null
			},
			"userdoc": {
				"kind": "user",
				"methods": {},
				"version": 1
			}
		}
	}
}