{
	"diamonds/Diamond.sol": {
		"Diamond": {
			"abi": [
				{
					"inputs": [],
					"name": "DiamondWritable__InvalidInitializationParameters",
					"type": "error"
				},
				{
					"inputs": [],
					"name": "DiamondWritable__RemoveTargetNotZeroAddress",
					"type": "error"
				},
				{
					"inputs": [],
					"name": "DiamondWritable__ReplaceTargetIsIdentical",
					"type": "error"
				},
				{
					"inputs": [],
					"name": "DiamondWritable__SelectorAlreadyAdded",
					"type": "error"
				},
				{
					"inputs": [],
					"name": "DiamondWritable__SelectorIsImmutable",
					"type": "error"
				},
				{
					"inputs": [],
					"name": "DiamondWritable__SelectorNotFound",
					"type": "error"
				},
				{
					"inputs": [],
					"name": "DiamondWritable__SelectorNotSpecified",
					"type": "error"
				},
				{
					"inputs": [],
					"name": "DiamondWritable__TargetHasNoCode",
					"type": "error"
				},
				{
					"inputs": [],
					"name": "ERC165Base__InvalidInterfaceId",
					"type": "error"
				},
				{
					"inputs": [],
					"name": "Ownable__NotOwner",
					"type": "error"
				},
				{
					"inputs": [],
					"name": "Ownable__NotTransitiveOwner",
					"type": "error"
				},
				{
					"inputs": [],
					"name": "Proxy__ImplementationIsNotContract",
					"type": "error"
				},
				{
					"inputs": [],
					"name": "SafeOwnable__NotNomineeOwner",
					"type": "error"
				},
				{
					"anonymous": false,
					"inputs": [
						{
							"components": [
								{
									"internalType": "address",
									"name": "target",
									"type": "address"
								},
								{
									"internalType": "enum IDiamondWritableInternal.FacetCutAction",
									"name": "action",
									"type": "uint8"
								},
								{
									"internalType": "bytes4[]",
									"name": "selectors",
									"type": "bytes4[]"
								}
							],
							"indexed": false,
							"internalType": "struct IDiamondWritableInternal.FacetCut[]",
							"name": "facetCuts",
							"type": "tuple[]"
						},
						{
							"indexed": false,
							"internalType": "address",
							"name": "target",
							"type": "address"
						},
						{
							"indexed": false,
							"internalType": "bytes",
							"name": "data",
							"type": "bytes"
						}
					],
					"name": "DiamondCut",
					"type": "event"
				},
				{
					"anonymous": false,
					"inputs": [
						{
							"indexed": true,
							"internalType": "address",
							"name": "previousOwner",
							"type": "address"
						},
						{
							"indexed": true,
							"internalType": "address",
							"name": "newOwner",
							"type": "address"
						}
					],
					"name": "OwnershipTransferred",
					"type": "event"
				},
				{
					"stateMutability": "payable",
					"type": "fallback"
				},
				{
					"inputs": [],
					"name": "acceptOwnership",
					"outputs": [],
					"stateMutability": "nonpayable",
					"type": "function"
				},
				{
					"inputs": [
						{
							"components": [
								{
									"internalType": "address",
									"name": "target",
									"type": "address"
								},
								{
									"internalType": "enum IDiamondWritableInternal.FacetCutAction",
									"name": "action",
									"type": "uint8"
								},
								{
									"internalType": "bytes4[]",
									"name": "selectors",
									"type": "bytes4[]"
								}
							],
							"internalType": "struct IDiamondWritableInternal.FacetCut[]",
							"name": "facetCuts",
							"type": "tuple[]"
						},
						{
							"internalType": "address",
							"name": "target",
							"type": "address"
						},
						{
							"internalType": "bytes",
							"name": "data",
							"type": "bytes"
						}
					],
					"name": "diamondCut",
					"outputs": [],
					"stateMutability": "nonpayable",
					"type": "function"
				},
				{
					"inputs": [
						{
							"internalType": "bytes4",
							"name": "selector",
							"type": "bytes4"
						}
					],
					"name": "facetAddress",
					"outputs": [
						{
							"internalType": "address",
							"name": "facet",
							"type": "address"
						}
					],
					"stateMutability": "view",
					"type": "function"
				},
				{
					"inputs": [],
					"name": "facetAddresses",
					"outputs": [
						{
							"internalType": "address[]",
							"name": "addresses",
							"type": "address[]"
						}
					],
					"stateMutability": "view",
					"type": "function"
				},
				{
					"inputs": [
						{
							"internalType": "address",
							"name": "facet",
							"type": "address"
						}
					],
					"name": "facetFunctionSelectors",
					"outputs": [
						{
							"internalType": "bytes4[]",
							"name": "selectors",
							"type": "bytes4[]"
						}
					],
					"stateMutability": "view",
					"type": "function"
				},
				{
					"inputs": [],
					"name": "facets",
					"outputs": [
						{
							"components": [
								{
									"internalType": "address",
									"name": "target",
									"type": "address"
								},
								{
									"internalType": "bytes4[]",
									"name": "selectors",
									"type": "bytes4[]"
								}
							],
							"internalType": "struct IDiamondReadable.Facet[]",
							"name": "diamondFacets",
							"type": "tuple[]"
						}
					],
					"stateMutability": "view",
					"type": "function"
				},
				{
					"inputs": [],
					"name": "getFallbackAddress",
					"outputs": [
						{
							"internalType": "address",
							"name": "fallbackAddress",
							"type": "address"
						}
					],
					"stateMutability": "view",
					"type": "function"
				},
				{
					"inputs": [],
					"name": "nomineeOwner",
					"outputs": [
						{
							"internalType": "address",
							"name": "",
							"type": "address"
						}
					],
					"stateMutability": "view",
					"type": "function"
				},
				{
					"inputs": [],
					"name": "owner",
					"outputs": [
						{
							"internalType": "address",
							"name": "",
							"type": "address"
						}
					],
					"stateMutability": "view",
					"type": "function"
				},
				{
					"inputs": [
						{
							"internalType": "address",
							"name": "fallbackAddress",
							"type": "address"
						}
					],
					"name": "setFallbackAddress",
					"outputs": [],
					"stateMutability": "nonpayable",
					"type": "function"
				},
				{
					"inputs": [
						{
							"internalType": "bytes4",
							"name": "interfaceId",
							"type": "bytes4"
						}
					],
					"name": "supportsInterface",
					"outputs": [
						{
							"internalType": "bool",
							"name": "",
							"type": "bool"
						}
					],
					"stateMutability": "view",
					"type": "function"
				},
				{
					"inputs": [
						{
							"internalType": "address",
							"name": "account",
							"type": "address"
						}
					],
					"name": "transferOwnership",
					"outputs": [],
					"stateMutability": "nonpayable",
					"type": "function"
				},
				{
					"stateMutability": "payable",
					"type": "receive"
				}
			],
			"devdoc": {
				"kind": "dev",
				"methods": {
					"diamondCut((address,uint8,bytes4[])[],address,bytes)": {
						"params": {
							"data": "optional initialization function call data",
							"facetCuts": "array of structured Diamond facet update data",
							"target": "optional target of initialization delegatecall"
						}
					},
					"facetAddress(bytes4)": {
						"params": {
							"selector": "function selector to query"
						},
						"returns": {
							"facet": "facet address (zero address if not found)"
						}
					},
					"facetAddresses()": {
						"returns": {
							"addresses": "array of facet addresses"
						}
					},
					"facetFunctionSelectors(address)": {
						"params": {
							"facet": "address of facet to query"
						},
						"returns": {
							"selectors": "array of function selectors"
						}
					},
					"facets()": {
						"returns": {
							"diamondFacets": "array of structured facet data"
						}
					},
					"getFallbackAddress()": {
						"returns": {
							"fallbackAddress": "address of fallback implementation"
						}
					},
					"owner()": {
						"returns": {
							"_0": "contract owner"
						}
					},
					"setFallbackAddress(address)": {
						"params": {
							"fallbackAddress": "address of fallback implementation"
						}
					},
					"supportsInterface(bytes4)": {
						"params": {
							"interfaceId": "interface id"
						},
						"returns": {
							"_0": "bool whether interface is supported"
						}
					},
					"transferOwnership(address)": {
						"params": {
							"account": "address of new owner"
						}
					}
				},
				"version": 1
			},
			"evm": {
				"assembly": "    /* \"diamonds/Diamond.sol\":152:182  contract Diamond is ERC2535 {} */\n  mstore(0x40, 0x80)\n  callvalue\n  dup1\n  iszero\n  tag_1\n  jumpi\n  0x00\n  dup1\n  revert\ntag_1:\n  pop\n    /* \"imports/solidstate/contracts/proxy/diamond/SolidStateDiamond.sol\":1108:1124  new bytes4[](12) */\n  0x40\n  dup1\n  mload\n    /* \"imports/solidstate/contracts/proxy/diamond/SolidStateDiamond.sol\":1121:1123  12 */\n  0x0c\n    /* \"imports/solidstate/contracts/proxy/diamond/SolidStateDiamond.sol\":1108:1124  new bytes4[](12) */\n  dup1\n  dup3\n  mstore\n  0x01a0\n  dup3\n  add\n  swap1\n  swap3\n  mstore\n    /* \"imports/solidstate/contracts/proxy/diamond/SolidStateDiamond.sol\":1080:1105  bytes4[] memory selectors */\n  0x00\n  swap2\n    /* \"imports/solidstate/contracts/proxy/diamond/SolidStateDiamond.sol\":1108:1124  new bytes4[](12) */\n  0x20\n  dup3\n  add\n  0x0180\n  dup1\n  calldatasize\n  dup4\n  calldatacopy\n  add\n  swap1\n  pop\n  pop\n    /* \"imports/solidstate/contracts/proxy/diamond/SolidStateDiamond.sol\":1080:1124  bytes4[] memory selectors = new bytes4[](12) */\n  swap1\n  pop\n    /* \"imports/solidstate/contracts/proxy/diamond/SolidStateDiamond.sol\":1134:1155  uint256 selectorIndex */\n  0x00\n  shl(0xe0, 0x2c408059)\n    /* \"imports/solidstate/contracts/proxy/diamond/SolidStateDiamond.sol\":1080:1124  bytes4[] memory selectors = new bytes4[](12) */\n  dup3\n    /* \"imports/solidstate/contracts/proxy/diamond/SolidStateDiamond.sol\":1134:1155  uint256 selectorIndex */\n  dup3\n    /* \"imports/solidstate/contracts/proxy/diamond/SolidStateDiamond.sol\":1213:1228  selectorIndex++ */\n  tag_8\n    /* \"imports/solidstate/contracts/proxy/diamond/SolidStateDiamond.sol\":1134:1155  uint256 selectorIndex */\n  dup2\n    /* \"imports/solidstate/contracts/proxy/diamond/SolidStateDiamond.sol\":1213:1228  selectorIndex++ */\n  tag_9\n  jump\t// in\ntag_8:\n  swap4\n  pop\n    /* \"imports/solidstate/contracts/proxy/diamond/SolidStateDiamond.sol\":1203:1229  selectors[selectorIndex++] */\n  dup2\n  mload\n  dup2\n  lt\n  tag_11\n  jumpi\n  tag_11\n  tag_12\n  jump\t// in\ntag_11:\n  not(sub(shl(0xe0, 0x01), 0x01))\n    /* \"imports/solidstate/contracts/proxy/diamond/SolidStateDiamond.sol\":1203:1302  selectors[selectorIndex++] = IDiamondFallback... */\n  swap1\n  swap3\n  and\n    /* \"imports/solidstate/contracts/proxy/diamond/SolidStateDiamond.sol\":1203:1229  selectors[selectorIndex++] */\n  0x20\n  swap3\n  dup4\n  mul\n  swap2\n  swap1\n  swap2\n  add\n  swap1\n  swap2\n  add\n    /* \"imports/solidstate/contracts/proxy/diamond/SolidStateDiamond.sol\":1203:1302  selectors[selectorIndex++] = IDiamondFallback... */\n  mstore\n  shl(0xe0, 0x91423765)\n    /* \"imports/solidstate/contracts/proxy/diamond/SolidStateDiamond.sol\":1312:1321  selectors */\n  dup3\n    /* \"imports/solidstate/contracts/proxy/diamond/SolidStateDiamond.sol\":1322:1337  selectorIndex++ */\n  dup3\n  tag_13\n  dup2\n  tag_9\n  jump\t// in\ntag_13:\n  swap4\n  pop\n    /* \"imports/solidstate/contracts/proxy/diamond/SolidStateDiamond.sol\":1312:1338  selectors[selectorIndex++] */\n  dup2\n  mload\n  dup2\n  lt\n  tag_15\n  jumpi\n  tag_15\n  tag_12\n  jump\t// in\ntag_15:\n  not(sub(shl(0xe0, 0x01), 0x01))\n    /* \"imports/solidstate/contracts/proxy/diamond/SolidStateDiamond.sol\":1312:1411  selectors[selectorIndex++] = IDiamondFallback... */\n  swap1\n  swap3\n  and\n    /* \"imports/solidstate/contracts/proxy/diamond/SolidStateDiamond.sol\":1312:1338  selectors[selectorIndex++] */\n  0x20\n  swap3\n  dup4\n  mul\n  swap2\n  swap1\n  swap2\n  add\n  swap1\n  swap2\n  add\n    /* \"imports/solidstate/contracts/proxy/diamond/SolidStateDiamond.sol\":1312:1411  selectors[selectorIndex++] = IDiamondFallback... */\n  mstore\n    /* \"imports/solidstate/contracts/proxy/diamond/SolidStateDiamond.sol\":1422:1485  _setSupportsInterface(type(IDiamondFallback).interfaceId, true) */\n  tag_16\n  shl(0xe2, 0x2f40adcf)\n    /* \"imports/solidstate/contracts/proxy/diamond/SolidStateDiamond.sol\":1480:1484  true */\n  0x01\n    /* \"imports/solidstate/contracts/proxy/diamond/SolidStateDiamond.sol\":1422:1443  _setSupportsInterface */\n  tag_17\n    /* \"imports/solidstate/contracts/proxy/diamond/SolidStateDiamond.sol\":1422:1485  _setSupportsInterface(type(IDiamondFallback).interfaceId, true) */\n  jump\t// in\ntag_16:\n  shl(0xe2, 0x07e4c707)\n    /* \"imports/solidstate/contracts/proxy/diamond/SolidStateDiamond.sol\":1533:1542  selectors */\n  dup3\n    /* \"imports/solidstate/contracts/proxy/diamond/SolidStateDiamond.sol\":1543:1558  selectorIndex++ */\n  dup3\n  tag_18\n  dup2\n  tag_9\n  jump\t// in\ntag_18:\n  swap4\n  pop\n    /* \"imports/solidstate/contracts/proxy/diamond/SolidStateDiamond.sol\":1533:1559  selectors[selectorIndex++] */\n  dup2\n  mload\n  dup2\n  lt\n  tag_20\n  jumpi\n  tag_20\n  tag_12\n  jump\t// in\ntag_20:\n  not(sub(shl(0xe0, 0x01), 0x01))\n    /* \"imports/solidstate/contracts/proxy/diamond/SolidStateDiamond.sol\":1533:1598  selectors[selectorIndex++] = IDiamondWritable.diamondCut.selector */\n  swap1\n  swap3\n  and\n    /* \"imports/solidstate/contracts/proxy/diamond/SolidStateDiamond.sol\":1533:1559  selectors[selectorIndex++] */\n  0x20\n  swap3\n  dup4\n  mul\n  swap2\n  swap1\n  swap2\n  add\n  swap1\n  swap2\n  add\n    /* \"imports/solidstate/contracts/proxy/diamond/SolidStateDiamond.sol\":1533:1598  selectors[selectorIndex++] = IDiamondWritable.diamondCut.selector */\n  mstore\n    /* \"imports/solidstate/contracts/proxy/diamond/SolidStateDiamond.sol\":1609:1672  _setSupportsInterface(type(IDiamondWritable).interfaceId, true) */\n  tag_21\n  shl(0xe2, 0x07e4c707)\n    /* \"imports/solidstate/contracts/proxy/diamond/SolidStateDiamond.sol\":1667:1671  true */\n  0x01\n    /* \"imports/solidstate/contracts/proxy/diamond/SolidStateDiamond.sol\":1609:1630  _setSupportsInterface */\n  tag_17\n    /* \"imports/solidstate/contracts/proxy/diamond/SolidStateDiamond.sol\":1609:1672  _setSupportsInterface(type(IDiamondWritable).interfaceId, true) */\n  jump\t// in\ntag_21:\n  shl(0xe0, 0x7a0ed627)\n    /* \"imports/solidstate/contracts/proxy/diamond/SolidStateDiamond.sol\":1720:1729  selectors */\n  dup3\n    /* \"imports/solidstate/contracts/proxy/diamond/SolidStateDiamond.sol\":1730:1745  selectorIndex++ */\n  dup3\n  tag_22\n  dup2\n  tag_9\n  jump\t// in\ntag_22:\n  swap4\n  pop\n    /* \"imports/solidstate/contracts/proxy/diamond/SolidStateDiamond.sol\":1720:1746  selectors[selectorIndex++] */\n  dup2\n  mload\n  dup2\n  lt\n  tag_24\n  jumpi\n  tag_24\n  tag_12\n  jump\t// in\ntag_24:\n  not(sub(shl(0xe0, 0x01), 0x01))\n    /* \"imports/solidstate/contracts/proxy/diamond/SolidStateDiamond.sol\":1720:1781  selectors[selectorIndex++] = IDiamondReadable.facets.selector */\n  swap1\n  swap3\n  and\n    /* \"imports/solidstate/contracts/proxy/diamond/SolidStateDiamond.sol\":1720:1746  selectors[selectorIndex++] */\n  0x20\n  swap3\n  dup4\n  mul\n  swap2\n  swap1\n  swap2\n  add\n  swap1\n  swap2\n  add\n    /* \"imports/solidstate/contracts/proxy/diamond/SolidStateDiamond.sol\":1720:1781  selectors[selectorIndex++] = IDiamondReadable.facets.selector */\n  mstore\n  shl(0xe1, 0x56fe50af)\n    /* \"imports/solidstate/contracts/proxy/diamond/SolidStateDiamond.sol\":1791:1800  selectors */\n  dup3\n    /* \"imports/solidstate/contracts/proxy/diamond/SolidStateDiamond.sol\":1801:1816  selectorIndex++ */\n  dup3\n  tag_25\n  dup2\n  tag_9\n  jump\t// in\ntag_25:\n  swap4\n  pop\n    /* \"imports/solidstate/contracts/proxy/diamond/SolidStateDiamond.sol\":1791:1817  selectors[selectorIndex++] */\n  dup2\n  mload\n  dup2\n  lt\n  tag_27\n  jumpi\n  tag_27\n  tag_12\n  jump\t// in\ntag_27:\n  not(sub(shl(0xe0, 0x01), 0x01))\n    /* \"imports/solidstate/contracts/proxy/diamond/SolidStateDiamond.sol\":1791:1894  selectors[selectorIndex++] = IDiamondReadable... */\n  swap1\n  swap3\n  and\n    /* \"imports/solidstate/contracts/proxy/diamond/SolidStateDiamond.sol\":1791:1817  selectors[selectorIndex++] */\n  0x20\n  swap3\n  dup4\n  mul\n  swap2\n  swap1\n  swap2\n  add\n  swap1\n  swap2\n  add\n    /* \"imports/solidstate/contracts/proxy/diamond/SolidStateDiamond.sol\":1791:1894  selectors[selectorIndex++] = IDiamondReadable... */\n  mstore\n  shl(0xe2, 0x14bbdacb)\n    /* \"imports/solidstate/contracts/proxy/diamond/SolidStateDiamond.sol\":1904:1913  selectors */\n  dup3\n    /* \"imports/solidstate/contracts/proxy/diamond/SolidStateDiamond.sol\":1914:1929  selectorIndex++ */\n  dup3\n  tag_28\n  dup2\n  tag_9\n  jump\t// in\ntag_28:\n  swap4\n  pop\n    /* \"imports/solidstate/contracts/proxy/diamond/SolidStateDiamond.sol\":1904:1930  selectors[selectorIndex++] */\n  dup2\n  mload\n  dup2\n  lt\n  tag_30\n  jumpi\n  tag_30\n  tag_12\n  jump\t// in\ntag_30:\n  not(sub(shl(0xe0, 0x01), 0x01))\n    /* \"imports/solidstate/contracts/proxy/diamond/SolidStateDiamond.sol\":1904:1973  selectors[selectorIndex++] = IDiamondReadable.facetAddresses.selector */\n  swap1\n  swap3\n  and\n    /* \"imports/solidstate/contracts/proxy/diamond/SolidStateDiamond.sol\":1904:1930  selectors[selectorIndex++] */\n  0x20\n  swap3\n  dup4\n  mul\n  swap2\n  swap1\n  swap2\n  add\n  swap1\n  swap2\n  add\n    /* \"imports/solidstate/contracts/proxy/diamond/SolidStateDiamond.sol\":1904:1973  selectors[selectorIndex++] = IDiamondReadable.facetAddresses.selector */\n  mstore\n  shl(0xe1, 0x66ffd663)\n    /* \"imports/solidstate/contracts/proxy/diamond/SolidStateDiamond.sol\":1983:1992  selectors */\n  dup3\n    /* \"imports/solidstate/contracts/proxy/diamond/SolidStateDiamond.sol\":1993:2008  selectorIndex++ */\n  dup3\n  tag_31\n  dup2\n  tag_9\n  jump\t// in\ntag_31:\n  swap4\n  pop\n    /* \"imports/solidstate/contracts/proxy/diamond/SolidStateDiamond.sol\":1983:2009  selectors[selectorIndex++] */\n  dup2\n  mload\n  dup2\n  lt\n  tag_33\n  jumpi\n  tag_33\n  tag_12\n  jump\t// in\ntag_33:\n  not(sub(shl(0xe0, 0x01), 0x01))\n    /* \"imports/solidstate/contracts/proxy/diamond/SolidStateDiamond.sol\":1983:2050  selectors[selectorIndex++] = IDiamondReadable.facetAddress.selector */\n  swap1\n  swap3\n  and\n    /* \"imports/solidstate/contracts/proxy/diamond/SolidStateDiamond.sol\":1983:2009  selectors[selectorIndex++] */\n  0x20\n  swap3\n  dup4\n  mul\n  swap2\n  swap1\n  swap2\n  add\n  swap1\n  swap2\n  add\n    /* \"imports/solidstate/contracts/proxy/diamond/SolidStateDiamond.sol\":1983:2050  selectors[selectorIndex++] = IDiamondReadable.facetAddress.selector */\n  mstore\n    /* \"imports/solidstate/contracts/proxy/diamond/SolidStateDiamond.sol\":2061:2124  _setSupportsInterface(type(IDiamondReadable).interfaceId, true) */\n  tag_34\n  shl(0xe0, 0x48e2b093)\n    /* \"imports/solidstate/contracts/proxy/diamond/SolidStateDiamond.sol\":2119:2123  true */\n  0x01\n    /* \"imports/solidstate/contracts/proxy/diamond/SolidStateDiamond.sol\":2061:2082  _setSupportsInterface */\n  tag_17\n    /* \"imports/solidstate/contracts/proxy/diamond/SolidStateDiamond.sol\":2061:2124  _setSupportsInterface(type(IDiamondReadable).interfaceId, true) */\n  jump\t// in\ntag_34:\n  shl(0xe0, 0x01ffc9a7)\n    /* \"imports/solidstate/contracts/proxy/diamond/SolidStateDiamond.sol\":2163:2172  selectors */\n  dup3\n    /* \"imports/solidstate/contracts/proxy/diamond/SolidStateDiamond.sol\":2173:2188  selectorIndex++ */\n  dup3\n  tag_35\n  dup2\n  tag_9\n  jump\t// in\ntag_35:\n  swap4\n  pop\n    /* \"imports/solidstate/contracts/proxy/diamond/SolidStateDiamond.sol\":2163:2189  selectors[selectorIndex++] */\n  dup2\n  mload\n  dup2\n  lt\n  tag_37\n  jumpi\n  tag_37\n  tag_12\n  jump\t// in\ntag_37:\n  not(sub(shl(0xe0, 0x01), 0x01))\n    /* \"imports/solidstate/contracts/proxy/diamond/SolidStateDiamond.sol\":2163:2226  selectors[selectorIndex++] = IERC165.supportsInterface.selector */\n  swap1\n  swap3\n  and\n    /* \"imports/solidstate/contracts/proxy/diamond/SolidStateDiamond.sol\":2163:2189  selectors[selectorIndex++] */\n  0x20\n  swap3\n  dup4\n  mul\n  swap2\n  swap1\n  swap2\n  add\n  swap1\n  swap2\n  add\n    /* \"imports/solidstate/contracts/proxy/diamond/SolidStateDiamond.sol\":2163:2226  selectors[selectorIndex++] = IERC165.supportsInterface.selector */\n  mstore\n    /* \"imports/solidstate/contracts/proxy/diamond/SolidStateDiamond.sol\":2237:2291  _setSupportsInterface(type(IERC165).interfaceId, true) */\n  tag_38\n  shl(0xe0, 0x01ffc9a7)\n    /* \"imports/solidstate/contracts/proxy/diamond/SolidStateDiamond.sol\":2286:2290  true */\n  0x01\n    /* \"imports/solidstate/contracts/proxy/diamond/SolidStateDiamond.sol\":2237:2258  _setSupportsInterface */\n  tag_17\n    /* \"imports/solidstate/contracts/proxy/diamond/SolidStateDiamond.sol\":2237:2291  _setSupportsInterface(type(IERC165).interfaceId, true) */\n  jump\t// in\ntag_38:\n  shl(0xe0, 0x8da5cb5b)\n    /* \"imports/solidstate/contracts/proxy/diamond/SolidStateDiamond.sol\":2335:2344  selectors */\n  dup3\n    /* \"imports/solidstate/contracts/proxy/diamond/SolidStateDiamond.sol\":2345:2360  selectorIndex++ */\n  dup3\n  tag_39\n  dup2\n  tag_9\n  jump\t// in\ntag_39:\n  swap4\n  pop\n    /* \"imports/solidstate/contracts/proxy/diamond/SolidStateDiamond.sol\":2335:2361  selectors[selectorIndex++] */\n  dup2\n  mload\n  dup2\n  lt\n  tag_41\n  jumpi\n  tag_41\n  tag_12\n  jump\t// in\ntag_41:\n  not(sub(shl(0xe0, 0x01), 0x01))\n    /* \"imports/solidstate/contracts/proxy/diamond/SolidStateDiamond.sol\":2335:2386  selectors[selectorIndex++] = Ownable.owner.selector */\n  swap1\n  swap3\n  and\n    /* \"imports/solidstate/contracts/proxy/diamond/SolidStateDiamond.sol\":2335:2361  selectors[selectorIndex++] */\n  0x20\n  swap3\n  dup4\n  mul\n  swap2\n  swap1\n  swap2\n  add\n  swap1\n  swap2\n  add\n    /* \"imports/solidstate/contracts/proxy/diamond/SolidStateDiamond.sol\":2335:2386  selectors[selectorIndex++] = Ownable.owner.selector */\n  mstore\n  shl(0xe1, 0x455a8a85)\n    /* \"imports/solidstate/contracts/proxy/diamond/SolidStateDiamond.sol\":2396:2405  selectors */\n  dup3\n    /* \"imports/solidstate/contracts/proxy/diamond/SolidStateDiamond.sol\":2406:2421  selectorIndex++ */\n  dup3\n  tag_42\n  dup2\n  tag_9\n  jump\t// in\ntag_42:\n  swap4\n  pop\n    /* \"imports/solidstate/contracts/proxy/diamond/SolidStateDiamond.sol\":2396:2422  selectors[selectorIndex++] */\n  dup2\n  mload\n  dup2\n  lt\n  tag_44\n  jumpi\n  tag_44\n  tag_12\n  jump\t// in\ntag_44:\n  not(sub(shl(0xe0, 0x01), 0x01))\n    /* \"imports/solidstate/contracts/proxy/diamond/SolidStateDiamond.sol\":2396:2458  selectors[selectorIndex++] = SafeOwnable.nomineeOwner.selector */\n  swap1\n  swap3\n  and\n    /* \"imports/solidstate/contracts/proxy/diamond/SolidStateDiamond.sol\":2396:2422  selectors[selectorIndex++] */\n  0x20\n  swap3\n  dup4\n  mul\n  swap2\n  swap1\n  swap2\n  add\n  swap1\n  swap2\n  add\n    /* \"imports/solidstate/contracts/proxy/diamond/SolidStateDiamond.sol\":2396:2458  selectors[selectorIndex++] = SafeOwnable.nomineeOwner.selector */\n  mstore\n  shl(0xe0, 0xf2fde38b)\n    /* \"imports/solidstate/contracts/proxy/diamond/SolidStateDiamond.sol\":2468:2477  selectors */\n  dup3\n    /* \"imports/solidstate/contracts/proxy/diamond/SolidStateDiamond.sol\":2478:2493  selectorIndex++ */\n  dup3\n  tag_45\n  dup2\n  tag_9\n  jump\t// in\ntag_45:\n  swap4\n  pop\n    /* \"imports/solidstate/contracts/proxy/diamond/SolidStateDiamond.sol\":2468:2494  selectors[selectorIndex++] */\n  dup2\n  mload\n  dup2\n  lt\n  tag_47\n  jumpi\n  tag_47\n  tag_12\n  jump\t// in\ntag_47:\n  not(sub(shl(0xe0, 0x01), 0x01))\n    /* \"imports/solidstate/contracts/proxy/diamond/SolidStateDiamond.sol\":2468:2531  selectors[selectorIndex++] = Ownable.transferOwnership.selector */\n  swap1\n  swap3\n  and\n    /* \"imports/solidstate/contracts/proxy/diamond/SolidStateDiamond.sol\":2468:2494  selectors[selectorIndex++] */\n  0x20\n  swap3\n  dup4\n  mul\n  swap2\n  swap1\n  swap2\n  add\n  swap1\n  swap2\n  add\n    /* \"imports/solidstate/contracts/proxy/diamond/SolidStateDiamond.sol\":2468:2531  selectors[selectorIndex++] = Ownable.transferOwnership.selector */\n  mstore\n  shl(0xe0, 0x79ba5097)\n    /* \"imports/solidstate/contracts/proxy/diamond/SolidStateDiamond.sol\":2541:2550  selectors */\n  dup3\n    /* \"imports/solidstate/contracts/proxy/diamond/SolidStateDiamond.sol\":2551:2566  selectorIndex++ */\n  dup3\n  tag_48\n  dup2\n  tag_9\n  jump\t// in\ntag_48:\n  swap4\n  pop\n    /* \"imports/solidstate/contracts/proxy/diamond/SolidStateDiamond.sol\":2541:2567  selectors[selectorIndex++] */\n  dup2\n  mload\n  dup2\n  lt\n  tag_50\n  jumpi\n  tag_50\n  tag_12\n  jump\t// in\ntag_50:\n  not(sub(shl(0xe0, 0x01), 0x01))\n    /* \"imports/solidstate/contracts/proxy/diamond/SolidStateDiamond.sol\":2541:2606  selectors[selectorIndex++] = SafeOwnable.acceptOwnership.selector */\n  swap1\n  swap3\n  and\n    /* \"imports/solidstate/contracts/proxy/diamond/SolidStateDiamond.sol\":2541:2567  selectors[selectorIndex++] */\n  0x20\n  swap3\n  dup4\n  mul\n  swap2\n  swap1\n  swap2\n  add\n  swap1\n  swap2\n  add\n    /* \"imports/solidstate/contracts/proxy/diamond/SolidStateDiamond.sol\":2541:2606  selectors[selectorIndex++] = SafeOwnable.acceptOwnership.selector */\n  mstore\n    /* \"imports/solidstate/contracts/proxy/diamond/SolidStateDiamond.sol\":2617:2671  _setSupportsInterface(type(IERC173).interfaceId, true) */\n  tag_51\n  shl(0xe4, 0x07f5828d)\n    /* \"imports/solidstate/contracts/proxy/diamond/SolidStateDiamond.sol\":2666:2670  true */\n  0x01\n    /* \"imports/solidstate/contracts/proxy/diamond/SolidStateDiamond.sol\":2617:2638  _setSupportsInterface */\n  tag_17\n    /* \"imports/solidstate/contracts/proxy/diamond/SolidStateDiamond.sol\":2617:2671  _setSupportsInterface(type(IERC173).interfaceId, true) */\n  jump\t// in\ntag_51:\n    /* \"imports/solidstate/contracts/proxy/diamond/SolidStateDiamond.sol\":2736:2753  new FacetCut[](1) */\n  0x40\n  dup1\n  mload\n    /* \"imports/solidstate/contracts/proxy/diamond/SolidStateDiamond.sol\":2751:2752  1 */\n  0x01\n    /* \"imports/solidstate/contracts/proxy/diamond/SolidStateDiamond.sol\":2736:2753  new FacetCut[](1) */\n  dup1\n  dup3\n  mstore\n  dup2\n  dup4\n  add\n  swap1\n  swap3\n  mstore\n    /* \"imports/solidstate/contracts/proxy/diamond/SolidStateDiamond.sol\":2706:2733  FacetCut[] memory facetCuts */\n  0x00\n  swap2\n    /* \"imports/solidstate/contracts/proxy/diamond/SolidStateDiamond.sol\":2736:2753  new FacetCut[](1) */\n  dup2\n  0x20\n  add\ntag_55:\n    /* \"diamonds/Diamond.sol\":152:182  contract Diamond is ERC2535 {} */\n  0x40\n  dup1\n  mload\n  0x60\n  dup1\n  dup3\n  add\n  dup4\n  mstore\n  0x00\n  dup1\n  dup4\n  mstore\n  0x20\n  dup4\n  add\n  mstore\n  swap2\n  dup2\n  add\n  swap2\n  swap1\n  swap2\n  mstore\n    /* \"imports/solidstate/contracts/proxy/diamond/SolidStateDiamond.sol\":2736:2753  new FacetCut[](1) */\n  dup2\n  mstore\n  0x20\n  add\n  swap1\n  0x01\n  swap1\n  sub\n  swap1\n  dup2\n  tag_55\n  jumpi\n  swap1\n  pop\n  pop\n    /* \"imports/solidstate/contracts/proxy/diamond/SolidStateDiamond.sol\":2779:2908  FacetCut({... */\n  0x40\n  dup1\n  mload\n  0x60\n  dup2\n  add\n  swap1\n  swap2\n  mstore\n    /* \"imports/solidstate/contracts/proxy/diamond/SolidStateDiamond.sol\":2818:2822  this */\n  address\n    /* \"imports/solidstate/contracts/proxy/diamond/SolidStateDiamond.sol\":2779:2908  FacetCut({... */\n  dup2\n  mstore\n    /* \"imports/solidstate/contracts/proxy/diamond/SolidStateDiamond.sol\":2706:2753  FacetCut[] memory facetCuts = new FacetCut[](1) */\n  swap1\n  swap2\n  pop\n    /* \"imports/solidstate/contracts/proxy/diamond/SolidStateDiamond.sol\":2779:2908  FacetCut({... */\n  0x20\n  dup2\n  add\n  0x00\n  dup2\n  mstore\n  0x20\n  add\n    /* \"imports/solidstate/contracts/proxy/diamond/SolidStateDiamond.sol\":2888:2897  selectors */\n  dup5\n    /* \"imports/solidstate/contracts/proxy/diamond/SolidStateDiamond.sol\":2779:2908  FacetCut({... */\n  dup2\n  mstore\n  pop\n    /* \"imports/solidstate/contracts/proxy/diamond/SolidStateDiamond.sol\":2764:2773  facetCuts */\n  dup2\n    /* \"imports/solidstate/contracts/proxy/diamond/SolidStateDiamond.sol\":2774:2775  0 */\n  0x00\n    /* \"imports/solidstate/contracts/proxy/diamond/SolidStateDiamond.sol\":2764:2776  facetCuts[0] */\n  dup2\n  mload\n  dup2\n  lt\n  tag_62\n  jumpi\n  tag_62\n  tag_12\n  jump\t// in\ntag_62:\n  0x20\n  mul\n  0x20\n  add\n  add\n    /* \"imports/solidstate/contracts/proxy/diamond/SolidStateDiamond.sol\":2764:2908  facetCuts[0] = FacetCut({... */\n  dup2\n  swap1\n  mstore\n  pop\n    /* \"imports/solidstate/contracts/proxy/diamond/SolidStateDiamond.sol\":2919:2957  _diamondCut(facetCuts, address(0), '') */\n  tag_63\n    /* \"imports/solidstate/contracts/proxy/diamond/SolidStateDiamond.sol\":2931:2940  facetCuts */\n  dup2\n    /* \"imports/solidstate/contracts/proxy/diamond/SolidStateDiamond.sol\":2950:2951  0 */\n  0x00\n    /* \"imports/solidstate/contracts/proxy/diamond/SolidStateDiamond.sol\":2919:2957  _diamondCut(facetCuts, address(0), '') */\n  mload(0x40)\n  dup1\n  0x20\n  add\n  0x40\n  mstore\n  dup1\n  0x00\n  dup2\n  mstore\n  pop\n    /* \"imports/solidstate/contracts/proxy/diamond/SolidStateDiamond.sol\":2919:2930  _diamondCut */\n  shl(0x20, tag_64)\n    /* \"imports/solidstate/contracts/proxy/diamond/SolidStateDiamond.sol\":2919:2957  _diamondCut(facetCuts, address(0), '') */\n  0x20\n  shr\n  jump\t// in\ntag_63:\n    /* \"imports/solidstate/contracts/proxy/diamond/SolidStateDiamond.sol\":2990:3011  _setOwner(msg.sender) */\n  tag_65\n    /* \"imports/solidstate/contracts/proxy/diamond/SolidStateDiamond.sol\":3000:3010  msg.sender */\n  caller\n    /* \"imports/solidstate/contracts/proxy/diamond/SolidStateDiamond.sol\":2990:2999  _setOwner */\n  tag_66\n    /* \"imports/solidstate/contracts/proxy/diamond/SolidStateDiamond.sol\":2990:3011  _setOwner(msg.sender) */\n  jump\t// in\ntag_65:\n    /* \"imports/solidstate/contracts/proxy/diamond/SolidStateDiamond.sol\":1070:3018  {... */\n  pop\n  pop\n  pop\n    /* \"diamonds/Diamond.sol\":152:182  contract Diamond is ERC2535 {} */\n  jump(tag_173)\n    /* \"imports/solidstate/contracts/introspection/ERC165/base/ERC165BaseInternal.sol\":907:1175  function _setSupportsInterface(... */\ntag_17:\n  not(sub(shl(0xe0, 0x01), 0x01))\n    /* \"imports/solidstate/contracts/introspection/ERC165/base/ERC165BaseInternal.sol\":1024:1049  interfaceId == 0xffffffff */\n  dup1\n  dup4\n  and\n  swap1\n  sub\n    /* \"imports/solidstate/contracts/introspection/ERC165/base/ERC165BaseInternal.sol\":1020:1090  if (interfaceId == 0xffffffff) revert ERC165Base__InvalidInterfaceId() */\n  tag_69\n  jumpi\n    /* \"imports/solidstate/contracts/introspection/ERC165/base/ERC165BaseInternal.sol\":1058:1090  ERC165Base__InvalidInterfaceId() */\n  mload(0x40)\n  shl(0xe0, 0xb0a19dd5)\n  dup2\n  mstore\n  0x04\n  add\n  mload(0x40)\n  dup1\n  swap2\n  sub\n  swap1\n  revert\n    /* \"imports/solidstate/contracts/introspection/ERC165/base/ERC165BaseInternal.sol\":1020:1090  if (interfaceId == 0xffffffff) revert ERC165Base__InvalidInterfaceId() */\ntag_69:\n  not(sub(shl(0xe0, 0x01), 0x01))\n    /* \"imports/solidstate/contracts/introspection/ERC165/base/ERC165BaseInternal.sol\":1100:1159  ERC165BaseStorage.layout().supportedInterfaces[interfaceId] */\n  swap2\n  swap1\n  swap2\n  and\n    /* \"imports/solidstate/contracts/introspection/ERC165/base/ERC165BaseInternal.sol\":1100:1146  ERC165BaseStorage.layout().supportedInterfaces */\n  0x00\n    /* \"imports/solidstate/contracts/introspection/ERC165/base/ERC165BaseInternal.sol\":1100:1159  ERC165BaseStorage.layout().supportedInterfaces[interfaceId] */\n  swap1\n  dup2\n  mstore\n    /* \"imports/solidstate/contracts/introspection/ERC165/base/ERC165BaseStorage.sol\":219:271  keccak256('solidstate.contracts.storage.ERC165Base') */\n  0xfc606c433378e3a7e0a6a531deac289b66caa1b4aa8554fd4ab2c6f1570f92d8\n    /* \"imports/solidstate/contracts/introspection/ERC165/base/ERC165BaseInternal.sol\":1100:1159  ERC165BaseStorage.layout().supportedInterfaces[interfaceId] */\n  0x20\n  mstore\n  0x40\n  swap1\n  keccak256\n    /* \"imports/solidstate/contracts/introspection/ERC165/base/ERC165BaseInternal.sol\":1100:1168  ERC165BaseStorage.layout().supportedInterfaces[interfaceId] = status */\n  dup1\n  sload\n  not(0xff)\n  and\n  swap2\n  iszero\n  iszero\n  swap2\n  swap1\n  swap2\n  or\n  swap1\n  sstore\n    /* \"imports/solidstate/contracts/introspection/ERC165/base/ERC165BaseInternal.sol\":907:1175  function _setSupportsInterface(... */\n  jump\t// out\n    /* \"imports/solidstate/contracts/proxy/diamond/writable/DiamondWritableInternal.sol\":849:2892  function _diamondCut(... */\ntag_64:\n    /* \"imports/solidstate/contracts/proxy/diamond/writable/DiamondWritableInternal.sol\":1123:1138  l.selectorCount */\n  sload(0x177481ac65e4292921c69f62d1cc7f57541261e5d61c8175cf4e36a01c9bfc94)\n    /* \"imports/solidstate/contracts/proxy/diamond/base/DiamondBaseStorage.sol\":584:637  keccak256('solidstate.contracts.storage.DiamondBase') */\n  0x177481ac65e4292921c69f62d1cc7f57541261e5d61c8175cf4e36a01c9bfc93\n  swap1\n    /* \"imports/solidstate/contracts/proxy/diamond/writable/DiamondWritableInternal.sol\":1123:1138  l.selectorCount */\n  0xffff\n  dup2\n  and\n  swap1\n  dup2\n  swap1\n    /* \"imports/solidstate/contracts/proxy/diamond/writable/DiamondWritableInternal.sol\":991:1026  DiamondBaseStorage.Layout storage l */\n  0x00\n  swap1\n    /* \"imports/solidstate/contracts/proxy/diamond/writable/DiamondWritableInternal.sol\":1321:1322  7 */\n  0x07\n    /* \"imports/solidstate/contracts/proxy/diamond/writable/DiamondWritableInternal.sol\":1305:1322  selectorCount & 7 */\n  and\n    /* \"imports/solidstate/contracts/proxy/diamond/writable/DiamondWritableInternal.sol\":1305:1326  selectorCount & 7 > 0 */\n  iszero\n    /* \"imports/solidstate/contracts/proxy/diamond/writable/DiamondWritableInternal.sol\":1301:1452  if (selectorCount & 7 > 0) {... */\n  tag_75\n  jumpi\n  pop\n    /* \"imports/solidstate/contracts/proxy/diamond/writable/DiamondWritableInternal.sol\":1435:1436  3 */\n  0x03\n    /* \"imports/solidstate/contracts/proxy/diamond/writable/DiamondWritableInternal.sol\":1418:1436  selectorCount >> 3 */\n  dup2\n  swap1\n  shr\n    /* \"imports/solidstate/contracts/proxy/diamond/writable/DiamondWritableInternal.sol\":1402:1437  l.selectorSlots[selectorCount >> 3] */\n  0x00\n  swap1\n  dup2\n  mstore\n    /* \"imports/solidstate/contracts/proxy/diamond/writable/DiamondWritableInternal.sol\":1402:1417  l.selectorSlots */\n  0x02\n  dup5\n  add\n    /* \"imports/solidstate/contracts/proxy/diamond/writable/DiamondWritableInternal.sol\":1402:1437  l.selectorSlots[selectorCount >> 3] */\n  0x20\n  mstore\n  0x40\n  swap1\n  keccak256\n  sload\n    /* \"imports/solidstate/contracts/proxy/diamond/writable/DiamondWritableInternal.sol\":1301:1452  if (selectorCount & 7 > 0) {... */\ntag_75:\n    /* \"imports/solidstate/contracts/proxy/diamond/writable/DiamondWritableInternal.sol\":1471:1480  uint256 i */\n  0x00\n    /* \"imports/solidstate/contracts/proxy/diamond/writable/DiamondWritableInternal.sol\":1466:2479  for (uint256 i; i < facetCuts.length; i++) {... */\ntag_76:\n    /* \"imports/solidstate/contracts/proxy/diamond/writable/DiamondWritableInternal.sol\":1486:1495  facetCuts */\n  dup8\n    /* \"imports/solidstate/contracts/proxy/diamond/writable/DiamondWritableInternal.sol\":1486:1502  facetCuts.length */\n  mload\n    /* \"imports/solidstate/contracts/proxy/diamond/writable/DiamondWritableInternal.sol\":1482:1483  i */\n  dup2\n    /* \"imports/solidstate/contracts/proxy/diamond/writable/DiamondWritableInternal.sol\":1482:1502  i < facetCuts.length */\n  lt\n    /* \"imports/solidstate/contracts/proxy/diamond/writable/DiamondWritableInternal.sol\":1466:2479  for (uint256 i; i < facetCuts.length; i++) {... */\n  iszero\n  tag_77\n  jumpi\n    /* \"imports/solidstate/contracts/proxy/diamond/writable/DiamondWritableInternal.sol\":1527:1551  FacetCut memory facetCut */\n  0x00\n    /* \"imports/solidstate/contracts/proxy/diamond/writable/DiamondWritableInternal.sol\":1554:1563  facetCuts */\n  dup9\n    /* \"imports/solidstate/contracts/proxy/diamond/writable/DiamondWritableInternal.sol\":1564:1565  i */\n  dup3\n    /* \"imports/solidstate/contracts/proxy/diamond/writable/DiamondWritableInternal.sol\":1554:1566  facetCuts[i] */\n  dup2\n  mload\n  dup2\n  lt\n  tag_80\n  jumpi\n  tag_80\n  tag_12\n  jump\t// in\ntag_80:\n  0x20\n  mul\n  0x20\n  add\n  add\n  mload\n    /* \"imports/solidstate/contracts/proxy/diamond/writable/DiamondWritableInternal.sol\":1527:1566  FacetCut memory facetCut = facetCuts[i] */\n  swap1\n  pop\n    /* \"imports/solidstate/contracts/proxy/diamond/writable/DiamondWritableInternal.sol\":1584:1605  FacetCutAction action */\n  0x00\n    /* \"imports/solidstate/contracts/proxy/diamond/writable/DiamondWritableInternal.sol\":1608:1616  facetCut */\n  dup2\n    /* \"imports/solidstate/contracts/proxy/diamond/writable/DiamondWritableInternal.sol\":1608:1623  facetCut.action */\n  0x20\n  add\n  mload\n    /* \"imports/solidstate/contracts/proxy/diamond/writable/DiamondWritableInternal.sol\":1584:1623  FacetCutAction action = facetCut.action */\n  swap1\n  pop\n    /* \"imports/solidstate/contracts/proxy/diamond/writable/DiamondWritableInternal.sol\":1646:1654  facetCut */\n  dup2\n    /* \"imports/solidstate/contracts/proxy/diamond/writable/DiamondWritableInternal.sol\":1646:1664  facetCut.selectors */\n  0x40\n  add\n  mload\n    /* \"imports/solidstate/contracts/proxy/diamond/writable/DiamondWritableInternal.sol\":1646:1671  facetCut.selectors.length */\n  mload\n    /* \"imports/solidstate/contracts/proxy/diamond/writable/DiamondWritableInternal.sol\":1675:1676  0 */\n  0x00\n    /* \"imports/solidstate/contracts/proxy/diamond/writable/DiamondWritableInternal.sol\":1646:1676  facetCut.selectors.length == 0 */\n  sub\n    /* \"imports/solidstate/contracts/proxy/diamond/writable/DiamondWritableInternal.sol\":1642:1744  if (facetCut.selectors.length == 0)... */\n  tag_81\n  jumpi\n    /* \"imports/solidstate/contracts/proxy/diamond/writable/DiamondWritableInternal.sol\":1705:1744  DiamondWritable__SelectorNotSpecified() */\n  mload(0x40)\n  shl(0xe0, 0xeb6c3aeb)\n  dup2\n  mstore\n  0x04\n  add\n  mload(0x40)\n  dup1\n  swap2\n  sub\n  swap1\n  revert\n    /* \"imports/solidstate/contracts/proxy/diamond/writable/DiamondWritableInternal.sol\":1642:1744  if (facetCut.selectors.length == 0)... */\ntag_81:\n    /* \"imports/solidstate/contracts/proxy/diamond/writable/DiamondWritableInternal.sol\":1777:1795  FacetCutAction.ADD */\n  0x00\n    /* \"imports/solidstate/contracts/proxy/diamond/writable/DiamondWritableInternal.sol\":1767:1773  action */\n  dup2\n    /* \"imports/solidstate/contracts/proxy/diamond/writable/DiamondWritableInternal.sol\":1767:1795  action == FacetCutAction.ADD */\n  0x02\n  dup2\n  gt\n  iszero\n  tag_85\n  jumpi\n  tag_85\n  tag_60\n  jump\t// in\ntag_85:\n  sub\n    /* \"imports/solidstate/contracts/proxy/diamond/writable/DiamondWritableInternal.sol\":1763:2465  if (action == FacetCutAction.ADD) {... */\n  tag_86\n  jumpi\n    /* \"imports/solidstate/contracts/proxy/diamond/writable/DiamondWritableInternal.sol\":1851:2029  _addFacetSelectors(... */\n  tag_87\n    /* \"imports/solidstate/contracts/proxy/diamond/writable/DiamondWritableInternal.sol\":1895:1896  l */\n  dup8\n    /* \"imports/solidstate/contracts/proxy/diamond/writable/DiamondWritableInternal.sol\":1922:1935  selectorCount */\n  dup7\n    /* \"imports/solidstate/contracts/proxy/diamond/writable/DiamondWritableInternal.sol\":1961:1973  selectorSlot */\n  dup7\n    /* \"imports/solidstate/contracts/proxy/diamond/writable/DiamondWritableInternal.sol\":1999:2007  facetCut */\n  dup6\n    /* \"imports/solidstate/contracts/proxy/diamond/writable/DiamondWritableInternal.sol\":1851:1869  _addFacetSelectors */\n  tag_88\n    /* \"imports/solidstate/contracts/proxy/diamond/writable/DiamondWritableInternal.sol\":1851:2029  _addFacetSelectors(... */\n  jump\t// in\ntag_87:\n    /* \"imports/solidstate/contracts/proxy/diamond/writable/DiamondWritableInternal.sol\":1819:2029  (selectorCount, selectorSlot) = _addFacetSelectors(... */\n  swap1\n  swap6\n  pop\n  swap4\n  pop\n    /* \"imports/solidstate/contracts/proxy/diamond/writable/DiamondWritableInternal.sol\":1763:2465  if (action == FacetCutAction.ADD) {... */\n  jump(tag_102)\ntag_86:\n    /* \"imports/solidstate/contracts/proxy/diamond/writable/DiamondWritableInternal.sol\":2068:2090  FacetCutAction.REPLACE */\n  0x01\n    /* \"imports/solidstate/contracts/proxy/diamond/writable/DiamondWritableInternal.sol\":2058:2064  action */\n  dup2\n    /* \"imports/solidstate/contracts/proxy/diamond/writable/DiamondWritableInternal.sol\":2058:2090  action == FacetCutAction.REPLACE */\n  0x02\n  dup2\n  gt\n  iszero\n  tag_93\n  jumpi\n  tag_93\n  tag_60\n  jump\t// in\ntag_93:\n  sub\n    /* \"imports/solidstate/contracts/proxy/diamond/writable/DiamondWritableInternal.sol\":2054:2465  if (action == FacetCutAction.REPLACE) {... */\n  tag_94\n  jumpi\n    /* \"imports/solidstate/contracts/proxy/diamond/writable/DiamondWritableInternal.sol\":2114:2149  _replaceFacetSelectors(l, facetCut) */\n  tag_95\n    /* \"imports/solidstate/contracts/proxy/diamond/writable/DiamondWritableInternal.sol\":2137:2138  l */\n  dup8\n    /* \"imports/solidstate/contracts/proxy/diamond/writable/DiamondWritableInternal.sol\":2140:2148  facetCut */\n  dup4\n    /* \"imports/solidstate/contracts/proxy/diamond/writable/DiamondWritableInternal.sol\":2114:2136  _replaceFacetSelectors */\n  tag_96\n    /* \"imports/solidstate/contracts/proxy/diamond/writable/DiamondWritableInternal.sol\":2114:2149  _replaceFacetSelectors(l, facetCut) */\n  jump\t// in\ntag_95:\n    /* \"imports/solidstate/contracts/proxy/diamond/writable/DiamondWritableInternal.sol\":2054:2465  if (action == FacetCutAction.REPLACE) {... */\n  jump(tag_102)\ntag_94:\n    /* \"imports/solidstate/contracts/proxy/diamond/writable/DiamondWritableInternal.sol\":2188:2209  FacetCutAction.REMOVE */\n  0x02\n    /* \"imports/solidstate/contracts/proxy/diamond/writable/DiamondWritableInternal.sol\":2178:2184  action */\n  dup2\n    /* \"imports/solidstate/contracts/proxy/diamond/writable/DiamondWritableInternal.sol\":2178:2209  action == FacetCutAction.REMOVE */\n  0x02\n  dup2\n  gt\n  iszero\n  tag_101\n  jumpi\n  tag_101\n  tag_60\n  jump\t// in\ntag_101:\n  sub\n    /* \"imports/solidstate/contracts/proxy/diamond/writable/DiamondWritableInternal.sol\":2174:2465  if (action == FacetCutAction.REMOVE) {... */\n  tag_102\n  jumpi\n    /* \"imports/solidstate/contracts/proxy/diamond/writable/DiamondWritableInternal.sol\":2265:2446  _removeFacetSelectors(... */\n  tag_103\n    /* \"imports/solidstate/contracts/proxy/diamond/writable/DiamondWritableInternal.sol\":2312:2313  l */\n  dup8\n    /* \"imports/solidstate/contracts/proxy/diamond/writable/DiamondWritableInternal.sol\":2339:2352  selectorCount */\n  dup7\n    /* \"imports/solidstate/contracts/proxy/diamond/writable/DiamondWritableInternal.sol\":2378:2390  selectorSlot */\n  dup7\n    /* \"imports/solidstate/contracts/proxy/diamond/writable/DiamondWritableInternal.sol\":2416:2424  facetCut */\n  dup6\n    /* \"imports/solidstate/contracts/proxy/diamond/writable/DiamondWritableInternal.sol\":2265:2286  _removeFacetSelectors */\n  tag_104\n    /* \"imports/solidstate/contracts/proxy/diamond/writable/DiamondWritableInternal.sol\":2265:2446  _removeFacetSelectors(... */\n  jump\t// in\ntag_103:\n    /* \"imports/solidstate/contracts/proxy/diamond/writable/DiamondWritableInternal.sol\":2233:2446  (selectorCount, selectorSlot) = _removeFacetSelectors(... */\n  swap1\n  swap6\n  pop\n  swap4\n  pop\n    /* \"imports/solidstate/contracts/proxy/diamond/writable/DiamondWritableInternal.sol\":2174:2465  if (action == FacetCutAction.REMOVE) {... */\ntag_102:\n  pop\n  pop\n    /* \"imports/solidstate/contracts/proxy/diamond/writable/DiamondWritableInternal.sol\":1504:1507  i++ */\n  0x01\n  add\n    /* \"imports/solidstate/contracts/proxy/diamond/writable/DiamondWritableInternal.sol\":1466:2479  for (uint256 i; i < facetCuts.length; i++) {... */\n  jump(tag_76)\ntag_77:\n  pop\n    /* \"imports/solidstate/contracts/proxy/diamond/writable/DiamondWritableInternal.sol\":2514:2535  originalSelectorCount */\n  dup3\n    /* \"imports/solidstate/contracts/proxy/diamond/writable/DiamondWritableInternal.sol\":2497:2510  selectorCount */\n  dup3\n    /* \"imports/solidstate/contracts/proxy/diamond/writable/DiamondWritableInternal.sol\":2497:2535  selectorCount != originalSelectorCount */\n  eq\n    /* \"imports/solidstate/contracts/proxy/diamond/writable/DiamondWritableInternal.sol\":2493:2609  if (selectorCount != originalSelectorCount) {... */\n  tag_105\n  jumpi\n    /* \"imports/solidstate/contracts/proxy/diamond/writable/DiamondWritableInternal.sol\":2555:2570  l.selectorCount */\n  0x01\n  dup5\n  add\n    /* \"imports/solidstate/contracts/proxy/diamond/writable/DiamondWritableInternal.sol\":2555:2594  l.selectorCount = uint16(selectorCount) */\n  dup1\n  sload\n  not(0xffff)\n  and\n  0xffff\n  dup5\n  and\n  or\n  swap1\n  sstore\n    /* \"imports/solidstate/contracts/proxy/diamond/writable/DiamondWritableInternal.sol\":2493:2609  if (selectorCount != originalSelectorCount) {... */\ntag_105:\n    /* \"imports/solidstate/contracts/proxy/diamond/writable/DiamondWritableInternal.sol\":2692:2693  7 */\n  0x07\n    /* \"imports/solidstate/contracts/proxy/diamond/writable/DiamondWritableInternal.sol\":2676:2693  selectorCount & 7 */\n  dup3\n  and\n    /* \"imports/solidstate/contracts/proxy/diamond/writable/DiamondWritableInternal.sol\":2676:2697  selectorCount & 7 > 0 */\n  iszero\n    /* \"imports/solidstate/contracts/proxy/diamond/writable/DiamondWritableInternal.sol\":2672:2782  if (selectorCount & 7 > 0) {... */\n  tag_106\n  jumpi\n    /* \"imports/solidstate/contracts/proxy/diamond/writable/DiamondWritableInternal.sol\":2750:2751  3 */\n  0x03\n    /* \"imports/solidstate/contracts/proxy/diamond/writable/DiamondWritableInternal.sol\":2733:2751  selectorCount >> 3 */\n  dup3\n  swap1\n  shr\n    /* \"imports/solidstate/contracts/proxy/diamond/writable/DiamondWritableInternal.sol\":2717:2752  l.selectorSlots[selectorCount >> 3] */\n  0x00\n  swap1\n  dup2\n  mstore\n    /* \"imports/solidstate/contracts/proxy/diamond/writable/DiamondWritableInternal.sol\":2717:2732  l.selectorSlots */\n  0x02\n  dup6\n  add\n    /* \"imports/solidstate/contracts/proxy/diamond/writable/DiamondWritableInternal.sol\":2717:2752  l.selectorSlots[selectorCount >> 3] */\n  0x20\n  mstore\n  0x40\n  swap1\n  keccak256\n    /* \"imports/solidstate/contracts/proxy/diamond/writable/DiamondWritableInternal.sol\":2717:2767  l.selectorSlots[selectorCount >> 3] = selectorSlot */\n  dup2\n  swap1\n  sstore\n    /* \"imports/solidstate/contracts/proxy/diamond/writable/DiamondWritableInternal.sol\":2672:2782  if (selectorCount & 7 > 0) {... */\ntag_106:\n    /* \"imports/solidstate/contracts/proxy/diamond/writable/DiamondWritableInternal.sol\":2801:2836  DiamondCut(facetCuts, target, data) */\n  0x8faa70878671ccd212d20771b795c50af8fd3ff6cf27f4bde57e5d4de0aeb673\n    /* \"imports/solidstate/contracts/proxy/diamond/writable/DiamondWritableInternal.sol\":2812:2821  facetCuts */\n  dup8\n    /* \"imports/solidstate/contracts/proxy/diamond/writable/DiamondWritableInternal.sol\":2823:2829  target */\n  dup8\n    /* \"imports/solidstate/contracts/proxy/diamond/writable/DiamondWritableInternal.sol\":2831:2835  data */\n  dup8\n    /* \"imports/solidstate/contracts/proxy/diamond/writable/DiamondWritableInternal.sol\":2801:2836  DiamondCut(facetCuts, target, data) */\n  mload(0x40)\n  tag_107\n  swap4\n  swap3\n  swap2\n  swap1\n  tag_108\n  jump\t// in\ntag_107:\n  mload(0x40)\n  dup1\n  swap2\n  sub\n  swap1\n  log1\n    /* \"imports/solidstate/contracts/proxy/diamond/writable/DiamondWritableInternal.sol\":2850:2875  _initialize(target, data) */\n  tag_109\n    /* \"imports/solidstate/contracts/proxy/diamond/writable/DiamondWritableInternal.sol\":2862:2868  target */\n  dup7\n    /* \"imports/solidstate/contracts/proxy/diamond/writable/DiamondWritableInternal.sol\":2870:2874  data */\n  dup7\n    /* \"imports/solidstate/contracts/proxy/diamond/writable/DiamondWritableInternal.sol\":2850:2861  _initialize */\n  tag_110\n    /* \"imports/solidstate/contracts/proxy/diamond/writable/DiamondWritableInternal.sol\":2850:2875  _initialize(target, data) */\n  jump\t// in\ntag_109:\n    /* \"imports/solidstate/contracts/proxy/diamond/writable/DiamondWritableInternal.sol\":1067:2886  unchecked {... */\n  pop\n  pop\n  pop\n    /* \"imports/solidstate/contracts/proxy/diamond/writable/DiamondWritableInternal.sol\":981:2892  {... */\n  pop\n    /* \"imports/solidstate/contracts/proxy/diamond/writable/DiamondWritableInternal.sol\":849:2892  function _diamondCut(... */\n  pop\n  pop\n  pop\n  jump\t// out\n    /* \"imports/solidstate/contracts/access/ownable/OwnableInternal.sol\":1203:1410  function _setOwner(address account) internal virtual {... */\ntag_66:\n    /* \"imports/solidstate/contracts/access/ownable/OwnableStorage.sol\":186:235  keccak256('solidstate.contracts.storage.Ownable') */\n  0x8a22373512790c48b83a1fe2efdd2888d4a917bcdc24d0adf63e60f671680460\n    /* \"imports/solidstate/contracts/access/ownable/OwnableInternal.sol\":1359:1366  l.owner */\n  dup1\n  sload\n    /* \"imports/solidstate/contracts/access/ownable/OwnableInternal.sol\":1338:1376  OwnershipTransferred(l.owner, account) */\n  mload(0x40)\n  sub(shl(0xa0, 0x01), 0x01)\n  dup5\n  dup2\n  and\n  swap3\n    /* \"imports/solidstate/contracts/access/ownable/OwnableInternal.sol\":1359:1366  l.owner */\n  and\n  swap1\n    /* \"imports/solidstate/contracts/access/ownable/OwnableInternal.sol\":1338:1376  OwnershipTransferred(l.owner, account) */\n  0x8be0079c531659141344cd1fd0a4f28419497f9722a3daafe3b4186f6b6457e0\n  swap1\n    /* \"imports/solidstate/contracts/access/ownable/OwnableInternal.sol\":1266:1297  OwnableStorage.Layout storage l */\n  0x00\n  swap1\n    /* \"imports/solidstate/contracts/access/ownable/OwnableInternal.sol\":1338:1376  OwnershipTransferred(l.owner, account) */\n  log3\n    /* \"imports/solidstate/contracts/access/ownable/OwnableInternal.sol\":1386:1403  l.owner = account */\n  dup1\n  sload\n  not(sub(shl(0xa0, 0x01), 0x01))\n  and\n  sub(shl(0xa0, 0x01), 0x01)\n  swap3\n  swap1\n  swap3\n  and\n  swap2\n  swap1\n  swap2\n  or\n  swap1\n  sstore\n    /* \"imports/solidstate/contracts/access/ownable/OwnableInternal.sol\":1203:1410  function _setOwner(address account) internal virtual {... */\n  jump\t// out\n    /* \"imports/solidstate/contracts/proxy/diamond/writable/DiamondWritableInternal.sol\":2898:4493  function _addFacetSelectors(... */\ntag_88:\n    /* \"imports/solidstate/contracts/proxy/diamond/writable/DiamondWritableInternal.sol\":3163:3178  facetCut.target */\n  dup1\n  mload\n    /* \"imports/solidstate/contracts/proxy/diamond/writable/DiamondWritableInternal.sol\":3090:3097  uint256 */\n  0x00\n  swap1\n  dup2\n  swap1\n  sub(shl(0xa0, 0x01), 0x01)\n    /* \"imports/solidstate/contracts/proxy/diamond/writable/DiamondWritableInternal.sol\":3163:3195  facetCut.target != address(this) */\n  and\n    /* \"imports/solidstate/contracts/proxy/diamond/writable/DiamondWritableInternal.sol\":3190:3194  this */\n  address\n    /* \"imports/solidstate/contracts/proxy/diamond/writable/DiamondWritableInternal.sol\":3163:3195  facetCut.target != address(this) */\n  eq\n  dup1\n  iszero\n  swap1\n    /* \"imports/solidstate/contracts/proxy/diamond/writable/DiamondWritableInternal.sol\":3163:3244  facetCut.target != address(this) &&... */\n  tag_117\n  jumpi\n  pop\n    /* \"imports/solidstate/contracts/proxy/diamond/writable/DiamondWritableInternal.sol\":3216:3231  facetCut.target */\n  dup3\n  mload\n  sub(shl(0xa0, 0x01), 0x01)\n    /* \"imports/solidstate/contracts/proxy/diamond/writable/DiamondWritableInternal.sol\":3216:3242  facetCut.target.isContract */\n  and\n    /* \"imports/solidstate/contracts/utils/AddressUtils.sol\":568:588  extcodesize(account) */\n  extcodesize\n    /* \"imports/solidstate/contracts/utils/AddressUtils.sol\":614:622  size > 0 */\n  iszero\n    /* \"imports/solidstate/contracts/proxy/diamond/writable/DiamondWritableInternal.sol\":3163:3244  facetCut.target != address(this) &&... */\ntag_117:\n    /* \"imports/solidstate/contracts/proxy/diamond/writable/DiamondWritableInternal.sol\":3142:3300  if (... */\n  iszero\n  tag_120\n  jumpi\n    /* \"imports/solidstate/contracts/proxy/diamond/writable/DiamondWritableInternal.sol\":3266:3300  DiamondWritable__TargetHasNoCode() */\n  mload(0x40)\n  shl(0xe2, 0x3ddc5cab)\n  dup2\n  mstore\n  0x04\n  add\n  mload(0x40)\n  dup1\n  swap2\n  sub\n  swap1\n  revert\n    /* \"imports/solidstate/contracts/proxy/diamond/writable/DiamondWritableInternal.sol\":3142:3300  if (... */\ntag_120:\n    /* \"imports/solidstate/contracts/proxy/diamond/writable/DiamondWritableInternal.sol\":3320:3329  uint256 i */\n  0x00\n    /* \"imports/solidstate/contracts/proxy/diamond/writable/DiamondWritableInternal.sol\":3315:4426  for (uint256 i; i < facetCut.selectors.length; i++) {... */\ntag_121:\n    /* \"imports/solidstate/contracts/proxy/diamond/writable/DiamondWritableInternal.sol\":3335:3343  facetCut */\n  dup4\n    /* \"imports/solidstate/contracts/proxy/diamond/writable/DiamondWritableInternal.sol\":3335:3353  facetCut.selectors */\n  0x40\n  add\n  mload\n    /* \"imports/solidstate/contracts/proxy/diamond/writable/DiamondWritableInternal.sol\":3335:3360  facetCut.selectors.length */\n  mload\n    /* \"imports/solidstate/contracts/proxy/diamond/writable/DiamondWritableInternal.sol\":3331:3332  i */\n  dup2\n    /* \"imports/solidstate/contracts/proxy/diamond/writable/DiamondWritableInternal.sol\":3331:3360  i < facetCut.selectors.length */\n  lt\n    /* \"imports/solidstate/contracts/proxy/diamond/writable/DiamondWritableInternal.sol\":3315:4426  for (uint256 i; i < facetCut.selectors.length; i++) {... */\n  iszero\n  tag_122\n  jumpi\n    /* \"imports/solidstate/contracts/proxy/diamond/writable/DiamondWritableInternal.sol\":3385:3400  bytes4 selector */\n  0x00\n    /* \"imports/solidstate/contracts/proxy/diamond/writable/DiamondWritableInternal.sol\":3403:3411  facetCut */\n  dup5\n    /* \"imports/solidstate/contracts/proxy/diamond/writable/DiamondWritableInternal.sol\":3403:3421  facetCut.selectors */\n  0x40\n  add\n  mload\n    /* \"imports/solidstate/contracts/proxy/diamond/writable/DiamondWritableInternal.sol\":3422:3423  i */\n  dup3\n    /* \"imports/solidstate/contracts/proxy/diamond/writable/DiamondWritableInternal.sol\":3403:3424  facetCut.selectors[i] */\n  dup2\n  mload\n  dup2\n  lt\n  tag_125\n  jumpi\n  tag_125\n  tag_12\n  jump\t// in\ntag_125:\n  0x20\n  swap1\n  dup2\n  mul\n  swap2\n  swap1\n  swap2\n  add\n  dup2\n  add\n  mload\n  not(sub(shl(0xe0, 0x01), 0x01))\n    /* \"imports/solidstate/contracts/proxy/diamond/writable/DiamondWritableInternal.sol\":3461:3479  l.facets[selector] */\n  dup2\n  and\n    /* \"imports/solidstate/contracts/proxy/diamond/writable/DiamondWritableInternal.sol\":3442:3458  bytes32 oldFacet */\n  0x00\n    /* \"imports/solidstate/contracts/proxy/diamond/writable/DiamondWritableInternal.sol\":3461:3479  l.facets[selector] */\n  swap1\n  dup2\n  mstore\n  swap2\n  dup11\n  swap1\n  mstore\n  0x40\n  swap1\n  swap2\n  keccak256\n  sload\n    /* \"imports/solidstate/contracts/proxy/diamond/writable/DiamondWritableInternal.sol\":3403:3424  facetCut.selectors[i] */\n  swap1\n  swap2\n  pop\n    /* \"imports/solidstate/contracts/proxy/diamond/writable/DiamondWritableInternal.sol\":3502:3528  address(bytes20(oldFacet)) */\n  0x60\n  dup2\n  swap1\n  shr\n    /* \"imports/solidstate/contracts/proxy/diamond/writable/DiamondWritableInternal.sol\":3502:3542  address(bytes20(oldFacet)) != address(0) */\n  iszero\n    /* \"imports/solidstate/contracts/proxy/diamond/writable/DiamondWritableInternal.sol\":3498:3610  if (address(bytes20(oldFacet)) != address(0))... */\n  tag_126\n  jumpi\n    /* \"imports/solidstate/contracts/proxy/diamond/writable/DiamondWritableInternal.sol\":3571:3610  DiamondWritable__SelectorAlreadyAdded() */\n  mload(0x40)\n  shl(0xe1, 0x4923a771)\n  dup2\n  mstore\n  0x04\n  add\n  mload(0x40)\n  dup1\n  swap2\n  sub\n  swap1\n  revert\n    /* \"imports/solidstate/contracts/proxy/diamond/writable/DiamondWritableInternal.sol\":3498:3610  if (address(bytes20(oldFacet)) != address(0))... */\ntag_126:\n    /* \"imports/solidstate/contracts/proxy/diamond/writable/DiamondWritableInternal.sol\":3720:3735  facetCut.target */\n  dup6\n  mload\n  not(sub(shl(0xe0, 0x01), 0x01))\n    /* \"imports/solidstate/contracts/proxy/diamond/writable/DiamondWritableInternal.sol\":3671:3689  l.facets[selector] */\n  dup4\n  dup2\n  and\n    /* \"imports/solidstate/contracts/proxy/diamond/writable/DiamondWritableInternal.sol\":3759:3781  bytes32(selectorCount) */\n  0x00\n    /* \"imports/solidstate/contracts/proxy/diamond/writable/DiamondWritableInternal.sol\":3671:3689  l.facets[selector] */\n  dup2\n  dup2\n  mstore\n  0x20\n  dup14\n  swap1\n  mstore\n  0x40\n  swap1\n  keccak256\n    /* \"imports/solidstate/contracts/proxy/diamond/writable/DiamondWritableInternal.sol\":3712:3736  bytes20(facetCut.target) */\n  0x60\n  swap4\n  swap1\n  swap4\n  shl\n  not(sub(shl(0x60, 0x01), 0x01))\n    /* \"imports/solidstate/contracts/proxy/diamond/writable/DiamondWritableInternal.sol\":3712:3781  bytes20(facetCut.target) |... */\n  and\n  dup12\n  or\n    /* \"imports/solidstate/contracts/proxy/diamond/writable/DiamondWritableInternal.sol\":3671:3781  l.facets[selector] =... */\n  swap1\n  swap3\n  sstore\n    /* \"imports/solidstate/contracts/proxy/diamond/writable/DiamondWritableInternal.sol\":3855:3856  5 */\n  0x05\n    /* \"imports/solidstate/contracts/proxy/diamond/writable/DiamondWritableInternal.sol\":3832:3856  (selectorCount & 7) << 5 */\n  dup11\n  swap1\n  shl\n  0xe0\n  swap1\n  dup2\n  and\n    /* \"imports/solidstate/contracts/proxy/diamond/writable/DiamondWritableInternal.sol\":4091:4134  bytes32(selector) >> selectorInSlotPosition */\n  swap3\n  dup4\n  shr\n    /* \"imports/solidstate/contracts/proxy/diamond/writable/DiamondWritableInternal.sol\":4020:4065  CLEAR_SELECTOR_MASK >> selectorInSlotPosition */\n  swap2\n  dup4\n  shr\n    /* \"imports/solidstate/contracts/proxy/diamond/writable/DiamondWritableInternal.sol\":4018:4066  ~(CLEAR_SELECTOR_MASK >> selectorInSlotPosition) */\n  not\n    /* \"imports/solidstate/contracts/proxy/diamond/writable/DiamondWritableInternal.sol\":3979:4066  selectorSlot &... */\n  swap10\n  swap1\n  swap10\n  and\n    /* \"imports/solidstate/contracts/proxy/diamond/writable/DiamondWritableInternal.sol\":3978:4135  (selectorSlot &... */\n  or\n  swap8\n    /* \"imports/solidstate/contracts/proxy/diamond/writable/DiamondWritableInternal.sol\":4218:4247  selectorInSlotPosition == 224 */\n  dup2\n  swap1\n  sub\n    /* \"imports/solidstate/contracts/proxy/diamond/writable/DiamondWritableInternal.sol\":4214:4378  if (selectorInSlotPosition == 224) {... */\n  tag_127\n  jumpi\n    /* \"imports/solidstate/contracts/proxy/diamond/writable/DiamondWritableInternal.sol\":4304:4305  3 */\n  0x03\n    /* \"imports/solidstate/contracts/proxy/diamond/writable/DiamondWritableInternal.sol\":4287:4305  selectorCount >> 3 */\n  dup10\n  swap1\n  shr\n    /* \"imports/solidstate/contracts/proxy/diamond/writable/DiamondWritableInternal.sol\":4271:4306  l.selectorSlots[selectorCount >> 3] */\n  0x00\n  swap1\n  dup2\n  mstore\n    /* \"imports/solidstate/contracts/proxy/diamond/writable/DiamondWritableInternal.sol\":4271:4286  l.selectorSlots */\n  0x02\n  dup12\n  add\n    /* \"imports/solidstate/contracts/proxy/diamond/writable/DiamondWritableInternal.sol\":4271:4306  l.selectorSlots[selectorCount >> 3] */\n  0x20\n  mstore\n  0x40\n  dup2\n  keccak256\n    /* \"imports/solidstate/contracts/proxy/diamond/writable/DiamondWritableInternal.sol\":4271:4321  l.selectorSlots[selectorCount >> 3] = selectorSlot */\n  swap9\n  swap1\n  swap9\n  sstore\n    /* \"imports/solidstate/contracts/proxy/diamond/writable/DiamondWritableInternal.sol\":4214:4378  if (selectorInSlotPosition == 224) {... */\ntag_127:\n  pop\n  pop\n  pop\n    /* \"imports/solidstate/contracts/proxy/diamond/writable/DiamondWritableInternal.sol\":4396:4411  selectorCount++ */\n  0x01\n  swap6\n  dup7\n  add\n  swap6\n    /* \"imports/solidstate/contracts/proxy/diamond/writable/DiamondWritableInternal.sol\":3362:3365  i++ */\n  add\n    /* \"imports/solidstate/contracts/proxy/diamond/writable/DiamondWritableInternal.sol\":3315:4426  for (uint256 i; i < facetCut.selectors.length; i++) {... */\n  jump(tag_121)\ntag_122:\n  pop\n    /* \"imports/solidstate/contracts/proxy/diamond/writable/DiamondWritableInternal.sol\":4448:4461  selectorCount */\n  swap4\n  swap6\n    /* \"imports/solidstate/contracts/proxy/diamond/writable/DiamondWritableInternal.sol\":4463:4475  selectorSlot */\n  swap3\n  swap5\n  pop\n    /* \"imports/solidstate/contracts/proxy/diamond/writable/DiamondWritableInternal.sol\":2898:4493  function _addFacetSelectors(... */\n  swap2\n  swap3\n  pop\n  pop\n  pop\n  jump\t// out\n    /* \"imports/solidstate/contracts/proxy/diamond/writable/DiamondWritableInternal.sol\":8179:9259  function _replaceFacetSelectors(... */\ntag_96:\n    /* \"imports/solidstate/contracts/proxy/diamond/writable/DiamondWritableInternal.sol\":8344:8359  facetCut.target */\n  dup1\n  mload\n  sub(shl(0xa0, 0x01), 0x01)\n    /* \"imports/solidstate/contracts/proxy/diamond/writable/DiamondWritableInternal.sol\":8344:8370  facetCut.target.isContract */\n  and\n    /* \"imports/solidstate/contracts/utils/AddressUtils.sol\":568:588  extcodesize(account) */\n  extcodesize\n    /* \"imports/solidstate/contracts/proxy/diamond/writable/DiamondWritableInternal.sol\":8339:8431  if (!facetCut.target.isContract())... */\n  tag_130\n  jumpi\n    /* \"imports/solidstate/contracts/proxy/diamond/writable/DiamondWritableInternal.sol\":8397:8431  DiamondWritable__TargetHasNoCode() */\n  mload(0x40)\n  shl(0xe2, 0x3ddc5cab)\n  dup2\n  mstore\n  0x04\n  add\n  mload(0x40)\n  dup1\n  swap2\n  sub\n  swap1\n  revert\n    /* \"imports/solidstate/contracts/proxy/diamond/writable/DiamondWritableInternal.sol\":8339:8431  if (!facetCut.target.isContract())... */\ntag_130:\n    /* \"imports/solidstate/contracts/proxy/diamond/writable/DiamondWritableInternal.sol\":8451:8460  uint256 i */\n  0x00\n    /* \"imports/solidstate/contracts/proxy/diamond/writable/DiamondWritableInternal.sol\":8446:9243  for (uint256 i; i < facetCut.selectors.length; i++) {... */\ntag_131:\n    /* \"imports/solidstate/contracts/proxy/diamond/writable/DiamondWritableInternal.sol\":8466:8474  facetCut */\n  dup2\n    /* \"imports/solidstate/contracts/proxy/diamond/writable/DiamondWritableInternal.sol\":8466:8484  facetCut.selectors */\n  0x40\n  add\n  mload\n    /* \"imports/solidstate/contracts/proxy/diamond/writable/DiamondWritableInternal.sol\":8466:8491  facetCut.selectors.length */\n  mload\n    /* \"imports/solidstate/contracts/proxy/diamond/writable/DiamondWritableInternal.sol\":8462:8463  i */\n  dup2\n    /* \"imports/solidstate/contracts/proxy/diamond/writable/DiamondWritableInternal.sol\":8462:8491  i < facetCut.selectors.length */\n  lt\n    /* \"imports/solidstate/contracts/proxy/diamond/writable/DiamondWritableInternal.sol\":8446:9243  for (uint256 i; i < facetCut.selectors.length; i++) {... */\n  iszero\n  tag_132\n  jumpi\n    /* \"imports/solidstate/contracts/proxy/diamond/writable/DiamondWritableInternal.sol\":8516:8531  bytes4 selector */\n  0x00\n    /* \"imports/solidstate/contracts/proxy/diamond/writable/DiamondWritableInternal.sol\":8534:8542  facetCut */\n  dup3\n    /* \"imports/solidstate/contracts/proxy/diamond/writable/DiamondWritableInternal.sol\":8534:8552  facetCut.selectors */\n  0x40\n  add\n  mload\n    /* \"imports/solidstate/contracts/proxy/diamond/writable/DiamondWritableInternal.sol\":8553:8554  i */\n  dup3\n    /* \"imports/solidstate/contracts/proxy/diamond/writable/DiamondWritableInternal.sol\":8534:8555  facetCut.selectors[i] */\n  dup2\n  mload\n  dup2\n  lt\n  tag_135\n  jumpi\n  tag_135\n  tag_12\n  jump\t// in\ntag_135:\n  0x20\n  swap1\n  dup2\n  mul\n  swap2\n  swap1\n  swap2\n  add\n  dup2\n  add\n  mload\n  not(sub(shl(0xe0, 0x01), 0x01))\n    /* \"imports/solidstate/contracts/proxy/diamond/writable/DiamondWritableInternal.sol\":8592:8610  l.facets[selector] */\n  dup2\n  and\n    /* \"imports/solidstate/contracts/proxy/diamond/writable/DiamondWritableInternal.sol\":8573:8589  bytes32 oldFacet */\n  0x00\n    /* \"imports/solidstate/contracts/proxy/diamond/writable/DiamondWritableInternal.sol\":8592:8610  l.facets[selector] */\n  swap1\n  dup2\n  mstore\n  swap2\n  dup7\n  swap1\n  mstore\n  0x40\n  swap1\n  swap2\n  keccak256\n  sload\n    /* \"imports/solidstate/contracts/proxy/diamond/writable/DiamondWritableInternal.sol\":8534:8555  facetCut.selectors[i] */\n  swap1\n  swap2\n  pop\n    /* \"imports/solidstate/contracts/proxy/diamond/writable/DiamondWritableInternal.sol\":8654:8680  address(bytes20(oldFacet)) */\n  0x60\n  dup2\n  swap1\n  shr\n  dup1\n    /* \"imports/solidstate/contracts/proxy/diamond/writable/DiamondWritableInternal.sol\":8699:8796  if (oldFacetAddress == address(0))... */\n  tag_136\n  jumpi\n    /* \"imports/solidstate/contracts/proxy/diamond/writable/DiamondWritableInternal.sol\":8761:8796  DiamondWritable__SelectorNotFound() */\n  mload(0x40)\n  shl(0xe1, 0x37e25a97)\n  dup2\n  mstore\n  0x04\n  add\n  mload(0x40)\n  dup1\n  swap2\n  sub\n  swap1\n  revert\n    /* \"imports/solidstate/contracts/proxy/diamond/writable/DiamondWritableInternal.sol\":8699:8796  if (oldFacetAddress == address(0))... */\ntag_136:\n    /* \"imports/solidstate/contracts/proxy/diamond/writable/DiamondWritableInternal.sol\":8845:8849  this */\n  address\n  sub(shl(0xa0, 0x01), 0x01)\n    /* \"imports/solidstate/contracts/proxy/diamond/writable/DiamondWritableInternal.sol\":8818:8850  oldFacetAddress == address(this) */\n  dup3\n  and\n  sub\n    /* \"imports/solidstate/contracts/proxy/diamond/writable/DiamondWritableInternal.sol\":8814:8917  if (oldFacetAddress == address(this))... */\n  tag_137\n  jumpi\n    /* \"imports/solidstate/contracts/proxy/diamond/writable/DiamondWritableInternal.sol\":8879:8917  DiamondWritable__SelectorIsImmutable() */\n  mload(0x40)\n  shl(0xe0, 0xe9835731)\n  dup2\n  mstore\n  0x04\n  add\n  mload(0x40)\n  dup1\n  swap2\n  sub\n  swap1\n  revert\n    /* \"imports/solidstate/contracts/proxy/diamond/writable/DiamondWritableInternal.sol\":8814:8917  if (oldFacetAddress == address(this))... */\ntag_137:\n    /* \"imports/solidstate/contracts/proxy/diamond/writable/DiamondWritableInternal.sol\":8958:8966  facetCut */\n  dup5\n    /* \"imports/solidstate/contracts/proxy/diamond/writable/DiamondWritableInternal.sol\":8958:8973  facetCut.target */\n  0x00\n  add\n  mload\n  sub(shl(0xa0, 0x01), 0x01)\n    /* \"imports/solidstate/contracts/proxy/diamond/writable/DiamondWritableInternal.sol\":8939:8973  oldFacetAddress == facetCut.target */\n  and\n    /* \"imports/solidstate/contracts/proxy/diamond/writable/DiamondWritableInternal.sol\":8939:8954  oldFacetAddress */\n  dup2\n  sub(shl(0xa0, 0x01), 0x01)\n    /* \"imports/solidstate/contracts/proxy/diamond/writable/DiamondWritableInternal.sol\":8939:8973  oldFacetAddress == facetCut.target */\n  and\n  sub\n    /* \"imports/solidstate/contracts/proxy/diamond/writable/DiamondWritableInternal.sol\":8935:9045  if (oldFacetAddress == facetCut.target)... */\n  tag_138\n  jumpi\n    /* \"imports/solidstate/contracts/proxy/diamond/writable/DiamondWritableInternal.sol\":9002:9045  DiamondWritable__ReplaceTargetIsIdentical() */\n  mload(0x40)\n  shl(0xe1, 0x30baabf3)\n  dup2\n  mstore\n  0x04\n  add\n  mload(0x40)\n  dup1\n  swap2\n  sub\n  swap1\n  revert\n    /* \"imports/solidstate/contracts/proxy/diamond/writable/DiamondWritableInternal.sol\":8935:9045  if (oldFacetAddress == facetCut.target)... */\ntag_138:\n  pop\n    /* \"imports/solidstate/contracts/proxy/diamond/writable/DiamondWritableInternal.sol\":9212:9227  facetCut.target */\n  dup4\n  mload\n  not(sub(shl(0xe0, 0x01), 0x01))\n    /* \"imports/solidstate/contracts/proxy/diamond/writable/DiamondWritableInternal.sol\":9109:9127  l.facets[selector] */\n  swap3\n  swap1\n  swap3\n  and\n    /* \"imports/solidstate/contracts/proxy/diamond/writable/DiamondWritableInternal.sol\":9212:9227  facetCut.target */\n  0x00\n    /* \"imports/solidstate/contracts/proxy/diamond/writable/DiamondWritableInternal.sol\":9109:9127  l.facets[selector] */\n  swap1\n  dup2\n  mstore\n  0x20\n  dup7\n  swap1\n  mstore\n  0x40\n  swap1\n  keccak256\n    /* \"imports/solidstate/contracts/proxy/diamond/writable/DiamondWritableInternal.sol\":9204:9228  bytes20(facetCut.target) */\n  0x60\n  swap3\n  swap1\n  swap3\n  shl\n  not(sub(shl(0x60, 0x01), 0x01))\n    /* \"imports/solidstate/contracts/proxy/diamond/writable/DiamondWritableInternal.sol\":9150:9228  (oldFacet & CLEAR_ADDRESS_MASK) |... */\n  and\n  sub(shl(0x60, 0x01), 0x01)\n    /* \"imports/solidstate/contracts/proxy/diamond/writable/DiamondWritableInternal.sol\":9151:9180  oldFacet & CLEAR_ADDRESS_MASK */\n  swap2\n  swap1\n  swap2\n  and\n    /* \"imports/solidstate/contracts/proxy/diamond/writable/DiamondWritableInternal.sol\":9150:9228  (oldFacet & CLEAR_ADDRESS_MASK) |... */\n  or\n    /* \"imports/solidstate/contracts/proxy/diamond/writable/DiamondWritableInternal.sol\":9109:9228  l.facets[selector] =... */\n  swap1\n  sstore\n    /* \"imports/solidstate/contracts/proxy/diamond/writable/DiamondWritableInternal.sol\":8493:8496  i++ */\n  0x01\n  add\n    /* \"imports/solidstate/contracts/proxy/diamond/writable/DiamondWritableInternal.sol\":8446:9243  for (uint256 i; i < facetCut.selectors.length; i++) {... */\n  jump(tag_131)\ntag_132:\n  pop\n    /* \"imports/solidstate/contracts/proxy/diamond/writable/DiamondWritableInternal.sol\":8179:9259  function _replaceFacetSelectors(... */\n  pop\n  pop\n  jump\t// out\n    /* \"imports/solidstate/contracts/proxy/diamond/writable/DiamondWritableInternal.sol\":4499:8173  function _removeFacetSelectors(... */\ntag_104:\n    /* \"imports/solidstate/contracts/proxy/diamond/writable/DiamondWritableInternal.sol\":4750:4765  facetCut.target */\n  dup1\n  mload\n    /* \"imports/solidstate/contracts/proxy/diamond/writable/DiamondWritableInternal.sol\":4694:4701  uint256 */\n  0x00\n  swap1\n  dup2\n  swap1\n  sub(shl(0xa0, 0x01), 0x01)\n    /* \"imports/solidstate/contracts/proxy/diamond/writable/DiamondWritableInternal.sol\":4750:4779  facetCut.target != address(0) */\n  and\n  iszero\n    /* \"imports/solidstate/contracts/proxy/diamond/writable/DiamondWritableInternal.sol\":4746:4849  if (facetCut.target != address(0))... */\n  tag_140\n  jumpi\n    /* \"imports/solidstate/contracts/proxy/diamond/writable/DiamondWritableInternal.sol\":4804:4849  DiamondWritable__RemoveTargetNotZeroAddress() */\n  mload(0x40)\n  shl(0xe2, 0x3ab34909)\n  dup2\n  mstore\n  0x04\n  add\n  mload(0x40)\n  dup1\n  swap2\n  sub\n  swap1\n  revert\n    /* \"imports/solidstate/contracts/proxy/diamond/writable/DiamondWritableInternal.sol\":4746:4849  if (facetCut.target != address(0))... */\ntag_140:\n    /* \"imports/solidstate/contracts/proxy/diamond/writable/DiamondWritableInternal.sol\":4909:4910  3 */\n  0x03\n    /* \"imports/solidstate/contracts/proxy/diamond/writable/DiamondWritableInternal.sol\":4892:4910  selectorCount >> 3 */\n  dup6\n  swap1\n  shr\n    /* \"imports/solidstate/contracts/proxy/diamond/writable/DiamondWritableInternal.sol\":4970:4971  7 */\n  0x07\n    /* \"imports/solidstate/contracts/proxy/diamond/writable/DiamondWritableInternal.sol\":4954:4971  selectorCount & 7 */\n  dup7\n  and\n    /* \"imports/solidstate/contracts/proxy/diamond/writable/DiamondWritableInternal.sol\":4864:4889  uint256 selectorSlotCount */\n  0x00\n    /* \"imports/solidstate/contracts/proxy/diamond/writable/DiamondWritableInternal.sol\":4986:8029  for (uint256 i; i < facetCut.selectors.length; i++) {... */\ntag_141:\n    /* \"imports/solidstate/contracts/proxy/diamond/writable/DiamondWritableInternal.sol\":5006:5014  facetCut */\n  dup6\n    /* \"imports/solidstate/contracts/proxy/diamond/writable/DiamondWritableInternal.sol\":5006:5024  facetCut.selectors */\n  0x40\n  add\n  mload\n    /* \"imports/solidstate/contracts/proxy/diamond/writable/DiamondWritableInternal.sol\":5006:5031  facetCut.selectors.length */\n  mload\n    /* \"imports/solidstate/contracts/proxy/diamond/writable/DiamondWritableInternal.sol\":5002:5003  i */\n  dup2\n    /* \"imports/solidstate/contracts/proxy/diamond/writable/DiamondWritableInternal.sol\":5002:5031  i < facetCut.selectors.length */\n  lt\n    /* \"imports/solidstate/contracts/proxy/diamond/writable/DiamondWritableInternal.sol\":4986:8029  for (uint256 i; i < facetCut.selectors.length; i++) {... */\n  iszero\n  tag_142\n  jumpi\n    /* \"imports/solidstate/contracts/proxy/diamond/writable/DiamondWritableInternal.sol\":5056:5071  bytes4 selector */\n  0x00\n    /* \"imports/solidstate/contracts/proxy/diamond/writable/DiamondWritableInternal.sol\":5074:5082  facetCut */\n  dup7\n    /* \"imports/solidstate/contracts/proxy/diamond/writable/DiamondWritableInternal.sol\":5074:5092  facetCut.selectors */\n  0x40\n  add\n  mload\n    /* \"imports/solidstate/contracts/proxy/diamond/writable/DiamondWritableInternal.sol\":5093:5094  i */\n  dup3\n    /* \"imports/solidstate/contracts/proxy/diamond/writable/DiamondWritableInternal.sol\":5074:5095  facetCut.selectors[i] */\n  dup2\n  mload\n  dup2\n  lt\n  tag_145\n  jumpi\n  tag_145\n  tag_12\n  jump\t// in\ntag_145:\n  0x20\n  swap1\n  dup2\n  mul\n  swap2\n  swap1\n  swap2\n  add\n  dup2\n  add\n  mload\n  not(sub(shl(0xe0, 0x01), 0x01))\n    /* \"imports/solidstate/contracts/proxy/diamond/writable/DiamondWritableInternal.sol\":5132:5150  l.facets[selector] */\n  dup2\n  and\n    /* \"imports/solidstate/contracts/proxy/diamond/writable/DiamondWritableInternal.sol\":5113:5129  bytes32 oldFacet */\n  0x00\n    /* \"imports/solidstate/contracts/proxy/diamond/writable/DiamondWritableInternal.sol\":5132:5150  l.facets[selector] */\n  swap1\n  dup2\n  mstore\n  swap2\n  dup13\n  swap1\n  mstore\n  0x40\n  swap1\n  swap2\n  keccak256\n  sload\n    /* \"imports/solidstate/contracts/proxy/diamond/writable/DiamondWritableInternal.sol\":5074:5095  facetCut.selectors[i] */\n  swap1\n  swap2\n  pop\n    /* \"imports/solidstate/contracts/proxy/diamond/writable/DiamondWritableInternal.sol\":5173:5199  address(bytes20(oldFacet)) */\n  0x60\n  dup2\n  swap1\n  shr\n    /* \"imports/solidstate/contracts/proxy/diamond/writable/DiamondWritableInternal.sol\":5169:5277  if (address(bytes20(oldFacet)) == address(0))... */\n  tag_146\n  jumpi\n    /* \"imports/solidstate/contracts/proxy/diamond/writable/DiamondWritableInternal.sol\":5242:5277  DiamondWritable__SelectorNotFound() */\n  mload(0x40)\n  shl(0xe1, 0x37e25a97)\n  dup2\n  mstore\n  0x04\n  add\n  mload(0x40)\n  dup1\n  swap2\n  sub\n  swap1\n  revert\n    /* \"imports/solidstate/contracts/proxy/diamond/writable/DiamondWritableInternal.sol\":5169:5277  if (address(bytes20(oldFacet)) == address(0))... */\ntag_146:\n    /* \"imports/solidstate/contracts/proxy/diamond/writable/DiamondWritableInternal.sol\":5338:5342  this */\n  address\n    /* \"imports/solidstate/contracts/proxy/diamond/writable/DiamondWritableInternal.sol\":5300:5326  address(bytes20(oldFacet)) */\n  0x60\n  dup3\n  swap1\n  shr\n    /* \"imports/solidstate/contracts/proxy/diamond/writable/DiamondWritableInternal.sol\":5300:5343  address(bytes20(oldFacet)) == address(this) */\n  sub\n    /* \"imports/solidstate/contracts/proxy/diamond/writable/DiamondWritableInternal.sol\":5296:5410  if (address(bytes20(oldFacet)) == address(this))... */\n  tag_147\n  jumpi\n    /* \"imports/solidstate/contracts/proxy/diamond/writable/DiamondWritableInternal.sol\":5372:5410  DiamondWritable__SelectorIsImmutable() */\n  mload(0x40)\n  shl(0xe0, 0xe9835731)\n  dup2\n  mstore\n  0x04\n  add\n  mload(0x40)\n  dup1\n  swap2\n  sub\n  swap1\n  revert\n    /* \"imports/solidstate/contracts/proxy/diamond/writable/DiamondWritableInternal.sol\":5296:5410  if (address(bytes20(oldFacet)) == address(this))... */\ntag_147:\n    /* \"imports/solidstate/contracts/proxy/diamond/writable/DiamondWritableInternal.sol\":5449:5450  0 */\n  0x00\n    /* \"imports/solidstate/contracts/proxy/diamond/writable/DiamondWritableInternal.sol\":5433:5450  selectorSlot == 0 */\n  dup10\n  swap1\n  sub\n    /* \"imports/solidstate/contracts/proxy/diamond/writable/DiamondWritableInternal.sol\":5429:5696  if (selectorSlot == 0) {... */\n  tag_148\n  jumpi\n  not(0x00)\n    /* \"imports/solidstate/contracts/proxy/diamond/writable/DiamondWritableInternal.sol\":5474:5493  selectorSlotCount-- */\n  swap1\n  swap5\n  add\n    /* \"imports/solidstate/contracts/proxy/diamond/writable/DiamondWritableInternal.sol\":5530:5564  l.selectorSlots[selectorSlotCount] */\n  0x00\n  dup2\n  dup2\n  mstore\n    /* \"imports/solidstate/contracts/proxy/diamond/writable/DiamondWritableInternal.sol\":5530:5545  l.selectorSlots */\n  0x02\n  dup13\n  add\n    /* \"imports/solidstate/contracts/proxy/diamond/writable/DiamondWritableInternal.sol\":5530:5564  l.selectorSlots[selectorSlotCount] */\n  0x20\n  mstore\n  0x40\n  swap1\n  keccak256\n  sload\n  swap9\n  pop\n    /* \"imports/solidstate/contracts/proxy/diamond/writable/DiamondWritableInternal.sol\":5474:5493  selectorSlotCount-- */\n  swap4\n    /* \"imports/solidstate/contracts/proxy/diamond/writable/DiamondWritableInternal.sol\":5608:5609  7 */\n  0x07\n  swap4\n  pop\n    /* \"imports/solidstate/contracts/proxy/diamond/writable/DiamondWritableInternal.sol\":5429:5696  if (selectorSlot == 0) {... */\n  jump(tag_149)\ntag_148:\n  not(0x00)\n    /* \"imports/solidstate/contracts/proxy/diamond/writable/DiamondWritableInternal.sol\":5656:5677  selectorInSlotIndex-- */\n  swap1\n  swap4\n  add\n  swap3\n    /* \"imports/solidstate/contracts/proxy/diamond/writable/DiamondWritableInternal.sol\":5429:5696  if (selectorSlot == 0) {... */\ntag_149:\n    /* \"imports/solidstate/contracts/proxy/diamond/writable/DiamondWritableInternal.sol\":6099:6100  5 */\n  0x05\n    /* \"imports/solidstate/contracts/proxy/diamond/writable/DiamondWritableInternal.sol\":6076:6100  selectorInSlotIndex << 5 */\n  dup5\n  swap1\n  shl\n    /* \"imports/solidstate/contracts/proxy/diamond/writable/DiamondWritableInternal.sol\":6059:6101  selectorSlot << (selectorInSlotIndex << 5) */\n  dup10\n  swap1\n  shl\n    /* \"imports/solidstate/contracts/proxy/diamond/writable/DiamondWritableInternal.sol\":5714:5733  bytes4 lastSelector */\n  0x00\n  dup1\n  not(sub(shl(0xe0, 0x01), 0x01))\n    /* \"imports/solidstate/contracts/proxy/diamond/writable/DiamondWritableInternal.sol\":6150:6174  lastSelector != selector */\n  dup1\n  dup5\n  and\n  swap1\n  dup7\n  and\n  eq\n    /* \"imports/solidstate/contracts/proxy/diamond/writable/DiamondWritableInternal.sol\":6146:6438  if (lastSelector != selector) {... */\n  tag_150\n  jumpi\n  not(sub(shl(0xe0, 0x01), 0x01))\n    /* \"imports/solidstate/contracts/proxy/diamond/writable/DiamondWritableInternal.sol\":6392:6414  l.facets[lastSelector] */\n  dup4\n  and\n    /* \"imports/solidstate/contracts/proxy/diamond/writable/DiamondWritableInternal.sol\":6392:6400  l.facets */\n  0x00\n    /* \"imports/solidstate/contracts/proxy/diamond/writable/DiamondWritableInternal.sol\":6392:6414  l.facets[lastSelector] */\n  swap1\n  dup2\n  mstore\n  0x20\n  dup16\n  swap1\n  mstore\n  0x40\n  swap1\n  keccak256\n  dup1\n  sload\n  not(sub(shl(0x60, 0x01), 0x01))\n    /* \"imports/solidstate/contracts/proxy/diamond/writable/DiamondWritableInternal.sol\":6322:6415  (oldFacet & CLEAR_ADDRESS_MASK) |... */\n  and\n  sub(shl(0x60, 0x01), 0x01)\n    /* \"imports/solidstate/contracts/proxy/diamond/writable/DiamondWritableInternal.sol\":6323:6352  oldFacet & CLEAR_ADDRESS_MASK */\n  dup7\n  and\n    /* \"imports/solidstate/contracts/proxy/diamond/writable/DiamondWritableInternal.sol\":6322:6415  (oldFacet & CLEAR_ADDRESS_MASK) |... */\n  or\n    /* \"imports/solidstate/contracts/proxy/diamond/writable/DiamondWritableInternal.sol\":6269:6415  l.facets[lastSelector] =... */\n  swap1\n  sstore\n    /* \"imports/solidstate/contracts/proxy/diamond/writable/DiamondWritableInternal.sol\":6146:6438  if (lastSelector != selector) {... */\ntag_150:\n  pop\n  pop\n  not(sub(shl(0xe0, 0x01), 0x01))\n    /* \"imports/solidstate/contracts/proxy/diamond/writable/DiamondWritableInternal.sol\":6467:6485  l.facets[selector] */\n  dup4\n  and\n    /* \"imports/solidstate/contracts/proxy/diamond/writable/DiamondWritableInternal.sol\":6467:6475  l.facets */\n  0x00\n    /* \"imports/solidstate/contracts/proxy/diamond/writable/DiamondWritableInternal.sol\":6467:6485  l.facets[selector] */\n  swap1\n  dup2\n  mstore\n  0x20\n  dup14\n  swap1\n  mstore\n  0x40\n  dup2\n  keccak256\n    /* \"imports/solidstate/contracts/proxy/diamond/writable/DiamondWritableInternal.sol\":6460:6485  delete l.facets[selector] */\n  sstore\n    /* \"imports/solidstate/contracts/proxy/diamond/writable/DiamondWritableInternal.sol\":6605:6626  oldSelectorCount >> 3 */\n  0x1fff\n    /* \"imports/solidstate/contracts/proxy/diamond/writable/DiamondWritableInternal.sol\":6625:6626  3 */\n  0x03\n    /* \"imports/solidstate/contracts/proxy/diamond/writable/DiamondWritableInternal.sol\":6605:6626  oldSelectorCount >> 3 */\n  dup4\n  swap1\n  shr\n  and\n    /* \"imports/solidstate/contracts/proxy/diamond/writable/DiamondWritableInternal.sol\":6676:6703  (oldSelectorCount & 7) << 5 */\n  0xe0\n    /* \"imports/solidstate/contracts/proxy/diamond/writable/DiamondWritableInternal.sol\":6702:6703  5 */\n  0x05\n    /* \"imports/solidstate/contracts/proxy/diamond/writable/DiamondWritableInternal.sol\":6676:6703  (oldSelectorCount & 7) << 5 */\n  dup5\n  swap1\n  shl\n  and\n    /* \"imports/solidstate/contracts/proxy/diamond/writable/DiamondWritableInternal.sol\":6744:6786  oldSelectorsSlotCount != selectorSlotCount */\n  dup8\n  dup3\n  eq\n    /* \"imports/solidstate/contracts/proxy/diamond/writable/DiamondWritableInternal.sol\":6740:7847  if (oldSelectorsSlotCount != selectorSlotCount) {... */\n  tag_151\n  jumpi\n    /* \"imports/solidstate/contracts/proxy/diamond/writable/DiamondWritableInternal.sol\":6810:6833  bytes32 oldSelectorSlot */\n  0x00\n    /* \"imports/solidstate/contracts/proxy/diamond/writable/DiamondWritableInternal.sol\":6836:6920  l.selectorSlots[... */\n  dup3\n  dup2\n  mstore\n    /* \"imports/solidstate/contracts/proxy/diamond/writable/DiamondWritableInternal.sol\":6836:6851  l.selectorSlots */\n  0x02\n  dup16\n  add\n    /* \"imports/solidstate/contracts/proxy/diamond/writable/DiamondWritableInternal.sol\":6836:6920  l.selectorSlots[... */\n  0x20\n  mstore\n  0x40\n  swap1\n  keccak256\n  dup1\n  sload\n  not(sub(shl(0xe0, 0x01), 0x01))\n    /* \"imports/solidstate/contracts/proxy/diamond/writable/DiamondWritableInternal.sol\":7134:7214  CLEAR_SELECTOR_MASK >>... */\n  dup1\n  dup5\n  shr\n    /* \"imports/solidstate/contracts/proxy/diamond/writable/DiamondWritableInternal.sol\":7132:7215  ~(CLEAR_SELECTOR_MASK >>... */\n  not\n    /* \"imports/solidstate/contracts/proxy/diamond/writable/DiamondWritableInternal.sol\":7086:7215  oldSelectorSlot &... */\n  swap1\n  swap2\n  and\n    /* \"imports/solidstate/contracts/proxy/diamond/writable/DiamondWritableInternal.sol\":7244:7265  bytes32(lastSelector) */\n  swap1\n  dup6\n  and\n    /* \"imports/solidstate/contracts/proxy/diamond/writable/DiamondWritableInternal.sol\":7244:7294  bytes32(lastSelector) >> oldSelectorInSlotPosition */\n  dup4\n  shr\n    /* \"imports/solidstate/contracts/proxy/diamond/writable/DiamondWritableInternal.sol\":7085:7295  (oldSelectorSlot &... */\n  or\n    /* \"imports/solidstate/contracts/proxy/diamond/writable/DiamondWritableInternal.sol\":7379:7435  l.selectorSlots[oldSelectorsSlotCount] = oldSelectorSlot */\n  swap1\n  sstore\n    /* \"imports/solidstate/contracts/proxy/diamond/writable/DiamondWritableInternal.sol\":6740:7847  if (oldSelectorsSlotCount != selectorSlotCount) {... */\n  jump(tag_152)\ntag_151:\n    /* \"imports/solidstate/contracts/proxy/diamond/writable/DiamondWritableInternal.sol\":7802:7827  oldSelectorInSlotPosition */\n  dup1\n    /* \"imports/solidstate/contracts/proxy/diamond/writable/DiamondWritableInternal.sol\":7785:7797  lastSelector */\n  dup4\n  sub(shl(0xe0, 0x01), 0x01)\n    /* \"imports/solidstate/contracts/proxy/diamond/writable/DiamondWritableInternal.sol\":7777:7798  bytes32(lastSelector) */\n  not\n  and\n    /* \"imports/solidstate/contracts/proxy/diamond/writable/DiamondWritableInternal.sol\":7777:7827  bytes32(lastSelector) >> oldSelectorInSlotPosition */\n  swap1\n  shr\n    /* \"imports/solidstate/contracts/proxy/diamond/writable/DiamondWritableInternal.sol\":7722:7747  oldSelectorInSlotPosition */\n  dup2\n  not(sub(shl(0xe0, 0x01), 0x01))\n    /* \"imports/solidstate/contracts/proxy/diamond/writable/DiamondWritableInternal.sol\":539:574  bytes32(uint256(0xffffffff << 224)) */\n  0x00\n  shl\n    /* \"imports/solidstate/contracts/proxy/diamond/writable/DiamondWritableInternal.sol\":7667:7747  CLEAR_SELECTOR_MASK >>... */\n  swap1\n  shr\n    /* \"imports/solidstate/contracts/proxy/diamond/writable/DiamondWritableInternal.sol\":7665:7748  ~(CLEAR_SELECTOR_MASK >>... */\n  not\n    /* \"imports/solidstate/contracts/proxy/diamond/writable/DiamondWritableInternal.sol\":7622:7634  selectorSlot */\n  dup14\n    /* \"imports/solidstate/contracts/proxy/diamond/writable/DiamondWritableInternal.sol\":7622:7748  selectorSlot &... */\n  and\n    /* \"imports/solidstate/contracts/proxy/diamond/writable/DiamondWritableInternal.sol\":7621:7828  (selectorSlot &... */\n  or\n    /* \"imports/solidstate/contracts/proxy/diamond/writable/DiamondWritableInternal.sol\":7582:7828  selectorSlot =... */\n  swap12\n  pop\n    /* \"imports/solidstate/contracts/proxy/diamond/writable/DiamondWritableInternal.sol\":6740:7847  if (oldSelectorsSlotCount != selectorSlotCount) {... */\ntag_152:\n    /* \"imports/solidstate/contracts/proxy/diamond/writable/DiamondWritableInternal.sol\":7869:7888  selectorInSlotIndex */\n  dup7\n    /* \"imports/solidstate/contracts/proxy/diamond/writable/DiamondWritableInternal.sol\":7892:7893  0 */\n  0x00\n    /* \"imports/solidstate/contracts/proxy/diamond/writable/DiamondWritableInternal.sol\":7869:7893  selectorInSlotIndex == 0 */\n  sub\n    /* \"imports/solidstate/contracts/proxy/diamond/writable/DiamondWritableInternal.sol\":7865:8015  if (selectorInSlotIndex == 0) {... */\n  tag_153\n  jumpi\n    /* \"imports/solidstate/contracts/proxy/diamond/writable/DiamondWritableInternal.sol\":7924:7958  l.selectorSlots[selectorSlotCount] */\n  0x00\n  dup9\n  dup2\n  mstore\n    /* \"imports/solidstate/contracts/proxy/diamond/writable/DiamondWritableInternal.sol\":7924:7939  l.selectorSlots */\n  0x02\n  dup16\n  add\n    /* \"imports/solidstate/contracts/proxy/diamond/writable/DiamondWritableInternal.sol\":7924:7958  l.selectorSlots[selectorSlotCount] */\n  0x20\n  mstore\n  0x40\n  dup2\n  keccak256\n    /* \"imports/solidstate/contracts/proxy/diamond/writable/DiamondWritableInternal.sol\":7917:7958  delete l.selectorSlots[selectorSlotCount] */\n  dup2\n  swap1\n  sstore\n    /* \"imports/solidstate/contracts/proxy/diamond/writable/DiamondWritableInternal.sol\":7924:7958  l.selectorSlots[selectorSlotCount] */\n  swap12\n  pop\n    /* \"imports/solidstate/contracts/proxy/diamond/writable/DiamondWritableInternal.sol\":7865:8015  if (selectorInSlotIndex == 0) {... */\ntag_153:\n  pop\n  pop\n    /* \"imports/solidstate/contracts/proxy/diamond/writable/DiamondWritableInternal.sol\":5033:5036  i++ */\n  0x01\n  swap1\n  swap4\n  add\n  swap3\n  pop\n    /* \"imports/solidstate/contracts/proxy/diamond/writable/DiamondWritableInternal.sol\":4986:8029  for (uint256 i; i < facetCut.selectors.length; i++) {... */\n  tag_141\n  swap2\n  pop\n  pop\n  jump\ntag_142:\n  pop\n    /* \"imports/solidstate/contracts/proxy/diamond/writable/DiamondWritableInternal.sol\":8081:8082  3 */\n  0x03\n    /* \"imports/solidstate/contracts/proxy/diamond/writable/DiamondWritableInternal.sol\":8060:8082  selectorSlotCount << 3 */\n  swap2\n  swap1\n  swap2\n  shl\n    /* \"imports/solidstate/contracts/proxy/diamond/writable/DiamondWritableInternal.sol\":8059:8105  (selectorSlotCount << 3) | selectorInSlotIndex */\n  or\n  swap7\n    /* \"imports/solidstate/contracts/proxy/diamond/writable/DiamondWritableInternal.sol\":8143:8155  selectorSlot */\n  swap4\n  swap6\n  pop\n    /* \"imports/solidstate/contracts/proxy/diamond/writable/DiamondWritableInternal.sol\":4499:8173  function _removeFacetSelectors(... */\n  swap3\n  swap4\n  pop\n  pop\n  pop\n  pop\n  jump\t// out\n    /* \"imports/solidstate/contracts/proxy/diamond/writable/DiamondWritableInternal.sol\":9265:9928  function _initialize(address target, bytes memory data) private {... */\ntag_110:\n    /* \"imports/solidstate/contracts/proxy/diamond/writable/DiamondWritableInternal.sol\":9370:9381  data.length */\n  dup1\n  mload\n    /* \"imports/solidstate/contracts/proxy/diamond/writable/DiamondWritableInternal.sol\":9370:9386  data.length == 0 */\n  iszero\n  sub(shl(0xa0, 0x01), 0x01)\n    /* \"imports/solidstate/contracts/proxy/diamond/writable/DiamondWritableInternal.sol\":9344:9364  target == address(0) */\n  dup4\n  and\n  iszero\n    /* \"imports/solidstate/contracts/proxy/diamond/writable/DiamondWritableInternal.sol\":9343:9387  (target == address(0)) != (data.length == 0) */\n  eq\n    /* \"imports/solidstate/contracts/proxy/diamond/writable/DiamondWritableInternal.sol\":9339:9458  if ((target == address(0)) != (data.length == 0))... */\n  tag_155\n  jumpi\n    /* \"imports/solidstate/contracts/proxy/diamond/writable/DiamondWritableInternal.sol\":9408:9458  DiamondWritable__InvalidInitializationParameters() */\n  mload(0x40)\n  shl(0xe0, 0x26df4ccd)\n  dup2\n  mstore\n  0x04\n  add\n  mload(0x40)\n  dup1\n  swap2\n  sub\n  swap1\n  revert\n    /* \"imports/solidstate/contracts/proxy/diamond/writable/DiamondWritableInternal.sol\":9339:9458  if ((target == address(0)) != (data.length == 0))... */\ntag_155:\n  sub(shl(0xa0, 0x01), 0x01)\n    /* \"imports/solidstate/contracts/proxy/diamond/writable/DiamondWritableInternal.sol\":9473:9493  target != address(0) */\n  dup3\n  and\n  iszero\n    /* \"imports/solidstate/contracts/proxy/diamond/writable/DiamondWritableInternal.sol\":9469:9922  if (target != address(0)) {... */\n  tag_156\n  jumpi\n  sub(shl(0xa0, 0x01), 0x01)\n    /* \"imports/solidstate/contracts/proxy/diamond/writable/DiamondWritableInternal.sol\":9513:9536  target != address(this) */\n  dup3\n  and\n    /* \"imports/solidstate/contracts/proxy/diamond/writable/DiamondWritableInternal.sol\":9531:9535  this */\n  address\n    /* \"imports/solidstate/contracts/proxy/diamond/writable/DiamondWritableInternal.sol\":9513:9536  target != address(this) */\n  eq\n    /* \"imports/solidstate/contracts/proxy/diamond/writable/DiamondWritableInternal.sol\":9509:9658  if (target != address(this)) {... */\n  tag_159\n  jumpi\n  sub(shl(0xa0, 0x01), 0x01)\n    /* \"imports/solidstate/contracts/proxy/diamond/writable/DiamondWritableInternal.sol\":9561:9578  target.isContract */\n  dup3\n  and\n    /* \"imports/solidstate/contracts/utils/AddressUtils.sol\":568:588  extcodesize(account) */\n  extcodesize\n    /* \"imports/solidstate/contracts/proxy/diamond/writable/DiamondWritableInternal.sol\":9556:9643  if (!target.isContract())... */\n  tag_159\n  jumpi\n    /* \"imports/solidstate/contracts/proxy/diamond/writable/DiamondWritableInternal.sol\":9609:9643  DiamondWritable__TargetHasNoCode() */\n  mload(0x40)\n  shl(0xe2, 0x3ddc5cab)\n  dup2\n  mstore\n  0x04\n  add\n  mload(0x40)\n  dup1\n  swap2\n  sub\n  swap1\n  revert\n    /* \"imports/solidstate/contracts/proxy/diamond/writable/DiamondWritableInternal.sol\":9556:9643  if (!target.isContract())... */\ntag_159:\n    /* \"imports/solidstate/contracts/proxy/diamond/writable/DiamondWritableInternal.sol\":9673:9685  bool success */\n  0x00\n    /* \"imports/solidstate/contracts/proxy/diamond/writable/DiamondWritableInternal.sol\":9691:9697  target */\n  dup3\n  sub(shl(0xa0, 0x01), 0x01)\n    /* \"imports/solidstate/contracts/proxy/diamond/writable/DiamondWritableInternal.sol\":9691:9710  target.delegatecall */\n  and\n    /* \"imports/solidstate/contracts/proxy/diamond/writable/DiamondWritableInternal.sol\":9711:9715  data */\n  dup3\n    /* \"imports/solidstate/contracts/proxy/diamond/writable/DiamondWritableInternal.sol\":9691:9716  target.delegatecall(data) */\n  mload(0x40)\n  tag_160\n  swap2\n  swap1\n  tag_161\n  jump\t// in\ntag_160:\n  0x00\n  mload(0x40)\n  dup1\n  dup4\n  sub\n  dup2\n  dup6\n  gas\n  delegatecall\n  swap2\n  pop\n  pop\n  returndatasize\n  dup1\n  0x00\n  dup2\n  eq\n  tag_164\n  jumpi\n  mload(0x40)\n  swap2\n  pop\n  and(add(returndatasize, 0x3f), not(0x1f))\n  dup3\n  add\n  0x40\n  mstore\n  returndatasize\n  dup3\n  mstore\n  returndatasize\n  0x00\n  0x20\n  dup5\n  add\n  returndatacopy\n  jump(tag_163)\ntag_164:\n  0x60\n  swap2\n  pop\ntag_163:\n  pop\n    /* \"imports/solidstate/contracts/proxy/diamond/writable/DiamondWritableInternal.sol\":9672:9716  (bool success, ) = target.delegatecall(data) */\n  pop\n  swap1\n  pop\n    /* \"imports/solidstate/contracts/proxy/diamond/writable/DiamondWritableInternal.sol\":9736:9743  success */\n  dup1\n    /* \"imports/solidstate/contracts/proxy/diamond/writable/DiamondWritableInternal.sol\":9731:9912  if (!success) {... */\n  tag_132\n  jumpi\n    /* \"imports/solidstate/contracts/proxy/diamond/writable/DiamondWritableInternal.sol\":9815:9831  returndatasize() */\n  returndatasize\n    /* \"imports/solidstate/contracts/proxy/diamond/writable/DiamondWritableInternal.sol\":9812:9813  0 */\n  0x00\n  dup1\n    /* \"imports/solidstate/contracts/proxy/diamond/writable/DiamondWritableInternal.sol\":9794:9832  returndatacopy(0, 0, returndatasize()) */\n  returndatacopy\n    /* \"imports/solidstate/contracts/proxy/diamond/writable/DiamondWritableInternal.sol\":9863:9879  returndatasize() */\n  returndatasize\n    /* \"imports/solidstate/contracts/proxy/diamond/writable/DiamondWritableInternal.sol\":9812:9813  0 */\n  0x00\n    /* \"imports/solidstate/contracts/proxy/diamond/writable/DiamondWritableInternal.sol\":9853:9880  revert(0, returndatasize()) */\n  revert\n    /* \"imports/solidstate/contracts/proxy/diamond/writable/DiamondWritableInternal.sol\":9469:9922  if (target != address(0)) {... */\ntag_156:\n    /* \"imports/solidstate/contracts/proxy/diamond/writable/DiamondWritableInternal.sol\":9265:9928  function _initialize(address target, bytes memory data) private {... */\n  pop\n  pop\n  jump\t// out\n    /* \"#utility.yul\":146:378   */\ntag_9:\n    /* \"#utility.yul\":185:188   */\n  0x00\n    /* \"#utility.yul\":206:223   */\n  0x01\n  dup3\n  add\n    /* \"#utility.yul\":203:343   */\n  tag_176\n  jumpi\n    /* \"#utility.yul\":265:275   */\n  0x4e487b71\n    /* \"#utility.yul\":260:263   */\n  0xe0\n    /* \"#utility.yul\":256:276   */\n  shl\n    /* \"#utility.yul\":253:254   */\n  0x00\n    /* \"#utility.yul\":246:277   */\n  mstore\n    /* \"#utility.yul\":300:304   */\n  0x11\n    /* \"#utility.yul\":297:298   */\n  0x04\n    /* \"#utility.yul\":290:305   */\n  mstore\n    /* \"#utility.yul\":328:332   */\n  0x24\n    /* \"#utility.yul\":325:326   */\n  0x00\n    /* \"#utility.yul\":318:333   */\n  revert\n    /* \"#utility.yul\":203:343   */\ntag_176:\n  pop\n    /* \"#utility.yul\":370:371   */\n  0x01\n    /* \"#utility.yul\":359:372   */\n  add\n  swap1\n    /* \"#utility.yul\":146:378   */\n  jump\t// out\n    /* \"#utility.yul\":383:510   */\ntag_12:\n    /* \"#utility.yul\":444:454   */\n  0x4e487b71\n    /* \"#utility.yul\":439:442   */\n  0xe0\n    /* \"#utility.yul\":435:455   */\n  shl\n    /* \"#utility.yul\":432:433   */\n  0x00\n    /* \"#utility.yul\":425:456   */\n  mstore\n    /* \"#utility.yul\":475:479   */\n  0x32\n    /* \"#utility.yul\":472:473   */\n  0x04\n    /* \"#utility.yul\":465:480   */\n  mstore\n    /* \"#utility.yul\":499:503   */\n  0x24\n    /* \"#utility.yul\":496:497   */\n  0x00\n    /* \"#utility.yul\":489:504   */\n  revert\n    /* \"#utility.yul\":515:642   */\ntag_60:\n    /* \"#utility.yul\":576:586   */\n  0x4e487b71\n    /* \"#utility.yul\":571:574   */\n  0xe0\n    /* \"#utility.yul\":567:587   */\n  shl\n    /* \"#utility.yul\":564:565   */\n  0x00\n    /* \"#utility.yul\":557:588   */\n  mstore\n    /* \"#utility.yul\":607:611   */\n  0x21\n    /* \"#utility.yul\":604:605   */\n  0x04\n    /* \"#utility.yul\":597:612   */\n  mstore\n    /* \"#utility.yul\":631:635   */\n  0x24\n    /* \"#utility.yul\":628:629   */\n  0x00\n    /* \"#utility.yul\":621:636   */\n  revert\n    /* \"#utility.yul\":756:1006   */\ntag_171:\n    /* \"#utility.yul\":841:842   */\n  0x00\n    /* \"#utility.yul\":851:964   */\ntag_181:\n    /* \"#utility.yul\":865:871   */\n  dup4\n    /* \"#utility.yul\":862:863   */\n  dup2\n    /* \"#utility.yul\":859:872   */\n  lt\n    /* \"#utility.yul\":851:964   */\n  iszero\n  tag_183\n  jumpi\n    /* \"#utility.yul\":941:952   */\n  dup2\n  dup2\n  add\n    /* \"#utility.yul\":935:953   */\n  mload\n    /* \"#utility.yul\":922:933   */\n  dup4\n  dup3\n  add\n    /* \"#utility.yul\":915:954   */\n  mstore\n    /* \"#utility.yul\":887:889   */\n  0x20\n    /* \"#utility.yul\":880:890   */\n  add\n    /* \"#utility.yul\":851:964   */\n  jump(tag_181)\ntag_183:\n  pop\n  pop\n    /* \"#utility.yul\":998:999   */\n  0x00\n    /* \"#utility.yul\":980:996   */\n  swap2\n  add\n    /* \"#utility.yul\":973:1000   */\n  mstore\n    /* \"#utility.yul\":756:1006   */\n  jump\t// out\n    /* \"#utility.yul\":1011:1281   */\ntag_172:\n    /* \"#utility.yul\":1052:1055   */\n  0x00\n    /* \"#utility.yul\":1090:1095   */\n  dup2\n    /* \"#utility.yul\":1084:1096   */\n  mload\n    /* \"#utility.yul\":1117:1123   */\n  dup1\n    /* \"#utility.yul\":1112:1115   */\n  dup5\n    /* \"#utility.yul\":1105:1124   */\n  mstore\n    /* \"#utility.yul\":1133:1209   */\n  tag_185\n    /* \"#utility.yul\":1202:1208   */\n  dup2\n    /* \"#utility.yul\":1195:1199   */\n  0x20\n    /* \"#utility.yul\":1190:1193   */\n  dup7\n    /* \"#utility.yul\":1186:1200   */\n  add\n    /* \"#utility.yul\":1179:1183   */\n  0x20\n    /* \"#utility.yul\":1172:1177   */\n  dup7\n    /* \"#utility.yul\":1168:1184   */\n  add\n    /* \"#utility.yul\":1133:1209   */\n  tag_171\n  jump\t// in\ntag_185:\n    /* \"#utility.yul\":1263:1265   */\n  0x1f\n    /* \"#utility.yul\":1242:1257   */\n  add\n  not(0x1f)\n    /* \"#utility.yul\":1238:1267   */\n  and\n    /* \"#utility.yul\":1229:1268   */\n  swap3\n  swap1\n  swap3\n  add\n    /* \"#utility.yul\":1270:1274   */\n  0x20\n    /* \"#utility.yul\":1225:1275   */\n  add\n  swap3\n    /* \"#utility.yul\":1011:1281   */\n  swap2\n  pop\n  pop\n  jump\t// out\n    /* \"#utility.yul\":1286:3376   */\ntag_108:\n    /* \"#utility.yul\":1554:1558   */\n  0x00\n    /* \"#utility.yul\":1583:1585   */\n  0x60\n    /* \"#utility.yul\":1623:1625   */\n  dup1\n    /* \"#utility.yul\":1612:1621   */\n  dup4\n    /* \"#utility.yul\":1608:1626   */\n  add\n    /* \"#utility.yul\":1653:1655   */\n  dup2\n    /* \"#utility.yul\":1642:1651   */\n  dup5\n    /* \"#utility.yul\":1635:1656   */\n  mstore\n    /* \"#utility.yul\":1676:1682   */\n  dup1\n    /* \"#utility.yul\":1711:1717   */\n  dup8\n    /* \"#utility.yul\":1705:1718   */\n  mload\n    /* \"#utility.yul\":1742:1748   */\n  dup1\n    /* \"#utility.yul\":1734:1740   */\n  dup4\n    /* \"#utility.yul\":1727:1749   */\n  mstore\n    /* \"#utility.yul\":1768:1771   */\n  0x80\n    /* \"#utility.yul\":1758:1771   */\n  swap3\n  pop\n    /* \"#utility.yul\":1802:1804   */\n  dup3\n    /* \"#utility.yul\":1791:1800   */\n  dup7\n    /* \"#utility.yul\":1787:1805   */\n  add\n    /* \"#utility.yul\":1780:1805   */\n  swap2\n  pop\n    /* \"#utility.yul\":1864:1866   */\n  dup3\n    /* \"#utility.yul\":1854:1860   */\n  dup2\n    /* \"#utility.yul\":1851:1852   */\n  0x05\n    /* \"#utility.yul\":1847:1861   */\n  shl\n    /* \"#utility.yul\":1836:1845   */\n  dup8\n    /* \"#utility.yul\":1832:1862   */\n  add\n    /* \"#utility.yul\":1828:1867   */\n  add\n    /* \"#utility.yul\":1886:1890   */\n  0x20\n    /* \"#utility.yul\":1925:1927   */\n  dup1\n    /* \"#utility.yul\":1917:1923   */\n  dup12\n    /* \"#utility.yul\":1913:1928   */\n  add\n    /* \"#utility.yul\":1946:1947   */\n  0x00\n    /* \"#utility.yul\":1956:3205   */\ntag_187:\n    /* \"#utility.yul\":1970:1976   */\n  dup5\n    /* \"#utility.yul\":1967:1968   */\n  dup2\n    /* \"#utility.yul\":1964:1977   */\n  lt\n    /* \"#utility.yul\":1956:3205   */\n  iszero\n  tag_189\n  jumpi\n    /* \"#utility.yul\":2035:2057   */\n  dup10\n  dup5\n  sub\n  not(0x7f)\n    /* \"#utility.yul\":2031:2068   */\n  add\n    /* \"#utility.yul\":2019:2069   */\n  dup7\n  mstore\n    /* \"#utility.yul\":2092:2105   */\n  dup2\n  mload\n    /* \"#utility.yul\":2179:2188   */\n  dup1\n  mload\n  sub(shl(0xa0, 0x01), 0x01)\n    /* \"#utility.yul\":2175:2210   */\n  and\n    /* \"#utility.yul\":2160:2211   */\n  dup6\n  mstore\n    /* \"#utility.yul\":2250:2261   */\n  dup4\n  dup2\n  add\n    /* \"#utility.yul\":2244:2262   */\n  mload\n    /* \"#utility.yul\":2132:2147   */\n  dup10\n  dup7\n  add\n  swap1\n    /* \"#utility.yul\":2302:2303   */\n  0x03\n    /* \"#utility.yul\":2285:2304   */\n  dup2\n  lt\n    /* \"#utility.yul\":2275:2445   */\n  tag_190\n  jumpi\n    /* \"#utility.yul\":2355:2365   */\n  0x4e487b71\n    /* \"#utility.yul\":2350:2353   */\n  0xe0\n    /* \"#utility.yul\":2346:2366   */\n  shl\n    /* \"#utility.yul\":2343:2344   */\n  0x00\n    /* \"#utility.yul\":2336:2367   */\n  mstore\n    /* \"#utility.yul\":2394:2398   */\n  0x21\n    /* \"#utility.yul\":2391:2392   */\n  0x04\n    /* \"#utility.yul\":2384:2399   */\n  mstore\n    /* \"#utility.yul\":2426:2430   */\n  0x24\n    /* \"#utility.yul\":2423:2424   */\n  0x00\n    /* \"#utility.yul\":2416:2431   */\n  revert\n    /* \"#utility.yul\":2275:2445   */\ntag_190:\n    /* \"#utility.yul\":2465:2480   */\n  dup7\n  dup7\n  add\n    /* \"#utility.yul\":2458:2495   */\n  mstore\n    /* \"#utility.yul\":2518:2522   */\n  0x40\n    /* \"#utility.yul\":2563:2574   */\n  swap2\n  dup3\n  add\n    /* \"#utility.yul\":2557:2575   */\n  mload\n    /* \"#utility.yul\":2595:2610   */\n  swap2\n  dup7\n  add\n    /* \"#utility.yul\":2588:2615   */\n  dup11\n  swap1\n  mstore\n    /* \"#utility.yul\":2676:2697   */\n  dup2\n  mload\n    /* \"#utility.yul\":2710:2734   */\n  swap1\n  dup2\n  swap1\n  mstore\n    /* \"#utility.yul\":2800:2823   */\n  swap1\n  dup5\n  add\n  swap1\n  0x00\n  swap1\n    /* \"#utility.yul\":2756:2771   */\n  dup10\n  dup8\n  add\n  swap1\n    /* \"#utility.yul\":2861:3097   */\ntag_191:\n    /* \"#utility.yul\":2877:2885   */\n  dup1\n    /* \"#utility.yul\":2872:2875   */\n  dup4\n    /* \"#utility.yul\":2869:2886   */\n  lt\n    /* \"#utility.yul\":2861:3097   */\n  iszero\n  tag_193\n  jumpi\n    /* \"#utility.yul\":2958:2973   */\n  dup4\n  mload\n  not(sub(shl(0xe0, 0x01), 0x01))\n    /* \"#utility.yul\":2954:2996   */\n  and\n    /* \"#utility.yul\":2940:2997   */\n  dup3\n  mstore\n    /* \"#utility.yul\":3066:3083   */\n  swap3\n  dup7\n  add\n  swap3\n    /* \"#utility.yul\":2905:2906   */\n  0x01\n    /* \"#utility.yul\":2896:2907   */\n  swap3\n  swap1\n  swap3\n  add\n  swap2\n    /* \"#utility.yul\":3023:3037   */\n  swap1\n  dup7\n  add\n  swap1\n    /* \"#utility.yul\":2861:3097   */\n  jump(tag_191)\ntag_193:\n  pop\n    /* \"#utility.yul\":3183:3195   */\n  swap8\n  dup6\n  add\n  swap8\n    /* \"#utility.yul\":3120:3125   */\n  swap6\n  pop\n  pop\n  pop\n    /* \"#utility.yul\":3148:3163   */\n  swap1\n  dup3\n  add\n  swap1\n    /* \"#utility.yul\":1992:1993   */\n  0x01\n    /* \"#utility.yul\":1985:1994   */\n  add\n    /* \"#utility.yul\":1956:3205   */\n  jump(tag_187)\ntag_189:\n  pop\n  pop\n  sub(shl(0xa0, 0x01), 0x01)\n    /* \"#utility.yul\":713:744   */\n  dup11\n  and\n    /* \"#utility.yul\":3241:3259   */\n  swap1\n  dup9\n  add\n    /* \"#utility.yul\":701:745   */\n  mstore\n    /* \"#utility.yul\":3298:3320   */\n  dup7\n  dup2\n  sub\n    /* \"#utility.yul\":3291:3295   */\n  0x40\n    /* \"#utility.yul\":3276:3296   */\n  dup9\n  add\n    /* \"#utility.yul\":3269:3321   */\n  mstore\n    /* \"#utility.yul\":3338:3370   */\n  tag_195\n    /* \"#utility.yul\":3302:3308   */\n  dup2\n    /* \"#utility.yul\":3355:3361   */\n  dup10\n    /* \"#utility.yul\":3338:3370   */\n  tag_172\n  jump\t// in\ntag_195:\n    /* \"#utility.yul\":3330:3370   */\n  swap11\n    /* \"#utility.yul\":1286:3376   */\n  swap10\n  pop\n  pop\n  pop\n  pop\n  pop\n  pop\n  pop\n  pop\n  pop\n  pop\n  jump\t// out\n    /* \"#utility.yul\":3381:3668   */\ntag_161:\n    /* \"#utility.yul\":3510:3513   */\n  0x00\n    /* \"#utility.yul\":3548:3554   */\n  dup3\n    /* \"#utility.yul\":3542:3555   */\n  mload\n    /* \"#utility.yul\":3564:3630   */\n  tag_197\n    /* \"#utility.yul\":3623:3629   */\n  dup2\n    /* \"#utility.yul\":3618:3621   */\n  dup5\n    /* \"#utility.yul\":3611:3615   */\n  0x20\n    /* \"#utility.yul\":3603:3609   */\n  dup8\n    /* \"#utility.yul\":3599:3616   */\n  add\n    /* \"#utility.yul\":3564:3630   */\n  tag_171\n  jump\t// in\ntag_197:\n    /* \"#utility.yul\":3646:3662   */\n  swap2\n  swap1\n  swap2\n  add\n  swap3\n    /* \"#utility.yul\":3381:3668   */\n  swap2\n  pop\n  pop\n  jump\t// out\ntag_173:\n    /* \"diamonds/Diamond.sol\":152:182  contract Diamond is ERC2535 {} */\n  dataSize(sub_0)\n  dup1\n  dataOffset(sub_0)\n  0x00\n  codecopy\n  0x00\n  return\nstop\n\nsub_0: assembly {\n        /* \"diamonds/Diamond.sol\":152:182  contract Diamond is ERC2535 {} */\n      mstore(0x40, 0x80)\n      jumpi(tag_1, lt(calldatasize, 0x04))\n      shr(0xe0, calldataload(0x00))\n      dup1\n      0x8ab5150a\n      gt\n      tag_15\n      jumpi\n      dup1\n      0x8ab5150a\n      eq\n      tag_9\n      jumpi\n      dup1\n      0x8da5cb5b\n      eq\n      tag_10\n      jumpi\n      dup1\n      0x91423765\n      eq\n      tag_11\n      jumpi\n      dup1\n      0xadfca15e\n      eq\n      tag_12\n      jumpi\n      dup1\n      0xcdffacc6\n      eq\n      tag_13\n      jumpi\n      dup1\n      0xf2fde38b\n      eq\n      tag_14\n      jumpi\n      jump(tag_2)\n    tag_15:\n      dup1\n      0x01ffc9a7\n      eq\n      tag_3\n      jumpi\n      dup1\n      0x1f931c1c\n      eq\n      tag_4\n      jumpi\n      dup1\n      0x2c408059\n      eq\n      tag_5\n      jumpi\n      dup1\n      0x52ef6b2c\n      eq\n      tag_6\n      jumpi\n      dup1\n      0x79ba5097\n      eq\n      tag_7\n      jumpi\n      dup1\n      0x7a0ed627\n      eq\n      tag_8\n      jumpi\n      jump(tag_2)\n    tag_1:\n      jumpi(tag_2, calldatasize)\n      stop\n    tag_2:\n        /* \"imports/solidstate/contracts/proxy/Proxy.sol\":582:604  address implementation */\n      0x00\n        /* \"imports/solidstate/contracts/proxy/Proxy.sol\":607:627  _getImplementation() */\n      tag_20\n        /* \"imports/solidstate/contracts/proxy/Proxy.sol\":607:625  _getImplementation */\n      tag_21\n        /* \"imports/solidstate/contracts/proxy/Proxy.sol\":607:627  _getImplementation() */\n      jump\t// in\n    tag_20:\n        /* \"imports/solidstate/contracts/proxy/Proxy.sol\":582:627  address implementation = _getImplementation() */\n      swap1\n      pop\n      sub(shl(0xa0, 0x01), 0x01)\n        /* \"imports/solidstate/contracts/proxy/Proxy.sol\":643:668  implementation.isContract */\n      dup2\n      and\n        /* \"imports/solidstate/contracts/utils/AddressUtils.sol\":568:588  extcodesize(account) */\n      extcodesize\n        /* \"imports/solidstate/contracts/proxy/Proxy.sol\":638:727  if (!implementation.isContract())... */\n      tag_24\n      jumpi\n        /* \"imports/solidstate/contracts/proxy/Proxy.sol\":691:727  Proxy__ImplementationIsNotContract() */\n      mload(0x40)\n      shl(0xe2, 0x21f27f0d)\n      dup2\n      mstore\n      0x04\n      add\n      mload(0x40)\n      dup1\n      swap2\n      sub\n      swap1\n      revert\n        /* \"imports/solidstate/contracts/proxy/Proxy.sol\":638:727  if (!implementation.isContract())... */\n    tag_24:\n        /* \"imports/solidstate/contracts/proxy/Proxy.sol\":780:794  calldatasize() */\n      calldatasize\n        /* \"imports/solidstate/contracts/proxy/Proxy.sol\":777:778  0 */\n      0x00\n        /* \"imports/solidstate/contracts/proxy/Proxy.sol\":774:775  0 */\n      dup1\n        /* \"imports/solidstate/contracts/proxy/Proxy.sol\":761:795  calldatacopy(0, 0, calldatasize()) */\n      calldatacopy\n        /* \"imports/solidstate/contracts/proxy/Proxy.sol\":977:978  0 */\n      0x00\n        /* \"imports/solidstate/contracts/proxy/Proxy.sol\":958:959  0 */\n      dup1\n        /* \"imports/solidstate/contracts/proxy/Proxy.sol\":926:940  calldatasize() */\n      calldatasize\n        /* \"imports/solidstate/contracts/proxy/Proxy.sol\":907:908  0 */\n      0x00\n        /* \"imports/solidstate/contracts/proxy/Proxy.sol\":875:889  implementation */\n      dup5\n        /* \"imports/solidstate/contracts/proxy/Proxy.sol\":852:857  gas() */\n      gas\n        /* \"imports/solidstate/contracts/proxy/Proxy.sol\":822:992  delegatecall(... */\n      delegatecall\n        /* \"imports/solidstate/contracts/proxy/Proxy.sol\":1026:1042  returndatasize() */\n      returndatasize\n        /* \"imports/solidstate/contracts/proxy/Proxy.sol\":1023:1024  0 */\n      0x00\n        /* \"imports/solidstate/contracts/proxy/Proxy.sol\":1020:1021  0 */\n      dup1\n        /* \"imports/solidstate/contracts/proxy/Proxy.sol\":1005:1043  returndatacopy(0, 0, returndatasize()) */\n      returndatacopy\n        /* \"imports/solidstate/contracts/proxy/Proxy.sol\":1064:1070  result */\n      dup1\n        /* \"imports/solidstate/contracts/proxy/Proxy.sol\":1083:1149  case 0 {... */\n      dup1\n      iszero\n      tag_26\n      jumpi\n        /* \"imports/solidstate/contracts/proxy/Proxy.sol\":1198:1214  returndatasize() */\n      returndatasize\n        /* \"imports/solidstate/contracts/proxy/Proxy.sol\":1195:1196  0 */\n      0x00\n        /* \"imports/solidstate/contracts/proxy/Proxy.sol\":1188:1215  return(0, returndatasize()) */\n      return\n        /* \"imports/solidstate/contracts/proxy/Proxy.sol\":1083:1149  case 0 {... */\n    tag_26:\n        /* \"imports/solidstate/contracts/proxy/Proxy.sol\":1118:1134  returndatasize() */\n      returndatasize\n        /* \"imports/solidstate/contracts/proxy/Proxy.sol\":1115:1116  0 */\n      0x00\n        /* \"imports/solidstate/contracts/proxy/Proxy.sol\":1108:1135  revert(0, returndatasize()) */\n      revert\n        /* \"imports/solidstate/contracts/proxy/Proxy.sol\":1057:1229  switch result... */\n    tag_25:\n      stop\n        /* \"imports/solidstate/contracts/introspection/ERC165/base/ERC165Base.sol\":444:573  function supportsInterface(bytes4 interfaceId) public view returns (bool) {... */\n    tag_3:\n      callvalue\n      dup1\n      iszero\n      tag_27\n      jumpi\n      0x00\n      dup1\n      revert\n    tag_27:\n      pop\n      tag_28\n      tag_29\n      calldatasize\n      0x04\n      tag_30\n      jump\t// in\n    tag_29:\n      not(sub(shl(0xe0, 0x01), 0x01))\n        /* \"imports/solidstate/contracts/introspection/ERC165/base/ERC165BaseInternal.sol\":628:687  ERC165BaseStorage.layout().supportedInterfaces[interfaceId] */\n      and\n        /* \"imports/solidstate/contracts/introspection/ERC165/base/ERC165Base.sol\":512:516  bool */\n      0x00\n        /* \"imports/solidstate/contracts/introspection/ERC165/base/ERC165BaseInternal.sol\":628:687  ERC165BaseStorage.layout().supportedInterfaces[interfaceId] */\n      swap1\n      dup2\n      mstore\n        /* \"imports/solidstate/contracts/introspection/ERC165/base/ERC165BaseStorage.sol\":219:271  keccak256('solidstate.contracts.storage.ERC165Base') */\n      0xfc606c433378e3a7e0a6a531deac289b66caa1b4aa8554fd4ab2c6f1570f92d8\n        /* \"imports/solidstate/contracts/introspection/ERC165/base/ERC165BaseInternal.sol\":628:687  ERC165BaseStorage.layout().supportedInterfaces[interfaceId] */\n      0x20\n      mstore\n      0x40\n      swap1\n      keccak256\n      sload\n      0xff\n      and\n      swap1\n        /* \"imports/solidstate/contracts/introspection/ERC165/base/ERC165Base.sol\":444:573  function supportsInterface(bytes4 interfaceId) public view returns (bool) {... */\n      jump\n    tag_28:\n      mload(0x40)\n        /* \"#utility.yul\":546:560   */\n      swap1\n      iszero\n        /* \"#utility.yul\":539:561   */\n      iszero\n        /* \"#utility.yul\":521:562   */\n      dup2\n      mstore\n        /* \"#utility.yul\":509:511   */\n      0x20\n        /* \"#utility.yul\":494:512   */\n      add\n        /* \"imports/solidstate/contracts/introspection/ERC165/base/ERC165Base.sol\":444:573  function supportsInterface(bytes4 interfaceId) public view returns (bool) {... */\n    tag_32:\n      mload(0x40)\n      dup1\n      swap2\n      sub\n      swap1\n      return\n        /* \"imports/solidstate/contracts/proxy/diamond/writable/DiamondWritable.sol\":495:685  function diamondCut(... */\n    tag_4:\n      callvalue\n      dup1\n      iszero\n      tag_34\n      jumpi\n      0x00\n      dup1\n      revert\n    tag_34:\n      pop\n      tag_25\n      tag_36\n      calldatasize\n      0x04\n      tag_37\n      jump\t// in\n    tag_36:\n      tag_38\n      jump\t// in\n        /* \"imports/solidstate/contracts/proxy/diamond/fallback/DiamondFallback.sol\":539:701  function getFallbackAddress()... */\n    tag_5:\n      callvalue\n      dup1\n      iszero\n      tag_39\n      jumpi\n      0x00\n      dup1\n      revert\n    tag_39:\n      pop\n      tag_40\n      tag_41\n      jump\t// in\n    tag_40:\n      mload(0x40)\n      sub(shl(0xa0, 0x01), 0x01)\n        /* \"#utility.yul\":2391:2423   */\n      swap1\n      swap2\n      and\n        /* \"#utility.yul\":2373:2424   */\n      dup2\n      mstore\n        /* \"#utility.yul\":2361:2363   */\n      0x20\n        /* \"#utility.yul\":2346:2364   */\n      add\n        /* \"imports/solidstate/contracts/proxy/diamond/fallback/DiamondFallback.sol\":539:701  function getFallbackAddress()... */\n      tag_32\n        /* \"#utility.yul\":2227:2430   */\n      jump\n        /* \"imports/solidstate/contracts/proxy/diamond/readable/DiamondReadable.sol\":4281:5755  function facetAddresses()... */\n    tag_6:\n      callvalue\n      dup1\n      iszero\n      tag_44\n      jumpi\n      0x00\n      dup1\n      revert\n    tag_44:\n      pop\n      tag_45\n      tag_46\n      jump\t// in\n    tag_45:\n      mload(0x40)\n      tag_32\n      swap2\n      swap1\n      tag_48\n      jump\t// in\n        /* \"imports/solidstate/contracts/access/ownable/SafeOwnable.sol\":654:748  function acceptOwnership() public virtual onlyNomineeOwner {... */\n    tag_7:\n      callvalue\n      dup1\n      iszero\n      tag_49\n      jumpi\n      0x00\n      dup1\n      revert\n    tag_49:\n      pop\n      tag_25\n      tag_51\n      jump\t// in\n        /* \"imports/solidstate/contracts/proxy/diamond/readable/DiamondReadable.sol\":436:2985  function facets() external view returns (Facet[] memory diamondFacets) {... */\n    tag_8:\n      callvalue\n      dup1\n      iszero\n      tag_52\n      jumpi\n      0x00\n      dup1\n      revert\n    tag_52:\n      pop\n      tag_53\n      tag_54\n      jump\t// in\n    tag_53:\n      mload(0x40)\n      tag_32\n      swap2\n      swap1\n      tag_56\n      jump\t// in\n        /* \"imports/solidstate/contracts/access/ownable/SafeOwnable.sol\":499:600  function nomineeOwner() public view virtual returns (address) {... */\n    tag_9:\n      callvalue\n      dup1\n      iszero\n      tag_57\n      jumpi\n      0x00\n      dup1\n      revert\n    tag_57:\n      pop\n      tag_40\n      tag_59\n      jump\t// in\n        /* \"imports/solidstate/contracts/access/ownable/Ownable.sol\":378:465  function owner() public view virtual returns (address) {... */\n    tag_10:\n      callvalue\n      dup1\n      iszero\n      tag_61\n      jumpi\n      0x00\n      dup1\n      revert\n    tag_61:\n      pop\n      tag_40\n      tag_63\n      jump\t// in\n        /* \"imports/solidstate/contracts/proxy/diamond/fallback/DiamondFallback.sol\":759:884  function setFallbackAddress(address fallbackAddress) external onlyOwner {... */\n    tag_11:\n      callvalue\n      dup1\n      iszero\n      tag_65\n      jumpi\n      0x00\n      dup1\n      revert\n    tag_65:\n      pop\n      tag_25\n      tag_67\n      calldatasize\n      0x04\n      tag_68\n      jump\t// in\n    tag_67:\n      tag_69\n      jump\t// in\n        /* \"imports/solidstate/contracts/proxy/diamond/readable/DiamondReadable.sol\":3043:4223  function facetFunctionSelectors(... */\n    tag_12:\n      callvalue\n      dup1\n      iszero\n      tag_70\n      jumpi\n      0x00\n      dup1\n      revert\n    tag_70:\n      pop\n      tag_71\n      tag_72\n      calldatasize\n      0x04\n      tag_68\n      jump\t// in\n    tag_72:\n      tag_73\n      jump\t// in\n    tag_71:\n      mload(0x40)\n      tag_32\n      swap2\n      swap1\n      tag_75\n      jump\t// in\n        /* \"imports/solidstate/contracts/proxy/diamond/readable/DiamondReadable.sol\":5813:5991  function facetAddress(... */\n    tag_13:\n      callvalue\n      dup1\n      iszero\n      tag_76\n      jumpi\n      0x00\n      dup1\n      revert\n    tag_76:\n      pop\n      tag_40\n      tag_78\n      calldatasize\n      0x04\n      tag_30\n      jump\t// in\n    tag_78:\n      not(sub(shl(0xe0, 0x01), 0x01))\n        /* \"imports/solidstate/contracts/proxy/diamond/readable/DiamondReadable.sol\":5938:5982  DiamondBaseStorage.layout().facets[selector] */\n      and\n        /* \"imports/solidstate/contracts/proxy/diamond/readable/DiamondReadable.sol\":5889:5902  address facet */\n      0x00\n        /* \"imports/solidstate/contracts/proxy/diamond/readable/DiamondReadable.sol\":5938:5982  DiamondBaseStorage.layout().facets[selector] */\n      swap1\n      dup2\n      mstore\n      0x00\n      dup1\n      mload\n      0x20\n      data_b4a3f1194ff204df3421c76163ff361a7821792777bfc1dcb14fa8d3eb97e7f5\n      dup4\n      codecopy\n      dup2\n      mload\n      swap2\n      mstore\n      0x20\n      mstore\n      0x40\n      swap1\n      keccak256\n      sload\n        /* \"imports/solidstate/contracts/proxy/diamond/readable/DiamondReadable.sol\":5922:5984  address(bytes20(DiamondBaseStorage.layout().facets[selector])) */\n      0x60\n      shr\n      swap1\n        /* \"imports/solidstate/contracts/proxy/diamond/readable/DiamondReadable.sol\":5813:5991  function facetAddress(... */\n      jump\n        /* \"imports/solidstate/contracts/access/ownable/Ownable.sol\":514:627  function transferOwnership(address account) public virtual onlyOwner {... */\n    tag_14:\n      callvalue\n      dup1\n      iszero\n      tag_81\n      jumpi\n      0x00\n      dup1\n      revert\n    tag_81:\n      pop\n      tag_25\n      tag_83\n      calldatasize\n      0x04\n      tag_68\n      jump\t// in\n    tag_83:\n      tag_84\n      jump\t// in\n        /* \"imports/solidstate/contracts/proxy/diamond/SolidStateDiamond.sol\":3281:3493  function _getImplementation()... */\n    tag_21:\n        /* \"imports/solidstate/contracts/proxy/diamond/SolidStateDiamond.sol\":3405:3427  address implementation */\n      0x00\n        /* \"imports/solidstate/contracts/proxy/diamond/SolidStateDiamond.sol\":3460:3486  super._getImplementation() */\n      tag_86\n        /* \"imports/solidstate/contracts/proxy/diamond/SolidStateDiamond.sol\":3460:3484  super._getImplementation */\n      tag_87\n        /* \"imports/solidstate/contracts/proxy/diamond/SolidStateDiamond.sol\":3460:3486  super._getImplementation() */\n      jump\t// in\n    tag_86:\n        /* \"imports/solidstate/contracts/proxy/diamond/SolidStateDiamond.sol\":3443:3486  implementation = super._getImplementation() */\n      swap1\n      pop\n        /* \"imports/solidstate/contracts/proxy/diamond/SolidStateDiamond.sol\":3281:3493  function _getImplementation()... */\n      swap1\n      jump\t// out\n        /* \"imports/solidstate/contracts/proxy/diamond/writable/DiamondWritable.sol\":495:685  function diamondCut(... */\n    tag_38:\n        /* \"imports/solidstate/contracts/access/ownable/OwnableInternal.sol\":436:444  _owner() */\n      tag_93\n        /* \"imports/solidstate/contracts/access/ownable/OwnableInternal.sol\":436:442  _owner */\n      tag_94\n        /* \"imports/solidstate/contracts/access/ownable/OwnableInternal.sol\":436:444  _owner() */\n      jump\t// in\n    tag_93:\n      sub(shl(0xa0, 0x01), 0x01)\n        /* \"imports/solidstate/contracts/access/ownable/OwnableInternal.sol\":422:444  msg.sender != _owner() */\n      and\n        /* \"imports/solidstate/contracts/access/ownable/OwnableInternal.sol\":422:432  msg.sender */\n      caller\n      sub(shl(0xa0, 0x01), 0x01)\n        /* \"imports/solidstate/contracts/access/ownable/OwnableInternal.sol\":422:444  msg.sender != _owner() */\n      and\n      eq\n        /* \"imports/solidstate/contracts/access/ownable/OwnableInternal.sol\":418:472  if (msg.sender != _owner()) revert Ownable__NotOwner() */\n      tag_95\n      jumpi\n        /* \"imports/solidstate/contracts/access/ownable/OwnableInternal.sol\":453:472  Ownable__NotOwner() */\n      mload(0x40)\n      shl(0xe0, 0x2f7a8ee1)\n      dup2\n      mstore\n      0x04\n      add\n      mload(0x40)\n      dup1\n      swap2\n      sub\n      swap1\n      revert\n        /* \"imports/solidstate/contracts/access/ownable/OwnableInternal.sol\":418:472  if (msg.sender != _owner()) revert Ownable__NotOwner() */\n    tag_95:\n        /* \"imports/solidstate/contracts/proxy/diamond/writable/DiamondWritable.sol\":642:678  _diamondCut(facetCuts, target, data) */\n      tag_97\n      tag_98\n        /* \"imports/solidstate/contracts/proxy/diamond/writable/DiamondWritable.sol\":654:663  facetCuts */\n      dup6\n      dup8\n        /* \"imports/solidstate/contracts/proxy/diamond/writable/DiamondWritable.sol\":642:678  _diamondCut(facetCuts, target, data) */\n      tag_99\n      jump\t// in\n    tag_98:\n        /* \"imports/solidstate/contracts/proxy/diamond/writable/DiamondWritable.sol\":665:671  target */\n      dup5\n        /* \"imports/solidstate/contracts/proxy/diamond/writable/DiamondWritable.sol\":673:677  data */\n      dup5\n      dup5\n        /* \"imports/solidstate/contracts/proxy/diamond/writable/DiamondWritable.sol\":642:678  _diamondCut(facetCuts, target, data) */\n      dup1\n      dup1\n      0x1f\n      add\n      0x20\n      dup1\n      swap2\n      div\n      mul\n      0x20\n      add\n      mload(0x40)\n      swap1\n      dup2\n      add\n      0x40\n      mstore\n      dup1\n      swap4\n      swap3\n      swap2\n      swap1\n      dup2\n      dup2\n      mstore\n      0x20\n      add\n      dup4\n      dup4\n      dup1\n      dup3\n      dup5\n      calldatacopy\n      0x00\n      swap3\n      add\n      swap2\n      swap1\n      swap2\n      mstore\n      pop\n        /* \"imports/solidstate/contracts/proxy/diamond/writable/DiamondWritable.sol\":642:653  _diamondCut */\n      tag_100\n      swap3\n      pop\n      pop\n      pop\n        /* \"imports/solidstate/contracts/proxy/diamond/writable/DiamondWritable.sol\":642:678  _diamondCut(facetCuts, target, data) */\n      jump\t// in\n    tag_97:\n        /* \"imports/solidstate/contracts/proxy/diamond/writable/DiamondWritable.sol\":495:685  function diamondCut(... */\n      pop\n      pop\n      pop\n      pop\n      pop\n      jump\t// out\n        /* \"imports/solidstate/contracts/proxy/diamond/fallback/DiamondFallback.sol\":539:701  function getFallbackAddress()... */\n    tag_41:\n        /* \"imports/solidstate/contracts/proxy/diamond/fallback/DiamondFallback.sol\":616:639  address fallbackAddress */\n      0x00\n        /* \"imports/solidstate/contracts/proxy/diamond/fallback/DiamondFallback.sol\":673:694  _getFallbackAddress() */\n      tag_86\n        /* \"imports/solidstate/contracts/proxy/diamond/fallback/DiamondFallback.sol\":1620:1663  DiamondBaseStorage.layout().fallbackAddress */\n      and(sub(shl(0xa0, 0x01), 0x01), sload(0x177481ac65e4292921c69f62d1cc7f57541261e5d61c8175cf4e36a01c9bfc96))\n      swap1\n        /* \"imports/solidstate/contracts/proxy/diamond/fallback/DiamondFallback.sol\":1469:1670  function _getFallbackAddress()... */\n      jump\n        /* \"imports/solidstate/contracts/proxy/diamond/readable/DiamondReadable.sol\":4281:5755  function facetAddresses()... */\n    tag_46:\n      0x00\n      dup1\n      mload\n      0x20\n      data_a5e74bf718c7d6929bf8f422c8be92118782759abac1bf7601c5a938d6f306a1\n      dup4\n      codecopy\n      dup2\n      mload\n      swap2\n      mstore\n        /* \"imports/solidstate/contracts/proxy/diamond/readable/DiamondReadable.sol\":4498:4513  l.selectorCount */\n      sload\n        /* \"imports/solidstate/contracts/proxy/diamond/readable/DiamondReadable.sol\":4354:4380  address[] memory addresses */\n      0x60\n      swap1\n      0x00\n      dup1\n      mload\n      0x20\n      data_b4a3f1194ff204df3421c76163ff361a7821792777bfc1dcb14fa8d3eb97e7f5\n      dup4\n      codecopy\n      dup2\n      mload\n      swap2\n      mstore\n        /* \"imports/solidstate/contracts/proxy/diamond/base/DiamondBaseStorage.sol\":584:637  keccak256('solidstate.contracts.storage.DiamondBase') */\n      swap1\n        /* \"imports/solidstate/contracts/proxy/diamond/readable/DiamondReadable.sol\":4498:4513  l.selectorCount */\n      0xffff\n      and\n        /* \"imports/solidstate/contracts/proxy/diamond/readable/DiamondReadable.sol\":4484:4514  new address[](l.selectorCount) */\n      0xffffffffffffffff\n      dup2\n      gt\n      iszero\n      tag_108\n      jumpi\n      tag_108\n      tag_109\n      jump\t// in\n    tag_108:\n      mload(0x40)\n      swap1\n      dup1\n      dup3\n      mstore\n      dup1\n      0x20\n      mul\n      0x20\n      add\n      dup3\n      add\n      0x40\n      mstore\n      dup1\n      iszero\n      tag_110\n      jumpi\n      dup2\n      0x20\n      add\n      0x20\n      dup3\n      mul\n      dup1\n      calldatasize\n      dup4\n      calldatacopy\n      add\n      swap1\n      pop\n    tag_110:\n      pop\n        /* \"imports/solidstate/contracts/proxy/diamond/readable/DiamondReadable.sol\":4472:4514  addresses = new address[](l.selectorCount) */\n      swap2\n      pop\n        /* \"imports/solidstate/contracts/proxy/diamond/readable/DiamondReadable.sol\":4524:4541  uint256 numFacets */\n      0x00\n        /* \"imports/solidstate/contracts/proxy/diamond/readable/DiamondReadable.sol\":4551:4572  uint256 selectorIndex */\n      dup1\n        /* \"imports/solidstate/contracts/proxy/diamond/readable/DiamondReadable.sol\":4588:4605  uint256 slotIndex */\n      0x00\n        /* \"imports/solidstate/contracts/proxy/diamond/readable/DiamondReadable.sol\":4583:5620  for (uint256 slotIndex; selectorIndex < l.selectorCount; slotIndex++) {... */\n    tag_111:\n        /* \"imports/solidstate/contracts/proxy/diamond/readable/DiamondReadable.sol\":4623:4638  l.selectorCount */\n      0x01\n      dup5\n      add\n      sload\n      0xffff\n      and\n        /* \"imports/solidstate/contracts/proxy/diamond/readable/DiamondReadable.sol\":4607:4638  selectorIndex < l.selectorCount */\n      dup3\n      lt\n        /* \"imports/solidstate/contracts/proxy/diamond/readable/DiamondReadable.sol\":4583:5620  for (uint256 slotIndex; selectorIndex < l.selectorCount; slotIndex++) {... */\n      iszero\n      tag_112\n      jumpi\n        /* \"imports/solidstate/contracts/proxy/diamond/readable/DiamondReadable.sol\":4667:4679  bytes32 slot */\n      0x00\n        /* \"imports/solidstate/contracts/proxy/diamond/readable/DiamondReadable.sol\":4682:4708  l.selectorSlots[slotIndex] */\n      dup2\n      dup2\n      mstore\n        /* \"imports/solidstate/contracts/proxy/diamond/readable/DiamondReadable.sol\":4682:4697  l.selectorSlots */\n      0x02\n      dup6\n      add\n        /* \"imports/solidstate/contracts/proxy/diamond/readable/DiamondReadable.sol\":4682:4708  l.selectorSlots[slotIndex] */\n      0x20\n      mstore\n      0x40\n      dup2\n      keccak256\n      sload\n      swap1\n        /* \"imports/solidstate/contracts/proxy/diamond/readable/DiamondReadable.sol\":4723:5610  for (... */\n    tag_114:\n        /* \"imports/solidstate/contracts/proxy/diamond/readable/DiamondReadable.sol\":4808:4809  8 */\n      0x08\n        /* \"imports/solidstate/contracts/proxy/diamond/readable/DiamondReadable.sol\":4788:4805  selectorSlotIndex */\n      dup2\n        /* \"imports/solidstate/contracts/proxy/diamond/readable/DiamondReadable.sol\":4788:4809  selectorSlotIndex < 8 */\n      lt\n        /* \"imports/solidstate/contracts/proxy/diamond/readable/DiamondReadable.sol\":4723:5610  for (... */\n      iszero\n      tag_115\n      jumpi\n        /* \"imports/solidstate/contracts/proxy/diamond/readable/DiamondReadable.sol\":4879:4894  selectorIndex++ */\n      dup4\n      tag_117\n      dup2\n      tag_118\n      jump\t// in\n    tag_117:\n        /* \"imports/solidstate/contracts/proxy/diamond/readable/DiamondReadable.sol\":4933:4948  l.selectorCount */\n      0x01\n      dup9\n      add\n      sload\n        /* \"imports/solidstate/contracts/proxy/diamond/readable/DiamondReadable.sol\":4879:4894  selectorIndex++ */\n      swap1\n      swap6\n      pop\n        /* \"imports/solidstate/contracts/proxy/diamond/readable/DiamondReadable.sol\":4933:4948  l.selectorCount */\n      0xffff\n      and\n        /* \"imports/solidstate/contracts/proxy/diamond/readable/DiamondReadable.sol\":4917:4948  selectorIndex > l.selectorCount */\n      dup6\n      gt\n      swap1\n      pop\n        /* \"imports/solidstate/contracts/proxy/diamond/readable/DiamondReadable.sol\":4972:4977  break */\n      tag_115\n        /* \"imports/solidstate/contracts/proxy/diamond/readable/DiamondReadable.sol\":4913:4996  if (selectorIndex > l.selectorCount) {... */\n      jumpi\n        /* \"imports/solidstate/contracts/proxy/diamond/readable/DiamondReadable.sol\":5069:5070  5 */\n      0x05\n        /* \"imports/solidstate/contracts/proxy/diamond/readable/DiamondReadable.sol\":5048:5070  selectorSlotIndex << 5 */\n      dup2\n      swap1\n      shl\n        /* \"imports/solidstate/contracts/proxy/diamond/readable/DiamondReadable.sol\":5039:5071  slot << (selectorSlotIndex << 5) */\n      dup3\n      swap1\n      shl\n      not(sub(shl(0xe0, 0x01), 0x01))\n        /* \"imports/solidstate/contracts/proxy/diamond/readable/DiamondReadable.sol\":5122:5140  l.facets[selector] */\n      dup2\n      and\n        /* \"imports/solidstate/contracts/proxy/diamond/readable/DiamondReadable.sol\":5014:5029  bytes4 selector */\n      0x00\n        /* \"imports/solidstate/contracts/proxy/diamond/readable/DiamondReadable.sol\":5122:5140  l.facets[selector] */\n      swap1\n      dup2\n      mstore\n      0x20\n      dup9\n      swap1\n      mstore\n      0x40\n      dup2\n      keccak256\n      sload\n        /* \"imports/solidstate/contracts/proxy/diamond/readable/DiamondReadable.sol\":5106:5142  address(bytes20(l.facets[selector])) */\n      0x60\n      shr\n      swap1\n        /* \"imports/solidstate/contracts/proxy/diamond/readable/DiamondReadable.sol\":5014:5029  bytes4 selector */\n      dup1\n        /* \"imports/solidstate/contracts/proxy/diamond/readable/DiamondReadable.sol\":5197:5435  for (uint256 facetIndex; facetIndex < numFacets; facetIndex++) {... */\n    tag_120:\n        /* \"imports/solidstate/contracts/proxy/diamond/readable/DiamondReadable.sol\":5235:5244  numFacets */\n      dup9\n        /* \"imports/solidstate/contracts/proxy/diamond/readable/DiamondReadable.sol\":5222:5232  facetIndex */\n      dup2\n        /* \"imports/solidstate/contracts/proxy/diamond/readable/DiamondReadable.sol\":5222:5244  facetIndex < numFacets */\n      lt\n        /* \"imports/solidstate/contracts/proxy/diamond/readable/DiamondReadable.sol\":5197:5435  for (uint256 facetIndex; facetIndex < numFacets; facetIndex++) {... */\n      iszero\n      tag_121\n      jumpi\n        /* \"imports/solidstate/contracts/proxy/diamond/readable/DiamondReadable.sol\":5295:5304  addresses */\n      dup11\n        /* \"imports/solidstate/contracts/proxy/diamond/readable/DiamondReadable.sol\":5305:5315  facetIndex */\n      dup2\n        /* \"imports/solidstate/contracts/proxy/diamond/readable/DiamondReadable.sol\":5295:5316  addresses[facetIndex] */\n      dup2\n      mload\n      dup2\n      lt\n      tag_124\n      jumpi\n      tag_124\n      tag_125\n      jump\t// in\n    tag_124:\n      0x20\n      mul\n      0x20\n      add\n      add\n      mload\n      sub(shl(0xa0, 0x01), 0x01)\n        /* \"imports/solidstate/contracts/proxy/diamond/readable/DiamondReadable.sol\":5286:5316  facet == addresses[facetIndex] */\n      and\n        /* \"imports/solidstate/contracts/proxy/diamond/readable/DiamondReadable.sol\":5286:5291  facet */\n      dup4\n      sub(shl(0xa0, 0x01), 0x01)\n        /* \"imports/solidstate/contracts/proxy/diamond/readable/DiamondReadable.sol\":5286:5316  facet == addresses[facetIndex] */\n      and\n      sub\n        /* \"imports/solidstate/contracts/proxy/diamond/readable/DiamondReadable.sol\":5282:5417  if (facet == addresses[facetIndex]) {... */\n      tag_126\n      jumpi\n        /* \"imports/solidstate/contracts/proxy/diamond/readable/DiamondReadable.sol\":5359:5363  true */\n      0x01\n        /* \"imports/solidstate/contracts/proxy/diamond/readable/DiamondReadable.sol\":5344:5363  continueLoop = true */\n      swap2\n      pop\n        /* \"imports/solidstate/contracts/proxy/diamond/readable/DiamondReadable.sol\":5389:5394  break */\n      jump(tag_121)\n        /* \"imports/solidstate/contracts/proxy/diamond/readable/DiamondReadable.sol\":5282:5417  if (facet == addresses[facetIndex]) {... */\n    tag_126:\n        /* \"imports/solidstate/contracts/proxy/diamond/readable/DiamondReadable.sol\":5246:5258  facetIndex++ */\n      dup1\n      tag_127\n      dup2\n      tag_118\n      jump\t// in\n    tag_127:\n      swap2\n      pop\n      pop\n        /* \"imports/solidstate/contracts/proxy/diamond/readable/DiamondReadable.sol\":5197:5435  for (uint256 facetIndex; facetIndex < numFacets; facetIndex++) {... */\n      jump(tag_120)\n    tag_121:\n      pop\n        /* \"imports/solidstate/contracts/proxy/diamond/readable/DiamondReadable.sol\":5457:5469  continueLoop */\n      dup1\n        /* \"imports/solidstate/contracts/proxy/diamond/readable/DiamondReadable.sol\":5453:5520  if (continueLoop) {... */\n      iszero\n      tag_128\n      jumpi\n        /* \"imports/solidstate/contracts/proxy/diamond/readable/DiamondReadable.sol\":5493:5501  continue */\n      pop\n      pop\n      pop\n      jump(tag_116)\n        /* \"imports/solidstate/contracts/proxy/diamond/readable/DiamondReadable.sol\":5453:5520  if (continueLoop) {... */\n    tag_128:\n        /* \"imports/solidstate/contracts/proxy/diamond/readable/DiamondReadable.sol\":5561:5566  facet */\n      dup2\n        /* \"imports/solidstate/contracts/proxy/diamond/readable/DiamondReadable.sol\":5538:5547  addresses */\n      dup11\n        /* \"imports/solidstate/contracts/proxy/diamond/readable/DiamondReadable.sol\":5548:5557  numFacets */\n      dup10\n        /* \"imports/solidstate/contracts/proxy/diamond/readable/DiamondReadable.sol\":5538:5558  addresses[numFacets] */\n      dup2\n      mload\n      dup2\n      lt\n      tag_130\n      jumpi\n      tag_130\n      tag_125\n      jump\t// in\n    tag_130:\n      sub(shl(0xa0, 0x01), 0x01)\n        /* \"imports/solidstate/contracts/proxy/diamond/readable/DiamondReadable.sol\":5538:5566  addresses[numFacets] = facet */\n      swap1\n      swap3\n      and\n        /* \"imports/solidstate/contracts/proxy/diamond/readable/DiamondReadable.sol\":5538:5558  addresses[numFacets] */\n      0x20\n      swap3\n      dup4\n      mul\n      swap2\n      swap1\n      swap2\n      add\n      swap1\n      swap2\n      add\n        /* \"imports/solidstate/contracts/proxy/diamond/readable/DiamondReadable.sol\":5538:5566  addresses[numFacets] = facet */\n      mstore\n        /* \"imports/solidstate/contracts/proxy/diamond/readable/DiamondReadable.sol\":5584:5595  numFacets++ */\n      dup8\n      tag_131\n      dup2\n      tag_118\n      jump\t// in\n    tag_131:\n      swap9\n      pop\n      pop\n        /* \"imports/solidstate/contracts/proxy/diamond/readable/DiamondReadable.sol\":4861:5610  {... */\n      pop\n      pop\n      pop\n        /* \"imports/solidstate/contracts/proxy/diamond/readable/DiamondReadable.sol\":4723:5610  for (... */\n    tag_116:\n        /* \"imports/solidstate/contracts/proxy/diamond/readable/DiamondReadable.sol\":4827:4846  selectorSlotIndex++ */\n      dup1\n      tag_132\n      dup2\n      tag_118\n      jump\t// in\n    tag_132:\n      swap2\n      pop\n      pop\n        /* \"imports/solidstate/contracts/proxy/diamond/readable/DiamondReadable.sol\":4723:5610  for (... */\n      jump(tag_114)\n    tag_115:\n      pop\n        /* \"imports/solidstate/contracts/proxy/diamond/readable/DiamondReadable.sol\":4653:5620  {... */\n      pop\n        /* \"imports/solidstate/contracts/proxy/diamond/readable/DiamondReadable.sol\":4640:4651  slotIndex++ */\n      dup1\n      dup1\n      tag_133\n      swap1\n      tag_118\n      jump\t// in\n    tag_133:\n      swap2\n      pop\n      pop\n        /* \"imports/solidstate/contracts/proxy/diamond/readable/DiamondReadable.sol\":4583:5620  for (uint256 slotIndex; selectorIndex < l.selectorCount; slotIndex++) {... */\n      jump(tag_111)\n    tag_112:\n      pop\n      pop\n        /* \"imports/solidstate/contracts/proxy/diamond/readable/DiamondReadable.sol\":5711:5739  mstore(addresses, numFacets) */\n      dup3\n      mstore\n      pop\n        /* \"imports/solidstate/contracts/proxy/diamond/readable/DiamondReadable.sol\":5718:5727  addresses */\n      swap1\n        /* \"imports/solidstate/contracts/proxy/diamond/readable/DiamondReadable.sol\":4281:5755  function facetAddresses()... */\n      jump\t// out\n        /* \"imports/solidstate/contracts/access/ownable/SafeOwnable.sol\":654:748  function acceptOwnership() public virtual onlyNomineeOwner {... */\n    tag_51:\n        /* \"imports/solidstate/contracts/access/ownable/SafeOwnableInternal.sol\":387:402  _nomineeOwner() */\n      tag_135\n        /* \"imports/solidstate/contracts/access/ownable/SafeOwnableInternal.sol\":387:400  _nomineeOwner */\n      tag_136\n        /* \"imports/solidstate/contracts/access/ownable/SafeOwnableInternal.sol\":387:402  _nomineeOwner() */\n      jump\t// in\n    tag_135:\n      sub(shl(0xa0, 0x01), 0x01)\n        /* \"imports/solidstate/contracts/access/ownable/SafeOwnableInternal.sol\":373:402  msg.sender != _nomineeOwner() */\n      and\n        /* \"imports/solidstate/contracts/access/ownable/SafeOwnableInternal.sol\":373:383  msg.sender */\n      caller\n      sub(shl(0xa0, 0x01), 0x01)\n        /* \"imports/solidstate/contracts/access/ownable/SafeOwnableInternal.sol\":373:402  msg.sender != _nomineeOwner() */\n      and\n      eq\n        /* \"imports/solidstate/contracts/access/ownable/SafeOwnableInternal.sol\":369:453  if (msg.sender != _nomineeOwner())... */\n      tag_137\n      jumpi\n        /* \"imports/solidstate/contracts/access/ownable/SafeOwnableInternal.sol\":423:453  SafeOwnable__NotNomineeOwner() */\n      mload(0x40)\n      shl(0xe0, 0xefd1052d)\n      dup2\n      mstore\n      0x04\n      add\n      mload(0x40)\n      dup1\n      swap2\n      sub\n      swap1\n      revert\n        /* \"imports/solidstate/contracts/access/ownable/SafeOwnableInternal.sol\":369:453  if (msg.sender != _nomineeOwner())... */\n    tag_137:\n        /* \"imports/solidstate/contracts/access/ownable/SafeOwnable.sol\":723:741  _acceptOwnership() */\n      tag_139\n        /* \"imports/solidstate/contracts/access/ownable/SafeOwnable.sol\":723:739  _acceptOwnership */\n      tag_140\n        /* \"imports/solidstate/contracts/access/ownable/SafeOwnable.sol\":723:741  _acceptOwnership() */\n      jump\t// in\n    tag_139:\n        /* \"imports/solidstate/contracts/access/ownable/SafeOwnable.sol\":654:748  function acceptOwnership() public virtual onlyNomineeOwner {... */\n      jump\t// out\n        /* \"imports/solidstate/contracts/proxy/diamond/readable/DiamondReadable.sol\":436:2985  function facets() external view returns (Facet[] memory diamondFacets) {... */\n    tag_54:\n      0x00\n      dup1\n      mload\n      0x20\n      data_a5e74bf718c7d6929bf8f422c8be92118782759abac1bf7601c5a938d6f306a1\n      dup4\n      codecopy\n      dup2\n      mload\n      swap2\n      mstore\n        /* \"imports/solidstate/contracts/proxy/diamond/readable/DiamondReadable.sol\":621:636  l.selectorCount */\n      sload\n        /* \"imports/solidstate/contracts/proxy/diamond/readable/DiamondReadable.sol\":477:505  Facet[] memory diamondFacets */\n      0x60\n      swap1\n      0x00\n      dup1\n      mload\n      0x20\n      data_b4a3f1194ff204df3421c76163ff361a7821792777bfc1dcb14fa8d3eb97e7f5\n      dup4\n      codecopy\n      dup2\n      mload\n      swap2\n      mstore\n        /* \"imports/solidstate/contracts/proxy/diamond/base/DiamondBaseStorage.sol\":584:637  keccak256('solidstate.contracts.storage.DiamondBase') */\n      swap1\n        /* \"imports/solidstate/contracts/proxy/diamond/readable/DiamondReadable.sol\":621:636  l.selectorCount */\n      0xffff\n      and\n        /* \"imports/solidstate/contracts/proxy/diamond/readable/DiamondReadable.sol\":609:637  new Facet[](l.selectorCount) */\n      0xffffffffffffffff\n      dup2\n      gt\n      iszero\n      tag_144\n      jumpi\n      tag_144\n      tag_109\n      jump\t// in\n    tag_144:\n      mload(0x40)\n      swap1\n      dup1\n      dup3\n      mstore\n      dup1\n      0x20\n      mul\n      0x20\n      add\n      dup3\n      add\n      0x40\n      mstore\n      dup1\n      iszero\n      tag_145\n      jumpi\n      dup2\n      0x20\n      add\n    tag_146:\n      0x40\n      dup1\n      mload\n      dup1\n      dup3\n      add\n      swap1\n      swap2\n      mstore\n      0x00\n      dup2\n      mstore\n      0x60\n      0x20\n      dup3\n      add\n      mstore\n      dup2\n      mstore\n      0x20\n      add\n      swap1\n      0x01\n      swap1\n      sub\n      swap1\n      dup2\n      tag_146\n      jumpi\n      swap1\n      pop\n    tag_145:\n      pop\n        /* \"imports/solidstate/contracts/proxy/diamond/readable/DiamondReadable.sol\":695:710  l.selectorCount */\n      0x01\n      dup3\n      add\n      sload\n        /* \"imports/solidstate/contracts/proxy/diamond/readable/DiamondReadable.sol\":593:637  diamondFacets = new Facet[](l.selectorCount) */\n      swap1\n      swap3\n      pop\n        /* \"imports/solidstate/contracts/proxy/diamond/readable/DiamondReadable.sol\":648:680  uint8[] memory numFacetSelectors */\n      0x00\n      swap1\n        /* \"imports/solidstate/contracts/proxy/diamond/readable/DiamondReadable.sol\":695:710  l.selectorCount */\n      0xffff\n      and\n        /* \"imports/solidstate/contracts/proxy/diamond/readable/DiamondReadable.sol\":683:711  new uint8[](l.selectorCount) */\n      0xffffffffffffffff\n      dup2\n      gt\n      iszero\n      tag_150\n      jumpi\n      tag_150\n      tag_109\n      jump\t// in\n    tag_150:\n      mload(0x40)\n      swap1\n      dup1\n      dup3\n      mstore\n      dup1\n      0x20\n      mul\n      0x20\n      add\n      dup3\n      add\n      0x40\n      mstore\n      dup1\n      iszero\n      tag_151\n      jumpi\n      dup2\n      0x20\n      add\n      0x20\n      dup3\n      mul\n      dup1\n      calldatasize\n      dup4\n      calldatacopy\n      add\n      swap1\n      pop\n    tag_151:\n      pop\n        /* \"imports/solidstate/contracts/proxy/diamond/readable/DiamondReadable.sol\":648:711  uint8[] memory numFacetSelectors = new uint8[](l.selectorCount) */\n      swap1\n      pop\n        /* \"imports/solidstate/contracts/proxy/diamond/readable/DiamondReadable.sol\":721:738  uint256 numFacets */\n      0x00\n        /* \"imports/solidstate/contracts/proxy/diamond/readable/DiamondReadable.sol\":748:769  uint256 selectorIndex */\n      dup1\n        /* \"imports/solidstate/contracts/proxy/diamond/readable/DiamondReadable.sol\":828:845  uint256 slotIndex */\n      0x00\n        /* \"imports/solidstate/contracts/proxy/diamond/readable/DiamondReadable.sol\":823:2504  for (uint256 slotIndex; selectorIndex < l.selectorCount; slotIndex++) {... */\n    tag_152:\n        /* \"imports/solidstate/contracts/proxy/diamond/readable/DiamondReadable.sol\":863:878  l.selectorCount */\n      0x01\n      dup6\n      add\n      sload\n      0xffff\n      and\n        /* \"imports/solidstate/contracts/proxy/diamond/readable/DiamondReadable.sol\":847:878  selectorIndex < l.selectorCount */\n      dup3\n      lt\n        /* \"imports/solidstate/contracts/proxy/diamond/readable/DiamondReadable.sol\":823:2504  for (uint256 slotIndex; selectorIndex < l.selectorCount; slotIndex++) {... */\n      iszero\n      tag_153\n      jumpi\n        /* \"imports/solidstate/contracts/proxy/diamond/readable/DiamondReadable.sol\":907:919  bytes32 slot */\n      0x00\n        /* \"imports/solidstate/contracts/proxy/diamond/readable/DiamondReadable.sol\":922:948  l.selectorSlots[slotIndex] */\n      dup2\n      dup2\n      mstore\n        /* \"imports/solidstate/contracts/proxy/diamond/readable/DiamondReadable.sol\":922:937  l.selectorSlots */\n      0x02\n      dup7\n      add\n        /* \"imports/solidstate/contracts/proxy/diamond/readable/DiamondReadable.sol\":922:948  l.selectorSlots[slotIndex] */\n      0x20\n      mstore\n      0x40\n      dup2\n      keccak256\n      sload\n      swap1\n        /* \"imports/solidstate/contracts/proxy/diamond/readable/DiamondReadable.sol\":963:2494  for (... */\n    tag_155:\n        /* \"imports/solidstate/contracts/proxy/diamond/readable/DiamondReadable.sol\":1048:1049  8 */\n      0x08\n        /* \"imports/solidstate/contracts/proxy/diamond/readable/DiamondReadable.sol\":1028:1045  selectorSlotIndex */\n      dup2\n        /* \"imports/solidstate/contracts/proxy/diamond/readable/DiamondReadable.sol\":1028:1049  selectorSlotIndex < 8 */\n      lt\n        /* \"imports/solidstate/contracts/proxy/diamond/readable/DiamondReadable.sol\":963:2494  for (... */\n      iszero\n      tag_156\n      jumpi\n        /* \"imports/solidstate/contracts/proxy/diamond/readable/DiamondReadable.sol\":1119:1134  selectorIndex++ */\n      dup4\n      tag_158\n      dup2\n      tag_118\n      jump\t// in\n    tag_158:\n        /* \"imports/solidstate/contracts/proxy/diamond/readable/DiamondReadable.sol\":1173:1188  l.selectorCount */\n      0x01\n      dup10\n      add\n      sload\n        /* \"imports/solidstate/contracts/proxy/diamond/readable/DiamondReadable.sol\":1119:1134  selectorIndex++ */\n      swap1\n      swap6\n      pop\n        /* \"imports/solidstate/contracts/proxy/diamond/readable/DiamondReadable.sol\":1173:1188  l.selectorCount */\n      0xffff\n      and\n        /* \"imports/solidstate/contracts/proxy/diamond/readable/DiamondReadable.sol\":1157:1188  selectorIndex > l.selectorCount */\n      dup6\n      gt\n      swap1\n      pop\n        /* \"imports/solidstate/contracts/proxy/diamond/readable/DiamondReadable.sol\":1212:1217  break */\n      tag_156\n        /* \"imports/solidstate/contracts/proxy/diamond/readable/DiamondReadable.sol\":1153:1236  if (selectorIndex > l.selectorCount) {... */\n      jumpi\n        /* \"imports/solidstate/contracts/proxy/diamond/readable/DiamondReadable.sol\":1309:1310  5 */\n      0x05\n        /* \"imports/solidstate/contracts/proxy/diamond/readable/DiamondReadable.sol\":1288:1310  selectorSlotIndex << 5 */\n      dup2\n      swap1\n      shl\n        /* \"imports/solidstate/contracts/proxy/diamond/readable/DiamondReadable.sol\":1279:1311  slot << (selectorSlotIndex << 5) */\n      dup3\n      swap1\n      shl\n      not(sub(shl(0xe0, 0x01), 0x01))\n        /* \"imports/solidstate/contracts/proxy/diamond/readable/DiamondReadable.sol\":1362:1380  l.facets[selector] */\n      dup2\n      and\n        /* \"imports/solidstate/contracts/proxy/diamond/readable/DiamondReadable.sol\":1254:1269  bytes4 selector */\n      0x00\n        /* \"imports/solidstate/contracts/proxy/diamond/readable/DiamondReadable.sol\":1362:1380  l.facets[selector] */\n      swap1\n      dup2\n      mstore\n      0x20\n      dup10\n      swap1\n      mstore\n      0x40\n      dup2\n      keccak256\n      sload\n        /* \"imports/solidstate/contracts/proxy/diamond/readable/DiamondReadable.sol\":1346:1382  address(bytes20(l.facets[selector])) */\n      0x60\n      shr\n      swap1\n        /* \"imports/solidstate/contracts/proxy/diamond/readable/DiamondReadable.sol\":1254:1269  bytes4 selector */\n      dup1\n        /* \"imports/solidstate/contracts/proxy/diamond/readable/DiamondReadable.sol\":1437:2070  for (uint256 facetIndex; facetIndex < numFacets; facetIndex++) {... */\n    tag_160:\n        /* \"imports/solidstate/contracts/proxy/diamond/readable/DiamondReadable.sol\":1475:1484  numFacets */\n      dup9\n        /* \"imports/solidstate/contracts/proxy/diamond/readable/DiamondReadable.sol\":1462:1472  facetIndex */\n      dup2\n        /* \"imports/solidstate/contracts/proxy/diamond/readable/DiamondReadable.sol\":1462:1484  facetIndex < numFacets */\n      lt\n        /* \"imports/solidstate/contracts/proxy/diamond/readable/DiamondReadable.sol\":1437:2070  for (uint256 facetIndex; facetIndex < numFacets; facetIndex++) {... */\n      iszero\n      tag_161\n      jumpi\n        /* \"imports/solidstate/contracts/proxy/diamond/readable/DiamondReadable.sol\":1562:1567  facet */\n      dup3\n      sub(shl(0xa0, 0x01), 0x01)\n        /* \"imports/solidstate/contracts/proxy/diamond/readable/DiamondReadable.sol\":1526:1567  diamondFacets[facetIndex].target == facet */\n      and\n        /* \"imports/solidstate/contracts/proxy/diamond/readable/DiamondReadable.sol\":1526:1539  diamondFacets */\n      dup13\n        /* \"imports/solidstate/contracts/proxy/diamond/readable/DiamondReadable.sol\":1540:1550  facetIndex */\n      dup3\n        /* \"imports/solidstate/contracts/proxy/diamond/readable/DiamondReadable.sol\":1526:1551  diamondFacets[facetIndex] */\n      dup2\n      mload\n      dup2\n      lt\n      tag_164\n      jumpi\n      tag_164\n      tag_125\n      jump\t// in\n    tag_164:\n      0x20\n      mul\n      0x20\n      add\n      add\n      mload\n        /* \"imports/solidstate/contracts/proxy/diamond/readable/DiamondReadable.sol\":1526:1558  diamondFacets[facetIndex].target */\n      0x00\n      add\n      mload\n      sub(shl(0xa0, 0x01), 0x01)\n        /* \"imports/solidstate/contracts/proxy/diamond/readable/DiamondReadable.sol\":1526:1567  diamondFacets[facetIndex].target == facet */\n      and\n      sub\n        /* \"imports/solidstate/contracts/proxy/diamond/readable/DiamondReadable.sol\":1522:2052  if (diamondFacets[facetIndex].target == facet) {... */\n      tag_165\n      jumpi\n        /* \"imports/solidstate/contracts/proxy/diamond/readable/DiamondReadable.sol\":1718:1726  selector */\n      dup4\n        /* \"imports/solidstate/contracts/proxy/diamond/readable/DiamondReadable.sol\":1595:1608  diamondFacets */\n      dup13\n        /* \"imports/solidstate/contracts/proxy/diamond/readable/DiamondReadable.sol\":1609:1619  facetIndex */\n      dup3\n        /* \"imports/solidstate/contracts/proxy/diamond/readable/DiamondReadable.sol\":1595:1620  diamondFacets[facetIndex] */\n      dup2\n      mload\n      dup2\n      lt\n      tag_167\n      jumpi\n      tag_167\n      tag_125\n      jump\t// in\n    tag_167:\n      0x20\n      mul\n      0x20\n      add\n      add\n      mload\n        /* \"imports/solidstate/contracts/proxy/diamond/readable/DiamondReadable.sol\":1595:1630  diamondFacets[facetIndex].selectors */\n      0x20\n      add\n      mload\n        /* \"imports/solidstate/contracts/proxy/diamond/readable/DiamondReadable.sol\":1660:1677  numFacetSelectors */\n      dup12\n        /* \"imports/solidstate/contracts/proxy/diamond/readable/DiamondReadable.sol\":1678:1688  facetIndex */\n      dup4\n        /* \"imports/solidstate/contracts/proxy/diamond/readable/DiamondReadable.sol\":1660:1689  numFacetSelectors[facetIndex] */\n      dup2\n      mload\n      dup2\n      lt\n      tag_169\n      jumpi\n      tag_169\n      tag_125\n      jump\t// in\n    tag_169:\n      0x20\n      mul\n      0x20\n      add\n      add\n      mload\n        /* \"imports/solidstate/contracts/proxy/diamond/readable/DiamondReadable.sol\":1595:1715  diamondFacets[facetIndex].selectors[... */\n      0xff\n      and\n      dup2\n      mload\n      dup2\n      lt\n      tag_171\n      jumpi\n      tag_171\n      tag_125\n      jump\t// in\n    tag_171:\n      0x20\n      mul\n      0x20\n      add\n      add\n        /* \"imports/solidstate/contracts/proxy/diamond/readable/DiamondReadable.sol\":1595:1726  diamondFacets[facetIndex].selectors[... */\n      swap1\n      not(sub(shl(0xe0, 0x01), 0x01))\n      and\n      swap1\n      dup2\n      not(sub(shl(0xe0, 0x01), 0x01))\n      and\n      dup2\n      mstore\n      pop\n      pop\n        /* \"imports/solidstate/contracts/proxy/diamond/readable/DiamondReadable.sol\":1892:1895  255 */\n      0xff\n        /* \"imports/solidstate/contracts/proxy/diamond/readable/DiamondReadable.sol\":1860:1877  numFacetSelectors */\n      dup11\n        /* \"imports/solidstate/contracts/proxy/diamond/readable/DiamondReadable.sol\":1878:1888  facetIndex */\n      dup3\n        /* \"imports/solidstate/contracts/proxy/diamond/readable/DiamondReadable.sol\":1860:1889  numFacetSelectors[facetIndex] */\n      dup2\n      mload\n      dup2\n      lt\n      tag_173\n      jumpi\n      tag_173\n      tag_125\n      jump\t// in\n    tag_173:\n      0x20\n      mul\n      0x20\n      add\n      add\n      mload\n        /* \"imports/solidstate/contracts/proxy/diamond/readable/DiamondReadable.sol\":1860:1895  numFacetSelectors[facetIndex] < 255 */\n      0xff\n      and\n      lt\n        /* \"imports/solidstate/contracts/proxy/diamond/readable/DiamondReadable.sol\":1852:1896  require(numFacetSelectors[facetIndex] < 255) */\n      tag_174\n      jumpi\n      0x00\n      dup1\n      revert\n    tag_174:\n        /* \"imports/solidstate/contracts/proxy/diamond/readable/DiamondReadable.sol\":1922:1939  numFacetSelectors */\n      dup10\n        /* \"imports/solidstate/contracts/proxy/diamond/readable/DiamondReadable.sol\":1940:1950  facetIndex */\n      dup2\n        /* \"imports/solidstate/contracts/proxy/diamond/readable/DiamondReadable.sol\":1922:1951  numFacetSelectors[facetIndex] */\n      dup2\n      mload\n      dup2\n      lt\n      tag_176\n      jumpi\n      tag_176\n      tag_125\n      jump\t// in\n    tag_176:\n      0x20\n      mul\n      0x20\n      add\n      add\n        /* \"imports/solidstate/contracts/proxy/diamond/readable/DiamondReadable.sol\":1922:1953  numFacetSelectors[facetIndex]++ */\n      dup1\n      mload\n      dup1\n      swap2\n      swap1\n      tag_177\n      swap1\n      tag_178\n      jump\t// in\n    tag_177:\n      0xff\n      and\n      swap1\n      mstore\n      pop\n        /* \"imports/solidstate/contracts/proxy/diamond/readable/DiamondReadable.sol\":1994:1998  true */\n      0x01\n      swap2\n      pop\n        /* \"imports/solidstate/contracts/proxy/diamond/readable/DiamondReadable.sol\":2024:2029  break */\n      jump(tag_161)\n        /* \"imports/solidstate/contracts/proxy/diamond/readable/DiamondReadable.sol\":1522:2052  if (diamondFacets[facetIndex].target == facet) {... */\n    tag_165:\n        /* \"imports/solidstate/contracts/proxy/diamond/readable/DiamondReadable.sol\":1486:1498  facetIndex++ */\n      dup1\n      tag_179\n      dup2\n      tag_118\n      jump\t// in\n    tag_179:\n      swap2\n      pop\n      pop\n        /* \"imports/solidstate/contracts/proxy/diamond/readable/DiamondReadable.sol\":1437:2070  for (uint256 facetIndex; facetIndex < numFacets; facetIndex++) {... */\n      jump(tag_160)\n    tag_161:\n      pop\n        /* \"imports/solidstate/contracts/proxy/diamond/readable/DiamondReadable.sol\":2092:2104  continueLoop */\n      dup1\n        /* \"imports/solidstate/contracts/proxy/diamond/readable/DiamondReadable.sol\":2088:2155  if (continueLoop) {... */\n      iszero\n      tag_180\n      jumpi\n        /* \"imports/solidstate/contracts/proxy/diamond/readable/DiamondReadable.sol\":2128:2136  continue */\n      pop\n      pop\n      pop\n      jump(tag_157)\n        /* \"imports/solidstate/contracts/proxy/diamond/readable/DiamondReadable.sol\":2088:2155  if (continueLoop) {... */\n    tag_180:\n        /* \"imports/solidstate/contracts/proxy/diamond/readable/DiamondReadable.sol\":2207:2212  facet */\n      dup2\n        /* \"imports/solidstate/contracts/proxy/diamond/readable/DiamondReadable.sol\":2173:2186  diamondFacets */\n      dup12\n        /* \"imports/solidstate/contracts/proxy/diamond/readable/DiamondReadable.sol\":2187:2196  numFacets */\n      dup10\n        /* \"imports/solidstate/contracts/proxy/diamond/readable/DiamondReadable.sol\":2173:2197  diamondFacets[numFacets] */\n      dup2\n      mload\n      dup2\n      lt\n      tag_182\n      jumpi\n      tag_182\n      tag_125\n      jump\t// in\n    tag_182:\n      0x20\n      swap1\n      dup2\n      mul\n      swap2\n      swap1\n      swap2\n      add\n      add\n      mload\n      sub(shl(0xa0, 0x01), 0x01)\n        /* \"imports/solidstate/contracts/proxy/diamond/readable/DiamondReadable.sol\":2173:2212  diamondFacets[numFacets].target = facet */\n      swap1\n      swap2\n      and\n      swap1\n      mstore\n        /* \"imports/solidstate/contracts/proxy/diamond/readable/DiamondReadable.sol\":2301:2316  l.selectorCount */\n      0x01\n      dup11\n      add\n      sload\n      0xffff\n      and\n        /* \"imports/solidstate/contracts/proxy/diamond/readable/DiamondReadable.sol\":2267:2334  new bytes4[](... */\n      0xffffffffffffffff\n      dup2\n      gt\n      iszero\n      tag_184\n      jumpi\n      tag_184\n      tag_109\n      jump\t// in\n    tag_184:\n      mload(0x40)\n      swap1\n      dup1\n      dup3\n      mstore\n      dup1\n      0x20\n      mul\n      0x20\n      add\n      dup3\n      add\n      0x40\n      mstore\n      dup1\n      iszero\n      tag_185\n      jumpi\n      dup2\n      0x20\n      add\n      0x20\n      dup3\n      mul\n      dup1\n      calldatasize\n      dup4\n      calldatacopy\n      add\n      swap1\n      pop\n    tag_185:\n      pop\n        /* \"imports/solidstate/contracts/proxy/diamond/readable/DiamondReadable.sol\":2230:2243  diamondFacets */\n      dup12\n        /* \"imports/solidstate/contracts/proxy/diamond/readable/DiamondReadable.sol\":2244:2253  numFacets */\n      dup10\n        /* \"imports/solidstate/contracts/proxy/diamond/readable/DiamondReadable.sol\":2230:2254  diamondFacets[numFacets] */\n      dup2\n      mload\n      dup2\n      lt\n      tag_187\n      jumpi\n      tag_187\n      tag_125\n      jump\t// in\n    tag_187:\n      0x20\n      mul\n      0x20\n      add\n      add\n      mload\n        /* \"imports/solidstate/contracts/proxy/diamond/readable/DiamondReadable.sol\":2230:2264  diamondFacets[numFacets].selectors */\n      0x20\n      add\n        /* \"imports/solidstate/contracts/proxy/diamond/readable/DiamondReadable.sol\":2230:2334  diamondFacets[numFacets].selectors = new bytes4[](... */\n      dup2\n      swap1\n      mstore\n      pop\n        /* \"imports/solidstate/contracts/proxy/diamond/readable/DiamondReadable.sol\":2392:2400  selector */\n      dup3\n        /* \"imports/solidstate/contracts/proxy/diamond/readable/DiamondReadable.sol\":2352:2365  diamondFacets */\n      dup12\n        /* \"imports/solidstate/contracts/proxy/diamond/readable/DiamondReadable.sol\":2366:2375  numFacets */\n      dup10\n        /* \"imports/solidstate/contracts/proxy/diamond/readable/DiamondReadable.sol\":2352:2376  diamondFacets[numFacets] */\n      dup2\n      mload\n      dup2\n      lt\n      tag_189\n      jumpi\n      tag_189\n      tag_125\n      jump\t// in\n    tag_189:\n      0x20\n      mul\n      0x20\n      add\n      add\n      mload\n        /* \"imports/solidstate/contracts/proxy/diamond/readable/DiamondReadable.sol\":2352:2386  diamondFacets[numFacets].selectors */\n      0x20\n      add\n      mload\n        /* \"imports/solidstate/contracts/proxy/diamond/readable/DiamondReadable.sol\":2387:2388  0 */\n      0x00\n        /* \"imports/solidstate/contracts/proxy/diamond/readable/DiamondReadable.sol\":2352:2389  diamondFacets[numFacets].selectors[0] */\n      dup2\n      mload\n      dup2\n      lt\n      tag_191\n      jumpi\n      tag_191\n      tag_125\n      jump\t// in\n    tag_191:\n      0x20\n      mul\n      0x20\n      add\n      add\n        /* \"imports/solidstate/contracts/proxy/diamond/readable/DiamondReadable.sol\":2352:2400  diamondFacets[numFacets].selectors[0] = selector */\n      swap1\n      not(sub(shl(0xe0, 0x01), 0x01))\n      and\n      swap1\n      dup2\n      not(sub(shl(0xe0, 0x01), 0x01))\n      and\n      dup2\n      mstore\n      pop\n      pop\n        /* \"imports/solidstate/contracts/proxy/diamond/readable/DiamondReadable.sol\":2449:2450  1 */\n      0x01\n        /* \"imports/solidstate/contracts/proxy/diamond/readable/DiamondReadable.sol\":2418:2435  numFacetSelectors */\n      dup10\n        /* \"imports/solidstate/contracts/proxy/diamond/readable/DiamondReadable.sol\":2436:2445  numFacets */\n      dup10\n        /* \"imports/solidstate/contracts/proxy/diamond/readable/DiamondReadable.sol\":2418:2446  numFacetSelectors[numFacets] */\n      dup2\n      mload\n      dup2\n      lt\n      tag_193\n      jumpi\n      tag_193\n      tag_125\n      jump\t// in\n    tag_193:\n        /* \"imports/solidstate/contracts/proxy/diamond/readable/DiamondReadable.sol\":2418:2450  numFacetSelectors[numFacets] = 1 */\n      0xff\n      swap1\n      swap3\n      and\n        /* \"imports/solidstate/contracts/proxy/diamond/readable/DiamondReadable.sol\":2418:2446  numFacetSelectors[numFacets] */\n      0x20\n      swap3\n      dup4\n      mul\n      swap2\n      swap1\n      swap2\n      add\n      swap1\n      swap2\n      add\n        /* \"imports/solidstate/contracts/proxy/diamond/readable/DiamondReadable.sol\":2418:2450  numFacetSelectors[numFacets] = 1 */\n      mstore\n        /* \"imports/solidstate/contracts/proxy/diamond/readable/DiamondReadable.sol\":2468:2479  numFacets++ */\n      dup8\n      tag_194\n      dup2\n      tag_118\n      jump\t// in\n    tag_194:\n      swap9\n      pop\n      pop\n        /* \"imports/solidstate/contracts/proxy/diamond/readable/DiamondReadable.sol\":1101:2494  {... */\n      pop\n      pop\n      pop\n        /* \"imports/solidstate/contracts/proxy/diamond/readable/DiamondReadable.sol\":963:2494  for (... */\n    tag_157:\n        /* \"imports/solidstate/contracts/proxy/diamond/readable/DiamondReadable.sol\":1067:1086  selectorSlotIndex++ */\n      dup1\n      tag_195\n      dup2\n      tag_118\n      jump\t// in\n    tag_195:\n      swap2\n      pop\n      pop\n        /* \"imports/solidstate/contracts/proxy/diamond/readable/DiamondReadable.sol\":963:2494  for (... */\n      jump(tag_155)\n    tag_156:\n      pop\n        /* \"imports/solidstate/contracts/proxy/diamond/readable/DiamondReadable.sol\":893:2504  {... */\n      pop\n        /* \"imports/solidstate/contracts/proxy/diamond/readable/DiamondReadable.sol\":880:891  slotIndex++ */\n      dup1\n      dup1\n      tag_196\n      swap1\n      tag_118\n      jump\t// in\n    tag_196:\n      swap2\n      pop\n      pop\n        /* \"imports/solidstate/contracts/proxy/diamond/readable/DiamondReadable.sol\":823:2504  for (uint256 slotIndex; selectorIndex < l.selectorCount; slotIndex++) {... */\n      jump(tag_152)\n    tag_153:\n      pop\n        /* \"imports/solidstate/contracts/proxy/diamond/readable/DiamondReadable.sol\":2519:2537  uint256 facetIndex */\n      0x00\n        /* \"imports/solidstate/contracts/proxy/diamond/readable/DiamondReadable.sol\":2514:2864  for (uint256 facetIndex; facetIndex < numFacets; facetIndex++) {... */\n    tag_197:\n        /* \"imports/solidstate/contracts/proxy/diamond/readable/DiamondReadable.sol\":2552:2561  numFacets */\n      dup3\n        /* \"imports/solidstate/contracts/proxy/diamond/readable/DiamondReadable.sol\":2539:2549  facetIndex */\n      dup2\n        /* \"imports/solidstate/contracts/proxy/diamond/readable/DiamondReadable.sol\":2539:2561  facetIndex < numFacets */\n      lt\n        /* \"imports/solidstate/contracts/proxy/diamond/readable/DiamondReadable.sol\":2514:2864  for (uint256 facetIndex; facetIndex < numFacets; facetIndex++) {... */\n      iszero\n      tag_198\n      jumpi\n        /* \"imports/solidstate/contracts/proxy/diamond/readable/DiamondReadable.sol\":2591:2611  uint256 numSelectors */\n      0x00\n        /* \"imports/solidstate/contracts/proxy/diamond/readable/DiamondReadable.sol\":2614:2631  numFacetSelectors */\n      dup5\n        /* \"imports/solidstate/contracts/proxy/diamond/readable/DiamondReadable.sol\":2632:2642  facetIndex */\n      dup3\n        /* \"imports/solidstate/contracts/proxy/diamond/readable/DiamondReadable.sol\":2614:2643  numFacetSelectors[facetIndex] */\n      dup2\n      mload\n      dup2\n      lt\n      tag_201\n      jumpi\n      tag_201\n      tag_125\n      jump\t// in\n    tag_201:\n      0x20\n      mul\n      0x20\n      add\n      add\n      mload\n        /* \"imports/solidstate/contracts/proxy/diamond/readable/DiamondReadable.sol\":2591:2643  uint256 numSelectors = numFacetSelectors[facetIndex] */\n      0xff\n      and\n      swap1\n      pop\n        /* \"imports/solidstate/contracts/proxy/diamond/readable/DiamondReadable.sol\":2657:2682  bytes4[] memory selectors */\n      0x00\n        /* \"imports/solidstate/contracts/proxy/diamond/readable/DiamondReadable.sol\":2685:2698  diamondFacets */\n      dup8\n        /* \"imports/solidstate/contracts/proxy/diamond/readable/DiamondReadable.sol\":2699:2709  facetIndex */\n      dup4\n        /* \"imports/solidstate/contracts/proxy/diamond/readable/DiamondReadable.sol\":2685:2710  diamondFacets[facetIndex] */\n      dup2\n      mload\n      dup2\n      lt\n      tag_203\n      jumpi\n      tag_203\n      tag_125\n      jump\t// in\n    tag_203:\n      0x20\n      mul\n      0x20\n      add\n      add\n      mload\n        /* \"imports/solidstate/contracts/proxy/diamond/readable/DiamondReadable.sol\":2685:2720  diamondFacets[facetIndex].selectors */\n      0x20\n      add\n      mload\n        /* \"imports/solidstate/contracts/proxy/diamond/readable/DiamondReadable.sol\":2657:2720  bytes4[] memory selectors = diamondFacets[facetIndex].selectors */\n      swap1\n      pop\n        /* \"imports/solidstate/contracts/proxy/diamond/readable/DiamondReadable.sol\":2827:2839  numSelectors */\n      dup2\n        /* \"imports/solidstate/contracts/proxy/diamond/readable/DiamondReadable.sol\":2816:2825  selectors */\n      dup2\n        /* \"imports/solidstate/contracts/proxy/diamond/readable/DiamondReadable.sol\":2809:2840  mstore(selectors, numSelectors) */\n      mstore\n        /* \"imports/solidstate/contracts/proxy/diamond/readable/DiamondReadable.sol\":2791:2854  {... */\n      pop\n      pop\n        /* \"imports/solidstate/contracts/proxy/diamond/readable/DiamondReadable.sol\":2563:2575  facetIndex++ */\n      dup1\n      dup1\n      tag_204\n      swap1\n      tag_118\n      jump\t// in\n    tag_204:\n      swap2\n      pop\n      pop\n        /* \"imports/solidstate/contracts/proxy/diamond/readable/DiamondReadable.sol\":2514:2864  for (uint256 facetIndex; facetIndex < numFacets; facetIndex++) {... */\n      jump(tag_197)\n    tag_198:\n      pop\n        /* \"imports/solidstate/contracts/proxy/diamond/readable/DiamondReadable.sol\":2959:2968  numFacets */\n      dup2\n        /* \"imports/solidstate/contracts/proxy/diamond/readable/DiamondReadable.sol\":2944:2957  diamondFacets */\n      dup6\n        /* \"imports/solidstate/contracts/proxy/diamond/readable/DiamondReadable.sol\":2937:2969  mstore(diamondFacets, numFacets) */\n      mstore\n        /* \"imports/solidstate/contracts/proxy/diamond/readable/DiamondReadable.sol\":2923:2979  {... */\n      pop\n      pop\n      pop\n      pop\n        /* \"imports/solidstate/contracts/proxy/diamond/readable/DiamondReadable.sol\":436:2985  function facets() external view returns (Facet[] memory diamondFacets) {... */\n      swap1\n      jump\t// out\n        /* \"imports/solidstate/contracts/access/ownable/SafeOwnable.sol\":499:600  function nomineeOwner() public view virtual returns (address) {... */\n    tag_59:\n        /* \"imports/solidstate/contracts/access/ownable/SafeOwnable.sol\":552:559  address */\n      0x00\n        /* \"imports/solidstate/contracts/access/ownable/SafeOwnable.sol\":578:593  _nomineeOwner() */\n      tag_86\n        /* \"imports/solidstate/contracts/access/ownable/SafeOwnable.sol\":578:591  _nomineeOwner */\n      tag_136\n        /* \"imports/solidstate/contracts/access/ownable/SafeOwnable.sol\":578:593  _nomineeOwner() */\n      jump\t// in\n        /* \"imports/solidstate/contracts/access/ownable/Ownable.sol\":378:465  function owner() public view virtual returns (address) {... */\n    tag_63:\n        /* \"imports/solidstate/contracts/access/ownable/Ownable.sol\":424:431  address */\n      0x00\n        /* \"imports/solidstate/contracts/access/ownable/Ownable.sol\":450:458  _owner() */\n      tag_86\n        /* \"imports/solidstate/contracts/access/ownable/Ownable.sol\":450:456  _owner */\n      tag_94\n        /* \"imports/solidstate/contracts/access/ownable/Ownable.sol\":450:458  _owner() */\n      jump\t// in\n        /* \"imports/solidstate/contracts/proxy/diamond/fallback/DiamondFallback.sol\":759:884  function setFallbackAddress(address fallbackAddress) external onlyOwner {... */\n    tag_69:\n        /* \"imports/solidstate/contracts/access/ownable/OwnableInternal.sol\":436:444  _owner() */\n      tag_210\n        /* \"imports/solidstate/contracts/access/ownable/OwnableInternal.sol\":436:442  _owner */\n      tag_94\n        /* \"imports/solidstate/contracts/access/ownable/OwnableInternal.sol\":436:444  _owner() */\n      jump\t// in\n    tag_210:\n      sub(shl(0xa0, 0x01), 0x01)\n        /* \"imports/solidstate/contracts/access/ownable/OwnableInternal.sol\":422:444  msg.sender != _owner() */\n      and\n        /* \"imports/solidstate/contracts/access/ownable/OwnableInternal.sol\":422:432  msg.sender */\n      caller\n      sub(shl(0xa0, 0x01), 0x01)\n        /* \"imports/solidstate/contracts/access/ownable/OwnableInternal.sol\":422:444  msg.sender != _owner() */\n      and\n      eq\n        /* \"imports/solidstate/contracts/access/ownable/OwnableInternal.sol\":418:472  if (msg.sender != _owner()) revert Ownable__NotOwner() */\n      tag_211\n      jumpi\n        /* \"imports/solidstate/contracts/access/ownable/OwnableInternal.sol\":453:472  Ownable__NotOwner() */\n      mload(0x40)\n      shl(0xe0, 0x2f7a8ee1)\n      dup2\n      mstore\n      0x04\n      add\n      mload(0x40)\n      dup1\n      swap2\n      sub\n      swap1\n      revert\n        /* \"imports/solidstate/contracts/access/ownable/OwnableInternal.sol\":418:472  if (msg.sender != _owner()) revert Ownable__NotOwner() */\n    tag_211:\n        /* \"imports/solidstate/contracts/proxy/diamond/fallback/DiamondFallback.sol\":1900:1943  DiamondBaseStorage.layout().fallbackAddress */\n      0x177481ac65e4292921c69f62d1cc7f57541261e5d61c8175cf4e36a01c9bfc96\n        /* \"imports/solidstate/contracts/proxy/diamond/fallback/DiamondFallback.sol\":1900:1961  DiamondBaseStorage.layout().fallbackAddress = fallbackAddress */\n      dup1\n      sload\n      not(sub(shl(0xa0, 0x01), 0x01))\n      and\n      sub(shl(0xa0, 0x01), 0x01)\n      dup4\n      and\n      or\n      swap1\n      sstore\n        /* \"imports/solidstate/contracts/proxy/diamond/fallback/DiamondFallback.sol\":759:884  function setFallbackAddress(address fallbackAddress) external onlyOwner {... */\n      pop\n      jump\t// out\n        /* \"imports/solidstate/contracts/proxy/diamond/fallback/DiamondFallback.sol\":841:877  _setFallbackAddress(fallbackAddress) */\n    tag_213:\n        /* \"imports/solidstate/contracts/proxy/diamond/fallback/DiamondFallback.sol\":759:884  function setFallbackAddress(address fallbackAddress) external onlyOwner {... */\n      pop\n      jump\t// out\n        /* \"imports/solidstate/contracts/proxy/diamond/readable/DiamondReadable.sol\":3043:4223  function facetFunctionSelectors(... */\n    tag_73:\n      0x00\n      dup1\n      mload\n      0x20\n      data_a5e74bf718c7d6929bf8f422c8be92118782759abac1bf7601c5a938d6f306a1\n      dup4\n      codecopy\n      dup2\n      mload\n      swap2\n      mstore\n        /* \"imports/solidstate/contracts/proxy/diamond/readable/DiamondReadable.sol\":3265:3280  l.selectorCount */\n      sload\n        /* \"imports/solidstate/contracts/proxy/diamond/readable/DiamondReadable.sol\":3127:3152  bytes4[] memory selectors */\n      0x60\n      swap1\n      0x00\n      dup1\n      mload\n      0x20\n      data_b4a3f1194ff204df3421c76163ff361a7821792777bfc1dcb14fa8d3eb97e7f5\n      dup4\n      codecopy\n      dup2\n      mload\n      swap2\n      mstore\n        /* \"imports/solidstate/contracts/proxy/diamond/base/DiamondBaseStorage.sol\":584:637  keccak256('solidstate.contracts.storage.DiamondBase') */\n      swap1\n        /* \"imports/solidstate/contracts/proxy/diamond/readable/DiamondReadable.sol\":3265:3280  l.selectorCount */\n      0xffff\n      and\n        /* \"imports/solidstate/contracts/proxy/diamond/readable/DiamondReadable.sol\":3252:3281  new bytes4[](l.selectorCount) */\n      0xffffffffffffffff\n      dup2\n      gt\n      iszero\n      tag_218\n      jumpi\n      tag_218\n      tag_109\n      jump\t// in\n    tag_218:\n      mload(0x40)\n      swap1\n      dup1\n      dup3\n      mstore\n      dup1\n      0x20\n      mul\n      0x20\n      add\n      dup3\n      add\n      0x40\n      mstore\n      dup1\n      iszero\n      tag_219\n      jumpi\n      dup2\n      0x20\n      add\n      0x20\n      dup3\n      mul\n      dup1\n      calldatasize\n      dup4\n      calldatacopy\n      add\n      swap1\n      pop\n    tag_219:\n      pop\n        /* \"imports/solidstate/contracts/proxy/diamond/readable/DiamondReadable.sol\":3240:3281  selectors = new bytes4[](l.selectorCount) */\n      swap2\n      pop\n        /* \"imports/solidstate/contracts/proxy/diamond/readable/DiamondReadable.sol\":3292:3312  uint256 numSelectors */\n      0x00\n        /* \"imports/solidstate/contracts/proxy/diamond/readable/DiamondReadable.sol\":3322:3343  uint256 selectorIndex */\n      dup1\n        /* \"imports/solidstate/contracts/proxy/diamond/readable/DiamondReadable.sol\":3402:3419  uint256 slotIndex */\n      0x00\n        /* \"imports/solidstate/contracts/proxy/diamond/readable/DiamondReadable.sol\":3397:4091  for (uint256 slotIndex; selectorIndex < l.selectorCount; slotIndex++) {... */\n    tag_220:\n        /* \"imports/solidstate/contracts/proxy/diamond/readable/DiamondReadable.sol\":3437:3452  l.selectorCount */\n      0x01\n      dup5\n      add\n      sload\n      0xffff\n      and\n        /* \"imports/solidstate/contracts/proxy/diamond/readable/DiamondReadable.sol\":3421:3452  selectorIndex < l.selectorCount */\n      dup3\n      lt\n        /* \"imports/solidstate/contracts/proxy/diamond/readable/DiamondReadable.sol\":3397:4091  for (uint256 slotIndex; selectorIndex < l.selectorCount; slotIndex++) {... */\n      iszero\n      tag_221\n      jumpi\n        /* \"imports/solidstate/contracts/proxy/diamond/readable/DiamondReadable.sol\":3481:3493  bytes32 slot */\n      0x00\n        /* \"imports/solidstate/contracts/proxy/diamond/readable/DiamondReadable.sol\":3496:3522  l.selectorSlots[slotIndex] */\n      dup2\n      dup2\n      mstore\n        /* \"imports/solidstate/contracts/proxy/diamond/readable/DiamondReadable.sol\":3496:3511  l.selectorSlots */\n      0x02\n      dup6\n      add\n        /* \"imports/solidstate/contracts/proxy/diamond/readable/DiamondReadable.sol\":3496:3522  l.selectorSlots[slotIndex] */\n      0x20\n      mstore\n      0x40\n      dup2\n      keccak256\n      sload\n      swap1\n        /* \"imports/solidstate/contracts/proxy/diamond/readable/DiamondReadable.sol\":3537:4081  for (... */\n    tag_223:\n        /* \"imports/solidstate/contracts/proxy/diamond/readable/DiamondReadable.sol\":3622:3623  8 */\n      0x08\n        /* \"imports/solidstate/contracts/proxy/diamond/readable/DiamondReadable.sol\":3602:3619  selectorSlotIndex */\n      dup2\n        /* \"imports/solidstate/contracts/proxy/diamond/readable/DiamondReadable.sol\":3602:3623  selectorSlotIndex < 8 */\n      lt\n        /* \"imports/solidstate/contracts/proxy/diamond/readable/DiamondReadable.sol\":3537:4081  for (... */\n      iszero\n      tag_224\n      jumpi\n        /* \"imports/solidstate/contracts/proxy/diamond/readable/DiamondReadable.sol\":3693:3708  selectorIndex++ */\n      dup4\n      tag_226\n      dup2\n      tag_118\n      jump\t// in\n    tag_226:\n        /* \"imports/solidstate/contracts/proxy/diamond/readable/DiamondReadable.sol\":3747:3762  l.selectorCount */\n      0x01\n      dup9\n      add\n      sload\n        /* \"imports/solidstate/contracts/proxy/diamond/readable/DiamondReadable.sol\":3693:3708  selectorIndex++ */\n      swap1\n      swap6\n      pop\n        /* \"imports/solidstate/contracts/proxy/diamond/readable/DiamondReadable.sol\":3747:3762  l.selectorCount */\n      0xffff\n      and\n        /* \"imports/solidstate/contracts/proxy/diamond/readable/DiamondReadable.sol\":3731:3762  selectorIndex > l.selectorCount */\n      dup6\n      gt\n      swap1\n      pop\n        /* \"imports/solidstate/contracts/proxy/diamond/readable/DiamondReadable.sol\":3786:3791  break */\n      tag_224\n        /* \"imports/solidstate/contracts/proxy/diamond/readable/DiamondReadable.sol\":3727:3810  if (selectorIndex > l.selectorCount) {... */\n      jumpi\n        /* \"imports/solidstate/contracts/proxy/diamond/readable/DiamondReadable.sol\":3883:3884  5 */\n      0x05\n        /* \"imports/solidstate/contracts/proxy/diamond/readable/DiamondReadable.sol\":3862:3884  selectorSlotIndex << 5 */\n      dup2\n      swap1\n      shl\n        /* \"imports/solidstate/contracts/proxy/diamond/readable/DiamondReadable.sol\":3853:3885  slot << (selectorSlotIndex << 5) */\n      dup3\n      swap1\n      shl\n      not(sub(shl(0xe0, 0x01), 0x01))\n        /* \"imports/solidstate/contracts/proxy/diamond/readable/DiamondReadable.sol\":3934:3952  l.facets[selector] */\n      dup2\n      and\n        /* \"imports/solidstate/contracts/proxy/diamond/readable/DiamondReadable.sol\":3828:3843  bytes4 selector */\n      0x00\n        /* \"imports/solidstate/contracts/proxy/diamond/readable/DiamondReadable.sol\":3934:3952  l.facets[selector] */\n      swap1\n      dup2\n      mstore\n      0x20\n      dup9\n      swap1\n      mstore\n      0x40\n      swap1\n      keccak256\n      sload\n        /* \"imports/solidstate/contracts/proxy/diamond/readable/DiamondReadable.sol\":3918:3954  address(bytes20(l.facets[selector])) */\n      0x60\n      shr\n      sub(shl(0xa0, 0x01), 0x01)\n        /* \"imports/solidstate/contracts/proxy/diamond/readable/DiamondReadable.sol\":3909:3954  facet == address(bytes20(l.facets[selector])) */\n      dup11\n      and\n      sub\n        /* \"imports/solidstate/contracts/proxy/diamond/readable/DiamondReadable.sol\":3905:4067  if (facet == address(bytes20(l.facets[selector]))) {... */\n      tag_228\n      jumpi\n        /* \"imports/solidstate/contracts/proxy/diamond/readable/DiamondReadable.sol\":4004:4012  selector */\n      dup1\n        /* \"imports/solidstate/contracts/proxy/diamond/readable/DiamondReadable.sol\":3978:3987  selectors */\n      dup9\n        /* \"imports/solidstate/contracts/proxy/diamond/readable/DiamondReadable.sol\":3988:4000  numSelectors */\n      dup8\n        /* \"imports/solidstate/contracts/proxy/diamond/readable/DiamondReadable.sol\":3978:4001  selectors[numSelectors] */\n      dup2\n      mload\n      dup2\n      lt\n      tag_230\n      jumpi\n      tag_230\n      tag_125\n      jump\t// in\n    tag_230:\n      not(sub(shl(0xe0, 0x01), 0x01))\n        /* \"imports/solidstate/contracts/proxy/diamond/readable/DiamondReadable.sol\":3978:4012  selectors[numSelectors] = selector */\n      swap1\n      swap3\n      and\n        /* \"imports/solidstate/contracts/proxy/diamond/readable/DiamondReadable.sol\":3978:4001  selectors[numSelectors] */\n      0x20\n      swap3\n      dup4\n      mul\n      swap2\n      swap1\n      swap2\n      add\n      swap1\n      swap2\n      add\n        /* \"imports/solidstate/contracts/proxy/diamond/readable/DiamondReadable.sol\":3978:4012  selectors[numSelectors] = selector */\n      mstore\n        /* \"imports/solidstate/contracts/proxy/diamond/readable/DiamondReadable.sol\":4034:4048  numSelectors++ */\n      dup6\n      tag_231\n      dup2\n      tag_118\n      jump\t// in\n    tag_231:\n      swap7\n      pop\n      pop\n        /* \"imports/solidstate/contracts/proxy/diamond/readable/DiamondReadable.sol\":3905:4067  if (facet == address(bytes20(l.facets[selector]))) {... */\n    tag_228:\n      pop\n        /* \"imports/solidstate/contracts/proxy/diamond/readable/DiamondReadable.sol\":3641:3660  selectorSlotIndex++ */\n      dup1\n      tag_232\n      dup2\n      tag_118\n      jump\t// in\n    tag_232:\n      swap2\n      pop\n      pop\n        /* \"imports/solidstate/contracts/proxy/diamond/readable/DiamondReadable.sol\":3537:4081  for (... */\n      jump(tag_223)\n    tag_224:\n      pop\n        /* \"imports/solidstate/contracts/proxy/diamond/readable/DiamondReadable.sol\":3467:4091  {... */\n      pop\n        /* \"imports/solidstate/contracts/proxy/diamond/readable/DiamondReadable.sol\":3454:3465  slotIndex++ */\n      dup1\n      dup1\n      tag_233\n      swap1\n      tag_118\n      jump\t// in\n    tag_233:\n      swap2\n      pop\n      pop\n        /* \"imports/solidstate/contracts/proxy/diamond/readable/DiamondReadable.sol\":3397:4091  for (uint256 slotIndex; selectorIndex < l.selectorCount; slotIndex++) {... */\n      jump(tag_220)\n    tag_221:\n      pop\n      pop\n        /* \"imports/solidstate/contracts/proxy/diamond/readable/DiamondReadable.sol\":4176:4207  mstore(selectors, numSelectors) */\n      dup3\n      mstore\n      pop\n        /* \"imports/solidstate/contracts/proxy/diamond/readable/DiamondReadable.sol\":4183:4192  selectors */\n      swap2\n        /* \"imports/solidstate/contracts/proxy/diamond/readable/DiamondReadable.sol\":3043:4223  function facetFunctionSelectors(... */\n      swap1\n      pop\n      jump\t// out\n        /* \"imports/solidstate/contracts/access/ownable/Ownable.sol\":514:627  function transferOwnership(address account) public virtual onlyOwner {... */\n    tag_84:\n        /* \"imports/solidstate/contracts/access/ownable/OwnableInternal.sol\":436:444  _owner() */\n      tag_237\n        /* \"imports/solidstate/contracts/access/ownable/OwnableInternal.sol\":436:442  _owner */\n      tag_94\n        /* \"imports/solidstate/contracts/access/ownable/OwnableInternal.sol\":436:444  _owner() */\n      jump\t// in\n    tag_237:\n      sub(shl(0xa0, 0x01), 0x01)\n        /* \"imports/solidstate/contracts/access/ownable/OwnableInternal.sol\":422:444  msg.sender != _owner() */\n      and\n        /* \"imports/solidstate/contracts/access/ownable/OwnableInternal.sol\":422:432  msg.sender */\n      caller\n      sub(shl(0xa0, 0x01), 0x01)\n        /* \"imports/solidstate/contracts/access/ownable/OwnableInternal.sol\":422:444  msg.sender != _owner() */\n      and\n      eq\n        /* \"imports/solidstate/contracts/access/ownable/OwnableInternal.sol\":418:472  if (msg.sender != _owner()) revert Ownable__NotOwner() */\n      tag_238\n      jumpi\n        /* \"imports/solidstate/contracts/access/ownable/OwnableInternal.sol\":453:472  Ownable__NotOwner() */\n      mload(0x40)\n      shl(0xe0, 0x2f7a8ee1)\n      dup2\n      mstore\n      0x04\n      add\n      mload(0x40)\n      dup1\n      swap2\n      sub\n      swap1\n      revert\n        /* \"imports/solidstate/contracts/access/ownable/OwnableInternal.sol\":418:472  if (msg.sender != _owner()) revert Ownable__NotOwner() */\n    tag_238:\n        /* \"imports/solidstate/contracts/access/ownable/Ownable.sol\":593:620  _transferOwnership(account) */\n      tag_213\n        /* \"imports/solidstate/contracts/access/ownable/Ownable.sol\":612:619  account */\n      dup2\n        /* \"imports/solidstate/contracts/access/ownable/Ownable.sol\":593:611  _transferOwnership */\n      tag_241\n        /* \"imports/solidstate/contracts/access/ownable/Ownable.sol\":593:620  _transferOwnership(account) */\n      jump\t// in\n        /* \"imports/solidstate/contracts/proxy/diamond/fallback/DiamondFallback.sol\":1012:1317  function _getImplementation()... */\n    tag_87:\n        /* \"imports/solidstate/contracts/proxy/diamond/fallback/DiamondFallback.sol\":1122:1144  address implementation */\n      0x00\n        /* \"imports/solidstate/contracts/proxy/diamond/base/DiamondBase.sol\":828:835  msg.sig */\n      dup1\n      calldataload\n      not(sub(shl(0xe0, 0x01), 0x01))\n      and\n        /* \"imports/solidstate/contracts/proxy/diamond/base/DiamondBase.sol\":819:836  l.facets[msg.sig] */\n      dup2\n      mstore\n      0x00\n      dup1\n      mload\n      0x20\n      data_b4a3f1194ff204df3421c76163ff361a7821792777bfc1dcb14fa8d3eb97e7f5\n      dup4\n      codecopy\n      dup2\n      mload\n      swap2\n      mstore\n      0x20\n      mstore\n      0x40\n      swap1\n      keccak256\n      sload\n        /* \"imports/solidstate/contracts/proxy/diamond/base/DiamondBase.sol\":803:838  address(bytes20(l.facets[msg.sig])) */\n      0x60\n      shr\n      dup1\n        /* \"imports/solidstate/contracts/proxy/diamond/fallback/DiamondFallback.sol\":1214:1311  if (implementation == address(0)) {... */\n      tag_245\n      jumpi\n      pop\n        /* \"imports/solidstate/contracts/proxy/diamond/fallback/DiamondFallback.sol\":1620:1663  DiamondBaseStorage.layout().fallbackAddress */\n      and(sub(shl(0xa0, 0x01), 0x01), sload(0x177481ac65e4292921c69f62d1cc7f57541261e5d61c8175cf4e36a01c9bfc96))\n      swap1\n        /* \"imports/solidstate/contracts/proxy/diamond/SolidStateDiamond.sol\":3281:3493  function _getImplementation()... */\n      jump\t// out\n        /* \"imports/solidstate/contracts/proxy/diamond/fallback/DiamondFallback.sol\":1214:1311  if (implementation == address(0)) {... */\n    tag_245:\n        /* \"imports/solidstate/contracts/proxy/diamond/fallback/DiamondFallback.sol\":1012:1317  function _getImplementation()... */\n      swap1\n      jump\t// out\n        /* \"imports/solidstate/contracts/access/ownable/OwnableInternal.sol\":647:758  function _owner() internal view virtual returns (address) {... */\n    tag_94:\n        /* \"imports/solidstate/contracts/access/ownable/OwnableInternal.sol\":696:703  address */\n      0x00\n        /* \"imports/solidstate/contracts/access/ownable/OwnableStorage.sol\":186:235  keccak256('solidstate.contracts.storage.Ownable') */\n      0x8a22373512790c48b83a1fe2efdd2888d4a917bcdc24d0adf63e60f671680460\n        /* \"imports/solidstate/contracts/access/ownable/OwnableInternal.sol\":722:745  OwnableStorage.layout() */\n    tag_251:\n        /* \"imports/solidstate/contracts/access/ownable/OwnableInternal.sol\":722:751  OwnableStorage.layout().owner */\n      sload\n      sub(shl(0xa0, 0x01), 0x01)\n      and\n      swap2\n        /* \"imports/solidstate/contracts/access/ownable/OwnableInternal.sol\":647:758  function _owner() internal view virtual returns (address) {... */\n      swap1\n      pop\n      jump\t// out\n        /* \"imports/solidstate/contracts/proxy/diamond/writable/DiamondWritableInternal.sol\":849:2892  function _diamondCut(... */\n    tag_100:\n      0x00\n      dup1\n      mload\n      0x20\n      data_a5e74bf718c7d6929bf8f422c8be92118782759abac1bf7601c5a938d6f306a1\n      dup4\n      codecopy\n      dup2\n      mload\n      swap2\n      mstore\n        /* \"imports/solidstate/contracts/proxy/diamond/writable/DiamondWritableInternal.sol\":1123:1138  l.selectorCount */\n      sload\n      0x00\n      dup1\n      mload\n      0x20\n      data_b4a3f1194ff204df3421c76163ff361a7821792777bfc1dcb14fa8d3eb97e7f5\n      dup4\n      codecopy\n      dup2\n      mload\n      swap2\n      mstore\n        /* \"imports/solidstate/contracts/proxy/diamond/base/DiamondBaseStorage.sol\":584:637  keccak256('solidstate.contracts.storage.DiamondBase') */\n      swap1\n        /* \"imports/solidstate/contracts/proxy/diamond/writable/DiamondWritableInternal.sol\":1123:1138  l.selectorCount */\n      0xffff\n      dup2\n      and\n      swap1\n      dup2\n      swap1\n        /* \"imports/solidstate/contracts/proxy/diamond/writable/DiamondWritableInternal.sol\":991:1026  DiamondBaseStorage.Layout storage l */\n      0x00\n      swap1\n        /* \"imports/solidstate/contracts/proxy/diamond/writable/DiamondWritableInternal.sol\":1321:1322  7 */\n      0x07\n        /* \"imports/solidstate/contracts/proxy/diamond/writable/DiamondWritableInternal.sol\":1305:1322  selectorCount & 7 */\n      and\n        /* \"imports/solidstate/contracts/proxy/diamond/writable/DiamondWritableInternal.sol\":1305:1326  selectorCount & 7 > 0 */\n      iszero\n        /* \"imports/solidstate/contracts/proxy/diamond/writable/DiamondWritableInternal.sol\":1301:1452  if (selectorCount & 7 > 0) {... */\n      tag_255\n      jumpi\n      pop\n        /* \"imports/solidstate/contracts/proxy/diamond/writable/DiamondWritableInternal.sol\":1435:1436  3 */\n      0x03\n        /* \"imports/solidstate/contracts/proxy/diamond/writable/DiamondWritableInternal.sol\":1418:1436  selectorCount >> 3 */\n      dup2\n      swap1\n      shr\n        /* \"imports/solidstate/contracts/proxy/diamond/writable/DiamondWritableInternal.sol\":1402:1437  l.selectorSlots[selectorCount >> 3] */\n      0x00\n      swap1\n      dup2\n      mstore\n        /* \"imports/solidstate/contracts/proxy/diamond/writable/DiamondWritableInternal.sol\":1402:1417  l.selectorSlots */\n      0x02\n      dup5\n      add\n        /* \"imports/solidstate/contracts/proxy/diamond/writable/DiamondWritableInternal.sol\":1402:1437  l.selectorSlots[selectorCount >> 3] */\n      0x20\n      mstore\n      0x40\n      swap1\n      keccak256\n      sload\n        /* \"imports/solidstate/contracts/proxy/diamond/writable/DiamondWritableInternal.sol\":1301:1452  if (selectorCount & 7 > 0) {... */\n    tag_255:\n        /* \"imports/solidstate/contracts/proxy/diamond/writable/DiamondWritableInternal.sol\":1471:1480  uint256 i */\n      0x00\n        /* \"imports/solidstate/contracts/proxy/diamond/writable/DiamondWritableInternal.sol\":1466:2479  for (uint256 i; i < facetCuts.length; i++) {... */\n    tag_256:\n        /* \"imports/solidstate/contracts/proxy/diamond/writable/DiamondWritableInternal.sol\":1486:1495  facetCuts */\n      dup8\n        /* \"imports/solidstate/contracts/proxy/diamond/writable/DiamondWritableInternal.sol\":1486:1502  facetCuts.length */\n      mload\n        /* \"imports/solidstate/contracts/proxy/diamond/writable/DiamondWritableInternal.sol\":1482:1483  i */\n      dup2\n        /* \"imports/solidstate/contracts/proxy/diamond/writable/DiamondWritableInternal.sol\":1482:1502  i < facetCuts.length */\n      lt\n        /* \"imports/solidstate/contracts/proxy/diamond/writable/DiamondWritableInternal.sol\":1466:2479  for (uint256 i; i < facetCuts.length; i++) {... */\n      iszero\n      tag_257\n      jumpi\n        /* \"imports/solidstate/contracts/proxy/diamond/writable/DiamondWritableInternal.sol\":1527:1551  FacetCut memory facetCut */\n      0x00\n        /* \"imports/solidstate/contracts/proxy/diamond/writable/DiamondWritableInternal.sol\":1554:1563  facetCuts */\n      dup9\n        /* \"imports/solidstate/contracts/proxy/diamond/writable/DiamondWritableInternal.sol\":1564:1565  i */\n      dup3\n        /* \"imports/solidstate/contracts/proxy/diamond/writable/DiamondWritableInternal.sol\":1554:1566  facetCuts[i] */\n      dup2\n      mload\n      dup2\n      lt\n      tag_260\n      jumpi\n      tag_260\n      tag_125\n      jump\t// in\n    tag_260:\n      0x20\n      mul\n      0x20\n      add\n      add\n      mload\n        /* \"imports/solidstate/contracts/proxy/diamond/writable/DiamondWritableInternal.sol\":1527:1566  FacetCut memory facetCut = facetCuts[i] */\n      swap1\n      pop\n        /* \"imports/solidstate/contracts/proxy/diamond/writable/DiamondWritableInternal.sol\":1584:1605  FacetCutAction action */\n      0x00\n        /* \"imports/solidstate/contracts/proxy/diamond/writable/DiamondWritableInternal.sol\":1608:1616  facetCut */\n      dup2\n        /* \"imports/solidstate/contracts/proxy/diamond/writable/DiamondWritableInternal.sol\":1608:1623  facetCut.action */\n      0x20\n      add\n      mload\n        /* \"imports/solidstate/contracts/proxy/diamond/writable/DiamondWritableInternal.sol\":1584:1623  FacetCutAction action = facetCut.action */\n      swap1\n      pop\n        /* \"imports/solidstate/contracts/proxy/diamond/writable/DiamondWritableInternal.sol\":1646:1654  facetCut */\n      dup2\n        /* \"imports/solidstate/contracts/proxy/diamond/writable/DiamondWritableInternal.sol\":1646:1664  facetCut.selectors */\n      0x40\n      add\n      mload\n        /* \"imports/solidstate/contracts/proxy/diamond/writable/DiamondWritableInternal.sol\":1646:1671  facetCut.selectors.length */\n      mload\n        /* \"imports/solidstate/contracts/proxy/diamond/writable/DiamondWritableInternal.sol\":1675:1676  0 */\n      0x00\n        /* \"imports/solidstate/contracts/proxy/diamond/writable/DiamondWritableInternal.sol\":1646:1676  facetCut.selectors.length == 0 */\n      sub\n        /* \"imports/solidstate/contracts/proxy/diamond/writable/DiamondWritableInternal.sol\":1642:1744  if (facetCut.selectors.length == 0)... */\n      tag_261\n      jumpi\n        /* \"imports/solidstate/contracts/proxy/diamond/writable/DiamondWritableInternal.sol\":1705:1744  DiamondWritable__SelectorNotSpecified() */\n      mload(0x40)\n      shl(0xe0, 0xeb6c3aeb)\n      dup2\n      mstore\n      0x04\n      add\n      mload(0x40)\n      dup1\n      swap2\n      sub\n      swap1\n      revert\n        /* \"imports/solidstate/contracts/proxy/diamond/writable/DiamondWritableInternal.sol\":1642:1744  if (facetCut.selectors.length == 0)... */\n    tag_261:\n        /* \"imports/solidstate/contracts/proxy/diamond/writable/DiamondWritableInternal.sol\":1777:1795  FacetCutAction.ADD */\n      0x00\n        /* \"imports/solidstate/contracts/proxy/diamond/writable/DiamondWritableInternal.sol\":1767:1773  action */\n      dup2\n        /* \"imports/solidstate/contracts/proxy/diamond/writable/DiamondWritableInternal.sol\":1767:1795  action == FacetCutAction.ADD */\n      0x02\n      dup2\n      gt\n      iszero\n      tag_266\n      jumpi\n      tag_266\n      tag_264\n      jump\t// in\n    tag_266:\n      sub\n        /* \"imports/solidstate/contracts/proxy/diamond/writable/DiamondWritableInternal.sol\":1763:2465  if (action == FacetCutAction.ADD) {... */\n      tag_267\n      jumpi\n        /* \"imports/solidstate/contracts/proxy/diamond/writable/DiamondWritableInternal.sol\":1851:2029  _addFacetSelectors(... */\n      tag_268\n        /* \"imports/solidstate/contracts/proxy/diamond/writable/DiamondWritableInternal.sol\":1895:1896  l */\n      dup8\n        /* \"imports/solidstate/contracts/proxy/diamond/writable/DiamondWritableInternal.sol\":1922:1935  selectorCount */\n      dup7\n        /* \"imports/solidstate/contracts/proxy/diamond/writable/DiamondWritableInternal.sol\":1961:1973  selectorSlot */\n      dup7\n        /* \"imports/solidstate/contracts/proxy/diamond/writable/DiamondWritableInternal.sol\":1999:2007  facetCut */\n      dup6\n        /* \"imports/solidstate/contracts/proxy/diamond/writable/DiamondWritableInternal.sol\":1851:1869  _addFacetSelectors */\n      tag_269\n        /* \"imports/solidstate/contracts/proxy/diamond/writable/DiamondWritableInternal.sol\":1851:2029  _addFacetSelectors(... */\n      jump\t// in\n    tag_268:\n        /* \"imports/solidstate/contracts/proxy/diamond/writable/DiamondWritableInternal.sol\":1819:2029  (selectorCount, selectorSlot) = _addFacetSelectors(... */\n      swap1\n      swap6\n      pop\n      swap4\n      pop\n        /* \"imports/solidstate/contracts/proxy/diamond/writable/DiamondWritableInternal.sol\":1763:2465  if (action == FacetCutAction.ADD) {... */\n      jump(tag_283)\n    tag_267:\n        /* \"imports/solidstate/contracts/proxy/diamond/writable/DiamondWritableInternal.sol\":2068:2090  FacetCutAction.REPLACE */\n      0x01\n        /* \"imports/solidstate/contracts/proxy/diamond/writable/DiamondWritableInternal.sol\":2058:2064  action */\n      dup2\n        /* \"imports/solidstate/contracts/proxy/diamond/writable/DiamondWritableInternal.sol\":2058:2090  action == FacetCutAction.REPLACE */\n      0x02\n      dup2\n      gt\n      iszero\n      tag_274\n      jumpi\n      tag_274\n      tag_264\n      jump\t// in\n    tag_274:\n      sub\n        /* \"imports/solidstate/contracts/proxy/diamond/writable/DiamondWritableInternal.sol\":2054:2465  if (action == FacetCutAction.REPLACE) {... */\n      tag_275\n      jumpi\n        /* \"imports/solidstate/contracts/proxy/diamond/writable/DiamondWritableInternal.sol\":2114:2149  _replaceFacetSelectors(l, facetCut) */\n      tag_276\n        /* \"imports/solidstate/contracts/proxy/diamond/writable/DiamondWritableInternal.sol\":2137:2138  l */\n      dup8\n        /* \"imports/solidstate/contracts/proxy/diamond/writable/DiamondWritableInternal.sol\":2140:2148  facetCut */\n      dup4\n        /* \"imports/solidstate/contracts/proxy/diamond/writable/DiamondWritableInternal.sol\":2114:2136  _replaceFacetSelectors */\n      tag_277\n        /* \"imports/solidstate/contracts/proxy/diamond/writable/DiamondWritableInternal.sol\":2114:2149  _replaceFacetSelectors(l, facetCut) */\n      jump\t// in\n    tag_276:\n        /* \"imports/solidstate/contracts/proxy/diamond/writable/DiamondWritableInternal.sol\":2054:2465  if (action == FacetCutAction.REPLACE) {... */\n      jump(tag_283)\n    tag_275:\n        /* \"imports/solidstate/contracts/proxy/diamond/writable/DiamondWritableInternal.sol\":2188:2209  FacetCutAction.REMOVE */\n      0x02\n        /* \"imports/solidstate/contracts/proxy/diamond/writable/DiamondWritableInternal.sol\":2178:2184  action */\n      dup2\n        /* \"imports/solidstate/contracts/proxy/diamond/writable/DiamondWritableInternal.sol\":2178:2209  action == FacetCutAction.REMOVE */\n      0x02\n      dup2\n      gt\n      iszero\n      tag_282\n      jumpi\n      tag_282\n      tag_264\n      jump\t// in\n    tag_282:\n      sub\n        /* \"imports/solidstate/contracts/proxy/diamond/writable/DiamondWritableInternal.sol\":2174:2465  if (action == FacetCutAction.REMOVE) {... */\n      tag_283\n      jumpi\n        /* \"imports/solidstate/contracts/proxy/diamond/writable/DiamondWritableInternal.sol\":2265:2446  _removeFacetSelectors(... */\n      tag_284\n        /* \"imports/solidstate/contracts/proxy/diamond/writable/DiamondWritableInternal.sol\":2312:2313  l */\n      dup8\n        /* \"imports/solidstate/contracts/proxy/diamond/writable/DiamondWritableInternal.sol\":2339:2352  selectorCount */\n      dup7\n        /* \"imports/solidstate/contracts/proxy/diamond/writable/DiamondWritableInternal.sol\":2378:2390  selectorSlot */\n      dup7\n        /* \"imports/solidstate/contracts/proxy/diamond/writable/DiamondWritableInternal.sol\":2416:2424  facetCut */\n      dup6\n        /* \"imports/solidstate/contracts/proxy/diamond/writable/DiamondWritableInternal.sol\":2265:2286  _removeFacetSelectors */\n      tag_285\n        /* \"imports/solidstate/contracts/proxy/diamond/writable/DiamondWritableInternal.sol\":2265:2446  _removeFacetSelectors(... */\n      jump\t// in\n    tag_284:\n        /* \"imports/solidstate/contracts/proxy/diamond/writable/DiamondWritableInternal.sol\":2233:2446  (selectorCount, selectorSlot) = _removeFacetSelectors(... */\n      swap1\n      swap6\n      pop\n      swap4\n      pop\n        /* \"imports/solidstate/contracts/proxy/diamond/writable/DiamondWritableInternal.sol\":2174:2465  if (action == FacetCutAction.REMOVE) {... */\n    tag_283:\n      pop\n      pop\n        /* \"imports/solidstate/contracts/proxy/diamond/writable/DiamondWritableInternal.sol\":1504:1507  i++ */\n      0x01\n      add\n        /* \"imports/solidstate/contracts/proxy/diamond/writable/DiamondWritableInternal.sol\":1466:2479  for (uint256 i; i < facetCuts.length; i++) {... */\n      jump(tag_256)\n    tag_257:\n      pop\n        /* \"imports/solidstate/contracts/proxy/diamond/writable/DiamondWritableInternal.sol\":2514:2535  originalSelectorCount */\n      dup3\n        /* \"imports/solidstate/contracts/proxy/diamond/writable/DiamondWritableInternal.sol\":2497:2510  selectorCount */\n      dup3\n        /* \"imports/solidstate/contracts/proxy/diamond/writable/DiamondWritableInternal.sol\":2497:2535  selectorCount != originalSelectorCount */\n      eq\n        /* \"imports/solidstate/contracts/proxy/diamond/writable/DiamondWritableInternal.sol\":2493:2609  if (selectorCount != originalSelectorCount) {... */\n      tag_286\n      jumpi\n        /* \"imports/solidstate/contracts/proxy/diamond/writable/DiamondWritableInternal.sol\":2555:2570  l.selectorCount */\n      0x01\n      dup5\n      add\n        /* \"imports/solidstate/contracts/proxy/diamond/writable/DiamondWritableInternal.sol\":2555:2594  l.selectorCount = uint16(selectorCount) */\n      dup1\n      sload\n      not(0xffff)\n      and\n      0xffff\n      dup5\n      and\n      or\n      swap1\n      sstore\n        /* \"imports/solidstate/contracts/proxy/diamond/writable/DiamondWritableInternal.sol\":2493:2609  if (selectorCount != originalSelectorCount) {... */\n    tag_286:\n        /* \"imports/solidstate/contracts/proxy/diamond/writable/DiamondWritableInternal.sol\":2692:2693  7 */\n      0x07\n        /* \"imports/solidstate/contracts/proxy/diamond/writable/DiamondWritableInternal.sol\":2676:2693  selectorCount & 7 */\n      dup3\n      and\n        /* \"imports/solidstate/contracts/proxy/diamond/writable/DiamondWritableInternal.sol\":2676:2697  selectorCount & 7 > 0 */\n      iszero\n        /* \"imports/solidstate/contracts/proxy/diamond/writable/DiamondWritableInternal.sol\":2672:2782  if (selectorCount & 7 > 0) {... */\n      tag_287\n      jumpi\n        /* \"imports/solidstate/contracts/proxy/diamond/writable/DiamondWritableInternal.sol\":2750:2751  3 */\n      0x03\n        /* \"imports/solidstate/contracts/proxy/diamond/writable/DiamondWritableInternal.sol\":2733:2751  selectorCount >> 3 */\n      dup3\n      swap1\n      shr\n        /* \"imports/solidstate/contracts/proxy/diamond/writable/DiamondWritableInternal.sol\":2717:2752  l.selectorSlots[selectorCount >> 3] */\n      0x00\n      swap1\n      dup2\n      mstore\n        /* \"imports/solidstate/contracts/proxy/diamond/writable/DiamondWritableInternal.sol\":2717:2732  l.selectorSlots */\n      0x02\n      dup6\n      add\n        /* \"imports/solidstate/contracts/proxy/diamond/writable/DiamondWritableInternal.sol\":2717:2752  l.selectorSlots[selectorCount >> 3] */\n      0x20\n      mstore\n      0x40\n      swap1\n      keccak256\n        /* \"imports/solidstate/contracts/proxy/diamond/writable/DiamondWritableInternal.sol\":2717:2767  l.selectorSlots[selectorCount >> 3] = selectorSlot */\n      dup2\n      swap1\n      sstore\n        /* \"imports/solidstate/contracts/proxy/diamond/writable/DiamondWritableInternal.sol\":2672:2782  if (selectorCount & 7 > 0) {... */\n    tag_287:\n        /* \"imports/solidstate/contracts/proxy/diamond/writable/DiamondWritableInternal.sol\":2801:2836  DiamondCut(facetCuts, target, data) */\n      0x8faa70878671ccd212d20771b795c50af8fd3ff6cf27f4bde57e5d4de0aeb673\n        /* \"imports/solidstate/contracts/proxy/diamond/writable/DiamondWritableInternal.sol\":2812:2821  facetCuts */\n      dup8\n        /* \"imports/solidstate/contracts/proxy/diamond/writable/DiamondWritableInternal.sol\":2823:2829  target */\n      dup8\n        /* \"imports/solidstate/contracts/proxy/diamond/writable/DiamondWritableInternal.sol\":2831:2835  data */\n      dup8\n        /* \"imports/solidstate/contracts/proxy/diamond/writable/DiamondWritableInternal.sol\":2801:2836  DiamondCut(facetCuts, target, data) */\n      mload(0x40)\n      tag_288\n      swap4\n      swap3\n      swap2\n      swap1\n      tag_289\n      jump\t// in\n    tag_288:\n      mload(0x40)\n      dup1\n      swap2\n      sub\n      swap1\n      log1\n        /* \"imports/solidstate/contracts/proxy/diamond/writable/DiamondWritableInternal.sol\":2850:2875  _initialize(target, data) */\n      tag_290\n        /* \"imports/solidstate/contracts/proxy/diamond/writable/DiamondWritableInternal.sol\":2862:2868  target */\n      dup7\n        /* \"imports/solidstate/contracts/proxy/diamond/writable/DiamondWritableInternal.sol\":2870:2874  data */\n      dup7\n        /* \"imports/solidstate/contracts/proxy/diamond/writable/DiamondWritableInternal.sol\":2850:2861  _initialize */\n      tag_291\n        /* \"imports/solidstate/contracts/proxy/diamond/writable/DiamondWritableInternal.sol\":2850:2875  _initialize(target, data) */\n      jump\t// in\n    tag_290:\n        /* \"imports/solidstate/contracts/proxy/diamond/writable/DiamondWritableInternal.sol\":1067:2886  unchecked {... */\n      pop\n      pop\n      pop\n        /* \"imports/solidstate/contracts/proxy/diamond/writable/DiamondWritableInternal.sol\":981:2892  {... */\n      pop\n        /* \"imports/solidstate/contracts/proxy/diamond/writable/DiamondWritableInternal.sol\":849:2892  function _diamondCut(... */\n      pop\n      pop\n      pop\n      jump\t// out\n        /* \"imports/solidstate/contracts/access/ownable/SafeOwnableInternal.sol\":575:704  function _nomineeOwner() internal view virtual returns (address) {... */\n    tag_136:\n        /* \"imports/solidstate/contracts/access/ownable/SafeOwnableInternal.sol\":631:638  address */\n      0x00\n        /* \"imports/solidstate/contracts/access/ownable/SafeOwnableStorage.sol\":197:250  keccak256('solidstate.contracts.storage.SafeOwnable') */\n      0x24aa1f7b31fd188a8d3ecfb06bc55c806040e59b03bd4396283442fce6617890\n        /* \"imports/solidstate/contracts/access/ownable/SafeOwnableInternal.sol\":657:684  SafeOwnableStorage.layout() */\n      tag_251\n        /* \"imports/solidstate/contracts/access/ownable/SafeOwnableStorage.sol\":257:416  function layout() internal pure returns (Layout storage l) {... */\n      jump\n        /* \"imports/solidstate/contracts/access/ownable/SafeOwnableInternal.sol\":779:919  function _acceptOwnership() internal virtual {... */\n    tag_140:\n        /* \"imports/solidstate/contracts/access/ownable/SafeOwnableInternal.sol\":834:855  _setOwner(msg.sender) */\n      tag_299\n        /* \"imports/solidstate/contracts/access/ownable/SafeOwnableInternal.sol\":844:854  msg.sender */\n      caller\n        /* \"imports/solidstate/contracts/access/ownable/SafeOwnableInternal.sol\":834:843  _setOwner */\n      tag_300\n        /* \"imports/solidstate/contracts/access/ownable/SafeOwnableInternal.sol\":834:855  _setOwner(msg.sender) */\n      jump\t// in\n    tag_299:\n        /* \"imports/solidstate/contracts/access/ownable/SafeOwnableStorage.sol\":197:250  keccak256('solidstate.contracts.storage.SafeOwnable') */\n      0x24aa1f7b31fd188a8d3ecfb06bc55c806040e59b03bd4396283442fce6617890\n        /* \"imports/solidstate/contracts/access/ownable/SafeOwnableInternal.sol\":865:912  delete SafeOwnableStorage.layout().nomineeOwner */\n      dup1\n      sload\n      not(sub(shl(0xa0, 0x01), 0x01))\n      and\n      swap1\n      sstore\n        /* \"imports/solidstate/contracts/access/ownable/SafeOwnableInternal.sol\":779:919  function _acceptOwnership() internal virtual {... */\n      jump\t// out\n        /* \"imports/solidstate/contracts/proxy/diamond/SolidStateDiamond.sol\":3059:3224  function _transferOwnership(... */\n    tag_241:\n        /* \"imports/solidstate/contracts/access/ownable/SafeOwnableStorage.sol\":197:250  keccak256('solidstate.contracts.storage.SafeOwnable') */\n      0x24aa1f7b31fd188a8d3ecfb06bc55c806040e59b03bd4396283442fce6617890\n        /* \"imports/solidstate/contracts/access/ownable/SafeOwnableInternal.sol\":1256:1306  SafeOwnableStorage.layout().nomineeOwner = account */\n      dup1\n      sload\n      not(sub(shl(0xa0, 0x01), 0x01))\n      and\n      sub(shl(0xa0, 0x01), 0x01)\n      dup4\n      and\n      or\n      swap1\n      sstore\n        /* \"imports/solidstate/contracts/proxy/diamond/SolidStateDiamond.sol\":3184:3217  super._transferOwnership(account) */\n      tag_213\n        /* \"imports/solidstate/contracts/proxy/diamond/SolidStateDiamond.sol\":3209:3216  account */\n      dup2\n        /* \"imports/solidstate/contracts/proxy/diamond/SolidStateDiamond.sol\":3184:3217  super._transferOwnership(account) */\n      dup2\n        /* \"imports/solidstate/contracts/proxy/diamond/SolidStateDiamond.sol\":3209:3216  account */\n      dup2\n        /* \"imports/solidstate/contracts/proxy/diamond/SolidStateDiamond.sol\":3184:3217  super._transferOwnership(account) */\n      dup2\n        /* \"imports/solidstate/contracts/access/ownable/SafeOwnableInternal.sol\":1186:1313  function _setNomineeOwner(address account) internal virtual {... */\n      jump\n        /* \"imports/solidstate/contracts/proxy/diamond/writable/DiamondWritableInternal.sol\":2898:4493  function _addFacetSelectors(... */\n    tag_269:\n        /* \"imports/solidstate/contracts/proxy/diamond/writable/DiamondWritableInternal.sol\":3163:3178  facetCut.target */\n      dup1\n      mload\n        /* \"imports/solidstate/contracts/proxy/diamond/writable/DiamondWritableInternal.sol\":3090:3097  uint256 */\n      0x00\n      swap1\n      dup2\n      swap1\n      sub(shl(0xa0, 0x01), 0x01)\n        /* \"imports/solidstate/contracts/proxy/diamond/writable/DiamondWritableInternal.sol\":3163:3195  facetCut.target != address(this) */\n      and\n        /* \"imports/solidstate/contracts/proxy/diamond/writable/DiamondWritableInternal.sol\":3190:3194  this */\n      address\n        /* \"imports/solidstate/contracts/proxy/diamond/writable/DiamondWritableInternal.sol\":3163:3195  facetCut.target != address(this) */\n      eq\n      dup1\n      iszero\n      swap1\n        /* \"imports/solidstate/contracts/proxy/diamond/writable/DiamondWritableInternal.sol\":3163:3244  facetCut.target != address(this) &&... */\n      tag_311\n      jumpi\n      pop\n        /* \"imports/solidstate/contracts/proxy/diamond/writable/DiamondWritableInternal.sol\":3216:3231  facetCut.target */\n      dup3\n      mload\n      sub(shl(0xa0, 0x01), 0x01)\n        /* \"imports/solidstate/contracts/proxy/diamond/writable/DiamondWritableInternal.sol\":3216:3242  facetCut.target.isContract */\n      and\n        /* \"imports/solidstate/contracts/utils/AddressUtils.sol\":568:588  extcodesize(account) */\n      extcodesize\n        /* \"imports/solidstate/contracts/utils/AddressUtils.sol\":614:622  size > 0 */\n      iszero\n        /* \"imports/solidstate/contracts/proxy/diamond/writable/DiamondWritableInternal.sol\":3163:3244  facetCut.target != address(this) &&... */\n    tag_311:\n        /* \"imports/solidstate/contracts/proxy/diamond/writable/DiamondWritableInternal.sol\":3142:3300  if (... */\n      iszero\n      tag_313\n      jumpi\n        /* \"imports/solidstate/contracts/proxy/diamond/writable/DiamondWritableInternal.sol\":3266:3300  DiamondWritable__TargetHasNoCode() */\n      mload(0x40)\n      shl(0xe2, 0x3ddc5cab)\n      dup2\n      mstore\n      0x04\n      add\n      mload(0x40)\n      dup1\n      swap2\n      sub\n      swap1\n      revert\n        /* \"imports/solidstate/contracts/proxy/diamond/writable/DiamondWritableInternal.sol\":3142:3300  if (... */\n    tag_313:\n        /* \"imports/solidstate/contracts/proxy/diamond/writable/DiamondWritableInternal.sol\":3320:3329  uint256 i */\n      0x00\n        /* \"imports/solidstate/contracts/proxy/diamond/writable/DiamondWritableInternal.sol\":3315:4426  for (uint256 i; i < facetCut.selectors.length; i++) {... */\n    tag_314:\n        /* \"imports/solidstate/contracts/proxy/diamond/writable/DiamondWritableInternal.sol\":3335:3343  facetCut */\n      dup4\n        /* \"imports/solidstate/contracts/proxy/diamond/writable/DiamondWritableInternal.sol\":3335:3353  facetCut.selectors */\n      0x40\n      add\n      mload\n        /* \"imports/solidstate/contracts/proxy/diamond/writable/DiamondWritableInternal.sol\":3335:3360  facetCut.selectors.length */\n      mload\n        /* \"imports/solidstate/contracts/proxy/diamond/writable/DiamondWritableInternal.sol\":3331:3332  i */\n      dup2\n        /* \"imports/solidstate/contracts/proxy/diamond/writable/DiamondWritableInternal.sol\":3331:3360  i < facetCut.selectors.length */\n      lt\n        /* \"imports/solidstate/contracts/proxy/diamond/writable/DiamondWritableInternal.sol\":3315:4426  for (uint256 i; i < facetCut.selectors.length; i++) {... */\n      iszero\n      tag_315\n      jumpi\n        /* \"imports/solidstate/contracts/proxy/diamond/writable/DiamondWritableInternal.sol\":3385:3400  bytes4 selector */\n      0x00\n        /* \"imports/solidstate/contracts/proxy/diamond/writable/DiamondWritableInternal.sol\":3403:3411  facetCut */\n      dup5\n        /* \"imports/solidstate/contracts/proxy/diamond/writable/DiamondWritableInternal.sol\":3403:3421  facetCut.selectors */\n      0x40\n      add\n      mload\n        /* \"imports/solidstate/contracts/proxy/diamond/writable/DiamondWritableInternal.sol\":3422:3423  i */\n      dup3\n        /* \"imports/solidstate/contracts/proxy/diamond/writable/DiamondWritableInternal.sol\":3403:3424  facetCut.selectors[i] */\n      dup2\n      mload\n      dup2\n      lt\n      tag_318\n      jumpi\n      tag_318\n      tag_125\n      jump\t// in\n    tag_318:\n      0x20\n      swap1\n      dup2\n      mul\n      swap2\n      swap1\n      swap2\n      add\n      dup2\n      add\n      mload\n      not(sub(shl(0xe0, 0x01), 0x01))\n        /* \"imports/solidstate/contracts/proxy/diamond/writable/DiamondWritableInternal.sol\":3461:3479  l.facets[selector] */\n      dup2\n      and\n        /* \"imports/solidstate/contracts/proxy/diamond/writable/DiamondWritableInternal.sol\":3442:3458  bytes32 oldFacet */\n      0x00\n        /* \"imports/solidstate/contracts/proxy/diamond/writable/DiamondWritableInternal.sol\":3461:3479  l.facets[selector] */\n      swap1\n      dup2\n      mstore\n      swap2\n      dup11\n      swap1\n      mstore\n      0x40\n      swap1\n      swap2\n      keccak256\n      sload\n        /* \"imports/solidstate/contracts/proxy/diamond/writable/DiamondWritableInternal.sol\":3403:3424  facetCut.selectors[i] */\n      swap1\n      swap2\n      pop\n        /* \"imports/solidstate/contracts/proxy/diamond/writable/DiamondWritableInternal.sol\":3502:3528  address(bytes20(oldFacet)) */\n      0x60\n      dup2\n      swap1\n      shr\n        /* \"imports/solidstate/contracts/proxy/diamond/writable/DiamondWritableInternal.sol\":3502:3542  address(bytes20(oldFacet)) != address(0) */\n      iszero\n        /* \"imports/solidstate/contracts/proxy/diamond/writable/DiamondWritableInternal.sol\":3498:3610  if (address(bytes20(oldFacet)) != address(0))... */\n      tag_319\n      jumpi\n        /* \"imports/solidstate/contracts/proxy/diamond/writable/DiamondWritableInternal.sol\":3571:3610  DiamondWritable__SelectorAlreadyAdded() */\n      mload(0x40)\n      shl(0xe1, 0x4923a771)\n      dup2\n      mstore\n      0x04\n      add\n      mload(0x40)\n      dup1\n      swap2\n      sub\n      swap1\n      revert\n        /* \"imports/solidstate/contracts/proxy/diamond/writable/DiamondWritableInternal.sol\":3498:3610  if (address(bytes20(oldFacet)) != address(0))... */\n    tag_319:\n        /* \"imports/solidstate/contracts/proxy/diamond/writable/DiamondWritableInternal.sol\":3720:3735  facetCut.target */\n      dup6\n      mload\n      not(sub(shl(0xe0, 0x01), 0x01))\n        /* \"imports/solidstate/contracts/proxy/diamond/writable/DiamondWritableInternal.sol\":3671:3689  l.facets[selector] */\n      dup4\n      dup2\n      and\n        /* \"imports/solidstate/contracts/proxy/diamond/writable/DiamondWritableInternal.sol\":3759:3781  bytes32(selectorCount) */\n      0x00\n        /* \"imports/solidstate/contracts/proxy/diamond/writable/DiamondWritableInternal.sol\":3671:3689  l.facets[selector] */\n      dup2\n      dup2\n      mstore\n      0x20\n      dup14\n      swap1\n      mstore\n      0x40\n      swap1\n      keccak256\n        /* \"imports/solidstate/contracts/proxy/diamond/writable/DiamondWritableInternal.sol\":3712:3736  bytes20(facetCut.target) */\n      0x60\n      swap4\n      swap1\n      swap4\n      shl\n      not(sub(shl(0x60, 0x01), 0x01))\n        /* \"imports/solidstate/contracts/proxy/diamond/writable/DiamondWritableInternal.sol\":3712:3781  bytes20(facetCut.target) |... */\n      and\n      dup12\n      or\n        /* \"imports/solidstate/contracts/proxy/diamond/writable/DiamondWritableInternal.sol\":3671:3781  l.facets[selector] =... */\n      swap1\n      swap3\n      sstore\n        /* \"imports/solidstate/contracts/proxy/diamond/writable/DiamondWritableInternal.sol\":3855:3856  5 */\n      0x05\n        /* \"imports/solidstate/contracts/proxy/diamond/writable/DiamondWritableInternal.sol\":3832:3856  (selectorCount & 7) << 5 */\n      dup11\n      swap1\n      shl\n      0xe0\n      swap1\n      dup2\n      and\n        /* \"imports/solidstate/contracts/proxy/diamond/writable/DiamondWritableInternal.sol\":4091:4134  bytes32(selector) >> selectorInSlotPosition */\n      swap3\n      dup4\n      shr\n        /* \"imports/solidstate/contracts/proxy/diamond/writable/DiamondWritableInternal.sol\":4020:4065  CLEAR_SELECTOR_MASK >> selectorInSlotPosition */\n      swap2\n      dup4\n      shr\n        /* \"imports/solidstate/contracts/proxy/diamond/writable/DiamondWritableInternal.sol\":4018:4066  ~(CLEAR_SELECTOR_MASK >> selectorInSlotPosition) */\n      not\n        /* \"imports/solidstate/contracts/proxy/diamond/writable/DiamondWritableInternal.sol\":3979:4066  selectorSlot &... */\n      swap10\n      swap1\n      swap10\n      and\n        /* \"imports/solidstate/contracts/proxy/diamond/writable/DiamondWritableInternal.sol\":3978:4135  (selectorSlot &... */\n      or\n      swap8\n        /* \"imports/solidstate/contracts/proxy/diamond/writable/DiamondWritableInternal.sol\":4218:4247  selectorInSlotPosition == 224 */\n      dup2\n      swap1\n      sub\n        /* \"imports/solidstate/contracts/proxy/diamond/writable/DiamondWritableInternal.sol\":4214:4378  if (selectorInSlotPosition == 224) {... */\n      tag_320\n      jumpi\n        /* \"imports/solidstate/contracts/proxy/diamond/writable/DiamondWritableInternal.sol\":4304:4305  3 */\n      0x03\n        /* \"imports/solidstate/contracts/proxy/diamond/writable/DiamondWritableInternal.sol\":4287:4305  selectorCount >> 3 */\n      dup10\n      swap1\n      shr\n        /* \"imports/solidstate/contracts/proxy/diamond/writable/DiamondWritableInternal.sol\":4271:4306  l.selectorSlots[selectorCount >> 3] */\n      0x00\n      swap1\n      dup2\n      mstore\n        /* \"imports/solidstate/contracts/proxy/diamond/writable/DiamondWritableInternal.sol\":4271:4286  l.selectorSlots */\n      0x02\n      dup12\n      add\n        /* \"imports/solidstate/contracts/proxy/diamond/writable/DiamondWritableInternal.sol\":4271:4306  l.selectorSlots[selectorCount >> 3] */\n      0x20\n      mstore\n      0x40\n      dup2\n      keccak256\n        /* \"imports/solidstate/contracts/proxy/diamond/writable/DiamondWritableInternal.sol\":4271:4321  l.selectorSlots[selectorCount >> 3] = selectorSlot */\n      swap9\n      swap1\n      swap9\n      sstore\n        /* \"imports/solidstate/contracts/proxy/diamond/writable/DiamondWritableInternal.sol\":4214:4378  if (selectorInSlotPosition == 224) {... */\n    tag_320:\n      pop\n      pop\n      pop\n        /* \"imports/solidstate/contracts/proxy/diamond/writable/DiamondWritableInternal.sol\":4396:4411  selectorCount++ */\n      0x01\n      swap6\n      dup7\n      add\n      swap6\n        /* \"imports/solidstate/contracts/proxy/diamond/writable/DiamondWritableInternal.sol\":3362:3365  i++ */\n      add\n        /* \"imports/solidstate/contracts/proxy/diamond/writable/DiamondWritableInternal.sol\":3315:4426  for (uint256 i; i < facetCut.selectors.length; i++) {... */\n      jump(tag_314)\n    tag_315:\n      pop\n        /* \"imports/solidstate/contracts/proxy/diamond/writable/DiamondWritableInternal.sol\":4448:4461  selectorCount */\n      swap4\n      swap6\n        /* \"imports/solidstate/contracts/proxy/diamond/writable/DiamondWritableInternal.sol\":4463:4475  selectorSlot */\n      swap3\n      swap5\n      pop\n        /* \"imports/solidstate/contracts/proxy/diamond/writable/DiamondWritableInternal.sol\":2898:4493  function _addFacetSelectors(... */\n      swap2\n      swap3\n      pop\n      pop\n      pop\n      jump\t// out\n        /* \"imports/solidstate/contracts/proxy/diamond/writable/DiamondWritableInternal.sol\":8179:9259  function _replaceFacetSelectors(... */\n    tag_277:\n        /* \"imports/solidstate/contracts/proxy/diamond/writable/DiamondWritableInternal.sol\":8344:8359  facetCut.target */\n      dup1\n      mload\n      sub(shl(0xa0, 0x01), 0x01)\n        /* \"imports/solidstate/contracts/proxy/diamond/writable/DiamondWritableInternal.sol\":8344:8370  facetCut.target.isContract */\n      and\n        /* \"imports/solidstate/contracts/utils/AddressUtils.sol\":568:588  extcodesize(account) */\n      extcodesize\n        /* \"imports/solidstate/contracts/proxy/diamond/writable/DiamondWritableInternal.sol\":8339:8431  if (!facetCut.target.isContract())... */\n      tag_323\n      jumpi\n        /* \"imports/solidstate/contracts/proxy/diamond/writable/DiamondWritableInternal.sol\":8397:8431  DiamondWritable__TargetHasNoCode() */\n      mload(0x40)\n      shl(0xe2, 0x3ddc5cab)\n      dup2\n      mstore\n      0x04\n      add\n      mload(0x40)\n      dup1\n      swap2\n      sub\n      swap1\n      revert\n        /* \"imports/solidstate/contracts/proxy/diamond/writable/DiamondWritableInternal.sol\":8339:8431  if (!facetCut.target.isContract())... */\n    tag_323:\n        /* \"imports/solidstate/contracts/proxy/diamond/writable/DiamondWritableInternal.sol\":8451:8460  uint256 i */\n      0x00\n        /* \"imports/solidstate/contracts/proxy/diamond/writable/DiamondWritableInternal.sol\":8446:9243  for (uint256 i; i < facetCut.selectors.length; i++) {... */\n    tag_324:\n        /* \"imports/solidstate/contracts/proxy/diamond/writable/DiamondWritableInternal.sol\":8466:8474  facetCut */\n      dup2\n        /* \"imports/solidstate/contracts/proxy/diamond/writable/DiamondWritableInternal.sol\":8466:8484  facetCut.selectors */\n      0x40\n      add\n      mload\n        /* \"imports/solidstate/contracts/proxy/diamond/writable/DiamondWritableInternal.sol\":8466:8491  facetCut.selectors.length */\n      mload\n        /* \"imports/solidstate/contracts/proxy/diamond/writable/DiamondWritableInternal.sol\":8462:8463  i */\n      dup2\n        /* \"imports/solidstate/contracts/proxy/diamond/writable/DiamondWritableInternal.sol\":8462:8491  i < facetCut.selectors.length */\n      lt\n        /* \"imports/solidstate/contracts/proxy/diamond/writable/DiamondWritableInternal.sol\":8446:9243  for (uint256 i; i < facetCut.selectors.length; i++) {... */\n      iszero\n      tag_325\n      jumpi\n        /* \"imports/solidstate/contracts/proxy/diamond/writable/DiamondWritableInternal.sol\":8516:8531  bytes4 selector */\n      0x00\n        /* \"imports/solidstate/contracts/proxy/diamond/writable/DiamondWritableInternal.sol\":8534:8542  facetCut */\n      dup3\n        /* \"imports/solidstate/contracts/proxy/diamond/writable/DiamondWritableInternal.sol\":8534:8552  facetCut.selectors */\n      0x40\n      add\n      mload\n        /* \"imports/solidstate/contracts/proxy/diamond/writable/DiamondWritableInternal.sol\":8553:8554  i */\n      dup3\n        /* \"imports/solidstate/contracts/proxy/diamond/writable/DiamondWritableInternal.sol\":8534:8555  facetCut.selectors[i] */\n      dup2\n      mload\n      dup2\n      lt\n      tag_328\n      jumpi\n      tag_328\n      tag_125\n      jump\t// in\n    tag_328:\n      0x20\n      swap1\n      dup2\n      mul\n      swap2\n      swap1\n      swap2\n      add\n      dup2\n      add\n      mload\n      not(sub(shl(0xe0, 0x01), 0x01))\n        /* \"imports/solidstate/contracts/proxy/diamond/writable/DiamondWritableInternal.sol\":8592:8610  l.facets[selector] */\n      dup2\n      and\n        /* \"imports/solidstate/contracts/proxy/diamond/writable/DiamondWritableInternal.sol\":8573:8589  bytes32 oldFacet */\n      0x00\n        /* \"imports/solidstate/contracts/proxy/diamond/writable/DiamondWritableInternal.sol\":8592:8610  l.facets[selector] */\n      swap1\n      dup2\n      mstore\n      swap2\n      dup7\n      swap1\n      mstore\n      0x40\n      swap1\n      swap2\n      keccak256\n      sload\n        /* \"imports/solidstate/contracts/proxy/diamond/writable/DiamondWritableInternal.sol\":8534:8555  facetCut.selectors[i] */\n      swap1\n      swap2\n      pop\n        /* \"imports/solidstate/contracts/proxy/diamond/writable/DiamondWritableInternal.sol\":8654:8680  address(bytes20(oldFacet)) */\n      0x60\n      dup2\n      swap1\n      shr\n      dup1\n        /* \"imports/solidstate/contracts/proxy/diamond/writable/DiamondWritableInternal.sol\":8699:8796  if (oldFacetAddress == address(0))... */\n      tag_329\n      jumpi\n        /* \"imports/solidstate/contracts/proxy/diamond/writable/DiamondWritableInternal.sol\":8761:8796  DiamondWritable__SelectorNotFound() */\n      mload(0x40)\n      shl(0xe1, 0x37e25a97)\n      dup2\n      mstore\n      0x04\n      add\n      mload(0x40)\n      dup1\n      swap2\n      sub\n      swap1\n      revert\n        /* \"imports/solidstate/contracts/proxy/diamond/writable/DiamondWritableInternal.sol\":8699:8796  if (oldFacetAddress == address(0))... */\n    tag_329:\n        /* \"imports/solidstate/contracts/proxy/diamond/writable/DiamondWritableInternal.sol\":8845:8849  this */\n      address\n      sub(shl(0xa0, 0x01), 0x01)\n        /* \"imports/solidstate/contracts/proxy/diamond/writable/DiamondWritableInternal.sol\":8818:8850  oldFacetAddress == address(this) */\n      dup3\n      and\n      sub\n        /* \"imports/solidstate/contracts/proxy/diamond/writable/DiamondWritableInternal.sol\":8814:8917  if (oldFacetAddress == address(this))... */\n      tag_330\n      jumpi\n        /* \"imports/solidstate/contracts/proxy/diamond/writable/DiamondWritableInternal.sol\":8879:8917  DiamondWritable__SelectorIsImmutable() */\n      mload(0x40)\n      shl(0xe0, 0xe9835731)\n      dup2\n      mstore\n      0x04\n      add\n      mload(0x40)\n      dup1\n      swap2\n      sub\n      swap1\n      revert\n        /* \"imports/solidstate/contracts/proxy/diamond/writable/DiamondWritableInternal.sol\":8814:8917  if (oldFacetAddress == address(this))... */\n    tag_330:\n        /* \"imports/solidstate/contracts/proxy/diamond/writable/DiamondWritableInternal.sol\":8958:8966  facetCut */\n      dup5\n        /* \"imports/solidstate/contracts/proxy/diamond/writable/DiamondWritableInternal.sol\":8958:8973  facetCut.target */\n      0x00\n      add\n      mload\n      sub(shl(0xa0, 0x01), 0x01)\n        /* \"imports/solidstate/contracts/proxy/diamond/writable/DiamondWritableInternal.sol\":8939:8973  oldFacetAddress == facetCut.target */\n      and\n        /* \"imports/solidstate/contracts/proxy/diamond/writable/DiamondWritableInternal.sol\":8939:8954  oldFacetAddress */\n      dup2\n      sub(shl(0xa0, 0x01), 0x01)\n        /* \"imports/solidstate/contracts/proxy/diamond/writable/DiamondWritableInternal.sol\":8939:8973  oldFacetAddress == facetCut.target */\n      and\n      sub\n        /* \"imports/solidstate/contracts/proxy/diamond/writable/DiamondWritableInternal.sol\":8935:9045  if (oldFacetAddress == facetCut.target)... */\n      tag_331\n      jumpi\n        /* \"imports/solidstate/contracts/proxy/diamond/writable/DiamondWritableInternal.sol\":9002:9045  DiamondWritable__ReplaceTargetIsIdentical() */\n      mload(0x40)\n      shl(0xe1, 0x30baabf3)\n      dup2\n      mstore\n      0x04\n      add\n      mload(0x40)\n      dup1\n      swap2\n      sub\n      swap1\n      revert\n        /* \"imports/solidstate/contracts/proxy/diamond/writable/DiamondWritableInternal.sol\":8935:9045  if (oldFacetAddress == facetCut.target)... */\n    tag_331:\n      pop\n        /* \"imports/solidstate/contracts/proxy/diamond/writable/DiamondWritableInternal.sol\":9212:9227  facetCut.target */\n      dup4\n      mload\n      not(sub(shl(0xe0, 0x01), 0x01))\n        /* \"imports/solidstate/contracts/proxy/diamond/writable/DiamondWritableInternal.sol\":9109:9127  l.facets[selector] */\n      swap3\n      swap1\n      swap3\n      and\n        /* \"imports/solidstate/contracts/proxy/diamond/writable/DiamondWritableInternal.sol\":9212:9227  facetCut.target */\n      0x00\n        /* \"imports/solidstate/contracts/proxy/diamond/writable/DiamondWritableInternal.sol\":9109:9127  l.facets[selector] */\n      swap1\n      dup2\n      mstore\n      0x20\n      dup7\n      swap1\n      mstore\n      0x40\n      swap1\n      keccak256\n        /* \"imports/solidstate/contracts/proxy/diamond/writable/DiamondWritableInternal.sol\":9204:9228  bytes20(facetCut.target) */\n      0x60\n      swap3\n      swap1\n      swap3\n      shl\n      not(sub(shl(0x60, 0x01), 0x01))\n        /* \"imports/solidstate/contracts/proxy/diamond/writable/DiamondWritableInternal.sol\":9150:9228  (oldFacet & CLEAR_ADDRESS_MASK) |... */\n      and\n      0xffffffffffffffffffffffff\n        /* \"imports/solidstate/contracts/proxy/diamond/writable/DiamondWritableInternal.sol\":9151:9180  oldFacet & CLEAR_ADDRESS_MASK */\n      swap2\n      swap1\n      swap2\n      and\n        /* \"imports/solidstate/contracts/proxy/diamond/writable/DiamondWritableInternal.sol\":9150:9228  (oldFacet & CLEAR_ADDRESS_MASK) |... */\n      or\n        /* \"imports/solidstate/contracts/proxy/diamond/writable/DiamondWritableInternal.sol\":9109:9228  l.facets[selector] =... */\n      swap1\n      sstore\n        /* \"imports/solidstate/contracts/proxy/diamond/writable/DiamondWritableInternal.sol\":8493:8496  i++ */\n      0x01\n      add\n        /* \"imports/solidstate/contracts/proxy/diamond/writable/DiamondWritableInternal.sol\":8446:9243  for (uint256 i; i < facetCut.selectors.length; i++) {... */\n      jump(tag_324)\n    tag_325:\n      pop\n        /* \"imports/solidstate/contracts/proxy/diamond/writable/DiamondWritableInternal.sol\":8179:9259  function _replaceFacetSelectors(... */\n      pop\n      pop\n      jump\t// out\n        /* \"imports/solidstate/contracts/proxy/diamond/writable/DiamondWritableInternal.sol\":4499:8173  function _removeFacetSelectors(... */\n    tag_285:\n        /* \"imports/solidstate/contracts/proxy/diamond/writable/DiamondWritableInternal.sol\":4750:4765  facetCut.target */\n      dup1\n      mload\n        /* \"imports/solidstate/contracts/proxy/diamond/writable/DiamondWritableInternal.sol\":4694:4701  uint256 */\n      0x00\n      swap1\n      dup2\n      swap1\n      sub(shl(0xa0, 0x01), 0x01)\n        /* \"imports/solidstate/contracts/proxy/diamond/writable/DiamondWritableInternal.sol\":4750:4779  facetCut.target != address(0) */\n      and\n      iszero\n        /* \"imports/solidstate/contracts/proxy/diamond/writable/DiamondWritableInternal.sol\":4746:4849  if (facetCut.target != address(0))... */\n      tag_333\n      jumpi\n        /* \"imports/solidstate/contracts/proxy/diamond/writable/DiamondWritableInternal.sol\":4804:4849  DiamondWritable__RemoveTargetNotZeroAddress() */\n      mload(0x40)\n      shl(0xe2, 0x3ab34909)\n      dup2\n      mstore\n      0x04\n      add\n      mload(0x40)\n      dup1\n      swap2\n      sub\n      swap1\n      revert\n        /* \"imports/solidstate/contracts/proxy/diamond/writable/DiamondWritableInternal.sol\":4746:4849  if (facetCut.target != address(0))... */\n    tag_333:\n        /* \"imports/solidstate/contracts/proxy/diamond/writable/DiamondWritableInternal.sol\":4909:4910  3 */\n      0x03\n        /* \"imports/solidstate/contracts/proxy/diamond/writable/DiamondWritableInternal.sol\":4892:4910  selectorCount >> 3 */\n      dup6\n      swap1\n      shr\n        /* \"imports/solidstate/contracts/proxy/diamond/writable/DiamondWritableInternal.sol\":4970:4971  7 */\n      0x07\n        /* \"imports/solidstate/contracts/proxy/diamond/writable/DiamondWritableInternal.sol\":4954:4971  selectorCount & 7 */\n      dup7\n      and\n        /* \"imports/solidstate/contracts/proxy/diamond/writable/DiamondWritableInternal.sol\":4864:4889  uint256 selectorSlotCount */\n      0x00\n        /* \"imports/solidstate/contracts/proxy/diamond/writable/DiamondWritableInternal.sol\":4986:8029  for (uint256 i; i < facetCut.selectors.length; i++) {... */\n    tag_334:\n        /* \"imports/solidstate/contracts/proxy/diamond/writable/DiamondWritableInternal.sol\":5006:5014  facetCut */\n      dup6\n        /* \"imports/solidstate/contracts/proxy/diamond/writable/DiamondWritableInternal.sol\":5006:5024  facetCut.selectors */\n      0x40\n      add\n      mload\n        /* \"imports/solidstate/contracts/proxy/diamond/writable/DiamondWritableInternal.sol\":5006:5031  facetCut.selectors.length */\n      mload\n        /* \"imports/solidstate/contracts/proxy/diamond/writable/DiamondWritableInternal.sol\":5002:5003  i */\n      dup2\n        /* \"imports/solidstate/contracts/proxy/diamond/writable/DiamondWritableInternal.sol\":5002:5031  i < facetCut.selectors.length */\n      lt\n        /* \"imports/solidstate/contracts/proxy/diamond/writable/DiamondWritableInternal.sol\":4986:8029  for (uint256 i; i < facetCut.selectors.length; i++) {... */\n      iszero\n      tag_335\n      jumpi\n        /* \"imports/solidstate/contracts/proxy/diamond/writable/DiamondWritableInternal.sol\":5056:5071  bytes4 selector */\n      0x00\n        /* \"imports/solidstate/contracts/proxy/diamond/writable/DiamondWritableInternal.sol\":5074:5082  facetCut */\n      dup7\n        /* \"imports/solidstate/contracts/proxy/diamond/writable/DiamondWritableInternal.sol\":5074:5092  facetCut.selectors */\n      0x40\n      add\n      mload\n        /* \"imports/solidstate/contracts/proxy/diamond/writable/DiamondWritableInternal.sol\":5093:5094  i */\n      dup3\n        /* \"imports/solidstate/contracts/proxy/diamond/writable/DiamondWritableInternal.sol\":5074:5095  facetCut.selectors[i] */\n      dup2\n      mload\n      dup2\n      lt\n      tag_338\n      jumpi\n      tag_338\n      tag_125\n      jump\t// in\n    tag_338:\n      0x20\n      swap1\n      dup2\n      mul\n      swap2\n      swap1\n      swap2\n      add\n      dup2\n      add\n      mload\n      not(sub(shl(0xe0, 0x01), 0x01))\n        /* \"imports/solidstate/contracts/proxy/diamond/writable/DiamondWritableInternal.sol\":5132:5150  l.facets[selector] */\n      dup2\n      and\n        /* \"imports/solidstate/contracts/proxy/diamond/writable/DiamondWritableInternal.sol\":5113:5129  bytes32 oldFacet */\n      0x00\n        /* \"imports/solidstate/contracts/proxy/diamond/writable/DiamondWritableInternal.sol\":5132:5150  l.facets[selector] */\n      swap1\n      dup2\n      mstore\n      swap2\n      dup13\n      swap1\n      mstore\n      0x40\n      swap1\n      swap2\n      keccak256\n      sload\n        /* \"imports/solidstate/contracts/proxy/diamond/writable/DiamondWritableInternal.sol\":5074:5095  facetCut.selectors[i] */\n      swap1\n      swap2\n      pop\n        /* \"imports/solidstate/contracts/proxy/diamond/writable/DiamondWritableInternal.sol\":5173:5199  address(bytes20(oldFacet)) */\n      0x60\n      dup2\n      swap1\n      shr\n        /* \"imports/solidstate/contracts/proxy/diamond/writable/DiamondWritableInternal.sol\":5169:5277  if (address(bytes20(oldFacet)) == address(0))... */\n      tag_339\n      jumpi\n        /* \"imports/solidstate/contracts/proxy/diamond/writable/DiamondWritableInternal.sol\":5242:5277  DiamondWritable__SelectorNotFound() */\n      mload(0x40)\n      shl(0xe1, 0x37e25a97)\n      dup2\n      mstore\n      0x04\n      add\n      mload(0x40)\n      dup1\n      swap2\n      sub\n      swap1\n      revert\n        /* \"imports/solidstate/contracts/proxy/diamond/writable/DiamondWritableInternal.sol\":5169:5277  if (address(bytes20(oldFacet)) == address(0))... */\n    tag_339:\n        /* \"imports/solidstate/contracts/proxy/diamond/writable/DiamondWritableInternal.sol\":5338:5342  this */\n      address\n        /* \"imports/solidstate/contracts/proxy/diamond/writable/DiamondWritableInternal.sol\":5300:5326  address(bytes20(oldFacet)) */\n      0x60\n      dup3\n      swap1\n      shr\n        /* \"imports/solidstate/contracts/proxy/diamond/writable/DiamondWritableInternal.sol\":5300:5343  address(bytes20(oldFacet)) == address(this) */\n      sub\n        /* \"imports/solidstate/contracts/proxy/diamond/writable/DiamondWritableInternal.sol\":5296:5410  if (address(bytes20(oldFacet)) == address(this))... */\n      tag_340\n      jumpi\n        /* \"imports/solidstate/contracts/proxy/diamond/writable/DiamondWritableInternal.sol\":5372:5410  DiamondWritable__SelectorIsImmutable() */\n      mload(0x40)\n      shl(0xe0, 0xe9835731)\n      dup2\n      mstore\n      0x04\n      add\n      mload(0x40)\n      dup1\n      swap2\n      sub\n      swap1\n      revert\n        /* \"imports/solidstate/contracts/proxy/diamond/writable/DiamondWritableInternal.sol\":5296:5410  if (address(bytes20(oldFacet)) == address(this))... */\n    tag_340:\n        /* \"imports/solidstate/contracts/proxy/diamond/writable/DiamondWritableInternal.sol\":5449:5450  0 */\n      0x00\n        /* \"imports/solidstate/contracts/proxy/diamond/writable/DiamondWritableInternal.sol\":5433:5450  selectorSlot == 0 */\n      dup10\n      swap1\n      sub\n        /* \"imports/solidstate/contracts/proxy/diamond/writable/DiamondWritableInternal.sol\":5429:5696  if (selectorSlot == 0) {... */\n      tag_341\n      jumpi\n      not(0x00)\n        /* \"imports/solidstate/contracts/proxy/diamond/writable/DiamondWritableInternal.sol\":5474:5493  selectorSlotCount-- */\n      swap1\n      swap5\n      add\n        /* \"imports/solidstate/contracts/proxy/diamond/writable/DiamondWritableInternal.sol\":5530:5564  l.selectorSlots[selectorSlotCount] */\n      0x00\n      dup2\n      dup2\n      mstore\n        /* \"imports/solidstate/contracts/proxy/diamond/writable/DiamondWritableInternal.sol\":5530:5545  l.selectorSlots */\n      0x02\n      dup13\n      add\n        /* \"imports/solidstate/contracts/proxy/diamond/writable/DiamondWritableInternal.sol\":5530:5564  l.selectorSlots[selectorSlotCount] */\n      0x20\n      mstore\n      0x40\n      swap1\n      keccak256\n      sload\n      swap9\n      pop\n        /* \"imports/solidstate/contracts/proxy/diamond/writable/DiamondWritableInternal.sol\":5474:5493  selectorSlotCount-- */\n      swap4\n        /* \"imports/solidstate/contracts/proxy/diamond/writable/DiamondWritableInternal.sol\":5608:5609  7 */\n      0x07\n      swap4\n      pop\n        /* \"imports/solidstate/contracts/proxy/diamond/writable/DiamondWritableInternal.sol\":5429:5696  if (selectorSlot == 0) {... */\n      jump(tag_342)\n    tag_341:\n      not(0x00)\n        /* \"imports/solidstate/contracts/proxy/diamond/writable/DiamondWritableInternal.sol\":5656:5677  selectorInSlotIndex-- */\n      swap1\n      swap4\n      add\n      swap3\n        /* \"imports/solidstate/contracts/proxy/diamond/writable/DiamondWritableInternal.sol\":5429:5696  if (selectorSlot == 0) {... */\n    tag_342:\n        /* \"imports/solidstate/contracts/proxy/diamond/writable/DiamondWritableInternal.sol\":6099:6100  5 */\n      0x05\n        /* \"imports/solidstate/contracts/proxy/diamond/writable/DiamondWritableInternal.sol\":6076:6100  selectorInSlotIndex << 5 */\n      dup5\n      swap1\n      shl\n        /* \"imports/solidstate/contracts/proxy/diamond/writable/DiamondWritableInternal.sol\":6059:6101  selectorSlot << (selectorInSlotIndex << 5) */\n      dup10\n      swap1\n      shl\n        /* \"imports/solidstate/contracts/proxy/diamond/writable/DiamondWritableInternal.sol\":5714:5733  bytes4 lastSelector */\n      0x00\n      dup1\n      not(sub(shl(0xe0, 0x01), 0x01))\n        /* \"imports/solidstate/contracts/proxy/diamond/writable/DiamondWritableInternal.sol\":6150:6174  lastSelector != selector */\n      dup1\n      dup5\n      and\n      swap1\n      dup7\n      and\n      eq\n        /* \"imports/solidstate/contracts/proxy/diamond/writable/DiamondWritableInternal.sol\":6146:6438  if (lastSelector != selector) {... */\n      tag_343\n      jumpi\n      not(sub(shl(0xe0, 0x01), 0x01))\n        /* \"imports/solidstate/contracts/proxy/diamond/writable/DiamondWritableInternal.sol\":6392:6414  l.facets[lastSelector] */\n      dup4\n      and\n        /* \"imports/solidstate/contracts/proxy/diamond/writable/DiamondWritableInternal.sol\":6392:6400  l.facets */\n      0x00\n        /* \"imports/solidstate/contracts/proxy/diamond/writable/DiamondWritableInternal.sol\":6392:6414  l.facets[lastSelector] */\n      swap1\n      dup2\n      mstore\n      0x20\n      dup16\n      swap1\n      mstore\n      0x40\n      swap1\n      keccak256\n      dup1\n      sload\n      not(sub(shl(0x60, 0x01), 0x01))\n        /* \"imports/solidstate/contracts/proxy/diamond/writable/DiamondWritableInternal.sol\":6322:6415  (oldFacet & CLEAR_ADDRESS_MASK) |... */\n      and\n      0xffffffffffffffffffffffff\n        /* \"imports/solidstate/contracts/proxy/diamond/writable/DiamondWritableInternal.sol\":6323:6352  oldFacet & CLEAR_ADDRESS_MASK */\n      dup7\n      and\n        /* \"imports/solidstate/contracts/proxy/diamond/writable/DiamondWritableInternal.sol\":6322:6415  (oldFacet & CLEAR_ADDRESS_MASK) |... */\n      or\n        /* \"imports/solidstate/contracts/proxy/diamond/writable/DiamondWritableInternal.sol\":6269:6415  l.facets[lastSelector] =... */\n      swap1\n      sstore\n        /* \"imports/solidstate/contracts/proxy/diamond/writable/DiamondWritableInternal.sol\":6146:6438  if (lastSelector != selector) {... */\n    tag_343:\n      pop\n      pop\n      not(sub(shl(0xe0, 0x01), 0x01))\n        /* \"imports/solidstate/contracts/proxy/diamond/writable/DiamondWritableInternal.sol\":6467:6485  l.facets[selector] */\n      dup4\n      and\n        /* \"imports/solidstate/contracts/proxy/diamond/writable/DiamondWritableInternal.sol\":6467:6475  l.facets */\n      0x00\n        /* \"imports/solidstate/contracts/proxy/diamond/writable/DiamondWritableInternal.sol\":6467:6485  l.facets[selector] */\n      swap1\n      dup2\n      mstore\n      0x20\n      dup14\n      swap1\n      mstore\n      0x40\n      dup2\n      keccak256\n        /* \"imports/solidstate/contracts/proxy/diamond/writable/DiamondWritableInternal.sol\":6460:6485  delete l.facets[selector] */\n      sstore\n        /* \"imports/solidstate/contracts/proxy/diamond/writable/DiamondWritableInternal.sol\":6605:6626  oldSelectorCount >> 3 */\n      0x1fff\n        /* \"imports/solidstate/contracts/proxy/diamond/writable/DiamondWritableInternal.sol\":6625:6626  3 */\n      0x03\n        /* \"imports/solidstate/contracts/proxy/diamond/writable/DiamondWritableInternal.sol\":6605:6626  oldSelectorCount >> 3 */\n      dup4\n      swap1\n      shr\n      and\n        /* \"imports/solidstate/contracts/proxy/diamond/writable/DiamondWritableInternal.sol\":6676:6703  (oldSelectorCount & 7) << 5 */\n      0xe0\n        /* \"imports/solidstate/contracts/proxy/diamond/writable/DiamondWritableInternal.sol\":6702:6703  5 */\n      0x05\n        /* \"imports/solidstate/contracts/proxy/diamond/writable/DiamondWritableInternal.sol\":6676:6703  (oldSelectorCount & 7) << 5 */\n      dup5\n      swap1\n      shl\n      and\n        /* \"imports/solidstate/contracts/proxy/diamond/writable/DiamondWritableInternal.sol\":6744:6786  oldSelectorsSlotCount != selectorSlotCount */\n      dup8\n      dup3\n      eq\n        /* \"imports/solidstate/contracts/proxy/diamond/writable/DiamondWritableInternal.sol\":6740:7847  if (oldSelectorsSlotCount != selectorSlotCount) {... */\n      tag_344\n      jumpi\n        /* \"imports/solidstate/contracts/proxy/diamond/writable/DiamondWritableInternal.sol\":6810:6833  bytes32 oldSelectorSlot */\n      0x00\n        /* \"imports/solidstate/contracts/proxy/diamond/writable/DiamondWritableInternal.sol\":6836:6920  l.selectorSlots[... */\n      dup3\n      dup2\n      mstore\n        /* \"imports/solidstate/contracts/proxy/diamond/writable/DiamondWritableInternal.sol\":6836:6851  l.selectorSlots */\n      0x02\n      dup16\n      add\n        /* \"imports/solidstate/contracts/proxy/diamond/writable/DiamondWritableInternal.sol\":6836:6920  l.selectorSlots[... */\n      0x20\n      mstore\n      0x40\n      swap1\n      keccak256\n      dup1\n      sload\n      not(sub(shl(0xe0, 0x01), 0x01))\n        /* \"imports/solidstate/contracts/proxy/diamond/writable/DiamondWritableInternal.sol\":7134:7214  CLEAR_SELECTOR_MASK >>... */\n      dup1\n      dup5\n      shr\n        /* \"imports/solidstate/contracts/proxy/diamond/writable/DiamondWritableInternal.sol\":7132:7215  ~(CLEAR_SELECTOR_MASK >>... */\n      not\n        /* \"imports/solidstate/contracts/proxy/diamond/writable/DiamondWritableInternal.sol\":7086:7215  oldSelectorSlot &... */\n      swap1\n      swap2\n      and\n        /* \"imports/solidstate/contracts/proxy/diamond/writable/DiamondWritableInternal.sol\":7244:7265  bytes32(lastSelector) */\n      swap1\n      dup6\n      and\n        /* \"imports/solidstate/contracts/proxy/diamond/writable/DiamondWritableInternal.sol\":7244:7294  bytes32(lastSelector) >> oldSelectorInSlotPosition */\n      dup4\n      shr\n        /* \"imports/solidstate/contracts/proxy/diamond/writable/DiamondWritableInternal.sol\":7085:7295  (oldSelectorSlot &... */\n      or\n        /* \"imports/solidstate/contracts/proxy/diamond/writable/DiamondWritableInternal.sol\":7379:7435  l.selectorSlots[oldSelectorsSlotCount] = oldSelectorSlot */\n      swap1\n      sstore\n        /* \"imports/solidstate/contracts/proxy/diamond/writable/DiamondWritableInternal.sol\":6740:7847  if (oldSelectorsSlotCount != selectorSlotCount) {... */\n      jump(tag_345)\n    tag_344:\n        /* \"imports/solidstate/contracts/proxy/diamond/writable/DiamondWritableInternal.sol\":7802:7827  oldSelectorInSlotPosition */\n      dup1\n        /* \"imports/solidstate/contracts/proxy/diamond/writable/DiamondWritableInternal.sol\":7785:7797  lastSelector */\n      dup4\n      sub(shl(0xe0, 0x01), 0x01)\n        /* \"imports/solidstate/contracts/proxy/diamond/writable/DiamondWritableInternal.sol\":7777:7798  bytes32(lastSelector) */\n      not\n      and\n        /* \"imports/solidstate/contracts/proxy/diamond/writable/DiamondWritableInternal.sol\":7777:7827  bytes32(lastSelector) >> oldSelectorInSlotPosition */\n      swap1\n      shr\n        /* \"imports/solidstate/contracts/proxy/diamond/writable/DiamondWritableInternal.sol\":7722:7747  oldSelectorInSlotPosition */\n      dup2\n      not(sub(shl(0xe0, 0x01), 0x01))\n        /* \"imports/solidstate/contracts/proxy/diamond/writable/DiamondWritableInternal.sol\":539:574  bytes32(uint256(0xffffffff << 224)) */\n      0x00\n      shl\n        /* \"imports/solidstate/contracts/proxy/diamond/writable/DiamondWritableInternal.sol\":7667:7747  CLEAR_SELECTOR_MASK >>... */\n      swap1\n      shr\n        /* \"imports/solidstate/contracts/proxy/diamond/writable/DiamondWritableInternal.sol\":7665:7748  ~(CLEAR_SELECTOR_MASK >>... */\n      not\n        /* \"imports/solidstate/contracts/proxy/diamond/writable/DiamondWritableInternal.sol\":7622:7634  selectorSlot */\n      dup14\n        /* \"imports/solidstate/contracts/proxy/diamond/writable/DiamondWritableInternal.sol\":7622:7748  selectorSlot &... */\n      and\n        /* \"imports/solidstate/contracts/proxy/diamond/writable/DiamondWritableInternal.sol\":7621:7828  (selectorSlot &... */\n      or\n        /* \"imports/solidstate/contracts/proxy/diamond/writable/DiamondWritableInternal.sol\":7582:7828  selectorSlot =... */\n      swap12\n      pop\n        /* \"imports/solidstate/contracts/proxy/diamond/writable/DiamondWritableInternal.sol\":6740:7847  if (oldSelectorsSlotCount != selectorSlotCount) {... */\n    tag_345:\n        /* \"imports/solidstate/contracts/proxy/diamond/writable/DiamondWritableInternal.sol\":7869:7888  selectorInSlotIndex */\n      dup7\n        /* \"imports/solidstate/contracts/proxy/diamond/writable/DiamondWritableInternal.sol\":7892:7893  0 */\n      0x00\n        /* \"imports/solidstate/contracts/proxy/diamond/writable/DiamondWritableInternal.sol\":7869:7893  selectorInSlotIndex == 0 */\n      sub\n        /* \"imports/solidstate/contracts/proxy/diamond/writable/DiamondWritableInternal.sol\":7865:8015  if (selectorInSlotIndex == 0) {... */\n      tag_346\n      jumpi\n        /* \"imports/solidstate/contracts/proxy/diamond/writable/DiamondWritableInternal.sol\":7924:7958  l.selectorSlots[selectorSlotCount] */\n      0x00\n      dup9\n      dup2\n      mstore\n        /* \"imports/solidstate/contracts/proxy/diamond/writable/DiamondWritableInternal.sol\":7924:7939  l.selectorSlots */\n      0x02\n      dup16\n      add\n        /* \"imports/solidstate/contracts/proxy/diamond/writable/DiamondWritableInternal.sol\":7924:7958  l.selectorSlots[selectorSlotCount] */\n      0x20\n      mstore\n      0x40\n      dup2\n      keccak256\n        /* \"imports/solidstate/contracts/proxy/diamond/writable/DiamondWritableInternal.sol\":7917:7958  delete l.selectorSlots[selectorSlotCount] */\n      dup2\n      swap1\n      sstore\n        /* \"imports/solidstate/contracts/proxy/diamond/writable/DiamondWritableInternal.sol\":7924:7958  l.selectorSlots[selectorSlotCount] */\n      swap12\n      pop\n        /* \"imports/solidstate/contracts/proxy/diamond/writable/DiamondWritableInternal.sol\":7865:8015  if (selectorInSlotIndex == 0) {... */\n    tag_346:\n      pop\n      pop\n        /* \"imports/solidstate/contracts/proxy/diamond/writable/DiamondWritableInternal.sol\":5033:5036  i++ */\n      0x01\n      swap1\n      swap4\n      add\n      swap3\n      pop\n        /* \"imports/solidstate/contracts/proxy/diamond/writable/DiamondWritableInternal.sol\":4986:8029  for (uint256 i; i < facetCut.selectors.length; i++) {... */\n      tag_334\n      swap2\n      pop\n      pop\n      jump\n    tag_335:\n      pop\n        /* \"imports/solidstate/contracts/proxy/diamond/writable/DiamondWritableInternal.sol\":8081:8082  3 */\n      0x03\n        /* \"imports/solidstate/contracts/proxy/diamond/writable/DiamondWritableInternal.sol\":8060:8082  selectorSlotCount << 3 */\n      swap2\n      swap1\n      swap2\n      shl\n        /* \"imports/solidstate/contracts/proxy/diamond/writable/DiamondWritableInternal.sol\":8059:8105  (selectorSlotCount << 3) | selectorInSlotIndex */\n      or\n      swap7\n        /* \"imports/solidstate/contracts/proxy/diamond/writable/DiamondWritableInternal.sol\":8143:8155  selectorSlot */\n      swap4\n      swap6\n      pop\n        /* \"imports/solidstate/contracts/proxy/diamond/writable/DiamondWritableInternal.sol\":4499:8173  function _removeFacetSelectors(... */\n      swap3\n      swap4\n      pop\n      pop\n      pop\n      pop\n      jump\t// out\n        /* \"imports/solidstate/contracts/proxy/diamond/writable/DiamondWritableInternal.sol\":9265:9928  function _initialize(address target, bytes memory data) private {... */\n    tag_291:\n        /* \"imports/solidstate/contracts/proxy/diamond/writable/DiamondWritableInternal.sol\":9370:9381  data.length */\n      dup1\n      mload\n        /* \"imports/solidstate/contracts/proxy/diamond/writable/DiamondWritableInternal.sol\":9370:9386  data.length == 0 */\n      iszero\n      sub(shl(0xa0, 0x01), 0x01)\n        /* \"imports/solidstate/contracts/proxy/diamond/writable/DiamondWritableInternal.sol\":9344:9364  target == address(0) */\n      dup4\n      and\n      iszero\n        /* \"imports/solidstate/contracts/proxy/diamond/writable/DiamondWritableInternal.sol\":9343:9387  (target == address(0)) != (data.length == 0) */\n      eq\n        /* \"imports/solidstate/contracts/proxy/diamond/writable/DiamondWritableInternal.sol\":9339:9458  if ((target == address(0)) != (data.length == 0))... */\n      tag_348\n      jumpi\n        /* \"imports/solidstate/contracts/proxy/diamond/writable/DiamondWritableInternal.sol\":9408:9458  DiamondWritable__InvalidInitializationParameters() */\n      mload(0x40)\n      shl(0xe0, 0x26df4ccd)\n      dup2\n      mstore\n      0x04\n      add\n      mload(0x40)\n      dup1\n      swap2\n      sub\n      swap1\n      revert\n        /* \"imports/solidstate/contracts/proxy/diamond/writable/DiamondWritableInternal.sol\":9339:9458  if ((target == address(0)) != (data.length == 0))... */\n    tag_348:\n      sub(shl(0xa0, 0x01), 0x01)\n        /* \"imports/solidstate/contracts/proxy/diamond/writable/DiamondWritableInternal.sol\":9473:9493  target != address(0) */\n      dup3\n      and\n      iszero\n        /* \"imports/solidstate/contracts/proxy/diamond/writable/DiamondWritableInternal.sol\":9469:9922  if (target != address(0)) {... */\n      tag_349\n      jumpi\n      sub(shl(0xa0, 0x01), 0x01)\n        /* \"imports/solidstate/contracts/proxy/diamond/writable/DiamondWritableInternal.sol\":9513:9536  target != address(this) */\n      dup3\n      and\n        /* \"imports/solidstate/contracts/proxy/diamond/writable/DiamondWritableInternal.sol\":9531:9535  this */\n      address\n        /* \"imports/solidstate/contracts/proxy/diamond/writable/DiamondWritableInternal.sol\":9513:9536  target != address(this) */\n      eq\n        /* \"imports/solidstate/contracts/proxy/diamond/writable/DiamondWritableInternal.sol\":9509:9658  if (target != address(this)) {... */\n      tag_352\n      jumpi\n      sub(shl(0xa0, 0x01), 0x01)\n        /* \"imports/solidstate/contracts/proxy/diamond/writable/DiamondWritableInternal.sol\":9561:9578  target.isContract */\n      dup3\n      and\n        /* \"imports/solidstate/contracts/utils/AddressUtils.sol\":568:588  extcodesize(account) */\n      extcodesize\n        /* \"imports/solidstate/contracts/proxy/diamond/writable/DiamondWritableInternal.sol\":9556:9643  if (!target.isContract())... */\n      tag_352\n      jumpi\n        /* \"imports/solidstate/contracts/proxy/diamond/writable/DiamondWritableInternal.sol\":9609:9643  DiamondWritable__TargetHasNoCode() */\n      mload(0x40)\n      shl(0xe2, 0x3ddc5cab)\n      dup2\n      mstore\n      0x04\n      add\n      mload(0x40)\n      dup1\n      swap2\n      sub\n      swap1\n      revert\n        /* \"imports/solidstate/contracts/proxy/diamond/writable/DiamondWritableInternal.sol\":9556:9643  if (!target.isContract())... */\n    tag_352:\n        /* \"imports/solidstate/contracts/proxy/diamond/writable/DiamondWritableInternal.sol\":9673:9685  bool success */\n      0x00\n        /* \"imports/solidstate/contracts/proxy/diamond/writable/DiamondWritableInternal.sol\":9691:9697  target */\n      dup3\n      sub(shl(0xa0, 0x01), 0x01)\n        /* \"imports/solidstate/contracts/proxy/diamond/writable/DiamondWritableInternal.sol\":9691:9710  target.delegatecall */\n      and\n        /* \"imports/solidstate/contracts/proxy/diamond/writable/DiamondWritableInternal.sol\":9711:9715  data */\n      dup3\n        /* \"imports/solidstate/contracts/proxy/diamond/writable/DiamondWritableInternal.sol\":9691:9716  target.delegatecall(data) */\n      mload(0x40)\n      tag_353\n      swap2\n      swap1\n      tag_354\n      jump\t// in\n    tag_353:\n      0x00\n      mload(0x40)\n      dup1\n      dup4\n      sub\n      dup2\n      dup6\n      gas\n      delegatecall\n      swap2\n      pop\n      pop\n      returndatasize\n      dup1\n      0x00\n      dup2\n      eq\n      tag_357\n      jumpi\n      mload(0x40)\n      swap2\n      pop\n      and(add(returndatasize, 0x3f), not(0x1f))\n      dup3\n      add\n      0x40\n      mstore\n      returndatasize\n      dup3\n      mstore\n      returndatasize\n      0x00\n      0x20\n      dup5\n      add\n      returndatacopy\n      jump(tag_356)\n    tag_357:\n      0x60\n      swap2\n      pop\n    tag_356:\n      pop\n        /* \"imports/solidstate/contracts/proxy/diamond/writable/DiamondWritableInternal.sol\":9672:9716  (bool success, ) = target.delegatecall(data) */\n      pop\n      swap1\n      pop\n        /* \"imports/solidstate/contracts/proxy/diamond/writable/DiamondWritableInternal.sol\":9736:9743  success */\n      dup1\n        /* \"imports/solidstate/contracts/proxy/diamond/writable/DiamondWritableInternal.sol\":9731:9912  if (!success) {... */\n      tag_325\n      jumpi\n        /* \"imports/solidstate/contracts/proxy/diamond/writable/DiamondWritableInternal.sol\":9815:9831  returndatasize() */\n      returndatasize\n        /* \"imports/solidstate/contracts/proxy/diamond/writable/DiamondWritableInternal.sol\":9812:9813  0 */\n      0x00\n      dup1\n        /* \"imports/solidstate/contracts/proxy/diamond/writable/DiamondWritableInternal.sol\":9794:9832  returndatacopy(0, 0, returndatasize()) */\n      returndatacopy\n        /* \"imports/solidstate/contracts/proxy/diamond/writable/DiamondWritableInternal.sol\":9863:9879  returndatasize() */\n      returndatasize\n        /* \"imports/solidstate/contracts/proxy/diamond/writable/DiamondWritableInternal.sol\":9812:9813  0 */\n      0x00\n        /* \"imports/solidstate/contracts/proxy/diamond/writable/DiamondWritableInternal.sol\":9853:9880  revert(0, returndatasize()) */\n      revert\n        /* \"imports/solidstate/contracts/proxy/diamond/writable/DiamondWritableInternal.sol\":9469:9922  if (target != address(0)) {... */\n    tag_349:\n        /* \"imports/solidstate/contracts/proxy/diamond/writable/DiamondWritableInternal.sol\":9265:9928  function _initialize(address target, bytes memory data) private {... */\n      pop\n      pop\n      jump\t// out\n        /* \"imports/solidstate/contracts/access/ownable/OwnableInternal.sol\":1203:1410  function _setOwner(address account) internal virtual {... */\n    tag_300:\n        /* \"imports/solidstate/contracts/access/ownable/OwnableStorage.sol\":186:235  keccak256('solidstate.contracts.storage.Ownable') */\n      0x8a22373512790c48b83a1fe2efdd2888d4a917bcdc24d0adf63e60f671680460\n        /* \"imports/solidstate/contracts/access/ownable/OwnableInternal.sol\":1359:1366  l.owner */\n      dup1\n      sload\n        /* \"imports/solidstate/contracts/access/ownable/OwnableInternal.sol\":1338:1376  OwnershipTransferred(l.owner, account) */\n      mload(0x40)\n      sub(shl(0xa0, 0x01), 0x01)\n      dup5\n      dup2\n      and\n      swap3\n        /* \"imports/solidstate/contracts/access/ownable/OwnableInternal.sol\":1359:1366  l.owner */\n      and\n      swap1\n        /* \"imports/solidstate/contracts/access/ownable/OwnableInternal.sol\":1338:1376  OwnershipTransferred(l.owner, account) */\n      0x8be0079c531659141344cd1fd0a4f28419497f9722a3daafe3b4186f6b6457e0\n      swap1\n        /* \"imports/solidstate/contracts/access/ownable/OwnableInternal.sol\":1266:1297  OwnableStorage.Layout storage l */\n      0x00\n      swap1\n        /* \"imports/solidstate/contracts/access/ownable/OwnableInternal.sol\":1338:1376  OwnershipTransferred(l.owner, account) */\n      log3\n        /* \"imports/solidstate/contracts/access/ownable/OwnableInternal.sol\":1386:1403  l.owner = account */\n      dup1\n      sload\n      not(sub(shl(0xa0, 0x01), 0x01))\n      and\n      sub(shl(0xa0, 0x01), 0x01)\n      swap3\n      swap1\n      swap3\n      and\n      swap2\n      swap1\n      swap2\n      or\n      swap1\n      sstore\n        /* \"imports/solidstate/contracts/access/ownable/OwnableInternal.sol\":1203:1410  function _setOwner(address account) internal virtual {... */\n      jump\t// out\n        /* \"#utility.yul\":14:187   */\n    tag_370:\n        /* \"#utility.yul\":81:101   */\n      dup1\n      calldataload\n      not(sub(shl(0xe0, 0x01), 0x01))\n        /* \"#utility.yul\":130:162   */\n      dup2\n      and\n        /* \"#utility.yul\":120:163   */\n      dup2\n      eq\n        /* \"#utility.yul\":110:181   */\n      tag_383\n      jumpi\n        /* \"#utility.yul\":177:178   */\n      0x00\n        /* \"#utility.yul\":174:175   */\n      dup1\n        /* \"#utility.yul\":167:179   */\n      revert\n        /* \"#utility.yul\":110:181   */\n    tag_383:\n        /* \"#utility.yul\":14:187   */\n      swap2\n      swap1\n      pop\n      jump\t// out\n        /* \"#utility.yul\":192:376   */\n    tag_30:\n        /* \"#utility.yul\":250:256   */\n      0x00\n        /* \"#utility.yul\":303:305   */\n      0x20\n        /* \"#utility.yul\":291:300   */\n      dup3\n        /* \"#utility.yul\":282:289   */\n      dup5\n        /* \"#utility.yul\":278:301   */\n      sub\n        /* \"#utility.yul\":274:306   */\n      slt\n        /* \"#utility.yul\":271:323   */\n      iszero\n      tag_385\n      jumpi\n        /* \"#utility.yul\":319:320   */\n      0x00\n        /* \"#utility.yul\":316:317   */\n      dup1\n        /* \"#utility.yul\":309:321   */\n      revert\n        /* \"#utility.yul\":271:323   */\n    tag_385:\n        /* \"#utility.yul\":342:370   */\n      tag_386\n        /* \"#utility.yul\":360:369   */\n      dup3\n        /* \"#utility.yul\":342:370   */\n      tag_370\n      jump\t// in\n    tag_386:\n        /* \"#utility.yul\":332:370   */\n      swap4\n        /* \"#utility.yul\":192:376   */\n      swap3\n      pop\n      pop\n      pop\n      jump\t// out\n        /* \"#utility.yul\":573:746   */\n    tag_371:\n        /* \"#utility.yul\":641:661   */\n      dup1\n      calldataload\n      sub(shl(0xa0, 0x01), 0x01)\n        /* \"#utility.yul\":690:721   */\n      dup2\n      and\n        /* \"#utility.yul\":680:722   */\n      dup2\n      eq\n        /* \"#utility.yul\":670:740   */\n      tag_383\n      jumpi\n        /* \"#utility.yul\":736:737   */\n      0x00\n        /* \"#utility.yul\":733:734   */\n      dup1\n        /* \"#utility.yul\":726:738   */\n      revert\n        /* \"#utility.yul\":751:1098   */\n    tag_372:\n        /* \"#utility.yul\":802:810   */\n      0x00\n        /* \"#utility.yul\":812:818   */\n      dup1\n        /* \"#utility.yul\":866:869   */\n      dup4\n        /* \"#utility.yul\":859:863   */\n      0x1f\n        /* \"#utility.yul\":851:857   */\n      dup5\n        /* \"#utility.yul\":847:864   */\n      add\n        /* \"#utility.yul\":843:870   */\n      slt\n        /* \"#utility.yul\":833:888   */\n      tag_391\n      jumpi\n        /* \"#utility.yul\":884:885   */\n      0x00\n        /* \"#utility.yul\":881:882   */\n      dup1\n        /* \"#utility.yul\":874:886   */\n      revert\n        /* \"#utility.yul\":833:888   */\n    tag_391:\n      pop\n        /* \"#utility.yul\":907:927   */\n      dup2\n      calldataload\n        /* \"#utility.yul\":950:968   */\n      0xffffffffffffffff\n        /* \"#utility.yul\":939:969   */\n      dup2\n      gt\n        /* \"#utility.yul\":936:986   */\n      iszero\n      tag_392\n      jumpi\n        /* \"#utility.yul\":982:983   */\n      0x00\n        /* \"#utility.yul\":979:980   */\n      dup1\n        /* \"#utility.yul\":972:984   */\n      revert\n        /* \"#utility.yul\":936:986   */\n    tag_392:\n        /* \"#utility.yul\":1019:1023   */\n      0x20\n        /* \"#utility.yul\":1011:1017   */\n      dup4\n        /* \"#utility.yul\":1007:1024   */\n      add\n        /* \"#utility.yul\":995:1024   */\n      swap2\n      pop\n        /* \"#utility.yul\":1071:1074   */\n      dup4\n        /* \"#utility.yul\":1064:1068   */\n      0x20\n        /* \"#utility.yul\":1055:1061   */\n      dup3\n        /* \"#utility.yul\":1047:1053   */\n      dup6\n        /* \"#utility.yul\":1043:1062   */\n      add\n        /* \"#utility.yul\":1039:1069   */\n      add\n        /* \"#utility.yul\":1036:1075   */\n      gt\n        /* \"#utility.yul\":1033:1092   */\n      iszero\n      tag_393\n      jumpi\n        /* \"#utility.yul\":1088:1089   */\n      0x00\n        /* \"#utility.yul\":1085:1086   */\n      dup1\n        /* \"#utility.yul\":1078:1090   */\n      revert\n        /* \"#utility.yul\":1033:1092   */\n    tag_393:\n        /* \"#utility.yul\":751:1098   */\n      swap3\n      pop\n      swap3\n      swap1\n      pop\n      jump\t// out\n        /* \"#utility.yul\":1103:2113   */\n    tag_37:\n        /* \"#utility.yul\":1246:1252   */\n      0x00\n        /* \"#utility.yul\":1254:1260   */\n      dup1\n        /* \"#utility.yul\":1262:1268   */\n      0x00\n        /* \"#utility.yul\":1270:1276   */\n      dup1\n        /* \"#utility.yul\":1278:1284   */\n      0x00\n        /* \"#utility.yul\":1331:1333   */\n      0x60\n        /* \"#utility.yul\":1319:1328   */\n      dup7\n        /* \"#utility.yul\":1310:1317   */\n      dup9\n        /* \"#utility.yul\":1306:1329   */\n      sub\n        /* \"#utility.yul\":1302:1334   */\n      slt\n        /* \"#utility.yul\":1299:1351   */\n      iszero\n      tag_395\n      jumpi\n        /* \"#utility.yul\":1347:1348   */\n      0x00\n        /* \"#utility.yul\":1344:1345   */\n      dup1\n        /* \"#utility.yul\":1337:1349   */\n      revert\n        /* \"#utility.yul\":1299:1351   */\n    tag_395:\n        /* \"#utility.yul\":1387:1396   */\n      dup6\n        /* \"#utility.yul\":1374:1397   */\n      calldataload\n        /* \"#utility.yul\":1416:1434   */\n      0xffffffffffffffff\n        /* \"#utility.yul\":1457:1459   */\n      dup1\n        /* \"#utility.yul\":1449:1455   */\n      dup3\n        /* \"#utility.yul\":1446:1460   */\n      gt\n        /* \"#utility.yul\":1443:1477   */\n      iszero\n      tag_396\n      jumpi\n        /* \"#utility.yul\":1473:1474   */\n      0x00\n        /* \"#utility.yul\":1470:1471   */\n      dup1\n        /* \"#utility.yul\":1463:1475   */\n      revert\n        /* \"#utility.yul\":1443:1477   */\n    tag_396:\n        /* \"#utility.yul\":1511:1517   */\n      dup2\n        /* \"#utility.yul\":1500:1509   */\n      dup9\n        /* \"#utility.yul\":1496:1518   */\n      add\n        /* \"#utility.yul\":1486:1518   */\n      swap2\n      pop\n        /* \"#utility.yul\":1556:1563   */\n      dup9\n        /* \"#utility.yul\":1549:1553   */\n      0x1f\n        /* \"#utility.yul\":1545:1547   */\n      dup4\n        /* \"#utility.yul\":1541:1554   */\n      add\n        /* \"#utility.yul\":1537:1564   */\n      slt\n        /* \"#utility.yul\":1527:1582   */\n      tag_397\n      jumpi\n        /* \"#utility.yul\":1578:1579   */\n      0x00\n        /* \"#utility.yul\":1575:1576   */\n      dup1\n        /* \"#utility.yul\":1568:1580   */\n      revert\n        /* \"#utility.yul\":1527:1582   */\n    tag_397:\n        /* \"#utility.yul\":1618:1620   */\n      dup2\n        /* \"#utility.yul\":1605:1621   */\n      calldataload\n        /* \"#utility.yul\":1644:1646   */\n      dup2\n        /* \"#utility.yul\":1636:1642   */\n      dup2\n        /* \"#utility.yul\":1633:1647   */\n      gt\n        /* \"#utility.yul\":1630:1664   */\n      iszero\n      tag_398\n      jumpi\n        /* \"#utility.yul\":1660:1661   */\n      0x00\n        /* \"#utility.yul\":1657:1658   */\n      dup1\n        /* \"#utility.yul\":1650:1662   */\n      revert\n        /* \"#utility.yul\":1630:1664   */\n    tag_398:\n        /* \"#utility.yul\":1715:1722   */\n      dup10\n        /* \"#utility.yul\":1708:1712   */\n      0x20\n        /* \"#utility.yul\":1698:1704   */\n      dup3\n        /* \"#utility.yul\":1695:1696   */\n      0x05\n        /* \"#utility.yul\":1691:1705   */\n      shl\n        /* \"#utility.yul\":1687:1689   */\n      dup6\n        /* \"#utility.yul\":1683:1706   */\n      add\n        /* \"#utility.yul\":1679:1713   */\n      add\n        /* \"#utility.yul\":1676:1723   */\n      gt\n        /* \"#utility.yul\":1673:1740   */\n      iszero\n      tag_399\n      jumpi\n        /* \"#utility.yul\":1736:1737   */\n      0x00\n        /* \"#utility.yul\":1733:1734   */\n      dup1\n        /* \"#utility.yul\":1726:1738   */\n      revert\n        /* \"#utility.yul\":1673:1740   */\n    tag_399:\n        /* \"#utility.yul\":1767:1771   */\n      0x20\n        /* \"#utility.yul\":1763:1765   */\n      dup4\n        /* \"#utility.yul\":1759:1772   */\n      add\n        /* \"#utility.yul\":1749:1772   */\n      swap8\n      pop\n        /* \"#utility.yul\":1791:1797   */\n      dup1\n        /* \"#utility.yul\":1781:1797   */\n      swap7\n      pop\n      pop\n        /* \"#utility.yul\":1816:1856   */\n      tag_400\n        /* \"#utility.yul\":1850:1854   */\n      0x20\n        /* \"#utility.yul\":1839:1848   */\n      dup10\n        /* \"#utility.yul\":1835:1855   */\n      add\n        /* \"#utility.yul\":1816:1856   */\n      tag_371\n      jump\t// in\n    tag_400:\n        /* \"#utility.yul\":1806:1856   */\n      swap5\n      pop\n        /* \"#utility.yul\":1909:1911   */\n      0x40\n        /* \"#utility.yul\":1898:1907   */\n      dup9\n        /* \"#utility.yul\":1894:1912   */\n      add\n        /* \"#utility.yul\":1881:1913   */\n      calldataload\n        /* \"#utility.yul\":1865:1913   */\n      swap2\n      pop\n        /* \"#utility.yul\":1938:1940   */\n      dup1\n        /* \"#utility.yul\":1928:1936   */\n      dup3\n        /* \"#utility.yul\":1925:1941   */\n      gt\n        /* \"#utility.yul\":1922:1958   */\n      iszero\n      tag_401\n      jumpi\n        /* \"#utility.yul\":1954:1955   */\n      0x00\n        /* \"#utility.yul\":1951:1952   */\n      dup1\n        /* \"#utility.yul\":1944:1956   */\n      revert\n        /* \"#utility.yul\":1922:1958   */\n    tag_401:\n      pop\n        /* \"#utility.yul\":1993:2053   */\n      tag_402\n        /* \"#utility.yul\":2045:2052   */\n      dup9\n        /* \"#utility.yul\":2034:2042   */\n      dup3\n        /* \"#utility.yul\":2023:2032   */\n      dup10\n        /* \"#utility.yul\":2019:2043   */\n      add\n        /* \"#utility.yul\":1993:2053   */\n      tag_372\n      jump\t// in\n    tag_402:\n        /* \"#utility.yul\":1103:2113   */\n      swap7\n      swap10\n      swap6\n      swap9\n      pop\n      swap4\n      swap7\n      pop\n        /* \"#utility.yul\":2072:2080   */\n      swap3\n      swap5\n        /* \"#utility.yul\":1967:2053   */\n      swap4\n        /* \"#utility.yul\":1103:2113   */\n      swap3\n      pop\n      pop\n      pop\n      jump\t// out\n        /* \"#utility.yul\":2435:3093   */\n    tag_48:\n        /* \"#utility.yul\":2606:2608   */\n      0x20\n        /* \"#utility.yul\":2658:2679   */\n      dup1\n      dup3\n      mstore\n        /* \"#utility.yul\":2728:2741   */\n      dup3\n      mload\n        /* \"#utility.yul\":2631:2649   */\n      dup3\n      dup3\n      add\n        /* \"#utility.yul\":2750:2772   */\n      dup2\n      swap1\n      mstore\n        /* \"#utility.yul\":2577:2581   */\n      0x00\n      swap2\n        /* \"#utility.yul\":2606:2608   */\n      swap1\n        /* \"#utility.yul\":2829:2844   */\n      dup5\n      dup3\n      add\n      swap1\n        /* \"#utility.yul\":2803:2805   */\n      0x40\n        /* \"#utility.yul\":2788:2806   */\n      dup6\n      add\n      swap1\n        /* \"#utility.yul\":2577:2581   */\n      dup5\n        /* \"#utility.yul\":2872:3067   */\n    tag_406:\n        /* \"#utility.yul\":2886:2892   */\n      dup2\n        /* \"#utility.yul\":2883:2884   */\n      dup2\n        /* \"#utility.yul\":2880:2893   */\n      lt\n        /* \"#utility.yul\":2872:3067   */\n      iszero\n      tag_408\n      jumpi\n        /* \"#utility.yul\":2951:2964   */\n      dup4\n      mload\n      sub(shl(0xa0, 0x01), 0x01)\n        /* \"#utility.yul\":2947:2986   */\n      and\n        /* \"#utility.yul\":2935:2987   */\n      dup4\n      mstore\n        /* \"#utility.yul\":3042:3057   */\n      swap3\n      dup5\n      add\n      swap3\n        /* \"#utility.yul\":3007:3019   */\n      swap2\n      dup5\n      add\n      swap2\n        /* \"#utility.yul\":2983:2984   */\n      0x01\n        /* \"#utility.yul\":2901:2910   */\n      add\n        /* \"#utility.yul\":2872:3067   */\n      jump(tag_406)\n    tag_408:\n      pop\n        /* \"#utility.yul\":3084:3087   */\n      swap1\n      swap7\n        /* \"#utility.yul\":2435:3093   */\n      swap6\n      pop\n      pop\n      pop\n      pop\n      pop\n      pop\n      jump\t// out\n        /* \"#utility.yul\":3098:3559   */\n    tag_374:\n        /* \"#utility.yul\":3150:3153   */\n      0x00\n        /* \"#utility.yul\":3188:3193   */\n      dup2\n        /* \"#utility.yul\":3182:3194   */\n      mload\n        /* \"#utility.yul\":3215:3221   */\n      dup1\n        /* \"#utility.yul\":3210:3213   */\n      dup5\n        /* \"#utility.yul\":3203:3222   */\n      mstore\n        /* \"#utility.yul\":3241:3245   */\n      0x20\n        /* \"#utility.yul\":3270:3272   */\n      dup1\n        /* \"#utility.yul\":3265:3268   */\n      dup6\n        /* \"#utility.yul\":3261:3273   */\n      add\n        /* \"#utility.yul\":3254:3273   */\n      swap5\n      pop\n        /* \"#utility.yul\":3307:3309   */\n      dup1\n        /* \"#utility.yul\":3300:3305   */\n      dup5\n        /* \"#utility.yul\":3296:3310   */\n      add\n        /* \"#utility.yul\":3328:3329   */\n      0x00\n        /* \"#utility.yul\":3338:3534   */\n    tag_410:\n        /* \"#utility.yul\":3352:3358   */\n      dup4\n        /* \"#utility.yul\":3349:3350   */\n      dup2\n        /* \"#utility.yul\":3346:3359   */\n      lt\n        /* \"#utility.yul\":3338:3534   */\n      iszero\n      tag_412\n      jumpi\n        /* \"#utility.yul\":3417:3430   */\n      dup2\n      mload\n      not(sub(shl(0xe0, 0x01), 0x01))\n        /* \"#utility.yul\":3413:3453   */\n      and\n        /* \"#utility.yul\":3401:3454   */\n      dup8\n      mstore\n        /* \"#utility.yul\":3474:3486   */\n      swap6\n      dup3\n      add\n      swap6\n        /* \"#utility.yul\":3509:3524   */\n      swap1\n      dup3\n      add\n      swap1\n        /* \"#utility.yul\":3374:3375   */\n      0x01\n        /* \"#utility.yul\":3367:3376   */\n      add\n        /* \"#utility.yul\":3338:3534   */\n      jump(tag_410)\n    tag_412:\n      pop\n        /* \"#utility.yul\":3550:3553   */\n      swap5\n      swap6\n        /* \"#utility.yul\":3098:3559   */\n      swap5\n      pop\n      pop\n      pop\n      pop\n      pop\n      jump\t// out\n        /* \"#utility.yul\":3564:4623   */\n    tag_56:\n        /* \"#utility.yul\":3752:3756   */\n      0x00\n        /* \"#utility.yul\":3781:3783   */\n      0x20\n        /* \"#utility.yul\":3821:3823   */\n      dup1\n        /* \"#utility.yul\":3810:3819   */\n      dup4\n        /* \"#utility.yul\":3806:3824   */\n      add\n        /* \"#utility.yul\":3851:3853   */\n      dup2\n        /* \"#utility.yul\":3840:3849   */\n      dup5\n        /* \"#utility.yul\":3833:3854   */\n      mstore\n        /* \"#utility.yul\":3874:3880   */\n      dup1\n        /* \"#utility.yul\":3909:3915   */\n      dup6\n        /* \"#utility.yul\":3903:3916   */\n      mload\n        /* \"#utility.yul\":3940:3946   */\n      dup1\n        /* \"#utility.yul\":3932:3938   */\n      dup4\n        /* \"#utility.yul\":3925:3947   */\n      mstore\n        /* \"#utility.yul\":3966:3968   */\n      0x40\n        /* \"#utility.yul\":3956:3968   */\n      swap3\n      pop\n        /* \"#utility.yul\":3999:4001   */\n      dup3\n        /* \"#utility.yul\":3988:3997   */\n      dup7\n        /* \"#utility.yul\":3984:4002   */\n      add\n        /* \"#utility.yul\":3977:4002   */\n      swap2\n      pop\n        /* \"#utility.yul\":4061:4063   */\n      dup3\n        /* \"#utility.yul\":4051:4057   */\n      dup2\n        /* \"#utility.yul\":4048:4049   */\n      0x05\n        /* \"#utility.yul\":4044:4058   */\n      shl\n        /* \"#utility.yul\":4033:4042   */\n      dup8\n        /* \"#utility.yul\":4029:4059   */\n      add\n        /* \"#utility.yul\":4025:4064   */\n      add\n        /* \"#utility.yul\":4099:4101   */\n      dup5\n        /* \"#utility.yul\":4091:4097   */\n      dup9\n        /* \"#utility.yul\":4087:4102   */\n      add\n        /* \"#utility.yul\":4120:4121   */\n      0x00\n        /* \"#utility.yul\":4130:4594   */\n    tag_414:\n        /* \"#utility.yul\":4144:4150   */\n      dup4\n        /* \"#utility.yul\":4141:4142   */\n      dup2\n        /* \"#utility.yul\":4138:4151   */\n      lt\n        /* \"#utility.yul\":4130:4594   */\n      iszero\n      tag_416\n      jumpi\n        /* \"#utility.yul\":4209:4231   */\n      dup9\n      dup4\n      sub\n      not(0x3f)\n        /* \"#utility.yul\":4205:4241   */\n      add\n        /* \"#utility.yul\":4193:4242   */\n      dup6\n      mstore\n        /* \"#utility.yul\":4265:4278   */\n      dup2\n      mload\n        /* \"#utility.yul\":4310:4319   */\n      dup1\n      mload\n      sub(shl(0xa0, 0x01), 0x01)\n        /* \"#utility.yul\":4306:4341   */\n      and\n        /* \"#utility.yul\":4291:4342   */\n      dup5\n      mstore\n        /* \"#utility.yul\":4381:4392   */\n      dup8\n      add\n        /* \"#utility.yul\":4375:4393   */\n      mload\n        /* \"#utility.yul\":4413:4428   */\n      dup8\n      dup5\n      add\n        /* \"#utility.yul\":4406:4433   */\n      dup8\n      swap1\n      mstore\n        /* \"#utility.yul\":4456:4514   */\n      tag_417\n        /* \"#utility.yul\":4498:4513   */\n      dup8\n      dup6\n      add\n        /* \"#utility.yul\":4375:4393   */\n      dup3\n        /* \"#utility.yul\":4456:4514   */\n      tag_374\n      jump\t// in\n    tag_417:\n        /* \"#utility.yul\":4572:4584   */\n      swap6\n      dup9\n      add\n      swap6\n        /* \"#utility.yul\":4446:4514   */\n      swap4\n      pop\n      pop\n        /* \"#utility.yul\":4537:4552   */\n      swap1\n      dup7\n      add\n      swap1\n        /* \"#utility.yul\":4166:4167   */\n      0x01\n        /* \"#utility.yul\":4159:4168   */\n      add\n        /* \"#utility.yul\":4130:4594   */\n      jump(tag_414)\n    tag_416:\n      pop\n        /* \"#utility.yul\":4611:4617   */\n      swap1\n      swap9\n        /* \"#utility.yul\":3564:4623   */\n      swap8\n      pop\n      pop\n      pop\n      pop\n      pop\n      pop\n      pop\n      pop\n      jump\t// out\n        /* \"#utility.yul\":4628:4814   */\n    tag_68:\n        /* \"#utility.yul\":4687:4693   */\n      0x00\n        /* \"#utility.yul\":4740:4742   */\n      0x20\n        /* \"#utility.yul\":4728:4737   */\n      dup3\n        /* \"#utility.yul\":4719:4726   */\n      dup5\n        /* \"#utility.yul\":4715:4738   */\n      sub\n        /* \"#utility.yul\":4711:4743   */\n      slt\n        /* \"#utility.yul\":4708:4760   */\n      iszero\n      tag_419\n      jumpi\n        /* \"#utility.yul\":4756:4757   */\n      0x00\n        /* \"#utility.yul\":4753:4754   */\n      dup1\n        /* \"#utility.yul\":4746:4758   */\n      revert\n        /* \"#utility.yul\":4708:4760   */\n    tag_419:\n        /* \"#utility.yul\":4779:4808   */\n      tag_386\n        /* \"#utility.yul\":4798:4807   */\n      dup3\n        /* \"#utility.yul\":4779:4808   */\n      tag_371\n      jump\t// in\n        /* \"#utility.yul\":4819:5476   */\n    tag_75:\n        /* \"#utility.yul\":4988:4990   */\n      0x20\n        /* \"#utility.yul\":5040:5061   */\n      dup1\n      dup3\n      mstore\n        /* \"#utility.yul\":5110:5123   */\n      dup3\n      mload\n        /* \"#utility.yul\":5013:5031   */\n      dup3\n      dup3\n      add\n        /* \"#utility.yul\":5132:5154   */\n      dup2\n      swap1\n      mstore\n        /* \"#utility.yul\":4959:4963   */\n      0x00\n      swap2\n        /* \"#utility.yul\":4988:4990   */\n      swap1\n        /* \"#utility.yul\":5211:5226   */\n      dup5\n      dup3\n      add\n      swap1\n        /* \"#utility.yul\":5185:5187   */\n      0x40\n        /* \"#utility.yul\":5170:5188   */\n      dup6\n      add\n      swap1\n        /* \"#utility.yul\":4959:4963   */\n      dup5\n        /* \"#utility.yul\":5254:5450   */\n    tag_422:\n        /* \"#utility.yul\":5268:5274   */\n      dup2\n        /* \"#utility.yul\":5265:5266   */\n      dup2\n        /* \"#utility.yul\":5262:5275   */\n      lt\n        /* \"#utility.yul\":5254:5450   */\n      iszero\n      tag_408\n      jumpi\n        /* \"#utility.yul\":5333:5346   */\n      dup4\n      mload\n      not(sub(shl(0xe0, 0x01), 0x01))\n        /* \"#utility.yul\":5329:5369   */\n      and\n        /* \"#utility.yul\":5317:5370   */\n      dup4\n      mstore\n        /* \"#utility.yul\":5425:5440   */\n      swap3\n      dup5\n      add\n      swap3\n        /* \"#utility.yul\":5390:5402   */\n      swap2\n      dup5\n      add\n      swap2\n        /* \"#utility.yul\":5290:5291   */\n      0x01\n        /* \"#utility.yul\":5283:5292   */\n      add\n        /* \"#utility.yul\":5254:5450   */\n      jump(tag_422)\n        /* \"#utility.yul\":5481:5608   */\n    tag_109:\n        /* \"#utility.yul\":5542:5552   */\n      0x4e487b71\n        /* \"#utility.yul\":5537:5540   */\n      0xe0\n        /* \"#utility.yul\":5533:5553   */\n      shl\n        /* \"#utility.yul\":5530:5531   */\n      0x00\n        /* \"#utility.yul\":5523:5554   */\n      mstore\n        /* \"#utility.yul\":5573:5577   */\n      0x41\n        /* \"#utility.yul\":5570:5571   */\n      0x04\n        /* \"#utility.yul\":5563:5578   */\n      mstore\n        /* \"#utility.yul\":5597:5601   */\n      0x24\n        /* \"#utility.yul\":5594:5595   */\n      0x00\n        /* \"#utility.yul\":5587:5602   */\n      revert\n        /* \"#utility.yul\":5613:5866   */\n    tag_375:\n        /* \"#utility.yul\":5685:5687   */\n      0x40\n        /* \"#utility.yul\":5679:5688   */\n      mload\n        /* \"#utility.yul\":5727:5731   */\n      0x60\n        /* \"#utility.yul\":5715:5732   */\n      dup2\n      add\n        /* \"#utility.yul\":5762:5780   */\n      0xffffffffffffffff\n        /* \"#utility.yul\":5747:5781   */\n      dup2\n      gt\n        /* \"#utility.yul\":5783:5805   */\n      dup3\n      dup3\n      lt\n        /* \"#utility.yul\":5744:5806   */\n      or\n        /* \"#utility.yul\":5741:5829   */\n      iszero\n      tag_428\n      jumpi\n        /* \"#utility.yul\":5809:5827   */\n      tag_428\n      tag_109\n      jump\t// in\n    tag_428:\n        /* \"#utility.yul\":5845:5847   */\n      0x40\n        /* \"#utility.yul\":5838:5860   */\n      mstore\n        /* \"#utility.yul\":5613:5866   */\n      swap1\n      jump\t// out\n        /* \"#utility.yul\":5871:6146   */\n    tag_376:\n        /* \"#utility.yul\":5942:5944   */\n      0x40\n        /* \"#utility.yul\":5936:5945   */\n      mload\n        /* \"#utility.yul\":6007:6009   */\n      0x1f\n        /* \"#utility.yul\":5988:6001   */\n      dup3\n      add\n      not(0x1f)\n        /* \"#utility.yul\":5984:6011   */\n      and\n        /* \"#utility.yul\":5972:6012   */\n      dup2\n      add\n        /* \"#utility.yul\":6042:6060   */\n      0xffffffffffffffff\n        /* \"#utility.yul\":6027:6061   */\n      dup2\n      gt\n        /* \"#utility.yul\":6063:6085   */\n      dup3\n      dup3\n      lt\n        /* \"#utility.yul\":6024:6086   */\n      or\n        /* \"#utility.yul\":6021:6109   */\n      iszero\n      tag_431\n      jumpi\n        /* \"#utility.yul\":6089:6107   */\n      tag_431\n      tag_109\n      jump\t// in\n    tag_431:\n        /* \"#utility.yul\":6125:6127   */\n      0x40\n        /* \"#utility.yul\":6118:6140   */\n      mstore\n        /* \"#utility.yul\":5871:6146   */\n      swap2\n      swap1\n      pop\n      jump\t// out\n        /* \"#utility.yul\":6151:6342   */\n    tag_377:\n        /* \"#utility.yul\":6219:6223   */\n      0x00\n        /* \"#utility.yul\":6252:6270   */\n      0xffffffffffffffff\n        /* \"#utility.yul\":6244:6250   */\n      dup3\n        /* \"#utility.yul\":6241:6271   */\n      gt\n        /* \"#utility.yul\":6238:6294   */\n      iszero\n      tag_434\n      jumpi\n        /* \"#utility.yul\":6274:6292   */\n      tag_434\n      tag_109\n      jump\t// in\n    tag_434:\n      pop\n        /* \"#utility.yul\":6319:6320   */\n      0x05\n        /* \"#utility.yul\":6315:6329   */\n      shl\n        /* \"#utility.yul\":6331:6335   */\n      0x20\n        /* \"#utility.yul\":6311:6336   */\n      add\n      swap1\n        /* \"#utility.yul\":6151:6342   */\n      jump\t// out\n        /* \"#utility.yul\":6347:8857   */\n    tag_99:\n        /* \"#utility.yul\":6517:6526   */\n      0x00\n        /* \"#utility.yul\":6552:6624   */\n      tag_436\n        /* \"#utility.yul\":6568:6623   */\n      tag_437\n        /* \"#utility.yul\":6616:6622   */\n      dup5\n        /* \"#utility.yul\":6568:6623   */\n      tag_377\n      jump\t// in\n    tag_437:\n        /* \"#utility.yul\":6552:6624   */\n      tag_376\n      jump\t// in\n    tag_436:\n        /* \"#utility.yul\":6658:6677   */\n      dup4\n      dup2\n      mstore\n        /* \"#utility.yul\":6696:6700   */\n      0x20\n        /* \"#utility.yul\":6716:6728   */\n      dup1\n      dup3\n      add\n      swap2\n        /* \"#utility.yul\":6646:6649   */\n      swap1\n        /* \"#utility.yul\":6747:6748   */\n      0x05\n        /* \"#utility.yul\":6782:6797   */\n      dup7\n      dup2\n      shl\n        /* \"#utility.yul\":6771:6798   */\n      dup7\n      add\n        /* \"#utility.yul\":6821:6835   */\n      calldatasize\n        /* \"#utility.yul\":6810:6836   */\n      dup2\n      gt\n        /* \"#utility.yul\":6807:6853   */\n      iszero\n      tag_438\n      jumpi\n        /* \"#utility.yul\":6849:6850   */\n      0x00\n        /* \"#utility.yul\":6846:6847   */\n      dup1\n        /* \"#utility.yul\":6839:6851   */\n      revert\n        /* \"#utility.yul\":6807:6853   */\n    tag_438:\n        /* \"#utility.yul\":6873:6878   */\n      dup7\n        /* \"#utility.yul\":6887:8824   */\n    tag_439:\n        /* \"#utility.yul\":6903:6909   */\n      dup2\n        /* \"#utility.yul\":6898:6901   */\n      dup2\n        /* \"#utility.yul\":6895:6910   */\n      lt\n        /* \"#utility.yul\":6887:8824   */\n      iszero\n      tag_441\n      jumpi\n        /* \"#utility.yul\":6989:6992   */\n      dup1\n        /* \"#utility.yul\":6976:6993   */\n      calldataload\n        /* \"#utility.yul\":7016:7034   */\n      0xffffffffffffffff\n        /* \"#utility.yul\":7066:7068   */\n      dup1\n        /* \"#utility.yul\":7053:7064   */\n      dup3\n        /* \"#utility.yul\":7050:7069   */\n      gt\n        /* \"#utility.yul\":7047:7156   */\n      iszero\n      tag_442\n      jumpi\n        /* \"#utility.yul\":7110:7111   */\n      0x00\n        /* \"#utility.yul\":7139:7141   */\n      dup1\n        /* \"#utility.yul\":7135:7137   */\n      dup2\n        /* \"#utility.yul\":7128:7142   */\n      revert\n        /* \"#utility.yul\":7047:7156   */\n    tag_442:\n        /* \"#utility.yul\":7190:7201   */\n      dup2\n        /* \"#utility.yul\":7183:7188   */\n      dup11\n        /* \"#utility.yul\":7179:7202   */\n      add\n        /* \"#utility.yul\":7169:7202   */\n      swap2\n      pop\n        /* \"#utility.yul\":7247:7251   */\n      0x60\n        /* \"#utility.yul\":7242:7244   */\n      dup3\n        /* \"#utility.yul\":7226:7240   */\n      calldatasize\n        /* \"#utility.yul\":7222:7245   */\n      sub\n        /* \"#utility.yul\":7218:7252   */\n      slt\n        /* \"#utility.yul\":7215:7339   */\n      iszero\n      tag_443\n      jumpi\n        /* \"#utility.yul\":7293:7294   */\n      0x00\n        /* \"#utility.yul\":7322:7324   */\n      dup1\n        /* \"#utility.yul\":7318:7320   */\n      dup2\n        /* \"#utility.yul\":7311:7325   */\n      revert\n        /* \"#utility.yul\":7215:7339   */\n    tag_443:\n        /* \"#utility.yul\":7367:7389   */\n      tag_444\n      tag_375\n      jump\t// in\n    tag_444:\n        /* \"#utility.yul\":7418:7440   */\n      tag_445\n        /* \"#utility.yul\":7437:7439   */\n      dup4\n        /* \"#utility.yul\":7418:7440   */\n      tag_371\n      jump\t// in\n    tag_445:\n        /* \"#utility.yul\":7409:7416   */\n      dup2\n        /* \"#utility.yul\":7402:7441   */\n      mstore\n        /* \"#utility.yul\":7490:7492   */\n      dup7\n        /* \"#utility.yul\":7486:7488   */\n      dup4\n        /* \"#utility.yul\":7482:7493   */\n      add\n        /* \"#utility.yul\":7469:7494   */\n      calldataload\n        /* \"#utility.yul\":7529:7530   */\n      0x03\n        /* \"#utility.yul\":7520:7527   */\n      dup2\n        /* \"#utility.yul\":7517:7531   */\n      lt\n        /* \"#utility.yul\":7507:7619   */\n      tag_446\n      jumpi\n        /* \"#utility.yul\":7573:7574   */\n      0x00\n        /* \"#utility.yul\":7602:7604   */\n      dup1\n        /* \"#utility.yul\":7598:7600   */\n      dup2\n        /* \"#utility.yul\":7591:7605   */\n      revert\n        /* \"#utility.yul\":7507:7619   */\n    tag_446:\n        /* \"#utility.yul\":7639:7655   */\n      dup2\n      dup9\n      add\n        /* \"#utility.yul\":7632:7665   */\n      mstore\n        /* \"#utility.yul\":7688:7690   */\n      0x40\n        /* \"#utility.yul\":7730:7741   */\n      dup4\n      dup2\n      add\n        /* \"#utility.yul\":7717:7742   */\n      calldataload\n        /* \"#utility.yul\":7758:7772   */\n      dup4\n      dup2\n      gt\n        /* \"#utility.yul\":7755:7859   */\n      iszero\n      tag_447\n      jumpi\n        /* \"#utility.yul\":7813:7814   */\n      0x00\n        /* \"#utility.yul\":7842:7844   */\n      dup1\n        /* \"#utility.yul\":7838:7840   */\n      dup2\n        /* \"#utility.yul\":7831:7845   */\n      revert\n        /* \"#utility.yul\":7755:7859   */\n    tag_447:\n        /* \"#utility.yul\":7883:7898   */\n      swap4\n      swap1\n      swap4\n      add\n      swap3\n        /* \"#utility.yul\":7941:7955   */\n      calldatasize\n        /* \"#utility.yul\":7934:7938   */\n      0x1f\n        /* \"#utility.yul\":7925:7939   */\n      dup6\n      add\n        /* \"#utility.yul\":7921:7956   */\n      slt\n        /* \"#utility.yul\":7911:8047   */\n      tag_448\n      jumpi\n        /* \"#utility.yul\":7999:8000   */\n      0x00\n        /* \"#utility.yul\":7988:8000   */\n      swap3\n      pop\n        /* \"#utility.yul\":8029:8032   */\n      dup3\n        /* \"#utility.yul\":8024:8027   */\n      dup4\n        /* \"#utility.yul\":8017:8033   */\n      revert\n        /* \"#utility.yul\":7911:8047   */\n    tag_448:\n        /* \"#utility.yul\":8084:8087   */\n      dup4\n        /* \"#utility.yul\":8071:8088   */\n      calldataload\n        /* \"#utility.yul\":8060:8088   */\n      swap3\n      pop\n        /* \"#utility.yul\":8114:8183   */\n      tag_449\n        /* \"#utility.yul\":8130:8182   */\n      tag_437\n        /* \"#utility.yul\":8178:8181   */\n      dup5\n        /* \"#utility.yul\":8130:8182   */\n      tag_377\n      jump\t// in\n        /* \"#utility.yul\":8114:8183   */\n    tag_449:\n        /* \"#utility.yul\":8227:8245   */\n      dup4\n      dup2\n      mstore\n        /* \"#utility.yul\":8323:8335   */\n      swap3\n      dup8\n      shl\n        /* \"#utility.yul\":8314:8336   */\n      dup5\n      add\n        /* \"#utility.yul\":8310:8341   */\n      dup9\n      add\n      swap3\n        /* \"#utility.yul\":8267:8281   */\n      dup9\n      dup2\n      add\n      swap1\n        /* \"#utility.yul\":8370:8384   */\n      calldatasize\n        /* \"#utility.yul\":8357:8385   */\n      dup6\n      gt\n        /* \"#utility.yul\":8354:8475   */\n      iszero\n      tag_451\n      jumpi\n        /* \"#utility.yul\":8427:8428   */\n      0x00\n        /* \"#utility.yul\":8457:8460   */\n      dup1\n        /* \"#utility.yul\":8452:8455   */\n      dup2\n        /* \"#utility.yul\":8445:8461   */\n      revert\n        /* \"#utility.yul\":8354:8475   */\n    tag_451:\n        /* \"#utility.yul\":8501:8513   */\n      swap5\n      dup10\n      add\n      swap5\n        /* \"#utility.yul\":8526:8705   */\n    tag_452:\n        /* \"#utility.yul\":8544:8552   */\n      dup5\n        /* \"#utility.yul\":8537:8542   */\n      dup7\n        /* \"#utility.yul\":8534:8553   */\n      lt\n        /* \"#utility.yul\":8526:8705   */\n      iszero\n      tag_454\n      jumpi\n        /* \"#utility.yul\":8626:8650   */\n      tag_455\n        /* \"#utility.yul\":8644:8649   */\n      dup7\n        /* \"#utility.yul\":8626:8650   */\n      tag_370\n      jump\t// in\n    tag_455:\n        /* \"#utility.yul\":8612:8651   */\n      dup3\n      mstore\n        /* \"#utility.yul\":8565:8579   */\n      swap5\n      dup10\n      add\n      swap5\n        /* \"#utility.yul\":8677:8691   */\n      swap1\n      dup10\n      add\n      swap1\n        /* \"#utility.yul\":8526:8705   */\n      jump(tag_452)\n    tag_454:\n        /* \"#utility.yul\":8725:8741   */\n      swap2\n      dup4\n      add\n        /* \"#utility.yul\":8718:8749   */\n      swap2\n      swap1\n      swap2\n      mstore\n      pop\n        /* \"#utility.yul\":8762:8782   */\n      dup9\n      mstore\n      pop\n      pop\n        /* \"#utility.yul\":8802:8814   */\n      swap5\n      dup4\n      add\n      swap5\n        /* \"#utility.yul\":6920:6932   */\n      dup4\n      add\n        /* \"#utility.yul\":6887:8824   */\n      jump(tag_439)\n    tag_441:\n      pop\n        /* \"#utility.yul\":8846:8851   */\n      swap3\n      swap8\n        /* \"#utility.yul\":6347:8857   */\n      swap7\n      pop\n      pop\n      pop\n      pop\n      pop\n      pop\n      pop\n      jump\t// out\n        /* \"#utility.yul\":8862:8989   */\n    tag_378:\n        /* \"#utility.yul\":8923:8933   */\n      0x4e487b71\n        /* \"#utility.yul\":8918:8921   */\n      0xe0\n        /* \"#utility.yul\":8914:8934   */\n      shl\n        /* \"#utility.yul\":8911:8912   */\n      0x00\n        /* \"#utility.yul\":8904:8935   */\n      mstore\n        /* \"#utility.yul\":8954:8958   */\n      0x11\n        /* \"#utility.yul\":8951:8952   */\n      0x04\n        /* \"#utility.yul\":8944:8959   */\n      mstore\n        /* \"#utility.yul\":8978:8982   */\n      0x24\n        /* \"#utility.yul\":8975:8976   */\n      0x00\n        /* \"#utility.yul\":8968:8983   */\n      revert\n        /* \"#utility.yul\":8994:9129   */\n    tag_118:\n        /* \"#utility.yul\":9033:9036   */\n      0x00\n        /* \"#utility.yul\":9054:9071   */\n      0x01\n      dup3\n      add\n        /* \"#utility.yul\":9051:9094   */\n      tag_459\n      jumpi\n        /* \"#utility.yul\":9074:9092   */\n      tag_459\n      tag_378\n      jump\t// in\n    tag_459:\n      pop\n        /* \"#utility.yul\":9121:9122   */\n      0x01\n        /* \"#utility.yul\":9110:9123   */\n      add\n      swap1\n        /* \"#utility.yul\":8994:9129   */\n      jump\t// out\n        /* \"#utility.yul\":9134:9261   */\n    tag_125:\n        /* \"#utility.yul\":9195:9205   */\n      0x4e487b71\n        /* \"#utility.yul\":9190:9193   */\n      0xe0\n        /* \"#utility.yul\":9186:9206   */\n      shl\n        /* \"#utility.yul\":9183:9184   */\n      0x00\n        /* \"#utility.yul\":9176:9207   */\n      mstore\n        /* \"#utility.yul\":9226:9230   */\n      0x32\n        /* \"#utility.yul\":9223:9224   */\n      0x04\n        /* \"#utility.yul\":9216:9231   */\n      mstore\n        /* \"#utility.yul\":9250:9254   */\n      0x24\n        /* \"#utility.yul\":9247:9248   */\n      0x00\n        /* \"#utility.yul\":9240:9255   */\n      revert\n        /* \"#utility.yul\":9266:9441   */\n    tag_178:\n        /* \"#utility.yul\":9303:9306   */\n      0x00\n        /* \"#utility.yul\":9347:9351   */\n      0xff\n        /* \"#utility.yul\":9340:9345   */\n      dup3\n        /* \"#utility.yul\":9336:9352   */\n      and\n        /* \"#utility.yul\":9376:9380   */\n      0xff\n        /* \"#utility.yul\":9367:9374   */\n      dup2\n        /* \"#utility.yul\":9364:9381   */\n      sub\n        /* \"#utility.yul\":9361:9404   */\n      tag_463\n      jumpi\n        /* \"#utility.yul\":9384:9402   */\n      tag_463\n      tag_378\n      jump\t// in\n    tag_463:\n        /* \"#utility.yul\":9433:9434   */\n      0x01\n        /* \"#utility.yul\":9420:9435   */\n      add\n      swap3\n        /* \"#utility.yul\":9266:9441   */\n      swap2\n      pop\n      pop\n      jump\t// out\n        /* \"#utility.yul\":9446:9573   */\n    tag_264:\n        /* \"#utility.yul\":9507:9517   */\n      0x4e487b71\n        /* \"#utility.yul\":9502:9505   */\n      0xe0\n        /* \"#utility.yul\":9498:9518   */\n      shl\n        /* \"#utility.yul\":9495:9496   */\n      0x00\n        /* \"#utility.yul\":9488:9519   */\n      mstore\n        /* \"#utility.yul\":9538:9542   */\n      0x21\n        /* \"#utility.yul\":9535:9536   */\n      0x04\n        /* \"#utility.yul\":9528:9543   */\n      mstore\n        /* \"#utility.yul\":9562:9566   */\n      0x24\n        /* \"#utility.yul\":9559:9560   */\n      0x00\n        /* \"#utility.yul\":9552:9567   */\n      revert\n        /* \"#utility.yul\":9578:9828   */\n    tag_379:\n        /* \"#utility.yul\":9663:9664   */\n      0x00\n        /* \"#utility.yul\":9673:9786   */\n    tag_466:\n        /* \"#utility.yul\":9687:9693   */\n      dup4\n        /* \"#utility.yul\":9684:9685   */\n      dup2\n        /* \"#utility.yul\":9681:9694   */\n      lt\n        /* \"#utility.yul\":9673:9786   */\n      iszero\n      tag_468\n      jumpi\n        /* \"#utility.yul\":9763:9774   */\n      dup2\n      dup2\n      add\n        /* \"#utility.yul\":9757:9775   */\n      mload\n        /* \"#utility.yul\":9744:9755   */\n      dup4\n      dup3\n      add\n        /* \"#utility.yul\":9737:9776   */\n      mstore\n        /* \"#utility.yul\":9709:9711   */\n      0x20\n        /* \"#utility.yul\":9702:9712   */\n      add\n        /* \"#utility.yul\":9673:9786   */\n      jump(tag_466)\n    tag_468:\n      pop\n      pop\n        /* \"#utility.yul\":9820:9821   */\n      0x00\n        /* \"#utility.yul\":9802:9818   */\n      swap2\n      add\n        /* \"#utility.yul\":9795:9822   */\n      mstore\n        /* \"#utility.yul\":9578:9828   */\n      jump\t// out\n        /* \"#utility.yul\":9833:10103   */\n    tag_380:\n        /* \"#utility.yul\":9874:9877   */\n      0x00\n        /* \"#utility.yul\":9912:9917   */\n      dup2\n        /* \"#utility.yul\":9906:9918   */\n      mload\n        /* \"#utility.yul\":9939:9945   */\n      dup1\n        /* \"#utility.yul\":9934:9937   */\n      dup5\n        /* \"#utility.yul\":9927:9946   */\n      mstore\n        /* \"#utility.yul\":9955:10031   */\n      tag_470\n        /* \"#utility.yul\":10024:10030   */\n      dup2\n        /* \"#utility.yul\":10017:10021   */\n      0x20\n        /* \"#utility.yul\":10012:10015   */\n      dup7\n        /* \"#utility.yul\":10008:10022   */\n      add\n        /* \"#utility.yul\":10001:10005   */\n      0x20\n        /* \"#utility.yul\":9994:9999   */\n      dup7\n        /* \"#utility.yul\":9990:10006   */\n      add\n        /* \"#utility.yul\":9955:10031   */\n      tag_379\n      jump\t// in\n    tag_470:\n        /* \"#utility.yul\":10085:10087   */\n      0x1f\n        /* \"#utility.yul\":10064:10079   */\n      add\n      not(0x1f)\n        /* \"#utility.yul\":10060:10089   */\n      and\n        /* \"#utility.yul\":10051:10090   */\n      swap3\n      swap1\n      swap3\n      add\n        /* \"#utility.yul\":10092:10096   */\n      0x20\n        /* \"#utility.yul\":10047:10097   */\n      add\n      swap3\n        /* \"#utility.yul\":9833:10103   */\n      swap2\n      pop\n      pop\n      jump\t// out\n        /* \"#utility.yul\":10108:11736   */\n    tag_289:\n        /* \"#utility.yul\":10376:10380   */\n      0x00\n        /* \"#utility.yul\":10405:10407   */\n      0x60\n        /* \"#utility.yul\":10445:10447   */\n      dup1\n        /* \"#utility.yul\":10434:10443   */\n      dup4\n        /* \"#utility.yul\":10430:10448   */\n      add\n        /* \"#utility.yul\":10475:10477   */\n      dup2\n        /* \"#utility.yul\":10464:10473   */\n      dup5\n        /* \"#utility.yul\":10457:10478   */\n      mstore\n        /* \"#utility.yul\":10498:10504   */\n      dup1\n        /* \"#utility.yul\":10533:10539   */\n      dup8\n        /* \"#utility.yul\":10527:10540   */\n      mload\n        /* \"#utility.yul\":10564:10570   */\n      dup1\n        /* \"#utility.yul\":10556:10562   */\n      dup4\n        /* \"#utility.yul\":10549:10571   */\n      mstore\n        /* \"#utility.yul\":10602:10605   */\n      0x80\n        /* \"#utility.yul\":10591:10600   */\n      dup7\n        /* \"#utility.yul\":10587:10606   */\n      add\n        /* \"#utility.yul\":10580:10606   */\n      swap2\n      pop\n        /* \"#utility.yul\":10665:10668   */\n      0x80\n        /* \"#utility.yul\":10655:10661   */\n      dup2\n        /* \"#utility.yul\":10652:10653   */\n      0x05\n        /* \"#utility.yul\":10648:10662   */\n      shl\n        /* \"#utility.yul\":10637:10646   */\n      dup8\n        /* \"#utility.yul\":10633:10663   */\n      add\n        /* \"#utility.yul\":10629:10669   */\n      add\n        /* \"#utility.yul\":10615:10669   */\n      swap3\n      pop\n        /* \"#utility.yul\":10688:10692   */\n      0x20\n        /* \"#utility.yul\":10727:10729   */\n      dup1\n        /* \"#utility.yul\":10719:10725   */\n      dup11\n        /* \"#utility.yul\":10715:10730   */\n      add\n        /* \"#utility.yul\":10748:10749   */\n      0x00\n        /* \"#utility.yul\":10769:10770   */\n      dup1\n        /* \"#utility.yul\":10779:11565   */\n    tag_472:\n        /* \"#utility.yul\":10795:10801   */\n      dup5\n        /* \"#utility.yul\":10790:10793   */\n      dup2\n        /* \"#utility.yul\":10787:10802   */\n      lt\n        /* \"#utility.yul\":10779:11565   */\n      iszero\n      tag_474\n      jumpi\n        /* \"#utility.yul\":10864:10886   */\n      dup10\n      dup8\n      sub\n      not(0x7f)\n        /* \"#utility.yul\":10860:10897   */\n      add\n        /* \"#utility.yul\":10848:10898   */\n      dup7\n      mstore\n        /* \"#utility.yul\":10921:10934   */\n      dup3\n      mload\n        /* \"#utility.yul\":10966:10975   */\n      dup1\n      mload\n      sub(shl(0xa0, 0x01), 0x01)\n        /* \"#utility.yul\":10962:10997   */\n      and\n        /* \"#utility.yul\":10947:10998   */\n      dup9\n      mstore\n        /* \"#utility.yul\":11037:11048   */\n      dup5\n      dup2\n      add\n        /* \"#utility.yul\":11031:11049   */\n      mload\n        /* \"#utility.yul\":11089:11090   */\n      0x03\n        /* \"#utility.yul\":11072:11091   */\n      dup2\n      lt\n        /* \"#utility.yul\":11062:11232   */\n      tag_475\n      jumpi\n      shl(0xe0, 0x4e487b71)\n        /* \"#utility.yul\":11123:11154   */\n      dup5\n      mstore\n        /* \"#utility.yul\":11181:11185   */\n      0x21\n        /* \"#utility.yul\":11178:11179   */\n      0x04\n        /* \"#utility.yul\":11171:11186   */\n      mstore\n        /* \"#utility.yul\":11213:11217   */\n      0x24\n        /* \"#utility.yul\":11130:11131   */\n      dup5\n        /* \"#utility.yul\":11203:11218   */\n      revert\n        /* \"#utility.yul\":11062:11232   */\n    tag_475:\n        /* \"#utility.yul\":11252:11267   */\n      dup9\n      dup7\n      add\n        /* \"#utility.yul\":11245:11282   */\n      mstore\n        /* \"#utility.yul\":11305:11309   */\n      0x40\n        /* \"#utility.yul\":11350:11361   */\n      swap1\n      dup2\n      add\n        /* \"#utility.yul\":11344:11362   */\n      mload\n        /* \"#utility.yul\":11382:11397   */\n      swap1\n      dup9\n      add\n        /* \"#utility.yul\":11375:11402   */\n      dup10\n      swap1\n      mstore\n        /* \"#utility.yul\":11425:11485   */\n      tag_476\n        /* \"#utility.yul\":11469:11484   */\n      dup10\n      dup10\n      add\n        /* \"#utility.yul\":11344:11362   */\n      dup3\n        /* \"#utility.yul\":11425:11485   */\n      tag_374\n      jump\t// in\n    tag_476:\n        /* \"#utility.yul\":11415:11485   */\n      swap8\n      pop\n      pop\n        /* \"#utility.yul\":11543:11555   */\n      swap5\n      dup4\n      add\n      swap5\n        /* \"#utility.yul\":11508:11523   */\n      swap2\n      dup4\n      add\n      swap2\n        /* \"#utility.yul\":10821:10822   */\n      0x01\n        /* \"#utility.yul\":10812:10823   */\n      add\n        /* \"#utility.yul\":10779:11565   */\n      jump(tag_472)\n    tag_474:\n      pop\n      pop\n      pop\n      sub(shl(0xa0, 0x01), 0x01)\n        /* \"#utility.yul\":2184:2215   */\n      dup10\n      and\n        /* \"#utility.yul\":11601:11619   */\n      swap1\n      dup8\n      add\n        /* \"#utility.yul\":2172:2216   */\n      mstore\n      pop\n      pop\n        /* \"#utility.yul\":11658:11680   */\n      dup4\n      dup2\n      sub\n        /* \"#utility.yul\":11651:11655   */\n      0x40\n        /* \"#utility.yul\":11636:11656   */\n      dup6\n      add\n        /* \"#utility.yul\":11629:11681   */\n      mstore\n        /* \"#utility.yul\":11698:11730   */\n      tag_478\n        /* \"#utility.yul\":11662:11668   */\n      dup2\n        /* \"#utility.yul\":11715:11721   */\n      dup7\n        /* \"#utility.yul\":11698:11730   */\n      tag_380\n      jump\t// in\n    tag_478:\n        /* \"#utility.yul\":11690:11730   */\n      swap8\n        /* \"#utility.yul\":10108:11736   */\n      swap7\n      pop\n      pop\n      pop\n      pop\n      pop\n      pop\n      pop\n      jump\t// out\n        /* \"#utility.yul\":11741:12028   */\n    tag_354:\n        /* \"#utility.yul\":11870:11873   */\n      0x00\n        /* \"#utility.yul\":11908:11914   */\n      dup3\n        /* \"#utility.yul\":11902:11915   */\n      mload\n        /* \"#utility.yul\":11924:11990   */\n      tag_480\n        /* \"#utility.yul\":11983:11989   */\n      dup2\n        /* \"#utility.yul\":11978:11981   */\n      dup5\n        /* \"#utility.yul\":11971:11975   */\n      0x20\n        /* \"#utility.yul\":11963:11969   */\n      dup8\n        /* \"#utility.yul\":11959:11976   */\n      add\n        /* \"#utility.yul\":11924:11990   */\n      tag_379\n      jump\t// in\n    tag_480:\n        /* \"#utility.yul\":12006:12022   */\n      swap2\n      swap1\n      swap2\n      add\n      swap3\n        /* \"#utility.yul\":11741:12028   */\n      swap2\n      pop\n      pop\n      jump\t// out\n    stop\n    data_a5e74bf718c7d6929bf8f422c8be92118782759abac1bf7601c5a938d6f306a1 177481ac65e4292921c69f62d1cc7f57541261e5d61c8175cf4e36a01c9bfc94\n    data_b4a3f1194ff204df3421c76163ff361a7821792777bfc1dcb14fa8d3eb97e7f5 177481ac65e4292921c69f62d1cc7f57541261e5d61c8175cf4e36a01c9bfc93\n\n    auxdata: 0xa26469706673582212204fd3e61e32cabd24239218d2a5618d6811f3c53d9103eb5dd773aa327300861664736f6c63430008130033\n}\n",
				"bytecode": {
					"linkReferences": {},
					"object": "60806040523480156200001157600080fd5b5060408051600c8082526101a0820190925260009160208201610180803683370190505090506000632c40805960e01b82826200004e8162000d22565b93508151811062000063576200006362000d4a565b6001600160e01b031990921660209283029190910190910152639142376560e01b8282620000918162000d22565b935081518110620000a657620000a662000d4a565b6001600160e01b031990921660209283029190910190910152620000d3632f40adcf60e21b600162000480565b6307e4c70760e21b8282620000e88162000d22565b935081518110620000fd57620000fd62000d4a565b6001600160e01b0319909216602092830291909101909101526200012a6307e4c70760e21b600162000480565b637a0ed62760e01b82826200013f8162000d22565b93508151811062000154576200015462000d4a565b6001600160e01b0319909216602092830291909101909101526356fe50af60e11b8282620001828162000d22565b93508151811062000197576200019762000d4a565b6001600160e01b0319909216602092830291909101909101526314bbdacb60e21b8282620001c58162000d22565b935081518110620001da57620001da62000d4a565b6001600160e01b0319909216602092830291909101909101526366ffd66360e11b8282620002088162000d22565b9350815181106200021d576200021d62000d4a565b6001600160e01b0319909216602092830291909101909101526200024a6348e2b09360e01b600162000480565b6301ffc9a760e01b82826200025f8162000d22565b93508151811062000274576200027462000d4a565b6001600160e01b031990921660209283029190910190910152620002a16301ffc9a760e01b600162000480565b638da5cb5b60e01b8282620002b68162000d22565b935081518110620002cb57620002cb62000d4a565b6001600160e01b03199092166020928302919091019091015263455a8a8560e11b8282620002f98162000d22565b9350815181106200030e576200030e62000d4a565b6001600160e01b03199092166020928302919091019091015263f2fde38b60e01b82826200033c8162000d22565b93508151811062000351576200035162000d4a565b6001600160e01b0319909216602092830291909101909101526379ba509760e01b82826200037f8162000d22565b93508151811062000394576200039462000d4a565b6001600160e01b031990921660209283029190910190910152620003c16307f5828d60e41b600162000480565b604080516001808252818301909252600091816020015b60408051606080820183526000808352602083015291810191909152815260200190600190039081620003d8579050506040805160608101909152308152909150602081016000815260200184815250816000815181106200043e576200043e62000d4a565b60200260200101819052506200046c81600060405180602001604052806000815250620004f760201b60201c565b6200047733620006f8565b50505062000eef565b6001600160e01b03198083169003620004ac5760405163b0a19dd560e01b815260040160405180910390fd5b6001600160e01b03199190911660009081527ffc606c433378e3a7e0a6a531deac289b66caa1b4aa8554fd4ab2c6f1570f92d860205260409020805460ff1916911515919091179055565b7f177481ac65e4292921c69f62d1cc7f57541261e5d61c8175cf4e36a01c9bfc94547f177481ac65e4292921c69f62d1cc7f57541261e5d61c8175cf4e36a01c9bfc939061ffff811690819060009060071615620005675750600381901c60009081526002840160205260409020545b60005b8751811015620006665760008882815181106200058b576200058b62000d4a565b60200260200101519050600081602001519050816040015151600003620005c55760405163eb6c3aeb60e01b815260040160405180910390fd5b6000816002811115620005dc57620005dc62000d60565b03620005fb57620005f08786868562000772565b90955093506200065b565b600181600281111562000612576200061262000d60565b036200062a57620006248783620008ba565b6200065b565b600281600281111562000641576200064162000d60565b036200065b57620006558786868562000a09565b90955093505b50506001016200056a565b50828214620006835760018401805461ffff191661ffff84161790555b6007821615620006a657600382901c600090815260028501602052604090208190555b7f8faa70878671ccd212d20771b795c50af8fd3ff6cf27f4bde57e5d4de0aeb673878787604051620006db9392919062000dca565b60405180910390a1620006ef868662000c35565b50505050505050565b7f8a22373512790c48b83a1fe2efdd2888d4a917bcdc24d0adf63e60f67168046080546040516001600160a01b038481169216907f8be0079c531659141344cd1fd0a4f28419497f9722a3daafe3b4186f6b6457e090600090a380546001600160a01b0319166001600160a01b0392909216919091179055565b805160009081906001600160a01b031630148015906200079b575082516001600160a01b03163b155b15620007ba57604051633ddc5cab60e21b815260040160405180910390fd5b60005b836040015151811015620008ad57600084604001518281518110620007e657620007e662000d4a565b6020908102919091018101516001600160e01b031981166000908152918a9052604090912054909150606081901c156200083357604051634923a77160e11b815260040160405180910390fd5b85516001600160e01b0319838116600081815260208d90526040902060609390931b6001600160601b0319168b1790925560058a901b60e090811692831c91831c199990991617978190036200089d57600389901c600090815260028b0160205260408120989098555b50505060019586019501620007bd565b5093959294509192505050565b80516001600160a01b03163b620008e457604051633ddc5cab60e21b815260040160405180910390fd5b60005b81604001515181101562000a045760008260400151828151811062000910576200091062000d4a565b6020908102919091018101516001600160e01b03198116600090815291869052604090912054909150606081901c806200095d576040516337e25a9760e11b815260040160405180910390fd5b306001600160a01b03821603620009875760405163e983573160e01b815260040160405180910390fd5b84600001516001600160a01b0316816001600160a01b031603620009be576040516330baabf360e11b815260040160405180910390fd5b5083516001600160e01b031992909216600090815260208690526040902060609290921b6001600160601b0319166001600160601b0391909116179055600101620008e7565b505050565b805160009081906001600160a01b03161562000a3857604051633ab3490960e21b815260040160405180910390fd5b600385901c6007861660005b85604001515181101562000c215760008660400151828151811062000a6d5762000a6d62000d4a565b6020908102919091018101516001600160e01b031981166000908152918c9052604090912054909150606081901c62000ab9576040516337e25a9760e11b815260040160405180910390fd5b30606082901c0362000ade5760405163e983573160e01b815260040160405180910390fd5b600089900362000b0c57600019909401600081815260028c0160205260409020549850936007935062000b14565b600019909301925b600584901b89901b6000806001600160e01b03198084169086161462000b67576001600160e01b03198316600090815260208f90526040902080546001600160601b0319166001600160601b0386161790555b50506001600160e01b03198316600090815260208d90526040812055611fff600383901c1660e0600584901b1687821462000bcc57600082815260028f016020526040902080546001600160e01b031980841c19909116908516831c17905562000bf0565b80836001600160e01b031916901c816001600160e01b031960001b901c198d16179b505b8660000362000c0f57600088815260028f01602052604081208190559b505b50506001909301925062000a44915050565b5060039190911b1796939550929350505050565b8051156001600160a01b038316151462000c62576040516326df4ccd60e01b815260040160405180910390fd5b6001600160a01b0382161562000d1e576001600160a01b038216301462000cac576001600160a01b0382163b62000cac57604051633ddc5cab60e21b815260040160405180910390fd5b6000826001600160a01b03168260405162000cc8919062000ed1565b600060405180830381855af49150503d806000811462000d05576040519150601f19603f3d011682016040523d82523d6000602084013e62000d0a565b606091505b505090508062000a04573d6000803e3d6000fd5b5050565b60006001820162000d4357634e487b7160e01b600052601160045260246000fd5b5060010190565b634e487b7160e01b600052603260045260246000fd5b634e487b7160e01b600052602160045260246000fd5b60005b8381101562000d9357818101518382015260200162000d79565b50506000910152565b6000815180845262000db681602086016020860162000d76565b601f01601f19169290920160200192915050565b60006060808301818452808751808352608092508286019150828160051b8701016020808b0160005b8481101562000e9f57898403607f19018652815180516001600160a01b0316855283810151898601906003811062000e3b57634e487b7160e01b600052602160045260246000fd5b868601526040918201519186018a905281519081905290840190600090898701905b8083101562000e895783516001600160e01b031916825292860192600192909201919086019062000e5d565b5097850197955050509082019060010162000df3565b50506001600160a01b038a1690880152868103604088015262000ec3818962000d9c565b9a9950505050505050505050565b6000825162000ee581846020870162000d76565b9190910192915050565b611bca8062000eff6000396000f3fe6080604052600436106100ab5760003560e01c80638ab5150a116100645780638ab5150a146102205780638da5cb5b14610235578063914237651461024a578063adfca15e1461026a578063cdffacc614610297578063f2fde38b146102de576100b2565b806301ffc9a71461010c5780631f931c1c1461017a5780632c4080591461019a57806352ef6b2c146101c757806379ba5097146101e95780637a0ed627146101fe576100b2565b366100b257005b60006100bc6102fe565b90506001600160a01b0381163b6100e6576040516321f27f0d60e21b815260040160405180910390fd5b3660008037600080366000845af43d6000803e808015610105573d6000f35b3d6000fd5b005b34801561011857600080fd5b5061016561012736600461153d565b6001600160e01b03191660009081527ffc606c433378e3a7e0a6a531deac289b66caa1b4aa8554fd4ab2c6f1570f92d8602052604090205460ff1690565b60405190151581526020015b60405180910390f35b34801561018657600080fd5b5061010a6101953660046115bf565b61030d565b3480156101a657600080fd5b506101af610397565b6040516001600160a01b039091168152602001610171565b3480156101d357600080fd5b506101dc6103ca565b6040516101719190611671565b3480156101f557600080fd5b5061010a61057c565b34801561020a57600080fd5b506102136105bf565b6040516101719190611703565b34801561022c57600080fd5b506101af6109f6565b34801561024157600080fd5b506101af610a00565b34801561025657600080fd5b5061010a610265366004611780565b610a0a565b34801561027657600080fd5b5061028a610285366004611780565b610a83565b604051610171919061179b565b3480156102a357600080fd5b506101af6102b236600461153d565b6001600160e01b0319166000908152600080516020611b75833981519152602052604090205460601c90565b3480156102ea57600080fd5b5061010a6102f9366004611780565b610bde565b6000610308610c20565b905090565b610315610c81565b6001600160a01b0316336001600160a01b03161461034657604051632f7a8ee160e01b815260040160405180910390fd5b6103906103538587611871565b8484848080601f016020809104026020016040519081016040528093929190818152602001838380828437600092019190915250610cb492505050565b5050505050565b60006103087f177481ac65e4292921c69f62d1cc7f57541261e5d61c8175cf4e36a01c9bfc96546001600160a01b031690565b600080516020611b5583398151915254606090600080516020611b758339815191529061ffff1667ffffffffffffffff811115610409576104096117dd565b604051908082528060200260200182016040528015610432578160200160208202803683370190505b50915060008060005b600184015461ffff16821015610574576000818152600285016020526040812054905b600881101561055f5783610471816119bb565b600188015490955061ffff168511905061055f57600581901b82901b6001600160e01b0319811660009081526020889052604081205460601c90805b88811015610502578a81815181106104c7576104c76119d4565b60200260200101516001600160a01b0316836001600160a01b0316036104f05760019150610502565b806104fa816119bb565b9150506104ad565b5080156105115750505061054d565b818a8981518110610524576105246119d4565b6001600160a01b039092166020928302919091019091015287610546816119bb565b9850505050505b80610557816119bb565b91505061045e565b5050808061056c906119bb565b91505061043b565b505082525090565b610584610e70565b6001600160a01b0316336001600160a01b0316146105b55760405163efd1052d60e01b815260040160405180910390fd5b6105bd610e98565b565b600080516020611b5583398151915254606090600080516020611b758339815191529061ffff1667ffffffffffffffff8111156105fe576105fe6117dd565b60405190808252806020026020018201604052801561064457816020015b60408051808201909152600081526060602082015281526020019060019003908161061c5790505b50600182015490925060009061ffff1667ffffffffffffffff81111561066c5761066c6117dd565b604051908082528060200260200182016040528015610695578160200160208202803683370190505b50905060008060005b600185015461ffff16821015610984576000818152600286016020526040812054905b600881101561096f57836106d4816119bb565b600189015490955061ffff168511905061096f57600581901b82901b6001600160e01b0319811660009081526020899052604081205460601c90805b8881101561082d57826001600160a01b03168c8281518110610734576107346119d4565b6020026020010151600001516001600160a01b03160361081b57838c8281518110610761576107616119d4565b6020026020010151602001518b838151811061077f5761077f6119d4565b602002602001015160ff168151811061079a5761079a6119d4565b60200260200101906001600160e01b03191690816001600160e01b0319168152505060ff8a82815181106107d0576107d06119d4565b602002602001015160ff16106107e557600080fd5b8981815181106107f7576107f76119d4565b60200260200101805180919061080c906119ea565b60ff169052506001915061082d565b80610825816119bb565b915050610710565b50801561083c5750505061095d565b818b898151811061084f5761084f6119d4565b60209081029190910101516001600160a01b03909116905260018a015461ffff1667ffffffffffffffff811115610888576108886117dd565b6040519080825280602002602001820160405280156108b1578160200160208202803683370190505b508b89815181106108c4576108c46119d4565b602002602001015160200181905250828b89815181106108e6576108e66119d4565b602002602001015160200151600081518110610904576109046119d4565b60200260200101906001600160e01b03191690816001600160e01b03191681525050600189898151811061093a5761093a6119d4565b60ff9092166020928302919091019091015287610956816119bb565b9850505050505b80610967816119bb565b9150506106c1565b5050808061097c906119bb565b91505061069e565b5060005b828110156109eb5760008482815181106109a4576109a46119d4565b602002602001015160ff16905060008783815181106109c5576109c56119d4565b6020026020010151602001519050818152505080806109e3906119bb565b915050610988565b508185525050505090565b6000610308610e70565b6000610308610c81565b610a12610c81565b6001600160a01b0316336001600160a01b031614610a4357604051632f7a8ee160e01b815260040160405180910390fd5b7f177481ac65e4292921c69f62d1cc7f57541261e5d61c8175cf4e36a01c9bfc9680546001600160a01b0319166001600160a01b03831617905550565b50565b600080516020611b5583398151915254606090600080516020611b758339815191529061ffff1667ffffffffffffffff811115610ac257610ac26117dd565b604051908082528060200260200182016040528015610aeb578160200160208202803683370190505b50915060008060005b600184015461ffff16821015610bd4576000818152600285016020526040812054905b6008811015610bbf5783610b2a816119bb565b600188015490955061ffff1685119050610bbf57600581901b82901b6001600160e01b0319811660009081526020889052604090205460601c6001600160a01b038a1603610bac5780888781518110610b8557610b856119d4565b6001600160e01b03199092166020928302919091019091015285610ba8816119bb565b9650505b5080610bb7816119bb565b915050610b17565b50508080610bcc906119bb565b915050610af4565b5050825250919050565b610be6610c81565b6001600160a01b0316336001600160a01b031614610c1757604051632f7a8ee160e01b815260040160405180910390fd5b610a8081610ed2565b600080356001600160e01b0319168152600080516020611b75833981519152602052604090205460601c80610c7e57507f177481ac65e4292921c69f62d1cc7f57541261e5d61c8175cf4e36a01c9bfc96546001600160a01b031690565b90565b60007f8a22373512790c48b83a1fe2efdd2888d4a917bcdc24d0adf63e60f6716804605b546001600160a01b0316919050565b600080516020611b5583398151915254600080516020611b758339815191529061ffff811690819060009060071615610cff5750600381901c60009081526002840160205260409020545b60005b8751811015610de4576000888281518110610d1f57610d1f6119d4565b60200260200101519050600081602001519050816040015151600003610d585760405163eb6c3aeb60e01b815260040160405180910390fd5b6000816002811115610d6c57610d6c611a09565b03610d8757610d7d87868685610f15565b9095509350610dda565b6001816002811115610d9b57610d9b611a09565b03610daf57610daa8783611054565b610dda565b6002816002811115610dc357610dc3611a09565b03610dda57610dd48786868561119f565b90955093505b5050600101610d02565b50828214610e005760018401805461ffff191661ffff84161790555b6007821615610e2257600382901c600090815260028501602052604090208190555b7f8faa70878671ccd212d20771b795c50af8fd3ff6cf27f4bde57e5d4de0aeb673878787604051610e5593929190611a6f565b60405180910390a1610e6786866113c2565b50505050505050565b60007f24aa1f7b31fd188a8d3ecfb06bc55c806040e59b03bd4396283442fce6617890610ca5565b610ea1336114a6565b7f24aa1f7b31fd188a8d3ecfb06bc55c806040e59b03bd4396283442fce661789080546001600160a01b0319169055565b7f24aa1f7b31fd188a8d3ecfb06bc55c806040e59b03bd4396283442fce661789080546001600160a01b0319166001600160a01b038316179055610a8081818181565b805160009081906001600160a01b03163014801590610f3d575082516001600160a01b03163b155b15610f5b57604051633ddc5cab60e21b815260040160405180910390fd5b60005b83604001515181101561104757600084604001518281518110610f8357610f836119d4565b6020908102919091018101516001600160e01b031981166000908152918a9052604090912054909150606081901c15610fcf57604051634923a77160e11b815260040160405180910390fd5b85516001600160e01b0319838116600081815260208d90526040902060609390931b6001600160601b0319168b1790925560058a901b60e090811692831c91831c1999909916179781900361103857600389901c600090815260028b0160205260408120989098555b50505060019586019501610f5e565b5093959294509192505050565b80516001600160a01b03163b61107d57604051633ddc5cab60e21b815260040160405180910390fd5b60005b81604001515181101561119a576000826040015182815181106110a5576110a56119d4565b6020908102919091018101516001600160e01b03198116600090815291869052604090912054909150606081901c806110f1576040516337e25a9760e11b815260040160405180910390fd5b306001600160a01b0382160361111a5760405163e983573160e01b815260040160405180910390fd5b84600001516001600160a01b0316816001600160a01b031603611150576040516330baabf360e11b815260040160405180910390fd5b5083516001600160e01b031992909216600090815260208690526040902060609290921b6001600160601b0319166bffffffffffffffffffffffff91909116179055600101611080565b505050565b805160009081906001600160a01b0316156111cd57604051633ab3490960e21b815260040160405180910390fd5b600385901c6007861660005b8560400151518110156113ae576000866040015182815181106111fe576111fe6119d4565b6020908102919091018101516001600160e01b031981166000908152918c9052604090912054909150606081901c611249576040516337e25a9760e11b815260040160405180910390fd5b30606082901c0361126d5760405163e983573160e01b815260040160405180910390fd5b600089900361129957600019909401600081815260028c016020526040902054985093600793506112a1565b600019909301925b600584901b89901b6000806001600160e01b0319808416908616146112f8576001600160e01b03198316600090815260208f90526040902080546001600160601b0319166bffffffffffffffffffffffff86161790555b50506001600160e01b03198316600090815260208d90526040812055611fff600383901c1660e0600584901b1687821461135b57600082815260028f016020526040902080546001600160e01b031980841c19909116908516831c17905561137f565b80836001600160e01b031916901c816001600160e01b031960001b901c198d16179b505b8660000361139d57600088815260028f01602052604081208190559b505b5050600190930192506111d9915050565b5060039190911b1796939550929350505050565b8051156001600160a01b03831615146113ee576040516326df4ccd60e01b815260040160405180910390fd5b6001600160a01b038216156114a2576001600160a01b0382163014611435576001600160a01b0382163b61143557604051633ddc5cab60e21b815260040160405180910390fd5b6000826001600160a01b03168260405161144f9190611b38565b600060405180830381855af49150503d806000811461148a576040519150601f19603f3d011682016040523d82523d6000602084013e61148f565b606091505b505090508061119a573d6000803e3d6000fd5b5050565b7f8a22373512790c48b83a1fe2efdd2888d4a917bcdc24d0adf63e60f67168046080546040516001600160a01b038481169216907f8be0079c531659141344cd1fd0a4f28419497f9722a3daafe3b4186f6b6457e090600090a380546001600160a01b0319166001600160a01b0392909216919091179055565b80356001600160e01b03198116811461153857600080fd5b919050565b60006020828403121561154f57600080fd5b61155882611520565b9392505050565b80356001600160a01b038116811461153857600080fd5b60008083601f84011261158857600080fd5b50813567ffffffffffffffff8111156115a057600080fd5b6020830191508360208285010111156115b857600080fd5b9250929050565b6000806000806000606086880312156115d757600080fd5b853567ffffffffffffffff808211156115ef57600080fd5b818801915088601f83011261160357600080fd5b81358181111561161257600080fd5b8960208260051b850101111561162757600080fd5b6020830197508096505061163d6020890161155f565b9450604088013591508082111561165357600080fd5b5061166088828901611576565b969995985093965092949392505050565b6020808252825182820181905260009190848201906040850190845b818110156116b25783516001600160a01b03168352928401929184019160010161168d565b50909695505050505050565b600081518084526020808501945080840160005b838110156116f85781516001600160e01b031916875295820195908201906001016116d2565b509495945050505050565b60006020808301818452808551808352604092508286019150828160051b87010184880160005b8381101561177257888303603f19018552815180516001600160a01b0316845287015187840187905261175f878501826116be565b958801959350509086019060010161172a565b509098975050505050505050565b60006020828403121561179257600080fd5b6115588261155f565b6020808252825182820181905260009190848201906040850190845b818110156116b25783516001600160e01b031916835292840192918401916001016117b7565b634e487b7160e01b600052604160045260246000fd5b6040516060810167ffffffffffffffff81118282101715611816576118166117dd565b60405290565b604051601f8201601f1916810167ffffffffffffffff81118282101715611845576118456117dd565b604052919050565b600067ffffffffffffffff821115611867576118676117dd565b5060051b60200190565b600061188461187f8461184d565b61181c565b83815260208082019190600586811b8601368111156118a257600080fd5b865b8181101561199857803567ffffffffffffffff808211156118c55760008081fd5b818a019150606082360312156118db5760008081fd5b6118e36117f3565b6118ec8361155f565b815286830135600381106119005760008081fd5b81880152604083810135838111156119185760008081fd5b939093019236601f85011261192f57600092508283fd5b8335925061193f61187f8461184d565b83815292871b8401880192888101903685111561195c5760008081fd5b948901945b848610156119815761197286611520565b82529489019490890190611961565b9183019190915250885250509483019483016118a4565b5092979650505050505050565b634e487b7160e01b600052601160045260246000fd5b6000600182016119cd576119cd6119a5565b5060010190565b634e487b7160e01b600052603260045260246000fd5b600060ff821660ff8103611a0057611a006119a5565b60010192915050565b634e487b7160e01b600052602160045260246000fd5b60005b83811015611a3a578181015183820152602001611a22565b50506000910152565b60008151808452611a5b816020860160208601611a1f565b601f01601f19169290920160200192915050565b6000606080830181845280875180835260808601915060808160051b87010192506020808a016000805b84811015611b0857898703607f19018652825180516001600160a01b031688528481015160038110611ad957634e487b7160e01b84526021600452602484fd5b88860152604090810151908801899052611af5898901826116be565b9750509483019491830191600101611a99565b5050506001600160a01b0389169087015250508381036040850152611b2d8186611a43565b979650505050505050565b60008251611b4a818460208701611a1f565b919091019291505056fe177481ac65e4292921c69f62d1cc7f57541261e5d61c8175cf4e36a01c9bfc94177481ac65e4292921c69f62d1cc7f57541261e5d61c8175cf4e36a01c9bfc93a26469706673582212204fd3e61e32cabd24239218d2a5618d6811f3c53d9103eb5dd773aa327300861664736f6c63430008130033",
					"opcodes": "PUSH1 0x80 PUSH1 0x40 MSTORE CALLVALUE DUP1 ISZERO PUSH3 0x11 JUMPI PUSH1 0x0 DUP1 REVERT JUMPDEST POP PUSH1 0x40 DUP1 MLOAD PUSH1 0xC DUP1 DUP3 MSTORE PUSH2 0x1A0 DUP3 ADD SWAP1 SWAP3 MSTORE PUSH1 0x0 SWAP2 PUSH1 0x20 DUP3 ADD PUSH2 0x180 DUP1 CALLDATASIZE DUP4 CALLDATACOPY ADD SWAP1 POP POP SWAP1 POP PUSH1 0x0 PUSH4 0x2C408059 PUSH1 0xE0 SHL DUP3 DUP3 PUSH3 0x4E DUP2 PUSH3 0xD22 JUMP JUMPDEST SWAP4 POP DUP2 MLOAD DUP2 LT PUSH3 0x63 JUMPI PUSH3 0x63 PUSH3 0xD4A JUMP JUMPDEST PUSH1 0x1 PUSH1 0x1 PUSH1 0xE0 SHL SUB NOT SWAP1 SWAP3 AND PUSH1 0x20 SWAP3 DUP4 MUL SWAP2 SWAP1 SWAP2 ADD SWAP1 SWAP2 ADD MSTORE PUSH4 0x91423765 PUSH1 0xE0 SHL DUP3 DUP3 PUSH3 0x91 DUP2 PUSH3 0xD22 JUMP JUMPDEST SWAP4 POP DUP2 MLOAD DUP2 LT PUSH3 0xA6 JUMPI PUSH3 0xA6 PUSH3 0xD4A JUMP JUMPDEST PUSH1 0x1 PUSH1 0x1 PUSH1 0xE0 SHL SUB NOT SWAP1 SWAP3 AND PUSH1 0x20 SWAP3 DUP4 MUL SWAP2 SWAP1 SWAP2 ADD SWAP1 SWAP2 ADD MSTORE PUSH3 0xD3 PUSH4 0x2F40ADCF PUSH1 0xE2 SHL PUSH1 0x1 PUSH3 0x480 JUMP JUMPDEST PUSH4 0x7E4C707 PUSH1 0xE2 SHL DUP3 DUP3 PUSH3 0xE8 DUP2 PUSH3 0xD22 JUMP JUMPDEST SWAP4 POP DUP2 MLOAD DUP2 LT PUSH3 0xFD JUMPI PUSH3 0xFD PUSH3 0xD4A JUMP JUMPDEST PUSH1 0x1 PUSH1 0x1 PUSH1 0xE0 SHL SUB NOT SWAP1 SWAP3 AND PUSH1 0x20 SWAP3 DUP4 MUL SWAP2 SWAP1 SWAP2 ADD SWAP1 SWAP2 ADD MSTORE PUSH3 0x12A PUSH4 0x7E4C707 PUSH1 0xE2 SHL PUSH1 0x1 PUSH3 0x480 JUMP JUMPDEST PUSH4 0x7A0ED627 PUSH1 0xE0 SHL DUP3 DUP3 PUSH3 0x13F DUP2 PUSH3 0xD22 JUMP JUMPDEST SWAP4 POP DUP2 MLOAD DUP2 LT PUSH3 0x154 JUMPI PUSH3 0x154 PUSH3 0xD4A JUMP JUMPDEST PUSH1 0x1 PUSH1 0x1 PUSH1 0xE0 SHL SUB NOT SWAP1 SWAP3 AND PUSH1 0x20 SWAP3 DUP4 MUL SWAP2 SWAP1 SWAP2 ADD SWAP1 SWAP2 ADD MSTORE PUSH4 0x56FE50AF PUSH1 0xE1 SHL DUP3 DUP3 PUSH3 0x182 DUP2 PUSH3 0xD22 JUMP JUMPDEST SWAP4 POP DUP2 MLOAD DUP2 LT PUSH3 0x197 JUMPI PUSH3 0x197 PUSH3 0xD4A JUMP JUMPDEST PUSH1 0x1 PUSH1 0x1 PUSH1 0xE0 SHL SUB NOT SWAP1 SWAP3 AND PUSH1 0x20 SWAP3 DUP4 MUL SWAP2 SWAP1 SWAP2 ADD SWAP1 SWAP2 ADD MSTORE PUSH4 0x14BBDACB PUSH1 0xE2 SHL DUP3 DUP3 PUSH3 0x1C5 DUP2 PUSH3 0xD22 JUMP JUMPDEST SWAP4 POP DUP2 MLOAD DUP2 LT PUSH3 0x1DA JUMPI PUSH3 0x1DA PUSH3 0xD4A JUMP JUMPDEST PUSH1 0x1 PUSH1 0x1 PUSH1 0xE0 SHL SUB NOT SWAP1 SWAP3 AND PUSH1 0x20 SWAP3 DUP4 MUL SWAP2 SWAP1 SWAP2 ADD SWAP1 SWAP2 ADD MSTORE PUSH4 0x66FFD663 PUSH1 0xE1 SHL DUP3 DUP3 PUSH3 0x208 DUP2 PUSH3 0xD22 JUMP JUMPDEST SWAP4 POP DUP2 MLOAD DUP2 LT PUSH3 0x21D JUMPI PUSH3 0x21D PUSH3 0xD4A JUMP JUMPDEST PUSH1 0x1 PUSH1 0x1 PUSH1 0xE0 SHL SUB NOT SWAP1 SWAP3 AND PUSH1 0x20 SWAP3 DUP4 MUL SWAP2 SWAP1 SWAP2 ADD SWAP1 SWAP2 ADD MSTORE PUSH3 0x24A PUSH4 0x48E2B093 PUSH1 0xE0 SHL PUSH1 0x1 PUSH3 0x480 JUMP JUMPDEST PUSH4 0x1FFC9A7 PUSH1 0xE0 SHL DUP3 DUP3 PUSH3 0x25F DUP2 PUSH3 0xD22 JUMP JUMPDEST SWAP4 POP DUP2 MLOAD DUP2 LT PUSH3 0x274 JUMPI PUSH3 0x274 PUSH3 0xD4A JUMP JUMPDEST PUSH1 0x1 PUSH1 0x1 PUSH1 0xE0 SHL SUB NOT SWAP1 SWAP3 AND PUSH1 0x20 SWAP3 DUP4 MUL SWAP2 SWAP1 SWAP2 ADD SWAP1 SWAP2 ADD MSTORE PUSH3 0x2A1 PUSH4 0x1FFC9A7 PUSH1 0xE0 SHL PUSH1 0x1 PUSH3 0x480 JUMP JUMPDEST PUSH4 0x8DA5CB5B PUSH1 0xE0 SHL DUP3 DUP3 PUSH3 0x2B6 DUP2 PUSH3 0xD22 JUMP JUMPDEST SWAP4 POP DUP2 MLOAD DUP2 LT PUSH3 0x2CB JUMPI PUSH3 0x2CB PUSH3 0xD4A JUMP JUMPDEST PUSH1 0x1 PUSH1 0x1 PUSH1 0xE0 SHL SUB NOT SWAP1 SWAP3 AND PUSH1 0x20 SWAP3 DUP4 MUL SWAP2 SWAP1 SWAP2 ADD SWAP1 SWAP2 ADD MSTORE PUSH4 0x455A8A85 PUSH1 0xE1 SHL DUP3 DUP3 PUSH3 0x2F9 DUP2 PUSH3 0xD22 JUMP JUMPDEST SWAP4 POP DUP2 MLOAD DUP2 LT PUSH3 0x30E JUMPI PUSH3 0x30E PUSH3 0xD4A JUMP JUMPDEST PUSH1 0x1 PUSH1 0x1 PUSH1 0xE0 SHL SUB NOT SWAP1 SWAP3 AND PUSH1 0x20 SWAP3 DUP4 MUL SWAP2 SWAP1 SWAP2 ADD SWAP1 SWAP2 ADD MSTORE PUSH4 0xF2FDE38B PUSH1 0xE0 SHL DUP3 DUP3 PUSH3 0x33C DUP2 PUSH3 0xD22 JUMP JUMPDEST SWAP4 POP DUP2 MLOAD DUP2 LT PUSH3 0x351 JUMPI PUSH3 0x351 PUSH3 0xD4A JUMP JUMPDEST PUSH1 0x1 PUSH1 0x1 PUSH1 0xE0 SHL SUB NOT SWAP1 SWAP3 AND PUSH1 0x20 SWAP3 DUP4 MUL SWAP2 SWAP1 SWAP2 ADD SWAP1 SWAP2 ADD MSTORE PUSH4 0x79BA5097 PUSH1 0xE0 SHL DUP3 DUP3 PUSH3 0x37F DUP2 PUSH3 0xD22 JUMP JUMPDEST SWAP4 POP DUP2 MLOAD DUP2 LT PUSH3 0x394 JUMPI PUSH3 0x394 PUSH3 0xD4A JUMP JUMPDEST PUSH1 0x1 PUSH1 0x1 PUSH1 0xE0 SHL SUB NOT SWAP1 SWAP3 AND PUSH1 0x20 SWAP3 DUP4 MUL SWAP2 SWAP1 SWAP2 ADD SWAP1 SWAP2 ADD MSTORE PUSH3 0x3C1 PUSH4 0x7F5828D PUSH1 0xE4 SHL PUSH1 0x1 PUSH3 0x480 JUMP JUMPDEST PUSH1 0x40 DUP1 MLOAD PUSH1 0x1 DUP1 DUP3 MSTORE DUP2 DUP4 ADD SWAP1 SWAP3 MSTORE PUSH1 0x0 SWAP2 DUP2 PUSH1 0x20 ADD JUMPDEST PUSH1 0x40 DUP1 MLOAD PUSH1 0x60 DUP1 DUP3 ADD DUP4 MSTORE PUSH1 0x0 DUP1 DUP4 MSTORE PUSH1 0x20 DUP4 ADD MSTORE SWAP2 DUP2 ADD SWAP2 SWAP1 SWAP2 MSTORE DUP2 MSTORE PUSH1 0x20 ADD SWAP1 PUSH1 0x1 SWAP1 SUB SWAP1 DUP2 PUSH3 0x3D8 JUMPI SWAP1 POP POP PUSH1 0x40 DUP1 MLOAD PUSH1 0x60 DUP2 ADD SWAP1 SWAP2 MSTORE ADDRESS DUP2 MSTORE SWAP1 SWAP2 POP PUSH1 0x20 DUP2 ADD PUSH1 0x0 DUP2 MSTORE PUSH1 0x20 ADD DUP5 DUP2 MSTORE POP DUP2 PUSH1 0x0 DUP2 MLOAD DUP2 LT PUSH3 0x43E JUMPI PUSH3 0x43E PUSH3 0xD4A JUMP JUMPDEST PUSH1 0x20 MUL PUSH1 0x20 ADD ADD DUP2 SWAP1 MSTORE POP PUSH3 0x46C DUP2 PUSH1 0x0 PUSH1 0x40 MLOAD DUP1 PUSH1 0x20 ADD PUSH1 0x40 MSTORE DUP1 PUSH1 0x0 DUP2 MSTORE POP PUSH3 0x4F7 PUSH1 0x20 SHL PUSH1 0x20 SHR JUMP JUMPDEST PUSH3 0x477 CALLER PUSH3 0x6F8 JUMP JUMPDEST POP POP POP PUSH3 0xEEF JUMP JUMPDEST PUSH1 0x1 PUSH1 0x1 PUSH1 0xE0 SHL SUB NOT DUP1 DUP4 AND SWAP1 SUB PUSH3 0x4AC JUMPI PUSH1 0x40 MLOAD PUSH4 0xB0A19DD5 PUSH1 0xE0 SHL DUP2 MSTORE PUSH1 0x4 ADD PUSH1 0x40 MLOAD DUP1 SWAP2 SUB SWAP1 REVERT JUMPDEST PUSH1 0x1 PUSH1 0x1 PUSH1 0xE0 SHL SUB NOT SWAP2 SWAP1 SWAP2 AND PUSH1 0x0 SWAP1 DUP2 MSTORE PUSH32 0xFC606C433378E3A7E0A6A531DEAC289B66CAA1B4AA8554FD4AB2C6F1570F92D8 PUSH1 0x20 MSTORE PUSH1 0x40 SWAP1 KECCAK256 DUP1 SLOAD PUSH1 0xFF NOT AND SWAP2 ISZERO ISZERO SWAP2 SWAP1 SWAP2 OR SWAP1 SSTORE JUMP JUMPDEST PUSH32 0x177481AC65E4292921C69F62D1CC7F57541261E5D61C8175CF4E36A01C9BFC94 SLOAD PUSH32 0x177481AC65E4292921C69F62D1CC7F57541261E5D61C8175CF4E36A01C9BFC93 SWAP1 PUSH2 0xFFFF DUP2 AND SWAP1 DUP2 SWAP1 PUSH1 0x0 SWAP1 PUSH1 0x7 AND ISZERO PUSH3 0x567 JUMPI POP PUSH1 0x3 DUP2 SWAP1 SHR PUSH1 0x0 SWAP1 DUP2 MSTORE PUSH1 0x2 DUP5 ADD PUSH1 0x20 MSTORE PUSH1 0x40 SWAP1 KECCAK256 SLOAD JUMPDEST PUSH1 0x0 JUMPDEST DUP8 MLOAD DUP2 LT ISZERO PUSH3 0x666 JUMPI PUSH1 0x0 DUP9 DUP3 DUP2 MLOAD DUP2 LT PUSH3 0x58B JUMPI PUSH3 0x58B PUSH3 0xD4A JUMP JUMPDEST PUSH1 0x20 MUL PUSH1 0x20 ADD ADD MLOAD SWAP1 POP PUSH1 0x0 DUP2 PUSH1 0x20 ADD MLOAD SWAP1 POP DUP2 PUSH1 0x40 ADD MLOAD MLOAD PUSH1 0x0 SUB PUSH3 0x5C5 JUMPI PUSH1 0x40 MLOAD PUSH4 0xEB6C3AEB PUSH1 0xE0 SHL DUP2 MSTORE PUSH1 0x4 ADD PUSH1 0x40 MLOAD DUP1 SWAP2 SUB SWAP1 REVERT JUMPDEST PUSH1 0x0 DUP2 PUSH1 0x2 DUP2 GT ISZERO PUSH3 0x5DC JUMPI PUSH3 0x5DC PUSH3 0xD60 JUMP JUMPDEST SUB PUSH3 0x5FB JUMPI PUSH3 0x5F0 DUP8 DUP7 DUP7 DUP6 PUSH3 0x772 JUMP JUMPDEST SWAP1 SWAP6 POP SWAP4 POP PUSH3 0x65B JUMP JUMPDEST PUSH1 0x1 DUP2 PUSH1 0x2 DUP2 GT ISZERO PUSH3 0x612 JUMPI PUSH3 0x612 PUSH3 0xD60 JUMP JUMPDEST SUB PUSH3 0x62A JUMPI PUSH3 0x624 DUP8 DUP4 PUSH3 0x8BA JUMP JUMPDEST PUSH3 0x65B JUMP JUMPDEST PUSH1 0x2 DUP2 PUSH1 0x2 DUP2 GT ISZERO PUSH3 0x641 JUMPI PUSH3 0x641 PUSH3 0xD60 JUMP JUMPDEST SUB PUSH3 0x65B JUMPI PUSH3 0x655 DUP8 DUP7 DUP7 DUP6 PUSH3 0xA09 JUMP JUMPDEST SWAP1 SWAP6 POP SWAP4 POP JUMPDEST POP POP PUSH1 0x1 ADD PUSH3 0x56A JUMP JUMPDEST POP DUP3 DUP3 EQ PUSH3 0x683 JUMPI PUSH1 0x1 DUP5 ADD DUP1 SLOAD PUSH2 0xFFFF NOT AND PUSH2 0xFFFF DUP5 AND OR SWAP1 SSTORE JUMPDEST PUSH1 0x7 DUP3 AND ISZERO PUSH3 0x6A6 JUMPI PUSH1 0x3 DUP3 SWAP1 SHR PUSH1 0x0 SWAP1 DUP2 MSTORE PUSH1 0x2 DUP6 ADD PUSH1 0x20 MSTORE PUSH1 0x40 SWAP1 KECCAK256 DUP2 SWAP1 SSTORE JUMPDEST PUSH32 0x8FAA70878671CCD212D20771B795C50AF8FD3FF6CF27F4BDE57E5D4DE0AEB673 DUP8 DUP8 DUP8 PUSH1 0x40 MLOAD PUSH3 0x6DB SWAP4 SWAP3 SWAP2 SWAP1 PUSH3 0xDCA JUMP JUMPDEST PUSH1 0x40 MLOAD DUP1 SWAP2 SUB SWAP1 LOG1 PUSH3 0x6EF DUP7 DUP7 PUSH3 0xC35 JUMP JUMPDEST POP POP POP POP POP POP POP JUMP JUMPDEST PUSH32 0x8A22373512790C48B83A1FE2EFDD2888D4A917BCDC24D0ADF63E60F671680460 DUP1 SLOAD PUSH1 0x40 MLOAD PUSH1 0x1 PUSH1 0x1 PUSH1 0xA0 SHL SUB DUP5 DUP2 AND SWAP3 AND SWAP1 PUSH32 0x8BE0079C531659141344CD1FD0A4F28419497F9722A3DAAFE3B4186F6B6457E0 SWAP1 PUSH1 0x0 SWAP1 LOG3 DUP1 SLOAD PUSH1 0x1 PUSH1 0x1 PUSH1 0xA0 SHL SUB NOT AND PUSH1 0x1 PUSH1 0x1 PUSH1 0xA0 SHL SUB SWAP3 SWAP1 SWAP3 AND SWAP2 SWAP1 SWAP2 OR SWAP1 SSTORE JUMP JUMPDEST DUP1 MLOAD PUSH1 0x0 SWAP1 DUP2 SWAP1 PUSH1 0x1 PUSH1 0x1 PUSH1 0xA0 SHL SUB AND ADDRESS EQ DUP1 ISZERO SWAP1 PUSH3 0x79B JUMPI POP DUP3 MLOAD PUSH1 0x1 PUSH1 0x1 PUSH1 0xA0 SHL SUB AND EXTCODESIZE ISZERO JUMPDEST ISZERO PUSH3 0x7BA JUMPI PUSH1 0x40 MLOAD PUSH4 0x3DDC5CAB PUSH1 0xE2 SHL DUP2 MSTORE PUSH1 0x4 ADD PUSH1 0x40 MLOAD DUP1 SWAP2 SUB SWAP1 REVERT JUMPDEST PUSH1 0x0 JUMPDEST DUP4 PUSH1 0x40 ADD MLOAD MLOAD DUP2 LT ISZERO PUSH3 0x8AD JUMPI PUSH1 0x0 DUP5 PUSH1 0x40 ADD MLOAD DUP3 DUP2 MLOAD DUP2 LT PUSH3 0x7E6 JUMPI PUSH3 0x7E6 PUSH3 0xD4A JUMP JUMPDEST PUSH1 0x20 SWAP1 DUP2 MUL SWAP2 SWAP1 SWAP2 ADD DUP2 ADD MLOAD PUSH1 0x1 PUSH1 0x1 PUSH1 0xE0 SHL SUB NOT DUP2 AND PUSH1 0x0 SWAP1 DUP2 MSTORE SWAP2 DUP11 SWAP1 MSTORE PUSH1 0x40 SWAP1 SWAP2 KECCAK256 SLOAD SWAP1 SWAP2 POP PUSH1 0x60 DUP2 SWAP1 SHR ISZERO PUSH3 0x833 JUMPI PUSH1 0x40 MLOAD PUSH4 0x4923A771 PUSH1 0xE1 SHL DUP2 MSTORE PUSH1 0x4 ADD PUSH1 0x40 MLOAD DUP1 SWAP2 SUB SWAP1 REVERT JUMPDEST DUP6 MLOAD PUSH1 0x1 PUSH1 0x1 PUSH1 0xE0 SHL SUB NOT DUP4 DUP2 AND PUSH1 0x0 DUP2 DUP2 MSTORE PUSH1 0x20 DUP14 SWAP1 MSTORE PUSH1 0x40 SWAP1 KECCAK256 PUSH1 0x60 SWAP4 SWAP1 SWAP4 SHL PUSH1 0x1 PUSH1 0x1 PUSH1 0x60 SHL SUB NOT AND DUP12 OR SWAP1 SWAP3 SSTORE PUSH1 0x5 DUP11 SWAP1 SHL PUSH1 0xE0 SWAP1 DUP2 AND SWAP3 DUP4 SHR SWAP2 DUP4 SHR NOT SWAP10 SWAP1 SWAP10 AND OR SWAP8 DUP2 SWAP1 SUB PUSH3 0x89D JUMPI PUSH1 0x3 DUP10 SWAP1 SHR PUSH1 0x0 SWAP1 DUP2 MSTORE PUSH1 0x2 DUP12 ADD PUSH1 0x20 MSTORE PUSH1 0x40 DUP2 KECCAK256 SWAP9 SWAP1 SWAP9 SSTORE JUMPDEST POP POP POP PUSH1 0x1 SWAP6 DUP7 ADD SWAP6 ADD PUSH3 0x7BD JUMP JUMPDEST POP SWAP4 SWAP6 SWAP3 SWAP5 POP SWAP2 SWAP3 POP POP POP JUMP JUMPDEST DUP1 MLOAD PUSH1 0x1 PUSH1 0x1 PUSH1 0xA0 SHL SUB AND EXTCODESIZE PUSH3 0x8E4 JUMPI PUSH1 0x40 MLOAD PUSH4 0x3DDC5CAB PUSH1 0xE2 SHL DUP2 MSTORE PUSH1 0x4 ADD PUSH1 0x40 MLOAD DUP1 SWAP2 SUB SWAP1 REVERT JUMPDEST PUSH1 0x0 JUMPDEST DUP2 PUSH1 0x40 ADD MLOAD MLOAD DUP2 LT ISZERO PUSH3 0xA04 JUMPI PUSH1 0x0 DUP3 PUSH1 0x40 ADD MLOAD DUP3 DUP2 MLOAD DUP2 LT PUSH3 0x910 JUMPI PUSH3 0x910 PUSH3 0xD4A JUMP JUMPDEST PUSH1 0x20 SWAP1 DUP2 MUL SWAP2 SWAP1 SWAP2 ADD DUP2 ADD MLOAD PUSH1 0x1 PUSH1 0x1 PUSH1 0xE0 SHL SUB NOT DUP2 AND PUSH1 0x0 SWAP1 DUP2 MSTORE SWAP2 DUP7 SWAP1 MSTORE PUSH1 0x40 SWAP1 SWAP2 KECCAK256 SLOAD SWAP1 SWAP2 POP PUSH1 0x60 DUP2 SWAP1 SHR DUP1 PUSH3 0x95D JUMPI PUSH1 0x40 MLOAD PUSH4 0x37E25A97 PUSH1 0xE1 SHL DUP2 MSTORE PUSH1 0x4 ADD PUSH1 0x40 MLOAD DUP1 SWAP2 SUB SWAP1 REVERT JUMPDEST ADDRESS PUSH1 0x1 PUSH1 0x1 PUSH1 0xA0 SHL SUB DUP3 AND SUB PUSH3 0x987 JUMPI PUSH1 0x40 MLOAD PUSH4 0xE9835731 PUSH1 0xE0 SHL DUP2 MSTORE PUSH1 0x4 ADD PUSH1 0x40 MLOAD DUP1 SWAP2 SUB SWAP1 REVERT JUMPDEST DUP5 PUSH1 0x0 ADD MLOAD PUSH1 0x1 PUSH1 0x1 PUSH1 0xA0 SHL SUB AND DUP2 PUSH1 0x1 PUSH1 0x1 PUSH1 0xA0 SHL SUB AND SUB PUSH3 0x9BE JUMPI PUSH1 0x40 MLOAD PUSH4 0x30BAABF3 PUSH1 0xE1 SHL DUP2 MSTORE PUSH1 0x4 ADD PUSH1 0x40 MLOAD DUP1 SWAP2 SUB SWAP1 REVERT JUMPDEST POP DUP4 MLOAD PUSH1 0x1 PUSH1 0x1 PUSH1 0xE0 SHL SUB NOT SWAP3 SWAP1 SWAP3 AND PUSH1 0x0 SWAP1 DUP2 MSTORE PUSH1 0x20 DUP7 SWAP1 MSTORE PUSH1 0x40 SWAP1 KECCAK256 PUSH1 0x60 SWAP3 SWAP1 SWAP3 SHL PUSH1 0x1 PUSH1 0x1 PUSH1 0x60 SHL SUB NOT AND PUSH1 0x1 PUSH1 0x1 PUSH1 0x60 SHL SUB SWAP2 SWAP1 SWAP2 AND OR SWAP1 SSTORE PUSH1 0x1 ADD PUSH3 0x8E7 JUMP JUMPDEST POP POP POP JUMP JUMPDEST DUP1 MLOAD PUSH1 0x0 SWAP1 DUP2 SWAP1 PUSH1 0x1 PUSH1 0x1 PUSH1 0xA0 SHL SUB AND ISZERO PUSH3 0xA38 JUMPI PUSH1 0x40 MLOAD PUSH4 0x3AB34909 PUSH1 0xE2 SHL DUP2 MSTORE PUSH1 0x4 ADD PUSH1 0x40 MLOAD DUP1 SWAP2 SUB SWAP1 REVERT JUMPDEST PUSH1 0x3 DUP6 SWAP1 SHR PUSH1 0x7 DUP7 AND PUSH1 0x0 JUMPDEST DUP6 PUSH1 0x40 ADD MLOAD MLOAD DUP2 LT ISZERO PUSH3 0xC21 JUMPI PUSH1 0x0 DUP7 PUSH1 0x40 ADD MLOAD DUP3 DUP2 MLOAD DUP2 LT PUSH3 0xA6D JUMPI PUSH3 0xA6D PUSH3 0xD4A JUMP JUMPDEST PUSH1 0x20 SWAP1 DUP2 MUL SWAP2 SWAP1 SWAP2 ADD DUP2 ADD MLOAD PUSH1 0x1 PUSH1 0x1 PUSH1 0xE0 SHL SUB NOT DUP2 AND PUSH1 0x0 SWAP1 DUP2 MSTORE SWAP2 DUP13 SWAP1 MSTORE PUSH1 0x40 SWAP1 SWAP2 KECCAK256 SLOAD SWAP1 SWAP2 POP PUSH1 0x60 DUP2 SWAP1 SHR PUSH3 0xAB9 JUMPI PUSH1 0x40 MLOAD PUSH4 0x37E25A97 PUSH1 0xE1 SHL DUP2 MSTORE PUSH1 0x4 ADD PUSH1 0x40 MLOAD DUP1 SWAP2 SUB SWAP1 REVERT JUMPDEST ADDRESS PUSH1 0x60 DUP3 SWAP1 SHR SUB PUSH3 0xADE JUMPI PUSH1 0x40 MLOAD PUSH4 0xE9835731 PUSH1 0xE0 SHL DUP2 MSTORE PUSH1 0x4 ADD PUSH1 0x40 MLOAD DUP1 SWAP2 SUB SWAP1 REVERT JUMPDEST PUSH1 0x0 DUP10 SWAP1 SUB PUSH3 0xB0C JUMPI PUSH1 0x0 NOT SWAP1 SWAP5 ADD PUSH1 0x0 DUP2 DUP2 MSTORE PUSH1 0x2 DUP13 ADD PUSH1 0x20 MSTORE PUSH1 0x40 SWAP1 KECCAK256 SLOAD SWAP9 POP SWAP4 PUSH1 0x7 SWAP4 POP PUSH3 0xB14 JUMP JUMPDEST PUSH1 0x0 NOT SWAP1 SWAP4 ADD SWAP3 JUMPDEST PUSH1 0x5 DUP5 SWAP1 SHL DUP10 SWAP1 SHL PUSH1 0x0 DUP1 PUSH1 0x1 PUSH1 0x1 PUSH1 0xE0 SHL SUB NOT DUP1 DUP5 AND SWAP1 DUP7 AND EQ PUSH3 0xB67 JUMPI PUSH1 0x1 PUSH1 0x1 PUSH1 0xE0 SHL SUB NOT DUP4 AND PUSH1 0x0 SWAP1 DUP2 MSTORE PUSH1 0x20 DUP16 SWAP1 MSTORE PUSH1 0x40 SWAP1 KECCAK256 DUP1 SLOAD PUSH1 0x1 PUSH1 0x1 PUSH1 0x60 SHL SUB NOT AND PUSH1 0x1 PUSH1 0x1 PUSH1 0x60 SHL SUB DUP7 AND OR SWAP1 SSTORE JUMPDEST POP POP PUSH1 0x1 PUSH1 0x1 PUSH1 0xE0 SHL SUB NOT DUP4 AND PUSH1 0x0 SWAP1 DUP2 MSTORE PUSH1 0x20 DUP14 SWAP1 MSTORE PUSH1 0x40 DUP2 KECCAK256 SSTORE PUSH2 0x1FFF PUSH1 0x3 DUP4 SWAP1 SHR AND PUSH1 0xE0 PUSH1 0x5 DUP5 SWAP1 SHL AND DUP8 DUP3 EQ PUSH3 0xBCC JUMPI PUSH1 0x0 DUP3 DUP2 MSTORE PUSH1 0x2 DUP16 ADD PUSH1 0x20 MSTORE PUSH1 0x40 SWAP1 KECCAK256 DUP1 SLOAD PUSH1 0x1 PUSH1 0x1 PUSH1 0xE0 SHL SUB NOT DUP1 DUP5 SHR NOT SWAP1 SWAP2 AND SWAP1 DUP6 AND DUP4 SHR OR SWAP1 SSTORE PUSH3 0xBF0 JUMP JUMPDEST DUP1 DUP4 PUSH1 0x1 PUSH1 0x1 PUSH1 0xE0 SHL SUB NOT AND SWAP1 SHR DUP2 PUSH1 0x1 PUSH1 0x1 PUSH1 0xE0 SHL SUB NOT PUSH1 0x0 SHL SWAP1 SHR NOT DUP14 AND OR SWAP12 POP JUMPDEST DUP7 PUSH1 0x0 SUB PUSH3 0xC0F JUMPI PUSH1 0x0 DUP9 DUP2 MSTORE PUSH1 0x2 DUP16 ADD PUSH1 0x20 MSTORE PUSH1 0x40 DUP2 KECCAK256 DUP2 SWAP1 SSTORE SWAP12 POP JUMPDEST POP POP PUSH1 0x1 SWAP1 SWAP4 ADD SWAP3 POP PUSH3 0xA44 SWAP2 POP POP JUMP JUMPDEST POP PUSH1 0x3 SWAP2 SWAP1 SWAP2 SHL OR SWAP7 SWAP4 SWAP6 POP SWAP3 SWAP4 POP POP POP POP JUMP JUMPDEST DUP1 MLOAD ISZERO PUSH1 0x1 PUSH1 0x1 PUSH1 0xA0 SHL SUB DUP4 AND ISZERO EQ PUSH3 0xC62 JUMPI PUSH1 0x40 MLOAD PUSH4 0x26DF4CCD PUSH1 0xE0 SHL DUP2 MSTORE PUSH1 0x4 ADD PUSH1 0x40 MLOAD DUP1 SWAP2 SUB SWAP1 REVERT JUMPDEST PUSH1 0x1 PUSH1 0x1 PUSH1 0xA0 SHL SUB DUP3 AND ISZERO PUSH3 0xD1E JUMPI PUSH1 0x1 PUSH1 0x1 PUSH1 0xA0 SHL SUB DUP3 AND ADDRESS EQ PUSH3 0xCAC JUMPI PUSH1 0x1 PUSH1 0x1 PUSH1 0xA0 SHL SUB DUP3 AND EXTCODESIZE PUSH3 0xCAC JUMPI PUSH1 0x40 MLOAD PUSH4 0x3DDC5CAB PUSH1 0xE2 SHL DUP2 MSTORE PUSH1 0x4 ADD PUSH1 0x40 MLOAD DUP1 SWAP2 SUB SWAP1 REVERT JUMPDEST PUSH1 0x0 DUP3 PUSH1 0x1 PUSH1 0x1 PUSH1 0xA0 SHL SUB AND DUP3 PUSH1 0x40 MLOAD PUSH3 0xCC8 SWAP2 SWAP1 PUSH3 0xED1 JUMP JUMPDEST PUSH1 0x0 PUSH1 0x40 MLOAD DUP1 DUP4 SUB DUP2 DUP6 GAS DELEGATECALL SWAP2 POP POP RETURNDATASIZE DUP1 PUSH1 0x0 DUP2 EQ PUSH3 0xD05 JUMPI PUSH1 0x40 MLOAD SWAP2 POP PUSH1 0x1F NOT PUSH1 0x3F RETURNDATASIZE ADD AND DUP3 ADD PUSH1 0x40 MSTORE RETURNDATASIZE DUP3 MSTORE RETURNDATASIZE PUSH1 0x0 PUSH1 0x20 DUP5 ADD RETURNDATACOPY PUSH3 0xD0A JUMP JUMPDEST PUSH1 0x60 SWAP2 POP JUMPDEST POP POP SWAP1 POP DUP1 PUSH3 0xA04 JUMPI RETURNDATASIZE PUSH1 0x0 DUP1 RETURNDATACOPY RETURNDATASIZE PUSH1 0x0 REVERT JUMPDEST POP POP JUMP JUMPDEST PUSH1 0x0 PUSH1 0x1 DUP3 ADD PUSH3 0xD43 JUMPI PUSH4 0x4E487B71 PUSH1 0xE0 SHL PUSH1 0x0 MSTORE PUSH1 0x11 PUSH1 0x4 MSTORE PUSH1 0x24 PUSH1 0x0 REVERT JUMPDEST POP PUSH1 0x1 ADD SWAP1 JUMP JUMPDEST PUSH4 0x4E487B71 PUSH1 0xE0 SHL PUSH1 0x0 MSTORE PUSH1 0x32 PUSH1 0x4 MSTORE PUSH1 0x24 PUSH1 0x0 REVERT JUMPDEST PUSH4 0x4E487B71 PUSH1 0xE0 SHL PUSH1 0x0 MSTORE PUSH1 0x21 PUSH1 0x4 MSTORE PUSH1 0x24 PUSH1 0x0 REVERT JUMPDEST PUSH1 0x0 JUMPDEST DUP4 DUP2 LT ISZERO PUSH3 0xD93 JUMPI DUP2 DUP2 ADD MLOAD DUP4 DUP3 ADD MSTORE PUSH1 0x20 ADD PUSH3 0xD79 JUMP JUMPDEST POP POP PUSH1 0x0 SWAP2 ADD MSTORE JUMP JUMPDEST PUSH1 0x0 DUP2 MLOAD DUP1 DUP5 MSTORE PUSH3 0xDB6 DUP2 PUSH1 0x20 DUP7 ADD PUSH1 0x20 DUP7 ADD PUSH3 0xD76 JUMP JUMPDEST PUSH1 0x1F ADD PUSH1 0x1F NOT AND SWAP3 SWAP1 SWAP3 ADD PUSH1 0x20 ADD SWAP3 SWAP2 POP POP JUMP JUMPDEST PUSH1 0x0 PUSH1 0x60 DUP1 DUP4 ADD DUP2 DUP5 MSTORE DUP1 DUP8 MLOAD DUP1 DUP4 MSTORE PUSH1 0x80 SWAP3 POP DUP3 DUP7 ADD SWAP2 POP DUP3 DUP2 PUSH1 0x5 SHL DUP8 ADD ADD PUSH1 0x20 DUP1 DUP12 ADD PUSH1 0x0 JUMPDEST DUP5 DUP2 LT ISZERO PUSH3 0xE9F JUMPI DUP10 DUP5 SUB PUSH1 0x7F NOT ADD DUP7 MSTORE DUP2 MLOAD DUP1 MLOAD PUSH1 0x1 PUSH1 0x1 PUSH1 0xA0 SHL SUB AND DUP6 MSTORE DUP4 DUP2 ADD MLOAD DUP10 DUP7 ADD SWAP1 PUSH1 0x3 DUP2 LT PUSH3 0xE3B JUMPI PUSH4 0x4E487B71 PUSH1 0xE0 SHL PUSH1 0x0 MSTORE PUSH1 0x21 PUSH1 0x4 MSTORE PUSH1 0x24 PUSH1 0x0 REVERT JUMPDEST DUP7 DUP7 ADD MSTORE PUSH1 0x40 SWAP2 DUP3 ADD MLOAD SWAP2 DUP7 ADD DUP11 SWAP1 MSTORE DUP2 MLOAD SWAP1 DUP2 SWAP1 MSTORE SWAP1 DUP5 ADD SWAP1 PUSH1 0x0 SWAP1 DUP10 DUP8 ADD SWAP1 JUMPDEST DUP1 DUP4 LT ISZERO PUSH3 0xE89 JUMPI DUP4 MLOAD PUSH1 0x1 PUSH1 0x1 PUSH1 0xE0 SHL SUB NOT AND DUP3 MSTORE SWAP3 DUP7 ADD SWAP3 PUSH1 0x1 SWAP3 SWAP1 SWAP3 ADD SWAP2 SWAP1 DUP7 ADD SWAP1 PUSH3 0xE5D JUMP JUMPDEST POP SWAP8 DUP6 ADD SWAP8 SWAP6 POP POP POP SWAP1 DUP3 ADD SWAP1 PUSH1 0x1 ADD PUSH3 0xDF3 JUMP JUMPDEST POP POP PUSH1 0x1 PUSH1 0x1 PUSH1 0xA0 SHL SUB DUP11 AND SWAP1 DUP9 ADD MSTORE DUP7 DUP2 SUB PUSH1 0x40 DUP9 ADD MSTORE PUSH3 0xEC3 DUP2 DUP10 PUSH3 0xD9C JUMP JUMPDEST SWAP11 SWAP10 POP POP POP POP POP POP POP POP POP POP JUMP JUMPDEST PUSH1 0x0 DUP3 MLOAD PUSH3 0xEE5 DUP2 DUP5 PUSH1 0x20 DUP8 ADD PUSH3 0xD76 JUMP JUMPDEST SWAP2 SWAP1 SWAP2 ADD SWAP3 SWAP2 POP POP JUMP JUMPDEST PUSH2 0x1BCA DUP1 PUSH3 0xEFF PUSH1 0x0 CODECOPY PUSH1 0x0 RETURN INVALID PUSH1 0x80 PUSH1 0x40 MSTORE PUSH1 0x4 CALLDATASIZE LT PUSH2 0xAB JUMPI PUSH1 0x0 CALLDATALOAD PUSH1 0xE0 SHR DUP1 PUSH4 0x8AB5150A GT PUSH2 0x64 JUMPI DUP1 PUSH4 0x8AB5150A EQ PUSH2 0x220 JUMPI DUP1 PUSH4 0x8DA5CB5B EQ PUSH2 0x235 JUMPI DUP1 PUSH4 0x91423765 EQ PUSH2 0x24A JUMPI DUP1 PUSH4 0xADFCA15E EQ PUSH2 0x26A JUMPI DUP1 PUSH4 0xCDFFACC6 EQ PUSH2 0x297 JUMPI DUP1 PUSH4 0xF2FDE38B EQ PUSH2 0x2DE JUMPI PUSH2 0xB2 JUMP JUMPDEST DUP1 PUSH4 0x1FFC9A7 EQ PUSH2 0x10C JUMPI DUP1 PUSH4 0x1F931C1C EQ PUSH2 0x17A JUMPI DUP1 PUSH4 0x2C408059 EQ PUSH2 0x19A JUMPI DUP1 PUSH4 0x52EF6B2C EQ PUSH2 0x1C7 JUMPI DUP1 PUSH4 0x79BA5097 EQ PUSH2 0x1E9 JUMPI DUP1 PUSH4 0x7A0ED627 EQ PUSH2 0x1FE JUMPI PUSH2 0xB2 JUMP JUMPDEST CALLDATASIZE PUSH2 0xB2 JUMPI STOP JUMPDEST PUSH1 0x0 PUSH2 0xBC PUSH2 0x2FE JUMP JUMPDEST SWAP1 POP PUSH1 0x1 PUSH1 0x1 PUSH1 0xA0 SHL SUB DUP2 AND EXTCODESIZE PUSH2 0xE6 JUMPI PUSH1 0x40 MLOAD PUSH4 0x21F27F0D PUSH1 0xE2 SHL DUP2 MSTORE PUSH1 0x4 ADD PUSH1 0x40 MLOAD DUP1 SWAP2 SUB SWAP1 REVERT JUMPDEST CALLDATASIZE PUSH1 0x0 DUP1 CALLDATACOPY PUSH1 0x0 DUP1 CALLDATASIZE PUSH1 0x0 DUP5 GAS DELEGATECALL RETURNDATASIZE PUSH1 0x0 DUP1 RETURNDATACOPY DUP1 DUP1 ISZERO PUSH2 0x105 JUMPI RETURNDATASIZE PUSH1 0x0 RETURN JUMPDEST RETURNDATASIZE PUSH1 0x0 REVERT JUMPDEST STOP JUMPDEST CALLVALUE DUP1 ISZERO PUSH2 0x118 JUMPI PUSH1 0x0 DUP1 REVERT JUMPDEST POP PUSH2 0x165 PUSH2 0x127 CALLDATASIZE PUSH1 0x4 PUSH2 0x153D JUMP JUMPDEST PUSH1 0x1 PUSH1 0x1 PUSH1 0xE0 SHL SUB NOT AND PUSH1 0x0 SWAP1 DUP2 MSTORE PUSH32 0xFC606C433378E3A7E0A6A531DEAC289B66CAA1B4AA8554FD4AB2C6F1570F92D8 PUSH1 0x20 MSTORE PUSH1 0x40 SWAP1 KECCAK256 SLOAD PUSH1 0xFF AND SWAP1 JUMP JUMPDEST PUSH1 0x40 MLOAD SWAP1 ISZERO ISZERO DUP2 MSTORE PUSH1 0x20 ADD JUMPDEST PUSH1 0x40 MLOAD DUP1 SWAP2 SUB SWAP1 RETURN JUMPDEST CALLVALUE DUP1 ISZERO PUSH2 0x186 JUMPI PUSH1 0x0 DUP1 REVERT JUMPDEST POP PUSH2 0x10A PUSH2 0x195 CALLDATASIZE PUSH1 0x4 PUSH2 0x15BF JUMP JUMPDEST PUSH2 0x30D JUMP JUMPDEST CALLVALUE DUP1 ISZERO PUSH2 0x1A6 JUMPI PUSH1 0x0 DUP1 REVERT JUMPDEST POP PUSH2 0x1AF PUSH2 0x397 JUMP JUMPDEST PUSH1 0x40 MLOAD PUSH1 0x1 PUSH1 0x1 PUSH1 0xA0 SHL SUB SWAP1 SWAP2 AND DUP2 MSTORE PUSH1 0x20 ADD PUSH2 0x171 JUMP JUMPDEST CALLVALUE DUP1 ISZERO PUSH2 0x1D3 JUMPI PUSH1 0x0 DUP1 REVERT JUMPDEST POP PUSH2 0x1DC PUSH2 0x3CA JUMP JUMPDEST PUSH1 0x40 MLOAD PUSH2 0x171 SWAP2 SWAP1 PUSH2 0x1671 JUMP JUMPDEST CALLVALUE DUP1 ISZERO PUSH2 0x1F5 JUMPI PUSH1 0x0 DUP1 REVERT JUMPDEST POP PUSH2 0x10A PUSH2 0x57C JUMP JUMPDEST CALLVALUE DUP1 ISZERO PUSH2 0x20A JUMPI PUSH1 0x0 DUP1 REVERT JUMPDEST POP PUSH2 0x213 PUSH2 0x5BF JUMP JUMPDEST PUSH1 0x40 MLOAD PUSH2 0x171 SWAP2 SWAP1 PUSH2 0x1703 JUMP JUMPDEST CALLVALUE DUP1 ISZERO PUSH2 0x22C JUMPI PUSH1 0x0 DUP1 REVERT JUMPDEST POP PUSH2 0x1AF PUSH2 0x9F6 JUMP JUMPDEST CALLVALUE DUP1 ISZERO PUSH2 0x241 JUMPI PUSH1 0x0 DUP1 REVERT JUMPDEST POP PUSH2 0x1AF PUSH2 0xA00 JUMP JUMPDEST CALLVALUE DUP1 ISZERO PUSH2 0x256 JUMPI PUSH1 0x0 DUP1 REVERT JUMPDEST POP PUSH2 0x10A PUSH2 0x265 CALLDATASIZE PUSH1 0x4 PUSH2 0x1780 JUMP JUMPDEST PUSH2 0xA0A JUMP JUMPDEST CALLVALUE DUP1 ISZERO PUSH2 0x276 JUMPI PUSH1 0x0 DUP1 REVERT JUMPDEST POP PUSH2 0x28A PUSH2 0x285 CALLDATASIZE PUSH1 0x4 PUSH2 0x1780 JUMP JUMPDEST PUSH2 0xA83 JUMP JUMPDEST PUSH1 0x40 MLOAD PUSH2 0x171 SWAP2 SWAP1 PUSH2 0x179B JUMP JUMPDEST CALLVALUE DUP1 ISZERO PUSH2 0x2A3 JUMPI PUSH1 0x0 DUP1 REVERT JUMPDEST POP PUSH2 0x1AF PUSH2 0x2B2 CALLDATASIZE PUSH1 0x4 PUSH2 0x153D JUMP JUMPDEST PUSH1 0x1 PUSH1 0x1 PUSH1 0xE0 SHL SUB NOT AND PUSH1 0x0 SWAP1 DUP2 MSTORE PUSH1 0x0 DUP1 MLOAD PUSH1 0x20 PUSH2 0x1B75 DUP4 CODECOPY DUP2 MLOAD SWAP2 MSTORE PUSH1 0x20 MSTORE PUSH1 0x40 SWAP1 KECCAK256 SLOAD PUSH1 0x60 SHR SWAP1 JUMP JUMPDEST CALLVALUE DUP1 ISZERO PUSH2 0x2EA JUMPI PUSH1 0x0 DUP1 REVERT JUMPDEST POP PUSH2 0x10A PUSH2 0x2F9 CALLDATASIZE PUSH1 0x4 PUSH2 0x1780 JUMP JUMPDEST PUSH2 0xBDE JUMP JUMPDEST PUSH1 0x0 PUSH2 0x308 PUSH2 0xC20 JUMP JUMPDEST SWAP1 POP SWAP1 JUMP JUMPDEST PUSH2 0x315 PUSH2 0xC81 JUMP JUMPDEST PUSH1 0x1 PUSH1 0x1 PUSH1 0xA0 SHL SUB AND CALLER PUSH1 0x1 PUSH1 0x1 PUSH1 0xA0 SHL SUB AND EQ PUSH2 0x346 JUMPI PUSH1 0x40 MLOAD PUSH4 0x2F7A8EE1 PUSH1 0xE0 SHL DUP2 MSTORE PUSH1 0x4 ADD PUSH1 0x40 MLOAD DUP1 SWAP2 SUB SWAP1 REVERT JUMPDEST PUSH2 0x390 PUSH2 0x353 DUP6 DUP8 PUSH2 0x1871 JUMP JUMPDEST DUP5 DUP5 DUP5 DUP1 DUP1 PUSH1 0x1F ADD PUSH1 0x20 DUP1 SWAP2 DIV MUL PUSH1 0x20 ADD PUSH1 0x40 MLOAD SWAP1 DUP2 ADD PUSH1 0x40 MSTORE DUP1 SWAP4 SWAP3 SWAP2 SWAP1 DUP2 DUP2 MSTORE PUSH1 0x20 ADD DUP4 DUP4 DUP1 DUP3 DUP5 CALLDATACOPY PUSH1 0x0 SWAP3 ADD SWAP2 SWAP1 SWAP2 MSTORE POP PUSH2 0xCB4 SWAP3 POP POP POP JUMP JUMPDEST POP POP POP POP POP JUMP JUMPDEST PUSH1 0x0 PUSH2 0x308 PUSH32 0x177481AC65E4292921C69F62D1CC7F57541261E5D61C8175CF4E36A01C9BFC96 SLOAD PUSH1 0x1 PUSH1 0x1 PUSH1 0xA0 SHL SUB AND SWAP1 JUMP JUMPDEST PUSH1 0x0 DUP1 MLOAD PUSH1 0x20 PUSH2 0x1B55 DUP4 CODECOPY DUP2 MLOAD SWAP2 MSTORE SLOAD PUSH1 0x60 SWAP1 PUSH1 0x0 DUP1 MLOAD PUSH1 0x20 PUSH2 0x1B75 DUP4 CODECOPY DUP2 MLOAD SWAP2 MSTORE SWAP1 PUSH2 0xFFFF AND PUSH8 0xFFFFFFFFFFFFFFFF DUP2 GT ISZERO PUSH2 0x409 JUMPI PUSH2 0x409 PUSH2 0x17DD JUMP JUMPDEST PUSH1 0x40 MLOAD SWAP1 DUP1 DUP3 MSTORE DUP1 PUSH1 0x20 MUL PUSH1 0x20 ADD DUP3 ADD PUSH1 0x40 MSTORE DUP1 ISZERO PUSH2 0x432 JUMPI DUP2 PUSH1 0x20 ADD PUSH1 0x20 DUP3 MUL DUP1 CALLDATASIZE DUP4 CALLDATACOPY ADD SWAP1 POP JUMPDEST POP SWAP2 POP PUSH1 0x0 DUP1 PUSH1 0x0 JUMPDEST PUSH1 0x1 DUP5 ADD SLOAD PUSH2 0xFFFF AND DUP3 LT ISZERO PUSH2 0x574 JUMPI PUSH1 0x0 DUP2 DUP2 MSTORE PUSH1 0x2 DUP6 ADD PUSH1 0x20 MSTORE PUSH1 0x40 DUP2 KECCAK256 SLOAD SWAP1 JUMPDEST PUSH1 0x8 DUP2 LT ISZERO PUSH2 0x55F JUMPI DUP4 PUSH2 0x471 DUP2 PUSH2 0x19BB JUMP JUMPDEST PUSH1 0x1 DUP9 ADD SLOAD SWAP1 SWAP6 POP PUSH2 0xFFFF AND DUP6 GT SWAP1 POP PUSH2 0x55F JUMPI PUSH1 0x5 DUP2 SWAP1 SHL DUP3 SWAP1 SHL PUSH1 0x1 PUSH1 0x1 PUSH1 0xE0 SHL SUB NOT DUP2 AND PUSH1 0x0 SWAP1 DUP2 MSTORE PUSH1 0x20 DUP9 SWAP1 MSTORE PUSH1 0x40 DUP2 KECCAK256 SLOAD PUSH1 0x60 SHR SWAP1 DUP1 JUMPDEST DUP9 DUP2 LT ISZERO PUSH2 0x502 JUMPI DUP11 DUP2 DUP2 MLOAD DUP2 LT PUSH2 0x4C7 JUMPI PUSH2 0x4C7 PUSH2 0x19D4 JUMP JUMPDEST PUSH1 0x20 MUL PUSH1 0x20 ADD ADD MLOAD PUSH1 0x1 PUSH1 0x1 PUSH1 0xA0 SHL SUB AND DUP4 PUSH1 0x1 PUSH1 0x1 PUSH1 0xA0 SHL SUB AND SUB PUSH2 0x4F0 JUMPI PUSH1 0x1 SWAP2 POP PUSH2 0x502 JUMP JUMPDEST DUP1 PUSH2 0x4FA DUP2 PUSH2 0x19BB JUMP JUMPDEST SWAP2 POP POP PUSH2 0x4AD JUMP JUMPDEST POP DUP1 ISZERO PUSH2 0x511 JUMPI POP POP POP PUSH2 0x54D JUMP JUMPDEST DUP2 DUP11 DUP10 DUP2 MLOAD DUP2 LT PUSH2 0x524 JUMPI PUSH2 0x524 PUSH2 0x19D4 JUMP JUMPDEST PUSH1 0x1 PUSH1 0x1 PUSH1 0xA0 SHL SUB SWAP1 SWAP3 AND PUSH1 0x20 SWAP3 DUP4 MUL SWAP2 SWAP1 SWAP2 ADD SWAP1 SWAP2 ADD MSTORE DUP8 PUSH2 0x546 DUP2 PUSH2 0x19BB JUMP JUMPDEST SWAP9 POP POP POP POP POP JUMPDEST DUP1 PUSH2 0x557 DUP2 PUSH2 0x19BB JUMP JUMPDEST SWAP2 POP POP PUSH2 0x45E JUMP JUMPDEST POP POP DUP1 DUP1 PUSH2 0x56C SWAP1 PUSH2 0x19BB JUMP JUMPDEST SWAP2 POP POP PUSH2 0x43B JUMP JUMPDEST POP POP DUP3 MSTORE POP SWAP1 JUMP JUMPDEST PUSH2 0x584 PUSH2 0xE70 JUMP JUMPDEST PUSH1 0x1 PUSH1 0x1 PUSH1 0xA0 SHL SUB AND CALLER PUSH1 0x1 PUSH1 0x1 PUSH1 0xA0 SHL SUB AND EQ PUSH2 0x5B5 JUMPI PUSH1 0x40 MLOAD PUSH4 0xEFD1052D PUSH1 0xE0 SHL DUP2 MSTORE PUSH1 0x4 ADD PUSH1 0x40 MLOAD DUP1 SWAP2 SUB SWAP1 REVERT JUMPDEST PUSH2 0x5BD PUSH2 0xE98 JUMP JUMPDEST JUMP JUMPDEST PUSH1 0x0 DUP1 MLOAD PUSH1 0x20 PUSH2 0x1B55 DUP4 CODECOPY DUP2 MLOAD SWAP2 MSTORE SLOAD PUSH1 0x60 SWAP1 PUSH1 0x0 DUP1 MLOAD PUSH1 0x20 PUSH2 0x1B75 DUP4 CODECOPY DUP2 MLOAD SWAP2 MSTORE SWAP1 PUSH2 0xFFFF AND PUSH8 0xFFFFFFFFFFFFFFFF DUP2 GT ISZERO PUSH2 0x5FE JUMPI PUSH2 0x5FE PUSH2 0x17DD JUMP JUMPDEST PUSH1 0x40 MLOAD SWAP1 DUP1 DUP3 MSTORE DUP1 PUSH1 0x20 MUL PUSH1 0x20 ADD DUP3 ADD PUSH1 0x40 MSTORE DUP1 ISZERO PUSH2 0x644 JUMPI DUP2 PUSH1 0x20 ADD JUMPDEST PUSH1 0x40 DUP1 MLOAD DUP1 DUP3 ADD SWAP1 SWAP2 MSTORE PUSH1 0x0 DUP2 MSTORE PUSH1 0x60 PUSH1 0x20 DUP3 ADD MSTORE DUP2 MSTORE PUSH1 0x20 ADD SWAP1 PUSH1 0x1 SWAP1 SUB SWAP1 DUP2 PUSH2 0x61C JUMPI SWAP1 POP JUMPDEST POP PUSH1 0x1 DUP3 ADD SLOAD SWAP1 SWAP3 POP PUSH1 0x0 SWAP1 PUSH2 0xFFFF AND PUSH8 0xFFFFFFFFFFFFFFFF DUP2 GT ISZERO PUSH2 0x66C JUMPI PUSH2 0x66C PUSH2 0x17DD JUMP JUMPDEST PUSH1 0x40 MLOAD SWAP1 DUP1 DUP3 MSTORE DUP1 PUSH1 0x20 MUL PUSH1 0x20 ADD DUP3 ADD PUSH1 0x40 MSTORE DUP1 ISZERO PUSH2 0x695 JUMPI DUP2 PUSH1 0x20 ADD PUSH1 0x20 DUP3 MUL DUP1 CALLDATASIZE DUP4 CALLDATACOPY ADD SWAP1 POP JUMPDEST POP SWAP1 POP PUSH1 0x0 DUP1 PUSH1 0x0 JUMPDEST PUSH1 0x1 DUP6 ADD SLOAD PUSH2 0xFFFF AND DUP3 LT ISZERO PUSH2 0x984 JUMPI PUSH1 0x0 DUP2 DUP2 MSTORE PUSH1 0x2 DUP7 ADD PUSH1 0x20 MSTORE PUSH1 0x40 DUP2 KECCAK256 SLOAD SWAP1 JUMPDEST PUSH1 0x8 DUP2 LT ISZERO PUSH2 0x96F JUMPI DUP4 PUSH2 0x6D4 DUP2 PUSH2 0x19BB JUMP JUMPDEST PUSH1 0x1 DUP10 ADD SLOAD SWAP1 SWAP6 POP PUSH2 0xFFFF AND DUP6 GT SWAP1 POP PUSH2 0x96F JUMPI PUSH1 0x5 DUP2 SWAP1 SHL DUP3 SWAP1 SHL PUSH1 0x1 PUSH1 0x1 PUSH1 0xE0 SHL SUB NOT DUP2 AND PUSH1 0x0 SWAP1 DUP2 MSTORE PUSH1 0x20 DUP10 SWAP1 MSTORE PUSH1 0x40 DUP2 KECCAK256 SLOAD PUSH1 0x60 SHR SWAP1 DUP1 JUMPDEST DUP9 DUP2 LT ISZERO PUSH2 0x82D JUMPI DUP3 PUSH1 0x1 PUSH1 0x1 PUSH1 0xA0 SHL SUB AND DUP13 DUP3 DUP2 MLOAD DUP2 LT PUSH2 0x734 JUMPI PUSH2 0x734 PUSH2 0x19D4 JUMP JUMPDEST PUSH1 0x20 MUL PUSH1 0x20 ADD ADD MLOAD PUSH1 0x0 ADD MLOAD PUSH1 0x1 PUSH1 0x1 PUSH1 0xA0 SHL SUB AND SUB PUSH2 0x81B JUMPI DUP4 DUP13 DUP3 DUP2 MLOAD DUP2 LT PUSH2 0x761 JUMPI PUSH2 0x761 PUSH2 0x19D4 JUMP JUMPDEST PUSH1 0x20 MUL PUSH1 0x20 ADD ADD MLOAD PUSH1 0x20 ADD MLOAD DUP12 DUP4 DUP2 MLOAD DUP2 LT PUSH2 0x77F JUMPI PUSH2 0x77F PUSH2 0x19D4 JUMP JUMPDEST PUSH1 0x20 MUL PUSH1 0x20 ADD ADD MLOAD PUSH1 0xFF AND DUP2 MLOAD DUP2 LT PUSH2 0x79A JUMPI PUSH2 0x79A PUSH2 0x19D4 JUMP JUMPDEST PUSH1 0x20 MUL PUSH1 0x20 ADD ADD SWAP1 PUSH1 0x1 PUSH1 0x1 PUSH1 0xE0 SHL SUB NOT AND SWAP1 DUP2 PUSH1 0x1 PUSH1 0x1 PUSH1 0xE0 SHL SUB NOT AND DUP2 MSTORE POP POP PUSH1 0xFF DUP11 DUP3 DUP2 MLOAD DUP2 LT PUSH2 0x7D0 JUMPI PUSH2 0x7D0 PUSH2 0x19D4 JUMP JUMPDEST PUSH1 0x20 MUL PUSH1 0x20 ADD ADD MLOAD PUSH1 0xFF AND LT PUSH2 0x7E5 JUMPI PUSH1 0x0 DUP1 REVERT JUMPDEST DUP10 DUP2 DUP2 MLOAD DUP2 LT PUSH2 0x7F7 JUMPI PUSH2 0x7F7 PUSH2 0x19D4 JUMP JUMPDEST PUSH1 0x20 MUL PUSH1 0x20 ADD ADD DUP1 MLOAD DUP1 SWAP2 SWAP1 PUSH2 0x80C SWAP1 PUSH2 0x19EA JUMP JUMPDEST PUSH1 0xFF AND SWAP1 MSTORE POP PUSH1 0x1 SWAP2 POP PUSH2 0x82D JUMP JUMPDEST DUP1 PUSH2 0x825 DUP2 PUSH2 0x19BB JUMP JUMPDEST SWAP2 POP POP PUSH2 0x710 JUMP JUMPDEST POP DUP1 ISZERO PUSH2 0x83C JUMPI POP POP POP PUSH2 0x95D JUMP JUMPDEST DUP2 DUP12 DUP10 DUP2 MLOAD DUP2 LT PUSH2 0x84F JUMPI PUSH2 0x84F PUSH2 0x19D4 JUMP JUMPDEST PUSH1 0x20 SWAP1 DUP2 MUL SWAP2 SWAP1 SWAP2 ADD ADD MLOAD PUSH1 0x1 PUSH1 0x1 PUSH1 0xA0 SHL SUB SWAP1 SWAP2 AND SWAP1 MSTORE PUSH1 0x1 DUP11 ADD SLOAD PUSH2 0xFFFF AND PUSH8 0xFFFFFFFFFFFFFFFF DUP2 GT ISZERO PUSH2 0x888 JUMPI PUSH2 0x888 PUSH2 0x17DD JUMP JUMPDEST PUSH1 0x40 MLOAD SWAP1 DUP1 DUP3 MSTORE DUP1 PUSH1 0x20 MUL PUSH1 0x20 ADD DUP3 ADD PUSH1 0x40 MSTORE DUP1 ISZERO PUSH2 0x8B1 JUMPI DUP2 PUSH1 0x20 ADD PUSH1 0x20 DUP3 MUL DUP1 CALLDATASIZE DUP4 CALLDATACOPY ADD SWAP1 POP JUMPDEST POP DUP12 DUP10 DUP2 MLOAD DUP2 LT PUSH2 0x8C4 JUMPI PUSH2 0x8C4 PUSH2 0x19D4 JUMP JUMPDEST PUSH1 0x20 MUL PUSH1 0x20 ADD ADD MLOAD PUSH1 0x20 ADD DUP2 SWAP1 MSTORE POP DUP3 DUP12 DUP10 DUP2 MLOAD DUP2 LT PUSH2 0x8E6 JUMPI PUSH2 0x8E6 PUSH2 0x19D4 JUMP JUMPDEST PUSH1 0x20 MUL PUSH1 0x20 ADD ADD MLOAD PUSH1 0x20 ADD MLOAD PUSH1 0x0 DUP2 MLOAD DUP2 LT PUSH2 0x904 JUMPI PUSH2 0x904 PUSH2 0x19D4 JUMP JUMPDEST PUSH1 0x20 MUL PUSH1 0x20 ADD ADD SWAP1 PUSH1 0x1 PUSH1 0x1 PUSH1 0xE0 SHL SUB NOT AND SWAP1 DUP2 PUSH1 0x1 PUSH1 0x1 PUSH1 0xE0 SHL SUB NOT AND DUP2 MSTORE POP POP PUSH1 0x1 DUP10 DUP10 DUP2 MLOAD DUP2 LT PUSH2 0x93A JUMPI PUSH2 0x93A PUSH2 0x19D4 JUMP JUMPDEST PUSH1 0xFF SWAP1 SWAP3 AND PUSH1 0x20 SWAP3 DUP4 MUL SWAP2 SWAP1 SWAP2 ADD SWAP1 SWAP2 ADD MSTORE DUP8 PUSH2 0x956 DUP2 PUSH2 0x19BB JUMP JUMPDEST SWAP9 POP POP POP POP POP JUMPDEST DUP1 PUSH2 0x967 DUP2 PUSH2 0x19BB JUMP JUMPDEST SWAP2 POP POP PUSH2 0x6C1 JUMP JUMPDEST POP POP DUP1 DUP1 PUSH2 0x97C SWAP1 PUSH2 0x19BB JUMP JUMPDEST SWAP2 POP POP PUSH2 0x69E JUMP JUMPDEST POP PUSH1 0x0 JUMPDEST DUP3 DUP2 LT ISZERO PUSH2 0x9EB JUMPI PUSH1 0x0 DUP5 DUP3 DUP2 MLOAD DUP2 LT PUSH2 0x9A4 JUMPI PUSH2 0x9A4 PUSH2 0x19D4 JUMP JUMPDEST PUSH1 0x20 MUL PUSH1 0x20 ADD ADD MLOAD PUSH1 0xFF AND SWAP1 POP PUSH1 0x0 DUP8 DUP4 DUP2 MLOAD DUP2 LT PUSH2 0x9C5 JUMPI PUSH2 0x9C5 PUSH2 0x19D4 JUMP JUMPDEST PUSH1 0x20 MUL PUSH1 0x20 ADD ADD MLOAD PUSH1 0x20 ADD MLOAD SWAP1 POP DUP2 DUP2 MSTORE POP POP DUP1 DUP1 PUSH2 0x9E3 SWAP1 PUSH2 0x19BB JUMP JUMPDEST SWAP2 POP POP PUSH2 0x988 JUMP JUMPDEST POP DUP2 DUP6 MSTORE POP POP POP POP SWAP1 JUMP JUMPDEST PUSH1 0x0 PUSH2 0x308 PUSH2 0xE70 JUMP JUMPDEST PUSH1 0x0 PUSH2 0x308 PUSH2 0xC81 JUMP JUMPDEST PUSH2 0xA12 PUSH2 0xC81 JUMP JUMPDEST PUSH1 0x1 PUSH1 0x1 PUSH1 0xA0 SHL SUB AND CALLER PUSH1 0x1 PUSH1 0x1 PUSH1 0xA0 SHL SUB AND EQ PUSH2 0xA43 JUMPI PUSH1 0x40 MLOAD PUSH4 0x2F7A8EE1 PUSH1 0xE0 SHL DUP2 MSTORE PUSH1 0x4 ADD PUSH1 0x40 MLOAD DUP1 SWAP2 SUB SWAP1 REVERT JUMPDEST PUSH32 0x177481AC65E4292921C69F62D1CC7F57541261E5D61C8175CF4E36A01C9BFC96 DUP1 SLOAD PUSH1 0x1 PUSH1 0x1 PUSH1 0xA0 SHL SUB NOT AND PUSH1 0x1 PUSH1 0x1 PUSH1 0xA0 SHL SUB DUP4 AND OR SWAP1 SSTORE POP JUMP JUMPDEST POP JUMP JUMPDEST PUSH1 0x0 DUP1 MLOAD PUSH1 0x20 PUSH2 0x1B55 DUP4 CODECOPY DUP2 MLOAD SWAP2 MSTORE SLOAD PUSH1 0x60 SWAP1 PUSH1 0x0 DUP1 MLOAD PUSH1 0x20 PUSH2 0x1B75 DUP4 CODECOPY DUP2 MLOAD SWAP2 MSTORE SWAP1 PUSH2 0xFFFF AND PUSH8 0xFFFFFFFFFFFFFFFF DUP2 GT ISZERO PUSH2 0xAC2 JUMPI PUSH2 0xAC2 PUSH2 0x17DD JUMP JUMPDEST PUSH1 0x40 MLOAD SWAP1 DUP1 DUP3 MSTORE DUP1 PUSH1 0x20 MUL PUSH1 0x20 ADD DUP3 ADD PUSH1 0x40 MSTORE DUP1 ISZERO PUSH2 0xAEB JUMPI DUP2 PUSH1 0x20 ADD PUSH1 0x20 DUP3 MUL DUP1 CALLDATASIZE DUP4 CALLDATACOPY ADD SWAP1 POP JUMPDEST POP SWAP2 POP PUSH1 0x0 DUP1 PUSH1 0x0 JUMPDEST PUSH1 0x1 DUP5 ADD SLOAD PUSH2 0xFFFF AND DUP3 LT ISZERO PUSH2 0xBD4 JUMPI PUSH1 0x0 DUP2 DUP2 MSTORE PUSH1 0x2 DUP6 ADD PUSH1 0x20 MSTORE PUSH1 0x40 DUP2 KECCAK256 SLOAD SWAP1 JUMPDEST PUSH1 0x8 DUP2 LT ISZERO PUSH2 0xBBF JUMPI DUP4 PUSH2 0xB2A DUP2 PUSH2 0x19BB JUMP JUMPDEST PUSH1 0x1 DUP9 ADD SLOAD SWAP1 SWAP6 POP PUSH2 0xFFFF AND DUP6 GT SWAP1 POP PUSH2 0xBBF JUMPI PUSH1 0x5 DUP2 SWAP1 SHL DUP3 SWAP1 SHL PUSH1 0x1 PUSH1 0x1 PUSH1 0xE0 SHL SUB NOT DUP2 AND PUSH1 0x0 SWAP1 DUP2 MSTORE PUSH1 0x20 DUP9 SWAP1 MSTORE PUSH1 0x40 SWAP1 KECCAK256 SLOAD PUSH1 0x60 SHR PUSH1 0x1 PUSH1 0x1 PUSH1 0xA0 SHL SUB DUP11 AND SUB PUSH2 0xBAC JUMPI DUP1 DUP9 DUP8 DUP2 MLOAD DUP2 LT PUSH2 0xB85 JUMPI PUSH2 0xB85 PUSH2 0x19D4 JUMP JUMPDEST PUSH1 0x1 PUSH1 0x1 PUSH1 0xE0 SHL SUB NOT SWAP1 SWAP3 AND PUSH1 0x20 SWAP3 DUP4 MUL SWAP2 SWAP1 SWAP2 ADD SWAP1 SWAP2 ADD MSTORE DUP6 PUSH2 0xBA8 DUP2 PUSH2 0x19BB JUMP JUMPDEST SWAP7 POP POP JUMPDEST POP DUP1 PUSH2 0xBB7 DUP2 PUSH2 0x19BB JUMP JUMPDEST SWAP2 POP POP PUSH2 0xB17 JUMP JUMPDEST POP POP DUP1 DUP1 PUSH2 0xBCC SWAP1 PUSH2 0x19BB JUMP JUMPDEST SWAP2 POP POP PUSH2 0xAF4 JUMP JUMPDEST POP POP DUP3 MSTORE POP SWAP2 SWAP1 POP JUMP JUMPDEST PUSH2 0xBE6 PUSH2 0xC81 JUMP JUMPDEST PUSH1 0x1 PUSH1 0x1 PUSH1 0xA0 SHL SUB AND CALLER PUSH1 0x1 PUSH1 0x1 PUSH1 0xA0 SHL SUB AND EQ PUSH2 0xC17 JUMPI PUSH1 0x40 MLOAD PUSH4 0x2F7A8EE1 PUSH1 0xE0 SHL DUP2 MSTORE PUSH1 0x4 ADD PUSH1 0x40 MLOAD DUP1 SWAP2 SUB SWAP1 REVERT JUMPDEST PUSH2 0xA80 DUP2 PUSH2 0xED2 JUMP JUMPDEST PUSH1 0x0 DUP1 CALLDATALOAD PUSH1 0x1 PUSH1 0x1 PUSH1 0xE0 SHL SUB NOT AND DUP2 MSTORE PUSH1 0x0 DUP1 MLOAD PUSH1 0x20 PUSH2 0x1B75 DUP4 CODECOPY DUP2 MLOAD SWAP2 MSTORE PUSH1 0x20 MSTORE PUSH1 0x40 SWAP1 KECCAK256 SLOAD PUSH1 0x60 SHR DUP1 PUSH2 0xC7E JUMPI POP PUSH32 0x177481AC65E4292921C69F62D1CC7F57541261E5D61C8175CF4E36A01C9BFC96 SLOAD PUSH1 0x1 PUSH1 0x1 PUSH1 0xA0 SHL SUB AND SWAP1 JUMP JUMPDEST SWAP1 JUMP JUMPDEST PUSH1 0x0 PUSH32 0x8A22373512790C48B83A1FE2EFDD2888D4A917BCDC24D0ADF63E60F671680460 JUMPDEST SLOAD PUSH1 0x1 PUSH1 0x1 PUSH1 0xA0 SHL SUB AND SWAP2 SWAP1 POP JUMP JUMPDEST PUSH1 0x0 DUP1 MLOAD PUSH1 0x20 PUSH2 0x1B55 DUP4 CODECOPY DUP2 MLOAD SWAP2 MSTORE SLOAD PUSH1 0x0 DUP1 MLOAD PUSH1 0x20 PUSH2 0x1B75 DUP4 CODECOPY DUP2 MLOAD SWAP2 MSTORE SWAP1 PUSH2 0xFFFF DUP2 AND SWAP1 DUP2 SWAP1 PUSH1 0x0 SWAP1 PUSH1 0x7 AND ISZERO PUSH2 0xCFF JUMPI POP PUSH1 0x3 DUP2 SWAP1 SHR PUSH1 0x0 SWAP1 DUP2 MSTORE PUSH1 0x2 DUP5 ADD PUSH1 0x20 MSTORE PUSH1 0x40 SWAP1 KECCAK256 SLOAD JUMPDEST PUSH1 0x0 JUMPDEST DUP8 MLOAD DUP2 LT ISZERO PUSH2 0xDE4 JUMPI PUSH1 0x0 DUP9 DUP3 DUP2 MLOAD DUP2 LT PUSH2 0xD1F JUMPI PUSH2 0xD1F PUSH2 0x19D4 JUMP JUMPDEST PUSH1 0x20 MUL PUSH1 0x20 ADD ADD MLOAD SWAP1 POP PUSH1 0x0 DUP2 PUSH1 0x20 ADD MLOAD SWAP1 POP DUP2 PUSH1 0x40 ADD MLOAD MLOAD PUSH1 0x0 SUB PUSH2 0xD58 JUMPI PUSH1 0x40 MLOAD PUSH4 0xEB6C3AEB PUSH1 0xE0 SHL DUP2 MSTORE PUSH1 0x4 ADD PUSH1 0x40 MLOAD DUP1 SWAP2 SUB SWAP1 REVERT JUMPDEST PUSH1 0x0 DUP2 PUSH1 0x2 DUP2 GT ISZERO PUSH2 0xD6C JUMPI PUSH2 0xD6C PUSH2 0x1A09 JUMP JUMPDEST SUB PUSH2 0xD87 JUMPI PUSH2 0xD7D DUP8 DUP7 DUP7 DUP6 PUSH2 0xF15 JUMP JUMPDEST SWAP1 SWAP6 POP SWAP4 POP PUSH2 0xDDA JUMP JUMPDEST PUSH1 0x1 DUP2 PUSH1 0x2 DUP2 GT ISZERO PUSH2 0xD9B JUMPI PUSH2 0xD9B PUSH2 0x1A09 JUMP JUMPDEST SUB PUSH2 0xDAF JUMPI PUSH2 0xDAA DUP8 DUP4 PUSH2 0x1054 JUMP JUMPDEST PUSH2 0xDDA JUMP JUMPDEST PUSH1 0x2 DUP2 PUSH1 0x2 DUP2 GT ISZERO PUSH2 0xDC3 JUMPI PUSH2 0xDC3 PUSH2 0x1A09 JUMP JUMPDEST SUB PUSH2 0xDDA JUMPI PUSH2 0xDD4 DUP8 DUP7 DUP7 DUP6 PUSH2 0x119F JUMP JUMPDEST SWAP1 SWAP6 POP SWAP4 POP JUMPDEST POP POP PUSH1 0x1 ADD PUSH2 0xD02 JUMP JUMPDEST POP DUP3 DUP3 EQ PUSH2 0xE00 JUMPI PUSH1 0x1 DUP5 ADD DUP1 SLOAD PUSH2 0xFFFF NOT AND PUSH2 0xFFFF DUP5 AND OR SWAP1 SSTORE JUMPDEST PUSH1 0x7 DUP3 AND ISZERO PUSH2 0xE22 JUMPI PUSH1 0x3 DUP3 SWAP1 SHR PUSH1 0x0 SWAP1 DUP2 MSTORE PUSH1 0x2 DUP6 ADD PUSH1 0x20 MSTORE PUSH1 0x40 SWAP1 KECCAK256 DUP2 SWAP1 SSTORE JUMPDEST PUSH32 0x8FAA70878671CCD212D20771B795C50AF8FD3FF6CF27F4BDE57E5D4DE0AEB673 DUP8 DUP8 DUP8 PUSH1 0x40 MLOAD PUSH2 0xE55 SWAP4 SWAP3 SWAP2 SWAP1 PUSH2 0x1A6F JUMP JUMPDEST PUSH1 0x40 MLOAD DUP1 SWAP2 SUB SWAP1 LOG1 PUSH2 0xE67 DUP7 DUP7 PUSH2 0x13C2 JUMP JUMPDEST POP POP POP POP POP POP POP JUMP JUMPDEST PUSH1 0x0 PUSH32 0x24AA1F7B31FD188A8D3ECFB06BC55C806040E59B03BD4396283442FCE6617890 PUSH2 0xCA5 JUMP JUMPDEST PUSH2 0xEA1 CALLER PUSH2 0x14A6 JUMP JUMPDEST PUSH32 0x24AA1F7B31FD188A8D3ECFB06BC55C806040E59B03BD4396283442FCE6617890 DUP1 SLOAD PUSH1 0x1 PUSH1 0x1 PUSH1 0xA0 SHL SUB NOT AND SWAP1 SSTORE JUMP JUMPDEST PUSH32 0x24AA1F7B31FD188A8D3ECFB06BC55C806040E59B03BD4396283442FCE6617890 DUP1 SLOAD PUSH1 0x1 PUSH1 0x1 PUSH1 0xA0 SHL SUB NOT AND PUSH1 0x1 PUSH1 0x1 PUSH1 0xA0 SHL SUB DUP4 AND OR SWAP1 SSTORE PUSH2 0xA80 DUP2 DUP2 DUP2 DUP2 JUMP JUMPDEST DUP1 MLOAD PUSH1 0x0 SWAP1 DUP2 SWAP1 PUSH1 0x1 PUSH1 0x1 PUSH1 0xA0 SHL SUB AND ADDRESS EQ DUP1 ISZERO SWAP1 PUSH2 0xF3D JUMPI POP DUP3 MLOAD PUSH1 0x1 PUSH1 0x1 PUSH1 0xA0 SHL SUB AND EXTCODESIZE ISZERO JUMPDEST ISZERO PUSH2 0xF5B JUMPI PUSH1 0x40 MLOAD PUSH4 0x3DDC5CAB PUSH1 0xE2 SHL DUP2 MSTORE PUSH1 0x4 ADD PUSH1 0x40 MLOAD DUP1 SWAP2 SUB SWAP1 REVERT JUMPDEST PUSH1 0x0 JUMPDEST DUP4 PUSH1 0x40 ADD MLOAD MLOAD DUP2 LT ISZERO PUSH2 0x1047 JUMPI PUSH1 0x0 DUP5 PUSH1 0x40 ADD MLOAD DUP3 DUP2 MLOAD DUP2 LT PUSH2 0xF83 JUMPI PUSH2 0xF83 PUSH2 0x19D4 JUMP JUMPDEST PUSH1 0x20 SWAP1 DUP2 MUL SWAP2 SWAP1 SWAP2 ADD DUP2 ADD MLOAD PUSH1 0x1 PUSH1 0x1 PUSH1 0xE0 SHL SUB NOT DUP2 AND PUSH1 0x0 SWAP1 DUP2 MSTORE SWAP2 DUP11 SWAP1 MSTORE PUSH1 0x40 SWAP1 SWAP2 KECCAK256 SLOAD SWAP1 SWAP2 POP PUSH1 0x60 DUP2 SWAP1 SHR ISZERO PUSH2 0xFCF JUMPI PUSH1 0x40 MLOAD PUSH4 0x4923A771 PUSH1 0xE1 SHL DUP2 MSTORE PUSH1 0x4 ADD PUSH1 0x40 MLOAD DUP1 SWAP2 SUB SWAP1 REVERT JUMPDEST DUP6 MLOAD PUSH1 0x1 PUSH1 0x1 PUSH1 0xE0 SHL SUB NOT DUP4 DUP2 AND PUSH1 0x0 DUP2 DUP2 MSTORE PUSH1 0x20 DUP14 SWAP1 MSTORE PUSH1 0x40 SWAP1 KECCAK256 PUSH1 0x60 SWAP4 SWAP1 SWAP4 SHL PUSH1 0x1 PUSH1 0x1 PUSH1 0x60 SHL SUB NOT AND DUP12 OR SWAP1 SWAP3 SSTORE PUSH1 0x5 DUP11 SWAP1 SHL PUSH1 0xE0 SWAP1 DUP2 AND SWAP3 DUP4 SHR SWAP2 DUP4 SHR NOT SWAP10 SWAP1 SWAP10 AND OR SWAP8 DUP2 SWAP1 SUB PUSH2 0x1038 JUMPI PUSH1 0x3 DUP10 SWAP1 SHR PUSH1 0x0 SWAP1 DUP2 MSTORE PUSH1 0x2 DUP12 ADD PUSH1 0x20 MSTORE PUSH1 0x40 DUP2 KECCAK256 SWAP9 SWAP1 SWAP9 SSTORE JUMPDEST POP POP POP PUSH1 0x1 SWAP6 DUP7 ADD SWAP6 ADD PUSH2 0xF5E JUMP JUMPDEST POP SWAP4 SWAP6 SWAP3 SWAP5 POP SWAP2 SWAP3 POP POP POP JUMP JUMPDEST DUP1 MLOAD PUSH1 0x1 PUSH1 0x1 PUSH1 0xA0 SHL SUB AND EXTCODESIZE PUSH2 0x107D JUMPI PUSH1 0x40 MLOAD PUSH4 0x3DDC5CAB PUSH1 0xE2 SHL DUP2 MSTORE PUSH1 0x4 ADD PUSH1 0x40 MLOAD DUP1 SWAP2 SUB SWAP1 REVERT JUMPDEST PUSH1 0x0 JUMPDEST DUP2 PUSH1 0x40 ADD MLOAD MLOAD DUP2 LT ISZERO PUSH2 0x119A JUMPI PUSH1 0x0 DUP3 PUSH1 0x40 ADD MLOAD DUP3 DUP2 MLOAD DUP2 LT PUSH2 0x10A5 JUMPI PUSH2 0x10A5 PUSH2 0x19D4 JUMP JUMPDEST PUSH1 0x20 SWAP1 DUP2 MUL SWAP2 SWAP1 SWAP2 ADD DUP2 ADD MLOAD PUSH1 0x1 PUSH1 0x1 PUSH1 0xE0 SHL SUB NOT DUP2 AND PUSH1 0x0 SWAP1 DUP2 MSTORE SWAP2 DUP7 SWAP1 MSTORE PUSH1 0x40 SWAP1 SWAP2 KECCAK256 SLOAD SWAP1 SWAP2 POP PUSH1 0x60 DUP2 SWAP1 SHR DUP1 PUSH2 0x10F1 JUMPI PUSH1 0x40 MLOAD PUSH4 0x37E25A97 PUSH1 0xE1 SHL DUP2 MSTORE PUSH1 0x4 ADD PUSH1 0x40 MLOAD DUP1 SWAP2 SUB SWAP1 REVERT JUMPDEST ADDRESS PUSH1 0x1 PUSH1 0x1 PUSH1 0xA0 SHL SUB DUP3 AND SUB PUSH2 0x111A JUMPI PUSH1 0x40 MLOAD PUSH4 0xE9835731 PUSH1 0xE0 SHL DUP2 MSTORE PUSH1 0x4 ADD PUSH1 0x40 MLOAD DUP1 SWAP2 SUB SWAP1 REVERT JUMPDEST DUP5 PUSH1 0x0 ADD MLOAD PUSH1 0x1 PUSH1 0x1 PUSH1 0xA0 SHL SUB AND DUP2 PUSH1 0x1 PUSH1 0x1 PUSH1 0xA0 SHL SUB AND SUB PUSH2 0x1150 JUMPI PUSH1 0x40 MLOAD PUSH4 0x30BAABF3 PUSH1 0xE1 SHL DUP2 MSTORE PUSH1 0x4 ADD PUSH1 0x40 MLOAD DUP1 SWAP2 SUB SWAP1 REVERT JUMPDEST POP DUP4 MLOAD PUSH1 0x1 PUSH1 0x1 PUSH1 0xE0 SHL SUB NOT SWAP3 SWAP1 SWAP3 AND PUSH1 0x0 SWAP1 DUP2 MSTORE PUSH1 0x20 DUP7 SWAP1 MSTORE PUSH1 0x40 SWAP1 KECCAK256 PUSH1 0x60 SWAP3 SWAP1 SWAP3 SHL PUSH1 0x1 PUSH1 0x1 PUSH1 0x60 SHL SUB NOT AND PUSH12 0xFFFFFFFFFFFFFFFFFFFFFFFF SWAP2 SWAP1 SWAP2 AND OR SWAP1 SSTORE PUSH1 0x1 ADD PUSH2 0x1080 JUMP JUMPDEST POP POP POP JUMP JUMPDEST DUP1 MLOAD PUSH1 0x0 SWAP1 DUP2 SWAP1 PUSH1 0x1 PUSH1 0x1 PUSH1 0xA0 SHL SUB AND ISZERO PUSH2 0x11CD JUMPI PUSH1 0x40 MLOAD PUSH4 0x3AB34909 PUSH1 0xE2 SHL DUP2 MSTORE PUSH1 0x4 ADD PUSH1 0x40 MLOAD DUP1 SWAP2 SUB SWAP1 REVERT JUMPDEST PUSH1 0x3 DUP6 SWAP1 SHR PUSH1 0x7 DUP7 AND PUSH1 0x0 JUMPDEST DUP6 PUSH1 0x40 ADD MLOAD MLOAD DUP2 LT ISZERO PUSH2 0x13AE JUMPI PUSH1 0x0 DUP7 PUSH1 0x40 ADD MLOAD DUP3 DUP2 MLOAD DUP2 LT PUSH2 0x11FE JUMPI PUSH2 0x11FE PUSH2 0x19D4 JUMP JUMPDEST PUSH1 0x20 SWAP1 DUP2 MUL SWAP2 SWAP1 SWAP2 ADD DUP2 ADD MLOAD PUSH1 0x1 PUSH1 0x1 PUSH1 0xE0 SHL SUB NOT DUP2 AND PUSH1 0x0 SWAP1 DUP2 MSTORE SWAP2 DUP13 SWAP1 MSTORE PUSH1 0x40 SWAP1 SWAP2 KECCAK256 SLOAD SWAP1 SWAP2 POP PUSH1 0x60 DUP2 SWAP1 SHR PUSH2 0x1249 JUMPI PUSH1 0x40 MLOAD PUSH4 0x37E25A97 PUSH1 0xE1 SHL DUP2 MSTORE PUSH1 0x4 ADD PUSH1 0x40 MLOAD DUP1 SWAP2 SUB SWAP1 REVERT JUMPDEST ADDRESS PUSH1 0x60 DUP3 SWAP1 SHR SUB PUSH2 0x126D JUMPI PUSH1 0x40 MLOAD PUSH4 0xE9835731 PUSH1 0xE0 SHL DUP2 MSTORE PUSH1 0x4 ADD PUSH1 0x40 MLOAD DUP1 SWAP2 SUB SWAP1 REVERT JUMPDEST PUSH1 0x0 DUP10 SWAP1 SUB PUSH2 0x1299 JUMPI PUSH1 0x0 NOT SWAP1 SWAP5 ADD PUSH1 0x0 DUP2 DUP2 MSTORE PUSH1 0x2 DUP13 ADD PUSH1 0x20 MSTORE PUSH1 0x40 SWAP1 KECCAK256 SLOAD SWAP9 POP SWAP4 PUSH1 0x7 SWAP4 POP PUSH2 0x12A1 JUMP JUMPDEST PUSH1 0x0 NOT SWAP1 SWAP4 ADD SWAP3 JUMPDEST PUSH1 0x5 DUP5 SWAP1 SHL DUP10 SWAP1 SHL PUSH1 0x0 DUP1 PUSH1 0x1 PUSH1 0x1 PUSH1 0xE0 SHL SUB NOT DUP1 DUP5 AND SWAP1 DUP7 AND EQ PUSH2 0x12F8 JUMPI PUSH1 0x1 PUSH1 0x1 PUSH1 0xE0 SHL SUB NOT DUP4 AND PUSH1 0x0 SWAP1 DUP2 MSTORE PUSH1 0x20 DUP16 SWAP1 MSTORE PUSH1 0x40 SWAP1 KECCAK256 DUP1 SLOAD PUSH1 0x1 PUSH1 0x1 PUSH1 0x60 SHL SUB NOT AND PUSH12 0xFFFFFFFFFFFFFFFFFFFFFFFF DUP7 AND OR SWAP1 SSTORE JUMPDEST POP POP PUSH1 0x1 PUSH1 0x1 PUSH1 0xE0 SHL SUB NOT DUP4 AND PUSH1 0x0 SWAP1 DUP2 MSTORE PUSH1 0x20 DUP14 SWAP1 MSTORE PUSH1 0x40 DUP2 KECCAK256 SSTORE PUSH2 0x1FFF PUSH1 0x3 DUP4 SWAP1 SHR AND PUSH1 0xE0 PUSH1 0x5 DUP5 SWAP1 SHL AND DUP8 DUP3 EQ PUSH2 0x135B JUMPI PUSH1 0x0 DUP3 DUP2 MSTORE PUSH1 0x2 DUP16 ADD PUSH1 0x20 MSTORE PUSH1 0x40 SWAP1 KECCAK256 DUP1 SLOAD PUSH1 0x1 PUSH1 0x1 PUSH1 0xE0 SHL SUB NOT DUP1 DUP5 SHR NOT SWAP1 SWAP2 AND SWAP1 DUP6 AND DUP4 SHR OR SWAP1 SSTORE PUSH2 0x137F JUMP JUMPDEST DUP1 DUP4 PUSH1 0x1 PUSH1 0x1 PUSH1 0xE0 SHL SUB NOT AND SWAP1 SHR DUP2 PUSH1 0x1 PUSH1 0x1 PUSH1 0xE0 SHL SUB NOT PUSH1 0x0 SHL SWAP1 SHR NOT DUP14 AND OR SWAP12 POP JUMPDEST DUP7 PUSH1 0x0 SUB PUSH2 0x139D JUMPI PUSH1 0x0 DUP9 DUP2 MSTORE PUSH1 0x2 DUP16 ADD PUSH1 0x20 MSTORE PUSH1 0x40 DUP2 KECCAK256 DUP2 SWAP1 SSTORE SWAP12 POP JUMPDEST POP POP PUSH1 0x1 SWAP1 SWAP4 ADD SWAP3 POP PUSH2 0x11D9 SWAP2 POP POP JUMP JUMPDEST POP PUSH1 0x3 SWAP2 SWAP1 SWAP2 SHL OR SWAP7 SWAP4 SWAP6 POP SWAP3 SWAP4 POP POP POP POP JUMP JUMPDEST DUP1 MLOAD ISZERO PUSH1 0x1 PUSH1 0x1 PUSH1 0xA0 SHL SUB DUP4 AND ISZERO EQ PUSH2 0x13EE JUMPI PUSH1 0x40 MLOAD PUSH4 0x26DF4CCD PUSH1 0xE0 SHL DUP2 MSTORE PUSH1 0x4 ADD PUSH1 0x40 MLOAD DUP1 SWAP2 SUB SWAP1 REVERT JUMPDEST PUSH1 0x1 PUSH1 0x1 PUSH1 0xA0 SHL SUB DUP3 AND ISZERO PUSH2 0x14A2 JUMPI PUSH1 0x1 PUSH1 0x1 PUSH1 0xA0 SHL SUB DUP3 AND ADDRESS EQ PUSH2 0x1435 JUMPI PUSH1 0x1 PUSH1 0x1 PUSH1 0xA0 SHL SUB DUP3 AND EXTCODESIZE PUSH2 0x1435 JUMPI PUSH1 0x40 MLOAD PUSH4 0x3DDC5CAB PUSH1 0xE2 SHL DUP2 MSTORE PUSH1 0x4 ADD PUSH1 0x40 MLOAD DUP1 SWAP2 SUB SWAP1 REVERT JUMPDEST PUSH1 0x0 DUP3 PUSH1 0x1 PUSH1 0x1 PUSH1 0xA0 SHL SUB AND DUP3 PUSH1 0x40 MLOAD PUSH2 0x144F SWAP2 SWAP1 PUSH2 0x1B38 JUMP JUMPDEST PUSH1 0x0 PUSH1 0x40 MLOAD DUP1 DUP4 SUB DUP2 DUP6 GAS DELEGATECALL SWAP2 POP POP RETURNDATASIZE DUP1 PUSH1 0x0 DUP2 EQ PUSH2 0x148A JUMPI PUSH1 0x40 MLOAD SWAP2 POP PUSH1 0x1F NOT PUSH1 0x3F RETURNDATASIZE ADD AND DUP3 ADD PUSH1 0x40 MSTORE RETURNDATASIZE DUP3 MSTORE RETURNDATASIZE PUSH1 0x0 PUSH1 0x20 DUP5 ADD RETURNDATACOPY PUSH2 0x148F JUMP JUMPDEST PUSH1 0x60 SWAP2 POP JUMPDEST POP POP SWAP1 POP DUP1 PUSH2 0x119A JUMPI RETURNDATASIZE PUSH1 0x0 DUP1 RETURNDATACOPY RETURNDATASIZE PUSH1 0x0 REVERT JUMPDEST POP POP JUMP JUMPDEST PUSH32 0x8A22373512790C48B83A1FE2EFDD2888D4A917BCDC24D0ADF63E60F671680460 DUP1 SLOAD PUSH1 0x40 MLOAD PUSH1 0x1 PUSH1 0x1 PUSH1 0xA0 SHL SUB DUP5 DUP2 AND SWAP3 AND SWAP1 PUSH32 0x8BE0079C531659141344CD1FD0A4F28419497F9722A3DAAFE3B4186F6B6457E0 SWAP1 PUSH1 0x0 SWAP1 LOG3 DUP1 SLOAD PUSH1 0x1 PUSH1 0x1 PUSH1 0xA0 SHL SUB NOT AND PUSH1 0x1 PUSH1 0x1 PUSH1 0xA0 SHL SUB SWAP3 SWAP1 SWAP3 AND SWAP2 SWAP1 SWAP2 OR SWAP1 SSTORE JUMP JUMPDEST DUP1 CALLDATALOAD PUSH1 0x1 PUSH1 0x1 PUSH1 0xE0 SHL SUB NOT DUP2 AND DUP2 EQ PUSH2 0x1538 JUMPI PUSH1 0x0 DUP1 REVERT JUMPDEST SWAP2 SWAP1 POP JUMP JUMPDEST PUSH1 0x0 PUSH1 0x20 DUP3 DUP5 SUB SLT ISZERO PUSH2 0x154F JUMPI PUSH1 0x0 DUP1 REVERT JUMPDEST PUSH2 0x1558 DUP3 PUSH2 0x1520 JUMP JUMPDEST SWAP4 SWAP3 POP POP POP JUMP JUMPDEST DUP1 CALLDATALOAD PUSH1 0x1 PUSH1 0x1 PUSH1 0xA0 SHL SUB DUP2 AND DUP2 EQ PUSH2 0x1538 JUMPI PUSH1 0x0 DUP1 REVERT JUMPDEST PUSH1 0x0 DUP1 DUP4 PUSH1 0x1F DUP5 ADD SLT PUSH2 0x1588 JUMPI PUSH1 0x0 DUP1 REVERT JUMPDEST POP DUP2 CALLDATALOAD PUSH8 0xFFFFFFFFFFFFFFFF DUP2 GT ISZERO PUSH2 0x15A0 JUMPI PUSH1 0x0 DUP1 REVERT JUMPDEST PUSH1 0x20 DUP4 ADD SWAP2 POP DUP4 PUSH1 0x20 DUP3 DUP6 ADD ADD GT ISZERO PUSH2 0x15B8 JUMPI PUSH1 0x0 DUP1 REVERT JUMPDEST SWAP3 POP SWAP3 SWAP1 POP JUMP JUMPDEST PUSH1 0x0 DUP1 PUSH1 0x0 DUP1 PUSH1 0x0 PUSH1 0x60 DUP7 DUP9 SUB SLT ISZERO PUSH2 0x15D7 JUMPI PUSH1 0x0 DUP1 REVERT JUMPDEST DUP6 CALLDATALOAD PUSH8 0xFFFFFFFFFFFFFFFF DUP1 DUP3 GT ISZERO PUSH2 0x15EF JUMPI PUSH1 0x0 DUP1 REVERT JUMPDEST DUP2 DUP9 ADD SWAP2 POP DUP9 PUSH1 0x1F DUP4 ADD SLT PUSH2 0x1603 JUMPI PUSH1 0x0 DUP1 REVERT JUMPDEST DUP2 CALLDATALOAD DUP2 DUP2 GT ISZERO PUSH2 0x1612 JUMPI PUSH1 0x0 DUP1 REVERT JUMPDEST DUP10 PUSH1 0x20 DUP3 PUSH1 0x5 SHL DUP6 ADD ADD GT ISZERO PUSH2 0x1627 JUMPI PUSH1 0x0 DUP1 REVERT JUMPDEST PUSH1 0x20 DUP4 ADD SWAP8 POP DUP1 SWAP7 POP POP PUSH2 0x163D PUSH1 0x20 DUP10 ADD PUSH2 0x155F JUMP JUMPDEST SWAP5 POP PUSH1 0x40 DUP9 ADD CALLDATALOAD SWAP2 POP DUP1 DUP3 GT ISZERO PUSH2 0x1653 JUMPI PUSH1 0x0 DUP1 REVERT JUMPDEST POP PUSH2 0x1660 DUP9 DUP3 DUP10 ADD PUSH2 0x1576 JUMP JUMPDEST SWAP7 SWAP10 SWAP6 SWAP9 POP SWAP4 SWAP7 POP SWAP3 SWAP5 SWAP4 SWAP3 POP POP POP JUMP JUMPDEST PUSH1 0x20 DUP1 DUP3 MSTORE DUP3 MLOAD DUP3 DUP3 ADD DUP2 SWAP1 MSTORE PUSH1 0x0 SWAP2 SWAP1 DUP5 DUP3 ADD SWAP1 PUSH1 0x40 DUP6 ADD SWAP1 DUP5 JUMPDEST DUP2 DUP2 LT ISZERO PUSH2 0x16B2 JUMPI DUP4 MLOAD PUSH1 0x1 PUSH1 0x1 PUSH1 0xA0 SHL SUB AND DUP4 MSTORE SWAP3 DUP5 ADD SWAP3 SWAP2 DUP5 ADD SWAP2 PUSH1 0x1 ADD PUSH2 0x168D JUMP JUMPDEST POP SWAP1 SWAP7 SWAP6 POP POP POP POP POP POP JUMP JUMPDEST PUSH1 0x0 DUP2 MLOAD DUP1 DUP5 MSTORE PUSH1 0x20 DUP1 DUP6 ADD SWAP5 POP DUP1 DUP5 ADD PUSH1 0x0 JUMPDEST DUP4 DUP2 LT ISZERO PUSH2 0x16F8 JUMPI DUP2 MLOAD PUSH1 0x1 PUSH1 0x1 PUSH1 0xE0 SHL SUB NOT AND DUP8 MSTORE SWAP6 DUP3 ADD SWAP6 SWAP1 DUP3 ADD SWAP1 PUSH1 0x1 ADD PUSH2 0x16D2 JUMP JUMPDEST POP SWAP5 SWAP6 SWAP5 POP POP POP POP POP JUMP JUMPDEST PUSH1 0x0 PUSH1 0x20 DUP1 DUP4 ADD DUP2 DUP5 MSTORE DUP1 DUP6 MLOAD DUP1 DUP4 MSTORE PUSH1 0x40 SWAP3 POP DUP3 DUP7 ADD SWAP2 POP DUP3 DUP2 PUSH1 0x5 SHL DUP8 ADD ADD DUP5 DUP9 ADD PUSH1 0x0 JUMPDEST DUP4 DUP2 LT ISZERO PUSH2 0x1772 JUMPI DUP9 DUP4 SUB PUSH1 0x3F NOT ADD DUP6 MSTORE DUP2 MLOAD DUP1 MLOAD PUSH1 0x1 PUSH1 0x1 PUSH1 0xA0 SHL SUB AND DUP5 MSTORE DUP8 ADD MLOAD DUP8 DUP5 ADD DUP8 SWAP1 MSTORE PUSH2 0x175F DUP8 DUP6 ADD DUP3 PUSH2 0x16BE JUMP JUMPDEST SWAP6 DUP9 ADD SWAP6 SWAP4 POP POP SWAP1 DUP7 ADD SWAP1 PUSH1 0x1 ADD PUSH2 0x172A JUMP JUMPDEST POP SWAP1 SWAP9 SWAP8 POP POP POP POP POP POP POP POP JUMP JUMPDEST PUSH1 0x0 PUSH1 0x20 DUP3 DUP5 SUB SLT ISZERO PUSH2 0x1792 JUMPI PUSH1 0x0 DUP1 REVERT JUMPDEST PUSH2 0x1558 DUP3 PUSH2 0x155F JUMP JUMPDEST PUSH1 0x20 DUP1 DUP3 MSTORE DUP3 MLOAD DUP3 DUP3 ADD DUP2 SWAP1 MSTORE PUSH1 0x0 SWAP2 SWAP1 DUP5 DUP3 ADD SWAP1 PUSH1 0x40 DUP6 ADD SWAP1 DUP5 JUMPDEST DUP2 DUP2 LT ISZERO PUSH2 0x16B2 JUMPI DUP4 MLOAD PUSH1 0x1 PUSH1 0x1 PUSH1 0xE0 SHL SUB NOT AND DUP4 MSTORE SWAP3 DUP5 ADD SWAP3 SWAP2 DUP5 ADD SWAP2 PUSH1 0x1 ADD PUSH2 0x17B7 JUMP JUMPDEST PUSH4 0x4E487B71 PUSH1 0xE0 SHL PUSH1 0x0 MSTORE PUSH1 0x41 PUSH1 0x4 MSTORE PUSH1 0x24 PUSH1 0x0 REVERT JUMPDEST PUSH1 0x40 MLOAD PUSH1 0x60 DUP2 ADD PUSH8 0xFFFFFFFFFFFFFFFF DUP2 GT DUP3 DUP3 LT OR ISZERO PUSH2 0x1816 JUMPI PUSH2 0x1816 PUSH2 0x17DD JUMP JUMPDEST PUSH1 0x40 MSTORE SWAP1 JUMP JUMPDEST PUSH1 0x40 MLOAD PUSH1 0x1F DUP3 ADD PUSH1 0x1F NOT AND DUP2 ADD PUSH8 0xFFFFFFFFFFFFFFFF DUP2 GT DUP3 DUP3 LT OR ISZERO PUSH2 0x1845 JUMPI PUSH2 0x1845 PUSH2 0x17DD JUMP JUMPDEST PUSH1 0x40 MSTORE SWAP2 SWAP1 POP JUMP JUMPDEST PUSH1 0x0 PUSH8 0xFFFFFFFFFFFFFFFF DUP3 GT ISZERO PUSH2 0x1867 JUMPI PUSH2 0x1867 PUSH2 0x17DD JUMP JUMPDEST POP PUSH1 0x5 SHL PUSH1 0x20 ADD SWAP1 JUMP JUMPDEST PUSH1 0x0 PUSH2 0x1884 PUSH2 0x187F DUP5 PUSH2 0x184D JUMP JUMPDEST PUSH2 0x181C JUMP JUMPDEST DUP4 DUP2 MSTORE PUSH1 0x20 DUP1 DUP3 ADD SWAP2 SWAP1 PUSH1 0x5 DUP7 DUP2 SHL DUP7 ADD CALLDATASIZE DUP2 GT ISZERO PUSH2 0x18A2 JUMPI PUSH1 0x0 DUP1 REVERT JUMPDEST DUP7 JUMPDEST DUP2 DUP2 LT ISZERO PUSH2 0x1998 JUMPI DUP1 CALLDATALOAD PUSH8 0xFFFFFFFFFFFFFFFF DUP1 DUP3 GT ISZERO PUSH2 0x18C5 JUMPI PUSH1 0x0 DUP1 DUP2 REVERT JUMPDEST DUP2 DUP11 ADD SWAP2 POP PUSH1 0x60 DUP3 CALLDATASIZE SUB SLT ISZERO PUSH2 0x18DB JUMPI PUSH1 0x0 DUP1 DUP2 REVERT JUMPDEST PUSH2 0x18E3 PUSH2 0x17F3 JUMP JUMPDEST PUSH2 0x18EC DUP4 PUSH2 0x155F JUMP JUMPDEST DUP2 MSTORE DUP7 DUP4 ADD CALLDATALOAD PUSH1 0x3 DUP2 LT PUSH2 0x1900 JUMPI PUSH1 0x0 DUP1 DUP2 REVERT JUMPDEST DUP2 DUP9 ADD MSTORE PUSH1 0x40 DUP4 DUP2 ADD CALLDATALOAD DUP4 DUP2 GT ISZERO PUSH2 0x1918 JUMPI PUSH1 0x0 DUP1 DUP2 REVERT JUMPDEST SWAP4 SWAP1 SWAP4 ADD SWAP3 CALLDATASIZE PUSH1 0x1F DUP6 ADD SLT PUSH2 0x192F JUMPI PUSH1 0x0 SWAP3 POP DUP3 DUP4 REVERT JUMPDEST DUP4 CALLDATALOAD SWAP3 POP PUSH2 0x193F PUSH2 0x187F DUP5 PUSH2 0x184D JUMP JUMPDEST DUP4 DUP2 MSTORE SWAP3 DUP8 SHL DUP5 ADD DUP9 ADD SWAP3 DUP9 DUP2 ADD SWAP1 CALLDATASIZE DUP6 GT ISZERO PUSH2 0x195C JUMPI PUSH1 0x0 DUP1 DUP2 REVERT JUMPDEST SWAP5 DUP10 ADD SWAP5 JUMPDEST DUP5 DUP7 LT ISZERO PUSH2 0x1981 JUMPI PUSH2 0x1972 DUP7 PUSH2 0x1520 JUMP JUMPDEST DUP3 MSTORE SWAP5 DUP10 ADD SWAP5 SWAP1 DUP10 ADD SWAP1 PUSH2 0x1961 JUMP JUMPDEST SWAP2 DUP4 ADD SWAP2 SWAP1 SWAP2 MSTORE POP DUP9 MSTORE POP POP SWAP5 DUP4 ADD SWAP5 DUP4 ADD PUSH2 0x18A4 JUMP JUMPDEST POP SWAP3 SWAP8 SWAP7 POP POP POP POP POP POP POP JUMP JUMPDEST PUSH4 0x4E487B71 PUSH1 0xE0 SHL PUSH1 0x0 MSTORE PUSH1 0x11 PUSH1 0x4 MSTORE PUSH1 0x24 PUSH1 0x0 REVERT JUMPDEST PUSH1 0x0 PUSH1 0x1 DUP3 ADD PUSH2 0x19CD JUMPI PUSH2 0x19CD PUSH2 0x19A5 JUMP JUMPDEST POP PUSH1 0x1 ADD SWAP1 JUMP JUMPDEST PUSH4 0x4E487B71 PUSH1 0xE0 SHL PUSH1 0x0 MSTORE PUSH1 0x32 PUSH1 0x4 MSTORE PUSH1 0x24 PUSH1 0x0 REVERT JUMPDEST PUSH1 0x0 PUSH1 0xFF DUP3 AND PUSH1 0xFF DUP2 SUB PUSH2 0x1A00 JUMPI PUSH2 0x1A00 PUSH2 0x19A5 JUMP JUMPDEST PUSH1 0x1 ADD SWAP3 SWAP2 POP POP JUMP JUMPDEST PUSH4 0x4E487B71 PUSH1 0xE0 SHL PUSH1 0x0 MSTORE PUSH1 0x21 PUSH1 0x4 MSTORE PUSH1 0x24 PUSH1 0x0 REVERT JUMPDEST PUSH1 0x0 JUMPDEST DUP4 DUP2 LT ISZERO PUSH2 0x1A3A JUMPI DUP2 DUP2 ADD MLOAD DUP4 DUP3 ADD MSTORE PUSH1 0x20 ADD PUSH2 0x1A22 JUMP JUMPDEST POP POP PUSH1 0x0 SWAP2 ADD MSTORE JUMP JUMPDEST PUSH1 0x0 DUP2 MLOAD DUP1 DUP5 MSTORE PUSH2 0x1A5B DUP2 PUSH1 0x20 DUP7 ADD PUSH1 0x20 DUP7 ADD PUSH2 0x1A1F JUMP JUMPDEST PUSH1 0x1F ADD PUSH1 0x1F NOT AND SWAP3 SWAP1 SWAP3 ADD PUSH1 0x20 ADD SWAP3 SWAP2 POP POP JUMP JUMPDEST PUSH1 0x0 PUSH1 0x60 DUP1 DUP4 ADD DUP2 DUP5 MSTORE DUP1 DUP8 MLOAD DUP1 DUP4 MSTORE PUSH1 0x80 DUP7 ADD SWAP2 POP PUSH1 0x80 DUP2 PUSH1 0x5 SHL DUP8 ADD ADD SWAP3 POP PUSH1 0x20 DUP1 DUP11 ADD PUSH1 0x0 DUP1 JUMPDEST DUP5 DUP2 LT ISZERO PUSH2 0x1B08 JUMPI DUP10 DUP8 SUB PUSH1 0x7F NOT ADD DUP7 MSTORE DUP3 MLOAD DUP1 MLOAD PUSH1 0x1 PUSH1 0x1 PUSH1 0xA0 SHL SUB AND DUP9 MSTORE DUP5 DUP2 ADD MLOAD PUSH1 0x3 DUP2 LT PUSH2 0x1AD9 JUMPI PUSH4 0x4E487B71 PUSH1 0xE0 SHL DUP5 MSTORE PUSH1 0x21 PUSH1 0x4 MSTORE PUSH1 0x24 DUP5 REVERT JUMPDEST DUP9 DUP7 ADD MSTORE PUSH1 0x40 SWAP1 DUP2 ADD MLOAD SWAP1 DUP9 ADD DUP10 SWAP1 MSTORE PUSH2 0x1AF5 DUP10 DUP10 ADD DUP3 PUSH2 0x16BE JUMP JUMPDEST SWAP8 POP POP SWAP5 DUP4 ADD SWAP5 SWAP2 DUP4 ADD SWAP2 PUSH1 0x1 ADD PUSH2 0x1A99 JUMP JUMPDEST POP POP POP PUSH1 0x1 PUSH1 0x1 PUSH1 0xA0 SHL SUB DUP10 AND SWAP1 DUP8 ADD MSTORE POP POP DUP4 DUP2 SUB PUSH1 0x40 DUP6 ADD MSTORE PUSH2 0x1B2D DUP2 DUP7 PUSH2 0x1A43 JUMP JUMPDEST SWAP8 SWAP7 POP POP POP POP POP POP POP JUMP JUMPDEST PUSH1 0x0 DUP3 MLOAD PUSH2 0x1B4A DUP2 DUP5 PUSH1 0x20 DUP8 ADD PUSH2 0x1A1F JUMP JUMPDEST SWAP2 SWAP1 SWAP2 ADD SWAP3 SWAP2 POP POP JUMP INVALID OR PUSH21 0x81AC65E4292921C69F62D1CC7F57541261E5D61C81 PUSH22 0xCF4E36A01C9BFC94177481AC65E4292921C69F62D1CC PUSH32 0x57541261E5D61C8175CF4E36A01C9BFC93A26469706673582212204FD3E61E32 0xCA 0xBD 0x24 0x23 SWAP3 XOR 0xD2 0xA5 PUSH2 0x8D68 GT RETURN 0xC5 RETURNDATASIZE SWAP2 SUB 0xEB 0x5D 0xD7 PUSH20 0xAA327300861664736F6C63430008130033000000 "
				},
				"gasEstimates": {
					"creation": {
						"codeDepositCost": "1422800",
						"executionCost": "infinite",
						"totalCost": "infinite"
					},
					"external": {
						"": "infinite",
						"acceptOwnership()": "54659",
						"diamondCut((address,uint8,bytes4[])[],address,bytes)": "infinite",
						"facetAddress(bytes4)": "infinite",
						"facetAddresses()": "infinite",
						"facetFunctionSelectors(address)": "infinite",
						"facets()": "infinite",
						"getFallbackAddress()": "2414",
						"nomineeOwner()": "2401",
						"owner()": "2412",
						"setFallbackAddress(address)": "26814",
						"supportsInterface(bytes4)": "2545",
						"transferOwnership(address)": "infinite"
					}
				},
				"methodIdentifiers": {
					"acceptOwnership()": "79ba5097",
					"diamondCut((address,uint8,bytes4[])[],address,bytes)": "1f931c1c",
					"facetAddress(bytes4)": "cdffacc6",
					"facetAddresses()": "52ef6b2c",
					"facetFunctionSelectors(address)": "adfca15e",
					"facets()": "7a0ed627",
					"getFallbackAddress()": "2c408059",
					"nomineeOwner()": "8ab5150a",
					"owner()": "8da5cb5b",
					"setFallbackAddress(address)": "91423765",
					"supportsInterface(bytes4)": "01ffc9a7",
					"transferOwnership(address)": "f2fde38b"
				}
			},
			"storageLayout": {
				"storage": [],
				"types": null
			},
			"userdoc": {
				"kind": "user",
				"methods": {
					"acceptOwnership()": {
						"notice": "accept transfer of contract ownership"
					},
					"diamondCut((address,uint8,bytes4[])[],address,bytes)": {
						"notice": "update diamond facets and optionally execute arbitrary initialization function"
					},
					"facetAddress(bytes4)": {
						"notice": "get the address of the facet associated with given selector"
					},
					"facetAddresses()": {
						"notice": "get addresses of all facets used by diamond"
					},
					"facetFunctionSelectors(address)": {
						"notice": "get all selectors for given facet address"
					},
					"facets()": {
						"notice": "get all facets and their selectors"
					},
					"getFallbackAddress()": {
						"notice": "query the address of the fallback implementation"
					},
					"nomineeOwner()": {
						"notice": "get the nominated owner who has permission to call acceptOwnership"
					},
					"owner()": {
						"notice": "get the ERC173 contract owner"
					},
					"setFallbackAddress(address)": {
						"notice": "set the address of the fallback implementation"
					},
					"supportsInterface(bytes4)": {
						"notice": "query whether contract has registered support for given interface"
					},
					"transferOwnership(address)": {
						"notice": "transfer contract ownership to new account"
					}
				},
				"notice": "ref https://eips.ethereum.org/EIPS/eip-2535#abstract",
				"version": 1
			}
		}
	}
}