{
	"diamonds/facets/FacetVault.sol": {
		"FacetVault": {
			"abi": [
				{
					"anonymous": false,
					"inputs": [
						{
							"indexed": false,
							"internalType": "address",
							"name": "from",
							"type": "address"
						},
						{
							"indexed": false,
							"internalType": "address",
							"name": "tokenIn",
							"type": "address"
						},
						{
							"indexed": false,
							"internalType": "uint256",
							"name": "amountIn",
							"type": "uint256"
						}
					],
					"name": "Deposit",
					"type": "event"
				},
				{
					"anonymous": false,
					"inputs": [
						{
							"indexed": false,
							"internalType": "address",
							"name": "tokenIn",
							"type": "address"
						}
					],
					"name": "PermissionGrantedTokenIn",
					"type": "event"
				},
				{
					"anonymous": false,
					"inputs": [
						{
							"indexed": false,
							"internalType": "address",
							"name": "tokenOut",
							"type": "address"
						}
					],
					"name": "PermissionGrantedTokenOut",
					"type": "event"
				},
				{
					"anonymous": false,
					"inputs": [
						{
							"indexed": false,
							"internalType": "address",
							"name": "tokenIn",
							"type": "address"
						}
					],
					"name": "PermissionRevokedTokenIn",
					"type": "event"
				},
				{
					"anonymous": false,
					"inputs": [
						{
							"indexed": false,
							"internalType": "address",
							"name": "tokenOut",
							"type": "address"
						}
					],
					"name": "PermissionRevokedTokenOut",
					"type": "event"
				},
				{
					"anonymous": false,
					"inputs": [
						{
							"indexed": false,
							"internalType": "address",
							"name": "to",
							"type": "address"
						},
						{
							"indexed": false,
							"internalType": "address",
							"name": "tokenOut",
							"type": "address"
						},
						{
							"indexed": false,
							"internalType": "uint256",
							"name": "amountOut",
							"type": "uint256"
						}
					],
					"name": "Withdraw",
					"type": "event"
				},
				{
					"inputs": [
						{
							"internalType": "address",
							"name": "token",
							"type": "address"
						}
					],
					"name": "____allowTokenInToSafe",
					"outputs": [],
					"stateMutability": "nonpayable",
					"type": "function"
				},
				{
					"inputs": [
						{
							"internalType": "address",
							"name": "token",
							"type": "address"
						}
					],
					"name": "____allowTokenOutOfSafe",
					"outputs": [],
					"stateMutability": "nonpayable",
					"type": "function"
				},
				{
					"inputs": [
						{
							"internalType": "address",
							"name": "token",
							"type": "address"
						}
					],
					"name": "____forbidTokenInToSafe",
					"outputs": [],
					"stateMutability": "nonpayable",
					"type": "function"
				},
				{
					"inputs": [
						{
							"internalType": "address",
							"name": "token",
							"type": "address"
						}
					],
					"name": "____forbidTokenOutOfSafe",
					"outputs": [],
					"stateMutability": "nonpayable",
					"type": "function"
				},
				{
					"inputs": [
						{
							"internalType": "address",
							"name": "to",
							"type": "address"
						},
						{
							"internalType": "uint256",
							"name": "amountOut",
							"type": "uint256"
						}
					],
					"name": "____withdraw",
					"outputs": [],
					"stateMutability": "nonpayable",
					"type": "function"
				},
				{
					"inputs": [
						{
							"internalType": "address",
							"name": "to",
							"type": "address"
						},
						{
							"internalType": "address",
							"name": "tokenOut",
							"type": "address"
						},
						{
							"internalType": "uint256",
							"name": "amountOut",
							"type": "uint256"
						}
					],
					"name": "____withdraw",
					"outputs": [],
					"stateMutability": "nonpayable",
					"type": "function"
				},
				{
					"inputs": [],
					"name": "asset",
					"outputs": [
						{
							"internalType": "address",
							"name": "",
							"type": "address"
						}
					],
					"stateMutability": "view",
					"type": "function"
				},
				{
					"inputs": [
						{
							"internalType": "uint256",
							"name": "amountIn",
							"type": "uint256"
						}
					],
					"name": "convertToAssets",
					"outputs": [
						{
							"internalType": "uint256",
							"name": "",
							"type": "uint256"
						}
					],
					"stateMutability": "view",
					"type": "function"
				},
				{
					"inputs": [
						{
							"internalType": "address",
							"name": "tokenIn",
							"type": "address"
						},
						{
							"internalType": "uint256",
							"name": "amountIn",
							"type": "uint256"
						}
					],
					"name": "convertToShares",
					"outputs": [
						{
							"internalType": "uint256",
							"name": "",
							"type": "uint256"
						}
					],
					"stateMutability": "view",
					"type": "function"
				},
				{
					"inputs": [
						{
							"internalType": "address",
							"name": "tokenIn",
							"type": "address"
						},
						{
							"internalType": "uint256",
							"name": "amountIn",
							"type": "uint256"
						}
					],
					"name": "deposit",
					"outputs": [],
					"stateMutability": "nonpayable",
					"type": "function"
				},
				{
					"inputs": [
						{
							"internalType": "address",
							"name": "token",
							"type": "address"
						}
					],
					"name": "getHoldingsInSafe",
					"outputs": [
						{
							"internalType": "uint256",
							"name": "",
							"type": "uint256"
						}
					],
					"stateMutability": "view",
					"type": "function"
				},
				{
					"inputs": [
						{
							"internalType": "uint256",
							"name": "tokenId",
							"type": "uint256"
						}
					],
					"name": "getTokenAllowedInToSafe",
					"outputs": [
						{
							"internalType": "address",
							"name": "",
							"type": "address"
						}
					],
					"stateMutability": "view",
					"type": "function"
				},
				{
					"inputs": [
						{
							"internalType": "uint256",
							"name": "tokenId",
							"type": "uint256"
						}
					],
					"name": "getTokenAllowedOutFromSafe",
					"outputs": [
						{
							"internalType": "address",
							"name": "",
							"type": "address"
						}
					],
					"stateMutability": "view",
					"type": "function"
				},
				{
					"inputs": [],
					"name": "getTokensAllowedInToSafe",
					"outputs": [
						{
							"internalType": "address[]",
							"name": "",
							"type": "address[]"
						}
					],
					"stateMutability": "view",
					"type": "function"
				},
				{
					"inputs": [],
					"name": "getTokensAllowedOutFromSafe",
					"outputs": [
						{
							"internalType": "address[]",
							"name": "",
							"type": "address[]"
						}
					],
					"stateMutability": "view",
					"type": "function"
				},
				{
					"inputs": [
						{
							"internalType": "address",
							"name": "token",
							"type": "address"
						}
					],
					"name": "isAllowedIn",
					"outputs": [
						{
							"internalType": "bool",
							"name": "",
							"type": "bool"
						}
					],
					"stateMutability": "view",
					"type": "function"
				},
				{
					"inputs": [
						{
							"internalType": "address",
							"name": "token",
							"type": "address"
						}
					],
					"name": "isAllowedOut",
					"outputs": [
						{
							"internalType": "bool",
							"name": "",
							"type": "bool"
						}
					],
					"stateMutability": "view",
					"type": "function"
				},
				{
					"inputs": [
						{
							"internalType": "address",
							"name": "receiver",
							"type": "address"
						}
					],
					"name": "maxDeposit",
					"outputs": [
						{
							"internalType": "uint256",
							"name": "",
							"type": "uint256"
						}
					],
					"stateMutability": "view",
					"type": "function"
				},
				{
					"inputs": [
						{
							"internalType": "address",
							"name": "tokenIn",
							"type": "address"
						},
						{
							"internalType": "uint256",
							"name": "amountIn",
							"type": "uint256"
						}
					],
					"name": "previewDeposit",
					"outputs": [
						{
							"internalType": "uint256",
							"name": "",
							"type": "uint256"
						}
					],
					"stateMutability": "view",
					"type": "function"
				},
				{
					"inputs": [],
					"name": "totalAssets",
					"outputs": [
						{
							"internalType": "uint256",
							"name": "",
							"type": "uint256"
						}
					],
					"stateMutability": "view",
					"type": "function"
				},
				{
					"inputs": [],
					"name": "totalAssetsPerShare",
					"outputs": [
						{
							"internalType": "uint256",
							"name": "",
							"type": "uint256"
						}
					],
					"stateMutability": "view",
					"type": "function"
				},
				{
					"inputs": [
						{
							"internalType": "uint256",
							"name": "amountIn",
							"type": "uint256"
						}
					],
					"name": "withdraw",
					"outputs": [],
					"stateMutability": "nonpayable",
					"type": "function"
				}
			],
			"devdoc": {
				"kind": "dev",
				"methods": {},
				"version": 1
			},
			"evm": {
				"assembly": "    /* \"diamonds/facets/FacetVault.sol\":678:4917  contract FacetVault is FacetSafe {... */\n  mstore(0x40, 0x80)\n  callvalue\n  dup1\n  iszero\n  tag_1\n  jumpi\n  0x00\n  dup1\n  revert\ntag_1:\n  pop\n  dataSize(sub_0)\n  dup1\n  dataOffset(sub_0)\n  0x00\n  codecopy\n  0x00\n  return\nstop\n\nsub_0: assembly {\n        /* \"diamonds/facets/FacetVault.sol\":678:4917  contract FacetVault is FacetSafe {... */\n      mstore(0x40, 0x80)\n      callvalue\n      dup1\n      iszero\n      tag_1\n      jumpi\n      0x00\n      dup1\n      revert\n    tag_1:\n      pop\n      jumpi(tag_2, lt(calldatasize, 0x04))\n      shr(0xe0, calldataload(0x00))\n      dup1\n      0x3e5541f1\n      gt\n      tag_25\n      jumpi\n      dup1\n      0xa6a2fcd7\n      gt\n      tag_26\n      jumpi\n      dup1\n      0xa6a2fcd7\n      eq\n      tag_19\n      jumpi\n      dup1\n      0xb3a54f1b\n      eq\n      tag_20\n      jumpi\n      dup1\n      0xb74cbb41\n      eq\n      tag_21\n      jumpi\n      dup1\n      0xb8f82b26\n      eq\n      tag_22\n      jumpi\n      dup1\n      0xe13a96d6\n      eq\n      tag_23\n      jumpi\n      dup1\n      0xe5e45084\n      eq\n      tag_24\n      jumpi\n      0x00\n      dup1\n      revert\n    tag_26:\n      dup1\n      0x3e5541f1\n      eq\n      tag_14\n      jumpi\n      dup1\n      0x3e800148\n      eq\n      tag_15\n      jumpi\n      dup1\n      0x402d267d\n      eq\n      tag_16\n      jumpi\n      dup1\n      0x464964b1\n      eq\n      tag_17\n      jumpi\n      dup1\n      0x47e7ef24\n      eq\n      tag_18\n      jumpi\n      0x00\n      dup1\n      revert\n    tag_25:\n      dup1\n      0x19d0c2fa\n      gt\n      tag_27\n      jumpi\n      dup1\n      0x19d0c2fa\n      eq\n      tag_8\n      jumpi\n      dup1\n      0x2a77d7b8\n      eq\n      tag_9\n      jumpi\n      dup1\n      0x2e1a7d4d\n      eq\n      tag_10\n      jumpi\n      dup1\n      0x31b94450\n      eq\n      tag_11\n      jumpi\n      dup1\n      0x36447c4e\n      eq\n      tag_12\n      jumpi\n      dup1\n      0x38d52e0f\n      eq\n      tag_13\n      jumpi\n      0x00\n      dup1\n      revert\n    tag_27:\n      dup1\n      0x01e1d114\n      eq\n      tag_3\n      jumpi\n      dup1\n      0x07a2d13a\n      eq\n      tag_4\n      jumpi\n      dup1\n      0x0a885f95\n      eq\n      tag_5\n      jumpi\n      dup1\n      0x182a9420\n      eq\n      tag_6\n      jumpi\n      dup1\n      0x18b31027\n      eq\n      tag_7\n      jumpi\n    tag_2:\n      0x00\n      dup1\n      revert\n        /* \"diamonds/facets/FacetVault.sol\":1080:1802  function totalAssets() public view virtual returns (uint) {... */\n    tag_3:\n      tag_28\n      tag_29\n      jump\t// in\n    tag_28:\n      mload(0x40)\n        /* \"#utility.yul\":160:185   */\n      swap1\n      dup2\n      mstore\n        /* \"#utility.yul\":148:150   */\n      0x20\n        /* \"#utility.yul\":133:151   */\n      add\n        /* \"diamonds/facets/FacetVault.sol\":1080:1802  function totalAssets() public view virtual returns (uint) {... */\n    tag_30:\n      mload(0x40)\n      dup1\n      swap2\n      sub\n      swap1\n      return\n        /* \"diamonds/facets/FacetVault.sol\":2815:2982  function convertToAssets(uint amountIn) public view virtual returns (uint) {... */\n    tag_4:\n      tag_28\n      tag_33\n      calldatasize\n      0x04\n      tag_34\n      jump\t// in\n    tag_33:\n      tag_35\n      jump\t// in\n        /* \"diamonds/facets/FacetSafe.sol\":2653:2794  function getTokenAllowedOutFromSafe(uint tokenId) public view virtual returns (address) {... */\n    tag_5:\n      tag_37\n      tag_38\n      calldatasize\n      0x04\n      tag_34\n      jump\t// in\n    tag_38:\n      tag_39\n      jump\t// in\n    tag_37:\n      mload(0x40)\n      sub(shl(0xa0, 0x01), 0x01)\n        /* \"#utility.yul\":545:577   */\n      swap1\n      swap2\n      and\n        /* \"#utility.yul\":527:578   */\n      dup2\n      mstore\n        /* \"#utility.yul\":515:517   */\n      0x20\n        /* \"#utility.yul\":500:518   */\n      add\n        /* \"diamonds/facets/FacetSafe.sol\":2653:2794  function getTokenAllowedOutFromSafe(uint tokenId) public view virtual returns (address) {... */\n      tag_30\n        /* \"#utility.yul\":381:584   */\n      jump\n        /* \"diamonds/facets/FacetSafe.sol\":2933:3062  function isAllowedOut(address token) public view virtual returns (bool) {... */\n    tag_6:\n      tag_42\n      tag_43\n      calldatasize\n      0x04\n      tag_44\n      jump\t// in\n    tag_43:\n      tag_45\n      jump\t// in\n    tag_42:\n      mload(0x40)\n        /* \"#utility.yul\":1142:1156   */\n      swap1\n      iszero\n        /* \"#utility.yul\":1135:1157   */\n      iszero\n        /* \"#utility.yul\":1117:1158   */\n      dup2\n      mstore\n        /* \"#utility.yul\":1105:1107   */\n      0x20\n        /* \"#utility.yul\":1090:1108   */\n      add\n        /* \"diamonds/facets/FacetSafe.sol\":2933:3062  function isAllowedOut(address token) public view virtual returns (bool) {... */\n      tag_30\n        /* \"#utility.yul\":977:1164   */\n      jump\n        /* \"diamonds/facets/FacetSafe.sol\":1026:1201  function ____allowTokenInToSafe(address token) external virtual {... */\n    tag_7:\n      tag_48\n      tag_49\n      calldatasize\n      0x04\n      tag_44\n      jump\t// in\n    tag_49:\n      tag_50\n      jump\t// in\n    tag_48:\n      stop\n        /* \"diamonds/facets/FacetVault.sol\":1842:2035  function totalAssetsPerShare() public view virtual returns (uint) {... */\n    tag_8:\n      tag_28\n      tag_52\n      jump\t// in\n        /* \"diamonds/facets/FacetSafe.sol\":2230:2362  function getTokensAllowedInToSafe() public view virtual returns (address[] memory) {... */\n    tag_9:\n      tag_54\n      tag_55\n      jump\t// in\n    tag_54:\n      mload(0x40)\n      tag_30\n      swap2\n      swap1\n      tag_57\n      jump\t// in\n        /* \"diamonds/facets/FacetVault.sol\":3553:4915  function withdraw(uint amountIn) public virtual {... */\n    tag_10:\n      tag_48\n      tag_59\n      calldatasize\n      0x04\n      tag_34\n      jump\t// in\n    tag_59:\n      tag_60\n      jump\t// in\n        /* \"diamonds/facets/FacetSafe.sol\":1942:2086  function ____withdraw(address to, uint amountOut) nonReentrant() external virtual {... */\n    tag_11:\n      tag_48\n      tag_62\n      calldatasize\n      0x04\n      tag_63\n      jump\t// in\n    tag_62:\n      tag_64\n      jump\t// in\n        /* \"diamonds/facets/FacetSafe.sol\":1764:1936  function ____withdraw(address to, address tokenOut, uint amountOut) nonReentrant() external virtual {... */\n    tag_12:\n      tag_48\n      tag_66\n      calldatasize\n      0x04\n      tag_67\n      jump\t// in\n    tag_66:\n      tag_68\n      jump\t// in\n        /* \"diamonds/facets/FacetVault.sol\":825:1074  function asset() public view virtual returns (address) {... */\n    tag_13:\n        /* \"diamonds/facets/FacetVault.sol\":871:878  address */\n      0x00\n        /* \"diamonds/facets/FacetVault.sol\":825:1074  function asset() public view virtual returns (address) {... */\n      jump(tag_37)\n        /* \"diamonds/facets/FacetVault.sol\":2041:2736  function convertToShares(address tokenIn, uint amountIn) public view virtual returns (uint) {... */\n    tag_14:\n      tag_28\n      tag_73\n      calldatasize\n      0x04\n      tag_63\n      jump\t// in\n    tag_73:\n      tag_74\n      jump\t// in\n        /* \"diamonds/facets/FacetSafe.sol\":2101:2224  function getHoldingsInSafe(address token) public view virtual returns (uint) {... */\n    tag_15:\n      tag_28\n      tag_77\n      calldatasize\n      0x04\n      tag_44\n      jump\t// in\n    tag_77:\n      tag_78\n      jump\t// in\n        /* \"diamonds/facets/FacetVault.sol\":2988:3095  function maxDeposit(address receiver) public view virtual returns (uint) {... */\n    tag_16:\n      tag_28\n      tag_81\n      calldatasize\n      0x04\n      tag_44\n      jump\t// in\n    tag_81:\n      pop\n      not(0x00)\n        /* \"diamonds/facets/FacetVault.sol\":3078:3088  2**256 - 1 */\n      swap1\n        /* \"diamonds/facets/FacetVault.sol\":2988:3095  function maxDeposit(address receiver) public view virtual returns (uint) {... */\n      jump\n        /* \"diamonds/facets/FacetSafe.sol\":2511:2647  function getTokensAllowedOutFromSafe() public view virtual returns (address[] memory) {... */\n    tag_17:\n      tag_54\n      tag_85\n      jump\t// in\n        /* \"diamonds/facets/FacetVault.sol\":3256:3524  function deposit(address tokenIn, uint amountIn) public nonReentrant() virtual {... */\n    tag_18:\n      tag_48\n      tag_88\n      calldatasize\n      0x04\n      tag_63\n      jump\t// in\n    tag_88:\n      tag_89\n      jump\t// in\n        /* \"diamonds/facets/FacetSafe.sol\":1392:1570  function ____allowTokenOutOfSafe(address token) external virtual {... */\n    tag_19:\n      tag_48\n      tag_91\n      calldatasize\n      0x04\n      tag_44\n      jump\t// in\n    tag_91:\n      tag_92\n      jump\t// in\n        /* \"diamonds/facets/FacetSafe.sol\":2800:2927  function isAllowedIn(address token) public view virtual returns (bool) {... */\n    tag_20:\n      tag_42\n      tag_94\n      calldatasize\n      0x04\n      tag_44\n      jump\t// in\n    tag_94:\n      tag_95\n      jump\t// in\n        /* \"diamonds/facets/FacetSafe.sol\":1576:1758  function ____forbidTokenOutOfSafe(address token) external virtual {... */\n    tag_21:\n      tag_48\n      tag_98\n      calldatasize\n      0x04\n      tag_44\n      jump\t// in\n    tag_98:\n      tag_99\n      jump\t// in\n        /* \"diamonds/facets/FacetVault.sol\":3101:3250  function previewDeposit(address tokenIn, uint amountIn) public view virtual returns (uint) {... */\n    tag_22:\n      tag_28\n      tag_101\n      calldatasize\n      0x04\n      tag_63\n      jump\t// in\n    tag_101:\n      tag_102\n      jump\t// in\n        /* \"diamonds/facets/FacetSafe.sol\":2368:2505  function getTokenAllowedInToSafe(uint tokenId) public view virtual returns (address) {... */\n    tag_23:\n      tag_37\n      tag_105\n      calldatasize\n      0x04\n      tag_34\n      jump\t// in\n    tag_105:\n      tag_106\n      jump\t// in\n        /* \"diamonds/facets/FacetSafe.sol\":1207:1386  function ____forbidTokenInToSafe(address token) external virtual {... */\n    tag_24:\n      tag_48\n      tag_109\n      calldatasize\n      0x04\n      tag_44\n      jump\t// in\n    tag_109:\n      tag_110\n      jump\t// in\n        /* \"diamonds/facets/FacetVault.sol\":1080:1802  function totalAssets() public view virtual returns (uint) {... */\n    tag_29:\n        /* \"diamonds/facets/FacetVault.sol\":1132:1136  uint */\n      0x00\n        /* \"diamonds/facets/FacetVault.sol\":1148:1156  uint sum */\n      dup1\n        /* \"diamonds/facets/FacetVault.sol\":1166:1177  uint length */\n      0x00\n        /* \"diamonds/facets/FacetVault.sol\":1180:1202  safe().onHand.length() */\n      tag_112\n        /* \"diamonds/facets/FacetVault.sol\":1180:1186  safe() */\n      tag_113\n        /* \"diamonds/facets/FacetVault.sol\":1180:1184  safe */\n      tag_114\n        /* \"diamonds/facets/FacetVault.sol\":1180:1186  safe() */\n      jump\t// in\n    tag_113:\n        /* \"diamonds/facets/FacetVault.sol\":1180:1193  safe().onHand */\n      0x05\n      add\n        /* \"diamonds/facets/FacetVault.sol\":1180:1200  safe().onHand.length */\n      tag_115\n        /* \"diamonds/facets/FacetVault.sol\":1180:1202  safe().onHand.length() */\n      jump\t// in\n    tag_112:\n        /* \"diamonds/facets/FacetVault.sol\":1166:1202  uint length = safe().onHand.length() */\n      swap1\n      pop\n        /* \"diamonds/facets/FacetVault.sol\":1217:1223  uint i */\n      0x00\n        /* \"diamonds/facets/FacetVault.sol\":1212:1776  for (uint i = 0; i < length; i++) {... */\n    tag_116:\n        /* \"diamonds/facets/FacetVault.sol\":1233:1239  length */\n      dup2\n        /* \"diamonds/facets/FacetVault.sol\":1229:1230  i */\n      dup2\n        /* \"diamonds/facets/FacetVault.sol\":1229:1239  i < length */\n      lt\n        /* \"diamonds/facets/FacetVault.sol\":1212:1776  for (uint i = 0; i < length; i++) {... */\n      iszero\n      tag_117\n      jumpi\n        /* \"diamonds/facets/FacetVault.sol\":1260:1273  address token */\n      0x00\n        /* \"diamonds/facets/FacetVault.sol\":1276:1295  safe().onHand.at(i) */\n      tag_119\n        /* \"diamonds/facets/FacetVault.sol\":1293:1294  i */\n      dup3\n        /* \"diamonds/facets/FacetVault.sol\":1276:1282  safe() */\n      tag_120\n        /* \"diamonds/facets/FacetVault.sol\":1276:1280  safe */\n      tag_114\n        /* \"diamonds/facets/FacetVault.sol\":1276:1282  safe() */\n      jump\t// in\n    tag_120:\n        /* \"diamonds/facets/FacetVault.sol\":1276:1289  safe().onHand */\n      0x05\n      add\n      swap1\n        /* \"diamonds/facets/FacetVault.sol\":1276:1292  safe().onHand.at */\n      tag_121\n        /* \"diamonds/facets/FacetVault.sol\":1276:1295  safe().onHand.at(i) */\n      jump\t// in\n    tag_119:\n        /* \"diamonds/facets/FacetVault.sol\":1260:1295  address token = safe().onHand.at(i) */\n      swap1\n      pop\n        /* \"diamonds/facets/FacetSafe.sol\":4170:4174  this */\n      address\n        /* \"diamonds/facets/FacetVault.sol\":1313:1372  IFacetChainlinkOracle(_self()).hasChainlinkPriceFeed(token) */\n      mload(0x40)\n      shl(0xe0, 0xce49c9b3)\n      dup2\n      mstore\n      sub(shl(0xa0, 0x01), 0x01)\n        /* \"#utility.yul\":545:577   */\n      dup4\n      dup2\n      and\n        /* \"diamonds/facets/FacetVault.sol\":1313:1372  IFacetChainlinkOracle(_self()).hasChainlinkPriceFeed(token) */\n      0x04\n      dup4\n      add\n        /* \"#utility.yul\":527:578   */\n      mstore\n        /* \"diamonds/facets/FacetVault.sol\":1313:1365  IFacetChainlinkOracle(_self()).hasChainlinkPriceFeed */\n      swap2\n      swap1\n      swap2\n      and\n      swap1\n      0xce49c9b3\n      swap1\n        /* \"#utility.yul\":500:518   */\n      0x24\n      add\n        /* \"diamonds/facets/FacetVault.sol\":1313:1372  IFacetChainlinkOracle(_self()).hasChainlinkPriceFeed(token) */\n      0x20\n      mload(0x40)\n      dup1\n      dup4\n      sub\n      dup2\n      dup7\n      gas\n      staticcall\n      iszero\n      dup1\n      iszero\n      tag_126\n      jumpi\n      returndatasize\n      0x00\n      dup1\n      returndatacopy\n      revert(0x00, returndatasize)\n    tag_126:\n      pop\n      pop\n      pop\n      pop\n      mload(0x40)\n      returndatasize\n      not(0x1f)\n      0x1f\n      dup3\n      add\n      and\n      dup3\n      add\n      dup1\n      0x40\n      mstore\n      pop\n      dup2\n      add\n      swap1\n      tag_127\n      swap2\n      swap1\n      tag_128\n      jump\t// in\n    tag_127:\n        /* \"diamonds/facets/FacetVault.sol\":1309:1681  if (IFacetChainlinkOracle(_self()).hasChainlinkPriceFeed(token)) {... */\n      iszero\n      tag_129\n      jumpi\n        /* \"diamonds/facets/FacetVault.sol\":1392:1404  uint balance */\n      0x00\n        /* \"diamonds/facets/FacetVault.sol\":1407:1431  getHoldingsInSafe(token) */\n      tag_130\n        /* \"diamonds/facets/FacetVault.sol\":1425:1430  token */\n      dup3\n        /* \"diamonds/facets/FacetVault.sol\":1407:1424  getHoldingsInSafe */\n      tag_78\n        /* \"diamonds/facets/FacetVault.sol\":1407:1431  getHoldingsInSafe(token) */\n      jump\t// in\n    tag_130:\n        /* \"diamonds/facets/FacetVault.sol\":1392:1431  uint balance = getHoldingsInSafe(token) */\n      swap1\n      pop\n        /* \"diamonds/facets/FacetVault.sol\":1460:1470  uint price */\n      0x00\n        /* \"diamonds/facets/FacetSafe.sol\":4170:4174  this */\n      address\n        /* \"diamonds/facets/FacetVault.sol\":1473:1535  IFacetChainlinkOracle(_self()).getChainlinkLatestAnswer(token) */\n      mload(0x40)\n      shl(0xe2, 0x3469c24b)\n      dup2\n      mstore\n      sub(shl(0xa0, 0x01), 0x01)\n        /* \"#utility.yul\":545:577   */\n      dup6\n      dup2\n      and\n        /* \"diamonds/facets/FacetVault.sol\":1473:1535  IFacetChainlinkOracle(_self()).getChainlinkLatestAnswer(token) */\n      0x04\n      dup4\n      add\n        /* \"#utility.yul\":527:578   */\n      mstore\n        /* \"diamonds/facets/FacetVault.sol\":1473:1528  IFacetChainlinkOracle(_self()).getChainlinkLatestAnswer */\n      swap2\n      swap1\n      swap2\n      and\n      swap1\n      0xd1a7092c\n      swap1\n        /* \"#utility.yul\":500:518   */\n      0x24\n      add\n        /* \"diamonds/facets/FacetVault.sol\":1473:1535  IFacetChainlinkOracle(_self()).getChainlinkLatestAnswer(token) */\n      0x20\n      mload(0x40)\n      dup1\n      dup4\n      sub\n      dup2\n      dup7\n      gas\n      staticcall\n      iszero\n      dup1\n      iszero\n      tag_134\n      jumpi\n      returndatasize\n      0x00\n      dup1\n      returndatacopy\n      revert(0x00, returndatasize)\n    tag_134:\n      pop\n      pop\n      pop\n      pop\n      mload(0x40)\n      returndatasize\n      not(0x1f)\n      0x1f\n      dup3\n      add\n      and\n      dup3\n      add\n      dup1\n      0x40\n      mstore\n      pop\n      dup2\n      add\n      swap1\n      tag_135\n      swap2\n      swap1\n      tag_136\n      jump\t// in\n    tag_135:\n        /* \"diamonds/facets/FacetVault.sol\":1460:1535  uint price = IFacetChainlinkOracle(_self()).getChainlinkLatestAnswer(token) */\n      swap1\n      pop\n        /* \"diamonds/facets/FacetVault.sol\":1571:1586  price.normal(8) */\n      tag_137\n        /* \"diamonds/facets/FacetVault.sol\":1460:1535  uint price = IFacetChainlinkOracle(_self()).getChainlinkLatestAnswer(token) */\n      dup2\n        /* \"diamonds/facets/FacetVault.sol\":1584:1585  8 */\n      0x08\n        /* \"diamonds/facets/FacetVault.sol\":1571:1583  price.normal */\n      tag_138\n        /* \"diamonds/facets/FacetVault.sol\":1571:1586  price.normal(8) */\n      jump\t// in\n    tag_137:\n        /* \"diamonds/facets/FacetVault.sol\":1563:1586  price = price.normal(8) */\n      swap1\n      pop\n        /* \"diamonds/facets/FacetVault.sol\":1650:1665  price * balance */\n      tag_139\n        /* \"diamonds/facets/FacetVault.sol\":1658:1665  balance */\n      dup3\n        /* \"diamonds/facets/FacetVault.sol\":1563:1586  price = price.normal(8) */\n      dup3\n        /* \"diamonds/facets/FacetVault.sol\":1650:1665  price * balance */\n      tag_140\n      jump\t// in\n    tag_139:\n        /* \"diamonds/facets/FacetVault.sol\":1642:1666  sum += (price * balance) */\n      tag_141\n      swap1\n      dup8\n      tag_142\n      jump\t// in\n    tag_141:\n      swap6\n      pop\n        /* \"diamonds/facets/FacetVault.sol\":1374:1681  {... */\n      pop\n      pop\n        /* \"diamonds/facets/FacetVault.sol\":1309:1681  if (IFacetChainlinkOracle(_self()).hasChainlinkPriceFeed(token)) {... */\n    tag_129:\n      pop\n        /* \"diamonds/facets/FacetVault.sol\":1241:1244  i++ */\n      dup1\n      tag_143\n      dup2\n      tag_144\n      jump\t// in\n    tag_143:\n      swap2\n      pop\n      pop\n        /* \"diamonds/facets/FacetVault.sol\":1212:1776  for (uint i = 0; i < length; i++) {... */\n      jump(tag_116)\n    tag_117:\n      pop\n        /* \"diamonds/facets/FacetVault.sol\":1792:1795  sum */\n      swap1\n      swap3\n        /* \"diamonds/facets/FacetVault.sol\":1080:1802  function totalAssets() public view virtual returns (uint) {... */\n      swap2\n      pop\n      pop\n      jump\t// out\n        /* \"diamonds/facets/FacetVault.sol\":2815:2982  function convertToAssets(uint amountIn) public view virtual returns (uint) {... */\n    tag_35:\n        /* \"diamonds/facets/FacetVault.sol\":2884:2888  uint */\n      0x00\n        /* \"diamonds/facets/FacetVault.sol\":2907:2975  amountIn.send(totalAssets(), IFacetTokenLink(_self()).totalSupply()) */\n      tag_146\n        /* \"diamonds/facets/FacetVault.sol\":2921:2934  totalAssets() */\n      tag_147\n        /* \"diamonds/facets/FacetVault.sol\":2921:2932  totalAssets */\n      tag_29\n        /* \"diamonds/facets/FacetVault.sol\":2921:2934  totalAssets() */\n      jump\t// in\n    tag_147:\n        /* \"diamonds/facets/FacetSafe.sol\":4170:4174  this */\n      address\n      sub(shl(0xa0, 0x01), 0x01)\n        /* \"diamonds/facets/FacetVault.sol\":2936:2972  IFacetTokenLink(_self()).totalSupply */\n      and\n      0x18160ddd\n        /* \"diamonds/facets/FacetVault.sol\":2936:2974  IFacetTokenLink(_self()).totalSupply() */\n      mload(0x40)\n      dup2\n      0xffffffff\n      and\n      0xe0\n      shl\n      dup2\n      mstore\n      0x04\n      add\n      0x20\n      mload(0x40)\n      dup1\n      dup4\n      sub\n      dup2\n      dup7\n      gas\n      staticcall\n      iszero\n      dup1\n      iszero\n      tag_150\n      jumpi\n      returndatasize\n      0x00\n      dup1\n      returndatacopy\n      revert(0x00, returndatasize)\n    tag_150:\n      pop\n      pop\n      pop\n      pop\n      mload(0x40)\n      returndatasize\n      not(0x1f)\n      0x1f\n      dup3\n      add\n      and\n      dup3\n      add\n      dup1\n      0x40\n      mstore\n      pop\n      dup2\n      add\n      swap1\n      tag_151\n      swap2\n      swap1\n      tag_136\n      jump\t// in\n    tag_151:\n        /* \"diamonds/facets/FacetVault.sol\":2907:2915  amountIn */\n      dup5\n      swap2\n        /* \"diamonds/facets/FacetVault.sol\":2907:2975  amountIn.send(totalAssets(), IFacetTokenLink(_self()).totalSupply()) */\n      swap1\n        /* \"diamonds/facets/FacetVault.sol\":2907:2920  amountIn.send */\n      tag_152\n        /* \"diamonds/facets/FacetVault.sol\":2907:2975  amountIn.send(totalAssets(), IFacetTokenLink(_self()).totalSupply()) */\n      jump\t// in\n    tag_146:\n        /* \"diamonds/facets/FacetVault.sol\":2900:2975  return amountIn.send(totalAssets(), IFacetTokenLink(_self()).totalSupply()) */\n      swap3\n        /* \"diamonds/facets/FacetVault.sol\":2815:2982  function convertToAssets(uint amountIn) public view virtual returns (uint) {... */\n      swap2\n      pop\n      pop\n      jump\t// out\n        /* \"diamonds/facets/FacetSafe.sol\":2653:2794  function getTokenAllowedOutFromSafe(uint tokenId) public view virtual returns (address) {... */\n    tag_39:\n        /* \"diamonds/facets/FacetSafe.sol\":2732:2739  address */\n      0x00\n        /* \"diamonds/facets/FacetSafe.sol\":2758:2787  safe().allowedOut.at(tokenId) */\n      tag_146\n        /* \"diamonds/facets/FacetSafe.sol\":2779:2786  tokenId */\n      dup3\n        /* \"diamonds/facets/FacetSafe.sol\":2758:2764  safe() */\n      tag_155\n        /* \"diamonds/facets/FacetSafe.sol\":2758:2762  safe */\n      tag_114\n        /* \"diamonds/facets/FacetSafe.sol\":2758:2764  safe() */\n      jump\t// in\n    tag_155:\n        /* \"diamonds/facets/FacetSafe.sol\":2758:2775  safe().allowedOut */\n      0x03\n      add\n      swap1\n        /* \"diamonds/facets/FacetSafe.sol\":2758:2778  safe().allowedOut.at */\n      tag_121\n        /* \"diamonds/facets/FacetSafe.sol\":2758:2787  safe().allowedOut.at(tokenId) */\n      jump\t// in\n        /* \"diamonds/facets/FacetSafe.sol\":2933:3062  function isAllowedOut(address token) public view virtual returns (bool) {... */\n    tag_45:\n        /* \"diamonds/facets/FacetSafe.sol\":2999:3003  bool */\n      0x00\n        /* \"diamonds/facets/FacetSafe.sol\":3022:3055  safe().allowedOut.contains(token) */\n      tag_146\n        /* \"diamonds/facets/FacetSafe.sol\":3049:3054  token */\n      dup3\n        /* \"diamonds/facets/FacetSafe.sol\":3022:3028  safe() */\n      tag_158\n        /* \"diamonds/facets/FacetSafe.sol\":3022:3026  safe */\n      tag_114\n        /* \"diamonds/facets/FacetSafe.sol\":3022:3028  safe() */\n      jump\t// in\n    tag_158:\n        /* \"diamonds/facets/FacetSafe.sol\":3022:3039  safe().allowedOut */\n      0x03\n      add\n      swap1\n        /* \"diamonds/facets/FacetSafe.sol\":3022:3048  safe().allowedOut.contains */\n      tag_159\n        /* \"diamonds/facets/FacetSafe.sol\":3022:3055  safe().allowedOut.contains(token) */\n      jump\t// in\n        /* \"diamonds/facets/FacetSafe.sol\":1026:1201  function ____allowTokenInToSafe(address token) external virtual {... */\n    tag_50:\n        /* \"diamonds/facets/FacetSafe.sol\":1100:1111  _onlySelf() */\n      tag_161\n        /* \"diamonds/facets/FacetSafe.sol\":1100:1109  _onlySelf */\n      tag_162\n        /* \"diamonds/facets/FacetSafe.sol\":1100:1111  _onlySelf() */\n      jump\t// in\n    tag_161:\n        /* \"diamonds/facets/FacetSafe.sol\":1121:1148  safe().allowedIn.add(token) */\n      tag_163\n        /* \"diamonds/facets/FacetSafe.sol\":1142:1147  token */\n      dup2\n        /* \"diamonds/facets/FacetSafe.sol\":1121:1127  safe() */\n      tag_164\n        /* \"diamonds/facets/FacetSafe.sol\":1121:1125  safe */\n      tag_114\n        /* \"diamonds/facets/FacetSafe.sol\":1121:1127  safe() */\n      jump\t// in\n    tag_164:\n        /* \"diamonds/facets/FacetSafe.sol\":1121:1137  safe().allowedIn */\n      0x01\n      add\n      swap1\n        /* \"diamonds/facets/FacetSafe.sol\":1121:1141  safe().allowedIn.add */\n      tag_165\n        /* \"diamonds/facets/FacetSafe.sol\":1121:1148  safe().allowedIn.add(token) */\n      jump\t// in\n    tag_163:\n      pop\n        /* \"diamonds/facets/FacetSafe.sol\":1163:1194  PermissionGrantedTokenIn(token) */\n      mload(0x40)\n      sub(shl(0xa0, 0x01), 0x01)\n        /* \"#utility.yul\":545:577   */\n      dup3\n      and\n        /* \"#utility.yul\":527:578   */\n      dup2\n      mstore\n        /* \"diamonds/facets/FacetSafe.sol\":1163:1194  PermissionGrantedTokenIn(token) */\n      0xf6aea4ebd15c89ff6a16b7819fb6968ad0a0ce7e0085ef4c87a85f8c0cd2e46a\n      swap1\n        /* \"#utility.yul\":515:517   */\n      0x20\n        /* \"#utility.yul\":500:518   */\n      add\n        /* \"diamonds/facets/FacetSafe.sol\":1163:1194  PermissionGrantedTokenIn(token) */\n    tag_166:\n      mload(0x40)\n      dup1\n      swap2\n      sub\n      swap1\n      log1\n        /* \"diamonds/facets/FacetSafe.sol\":1026:1201  function ____allowTokenInToSafe(address token) external virtual {... */\n      pop\n      jump\t// out\n        /* \"diamonds/facets/FacetVault.sol\":1842:2035  function totalAssetsPerShare() public view virtual returns (uint) {... */\n    tag_52:\n        /* \"diamonds/facets/FacetVault.sol\":1902:1906  uint */\n      0x00\n        /* \"diamonds/facets/FacetSafe.sol\":4170:4174  this */\n      address\n      sub(shl(0xa0, 0x01), 0x01)\n        /* \"diamonds/facets/FacetVault.sol\":1941:1977  IFacetTokenLink(_self()).totalSupply */\n      and\n      0x18160ddd\n        /* \"diamonds/facets/FacetVault.sol\":1941:1979  IFacetTokenLink(_self()).totalSupply() */\n      mload(0x40)\n      dup2\n      0xffffffff\n      and\n      0xe0\n      shl\n      dup2\n      mstore\n      0x04\n      add\n      0x20\n      mload(0x40)\n      dup1\n      dup4\n      sub\n      dup2\n      dup7\n      gas\n      staticcall\n      iszero\n      dup1\n      iszero\n      tag_170\n      jumpi\n      returndatasize\n      0x00\n      dup1\n      returndatacopy\n      revert(0x00, returndatasize)\n    tag_170:\n      pop\n      pop\n      pop\n      pop\n      mload(0x40)\n      returndatasize\n      not(0x1f)\n      0x1f\n      dup3\n      add\n      and\n      dup3\n      add\n      dup1\n      0x40\n      mstore\n      pop\n      dup2\n      add\n      swap1\n      tag_171\n      swap2\n      swap1\n      tag_136\n      jump\t// in\n    tag_171:\n        /* \"diamonds/facets/FacetVault.sol\":1925:1938  totalAssets() */\n      tag_172\n        /* \"diamonds/facets/FacetVault.sol\":1925:1936  totalAssets */\n      tag_29\n        /* \"diamonds/facets/FacetVault.sol\":1925:1938  totalAssets() */\n      jump\t// in\n    tag_172:\n        /* \"diamonds/facets/FacetVault.sol\":1925:1979  totalAssets() / IFacetTokenLink(_self()).totalSupply() */\n      tag_173\n      swap2\n      swap1\n      tag_174\n      jump\t// in\n    tag_173:\n        /* \"diamonds/facets/FacetVault.sol\":1918:1979  return totalAssets() / IFacetTokenLink(_self()).totalSupply() */\n      swap1\n      pop\n        /* \"diamonds/facets/FacetVault.sol\":1842:2035  function totalAssetsPerShare() public view virtual returns (uint) {... */\n      swap1\n      jump\t// out\n        /* \"diamonds/facets/FacetSafe.sol\":2230:2362  function getTokensAllowedInToSafe() public view virtual returns (address[] memory) {... */\n    tag_55:\n        /* \"diamonds/facets/FacetSafe.sol\":2295:2311  address[] memory */\n      0x60\n        /* \"diamonds/facets/FacetSafe.sol\":2330:2355  safe().allowedIn.values() */\n      tag_173\n        /* \"diamonds/facets/FacetSafe.sol\":2330:2336  safe() */\n      tag_177\n        /* \"diamonds/facets/FacetSafe.sol\":2330:2334  safe */\n      tag_114\n        /* \"diamonds/facets/FacetSafe.sol\":2330:2336  safe() */\n      jump\t// in\n    tag_177:\n        /* \"diamonds/facets/FacetSafe.sol\":2330:2346  safe().allowedIn */\n      0x01\n      add\n        /* \"diamonds/facets/FacetSafe.sol\":2330:2353  safe().allowedIn.values */\n      tag_178\n        /* \"diamonds/facets/FacetSafe.sol\":2330:2355  safe().allowedIn.values() */\n      jump\t// in\n        /* \"diamonds/facets/FacetVault.sol\":3553:4915  function withdraw(uint amountIn) public virtual {... */\n    tag_60:\n        /* \"diamonds/facets/FacetVault.sol\":3611:3627  uint valueToSend */\n      0x00\n        /* \"diamonds/facets/FacetVault.sol\":3630:3655  convertToAssets(amountIn) */\n      tag_180\n        /* \"diamonds/facets/FacetVault.sol\":3646:3654  amountIn */\n      dup3\n        /* \"diamonds/facets/FacetVault.sol\":3630:3645  convertToAssets */\n      tag_35\n        /* \"diamonds/facets/FacetVault.sol\":3630:3655  convertToAssets(amountIn) */\n      jump\t// in\n    tag_180:\n        /* \"diamonds/facets/FacetVault.sol\":3611:3655  uint valueToSend = convertToAssets(amountIn) */\n      swap1\n      pop\n        /* \"diamonds/facets/FacetVault.sol\":3665:3749  _onlyCallerHasSufficientBalance(IFacetTokenLink(_self()).getLinkedToken(), amountIn) */\n      tag_181\n        /* \"diamonds/facets/FacetSafe.sol\":4170:4174  this */\n      address\n      sub(shl(0xa0, 0x01), 0x01)\n        /* \"diamonds/facets/FacetVault.sol\":3697:3736  IFacetTokenLink(_self()).getLinkedToken */\n      and\n      0x8752b02f\n        /* \"diamonds/facets/FacetVault.sol\":3697:3738  IFacetTokenLink(_self()).getLinkedToken() */\n      mload(0x40)\n      dup2\n      0xffffffff\n      and\n      0xe0\n      shl\n      dup2\n      mstore\n      0x04\n      add\n      0x20\n      mload(0x40)\n      dup1\n      dup4\n      sub\n      dup2\n      dup7\n      gas\n      staticcall\n      iszero\n      dup1\n      iszero\n      tag_184\n      jumpi\n      returndatasize\n      0x00\n      dup1\n      returndatacopy\n      revert(0x00, returndatasize)\n    tag_184:\n      pop\n      pop\n      pop\n      pop\n      mload(0x40)\n      returndatasize\n      not(0x1f)\n      0x1f\n      dup3\n      add\n      and\n      dup3\n      add\n      dup1\n      0x40\n      mstore\n      pop\n      dup2\n      add\n      swap1\n      tag_185\n      swap2\n      swap1\n      tag_186\n      jump\t// in\n    tag_185:\n        /* \"diamonds/facets/FacetVault.sol\":3740:3748  amountIn */\n      dup4\n        /* \"diamonds/facets/FacetVault.sol\":3665:3696  _onlyCallerHasSufficientBalance */\n      tag_187\n        /* \"diamonds/facets/FacetVault.sol\":3665:3749  _onlyCallerHasSufficientBalance(IFacetTokenLink(_self()).getLinkedToken(), amountIn) */\n      jump\t// in\n    tag_181:\n        /* \"diamonds/facets/FacetVault.sol\":3759:3771  uint portion */\n      0x00\n        /* \"diamonds/facets/FacetVault.sol\":3798:3811  totalAssets() */\n      tag_188\n        /* \"diamonds/facets/FacetVault.sol\":3798:3809  totalAssets */\n      tag_29\n        /* \"diamonds/facets/FacetVault.sol\":3798:3811  totalAssets() */\n      jump\t// in\n    tag_188:\n        /* \"diamonds/facets/FacetVault.sol\":3775:3794  valueToSend * 10000 */\n      tag_189\n        /* \"diamonds/facets/FacetVault.sol\":3775:3786  valueToSend */\n      dup4\n        /* \"diamonds/facets/FacetVault.sol\":3789:3794  10000 */\n      0x2710\n        /* \"diamonds/facets/FacetVault.sol\":3775:3794  valueToSend * 10000 */\n      tag_140\n      jump\t// in\n    tag_189:\n        /* \"diamonds/facets/FacetVault.sol\":3774:3811  (valueToSend * 10000) / totalAssets() */\n      tag_190\n      swap2\n      swap1\n      tag_174\n      jump\t// in\n    tag_190:\n        /* \"diamonds/facets/FacetVault.sol\":3759:3811  uint portion = (valueToSend * 10000) / totalAssets() */\n      swap1\n      pop\n        /* \"diamonds/facets/FacetVault.sol\":3847:3858  uint length */\n      0x00\n        /* \"diamonds/facets/FacetVault.sol\":3861:3883  safe().onHand.length() */\n      tag_191\n        /* \"diamonds/facets/FacetVault.sol\":3861:3867  safe() */\n      tag_113\n        /* \"diamonds/facets/FacetVault.sol\":3861:3865  safe */\n      tag_114\n        /* \"diamonds/facets/FacetVault.sol\":3861:3867  safe() */\n      jump\t// in\n        /* \"diamonds/facets/FacetVault.sol\":3861:3883  safe().onHand.length() */\n    tag_191:\n        /* \"diamonds/facets/FacetVault.sol\":3847:3883  uint length = safe().onHand.length() */\n      swap1\n      pop\n        /* \"diamonds/facets/FacetVault.sol\":3972:3978  uint i */\n      0x00\n        /* \"diamonds/facets/FacetVault.sol\":3967:4909  for (uint i = 0; i < length; i++) {... */\n    tag_193:\n        /* \"diamonds/facets/FacetVault.sol\":3988:3994  length */\n      dup2\n        /* \"diamonds/facets/FacetVault.sol\":3984:3985  i */\n      dup2\n        /* \"diamonds/facets/FacetVault.sol\":3984:3994  i < length */\n      lt\n        /* \"diamonds/facets/FacetVault.sol\":3967:4909  for (uint i = 0; i < length; i++) {... */\n      iszero\n      tag_194\n      jumpi\n        /* \"diamonds/facets/FacetVault.sol\":4015:4031  address tokenOut */\n      0x00\n        /* \"diamonds/facets/FacetVault.sol\":4034:4053  safe().onHand.at(i) */\n      tag_196\n        /* \"diamonds/facets/FacetVault.sol\":4051:4052  i */\n      dup3\n        /* \"diamonds/facets/FacetVault.sol\":4034:4040  safe() */\n      tag_120\n        /* \"diamonds/facets/FacetVault.sol\":4034:4038  safe */\n      tag_114\n        /* \"diamonds/facets/FacetVault.sol\":4034:4040  safe() */\n      jump\t// in\n        /* \"diamonds/facets/FacetVault.sol\":4034:4053  safe().onHand.at(i) */\n    tag_196:\n        /* \"diamonds/facets/FacetVault.sol\":4015:4053  address tokenOut = safe().onHand.at(i) */\n      swap1\n      pop\n      sub(shl(0xa0, 0x01), 0x01)\n        /* \"diamonds/facets/FacetVault.sol\":4071:4093  tokenOut == address(0) */\n      dup2\n      and\n        /* \"diamonds/facets/FacetVault.sol\":4067:4899  if (tokenOut == address(0)) {... */\n      tag_198\n      jumpi\n        /* \"diamonds/facets/FacetVault.sol\":4190:4201  uint amount */\n      0x00\n        /* \"diamonds/facets/FacetVault.sol\":4204:4233  getHoldingsInSafe(address(0)) */\n      tag_199\n        /* \"diamonds/facets/FacetVault.sol\":4230:4231  0 */\n      0x00\n        /* \"diamonds/facets/FacetVault.sol\":4204:4221  getHoldingsInSafe */\n      tag_78\n        /* \"diamonds/facets/FacetVault.sol\":4204:4233  getHoldingsInSafe(address(0)) */\n      jump\t// in\n    tag_199:\n        /* \"diamonds/facets/FacetVault.sol\":4190:4233  uint amount = getHoldingsInSafe(address(0)) */\n      swap1\n      pop\n        /* \"diamonds/facets/FacetVault.sol\":4251:4268  uint amountToSend */\n      0x00\n        /* \"diamonds/facets/FacetVault.sol\":4290:4297  portion */\n      dup6\n        /* \"diamonds/facets/FacetVault.sol\":4272:4286  amount / 10000 */\n      tag_200\n        /* \"diamonds/facets/FacetVault.sol\":4281:4286  10000 */\n      0x2710\n        /* \"diamonds/facets/FacetVault.sol\":4190:4233  uint amount = getHoldingsInSafe(address(0)) */\n      dup5\n        /* \"diamonds/facets/FacetVault.sol\":4272:4286  amount / 10000 */\n      tag_174\n      jump\t// in\n    tag_200:\n        /* \"diamonds/facets/FacetVault.sol\":4271:4297  (amount / 10000) * portion */\n      tag_201\n      swap2\n      swap1\n      tag_140\n      jump\t// in\n    tag_201:\n        /* \"diamonds/facets/FacetVault.sol\":4251:4297  uint amountToSend = (amount / 10000) * portion */\n      swap1\n      pop\n        /* \"diamonds/facets/FacetSafe.sol\":4170:4174  this */\n      address\n      sub(shl(0xa0, 0x01), 0x01)\n        /* \"diamonds/facets/FacetVault.sol\":4521:4553  IFacetSafe(_self()).____withdraw */\n      and\n      0x31b94450\n        /* \"imports/openzeppelin/utils/Context.sol\":720:730  msg.sender */\n      caller\n        /* \"diamonds/facets/FacetVault.sol\":4521:4581  IFacetSafe(_self()).____withdraw(_msgSender(), amountToSend) */\n      mload(0x40)\n      not(sub(shl(0xe0, 0x01), 0x01))\n      0xe0\n      dup5\n      swap1\n      shl\n      and\n      dup2\n      mstore\n      sub(shl(0xa0, 0x01), 0x01)\n        /* \"#utility.yul\":4329:4361   */\n      swap1\n      swap2\n      and\n        /* \"diamonds/facets/FacetVault.sol\":4521:4581  IFacetSafe(_self()).____withdraw(_msgSender(), amountToSend) */\n      0x04\n      dup3\n      add\n        /* \"#utility.yul\":4311:4362   */\n      mstore\n        /* \"#utility.yul\":4378:4396   */\n      0x24\n      dup2\n      add\n        /* \"#utility.yul\":4371:4405   */\n      dup5\n      swap1\n      mstore\n        /* \"#utility.yul\":4284:4302   */\n      0x44\n      add\n        /* \"diamonds/facets/FacetVault.sol\":4521:4581  IFacetSafe(_self()).____withdraw(_msgSender(), amountToSend) */\n      0x00\n      mload(0x40)\n      dup1\n      dup4\n      sub\n      dup2\n      0x00\n      dup8\n      dup1\n      extcodesize\n      iszero\n      dup1\n      iszero\n      tag_207\n      jumpi\n      0x00\n      dup1\n      revert\n    tag_207:\n      pop\n      gas\n      call\n      iszero\n      dup1\n      iszero\n      tag_209\n      jumpi\n      returndatasize\n      0x00\n      dup1\n      returndatacopy\n      revert(0x00, returndatasize)\n    tag_209:\n      pop\n      pop\n      pop\n      pop\n        /* \"diamonds/facets/FacetVault.sol\":4095:4596  {... */\n      pop\n      pop\n        /* \"diamonds/facets/FacetVault.sol\":4067:4899  if (tokenOut == address(0)) {... */\n      jump(tag_210)\n    tag_198:\n        /* \"diamonds/facets/FacetVault.sol\":4691:4702  uint amount */\n      0x00\n        /* \"diamonds/facets/FacetVault.sol\":4705:4732  getHoldingsInSafe(tokenOut) */\n      tag_211\n        /* \"diamonds/facets/FacetVault.sol\":4723:4731  tokenOut */\n      dup3\n        /* \"diamonds/facets/FacetVault.sol\":4705:4722  getHoldingsInSafe */\n      tag_78\n        /* \"diamonds/facets/FacetVault.sol\":4705:4732  getHoldingsInSafe(tokenOut) */\n      jump\t// in\n    tag_211:\n        /* \"diamonds/facets/FacetVault.sol\":4691:4732  uint amount = getHoldingsInSafe(tokenOut) */\n      swap1\n      pop\n        /* \"diamonds/facets/FacetVault.sol\":4750:4767  uint amountToSend */\n      0x00\n        /* \"diamonds/facets/FacetVault.sol\":4789:4796  portion */\n      dup6\n        /* \"diamonds/facets/FacetVault.sol\":4771:4785  amount / 10000 */\n      tag_212\n        /* \"diamonds/facets/FacetVault.sol\":4780:4785  10000 */\n      0x2710\n        /* \"diamonds/facets/FacetVault.sol\":4691:4732  uint amount = getHoldingsInSafe(tokenOut) */\n      dup5\n        /* \"diamonds/facets/FacetVault.sol\":4771:4785  amount / 10000 */\n      tag_174\n      jump\t// in\n    tag_212:\n        /* \"diamonds/facets/FacetVault.sol\":4770:4796  (amount / 10000) * portion */\n      tag_213\n      swap2\n      swap1\n      tag_140\n      jump\t// in\n    tag_213:\n        /* \"diamonds/facets/FacetVault.sol\":4814:4884  IFacetSafe(_self()).____withdraw(_msgSender(), tokenOut, amountToSend) */\n      mload(0x40)\n      shl(0xe1, 0x1b223e27)\n      dup2\n      mstore\n        /* \"diamonds/facets/FacetVault.sol\":4750:4796  uint amountToSend = (amount / 10000) * portion */\n      swap1\n      swap2\n      pop\n        /* \"diamonds/facets/FacetSafe.sol\":4170:4174  this */\n      address\n      swap1\n        /* \"diamonds/facets/FacetVault.sol\":4814:4846  IFacetSafe(_self()).____withdraw */\n      0x36447c4e\n      swap1\n        /* \"diamonds/facets/FacetVault.sol\":4814:4884  IFacetSafe(_self()).____withdraw(_msgSender(), tokenOut, amountToSend) */\n      tag_216\n      swap1\n        /* \"imports/openzeppelin/utils/Context.sol\":720:730  msg.sender */\n      caller\n      swap1\n        /* \"diamonds/facets/FacetVault.sol\":4861:4869  tokenOut */\n      dup8\n      swap1\n        /* \"diamonds/facets/FacetVault.sol\":4750:4796  uint amountToSend = (amount / 10000) * portion */\n      dup7\n      swap1\n        /* \"diamonds/facets/FacetVault.sol\":4814:4884  IFacetSafe(_self()).____withdraw(_msgSender(), tokenOut, amountToSend) */\n      0x04\n      add\n      tag_217\n      jump\t// in\n    tag_216:\n      0x00\n      mload(0x40)\n      dup1\n      dup4\n      sub\n      dup2\n      0x00\n      dup8\n      dup1\n      extcodesize\n      iszero\n      dup1\n      iszero\n      tag_218\n      jumpi\n      0x00\n      dup1\n      revert\n    tag_218:\n      pop\n      gas\n      call\n      iszero\n      dup1\n      iszero\n      tag_220\n      jumpi\n      returndatasize\n      0x00\n      dup1\n      returndatacopy\n      revert(0x00, returndatasize)\n    tag_220:\n      pop\n      pop\n      pop\n      pop\n        /* \"diamonds/facets/FacetVault.sol\":4602:4899  {... */\n      pop\n      pop\n        /* \"diamonds/facets/FacetVault.sol\":4067:4899  if (tokenOut == address(0)) {... */\n    tag_210:\n      pop\n        /* \"diamonds/facets/FacetVault.sol\":3996:3999  i++ */\n      dup1\n      tag_221\n      dup2\n      tag_144\n      jump\t// in\n    tag_221:\n      swap2\n      pop\n      pop\n        /* \"diamonds/facets/FacetVault.sol\":3967:4909  for (uint i = 0; i < length; i++) {... */\n      jump(tag_193)\n    tag_194:\n      pop\n        /* \"diamonds/facets/FacetVault.sol\":3601:4915  {... */\n      pop\n      pop\n      pop\n        /* \"diamonds/facets/FacetVault.sol\":3553:4915  function withdraw(uint amountIn) public virtual {... */\n      pop\n      jump\t// out\n        /* \"diamonds/facets/FacetSafe.sol\":1942:2086  function ____withdraw(address to, uint amountOut) nonReentrant() external virtual {... */\n    tag_64:\n        /* \"diamonds/facets/FacetSafe.sol\":898:904  safe() */\n      tag_223\n        /* \"diamonds/facets/FacetSafe.sol\":898:902  safe */\n      tag_114\n        /* \"diamonds/facets/FacetSafe.sol\":898:904  safe() */\n      jump\t// in\n    tag_223:\n        /* \"diamonds/facets/FacetSafe.sol\":898:911  safe().locked */\n      0x07\n      add\n      sload\n      0xff\n      and\n        /* \"diamonds/facets/FacetSafe.sol\":897:911  !safe().locked */\n      iszero\n        /* \"diamonds/facets/FacetSafe.sol\":889:941  require(!safe().locked, 'FacetSafe: reentrant call') */\n      tag_224\n      jumpi\n      mload(0x40)\n      shl(0xe5, 0x461bcd)\n      dup2\n      mstore\n      0x04\n      add\n      tag_225\n      swap1\n      tag_226\n      jump\t// in\n    tag_225:\n      mload(0x40)\n      dup1\n      swap2\n      sub\n      swap1\n      revert\n    tag_224:\n        /* \"diamonds/facets/FacetSafe.sol\":967:971  true */\n      0x01\n        /* \"diamonds/facets/FacetSafe.sol\":951:957  safe() */\n      tag_227\n        /* \"diamonds/facets/FacetSafe.sol\":951:955  safe */\n      tag_114\n        /* \"diamonds/facets/FacetSafe.sol\":951:957  safe() */\n      jump\t// in\n    tag_227:\n        /* \"diamonds/facets/FacetSafe.sol\":951:964  safe().locked */\n      0x07\n      add\n        /* \"diamonds/facets/FacetSafe.sol\":951:971  safe().locked = true */\n      dup1\n      sload\n      not(0xff)\n      and\n      swap2\n      iszero\n      iszero\n      swap2\n      swap1\n      swap2\n      or\n      swap1\n      sstore\n        /* \"diamonds/facets/FacetSafe.sol\":2034:2045  _onlySelf() */\n      tag_229\n        /* \"diamonds/facets/FacetSafe.sol\":2034:2043  _onlySelf */\n      tag_162\n        /* \"diamonds/facets/FacetSafe.sol\":2034:2045  _onlySelf() */\n      jump\t// in\n    tag_229:\n        /* \"diamonds/facets/FacetSafe.sol\":2055:2079  _withdraw(to, amountOut) */\n      tag_230\n        /* \"diamonds/facets/FacetSafe.sol\":2065:2067  to */\n      dup3\n        /* \"diamonds/facets/FacetSafe.sol\":2069:2078  amountOut */\n      dup3\n        /* \"diamonds/facets/FacetSafe.sol\":2055:2064  _withdraw */\n      tag_231\n        /* \"diamonds/facets/FacetSafe.sol\":2055:2079  _withdraw(to, amountOut) */\n      jump\t// in\n    tag_230:\n        /* \"diamonds/facets/FacetSafe.sol\":1008:1013  false */\n      0x00\n        /* \"diamonds/facets/FacetSafe.sol\":992:998  safe() */\n      tag_232\n        /* \"diamonds/facets/FacetSafe.sol\":992:996  safe */\n      tag_114\n        /* \"diamonds/facets/FacetSafe.sol\":992:998  safe() */\n      jump\t// in\n    tag_232:\n        /* \"diamonds/facets/FacetSafe.sol\":992:1005  safe().locked */\n      0x07\n      add\n        /* \"diamonds/facets/FacetSafe.sol\":992:1013  safe().locked = false */\n      dup1\n      sload\n      not(0xff)\n      and\n      swap2\n      iszero\n      iszero\n      swap2\n      swap1\n      swap2\n      or\n      swap1\n      sstore\n      pop\n      pop\n        /* \"diamonds/facets/FacetSafe.sol\":1942:2086  function ____withdraw(address to, uint amountOut) nonReentrant() external virtual {... */\n      jump\t// out\n        /* \"diamonds/facets/FacetSafe.sol\":1764:1936  function ____withdraw(address to, address tokenOut, uint amountOut) nonReentrant() external virtual {... */\n    tag_68:\n        /* \"diamonds/facets/FacetSafe.sol\":898:904  safe() */\n      tag_234\n        /* \"diamonds/facets/FacetSafe.sol\":898:902  safe */\n      tag_114\n        /* \"diamonds/facets/FacetSafe.sol\":898:904  safe() */\n      jump\t// in\n    tag_234:\n        /* \"diamonds/facets/FacetSafe.sol\":898:911  safe().locked */\n      0x07\n      add\n      sload\n      0xff\n      and\n        /* \"diamonds/facets/FacetSafe.sol\":897:911  !safe().locked */\n      iszero\n        /* \"diamonds/facets/FacetSafe.sol\":889:941  require(!safe().locked, 'FacetSafe: reentrant call') */\n      tag_235\n      jumpi\n      mload(0x40)\n      shl(0xe5, 0x461bcd)\n      dup2\n      mstore\n      0x04\n      add\n      tag_225\n      swap1\n      tag_226\n      jump\t// in\n    tag_235:\n        /* \"diamonds/facets/FacetSafe.sol\":967:971  true */\n      0x01\n        /* \"diamonds/facets/FacetSafe.sol\":951:957  safe() */\n      tag_237\n        /* \"diamonds/facets/FacetSafe.sol\":951:955  safe */\n      tag_114\n        /* \"diamonds/facets/FacetSafe.sol\":951:957  safe() */\n      jump\t// in\n    tag_237:\n        /* \"diamonds/facets/FacetSafe.sol\":951:964  safe().locked */\n      0x07\n      add\n        /* \"diamonds/facets/FacetSafe.sol\":951:971  safe().locked = true */\n      dup1\n      sload\n      not(0xff)\n      and\n      swap2\n      iszero\n      iszero\n      swap2\n      swap1\n      swap2\n      or\n      swap1\n      sstore\n        /* \"diamonds/facets/FacetSafe.sol\":1874:1885  _onlySelf() */\n      tag_239\n        /* \"diamonds/facets/FacetSafe.sol\":1874:1883  _onlySelf */\n      tag_162\n        /* \"diamonds/facets/FacetSafe.sol\":1874:1885  _onlySelf() */\n      jump\t// in\n    tag_239:\n        /* \"diamonds/facets/FacetSafe.sol\":1895:1929  _withdraw(to, tokenOut, amountOut) */\n      tag_240\n        /* \"diamonds/facets/FacetSafe.sol\":1905:1907  to */\n      dup4\n        /* \"diamonds/facets/FacetSafe.sol\":1909:1917  tokenOut */\n      dup4\n        /* \"diamonds/facets/FacetSafe.sol\":1919:1928  amountOut */\n      dup4\n        /* \"diamonds/facets/FacetSafe.sol\":1895:1904  _withdraw */\n      tag_241\n        /* \"diamonds/facets/FacetSafe.sol\":1895:1929  _withdraw(to, tokenOut, amountOut) */\n      jump\t// in\n    tag_240:\n        /* \"diamonds/facets/FacetSafe.sol\":1008:1013  false */\n      0x00\n        /* \"diamonds/facets/FacetSafe.sol\":992:998  safe() */\n      tag_242\n        /* \"diamonds/facets/FacetSafe.sol\":992:996  safe */\n      tag_114\n        /* \"diamonds/facets/FacetSafe.sol\":992:998  safe() */\n      jump\t// in\n    tag_242:\n        /* \"diamonds/facets/FacetSafe.sol\":992:1005  safe().locked */\n      0x07\n      add\n        /* \"diamonds/facets/FacetSafe.sol\":992:1013  safe().locked = false */\n      dup1\n      sload\n      not(0xff)\n      and\n      swap2\n      iszero\n      iszero\n      swap2\n      swap1\n      swap2\n      or\n      swap1\n      sstore\n      pop\n      pop\n      pop\n        /* \"diamonds/facets/FacetSafe.sol\":1764:1936  function ____withdraw(address to, address tokenOut, uint amountOut) nonReentrant() external virtual {... */\n      jump\t// out\n        /* \"diamonds/facets/FacetVault.sol\":2041:2736  function convertToShares(address tokenIn, uint amountIn) public view virtual returns (uint) {... */\n    tag_74:\n        /* \"diamonds/facets/FacetVault.sol\":2127:2131  uint */\n      0x00\n        /* \"diamonds/facets/FacetVault.sol\":2143:2157  uint8 decimals */\n      dup1\n        /* \"diamonds/facets/FacetVault.sol\":2167:2174  tokenIn */\n      dup4\n      sub(shl(0xa0, 0x01), 0x01)\n        /* \"diamonds/facets/FacetVault.sol\":2160:2184  IToken(tokenIn).decimals */\n      and\n      0x313ce567\n        /* \"diamonds/facets/FacetVault.sol\":2160:2186  IToken(tokenIn).decimals() */\n      mload(0x40)\n      dup2\n      0xffffffff\n      and\n      0xe0\n      shl\n      dup2\n      mstore\n      0x04\n      add\n      0x20\n      mload(0x40)\n      dup1\n      dup4\n      sub\n      dup2\n      dup7\n      gas\n      staticcall\n      iszero\n      dup1\n      iszero\n      tag_246\n      jumpi\n      returndatasize\n      0x00\n      dup1\n      returndatacopy\n      revert(0x00, returndatasize)\n    tag_246:\n      pop\n      pop\n      pop\n      pop\n      mload(0x40)\n      returndatasize\n      not(0x1f)\n      0x1f\n      dup3\n      add\n      and\n      dup3\n      add\n      dup1\n      0x40\n      mstore\n      pop\n      dup2\n      add\n      swap1\n      tag_247\n      swap2\n      swap1\n      tag_248\n      jump\t// in\n    tag_247:\n        /* \"diamonds/facets/FacetVault.sol\":2143:2186  uint8 decimals = IToken(tokenIn).decimals() */\n      swap1\n      pop\n        /* \"diamonds/facets/FacetVault.sol\":2207:2232  amountIn.normal(decimals) */\n      tag_249\n        /* \"diamonds/facets/FacetVault.sol\":2207:2215  amountIn */\n      dup4\n        /* \"diamonds/facets/FacetVault.sol\":2143:2186  uint8 decimals = IToken(tokenIn).decimals() */\n      dup3\n        /* \"diamonds/facets/FacetVault.sol\":2207:2222  amountIn.normal */\n      tag_138\n        /* \"diamonds/facets/FacetVault.sol\":2207:2232  amountIn.normal(decimals) */\n      jump\t// in\n    tag_249:\n        /* \"diamonds/facets/FacetVault.sol\":2196:2232  amountIn = amountIn.normal(decimals) */\n      swap3\n      pop\n        /* \"diamonds/facets/FacetVault.sol\":2246:2266  isAllowedIn(tokenIn) */\n      tag_250\n        /* \"diamonds/facets/FacetVault.sol\":2258:2265  tokenIn */\n      dup5\n        /* \"diamonds/facets/FacetVault.sol\":2246:2257  isAllowedIn */\n      tag_95\n        /* \"diamonds/facets/FacetVault.sol\":2246:2266  isAllowedIn(tokenIn) */\n      jump\t// in\n    tag_250:\n        /* \"diamonds/facets/FacetVault.sol\":2242:2730  if (isAllowedIn(tokenIn)) {... */\n      iszero\n      tag_251\n      jumpi\n        /* \"diamonds/facets/FacetVault.sol\":2282:2292  uint price */\n      0x00\n        /* \"diamonds/facets/FacetSafe.sol\":4170:4174  this */\n      address\n        /* \"diamonds/facets/FacetVault.sol\":2295:2359  IFacetChainlinkOracle(_self()).getChainlinkLatestAnswer(tokenIn) */\n      mload(0x40)\n      shl(0xe2, 0x3469c24b)\n      dup2\n      mstore\n      sub(shl(0xa0, 0x01), 0x01)\n        /* \"#utility.yul\":545:577   */\n      dup8\n      dup2\n      and\n        /* \"diamonds/facets/FacetVault.sol\":2295:2359  IFacetChainlinkOracle(_self()).getChainlinkLatestAnswer(tokenIn) */\n      0x04\n      dup4\n      add\n        /* \"#utility.yul\":527:578   */\n      mstore\n        /* \"diamonds/facets/FacetVault.sol\":2295:2350  IFacetChainlinkOracle(_self()).getChainlinkLatestAnswer */\n      swap2\n      swap1\n      swap2\n      and\n      swap1\n      0xd1a7092c\n      swap1\n        /* \"#utility.yul\":500:518   */\n      0x24\n      add\n        /* \"diamonds/facets/FacetVault.sol\":2295:2359  IFacetChainlinkOracle(_self()).getChainlinkLatestAnswer(tokenIn) */\n      0x20\n      mload(0x40)\n      dup1\n      dup4\n      sub\n      dup2\n      dup7\n      gas\n      staticcall\n      iszero\n      dup1\n      iszero\n      tag_255\n      jumpi\n      returndatasize\n      0x00\n      dup1\n      returndatacopy\n      revert(0x00, returndatasize)\n    tag_255:\n      pop\n      pop\n      pop\n      pop\n      mload(0x40)\n      returndatasize\n      not(0x1f)\n      0x1f\n      dup3\n      add\n      and\n      dup3\n      add\n      dup1\n      0x40\n      mstore\n      pop\n      dup2\n      add\n      swap1\n      tag_256\n      swap2\n      swap1\n      tag_136\n      jump\t// in\n    tag_256:\n        /* \"diamonds/facets/FacetVault.sol\":2282:2359  uint price = IFacetChainlinkOracle(_self()).getChainlinkLatestAnswer(tokenIn) */\n      swap1\n      pop\n        /* \"diamonds/facets/FacetVault.sol\":2381:2396  price.normal(8) */\n      tag_257\n        /* \"diamonds/facets/FacetVault.sol\":2282:2359  uint price = IFacetChainlinkOracle(_self()).getChainlinkLatestAnswer(tokenIn) */\n      dup2\n        /* \"diamonds/facets/FacetVault.sol\":2394:2395  8 */\n      0x08\n        /* \"diamonds/facets/FacetVault.sol\":2381:2393  price.normal */\n      tag_138\n        /* \"diamonds/facets/FacetVault.sol\":2381:2396  price.normal(8) */\n      jump\t// in\n    tag_257:\n        /* \"diamonds/facets/FacetVault.sol\":2373:2396  price = price.normal(8) */\n      swap1\n      pop\n        /* \"diamonds/facets/FacetVault.sol\":2410:2422  uint valueIn */\n      0x00\n        /* \"diamonds/facets/FacetVault.sol\":2426:2442  price * amountIn */\n      tag_258\n        /* \"diamonds/facets/FacetVault.sol\":2434:2442  amountIn */\n      dup6\n        /* \"diamonds/facets/FacetVault.sol\":2373:2396  price = price.normal(8) */\n      dup4\n        /* \"diamonds/facets/FacetVault.sol\":2426:2442  price * amountIn */\n      tag_140\n      jump\t// in\n    tag_258:\n        /* \"diamonds/facets/FacetVault.sol\":2410:2443  uint valueIn = (price * amountIn) */\n      swap1\n      pop\n        /* \"diamonds/facets/FacetVault.sol\":2457:2474  uint amountToMint */\n      0x00\n        /* \"diamonds/facets/FacetVault.sol\":2477:2544  valueIn.mint(totalAssets(), IFacetTokenLink(_self()).totalSupply()) */\n      tag_259\n        /* \"diamonds/facets/FacetVault.sol\":2490:2503  totalAssets() */\n      tag_260\n        /* \"diamonds/facets/FacetVault.sol\":2490:2501  totalAssets */\n      tag_29\n        /* \"diamonds/facets/FacetVault.sol\":2490:2503  totalAssets() */\n      jump\t// in\n    tag_260:\n        /* \"diamonds/facets/FacetSafe.sol\":4170:4174  this */\n      address\n      sub(shl(0xa0, 0x01), 0x01)\n        /* \"diamonds/facets/FacetVault.sol\":2505:2541  IFacetTokenLink(_self()).totalSupply */\n      and\n      0x18160ddd\n        /* \"diamonds/facets/FacetVault.sol\":2505:2543  IFacetTokenLink(_self()).totalSupply() */\n      mload(0x40)\n      dup2\n      0xffffffff\n      and\n      0xe0\n      shl\n      dup2\n      mstore\n      0x04\n      add\n      0x20\n      mload(0x40)\n      dup1\n      dup4\n      sub\n      dup2\n      dup7\n      gas\n      staticcall\n      iszero\n      dup1\n      iszero\n      tag_263\n      jumpi\n      returndatasize\n      0x00\n      dup1\n      returndatacopy\n      revert(0x00, returndatasize)\n    tag_263:\n      pop\n      pop\n      pop\n      pop\n      mload(0x40)\n      returndatasize\n      not(0x1f)\n      0x1f\n      dup3\n      add\n      and\n      dup3\n      add\n      dup1\n      0x40\n      mstore\n      pop\n      dup2\n      add\n      swap1\n      tag_264\n      swap2\n      swap1\n      tag_136\n      jump\t// in\n    tag_264:\n        /* \"diamonds/facets/FacetVault.sol\":2477:2484  valueIn */\n      dup5\n      swap2\n        /* \"diamonds/facets/FacetVault.sol\":2477:2544  valueIn.mint(totalAssets(), IFacetTokenLink(_self()).totalSupply()) */\n      swap1\n        /* \"diamonds/facets/FacetVault.sol\":2477:2489  valueIn.mint */\n      tag_265\n        /* \"diamonds/facets/FacetVault.sol\":2477:2544  valueIn.mint(totalAssets(), IFacetTokenLink(_self()).totalSupply()) */\n      jump\t// in\n    tag_259:\n        /* \"diamonds/facets/FacetVault.sol\":2457:2544  uint amountToMint = valueIn.mint(totalAssets(), IFacetTokenLink(_self()).totalSupply()) */\n      swap5\n      pop\n        /* \"diamonds/facets/FacetVault.sol\":2558:2577  return amountToMint */\n      tag_146\n      swap4\n      pop\n      pop\n      pop\n      pop\n      jump\n        /* \"diamonds/facets/FacetVault.sol\":2242:2730  if (isAllowedIn(tokenIn)) {... */\n    tag_251:\n      pop\n        /* \"diamonds/facets/FacetVault.sol\":2638:2639  0 */\n      0x00\n      swap4\n        /* \"diamonds/facets/FacetVault.sol\":2041:2736  function convertToShares(address tokenIn, uint amountIn) public view virtual returns (uint) {... */\n      swap3\n      pop\n      pop\n      pop\n      jump\t// out\n        /* \"diamonds/facets/FacetSafe.sol\":2101:2224  function getHoldingsInSafe(address token) public view virtual returns (uint) {... */\n    tag_78:\n        /* \"diamonds/facets/FacetSafe.sol\":2172:2176  uint */\n      0x00\n        /* \"diamonds/facets/FacetSafe.sol\":2195:2201  safe() */\n      tag_268\n        /* \"diamonds/facets/FacetSafe.sol\":2195:2199  safe */\n      tag_114\n        /* \"diamonds/facets/FacetSafe.sol\":2195:2201  safe() */\n      jump\t// in\n    tag_268:\n      sub(shl(0xa0, 0x01), 0x01)\n        /* \"diamonds/facets/FacetSafe.sol\":2195:2217  safe().balances[token] */\n      swap1\n      swap3\n      and\n        /* \"diamonds/facets/FacetSafe.sol\":2195:2210  safe().balances */\n      0x00\n        /* \"diamonds/facets/FacetSafe.sol\":2195:2217  safe().balances[token] */\n      swap1\n      dup2\n      mstore\n      0x20\n      swap3\n      swap1\n      swap3\n      mstore\n      pop\n      0x40\n      swap1\n      keccak256\n      sload\n      swap1\n        /* \"diamonds/facets/FacetSafe.sol\":2101:2224  function getHoldingsInSafe(address token) public view virtual returns (uint) {... */\n      jump\t// out\n        /* \"diamonds/facets/FacetSafe.sol\":2511:2647  function getTokensAllowedOutFromSafe() public view virtual returns (address[] memory) {... */\n    tag_85:\n        /* \"diamonds/facets/FacetSafe.sol\":2579:2595  address[] memory */\n      0x60\n        /* \"diamonds/facets/FacetSafe.sol\":2614:2640  safe().allowedOut.values() */\n      tag_173\n        /* \"diamonds/facets/FacetSafe.sol\":2614:2620  safe() */\n      tag_272\n        /* \"diamonds/facets/FacetSafe.sol\":2614:2618  safe */\n      tag_114\n        /* \"diamonds/facets/FacetSafe.sol\":2614:2620  safe() */\n      jump\t// in\n    tag_272:\n        /* \"diamonds/facets/FacetSafe.sol\":2614:2631  safe().allowedOut */\n      0x03\n      add\n        /* \"diamonds/facets/FacetSafe.sol\":2614:2638  safe().allowedOut.values */\n      tag_178\n        /* \"diamonds/facets/FacetSafe.sol\":2614:2640  safe().allowedOut.values() */\n      jump\t// in\n        /* \"diamonds/facets/FacetVault.sol\":3256:3524  function deposit(address tokenIn, uint amountIn) public nonReentrant() virtual {... */\n    tag_89:\n        /* \"diamonds/facets/FacetSafe.sol\":898:904  safe() */\n      tag_274\n        /* \"diamonds/facets/FacetSafe.sol\":898:902  safe */\n      tag_114\n        /* \"diamonds/facets/FacetSafe.sol\":898:904  safe() */\n      jump\t// in\n    tag_274:\n        /* \"diamonds/facets/FacetSafe.sol\":898:911  safe().locked */\n      0x07\n      add\n      sload\n      0xff\n      and\n        /* \"diamonds/facets/FacetSafe.sol\":897:911  !safe().locked */\n      iszero\n        /* \"diamonds/facets/FacetSafe.sol\":889:941  require(!safe().locked, 'FacetSafe: reentrant call') */\n      tag_275\n      jumpi\n      mload(0x40)\n      shl(0xe5, 0x461bcd)\n      dup2\n      mstore\n      0x04\n      add\n      tag_225\n      swap1\n      tag_226\n      jump\t// in\n    tag_275:\n        /* \"diamonds/facets/FacetSafe.sol\":967:971  true */\n      0x01\n        /* \"diamonds/facets/FacetSafe.sol\":951:957  safe() */\n      tag_277\n        /* \"diamonds/facets/FacetSafe.sol\":951:955  safe */\n      tag_114\n        /* \"diamonds/facets/FacetSafe.sol\":951:957  safe() */\n      jump\t// in\n    tag_277:\n        /* \"diamonds/facets/FacetSafe.sol\":951:964  safe().locked */\n      0x07\n      add\n        /* \"diamonds/facets/FacetSafe.sol\":951:971  safe().locked = true */\n      dup1\n      sload\n      not(0xff)\n      and\n      swap2\n      iszero\n      iszero\n      swap2\n      swap1\n      swap2\n      or\n      swap1\n      sstore\n        /* \"diamonds/facets/FacetVault.sol\":3397:3424  _deposit(tokenIn, amountIn) */\n      tag_279\n        /* \"diamonds/facets/FacetVault.sol\":3406:3413  tokenIn */\n      dup3\n        /* \"diamonds/facets/FacetVault.sol\":3415:3423  amountIn */\n      dup3\n        /* \"diamonds/facets/FacetVault.sol\":3397:3405  _deposit */\n      tag_280\n        /* \"diamonds/facets/FacetVault.sol\":3397:3424  _deposit(tokenIn, amountIn) */\n      jump\t// in\n    tag_279:\n        /* \"diamonds/facets/FacetSafe.sol\":4170:4174  this */\n      address\n        /* \"diamonds/facets/FacetVault.sol\":3434:3467  IFacetTokenLink(_self()).____mint */\n      0x4ac947f7\n        /* \"imports/openzeppelin/utils/Context.sol\":720:730  msg.sender */\n      caller\n        /* \"diamonds/facets/FacetVault.sol\":3482:3516  convertToShares(tokenIn, amountIn) */\n      tag_283\n        /* \"diamonds/facets/FacetVault.sol\":3498:3505  tokenIn */\n      dup6\n        /* \"diamonds/facets/FacetVault.sol\":3507:3515  amountIn */\n      dup6\n        /* \"diamonds/facets/FacetVault.sol\":3482:3497  convertToShares */\n      tag_74\n        /* \"diamonds/facets/FacetVault.sol\":3482:3516  convertToShares(tokenIn, amountIn) */\n      jump\t// in\n    tag_283:\n        /* \"diamonds/facets/FacetVault.sol\":3434:3517  IFacetTokenLink(_self()).____mint(_msgSender(), convertToShares(tokenIn, amountIn)) */\n      mload(0x40)\n      not(sub(shl(0xe0, 0x01), 0x01))\n      0xe0\n      dup6\n      swap1\n      shl\n      and\n      dup2\n      mstore\n      sub(shl(0xa0, 0x01), 0x01)\n        /* \"#utility.yul\":4329:4361   */\n      swap1\n      swap3\n      and\n        /* \"diamonds/facets/FacetVault.sol\":3434:3517  IFacetTokenLink(_self()).____mint(_msgSender(), convertToShares(tokenIn, amountIn)) */\n      0x04\n      dup4\n      add\n        /* \"#utility.yul\":4311:4362   */\n      mstore\n        /* \"#utility.yul\":4378:4396   */\n      0x24\n      dup3\n      add\n        /* \"#utility.yul\":4371:4405   */\n      mstore\n        /* \"#utility.yul\":4284:4302   */\n      0x44\n      add\n        /* \"diamonds/facets/FacetVault.sol\":3434:3517  IFacetTokenLink(_self()).____mint(_msgSender(), convertToShares(tokenIn, amountIn)) */\n      0x00\n      mload(0x40)\n      dup1\n      dup4\n      sub\n      dup2\n      0x00\n      dup8\n      dup1\n      extcodesize\n      iszero\n      dup1\n      iszero\n      tag_285\n      jumpi\n      0x00\n      dup1\n      revert\n    tag_285:\n      pop\n      gas\n      call\n      iszero\n      dup1\n      iszero\n      tag_287\n      jumpi\n      returndatasize\n      0x00\n      dup1\n      returndatacopy\n      revert(0x00, returndatasize)\n    tag_287:\n      pop\n      pop\n      pop\n      pop\n        /* \"diamonds/facets/FacetSafe.sol\":1008:1013  false */\n      0x00\n        /* \"diamonds/facets/FacetSafe.sol\":992:998  safe() */\n      tag_232\n        /* \"diamonds/facets/FacetSafe.sol\":992:996  safe */\n      tag_114\n        /* \"diamonds/facets/FacetSafe.sol\":992:998  safe() */\n      jump\t// in\n        /* \"diamonds/facets/FacetSafe.sol\":1392:1570  function ____allowTokenOutOfSafe(address token) external virtual {... */\n    tag_92:\n        /* \"diamonds/facets/FacetSafe.sol\":1467:1478  _onlySelf() */\n      tag_290\n        /* \"diamonds/facets/FacetSafe.sol\":1467:1476  _onlySelf */\n      tag_162\n        /* \"diamonds/facets/FacetSafe.sol\":1467:1478  _onlySelf() */\n      jump\t// in\n    tag_290:\n        /* \"diamonds/facets/FacetSafe.sol\":1488:1516  safe().allowedOut.add(token) */\n      tag_291\n        /* \"diamonds/facets/FacetSafe.sol\":1510:1515  token */\n      dup2\n        /* \"diamonds/facets/FacetSafe.sol\":1488:1494  safe() */\n      tag_292\n        /* \"diamonds/facets/FacetSafe.sol\":1488:1492  safe */\n      tag_114\n        /* \"diamonds/facets/FacetSafe.sol\":1488:1494  safe() */\n      jump\t// in\n    tag_292:\n        /* \"diamonds/facets/FacetSafe.sol\":1488:1505  safe().allowedOut */\n      0x03\n      add\n      swap1\n        /* \"diamonds/facets/FacetSafe.sol\":1488:1509  safe().allowedOut.add */\n      tag_165\n        /* \"diamonds/facets/FacetSafe.sol\":1488:1516  safe().allowedOut.add(token) */\n      jump\t// in\n    tag_291:\n      pop\n        /* \"diamonds/facets/FacetSafe.sol\":1531:1563  PermissionGrantedTokenOut(token) */\n      mload(0x40)\n      sub(shl(0xa0, 0x01), 0x01)\n        /* \"#utility.yul\":545:577   */\n      dup3\n      and\n        /* \"#utility.yul\":527:578   */\n      dup2\n      mstore\n        /* \"diamonds/facets/FacetSafe.sol\":1531:1563  PermissionGrantedTokenOut(token) */\n      0xb91009acff1ca23a9fe12400608cae8383f810cac953c1a16a99fe9b9c65abfb\n      swap1\n        /* \"#utility.yul\":515:517   */\n      0x20\n        /* \"#utility.yul\":500:518   */\n      add\n        /* \"diamonds/facets/FacetSafe.sol\":1531:1563  PermissionGrantedTokenOut(token) */\n      tag_166\n        /* \"#utility.yul\":381:584   */\n      jump\n        /* \"diamonds/facets/FacetSafe.sol\":2800:2927  function isAllowedIn(address token) public view virtual returns (bool) {... */\n    tag_95:\n        /* \"diamonds/facets/FacetSafe.sol\":2865:2869  bool */\n      0x00\n        /* \"diamonds/facets/FacetSafe.sol\":2888:2920  safe().allowedIn.contains(token) */\n      tag_146\n        /* \"diamonds/facets/FacetSafe.sol\":2914:2919  token */\n      dup3\n        /* \"diamonds/facets/FacetSafe.sol\":2888:2894  safe() */\n      tag_296\n        /* \"diamonds/facets/FacetSafe.sol\":2888:2892  safe */\n      tag_114\n        /* \"diamonds/facets/FacetSafe.sol\":2888:2894  safe() */\n      jump\t// in\n    tag_296:\n        /* \"diamonds/facets/FacetSafe.sol\":2888:2904  safe().allowedIn */\n      0x01\n      add\n      swap1\n        /* \"diamonds/facets/FacetSafe.sol\":2888:2913  safe().allowedIn.contains */\n      tag_159\n        /* \"diamonds/facets/FacetSafe.sol\":2888:2920  safe().allowedIn.contains(token) */\n      jump\t// in\n        /* \"diamonds/facets/FacetSafe.sol\":1576:1758  function ____forbidTokenOutOfSafe(address token) external virtual {... */\n    tag_99:\n        /* \"diamonds/facets/FacetSafe.sol\":1652:1663  _onlySelf() */\n      tag_298\n        /* \"diamonds/facets/FacetSafe.sol\":1652:1661  _onlySelf */\n      tag_162\n        /* \"diamonds/facets/FacetSafe.sol\":1652:1663  _onlySelf() */\n      jump\t// in\n    tag_298:\n        /* \"diamonds/facets/FacetSafe.sol\":1673:1704  safe().allowedOut.remove(token) */\n      tag_299\n        /* \"diamonds/facets/FacetSafe.sol\":1698:1703  token */\n      dup2\n        /* \"diamonds/facets/FacetSafe.sol\":1673:1679  safe() */\n      tag_300\n        /* \"diamonds/facets/FacetSafe.sol\":1673:1677  safe */\n      tag_114\n        /* \"diamonds/facets/FacetSafe.sol\":1673:1679  safe() */\n      jump\t// in\n    tag_300:\n        /* \"diamonds/facets/FacetSafe.sol\":1673:1690  safe().allowedOut */\n      0x03\n      add\n      swap1\n        /* \"diamonds/facets/FacetSafe.sol\":1673:1697  safe().allowedOut.remove */\n      tag_301\n        /* \"diamonds/facets/FacetSafe.sol\":1673:1704  safe().allowedOut.remove(token) */\n      jump\t// in\n    tag_299:\n      pop\n        /* \"diamonds/facets/FacetSafe.sol\":1719:1751  PermissionRevokedTokenOut(token) */\n      mload(0x40)\n      sub(shl(0xa0, 0x01), 0x01)\n        /* \"#utility.yul\":545:577   */\n      dup3\n      and\n        /* \"#utility.yul\":527:578   */\n      dup2\n      mstore\n        /* \"diamonds/facets/FacetSafe.sol\":1719:1751  PermissionRevokedTokenOut(token) */\n      0x64f9ae8a27a020b54f63a0d9ff5d3f0dd302b35eef11d16612b2a02b2d8a8248\n      swap1\n        /* \"#utility.yul\":515:517   */\n      0x20\n        /* \"#utility.yul\":500:518   */\n      add\n        /* \"diamonds/facets/FacetSafe.sol\":1719:1751  PermissionRevokedTokenOut(token) */\n      tag_166\n        /* \"#utility.yul\":381:584   */\n      jump\n        /* \"diamonds/facets/FacetVault.sol\":3101:3250  function previewDeposit(address tokenIn, uint amountIn) public view virtual returns (uint) {... */\n    tag_102:\n        /* \"diamonds/facets/FacetVault.sol\":3186:3190  uint */\n      0x00\n        /* \"diamonds/facets/FacetVault.sol\":3209:3243  convertToShares(tokenIn, amountIn) */\n      tag_304\n        /* \"diamonds/facets/FacetVault.sol\":3225:3232  tokenIn */\n      dup4\n        /* \"diamonds/facets/FacetVault.sol\":3234:3242  amountIn */\n      dup4\n        /* \"diamonds/facets/FacetVault.sol\":3209:3224  convertToShares */\n      tag_74\n        /* \"diamonds/facets/FacetVault.sol\":3209:3243  convertToShares(tokenIn, amountIn) */\n      jump\t// in\n    tag_304:\n        /* \"diamonds/facets/FacetVault.sol\":3202:3243  return convertToShares(tokenIn, amountIn) */\n      swap4\n        /* \"diamonds/facets/FacetVault.sol\":3101:3250  function previewDeposit(address tokenIn, uint amountIn) public view virtual returns (uint) {... */\n      swap3\n      pop\n      pop\n      pop\n      jump\t// out\n        /* \"diamonds/facets/FacetSafe.sol\":2368:2505  function getTokenAllowedInToSafe(uint tokenId) public view virtual returns (address) {... */\n    tag_106:\n        /* \"diamonds/facets/FacetSafe.sol\":2444:2451  address */\n      0x00\n        /* \"diamonds/facets/FacetSafe.sol\":2470:2498  safe().allowedIn.at(tokenId) */\n      tag_146\n        /* \"diamonds/facets/FacetSafe.sol\":2490:2497  tokenId */\n      dup3\n        /* \"diamonds/facets/FacetSafe.sol\":2470:2476  safe() */\n      tag_307\n        /* \"diamonds/facets/FacetSafe.sol\":2470:2474  safe */\n      tag_114\n        /* \"diamonds/facets/FacetSafe.sol\":2470:2476  safe() */\n      jump\t// in\n    tag_307:\n        /* \"diamonds/facets/FacetSafe.sol\":2470:2486  safe().allowedIn */\n      0x01\n      add\n      swap1\n        /* \"diamonds/facets/FacetSafe.sol\":2470:2489  safe().allowedIn.at */\n      tag_121\n        /* \"diamonds/facets/FacetSafe.sol\":2470:2498  safe().allowedIn.at(tokenId) */\n      jump\t// in\n        /* \"diamonds/facets/FacetSafe.sol\":1207:1386  function ____forbidTokenInToSafe(address token) external virtual {... */\n    tag_110:\n        /* \"diamonds/facets/FacetSafe.sol\":1282:1293  _onlySelf() */\n      tag_309\n        /* \"diamonds/facets/FacetSafe.sol\":1282:1291  _onlySelf */\n      tag_162\n        /* \"diamonds/facets/FacetSafe.sol\":1282:1293  _onlySelf() */\n      jump\t// in\n    tag_309:\n        /* \"diamonds/facets/FacetSafe.sol\":1303:1333  safe().allowedIn.remove(token) */\n      tag_310\n        /* \"diamonds/facets/FacetSafe.sol\":1327:1332  token */\n      dup2\n        /* \"diamonds/facets/FacetSafe.sol\":1303:1309  safe() */\n      tag_311\n        /* \"diamonds/facets/FacetSafe.sol\":1303:1307  safe */\n      tag_114\n        /* \"diamonds/facets/FacetSafe.sol\":1303:1309  safe() */\n      jump\t// in\n    tag_311:\n        /* \"diamonds/facets/FacetSafe.sol\":1303:1319  safe().allowedIn */\n      0x01\n      add\n      swap1\n        /* \"diamonds/facets/FacetSafe.sol\":1303:1326  safe().allowedIn.remove */\n      tag_301\n        /* \"diamonds/facets/FacetSafe.sol\":1303:1333  safe().allowedIn.remove(token) */\n      jump\t// in\n    tag_310:\n      pop\n        /* \"diamonds/facets/FacetSafe.sol\":1348:1379  PermissionRevokedTokenIn(token) */\n      mload(0x40)\n      sub(shl(0xa0, 0x01), 0x01)\n        /* \"#utility.yul\":545:577   */\n      dup3\n      and\n        /* \"#utility.yul\":527:578   */\n      dup2\n      mstore\n        /* \"diamonds/facets/FacetSafe.sol\":1348:1379  PermissionRevokedTokenIn(token) */\n      0x0a05ed313e53d05b8e9ebe468e240ec174f5190074867a051f35ac20709eed04\n      swap1\n        /* \"#utility.yul\":515:517   */\n      0x20\n        /* \"#utility.yul\":500:518   */\n      add\n        /* \"diamonds/facets/FacetSafe.sol\":1348:1379  PermissionRevokedTokenIn(token) */\n      tag_166\n        /* \"#utility.yul\":381:584   */\n      jump\n        /* \"diamonds/facets/slots/SlotSafe.sol\":488:659  function safe() internal pure virtual returns (StorageSafe storage s) {... */\n    tag_114:\n        /* \"diamonds/facets/slots/SlotSafe.sol\":233:255  keccak256('slot.safe') */\n      0xf2eeec4c06050035800631f1916b3a25e1fa154de963ec50f0ac015a5be9e618\n      swap1\n        /* \"diamonds/facets/slots/SlotSafe.sol\":488:659  function safe() internal pure virtual returns (StorageSafe storage s) {... */\n      jump\t// out\n        /* \"imports/openzeppelin/utils/structs/EnumerableSet.sol\":9107:9222  function length(AddressSet storage set) internal view returns (uint256) {... */\n    tag_115:\n        /* \"imports/openzeppelin/utils/structs/EnumerableSet.sol\":9170:9177  uint256 */\n      0x00\n        /* \"imports/openzeppelin/utils/structs/EnumerableSet.sol\":9196:9215  _length(set._inner) */\n      tag_146\n        /* \"imports/openzeppelin/utils/structs/EnumerableSet.sol\":9204:9207  set */\n      dup3\n        /* \"imports/openzeppelin/utils/structs/EnumerableSet.sol\":4546:4564  set._values.length */\n      sload\n      swap1\n        /* \"imports/openzeppelin/utils/structs/EnumerableSet.sol\":4464:4571  function _length(Set storage set) private view returns (uint256) {... */\n      jump\n        /* \"imports/openzeppelin/utils/structs/EnumerableSet.sol\":9564:9720  function at(AddressSet storage set, uint256 index) internal view returns (address) {... */\n    tag_121:\n        /* \"imports/openzeppelin/utils/structs/EnumerableSet.sol\":9638:9645  address */\n      0x00\n        /* \"imports/openzeppelin/utils/structs/EnumerableSet.sol\":9688:9710  _at(set._inner, index) */\n      tag_304\n        /* \"imports/openzeppelin/utils/structs/EnumerableSet.sol\":9692:9695  set */\n      dup4\n        /* \"imports/openzeppelin/utils/structs/EnumerableSet.sol\":9704:9709  index */\n      dup4\n        /* \"imports/openzeppelin/utils/structs/EnumerableSet.sol\":9688:9691  _at */\n      tag_319\n        /* \"imports/openzeppelin/utils/structs/EnumerableSet.sol\":9688:9710  _at(set._inner, index) */\n      jump\t// in\n        /* \"libraries/Uint.sol\":234:386  function normal(uint num, uint8 decimals) internal pure returns (uint) {... */\n    tag_138:\n        /* \"libraries/Uint.sol\":299:303  uint */\n      0x00\n        /* \"libraries/Uint.sol\":372:378  10**18 */\n      0x0de0b6b3a7640000\n        /* \"libraries/Uint.sol\":342:354  10**decimals */\n      tag_322\n        /* \"libraries/Uint.sol\":346:354  decimals */\n      dup4\n        /* \"libraries/Uint.sol\":342:344  10 */\n      0x0a\n        /* \"libraries/Uint.sol\":342:354  10**decimals */\n      tag_323\n      jump\t// in\n    tag_322:\n        /* \"libraries/Uint.sol\":324:338  num * (10**18) */\n      tag_324\n        /* \"libraries/Uint.sol\":324:327  num */\n      dup6\n        /* \"libraries/Uint.sol\":331:337  10**18 */\n      0x0de0b6b3a7640000\n        /* \"libraries/Uint.sol\":324:338  num * (10**18) */\n      tag_140\n      jump\t// in\n    tag_324:\n        /* \"libraries/Uint.sol\":324:355  num * (10**18) / (10**decimals) */\n      tag_325\n      swap2\n      swap1\n      tag_174\n      jump\t// in\n    tag_325:\n        /* \"libraries/Uint.sol\":323:367  (num * (10**18) / (10**decimals)) * (10**18) */\n      tag_326\n      swap1\n        /* \"libraries/Uint.sol\":360:366  10**18 */\n      0x0de0b6b3a7640000\n        /* \"libraries/Uint.sol\":323:367  (num * (10**18) / (10**decimals)) * (10**18) */\n      tag_140\n      jump\t// in\n    tag_326:\n        /* \"libraries/Uint.sol\":322:379  ((num * (10**18) / (10**decimals)) * (10**18)) / (10**18) */\n      tag_304\n      swap2\n      swap1\n      tag_174\n      jump\t// in\n        /* \"libraries/Finance.sol\":242:344  function send(uint a, uint b, uint s) internal pure returns (uint) {... */\n    tag_152:\n        /* \"libraries/Finance.sol\":303:307  uint */\n      0x00\n        /* \"libraries/Finance.sol\":336:337  s */\n      dup2\n        /* \"libraries/Finance.sol\":327:332  a * b */\n      tag_329\n        /* \"libraries/Finance.sol\":331:332  b */\n      dup5\n        /* \"libraries/Finance.sol\":327:328  a */\n      dup7\n        /* \"libraries/Finance.sol\":327:332  a * b */\n      tag_140\n      jump\t// in\n    tag_329:\n        /* \"libraries/Finance.sol\":326:337  (a * b) / s */\n      tag_330\n      swap2\n      swap1\n      tag_174\n      jump\t// in\n    tag_330:\n        /* \"libraries/Finance.sol\":319:337  return (a * b) / s */\n      swap5\n        /* \"libraries/Finance.sol\":242:344  function send(uint a, uint b, uint s) internal pure returns (uint) {... */\n      swap4\n      pop\n      pop\n      pop\n      pop\n      jump\t// out\n        /* \"imports/openzeppelin/utils/structs/EnumerableSet.sol\":8861:9026  function contains(AddressSet storage set, address value) internal view returns (bool) {... */\n    tag_159:\n      sub(shl(0xa0, 0x01), 0x01)\n        /* \"imports/openzeppelin/utils/structs/EnumerableSet.sol\":8994:9017  uint256(uint160(value)) */\n      dup2\n      and\n        /* \"imports/openzeppelin/utils/structs/EnumerableSet.sol\":8941:8945  bool */\n      0x00\n        /* \"imports/openzeppelin/utils/structs/EnumerableSet.sol\":4352:4371  set._indexes[value] */\n      swap1\n      dup2\n      mstore\n        /* \"imports/openzeppelin/utils/structs/EnumerableSet.sol\":4352:4364  set._indexes */\n      0x01\n      dup4\n      add\n        /* \"imports/openzeppelin/utils/structs/EnumerableSet.sol\":4352:4371  set._indexes[value] */\n      0x20\n      mstore\n      0x40\n      dup2\n      keccak256\n      sload\n        /* \"imports/openzeppelin/utils/structs/EnumerableSet.sol\":4352:4376  set._indexes[value] != 0 */\n      iszero\n      iszero\n        /* \"imports/openzeppelin/utils/structs/EnumerableSet.sol\":8964:9019  _contains(set._inner, bytes32(uint256(uint160(value)))) */\n      tag_304\n        /* \"imports/openzeppelin/utils/structs/EnumerableSet.sol\":4256:4383  function _contains(Set storage set, bytes32 value) private view returns (bool) {... */\n      jump\n        /* \"diamonds/facets/FacetSafe.sol\":3966:4082  function _onlySelf() internal view virtual {... */\n    tag_162:\n        /* \"imports/openzeppelin/utils/Context.sol\":720:730  msg.sender */\n      caller\n        /* \"diamonds/facets/FacetSafe.sol\":4170:4174  this */\n      address\n        /* \"diamonds/facets/FacetSafe.sol\":4027:4050  _msgSender() == _self() */\n      eq\n        /* \"diamonds/facets/FacetSafe.sol\":4019:4075  require(_msgSender() == _self(), 'FacetSafe: only self') */\n      tag_337\n      jumpi\n      mload(0x40)\n      shl(0xe5, 0x461bcd)\n      dup2\n      mstore\n        /* \"#utility.yul\":7013:7015   */\n      0x20\n        /* \"diamonds/facets/FacetSafe.sol\":4019:4075  require(_msgSender() == _self(), 'FacetSafe: only self') */\n      0x04\n      dup3\n      add\n        /* \"#utility.yul\":6995:7016   */\n      mstore\n        /* \"#utility.yul\":7052:7054   */\n      0x14\n        /* \"#utility.yul\":7032:7050   */\n      0x24\n      dup3\n      add\n        /* \"#utility.yul\":7025:7055   */\n      mstore\n      shl(0x61, 0x2330b1b2ba29b0b3329d1037b7363c9039b2b633)\n        /* \"#utility.yul\":7071:7089   */\n      0x44\n      dup3\n      add\n        /* \"#utility.yul\":7064:7114   */\n      mstore\n        /* \"#utility.yul\":7131:7149   */\n      0x64\n      add\n        /* \"diamonds/facets/FacetSafe.sol\":4019:4075  require(_msgSender() == _self(), 'FacetSafe: only self') */\n      tag_225\n        /* \"#utility.yul\":6811:7155   */\n      jump\n        /* \"diamonds/facets/FacetSafe.sol\":4019:4075  require(_msgSender() == _self(), 'FacetSafe: only self') */\n    tag_337:\n        /* \"diamonds/facets/FacetSafe.sol\":3966:4082  function _onlySelf() internal view virtual {... */\n      jump\t// out\n        /* \"imports/openzeppelin/utils/structs/EnumerableSet.sol\":8306:8456  function add(AddressSet storage set, address value) internal returns (bool) {... */\n    tag_165:\n        /* \"imports/openzeppelin/utils/structs/EnumerableSet.sol\":8376:8380  bool */\n      0x00\n        /* \"imports/openzeppelin/utils/structs/EnumerableSet.sol\":8399:8449  _add(set._inner, bytes32(uint256(uint160(value)))) */\n      tag_304\n        /* \"imports/openzeppelin/utils/structs/EnumerableSet.sol\":8404:8407  set */\n      dup4\n      sub(shl(0xa0, 0x01), 0x01)\n        /* \"imports/openzeppelin/utils/structs/EnumerableSet.sol\":8424:8447  uint256(uint160(value)) */\n      dup5\n      and\n        /* \"imports/openzeppelin/utils/structs/EnumerableSet.sol\":8399:8403  _add */\n      tag_342\n        /* \"imports/openzeppelin/utils/structs/EnumerableSet.sol\":8399:8449  _add(set._inner, bytes32(uint256(uint160(value)))) */\n      jump\t// in\n        /* \"imports/openzeppelin/utils/structs/EnumerableSet.sol\":10260:10560  function values(AddressSet storage set) internal view returns (address[] memory) {... */\n    tag_178:\n        /* \"imports/openzeppelin/utils/structs/EnumerableSet.sol\":10323:10339  address[] memory */\n      0x60\n        /* \"imports/openzeppelin/utils/structs/EnumerableSet.sol\":10351:10373  bytes32[] memory store */\n      0x00\n        /* \"imports/openzeppelin/utils/structs/EnumerableSet.sol\":10376:10395  _values(set._inner) */\n      tag_304\n        /* \"imports/openzeppelin/utils/structs/EnumerableSet.sol\":10384:10387  set */\n      dup4\n        /* \"imports/openzeppelin/utils/structs/EnumerableSet.sol\":10376:10383  _values */\n      tag_345\n        /* \"imports/openzeppelin/utils/structs/EnumerableSet.sol\":10376:10395  _values(set._inner) */\n      jump\t// in\n        /* \"diamonds/facets/FacetSafe.sol\":3369:3599  function _onlyCallerHasSufficientBalance(address token, uint amount) internal view virtual {... */\n    tag_187:\n        /* \"diamonds/facets/FacetSafe.sol\":3479:3526  amount.native(IERC20Metadata(token).decimals()) */\n      tag_347\n        /* \"diamonds/facets/FacetSafe.sol\":3508:3513  token */\n      dup3\n      sub(shl(0xa0, 0x01), 0x01)\n        /* \"diamonds/facets/FacetSafe.sol\":3493:3523  IERC20Metadata(token).decimals */\n      and\n      0x313ce567\n        /* \"diamonds/facets/FacetSafe.sol\":3493:3525  IERC20Metadata(token).decimals() */\n      mload(0x40)\n      dup2\n      0xffffffff\n      and\n      0xe0\n      shl\n      dup2\n      mstore\n      0x04\n      add\n      0x20\n      mload(0x40)\n      dup1\n      dup4\n      sub\n      dup2\n      dup7\n      gas\n      staticcall\n      iszero\n      dup1\n      iszero\n      tag_349\n      jumpi\n      returndatasize\n      0x00\n      dup1\n      returndatacopy\n      revert(0x00, returndatasize)\n    tag_349:\n      pop\n      pop\n      pop\n      pop\n      mload(0x40)\n      returndatasize\n      not(0x1f)\n      0x1f\n      dup3\n      add\n      and\n      dup3\n      add\n      dup1\n      0x40\n      mstore\n      pop\n      dup2\n      add\n      swap1\n      tag_350\n      swap2\n      swap1\n      tag_248\n      jump\t// in\n    tag_350:\n        /* \"diamonds/facets/FacetSafe.sol\":3479:3485  amount */\n      dup3\n      swap1\n        /* \"diamonds/facets/FacetSafe.sol\":3479:3492  amount.native */\n      tag_351\n        /* \"diamonds/facets/FacetSafe.sol\":3479:3526  amount.native(IERC20Metadata(token).decimals()) */\n      jump\t// in\n    tag_347:\n        /* \"diamonds/facets/FacetSafe.sol\":3470:3526  amount = amount.native(IERC20Metadata(token).decimals()) */\n      swap1\n      pop\n      dup1\n      sub(shl(0xa0, 0x01), 0x01)\n        /* \"diamonds/facets/FacetSafe.sol\":3544:3567  IERC20(token).balanceOf */\n      dup4\n      and\n      0x70a08231\n        /* \"imports/openzeppelin/utils/Context.sol\":720:730  msg.sender */\n      caller\n        /* \"diamonds/facets/FacetSafe.sol\":3544:3581  IERC20(token).balanceOf(_msgSender()) */\n      mload(0x40)\n      not(sub(shl(0xe0, 0x01), 0x01))\n      0xe0\n      dup5\n      swap1\n      shl\n      and\n      dup2\n      mstore\n      sub(shl(0xa0, 0x01), 0x01)\n        /* \"#utility.yul\":545:577   */\n      swap1\n      swap2\n      and\n        /* \"diamonds/facets/FacetSafe.sol\":3544:3581  IERC20(token).balanceOf(_msgSender()) */\n      0x04\n      dup3\n      add\n        /* \"#utility.yul\":527:578   */\n      mstore\n        /* \"#utility.yul\":500:518   */\n      0x24\n      add\n        /* \"diamonds/facets/FacetSafe.sol\":3544:3581  IERC20(token).balanceOf(_msgSender()) */\n      0x20\n      mload(0x40)\n      dup1\n      dup4\n      sub\n      dup2\n      dup7\n      gas\n      staticcall\n      iszero\n      dup1\n      iszero\n      tag_355\n      jumpi\n      returndatasize\n      0x00\n      dup1\n      returndatacopy\n      revert(0x00, returndatasize)\n    tag_355:\n      pop\n      pop\n      pop\n      pop\n      mload(0x40)\n      returndatasize\n      not(0x1f)\n      0x1f\n      dup3\n      add\n      and\n      dup3\n      add\n      dup1\n      0x40\n      mstore\n      pop\n      dup2\n      add\n      swap1\n      tag_356\n      swap2\n      swap1\n      tag_136\n      jump\t// in\n    tag_356:\n        /* \"diamonds/facets/FacetSafe.sol\":3544:3591  IERC20(token).balanceOf(_msgSender()) >= amount */\n      lt\n      iszero\n        /* \"diamonds/facets/FacetSafe.sol\":3536:3592  require(IERC20(token).balanceOf(_msgSender()) >= amount) */\n      tag_357\n      jumpi\n      0x00\n      dup1\n      revert\n    tag_357:\n        /* \"diamonds/facets/FacetSafe.sol\":3369:3599  function _onlyCallerHasSufficientBalance(address token, uint amount) internal view virtual {... */\n      pop\n      pop\n      jump\t// out\n        /* \"diamonds/facets/FacetSafe.sol\":5813:6228  function _withdraw(address to, uint amountOut) internal virtual {... */\n    tag_231:\n        /* \"diamonds/facets/FacetSafe.sol\":5887:5914  _onlyAllowedOut(address(0)) */\n      tag_360\n        /* \"diamonds/facets/FacetSafe.sol\":5911:5912  0 */\n      0x00\n        /* \"diamonds/facets/FacetSafe.sol\":5887:5902  _onlyAllowedOut */\n      tag_361\n        /* \"diamonds/facets/FacetSafe.sol\":5887:5914  _onlyAllowedOut(address(0)) */\n      jump\t// in\n    tag_360:\n        /* \"diamonds/facets/FacetSafe.sol\":5924:5976  _onlySelfHasSufficientBalance(address(0), amountOut) */\n      tag_362\n        /* \"diamonds/facets/FacetSafe.sol\":5962:5963  0 */\n      0x00\n        /* \"diamonds/facets/FacetSafe.sol\":5966:5975  amountOut */\n      dup3\n        /* \"diamonds/facets/FacetSafe.sol\":5924:5953  _onlySelfHasSufficientBalance */\n      tag_363\n        /* \"diamonds/facets/FacetSafe.sol\":5924:5976  _onlySelfHasSufficientBalance(address(0), amountOut) */\n      jump\t// in\n    tag_362:\n        /* \"diamonds/facets/FacetSafe.sol\":6017:6026  amountOut */\n      dup1\n        /* \"diamonds/facets/FacetSafe.sol\":5986:5992  safe() */\n      tag_364\n        /* \"diamonds/facets/FacetSafe.sol\":5986:5990  safe */\n      tag_114\n        /* \"diamonds/facets/FacetSafe.sol\":5986:5992  safe() */\n      jump\t// in\n    tag_364:\n        /* \"diamonds/facets/FacetSafe.sol\":5986:6001  safe().balances */\n      0x00\n        /* \"diamonds/facets/FacetSafe.sol\":5986:6013  safe().balances[address(0)] */\n      dup1\n      dup1\n      mstore\n      0x20\n      swap2\n      swap1\n      swap2\n      mstore\n      0x40\n      dup2\n      keccak256\n        /* \"diamonds/facets/FacetSafe.sol\":5986:6026  safe().balances[address(0)] -= amountOut */\n      dup1\n      sload\n        /* \"diamonds/facets/FacetSafe.sol\":5986:6013  safe().balances[address(0)] */\n      swap1\n      swap2\n        /* \"diamonds/facets/FacetSafe.sol\":5986:6001  safe().balances */\n      swap1\n        /* \"diamonds/facets/FacetSafe.sol\":5986:6026  safe().balances[address(0)] -= amountOut */\n      tag_365\n      swap1\n      dup5\n      swap1\n      tag_366\n      jump\t// in\n    tag_365:\n      swap1\n      swap2\n      sstore\n      pop\n        /* \"diamonds/facets/FacetSafe.sol\":6040:6046  safe() */\n      tag_367\n      swap1\n      pop\n        /* \"diamonds/facets/FacetSafe.sol\":6040:6044  safe */\n      tag_114\n        /* \"diamonds/facets/FacetSafe.sol\":6040:6046  safe() */\n      jump\t// in\n    tag_367:\n        /* \"diamonds/facets/FacetSafe.sol\":6040:6055  safe().balances */\n      0x00\n        /* \"diamonds/facets/FacetSafe.sol\":6040:6067  safe().balances[address(0)] */\n      dup1\n      dup1\n      mstore\n      0x20\n      swap2\n      swap1\n      swap2\n      mstore\n      0x40\n      dup2\n      keccak256\n      sload\n        /* \"diamonds/facets/FacetSafe.sol\":6040:6072  safe().balances[address(0)] == 0 */\n      swap1\n      sub\n        /* \"diamonds/facets/FacetSafe.sol\":6036:6131  if (safe().balances[address(0)] == 0) {... */\n      tag_368\n      jumpi\n        /* \"diamonds/facets/FacetSafe.sol\":6088:6120  safe().onHand.remove(address(0)) */\n      tag_369\n        /* \"diamonds/facets/FacetSafe.sol\":6117:6118  0 */\n      0x00\n        /* \"diamonds/facets/FacetSafe.sol\":6088:6094  safe() */\n      tag_370\n        /* \"diamonds/facets/FacetSafe.sol\":6088:6092  safe */\n      tag_114\n        /* \"diamonds/facets/FacetSafe.sol\":6088:6094  safe() */\n      jump\t// in\n    tag_370:\n        /* \"diamonds/facets/FacetSafe.sol\":6088:6101  safe().onHand */\n      0x05\n      add\n      swap1\n        /* \"diamonds/facets/FacetSafe.sol\":6088:6108  safe().onHand.remove */\n      tag_301\n        /* \"diamonds/facets/FacetSafe.sol\":6088:6120  safe().onHand.remove(address(0)) */\n      jump\t// in\n    tag_369:\n      pop\n        /* \"diamonds/facets/FacetSafe.sol\":6036:6131  if (safe().balances[address(0)] == 0) {... */\n    tag_368:\n        /* \"diamonds/facets/FacetSafe.sol\":6140:6171  payable(to).transfer(amountOut) */\n      mload(0x40)\n      sub(shl(0xa0, 0x01), 0x01)\n        /* \"diamonds/facets/FacetSafe.sol\":6140:6160  payable(to).transfer */\n      dup4\n      and\n      swap1\n        /* \"diamonds/facets/FacetSafe.sol\":6140:6171  payable(to).transfer(amountOut) */\n      dup3\n      iszero\n      0x08fc\n      mul\n      swap1\n        /* \"diamonds/facets/FacetSafe.sol\":6161:6170  amountOut */\n      dup4\n      swap1\n        /* \"diamonds/facets/FacetSafe.sol\":6140:6171  payable(to).transfer(amountOut) */\n      0x00\n      dup2\n      dup2\n      dup2\n        /* \"diamonds/facets/FacetSafe.sol\":6161:6170  amountOut */\n      dup6\n        /* \"diamonds/facets/FacetSafe.sol\":6140:6160  payable(to).transfer */\n      dup9\n        /* \"diamonds/facets/FacetSafe.sol\":6140:6171  payable(to).transfer(amountOut) */\n      dup9\n      call\n      swap4\n      pop\n      pop\n      pop\n      pop\n      iszero\n      dup1\n      iszero\n      tag_372\n      jumpi\n      returndatasize\n      0x00\n      dup1\n      returndatacopy\n      revert(0x00, returndatasize)\n    tag_372:\n      pop\n        /* \"diamonds/facets/FacetSafe.sol\":6186:6221  Withdraw(to, address(0), amountOut) */\n      0x9b1bfa7fa9ee420a16e124f794c35ac9f90472acc99140eb2f6447c714cad8eb\n        /* \"diamonds/facets/FacetSafe.sol\":6195:6197  to */\n      dup3\n        /* \"diamonds/facets/FacetSafe.sol\":6207:6208  0 */\n      0x00\n        /* \"diamonds/facets/FacetSafe.sol\":6211:6220  amountOut */\n      dup4\n        /* \"diamonds/facets/FacetSafe.sol\":6186:6221  Withdraw(to, address(0), amountOut) */\n      mload(0x40)\n      tag_373\n      swap4\n      swap3\n      swap2\n      swap1\n      tag_217\n      jump\t// in\n    tag_373:\n      mload(0x40)\n      dup1\n      swap2\n      sub\n      swap1\n      log1\n        /* \"diamonds/facets/FacetSafe.sol\":5813:6228  function _withdraw(address to, uint amountOut) internal virtual {... */\n      pop\n      pop\n      jump\t// out\n        /* \"diamonds/facets/FacetSafe.sol\":5067:5737  function _withdraw(address to, address tokenOut, uint amountOut) internal virtual {... */\n    tag_241:\n        /* \"diamonds/facets/FacetSafe.sol\":5181:5189  tokenOut */\n      dup2\n      sub(shl(0xa0, 0x01), 0x01)\n        /* \"diamonds/facets/FacetSafe.sol\":5208:5230  tokenOut != address(0) */\n      dup2\n      and\n        /* \"diamonds/facets/FacetSafe.sol\":5200:5265  require(tokenOut != address(0), 'FacetSafe: inapropriate method') */\n      tag_375\n      jumpi\n      mload(0x40)\n      shl(0xe5, 0x461bcd)\n      dup2\n      mstore\n        /* \"#utility.yul\":7495:7497   */\n      0x20\n        /* \"diamonds/facets/FacetSafe.sol\":5200:5265  require(tokenOut != address(0), 'FacetSafe: inapropriate method') */\n      0x04\n      dup3\n      add\n        /* \"#utility.yul\":7477:7498   */\n      mstore\n        /* \"#utility.yul\":7534:7536   */\n      0x1e\n        /* \"#utility.yul\":7514:7532   */\n      0x24\n      dup3\n      add\n        /* \"#utility.yul\":7507:7537   */\n      mstore\n        /* \"#utility.yul\":7573:7605   */\n      0x4661636574536166653a20696e6170726f707269617465206d6574686f640000\n        /* \"#utility.yul\":7553:7571   */\n      0x44\n      dup3\n      add\n        /* \"#utility.yul\":7546:7606   */\n      mstore\n        /* \"#utility.yul\":7623:7641   */\n      0x64\n      add\n        /* \"diamonds/facets/FacetSafe.sol\":5200:5265  require(tokenOut != address(0), 'FacetSafe: inapropriate method') */\n      tag_225\n        /* \"#utility.yul\":7293:7647   */\n      jump\n        /* \"diamonds/facets/FacetSafe.sol\":5200:5265  require(tokenOut != address(0), 'FacetSafe: inapropriate method') */\n    tag_375:\n        /* \"diamonds/facets/FacetSafe.sol\":5275:5300  _onlyAllowedOut(tokenOut) */\n      tag_378\n        /* \"diamonds/facets/FacetSafe.sol\":5291:5299  tokenOut */\n      dup4\n        /* \"diamonds/facets/FacetSafe.sol\":5275:5290  _onlyAllowedOut */\n      tag_361\n        /* \"diamonds/facets/FacetSafe.sol\":5275:5300  _onlyAllowedOut(tokenOut) */\n      jump\t// in\n    tag_378:\n        /* \"diamonds/facets/FacetSafe.sol\":5310:5360  _onlySelfHasSufficientBalance(tokenOut, amountOut) */\n      tag_379\n        /* \"diamonds/facets/FacetSafe.sol\":5340:5348  tokenOut */\n      dup4\n        /* \"diamonds/facets/FacetSafe.sol\":5350:5359  amountOut */\n      dup4\n        /* \"diamonds/facets/FacetSafe.sol\":5310:5339  _onlySelfHasSufficientBalance */\n      tag_363\n        /* \"diamonds/facets/FacetSafe.sol\":5310:5360  _onlySelfHasSufficientBalance(tokenOut, amountOut) */\n      jump\t// in\n    tag_379:\n        /* \"diamonds/facets/FacetSafe.sol\":5399:5408  amountOut */\n      dup2\n        /* \"diamonds/facets/FacetSafe.sol\":5370:5376  safe() */\n      tag_380\n        /* \"diamonds/facets/FacetSafe.sol\":5370:5374  safe */\n      tag_114\n        /* \"diamonds/facets/FacetSafe.sol\":5370:5376  safe() */\n      jump\t// in\n    tag_380:\n      sub(shl(0xa0, 0x01), 0x01)\n        /* \"diamonds/facets/FacetSafe.sol\":5370:5395  safe().balances[tokenOut] */\n      dup6\n      and\n        /* \"diamonds/facets/FacetSafe.sol\":5370:5385  safe().balances */\n      0x00\n        /* \"diamonds/facets/FacetSafe.sol\":5370:5395  safe().balances[tokenOut] */\n      swap1\n      dup2\n      mstore\n      0x20\n      swap2\n      swap1\n      swap2\n      mstore\n      0x40\n      dup2\n      keccak256\n        /* \"diamonds/facets/FacetSafe.sol\":5370:5408  safe().balances[tokenOut] -= amountOut */\n      dup1\n      sload\n        /* \"diamonds/facets/FacetSafe.sol\":5370:5395  safe().balances[tokenOut] */\n      swap1\n      swap2\n        /* \"diamonds/facets/FacetSafe.sol\":5370:5385  safe().balances */\n      swap1\n        /* \"diamonds/facets/FacetSafe.sol\":5370:5408  safe().balances[tokenOut] -= amountOut */\n      tag_381\n      swap1\n      dup5\n      swap1\n      tag_366\n      jump\t// in\n    tag_381:\n      swap1\n      swap2\n      sstore\n      pop\n        /* \"diamonds/facets/FacetSafe.sol\":5422:5428  safe() */\n      tag_382\n      swap1\n      pop\n        /* \"diamonds/facets/FacetSafe.sol\":5422:5426  safe */\n      tag_114\n        /* \"diamonds/facets/FacetSafe.sol\":5422:5428  safe() */\n      jump\t// in\n    tag_382:\n      sub(shl(0xa0, 0x01), 0x01)\n        /* \"diamonds/facets/FacetSafe.sol\":5422:5447  safe().balances[tokenOut] */\n      dup5\n      and\n        /* \"diamonds/facets/FacetSafe.sol\":5422:5437  safe().balances */\n      0x00\n        /* \"diamonds/facets/FacetSafe.sol\":5422:5447  safe().balances[tokenOut] */\n      swap1\n      dup2\n      mstore\n      0x20\n      swap2\n      swap1\n      swap2\n      mstore\n      0x40\n      dup2\n      keccak256\n      sload\n        /* \"diamonds/facets/FacetSafe.sol\":5422:5452  safe().balances[tokenOut] == 0 */\n      swap1\n      sub\n        /* \"diamonds/facets/FacetSafe.sol\":5418:5509  if (safe().balances[tokenOut] == 0) {... */\n      tag_383\n      jumpi\n        /* \"diamonds/facets/FacetSafe.sol\":5468:5498  safe().onHand.remove(tokenOut) */\n      tag_384\n        /* \"diamonds/facets/FacetSafe.sol\":5489:5497  tokenOut */\n      dup4\n        /* \"diamonds/facets/FacetSafe.sol\":5468:5474  safe() */\n      tag_370\n        /* \"diamonds/facets/FacetSafe.sol\":5468:5472  safe */\n      tag_114\n        /* \"diamonds/facets/FacetSafe.sol\":5468:5474  safe() */\n      jump\t// in\n        /* \"diamonds/facets/FacetSafe.sol\":5468:5498  safe().onHand.remove(tokenOut) */\n    tag_384:\n      pop\n        /* \"diamonds/facets/FacetSafe.sol\":5418:5509  if (safe().balances[tokenOut] == 0) {... */\n    tag_383:\n        /* \"diamonds/facets/FacetSafe.sol\":5603:5608  token */\n      dup1\n      sub(shl(0xa0, 0x01), 0x01)\n        /* \"diamonds/facets/FacetSafe.sol\":5603:5617  token.transfer */\n      and\n      0xa9059cbb\n        /* \"diamonds/facets/FacetSafe.sol\":5618:5620  to */\n      dup6\n        /* \"diamonds/facets/FacetSafe.sol\":5622:5681  amountOut.native(IERC20Metadata(address(token)).decimals()) */\n      tag_386\n        /* \"diamonds/facets/FacetSafe.sol\":5662:5667  token */\n      dup5\n      sub(shl(0xa0, 0x01), 0x01)\n        /* \"diamonds/facets/FacetSafe.sol\":5639:5678  IERC20Metadata(address(token)).decimals */\n      and\n      0x313ce567\n        /* \"diamonds/facets/FacetSafe.sol\":5639:5680  IERC20Metadata(address(token)).decimals() */\n      mload(0x40)\n      dup2\n      0xffffffff\n      and\n      0xe0\n      shl\n      dup2\n      mstore\n      0x04\n      add\n      0x20\n      mload(0x40)\n      dup1\n      dup4\n      sub\n      dup2\n      dup7\n      gas\n      staticcall\n      iszero\n      dup1\n      iszero\n      tag_388\n      jumpi\n      returndatasize\n      0x00\n      dup1\n      returndatacopy\n      revert(0x00, returndatasize)\n    tag_388:\n      pop\n      pop\n      pop\n      pop\n      mload(0x40)\n      returndatasize\n      not(0x1f)\n      0x1f\n      dup3\n      add\n      and\n      dup3\n      add\n      dup1\n      0x40\n      mstore\n      pop\n      dup2\n      add\n      swap1\n      tag_389\n      swap2\n      swap1\n      tag_248\n      jump\t// in\n    tag_389:\n        /* \"diamonds/facets/FacetSafe.sol\":5622:5631  amountOut */\n      dup7\n      swap1\n        /* \"diamonds/facets/FacetSafe.sol\":5622:5638  amountOut.native */\n      tag_351\n        /* \"diamonds/facets/FacetSafe.sol\":5622:5681  amountOut.native(IERC20Metadata(address(token)).decimals()) */\n      jump\t// in\n    tag_386:\n        /* \"diamonds/facets/FacetSafe.sol\":5603:5682  token.transfer(to, amountOut.native(IERC20Metadata(address(token)).decimals())) */\n      mload(0x40)\n      not(sub(shl(0xe0, 0x01), 0x01))\n      0xe0\n      dup6\n      swap1\n      shl\n      and\n      dup2\n      mstore\n      sub(shl(0xa0, 0x01), 0x01)\n        /* \"#utility.yul\":4329:4361   */\n      swap1\n      swap3\n      and\n        /* \"diamonds/facets/FacetSafe.sol\":5603:5682  token.transfer(to, amountOut.native(IERC20Metadata(address(token)).decimals())) */\n      0x04\n      dup4\n      add\n        /* \"#utility.yul\":4311:4362   */\n      mstore\n        /* \"#utility.yul\":4378:4396   */\n      0x24\n      dup3\n      add\n        /* \"#utility.yul\":4371:4405   */\n      mstore\n        /* \"#utility.yul\":4284:4302   */\n      0x44\n      add\n        /* \"diamonds/facets/FacetSafe.sol\":5603:5682  token.transfer(to, amountOut.native(IERC20Metadata(address(token)).decimals())) */\n      0x20\n      mload(0x40)\n      dup1\n      dup4\n      sub\n      dup2\n      0x00\n      dup8\n      gas\n      call\n      iszero\n      dup1\n      iszero\n      tag_392\n      jumpi\n      returndatasize\n      0x00\n      dup1\n      returndatacopy\n      revert(0x00, returndatasize)\n    tag_392:\n      pop\n      pop\n      pop\n      pop\n      mload(0x40)\n      returndatasize\n      not(0x1f)\n      0x1f\n      dup3\n      add\n      and\n      dup3\n      add\n      dup1\n      0x40\n      mstore\n      pop\n      dup2\n      add\n      swap1\n      tag_393\n      swap2\n      swap1\n      tag_128\n      jump\t// in\n    tag_393:\n      pop\n        /* \"diamonds/facets/FacetSafe.sol\":5697:5730  Withdraw(to, tokenOut, amountOut) */\n      0x9b1bfa7fa9ee420a16e124f794c35ac9f90472acc99140eb2f6447c714cad8eb\n        /* \"diamonds/facets/FacetSafe.sol\":5706:5708  to */\n      dup5\n        /* \"diamonds/facets/FacetSafe.sol\":5710:5718  tokenOut */\n      dup5\n        /* \"diamonds/facets/FacetSafe.sol\":5720:5729  amountOut */\n      dup5\n        /* \"diamonds/facets/FacetSafe.sol\":5697:5730  Withdraw(to, tokenOut, amountOut) */\n      mload(0x40)\n      tag_394\n      swap4\n      swap3\n      swap2\n      swap1\n      tag_217\n      jump\t// in\n    tag_394:\n      mload(0x40)\n      dup1\n      swap2\n      sub\n      swap1\n      log1\n        /* \"diamonds/facets/FacetSafe.sol\":5149:5737  {... */\n      pop\n        /* \"diamonds/facets/FacetSafe.sol\":5067:5737  function _withdraw(address to, address tokenOut, uint amountOut) internal virtual {... */\n      pop\n      pop\n      pop\n      jump\t// out\n        /* \"libraries/Finance.sol\":134:236  function mint(uint v, uint b, uint s) internal pure returns (uint) {... */\n    tag_265:\n        /* \"libraries/Finance.sol\":195:199  uint */\n      0x00\n        /* \"libraries/Finance.sol\":228:229  b */\n      dup3\n        /* \"libraries/Finance.sol\":219:224  v * s */\n      tag_329\n        /* \"libraries/Finance.sol\":223:224  s */\n      dup4\n        /* \"libraries/Finance.sol\":219:220  v */\n      dup7\n        /* \"libraries/Finance.sol\":219:224  v * s */\n      tag_140\n      jump\t// in\n        /* \"diamonds/facets/FacetSafe.sol\":4226:4698  function _deposit(address tokenIn, uint amountIn) internal virtual {... */\n    tag_280:\n        /* \"diamonds/facets/FacetSafe.sol\":4325:4332  tokenIn */\n      dup2\n        /* \"diamonds/facets/FacetSafe.sol\":4343:4366  _onlyAllowedIn(tokenIn) */\n      tag_399\n        /* \"diamonds/facets/FacetSafe.sol\":4325:4332  tokenIn */\n      dup2\n        /* \"diamonds/facets/FacetSafe.sol\":4343:4357  _onlyAllowedIn */\n      tag_400\n        /* \"diamonds/facets/FacetSafe.sol\":4343:4366  _onlyAllowedIn(tokenIn) */\n      jump\t// in\n    tag_399:\n        /* \"diamonds/facets/FacetSafe.sol\":4376:4426  _onlyCallerHasSufficientBalance(tokenIn, amountIn) */\n      tag_401\n        /* \"diamonds/facets/FacetSafe.sol\":4408:4415  tokenIn */\n      dup4\n        /* \"diamonds/facets/FacetSafe.sol\":4417:4425  amountIn */\n      dup4\n        /* \"diamonds/facets/FacetSafe.sol\":4376:4407  _onlyCallerHasSufficientBalance */\n      tag_187\n        /* \"diamonds/facets/FacetSafe.sol\":4376:4426  _onlyCallerHasSufficientBalance(tokenIn, amountIn) */\n      jump\t// in\n    tag_401:\n      sub(shl(0xa0, 0x01), 0x01)\n        /* \"diamonds/facets/FacetSafe.sol\":4436:4454  token.transferFrom */\n      dup2\n      and\n      0x23b872dd\n        /* \"imports/openzeppelin/utils/Context.sol\":720:730  msg.sender */\n      caller\n        /* \"diamonds/facets/FacetSafe.sol\":4170:4174  this */\n      address\n        /* \"diamonds/facets/FacetSafe.sol\":4478:4529  amountIn.native(IERC20Metadata(tokenIn).decimals()) */\n      tag_404\n        /* \"diamonds/facets/FacetSafe.sol\":4509:4516  tokenIn */\n      dup8\n      sub(shl(0xa0, 0x01), 0x01)\n        /* \"diamonds/facets/FacetSafe.sol\":4494:4526  IERC20Metadata(tokenIn).decimals */\n      and\n      0x313ce567\n        /* \"diamonds/facets/FacetSafe.sol\":4494:4528  IERC20Metadata(tokenIn).decimals() */\n      mload(0x40)\n      dup2\n      0xffffffff\n      and\n      0xe0\n      shl\n      dup2\n      mstore\n      0x04\n      add\n      0x20\n      mload(0x40)\n      dup1\n      dup4\n      sub\n      dup2\n      dup7\n      gas\n      staticcall\n      iszero\n      dup1\n      iszero\n      tag_406\n      jumpi\n      returndatasize\n      0x00\n      dup1\n      returndatacopy\n      revert(0x00, returndatasize)\n    tag_406:\n      pop\n      pop\n      pop\n      pop\n      mload(0x40)\n      returndatasize\n      not(0x1f)\n      0x1f\n      dup3\n      add\n      and\n      dup3\n      add\n      dup1\n      0x40\n      mstore\n      pop\n      dup2\n      add\n      swap1\n      tag_407\n      swap2\n      swap1\n      tag_248\n      jump\t// in\n    tag_407:\n        /* \"diamonds/facets/FacetSafe.sol\":4478:4486  amountIn */\n      dup8\n      swap1\n        /* \"diamonds/facets/FacetSafe.sol\":4478:4493  amountIn.native */\n      tag_351\n        /* \"diamonds/facets/FacetSafe.sol\":4478:4529  amountIn.native(IERC20Metadata(tokenIn).decimals()) */\n      jump\t// in\n    tag_404:\n        /* \"diamonds/facets/FacetSafe.sol\":4436:4530  token.transferFrom(_msgSender(), _self(), amountIn.native(IERC20Metadata(tokenIn).decimals())) */\n      mload(0x40)\n      dup5\n      0xffffffff\n      and\n      0xe0\n      shl\n      dup2\n      mstore\n      0x04\n      add\n      tag_408\n      swap4\n      swap3\n      swap2\n      swap1\n      tag_217\n      jump\t// in\n    tag_408:\n      0x20\n      mload(0x40)\n      dup1\n      dup4\n      sub\n      dup2\n      0x00\n      dup8\n      gas\n      call\n      iszero\n      dup1\n      iszero\n      tag_410\n      jumpi\n      returndatasize\n      0x00\n      dup1\n      returndatacopy\n      revert(0x00, returndatasize)\n    tag_410:\n      pop\n      pop\n      pop\n      pop\n      mload(0x40)\n      returndatasize\n      not(0x1f)\n      0x1f\n      dup3\n      add\n      and\n      dup3\n      add\n      dup1\n      0x40\n      mstore\n      pop\n      dup2\n      add\n      swap1\n      tag_411\n      swap2\n      swap1\n      tag_128\n      jump\t// in\n    tag_411:\n      pop\n        /* \"diamonds/facets/FacetSafe.sol\":4568:4576  amountIn */\n      dup2\n        /* \"diamonds/facets/FacetSafe.sol\":4540:4546  safe() */\n      tag_412\n        /* \"diamonds/facets/FacetSafe.sol\":4540:4544  safe */\n      tag_114\n        /* \"diamonds/facets/FacetSafe.sol\":4540:4546  safe() */\n      jump\t// in\n    tag_412:\n      sub(shl(0xa0, 0x01), 0x01)\n        /* \"diamonds/facets/FacetSafe.sol\":4540:4564  safe().balances[tokenIn] */\n      dup6\n      and\n        /* \"diamonds/facets/FacetSafe.sol\":4540:4555  safe().balances */\n      0x00\n        /* \"diamonds/facets/FacetSafe.sol\":4540:4564  safe().balances[tokenIn] */\n      swap1\n      dup2\n      mstore\n      0x20\n      swap2\n      swap1\n      swap2\n      mstore\n      0x40\n      dup2\n      keccak256\n        /* \"diamonds/facets/FacetSafe.sol\":4540:4576  safe().balances[tokenIn] += amountIn */\n      dup1\n      sload\n        /* \"diamonds/facets/FacetSafe.sol\":4540:4564  safe().balances[tokenIn] */\n      swap1\n      swap2\n        /* \"diamonds/facets/FacetSafe.sol\":4540:4555  safe().balances */\n      swap1\n        /* \"diamonds/facets/FacetSafe.sol\":4540:4576  safe().balances[tokenIn] += amountIn */\n      tag_413\n      swap1\n      dup5\n      swap1\n      tag_142\n      jump\t// in\n    tag_413:\n      swap1\n      swap2\n      sstore\n      pop\n        /* \"diamonds/facets/FacetSafe.sol\":4610:4636  safe().onHand.add(tokenIn) */\n      tag_414\n      swap1\n      pop\n        /* \"diamonds/facets/FacetSafe.sol\":4628:4635  tokenIn */\n      dup4\n        /* \"diamonds/facets/FacetSafe.sol\":4610:4616  safe() */\n      tag_415\n        /* \"diamonds/facets/FacetSafe.sol\":4610:4614  safe */\n      tag_114\n        /* \"diamonds/facets/FacetSafe.sol\":4610:4616  safe() */\n      jump\t// in\n    tag_415:\n        /* \"diamonds/facets/FacetSafe.sol\":4610:4623  safe().onHand */\n      0x05\n      add\n      swap1\n        /* \"diamonds/facets/FacetSafe.sol\":4610:4627  safe().onHand.add */\n      tag_165\n        /* \"diamonds/facets/FacetSafe.sol\":4610:4636  safe().onHand.add(tokenIn) */\n      jump\t// in\n    tag_414:\n      pop\n        /* \"diamonds/facets/FacetSafe.sol\":4651:4691  Deposit(_msgSender(), tokenIn, amountIn) */\n      0x5548c837ab068cf56a2c2479df0882a4922fd203edb7517321831d95078c5f62\n        /* \"imports/openzeppelin/utils/Context.sol\":720:730  msg.sender */\n      caller\n        /* \"diamonds/facets/FacetSafe.sol\":4673:4680  tokenIn */\n      dup5\n        /* \"diamonds/facets/FacetSafe.sol\":4682:4690  amountIn */\n      dup5\n        /* \"diamonds/facets/FacetSafe.sol\":4651:4691  Deposit(_msgSender(), tokenIn, amountIn) */\n      mload(0x40)\n      tag_417\n      swap4\n      swap3\n      swap2\n      swap1\n      tag_217\n      jump\t// in\n    tag_417:\n      mload(0x40)\n      dup1\n      swap2\n      sub\n      swap1\n      log1\n        /* \"diamonds/facets/FacetSafe.sol\":4293:4698  {... */\n      pop\n        /* \"diamonds/facets/FacetSafe.sol\":4226:4698  function _deposit(address tokenIn, uint amountIn) internal virtual {... */\n      pop\n      pop\n      jump\t// out\n        /* \"imports/openzeppelin/utils/structs/EnumerableSet.sol\":8624:8780  function remove(AddressSet storage set, address value) internal returns (bool) {... */\n    tag_301:\n        /* \"imports/openzeppelin/utils/structs/EnumerableSet.sol\":8697:8701  bool */\n      0x00\n        /* \"imports/openzeppelin/utils/structs/EnumerableSet.sol\":8720:8773  _remove(set._inner, bytes32(uint256(uint160(value)))) */\n      tag_304\n        /* \"imports/openzeppelin/utils/structs/EnumerableSet.sol\":8728:8731  set */\n      dup4\n      sub(shl(0xa0, 0x01), 0x01)\n        /* \"imports/openzeppelin/utils/structs/EnumerableSet.sol\":8748:8771  uint256(uint160(value)) */\n      dup5\n      and\n        /* \"imports/openzeppelin/utils/structs/EnumerableSet.sol\":8720:8727  _remove */\n      tag_420\n        /* \"imports/openzeppelin/utils/structs/EnumerableSet.sol\":8720:8773  _remove(set._inner, bytes32(uint256(uint160(value)))) */\n      jump\t// in\n        /* \"imports/openzeppelin/utils/structs/EnumerableSet.sol\":4913:5031  function _at(Set storage set, uint256 index) private view returns (bytes32) {... */\n    tag_319:\n        /* \"imports/openzeppelin/utils/structs/EnumerableSet.sol\":4980:4987  bytes32 */\n      0x00\n        /* \"imports/openzeppelin/utils/structs/EnumerableSet.sol\":5006:5009  set */\n      dup3\n        /* \"imports/openzeppelin/utils/structs/EnumerableSet.sol\":5006:5017  set._values */\n      0x00\n      add\n        /* \"imports/openzeppelin/utils/structs/EnumerableSet.sol\":5018:5023  index */\n      dup3\n        /* \"imports/openzeppelin/utils/structs/EnumerableSet.sol\":5006:5024  set._values[index] */\n      dup2\n      sload\n      dup2\n      lt\n      tag_424\n      jumpi\n      tag_424\n      tag_425\n      jump\t// in\n    tag_424:\n      swap1\n      0x00\n      mstore\n      keccak256(0x00, 0x20)\n      add\n      sload\n        /* \"imports/openzeppelin/utils/structs/EnumerableSet.sol\":4999:5024  return set._values[index] */\n      swap1\n      pop\n        /* \"imports/openzeppelin/utils/structs/EnumerableSet.sol\":4913:5031  function _at(Set storage set, uint256 index) private view returns (bytes32) {... */\n      swap3\n      swap2\n      pop\n      pop\n      jump\t// out\n        /* \"imports/openzeppelin/utils/structs/EnumerableSet.sol\":2215:2619  function _add(Set storage set, bytes32 value) private returns (bool) {... */\n    tag_342:\n        /* \"imports/openzeppelin/utils/structs/EnumerableSet.sol\":2278:2282  bool */\n      0x00\n        /* \"imports/openzeppelin/utils/structs/EnumerableSet.sol\":4352:4371  set._indexes[value] */\n      dup2\n      dup2\n      mstore\n        /* \"imports/openzeppelin/utils/structs/EnumerableSet.sol\":4352:4364  set._indexes */\n      0x01\n      dup4\n      add\n        /* \"imports/openzeppelin/utils/structs/EnumerableSet.sol\":4352:4371  set._indexes[value] */\n      0x20\n      mstore\n      0x40\n      dup2\n      keccak256\n      sload\n        /* \"imports/openzeppelin/utils/structs/EnumerableSet.sol\":2294:2613  if (!_contains(set, value)) {... */\n      tag_430\n      jumpi\n      pop\n        /* \"imports/openzeppelin/utils/structs/EnumerableSet.sol\":2336:2359  set._values.push(value) */\n      dup2\n      sload\n      0x01\n      dup2\n      dup2\n      add\n      dup5\n      sstore\n        /* \"imports/openzeppelin/utils/structs/EnumerableSet.sol\":2336:2347  set._values */\n      0x00\n        /* \"imports/openzeppelin/utils/structs/EnumerableSet.sol\":2336:2359  set._values.push(value) */\n      dup5\n      dup2\n      mstore\n      0x20\n      dup1\n      dup3\n      keccak256\n      swap1\n      swap4\n      add\n      dup5\n      swap1\n      sstore\n        /* \"imports/openzeppelin/utils/structs/EnumerableSet.sol\":2516:2534  set._values.length */\n      dup5\n      sload\n        /* \"imports/openzeppelin/utils/structs/EnumerableSet.sol\":2494:2513  set._indexes[value] */\n      dup5\n      dup3\n      mstore\n        /* \"imports/openzeppelin/utils/structs/EnumerableSet.sol\":2494:2506  set._indexes */\n      dup3\n      dup7\n      add\n        /* \"imports/openzeppelin/utils/structs/EnumerableSet.sol\":2494:2513  set._indexes[value] */\n      swap1\n      swap4\n      mstore\n      0x40\n      swap1\n      keccak256\n        /* \"imports/openzeppelin/utils/structs/EnumerableSet.sol\":2494:2534  set._indexes[value] = set._values.length */\n      swap2\n      swap1\n      swap2\n      sstore\n        /* \"imports/openzeppelin/utils/structs/EnumerableSet.sol\":2548:2559  return true */\n      jump(tag_146)\n        /* \"imports/openzeppelin/utils/structs/EnumerableSet.sol\":2294:2613  if (!_contains(set, value)) {... */\n    tag_430:\n      pop\n        /* \"imports/openzeppelin/utils/structs/EnumerableSet.sol\":2597:2602  false */\n      0x00\n        /* \"imports/openzeppelin/utils/structs/EnumerableSet.sol\":2590:2602  return false */\n      jump(tag_146)\n        /* \"imports/openzeppelin/utils/structs/EnumerableSet.sol\":5571:5680  function _values(Set storage set) private view returns (bytes32[] memory) {... */\n    tag_345:\n        /* \"imports/openzeppelin/utils/structs/EnumerableSet.sol\":5627:5643  bytes32[] memory */\n      0x60\n        /* \"imports/openzeppelin/utils/structs/EnumerableSet.sol\":5662:5665  set */\n      dup2\n        /* \"imports/openzeppelin/utils/structs/EnumerableSet.sol\":5662:5673  set._values */\n      0x00\n      add\n        /* \"imports/openzeppelin/utils/structs/EnumerableSet.sol\":5655:5673  return set._values */\n      dup1\n      sload\n      dup1\n      0x20\n      mul\n      0x20\n      add\n      mload(0x40)\n      swap1\n      dup2\n      add\n      0x40\n      mstore\n      dup1\n      swap3\n      swap2\n      swap1\n      dup2\n      dup2\n      mstore\n      0x20\n      add\n      dup3\n      dup1\n      sload\n      dup1\n      iszero\n      tag_434\n      jumpi\n      0x20\n      mul\n      dup3\n      add\n      swap2\n      swap1\n      0x00\n      mstore\n      keccak256(0x00, 0x20)\n      swap1\n    tag_435:\n      dup2\n      sload\n      dup2\n      mstore\n      0x20\n      add\n      swap1\n      0x01\n      add\n      swap1\n      dup1\n      dup4\n      gt\n      tag_435\n      jumpi\n    tag_434:\n      pop\n      pop\n      pop\n      pop\n      pop\n      swap1\n      pop\n        /* \"imports/openzeppelin/utils/structs/EnumerableSet.sol\":5571:5680  function _values(Set storage set) private view returns (bytes32[] memory) {... */\n      swap2\n      swap1\n      pop\n      jump\t// out\n        /* \"libraries/Uint.sol\":76:228  function native(uint num, uint8 decimals) internal pure returns (uint) {... */\n    tag_351:\n        /* \"libraries/Uint.sol\":141:145  uint */\n      0x00\n        /* \"libraries/Uint.sol\":214:220  10**18 */\n      0x0de0b6b3a7640000\n        /* \"libraries/Uint.sol\":196:208  10**decimals */\n      tag_437\n        /* \"libraries/Uint.sol\":200:208  decimals */\n      dup4\n        /* \"libraries/Uint.sol\":196:198  10 */\n      0x0a\n        /* \"libraries/Uint.sol\":196:208  10**decimals */\n      tag_323\n      jump\t// in\n    tag_437:\n        /* \"libraries/Uint.sol\":184:190  10**18 */\n      0x0de0b6b3a7640000\n        /* \"libraries/Uint.sol\":166:180  num * (10**18) */\n      tag_438\n        /* \"libraries/Uint.sol\":166:169  num */\n      dup7\n        /* \"libraries/Uint.sol\":184:190  10**18 */\n      dup3\n        /* \"libraries/Uint.sol\":166:180  num * (10**18) */\n      tag_140\n      jump\t// in\n    tag_438:\n        /* \"libraries/Uint.sol\":166:191  num * (10**18) / (10**18) */\n      tag_439\n      swap2\n      swap1\n      tag_174\n      jump\t// in\n    tag_439:\n        /* \"libraries/Uint.sol\":165:209  (num * (10**18) / (10**18)) * (10**decimals) */\n      tag_326\n      swap2\n      swap1\n      tag_140\n      jump\t// in\n        /* \"diamonds/facets/FacetSafe.sol\":3217:3363  function _onlyAllowedOut(address token) internal view virtual {... */\n    tag_361:\n        /* \"diamonds/facets/FacetSafe.sol\":3297:3316  isAllowedOut(token) */\n      tag_443\n        /* \"diamonds/facets/FacetSafe.sol\":3310:3315  token */\n      dup2\n        /* \"diamonds/facets/FacetSafe.sol\":3297:3309  isAllowedOut */\n      tag_45\n        /* \"diamonds/facets/FacetSafe.sol\":3297:3316  isAllowedOut(token) */\n      jump\t// in\n    tag_443:\n        /* \"diamonds/facets/FacetSafe.sol\":3289:3356  require(isAllowedOut(token), 'FacetSafe: token is not allowed out') */\n      tag_444\n      jumpi\n      mload(0x40)\n      shl(0xe5, 0x461bcd)\n      dup2\n      mstore\n        /* \"#utility.yul\":7986:7988   */\n      0x20\n        /* \"diamonds/facets/FacetSafe.sol\":3289:3356  require(isAllowedOut(token), 'FacetSafe: token is not allowed out') */\n      0x04\n      dup3\n      add\n        /* \"#utility.yul\":7968:7989   */\n      mstore\n        /* \"#utility.yul\":8025:8027   */\n      0x23\n        /* \"#utility.yul\":8005:8023   */\n      0x24\n      dup3\n      add\n        /* \"#utility.yul\":7998:8028   */\n      mstore\n        /* \"#utility.yul\":8064:8098   */\n      0x4661636574536166653a20746f6b656e206973206e6f7420616c6c6f77656420\n        /* \"#utility.yul\":8044:8062   */\n      0x44\n      dup3\n      add\n        /* \"#utility.yul\":8037:8099   */\n      mstore\n      shl(0xea, 0x1bdd5d)\n        /* \"#utility.yul\":8115:8133   */\n      0x64\n      dup3\n      add\n        /* \"#utility.yul\":8108:8141   */\n      mstore\n        /* \"#utility.yul\":8158:8177   */\n      0x84\n      add\n        /* \"diamonds/facets/FacetSafe.sol\":3289:3356  require(isAllowedOut(token), 'FacetSafe: token is not allowed out') */\n      tag_225\n        /* \"#utility.yul\":7784:8183   */\n      jump\n        /* \"diamonds/facets/FacetSafe.sol\":3289:3356  require(isAllowedOut(token), 'FacetSafe: token is not allowed out') */\n    tag_444:\n        /* \"diamonds/facets/FacetSafe.sol\":3217:3363  function _onlyAllowedOut(address token) internal view virtual {... */\n      pop\n      jump\t// out\n        /* \"diamonds/facets/FacetSafe.sol\":3778:3960  function _onlySelfHasSufficientBalance(address token, uint amount) internal view virtual {... */\n    tag_363:\n        /* \"diamonds/facets/FacetSafe.sol\":3911:3917  amount */\n      dup1\n        /* \"diamonds/facets/FacetSafe.sol\":3885:3891  safe() */\n      tag_448\n        /* \"diamonds/facets/FacetSafe.sol\":3885:3889  safe */\n      tag_114\n        /* \"diamonds/facets/FacetSafe.sol\":3885:3891  safe() */\n      jump\t// in\n    tag_448:\n      sub(shl(0xa0, 0x01), 0x01)\n        /* \"diamonds/facets/FacetSafe.sol\":3885:3907  safe().balances[token] */\n      dup5\n      and\n        /* \"diamonds/facets/FacetSafe.sol\":3885:3900  safe().balances */\n      0x00\n        /* \"diamonds/facets/FacetSafe.sol\":3885:3907  safe().balances[token] */\n      swap1\n      dup2\n      mstore\n      0x20\n      swap2\n      swap1\n      swap2\n      mstore\n      0x40\n      swap1\n      keccak256\n      sload\n        /* \"diamonds/facets/FacetSafe.sol\":3885:3917  safe().balances[token] >= amount */\n      lt\n      iszero\n        /* \"diamonds/facets/FacetSafe.sol\":3877:3953  require(safe().balances[token] >= amount, 'FacetSafe: insufficient balance') */\n      tag_357\n      jumpi\n      mload(0x40)\n      shl(0xe5, 0x461bcd)\n      dup2\n      mstore\n        /* \"#utility.yul\":8390:8392   */\n      0x20\n        /* \"diamonds/facets/FacetSafe.sol\":3877:3953  require(safe().balances[token] >= amount, 'FacetSafe: insufficient balance') */\n      0x04\n      dup3\n      add\n        /* \"#utility.yul\":8372:8393   */\n      mstore\n        /* \"#utility.yul\":8429:8431   */\n      0x1f\n        /* \"#utility.yul\":8409:8427   */\n      0x24\n      dup3\n      add\n        /* \"#utility.yul\":8402:8432   */\n      mstore\n        /* \"#utility.yul\":8468:8501   */\n      0x4661636574536166653a20696e73756666696369656e742062616c616e636500\n        /* \"#utility.yul\":8448:8466   */\n      0x44\n      dup3\n      add\n        /* \"#utility.yul\":8441:8502   */\n      mstore\n        /* \"#utility.yul\":8519:8537   */\n      0x64\n      add\n        /* \"diamonds/facets/FacetSafe.sol\":3877:3953  require(safe().balances[token] >= amount, 'FacetSafe: insufficient balance') */\n      tag_225\n        /* \"#utility.yul\":8188:8543   */\n      jump\n        /* \"diamonds/facets/FacetSafe.sol\":3068:3211  function _onlyAllowedIn(address token) internal view virtual {... */\n    tag_400:\n        /* \"diamonds/facets/FacetSafe.sol\":3147:3165  isAllowedIn(token) */\n      tag_453\n        /* \"diamonds/facets/FacetSafe.sol\":3159:3164  token */\n      dup2\n        /* \"diamonds/facets/FacetSafe.sol\":3147:3158  isAllowedIn */\n      tag_95\n        /* \"diamonds/facets/FacetSafe.sol\":3147:3165  isAllowedIn(token) */\n      jump\t// in\n    tag_453:\n        /* \"diamonds/facets/FacetSafe.sol\":3139:3204  require(isAllowedIn(token), 'FacetSafe: token is not allowed in') */\n      tag_444\n      jumpi\n      mload(0x40)\n      shl(0xe5, 0x461bcd)\n      dup2\n      mstore\n        /* \"#utility.yul\":8750:8752   */\n      0x20\n        /* \"diamonds/facets/FacetSafe.sol\":3139:3204  require(isAllowedIn(token), 'FacetSafe: token is not allowed in') */\n      0x04\n      dup3\n      add\n        /* \"#utility.yul\":8732:8753   */\n      mstore\n        /* \"#utility.yul\":8789:8791   */\n      0x22\n        /* \"#utility.yul\":8769:8787   */\n      0x24\n      dup3\n      add\n        /* \"#utility.yul\":8762:8792   */\n      mstore\n        /* \"#utility.yul\":8828:8862   */\n      0x4661636574536166653a20746f6b656e206973206e6f7420616c6c6f77656420\n        /* \"#utility.yul\":8808:8826   */\n      0x44\n      dup3\n      add\n        /* \"#utility.yul\":8801:8863   */\n      mstore\n      shl(0xf1, 0x34b7)\n        /* \"#utility.yul\":8879:8897   */\n      0x64\n      dup3\n      add\n        /* \"#utility.yul\":8872:8904   */\n      mstore\n        /* \"#utility.yul\":8921:8940   */\n      0x84\n      add\n        /* \"diamonds/facets/FacetSafe.sol\":3139:3204  require(isAllowedIn(token), 'FacetSafe: token is not allowed in') */\n      tag_225\n        /* \"#utility.yul\":8548:8946   */\n      jump\n        /* \"imports/openzeppelin/utils/structs/EnumerableSet.sol\":2787:4175  function _remove(Set storage set, bytes32 value) private returns (bool) {... */\n    tag_420:\n        /* \"imports/openzeppelin/utils/structs/EnumerableSet.sol\":2853:2857  bool */\n      0x00\n        /* \"imports/openzeppelin/utils/structs/EnumerableSet.sol\":2990:3009  set._indexes[value] */\n      dup2\n      dup2\n      mstore\n        /* \"imports/openzeppelin/utils/structs/EnumerableSet.sol\":2990:3002  set._indexes */\n      0x01\n      dup4\n      add\n        /* \"imports/openzeppelin/utils/structs/EnumerableSet.sol\":2990:3009  set._indexes[value] */\n      0x20\n      mstore\n      0x40\n      dup2\n      keccak256\n      sload\n        /* \"imports/openzeppelin/utils/structs/EnumerableSet.sol\":3024:3039  valueIndex != 0 */\n      dup1\n      iszero\n        /* \"imports/openzeppelin/utils/structs/EnumerableSet.sol\":3020:4169  if (valueIndex != 0) {... */\n      tag_251\n      jumpi\n        /* \"imports/openzeppelin/utils/structs/EnumerableSet.sol\":3393:3414  uint256 toDeleteIndex */\n      0x00\n        /* \"imports/openzeppelin/utils/structs/EnumerableSet.sol\":3417:3431  valueIndex - 1 */\n      tag_459\n        /* \"imports/openzeppelin/utils/structs/EnumerableSet.sol\":3430:3431  1 */\n      0x01\n        /* \"imports/openzeppelin/utils/structs/EnumerableSet.sol\":3417:3427  valueIndex */\n      dup4\n        /* \"imports/openzeppelin/utils/structs/EnumerableSet.sol\":3417:3431  valueIndex - 1 */\n      tag_366\n      jump\t// in\n    tag_459:\n        /* \"imports/openzeppelin/utils/structs/EnumerableSet.sol\":3465:3483  set._values.length */\n      dup6\n      sload\n        /* \"imports/openzeppelin/utils/structs/EnumerableSet.sol\":3393:3431  uint256 toDeleteIndex = valueIndex - 1 */\n      swap1\n      swap2\n      pop\n        /* \"imports/openzeppelin/utils/structs/EnumerableSet.sol\":3445:3462  uint256 lastIndex */\n      0x00\n      swap1\n        /* \"imports/openzeppelin/utils/structs/EnumerableSet.sol\":3465:3487  set._values.length - 1 */\n      tag_460\n      swap1\n        /* \"imports/openzeppelin/utils/structs/EnumerableSet.sol\":3486:3487  1 */\n      0x01\n      swap1\n        /* \"imports/openzeppelin/utils/structs/EnumerableSet.sol\":3465:3487  set._values.length - 1 */\n      tag_366\n      jump\t// in\n    tag_460:\n        /* \"imports/openzeppelin/utils/structs/EnumerableSet.sol\":3445:3487  uint256 lastIndex = set._values.length - 1 */\n      swap1\n      pop\n        /* \"imports/openzeppelin/utils/structs/EnumerableSet.sol\":3519:3532  toDeleteIndex */\n      dup2\n        /* \"imports/openzeppelin/utils/structs/EnumerableSet.sol\":3506:3515  lastIndex */\n      dup2\n        /* \"imports/openzeppelin/utils/structs/EnumerableSet.sol\":3506:3532  lastIndex != toDeleteIndex */\n      eq\n        /* \"imports/openzeppelin/utils/structs/EnumerableSet.sol\":3502:3900  if (lastIndex != toDeleteIndex) {... */\n      tag_461\n      jumpi\n        /* \"imports/openzeppelin/utils/structs/EnumerableSet.sol\":3552:3569  bytes32 lastValue */\n      0x00\n        /* \"imports/openzeppelin/utils/structs/EnumerableSet.sol\":3572:3575  set */\n      dup7\n        /* \"imports/openzeppelin/utils/structs/EnumerableSet.sol\":3572:3583  set._values */\n      0x00\n      add\n        /* \"imports/openzeppelin/utils/structs/EnumerableSet.sol\":3584:3593  lastIndex */\n      dup3\n        /* \"imports/openzeppelin/utils/structs/EnumerableSet.sol\":3572:3594  set._values[lastIndex] */\n      dup2\n      sload\n      dup2\n      lt\n      tag_463\n      jumpi\n      tag_463\n      tag_425\n      jump\t// in\n    tag_463:\n      swap1\n      0x00\n      mstore\n      keccak256(0x00, 0x20)\n      add\n      sload\n        /* \"imports/openzeppelin/utils/structs/EnumerableSet.sol\":3552:3594  bytes32 lastValue = set._values[lastIndex] */\n      swap1\n      pop\n        /* \"imports/openzeppelin/utils/structs/EnumerableSet.sol\":3723:3732  lastValue */\n      dup1\n        /* \"imports/openzeppelin/utils/structs/EnumerableSet.sol\":3694:3697  set */\n      dup8\n        /* \"imports/openzeppelin/utils/structs/EnumerableSet.sol\":3694:3705  set._values */\n      0x00\n      add\n        /* \"imports/openzeppelin/utils/structs/EnumerableSet.sol\":3706:3719  toDeleteIndex */\n      dup5\n        /* \"imports/openzeppelin/utils/structs/EnumerableSet.sol\":3694:3720  set._values[toDeleteIndex] */\n      dup2\n      sload\n      dup2\n      lt\n      tag_466\n      jumpi\n      tag_466\n      tag_425\n      jump\t// in\n    tag_466:\n      0x00\n      swap2\n      dup3\n      mstore\n      0x20\n      dup1\n      dup4\n      keccak256\n      swap1\n      swap2\n      add\n        /* \"imports/openzeppelin/utils/structs/EnumerableSet.sol\":3694:3732  set._values[toDeleteIndex] = lastValue */\n      swap3\n      swap1\n      swap3\n      sstore\n        /* \"imports/openzeppelin/utils/structs/EnumerableSet.sol\":3806:3829  set._indexes[lastValue] */\n      swap2\n      dup3\n      mstore\n        /* \"imports/openzeppelin/utils/structs/EnumerableSet.sol\":3806:3818  set._indexes */\n      0x01\n      dup9\n      add\n        /* \"imports/openzeppelin/utils/structs/EnumerableSet.sol\":3806:3829  set._indexes[lastValue] */\n      swap1\n      mstore\n      0x40\n      swap1\n      keccak256\n        /* \"imports/openzeppelin/utils/structs/EnumerableSet.sol\":3806:3842  set._indexes[lastValue] = valueIndex */\n      dup4\n      swap1\n      sstore\n        /* \"imports/openzeppelin/utils/structs/EnumerableSet.sol\":3502:3900  if (lastIndex != toDeleteIndex) {... */\n    tag_461:\n        /* \"imports/openzeppelin/utils/structs/EnumerableSet.sol\":3978:3995  set._values.pop() */\n      dup6\n      sload\n        /* \"imports/openzeppelin/utils/structs/EnumerableSet.sol\":3978:3981  set */\n      dup7\n      swap1\n        /* \"imports/openzeppelin/utils/structs/EnumerableSet.sol\":3978:3995  set._values.pop() */\n      dup1\n      tag_469\n      jumpi\n      tag_469\n      tag_470\n      jump\t// in\n    tag_469:\n      0x01\n      swap1\n      sub\n      dup2\n      dup2\n      swap1\n      0x00\n      mstore\n      keccak256(0x00, 0x20)\n      add\n      0x00\n      swap1\n      sstore\n      swap1\n      sstore\n        /* \"imports/openzeppelin/utils/structs/EnumerableSet.sol\":4070:4073  set */\n      dup6\n        /* \"imports/openzeppelin/utils/structs/EnumerableSet.sol\":4070:4082  set._indexes */\n      0x01\n      add\n        /* \"imports/openzeppelin/utils/structs/EnumerableSet.sol\":4070:4089  set._indexes[value] */\n      0x00\n        /* \"imports/openzeppelin/utils/structs/EnumerableSet.sol\":4083:4088  value */\n      dup7\n        /* \"imports/openzeppelin/utils/structs/EnumerableSet.sol\":4070:4089  set._indexes[value] */\n      dup2\n      mstore\n      0x20\n      add\n      swap1\n      dup2\n      mstore\n      0x20\n      add\n      0x00\n      keccak256\n        /* \"imports/openzeppelin/utils/structs/EnumerableSet.sol\":4063:4089  delete set._indexes[value] */\n      0x00\n      swap1\n      sstore\n        /* \"imports/openzeppelin/utils/structs/EnumerableSet.sol\":4111:4115  true */\n      0x01\n        /* \"imports/openzeppelin/utils/structs/EnumerableSet.sol\":4104:4115  return true */\n      swap4\n      pop\n      pop\n      pop\n      pop\n      jump(tag_146)\n        /* \"#utility.yul\":196:376   */\n    tag_34:\n        /* \"#utility.yul\":255:261   */\n      0x00\n        /* \"#utility.yul\":308:310   */\n      0x20\n        /* \"#utility.yul\":296:305   */\n      dup3\n        /* \"#utility.yul\":287:294   */\n      dup5\n        /* \"#utility.yul\":283:306   */\n      sub\n        /* \"#utility.yul\":279:311   */\n      slt\n        /* \"#utility.yul\":276:328   */\n      iszero\n      tag_480\n      jumpi\n        /* \"#utility.yul\":324:325   */\n      0x00\n        /* \"#utility.yul\":321:322   */\n      dup1\n        /* \"#utility.yul\":314:326   */\n      revert\n        /* \"#utility.yul\":276:328   */\n    tag_480:\n      pop\n        /* \"#utility.yul\":347:370   */\n      calldataload\n      swap2\n        /* \"#utility.yul\":196:376   */\n      swap1\n      pop\n      jump\t// out\n        /* \"#utility.yul\":589:720   */\n    tag_473:\n      sub(shl(0xa0, 0x01), 0x01)\n        /* \"#utility.yul\":664:695   */\n      dup2\n      and\n        /* \"#utility.yul\":654:696   */\n      dup2\n      eq\n        /* \"#utility.yul\":644:714   */\n      tag_444\n      jumpi\n        /* \"#utility.yul\":710:711   */\n      0x00\n        /* \"#utility.yul\":707:708   */\n      dup1\n        /* \"#utility.yul\":700:712   */\n      revert\n        /* \"#utility.yul\":725:972   */\n    tag_44:\n        /* \"#utility.yul\":784:790   */\n      0x00\n        /* \"#utility.yul\":837:839   */\n      0x20\n        /* \"#utility.yul\":825:834   */\n      dup3\n        /* \"#utility.yul\":816:823   */\n      dup5\n        /* \"#utility.yul\":812:835   */\n      sub\n        /* \"#utility.yul\":808:840   */\n      slt\n        /* \"#utility.yul\":805:857   */\n      iszero\n      tag_485\n      jumpi\n        /* \"#utility.yul\":853:854   */\n      0x00\n        /* \"#utility.yul\":850:851   */\n      dup1\n        /* \"#utility.yul\":843:855   */\n      revert\n        /* \"#utility.yul\":805:857   */\n    tag_485:\n        /* \"#utility.yul\":892:901   */\n      dup2\n        /* \"#utility.yul\":879:902   */\n      calldataload\n        /* \"#utility.yul\":911:942   */\n      tag_304\n        /* \"#utility.yul\":936:941   */\n      dup2\n        /* \"#utility.yul\":911:942   */\n      tag_473\n      jump\t// in\n        /* \"#utility.yul\":1169:1827   */\n    tag_57:\n        /* \"#utility.yul\":1340:1342   */\n      0x20\n        /* \"#utility.yul\":1392:1413   */\n      dup1\n      dup3\n      mstore\n        /* \"#utility.yul\":1462:1475   */\n      dup3\n      mload\n        /* \"#utility.yul\":1365:1383   */\n      dup3\n      dup3\n      add\n        /* \"#utility.yul\":1484:1506   */\n      dup2\n      swap1\n      mstore\n        /* \"#utility.yul\":1311:1315   */\n      0x00\n      swap2\n        /* \"#utility.yul\":1340:1342   */\n      swap1\n        /* \"#utility.yul\":1563:1578   */\n      dup5\n      dup3\n      add\n      swap1\n        /* \"#utility.yul\":1537:1539   */\n      0x40\n        /* \"#utility.yul\":1522:1540   */\n      dup6\n      add\n      swap1\n        /* \"#utility.yul\":1311:1315   */\n      dup5\n        /* \"#utility.yul\":1606:1801   */\n    tag_489:\n        /* \"#utility.yul\":1620:1626   */\n      dup2\n        /* \"#utility.yul\":1617:1618   */\n      dup2\n        /* \"#utility.yul\":1614:1627   */\n      lt\n        /* \"#utility.yul\":1606:1801   */\n      iszero\n      tag_491\n      jumpi\n        /* \"#utility.yul\":1685:1698   */\n      dup4\n      mload\n      sub(shl(0xa0, 0x01), 0x01)\n        /* \"#utility.yul\":1681:1720   */\n      and\n        /* \"#utility.yul\":1669:1721   */\n      dup4\n      mstore\n        /* \"#utility.yul\":1776:1791   */\n      swap3\n      dup5\n      add\n      swap3\n        /* \"#utility.yul\":1741:1753   */\n      swap2\n      dup5\n      add\n      swap2\n        /* \"#utility.yul\":1717:1718   */\n      0x01\n        /* \"#utility.yul\":1635:1644   */\n      add\n        /* \"#utility.yul\":1606:1801   */\n      jump(tag_489)\n    tag_491:\n      pop\n        /* \"#utility.yul\":1818:1821   */\n      swap1\n      swap7\n        /* \"#utility.yul\":1169:1827   */\n      swap6\n      pop\n      pop\n      pop\n      pop\n      pop\n      pop\n      jump\t// out\n        /* \"#utility.yul\":1832:2147   */\n    tag_63:\n        /* \"#utility.yul\":1900:1906   */\n      0x00\n        /* \"#utility.yul\":1908:1914   */\n      dup1\n        /* \"#utility.yul\":1961:1963   */\n      0x40\n        /* \"#utility.yul\":1949:1958   */\n      dup4\n        /* \"#utility.yul\":1940:1947   */\n      dup6\n        /* \"#utility.yul\":1936:1959   */\n      sub\n        /* \"#utility.yul\":1932:1964   */\n      slt\n        /* \"#utility.yul\":1929:1981   */\n      iszero\n      tag_493\n      jumpi\n        /* \"#utility.yul\":1977:1978   */\n      0x00\n        /* \"#utility.yul\":1974:1975   */\n      dup1\n        /* \"#utility.yul\":1967:1979   */\n      revert\n        /* \"#utility.yul\":1929:1981   */\n    tag_493:\n        /* \"#utility.yul\":2016:2025   */\n      dup3\n        /* \"#utility.yul\":2003:2026   */\n      calldataload\n        /* \"#utility.yul\":2035:2066   */\n      tag_494\n        /* \"#utility.yul\":2060:2065   */\n      dup2\n        /* \"#utility.yul\":2035:2066   */\n      tag_473\n      jump\t// in\n    tag_494:\n        /* \"#utility.yul\":2085:2090   */\n      swap5\n        /* \"#utility.yul\":2137:2139   */\n      0x20\n        /* \"#utility.yul\":2122:2140   */\n      swap4\n      swap1\n      swap4\n      add\n        /* \"#utility.yul\":2109:2141   */\n      calldataload\n      swap4\n      pop\n      pop\n      pop\n        /* \"#utility.yul\":1832:2147   */\n      jump\t// out\n        /* \"#utility.yul\":2152:2608   */\n    tag_67:\n        /* \"#utility.yul\":2229:2235   */\n      0x00\n        /* \"#utility.yul\":2237:2243   */\n      dup1\n        /* \"#utility.yul\":2245:2251   */\n      0x00\n        /* \"#utility.yul\":2298:2300   */\n      0x60\n        /* \"#utility.yul\":2286:2295   */\n      dup5\n        /* \"#utility.yul\":2277:2284   */\n      dup7\n        /* \"#utility.yul\":2273:2296   */\n      sub\n        /* \"#utility.yul\":2269:2301   */\n      slt\n        /* \"#utility.yul\":2266:2318   */\n      iszero\n      tag_496\n      jumpi\n        /* \"#utility.yul\":2314:2315   */\n      0x00\n        /* \"#utility.yul\":2311:2312   */\n      dup1\n        /* \"#utility.yul\":2304:2316   */\n      revert\n        /* \"#utility.yul\":2266:2318   */\n    tag_496:\n        /* \"#utility.yul\":2353:2362   */\n      dup4\n        /* \"#utility.yul\":2340:2363   */\n      calldataload\n        /* \"#utility.yul\":2372:2403   */\n      tag_497\n        /* \"#utility.yul\":2397:2402   */\n      dup2\n        /* \"#utility.yul\":2372:2403   */\n      tag_473\n      jump\t// in\n    tag_497:\n        /* \"#utility.yul\":2422:2427   */\n      swap3\n      pop\n        /* \"#utility.yul\":2479:2481   */\n      0x20\n        /* \"#utility.yul\":2464:2482   */\n      dup5\n      add\n        /* \"#utility.yul\":2451:2483   */\n      calldataload\n        /* \"#utility.yul\":2492:2525   */\n      tag_498\n        /* \"#utility.yul\":2451:2483   */\n      dup2\n        /* \"#utility.yul\":2492:2525   */\n      tag_473\n      jump\t// in\n    tag_498:\n        /* \"#utility.yul\":2152:2608   */\n      swap3\n      swap6\n        /* \"#utility.yul\":2544:2551   */\n      swap3\n      swap5\n      pop\n      pop\n      pop\n        /* \"#utility.yul\":2598:2600   */\n      0x40\n        /* \"#utility.yul\":2583:2601   */\n      swap2\n      swap1\n      swap2\n      add\n        /* \"#utility.yul\":2570:2602   */\n      calldataload\n      swap1\n        /* \"#utility.yul\":2152:2608   */\n      jump\t// out\n        /* \"#utility.yul\":2613:2890   */\n    tag_128:\n        /* \"#utility.yul\":2680:2686   */\n      0x00\n        /* \"#utility.yul\":2733:2735   */\n      0x20\n        /* \"#utility.yul\":2721:2730   */\n      dup3\n        /* \"#utility.yul\":2712:2719   */\n      dup5\n        /* \"#utility.yul\":2708:2731   */\n      sub\n        /* \"#utility.yul\":2704:2736   */\n      slt\n        /* \"#utility.yul\":2701:2753   */\n      iszero\n      tag_500\n      jumpi\n        /* \"#utility.yul\":2749:2750   */\n      0x00\n        /* \"#utility.yul\":2746:2747   */\n      dup1\n        /* \"#utility.yul\":2739:2751   */\n      revert\n        /* \"#utility.yul\":2701:2753   */\n    tag_500:\n        /* \"#utility.yul\":2781:2790   */\n      dup2\n        /* \"#utility.yul\":2775:2791   */\n      mload\n        /* \"#utility.yul\":2834:2839   */\n      dup1\n        /* \"#utility.yul\":2827:2840   */\n      iszero\n        /* \"#utility.yul\":2820:2841   */\n      iszero\n        /* \"#utility.yul\":2813:2818   */\n      dup2\n        /* \"#utility.yul\":2810:2842   */\n      eq\n        /* \"#utility.yul\":2800:2860   */\n      tag_304\n      jumpi\n        /* \"#utility.yul\":2856:2857   */\n      0x00\n        /* \"#utility.yul\":2853:2854   */\n      dup1\n        /* \"#utility.yul\":2846:2858   */\n      revert\n        /* \"#utility.yul\":2895:3079   */\n    tag_136:\n        /* \"#utility.yul\":2965:2971   */\n      0x00\n        /* \"#utility.yul\":3018:3020   */\n      0x20\n        /* \"#utility.yul\":3006:3015   */\n      dup3\n        /* \"#utility.yul\":2997:3004   */\n      dup5\n        /* \"#utility.yul\":2993:3016   */\n      sub\n        /* \"#utility.yul\":2989:3021   */\n      slt\n        /* \"#utility.yul\":2986:3038   */\n      iszero\n      tag_503\n      jumpi\n        /* \"#utility.yul\":3034:3035   */\n      0x00\n        /* \"#utility.yul\":3031:3032   */\n      dup1\n        /* \"#utility.yul\":3024:3036   */\n      revert\n        /* \"#utility.yul\":2986:3038   */\n    tag_503:\n      pop\n        /* \"#utility.yul\":3057:3073   */\n      mload\n      swap2\n        /* \"#utility.yul\":2895:3079   */\n      swap1\n      pop\n      jump\t// out\n        /* \"#utility.yul\":3084:3211   */\n    tag_474:\n        /* \"#utility.yul\":3145:3155   */\n      0x4e487b71\n        /* \"#utility.yul\":3140:3143   */\n      0xe0\n        /* \"#utility.yul\":3136:3156   */\n      shl\n        /* \"#utility.yul\":3133:3134   */\n      0x00\n        /* \"#utility.yul\":3126:3157   */\n      mstore\n        /* \"#utility.yul\":3176:3180   */\n      0x11\n        /* \"#utility.yul\":3173:3174   */\n      0x04\n        /* \"#utility.yul\":3166:3181   */\n      mstore\n        /* \"#utility.yul\":3200:3204   */\n      0x24\n        /* \"#utility.yul\":3197:3198   */\n      0x00\n        /* \"#utility.yul\":3190:3205   */\n      revert\n        /* \"#utility.yul\":3216:3384   */\n    tag_140:\n        /* \"#utility.yul\":3289:3298   */\n      dup1\n      dup3\n      mul\n        /* \"#utility.yul\":3320:3329   */\n      dup2\n      iszero\n        /* \"#utility.yul\":3337:3352   */\n      dup3\n      dup3\n      div\n        /* \"#utility.yul\":3331:3353   */\n      dup5\n      eq\n        /* \"#utility.yul\":3317:3354   */\n      or\n        /* \"#utility.yul\":3307:3378   */\n      tag_146\n      jumpi\n        /* \"#utility.yul\":3358:3376   */\n      tag_146\n      tag_474\n      jump\t// in\n        /* \"#utility.yul\":3389:3514   */\n    tag_142:\n        /* \"#utility.yul\":3454:3463   */\n      dup1\n      dup3\n      add\n        /* \"#utility.yul\":3475:3485   */\n      dup1\n      dup3\n      gt\n        /* \"#utility.yul\":3472:3508   */\n      iszero\n      tag_146\n      jumpi\n        /* \"#utility.yul\":3488:3506   */\n      tag_146\n      tag_474\n      jump\t// in\n        /* \"#utility.yul\":3519:3654   */\n    tag_144:\n        /* \"#utility.yul\":3558:3561   */\n      0x00\n        /* \"#utility.yul\":3579:3596   */\n      0x01\n      dup3\n      add\n        /* \"#utility.yul\":3576:3619   */\n      tag_513\n      jumpi\n        /* \"#utility.yul\":3599:3617   */\n      tag_513\n      tag_474\n      jump\t// in\n    tag_513:\n      pop\n        /* \"#utility.yul\":3646:3647   */\n      0x01\n        /* \"#utility.yul\":3635:3648   */\n      add\n      swap1\n        /* \"#utility.yul\":3519:3654   */\n      jump\t// out\n        /* \"#utility.yul\":3659:3876   */\n    tag_174:\n        /* \"#utility.yul\":3699:3700   */\n      0x00\n        /* \"#utility.yul\":3725:3726   */\n      dup3\n        /* \"#utility.yul\":3715:3847   */\n      tag_515\n      jumpi\n        /* \"#utility.yul\":3769:3779   */\n      0x4e487b71\n        /* \"#utility.yul\":3764:3767   */\n      0xe0\n        /* \"#utility.yul\":3760:3780   */\n      shl\n        /* \"#utility.yul\":3757:3758   */\n      0x00\n        /* \"#utility.yul\":3750:3781   */\n      mstore\n        /* \"#utility.yul\":3804:3808   */\n      0x12\n        /* \"#utility.yul\":3801:3802   */\n      0x04\n        /* \"#utility.yul\":3794:3809   */\n      mstore\n        /* \"#utility.yul\":3832:3836   */\n      0x24\n        /* \"#utility.yul\":3829:3830   */\n      0x00\n        /* \"#utility.yul\":3822:3837   */\n      revert\n        /* \"#utility.yul\":3715:3847   */\n    tag_515:\n      pop\n        /* \"#utility.yul\":3861:3870   */\n      div\n      swap1\n        /* \"#utility.yul\":3659:3876   */\n      jump\t// out\n        /* \"#utility.yul\":3881:4132   */\n    tag_186:\n        /* \"#utility.yul\":3951:3957   */\n      0x00\n        /* \"#utility.yul\":4004:4006   */\n      0x20\n        /* \"#utility.yul\":3992:4001   */\n      dup3\n        /* \"#utility.yul\":3983:3990   */\n      dup5\n        /* \"#utility.yul\":3979:4002   */\n      sub\n        /* \"#utility.yul\":3975:4007   */\n      slt\n        /* \"#utility.yul\":3972:4024   */\n      iszero\n      tag_517\n      jumpi\n        /* \"#utility.yul\":4020:4021   */\n      0x00\n        /* \"#utility.yul\":4017:4018   */\n      dup1\n        /* \"#utility.yul\":4010:4022   */\n      revert\n        /* \"#utility.yul\":3972:4024   */\n    tag_517:\n        /* \"#utility.yul\":4052:4061   */\n      dup2\n        /* \"#utility.yul\":4046:4062   */\n      mload\n        /* \"#utility.yul\":4071:4102   */\n      tag_304\n        /* \"#utility.yul\":4096:4101   */\n      dup2\n        /* \"#utility.yul\":4071:4102   */\n      tag_473\n      jump\t// in\n        /* \"#utility.yul\":4416:4791   */\n    tag_217:\n      sub(shl(0xa0, 0x01), 0x01)\n        /* \"#utility.yul\":4674:4689   */\n      swap4\n      dup5\n      and\n        /* \"#utility.yul\":4656:4690   */\n      dup2\n      mstore\n        /* \"#utility.yul\":4726:4741   */\n      swap2\n      swap1\n      swap3\n      and\n        /* \"#utility.yul\":4721:4723   */\n      0x20\n        /* \"#utility.yul\":4706:4724   */\n      dup3\n      add\n        /* \"#utility.yul\":4699:4742   */\n      mstore\n        /* \"#utility.yul\":4773:4775   */\n      0x40\n        /* \"#utility.yul\":4758:4776   */\n      dup2\n      add\n        /* \"#utility.yul\":4751:4785   */\n      swap2\n      swap1\n      swap2\n      mstore\n        /* \"#utility.yul\":4606:4608   */\n      0x60\n        /* \"#utility.yul\":4591:4609   */\n      add\n      swap1\n        /* \"#utility.yul\":4416:4791   */\n      jump\t// out\n        /* \"#utility.yul\":4796:5145   */\n    tag_226:\n        /* \"#utility.yul\":4998:5000   */\n      0x20\n        /* \"#utility.yul\":4980:5001   */\n      dup1\n      dup3\n      mstore\n        /* \"#utility.yul\":5037:5039   */\n      0x19\n        /* \"#utility.yul\":5017:5035   */\n      swap1\n      dup3\n      add\n        /* \"#utility.yul\":5010:5040   */\n      mstore\n        /* \"#utility.yul\":5076:5103   */\n      0x4661636574536166653a207265656e7472616e742063616c6c00000000000000\n        /* \"#utility.yul\":5071:5073   */\n      0x40\n        /* \"#utility.yul\":5056:5074   */\n      dup3\n      add\n        /* \"#utility.yul\":5049:5104   */\n      mstore\n        /* \"#utility.yul\":5136:5138   */\n      0x60\n        /* \"#utility.yul\":5121:5139   */\n      add\n      swap1\n        /* \"#utility.yul\":4796:5145   */\n      jump\t// out\n        /* \"#utility.yul\":5150:5423   */\n    tag_248:\n        /* \"#utility.yul\":5218:5224   */\n      0x00\n        /* \"#utility.yul\":5271:5273   */\n      0x20\n        /* \"#utility.yul\":5259:5268   */\n      dup3\n        /* \"#utility.yul\":5250:5257   */\n      dup5\n        /* \"#utility.yul\":5246:5269   */\n      sub\n        /* \"#utility.yul\":5242:5274   */\n      slt\n        /* \"#utility.yul\":5239:5291   */\n      iszero\n      tag_523\n      jumpi\n        /* \"#utility.yul\":5287:5288   */\n      0x00\n        /* \"#utility.yul\":5284:5285   */\n      dup1\n        /* \"#utility.yul\":5277:5289   */\n      revert\n        /* \"#utility.yul\":5239:5291   */\n    tag_523:\n        /* \"#utility.yul\":5319:5328   */\n      dup2\n        /* \"#utility.yul\":5313:5329   */\n      mload\n        /* \"#utility.yul\":5369:5373   */\n      0xff\n        /* \"#utility.yul\":5362:5367   */\n      dup2\n        /* \"#utility.yul\":5358:5374   */\n      and\n        /* \"#utility.yul\":5351:5356   */\n      dup2\n        /* \"#utility.yul\":5348:5375   */\n      eq\n        /* \"#utility.yul\":5338:5393   */\n      tag_304\n      jumpi\n        /* \"#utility.yul\":5389:5390   */\n      0x00\n        /* \"#utility.yul\":5386:5387   */\n      dup1\n        /* \"#utility.yul\":5379:5391   */\n      revert\n        /* \"#utility.yul\":5428:5850   */\n    tag_475:\n        /* \"#utility.yul\":5517:5518   */\n      0x01\n        /* \"#utility.yul\":5560:5565   */\n      dup2\n        /* \"#utility.yul\":5517:5518   */\n      dup2\n        /* \"#utility.yul\":5574:5844   */\n    tag_526:\n        /* \"#utility.yul\":5595:5602   */\n      dup1\n        /* \"#utility.yul\":5585:5593   */\n      dup6\n        /* \"#utility.yul\":5582:5603   */\n      gt\n        /* \"#utility.yul\":5574:5844   */\n      iszero\n      tag_528\n      jumpi\n        /* \"#utility.yul\":5654:5658   */\n      dup2\n        /* \"#utility.yul\":5650:5651   */\n      0x00\n        /* \"#utility.yul\":5646:5652   */\n      not\n        /* \"#utility.yul\":5642:5659   */\n      div\n        /* \"#utility.yul\":5636:5640   */\n      dup3\n        /* \"#utility.yul\":5633:5660   */\n      gt\n        /* \"#utility.yul\":5630:5683   */\n      iszero\n      tag_530\n      jumpi\n        /* \"#utility.yul\":5663:5681   */\n      tag_530\n      tag_474\n      jump\t// in\n    tag_530:\n        /* \"#utility.yul\":5713:5720   */\n      dup1\n        /* \"#utility.yul\":5703:5711   */\n      dup6\n        /* \"#utility.yul\":5699:5721   */\n      and\n        /* \"#utility.yul\":5696:5751   */\n      iszero\n      tag_531\n      jumpi\n        /* \"#utility.yul\":5733:5749   */\n      swap2\n      dup2\n      mul\n      swap2\n        /* \"#utility.yul\":5696:5751   */\n    tag_531:\n        /* \"#utility.yul\":5812:5834   */\n      swap4\n      dup5\n      shr\n      swap4\n        /* \"#utility.yul\":5772:5787   */\n      swap1\n      dup1\n      mul\n      swap1\n        /* \"#utility.yul\":5574:5844   */\n      jump(tag_526)\n    tag_528:\n        /* \"#utility.yul\":5578:5581   */\n      pop\n        /* \"#utility.yul\":5428:5850   */\n      swap3\n      pop\n      swap3\n      swap1\n      pop\n      jump\t// out\n        /* \"#utility.yul\":5855:6661   */\n    tag_476:\n        /* \"#utility.yul\":5904:5909   */\n      0x00\n        /* \"#utility.yul\":5934:5942   */\n      dup3\n        /* \"#utility.yul\":5924:6004   */\n      tag_533\n      jumpi\n      pop\n        /* \"#utility.yul\":5975:5976   */\n      0x01\n        /* \"#utility.yul\":5989:5994   */\n      jump(tag_146)\n        /* \"#utility.yul\":5924:6004   */\n    tag_533:\n        /* \"#utility.yul\":6023:6027   */\n      dup2\n        /* \"#utility.yul\":6013:6089   */\n      tag_534\n      jumpi\n      pop\n        /* \"#utility.yul\":6060:6061   */\n      0x00\n        /* \"#utility.yul\":6074:6079   */\n      jump(tag_146)\n        /* \"#utility.yul\":6013:6089   */\n    tag_534:\n        /* \"#utility.yul\":6105:6109   */\n      dup2\n        /* \"#utility.yul\":6123:6124   */\n      0x01\n        /* \"#utility.yul\":6118:6177   */\n      dup2\n      eq\n      tag_536\n      jumpi\n        /* \"#utility.yul\":6191:6192   */\n      0x02\n        /* \"#utility.yul\":6186:6316   */\n      dup2\n      eq\n      tag_537\n      jumpi\n        /* \"#utility.yul\":6098:6316   */\n      jump(tag_535)\n        /* \"#utility.yul\":6118:6177   */\n    tag_536:\n        /* \"#utility.yul\":6148:6149   */\n      0x01\n        /* \"#utility.yul\":6139:6149   */\n      swap2\n      pop\n        /* \"#utility.yul\":6162:6167   */\n      pop\n      jump(tag_146)\n        /* \"#utility.yul\":6186:6316   */\n    tag_537:\n        /* \"#utility.yul\":6223:6226   */\n      0xff\n        /* \"#utility.yul\":6213:6221   */\n      dup5\n        /* \"#utility.yul\":6210:6227   */\n      gt\n        /* \"#utility.yul\":6207:6250   */\n      iszero\n      tag_539\n      jumpi\n        /* \"#utility.yul\":6230:6248   */\n      tag_539\n      tag_474\n      jump\t// in\n    tag_539:\n      pop\n      pop\n        /* \"#utility.yul\":6286:6287   */\n      0x01\n        /* \"#utility.yul\":6272:6288   */\n      dup3\n      shl\n        /* \"#utility.yul\":6301:6306   */\n      jump(tag_146)\n        /* \"#utility.yul\":6098:6316   */\n    tag_535:\n      pop\n        /* \"#utility.yul\":6400:6402   */\n      0x20\n        /* \"#utility.yul\":6390:6398   */\n      dup4\n        /* \"#utility.yul\":6387:6403   */\n      lt\n        /* \"#utility.yul\":6381:6384   */\n      0x0133\n        /* \"#utility.yul\":6375:6379   */\n      dup4\n        /* \"#utility.yul\":6372:6385   */\n      lt\n        /* \"#utility.yul\":6368:6404   */\n      and\n        /* \"#utility.yul\":6362:6364   */\n      0x4e\n        /* \"#utility.yul\":6352:6360   */\n      dup5\n        /* \"#utility.yul\":6349:6365   */\n      lt\n        /* \"#utility.yul\":6344:6346   */\n      0x0b\n        /* \"#utility.yul\":6338:6342   */\n      dup5\n        /* \"#utility.yul\":6335:6347   */\n      lt\n        /* \"#utility.yul\":6331:6366   */\n      and\n        /* \"#utility.yul\":6328:6405   */\n      or\n        /* \"#utility.yul\":6325:6484   */\n      iszero\n      tag_540\n      jumpi\n      pop\n        /* \"#utility.yul\":6437:6456   */\n      dup2\n      dup2\n      exp\n        /* \"#utility.yul\":6469:6474   */\n      jump(tag_146)\n        /* \"#utility.yul\":6325:6484   */\n    tag_540:\n        /* \"#utility.yul\":6516:6550   */\n      tag_541\n        /* \"#utility.yul\":6541:6549   */\n      dup4\n        /* \"#utility.yul\":6535:6539   */\n      dup4\n        /* \"#utility.yul\":6516:6550   */\n      tag_475\n      jump\t// in\n    tag_541:\n        /* \"#utility.yul\":6586:6592   */\n      dup1\n        /* \"#utility.yul\":6582:6583   */\n      0x00\n        /* \"#utility.yul\":6578:6584   */\n      not\n        /* \"#utility.yul\":6574:6593   */\n      div\n        /* \"#utility.yul\":6565:6572   */\n      dup3\n        /* \"#utility.yul\":6562:6594   */\n      gt\n        /* \"#utility.yul\":6559:6617   */\n      iszero\n      tag_543\n      jumpi\n        /* \"#utility.yul\":6597:6615   */\n      tag_543\n      tag_474\n      jump\t// in\n    tag_543:\n        /* \"#utility.yul\":6635:6655   */\n      mul\n      swap4\n        /* \"#utility.yul\":5855:6661   */\n      swap3\n      pop\n      pop\n      pop\n      jump\t// out\n        /* \"#utility.yul\":6666:6806   */\n    tag_323:\n        /* \"#utility.yul\":6724:6729   */\n      0x00\n        /* \"#utility.yul\":6753:6800   */\n      tag_304\n        /* \"#utility.yul\":6794:6798   */\n      0xff\n        /* \"#utility.yul\":6784:6792   */\n      dup5\n        /* \"#utility.yul\":6780:6799   */\n      and\n        /* \"#utility.yul\":6774:6778   */\n      dup4\n        /* \"#utility.yul\":6753:6800   */\n      tag_476\n      jump\t// in\n        /* \"#utility.yul\":7160:7288   */\n    tag_366:\n        /* \"#utility.yul\":7227:7236   */\n      dup2\n      dup2\n      sub\n        /* \"#utility.yul\":7248:7259   */\n      dup2\n      dup2\n      gt\n        /* \"#utility.yul\":7245:7282   */\n      iszero\n      tag_146\n      jumpi\n        /* \"#utility.yul\":7262:7280   */\n      tag_146\n      tag_474\n      jump\t// in\n        /* \"#utility.yul\":7652:7779   */\n    tag_425:\n        /* \"#utility.yul\":7713:7723   */\n      0x4e487b71\n        /* \"#utility.yul\":7708:7711   */\n      0xe0\n        /* \"#utility.yul\":7704:7724   */\n      shl\n        /* \"#utility.yul\":7701:7702   */\n      0x00\n        /* \"#utility.yul\":7694:7725   */\n      mstore\n        /* \"#utility.yul\":7744:7748   */\n      0x32\n        /* \"#utility.yul\":7741:7742   */\n      0x04\n        /* \"#utility.yul\":7734:7749   */\n      mstore\n        /* \"#utility.yul\":7768:7772   */\n      0x24\n        /* \"#utility.yul\":7765:7766   */\n      0x00\n        /* \"#utility.yul\":7758:7773   */\n      revert\n        /* \"#utility.yul\":8951:9078   */\n    tag_470:\n        /* \"#utility.yul\":9012:9022   */\n      0x4e487b71\n        /* \"#utility.yul\":9007:9010   */\n      0xe0\n        /* \"#utility.yul\":9003:9023   */\n      shl\n        /* \"#utility.yul\":9000:9001   */\n      0x00\n        /* \"#utility.yul\":8993:9024   */\n      mstore\n        /* \"#utility.yul\":9043:9047   */\n      0x31\n        /* \"#utility.yul\":9040:9041   */\n      0x04\n        /* \"#utility.yul\":9033:9048   */\n      mstore\n        /* \"#utility.yul\":9067:9071   */\n      0x24\n        /* \"#utility.yul\":9064:9065   */\n      0x00\n        /* \"#utility.yul\":9057:9072   */\n      revert\n\n    auxdata: 0xa2646970667358221220cdf23f5b595d972f69cfbb2046419a3836ff7d328b90b11e5402b3f7c017571064736f6c63430008130033\n}\n",
				"bytecode": {
					"linkReferences": {},
					"object": "608060405234801561001057600080fd5b50611aad806100206000396000f3fe608060405234801561001057600080fd5b50600436106101425760003560e01c80633e5541f1116100b8578063a6a2fcd71161007c578063a6a2fcd71461028b578063b3a54f1b1461029e578063b74cbb41146102b1578063b8f82b26146102c4578063e13a96d6146102d7578063e5e45084146102ea57600080fd5b80633e5541f1146102355780633e80014814610248578063402d267d1461025b578063464964b11461027057806347e7ef241461027857600080fd5b806319d0c2fa1161010a57806319d0c2fa146101d85780632a77d7b8146101e05780632e1a7d4d146101f557806331b944501461020857806336447c4e1461021b57806338d52e0f1461022e57600080fd5b806301e1d1141461014757806307a2d13a146101625780630a885f9514610175578063182a9420146101a057806318b31027146101c3575b600080fd5b61014f6102fd565b6040519081526020015b60405180910390f35b61014f6101703660046116ef565b61046c565b6101886101833660046116ef565b6104e9565b6040516001600160a01b039091168152602001610159565b6101b36101ae36600461171d565b610500565b6040519015158152602001610159565b6101d66101d136600461171d565b610517565b005b61014f610575565b6101e86105f0565b604051610159919061173a565b6101d66102033660046116ef565b610605565b6101d6610216366004611787565b610816565b6101d66102293660046117b3565b610899565b6000610188565b61014f610243366004611787565b610915565b61014f61025636600461171d565b610aaf565b61014f61026936600461171d565b5060001990565b6101e8610ad8565b6101d6610286366004611787565b610aed565b6101d661029936600461171d565b610bb8565b6101b36102ac36600461171d565b610c0f565b6101d66102bf36600461171d565b610c26565b61014f6102d2366004611787565b610c7d565b6101886102e53660046116ef565b610c90565b6101d66102f836600461171d565b610ca7565b600080600061031561030d610cfe565b600501610d22565b905060005b8181101561046457600061033982610330610cfe565b60050190610d2c565b90503060405163ce49c9b360e01b81526001600160a01b038381166004830152919091169063ce49c9b390602401602060405180830381865afa158015610384573d6000803e3d6000fd5b505050506040513d601f19601f820116820180604052508101906103a891906117f4565b156104515760006103b882610aaf565b9050600030604051633469c24b60e21b81526001600160a01b038581166004830152919091169063d1a7092c90602401602060405180830381865afa158015610405573d6000803e3d6000fd5b505050506040513d601f19601f820116820180604052508101906104299190611816565b9050610436816008610d38565b90506104428282611845565b61044c908761185c565b955050505b508061045c8161186f565b91505061031a565b509092915050565b60006104e36104796102fd565b306001600160a01b03166318160ddd6040518163ffffffff1660e01b8152600401602060405180830381865afa1580156104b7573d6000803e3d6000fd5b505050506040513d601f19601f820116820180604052508101906104db9190611816565b849190610d86565b92915050565b60006104e3826104f7610cfe565b60030190610d2c565b60006104e38261050e610cfe565b60030190610da5565b61051f610dc7565b6105348161052b610cfe565b60010190610e0f565b506040516001600160a01b03821681527ff6aea4ebd15c89ff6a16b7819fb6968ad0a0ce7e0085ef4c87a85f8c0cd2e46a906020015b60405180910390a150565b6000306001600160a01b03166318160ddd6040518163ffffffff1660e01b8152600401602060405180830381865afa1580156105b5573d6000803e3d6000fd5b505050506040513d601f19601f820116820180604052508101906105d99190611816565b6105e16102fd565b6105eb9190611888565b905090565b60606105eb6105fd610cfe565b600101610e24565b60006106108261046c565b905061067d306001600160a01b0316638752b02f6040518163ffffffff1660e01b8152600401602060405180830381865afa158015610653573d6000803e3d6000fd5b505050506040513d601f19601f8201168201806040525081019061067791906118aa565b83610e31565b60006106876102fd565b61069383612710611845565b61069d9190611888565b905060006106ac61030d610cfe565b905060005b8181101561080f5760006106c782610330610cfe565b90506001600160a01b0381166107775760006106e36000610aaf565b90506000856106f461271084611888565b6106fe9190611845565b9050306001600160a01b03166331b94450336040516001600160e01b031960e084901b1681526001600160a01b03909116600482015260248101849052604401600060405180830381600087803b15801561075857600080fd5b505af115801561076c573d6000803e3d6000fd5b5050505050506107fc565b600061078282610aaf565b905060008561079361271084611888565b61079d9190611845565b604051631b223e2760e11b815290915030906336447c4e906107c7903390879086906004016118c7565b600060405180830381600087803b1580156107e157600080fd5b505af11580156107f5573d6000803e3d6000fd5b5050505050505b50806108078161186f565b9150506106b1565b5050505050565b61081e610cfe565b6007015460ff161561084b5760405162461bcd60e51b8152600401610842906118eb565b60405180910390fd5b6001610855610cfe565b600701805460ff191691151591909117905561086f610dc7565b6108798282610f27565b6000610883610cfe565b600701805460ff19169115159190911790555050565b6108a1610cfe565b6007015460ff16156108c55760405162461bcd60e51b8152600401610842906118eb565b60016108cf610cfe565b600701805460ff19169115159190911790556108e9610dc7565b6108f4838383611017565b60006108fe610cfe565b600701805460ff1916911515919091179055505050565b600080836001600160a01b031663313ce5676040518163ffffffff1660e01b8152600401602060405180830381865afa158015610956573d6000803e3d6000fd5b505050506040513d601f19601f8201168201806040525081019061097a9190611922565b90506109868382610d38565b925061099184610c0f565b15610aa557600030604051633469c24b60e21b81526001600160a01b038781166004830152919091169063d1a7092c90602401602060405180830381865afa1580156109e1573d6000803e3d6000fd5b505050506040513d601f19601f82011682018060405250810190610a059190611816565b9050610a12816008610d38565b90506000610a208583611845565b90506000610a99610a2f6102fd565b306001600160a01b03166318160ddd6040518163ffffffff1660e01b8152600401602060405180830381865afa158015610a6d573d6000803e3d6000fd5b505050506040513d601f19601f82011682018060405250810190610a919190611816565b84919061121c565b94506104e39350505050565b5060009392505050565b6000610ab9610cfe565b6001600160a01b03909216600090815260209290925250604090205490565b60606105eb610ae5610cfe565b600301610e24565b610af5610cfe565b6007015460ff1615610b195760405162461bcd60e51b8152600401610842906118eb565b6001610b23610cfe565b600701805460ff1916911515919091179055610b3f8282611229565b30634ac947f733610b508585610915565b6040516001600160e01b031960e085901b1681526001600160a01b0390921660048301526024820152604401600060405180830381600087803b158015610b9657600080fd5b505af1158015610baa573d6000803e3d6000fd5b505050506000610883610cfe565b610bc0610dc7565b610bd581610bcc610cfe565b60030190610e0f565b506040516001600160a01b03821681527fb91009acff1ca23a9fe12400608cae8383f810cac953c1a16a99fe9b9c65abfb9060200161056a565b60006104e382610c1d610cfe565b60010190610da5565b610c2e610dc7565b610c4381610c3a610cfe565b600301906113aa565b506040516001600160a01b03821681527f64f9ae8a27a020b54f63a0d9ff5d3f0dd302b35eef11d16612b2a02b2d8a82489060200161056a565b6000610c898383610915565b9392505050565b60006104e382610c9e610cfe565b60010190610d2c565b610caf610dc7565b610cc481610cbb610cfe565b600101906113aa565b506040516001600160a01b03821681527f0a05ed313e53d05b8e9ebe468e240ec174f5190074867a051f35ac20709eed049060200161056a565b7ff2eeec4c06050035800631f1916b3a25e1fa154de963ec50f0ac015a5be9e61890565b60006104e3825490565b6000610c8983836113bf565b6000670de0b6b3a7640000610d4e83600a611a29565b610d6085670de0b6b3a7640000611845565b610d6a9190611888565b610d7c90670de0b6b3a7640000611845565b610c899190611888565b600081610d938486611845565b610d9d9190611888565b949350505050565b6001600160a01b03811660009081526001830160205260408120541515610c89565b333014610e0d5760405162461bcd60e51b81526020600482015260146024820152732330b1b2ba29b0b3329d1037b7363c9039b2b63360611b6044820152606401610842565b565b6000610c89836001600160a01b0384166113e9565b60606000610c8983611438565b610e9d826001600160a01b031663313ce5676040518163ffffffff1660e01b8152600401602060405180830381865afa158015610e72573d6000803e3d6000fd5b505050506040513d601f19601f82011682018060405250810190610e969190611922565b8290611494565b9050806001600160a01b0383166370a08231336040516001600160e01b031960e084901b1681526001600160a01b039091166004820152602401602060405180830381865afa158015610ef4573d6000803e3d6000fd5b505050506040513d601f19601f82011682018060405250810190610f189190611816565b1015610f2357600080fd5b5050565b610f3160006114d1565b610f3c600082611535565b80610f45610cfe565b6000808052602091909152604081208054909190610f64908490611a38565b90915550610f729050610cfe565b600080805260209190915260408120549003610fa057610f9e6000610f95610cfe565b600501906113aa565b505b6040516001600160a01b0383169082156108fc029083906000818181858888f19350505050158015610fd6573d6000803e3d6000fd5b507f9b1bfa7fa9ee420a16e124f794c35ac9f90472acc99140eb2f6447c714cad8eb8260008360405161100b939291906118c7565b60405180910390a15050565b816001600160a01b03811661106e5760405162461bcd60e51b815260206004820152601e60248201527f4661636574536166653a20696e6170726f707269617465206d6574686f6400006044820152606401610842565b611077836114d1565b6110818383611535565b8161108a610cfe565b6001600160a01b03851660009081526020919091526040812080549091906110b3908490611a38565b909155506110c19050610cfe565b6001600160a01b0384166000908152602091909152604081205490036110ef576110ed83610f95610cfe565b505b806001600160a01b031663a9059cbb8561116b846001600160a01b031663313ce5676040518163ffffffff1660e01b8152600401602060405180830381865afa158015611140573d6000803e3d6000fd5b505050506040513d601f19601f820116820180604052508101906111649190611922565b8690611494565b6040516001600160e01b031960e085901b1681526001600160a01b03909216600483015260248201526044016020604051808303816000875af11580156111b6573d6000803e3d6000fd5b505050506040513d601f19601f820116820180604052508101906111da91906117f4565b507f9b1bfa7fa9ee420a16e124f794c35ac9f90472acc99140eb2f6447c714cad8eb84848460405161120e939291906118c7565b60405180910390a150505050565b600082610d938386611845565b81611233816115a6565b61123d8383610e31565b6001600160a01b0381166323b872dd33306112ba876001600160a01b031663313ce5676040518163ffffffff1660e01b8152600401602060405180830381865afa15801561128f573d6000803e3d6000fd5b505050506040513d601f19601f820116820180604052508101906112b39190611922565b8790611494565b6040518463ffffffff1660e01b81526004016112d8939291906118c7565b6020604051808303816000875af11580156112f7573d6000803e3d6000fd5b505050506040513d601f19601f8201168201806040525081019061131b91906117f4565b5081611325610cfe565b6001600160a01b038516600090815260209190915260408120805490919061134e90849061185c565b90915550611369905083611360610cfe565b60050190610e0f565b507f5548c837ab068cf56a2c2479df0882a4922fd203edb7517321831d95078c5f6233848460405161139d939291906118c7565b60405180910390a1505050565b6000610c89836001600160a01b038416611606565b60008260000182815481106113d6576113d6611a4b565b9060005260206000200154905092915050565b6000818152600183016020526040812054611430575081546001818101845560008481526020808220909301849055845484825282860190935260409020919091556104e3565b5060006104e3565b60608160000180548060200260200160405190810160405280929190818152602001828054801561148857602002820191906000526020600020905b815481526020019060010190808311611474575b50505050509050919050565b6000670de0b6b3a76400006114aa83600a611a29565b670de0b6b3a76400006114bd8682611845565b6114c79190611888565b610d7c9190611845565b6114da81610500565b6115325760405162461bcd60e51b815260206004820152602360248201527f4661636574536166653a20746f6b656e206973206e6f7420616c6c6f776564206044820152621bdd5d60ea1b6064820152608401610842565b50565b8061153e610cfe565b6001600160a01b038416600090815260209190915260409020541015610f235760405162461bcd60e51b815260206004820152601f60248201527f4661636574536166653a20696e73756666696369656e742062616c616e6365006044820152606401610842565b6115af81610c0f565b6115325760405162461bcd60e51b815260206004820152602260248201527f4661636574536166653a20746f6b656e206973206e6f7420616c6c6f7765642060448201526134b760f11b6064820152608401610842565b60008181526001830160205260408120548015610aa557600061162a600183611a38565b855490915060009061163e90600190611a38565b90508181146116a357600086600001828154811061165e5761165e611a4b565b906000526020600020015490508087600001848154811061168157611681611a4b565b6000918252602080832090910192909255918252600188019052604090208390555b85548690806116b4576116b4611a61565b6001900381819060005260206000200160009055905585600101600086815260200190815260200160002060009055600193505050506104e3565b60006020828403121561170157600080fd5b5035919050565b6001600160a01b038116811461153257600080fd5b60006020828403121561172f57600080fd5b8135610c8981611708565b6020808252825182820181905260009190848201906040850190845b8181101561177b5783516001600160a01b031683529284019291840191600101611756565b50909695505050505050565b6000806040838503121561179a57600080fd5b82356117a581611708565b946020939093013593505050565b6000806000606084860312156117c857600080fd5b83356117d381611708565b925060208401356117e381611708565b929592945050506040919091013590565b60006020828403121561180657600080fd5b81518015158114610c8957600080fd5b60006020828403121561182857600080fd5b5051919050565b634e487b7160e01b600052601160045260246000fd5b80820281158282048414176104e3576104e361182f565b808201808211156104e3576104e361182f565b6000600182016118815761188161182f565b5060010190565b6000826118a557634e487b7160e01b600052601260045260246000fd5b500490565b6000602082840312156118bc57600080fd5b8151610c8981611708565b6001600160a01b039384168152919092166020820152604081019190915260600190565b60208082526019908201527f4661636574536166653a207265656e7472616e742063616c6c00000000000000604082015260600190565b60006020828403121561193457600080fd5b815160ff81168114610c8957600080fd5b600181815b808511156119805781600019048211156119665761196661182f565b8085161561197357918102915b93841c939080029061194a565b509250929050565b600082611997575060016104e3565b816119a4575060006104e3565b81600181146119ba57600281146119c4576119e0565b60019150506104e3565b60ff8411156119d5576119d561182f565b50506001821b6104e3565b5060208310610133831016604e8410600b8410161715611a03575081810a6104e3565b611a0d8383611945565b8060001904821115611a2157611a2161182f565b029392505050565b6000610c8960ff841683611988565b818103818111156104e3576104e361182f565b634e487b7160e01b600052603260045260246000fd5b634e487b7160e01b600052603160045260246000fdfea2646970667358221220cdf23f5b595d972f69cfbb2046419a3836ff7d328b90b11e5402b3f7c017571064736f6c63430008130033",
					"opcodes": "PUSH1 0x80 PUSH1 0x40 MSTORE CALLVALUE DUP1 ISZERO PUSH2 0x10 JUMPI PUSH1 0x0 DUP1 REVERT JUMPDEST POP PUSH2 0x1AAD DUP1 PUSH2 0x20 PUSH1 0x0 CODECOPY PUSH1 0x0 RETURN INVALID PUSH1 0x80 PUSH1 0x40 MSTORE CALLVALUE DUP1 ISZERO PUSH2 0x10 JUMPI PUSH1 0x0 DUP1 REVERT JUMPDEST POP PUSH1 0x4 CALLDATASIZE LT PUSH2 0x142 JUMPI PUSH1 0x0 CALLDATALOAD PUSH1 0xE0 SHR DUP1 PUSH4 0x3E5541F1 GT PUSH2 0xB8 JUMPI DUP1 PUSH4 0xA6A2FCD7 GT PUSH2 0x7C JUMPI DUP1 PUSH4 0xA6A2FCD7 EQ PUSH2 0x28B JUMPI DUP1 PUSH4 0xB3A54F1B EQ PUSH2 0x29E JUMPI DUP1 PUSH4 0xB74CBB41 EQ PUSH2 0x2B1 JUMPI DUP1 PUSH4 0xB8F82B26 EQ PUSH2 0x2C4 JUMPI DUP1 PUSH4 0xE13A96D6 EQ PUSH2 0x2D7 JUMPI DUP1 PUSH4 0xE5E45084 EQ PUSH2 0x2EA JUMPI PUSH1 0x0 DUP1 REVERT JUMPDEST DUP1 PUSH4 0x3E5541F1 EQ PUSH2 0x235 JUMPI DUP1 PUSH4 0x3E800148 EQ PUSH2 0x248 JUMPI DUP1 PUSH4 0x402D267D EQ PUSH2 0x25B JUMPI DUP1 PUSH4 0x464964B1 EQ PUSH2 0x270 JUMPI DUP1 PUSH4 0x47E7EF24 EQ PUSH2 0x278 JUMPI PUSH1 0x0 DUP1 REVERT JUMPDEST DUP1 PUSH4 0x19D0C2FA GT PUSH2 0x10A JUMPI DUP1 PUSH4 0x19D0C2FA EQ PUSH2 0x1D8 JUMPI DUP1 PUSH4 0x2A77D7B8 EQ PUSH2 0x1E0 JUMPI DUP1 PUSH4 0x2E1A7D4D EQ PUSH2 0x1F5 JUMPI DUP1 PUSH4 0x31B94450 EQ PUSH2 0x208 JUMPI DUP1 PUSH4 0x36447C4E EQ PUSH2 0x21B JUMPI DUP1 PUSH4 0x38D52E0F EQ PUSH2 0x22E JUMPI PUSH1 0x0 DUP1 REVERT JUMPDEST DUP1 PUSH4 0x1E1D114 EQ PUSH2 0x147 JUMPI DUP1 PUSH4 0x7A2D13A EQ PUSH2 0x162 JUMPI DUP1 PUSH4 0xA885F95 EQ PUSH2 0x175 JUMPI DUP1 PUSH4 0x182A9420 EQ PUSH2 0x1A0 JUMPI DUP1 PUSH4 0x18B31027 EQ PUSH2 0x1C3 JUMPI JUMPDEST PUSH1 0x0 DUP1 REVERT JUMPDEST PUSH2 0x14F PUSH2 0x2FD JUMP JUMPDEST PUSH1 0x40 MLOAD SWAP1 DUP2 MSTORE PUSH1 0x20 ADD JUMPDEST PUSH1 0x40 MLOAD DUP1 SWAP2 SUB SWAP1 RETURN JUMPDEST PUSH2 0x14F PUSH2 0x170 CALLDATASIZE PUSH1 0x4 PUSH2 0x16EF JUMP JUMPDEST PUSH2 0x46C JUMP JUMPDEST PUSH2 0x188 PUSH2 0x183 CALLDATASIZE PUSH1 0x4 PUSH2 0x16EF JUMP JUMPDEST PUSH2 0x4E9 JUMP JUMPDEST PUSH1 0x40 MLOAD PUSH1 0x1 PUSH1 0x1 PUSH1 0xA0 SHL SUB SWAP1 SWAP2 AND DUP2 MSTORE PUSH1 0x20 ADD PUSH2 0x159 JUMP JUMPDEST PUSH2 0x1B3 PUSH2 0x1AE CALLDATASIZE PUSH1 0x4 PUSH2 0x171D JUMP JUMPDEST PUSH2 0x500 JUMP JUMPDEST PUSH1 0x40 MLOAD SWAP1 ISZERO ISZERO DUP2 MSTORE PUSH1 0x20 ADD PUSH2 0x159 JUMP JUMPDEST PUSH2 0x1D6 PUSH2 0x1D1 CALLDATASIZE PUSH1 0x4 PUSH2 0x171D JUMP JUMPDEST PUSH2 0x517 JUMP JUMPDEST STOP JUMPDEST PUSH2 0x14F PUSH2 0x575 JUMP JUMPDEST PUSH2 0x1E8 PUSH2 0x5F0 JUMP JUMPDEST PUSH1 0x40 MLOAD PUSH2 0x159 SWAP2 SWAP1 PUSH2 0x173A JUMP JUMPDEST PUSH2 0x1D6 PUSH2 0x203 CALLDATASIZE PUSH1 0x4 PUSH2 0x16EF JUMP JUMPDEST PUSH2 0x605 JUMP JUMPDEST PUSH2 0x1D6 PUSH2 0x216 CALLDATASIZE PUSH1 0x4 PUSH2 0x1787 JUMP JUMPDEST PUSH2 0x816 JUMP JUMPDEST PUSH2 0x1D6 PUSH2 0x229 CALLDATASIZE PUSH1 0x4 PUSH2 0x17B3 JUMP JUMPDEST PUSH2 0x899 JUMP JUMPDEST PUSH1 0x0 PUSH2 0x188 JUMP JUMPDEST PUSH2 0x14F PUSH2 0x243 CALLDATASIZE PUSH1 0x4 PUSH2 0x1787 JUMP JUMPDEST PUSH2 0x915 JUMP JUMPDEST PUSH2 0x14F PUSH2 0x256 CALLDATASIZE PUSH1 0x4 PUSH2 0x171D JUMP JUMPDEST PUSH2 0xAAF JUMP JUMPDEST PUSH2 0x14F PUSH2 0x269 CALLDATASIZE PUSH1 0x4 PUSH2 0x171D JUMP JUMPDEST POP PUSH1 0x0 NOT SWAP1 JUMP JUMPDEST PUSH2 0x1E8 PUSH2 0xAD8 JUMP JUMPDEST PUSH2 0x1D6 PUSH2 0x286 CALLDATASIZE PUSH1 0x4 PUSH2 0x1787 JUMP JUMPDEST PUSH2 0xAED JUMP JUMPDEST PUSH2 0x1D6 PUSH2 0x299 CALLDATASIZE PUSH1 0x4 PUSH2 0x171D JUMP JUMPDEST PUSH2 0xBB8 JUMP JUMPDEST PUSH2 0x1B3 PUSH2 0x2AC CALLDATASIZE PUSH1 0x4 PUSH2 0x171D JUMP JUMPDEST PUSH2 0xC0F JUMP JUMPDEST PUSH2 0x1D6 PUSH2 0x2BF CALLDATASIZE PUSH1 0x4 PUSH2 0x171D JUMP JUMPDEST PUSH2 0xC26 JUMP JUMPDEST PUSH2 0x14F PUSH2 0x2D2 CALLDATASIZE PUSH1 0x4 PUSH2 0x1787 JUMP JUMPDEST PUSH2 0xC7D JUMP JUMPDEST PUSH2 0x188 PUSH2 0x2E5 CALLDATASIZE PUSH1 0x4 PUSH2 0x16EF JUMP JUMPDEST PUSH2 0xC90 JUMP JUMPDEST PUSH2 0x1D6 PUSH2 0x2F8 CALLDATASIZE PUSH1 0x4 PUSH2 0x171D JUMP JUMPDEST PUSH2 0xCA7 JUMP JUMPDEST PUSH1 0x0 DUP1 PUSH1 0x0 PUSH2 0x315 PUSH2 0x30D PUSH2 0xCFE JUMP JUMPDEST PUSH1 0x5 ADD PUSH2 0xD22 JUMP JUMPDEST SWAP1 POP PUSH1 0x0 JUMPDEST DUP2 DUP2 LT ISZERO PUSH2 0x464 JUMPI PUSH1 0x0 PUSH2 0x339 DUP3 PUSH2 0x330 PUSH2 0xCFE JUMP JUMPDEST PUSH1 0x5 ADD SWAP1 PUSH2 0xD2C JUMP JUMPDEST SWAP1 POP ADDRESS PUSH1 0x40 MLOAD PUSH4 0xCE49C9B3 PUSH1 0xE0 SHL DUP2 MSTORE PUSH1 0x1 PUSH1 0x1 PUSH1 0xA0 SHL SUB DUP4 DUP2 AND PUSH1 0x4 DUP4 ADD MSTORE SWAP2 SWAP1 SWAP2 AND SWAP1 PUSH4 0xCE49C9B3 SWAP1 PUSH1 0x24 ADD PUSH1 0x20 PUSH1 0x40 MLOAD DUP1 DUP4 SUB DUP2 DUP7 GAS STATICCALL ISZERO DUP1 ISZERO PUSH2 0x384 JUMPI RETURNDATASIZE PUSH1 0x0 DUP1 RETURNDATACOPY RETURNDATASIZE PUSH1 0x0 REVERT JUMPDEST POP POP POP POP PUSH1 0x40 MLOAD RETURNDATASIZE PUSH1 0x1F NOT PUSH1 0x1F DUP3 ADD AND DUP3 ADD DUP1 PUSH1 0x40 MSTORE POP DUP2 ADD SWAP1 PUSH2 0x3A8 SWAP2 SWAP1 PUSH2 0x17F4 JUMP JUMPDEST ISZERO PUSH2 0x451 JUMPI PUSH1 0x0 PUSH2 0x3B8 DUP3 PUSH2 0xAAF JUMP JUMPDEST SWAP1 POP PUSH1 0x0 ADDRESS PUSH1 0x40 MLOAD PUSH4 0x3469C24B PUSH1 0xE2 SHL DUP2 MSTORE PUSH1 0x1 PUSH1 0x1 PUSH1 0xA0 SHL SUB DUP6 DUP2 AND PUSH1 0x4 DUP4 ADD MSTORE SWAP2 SWAP1 SWAP2 AND SWAP1 PUSH4 0xD1A7092C SWAP1 PUSH1 0x24 ADD PUSH1 0x20 PUSH1 0x40 MLOAD DUP1 DUP4 SUB DUP2 DUP7 GAS STATICCALL ISZERO DUP1 ISZERO PUSH2 0x405 JUMPI RETURNDATASIZE PUSH1 0x0 DUP1 RETURNDATACOPY RETURNDATASIZE PUSH1 0x0 REVERT JUMPDEST POP POP POP POP PUSH1 0x40 MLOAD RETURNDATASIZE PUSH1 0x1F NOT PUSH1 0x1F DUP3 ADD AND DUP3 ADD DUP1 PUSH1 0x40 MSTORE POP DUP2 ADD SWAP1 PUSH2 0x429 SWAP2 SWAP1 PUSH2 0x1816 JUMP JUMPDEST SWAP1 POP PUSH2 0x436 DUP2 PUSH1 0x8 PUSH2 0xD38 JUMP JUMPDEST SWAP1 POP PUSH2 0x442 DUP3 DUP3 PUSH2 0x1845 JUMP JUMPDEST PUSH2 0x44C SWAP1 DUP8 PUSH2 0x185C JUMP JUMPDEST SWAP6 POP POP POP JUMPDEST POP DUP1 PUSH2 0x45C DUP2 PUSH2 0x186F JUMP JUMPDEST SWAP2 POP POP PUSH2 0x31A JUMP JUMPDEST POP SWAP1 SWAP3 SWAP2 POP POP JUMP JUMPDEST PUSH1 0x0 PUSH2 0x4E3 PUSH2 0x479 PUSH2 0x2FD JUMP JUMPDEST ADDRESS PUSH1 0x1 PUSH1 0x1 PUSH1 0xA0 SHL SUB AND PUSH4 0x18160DDD PUSH1 0x40 MLOAD DUP2 PUSH4 0xFFFFFFFF AND PUSH1 0xE0 SHL DUP2 MSTORE PUSH1 0x4 ADD PUSH1 0x20 PUSH1 0x40 MLOAD DUP1 DUP4 SUB DUP2 DUP7 GAS STATICCALL ISZERO DUP1 ISZERO PUSH2 0x4B7 JUMPI RETURNDATASIZE PUSH1 0x0 DUP1 RETURNDATACOPY RETURNDATASIZE PUSH1 0x0 REVERT JUMPDEST POP POP POP POP PUSH1 0x40 MLOAD RETURNDATASIZE PUSH1 0x1F NOT PUSH1 0x1F DUP3 ADD AND DUP3 ADD DUP1 PUSH1 0x40 MSTORE POP DUP2 ADD SWAP1 PUSH2 0x4DB SWAP2 SWAP1 PUSH2 0x1816 JUMP JUMPDEST DUP5 SWAP2 SWAP1 PUSH2 0xD86 JUMP JUMPDEST SWAP3 SWAP2 POP POP JUMP JUMPDEST PUSH1 0x0 PUSH2 0x4E3 DUP3 PUSH2 0x4F7 PUSH2 0xCFE JUMP JUMPDEST PUSH1 0x3 ADD SWAP1 PUSH2 0xD2C JUMP JUMPDEST PUSH1 0x0 PUSH2 0x4E3 DUP3 PUSH2 0x50E PUSH2 0xCFE JUMP JUMPDEST PUSH1 0x3 ADD SWAP1 PUSH2 0xDA5 JUMP JUMPDEST PUSH2 0x51F PUSH2 0xDC7 JUMP JUMPDEST PUSH2 0x534 DUP2 PUSH2 0x52B PUSH2 0xCFE JUMP JUMPDEST PUSH1 0x1 ADD SWAP1 PUSH2 0xE0F JUMP JUMPDEST POP PUSH1 0x40 MLOAD PUSH1 0x1 PUSH1 0x1 PUSH1 0xA0 SHL SUB DUP3 AND DUP2 MSTORE PUSH32 0xF6AEA4EBD15C89FF6A16B7819FB6968AD0A0CE7E0085EF4C87A85F8C0CD2E46A SWAP1 PUSH1 0x20 ADD JUMPDEST PUSH1 0x40 MLOAD DUP1 SWAP2 SUB SWAP1 LOG1 POP JUMP JUMPDEST PUSH1 0x0 ADDRESS PUSH1 0x1 PUSH1 0x1 PUSH1 0xA0 SHL SUB AND PUSH4 0x18160DDD PUSH1 0x40 MLOAD DUP2 PUSH4 0xFFFFFFFF AND PUSH1 0xE0 SHL DUP2 MSTORE PUSH1 0x4 ADD PUSH1 0x20 PUSH1 0x40 MLOAD DUP1 DUP4 SUB DUP2 DUP7 GAS STATICCALL ISZERO DUP1 ISZERO PUSH2 0x5B5 JUMPI RETURNDATASIZE PUSH1 0x0 DUP1 RETURNDATACOPY RETURNDATASIZE PUSH1 0x0 REVERT JUMPDEST POP POP POP POP PUSH1 0x40 MLOAD RETURNDATASIZE PUSH1 0x1F NOT PUSH1 0x1F DUP3 ADD AND DUP3 ADD DUP1 PUSH1 0x40 MSTORE POP DUP2 ADD SWAP1 PUSH2 0x5D9 SWAP2 SWAP1 PUSH2 0x1816 JUMP JUMPDEST PUSH2 0x5E1 PUSH2 0x2FD JUMP JUMPDEST PUSH2 0x5EB SWAP2 SWAP1 PUSH2 0x1888 JUMP JUMPDEST SWAP1 POP SWAP1 JUMP JUMPDEST PUSH1 0x60 PUSH2 0x5EB PUSH2 0x5FD PUSH2 0xCFE JUMP JUMPDEST PUSH1 0x1 ADD PUSH2 0xE24 JUMP JUMPDEST PUSH1 0x0 PUSH2 0x610 DUP3 PUSH2 0x46C JUMP JUMPDEST SWAP1 POP PUSH2 0x67D ADDRESS PUSH1 0x1 PUSH1 0x1 PUSH1 0xA0 SHL SUB AND PUSH4 0x8752B02F PUSH1 0x40 MLOAD DUP2 PUSH4 0xFFFFFFFF AND PUSH1 0xE0 SHL DUP2 MSTORE PUSH1 0x4 ADD PUSH1 0x20 PUSH1 0x40 MLOAD DUP1 DUP4 SUB DUP2 DUP7 GAS STATICCALL ISZERO DUP1 ISZERO PUSH2 0x653 JUMPI RETURNDATASIZE PUSH1 0x0 DUP1 RETURNDATACOPY RETURNDATASIZE PUSH1 0x0 REVERT JUMPDEST POP POP POP POP PUSH1 0x40 MLOAD RETURNDATASIZE PUSH1 0x1F NOT PUSH1 0x1F DUP3 ADD AND DUP3 ADD DUP1 PUSH1 0x40 MSTORE POP DUP2 ADD SWAP1 PUSH2 0x677 SWAP2 SWAP1 PUSH2 0x18AA JUMP JUMPDEST DUP4 PUSH2 0xE31 JUMP JUMPDEST PUSH1 0x0 PUSH2 0x687 PUSH2 0x2FD JUMP JUMPDEST PUSH2 0x693 DUP4 PUSH2 0x2710 PUSH2 0x1845 JUMP JUMPDEST PUSH2 0x69D SWAP2 SWAP1 PUSH2 0x1888 JUMP JUMPDEST SWAP1 POP PUSH1 0x0 PUSH2 0x6AC PUSH2 0x30D PUSH2 0xCFE JUMP JUMPDEST SWAP1 POP PUSH1 0x0 JUMPDEST DUP2 DUP2 LT ISZERO PUSH2 0x80F JUMPI PUSH1 0x0 PUSH2 0x6C7 DUP3 PUSH2 0x330 PUSH2 0xCFE JUMP JUMPDEST SWAP1 POP PUSH1 0x1 PUSH1 0x1 PUSH1 0xA0 SHL SUB DUP2 AND PUSH2 0x777 JUMPI PUSH1 0x0 PUSH2 0x6E3 PUSH1 0x0 PUSH2 0xAAF JUMP JUMPDEST SWAP1 POP PUSH1 0x0 DUP6 PUSH2 0x6F4 PUSH2 0x2710 DUP5 PUSH2 0x1888 JUMP JUMPDEST PUSH2 0x6FE SWAP2 SWAP1 PUSH2 0x1845 JUMP JUMPDEST SWAP1 POP ADDRESS PUSH1 0x1 PUSH1 0x1 PUSH1 0xA0 SHL SUB AND PUSH4 0x31B94450 CALLER PUSH1 0x40 MLOAD PUSH1 0x1 PUSH1 0x1 PUSH1 0xE0 SHL SUB NOT PUSH1 0xE0 DUP5 SWAP1 SHL AND DUP2 MSTORE PUSH1 0x1 PUSH1 0x1 PUSH1 0xA0 SHL SUB SWAP1 SWAP2 AND PUSH1 0x4 DUP3 ADD MSTORE PUSH1 0x24 DUP2 ADD DUP5 SWAP1 MSTORE PUSH1 0x44 ADD PUSH1 0x0 PUSH1 0x40 MLOAD DUP1 DUP4 SUB DUP2 PUSH1 0x0 DUP8 DUP1 EXTCODESIZE ISZERO DUP1 ISZERO PUSH2 0x758 JUMPI PUSH1 0x0 DUP1 REVERT JUMPDEST POP GAS CALL ISZERO DUP1 ISZERO PUSH2 0x76C JUMPI RETURNDATASIZE PUSH1 0x0 DUP1 RETURNDATACOPY RETURNDATASIZE PUSH1 0x0 REVERT JUMPDEST POP POP POP POP POP POP PUSH2 0x7FC JUMP JUMPDEST PUSH1 0x0 PUSH2 0x782 DUP3 PUSH2 0xAAF JUMP JUMPDEST SWAP1 POP PUSH1 0x0 DUP6 PUSH2 0x793 PUSH2 0x2710 DUP5 PUSH2 0x1888 JUMP JUMPDEST PUSH2 0x79D SWAP2 SWAP1 PUSH2 0x1845 JUMP JUMPDEST PUSH1 0x40 MLOAD PUSH4 0x1B223E27 PUSH1 0xE1 SHL DUP2 MSTORE SWAP1 SWAP2 POP ADDRESS SWAP1 PUSH4 0x36447C4E SWAP1 PUSH2 0x7C7 SWAP1 CALLER SWAP1 DUP8 SWAP1 DUP7 SWAP1 PUSH1 0x4 ADD PUSH2 0x18C7 JUMP JUMPDEST PUSH1 0x0 PUSH1 0x40 MLOAD DUP1 DUP4 SUB DUP2 PUSH1 0x0 DUP8 DUP1 EXTCODESIZE ISZERO DUP1 ISZERO PUSH2 0x7E1 JUMPI PUSH1 0x0 DUP1 REVERT JUMPDEST POP GAS CALL ISZERO DUP1 ISZERO PUSH2 0x7F5 JUMPI RETURNDATASIZE PUSH1 0x0 DUP1 RETURNDATACOPY RETURNDATASIZE PUSH1 0x0 REVERT JUMPDEST POP POP POP POP POP POP JUMPDEST POP DUP1 PUSH2 0x807 DUP2 PUSH2 0x186F JUMP JUMPDEST SWAP2 POP POP PUSH2 0x6B1 JUMP JUMPDEST POP POP POP POP POP JUMP JUMPDEST PUSH2 0x81E PUSH2 0xCFE JUMP JUMPDEST PUSH1 0x7 ADD SLOAD PUSH1 0xFF AND ISZERO PUSH2 0x84B JUMPI PUSH1 0x40 MLOAD PUSH3 0x461BCD PUSH1 0xE5 SHL DUP2 MSTORE PUSH1 0x4 ADD PUSH2 0x842 SWAP1 PUSH2 0x18EB JUMP JUMPDEST PUSH1 0x40 MLOAD DUP1 SWAP2 SUB SWAP1 REVERT JUMPDEST PUSH1 0x1 PUSH2 0x855 PUSH2 0xCFE JUMP JUMPDEST PUSH1 0x7 ADD DUP1 SLOAD PUSH1 0xFF NOT AND SWAP2 ISZERO ISZERO SWAP2 SWAP1 SWAP2 OR SWAP1 SSTORE PUSH2 0x86F PUSH2 0xDC7 JUMP JUMPDEST PUSH2 0x879 DUP3 DUP3 PUSH2 0xF27 JUMP JUMPDEST PUSH1 0x0 PUSH2 0x883 PUSH2 0xCFE JUMP JUMPDEST PUSH1 0x7 ADD DUP1 SLOAD PUSH1 0xFF NOT AND SWAP2 ISZERO ISZERO SWAP2 SWAP1 SWAP2 OR SWAP1 SSTORE POP POP JUMP JUMPDEST PUSH2 0x8A1 PUSH2 0xCFE JUMP JUMPDEST PUSH1 0x7 ADD SLOAD PUSH1 0xFF AND ISZERO PUSH2 0x8C5 JUMPI PUSH1 0x40 MLOAD PUSH3 0x461BCD PUSH1 0xE5 SHL DUP2 MSTORE PUSH1 0x4 ADD PUSH2 0x842 SWAP1 PUSH2 0x18EB JUMP JUMPDEST PUSH1 0x1 PUSH2 0x8CF PUSH2 0xCFE JUMP JUMPDEST PUSH1 0x7 ADD DUP1 SLOAD PUSH1 0xFF NOT AND SWAP2 ISZERO ISZERO SWAP2 SWAP1 SWAP2 OR SWAP1 SSTORE PUSH2 0x8E9 PUSH2 0xDC7 JUMP JUMPDEST PUSH2 0x8F4 DUP4 DUP4 DUP4 PUSH2 0x1017 JUMP JUMPDEST PUSH1 0x0 PUSH2 0x8FE PUSH2 0xCFE JUMP JUMPDEST PUSH1 0x7 ADD DUP1 SLOAD PUSH1 0xFF NOT AND SWAP2 ISZERO ISZERO SWAP2 SWAP1 SWAP2 OR SWAP1 SSTORE POP POP POP JUMP JUMPDEST PUSH1 0x0 DUP1 DUP4 PUSH1 0x1 PUSH1 0x1 PUSH1 0xA0 SHL SUB AND PUSH4 0x313CE567 PUSH1 0x40 MLOAD DUP2 PUSH4 0xFFFFFFFF AND PUSH1 0xE0 SHL DUP2 MSTORE PUSH1 0x4 ADD PUSH1 0x20 PUSH1 0x40 MLOAD DUP1 DUP4 SUB DUP2 DUP7 GAS STATICCALL ISZERO DUP1 ISZERO PUSH2 0x956 JUMPI RETURNDATASIZE PUSH1 0x0 DUP1 RETURNDATACOPY RETURNDATASIZE PUSH1 0x0 REVERT JUMPDEST POP POP POP POP PUSH1 0x40 MLOAD RETURNDATASIZE PUSH1 0x1F NOT PUSH1 0x1F DUP3 ADD AND DUP3 ADD DUP1 PUSH1 0x40 MSTORE POP DUP2 ADD SWAP1 PUSH2 0x97A SWAP2 SWAP1 PUSH2 0x1922 JUMP JUMPDEST SWAP1 POP PUSH2 0x986 DUP4 DUP3 PUSH2 0xD38 JUMP JUMPDEST SWAP3 POP PUSH2 0x991 DUP5 PUSH2 0xC0F JUMP JUMPDEST ISZERO PUSH2 0xAA5 JUMPI PUSH1 0x0 ADDRESS PUSH1 0x40 MLOAD PUSH4 0x3469C24B PUSH1 0xE2 SHL DUP2 MSTORE PUSH1 0x1 PUSH1 0x1 PUSH1 0xA0 SHL SUB DUP8 DUP2 AND PUSH1 0x4 DUP4 ADD MSTORE SWAP2 SWAP1 SWAP2 AND SWAP1 PUSH4 0xD1A7092C SWAP1 PUSH1 0x24 ADD PUSH1 0x20 PUSH1 0x40 MLOAD DUP1 DUP4 SUB DUP2 DUP7 GAS STATICCALL ISZERO DUP1 ISZERO PUSH2 0x9E1 JUMPI RETURNDATASIZE PUSH1 0x0 DUP1 RETURNDATACOPY RETURNDATASIZE PUSH1 0x0 REVERT JUMPDEST POP POP POP POP PUSH1 0x40 MLOAD RETURNDATASIZE PUSH1 0x1F NOT PUSH1 0x1F DUP3 ADD AND DUP3 ADD DUP1 PUSH1 0x40 MSTORE POP DUP2 ADD SWAP1 PUSH2 0xA05 SWAP2 SWAP1 PUSH2 0x1816 JUMP JUMPDEST SWAP1 POP PUSH2 0xA12 DUP2 PUSH1 0x8 PUSH2 0xD38 JUMP JUMPDEST SWAP1 POP PUSH1 0x0 PUSH2 0xA20 DUP6 DUP4 PUSH2 0x1845 JUMP JUMPDEST SWAP1 POP PUSH1 0x0 PUSH2 0xA99 PUSH2 0xA2F PUSH2 0x2FD JUMP JUMPDEST ADDRESS PUSH1 0x1 PUSH1 0x1 PUSH1 0xA0 SHL SUB AND PUSH4 0x18160DDD PUSH1 0x40 MLOAD DUP2 PUSH4 0xFFFFFFFF AND PUSH1 0xE0 SHL DUP2 MSTORE PUSH1 0x4 ADD PUSH1 0x20 PUSH1 0x40 MLOAD DUP1 DUP4 SUB DUP2 DUP7 GAS STATICCALL ISZERO DUP1 ISZERO PUSH2 0xA6D JUMPI RETURNDATASIZE PUSH1 0x0 DUP1 RETURNDATACOPY RETURNDATASIZE PUSH1 0x0 REVERT JUMPDEST POP POP POP POP PUSH1 0x40 MLOAD RETURNDATASIZE PUSH1 0x1F NOT PUSH1 0x1F DUP3 ADD AND DUP3 ADD DUP1 PUSH1 0x40 MSTORE POP DUP2 ADD SWAP1 PUSH2 0xA91 SWAP2 SWAP1 PUSH2 0x1816 JUMP JUMPDEST DUP5 SWAP2 SWAP1 PUSH2 0x121C JUMP JUMPDEST SWAP5 POP PUSH2 0x4E3 SWAP4 POP POP POP POP JUMP JUMPDEST POP PUSH1 0x0 SWAP4 SWAP3 POP POP POP JUMP JUMPDEST PUSH1 0x0 PUSH2 0xAB9 PUSH2 0xCFE JUMP JUMPDEST PUSH1 0x1 PUSH1 0x1 PUSH1 0xA0 SHL SUB SWAP1 SWAP3 AND PUSH1 0x0 SWAP1 DUP2 MSTORE PUSH1 0x20 SWAP3 SWAP1 SWAP3 MSTORE POP PUSH1 0x40 SWAP1 KECCAK256 SLOAD SWAP1 JUMP JUMPDEST PUSH1 0x60 PUSH2 0x5EB PUSH2 0xAE5 PUSH2 0xCFE JUMP JUMPDEST PUSH1 0x3 ADD PUSH2 0xE24 JUMP JUMPDEST PUSH2 0xAF5 PUSH2 0xCFE JUMP JUMPDEST PUSH1 0x7 ADD SLOAD PUSH1 0xFF AND ISZERO PUSH2 0xB19 JUMPI PUSH1 0x40 MLOAD PUSH3 0x461BCD PUSH1 0xE5 SHL DUP2 MSTORE PUSH1 0x4 ADD PUSH2 0x842 SWAP1 PUSH2 0x18EB JUMP JUMPDEST PUSH1 0x1 PUSH2 0xB23 PUSH2 0xCFE JUMP JUMPDEST PUSH1 0x7 ADD DUP1 SLOAD PUSH1 0xFF NOT AND SWAP2 ISZERO ISZERO SWAP2 SWAP1 SWAP2 OR SWAP1 SSTORE PUSH2 0xB3F DUP3 DUP3 PUSH2 0x1229 JUMP JUMPDEST ADDRESS PUSH4 0x4AC947F7 CALLER PUSH2 0xB50 DUP6 DUP6 PUSH2 0x915 JUMP JUMPDEST PUSH1 0x40 MLOAD PUSH1 0x1 PUSH1 0x1 PUSH1 0xE0 SHL SUB NOT PUSH1 0xE0 DUP6 SWAP1 SHL AND DUP2 MSTORE PUSH1 0x1 PUSH1 0x1 PUSH1 0xA0 SHL SUB SWAP1 SWAP3 AND PUSH1 0x4 DUP4 ADD MSTORE PUSH1 0x24 DUP3 ADD MSTORE PUSH1 0x44 ADD PUSH1 0x0 PUSH1 0x40 MLOAD DUP1 DUP4 SUB DUP2 PUSH1 0x0 DUP8 DUP1 EXTCODESIZE ISZERO DUP1 ISZERO PUSH2 0xB96 JUMPI PUSH1 0x0 DUP1 REVERT JUMPDEST POP GAS CALL ISZERO DUP1 ISZERO PUSH2 0xBAA JUMPI RETURNDATASIZE PUSH1 0x0 DUP1 RETURNDATACOPY RETURNDATASIZE PUSH1 0x0 REVERT JUMPDEST POP POP POP POP PUSH1 0x0 PUSH2 0x883 PUSH2 0xCFE JUMP JUMPDEST PUSH2 0xBC0 PUSH2 0xDC7 JUMP JUMPDEST PUSH2 0xBD5 DUP2 PUSH2 0xBCC PUSH2 0xCFE JUMP JUMPDEST PUSH1 0x3 ADD SWAP1 PUSH2 0xE0F JUMP JUMPDEST POP PUSH1 0x40 MLOAD PUSH1 0x1 PUSH1 0x1 PUSH1 0xA0 SHL SUB DUP3 AND DUP2 MSTORE PUSH32 0xB91009ACFF1CA23A9FE12400608CAE8383F810CAC953C1A16A99FE9B9C65ABFB SWAP1 PUSH1 0x20 ADD PUSH2 0x56A JUMP JUMPDEST PUSH1 0x0 PUSH2 0x4E3 DUP3 PUSH2 0xC1D PUSH2 0xCFE JUMP JUMPDEST PUSH1 0x1 ADD SWAP1 PUSH2 0xDA5 JUMP JUMPDEST PUSH2 0xC2E PUSH2 0xDC7 JUMP JUMPDEST PUSH2 0xC43 DUP2 PUSH2 0xC3A PUSH2 0xCFE JUMP JUMPDEST PUSH1 0x3 ADD SWAP1 PUSH2 0x13AA JUMP JUMPDEST POP PUSH1 0x40 MLOAD PUSH1 0x1 PUSH1 0x1 PUSH1 0xA0 SHL SUB DUP3 AND DUP2 MSTORE PUSH32 0x64F9AE8A27A020B54F63A0D9FF5D3F0DD302B35EEF11D16612B2A02B2D8A8248 SWAP1 PUSH1 0x20 ADD PUSH2 0x56A JUMP JUMPDEST PUSH1 0x0 PUSH2 0xC89 DUP4 DUP4 PUSH2 0x915 JUMP JUMPDEST SWAP4 SWAP3 POP POP POP JUMP JUMPDEST PUSH1 0x0 PUSH2 0x4E3 DUP3 PUSH2 0xC9E PUSH2 0xCFE JUMP JUMPDEST PUSH1 0x1 ADD SWAP1 PUSH2 0xD2C JUMP JUMPDEST PUSH2 0xCAF PUSH2 0xDC7 JUMP JUMPDEST PUSH2 0xCC4 DUP2 PUSH2 0xCBB PUSH2 0xCFE JUMP JUMPDEST PUSH1 0x1 ADD SWAP1 PUSH2 0x13AA JUMP JUMPDEST POP PUSH1 0x40 MLOAD PUSH1 0x1 PUSH1 0x1 PUSH1 0xA0 SHL SUB DUP3 AND DUP2 MSTORE PUSH32 0xA05ED313E53D05B8E9EBE468E240EC174F5190074867A051F35AC20709EED04 SWAP1 PUSH1 0x20 ADD PUSH2 0x56A JUMP JUMPDEST PUSH32 0xF2EEEC4C06050035800631F1916B3A25E1FA154DE963EC50F0AC015A5BE9E618 SWAP1 JUMP JUMPDEST PUSH1 0x0 PUSH2 0x4E3 DUP3 SLOAD SWAP1 JUMP JUMPDEST PUSH1 0x0 PUSH2 0xC89 DUP4 DUP4 PUSH2 0x13BF JUMP JUMPDEST PUSH1 0x0 PUSH8 0xDE0B6B3A7640000 PUSH2 0xD4E DUP4 PUSH1 0xA PUSH2 0x1A29 JUMP JUMPDEST PUSH2 0xD60 DUP6 PUSH8 0xDE0B6B3A7640000 PUSH2 0x1845 JUMP JUMPDEST PUSH2 0xD6A SWAP2 SWAP1 PUSH2 0x1888 JUMP JUMPDEST PUSH2 0xD7C SWAP1 PUSH8 0xDE0B6B3A7640000 PUSH2 0x1845 JUMP JUMPDEST PUSH2 0xC89 SWAP2 SWAP1 PUSH2 0x1888 JUMP JUMPDEST PUSH1 0x0 DUP2 PUSH2 0xD93 DUP5 DUP7 PUSH2 0x1845 JUMP JUMPDEST PUSH2 0xD9D SWAP2 SWAP1 PUSH2 0x1888 JUMP JUMPDEST SWAP5 SWAP4 POP POP POP POP JUMP JUMPDEST PUSH1 0x1 PUSH1 0x1 PUSH1 0xA0 SHL SUB DUP2 AND PUSH1 0x0 SWAP1 DUP2 MSTORE PUSH1 0x1 DUP4 ADD PUSH1 0x20 MSTORE PUSH1 0x40 DUP2 KECCAK256 SLOAD ISZERO ISZERO PUSH2 0xC89 JUMP JUMPDEST CALLER ADDRESS EQ PUSH2 0xE0D JUMPI PUSH1 0x40 MLOAD PUSH3 0x461BCD PUSH1 0xE5 SHL DUP2 MSTORE PUSH1 0x20 PUSH1 0x4 DUP3 ADD MSTORE PUSH1 0x14 PUSH1 0x24 DUP3 ADD MSTORE PUSH20 0x2330B1B2BA29B0B3329D1037B7363C9039B2B633 PUSH1 0x61 SHL PUSH1 0x44 DUP3 ADD MSTORE PUSH1 0x64 ADD PUSH2 0x842 JUMP JUMPDEST JUMP JUMPDEST PUSH1 0x0 PUSH2 0xC89 DUP4 PUSH1 0x1 PUSH1 0x1 PUSH1 0xA0 SHL SUB DUP5 AND PUSH2 0x13E9 JUMP JUMPDEST PUSH1 0x60 PUSH1 0x0 PUSH2 0xC89 DUP4 PUSH2 0x1438 JUMP JUMPDEST PUSH2 0xE9D DUP3 PUSH1 0x1 PUSH1 0x1 PUSH1 0xA0 SHL SUB AND PUSH4 0x313CE567 PUSH1 0x40 MLOAD DUP2 PUSH4 0xFFFFFFFF AND PUSH1 0xE0 SHL DUP2 MSTORE PUSH1 0x4 ADD PUSH1 0x20 PUSH1 0x40 MLOAD DUP1 DUP4 SUB DUP2 DUP7 GAS STATICCALL ISZERO DUP1 ISZERO PUSH2 0xE72 JUMPI RETURNDATASIZE PUSH1 0x0 DUP1 RETURNDATACOPY RETURNDATASIZE PUSH1 0x0 REVERT JUMPDEST POP POP POP POP PUSH1 0x40 MLOAD RETURNDATASIZE PUSH1 0x1F NOT PUSH1 0x1F DUP3 ADD AND DUP3 ADD DUP1 PUSH1 0x40 MSTORE POP DUP2 ADD SWAP1 PUSH2 0xE96 SWAP2 SWAP1 PUSH2 0x1922 JUMP JUMPDEST DUP3 SWAP1 PUSH2 0x1494 JUMP JUMPDEST SWAP1 POP DUP1 PUSH1 0x1 PUSH1 0x1 PUSH1 0xA0 SHL SUB DUP4 AND PUSH4 0x70A08231 CALLER PUSH1 0x40 MLOAD PUSH1 0x1 PUSH1 0x1 PUSH1 0xE0 SHL SUB NOT PUSH1 0xE0 DUP5 SWAP1 SHL AND DUP2 MSTORE PUSH1 0x1 PUSH1 0x1 PUSH1 0xA0 SHL SUB SWAP1 SWAP2 AND PUSH1 0x4 DUP3 ADD MSTORE PUSH1 0x24 ADD PUSH1 0x20 PUSH1 0x40 MLOAD DUP1 DUP4 SUB DUP2 DUP7 GAS STATICCALL ISZERO DUP1 ISZERO PUSH2 0xEF4 JUMPI RETURNDATASIZE PUSH1 0x0 DUP1 RETURNDATACOPY RETURNDATASIZE PUSH1 0x0 REVERT JUMPDEST POP POP POP POP PUSH1 0x40 MLOAD RETURNDATASIZE PUSH1 0x1F NOT PUSH1 0x1F DUP3 ADD AND DUP3 ADD DUP1 PUSH1 0x40 MSTORE POP DUP2 ADD SWAP1 PUSH2 0xF18 SWAP2 SWAP1 PUSH2 0x1816 JUMP JUMPDEST LT ISZERO PUSH2 0xF23 JUMPI PUSH1 0x0 DUP1 REVERT JUMPDEST POP POP JUMP JUMPDEST PUSH2 0xF31 PUSH1 0x0 PUSH2 0x14D1 JUMP JUMPDEST PUSH2 0xF3C PUSH1 0x0 DUP3 PUSH2 0x1535 JUMP JUMPDEST DUP1 PUSH2 0xF45 PUSH2 0xCFE JUMP JUMPDEST PUSH1 0x0 DUP1 DUP1 MSTORE PUSH1 0x20 SWAP2 SWAP1 SWAP2 MSTORE PUSH1 0x40 DUP2 KECCAK256 DUP1 SLOAD SWAP1 SWAP2 SWAP1 PUSH2 0xF64 SWAP1 DUP5 SWAP1 PUSH2 0x1A38 JUMP JUMPDEST SWAP1 SWAP2 SSTORE POP PUSH2 0xF72 SWAP1 POP PUSH2 0xCFE JUMP JUMPDEST PUSH1 0x0 DUP1 DUP1 MSTORE PUSH1 0x20 SWAP2 SWAP1 SWAP2 MSTORE PUSH1 0x40 DUP2 KECCAK256 SLOAD SWAP1 SUB PUSH2 0xFA0 JUMPI PUSH2 0xF9E PUSH1 0x0 PUSH2 0xF95 PUSH2 0xCFE JUMP JUMPDEST PUSH1 0x5 ADD SWAP1 PUSH2 0x13AA JUMP JUMPDEST POP JUMPDEST PUSH1 0x40 MLOAD PUSH1 0x1 PUSH1 0x1 PUSH1 0xA0 SHL SUB DUP4 AND SWAP1 DUP3 ISZERO PUSH2 0x8FC MUL SWAP1 DUP4 SWAP1 PUSH1 0x0 DUP2 DUP2 DUP2 DUP6 DUP9 DUP9 CALL SWAP4 POP POP POP POP ISZERO DUP1 ISZERO PUSH2 0xFD6 JUMPI RETURNDATASIZE PUSH1 0x0 DUP1 RETURNDATACOPY RETURNDATASIZE PUSH1 0x0 REVERT JUMPDEST POP PUSH32 0x9B1BFA7FA9EE420A16E124F794C35AC9F90472ACC99140EB2F6447C714CAD8EB DUP3 PUSH1 0x0 DUP4 PUSH1 0x40 MLOAD PUSH2 0x100B SWAP4 SWAP3 SWAP2 SWAP1 PUSH2 0x18C7 JUMP JUMPDEST PUSH1 0x40 MLOAD DUP1 SWAP2 SUB SWAP1 LOG1 POP POP JUMP JUMPDEST DUP2 PUSH1 0x1 PUSH1 0x1 PUSH1 0xA0 SHL SUB DUP2 AND PUSH2 0x106E JUMPI PUSH1 0x40 MLOAD PUSH3 0x461BCD PUSH1 0xE5 SHL DUP2 MSTORE PUSH1 0x20 PUSH1 0x4 DUP3 ADD MSTORE PUSH1 0x1E PUSH1 0x24 DUP3 ADD MSTORE PUSH32 0x4661636574536166653A20696E6170726F707269617465206D6574686F640000 PUSH1 0x44 DUP3 ADD MSTORE PUSH1 0x64 ADD PUSH2 0x842 JUMP JUMPDEST PUSH2 0x1077 DUP4 PUSH2 0x14D1 JUMP JUMPDEST PUSH2 0x1081 DUP4 DUP4 PUSH2 0x1535 JUMP JUMPDEST DUP2 PUSH2 0x108A PUSH2 0xCFE JUMP JUMPDEST PUSH1 0x1 PUSH1 0x1 PUSH1 0xA0 SHL SUB DUP6 AND PUSH1 0x0 SWAP1 DUP2 MSTORE PUSH1 0x20 SWAP2 SWAP1 SWAP2 MSTORE PUSH1 0x40 DUP2 KECCAK256 DUP1 SLOAD SWAP1 SWAP2 SWAP1 PUSH2 0x10B3 SWAP1 DUP5 SWAP1 PUSH2 0x1A38 JUMP JUMPDEST SWAP1 SWAP2 SSTORE POP PUSH2 0x10C1 SWAP1 POP PUSH2 0xCFE JUMP JUMPDEST PUSH1 0x1 PUSH1 0x1 PUSH1 0xA0 SHL SUB DUP5 AND PUSH1 0x0 SWAP1 DUP2 MSTORE PUSH1 0x20 SWAP2 SWAP1 SWAP2 MSTORE PUSH1 0x40 DUP2 KECCAK256 SLOAD SWAP1 SUB PUSH2 0x10EF JUMPI PUSH2 0x10ED DUP4 PUSH2 0xF95 PUSH2 0xCFE JUMP JUMPDEST POP JUMPDEST DUP1 PUSH1 0x1 PUSH1 0x1 PUSH1 0xA0 SHL SUB AND PUSH4 0xA9059CBB DUP6 PUSH2 0x116B DUP5 PUSH1 0x1 PUSH1 0x1 PUSH1 0xA0 SHL SUB AND PUSH4 0x313CE567 PUSH1 0x40 MLOAD DUP2 PUSH4 0xFFFFFFFF AND PUSH1 0xE0 SHL DUP2 MSTORE PUSH1 0x4 ADD PUSH1 0x20 PUSH1 0x40 MLOAD DUP1 DUP4 SUB DUP2 DUP7 GAS STATICCALL ISZERO DUP1 ISZERO PUSH2 0x1140 JUMPI RETURNDATASIZE PUSH1 0x0 DUP1 RETURNDATACOPY RETURNDATASIZE PUSH1 0x0 REVERT JUMPDEST POP POP POP POP PUSH1 0x40 MLOAD RETURNDATASIZE PUSH1 0x1F NOT PUSH1 0x1F DUP3 ADD AND DUP3 ADD DUP1 PUSH1 0x40 MSTORE POP DUP2 ADD SWAP1 PUSH2 0x1164 SWAP2 SWAP1 PUSH2 0x1922 JUMP JUMPDEST DUP7 SWAP1 PUSH2 0x1494 JUMP JUMPDEST PUSH1 0x40 MLOAD PUSH1 0x1 PUSH1 0x1 PUSH1 0xE0 SHL SUB NOT PUSH1 0xE0 DUP6 SWAP1 SHL AND DUP2 MSTORE PUSH1 0x1 PUSH1 0x1 PUSH1 0xA0 SHL SUB SWAP1 SWAP3 AND PUSH1 0x4 DUP4 ADD MSTORE PUSH1 0x24 DUP3 ADD MSTORE PUSH1 0x44 ADD PUSH1 0x20 PUSH1 0x40 MLOAD DUP1 DUP4 SUB DUP2 PUSH1 0x0 DUP8 GAS CALL ISZERO DUP1 ISZERO PUSH2 0x11B6 JUMPI RETURNDATASIZE PUSH1 0x0 DUP1 RETURNDATACOPY RETURNDATASIZE PUSH1 0x0 REVERT JUMPDEST POP POP POP POP PUSH1 0x40 MLOAD RETURNDATASIZE PUSH1 0x1F NOT PUSH1 0x1F DUP3 ADD AND DUP3 ADD DUP1 PUSH1 0x40 MSTORE POP DUP2 ADD SWAP1 PUSH2 0x11DA SWAP2 SWAP1 PUSH2 0x17F4 JUMP JUMPDEST POP PUSH32 0x9B1BFA7FA9EE420A16E124F794C35AC9F90472ACC99140EB2F6447C714CAD8EB DUP5 DUP5 DUP5 PUSH1 0x40 MLOAD PUSH2 0x120E SWAP4 SWAP3 SWAP2 SWAP1 PUSH2 0x18C7 JUMP JUMPDEST PUSH1 0x40 MLOAD DUP1 SWAP2 SUB SWAP1 LOG1 POP POP POP POP JUMP JUMPDEST PUSH1 0x0 DUP3 PUSH2 0xD93 DUP4 DUP7 PUSH2 0x1845 JUMP JUMPDEST DUP2 PUSH2 0x1233 DUP2 PUSH2 0x15A6 JUMP JUMPDEST PUSH2 0x123D DUP4 DUP4 PUSH2 0xE31 JUMP JUMPDEST PUSH1 0x1 PUSH1 0x1 PUSH1 0xA0 SHL SUB DUP2 AND PUSH4 0x23B872DD CALLER ADDRESS PUSH2 0x12BA DUP8 PUSH1 0x1 PUSH1 0x1 PUSH1 0xA0 SHL SUB AND PUSH4 0x313CE567 PUSH1 0x40 MLOAD DUP2 PUSH4 0xFFFFFFFF AND PUSH1 0xE0 SHL DUP2 MSTORE PUSH1 0x4 ADD PUSH1 0x20 PUSH1 0x40 MLOAD DUP1 DUP4 SUB DUP2 DUP7 GAS STATICCALL ISZERO DUP1 ISZERO PUSH2 0x128F JUMPI RETURNDATASIZE PUSH1 0x0 DUP1 RETURNDATACOPY RETURNDATASIZE PUSH1 0x0 REVERT JUMPDEST POP POP POP POP PUSH1 0x40 MLOAD RETURNDATASIZE PUSH1 0x1F NOT PUSH1 0x1F DUP3 ADD AND DUP3 ADD DUP1 PUSH1 0x40 MSTORE POP DUP2 ADD SWAP1 PUSH2 0x12B3 SWAP2 SWAP1 PUSH2 0x1922 JUMP JUMPDEST DUP8 SWAP1 PUSH2 0x1494 JUMP JUMPDEST PUSH1 0x40 MLOAD DUP5 PUSH4 0xFFFFFFFF AND PUSH1 0xE0 SHL DUP2 MSTORE PUSH1 0x4 ADD PUSH2 0x12D8 SWAP4 SWAP3 SWAP2 SWAP1 PUSH2 0x18C7 JUMP JUMPDEST PUSH1 0x20 PUSH1 0x40 MLOAD DUP1 DUP4 SUB DUP2 PUSH1 0x0 DUP8 GAS CALL ISZERO DUP1 ISZERO PUSH2 0x12F7 JUMPI RETURNDATASIZE PUSH1 0x0 DUP1 RETURNDATACOPY RETURNDATASIZE PUSH1 0x0 REVERT JUMPDEST POP POP POP POP PUSH1 0x40 MLOAD RETURNDATASIZE PUSH1 0x1F NOT PUSH1 0x1F DUP3 ADD AND DUP3 ADD DUP1 PUSH1 0x40 MSTORE POP DUP2 ADD SWAP1 PUSH2 0x131B SWAP2 SWAP1 PUSH2 0x17F4 JUMP JUMPDEST POP DUP2 PUSH2 0x1325 PUSH2 0xCFE JUMP JUMPDEST PUSH1 0x1 PUSH1 0x1 PUSH1 0xA0 SHL SUB DUP6 AND PUSH1 0x0 SWAP1 DUP2 MSTORE PUSH1 0x20 SWAP2 SWAP1 SWAP2 MSTORE PUSH1 0x40 DUP2 KECCAK256 DUP1 SLOAD SWAP1 SWAP2 SWAP1 PUSH2 0x134E SWAP1 DUP5 SWAP1 PUSH2 0x185C JUMP JUMPDEST SWAP1 SWAP2 SSTORE POP PUSH2 0x1369 SWAP1 POP DUP4 PUSH2 0x1360 PUSH2 0xCFE JUMP JUMPDEST PUSH1 0x5 ADD SWAP1 PUSH2 0xE0F JUMP JUMPDEST POP PUSH32 0x5548C837AB068CF56A2C2479DF0882A4922FD203EDB7517321831D95078C5F62 CALLER DUP5 DUP5 PUSH1 0x40 MLOAD PUSH2 0x139D SWAP4 SWAP3 SWAP2 SWAP1 PUSH2 0x18C7 JUMP JUMPDEST PUSH1 0x40 MLOAD DUP1 SWAP2 SUB SWAP1 LOG1 POP POP POP JUMP JUMPDEST PUSH1 0x0 PUSH2 0xC89 DUP4 PUSH1 0x1 PUSH1 0x1 PUSH1 0xA0 SHL SUB DUP5 AND PUSH2 0x1606 JUMP JUMPDEST PUSH1 0x0 DUP3 PUSH1 0x0 ADD DUP3 DUP2 SLOAD DUP2 LT PUSH2 0x13D6 JUMPI PUSH2 0x13D6 PUSH2 0x1A4B JUMP JUMPDEST SWAP1 PUSH1 0x0 MSTORE PUSH1 0x20 PUSH1 0x0 KECCAK256 ADD SLOAD SWAP1 POP SWAP3 SWAP2 POP POP JUMP JUMPDEST PUSH1 0x0 DUP2 DUP2 MSTORE PUSH1 0x1 DUP4 ADD PUSH1 0x20 MSTORE PUSH1 0x40 DUP2 KECCAK256 SLOAD PUSH2 0x1430 JUMPI POP DUP2 SLOAD PUSH1 0x1 DUP2 DUP2 ADD DUP5 SSTORE PUSH1 0x0 DUP5 DUP2 MSTORE PUSH1 0x20 DUP1 DUP3 KECCAK256 SWAP1 SWAP4 ADD DUP5 SWAP1 SSTORE DUP5 SLOAD DUP5 DUP3 MSTORE DUP3 DUP7 ADD SWAP1 SWAP4 MSTORE PUSH1 0x40 SWAP1 KECCAK256 SWAP2 SWAP1 SWAP2 SSTORE PUSH2 0x4E3 JUMP JUMPDEST POP PUSH1 0x0 PUSH2 0x4E3 JUMP JUMPDEST PUSH1 0x60 DUP2 PUSH1 0x0 ADD DUP1 SLOAD DUP1 PUSH1 0x20 MUL PUSH1 0x20 ADD PUSH1 0x40 MLOAD SWAP1 DUP2 ADD PUSH1 0x40 MSTORE DUP1 SWAP3 SWAP2 SWAP1 DUP2 DUP2 MSTORE PUSH1 0x20 ADD DUP3 DUP1 SLOAD DUP1 ISZERO PUSH2 0x1488 JUMPI PUSH1 0x20 MUL DUP3 ADD SWAP2 SWAP1 PUSH1 0x0 MSTORE PUSH1 0x20 PUSH1 0x0 KECCAK256 SWAP1 JUMPDEST DUP2 SLOAD DUP2 MSTORE PUSH1 0x20 ADD SWAP1 PUSH1 0x1 ADD SWAP1 DUP1 DUP4 GT PUSH2 0x1474 JUMPI JUMPDEST POP POP POP POP POP SWAP1 POP SWAP2 SWAP1 POP JUMP JUMPDEST PUSH1 0x0 PUSH8 0xDE0B6B3A7640000 PUSH2 0x14AA DUP4 PUSH1 0xA PUSH2 0x1A29 JUMP JUMPDEST PUSH8 0xDE0B6B3A7640000 PUSH2 0x14BD DUP7 DUP3 PUSH2 0x1845 JUMP JUMPDEST PUSH2 0x14C7 SWAP2 SWAP1 PUSH2 0x1888 JUMP JUMPDEST PUSH2 0xD7C SWAP2 SWAP1 PUSH2 0x1845 JUMP JUMPDEST PUSH2 0x14DA DUP2 PUSH2 0x500 JUMP JUMPDEST PUSH2 0x1532 JUMPI PUSH1 0x40 MLOAD PUSH3 0x461BCD PUSH1 0xE5 SHL DUP2 MSTORE PUSH1 0x20 PUSH1 0x4 DUP3 ADD MSTORE PUSH1 0x23 PUSH1 0x24 DUP3 ADD MSTORE PUSH32 0x4661636574536166653A20746F6B656E206973206E6F7420616C6C6F77656420 PUSH1 0x44 DUP3 ADD MSTORE PUSH3 0x1BDD5D PUSH1 0xEA SHL PUSH1 0x64 DUP3 ADD MSTORE PUSH1 0x84 ADD PUSH2 0x842 JUMP JUMPDEST POP JUMP JUMPDEST DUP1 PUSH2 0x153E PUSH2 0xCFE JUMP JUMPDEST PUSH1 0x1 PUSH1 0x1 PUSH1 0xA0 SHL SUB DUP5 AND PUSH1 0x0 SWAP1 DUP2 MSTORE PUSH1 0x20 SWAP2 SWAP1 SWAP2 MSTORE PUSH1 0x40 SWAP1 KECCAK256 SLOAD LT ISZERO PUSH2 0xF23 JUMPI PUSH1 0x40 MLOAD PUSH3 0x461BCD PUSH1 0xE5 SHL DUP2 MSTORE PUSH1 0x20 PUSH1 0x4 DUP3 ADD MSTORE PUSH1 0x1F PUSH1 0x24 DUP3 ADD MSTORE PUSH32 0x4661636574536166653A20696E73756666696369656E742062616C616E636500 PUSH1 0x44 DUP3 ADD MSTORE PUSH1 0x64 ADD PUSH2 0x842 JUMP JUMPDEST PUSH2 0x15AF DUP2 PUSH2 0xC0F JUMP JUMPDEST PUSH2 0x1532 JUMPI PUSH1 0x40 MLOAD PUSH3 0x461BCD PUSH1 0xE5 SHL DUP2 MSTORE PUSH1 0x20 PUSH1 0x4 DUP3 ADD MSTORE PUSH1 0x22 PUSH1 0x24 DUP3 ADD MSTORE PUSH32 0x4661636574536166653A20746F6B656E206973206E6F7420616C6C6F77656420 PUSH1 0x44 DUP3 ADD MSTORE PUSH2 0x34B7 PUSH1 0xF1 SHL PUSH1 0x64 DUP3 ADD MSTORE PUSH1 0x84 ADD PUSH2 0x842 JUMP JUMPDEST PUSH1 0x0 DUP2 DUP2 MSTORE PUSH1 0x1 DUP4 ADD PUSH1 0x20 MSTORE PUSH1 0x40 DUP2 KECCAK256 SLOAD DUP1 ISZERO PUSH2 0xAA5 JUMPI PUSH1 0x0 PUSH2 0x162A PUSH1 0x1 DUP4 PUSH2 0x1A38 JUMP JUMPDEST DUP6 SLOAD SWAP1 SWAP2 POP PUSH1 0x0 SWAP1 PUSH2 0x163E SWAP1 PUSH1 0x1 SWAP1 PUSH2 0x1A38 JUMP JUMPDEST SWAP1 POP DUP2 DUP2 EQ PUSH2 0x16A3 JUMPI PUSH1 0x0 DUP7 PUSH1 0x0 ADD DUP3 DUP2 SLOAD DUP2 LT PUSH2 0x165E JUMPI PUSH2 0x165E PUSH2 0x1A4B JUMP JUMPDEST SWAP1 PUSH1 0x0 MSTORE PUSH1 0x20 PUSH1 0x0 KECCAK256 ADD SLOAD SWAP1 POP DUP1 DUP8 PUSH1 0x0 ADD DUP5 DUP2 SLOAD DUP2 LT PUSH2 0x1681 JUMPI PUSH2 0x1681 PUSH2 0x1A4B JUMP JUMPDEST PUSH1 0x0 SWAP2 DUP3 MSTORE PUSH1 0x20 DUP1 DUP4 KECCAK256 SWAP1 SWAP2 ADD SWAP3 SWAP1 SWAP3 SSTORE SWAP2 DUP3 MSTORE PUSH1 0x1 DUP9 ADD SWAP1 MSTORE PUSH1 0x40 SWAP1 KECCAK256 DUP4 SWAP1 SSTORE JUMPDEST DUP6 SLOAD DUP7 SWAP1 DUP1 PUSH2 0x16B4 JUMPI PUSH2 0x16B4 PUSH2 0x1A61 JUMP JUMPDEST PUSH1 0x1 SWAP1 SUB DUP2 DUP2 SWAP1 PUSH1 0x0 MSTORE PUSH1 0x20 PUSH1 0x0 KECCAK256 ADD PUSH1 0x0 SWAP1 SSTORE SWAP1 SSTORE DUP6 PUSH1 0x1 ADD PUSH1 0x0 DUP7 DUP2 MSTORE PUSH1 0x20 ADD SWAP1 DUP2 MSTORE PUSH1 0x20 ADD PUSH1 0x0 KECCAK256 PUSH1 0x0 SWAP1 SSTORE PUSH1 0x1 SWAP4 POP POP POP POP PUSH2 0x4E3 JUMP JUMPDEST PUSH1 0x0 PUSH1 0x20 DUP3 DUP5 SUB SLT ISZERO PUSH2 0x1701 JUMPI PUSH1 0x0 DUP1 REVERT JUMPDEST POP CALLDATALOAD SWAP2 SWAP1 POP JUMP JUMPDEST PUSH1 0x1 PUSH1 0x1 PUSH1 0xA0 SHL SUB DUP2 AND DUP2 EQ PUSH2 0x1532 JUMPI PUSH1 0x0 DUP1 REVERT JUMPDEST PUSH1 0x0 PUSH1 0x20 DUP3 DUP5 SUB SLT ISZERO PUSH2 0x172F JUMPI PUSH1 0x0 DUP1 REVERT JUMPDEST DUP2 CALLDATALOAD PUSH2 0xC89 DUP2 PUSH2 0x1708 JUMP JUMPDEST PUSH1 0x20 DUP1 DUP3 MSTORE DUP3 MLOAD DUP3 DUP3 ADD DUP2 SWAP1 MSTORE PUSH1 0x0 SWAP2 SWAP1 DUP5 DUP3 ADD SWAP1 PUSH1 0x40 DUP6 ADD SWAP1 DUP5 JUMPDEST DUP2 DUP2 LT ISZERO PUSH2 0x177B JUMPI DUP4 MLOAD PUSH1 0x1 PUSH1 0x1 PUSH1 0xA0 SHL SUB AND DUP4 MSTORE SWAP3 DUP5 ADD SWAP3 SWAP2 DUP5 ADD SWAP2 PUSH1 0x1 ADD PUSH2 0x1756 JUMP JUMPDEST POP SWAP1 SWAP7 SWAP6 POP POP POP POP POP POP JUMP JUMPDEST PUSH1 0x0 DUP1 PUSH1 0x40 DUP4 DUP6 SUB SLT ISZERO PUSH2 0x179A JUMPI PUSH1 0x0 DUP1 REVERT JUMPDEST DUP3 CALLDATALOAD PUSH2 0x17A5 DUP2 PUSH2 0x1708 JUMP JUMPDEST SWAP5 PUSH1 0x20 SWAP4 SWAP1 SWAP4 ADD CALLDATALOAD SWAP4 POP POP POP JUMP JUMPDEST PUSH1 0x0 DUP1 PUSH1 0x0 PUSH1 0x60 DUP5 DUP7 SUB SLT ISZERO PUSH2 0x17C8 JUMPI PUSH1 0x0 DUP1 REVERT JUMPDEST DUP4 CALLDATALOAD PUSH2 0x17D3 DUP2 PUSH2 0x1708 JUMP JUMPDEST SWAP3 POP PUSH1 0x20 DUP5 ADD CALLDATALOAD PUSH2 0x17E3 DUP2 PUSH2 0x1708 JUMP JUMPDEST SWAP3 SWAP6 SWAP3 SWAP5 POP POP POP PUSH1 0x40 SWAP2 SWAP1 SWAP2 ADD CALLDATALOAD SWAP1 JUMP JUMPDEST PUSH1 0x0 PUSH1 0x20 DUP3 DUP5 SUB SLT ISZERO PUSH2 0x1806 JUMPI PUSH1 0x0 DUP1 REVERT JUMPDEST DUP2 MLOAD DUP1 ISZERO ISZERO DUP2 EQ PUSH2 0xC89 JUMPI PUSH1 0x0 DUP1 REVERT JUMPDEST PUSH1 0x0 PUSH1 0x20 DUP3 DUP5 SUB SLT ISZERO PUSH2 0x1828 JUMPI PUSH1 0x0 DUP1 REVERT JUMPDEST POP MLOAD SWAP2 SWAP1 POP JUMP JUMPDEST PUSH4 0x4E487B71 PUSH1 0xE0 SHL PUSH1 0x0 MSTORE PUSH1 0x11 PUSH1 0x4 MSTORE PUSH1 0x24 PUSH1 0x0 REVERT JUMPDEST DUP1 DUP3 MUL DUP2 ISZERO DUP3 DUP3 DIV DUP5 EQ OR PUSH2 0x4E3 JUMPI PUSH2 0x4E3 PUSH2 0x182F JUMP JUMPDEST DUP1 DUP3 ADD DUP1 DUP3 GT ISZERO PUSH2 0x4E3 JUMPI PUSH2 0x4E3 PUSH2 0x182F JUMP JUMPDEST PUSH1 0x0 PUSH1 0x1 DUP3 ADD PUSH2 0x1881 JUMPI PUSH2 0x1881 PUSH2 0x182F JUMP JUMPDEST POP PUSH1 0x1 ADD SWAP1 JUMP JUMPDEST PUSH1 0x0 DUP3 PUSH2 0x18A5 JUMPI PUSH4 0x4E487B71 PUSH1 0xE0 SHL PUSH1 0x0 MSTORE PUSH1 0x12 PUSH1 0x4 MSTORE PUSH1 0x24 PUSH1 0x0 REVERT JUMPDEST POP DIV SWAP1 JUMP JUMPDEST PUSH1 0x0 PUSH1 0x20 DUP3 DUP5 SUB SLT ISZERO PUSH2 0x18BC JUMPI PUSH1 0x0 DUP1 REVERT JUMPDEST DUP2 MLOAD PUSH2 0xC89 DUP2 PUSH2 0x1708 JUMP JUMPDEST PUSH1 0x1 PUSH1 0x1 PUSH1 0xA0 SHL SUB SWAP4 DUP5 AND DUP2 MSTORE SWAP2 SWAP1 SWAP3 AND PUSH1 0x20 DUP3 ADD MSTORE PUSH1 0x40 DUP2 ADD SWAP2 SWAP1 SWAP2 MSTORE PUSH1 0x60 ADD SWAP1 JUMP JUMPDEST PUSH1 0x20 DUP1 DUP3 MSTORE PUSH1 0x19 SWAP1 DUP3 ADD MSTORE PUSH32 0x4661636574536166653A207265656E7472616E742063616C6C00000000000000 PUSH1 0x40 DUP3 ADD MSTORE PUSH1 0x60 ADD SWAP1 JUMP JUMPDEST PUSH1 0x0 PUSH1 0x20 DUP3 DUP5 SUB SLT ISZERO PUSH2 0x1934 JUMPI PUSH1 0x0 DUP1 REVERT JUMPDEST DUP2 MLOAD PUSH1 0xFF DUP2 AND DUP2 EQ PUSH2 0xC89 JUMPI PUSH1 0x0 DUP1 REVERT JUMPDEST PUSH1 0x1 DUP2 DUP2 JUMPDEST DUP1 DUP6 GT ISZERO PUSH2 0x1980 JUMPI DUP2 PUSH1 0x0 NOT DIV DUP3 GT ISZERO PUSH2 0x1966 JUMPI PUSH2 0x1966 PUSH2 0x182F JUMP JUMPDEST DUP1 DUP6 AND ISZERO PUSH2 0x1973 JUMPI SWAP2 DUP2 MUL SWAP2 JUMPDEST SWAP4 DUP5 SHR SWAP4 SWAP1 DUP1 MUL SWAP1 PUSH2 0x194A JUMP JUMPDEST POP SWAP3 POP SWAP3 SWAP1 POP JUMP JUMPDEST PUSH1 0x0 DUP3 PUSH2 0x1997 JUMPI POP PUSH1 0x1 PUSH2 0x4E3 JUMP JUMPDEST DUP2 PUSH2 0x19A4 JUMPI POP PUSH1 0x0 PUSH2 0x4E3 JUMP JUMPDEST DUP2 PUSH1 0x1 DUP2 EQ PUSH2 0x19BA JUMPI PUSH1 0x2 DUP2 EQ PUSH2 0x19C4 JUMPI PUSH2 0x19E0 JUMP JUMPDEST PUSH1 0x1 SWAP2 POP POP PUSH2 0x4E3 JUMP JUMPDEST PUSH1 0xFF DUP5 GT ISZERO PUSH2 0x19D5 JUMPI PUSH2 0x19D5 PUSH2 0x182F JUMP JUMPDEST POP POP PUSH1 0x1 DUP3 SHL PUSH2 0x4E3 JUMP JUMPDEST POP PUSH1 0x20 DUP4 LT PUSH2 0x133 DUP4 LT AND PUSH1 0x4E DUP5 LT PUSH1 0xB DUP5 LT AND OR ISZERO PUSH2 0x1A03 JUMPI POP DUP2 DUP2 EXP PUSH2 0x4E3 JUMP JUMPDEST PUSH2 0x1A0D DUP4 DUP4 PUSH2 0x1945 JUMP JUMPDEST DUP1 PUSH1 0x0 NOT DIV DUP3 GT ISZERO PUSH2 0x1A21 JUMPI PUSH2 0x1A21 PUSH2 0x182F JUMP JUMPDEST MUL SWAP4 SWAP3 POP POP POP JUMP JUMPDEST PUSH1 0x0 PUSH2 0xC89 PUSH1 0xFF DUP5 AND DUP4 PUSH2 0x1988 JUMP JUMPDEST DUP2 DUP2 SUB DUP2 DUP2 GT ISZERO PUSH2 0x4E3 JUMPI PUSH2 0x4E3 PUSH2 0x182F JUMP JUMPDEST PUSH4 0x4E487B71 PUSH1 0xE0 SHL PUSH1 0x0 MSTORE PUSH1 0x32 PUSH1 0x4 MSTORE PUSH1 0x24 PUSH1 0x0 REVERT JUMPDEST PUSH4 0x4E487B71 PUSH1 0xE0 SHL PUSH1 0x0 MSTORE PUSH1 0x31 PUSH1 0x4 MSTORE PUSH1 0x24 PUSH1 0x0 REVERT INVALID LOG2 PUSH5 0x6970667358 0x22 SLT KECCAK256 0xCD CALLCODE EXTCODEHASH JUMPDEST MSIZE 0x5D SWAP8 0x2F PUSH10 0xCFBB2046419A3836FF7D ORIGIN DUP12 SWAP1 0xB1 0x1E SLOAD MUL 0xB3 0xF7 0xC0 OR JUMPI LT PUSH5 0x736F6C6343 STOP ADDMOD SGT STOP CALLER "
				},
				"gasEstimates": {
					"creation": {
						"codeDepositCost": "1365800",
						"executionCost": "1424",
						"totalCost": "1367224"
					},
					"external": {
						"____allowTokenInToSafe(address)": "infinite",
						"____allowTokenOutOfSafe(address)": "infinite",
						"____forbidTokenInToSafe(address)": "infinite",
						"____forbidTokenOutOfSafe(address)": "infinite",
						"____withdraw(address,address,uint256)": "infinite",
						"____withdraw(address,uint256)": "infinite",
						"asset()": "346",
						"convertToAssets(uint256)": "infinite",
						"convertToShares(address,uint256)": "infinite",
						"deposit(address,uint256)": "infinite",
						"getHoldingsInSafe(address)": "2624",
						"getTokenAllowedInToSafe(uint256)": "4840",
						"getTokenAllowedOutFromSafe(uint256)": "4798",
						"getTokensAllowedInToSafe()": "infinite",
						"getTokensAllowedOutFromSafe()": "infinite",
						"isAllowedIn(address)": "infinite",
						"isAllowedOut(address)": "infinite",
						"maxDeposit(address)": "408",
						"previewDeposit(address,uint256)": "infinite",
						"totalAssets()": "infinite",
						"totalAssetsPerShare()": "infinite",
						"withdraw(uint256)": "infinite"
					}
				},
				"methodIdentifiers": {
					"____allowTokenInToSafe(address)": "18b31027",
					"____allowTokenOutOfSafe(address)": "a6a2fcd7",
					"____forbidTokenInToSafe(address)": "e5e45084",
					"____forbidTokenOutOfSafe(address)": "b74cbb41",
					"____withdraw(address,address,uint256)": "36447c4e",
					"____withdraw(address,uint256)": "31b94450",
					"asset()": "38d52e0f",
					"convertToAssets(uint256)": "07a2d13a",
					"convertToShares(address,uint256)": "3e5541f1",
					"deposit(address,uint256)": "47e7ef24",
					"getHoldingsInSafe(address)": "3e800148",
					"getTokenAllowedInToSafe(uint256)": "e13a96d6",
					"getTokenAllowedOutFromSafe(uint256)": "0a885f95",
					"getTokensAllowedInToSafe()": "2a77d7b8",
					"getTokensAllowedOutFromSafe()": "464964b1",
					"isAllowedIn(address)": "b3a54f1b",
					"isAllowedOut(address)": "182a9420",
					"maxDeposit(address)": "402d267d",
					"previewDeposit(address,uint256)": "b8f82b26",
					"totalAssets()": "01e1d114",
					"totalAssetsPerShare()": "19d0c2fa",
					"withdraw(uint256)": "2e1a7d4d"
				}
			},
			"storageLayout": {
				"storage": [],
				"types": null
			},
			"userdoc": {
				"kind": "user",
				"methods": {
					"convertToAssets(uint256)": {
						"notice": "assumed to be 10**18 because the pool token MUST BE 18 DECIMALS."
					},
					"totalAssetsPerShare()": {
						"notice": "token MUST BE 18 DECIMALS"
					},
					"withdraw(uint256)": {
						"notice": "repays in kind"
					}
				},
				"notice": "basic vault implementation for closed beta it is still rough and needs to work around the EIP4626 standard future features will include repayment in asset and full implementation and connection to the dreamcatcher protocol",
				"version": 1
			}
		}
	}
}