{
	"diamonds/facets/FacetSafe.sol": {
		"FacetSafe": {
			"abi": [
				{
					"anonymous": false,
					"inputs": [
						{
							"indexed": false,
							"internalType": "address",
							"name": "from",
							"type": "address"
						},
						{
							"indexed": false,
							"internalType": "address",
							"name": "tokenIn",
							"type": "address"
						},
						{
							"indexed": false,
							"internalType": "uint256",
							"name": "amountIn",
							"type": "uint256"
						}
					],
					"name": "Deposit",
					"type": "event"
				},
				{
					"anonymous": false,
					"inputs": [
						{
							"indexed": false,
							"internalType": "address",
							"name": "tokenIn",
							"type": "address"
						}
					],
					"name": "PermissionGrantedTokenIn",
					"type": "event"
				},
				{
					"anonymous": false,
					"inputs": [
						{
							"indexed": false,
							"internalType": "address",
							"name": "tokenOut",
							"type": "address"
						}
					],
					"name": "PermissionGrantedTokenOut",
					"type": "event"
				},
				{
					"anonymous": false,
					"inputs": [
						{
							"indexed": false,
							"internalType": "address",
							"name": "tokenIn",
							"type": "address"
						}
					],
					"name": "PermissionRevokedTokenIn",
					"type": "event"
				},
				{
					"anonymous": false,
					"inputs": [
						{
							"indexed": false,
							"internalType": "address",
							"name": "tokenOut",
							"type": "address"
						}
					],
					"name": "PermissionRevokedTokenOut",
					"type": "event"
				},
				{
					"anonymous": false,
					"inputs": [
						{
							"indexed": false,
							"internalType": "address",
							"name": "to",
							"type": "address"
						},
						{
							"indexed": false,
							"internalType": "address",
							"name": "tokenOut",
							"type": "address"
						},
						{
							"indexed": false,
							"internalType": "uint256",
							"name": "amountOut",
							"type": "uint256"
						}
					],
					"name": "Withdraw",
					"type": "event"
				},
				{
					"inputs": [
						{
							"internalType": "address",
							"name": "token",
							"type": "address"
						}
					],
					"name": "____allowTokenInToSafe",
					"outputs": [],
					"stateMutability": "nonpayable",
					"type": "function"
				},
				{
					"inputs": [
						{
							"internalType": "address",
							"name": "token",
							"type": "address"
						}
					],
					"name": "____allowTokenOutOfSafe",
					"outputs": [],
					"stateMutability": "nonpayable",
					"type": "function"
				},
				{
					"inputs": [
						{
							"internalType": "address",
							"name": "token",
							"type": "address"
						}
					],
					"name": "____forbidTokenInToSafe",
					"outputs": [],
					"stateMutability": "nonpayable",
					"type": "function"
				},
				{
					"inputs": [
						{
							"internalType": "address",
							"name": "token",
							"type": "address"
						}
					],
					"name": "____forbidTokenOutOfSafe",
					"outputs": [],
					"stateMutability": "nonpayable",
					"type": "function"
				},
				{
					"inputs": [
						{
							"internalType": "address",
							"name": "to",
							"type": "address"
						},
						{
							"internalType": "uint256",
							"name": "amountOut",
							"type": "uint256"
						}
					],
					"name": "____withdraw",
					"outputs": [],
					"stateMutability": "nonpayable",
					"type": "function"
				},
				{
					"inputs": [
						{
							"internalType": "address",
							"name": "to",
							"type": "address"
						},
						{
							"internalType": "address",
							"name": "tokenOut",
							"type": "address"
						},
						{
							"internalType": "uint256",
							"name": "amountOut",
							"type": "uint256"
						}
					],
					"name": "____withdraw",
					"outputs": [],
					"stateMutability": "nonpayable",
					"type": "function"
				},
				{
					"inputs": [
						{
							"internalType": "address",
							"name": "token",
							"type": "address"
						}
					],
					"name": "getHoldingsInSafe",
					"outputs": [
						{
							"internalType": "uint256",
							"name": "",
							"type": "uint256"
						}
					],
					"stateMutability": "view",
					"type": "function"
				},
				{
					"inputs": [
						{
							"internalType": "uint256",
							"name": "tokenId",
							"type": "uint256"
						}
					],
					"name": "getTokenAllowedInToSafe",
					"outputs": [
						{
							"internalType": "address",
							"name": "",
							"type": "address"
						}
					],
					"stateMutability": "view",
					"type": "function"
				},
				{
					"inputs": [
						{
							"internalType": "uint256",
							"name": "tokenId",
							"type": "uint256"
						}
					],
					"name": "getTokenAllowedOutFromSafe",
					"outputs": [
						{
							"internalType": "address",
							"name": "",
							"type": "address"
						}
					],
					"stateMutability": "view",
					"type": "function"
				},
				{
					"inputs": [],
					"name": "getTokensAllowedInToSafe",
					"outputs": [
						{
							"internalType": "address[]",
							"name": "",
							"type": "address[]"
						}
					],
					"stateMutability": "view",
					"type": "function"
				},
				{
					"inputs": [],
					"name": "getTokensAllowedOutFromSafe",
					"outputs": [
						{
							"internalType": "address[]",
							"name": "",
							"type": "address[]"
						}
					],
					"stateMutability": "view",
					"type": "function"
				},
				{
					"inputs": [
						{
							"internalType": "address",
							"name": "token",
							"type": "address"
						}
					],
					"name": "isAllowedIn",
					"outputs": [
						{
							"internalType": "bool",
							"name": "",
							"type": "bool"
						}
					],
					"stateMutability": "view",
					"type": "function"
				},
				{
					"inputs": [
						{
							"internalType": "address",
							"name": "token",
							"type": "address"
						}
					],
					"name": "isAllowedOut",
					"outputs": [
						{
							"internalType": "bool",
							"name": "",
							"type": "bool"
						}
					],
					"stateMutability": "view",
					"type": "function"
				}
			],
			"devdoc": {
				"kind": "dev",
				"methods": {},
				"version": 1
			},
			"evm": {
				"assembly": "    /* \"diamonds/facets/FacetSafe.sol\":381:6230  contract FacetSafe is SlotSafe, Context {... */\n  mstore(0x40, 0x80)\n  callvalue\n  dup1\n  iszero\n  tag_1\n  jumpi\n  0x00\n  dup1\n  revert\ntag_1:\n  pop\n  dataSize(sub_0)\n  dup1\n  dataOffset(sub_0)\n  0x00\n  codecopy\n  0x00\n  return\nstop\n\nsub_0: assembly {\n        /* \"diamonds/facets/FacetSafe.sol\":381:6230  contract FacetSafe is SlotSafe, Context {... */\n      mstore(0x40, 0x80)\n      callvalue\n      dup1\n      iszero\n      tag_1\n      jumpi\n      0x00\n      dup1\n      revert\n    tag_1:\n      pop\n      jumpi(tag_2, lt(calldatasize, 0x04))\n      shr(0xe0, calldataload(0x00))\n      dup1\n      0x3e800148\n      gt\n      tag_16\n      jumpi\n      dup1\n      0xb3a54f1b\n      gt\n      tag_17\n      jumpi\n      dup1\n      0xb3a54f1b\n      eq\n      tag_12\n      jumpi\n      dup1\n      0xb74cbb41\n      eq\n      tag_13\n      jumpi\n      dup1\n      0xe13a96d6\n      eq\n      tag_14\n      jumpi\n      dup1\n      0xe5e45084\n      eq\n      tag_15\n      jumpi\n      0x00\n      dup1\n      revert\n    tag_17:\n      dup1\n      0x3e800148\n      eq\n      tag_9\n      jumpi\n      dup1\n      0x464964b1\n      eq\n      tag_10\n      jumpi\n      dup1\n      0xa6a2fcd7\n      eq\n      tag_11\n      jumpi\n      0x00\n      dup1\n      revert\n    tag_16:\n      dup1\n      0x0a885f95\n      eq\n      tag_3\n      jumpi\n      dup1\n      0x182a9420\n      eq\n      tag_4\n      jumpi\n      dup1\n      0x18b31027\n      eq\n      tag_5\n      jumpi\n      dup1\n      0x2a77d7b8\n      eq\n      tag_6\n      jumpi\n      dup1\n      0x31b94450\n      eq\n      tag_7\n      jumpi\n      dup1\n      0x36447c4e\n      eq\n      tag_8\n      jumpi\n    tag_2:\n      0x00\n      dup1\n      revert\n        /* \"diamonds/facets/FacetSafe.sol\":2653:2794  function getTokenAllowedOutFromSafe(uint tokenId) public view virtual returns (address) {... */\n    tag_3:\n      tag_18\n      tag_19\n      calldatasize\n      0x04\n      tag_20\n      jump\t// in\n    tag_19:\n      tag_21\n      jump\t// in\n    tag_18:\n      mload(0x40)\n      sub(shl(0xa0, 0x01), 0x01)\n        /* \"#utility.yul\":363:395   */\n      swap1\n      swap2\n      and\n        /* \"#utility.yul\":345:396   */\n      dup2\n      mstore\n        /* \"#utility.yul\":333:335   */\n      0x20\n        /* \"#utility.yul\":318:336   */\n      add\n        /* \"diamonds/facets/FacetSafe.sol\":2653:2794  function getTokenAllowedOutFromSafe(uint tokenId) public view virtual returns (address) {... */\n    tag_22:\n      mload(0x40)\n      dup1\n      swap2\n      sub\n      swap1\n      return\n        /* \"diamonds/facets/FacetSafe.sol\":2933:3062  function isAllowedOut(address token) public view virtual returns (bool) {... */\n    tag_4:\n      tag_24\n      tag_25\n      calldatasize\n      0x04\n      tag_26\n      jump\t// in\n    tag_25:\n      tag_27\n      jump\t// in\n    tag_24:\n      mload(0x40)\n        /* \"#utility.yul\":941:955   */\n      swap1\n      iszero\n        /* \"#utility.yul\":934:956   */\n      iszero\n        /* \"#utility.yul\":916:957   */\n      dup2\n      mstore\n        /* \"#utility.yul\":904:906   */\n      0x20\n        /* \"#utility.yul\":889:907   */\n      add\n        /* \"diamonds/facets/FacetSafe.sol\":2933:3062  function isAllowedOut(address token) public view virtual returns (bool) {... */\n      tag_22\n        /* \"#utility.yul\":776:963   */\n      jump\n        /* \"diamonds/facets/FacetSafe.sol\":1026:1201  function ____allowTokenInToSafe(address token) external virtual {... */\n    tag_5:\n      tag_30\n      tag_31\n      calldatasize\n      0x04\n      tag_26\n      jump\t// in\n    tag_31:\n      tag_32\n      jump\t// in\n    tag_30:\n      stop\n        /* \"diamonds/facets/FacetSafe.sol\":2230:2362  function getTokensAllowedInToSafe() public view virtual returns (address[] memory) {... */\n    tag_6:\n      tag_33\n      tag_34\n      jump\t// in\n    tag_33:\n      mload(0x40)\n      tag_22\n      swap2\n      swap1\n      tag_36\n      jump\t// in\n        /* \"diamonds/facets/FacetSafe.sol\":1942:2086  function ____withdraw(address to, uint amountOut) nonReentrant() external virtual {... */\n    tag_7:\n      tag_30\n      tag_38\n      calldatasize\n      0x04\n      tag_39\n      jump\t// in\n    tag_38:\n      tag_40\n      jump\t// in\n        /* \"diamonds/facets/FacetSafe.sol\":1764:1936  function ____withdraw(address to, address tokenOut, uint amountOut) nonReentrant() external virtual {... */\n    tag_8:\n      tag_30\n      tag_42\n      calldatasize\n      0x04\n      tag_43\n      jump\t// in\n    tag_42:\n      tag_44\n      jump\t// in\n        /* \"diamonds/facets/FacetSafe.sol\":2101:2224  function getHoldingsInSafe(address token) public view virtual returns (uint) {... */\n    tag_9:\n      tag_45\n      tag_46\n      calldatasize\n      0x04\n      tag_26\n      jump\t// in\n    tag_46:\n      tag_47\n      jump\t// in\n    tag_45:\n      mload(0x40)\n        /* \"#utility.yul\":2369:2394   */\n      swap1\n      dup2\n      mstore\n        /* \"#utility.yul\":2357:2359   */\n      0x20\n        /* \"#utility.yul\":2342:2360   */\n      add\n        /* \"diamonds/facets/FacetSafe.sol\":2101:2224  function getHoldingsInSafe(address token) public view virtual returns (uint) {... */\n      tag_22\n        /* \"#utility.yul\":2223:2400   */\n      jump\n        /* \"diamonds/facets/FacetSafe.sol\":2511:2647  function getTokensAllowedOutFromSafe() public view virtual returns (address[] memory) {... */\n    tag_10:\n      tag_33\n      tag_51\n      jump\t// in\n        /* \"diamonds/facets/FacetSafe.sol\":1392:1570  function ____allowTokenOutOfSafe(address token) external virtual {... */\n    tag_11:\n      tag_30\n      tag_54\n      calldatasize\n      0x04\n      tag_26\n      jump\t// in\n    tag_54:\n      tag_55\n      jump\t// in\n        /* \"diamonds/facets/FacetSafe.sol\":2800:2927  function isAllowedIn(address token) public view virtual returns (bool) {... */\n    tag_12:\n      tag_24\n      tag_57\n      calldatasize\n      0x04\n      tag_26\n      jump\t// in\n    tag_57:\n      tag_58\n      jump\t// in\n        /* \"diamonds/facets/FacetSafe.sol\":1576:1758  function ____forbidTokenOutOfSafe(address token) external virtual {... */\n    tag_13:\n      tag_30\n      tag_61\n      calldatasize\n      0x04\n      tag_26\n      jump\t// in\n    tag_61:\n      tag_62\n      jump\t// in\n        /* \"diamonds/facets/FacetSafe.sol\":2368:2505  function getTokenAllowedInToSafe(uint tokenId) public view virtual returns (address) {... */\n    tag_14:\n      tag_18\n      tag_64\n      calldatasize\n      0x04\n      tag_20\n      jump\t// in\n    tag_64:\n      tag_65\n      jump\t// in\n        /* \"diamonds/facets/FacetSafe.sol\":1207:1386  function ____forbidTokenInToSafe(address token) external virtual {... */\n    tag_15:\n      tag_30\n      tag_68\n      calldatasize\n      0x04\n      tag_26\n      jump\t// in\n    tag_68:\n      tag_69\n      jump\t// in\n        /* \"diamonds/facets/FacetSafe.sol\":2653:2794  function getTokenAllowedOutFromSafe(uint tokenId) public view virtual returns (address) {... */\n    tag_21:\n        /* \"diamonds/facets/FacetSafe.sol\":2732:2739  address */\n      0x00\n        /* \"diamonds/facets/FacetSafe.sol\":2758:2787  safe().allowedOut.at(tokenId) */\n      tag_71\n        /* \"diamonds/facets/FacetSafe.sol\":2779:2786  tokenId */\n      dup3\n        /* \"diamonds/facets/FacetSafe.sol\":2758:2764  safe() */\n      tag_72\n        /* \"diamonds/facets/FacetSafe.sol\":2758:2762  safe */\n      tag_73\n        /* \"diamonds/facets/FacetSafe.sol\":2758:2764  safe() */\n      jump\t// in\n    tag_72:\n        /* \"diamonds/facets/FacetSafe.sol\":2758:2775  safe().allowedOut */\n      0x03\n      add\n      swap1\n        /* \"diamonds/facets/FacetSafe.sol\":2758:2778  safe().allowedOut.at */\n      tag_74\n        /* \"diamonds/facets/FacetSafe.sol\":2758:2787  safe().allowedOut.at(tokenId) */\n      jump\t// in\n    tag_71:\n        /* \"diamonds/facets/FacetSafe.sol\":2751:2787  return safe().allowedOut.at(tokenId) */\n      swap3\n        /* \"diamonds/facets/FacetSafe.sol\":2653:2794  function getTokenAllowedOutFromSafe(uint tokenId) public view virtual returns (address) {... */\n      swap2\n      pop\n      pop\n      jump\t// out\n        /* \"diamonds/facets/FacetSafe.sol\":2933:3062  function isAllowedOut(address token) public view virtual returns (bool) {... */\n    tag_27:\n        /* \"diamonds/facets/FacetSafe.sol\":2999:3003  bool */\n      0x00\n        /* \"diamonds/facets/FacetSafe.sol\":3022:3055  safe().allowedOut.contains(token) */\n      tag_71\n        /* \"diamonds/facets/FacetSafe.sol\":3049:3054  token */\n      dup3\n        /* \"diamonds/facets/FacetSafe.sol\":3022:3028  safe() */\n      tag_77\n        /* \"diamonds/facets/FacetSafe.sol\":3022:3026  safe */\n      tag_73\n        /* \"diamonds/facets/FacetSafe.sol\":3022:3028  safe() */\n      jump\t// in\n    tag_77:\n        /* \"diamonds/facets/FacetSafe.sol\":3022:3039  safe().allowedOut */\n      0x03\n      add\n      swap1\n        /* \"diamonds/facets/FacetSafe.sol\":3022:3048  safe().allowedOut.contains */\n      tag_78\n        /* \"diamonds/facets/FacetSafe.sol\":3022:3055  safe().allowedOut.contains(token) */\n      jump\t// in\n        /* \"diamonds/facets/FacetSafe.sol\":1026:1201  function ____allowTokenInToSafe(address token) external virtual {... */\n    tag_32:\n        /* \"diamonds/facets/FacetSafe.sol\":1100:1111  _onlySelf() */\n      tag_80\n        /* \"diamonds/facets/FacetSafe.sol\":1100:1109  _onlySelf */\n      tag_81\n        /* \"diamonds/facets/FacetSafe.sol\":1100:1111  _onlySelf() */\n      jump\t// in\n    tag_80:\n        /* \"diamonds/facets/FacetSafe.sol\":1121:1148  safe().allowedIn.add(token) */\n      tag_82\n        /* \"diamonds/facets/FacetSafe.sol\":1142:1147  token */\n      dup2\n        /* \"diamonds/facets/FacetSafe.sol\":1121:1127  safe() */\n      tag_83\n        /* \"diamonds/facets/FacetSafe.sol\":1121:1125  safe */\n      tag_73\n        /* \"diamonds/facets/FacetSafe.sol\":1121:1127  safe() */\n      jump\t// in\n    tag_83:\n        /* \"diamonds/facets/FacetSafe.sol\":1121:1137  safe().allowedIn */\n      0x01\n      add\n      swap1\n        /* \"diamonds/facets/FacetSafe.sol\":1121:1141  safe().allowedIn.add */\n      tag_84\n        /* \"diamonds/facets/FacetSafe.sol\":1121:1148  safe().allowedIn.add(token) */\n      jump\t// in\n    tag_82:\n      pop\n        /* \"diamonds/facets/FacetSafe.sol\":1163:1194  PermissionGrantedTokenIn(token) */\n      mload(0x40)\n      sub(shl(0xa0, 0x01), 0x01)\n        /* \"#utility.yul\":363:395   */\n      dup3\n      and\n        /* \"#utility.yul\":345:396   */\n      dup2\n      mstore\n        /* \"diamonds/facets/FacetSafe.sol\":1163:1194  PermissionGrantedTokenIn(token) */\n      0xf6aea4ebd15c89ff6a16b7819fb6968ad0a0ce7e0085ef4c87a85f8c0cd2e46a\n      swap1\n        /* \"#utility.yul\":333:335   */\n      0x20\n        /* \"#utility.yul\":318:336   */\n      add\n        /* \"diamonds/facets/FacetSafe.sol\":1163:1194  PermissionGrantedTokenIn(token) */\n    tag_85:\n      mload(0x40)\n      dup1\n      swap2\n      sub\n      swap1\n      log1\n        /* \"diamonds/facets/FacetSafe.sol\":1026:1201  function ____allowTokenInToSafe(address token) external virtual {... */\n      pop\n      jump\t// out\n        /* \"diamonds/facets/FacetSafe.sol\":2230:2362  function getTokensAllowedInToSafe() public view virtual returns (address[] memory) {... */\n    tag_34:\n        /* \"diamonds/facets/FacetSafe.sol\":2295:2311  address[] memory */\n      0x60\n        /* \"diamonds/facets/FacetSafe.sol\":2330:2355  safe().allowedIn.values() */\n      tag_87\n        /* \"diamonds/facets/FacetSafe.sol\":2330:2336  safe() */\n      tag_88\n        /* \"diamonds/facets/FacetSafe.sol\":2330:2334  safe */\n      tag_73\n        /* \"diamonds/facets/FacetSafe.sol\":2330:2336  safe() */\n      jump\t// in\n    tag_88:\n        /* \"diamonds/facets/FacetSafe.sol\":2330:2346  safe().allowedIn */\n      0x01\n      add\n        /* \"diamonds/facets/FacetSafe.sol\":2330:2353  safe().allowedIn.values */\n      tag_89\n        /* \"diamonds/facets/FacetSafe.sol\":2330:2355  safe().allowedIn.values() */\n      jump\t// in\n    tag_87:\n        /* \"diamonds/facets/FacetSafe.sol\":2323:2355  return safe().allowedIn.values() */\n      swap1\n      pop\n        /* \"diamonds/facets/FacetSafe.sol\":2230:2362  function getTokensAllowedInToSafe() public view virtual returns (address[] memory) {... */\n      swap1\n      jump\t// out\n        /* \"diamonds/facets/FacetSafe.sol\":1942:2086  function ____withdraw(address to, uint amountOut) nonReentrant() external virtual {... */\n    tag_40:\n        /* \"diamonds/facets/FacetSafe.sol\":898:904  safe() */\n      tag_91\n        /* \"diamonds/facets/FacetSafe.sol\":898:902  safe */\n      tag_73\n        /* \"diamonds/facets/FacetSafe.sol\":898:904  safe() */\n      jump\t// in\n    tag_91:\n        /* \"diamonds/facets/FacetSafe.sol\":898:911  safe().locked */\n      0x07\n      add\n      sload\n      0xff\n      and\n        /* \"diamonds/facets/FacetSafe.sol\":897:911  !safe().locked */\n      iszero\n        /* \"diamonds/facets/FacetSafe.sol\":889:941  require(!safe().locked, 'FacetSafe: reentrant call') */\n      tag_92\n      jumpi\n      mload(0x40)\n      shl(0xe5, 0x461bcd)\n      dup2\n      mstore\n        /* \"#utility.yul\":2607:2609   */\n      0x20\n        /* \"diamonds/facets/FacetSafe.sol\":889:941  require(!safe().locked, 'FacetSafe: reentrant call') */\n      0x04\n      dup3\n      add\n        /* \"#utility.yul\":2589:2610   */\n      mstore\n        /* \"#utility.yul\":2646:2648   */\n      0x19\n        /* \"#utility.yul\":2626:2644   */\n      0x24\n      dup3\n      add\n        /* \"#utility.yul\":2619:2649   */\n      mstore\n      shl(0x3a, 0x119858d95d14d859994e881c99595b9d1c985b9d0818d85b1b)\n        /* \"#utility.yul\":2665:2683   */\n      0x44\n      dup3\n      add\n        /* \"#utility.yul\":2658:2713   */\n      mstore\n        /* \"#utility.yul\":2730:2748   */\n      0x64\n      add\n        /* \"diamonds/facets/FacetSafe.sol\":889:941  require(!safe().locked, 'FacetSafe: reentrant call') */\n    tag_93:\n      mload(0x40)\n      dup1\n      swap2\n      sub\n      swap1\n      revert\n    tag_92:\n        /* \"diamonds/facets/FacetSafe.sol\":967:971  true */\n      0x01\n        /* \"diamonds/facets/FacetSafe.sol\":951:957  safe() */\n      tag_95\n        /* \"diamonds/facets/FacetSafe.sol\":951:955  safe */\n      tag_73\n        /* \"diamonds/facets/FacetSafe.sol\":951:957  safe() */\n      jump\t// in\n    tag_95:\n        /* \"diamonds/facets/FacetSafe.sol\":951:964  safe().locked */\n      0x07\n      add\n        /* \"diamonds/facets/FacetSafe.sol\":951:971  safe().locked = true */\n      dup1\n      sload\n      not(0xff)\n      and\n      swap2\n      iszero\n      iszero\n      swap2\n      swap1\n      swap2\n      or\n      swap1\n      sstore\n        /* \"diamonds/facets/FacetSafe.sol\":2034:2045  _onlySelf() */\n      tag_97\n        /* \"diamonds/facets/FacetSafe.sol\":2034:2043  _onlySelf */\n      tag_81\n        /* \"diamonds/facets/FacetSafe.sol\":2034:2045  _onlySelf() */\n      jump\t// in\n    tag_97:\n        /* \"diamonds/facets/FacetSafe.sol\":2055:2079  _withdraw(to, amountOut) */\n      tag_98\n        /* \"diamonds/facets/FacetSafe.sol\":2065:2067  to */\n      dup3\n        /* \"diamonds/facets/FacetSafe.sol\":2069:2078  amountOut */\n      dup3\n        /* \"diamonds/facets/FacetSafe.sol\":2055:2064  _withdraw */\n      tag_99\n        /* \"diamonds/facets/FacetSafe.sol\":2055:2079  _withdraw(to, amountOut) */\n      jump\t// in\n    tag_98:\n        /* \"diamonds/facets/FacetSafe.sol\":1008:1013  false */\n      0x00\n        /* \"diamonds/facets/FacetSafe.sol\":992:998  safe() */\n      tag_100\n        /* \"diamonds/facets/FacetSafe.sol\":992:996  safe */\n      tag_73\n        /* \"diamonds/facets/FacetSafe.sol\":992:998  safe() */\n      jump\t// in\n    tag_100:\n        /* \"diamonds/facets/FacetSafe.sol\":992:1005  safe().locked */\n      0x07\n      add\n        /* \"diamonds/facets/FacetSafe.sol\":992:1013  safe().locked = false */\n      dup1\n      sload\n      not(0xff)\n      and\n      swap2\n      iszero\n      iszero\n      swap2\n      swap1\n      swap2\n      or\n      swap1\n      sstore\n      pop\n      pop\n        /* \"diamonds/facets/FacetSafe.sol\":1942:2086  function ____withdraw(address to, uint amountOut) nonReentrant() external virtual {... */\n      jump\t// out\n        /* \"diamonds/facets/FacetSafe.sol\":1764:1936  function ____withdraw(address to, address tokenOut, uint amountOut) nonReentrant() external virtual {... */\n    tag_44:\n        /* \"diamonds/facets/FacetSafe.sol\":898:904  safe() */\n      tag_102\n        /* \"diamonds/facets/FacetSafe.sol\":898:902  safe */\n      tag_73\n        /* \"diamonds/facets/FacetSafe.sol\":898:904  safe() */\n      jump\t// in\n    tag_102:\n        /* \"diamonds/facets/FacetSafe.sol\":898:911  safe().locked */\n      0x07\n      add\n      sload\n      0xff\n      and\n        /* \"diamonds/facets/FacetSafe.sol\":897:911  !safe().locked */\n      iszero\n        /* \"diamonds/facets/FacetSafe.sol\":889:941  require(!safe().locked, 'FacetSafe: reentrant call') */\n      tag_103\n      jumpi\n      mload(0x40)\n      shl(0xe5, 0x461bcd)\n      dup2\n      mstore\n        /* \"#utility.yul\":2607:2609   */\n      0x20\n        /* \"diamonds/facets/FacetSafe.sol\":889:941  require(!safe().locked, 'FacetSafe: reentrant call') */\n      0x04\n      dup3\n      add\n        /* \"#utility.yul\":2589:2610   */\n      mstore\n        /* \"#utility.yul\":2646:2648   */\n      0x19\n        /* \"#utility.yul\":2626:2644   */\n      0x24\n      dup3\n      add\n        /* \"#utility.yul\":2619:2649   */\n      mstore\n      shl(0x3a, 0x119858d95d14d859994e881c99595b9d1c985b9d0818d85b1b)\n        /* \"#utility.yul\":2665:2683   */\n      0x44\n      dup3\n      add\n        /* \"#utility.yul\":2658:2713   */\n      mstore\n        /* \"#utility.yul\":2730:2748   */\n      0x64\n      add\n        /* \"diamonds/facets/FacetSafe.sol\":889:941  require(!safe().locked, 'FacetSafe: reentrant call') */\n      tag_93\n        /* \"#utility.yul\":2405:2754   */\n      jump\n        /* \"diamonds/facets/FacetSafe.sol\":889:941  require(!safe().locked, 'FacetSafe: reentrant call') */\n    tag_103:\n        /* \"diamonds/facets/FacetSafe.sol\":967:971  true */\n      0x01\n        /* \"diamonds/facets/FacetSafe.sol\":951:957  safe() */\n      tag_105\n        /* \"diamonds/facets/FacetSafe.sol\":951:955  safe */\n      tag_73\n        /* \"diamonds/facets/FacetSafe.sol\":951:957  safe() */\n      jump\t// in\n    tag_105:\n        /* \"diamonds/facets/FacetSafe.sol\":951:964  safe().locked */\n      0x07\n      add\n        /* \"diamonds/facets/FacetSafe.sol\":951:971  safe().locked = true */\n      dup1\n      sload\n      not(0xff)\n      and\n      swap2\n      iszero\n      iszero\n      swap2\n      swap1\n      swap2\n      or\n      swap1\n      sstore\n        /* \"diamonds/facets/FacetSafe.sol\":1874:1885  _onlySelf() */\n      tag_107\n        /* \"diamonds/facets/FacetSafe.sol\":1874:1883  _onlySelf */\n      tag_81\n        /* \"diamonds/facets/FacetSafe.sol\":1874:1885  _onlySelf() */\n      jump\t// in\n    tag_107:\n        /* \"diamonds/facets/FacetSafe.sol\":1895:1929  _withdraw(to, tokenOut, amountOut) */\n      tag_108\n        /* \"diamonds/facets/FacetSafe.sol\":1905:1907  to */\n      dup4\n        /* \"diamonds/facets/FacetSafe.sol\":1909:1917  tokenOut */\n      dup4\n        /* \"diamonds/facets/FacetSafe.sol\":1919:1928  amountOut */\n      dup4\n        /* \"diamonds/facets/FacetSafe.sol\":1895:1904  _withdraw */\n      tag_109\n        /* \"diamonds/facets/FacetSafe.sol\":1895:1929  _withdraw(to, tokenOut, amountOut) */\n      jump\t// in\n    tag_108:\n        /* \"diamonds/facets/FacetSafe.sol\":1008:1013  false */\n      0x00\n        /* \"diamonds/facets/FacetSafe.sol\":992:998  safe() */\n      tag_110\n        /* \"diamonds/facets/FacetSafe.sol\":992:996  safe */\n      tag_73\n        /* \"diamonds/facets/FacetSafe.sol\":992:998  safe() */\n      jump\t// in\n    tag_110:\n        /* \"diamonds/facets/FacetSafe.sol\":992:1005  safe().locked */\n      0x07\n      add\n        /* \"diamonds/facets/FacetSafe.sol\":992:1013  safe().locked = false */\n      dup1\n      sload\n      not(0xff)\n      and\n      swap2\n      iszero\n      iszero\n      swap2\n      swap1\n      swap2\n      or\n      swap1\n      sstore\n      pop\n      pop\n      pop\n        /* \"diamonds/facets/FacetSafe.sol\":1764:1936  function ____withdraw(address to, address tokenOut, uint amountOut) nonReentrant() external virtual {... */\n      jump\t// out\n        /* \"diamonds/facets/FacetSafe.sol\":2101:2224  function getHoldingsInSafe(address token) public view virtual returns (uint) {... */\n    tag_47:\n        /* \"diamonds/facets/FacetSafe.sol\":2172:2176  uint */\n      0x00\n        /* \"diamonds/facets/FacetSafe.sol\":2195:2201  safe() */\n      tag_112\n        /* \"diamonds/facets/FacetSafe.sol\":2195:2199  safe */\n      tag_73\n        /* \"diamonds/facets/FacetSafe.sol\":2195:2201  safe() */\n      jump\t// in\n    tag_112:\n      sub(shl(0xa0, 0x01), 0x01)\n        /* \"diamonds/facets/FacetSafe.sol\":2195:2217  safe().balances[token] */\n      swap1\n      swap3\n      and\n        /* \"diamonds/facets/FacetSafe.sol\":2195:2210  safe().balances */\n      0x00\n        /* \"diamonds/facets/FacetSafe.sol\":2195:2217  safe().balances[token] */\n      swap1\n      dup2\n      mstore\n      0x20\n      swap3\n      swap1\n      swap3\n      mstore\n      pop\n      0x40\n      swap1\n      keccak256\n      sload\n      swap1\n        /* \"diamonds/facets/FacetSafe.sol\":2101:2224  function getHoldingsInSafe(address token) public view virtual returns (uint) {... */\n      jump\t// out\n        /* \"diamonds/facets/FacetSafe.sol\":2511:2647  function getTokensAllowedOutFromSafe() public view virtual returns (address[] memory) {... */\n    tag_51:\n        /* \"diamonds/facets/FacetSafe.sol\":2579:2595  address[] memory */\n      0x60\n        /* \"diamonds/facets/FacetSafe.sol\":2614:2640  safe().allowedOut.values() */\n      tag_87\n        /* \"diamonds/facets/FacetSafe.sol\":2614:2620  safe() */\n      tag_115\n        /* \"diamonds/facets/FacetSafe.sol\":2614:2618  safe */\n      tag_73\n        /* \"diamonds/facets/FacetSafe.sol\":2614:2620  safe() */\n      jump\t// in\n    tag_115:\n        /* \"diamonds/facets/FacetSafe.sol\":2614:2631  safe().allowedOut */\n      0x03\n      add\n        /* \"diamonds/facets/FacetSafe.sol\":2614:2638  safe().allowedOut.values */\n      tag_89\n        /* \"diamonds/facets/FacetSafe.sol\":2614:2640  safe().allowedOut.values() */\n      jump\t// in\n        /* \"diamonds/facets/FacetSafe.sol\":1392:1570  function ____allowTokenOutOfSafe(address token) external virtual {... */\n    tag_55:\n        /* \"diamonds/facets/FacetSafe.sol\":1467:1478  _onlySelf() */\n      tag_117\n        /* \"diamonds/facets/FacetSafe.sol\":1467:1476  _onlySelf */\n      tag_81\n        /* \"diamonds/facets/FacetSafe.sol\":1467:1478  _onlySelf() */\n      jump\t// in\n    tag_117:\n        /* \"diamonds/facets/FacetSafe.sol\":1488:1516  safe().allowedOut.add(token) */\n      tag_118\n        /* \"diamonds/facets/FacetSafe.sol\":1510:1515  token */\n      dup2\n        /* \"diamonds/facets/FacetSafe.sol\":1488:1494  safe() */\n      tag_119\n        /* \"diamonds/facets/FacetSafe.sol\":1488:1492  safe */\n      tag_73\n        /* \"diamonds/facets/FacetSafe.sol\":1488:1494  safe() */\n      jump\t// in\n    tag_119:\n        /* \"diamonds/facets/FacetSafe.sol\":1488:1505  safe().allowedOut */\n      0x03\n      add\n      swap1\n        /* \"diamonds/facets/FacetSafe.sol\":1488:1509  safe().allowedOut.add */\n      tag_84\n        /* \"diamonds/facets/FacetSafe.sol\":1488:1516  safe().allowedOut.add(token) */\n      jump\t// in\n    tag_118:\n      pop\n        /* \"diamonds/facets/FacetSafe.sol\":1531:1563  PermissionGrantedTokenOut(token) */\n      mload(0x40)\n      sub(shl(0xa0, 0x01), 0x01)\n        /* \"#utility.yul\":363:395   */\n      dup3\n      and\n        /* \"#utility.yul\":345:396   */\n      dup2\n      mstore\n        /* \"diamonds/facets/FacetSafe.sol\":1531:1563  PermissionGrantedTokenOut(token) */\n      0xb91009acff1ca23a9fe12400608cae8383f810cac953c1a16a99fe9b9c65abfb\n      swap1\n        /* \"#utility.yul\":333:335   */\n      0x20\n        /* \"#utility.yul\":318:336   */\n      add\n        /* \"diamonds/facets/FacetSafe.sol\":1531:1563  PermissionGrantedTokenOut(token) */\n      tag_85\n        /* \"#utility.yul\":199:402   */\n      jump\n        /* \"diamonds/facets/FacetSafe.sol\":2800:2927  function isAllowedIn(address token) public view virtual returns (bool) {... */\n    tag_58:\n        /* \"diamonds/facets/FacetSafe.sol\":2865:2869  bool */\n      0x00\n        /* \"diamonds/facets/FacetSafe.sol\":2888:2920  safe().allowedIn.contains(token) */\n      tag_71\n        /* \"diamonds/facets/FacetSafe.sol\":2914:2919  token */\n      dup3\n        /* \"diamonds/facets/FacetSafe.sol\":2888:2894  safe() */\n      tag_123\n        /* \"diamonds/facets/FacetSafe.sol\":2888:2892  safe */\n      tag_73\n        /* \"diamonds/facets/FacetSafe.sol\":2888:2894  safe() */\n      jump\t// in\n    tag_123:\n        /* \"diamonds/facets/FacetSafe.sol\":2888:2904  safe().allowedIn */\n      0x01\n      add\n      swap1\n        /* \"diamonds/facets/FacetSafe.sol\":2888:2913  safe().allowedIn.contains */\n      tag_78\n        /* \"diamonds/facets/FacetSafe.sol\":2888:2920  safe().allowedIn.contains(token) */\n      jump\t// in\n        /* \"diamonds/facets/FacetSafe.sol\":1576:1758  function ____forbidTokenOutOfSafe(address token) external virtual {... */\n    tag_62:\n        /* \"diamonds/facets/FacetSafe.sol\":1652:1663  _onlySelf() */\n      tag_125\n        /* \"diamonds/facets/FacetSafe.sol\":1652:1661  _onlySelf */\n      tag_81\n        /* \"diamonds/facets/FacetSafe.sol\":1652:1663  _onlySelf() */\n      jump\t// in\n    tag_125:\n        /* \"diamonds/facets/FacetSafe.sol\":1673:1704  safe().allowedOut.remove(token) */\n      tag_126\n        /* \"diamonds/facets/FacetSafe.sol\":1698:1703  token */\n      dup2\n        /* \"diamonds/facets/FacetSafe.sol\":1673:1679  safe() */\n      tag_127\n        /* \"diamonds/facets/FacetSafe.sol\":1673:1677  safe */\n      tag_73\n        /* \"diamonds/facets/FacetSafe.sol\":1673:1679  safe() */\n      jump\t// in\n    tag_127:\n        /* \"diamonds/facets/FacetSafe.sol\":1673:1690  safe().allowedOut */\n      0x03\n      add\n      swap1\n        /* \"diamonds/facets/FacetSafe.sol\":1673:1697  safe().allowedOut.remove */\n      tag_128\n        /* \"diamonds/facets/FacetSafe.sol\":1673:1704  safe().allowedOut.remove(token) */\n      jump\t// in\n    tag_126:\n      pop\n        /* \"diamonds/facets/FacetSafe.sol\":1719:1751  PermissionRevokedTokenOut(token) */\n      mload(0x40)\n      sub(shl(0xa0, 0x01), 0x01)\n        /* \"#utility.yul\":363:395   */\n      dup3\n      and\n        /* \"#utility.yul\":345:396   */\n      dup2\n      mstore\n        /* \"diamonds/facets/FacetSafe.sol\":1719:1751  PermissionRevokedTokenOut(token) */\n      0x64f9ae8a27a020b54f63a0d9ff5d3f0dd302b35eef11d16612b2a02b2d8a8248\n      swap1\n        /* \"#utility.yul\":333:335   */\n      0x20\n        /* \"#utility.yul\":318:336   */\n      add\n        /* \"diamonds/facets/FacetSafe.sol\":1719:1751  PermissionRevokedTokenOut(token) */\n      tag_85\n        /* \"#utility.yul\":199:402   */\n      jump\n        /* \"diamonds/facets/FacetSafe.sol\":2368:2505  function getTokenAllowedInToSafe(uint tokenId) public view virtual returns (address) {... */\n    tag_65:\n        /* \"diamonds/facets/FacetSafe.sol\":2444:2451  address */\n      0x00\n        /* \"diamonds/facets/FacetSafe.sol\":2470:2498  safe().allowedIn.at(tokenId) */\n      tag_71\n        /* \"diamonds/facets/FacetSafe.sol\":2490:2497  tokenId */\n      dup3\n        /* \"diamonds/facets/FacetSafe.sol\":2470:2476  safe() */\n      tag_132\n        /* \"diamonds/facets/FacetSafe.sol\":2470:2474  safe */\n      tag_73\n        /* \"diamonds/facets/FacetSafe.sol\":2470:2476  safe() */\n      jump\t// in\n    tag_132:\n        /* \"diamonds/facets/FacetSafe.sol\":2470:2486  safe().allowedIn */\n      0x01\n      add\n      swap1\n        /* \"diamonds/facets/FacetSafe.sol\":2470:2489  safe().allowedIn.at */\n      tag_74\n        /* \"diamonds/facets/FacetSafe.sol\":2470:2498  safe().allowedIn.at(tokenId) */\n      jump\t// in\n        /* \"diamonds/facets/FacetSafe.sol\":1207:1386  function ____forbidTokenInToSafe(address token) external virtual {... */\n    tag_69:\n        /* \"diamonds/facets/FacetSafe.sol\":1282:1293  _onlySelf() */\n      tag_134\n        /* \"diamonds/facets/FacetSafe.sol\":1282:1291  _onlySelf */\n      tag_81\n        /* \"diamonds/facets/FacetSafe.sol\":1282:1293  _onlySelf() */\n      jump\t// in\n    tag_134:\n        /* \"diamonds/facets/FacetSafe.sol\":1303:1333  safe().allowedIn.remove(token) */\n      tag_135\n        /* \"diamonds/facets/FacetSafe.sol\":1327:1332  token */\n      dup2\n        /* \"diamonds/facets/FacetSafe.sol\":1303:1309  safe() */\n      tag_136\n        /* \"diamonds/facets/FacetSafe.sol\":1303:1307  safe */\n      tag_73\n        /* \"diamonds/facets/FacetSafe.sol\":1303:1309  safe() */\n      jump\t// in\n    tag_136:\n        /* \"diamonds/facets/FacetSafe.sol\":1303:1319  safe().allowedIn */\n      0x01\n      add\n      swap1\n        /* \"diamonds/facets/FacetSafe.sol\":1303:1326  safe().allowedIn.remove */\n      tag_128\n        /* \"diamonds/facets/FacetSafe.sol\":1303:1333  safe().allowedIn.remove(token) */\n      jump\t// in\n    tag_135:\n      pop\n        /* \"diamonds/facets/FacetSafe.sol\":1348:1379  PermissionRevokedTokenIn(token) */\n      mload(0x40)\n      sub(shl(0xa0, 0x01), 0x01)\n        /* \"#utility.yul\":363:395   */\n      dup3\n      and\n        /* \"#utility.yul\":345:396   */\n      dup2\n      mstore\n        /* \"diamonds/facets/FacetSafe.sol\":1348:1379  PermissionRevokedTokenIn(token) */\n      0x0a05ed313e53d05b8e9ebe468e240ec174f5190074867a051f35ac20709eed04\n      swap1\n        /* \"#utility.yul\":333:335   */\n      0x20\n        /* \"#utility.yul\":318:336   */\n      add\n        /* \"diamonds/facets/FacetSafe.sol\":1348:1379  PermissionRevokedTokenIn(token) */\n      tag_85\n        /* \"#utility.yul\":199:402   */\n      jump\n        /* \"diamonds/facets/slots/SlotSafe.sol\":488:659  function safe() internal pure virtual returns (StorageSafe storage s) {... */\n    tag_73:\n        /* \"diamonds/facets/slots/SlotSafe.sol\":233:255  keccak256('slot.safe') */\n      0xf2eeec4c06050035800631f1916b3a25e1fa154de963ec50f0ac015a5be9e618\n      swap1\n        /* \"diamonds/facets/slots/SlotSafe.sol\":488:659  function safe() internal pure virtual returns (StorageSafe storage s) {... */\n      jump\t// out\n        /* \"imports/openzeppelin/utils/structs/EnumerableSet.sol\":9564:9720  function at(AddressSet storage set, uint256 index) internal view returns (address) {... */\n    tag_74:\n        /* \"imports/openzeppelin/utils/structs/EnumerableSet.sol\":9638:9645  address */\n      0x00\n        /* \"imports/openzeppelin/utils/structs/EnumerableSet.sol\":9688:9710  _at(set._inner, index) */\n      tag_140\n        /* \"imports/openzeppelin/utils/structs/EnumerableSet.sol\":9692:9695  set */\n      dup4\n        /* \"imports/openzeppelin/utils/structs/EnumerableSet.sol\":9704:9709  index */\n      dup4\n        /* \"imports/openzeppelin/utils/structs/EnumerableSet.sol\":9688:9691  _at */\n      tag_141\n        /* \"imports/openzeppelin/utils/structs/EnumerableSet.sol\":9688:9710  _at(set._inner, index) */\n      jump\t// in\n    tag_140:\n        /* \"imports/openzeppelin/utils/structs/EnumerableSet.sol\":9680:9711  uint256(_at(set._inner, index)) */\n      swap4\n        /* \"imports/openzeppelin/utils/structs/EnumerableSet.sol\":9564:9720  function at(AddressSet storage set, uint256 index) internal view returns (address) {... */\n      swap3\n      pop\n      pop\n      pop\n      jump\t// out\n        /* \"imports/openzeppelin/utils/structs/EnumerableSet.sol\":8861:9026  function contains(AddressSet storage set, address value) internal view returns (bool) {... */\n    tag_78:\n      sub(shl(0xa0, 0x01), 0x01)\n        /* \"imports/openzeppelin/utils/structs/EnumerableSet.sol\":8994:9017  uint256(uint160(value)) */\n      dup2\n      and\n        /* \"imports/openzeppelin/utils/structs/EnumerableSet.sol\":8941:8945  bool */\n      0x00\n        /* \"imports/openzeppelin/utils/structs/EnumerableSet.sol\":4352:4371  set._indexes[value] */\n      swap1\n      dup2\n      mstore\n        /* \"imports/openzeppelin/utils/structs/EnumerableSet.sol\":4352:4364  set._indexes */\n      0x01\n      dup4\n      add\n        /* \"imports/openzeppelin/utils/structs/EnumerableSet.sol\":4352:4371  set._indexes[value] */\n      0x20\n      mstore\n      0x40\n      dup2\n      keccak256\n      sload\n        /* \"imports/openzeppelin/utils/structs/EnumerableSet.sol\":4352:4376  set._indexes[value] != 0 */\n      iszero\n      iszero\n        /* \"imports/openzeppelin/utils/structs/EnumerableSet.sol\":8964:9019  _contains(set._inner, bytes32(uint256(uint160(value)))) */\n      tag_140\n        /* \"imports/openzeppelin/utils/structs/EnumerableSet.sol\":4256:4383  function _contains(Set storage set, bytes32 value) private view returns (bool) {... */\n      jump\n        /* \"diamonds/facets/FacetSafe.sol\":3966:4082  function _onlySelf() internal view virtual {... */\n    tag_81:\n        /* \"imports/openzeppelin/utils/Context.sol\":720:730  msg.sender */\n      caller\n        /* \"diamonds/facets/FacetSafe.sol\":4170:4174  this */\n      address\n        /* \"diamonds/facets/FacetSafe.sol\":4027:4050  _msgSender() == _self() */\n      eq\n        /* \"diamonds/facets/FacetSafe.sol\":4019:4075  require(_msgSender() == _self(), 'FacetSafe: only self') */\n      tag_150\n      jumpi\n      mload(0x40)\n      shl(0xe5, 0x461bcd)\n      dup2\n      mstore\n        /* \"#utility.yul\":2961:2963   */\n      0x20\n        /* \"diamonds/facets/FacetSafe.sol\":4019:4075  require(_msgSender() == _self(), 'FacetSafe: only self') */\n      0x04\n      dup3\n      add\n        /* \"#utility.yul\":2943:2964   */\n      mstore\n        /* \"#utility.yul\":3000:3002   */\n      0x14\n        /* \"#utility.yul\":2980:2998   */\n      0x24\n      dup3\n      add\n        /* \"#utility.yul\":2973:3003   */\n      mstore\n      shl(0x61, 0x2330b1b2ba29b0b3329d1037b7363c9039b2b633)\n        /* \"#utility.yul\":3019:3037   */\n      0x44\n      dup3\n      add\n        /* \"#utility.yul\":3012:3062   */\n      mstore\n        /* \"#utility.yul\":3079:3097   */\n      0x64\n      add\n        /* \"diamonds/facets/FacetSafe.sol\":4019:4075  require(_msgSender() == _self(), 'FacetSafe: only self') */\n      tag_93\n        /* \"#utility.yul\":2759:3103   */\n      jump\n        /* \"diamonds/facets/FacetSafe.sol\":4019:4075  require(_msgSender() == _self(), 'FacetSafe: only self') */\n    tag_150:\n        /* \"diamonds/facets/FacetSafe.sol\":3966:4082  function _onlySelf() internal view virtual {... */\n      jump\t// out\n        /* \"imports/openzeppelin/utils/structs/EnumerableSet.sol\":8306:8456  function add(AddressSet storage set, address value) internal returns (bool) {... */\n    tag_84:\n        /* \"imports/openzeppelin/utils/structs/EnumerableSet.sol\":8376:8380  bool */\n      0x00\n        /* \"imports/openzeppelin/utils/structs/EnumerableSet.sol\":8399:8449  _add(set._inner, bytes32(uint256(uint160(value)))) */\n      tag_140\n        /* \"imports/openzeppelin/utils/structs/EnumerableSet.sol\":8404:8407  set */\n      dup4\n      sub(shl(0xa0, 0x01), 0x01)\n        /* \"imports/openzeppelin/utils/structs/EnumerableSet.sol\":8424:8447  uint256(uint160(value)) */\n      dup5\n      and\n        /* \"imports/openzeppelin/utils/structs/EnumerableSet.sol\":8399:8403  _add */\n      tag_155\n        /* \"imports/openzeppelin/utils/structs/EnumerableSet.sol\":8399:8449  _add(set._inner, bytes32(uint256(uint160(value)))) */\n      jump\t// in\n        /* \"imports/openzeppelin/utils/structs/EnumerableSet.sol\":10260:10560  function values(AddressSet storage set) internal view returns (address[] memory) {... */\n    tag_89:\n        /* \"imports/openzeppelin/utils/structs/EnumerableSet.sol\":10323:10339  address[] memory */\n      0x60\n        /* \"imports/openzeppelin/utils/structs/EnumerableSet.sol\":10351:10373  bytes32[] memory store */\n      0x00\n        /* \"imports/openzeppelin/utils/structs/EnumerableSet.sol\":10376:10395  _values(set._inner) */\n      tag_140\n        /* \"imports/openzeppelin/utils/structs/EnumerableSet.sol\":10384:10387  set */\n      dup4\n        /* \"imports/openzeppelin/utils/structs/EnumerableSet.sol\":10376:10383  _values */\n      tag_158\n        /* \"imports/openzeppelin/utils/structs/EnumerableSet.sol\":10376:10395  _values(set._inner) */\n      jump\t// in\n        /* \"diamonds/facets/FacetSafe.sol\":5813:6228  function _withdraw(address to, uint amountOut) internal virtual {... */\n    tag_99:\n        /* \"diamonds/facets/FacetSafe.sol\":5887:5914  _onlyAllowedOut(address(0)) */\n      tag_160\n        /* \"diamonds/facets/FacetSafe.sol\":5911:5912  0 */\n      0x00\n        /* \"diamonds/facets/FacetSafe.sol\":5887:5902  _onlyAllowedOut */\n      tag_161\n        /* \"diamonds/facets/FacetSafe.sol\":5887:5914  _onlyAllowedOut(address(0)) */\n      jump\t// in\n    tag_160:\n        /* \"diamonds/facets/FacetSafe.sol\":5924:5976  _onlySelfHasSufficientBalance(address(0), amountOut) */\n      tag_162\n        /* \"diamonds/facets/FacetSafe.sol\":5962:5963  0 */\n      0x00\n        /* \"diamonds/facets/FacetSafe.sol\":5966:5975  amountOut */\n      dup3\n        /* \"diamonds/facets/FacetSafe.sol\":5924:5953  _onlySelfHasSufficientBalance */\n      tag_163\n        /* \"diamonds/facets/FacetSafe.sol\":5924:5976  _onlySelfHasSufficientBalance(address(0), amountOut) */\n      jump\t// in\n    tag_162:\n        /* \"diamonds/facets/FacetSafe.sol\":6017:6026  amountOut */\n      dup1\n        /* \"diamonds/facets/FacetSafe.sol\":5986:5992  safe() */\n      tag_164\n        /* \"diamonds/facets/FacetSafe.sol\":5986:5990  safe */\n      tag_73\n        /* \"diamonds/facets/FacetSafe.sol\":5986:5992  safe() */\n      jump\t// in\n    tag_164:\n        /* \"diamonds/facets/FacetSafe.sol\":5986:6001  safe().balances */\n      0x00\n        /* \"diamonds/facets/FacetSafe.sol\":5986:6013  safe().balances[address(0)] */\n      dup1\n      dup1\n      mstore\n      0x20\n      swap2\n      swap1\n      swap2\n      mstore\n      0x40\n      dup2\n      keccak256\n        /* \"diamonds/facets/FacetSafe.sol\":5986:6026  safe().balances[address(0)] -= amountOut */\n      dup1\n      sload\n        /* \"diamonds/facets/FacetSafe.sol\":5986:6013  safe().balances[address(0)] */\n      swap1\n      swap2\n        /* \"diamonds/facets/FacetSafe.sol\":5986:6001  safe().balances */\n      swap1\n        /* \"diamonds/facets/FacetSafe.sol\":5986:6026  safe().balances[address(0)] -= amountOut */\n      tag_165\n      swap1\n      dup5\n      swap1\n      tag_166\n      jump\t// in\n    tag_165:\n      swap1\n      swap2\n      sstore\n      pop\n        /* \"diamonds/facets/FacetSafe.sol\":6040:6046  safe() */\n      tag_167\n      swap1\n      pop\n        /* \"diamonds/facets/FacetSafe.sol\":6040:6044  safe */\n      tag_73\n        /* \"diamonds/facets/FacetSafe.sol\":6040:6046  safe() */\n      jump\t// in\n    tag_167:\n        /* \"diamonds/facets/FacetSafe.sol\":6040:6055  safe().balances */\n      0x00\n        /* \"diamonds/facets/FacetSafe.sol\":6040:6067  safe().balances[address(0)] */\n      dup1\n      dup1\n      mstore\n      0x20\n      swap2\n      swap1\n      swap2\n      mstore\n      0x40\n      dup2\n      keccak256\n      sload\n        /* \"diamonds/facets/FacetSafe.sol\":6040:6072  safe().balances[address(0)] == 0 */\n      swap1\n      sub\n        /* \"diamonds/facets/FacetSafe.sol\":6036:6131  if (safe().balances[address(0)] == 0) {... */\n      tag_168\n      jumpi\n        /* \"diamonds/facets/FacetSafe.sol\":6088:6120  safe().onHand.remove(address(0)) */\n      tag_169\n        /* \"diamonds/facets/FacetSafe.sol\":6117:6118  0 */\n      0x00\n        /* \"diamonds/facets/FacetSafe.sol\":6088:6094  safe() */\n      tag_170\n        /* \"diamonds/facets/FacetSafe.sol\":6088:6092  safe */\n      tag_73\n        /* \"diamonds/facets/FacetSafe.sol\":6088:6094  safe() */\n      jump\t// in\n    tag_170:\n        /* \"diamonds/facets/FacetSafe.sol\":6088:6101  safe().onHand */\n      0x05\n      add\n      swap1\n        /* \"diamonds/facets/FacetSafe.sol\":6088:6108  safe().onHand.remove */\n      tag_128\n        /* \"diamonds/facets/FacetSafe.sol\":6088:6120  safe().onHand.remove(address(0)) */\n      jump\t// in\n    tag_169:\n      pop\n        /* \"diamonds/facets/FacetSafe.sol\":6036:6131  if (safe().balances[address(0)] == 0) {... */\n    tag_168:\n        /* \"diamonds/facets/FacetSafe.sol\":6140:6171  payable(to).transfer(amountOut) */\n      mload(0x40)\n      sub(shl(0xa0, 0x01), 0x01)\n        /* \"diamonds/facets/FacetSafe.sol\":6140:6160  payable(to).transfer */\n      dup4\n      and\n      swap1\n        /* \"diamonds/facets/FacetSafe.sol\":6140:6171  payable(to).transfer(amountOut) */\n      dup3\n      iszero\n      0x08fc\n      mul\n      swap1\n        /* \"diamonds/facets/FacetSafe.sol\":6161:6170  amountOut */\n      dup4\n      swap1\n        /* \"diamonds/facets/FacetSafe.sol\":6140:6171  payable(to).transfer(amountOut) */\n      0x00\n      dup2\n      dup2\n      dup2\n        /* \"diamonds/facets/FacetSafe.sol\":6161:6170  amountOut */\n      dup6\n        /* \"diamonds/facets/FacetSafe.sol\":6140:6160  payable(to).transfer */\n      dup9\n        /* \"diamonds/facets/FacetSafe.sol\":6140:6171  payable(to).transfer(amountOut) */\n      dup9\n      call\n      swap4\n      pop\n      pop\n      pop\n      pop\n      iszero\n      dup1\n      iszero\n      tag_172\n      jumpi\n      returndatasize\n      0x00\n      dup1\n      returndatacopy\n      revert(0x00, returndatasize)\n    tag_172:\n      pop\n        /* \"diamonds/facets/FacetSafe.sol\":6186:6221  Withdraw(to, address(0), amountOut) */\n      0x40\n      dup1\n      mload\n      sub(shl(0xa0, 0x01), 0x01)\n        /* \"#utility.yul\":3631:3646   */\n      dup5\n      and\n        /* \"#utility.yul\":3613:3647   */\n      dup2\n      mstore\n        /* \"diamonds/facets/FacetSafe.sol\":6207:6208  0 */\n      0x00\n        /* \"#utility.yul\":3678:3680   */\n      0x20\n        /* \"#utility.yul\":3663:3681   */\n      dup3\n      add\n        /* \"#utility.yul\":3656:3699   */\n      mstore\n        /* \"#utility.yul\":3715:3733   */\n      swap1\n      dup2\n      add\n        /* \"#utility.yul\":3708:3742   */\n      dup3\n      swap1\n      mstore\n        /* \"diamonds/facets/FacetSafe.sol\":6186:6221  Withdraw(to, address(0), amountOut) */\n      0x9b1bfa7fa9ee420a16e124f794c35ac9f90472acc99140eb2f6447c714cad8eb\n      swap1\n        /* \"#utility.yul\":3563:3565   */\n      0x60\n        /* \"#utility.yul\":3548:3566   */\n      add\n        /* \"diamonds/facets/FacetSafe.sol\":6186:6221  Withdraw(to, address(0), amountOut) */\n      mload(0x40)\n      dup1\n      swap2\n      sub\n      swap1\n      log1\n        /* \"diamonds/facets/FacetSafe.sol\":5813:6228  function _withdraw(address to, uint amountOut) internal virtual {... */\n      pop\n      pop\n      jump\t// out\n        /* \"diamonds/facets/FacetSafe.sol\":5067:5737  function _withdraw(address to, address tokenOut, uint amountOut) internal virtual {... */\n    tag_109:\n        /* \"diamonds/facets/FacetSafe.sol\":5181:5189  tokenOut */\n      dup2\n      sub(shl(0xa0, 0x01), 0x01)\n        /* \"diamonds/facets/FacetSafe.sol\":5208:5230  tokenOut != address(0) */\n      dup2\n      and\n        /* \"diamonds/facets/FacetSafe.sol\":5200:5265  require(tokenOut != address(0), 'FacetSafe: inapropriate method') */\n      tag_176\n      jumpi\n      mload(0x40)\n      shl(0xe5, 0x461bcd)\n      dup2\n      mstore\n        /* \"#utility.yul\":3955:3957   */\n      0x20\n        /* \"diamonds/facets/FacetSafe.sol\":5200:5265  require(tokenOut != address(0), 'FacetSafe: inapropriate method') */\n      0x04\n      dup3\n      add\n        /* \"#utility.yul\":3937:3958   */\n      mstore\n        /* \"#utility.yul\":3994:3996   */\n      0x1e\n        /* \"#utility.yul\":3974:3992   */\n      0x24\n      dup3\n      add\n        /* \"#utility.yul\":3967:3997   */\n      mstore\n        /* \"#utility.yul\":4033:4065   */\n      0x4661636574536166653a20696e6170726f707269617465206d6574686f640000\n        /* \"#utility.yul\":4013:4031   */\n      0x44\n      dup3\n      add\n        /* \"#utility.yul\":4006:4066   */\n      mstore\n        /* \"#utility.yul\":4083:4101   */\n      0x64\n      add\n        /* \"diamonds/facets/FacetSafe.sol\":5200:5265  require(tokenOut != address(0), 'FacetSafe: inapropriate method') */\n      tag_93\n        /* \"#utility.yul\":3753:4107   */\n      jump\n        /* \"diamonds/facets/FacetSafe.sol\":5200:5265  require(tokenOut != address(0), 'FacetSafe: inapropriate method') */\n    tag_176:\n        /* \"diamonds/facets/FacetSafe.sol\":5275:5300  _onlyAllowedOut(tokenOut) */\n      tag_179\n        /* \"diamonds/facets/FacetSafe.sol\":5291:5299  tokenOut */\n      dup4\n        /* \"diamonds/facets/FacetSafe.sol\":5275:5290  _onlyAllowedOut */\n      tag_161\n        /* \"diamonds/facets/FacetSafe.sol\":5275:5300  _onlyAllowedOut(tokenOut) */\n      jump\t// in\n    tag_179:\n        /* \"diamonds/facets/FacetSafe.sol\":5310:5360  _onlySelfHasSufficientBalance(tokenOut, amountOut) */\n      tag_180\n        /* \"diamonds/facets/FacetSafe.sol\":5340:5348  tokenOut */\n      dup4\n        /* \"diamonds/facets/FacetSafe.sol\":5350:5359  amountOut */\n      dup4\n        /* \"diamonds/facets/FacetSafe.sol\":5310:5339  _onlySelfHasSufficientBalance */\n      tag_163\n        /* \"diamonds/facets/FacetSafe.sol\":5310:5360  _onlySelfHasSufficientBalance(tokenOut, amountOut) */\n      jump\t// in\n    tag_180:\n        /* \"diamonds/facets/FacetSafe.sol\":5399:5408  amountOut */\n      dup2\n        /* \"diamonds/facets/FacetSafe.sol\":5370:5376  safe() */\n      tag_181\n        /* \"diamonds/facets/FacetSafe.sol\":5370:5374  safe */\n      tag_73\n        /* \"diamonds/facets/FacetSafe.sol\":5370:5376  safe() */\n      jump\t// in\n    tag_181:\n      sub(shl(0xa0, 0x01), 0x01)\n        /* \"diamonds/facets/FacetSafe.sol\":5370:5395  safe().balances[tokenOut] */\n      dup6\n      and\n        /* \"diamonds/facets/FacetSafe.sol\":5370:5385  safe().balances */\n      0x00\n        /* \"diamonds/facets/FacetSafe.sol\":5370:5395  safe().balances[tokenOut] */\n      swap1\n      dup2\n      mstore\n      0x20\n      swap2\n      swap1\n      swap2\n      mstore\n      0x40\n      dup2\n      keccak256\n        /* \"diamonds/facets/FacetSafe.sol\":5370:5408  safe().balances[tokenOut] -= amountOut */\n      dup1\n      sload\n        /* \"diamonds/facets/FacetSafe.sol\":5370:5395  safe().balances[tokenOut] */\n      swap1\n      swap2\n        /* \"diamonds/facets/FacetSafe.sol\":5370:5385  safe().balances */\n      swap1\n        /* \"diamonds/facets/FacetSafe.sol\":5370:5408  safe().balances[tokenOut] -= amountOut */\n      tag_182\n      swap1\n      dup5\n      swap1\n      tag_166\n      jump\t// in\n    tag_182:\n      swap1\n      swap2\n      sstore\n      pop\n        /* \"diamonds/facets/FacetSafe.sol\":5422:5428  safe() */\n      tag_183\n      swap1\n      pop\n        /* \"diamonds/facets/FacetSafe.sol\":5422:5426  safe */\n      tag_73\n        /* \"diamonds/facets/FacetSafe.sol\":5422:5428  safe() */\n      jump\t// in\n    tag_183:\n      sub(shl(0xa0, 0x01), 0x01)\n        /* \"diamonds/facets/FacetSafe.sol\":5422:5447  safe().balances[tokenOut] */\n      dup5\n      and\n        /* \"diamonds/facets/FacetSafe.sol\":5422:5437  safe().balances */\n      0x00\n        /* \"diamonds/facets/FacetSafe.sol\":5422:5447  safe().balances[tokenOut] */\n      swap1\n      dup2\n      mstore\n      0x20\n      swap2\n      swap1\n      swap2\n      mstore\n      0x40\n      dup2\n      keccak256\n      sload\n        /* \"diamonds/facets/FacetSafe.sol\":5422:5452  safe().balances[tokenOut] == 0 */\n      swap1\n      sub\n        /* \"diamonds/facets/FacetSafe.sol\":5418:5509  if (safe().balances[tokenOut] == 0) {... */\n      tag_184\n      jumpi\n        /* \"diamonds/facets/FacetSafe.sol\":5468:5498  safe().onHand.remove(tokenOut) */\n      tag_185\n        /* \"diamonds/facets/FacetSafe.sol\":5489:5497  tokenOut */\n      dup4\n        /* \"diamonds/facets/FacetSafe.sol\":5468:5474  safe() */\n      tag_170\n        /* \"diamonds/facets/FacetSafe.sol\":5468:5472  safe */\n      tag_73\n        /* \"diamonds/facets/FacetSafe.sol\":5468:5474  safe() */\n      jump\t// in\n        /* \"diamonds/facets/FacetSafe.sol\":5468:5498  safe().onHand.remove(tokenOut) */\n    tag_185:\n      pop\n        /* \"diamonds/facets/FacetSafe.sol\":5418:5509  if (safe().balances[tokenOut] == 0) {... */\n    tag_184:\n        /* \"diamonds/facets/FacetSafe.sol\":5603:5608  token */\n      dup1\n      sub(shl(0xa0, 0x01), 0x01)\n        /* \"diamonds/facets/FacetSafe.sol\":5603:5617  token.transfer */\n      and\n      0xa9059cbb\n        /* \"diamonds/facets/FacetSafe.sol\":5618:5620  to */\n      dup6\n        /* \"diamonds/facets/FacetSafe.sol\":5622:5681  amountOut.native(IERC20Metadata(address(token)).decimals()) */\n      tag_187\n        /* \"diamonds/facets/FacetSafe.sol\":5662:5667  token */\n      dup5\n      sub(shl(0xa0, 0x01), 0x01)\n        /* \"diamonds/facets/FacetSafe.sol\":5639:5678  IERC20Metadata(address(token)).decimals */\n      and\n      0x313ce567\n        /* \"diamonds/facets/FacetSafe.sol\":5639:5680  IERC20Metadata(address(token)).decimals() */\n      mload(0x40)\n      dup2\n      0xffffffff\n      and\n      0xe0\n      shl\n      dup2\n      mstore\n      0x04\n      add\n      0x20\n      mload(0x40)\n      dup1\n      dup4\n      sub\n      dup2\n      dup7\n      gas\n      staticcall\n      iszero\n      dup1\n      iszero\n      tag_189\n      jumpi\n      returndatasize\n      0x00\n      dup1\n      returndatacopy\n      revert(0x00, returndatasize)\n    tag_189:\n      pop\n      pop\n      pop\n      pop\n      mload(0x40)\n      returndatasize\n      not(0x1f)\n      0x1f\n      dup3\n      add\n      and\n      dup3\n      add\n      dup1\n      0x40\n      mstore\n      pop\n      dup2\n      add\n      swap1\n      tag_190\n      swap2\n      swap1\n      tag_191\n      jump\t// in\n    tag_190:\n        /* \"diamonds/facets/FacetSafe.sol\":5622:5631  amountOut */\n      dup7\n      swap1\n        /* \"diamonds/facets/FacetSafe.sol\":5622:5638  amountOut.native */\n      tag_192\n        /* \"diamonds/facets/FacetSafe.sol\":5622:5681  amountOut.native(IERC20Metadata(address(token)).decimals()) */\n      jump\t// in\n    tag_187:\n        /* \"diamonds/facets/FacetSafe.sol\":5603:5682  token.transfer(to, amountOut.native(IERC20Metadata(address(token)).decimals())) */\n      mload(0x40)\n      not(sub(shl(0xe0, 0x01), 0x01))\n      0xe0\n      dup6\n      swap1\n      shl\n      and\n      dup2\n      mstore\n      sub(shl(0xa0, 0x01), 0x01)\n        /* \"#utility.yul\":4582:4614   */\n      swap1\n      swap3\n      and\n        /* \"diamonds/facets/FacetSafe.sol\":5603:5682  token.transfer(to, amountOut.native(IERC20Metadata(address(token)).decimals())) */\n      0x04\n      dup4\n      add\n        /* \"#utility.yul\":4564:4615   */\n      mstore\n        /* \"#utility.yul\":4631:4649   */\n      0x24\n      dup3\n      add\n        /* \"#utility.yul\":4624:4658   */\n      mstore\n        /* \"#utility.yul\":4537:4555   */\n      0x44\n      add\n        /* \"diamonds/facets/FacetSafe.sol\":5603:5682  token.transfer(to, amountOut.native(IERC20Metadata(address(token)).decimals())) */\n      0x20\n      mload(0x40)\n      dup1\n      dup4\n      sub\n      dup2\n      0x00\n      dup8\n      gas\n      call\n      iszero\n      dup1\n      iszero\n      tag_196\n      jumpi\n      returndatasize\n      0x00\n      dup1\n      returndatacopy\n      revert(0x00, returndatasize)\n    tag_196:\n      pop\n      pop\n      pop\n      pop\n      mload(0x40)\n      returndatasize\n      not(0x1f)\n      0x1f\n      dup3\n      add\n      and\n      dup3\n      add\n      dup1\n      0x40\n      mstore\n      pop\n      dup2\n      add\n      swap1\n      tag_197\n      swap2\n      swap1\n      tag_198\n      jump\t// in\n    tag_197:\n      pop\n        /* \"diamonds/facets/FacetSafe.sol\":5697:5730  Withdraw(to, tokenOut, amountOut) */\n      0x40\n      dup1\n      mload\n      sub(shl(0xa0, 0x01), 0x01)\n        /* \"#utility.yul\":3631:3646   */\n      dup1\n      dup8\n      and\n        /* \"#utility.yul\":3613:3647   */\n      dup3\n      mstore\n        /* \"#utility.yul\":3683:3698   */\n      dup6\n      and\n        /* \"#utility.yul\":3678:3680   */\n      0x20\n        /* \"#utility.yul\":3663:3681   */\n      dup3\n      add\n        /* \"#utility.yul\":3656:3699   */\n      mstore\n        /* \"#utility.yul\":3715:3733   */\n      swap1\n      dup2\n      add\n        /* \"#utility.yul\":3708:3742   */\n      dup4\n      swap1\n      mstore\n        /* \"diamonds/facets/FacetSafe.sol\":5697:5730  Withdraw(to, tokenOut, amountOut) */\n      0x9b1bfa7fa9ee420a16e124f794c35ac9f90472acc99140eb2f6447c714cad8eb\n      swap1\n        /* \"#utility.yul\":3563:3565   */\n      0x60\n        /* \"#utility.yul\":3548:3566   */\n      add\n        /* \"diamonds/facets/FacetSafe.sol\":5697:5730  Withdraw(to, tokenOut, amountOut) */\n      mload(0x40)\n      dup1\n      swap2\n      sub\n      swap1\n      log1\n        /* \"diamonds/facets/FacetSafe.sol\":5149:5737  {... */\n      pop\n        /* \"diamonds/facets/FacetSafe.sol\":5067:5737  function _withdraw(address to, address tokenOut, uint amountOut) internal virtual {... */\n      pop\n      pop\n      pop\n      jump\t// out\n        /* \"imports/openzeppelin/utils/structs/EnumerableSet.sol\":8624:8780  function remove(AddressSet storage set, address value) internal returns (bool) {... */\n    tag_128:\n        /* \"imports/openzeppelin/utils/structs/EnumerableSet.sol\":8697:8701  bool */\n      0x00\n        /* \"imports/openzeppelin/utils/structs/EnumerableSet.sol\":8720:8773  _remove(set._inner, bytes32(uint256(uint160(value)))) */\n      tag_140\n        /* \"imports/openzeppelin/utils/structs/EnumerableSet.sol\":8728:8731  set */\n      dup4\n      sub(shl(0xa0, 0x01), 0x01)\n        /* \"imports/openzeppelin/utils/structs/EnumerableSet.sol\":8748:8771  uint256(uint160(value)) */\n      dup5\n      and\n        /* \"imports/openzeppelin/utils/structs/EnumerableSet.sol\":8720:8727  _remove */\n      tag_202\n        /* \"imports/openzeppelin/utils/structs/EnumerableSet.sol\":8720:8773  _remove(set._inner, bytes32(uint256(uint160(value)))) */\n      jump\t// in\n        /* \"imports/openzeppelin/utils/structs/EnumerableSet.sol\":4913:5031  function _at(Set storage set, uint256 index) private view returns (bytes32) {... */\n    tag_141:\n        /* \"imports/openzeppelin/utils/structs/EnumerableSet.sol\":4980:4987  bytes32 */\n      0x00\n        /* \"imports/openzeppelin/utils/structs/EnumerableSet.sol\":5006:5009  set */\n      dup3\n        /* \"imports/openzeppelin/utils/structs/EnumerableSet.sol\":5006:5017  set._values */\n      0x00\n      add\n        /* \"imports/openzeppelin/utils/structs/EnumerableSet.sol\":5018:5023  index */\n      dup3\n        /* \"imports/openzeppelin/utils/structs/EnumerableSet.sol\":5006:5024  set._values[index] */\n      dup2\n      sload\n      dup2\n      lt\n      tag_205\n      jumpi\n      tag_205\n      tag_206\n      jump\t// in\n    tag_205:\n      swap1\n      0x00\n      mstore\n      keccak256(0x00, 0x20)\n      add\n      sload\n        /* \"imports/openzeppelin/utils/structs/EnumerableSet.sol\":4999:5024  return set._values[index] */\n      swap1\n      pop\n        /* \"imports/openzeppelin/utils/structs/EnumerableSet.sol\":4913:5031  function _at(Set storage set, uint256 index) private view returns (bytes32) {... */\n      swap3\n      swap2\n      pop\n      pop\n      jump\t// out\n        /* \"imports/openzeppelin/utils/structs/EnumerableSet.sol\":2215:2619  function _add(Set storage set, bytes32 value) private returns (bool) {... */\n    tag_155:\n        /* \"imports/openzeppelin/utils/structs/EnumerableSet.sol\":2278:2282  bool */\n      0x00\n        /* \"imports/openzeppelin/utils/structs/EnumerableSet.sol\":4352:4371  set._indexes[value] */\n      dup2\n      dup2\n      mstore\n        /* \"imports/openzeppelin/utils/structs/EnumerableSet.sol\":4352:4364  set._indexes */\n      0x01\n      dup4\n      add\n        /* \"imports/openzeppelin/utils/structs/EnumerableSet.sol\":4352:4371  set._indexes[value] */\n      0x20\n      mstore\n      0x40\n      dup2\n      keccak256\n      sload\n        /* \"imports/openzeppelin/utils/structs/EnumerableSet.sol\":2294:2613  if (!_contains(set, value)) {... */\n      tag_213\n      jumpi\n      pop\n        /* \"imports/openzeppelin/utils/structs/EnumerableSet.sol\":2336:2359  set._values.push(value) */\n      dup2\n      sload\n      0x01\n      dup2\n      dup2\n      add\n      dup5\n      sstore\n        /* \"imports/openzeppelin/utils/structs/EnumerableSet.sol\":2336:2347  set._values */\n      0x00\n        /* \"imports/openzeppelin/utils/structs/EnumerableSet.sol\":2336:2359  set._values.push(value) */\n      dup5\n      dup2\n      mstore\n      0x20\n      dup1\n      dup3\n      keccak256\n      swap1\n      swap4\n      add\n      dup5\n      swap1\n      sstore\n        /* \"imports/openzeppelin/utils/structs/EnumerableSet.sol\":2516:2534  set._values.length */\n      dup5\n      sload\n        /* \"imports/openzeppelin/utils/structs/EnumerableSet.sol\":2494:2513  set._indexes[value] */\n      dup5\n      dup3\n      mstore\n        /* \"imports/openzeppelin/utils/structs/EnumerableSet.sol\":2494:2506  set._indexes */\n      dup3\n      dup7\n      add\n        /* \"imports/openzeppelin/utils/structs/EnumerableSet.sol\":2494:2513  set._indexes[value] */\n      swap1\n      swap4\n      mstore\n      0x40\n      swap1\n      keccak256\n        /* \"imports/openzeppelin/utils/structs/EnumerableSet.sol\":2494:2534  set._indexes[value] = set._values.length */\n      swap2\n      swap1\n      swap2\n      sstore\n        /* \"imports/openzeppelin/utils/structs/EnumerableSet.sol\":2548:2559  return true */\n      jump(tag_71)\n        /* \"imports/openzeppelin/utils/structs/EnumerableSet.sol\":2294:2613  if (!_contains(set, value)) {... */\n    tag_213:\n      pop\n        /* \"imports/openzeppelin/utils/structs/EnumerableSet.sol\":2597:2602  false */\n      0x00\n        /* \"imports/openzeppelin/utils/structs/EnumerableSet.sol\":2590:2602  return false */\n      jump(tag_71)\n        /* \"imports/openzeppelin/utils/structs/EnumerableSet.sol\":5571:5680  function _values(Set storage set) private view returns (bytes32[] memory) {... */\n    tag_158:\n        /* \"imports/openzeppelin/utils/structs/EnumerableSet.sol\":5627:5643  bytes32[] memory */\n      0x60\n        /* \"imports/openzeppelin/utils/structs/EnumerableSet.sol\":5662:5665  set */\n      dup2\n        /* \"imports/openzeppelin/utils/structs/EnumerableSet.sol\":5662:5673  set._values */\n      0x00\n      add\n        /* \"imports/openzeppelin/utils/structs/EnumerableSet.sol\":5655:5673  return set._values */\n      dup1\n      sload\n      dup1\n      0x20\n      mul\n      0x20\n      add\n      mload(0x40)\n      swap1\n      dup2\n      add\n      0x40\n      mstore\n      dup1\n      swap3\n      swap2\n      swap1\n      dup2\n      dup2\n      mstore\n      0x20\n      add\n      dup3\n      dup1\n      sload\n      dup1\n      iszero\n      tag_217\n      jumpi\n      0x20\n      mul\n      dup3\n      add\n      swap2\n      swap1\n      0x00\n      mstore\n      keccak256(0x00, 0x20)\n      swap1\n    tag_218:\n      dup2\n      sload\n      dup2\n      mstore\n      0x20\n      add\n      swap1\n      0x01\n      add\n      swap1\n      dup1\n      dup4\n      gt\n      tag_218\n      jumpi\n    tag_217:\n      pop\n      pop\n      pop\n      pop\n      pop\n      swap1\n      pop\n        /* \"imports/openzeppelin/utils/structs/EnumerableSet.sol\":5571:5680  function _values(Set storage set) private view returns (bytes32[] memory) {... */\n      swap2\n      swap1\n      pop\n      jump\t// out\n        /* \"diamonds/facets/FacetSafe.sol\":3217:3363  function _onlyAllowedOut(address token) internal view virtual {... */\n    tag_161:\n        /* \"diamonds/facets/FacetSafe.sol\":3297:3316  isAllowedOut(token) */\n      tag_220\n        /* \"diamonds/facets/FacetSafe.sol\":3310:3315  token */\n      dup2\n        /* \"diamonds/facets/FacetSafe.sol\":3297:3309  isAllowedOut */\n      tag_27\n        /* \"diamonds/facets/FacetSafe.sol\":3297:3316  isAllowedOut(token) */\n      jump\t// in\n    tag_220:\n        /* \"diamonds/facets/FacetSafe.sol\":3289:3356  require(isAllowedOut(token), 'FacetSafe: token is not allowed out') */\n      tag_221\n      jumpi\n      mload(0x40)\n      shl(0xe5, 0x461bcd)\n      dup2\n      mstore\n        /* \"#utility.yul\":5285:5287   */\n      0x20\n        /* \"diamonds/facets/FacetSafe.sol\":3289:3356  require(isAllowedOut(token), 'FacetSafe: token is not allowed out') */\n      0x04\n      dup3\n      add\n        /* \"#utility.yul\":5267:5288   */\n      mstore\n        /* \"#utility.yul\":5324:5326   */\n      0x23\n        /* \"#utility.yul\":5304:5322   */\n      0x24\n      dup3\n      add\n        /* \"#utility.yul\":5297:5327   */\n      mstore\n        /* \"#utility.yul\":5363:5397   */\n      0x4661636574536166653a20746f6b656e206973206e6f7420616c6c6f77656420\n        /* \"#utility.yul\":5343:5361   */\n      0x44\n      dup3\n      add\n        /* \"#utility.yul\":5336:5398   */\n      mstore\n      shl(0xea, 0x1bdd5d)\n        /* \"#utility.yul\":5414:5432   */\n      0x64\n      dup3\n      add\n        /* \"#utility.yul\":5407:5440   */\n      mstore\n        /* \"#utility.yul\":5457:5476   */\n      0x84\n      add\n        /* \"diamonds/facets/FacetSafe.sol\":3289:3356  require(isAllowedOut(token), 'FacetSafe: token is not allowed out') */\n      tag_93\n        /* \"#utility.yul\":5083:5482   */\n      jump\n        /* \"diamonds/facets/FacetSafe.sol\":3289:3356  require(isAllowedOut(token), 'FacetSafe: token is not allowed out') */\n    tag_221:\n        /* \"diamonds/facets/FacetSafe.sol\":3217:3363  function _onlyAllowedOut(address token) internal view virtual {... */\n      pop\n      jump\t// out\n        /* \"diamonds/facets/FacetSafe.sol\":3778:3960  function _onlySelfHasSufficientBalance(address token, uint amount) internal view virtual {... */\n    tag_163:\n        /* \"diamonds/facets/FacetSafe.sol\":3911:3917  amount */\n      dup1\n        /* \"diamonds/facets/FacetSafe.sol\":3885:3891  safe() */\n      tag_225\n        /* \"diamonds/facets/FacetSafe.sol\":3885:3889  safe */\n      tag_73\n        /* \"diamonds/facets/FacetSafe.sol\":3885:3891  safe() */\n      jump\t// in\n    tag_225:\n      sub(shl(0xa0, 0x01), 0x01)\n        /* \"diamonds/facets/FacetSafe.sol\":3885:3907  safe().balances[token] */\n      dup5\n      and\n        /* \"diamonds/facets/FacetSafe.sol\":3885:3900  safe().balances */\n      0x00\n        /* \"diamonds/facets/FacetSafe.sol\":3885:3907  safe().balances[token] */\n      swap1\n      dup2\n      mstore\n      0x20\n      swap2\n      swap1\n      swap2\n      mstore\n      0x40\n      swap1\n      keccak256\n      sload\n        /* \"diamonds/facets/FacetSafe.sol\":3885:3917  safe().balances[token] >= amount */\n      lt\n      iszero\n        /* \"diamonds/facets/FacetSafe.sol\":3877:3953  require(safe().balances[token] >= amount, 'FacetSafe: insufficient balance') */\n      tag_226\n      jumpi\n      mload(0x40)\n      shl(0xe5, 0x461bcd)\n      dup2\n      mstore\n        /* \"#utility.yul\":5689:5691   */\n      0x20\n        /* \"diamonds/facets/FacetSafe.sol\":3877:3953  require(safe().balances[token] >= amount, 'FacetSafe: insufficient balance') */\n      0x04\n      dup3\n      add\n        /* \"#utility.yul\":5671:5692   */\n      mstore\n        /* \"#utility.yul\":5728:5730   */\n      0x1f\n        /* \"#utility.yul\":5708:5726   */\n      0x24\n      dup3\n      add\n        /* \"#utility.yul\":5701:5731   */\n      mstore\n        /* \"#utility.yul\":5767:5800   */\n      0x4661636574536166653a20696e73756666696369656e742062616c616e636500\n        /* \"#utility.yul\":5747:5765   */\n      0x44\n      dup3\n      add\n        /* \"#utility.yul\":5740:5801   */\n      mstore\n        /* \"#utility.yul\":5818:5836   */\n      0x64\n      add\n        /* \"diamonds/facets/FacetSafe.sol\":3877:3953  require(safe().balances[token] >= amount, 'FacetSafe: insufficient balance') */\n      tag_93\n        /* \"#utility.yul\":5487:5842   */\n      jump\n        /* \"diamonds/facets/FacetSafe.sol\":3877:3953  require(safe().balances[token] >= amount, 'FacetSafe: insufficient balance') */\n    tag_226:\n        /* \"diamonds/facets/FacetSafe.sol\":3778:3960  function _onlySelfHasSufficientBalance(address token, uint amount) internal view virtual {... */\n      pop\n      pop\n      jump\t// out\n        /* \"libraries/Uint.sol\":76:228  function native(uint num, uint8 decimals) internal pure returns (uint) {... */\n    tag_192:\n        /* \"libraries/Uint.sol\":141:145  uint */\n      0x00\n        /* \"libraries/Uint.sol\":214:220  10**18 */\n      0x0de0b6b3a7640000\n        /* \"libraries/Uint.sol\":196:208  10**decimals */\n      tag_230\n        /* \"libraries/Uint.sol\":200:208  decimals */\n      dup4\n        /* \"libraries/Uint.sol\":196:198  10 */\n      0x0a\n        /* \"libraries/Uint.sol\":196:208  10**decimals */\n      tag_231\n      jump\t// in\n    tag_230:\n        /* \"libraries/Uint.sol\":184:190  10**18 */\n      0x0de0b6b3a7640000\n        /* \"libraries/Uint.sol\":166:180  num * (10**18) */\n      tag_232\n        /* \"libraries/Uint.sol\":166:169  num */\n      dup7\n        /* \"libraries/Uint.sol\":184:190  10**18 */\n      dup3\n        /* \"libraries/Uint.sol\":166:180  num * (10**18) */\n      tag_233\n      jump\t// in\n    tag_232:\n        /* \"libraries/Uint.sol\":166:191  num * (10**18) / (10**18) */\n      tag_234\n      swap2\n      swap1\n      tag_235\n      jump\t// in\n    tag_234:\n        /* \"libraries/Uint.sol\":165:209  (num * (10**18) / (10**18)) * (10**decimals) */\n      tag_236\n      swap2\n      swap1\n      tag_233\n      jump\t// in\n    tag_236:\n        /* \"libraries/Uint.sol\":164:221  ((num * (10**18) / (10**18)) * (10**decimals)) / (10**18) */\n      tag_140\n      swap2\n      swap1\n      tag_235\n      jump\t// in\n        /* \"imports/openzeppelin/utils/structs/EnumerableSet.sol\":2787:4175  function _remove(Set storage set, bytes32 value) private returns (bool) {... */\n    tag_202:\n        /* \"imports/openzeppelin/utils/structs/EnumerableSet.sol\":2853:2857  bool */\n      0x00\n        /* \"imports/openzeppelin/utils/structs/EnumerableSet.sol\":2990:3009  set._indexes[value] */\n      dup2\n      dup2\n      mstore\n        /* \"imports/openzeppelin/utils/structs/EnumerableSet.sol\":2990:3002  set._indexes */\n      0x01\n      dup4\n      add\n        /* \"imports/openzeppelin/utils/structs/EnumerableSet.sol\":2990:3009  set._indexes[value] */\n      0x20\n      mstore\n      0x40\n      dup2\n      keccak256\n      sload\n        /* \"imports/openzeppelin/utils/structs/EnumerableSet.sol\":3024:3039  valueIndex != 0 */\n      dup1\n      iszero\n        /* \"imports/openzeppelin/utils/structs/EnumerableSet.sol\":3020:4169  if (valueIndex != 0) {... */\n      tag_239\n      jumpi\n        /* \"imports/openzeppelin/utils/structs/EnumerableSet.sol\":3393:3414  uint256 toDeleteIndex */\n      0x00\n        /* \"imports/openzeppelin/utils/structs/EnumerableSet.sol\":3417:3431  valueIndex - 1 */\n      tag_240\n        /* \"imports/openzeppelin/utils/structs/EnumerableSet.sol\":3430:3431  1 */\n      0x01\n        /* \"imports/openzeppelin/utils/structs/EnumerableSet.sol\":3417:3427  valueIndex */\n      dup4\n        /* \"imports/openzeppelin/utils/structs/EnumerableSet.sol\":3417:3431  valueIndex - 1 */\n      tag_166\n      jump\t// in\n    tag_240:\n        /* \"imports/openzeppelin/utils/structs/EnumerableSet.sol\":3465:3483  set._values.length */\n      dup6\n      sload\n        /* \"imports/openzeppelin/utils/structs/EnumerableSet.sol\":3393:3431  uint256 toDeleteIndex = valueIndex - 1 */\n      swap1\n      swap2\n      pop\n        /* \"imports/openzeppelin/utils/structs/EnumerableSet.sol\":3445:3462  uint256 lastIndex */\n      0x00\n      swap1\n        /* \"imports/openzeppelin/utils/structs/EnumerableSet.sol\":3465:3487  set._values.length - 1 */\n      tag_241\n      swap1\n        /* \"imports/openzeppelin/utils/structs/EnumerableSet.sol\":3486:3487  1 */\n      0x01\n      swap1\n        /* \"imports/openzeppelin/utils/structs/EnumerableSet.sol\":3465:3487  set._values.length - 1 */\n      tag_166\n      jump\t// in\n    tag_241:\n        /* \"imports/openzeppelin/utils/structs/EnumerableSet.sol\":3445:3487  uint256 lastIndex = set._values.length - 1 */\n      swap1\n      pop\n        /* \"imports/openzeppelin/utils/structs/EnumerableSet.sol\":3519:3532  toDeleteIndex */\n      dup2\n        /* \"imports/openzeppelin/utils/structs/EnumerableSet.sol\":3506:3515  lastIndex */\n      dup2\n        /* \"imports/openzeppelin/utils/structs/EnumerableSet.sol\":3506:3532  lastIndex != toDeleteIndex */\n      eq\n        /* \"imports/openzeppelin/utils/structs/EnumerableSet.sol\":3502:3900  if (lastIndex != toDeleteIndex) {... */\n      tag_242\n      jumpi\n        /* \"imports/openzeppelin/utils/structs/EnumerableSet.sol\":3552:3569  bytes32 lastValue */\n      0x00\n        /* \"imports/openzeppelin/utils/structs/EnumerableSet.sol\":3572:3575  set */\n      dup7\n        /* \"imports/openzeppelin/utils/structs/EnumerableSet.sol\":3572:3583  set._values */\n      0x00\n      add\n        /* \"imports/openzeppelin/utils/structs/EnumerableSet.sol\":3584:3593  lastIndex */\n      dup3\n        /* \"imports/openzeppelin/utils/structs/EnumerableSet.sol\":3572:3594  set._values[lastIndex] */\n      dup2\n      sload\n      dup2\n      lt\n      tag_244\n      jumpi\n      tag_244\n      tag_206\n      jump\t// in\n    tag_244:\n      swap1\n      0x00\n      mstore\n      keccak256(0x00, 0x20)\n      add\n      sload\n        /* \"imports/openzeppelin/utils/structs/EnumerableSet.sol\":3552:3594  bytes32 lastValue = set._values[lastIndex] */\n      swap1\n      pop\n        /* \"imports/openzeppelin/utils/structs/EnumerableSet.sol\":3723:3732  lastValue */\n      dup1\n        /* \"imports/openzeppelin/utils/structs/EnumerableSet.sol\":3694:3697  set */\n      dup8\n        /* \"imports/openzeppelin/utils/structs/EnumerableSet.sol\":3694:3705  set._values */\n      0x00\n      add\n        /* \"imports/openzeppelin/utils/structs/EnumerableSet.sol\":3706:3719  toDeleteIndex */\n      dup5\n        /* \"imports/openzeppelin/utils/structs/EnumerableSet.sol\":3694:3720  set._values[toDeleteIndex] */\n      dup2\n      sload\n      dup2\n      lt\n      tag_247\n      jumpi\n      tag_247\n      tag_206\n      jump\t// in\n    tag_247:\n      0x00\n      swap2\n      dup3\n      mstore\n      0x20\n      dup1\n      dup4\n      keccak256\n      swap1\n      swap2\n      add\n        /* \"imports/openzeppelin/utils/structs/EnumerableSet.sol\":3694:3732  set._values[toDeleteIndex] = lastValue */\n      swap3\n      swap1\n      swap3\n      sstore\n        /* \"imports/openzeppelin/utils/structs/EnumerableSet.sol\":3806:3829  set._indexes[lastValue] */\n      swap2\n      dup3\n      mstore\n        /* \"imports/openzeppelin/utils/structs/EnumerableSet.sol\":3806:3818  set._indexes */\n      0x01\n      dup9\n      add\n        /* \"imports/openzeppelin/utils/structs/EnumerableSet.sol\":3806:3829  set._indexes[lastValue] */\n      swap1\n      mstore\n      0x40\n      swap1\n      keccak256\n        /* \"imports/openzeppelin/utils/structs/EnumerableSet.sol\":3806:3842  set._indexes[lastValue] = valueIndex */\n      dup4\n      swap1\n      sstore\n        /* \"imports/openzeppelin/utils/structs/EnumerableSet.sol\":3502:3900  if (lastIndex != toDeleteIndex) {... */\n    tag_242:\n        /* \"imports/openzeppelin/utils/structs/EnumerableSet.sol\":3978:3995  set._values.pop() */\n      dup6\n      sload\n        /* \"imports/openzeppelin/utils/structs/EnumerableSet.sol\":3978:3981  set */\n      dup7\n      swap1\n        /* \"imports/openzeppelin/utils/structs/EnumerableSet.sol\":3978:3995  set._values.pop() */\n      dup1\n      tag_250\n      jumpi\n      tag_250\n      tag_251\n      jump\t// in\n    tag_250:\n      0x01\n      swap1\n      sub\n      dup2\n      dup2\n      swap1\n      0x00\n      mstore\n      keccak256(0x00, 0x20)\n      add\n      0x00\n      swap1\n      sstore\n      swap1\n      sstore\n        /* \"imports/openzeppelin/utils/structs/EnumerableSet.sol\":4070:4073  set */\n      dup6\n        /* \"imports/openzeppelin/utils/structs/EnumerableSet.sol\":4070:4082  set._indexes */\n      0x01\n      add\n        /* \"imports/openzeppelin/utils/structs/EnumerableSet.sol\":4070:4089  set._indexes[value] */\n      0x00\n        /* \"imports/openzeppelin/utils/structs/EnumerableSet.sol\":4083:4088  value */\n      dup7\n        /* \"imports/openzeppelin/utils/structs/EnumerableSet.sol\":4070:4089  set._indexes[value] */\n      dup2\n      mstore\n      0x20\n      add\n      swap1\n      dup2\n      mstore\n      0x20\n      add\n      0x00\n      keccak256\n        /* \"imports/openzeppelin/utils/structs/EnumerableSet.sol\":4063:4089  delete set._indexes[value] */\n      0x00\n      swap1\n      sstore\n        /* \"imports/openzeppelin/utils/structs/EnumerableSet.sol\":4111:4115  true */\n      0x01\n        /* \"imports/openzeppelin/utils/structs/EnumerableSet.sol\":4104:4115  return true */\n      swap4\n      pop\n      pop\n      pop\n      pop\n      jump(tag_71)\n        /* \"imports/openzeppelin/utils/structs/EnumerableSet.sol\":3020:4169  if (valueIndex != 0) {... */\n    tag_239:\n        /* \"imports/openzeppelin/utils/structs/EnumerableSet.sol\":4153:4158  false */\n      0x00\n        /* \"imports/openzeppelin/utils/structs/EnumerableSet.sol\":4146:4158  return false */\n      swap2\n      pop\n      pop\n      jump(tag_71)\n        /* \"#utility.yul\":14:194   */\n    tag_20:\n        /* \"#utility.yul\":73:79   */\n      0x00\n        /* \"#utility.yul\":126:128   */\n      0x20\n        /* \"#utility.yul\":114:123   */\n      dup3\n        /* \"#utility.yul\":105:112   */\n      dup5\n        /* \"#utility.yul\":101:124   */\n      sub\n        /* \"#utility.yul\":97:129   */\n      slt\n        /* \"#utility.yul\":94:146   */\n      iszero\n      tag_260\n      jumpi\n        /* \"#utility.yul\":142:143   */\n      0x00\n        /* \"#utility.yul\":139:140   */\n      dup1\n        /* \"#utility.yul\":132:144   */\n      revert\n        /* \"#utility.yul\":94:146   */\n    tag_260:\n      pop\n        /* \"#utility.yul\":165:188   */\n      calldataload\n      swap2\n        /* \"#utility.yul\":14:194   */\n      swap1\n      pop\n      jump\t// out\n        /* \"#utility.yul\":407:580   */\n    tag_254:\n        /* \"#utility.yul\":475:495   */\n      dup1\n      calldataload\n      sub(shl(0xa0, 0x01), 0x01)\n        /* \"#utility.yul\":524:555   */\n      dup2\n      and\n        /* \"#utility.yul\":514:556   */\n      dup2\n      eq\n        /* \"#utility.yul\":504:574   */\n      tag_263\n      jumpi\n        /* \"#utility.yul\":570:571   */\n      0x00\n        /* \"#utility.yul\":567:568   */\n      dup1\n        /* \"#utility.yul\":560:572   */\n      revert\n        /* \"#utility.yul\":504:574   */\n    tag_263:\n        /* \"#utility.yul\":407:580   */\n      swap2\n      swap1\n      pop\n      jump\t// out\n        /* \"#utility.yul\":585:771   */\n    tag_26:\n        /* \"#utility.yul\":644:650   */\n      0x00\n        /* \"#utility.yul\":697:699   */\n      0x20\n        /* \"#utility.yul\":685:694   */\n      dup3\n        /* \"#utility.yul\":676:683   */\n      dup5\n        /* \"#utility.yul\":672:695   */\n      sub\n        /* \"#utility.yul\":668:700   */\n      slt\n        /* \"#utility.yul\":665:717   */\n      iszero\n      tag_265\n      jumpi\n        /* \"#utility.yul\":713:714   */\n      0x00\n        /* \"#utility.yul\":710:711   */\n      dup1\n        /* \"#utility.yul\":703:715   */\n      revert\n        /* \"#utility.yul\":665:717   */\n    tag_265:\n        /* \"#utility.yul\":736:765   */\n      tag_140\n        /* \"#utility.yul\":755:764   */\n      dup3\n        /* \"#utility.yul\":736:765   */\n      tag_254\n      jump\t// in\n        /* \"#utility.yul\":968:1626   */\n    tag_36:\n        /* \"#utility.yul\":1139:1141   */\n      0x20\n        /* \"#utility.yul\":1191:1212   */\n      dup1\n      dup3\n      mstore\n        /* \"#utility.yul\":1261:1274   */\n      dup3\n      mload\n        /* \"#utility.yul\":1164:1182   */\n      dup3\n      dup3\n      add\n        /* \"#utility.yul\":1283:1305   */\n      dup2\n      swap1\n      mstore\n        /* \"#utility.yul\":1110:1114   */\n      0x00\n      swap2\n        /* \"#utility.yul\":1139:1141   */\n      swap1\n        /* \"#utility.yul\":1362:1377   */\n      dup5\n      dup3\n      add\n      swap1\n        /* \"#utility.yul\":1336:1338   */\n      0x40\n        /* \"#utility.yul\":1321:1339   */\n      dup6\n      add\n      swap1\n        /* \"#utility.yul\":1110:1114   */\n      dup5\n        /* \"#utility.yul\":1405:1600   */\n    tag_269:\n        /* \"#utility.yul\":1419:1425   */\n      dup2\n        /* \"#utility.yul\":1416:1417   */\n      dup2\n        /* \"#utility.yul\":1413:1426   */\n      lt\n        /* \"#utility.yul\":1405:1600   */\n      iszero\n      tag_271\n      jumpi\n        /* \"#utility.yul\":1484:1497   */\n      dup4\n      mload\n      sub(shl(0xa0, 0x01), 0x01)\n        /* \"#utility.yul\":1480:1519   */\n      and\n        /* \"#utility.yul\":1468:1520   */\n      dup4\n      mstore\n        /* \"#utility.yul\":1575:1590   */\n      swap3\n      dup5\n      add\n      swap3\n        /* \"#utility.yul\":1540:1552   */\n      swap2\n      dup5\n      add\n      swap2\n        /* \"#utility.yul\":1516:1517   */\n      0x01\n        /* \"#utility.yul\":1434:1443   */\n      add\n        /* \"#utility.yul\":1405:1600   */\n      jump(tag_269)\n    tag_271:\n      pop\n        /* \"#utility.yul\":1617:1620   */\n      swap1\n      swap7\n        /* \"#utility.yul\":968:1626   */\n      swap6\n      pop\n      pop\n      pop\n      pop\n      pop\n      pop\n      jump\t// out\n        /* \"#utility.yul\":1631:1885   */\n    tag_39:\n        /* \"#utility.yul\":1699:1705   */\n      0x00\n        /* \"#utility.yul\":1707:1713   */\n      dup1\n        /* \"#utility.yul\":1760:1762   */\n      0x40\n        /* \"#utility.yul\":1748:1757   */\n      dup4\n        /* \"#utility.yul\":1739:1746   */\n      dup6\n        /* \"#utility.yul\":1735:1758   */\n      sub\n        /* \"#utility.yul\":1731:1763   */\n      slt\n        /* \"#utility.yul\":1728:1780   */\n      iszero\n      tag_273\n      jumpi\n        /* \"#utility.yul\":1776:1777   */\n      0x00\n        /* \"#utility.yul\":1773:1774   */\n      dup1\n        /* \"#utility.yul\":1766:1778   */\n      revert\n        /* \"#utility.yul\":1728:1780   */\n    tag_273:\n        /* \"#utility.yul\":1799:1828   */\n      tag_274\n        /* \"#utility.yul\":1818:1827   */\n      dup4\n        /* \"#utility.yul\":1799:1828   */\n      tag_254\n      jump\t// in\n    tag_274:\n        /* \"#utility.yul\":1789:1828   */\n      swap5\n        /* \"#utility.yul\":1875:1877   */\n      0x20\n        /* \"#utility.yul\":1860:1878   */\n      swap4\n      swap1\n      swap4\n      add\n        /* \"#utility.yul\":1847:1879   */\n      calldataload\n      swap4\n      pop\n      pop\n      pop\n        /* \"#utility.yul\":1631:1885   */\n      jump\t// out\n        /* \"#utility.yul\":1890:2218   */\n    tag_43:\n        /* \"#utility.yul\":1967:1973   */\n      0x00\n        /* \"#utility.yul\":1975:1981   */\n      dup1\n        /* \"#utility.yul\":1983:1989   */\n      0x00\n        /* \"#utility.yul\":2036:2038   */\n      0x60\n        /* \"#utility.yul\":2024:2033   */\n      dup5\n        /* \"#utility.yul\":2015:2022   */\n      dup7\n        /* \"#utility.yul\":2011:2034   */\n      sub\n        /* \"#utility.yul\":2007:2039   */\n      slt\n        /* \"#utility.yul\":2004:2056   */\n      iszero\n      tag_276\n      jumpi\n        /* \"#utility.yul\":2052:2053   */\n      0x00\n        /* \"#utility.yul\":2049:2050   */\n      dup1\n        /* \"#utility.yul\":2042:2054   */\n      revert\n        /* \"#utility.yul\":2004:2056   */\n    tag_276:\n        /* \"#utility.yul\":2075:2104   */\n      tag_277\n        /* \"#utility.yul\":2094:2103   */\n      dup5\n        /* \"#utility.yul\":2075:2104   */\n      tag_254\n      jump\t// in\n    tag_277:\n        /* \"#utility.yul\":2065:2104   */\n      swap3\n      pop\n        /* \"#utility.yul\":2123:2161   */\n      tag_278\n        /* \"#utility.yul\":2157:2159   */\n      0x20\n        /* \"#utility.yul\":2146:2155   */\n      dup6\n        /* \"#utility.yul\":2142:2160   */\n      add\n        /* \"#utility.yul\":2123:2161   */\n      tag_254\n      jump\t// in\n    tag_278:\n        /* \"#utility.yul\":2113:2161   */\n      swap2\n      pop\n        /* \"#utility.yul\":2208:2210   */\n      0x40\n        /* \"#utility.yul\":2197:2206   */\n      dup5\n        /* \"#utility.yul\":2193:2211   */\n      add\n        /* \"#utility.yul\":2180:2212   */\n      calldataload\n        /* \"#utility.yul\":2170:2212   */\n      swap1\n      pop\n        /* \"#utility.yul\":1890:2218   */\n      swap3\n      pop\n      swap3\n      pop\n      swap3\n      jump\t// out\n        /* \"#utility.yul\":3108:3235   */\n    tag_255:\n        /* \"#utility.yul\":3169:3179   */\n      0x4e487b71\n        /* \"#utility.yul\":3164:3167   */\n      0xe0\n        /* \"#utility.yul\":3160:3180   */\n      shl\n        /* \"#utility.yul\":3157:3158   */\n      0x00\n        /* \"#utility.yul\":3150:3181   */\n      mstore\n        /* \"#utility.yul\":3200:3204   */\n      0x11\n        /* \"#utility.yul\":3197:3198   */\n      0x04\n        /* \"#utility.yul\":3190:3205   */\n      mstore\n        /* \"#utility.yul\":3224:3228   */\n      0x24\n        /* \"#utility.yul\":3221:3222   */\n      0x00\n        /* \"#utility.yul\":3214:3229   */\n      revert\n        /* \"#utility.yul\":3240:3368   */\n    tag_166:\n        /* \"#utility.yul\":3307:3316   */\n      dup2\n      dup2\n      sub\n        /* \"#utility.yul\":3328:3339   */\n      dup2\n      dup2\n      gt\n        /* \"#utility.yul\":3325:3362   */\n      iszero\n      tag_71\n      jumpi\n        /* \"#utility.yul\":3342:3360   */\n      tag_71\n      tag_255\n      jump\t// in\n        /* \"#utility.yul\":4112:4385   */\n    tag_191:\n        /* \"#utility.yul\":4180:4186   */\n      0x00\n        /* \"#utility.yul\":4233:4235   */\n      0x20\n        /* \"#utility.yul\":4221:4230   */\n      dup3\n        /* \"#utility.yul\":4212:4219   */\n      dup5\n        /* \"#utility.yul\":4208:4231   */\n      sub\n        /* \"#utility.yul\":4204:4236   */\n      slt\n        /* \"#utility.yul\":4201:4253   */\n      iszero\n      tag_289\n      jumpi\n        /* \"#utility.yul\":4249:4250   */\n      0x00\n        /* \"#utility.yul\":4246:4247   */\n      dup1\n        /* \"#utility.yul\":4239:4251   */\n      revert\n        /* \"#utility.yul\":4201:4253   */\n    tag_289:\n        /* \"#utility.yul\":4281:4290   */\n      dup2\n        /* \"#utility.yul\":4275:4291   */\n      mload\n        /* \"#utility.yul\":4331:4335   */\n      0xff\n        /* \"#utility.yul\":4324:4329   */\n      dup2\n        /* \"#utility.yul\":4320:4336   */\n      and\n        /* \"#utility.yul\":4313:4318   */\n      dup2\n        /* \"#utility.yul\":4310:4337   */\n      eq\n        /* \"#utility.yul\":4300:4355   */\n      tag_140\n      jumpi\n        /* \"#utility.yul\":4351:4352   */\n      0x00\n        /* \"#utility.yul\":4348:4349   */\n      dup1\n        /* \"#utility.yul\":4341:4353   */\n      revert\n        /* \"#utility.yul\":4669:4946   */\n    tag_198:\n        /* \"#utility.yul\":4736:4742   */\n      0x00\n        /* \"#utility.yul\":4789:4791   */\n      0x20\n        /* \"#utility.yul\":4777:4786   */\n      dup3\n        /* \"#utility.yul\":4768:4775   */\n      dup5\n        /* \"#utility.yul\":4764:4787   */\n      sub\n        /* \"#utility.yul\":4760:4792   */\n      slt\n        /* \"#utility.yul\":4757:4809   */\n      iszero\n      tag_293\n      jumpi\n        /* \"#utility.yul\":4805:4806   */\n      0x00\n        /* \"#utility.yul\":4802:4803   */\n      dup1\n        /* \"#utility.yul\":4795:4807   */\n      revert\n        /* \"#utility.yul\":4757:4809   */\n    tag_293:\n        /* \"#utility.yul\":4837:4846   */\n      dup2\n        /* \"#utility.yul\":4831:4847   */\n      mload\n        /* \"#utility.yul\":4890:4895   */\n      dup1\n        /* \"#utility.yul\":4883:4896   */\n      iszero\n        /* \"#utility.yul\":4876:4897   */\n      iszero\n        /* \"#utility.yul\":4869:4874   */\n      dup2\n        /* \"#utility.yul\":4866:4898   */\n      eq\n        /* \"#utility.yul\":4856:4916   */\n      tag_140\n      jumpi\n        /* \"#utility.yul\":4912:4913   */\n      0x00\n        /* \"#utility.yul\":4909:4910   */\n      dup1\n        /* \"#utility.yul\":4902:4914   */\n      revert\n        /* \"#utility.yul\":4951:5078   */\n    tag_206:\n        /* \"#utility.yul\":5012:5022   */\n      0x4e487b71\n        /* \"#utility.yul\":5007:5010   */\n      0xe0\n        /* \"#utility.yul\":5003:5023   */\n      shl\n        /* \"#utility.yul\":5000:5001   */\n      0x00\n        /* \"#utility.yul\":4993:5024   */\n      mstore\n        /* \"#utility.yul\":5043:5047   */\n      0x32\n        /* \"#utility.yul\":5040:5041   */\n      0x04\n        /* \"#utility.yul\":5033:5048   */\n      mstore\n        /* \"#utility.yul\":5067:5071   */\n      0x24\n        /* \"#utility.yul\":5064:5065   */\n      0x00\n        /* \"#utility.yul\":5057:5072   */\n      revert\n        /* \"#utility.yul\":5847:6269   */\n    tag_256:\n        /* \"#utility.yul\":5936:5937   */\n      0x01\n        /* \"#utility.yul\":5979:5984   */\n      dup2\n        /* \"#utility.yul\":5936:5937   */\n      dup2\n        /* \"#utility.yul\":5993:6263   */\n    tag_299:\n        /* \"#utility.yul\":6014:6021   */\n      dup1\n        /* \"#utility.yul\":6004:6012   */\n      dup6\n        /* \"#utility.yul\":6001:6022   */\n      gt\n        /* \"#utility.yul\":5993:6263   */\n      iszero\n      tag_301\n      jumpi\n        /* \"#utility.yul\":6073:6077   */\n      dup2\n        /* \"#utility.yul\":6069:6070   */\n      0x00\n        /* \"#utility.yul\":6065:6071   */\n      not\n        /* \"#utility.yul\":6061:6078   */\n      div\n        /* \"#utility.yul\":6055:6059   */\n      dup3\n        /* \"#utility.yul\":6052:6079   */\n      gt\n        /* \"#utility.yul\":6049:6102   */\n      iszero\n      tag_303\n      jumpi\n        /* \"#utility.yul\":6082:6100   */\n      tag_303\n      tag_255\n      jump\t// in\n    tag_303:\n        /* \"#utility.yul\":6132:6139   */\n      dup1\n        /* \"#utility.yul\":6122:6130   */\n      dup6\n        /* \"#utility.yul\":6118:6140   */\n      and\n        /* \"#utility.yul\":6115:6170   */\n      iszero\n      tag_304\n      jumpi\n        /* \"#utility.yul\":6152:6168   */\n      swap2\n      dup2\n      mul\n      swap2\n        /* \"#utility.yul\":6115:6170   */\n    tag_304:\n        /* \"#utility.yul\":6231:6253   */\n      swap4\n      dup5\n      shr\n      swap4\n        /* \"#utility.yul\":6191:6206   */\n      swap1\n      dup1\n      mul\n      swap1\n        /* \"#utility.yul\":5993:6263   */\n      jump(tag_299)\n    tag_301:\n        /* \"#utility.yul\":5997:6000   */\n      pop\n        /* \"#utility.yul\":5847:6269   */\n      swap3\n      pop\n      swap3\n      swap1\n      pop\n      jump\t// out\n        /* \"#utility.yul\":6274:7080   */\n    tag_257:\n        /* \"#utility.yul\":6323:6328   */\n      0x00\n        /* \"#utility.yul\":6353:6361   */\n      dup3\n        /* \"#utility.yul\":6343:6423   */\n      tag_306\n      jumpi\n      pop\n        /* \"#utility.yul\":6394:6395   */\n      0x01\n        /* \"#utility.yul\":6408:6413   */\n      jump(tag_71)\n        /* \"#utility.yul\":6343:6423   */\n    tag_306:\n        /* \"#utility.yul\":6442:6446   */\n      dup2\n        /* \"#utility.yul\":6432:6508   */\n      tag_307\n      jumpi\n      pop\n        /* \"#utility.yul\":6479:6480   */\n      0x00\n        /* \"#utility.yul\":6493:6498   */\n      jump(tag_71)\n        /* \"#utility.yul\":6432:6508   */\n    tag_307:\n        /* \"#utility.yul\":6524:6528   */\n      dup2\n        /* \"#utility.yul\":6542:6543   */\n      0x01\n        /* \"#utility.yul\":6537:6596   */\n      dup2\n      eq\n      tag_309\n      jumpi\n        /* \"#utility.yul\":6610:6611   */\n      0x02\n        /* \"#utility.yul\":6605:6735   */\n      dup2\n      eq\n      tag_310\n      jumpi\n        /* \"#utility.yul\":6517:6735   */\n      jump(tag_308)\n        /* \"#utility.yul\":6537:6596   */\n    tag_309:\n        /* \"#utility.yul\":6567:6568   */\n      0x01\n        /* \"#utility.yul\":6558:6568   */\n      swap2\n      pop\n        /* \"#utility.yul\":6581:6586   */\n      pop\n      jump(tag_71)\n        /* \"#utility.yul\":6605:6735   */\n    tag_310:\n        /* \"#utility.yul\":6642:6645   */\n      0xff\n        /* \"#utility.yul\":6632:6640   */\n      dup5\n        /* \"#utility.yul\":6629:6646   */\n      gt\n        /* \"#utility.yul\":6626:6669   */\n      iszero\n      tag_312\n      jumpi\n        /* \"#utility.yul\":6649:6667   */\n      tag_312\n      tag_255\n      jump\t// in\n    tag_312:\n      pop\n      pop\n        /* \"#utility.yul\":6705:6706   */\n      0x01\n        /* \"#utility.yul\":6691:6707   */\n      dup3\n      shl\n        /* \"#utility.yul\":6720:6725   */\n      jump(tag_71)\n        /* \"#utility.yul\":6517:6735   */\n    tag_308:\n      pop\n        /* \"#utility.yul\":6819:6821   */\n      0x20\n        /* \"#utility.yul\":6809:6817   */\n      dup4\n        /* \"#utility.yul\":6806:6822   */\n      lt\n        /* \"#utility.yul\":6800:6803   */\n      0x0133\n        /* \"#utility.yul\":6794:6798   */\n      dup4\n        /* \"#utility.yul\":6791:6804   */\n      lt\n        /* \"#utility.yul\":6787:6823   */\n      and\n        /* \"#utility.yul\":6781:6783   */\n      0x4e\n        /* \"#utility.yul\":6771:6779   */\n      dup5\n        /* \"#utility.yul\":6768:6784   */\n      lt\n        /* \"#utility.yul\":6763:6765   */\n      0x0b\n        /* \"#utility.yul\":6757:6761   */\n      dup5\n        /* \"#utility.yul\":6754:6766   */\n      lt\n        /* \"#utility.yul\":6750:6785   */\n      and\n        /* \"#utility.yul\":6747:6824   */\n      or\n        /* \"#utility.yul\":6744:6903   */\n      iszero\n      tag_313\n      jumpi\n      pop\n        /* \"#utility.yul\":6856:6875   */\n      dup2\n      dup2\n      exp\n        /* \"#utility.yul\":6888:6893   */\n      jump(tag_71)\n        /* \"#utility.yul\":6744:6903   */\n    tag_313:\n        /* \"#utility.yul\":6935:6969   */\n      tag_314\n        /* \"#utility.yul\":6960:6968   */\n      dup4\n        /* \"#utility.yul\":6954:6958   */\n      dup4\n        /* \"#utility.yul\":6935:6969   */\n      tag_256\n      jump\t// in\n    tag_314:\n        /* \"#utility.yul\":7005:7011   */\n      dup1\n        /* \"#utility.yul\":7001:7002   */\n      0x00\n        /* \"#utility.yul\":6997:7003   */\n      not\n        /* \"#utility.yul\":6993:7012   */\n      div\n        /* \"#utility.yul\":6984:6991   */\n      dup3\n        /* \"#utility.yul\":6981:7013   */\n      gt\n        /* \"#utility.yul\":6978:7036   */\n      iszero\n      tag_316\n      jumpi\n        /* \"#utility.yul\":7016:7034   */\n      tag_316\n      tag_255\n      jump\t// in\n    tag_316:\n        /* \"#utility.yul\":7054:7074   */\n      mul\n      swap4\n        /* \"#utility.yul\":6274:7080   */\n      swap3\n      pop\n      pop\n      pop\n      jump\t// out\n        /* \"#utility.yul\":7085:7225   */\n    tag_231:\n        /* \"#utility.yul\":7143:7148   */\n      0x00\n        /* \"#utility.yul\":7172:7219   */\n      tag_140\n        /* \"#utility.yul\":7213:7217   */\n      0xff\n        /* \"#utility.yul\":7203:7211   */\n      dup5\n        /* \"#utility.yul\":7199:7218   */\n      and\n        /* \"#utility.yul\":7193:7197   */\n      dup4\n        /* \"#utility.yul\":7172:7219   */\n      tag_257\n      jump\t// in\n        /* \"#utility.yul\":7230:7398   */\n    tag_233:\n        /* \"#utility.yul\":7303:7312   */\n      dup1\n      dup3\n      mul\n        /* \"#utility.yul\":7334:7343   */\n      dup2\n      iszero\n        /* \"#utility.yul\":7351:7366   */\n      dup3\n      dup3\n      div\n        /* \"#utility.yul\":7345:7367   */\n      dup5\n      eq\n        /* \"#utility.yul\":7331:7368   */\n      or\n        /* \"#utility.yul\":7321:7392   */\n      tag_71\n      jumpi\n        /* \"#utility.yul\":7372:7390   */\n      tag_71\n      tag_255\n      jump\t// in\n        /* \"#utility.yul\":7403:7620   */\n    tag_235:\n        /* \"#utility.yul\":7443:7444   */\n      0x00\n        /* \"#utility.yul\":7469:7470   */\n      dup3\n        /* \"#utility.yul\":7459:7591   */\n      tag_323\n      jumpi\n        /* \"#utility.yul\":7513:7523   */\n      0x4e487b71\n        /* \"#utility.yul\":7508:7511   */\n      0xe0\n        /* \"#utility.yul\":7504:7524   */\n      shl\n        /* \"#utility.yul\":7501:7502   */\n      0x00\n        /* \"#utility.yul\":7494:7525   */\n      mstore\n        /* \"#utility.yul\":7548:7552   */\n      0x12\n        /* \"#utility.yul\":7545:7546   */\n      0x04\n        /* \"#utility.yul\":7538:7553   */\n      mstore\n        /* \"#utility.yul\":7576:7580   */\n      0x24\n        /* \"#utility.yul\":7573:7574   */\n      0x00\n        /* \"#utility.yul\":7566:7581   */\n      revert\n        /* \"#utility.yul\":7459:7591   */\n    tag_323:\n      pop\n        /* \"#utility.yul\":7605:7614   */\n      div\n      swap1\n        /* \"#utility.yul\":7403:7620   */\n      jump\t// out\n        /* \"#utility.yul\":7625:7752   */\n    tag_251:\n        /* \"#utility.yul\":7686:7696   */\n      0x4e487b71\n        /* \"#utility.yul\":7681:7684   */\n      0xe0\n        /* \"#utility.yul\":7677:7697   */\n      shl\n        /* \"#utility.yul\":7674:7675   */\n      0x00\n        /* \"#utility.yul\":7667:7698   */\n      mstore\n        /* \"#utility.yul\":7717:7721   */\n      0x31\n        /* \"#utility.yul\":7714:7715   */\n      0x04\n        /* \"#utility.yul\":7707:7722   */\n      mstore\n        /* \"#utility.yul\":7741:7745   */\n      0x24\n        /* \"#utility.yul\":7738:7739   */\n      0x00\n        /* \"#utility.yul\":7731:7746   */\n      revert\n\n    auxdata: 0xa2646970667358221220c5f57ddb0e4d94cc07b5616ff512e09a4546532b6fb4acbb4788fb1bfae4067564736f6c63430008130033\n}\n",
				"bytecode": {
					"linkReferences": {},
					"object": "608060405234801561001057600080fd5b50610f41806100206000396000f3fe608060405234801561001057600080fd5b50600436106100cf5760003560e01c80633e8001481161008c578063b3a54f1b11610066578063b3a54f1b146101b3578063b74cbb41146101c6578063e13a96d6146101d9578063e5e45084146101ec57600080fd5b80633e80014814610177578063464964b114610198578063a6a2fcd7146101a057600080fd5b80630a885f95146100d4578063182a94201461010457806318b31027146101275780632a77d7b81461013c57806331b944501461015157806336447c4e14610164575b600080fd5b6100e76100e2366004610c42565b6101ff565b6040516001600160a01b0390911681526020015b60405180910390f35b610117610112366004610c77565b61021c565b60405190151581526020016100fb565b61013a610135366004610c77565b610233565b005b610144610291565b6040516100fb9190610c92565b61013a61015f366004610cdf565b6102ab565b61013a610172366004610d09565b610356565b61018a610185366004610c77565b6103fe565b6040519081526020016100fb565b610144610427565b61013a6101ae366004610c77565b61043c565b6101176101c1366004610c77565b610493565b61013a6101d4366004610c77565b6104aa565b6100e76101e7366004610c42565b610501565b61013a6101fa366004610c77565b610518565b60006102168261020d61056f565b60030190610593565b92915050565b60006102168261022a61056f565b600301906105a6565b61023b6105c8565b6102508161024761056f565b60010190610610565b506040516001600160a01b03821681527ff6aea4ebd15c89ff6a16b7819fb6968ad0a0ce7e0085ef4c87a85f8c0cd2e46a906020015b60405180910390a150565b60606102a661029e61056f565b600101610625565b905090565b6102b361056f565b6007015460ff16156103085760405162461bcd60e51b8152602060048201526019602482015278119858d95d14d859994e881c99595b9d1c985b9d0818d85b1b603a1b60448201526064015b60405180910390fd5b600161031261056f565b600701805460ff191691151591909117905561032c6105c8565b6103368282610632565b600061034061056f565b600701805460ff19169115159190911790555050565b61035e61056f565b6007015460ff16156103ae5760405162461bcd60e51b8152602060048201526019602482015278119858d95d14d859994e881c99595b9d1c985b9d0818d85b1b603a1b60448201526064016102ff565b60016103b861056f565b600701805460ff19169115159190911790556103d26105c8565b6103dd838383610730565b60006103e761056f565b600701805460ff1916911515919091179055505050565b600061040861056f565b6001600160a01b03909216600090815260209290925250604090205490565b60606102a661043461056f565b600301610625565b6104446105c8565b6104598161045061056f565b60030190610610565b506040516001600160a01b03821681527fb91009acff1ca23a9fe12400608cae8383f810cac953c1a16a99fe9b9c65abfb90602001610286565b6000610216826104a161056f565b600101906105a6565b6104b26105c8565b6104c7816104be61056f565b60030190610945565b506040516001600160a01b03821681527f64f9ae8a27a020b54f63a0d9ff5d3f0dd302b35eef11d16612b2a02b2d8a824890602001610286565b60006102168261050f61056f565b60010190610593565b6105206105c8565b6105358161052c61056f565b60010190610945565b506040516001600160a01b03821681527f0a05ed313e53d05b8e9ebe468e240ec174f5190074867a051f35ac20709eed0490602001610286565b7ff2eeec4c06050035800631f1916b3a25e1fa154de963ec50f0ac015a5be9e61890565b600061059f838361095a565b9392505050565b6001600160a01b0381166000908152600183016020526040812054151561059f565b33301461060e5760405162461bcd60e51b81526020600482015260146024820152732330b1b2ba29b0b3329d1037b7363c9039b2b63360611b60448201526064016102ff565b565b600061059f836001600160a01b038416610984565b6060600061059f836109d3565b61063c6000610a2f565b610647600082610a93565b8061065061056f565b600080805260209190915260408120805490919061066f908490610d5b565b9091555061067d905061056f565b6000808052602091909152604081205490036106ab576106a960006106a061056f565b60050190610945565b505b6040516001600160a01b0383169082156108fc029083906000818181858888f193505050501580156106e1573d6000803e3d6000fd5b50604080516001600160a01b0384168152600060208201529081018290527f9b1bfa7fa9ee420a16e124f794c35ac9f90472acc99140eb2f6447c714cad8eb9060600160405180910390a15050565b816001600160a01b0381166107875760405162461bcd60e51b815260206004820152601e60248201527f4661636574536166653a20696e6170726f707269617465206d6574686f64000060448201526064016102ff565b61079083610a2f565b61079a8383610a93565b816107a361056f565b6001600160a01b03851660009081526020919091526040812080549091906107cc908490610d5b565b909155506107da905061056f565b6001600160a01b03841660009081526020919091526040812054900361080857610806836106a061056f565b505b806001600160a01b031663a9059cbb85610884846001600160a01b031663313ce5676040518163ffffffff1660e01b8152600401602060405180830381865afa158015610859573d6000803e3d6000fd5b505050506040513d601f19601f8201168201806040525081019061087d9190610d6e565b8690610b08565b6040516001600160e01b031960e085901b1681526001600160a01b03909216600483015260248201526044016020604051808303816000875af11580156108cf573d6000803e3d6000fd5b505050506040513d601f19601f820116820180604052508101906108f39190610d91565b50604080516001600160a01b038087168252851660208201529081018390527f9b1bfa7fa9ee420a16e124f794c35ac9f90472acc99140eb2f6447c714cad8eb9060600160405180910390a150505050565b600061059f836001600160a01b038416610b4f565b600082600001828154811061097157610971610db3565b9060005260206000200154905092915050565b60008181526001830160205260408120546109cb57508154600181810184556000848152602080822090930184905584548482528286019093526040902091909155610216565b506000610216565b606081600001805480602002602001604051908101604052809291908181526020018280548015610a2357602002820191906000526020600020905b815481526020019060010190808311610a0f575b50505050509050919050565b610a388161021c565b610a905760405162461bcd60e51b815260206004820152602360248201527f4661636574536166653a20746f6b656e206973206e6f7420616c6c6f776564206044820152621bdd5d60ea1b60648201526084016102ff565b50565b80610a9c61056f565b6001600160a01b038416600090815260209190915260409020541015610b045760405162461bcd60e51b815260206004820152601f60248201527f4661636574536166653a20696e73756666696369656e742062616c616e63650060448201526064016102ff565b5050565b6000670de0b6b3a7640000610b1e83600a610ead565b670de0b6b3a7640000610b318682610ebc565b610b3b9190610ed3565b610b459190610ebc565b61059f9190610ed3565b60008181526001830160205260408120548015610c38576000610b73600183610d5b565b8554909150600090610b8790600190610d5b565b9050818114610bec576000866000018281548110610ba757610ba7610db3565b9060005260206000200154905080876000018481548110610bca57610bca610db3565b6000918252602080832090910192909255918252600188019052604090208390555b8554869080610bfd57610bfd610ef5565b600190038181906000526020600020016000905590558560010160008681526020019081526020016000206000905560019350505050610216565b6000915050610216565b600060208284031215610c5457600080fd5b5035919050565b80356001600160a01b0381168114610c7257600080fd5b919050565b600060208284031215610c8957600080fd5b61059f82610c5b565b6020808252825182820181905260009190848201906040850190845b81811015610cd35783516001600160a01b031683529284019291840191600101610cae565b50909695505050505050565b60008060408385031215610cf257600080fd5b610cfb83610c5b565b946020939093013593505050565b600080600060608486031215610d1e57600080fd5b610d2784610c5b565b9250610d3560208501610c5b565b9150604084013590509250925092565b634e487b7160e01b600052601160045260246000fd5b8181038181111561021657610216610d45565b600060208284031215610d8057600080fd5b815160ff8116811461059f57600080fd5b600060208284031215610da357600080fd5b8151801515811461059f57600080fd5b634e487b7160e01b600052603260045260246000fd5b600181815b80851115610e04578160001904821115610dea57610dea610d45565b80851615610df757918102915b93841c9390800290610dce565b509250929050565b600082610e1b57506001610216565b81610e2857506000610216565b8160018114610e3e5760028114610e4857610e64565b6001915050610216565b60ff841115610e5957610e59610d45565b50506001821b610216565b5060208310610133831016604e8410600b8410161715610e87575081810a610216565b610e918383610dc9565b8060001904821115610ea557610ea5610d45565b029392505050565b600061059f60ff841683610e0c565b808202811582820484141761021657610216610d45565b600082610ef057634e487b7160e01b600052601260045260246000fd5b500490565b634e487b7160e01b600052603160045260246000fdfea2646970667358221220c5f57ddb0e4d94cc07b5616ff512e09a4546532b6fb4acbb4788fb1bfae4067564736f6c63430008130033",
					"opcodes": "PUSH1 0x80 PUSH1 0x40 MSTORE CALLVALUE DUP1 ISZERO PUSH2 0x10 JUMPI PUSH1 0x0 DUP1 REVERT JUMPDEST POP PUSH2 0xF41 DUP1 PUSH2 0x20 PUSH1 0x0 CODECOPY PUSH1 0x0 RETURN INVALID PUSH1 0x80 PUSH1 0x40 MSTORE CALLVALUE DUP1 ISZERO PUSH2 0x10 JUMPI PUSH1 0x0 DUP1 REVERT JUMPDEST POP PUSH1 0x4 CALLDATASIZE LT PUSH2 0xCF JUMPI PUSH1 0x0 CALLDATALOAD PUSH1 0xE0 SHR DUP1 PUSH4 0x3E800148 GT PUSH2 0x8C JUMPI DUP1 PUSH4 0xB3A54F1B GT PUSH2 0x66 JUMPI DUP1 PUSH4 0xB3A54F1B EQ PUSH2 0x1B3 JUMPI DUP1 PUSH4 0xB74CBB41 EQ PUSH2 0x1C6 JUMPI DUP1 PUSH4 0xE13A96D6 EQ PUSH2 0x1D9 JUMPI DUP1 PUSH4 0xE5E45084 EQ PUSH2 0x1EC JUMPI PUSH1 0x0 DUP1 REVERT JUMPDEST DUP1 PUSH4 0x3E800148 EQ PUSH2 0x177 JUMPI DUP1 PUSH4 0x464964B1 EQ PUSH2 0x198 JUMPI DUP1 PUSH4 0xA6A2FCD7 EQ PUSH2 0x1A0 JUMPI PUSH1 0x0 DUP1 REVERT JUMPDEST DUP1 PUSH4 0xA885F95 EQ PUSH2 0xD4 JUMPI DUP1 PUSH4 0x182A9420 EQ PUSH2 0x104 JUMPI DUP1 PUSH4 0x18B31027 EQ PUSH2 0x127 JUMPI DUP1 PUSH4 0x2A77D7B8 EQ PUSH2 0x13C JUMPI DUP1 PUSH4 0x31B94450 EQ PUSH2 0x151 JUMPI DUP1 PUSH4 0x36447C4E EQ PUSH2 0x164 JUMPI JUMPDEST PUSH1 0x0 DUP1 REVERT JUMPDEST PUSH2 0xE7 PUSH2 0xE2 CALLDATASIZE PUSH1 0x4 PUSH2 0xC42 JUMP JUMPDEST PUSH2 0x1FF JUMP JUMPDEST PUSH1 0x40 MLOAD PUSH1 0x1 PUSH1 0x1 PUSH1 0xA0 SHL SUB SWAP1 SWAP2 AND DUP2 MSTORE PUSH1 0x20 ADD JUMPDEST PUSH1 0x40 MLOAD DUP1 SWAP2 SUB SWAP1 RETURN JUMPDEST PUSH2 0x117 PUSH2 0x112 CALLDATASIZE PUSH1 0x4 PUSH2 0xC77 JUMP JUMPDEST PUSH2 0x21C JUMP JUMPDEST PUSH1 0x40 MLOAD SWAP1 ISZERO ISZERO DUP2 MSTORE PUSH1 0x20 ADD PUSH2 0xFB JUMP JUMPDEST PUSH2 0x13A PUSH2 0x135 CALLDATASIZE PUSH1 0x4 PUSH2 0xC77 JUMP JUMPDEST PUSH2 0x233 JUMP JUMPDEST STOP JUMPDEST PUSH2 0x144 PUSH2 0x291 JUMP JUMPDEST PUSH1 0x40 MLOAD PUSH2 0xFB SWAP2 SWAP1 PUSH2 0xC92 JUMP JUMPDEST PUSH2 0x13A PUSH2 0x15F CALLDATASIZE PUSH1 0x4 PUSH2 0xCDF JUMP JUMPDEST PUSH2 0x2AB JUMP JUMPDEST PUSH2 0x13A PUSH2 0x172 CALLDATASIZE PUSH1 0x4 PUSH2 0xD09 JUMP JUMPDEST PUSH2 0x356 JUMP JUMPDEST PUSH2 0x18A PUSH2 0x185 CALLDATASIZE PUSH1 0x4 PUSH2 0xC77 JUMP JUMPDEST PUSH2 0x3FE JUMP JUMPDEST PUSH1 0x40 MLOAD SWAP1 DUP2 MSTORE PUSH1 0x20 ADD PUSH2 0xFB JUMP JUMPDEST PUSH2 0x144 PUSH2 0x427 JUMP JUMPDEST PUSH2 0x13A PUSH2 0x1AE CALLDATASIZE PUSH1 0x4 PUSH2 0xC77 JUMP JUMPDEST PUSH2 0x43C JUMP JUMPDEST PUSH2 0x117 PUSH2 0x1C1 CALLDATASIZE PUSH1 0x4 PUSH2 0xC77 JUMP JUMPDEST PUSH2 0x493 JUMP JUMPDEST PUSH2 0x13A PUSH2 0x1D4 CALLDATASIZE PUSH1 0x4 PUSH2 0xC77 JUMP JUMPDEST PUSH2 0x4AA JUMP JUMPDEST PUSH2 0xE7 PUSH2 0x1E7 CALLDATASIZE PUSH1 0x4 PUSH2 0xC42 JUMP JUMPDEST PUSH2 0x501 JUMP JUMPDEST PUSH2 0x13A PUSH2 0x1FA CALLDATASIZE PUSH1 0x4 PUSH2 0xC77 JUMP JUMPDEST PUSH2 0x518 JUMP JUMPDEST PUSH1 0x0 PUSH2 0x216 DUP3 PUSH2 0x20D PUSH2 0x56F JUMP JUMPDEST PUSH1 0x3 ADD SWAP1 PUSH2 0x593 JUMP JUMPDEST SWAP3 SWAP2 POP POP JUMP JUMPDEST PUSH1 0x0 PUSH2 0x216 DUP3 PUSH2 0x22A PUSH2 0x56F JUMP JUMPDEST PUSH1 0x3 ADD SWAP1 PUSH2 0x5A6 JUMP JUMPDEST PUSH2 0x23B PUSH2 0x5C8 JUMP JUMPDEST PUSH2 0x250 DUP2 PUSH2 0x247 PUSH2 0x56F JUMP JUMPDEST PUSH1 0x1 ADD SWAP1 PUSH2 0x610 JUMP JUMPDEST POP PUSH1 0x40 MLOAD PUSH1 0x1 PUSH1 0x1 PUSH1 0xA0 SHL SUB DUP3 AND DUP2 MSTORE PUSH32 0xF6AEA4EBD15C89FF6A16B7819FB6968AD0A0CE7E0085EF4C87A85F8C0CD2E46A SWAP1 PUSH1 0x20 ADD JUMPDEST PUSH1 0x40 MLOAD DUP1 SWAP2 SUB SWAP1 LOG1 POP JUMP JUMPDEST PUSH1 0x60 PUSH2 0x2A6 PUSH2 0x29E PUSH2 0x56F JUMP JUMPDEST PUSH1 0x1 ADD PUSH2 0x625 JUMP JUMPDEST SWAP1 POP SWAP1 JUMP JUMPDEST PUSH2 0x2B3 PUSH2 0x56F JUMP JUMPDEST PUSH1 0x7 ADD SLOAD PUSH1 0xFF AND ISZERO PUSH2 0x308 JUMPI PUSH1 0x40 MLOAD PUSH3 0x461BCD PUSH1 0xE5 SHL DUP2 MSTORE PUSH1 0x20 PUSH1 0x4 DUP3 ADD MSTORE PUSH1 0x19 PUSH1 0x24 DUP3 ADD MSTORE PUSH25 0x119858D95D14D859994E881C99595B9D1C985B9D0818D85B1B PUSH1 0x3A SHL PUSH1 0x44 DUP3 ADD MSTORE PUSH1 0x64 ADD JUMPDEST PUSH1 0x40 MLOAD DUP1 SWAP2 SUB SWAP1 REVERT JUMPDEST PUSH1 0x1 PUSH2 0x312 PUSH2 0x56F JUMP JUMPDEST PUSH1 0x7 ADD DUP1 SLOAD PUSH1 0xFF NOT AND SWAP2 ISZERO ISZERO SWAP2 SWAP1 SWAP2 OR SWAP1 SSTORE PUSH2 0x32C PUSH2 0x5C8 JUMP JUMPDEST PUSH2 0x336 DUP3 DUP3 PUSH2 0x632 JUMP JUMPDEST PUSH1 0x0 PUSH2 0x340 PUSH2 0x56F JUMP JUMPDEST PUSH1 0x7 ADD DUP1 SLOAD PUSH1 0xFF NOT AND SWAP2 ISZERO ISZERO SWAP2 SWAP1 SWAP2 OR SWAP1 SSTORE POP POP JUMP JUMPDEST PUSH2 0x35E PUSH2 0x56F JUMP JUMPDEST PUSH1 0x7 ADD SLOAD PUSH1 0xFF AND ISZERO PUSH2 0x3AE JUMPI PUSH1 0x40 MLOAD PUSH3 0x461BCD PUSH1 0xE5 SHL DUP2 MSTORE PUSH1 0x20 PUSH1 0x4 DUP3 ADD MSTORE PUSH1 0x19 PUSH1 0x24 DUP3 ADD MSTORE PUSH25 0x119858D95D14D859994E881C99595B9D1C985B9D0818D85B1B PUSH1 0x3A SHL PUSH1 0x44 DUP3 ADD MSTORE PUSH1 0x64 ADD PUSH2 0x2FF JUMP JUMPDEST PUSH1 0x1 PUSH2 0x3B8 PUSH2 0x56F JUMP JUMPDEST PUSH1 0x7 ADD DUP1 SLOAD PUSH1 0xFF NOT AND SWAP2 ISZERO ISZERO SWAP2 SWAP1 SWAP2 OR SWAP1 SSTORE PUSH2 0x3D2 PUSH2 0x5C8 JUMP JUMPDEST PUSH2 0x3DD DUP4 DUP4 DUP4 PUSH2 0x730 JUMP JUMPDEST PUSH1 0x0 PUSH2 0x3E7 PUSH2 0x56F JUMP JUMPDEST PUSH1 0x7 ADD DUP1 SLOAD PUSH1 0xFF NOT AND SWAP2 ISZERO ISZERO SWAP2 SWAP1 SWAP2 OR SWAP1 SSTORE POP POP POP JUMP JUMPDEST PUSH1 0x0 PUSH2 0x408 PUSH2 0x56F JUMP JUMPDEST PUSH1 0x1 PUSH1 0x1 PUSH1 0xA0 SHL SUB SWAP1 SWAP3 AND PUSH1 0x0 SWAP1 DUP2 MSTORE PUSH1 0x20 SWAP3 SWAP1 SWAP3 MSTORE POP PUSH1 0x40 SWAP1 KECCAK256 SLOAD SWAP1 JUMP JUMPDEST PUSH1 0x60 PUSH2 0x2A6 PUSH2 0x434 PUSH2 0x56F JUMP JUMPDEST PUSH1 0x3 ADD PUSH2 0x625 JUMP JUMPDEST PUSH2 0x444 PUSH2 0x5C8 JUMP JUMPDEST PUSH2 0x459 DUP2 PUSH2 0x450 PUSH2 0x56F JUMP JUMPDEST PUSH1 0x3 ADD SWAP1 PUSH2 0x610 JUMP JUMPDEST POP PUSH1 0x40 MLOAD PUSH1 0x1 PUSH1 0x1 PUSH1 0xA0 SHL SUB DUP3 AND DUP2 MSTORE PUSH32 0xB91009ACFF1CA23A9FE12400608CAE8383F810CAC953C1A16A99FE9B9C65ABFB SWAP1 PUSH1 0x20 ADD PUSH2 0x286 JUMP JUMPDEST PUSH1 0x0 PUSH2 0x216 DUP3 PUSH2 0x4A1 PUSH2 0x56F JUMP JUMPDEST PUSH1 0x1 ADD SWAP1 PUSH2 0x5A6 JUMP JUMPDEST PUSH2 0x4B2 PUSH2 0x5C8 JUMP JUMPDEST PUSH2 0x4C7 DUP2 PUSH2 0x4BE PUSH2 0x56F JUMP JUMPDEST PUSH1 0x3 ADD SWAP1 PUSH2 0x945 JUMP JUMPDEST POP PUSH1 0x40 MLOAD PUSH1 0x1 PUSH1 0x1 PUSH1 0xA0 SHL SUB DUP3 AND DUP2 MSTORE PUSH32 0x64F9AE8A27A020B54F63A0D9FF5D3F0DD302B35EEF11D16612B2A02B2D8A8248 SWAP1 PUSH1 0x20 ADD PUSH2 0x286 JUMP JUMPDEST PUSH1 0x0 PUSH2 0x216 DUP3 PUSH2 0x50F PUSH2 0x56F JUMP JUMPDEST PUSH1 0x1 ADD SWAP1 PUSH2 0x593 JUMP JUMPDEST PUSH2 0x520 PUSH2 0x5C8 JUMP JUMPDEST PUSH2 0x535 DUP2 PUSH2 0x52C PUSH2 0x56F JUMP JUMPDEST PUSH1 0x1 ADD SWAP1 PUSH2 0x945 JUMP JUMPDEST POP PUSH1 0x40 MLOAD PUSH1 0x1 PUSH1 0x1 PUSH1 0xA0 SHL SUB DUP3 AND DUP2 MSTORE PUSH32 0xA05ED313E53D05B8E9EBE468E240EC174F5190074867A051F35AC20709EED04 SWAP1 PUSH1 0x20 ADD PUSH2 0x286 JUMP JUMPDEST PUSH32 0xF2EEEC4C06050035800631F1916B3A25E1FA154DE963EC50F0AC015A5BE9E618 SWAP1 JUMP JUMPDEST PUSH1 0x0 PUSH2 0x59F DUP4 DUP4 PUSH2 0x95A JUMP JUMPDEST SWAP4 SWAP3 POP POP POP JUMP JUMPDEST PUSH1 0x1 PUSH1 0x1 PUSH1 0xA0 SHL SUB DUP2 AND PUSH1 0x0 SWAP1 DUP2 MSTORE PUSH1 0x1 DUP4 ADD PUSH1 0x20 MSTORE PUSH1 0x40 DUP2 KECCAK256 SLOAD ISZERO ISZERO PUSH2 0x59F JUMP JUMPDEST CALLER ADDRESS EQ PUSH2 0x60E JUMPI PUSH1 0x40 MLOAD PUSH3 0x461BCD PUSH1 0xE5 SHL DUP2 MSTORE PUSH1 0x20 PUSH1 0x4 DUP3 ADD MSTORE PUSH1 0x14 PUSH1 0x24 DUP3 ADD MSTORE PUSH20 0x2330B1B2BA29B0B3329D1037B7363C9039B2B633 PUSH1 0x61 SHL PUSH1 0x44 DUP3 ADD MSTORE PUSH1 0x64 ADD PUSH2 0x2FF JUMP JUMPDEST JUMP JUMPDEST PUSH1 0x0 PUSH2 0x59F DUP4 PUSH1 0x1 PUSH1 0x1 PUSH1 0xA0 SHL SUB DUP5 AND PUSH2 0x984 JUMP JUMPDEST PUSH1 0x60 PUSH1 0x0 PUSH2 0x59F DUP4 PUSH2 0x9D3 JUMP JUMPDEST PUSH2 0x63C PUSH1 0x0 PUSH2 0xA2F JUMP JUMPDEST PUSH2 0x647 PUSH1 0x0 DUP3 PUSH2 0xA93 JUMP JUMPDEST DUP1 PUSH2 0x650 PUSH2 0x56F JUMP JUMPDEST PUSH1 0x0 DUP1 DUP1 MSTORE PUSH1 0x20 SWAP2 SWAP1 SWAP2 MSTORE PUSH1 0x40 DUP2 KECCAK256 DUP1 SLOAD SWAP1 SWAP2 SWAP1 PUSH2 0x66F SWAP1 DUP5 SWAP1 PUSH2 0xD5B JUMP JUMPDEST SWAP1 SWAP2 SSTORE POP PUSH2 0x67D SWAP1 POP PUSH2 0x56F JUMP JUMPDEST PUSH1 0x0 DUP1 DUP1 MSTORE PUSH1 0x20 SWAP2 SWAP1 SWAP2 MSTORE PUSH1 0x40 DUP2 KECCAK256 SLOAD SWAP1 SUB PUSH2 0x6AB JUMPI PUSH2 0x6A9 PUSH1 0x0 PUSH2 0x6A0 PUSH2 0x56F JUMP JUMPDEST PUSH1 0x5 ADD SWAP1 PUSH2 0x945 JUMP JUMPDEST POP JUMPDEST PUSH1 0x40 MLOAD PUSH1 0x1 PUSH1 0x1 PUSH1 0xA0 SHL SUB DUP4 AND SWAP1 DUP3 ISZERO PUSH2 0x8FC MUL SWAP1 DUP4 SWAP1 PUSH1 0x0 DUP2 DUP2 DUP2 DUP6 DUP9 DUP9 CALL SWAP4 POP POP POP POP ISZERO DUP1 ISZERO PUSH2 0x6E1 JUMPI RETURNDATASIZE PUSH1 0x0 DUP1 RETURNDATACOPY RETURNDATASIZE PUSH1 0x0 REVERT JUMPDEST POP PUSH1 0x40 DUP1 MLOAD PUSH1 0x1 PUSH1 0x1 PUSH1 0xA0 SHL SUB DUP5 AND DUP2 MSTORE PUSH1 0x0 PUSH1 0x20 DUP3 ADD MSTORE SWAP1 DUP2 ADD DUP3 SWAP1 MSTORE PUSH32 0x9B1BFA7FA9EE420A16E124F794C35AC9F90472ACC99140EB2F6447C714CAD8EB SWAP1 PUSH1 0x60 ADD PUSH1 0x40 MLOAD DUP1 SWAP2 SUB SWAP1 LOG1 POP POP JUMP JUMPDEST DUP2 PUSH1 0x1 PUSH1 0x1 PUSH1 0xA0 SHL SUB DUP2 AND PUSH2 0x787 JUMPI PUSH1 0x40 MLOAD PUSH3 0x461BCD PUSH1 0xE5 SHL DUP2 MSTORE PUSH1 0x20 PUSH1 0x4 DUP3 ADD MSTORE PUSH1 0x1E PUSH1 0x24 DUP3 ADD MSTORE PUSH32 0x4661636574536166653A20696E6170726F707269617465206D6574686F640000 PUSH1 0x44 DUP3 ADD MSTORE PUSH1 0x64 ADD PUSH2 0x2FF JUMP JUMPDEST PUSH2 0x790 DUP4 PUSH2 0xA2F JUMP JUMPDEST PUSH2 0x79A DUP4 DUP4 PUSH2 0xA93 JUMP JUMPDEST DUP2 PUSH2 0x7A3 PUSH2 0x56F JUMP JUMPDEST PUSH1 0x1 PUSH1 0x1 PUSH1 0xA0 SHL SUB DUP6 AND PUSH1 0x0 SWAP1 DUP2 MSTORE PUSH1 0x20 SWAP2 SWAP1 SWAP2 MSTORE PUSH1 0x40 DUP2 KECCAK256 DUP1 SLOAD SWAP1 SWAP2 SWAP1 PUSH2 0x7CC SWAP1 DUP5 SWAP1 PUSH2 0xD5B JUMP JUMPDEST SWAP1 SWAP2 SSTORE POP PUSH2 0x7DA SWAP1 POP PUSH2 0x56F JUMP JUMPDEST PUSH1 0x1 PUSH1 0x1 PUSH1 0xA0 SHL SUB DUP5 AND PUSH1 0x0 SWAP1 DUP2 MSTORE PUSH1 0x20 SWAP2 SWAP1 SWAP2 MSTORE PUSH1 0x40 DUP2 KECCAK256 SLOAD SWAP1 SUB PUSH2 0x808 JUMPI PUSH2 0x806 DUP4 PUSH2 0x6A0 PUSH2 0x56F JUMP JUMPDEST POP JUMPDEST DUP1 PUSH1 0x1 PUSH1 0x1 PUSH1 0xA0 SHL SUB AND PUSH4 0xA9059CBB DUP6 PUSH2 0x884 DUP5 PUSH1 0x1 PUSH1 0x1 PUSH1 0xA0 SHL SUB AND PUSH4 0x313CE567 PUSH1 0x40 MLOAD DUP2 PUSH4 0xFFFFFFFF AND PUSH1 0xE0 SHL DUP2 MSTORE PUSH1 0x4 ADD PUSH1 0x20 PUSH1 0x40 MLOAD DUP1 DUP4 SUB DUP2 DUP7 GAS STATICCALL ISZERO DUP1 ISZERO PUSH2 0x859 JUMPI RETURNDATASIZE PUSH1 0x0 DUP1 RETURNDATACOPY RETURNDATASIZE PUSH1 0x0 REVERT JUMPDEST POP POP POP POP PUSH1 0x40 MLOAD RETURNDATASIZE PUSH1 0x1F NOT PUSH1 0x1F DUP3 ADD AND DUP3 ADD DUP1 PUSH1 0x40 MSTORE POP DUP2 ADD SWAP1 PUSH2 0x87D SWAP2 SWAP1 PUSH2 0xD6E JUMP JUMPDEST DUP7 SWAP1 PUSH2 0xB08 JUMP JUMPDEST PUSH1 0x40 MLOAD PUSH1 0x1 PUSH1 0x1 PUSH1 0xE0 SHL SUB NOT PUSH1 0xE0 DUP6 SWAP1 SHL AND DUP2 MSTORE PUSH1 0x1 PUSH1 0x1 PUSH1 0xA0 SHL SUB SWAP1 SWAP3 AND PUSH1 0x4 DUP4 ADD MSTORE PUSH1 0x24 DUP3 ADD MSTORE PUSH1 0x44 ADD PUSH1 0x20 PUSH1 0x40 MLOAD DUP1 DUP4 SUB DUP2 PUSH1 0x0 DUP8 GAS CALL ISZERO DUP1 ISZERO PUSH2 0x8CF JUMPI RETURNDATASIZE PUSH1 0x0 DUP1 RETURNDATACOPY RETURNDATASIZE PUSH1 0x0 REVERT JUMPDEST POP POP POP POP PUSH1 0x40 MLOAD RETURNDATASIZE PUSH1 0x1F NOT PUSH1 0x1F DUP3 ADD AND DUP3 ADD DUP1 PUSH1 0x40 MSTORE POP DUP2 ADD SWAP1 PUSH2 0x8F3 SWAP2 SWAP1 PUSH2 0xD91 JUMP JUMPDEST POP PUSH1 0x40 DUP1 MLOAD PUSH1 0x1 PUSH1 0x1 PUSH1 0xA0 SHL SUB DUP1 DUP8 AND DUP3 MSTORE DUP6 AND PUSH1 0x20 DUP3 ADD MSTORE SWAP1 DUP2 ADD DUP4 SWAP1 MSTORE PUSH32 0x9B1BFA7FA9EE420A16E124F794C35AC9F90472ACC99140EB2F6447C714CAD8EB SWAP1 PUSH1 0x60 ADD PUSH1 0x40 MLOAD DUP1 SWAP2 SUB SWAP1 LOG1 POP POP POP POP JUMP JUMPDEST PUSH1 0x0 PUSH2 0x59F DUP4 PUSH1 0x1 PUSH1 0x1 PUSH1 0xA0 SHL SUB DUP5 AND PUSH2 0xB4F JUMP JUMPDEST PUSH1 0x0 DUP3 PUSH1 0x0 ADD DUP3 DUP2 SLOAD DUP2 LT PUSH2 0x971 JUMPI PUSH2 0x971 PUSH2 0xDB3 JUMP JUMPDEST SWAP1 PUSH1 0x0 MSTORE PUSH1 0x20 PUSH1 0x0 KECCAK256 ADD SLOAD SWAP1 POP SWAP3 SWAP2 POP POP JUMP JUMPDEST PUSH1 0x0 DUP2 DUP2 MSTORE PUSH1 0x1 DUP4 ADD PUSH1 0x20 MSTORE PUSH1 0x40 DUP2 KECCAK256 SLOAD PUSH2 0x9CB JUMPI POP DUP2 SLOAD PUSH1 0x1 DUP2 DUP2 ADD DUP5 SSTORE PUSH1 0x0 DUP5 DUP2 MSTORE PUSH1 0x20 DUP1 DUP3 KECCAK256 SWAP1 SWAP4 ADD DUP5 SWAP1 SSTORE DUP5 SLOAD DUP5 DUP3 MSTORE DUP3 DUP7 ADD SWAP1 SWAP4 MSTORE PUSH1 0x40 SWAP1 KECCAK256 SWAP2 SWAP1 SWAP2 SSTORE PUSH2 0x216 JUMP JUMPDEST POP PUSH1 0x0 PUSH2 0x216 JUMP JUMPDEST PUSH1 0x60 DUP2 PUSH1 0x0 ADD DUP1 SLOAD DUP1 PUSH1 0x20 MUL PUSH1 0x20 ADD PUSH1 0x40 MLOAD SWAP1 DUP2 ADD PUSH1 0x40 MSTORE DUP1 SWAP3 SWAP2 SWAP1 DUP2 DUP2 MSTORE PUSH1 0x20 ADD DUP3 DUP1 SLOAD DUP1 ISZERO PUSH2 0xA23 JUMPI PUSH1 0x20 MUL DUP3 ADD SWAP2 SWAP1 PUSH1 0x0 MSTORE PUSH1 0x20 PUSH1 0x0 KECCAK256 SWAP1 JUMPDEST DUP2 SLOAD DUP2 MSTORE PUSH1 0x20 ADD SWAP1 PUSH1 0x1 ADD SWAP1 DUP1 DUP4 GT PUSH2 0xA0F JUMPI JUMPDEST POP POP POP POP POP SWAP1 POP SWAP2 SWAP1 POP JUMP JUMPDEST PUSH2 0xA38 DUP2 PUSH2 0x21C JUMP JUMPDEST PUSH2 0xA90 JUMPI PUSH1 0x40 MLOAD PUSH3 0x461BCD PUSH1 0xE5 SHL DUP2 MSTORE PUSH1 0x20 PUSH1 0x4 DUP3 ADD MSTORE PUSH1 0x23 PUSH1 0x24 DUP3 ADD MSTORE PUSH32 0x4661636574536166653A20746F6B656E206973206E6F7420616C6C6F77656420 PUSH1 0x44 DUP3 ADD MSTORE PUSH3 0x1BDD5D PUSH1 0xEA SHL PUSH1 0x64 DUP3 ADD MSTORE PUSH1 0x84 ADD PUSH2 0x2FF JUMP JUMPDEST POP JUMP JUMPDEST DUP1 PUSH2 0xA9C PUSH2 0x56F JUMP JUMPDEST PUSH1 0x1 PUSH1 0x1 PUSH1 0xA0 SHL SUB DUP5 AND PUSH1 0x0 SWAP1 DUP2 MSTORE PUSH1 0x20 SWAP2 SWAP1 SWAP2 MSTORE PUSH1 0x40 SWAP1 KECCAK256 SLOAD LT ISZERO PUSH2 0xB04 JUMPI PUSH1 0x40 MLOAD PUSH3 0x461BCD PUSH1 0xE5 SHL DUP2 MSTORE PUSH1 0x20 PUSH1 0x4 DUP3 ADD MSTORE PUSH1 0x1F PUSH1 0x24 DUP3 ADD MSTORE PUSH32 0x4661636574536166653A20696E73756666696369656E742062616C616E636500 PUSH1 0x44 DUP3 ADD MSTORE PUSH1 0x64 ADD PUSH2 0x2FF JUMP JUMPDEST POP POP JUMP JUMPDEST PUSH1 0x0 PUSH8 0xDE0B6B3A7640000 PUSH2 0xB1E DUP4 PUSH1 0xA PUSH2 0xEAD JUMP JUMPDEST PUSH8 0xDE0B6B3A7640000 PUSH2 0xB31 DUP7 DUP3 PUSH2 0xEBC JUMP JUMPDEST PUSH2 0xB3B SWAP2 SWAP1 PUSH2 0xED3 JUMP JUMPDEST PUSH2 0xB45 SWAP2 SWAP1 PUSH2 0xEBC JUMP JUMPDEST PUSH2 0x59F SWAP2 SWAP1 PUSH2 0xED3 JUMP JUMPDEST PUSH1 0x0 DUP2 DUP2 MSTORE PUSH1 0x1 DUP4 ADD PUSH1 0x20 MSTORE PUSH1 0x40 DUP2 KECCAK256 SLOAD DUP1 ISZERO PUSH2 0xC38 JUMPI PUSH1 0x0 PUSH2 0xB73 PUSH1 0x1 DUP4 PUSH2 0xD5B JUMP JUMPDEST DUP6 SLOAD SWAP1 SWAP2 POP PUSH1 0x0 SWAP1 PUSH2 0xB87 SWAP1 PUSH1 0x1 SWAP1 PUSH2 0xD5B JUMP JUMPDEST SWAP1 POP DUP2 DUP2 EQ PUSH2 0xBEC JUMPI PUSH1 0x0 DUP7 PUSH1 0x0 ADD DUP3 DUP2 SLOAD DUP2 LT PUSH2 0xBA7 JUMPI PUSH2 0xBA7 PUSH2 0xDB3 JUMP JUMPDEST SWAP1 PUSH1 0x0 MSTORE PUSH1 0x20 PUSH1 0x0 KECCAK256 ADD SLOAD SWAP1 POP DUP1 DUP8 PUSH1 0x0 ADD DUP5 DUP2 SLOAD DUP2 LT PUSH2 0xBCA JUMPI PUSH2 0xBCA PUSH2 0xDB3 JUMP JUMPDEST PUSH1 0x0 SWAP2 DUP3 MSTORE PUSH1 0x20 DUP1 DUP4 KECCAK256 SWAP1 SWAP2 ADD SWAP3 SWAP1 SWAP3 SSTORE SWAP2 DUP3 MSTORE PUSH1 0x1 DUP9 ADD SWAP1 MSTORE PUSH1 0x40 SWAP1 KECCAK256 DUP4 SWAP1 SSTORE JUMPDEST DUP6 SLOAD DUP7 SWAP1 DUP1 PUSH2 0xBFD JUMPI PUSH2 0xBFD PUSH2 0xEF5 JUMP JUMPDEST PUSH1 0x1 SWAP1 SUB DUP2 DUP2 SWAP1 PUSH1 0x0 MSTORE PUSH1 0x20 PUSH1 0x0 KECCAK256 ADD PUSH1 0x0 SWAP1 SSTORE SWAP1 SSTORE DUP6 PUSH1 0x1 ADD PUSH1 0x0 DUP7 DUP2 MSTORE PUSH1 0x20 ADD SWAP1 DUP2 MSTORE PUSH1 0x20 ADD PUSH1 0x0 KECCAK256 PUSH1 0x0 SWAP1 SSTORE PUSH1 0x1 SWAP4 POP POP POP POP PUSH2 0x216 JUMP JUMPDEST PUSH1 0x0 SWAP2 POP POP PUSH2 0x216 JUMP JUMPDEST PUSH1 0x0 PUSH1 0x20 DUP3 DUP5 SUB SLT ISZERO PUSH2 0xC54 JUMPI PUSH1 0x0 DUP1 REVERT JUMPDEST POP CALLDATALOAD SWAP2 SWAP1 POP JUMP JUMPDEST DUP1 CALLDATALOAD PUSH1 0x1 PUSH1 0x1 PUSH1 0xA0 SHL SUB DUP2 AND DUP2 EQ PUSH2 0xC72 JUMPI PUSH1 0x0 DUP1 REVERT JUMPDEST SWAP2 SWAP1 POP JUMP JUMPDEST PUSH1 0x0 PUSH1 0x20 DUP3 DUP5 SUB SLT ISZERO PUSH2 0xC89 JUMPI PUSH1 0x0 DUP1 REVERT JUMPDEST PUSH2 0x59F DUP3 PUSH2 0xC5B JUMP JUMPDEST PUSH1 0x20 DUP1 DUP3 MSTORE DUP3 MLOAD DUP3 DUP3 ADD DUP2 SWAP1 MSTORE PUSH1 0x0 SWAP2 SWAP1 DUP5 DUP3 ADD SWAP1 PUSH1 0x40 DUP6 ADD SWAP1 DUP5 JUMPDEST DUP2 DUP2 LT ISZERO PUSH2 0xCD3 JUMPI DUP4 MLOAD PUSH1 0x1 PUSH1 0x1 PUSH1 0xA0 SHL SUB AND DUP4 MSTORE SWAP3 DUP5 ADD SWAP3 SWAP2 DUP5 ADD SWAP2 PUSH1 0x1 ADD PUSH2 0xCAE JUMP JUMPDEST POP SWAP1 SWAP7 SWAP6 POP POP POP POP POP POP JUMP JUMPDEST PUSH1 0x0 DUP1 PUSH1 0x40 DUP4 DUP6 SUB SLT ISZERO PUSH2 0xCF2 JUMPI PUSH1 0x0 DUP1 REVERT JUMPDEST PUSH2 0xCFB DUP4 PUSH2 0xC5B JUMP JUMPDEST SWAP5 PUSH1 0x20 SWAP4 SWAP1 SWAP4 ADD CALLDATALOAD SWAP4 POP POP POP JUMP JUMPDEST PUSH1 0x0 DUP1 PUSH1 0x0 PUSH1 0x60 DUP5 DUP7 SUB SLT ISZERO PUSH2 0xD1E JUMPI PUSH1 0x0 DUP1 REVERT JUMPDEST PUSH2 0xD27 DUP5 PUSH2 0xC5B JUMP JUMPDEST SWAP3 POP PUSH2 0xD35 PUSH1 0x20 DUP6 ADD PUSH2 0xC5B JUMP JUMPDEST SWAP2 POP PUSH1 0x40 DUP5 ADD CALLDATALOAD SWAP1 POP SWAP3 POP SWAP3 POP SWAP3 JUMP JUMPDEST PUSH4 0x4E487B71 PUSH1 0xE0 SHL PUSH1 0x0 MSTORE PUSH1 0x11 PUSH1 0x4 MSTORE PUSH1 0x24 PUSH1 0x0 REVERT JUMPDEST DUP2 DUP2 SUB DUP2 DUP2 GT ISZERO PUSH2 0x216 JUMPI PUSH2 0x216 PUSH2 0xD45 JUMP JUMPDEST PUSH1 0x0 PUSH1 0x20 DUP3 DUP5 SUB SLT ISZERO PUSH2 0xD80 JUMPI PUSH1 0x0 DUP1 REVERT JUMPDEST DUP2 MLOAD PUSH1 0xFF DUP2 AND DUP2 EQ PUSH2 0x59F JUMPI PUSH1 0x0 DUP1 REVERT JUMPDEST PUSH1 0x0 PUSH1 0x20 DUP3 DUP5 SUB SLT ISZERO PUSH2 0xDA3 JUMPI PUSH1 0x0 DUP1 REVERT JUMPDEST DUP2 MLOAD DUP1 ISZERO ISZERO DUP2 EQ PUSH2 0x59F JUMPI PUSH1 0x0 DUP1 REVERT JUMPDEST PUSH4 0x4E487B71 PUSH1 0xE0 SHL PUSH1 0x0 MSTORE PUSH1 0x32 PUSH1 0x4 MSTORE PUSH1 0x24 PUSH1 0x0 REVERT JUMPDEST PUSH1 0x1 DUP2 DUP2 JUMPDEST DUP1 DUP6 GT ISZERO PUSH2 0xE04 JUMPI DUP2 PUSH1 0x0 NOT DIV DUP3 GT ISZERO PUSH2 0xDEA JUMPI PUSH2 0xDEA PUSH2 0xD45 JUMP JUMPDEST DUP1 DUP6 AND ISZERO PUSH2 0xDF7 JUMPI SWAP2 DUP2 MUL SWAP2 JUMPDEST SWAP4 DUP5 SHR SWAP4 SWAP1 DUP1 MUL SWAP1 PUSH2 0xDCE JUMP JUMPDEST POP SWAP3 POP SWAP3 SWAP1 POP JUMP JUMPDEST PUSH1 0x0 DUP3 PUSH2 0xE1B JUMPI POP PUSH1 0x1 PUSH2 0x216 JUMP JUMPDEST DUP2 PUSH2 0xE28 JUMPI POP PUSH1 0x0 PUSH2 0x216 JUMP JUMPDEST DUP2 PUSH1 0x1 DUP2 EQ PUSH2 0xE3E JUMPI PUSH1 0x2 DUP2 EQ PUSH2 0xE48 JUMPI PUSH2 0xE64 JUMP JUMPDEST PUSH1 0x1 SWAP2 POP POP PUSH2 0x216 JUMP JUMPDEST PUSH1 0xFF DUP5 GT ISZERO PUSH2 0xE59 JUMPI PUSH2 0xE59 PUSH2 0xD45 JUMP JUMPDEST POP POP PUSH1 0x1 DUP3 SHL PUSH2 0x216 JUMP JUMPDEST POP PUSH1 0x20 DUP4 LT PUSH2 0x133 DUP4 LT AND PUSH1 0x4E DUP5 LT PUSH1 0xB DUP5 LT AND OR ISZERO PUSH2 0xE87 JUMPI POP DUP2 DUP2 EXP PUSH2 0x216 JUMP JUMPDEST PUSH2 0xE91 DUP4 DUP4 PUSH2 0xDC9 JUMP JUMPDEST DUP1 PUSH1 0x0 NOT DIV DUP3 GT ISZERO PUSH2 0xEA5 JUMPI PUSH2 0xEA5 PUSH2 0xD45 JUMP JUMPDEST MUL SWAP4 SWAP3 POP POP POP JUMP JUMPDEST PUSH1 0x0 PUSH2 0x59F PUSH1 0xFF DUP5 AND DUP4 PUSH2 0xE0C JUMP JUMPDEST DUP1 DUP3 MUL DUP2 ISZERO DUP3 DUP3 DIV DUP5 EQ OR PUSH2 0x216 JUMPI PUSH2 0x216 PUSH2 0xD45 JUMP JUMPDEST PUSH1 0x0 DUP3 PUSH2 0xEF0 JUMPI PUSH4 0x4E487B71 PUSH1 0xE0 SHL PUSH1 0x0 MSTORE PUSH1 0x12 PUSH1 0x4 MSTORE PUSH1 0x24 PUSH1 0x0 REVERT JUMPDEST POP DIV SWAP1 JUMP JUMPDEST PUSH4 0x4E487B71 PUSH1 0xE0 SHL PUSH1 0x0 MSTORE PUSH1 0x31 PUSH1 0x4 MSTORE PUSH1 0x24 PUSH1 0x0 REVERT INVALID LOG2 PUSH5 0x6970667358 0x22 SLT KECCAK256 0xC5 CREATE2 PUSH30 0xDB0E4D94CC07B5616FF512E09A4546532B6FB4ACBB4788FB1BFAE4067564 PUSH20 0x6F6C634300081300330000000000000000000000 "
				},
				"gasEstimates": {
					"creation": {
						"codeDepositCost": "781000",
						"executionCost": "818",
						"totalCost": "781818"
					},
					"external": {
						"____allowTokenInToSafe(address)": "infinite",
						"____allowTokenOutOfSafe(address)": "infinite",
						"____forbidTokenInToSafe(address)": "infinite",
						"____forbidTokenOutOfSafe(address)": "infinite",
						"____withdraw(address,address,uint256)": "infinite",
						"____withdraw(address,uint256)": "infinite",
						"getHoldingsInSafe(address)": "2619",
						"getTokenAllowedInToSafe(uint256)": "4785",
						"getTokenAllowedOutFromSafe(uint256)": "4720",
						"getTokensAllowedInToSafe()": "infinite",
						"getTokensAllowedOutFromSafe()": "infinite",
						"isAllowedIn(address)": "infinite",
						"isAllowedOut(address)": "infinite"
					},
					"internal": {
						"_deposit()": "infinite",
						"_deposit(address,uint256)": "infinite",
						"_onlyAllowedIn(address)": "infinite",
						"_onlyAllowedOut(address)": "infinite",
						"_onlyCallerHasSufficientBalance(address,uint256)": "infinite",
						"_onlyCallerHasSufficientBalance(uint256)": "infinite",
						"_onlySelf()": "infinite",
						"_onlySelfHasSufficientBalance(address,uint256)": "infinite",
						"_self()": "infinite",
						"_withdraw(address,address,uint256)": "infinite",
						"_withdraw(address,uint256)": "infinite"
					}
				},
				"methodIdentifiers": {
					"____allowTokenInToSafe(address)": "18b31027",
					"____allowTokenOutOfSafe(address)": "a6a2fcd7",
					"____forbidTokenInToSafe(address)": "e5e45084",
					"____forbidTokenOutOfSafe(address)": "b74cbb41",
					"____withdraw(address,address,uint256)": "36447c4e",
					"____withdraw(address,uint256)": "31b94450",
					"getHoldingsInSafe(address)": "3e800148",
					"getTokenAllowedInToSafe(uint256)": "e13a96d6",
					"getTokenAllowedOutFromSafe(uint256)": "0a885f95",
					"getTokensAllowedInToSafe()": "2a77d7b8",
					"getTokensAllowedOutFromSafe()": "464964b1",
					"isAllowedIn(address)": "b3a54f1b",
					"isAllowedOut(address)": "182a9420"
				}
			},
			"storageLayout": {
				"storage": [],
				"types": null
			},
			"userdoc": {
				"kind": "user",
				"methods": {},
				"notice": "rework",
				"version": 1
			}
		}
	}
}