{
	"diamonds/facets/FacetConsole.sol": {
		"FacetConsole": {
			"abi": [
				{
					"anonymous": false,
					"inputs": [
						{
							"indexed": true,
							"internalType": "uint256",
							"name": "requestId",
							"type": "uint256"
						},
						{
							"indexed": true,
							"internalType": "address",
							"name": "to",
							"type": "address"
						},
						{
							"indexed": true,
							"internalType": "bytes",
							"name": "args",
							"type": "bytes"
						}
					],
					"name": "NewRequest",
					"type": "event"
				},
				{
					"anonymous": false,
					"inputs": [
						{
							"indexed": true,
							"internalType": "address",
							"name": "oldOperator",
							"type": "address"
						},
						{
							"indexed": true,
							"internalType": "address",
							"name": "newOperator",
							"type": "address"
						}
					],
					"name": "OperatorChanged",
					"type": "event"
				},
				{
					"anonymous": false,
					"inputs": [
						{
							"indexed": true,
							"internalType": "uint256",
							"name": "requestId",
							"type": "uint256"
						}
					],
					"name": "RequestPassed",
					"type": "event"
				},
				{
					"anonymous": false,
					"inputs": [
						{
							"indexed": true,
							"internalType": "uint256",
							"name": "oldTimelockSeconds",
							"type": "uint256"
						},
						{
							"indexed": true,
							"internalType": "uint256",
							"name": "newTimelockSeconds",
							"type": "uint256"
						}
					],
					"name": "TimelockChanged",
					"type": "event"
				},
				{
					"inputs": [
						{
							"internalType": "address",
							"name": "newOperator",
							"type": "address"
						}
					],
					"name": "____setOperator",
					"outputs": [],
					"stateMutability": "nonpayable",
					"type": "function"
				},
				{
					"inputs": [
						{
							"internalType": "uint256",
							"name": "newTimelockSeconds",
							"type": "uint256"
						}
					],
					"name": "____setTimelock",
					"outputs": [],
					"stateMutability": "nonpayable",
					"type": "function"
				},
				{
					"inputs": [],
					"name": "claim",
					"outputs": [],
					"stateMutability": "nonpayable",
					"type": "function"
				},
				{
					"inputs": [
						{
							"internalType": "uint256",
							"name": "requestId",
							"type": "uint256"
						}
					],
					"name": "execute",
					"outputs": [
						{
							"internalType": "bool",
							"name": "",
							"type": "bool"
						},
						{
							"internalType": "bytes",
							"name": "",
							"type": "bytes"
						}
					],
					"stateMutability": "nonpayable",
					"type": "function"
				},
				{
					"inputs": [],
					"name": "getCurrentRequestId",
					"outputs": [
						{
							"internalType": "uint256",
							"name": "",
							"type": "uint256"
						}
					],
					"stateMutability": "view",
					"type": "function"
				},
				{
					"inputs": [
						{
							"internalType": "uint256",
							"name": "requestId",
							"type": "uint256"
						}
					],
					"name": "getRequestArgs",
					"outputs": [
						{
							"internalType": "bytes",
							"name": "",
							"type": "bytes"
						}
					],
					"stateMutability": "view",
					"type": "function"
				},
				{
					"inputs": [
						{
							"internalType": "uint256",
							"name": "requestId",
							"type": "uint256"
						}
					],
					"name": "getRequestDuration",
					"outputs": [
						{
							"internalType": "uint256",
							"name": "",
							"type": "uint256"
						}
					],
					"stateMutability": "view",
					"type": "function"
				},
				{
					"inputs": [
						{
							"internalType": "uint256",
							"name": "requestId",
							"type": "uint256"
						}
					],
					"name": "getRequestStartTimestamp",
					"outputs": [
						{
							"internalType": "uint256",
							"name": "",
							"type": "uint256"
						}
					],
					"stateMutability": "view",
					"type": "function"
				},
				{
					"inputs": [
						{
							"internalType": "uint256",
							"name": "requestId",
							"type": "uint256"
						}
					],
					"name": "getRequestTarget",
					"outputs": [
						{
							"internalType": "address",
							"name": "",
							"type": "address"
						}
					],
					"stateMutability": "view",
					"type": "function"
				},
				{
					"inputs": [],
					"name": "operator",
					"outputs": [
						{
							"internalType": "address",
							"name": "",
							"type": "address"
						}
					],
					"stateMutability": "view",
					"type": "function"
				},
				{
					"inputs": [
						{
							"internalType": "address",
							"name": "to",
							"type": "address"
						},
						{
							"internalType": "bytes",
							"name": "args",
							"type": "bytes"
						}
					],
					"name": "request",
					"outputs": [
						{
							"internalType": "uint256",
							"name": "",
							"type": "uint256"
						}
					],
					"stateMutability": "nonpayable",
					"type": "function"
				},
				{
					"inputs": [
						{
							"internalType": "uint256",
							"name": "requestId",
							"type": "uint256"
						}
					],
					"name": "requestHasBeenExecuted",
					"outputs": [
						{
							"internalType": "bool",
							"name": "",
							"type": "bool"
						}
					],
					"stateMutability": "view",
					"type": "function"
				}
			],
			"devdoc": {
				"kind": "dev",
				"methods": {},
				"version": 1
			},
			"evm": {
				"assembly": "    /* \"diamonds/facets/FacetConsole.sol\":209:3761  contract FacetConsole is SlotConsole, Context {... */\n  mstore(0x40, 0x80)\n  callvalue\n  dup1\n  iszero\n  tag_1\n  jumpi\n  0x00\n  dup1\n  revert\ntag_1:\n  pop\n  dataSize(sub_0)\n  dup1\n  dataOffset(sub_0)\n  0x00\n  codecopy\n  0x00\n  return\nstop\n\nsub_0: assembly {\n        /* \"diamonds/facets/FacetConsole.sol\":209:3761  contract FacetConsole is SlotConsole, Context {... */\n      mstore(0x40, 0x80)\n      callvalue\n      dup1\n      iszero\n      tag_1\n      jumpi\n      0x00\n      dup1\n      revert\n    tag_1:\n      pop\n      jumpi(tag_2, lt(calldatasize, 0x04))\n      shr(0xe0, calldataload(0x00))\n      dup1\n      0x8e3b4918\n      gt\n      tag_15\n      jumpi\n      dup1\n      0x8e3b4918\n      eq\n      tag_9\n      jumpi\n      dup1\n      0x97fe0179\n      eq\n      tag_10\n      jumpi\n      dup1\n      0xe4893f39\n      eq\n      tag_11\n      jumpi\n      dup1\n      0xee47fc5c\n      eq\n      tag_12\n      jumpi\n      dup1\n      0xfbc5d026\n      eq\n      tag_13\n      jumpi\n      dup1\n      0xfe0d94c1\n      eq\n      tag_14\n      jumpi\n      0x00\n      dup1\n      revert\n    tag_15:\n      dup1\n      0x0b2d29fb\n      eq\n      tag_3\n      jumpi\n      dup1\n      0x15cd1841\n      eq\n      tag_4\n      jumpi\n      dup1\n      0x4e71d92d\n      eq\n      tag_5\n      jumpi\n      dup1\n      0x570ca735\n      eq\n      tag_6\n      jumpi\n      dup1\n      0x7a479160\n      eq\n      tag_7\n      jumpi\n      dup1\n      0x80171fbd\n      eq\n      tag_8\n      jumpi\n    tag_2:\n      0x00\n      dup1\n      revert\n        /* \"diamonds/facets/FacetConsole.sol\":2285:2878  function request(address to, bytes memory args) public virtual returns (uint) {... */\n    tag_3:\n      tag_16\n      tag_17\n      calldatasize\n      0x04\n      tag_18\n      jump\t// in\n    tag_17:\n      tag_19\n      jump\t// in\n    tag_16:\n      mload(0x40)\n        /* \"#utility.yul\":1470:1495   */\n      swap1\n      dup2\n      mstore\n        /* \"#utility.yul\":1458:1460   */\n      0x20\n        /* \"#utility.yul\":1443:1461   */\n      add\n        /* \"diamonds/facets/FacetConsole.sol\":2285:2878  function request(address to, bytes memory args) public virtual returns (uint) {... */\n    tag_20:\n      mload(0x40)\n      dup1\n      swap2\n      sub\n      swap1\n      return\n        /* \"diamonds/facets/FacetConsole.sol\":1217:1336  function getCurrentRequestId() public view virtual returns (uint) {... */\n    tag_4:\n      tag_16\n      tag_23\n      jump\t// in\n        /* \"diamonds/facets/FacetConsole.sol\":2088:2279  function claim() public virtual {... */\n    tag_5:\n      tag_25\n      tag_26\n      jump\t// in\n    tag_25:\n      stop\n        /* \"diamonds/facets/FacetConsole.sol\":1111:1211  function operator() public view virtual returns (address) {... */\n    tag_6:\n      tag_27\n      tag_28\n      jump\t// in\n    tag_27:\n      mload(0x40)\n      sub(shl(0xa0, 0x01), 0x01)\n        /* \"#utility.yul\":1670:1702   */\n      swap1\n      swap2\n      and\n        /* \"#utility.yul\":1652:1703   */\n      dup2\n      mstore\n        /* \"#utility.yul\":1640:1642   */\n      0x20\n        /* \"#utility.yul\":1625:1643   */\n      add\n        /* \"diamonds/facets/FacetConsole.sol\":1111:1211  function operator() public view virtual returns (address) {... */\n      tag_20\n        /* \"#utility.yul\":1506:1709   */\n      jump\n        /* \"diamonds/facets/FacetConsole.sol\":1484:1625  function getRequestArgs(uint requestId) public view virtual returns (bytes memory) {... */\n    tag_7:\n      tag_31\n      tag_32\n      calldatasize\n      0x04\n      tag_33\n      jump\t// in\n    tag_32:\n      tag_34\n      jump\t// in\n    tag_31:\n      mload(0x40)\n      tag_20\n      swap2\n      swap1\n      tag_36\n      jump\t// in\n        /* \"diamonds/facets/FacetConsole.sol\":820:1096  function ____setTimelock(uint newTimelockSeconds) external virtual {... */\n    tag_8:\n      tag_25\n      tag_38\n      calldatasize\n      0x04\n      tag_33\n      jump\t// in\n    tag_38:\n      tag_39\n      jump\t// in\n        /* \"diamonds/facets/FacetConsole.sol\":1790:1931  function getRequestDuration(uint requestId) public view virtual returns (uint) {... */\n    tag_9:\n      tag_16\n      tag_41\n      calldatasize\n      0x04\n      tag_33\n      jump\t// in\n    tag_41:\n      tag_42\n      jump\t// in\n        /* \"diamonds/facets/FacetConsole.sol\":1937:2082  function requestHasBeenExecuted(uint requestId) public view virtual returns (bool) {... */\n    tag_10:\n      tag_44\n      tag_45\n      calldatasize\n      0x04\n      tag_33\n      jump\t// in\n    tag_45:\n      tag_46\n      jump\t// in\n    tag_44:\n      mload(0x40)\n        /* \"#utility.yul\":2816:2830   */\n      swap1\n      iszero\n        /* \"#utility.yul\":2809:2831   */\n      iszero\n        /* \"#utility.yul\":2791:2832   */\n      dup2\n      mstore\n        /* \"#utility.yul\":2779:2781   */\n      0x20\n        /* \"#utility.yul\":2764:2782   */\n      add\n        /* \"diamonds/facets/FacetConsole.sol\":1937:2082  function requestHasBeenExecuted(uint requestId) public view virtual returns (bool) {... */\n      tag_20\n        /* \"#utility.yul\":2651:2838   */\n      jump\n        /* \"diamonds/facets/FacetConsole.sol\":575:814  function ____setOperator(address newOperator) external virtual {... */\n    tag_11:\n      tag_25\n      tag_50\n      calldatasize\n      0x04\n      tag_51\n      jump\t// in\n    tag_50:\n      tag_52\n      jump\t// in\n        /* \"diamonds/facets/FacetConsole.sol\":1342:1478  function getRequestTarget(uint requestId) public view virtual returns (address) {... */\n    tag_12:\n      tag_27\n      tag_54\n      calldatasize\n      0x04\n      tag_33\n      jump\t// in\n    tag_54:\n      tag_55\n      jump\t// in\n        /* \"diamonds/facets/FacetConsole.sol\":1631:1784  function getRequestStartTimestamp(uint requestId) public view virtual returns (uint) {... */\n    tag_13:\n      tag_16\n      tag_58\n      calldatasize\n      0x04\n      tag_33\n      jump\t// in\n    tag_58:\n      tag_59\n      jump\t// in\n        /* \"diamonds/facets/FacetConsole.sol\":2884:3642  function execute(uint requestId) public virtual returns (bool, bytes memory) {... */\n    tag_14:\n      tag_61\n      tag_62\n      calldatasize\n      0x04\n      tag_33\n      jump\t// in\n    tag_62:\n      tag_63\n      jump\t// in\n    tag_61:\n      mload(0x40)\n      tag_20\n      swap3\n      swap2\n      swap1\n      tag_65\n      jump\t// in\n        /* \"diamonds/facets/FacetConsole.sol\":2285:2878  function request(address to, bytes memory args) public virtual returns (uint) {... */\n    tag_19:\n        /* \"diamonds/facets/FacetConsole.sol\":2357:2361  uint */\n      0x00\n        /* \"diamonds/facets/FacetConsole.sol\":2397:2406  console() */\n      tag_67\n        /* \"diamonds/facets/FacetConsole.sol\":2397:2404  console */\n      tag_68\n        /* \"diamonds/facets/FacetConsole.sol\":2397:2406  console() */\n      jump\t// in\n    tag_67:\n        /* \"diamonds/facets/FacetConsole.sol\":2397:2415  console().operator */\n      sload\n      sub(shl(0xa0, 0x01), 0x01)\n      and\n        /* \"imports/openzeppelin/utils/Context.sol\":720:730  msg.sender */\n      caller\n      sub(shl(0xa0, 0x01), 0x01)\n        /* \"diamonds/facets/FacetConsole.sol\":2381:2415  _msgSender() == console().operator */\n      and\n      eq\n        /* \"diamonds/facets/FacetConsole.sol\":2373:2447  require(_msgSender() == console().operator, 'FacetConsole: only operator') */\n      tag_71\n      jumpi\n      mload(0x40)\n      shl(0xe5, 0x461bcd)\n      dup2\n      mstore\n        /* \"#utility.yul\":3539:3541   */\n      0x20\n        /* \"diamonds/facets/FacetConsole.sol\":2373:2447  require(_msgSender() == console().operator, 'FacetConsole: only operator') */\n      0x04\n      dup3\n      add\n        /* \"#utility.yul\":3521:3542   */\n      mstore\n        /* \"#utility.yul\":3578:3580   */\n      0x1b\n        /* \"#utility.yul\":3558:3576   */\n      0x24\n      dup3\n      add\n        /* \"#utility.yul\":3551:3581   */\n      mstore\n        /* \"#utility.yul\":3617:3646   */\n      0x4661636574436f6e736f6c653a206f6e6c79206f70657261746f720000000000\n        /* \"#utility.yul\":3597:3615   */\n      0x44\n      dup3\n      add\n        /* \"#utility.yul\":3590:3647   */\n      mstore\n        /* \"#utility.yul\":3664:3682   */\n      0x64\n      add\n        /* \"diamonds/facets/FacetConsole.sol\":2373:2447  require(_msgSender() == console().operator, 'FacetConsole: only operator') */\n    tag_72:\n      mload(0x40)\n      dup1\n      swap2\n      sub\n      swap1\n      revert\n    tag_71:\n        /* \"diamonds/facets/FacetConsole.sol\":2457:2494  SlotConsole.Request memory newRequest */\n      tag_74\n      mload(0x40)\n      dup1\n      0xa0\n      add\n      0x40\n      mstore\n      dup1\n      and(sub(shl(0xa0, 0x01), 0x01), 0x00)\n      dup2\n      mstore\n      0x20\n      add\n      0x60\n      dup2\n      mstore\n      0x20\n      add\n      0x00\n      dup2\n      mstore\n      0x20\n      add\n      0x00\n      dup2\n      mstore\n      0x20\n      add\n      iszero(iszero(0x00))\n      dup2\n      mstore\n      pop\n      swap1\n      jump\n    tag_74:\n      sub(shl(0xa0, 0x01), 0x01)\n        /* \"diamonds/facets/FacetConsole.sol\":2504:2522  newRequest.to = to */\n      dup5\n      and\n      dup2\n      mstore\n        /* \"diamonds/facets/FacetConsole.sol\":2532:2547  newRequest.args */\n      0x20\n      dup2\n      add\n        /* \"diamonds/facets/FacetConsole.sol\":2532:2554  newRequest.args = args */\n      dup4\n      swap1\n      mstore\n        /* \"diamonds/facets/FacetConsole.sol\":2592:2607  block.timestamp */\n      timestamp\n        /* \"diamonds/facets/FacetConsole.sol\":2564:2589  newRequest.startTimestamp */\n      0x40\n      dup3\n      add\n        /* \"diamonds/facets/FacetConsole.sol\":2564:2607  newRequest.startTimestamp = block.timestamp */\n      mstore\n        /* \"diamonds/facets/FacetConsole.sol\":2639:2648  console() */\n      tag_76\n        /* \"diamonds/facets/FacetConsole.sol\":2639:2646  console */\n      tag_68\n        /* \"diamonds/facets/FacetConsole.sol\":2639:2648  console() */\n      jump\t// in\n    tag_76:\n        /* \"diamonds/facets/FacetConsole.sol\":2639:2661  console().delaySeconds */\n      0x01\n      add\n      sload\n        /* \"diamonds/facets/FacetConsole.sol\":2617:2636  newRequest.duration */\n      0x60\n      dup3\n      add\n        /* \"diamonds/facets/FacetConsole.sol\":2617:2661  newRequest.duration = console().delaySeconds */\n      mstore\n        /* \"diamonds/facets/FacetConsole.sol\":2693:2698  false */\n      0x00\n        /* \"diamonds/facets/FacetConsole.sol\":2671:2690  newRequest.executed */\n      0x80\n      dup3\n      add\n        /* \"diamonds/facets/FacetConsole.sol\":2671:2698  newRequest.executed = false */\n      mstore\n        /* \"diamonds/facets/FacetConsole.sol\":2708:2717  console() */\n      tag_77\n        /* \"diamonds/facets/FacetConsole.sol\":2708:2715  console */\n      tag_68\n        /* \"diamonds/facets/FacetConsole.sol\":2708:2717  console() */\n      jump\t// in\n    tag_77:\n        /* \"diamonds/facets/FacetConsole.sol\":2708:2726  console().requests */\n      0x02\n      add\n        /* \"diamonds/facets/FacetConsole.sol\":2708:2743  console().requests.push(newRequest) */\n      dup1\n      sload\n      0x01\n      dup1\n      dup3\n      add\n      dup4\n      sstore\n      0x00\n      swap3\n      dup4\n      mstore\n      0x20\n      swap3\n      dup4\n      swap1\n      keccak256\n      dup5\n      mload\n      0x05\n      swap1\n      swap4\n      mul\n      add\n      dup1\n      sload\n      not(sub(shl(0xa0, 0x01), 0x01))\n      and\n      sub(shl(0xa0, 0x01), 0x01)\n      swap1\n      swap4\n      and\n      swap3\n      swap1\n      swap3\n      or\n      dup3\n      sstore\n      swap2\n      dup4\n      add\n      mload\n      dup4\n      swap3\n      dup3\n      add\n      swap1\n      tag_79\n      swap1\n      dup3\n      tag_80\n      jump\t// in\n    tag_79:\n      pop\n      0x40\n      dup3\n      add\n      mload\n      0x02\n      dup3\n      add\n      sstore\n      0x60\n      dup3\n      add\n      mload\n      0x03\n      dup3\n      add\n      sstore\n      0x80\n      swap1\n      swap2\n      add\n      mload\n      0x04\n      swap1\n      swap2\n      add\n      dup1\n      sload\n      not(0xff)\n      and\n      swap2\n      iszero\n      iszero\n      swap2\n      swap1\n      swap2\n      or\n      swap1\n      sstore\n      0x00\n      0x01\n        /* \"diamonds/facets/FacetConsole.sol\":2770:2779  console() */\n      tag_81\n        /* \"diamonds/facets/FacetConsole.sol\":2770:2777  console */\n      tag_68\n        /* \"diamonds/facets/FacetConsole.sol\":2770:2779  console() */\n      jump\t// in\n    tag_81:\n        /* \"diamonds/facets/FacetConsole.sol\":2770:2788  console().requests */\n      0x02\n      add\n        /* \"diamonds/facets/FacetConsole.sol\":2770:2795  console().requests.length */\n      sload\n        /* \"diamonds/facets/FacetConsole.sol\":2770:2799  console().requests.length - 1 */\n      tag_82\n      swap2\n      swap1\n      tag_83\n      jump\t// in\n    tag_82:\n        /* \"diamonds/facets/FacetConsole.sol\":2753:2799  uint requestId = console().requests.length - 1 */\n      swap1\n      pop\n        /* \"diamonds/facets/FacetConsole.sol\":2840:2844  args */\n      dup4\n        /* \"diamonds/facets/FacetConsole.sol\":2814:2845  NewRequest(requestId, to, args) */\n      mload(0x40)\n      tag_84\n      swap2\n      swap1\n      tag_85\n      jump\t// in\n    tag_84:\n      mload(0x40)\n      swap1\n      dup2\n      swap1\n      sub\n      dup2\n      keccak256\n      swap1\n      sub(shl(0xa0, 0x01), 0x01)\n      dup8\n      and\n      swap1\n        /* \"diamonds/facets/FacetConsole.sol\":2825:2834  requestId */\n      dup4\n      swap1\n        /* \"diamonds/facets/FacetConsole.sol\":2814:2845  NewRequest(requestId, to, args) */\n      0x0f4abe1047b2e3e9b2a07806bd86e20d27244a2317feaa31fb97d26b94911486\n      swap1\n      0x00\n      swap1\n      log4\n        /* \"diamonds/facets/FacetConsole.sol\":2862:2871  requestId */\n      swap2\n      pop\n      pop\n        /* \"diamonds/facets/FacetConsole.sol\":2285:2878  function request(address to, bytes memory args) public virtual returns (uint) {... */\n    tag_66:\n      swap3\n      swap2\n      pop\n      pop\n      jump\t// out\n        /* \"diamonds/facets/FacetConsole.sol\":1217:1336  function getCurrentRequestId() public view virtual returns (uint) {... */\n    tag_23:\n        /* \"diamonds/facets/FacetConsole.sol\":1277:1281  uint */\n      0x00\n        /* \"diamonds/facets/FacetConsole.sol\":1328:1329  1 */\n      0x01\n        /* \"diamonds/facets/FacetConsole.sol\":1300:1309  console() */\n      tag_87\n        /* \"diamonds/facets/FacetConsole.sol\":1300:1307  console */\n      tag_68\n        /* \"diamonds/facets/FacetConsole.sol\":1300:1309  console() */\n      jump\t// in\n    tag_87:\n        /* \"diamonds/facets/FacetConsole.sol\":1300:1318  console().requests */\n      0x02\n      add\n        /* \"diamonds/facets/FacetConsole.sol\":1300:1325  console().requests.length */\n      sload\n        /* \"diamonds/facets/FacetConsole.sol\":1300:1329  console().requests.length - 1 */\n      tag_88\n      swap2\n      swap1\n      tag_83\n      jump\t// in\n    tag_88:\n        /* \"diamonds/facets/FacetConsole.sol\":1293:1329  return console().requests.length - 1 */\n      swap1\n      pop\n        /* \"diamonds/facets/FacetConsole.sol\":1217:1336  function getCurrentRequestId() public view virtual returns (uint) {... */\n      swap1\n      jump\t// out\n        /* \"diamonds/facets/FacetConsole.sol\":2088:2279  function claim() public virtual {... */\n    tag_26:\n        /* \"diamonds/facets/FacetConsole.sol\":2168:2169  0 */\n      0x00\n        /* \"diamonds/facets/FacetConsole.sol\":2138:2147  console() */\n      tag_90\n        /* \"diamonds/facets/FacetConsole.sol\":2138:2145  console */\n      tag_68\n        /* \"diamonds/facets/FacetConsole.sol\":2138:2147  console() */\n      jump\t// in\n    tag_90:\n        /* \"diamonds/facets/FacetConsole.sol\":2138:2156  console().operator */\n      sload\n      sub(shl(0xa0, 0x01), 0x01)\n      and\n        /* \"diamonds/facets/FacetConsole.sol\":2138:2170  console().operator == address(0) */\n      eq\n        /* \"diamonds/facets/FacetConsole.sol\":2130:2204  require(console().operator == address(0), 'FacetConsole: already claimed') */\n      tag_91\n      jumpi\n      mload(0x40)\n      shl(0xe5, 0x461bcd)\n      dup2\n      mstore\n        /* \"#utility.yul\":7035:7037   */\n      0x20\n        /* \"diamonds/facets/FacetConsole.sol\":2130:2204  require(console().operator == address(0), 'FacetConsole: already claimed') */\n      0x04\n      dup3\n      add\n        /* \"#utility.yul\":7017:7038   */\n      mstore\n        /* \"#utility.yul\":7074:7076   */\n      0x1d\n        /* \"#utility.yul\":7054:7072   */\n      0x24\n      dup3\n      add\n        /* \"#utility.yul\":7047:7077   */\n      mstore\n        /* \"#utility.yul\":7113:7144   */\n      0x4661636574436f6e736f6c653a20616c726561647920636c61696d6564000000\n        /* \"#utility.yul\":7093:7111   */\n      0x44\n      dup3\n      add\n        /* \"#utility.yul\":7086:7145   */\n      mstore\n        /* \"#utility.yul\":7162:7180   */\n      0x64\n      add\n        /* \"diamonds/facets/FacetConsole.sol\":2130:2204  require(console().operator == address(0), 'FacetConsole: already claimed') */\n      tag_72\n        /* \"#utility.yul\":6833:7186   */\n      jump\n        /* \"diamonds/facets/FacetConsole.sol\":2130:2204  require(console().operator == address(0), 'FacetConsole: already claimed') */\n    tag_91:\n        /* \"diamonds/facets/FacetConsole.sol\":2236:2240  this */\n      address\n        /* \"diamonds/facets/FacetConsole.sol\":2214:2258  IFacetConsole(address(this)).____setOperator */\n      0xe4893f39\n        /* \"imports/openzeppelin/utils/Context.sol\":720:730  msg.sender */\n      caller\n        /* \"diamonds/facets/FacetConsole.sol\":2214:2272  IFacetConsole(address(this)).____setOperator(_msgSender()) */\n      mload(0x40)\n      not(sub(shl(0xe0, 0x01), 0x01))\n      0xe0\n      dup5\n      swap1\n      shl\n      and\n      dup2\n      mstore\n      sub(shl(0xa0, 0x01), 0x01)\n        /* \"#utility.yul\":1670:1702   */\n      swap1\n      swap2\n      and\n        /* \"diamonds/facets/FacetConsole.sol\":2214:2272  IFacetConsole(address(this)).____setOperator(_msgSender()) */\n      0x04\n      dup3\n      add\n        /* \"#utility.yul\":1652:1703   */\n      mstore\n        /* \"#utility.yul\":1625:1643   */\n      0x24\n      add\n        /* \"diamonds/facets/FacetConsole.sol\":2214:2272  IFacetConsole(address(this)).____setOperator(_msgSender()) */\n      0x00\n      mload(0x40)\n      dup1\n      dup4\n      sub\n      dup2\n      0x00\n      dup8\n      dup1\n      extcodesize\n      iszero\n      dup1\n      iszero\n      tag_96\n      jumpi\n      0x00\n      dup1\n      revert\n    tag_96:\n      pop\n      gas\n      call\n      iszero\n      dup1\n      iszero\n      tag_98\n      jumpi\n      returndatasize\n      0x00\n      dup1\n      returndatacopy\n      revert(0x00, returndatasize)\n    tag_98:\n      pop\n      pop\n      pop\n      pop\n        /* \"diamonds/facets/FacetConsole.sol\":2088:2279  function claim() public virtual {... */\n      jump\t// out\n        /* \"diamonds/facets/FacetConsole.sol\":1111:1211  function operator() public view virtual returns (address) {... */\n    tag_28:\n        /* \"diamonds/facets/FacetConsole.sol\":1160:1167  address */\n      0x00\n        /* \"diamonds/facets/FacetConsole.sol\":1186:1195  console() */\n      tag_100\n        /* \"diamonds/facets/FacetConsole.sol\":1186:1193  console */\n      tag_68\n        /* \"diamonds/facets/FacetConsole.sol\":1186:1195  console() */\n      jump\t// in\n    tag_100:\n        /* \"diamonds/facets/FacetConsole.sol\":1186:1204  console().operator */\n      sload\n      sub(shl(0xa0, 0x01), 0x01)\n      and\n      swap2\n        /* \"diamonds/facets/FacetConsole.sol\":1111:1211  function operator() public view virtual returns (address) {... */\n      swap1\n      pop\n      jump\t// out\n        /* \"diamonds/facets/FacetConsole.sol\":1484:1625  function getRequestArgs(uint requestId) public view virtual returns (bytes memory) {... */\n    tag_34:\n        /* \"diamonds/facets/FacetConsole.sol\":1553:1565  bytes memory */\n      0x60\n        /* \"diamonds/facets/FacetConsole.sol\":1584:1593  console() */\n      tag_102\n        /* \"diamonds/facets/FacetConsole.sol\":1584:1591  console */\n      tag_68\n        /* \"diamonds/facets/FacetConsole.sol\":1584:1593  console() */\n      jump\t// in\n    tag_102:\n        /* \"diamonds/facets/FacetConsole.sol\":1584:1602  console().requests */\n      0x02\n      add\n        /* \"diamonds/facets/FacetConsole.sol\":1603:1612  requestId */\n      dup3\n        /* \"diamonds/facets/FacetConsole.sol\":1584:1613  console().requests[requestId] */\n      dup2\n      sload\n      dup2\n      lt\n      tag_104\n      jumpi\n      tag_104\n      tag_105\n      jump\t// in\n    tag_104:\n      swap1\n      0x00\n      mstore\n      keccak256(0x00, 0x20)\n      swap1\n      0x05\n      mul\n      add\n        /* \"diamonds/facets/FacetConsole.sol\":1584:1618  console().requests[requestId].args */\n      0x01\n      add\n        /* \"diamonds/facets/FacetConsole.sol\":1577:1618  return console().requests[requestId].args */\n      dup1\n      sload\n      tag_107\n      swap1\n      tag_108\n      jump\t// in\n    tag_107:\n      dup1\n      0x1f\n      add\n      0x20\n      dup1\n      swap2\n      div\n      mul\n      0x20\n      add\n      mload(0x40)\n      swap1\n      dup2\n      add\n      0x40\n      mstore\n      dup1\n      swap3\n      swap2\n      swap1\n      dup2\n      dup2\n      mstore\n      0x20\n      add\n      dup3\n      dup1\n      sload\n      tag_109\n      swap1\n      tag_108\n      jump\t// in\n    tag_109:\n      dup1\n      iszero\n      tag_110\n      jumpi\n      dup1\n      0x1f\n      lt\n      tag_111\n      jumpi\n      0x0100\n      dup1\n      dup4\n      sload\n      div\n      mul\n      dup4\n      mstore\n      swap2\n      0x20\n      add\n      swap2\n      jump(tag_110)\n    tag_111:\n      dup3\n      add\n      swap2\n      swap1\n      0x00\n      mstore\n      keccak256(0x00, 0x20)\n      swap1\n    tag_112:\n      dup2\n      sload\n      dup2\n      mstore\n      swap1\n      0x01\n      add\n      swap1\n      0x20\n      add\n      dup1\n      dup4\n      gt\n      tag_112\n      jumpi\n      dup3\n      swap1\n      sub\n      0x1f\n      and\n      dup3\n      add\n      swap2\n    tag_110:\n      pop\n      pop\n      pop\n      pop\n      pop\n      swap1\n      pop\n        /* \"diamonds/facets/FacetConsole.sol\":1484:1625  function getRequestArgs(uint requestId) public view virtual returns (bytes memory) {... */\n      swap2\n      swap1\n      pop\n      jump\t// out\n        /* \"diamonds/facets/FacetConsole.sol\":820:1096  function ____setTimelock(uint newTimelockSeconds) external virtual {... */\n    tag_39:\n        /* \"diamonds/facets/FacetConsole.sol\":897:908  _onlySelf() */\n      tag_114\n        /* \"diamonds/facets/FacetConsole.sol\":897:906  _onlySelf */\n      tag_115\n        /* \"diamonds/facets/FacetConsole.sol\":897:908  _onlySelf() */\n      jump\t// in\n    tag_114:\n        /* \"diamonds/facets/FacetConsole.sol\":918:941  uint oldTimelockSeconds */\n      0x00\n        /* \"diamonds/facets/FacetConsole.sol\":944:953  console() */\n      tag_116\n        /* \"diamonds/facets/FacetConsole.sol\":944:951  console */\n      tag_68\n        /* \"diamonds/facets/FacetConsole.sol\":944:953  console() */\n      jump\t// in\n    tag_116:\n        /* \"diamonds/facets/FacetConsole.sol\":944:966  console().delaySeconds */\n      0x01\n      add\n      sload\n        /* \"diamonds/facets/FacetConsole.sol\":918:966  uint oldTimelockSeconds = console().delaySeconds */\n      swap1\n      pop\n        /* \"diamonds/facets/FacetConsole.sol\":1001:1019  newTimelockSeconds */\n      dup2\n        /* \"diamonds/facets/FacetConsole.sol\":976:985  console() */\n      tag_117\n        /* \"diamonds/facets/FacetConsole.sol\":976:983  console */\n      tag_68\n        /* \"diamonds/facets/FacetConsole.sol\":976:985  console() */\n      jump\t// in\n    tag_117:\n        /* \"diamonds/facets/FacetConsole.sol\":976:998  console().delaySeconds */\n      0x01\n      add\n        /* \"diamonds/facets/FacetConsole.sol\":976:1019  console().delaySeconds = newTimelockSeconds */\n      sstore\n        /* \"diamonds/facets/FacetConsole.sol\":1034:1089  TimelockChanged(oldTimelockSeconds, newTimelockSeconds) */\n      mload(0x40)\n        /* \"diamonds/facets/FacetConsole.sol\":1070:1088  newTimelockSeconds */\n      dup3\n      swap1\n        /* \"diamonds/facets/FacetConsole.sol\":1050:1068  oldTimelockSeconds */\n      dup3\n      swap1\n        /* \"diamonds/facets/FacetConsole.sol\":1034:1089  TimelockChanged(oldTimelockSeconds, newTimelockSeconds) */\n      0x939bc3d2fb47b751c088d07c74b7aaefb2e44fb17bb8960c52bc3477e0135fd7\n      swap1\n      0x00\n      swap1\n      log3\n        /* \"diamonds/facets/FacetConsole.sol\":887:1096  {... */\n      pop\n        /* \"diamonds/facets/FacetConsole.sol\":820:1096  function ____setTimelock(uint newTimelockSeconds) external virtual {... */\n      pop\n      jump\t// out\n        /* \"diamonds/facets/FacetConsole.sol\":1790:1931  function getRequestDuration(uint requestId) public view virtual returns (uint) {... */\n    tag_42:\n        /* \"diamonds/facets/FacetConsole.sol\":1863:1867  uint */\n      0x00\n        /* \"diamonds/facets/FacetConsole.sol\":1886:1895  console() */\n      tag_119\n        /* \"diamonds/facets/FacetConsole.sol\":1886:1893  console */\n      tag_68\n        /* \"diamonds/facets/FacetConsole.sol\":1886:1895  console() */\n      jump\t// in\n    tag_119:\n        /* \"diamonds/facets/FacetConsole.sol\":1886:1904  console().requests */\n      0x02\n      add\n        /* \"diamonds/facets/FacetConsole.sol\":1905:1914  requestId */\n      dup3\n        /* \"diamonds/facets/FacetConsole.sol\":1886:1915  console().requests[requestId] */\n      dup2\n      sload\n      dup2\n      lt\n      tag_121\n      jumpi\n      tag_121\n      tag_105\n      jump\t// in\n    tag_121:\n      swap1\n      0x00\n      mstore\n      keccak256(0x00, 0x20)\n      swap1\n      0x05\n      mul\n      add\n        /* \"diamonds/facets/FacetConsole.sol\":1886:1924  console().requests[requestId].duration */\n      0x03\n      add\n      sload\n        /* \"diamonds/facets/FacetConsole.sol\":1879:1924  return console().requests[requestId].duration */\n      swap1\n      pop\n        /* \"diamonds/facets/FacetConsole.sol\":1790:1931  function getRequestDuration(uint requestId) public view virtual returns (uint) {... */\n      swap2\n      swap1\n      pop\n      jump\t// out\n        /* \"diamonds/facets/FacetConsole.sol\":1937:2082  function requestHasBeenExecuted(uint requestId) public view virtual returns (bool) {... */\n    tag_46:\n        /* \"diamonds/facets/FacetConsole.sol\":2014:2018  bool */\n      0x00\n        /* \"diamonds/facets/FacetConsole.sol\":2037:2046  console() */\n      tag_124\n        /* \"diamonds/facets/FacetConsole.sol\":2037:2044  console */\n      tag_68\n        /* \"diamonds/facets/FacetConsole.sol\":2037:2046  console() */\n      jump\t// in\n    tag_124:\n        /* \"diamonds/facets/FacetConsole.sol\":2037:2055  console().requests */\n      0x02\n      add\n        /* \"diamonds/facets/FacetConsole.sol\":2056:2065  requestId */\n      dup3\n        /* \"diamonds/facets/FacetConsole.sol\":2037:2066  console().requests[requestId] */\n      dup2\n      sload\n      dup2\n      lt\n      tag_126\n      jumpi\n      tag_126\n      tag_105\n      jump\t// in\n    tag_126:\n      0x00\n      swap2\n      dup3\n      mstore\n      0x20\n      swap1\n      swap2\n      keccak256\n        /* \"diamonds/facets/FacetConsole.sol\":2037:2075  console().requests[requestId].executed */\n      0x04\n        /* \"diamonds/facets/FacetConsole.sol\":2037:2066  console().requests[requestId] */\n      0x05\n      swap1\n      swap3\n      mul\n      add\n        /* \"diamonds/facets/FacetConsole.sol\":2037:2075  console().requests[requestId].executed */\n      add\n      sload\n      0xff\n      and\n      swap3\n        /* \"diamonds/facets/FacetConsole.sol\":1937:2082  function requestHasBeenExecuted(uint requestId) public view virtual returns (bool) {... */\n      swap2\n      pop\n      pop\n      jump\t// out\n        /* \"diamonds/facets/FacetConsole.sol\":575:814  function ____setOperator(address newOperator) external virtual {... */\n    tag_52:\n        /* \"diamonds/facets/FacetConsole.sol\":648:659  _onlySelf() */\n      tag_129\n        /* \"diamonds/facets/FacetConsole.sol\":648:657  _onlySelf */\n      tag_115\n        /* \"diamonds/facets/FacetConsole.sol\":648:659  _onlySelf() */\n      jump\t// in\n    tag_129:\n        /* \"diamonds/facets/FacetConsole.sol\":669:688  address oldOperator */\n      0x00\n        /* \"diamonds/facets/FacetConsole.sol\":691:700  console() */\n      tag_130\n        /* \"diamonds/facets/FacetConsole.sol\":691:698  console */\n      tag_68\n        /* \"diamonds/facets/FacetConsole.sol\":691:700  console() */\n      jump\t// in\n    tag_130:\n        /* \"diamonds/facets/FacetConsole.sol\":691:709  console().operator */\n      sload\n      sub(shl(0xa0, 0x01), 0x01)\n      and\n      swap1\n      pop\n        /* \"diamonds/facets/FacetConsole.sol\":740:751  newOperator */\n      dup2\n        /* \"diamonds/facets/FacetConsole.sol\":719:728  console() */\n      tag_131\n        /* \"diamonds/facets/FacetConsole.sol\":719:726  console */\n      tag_68\n        /* \"diamonds/facets/FacetConsole.sol\":719:728  console() */\n      jump\t// in\n    tag_131:\n        /* \"diamonds/facets/FacetConsole.sol\":719:751  console().operator = newOperator */\n      dup1\n      sload\n      not(sub(shl(0xa0, 0x01), 0x01))\n      and\n      sub(shl(0xa0, 0x01), 0x01)\n      swap3\n      dup4\n      and\n      or\n      swap1\n      sstore\n        /* \"diamonds/facets/FacetConsole.sol\":766:807  OperatorChanged(oldOperator, newOperator) */\n      mload(0x40)\n      dup4\n      dup3\n      and\n      swap2\n      dup4\n      and\n      swap1\n      0xd58299b712891143e76310d5e664c4203c940a67db37cf856bdaa3c5c76a802c\n      swap1\n      0x00\n      swap1\n      log3\n        /* \"diamonds/facets/FacetConsole.sol\":638:814  {... */\n      pop\n        /* \"diamonds/facets/FacetConsole.sol\":575:814  function ____setOperator(address newOperator) external virtual {... */\n      pop\n      jump\t// out\n        /* \"diamonds/facets/FacetConsole.sol\":1342:1478  function getRequestTarget(uint requestId) public view virtual returns (address) {... */\n    tag_55:\n        /* \"diamonds/facets/FacetConsole.sol\":1413:1420  address */\n      0x00\n        /* \"diamonds/facets/FacetConsole.sol\":1439:1448  console() */\n      tag_133\n        /* \"diamonds/facets/FacetConsole.sol\":1439:1446  console */\n      tag_68\n        /* \"diamonds/facets/FacetConsole.sol\":1439:1448  console() */\n      jump\t// in\n    tag_133:\n        /* \"diamonds/facets/FacetConsole.sol\":1439:1457  console().requests */\n      0x02\n      add\n        /* \"diamonds/facets/FacetConsole.sol\":1458:1467  requestId */\n      dup3\n        /* \"diamonds/facets/FacetConsole.sol\":1439:1468  console().requests[requestId] */\n      dup2\n      sload\n      dup2\n      lt\n      tag_135\n      jumpi\n      tag_135\n      tag_105\n      jump\t// in\n    tag_135:\n      0x00\n      swap2\n      dup3\n      mstore\n      0x20\n      swap1\n      swap2\n      keccak256\n      0x05\n      swap1\n      swap2\n      mul\n      add\n        /* \"diamonds/facets/FacetConsole.sol\":1439:1471  console().requests[requestId].to */\n      sload\n      sub(shl(0xa0, 0x01), 0x01)\n      and\n      swap3\n        /* \"diamonds/facets/FacetConsole.sol\":1342:1478  function getRequestTarget(uint requestId) public view virtual returns (address) {... */\n      swap2\n      pop\n      pop\n      jump\t// out\n        /* \"diamonds/facets/FacetConsole.sol\":1631:1784  function getRequestStartTimestamp(uint requestId) public view virtual returns (uint) {... */\n    tag_59:\n        /* \"diamonds/facets/FacetConsole.sol\":1710:1714  uint */\n      0x00\n        /* \"diamonds/facets/FacetConsole.sol\":1733:1742  console() */\n      tag_138\n        /* \"diamonds/facets/FacetConsole.sol\":1733:1740  console */\n      tag_68\n        /* \"diamonds/facets/FacetConsole.sol\":1733:1742  console() */\n      jump\t// in\n    tag_138:\n        /* \"diamonds/facets/FacetConsole.sol\":1733:1751  console().requests */\n      0x02\n      add\n        /* \"diamonds/facets/FacetConsole.sol\":1752:1761  requestId */\n      dup3\n        /* \"diamonds/facets/FacetConsole.sol\":1733:1762  console().requests[requestId] */\n      dup2\n      sload\n      dup2\n      lt\n      tag_140\n      jumpi\n      tag_140\n      tag_105\n      jump\t// in\n    tag_140:\n      swap1\n      0x00\n      mstore\n      keccak256(0x00, 0x20)\n      swap1\n      0x05\n      mul\n      add\n        /* \"diamonds/facets/FacetConsole.sol\":1733:1777  console().requests[requestId].startTimestamp */\n      0x02\n      add\n      sload\n        /* \"diamonds/facets/FacetConsole.sol\":1726:1777  return console().requests[requestId].startTimestamp */\n      swap1\n      pop\n        /* \"diamonds/facets/FacetConsole.sol\":1631:1784  function getRequestStartTimestamp(uint requestId) public view virtual returns (uint) {... */\n      swap2\n      swap1\n      pop\n      jump\t// out\n        /* \"diamonds/facets/FacetConsole.sol\":2884:3642  function execute(uint requestId) public virtual returns (bool, bytes memory) {... */\n    tag_63:\n        /* \"diamonds/facets/FacetConsole.sol\":2941:2945  bool */\n      0x00\n        /* \"diamonds/facets/FacetConsole.sol\":2947:2959  bytes memory */\n      0x60\n        /* \"diamonds/facets/FacetConsole.sol\":2995:3004  console() */\n      tag_143\n        /* \"diamonds/facets/FacetConsole.sol\":2995:3002  console */\n      tag_68\n        /* \"diamonds/facets/FacetConsole.sol\":2995:3004  console() */\n      jump\t// in\n    tag_143:\n        /* \"diamonds/facets/FacetConsole.sol\":2995:3013  console().operator */\n      sload\n      sub(shl(0xa0, 0x01), 0x01)\n      and\n        /* \"imports/openzeppelin/utils/Context.sol\":720:730  msg.sender */\n      caller\n      sub(shl(0xa0, 0x01), 0x01)\n        /* \"diamonds/facets/FacetConsole.sol\":2979:3013  _msgSender() == console().operator */\n      and\n      eq\n        /* \"diamonds/facets/FacetConsole.sol\":2971:3045  require(_msgSender() == console().operator, 'FacetConsole: only operator') */\n      tag_145\n      jumpi\n      mload(0x40)\n      shl(0xe5, 0x461bcd)\n      dup2\n      mstore\n        /* \"#utility.yul\":3539:3541   */\n      0x20\n        /* \"diamonds/facets/FacetConsole.sol\":2971:3045  require(_msgSender() == console().operator, 'FacetConsole: only operator') */\n      0x04\n      dup3\n      add\n        /* \"#utility.yul\":3521:3542   */\n      mstore\n        /* \"#utility.yul\":3578:3580   */\n      0x1b\n        /* \"#utility.yul\":3558:3576   */\n      0x24\n      dup3\n      add\n        /* \"#utility.yul\":3551:3581   */\n      mstore\n        /* \"#utility.yul\":3617:3646   */\n      0x4661636574436f6e736f6c653a206f6e6c79206f70657261746f720000000000\n        /* \"#utility.yul\":3597:3615   */\n      0x44\n      dup3\n      add\n        /* \"#utility.yul\":3590:3647   */\n      mstore\n        /* \"#utility.yul\":3664:3682   */\n      0x64\n      add\n        /* \"diamonds/facets/FacetConsole.sol\":2971:3045  require(_msgSender() == console().operator, 'FacetConsole: only operator') */\n      tag_72\n        /* \"#utility.yul\":3337:3688   */\n      jump\n        /* \"diamonds/facets/FacetConsole.sol\":2971:3045  require(_msgSender() == console().operator, 'FacetConsole: only operator') */\n    tag_145:\n        /* \"diamonds/facets/FacetConsole.sol\":3055:3091  SlotConsole.Request storage request_ */\n      0x00\n        /* \"diamonds/facets/FacetConsole.sol\":3094:3103  console() */\n      tag_147\n        /* \"diamonds/facets/FacetConsole.sol\":3094:3101  console */\n      tag_68\n        /* \"diamonds/facets/FacetConsole.sol\":3094:3103  console() */\n      jump\t// in\n    tag_147:\n        /* \"diamonds/facets/FacetConsole.sol\":3094:3112  console().requests */\n      0x02\n      add\n        /* \"diamonds/facets/FacetConsole.sol\":3113:3122  requestId */\n      dup5\n        /* \"diamonds/facets/FacetConsole.sol\":3094:3123  console().requests[requestId] */\n      dup2\n      sload\n      dup2\n      lt\n      tag_149\n      jumpi\n      tag_149\n      tag_105\n      jump\t// in\n    tag_149:\n      swap1\n      0x00\n      mstore\n      keccak256(0x00, 0x20)\n      swap1\n      0x05\n      mul\n      add\n        /* \"diamonds/facets/FacetConsole.sol\":3055:3123  SlotConsole.Request storage request_ = console().requests[requestId] */\n      swap1\n      pop\n        /* \"diamonds/facets/FacetConsole.sol\":3133:3157  uint requestEndTimestamp */\n      0x00\n        /* \"diamonds/facets/FacetConsole.sol\":3186:3194  request_ */\n      dup2\n        /* \"diamonds/facets/FacetConsole.sol\":3186:3203  request_.duration */\n      0x03\n      add\n      sload\n        /* \"diamonds/facets/FacetConsole.sol\":3160:3168  request_ */\n      dup3\n        /* \"diamonds/facets/FacetConsole.sol\":3160:3183  request_.startTimestamp */\n      0x02\n      add\n      sload\n        /* \"diamonds/facets/FacetConsole.sol\":3160:3203  request_.startTimestamp + request_.duration */\n      tag_151\n      swap2\n      swap1\n      tag_152\n      jump\t// in\n    tag_151:\n        /* \"diamonds/facets/FacetConsole.sol\":3133:3203  uint requestEndTimestamp = request_.startTimestamp + request_.duration */\n      swap1\n      pop\n        /* \"diamonds/facets/FacetConsole.sol\":3240:3259  requestEndTimestamp */\n      dup1\n        /* \"diamonds/facets/FacetConsole.sol\":3221:3236  block.timestamp */\n      timestamp\n        /* \"diamonds/facets/FacetConsole.sol\":3221:3259  block.timestamp >= requestEndTimestamp */\n      lt\n      iszero\n        /* \"diamonds/facets/FacetConsole.sol\":3213:3299  require(block.timestamp >= requestEndTimestamp, 'FacetConsole: request is timelocked') */\n      tag_153\n      jumpi\n      mload(0x40)\n      shl(0xe5, 0x461bcd)\n      dup2\n      mstore\n        /* \"#utility.yul\":7655:7657   */\n      0x20\n        /* \"diamonds/facets/FacetConsole.sol\":3213:3299  require(block.timestamp >= requestEndTimestamp, 'FacetConsole: request is timelocked') */\n      0x04\n      dup3\n      add\n        /* \"#utility.yul\":7637:7658   */\n      mstore\n        /* \"#utility.yul\":7694:7696   */\n      0x23\n        /* \"#utility.yul\":7674:7692   */\n      0x24\n      dup3\n      add\n        /* \"#utility.yul\":7667:7697   */\n      mstore\n        /* \"#utility.yul\":7733:7767   */\n      0x4661636574436f6e736f6c653a20726571756573742069732074696d656c6f63\n        /* \"#utility.yul\":7713:7731   */\n      0x44\n      dup3\n      add\n        /* \"#utility.yul\":7706:7768   */\n      mstore\n      shl(0xea, 0x1ad959)\n        /* \"#utility.yul\":7784:7802   */\n      0x64\n      dup3\n      add\n        /* \"#utility.yul\":7777:7810   */\n      mstore\n        /* \"#utility.yul\":7827:7846   */\n      0x84\n      add\n        /* \"diamonds/facets/FacetConsole.sol\":3213:3299  require(block.timestamp >= requestEndTimestamp, 'FacetConsole: request is timelocked') */\n      tag_72\n        /* \"#utility.yul\":7453:7852   */\n      jump\n        /* \"diamonds/facets/FacetConsole.sol\":3213:3299  require(block.timestamp >= requestEndTimestamp, 'FacetConsole: request is timelocked') */\n    tag_153:\n        /* \"diamonds/facets/FacetConsole.sol\":3318:3335  request_.executed */\n      0x04\n      dup3\n      add\n      sload\n      0xff\n      and\n        /* \"diamonds/facets/FacetConsole.sol\":3317:3335  !request_.executed */\n      iszero\n        /* \"diamonds/facets/FacetConsole.sol\":3309:3378  require(!request_.executed, 'FacetConsole: request already executed') */\n      tag_156\n      jumpi\n      mload(0x40)\n      shl(0xe5, 0x461bcd)\n      dup2\n      mstore\n        /* \"#utility.yul\":8059:8061   */\n      0x20\n        /* \"diamonds/facets/FacetConsole.sol\":3309:3378  require(!request_.executed, 'FacetConsole: request already executed') */\n      0x04\n      dup3\n      add\n        /* \"#utility.yul\":8041:8062   */\n      mstore\n        /* \"#utility.yul\":8098:8100   */\n      0x26\n        /* \"#utility.yul\":8078:8096   */\n      0x24\n      dup3\n      add\n        /* \"#utility.yul\":8071:8101   */\n      mstore\n        /* \"#utility.yul\":8137:8171   */\n      0x4661636574436f6e736f6c653a207265717565737420616c7265616479206578\n        /* \"#utility.yul\":8117:8135   */\n      0x44\n      dup3\n      add\n        /* \"#utility.yul\":8110:8172   */\n      mstore\n      shl(0xd2, 0x1958dd5d1959)\n        /* \"#utility.yul\":8188:8206   */\n      0x64\n      dup3\n      add\n        /* \"#utility.yul\":8181:8217   */\n      mstore\n        /* \"#utility.yul\":8234:8253   */\n      0x84\n      add\n        /* \"diamonds/facets/FacetConsole.sol\":3309:3378  require(!request_.executed, 'FacetConsole: request already executed') */\n      tag_72\n        /* \"#utility.yul\":7857:8259   */\n      jump\n        /* \"diamonds/facets/FacetConsole.sol\":3309:3378  require(!request_.executed, 'FacetConsole: request already executed') */\n    tag_156:\n        /* \"diamonds/facets/FacetConsole.sol\":3405:3416  request_.to */\n      dup2\n      sload\n      0x01\n        /* \"diamonds/facets/FacetConsole.sol\":3446:3459  request_.args */\n      dup4\n      add\n        /* \"diamonds/facets/FacetConsole.sol\":3426:3459  bytes memory args = request_.args */\n      dup1\n      sload\n      sub(shl(0xa0, 0x01), 0x01)\n        /* \"diamonds/facets/FacetConsole.sol\":3405:3416  request_.to */\n      swap1\n      swap3\n      and\n      swap2\n        /* \"diamonds/facets/FacetConsole.sol\":3388:3402  address target */\n      0x00\n      swap2\n        /* \"diamonds/facets/FacetConsole.sol\":3446:3459  request_.args */\n      swap1\n        /* \"diamonds/facets/FacetConsole.sol\":3426:3459  bytes memory args = request_.args */\n      tag_159\n      swap1\n      tag_108\n      jump\t// in\n    tag_159:\n      dup1\n      0x1f\n      add\n      0x20\n      dup1\n      swap2\n      div\n      mul\n      0x20\n      add\n      mload(0x40)\n      swap1\n      dup2\n      add\n      0x40\n      mstore\n      dup1\n      swap3\n      swap2\n      swap1\n      dup2\n      dup2\n      mstore\n      0x20\n      add\n      dup3\n      dup1\n      sload\n      tag_160\n      swap1\n      tag_108\n      jump\t// in\n    tag_160:\n      dup1\n      iszero\n      tag_161\n      jumpi\n      dup1\n      0x1f\n      lt\n      tag_162\n      jumpi\n      0x0100\n      dup1\n      dup4\n      sload\n      div\n      mul\n      dup4\n      mstore\n      swap2\n      0x20\n      add\n      swap2\n      jump(tag_161)\n    tag_162:\n      dup3\n      add\n      swap2\n      swap1\n      0x00\n      mstore\n      keccak256(0x00, 0x20)\n      swap1\n    tag_163:\n      dup2\n      sload\n      dup2\n      mstore\n      swap1\n      0x01\n      add\n      swap1\n      0x20\n      add\n      dup1\n      dup4\n      gt\n      tag_163\n      jumpi\n      dup3\n      swap1\n      sub\n      0x1f\n      and\n      dup3\n      add\n      swap2\n    tag_161:\n      pop\n      pop\n      pop\n      pop\n      pop\n      swap1\n      pop\n        /* \"diamonds/facets/FacetConsole.sol\":3470:3482  bool success */\n      0x00\n        /* \"diamonds/facets/FacetConsole.sol\":3484:3505  bytes memory response */\n      dup1\n        /* \"diamonds/facets/FacetConsole.sol\":3509:3515  target */\n      dup4\n      sub(shl(0xa0, 0x01), 0x01)\n        /* \"diamonds/facets/FacetConsole.sol\":3509:3520  target.call */\n      and\n        /* \"diamonds/facets/FacetConsole.sol\":3521:3525  args */\n      dup4\n        /* \"diamonds/facets/FacetConsole.sol\":3509:3526  target.call(args) */\n      mload(0x40)\n      tag_164\n      swap2\n      swap1\n      tag_85\n      jump\t// in\n    tag_164:\n      0x00\n      mload(0x40)\n      dup1\n      dup4\n      sub\n      dup2\n      0x00\n      dup7\n      gas\n      call\n      swap2\n      pop\n      pop\n      returndatasize\n      dup1\n      0x00\n      dup2\n      eq\n      tag_167\n      jumpi\n      mload(0x40)\n      swap2\n      pop\n      and(add(returndatasize, 0x3f), not(0x1f))\n      dup3\n      add\n      0x40\n      mstore\n      returndatasize\n      dup3\n      mstore\n      returndatasize\n      0x00\n      0x20\n      dup5\n      add\n      returndatacopy\n      jump(tag_166)\n    tag_167:\n      0x60\n      swap2\n      pop\n    tag_166:\n      pop\n        /* \"diamonds/facets/FacetConsole.sol\":3536:3553  request_.executed */\n      0x04\n      dup9\n      add\n        /* \"diamonds/facets/FacetConsole.sol\":3536:3560  request_.executed = true */\n      dup1\n      sload\n      not(0xff)\n      and\n        /* \"diamonds/facets/FacetConsole.sol\":3556:3560  true */\n      0x01\n        /* \"diamonds/facets/FacetConsole.sol\":3536:3560  request_.executed = true */\n      or\n      swap1\n      sstore\n        /* \"diamonds/facets/FacetConsole.sol\":3575:3599  RequestPassed(requestId) */\n      mload(0x40)\n        /* \"diamonds/facets/FacetConsole.sol\":3469:3526  (bool success, bytes memory response) = target.call(args) */\n      swap2\n      swap4\n      pop\n      swap2\n      pop\n        /* \"diamonds/facets/FacetConsole.sol\":3589:3598  requestId */\n      dup10\n      swap1\n        /* \"diamonds/facets/FacetConsole.sol\":3575:3599  RequestPassed(requestId) */\n      0xd2914ea28f2646f8f7e9f06270fa83db3334e2448337080dca0c88b65ab8029e\n      swap1\n        /* \"diamonds/facets/FacetConsole.sol\":3536:3553  request_.executed */\n      0x00\n      swap1\n        /* \"diamonds/facets/FacetConsole.sol\":3575:3599  RequestPassed(requestId) */\n      log2\n        /* \"diamonds/facets/FacetConsole.sol\":3617:3624  success */\n      swap1\n      swap9\n        /* \"diamonds/facets/FacetConsole.sol\":3626:3634  response */\n      swap1\n      swap8\n      pop\n        /* \"diamonds/facets/FacetConsole.sol\":2884:3642  function execute(uint requestId) public virtual returns (bool, bytes memory) {... */\n      swap6\n      pop\n      pop\n      pop\n      pop\n      pop\n      pop\n      jump\t// out\n        /* \"diamonds/facets/slots/SlotConsole.sol\":412:592  function console() internal pure virtual returns (StorageConsole storage s) {... */\n    tag_68:\n        /* \"diamonds/facets/slots/SlotConsole.sol\":121:146  keccak256('slot.console') */\n      0xc6b2677428e259e327ba1c830617ac2e9b91aacedddc3fe52a6e7f38e2c1262a\n      swap1\n        /* \"diamonds/facets/slots/SlotConsole.sol\":412:592  function console() internal pure virtual returns (StorageConsole storage s) {... */\n      jump\t// out\n        /* \"diamonds/facets/FacetConsole.sol\":3648:3759  function _onlySelf() internal view virtual {... */\n    tag_115:\n        /* \"imports/openzeppelin/utils/Context.sol\":720:730  msg.sender */\n      caller\n        /* \"diamonds/facets/FacetConsole.sol\":3733:3737  this */\n      address\n        /* \"diamonds/facets/FacetConsole.sol\":3709:3738  _msgSender() == address(this) */\n      eq\n        /* \"diamonds/facets/FacetConsole.sol\":3701:3752  require(_msgSender() == address(this), 'only self') */\n      tag_172\n      jumpi\n      mload(0x40)\n      shl(0xe5, 0x461bcd)\n      dup2\n      mstore\n        /* \"#utility.yul\":8466:8468   */\n      0x20\n        /* \"diamonds/facets/FacetConsole.sol\":3701:3752  require(_msgSender() == address(this), 'only self') */\n      0x04\n      dup3\n      add\n        /* \"#utility.yul\":8448:8469   */\n      mstore\n        /* \"#utility.yul\":8505:8506   */\n      0x09\n        /* \"#utility.yul\":8485:8503   */\n      0x24\n      dup3\n      add\n        /* \"#utility.yul\":8478:8507   */\n      mstore\n      shl(0xb9, 0x37b7363c9039b2b633)\n        /* \"#utility.yul\":8523:8541   */\n      0x44\n      dup3\n      add\n        /* \"#utility.yul\":8516:8555   */\n      mstore\n        /* \"#utility.yul\":8572:8590   */\n      0x64\n      add\n        /* \"diamonds/facets/FacetConsole.sol\":3701:3752  require(_msgSender() == address(this), 'only self') */\n      tag_72\n        /* \"#utility.yul\":8264:8596   */\n      jump\n        /* \"diamonds/facets/FacetConsole.sol\":3701:3752  require(_msgSender() == address(this), 'only self') */\n    tag_172:\n        /* \"diamonds/facets/FacetConsole.sol\":3648:3759  function _onlySelf() internal view virtual {... */\n      jump\t// out\n        /* \"#utility.yul\":14:187   */\n    tag_175:\n        /* \"#utility.yul\":82:102   */\n      dup1\n      calldataload\n      sub(shl(0xa0, 0x01), 0x01)\n        /* \"#utility.yul\":131:162   */\n      dup2\n      and\n        /* \"#utility.yul\":121:163   */\n      dup2\n      eq\n        /* \"#utility.yul\":111:181   */\n      tag_185\n      jumpi\n        /* \"#utility.yul\":177:178   */\n      0x00\n        /* \"#utility.yul\":174:175   */\n      dup1\n        /* \"#utility.yul\":167:179   */\n      revert\n        /* \"#utility.yul\":111:181   */\n    tag_185:\n        /* \"#utility.yul\":14:187   */\n      swap2\n      swap1\n      pop\n      jump\t// out\n        /* \"#utility.yul\":192:319   */\n    tag_176:\n        /* \"#utility.yul\":253:263   */\n      0x4e487b71\n        /* \"#utility.yul\":248:251   */\n      0xe0\n        /* \"#utility.yul\":244:264   */\n      shl\n        /* \"#utility.yul\":241:242   */\n      0x00\n        /* \"#utility.yul\":234:265   */\n      mstore\n        /* \"#utility.yul\":284:288   */\n      0x41\n        /* \"#utility.yul\":281:282   */\n      0x04\n        /* \"#utility.yul\":274:289   */\n      mstore\n        /* \"#utility.yul\":308:312   */\n      0x24\n        /* \"#utility.yul\":305:306   */\n      0x00\n        /* \"#utility.yul\":298:313   */\n      revert\n        /* \"#utility.yul\":324:1319   */\n    tag_18:\n        /* \"#utility.yul\":401:407   */\n      0x00\n        /* \"#utility.yul\":409:415   */\n      dup1\n        /* \"#utility.yul\":462:464   */\n      0x40\n        /* \"#utility.yul\":450:459   */\n      dup4\n        /* \"#utility.yul\":441:448   */\n      dup6\n        /* \"#utility.yul\":437:460   */\n      sub\n        /* \"#utility.yul\":433:465   */\n      slt\n        /* \"#utility.yul\":430:482   */\n      iszero\n      tag_188\n      jumpi\n        /* \"#utility.yul\":478:479   */\n      0x00\n        /* \"#utility.yul\":475:476   */\n      dup1\n        /* \"#utility.yul\":468:480   */\n      revert\n        /* \"#utility.yul\":430:482   */\n    tag_188:\n        /* \"#utility.yul\":501:530   */\n      tag_189\n        /* \"#utility.yul\":520:529   */\n      dup4\n        /* \"#utility.yul\":501:530   */\n      tag_175\n      jump\t// in\n    tag_189:\n        /* \"#utility.yul\":491:530   */\n      swap2\n      pop\n        /* \"#utility.yul\":581:583   */\n      0x20\n        /* \"#utility.yul\":570:579   */\n      dup4\n        /* \"#utility.yul\":566:584   */\n      add\n        /* \"#utility.yul\":553:585   */\n      calldataload\n        /* \"#utility.yul\":604:622   */\n      0xffffffffffffffff\n        /* \"#utility.yul\":645:647   */\n      dup1\n        /* \"#utility.yul\":637:643   */\n      dup3\n        /* \"#utility.yul\":634:648   */\n      gt\n        /* \"#utility.yul\":631:665   */\n      iszero\n      tag_190\n      jumpi\n        /* \"#utility.yul\":661:662   */\n      0x00\n        /* \"#utility.yul\":658:659   */\n      dup1\n        /* \"#utility.yul\":651:663   */\n      revert\n        /* \"#utility.yul\":631:665   */\n    tag_190:\n        /* \"#utility.yul\":699:705   */\n      dup2\n        /* \"#utility.yul\":688:697   */\n      dup6\n        /* \"#utility.yul\":684:706   */\n      add\n        /* \"#utility.yul\":674:706   */\n      swap2\n      pop\n        /* \"#utility.yul\":744:751   */\n      dup6\n        /* \"#utility.yul\":737:741   */\n      0x1f\n        /* \"#utility.yul\":733:735   */\n      dup4\n        /* \"#utility.yul\":729:742   */\n      add\n        /* \"#utility.yul\":725:752   */\n      slt\n        /* \"#utility.yul\":715:770   */\n      tag_191\n      jumpi\n        /* \"#utility.yul\":766:767   */\n      0x00\n        /* \"#utility.yul\":763:764   */\n      dup1\n        /* \"#utility.yul\":756:768   */\n      revert\n        /* \"#utility.yul\":715:770   */\n    tag_191:\n        /* \"#utility.yul\":802:804   */\n      dup2\n        /* \"#utility.yul\":789:805   */\n      calldataload\n        /* \"#utility.yul\":824:826   */\n      dup2\n        /* \"#utility.yul\":820:822   */\n      dup2\n        /* \"#utility.yul\":817:827   */\n      gt\n        /* \"#utility.yul\":814:850   */\n      iszero\n      tag_193\n      jumpi\n        /* \"#utility.yul\":830:848   */\n      tag_193\n      tag_176\n      jump\t// in\n    tag_193:\n        /* \"#utility.yul\":905:907   */\n      0x40\n        /* \"#utility.yul\":899:908   */\n      mload\n        /* \"#utility.yul\":873:875   */\n      0x1f\n        /* \"#utility.yul\":959:972   */\n      dup3\n      add\n      not(0x1f)\n        /* \"#utility.yul\":955:977   */\n      swap1\n      dup2\n      and\n        /* \"#utility.yul\":979:981   */\n      0x3f\n        /* \"#utility.yul\":951:982   */\n      add\n        /* \"#utility.yul\":947:987   */\n      and\n        /* \"#utility.yul\":935:988   */\n      dup2\n      add\n      swap1\n        /* \"#utility.yul\":1003:1021   */\n      dup4\n      dup3\n      gt\n        /* \"#utility.yul\":1023:1045   */\n      dup2\n      dup4\n      lt\n        /* \"#utility.yul\":1000:1046   */\n      or\n        /* \"#utility.yul\":997:1069   */\n      iszero\n      tag_195\n      jumpi\n        /* \"#utility.yul\":1049:1067   */\n      tag_195\n      tag_176\n      jump\t// in\n    tag_195:\n        /* \"#utility.yul\":1089:1099   */\n      dup2\n        /* \"#utility.yul\":1085:1087   */\n      0x40\n        /* \"#utility.yul\":1078:1100   */\n      mstore\n        /* \"#utility.yul\":1124:1126   */\n      dup3\n        /* \"#utility.yul\":1116:1122   */\n      dup2\n        /* \"#utility.yul\":1109:1127   */\n      mstore\n        /* \"#utility.yul\":1164:1171   */\n      dup9\n        /* \"#utility.yul\":1159:1161   */\n      0x20\n        /* \"#utility.yul\":1154:1156   */\n      dup5\n        /* \"#utility.yul\":1150:1152   */\n      dup8\n        /* \"#utility.yul\":1146:1157   */\n      add\n        /* \"#utility.yul\":1142:1162   */\n      add\n        /* \"#utility.yul\":1139:1172   */\n      gt\n        /* \"#utility.yul\":1136:1189   */\n      iszero\n      tag_196\n      jumpi\n        /* \"#utility.yul\":1185:1186   */\n      0x00\n        /* \"#utility.yul\":1182:1183   */\n      dup1\n        /* \"#utility.yul\":1175:1187   */\n      revert\n        /* \"#utility.yul\":1136:1189   */\n    tag_196:\n        /* \"#utility.yul\":1241:1243   */\n      dup3\n        /* \"#utility.yul\":1236:1238   */\n      0x20\n        /* \"#utility.yul\":1232:1234   */\n      dup7\n        /* \"#utility.yul\":1228:1239   */\n      add\n        /* \"#utility.yul\":1223:1225   */\n      0x20\n        /* \"#utility.yul\":1215:1221   */\n      dup4\n        /* \"#utility.yul\":1211:1226   */\n      add\n        /* \"#utility.yul\":1198:1244   */\n      calldatacopy\n        /* \"#utility.yul\":1286:1287   */\n      0x00\n        /* \"#utility.yul\":1281:1283   */\n      0x20\n        /* \"#utility.yul\":1276:1278   */\n      dup5\n        /* \"#utility.yul\":1268:1274   */\n      dup4\n        /* \"#utility.yul\":1264:1279   */\n      add\n        /* \"#utility.yul\":1260:1284   */\n      add\n        /* \"#utility.yul\":1253:1288   */\n      mstore\n        /* \"#utility.yul\":1307:1313   */\n      dup1\n        /* \"#utility.yul\":1297:1313   */\n      swap6\n      pop\n      pop\n      pop\n      pop\n      pop\n      pop\n        /* \"#utility.yul\":324:1319   */\n      swap3\n      pop\n      swap3\n      swap1\n      pop\n      jump\t// out\n        /* \"#utility.yul\":1714:1894   */\n    tag_33:\n        /* \"#utility.yul\":1773:1779   */\n      0x00\n        /* \"#utility.yul\":1826:1828   */\n      0x20\n        /* \"#utility.yul\":1814:1823   */\n      dup3\n        /* \"#utility.yul\":1805:1812   */\n      dup5\n        /* \"#utility.yul\":1801:1824   */\n      sub\n        /* \"#utility.yul\":1797:1829   */\n      slt\n        /* \"#utility.yul\":1794:1846   */\n      iszero\n      tag_200\n      jumpi\n        /* \"#utility.yul\":1842:1843   */\n      0x00\n        /* \"#utility.yul\":1839:1840   */\n      dup1\n        /* \"#utility.yul\":1832:1844   */\n      revert\n        /* \"#utility.yul\":1794:1846   */\n    tag_200:\n      pop\n        /* \"#utility.yul\":1865:1888   */\n      calldataload\n      swap2\n        /* \"#utility.yul\":1714:1894   */\n      swap1\n      pop\n      jump\t// out\n        /* \"#utility.yul\":1899:2149   */\n    tag_177:\n        /* \"#utility.yul\":1984:1985   */\n      0x00\n        /* \"#utility.yul\":1994:2107   */\n    tag_202:\n        /* \"#utility.yul\":2008:2014   */\n      dup4\n        /* \"#utility.yul\":2005:2006   */\n      dup2\n        /* \"#utility.yul\":2002:2015   */\n      lt\n        /* \"#utility.yul\":1994:2107   */\n      iszero\n      tag_204\n      jumpi\n        /* \"#utility.yul\":2084:2095   */\n      dup2\n      dup2\n      add\n        /* \"#utility.yul\":2078:2096   */\n      mload\n        /* \"#utility.yul\":2065:2076   */\n      dup4\n      dup3\n      add\n        /* \"#utility.yul\":2058:2097   */\n      mstore\n        /* \"#utility.yul\":2030:2032   */\n      0x20\n        /* \"#utility.yul\":2023:2033   */\n      add\n        /* \"#utility.yul\":1994:2107   */\n      jump(tag_202)\n    tag_204:\n      pop\n      pop\n        /* \"#utility.yul\":2141:2142   */\n      0x00\n        /* \"#utility.yul\":2123:2139   */\n      swap2\n      add\n        /* \"#utility.yul\":2116:2143   */\n      mstore\n        /* \"#utility.yul\":1899:2149   */\n      jump\t// out\n        /* \"#utility.yul\":2154:2424   */\n    tag_178:\n        /* \"#utility.yul\":2195:2198   */\n      0x00\n        /* \"#utility.yul\":2233:2238   */\n      dup2\n        /* \"#utility.yul\":2227:2239   */\n      mload\n        /* \"#utility.yul\":2260:2266   */\n      dup1\n        /* \"#utility.yul\":2255:2258   */\n      dup5\n        /* \"#utility.yul\":2248:2267   */\n      mstore\n        /* \"#utility.yul\":2276:2352   */\n      tag_206\n        /* \"#utility.yul\":2345:2351   */\n      dup2\n        /* \"#utility.yul\":2338:2342   */\n      0x20\n        /* \"#utility.yul\":2333:2336   */\n      dup7\n        /* \"#utility.yul\":2329:2343   */\n      add\n        /* \"#utility.yul\":2322:2326   */\n      0x20\n        /* \"#utility.yul\":2315:2320   */\n      dup7\n        /* \"#utility.yul\":2311:2327   */\n      add\n        /* \"#utility.yul\":2276:2352   */\n      tag_177\n      jump\t// in\n    tag_206:\n        /* \"#utility.yul\":2406:2408   */\n      0x1f\n        /* \"#utility.yul\":2385:2400   */\n      add\n      not(0x1f)\n        /* \"#utility.yul\":2381:2410   */\n      and\n        /* \"#utility.yul\":2372:2411   */\n      swap3\n      swap1\n      swap3\n      add\n        /* \"#utility.yul\":2413:2417   */\n      0x20\n        /* \"#utility.yul\":2368:2418   */\n      add\n      swap3\n        /* \"#utility.yul\":2154:2424   */\n      swap2\n      pop\n      pop\n      jump\t// out\n        /* \"#utility.yul\":2429:2646   */\n    tag_36:\n        /* \"#utility.yul\":2576:2578   */\n      0x20\n        /* \"#utility.yul\":2565:2574   */\n      dup2\n        /* \"#utility.yul\":2558:2579   */\n      mstore\n        /* \"#utility.yul\":2539:2543   */\n      0x00\n        /* \"#utility.yul\":2596:2640   */\n      tag_208\n        /* \"#utility.yul\":2636:2638   */\n      0x20\n        /* \"#utility.yul\":2625:2634   */\n      dup4\n        /* \"#utility.yul\":2621:2639   */\n      add\n        /* \"#utility.yul\":2613:2619   */\n      dup5\n        /* \"#utility.yul\":2596:2640   */\n      tag_178\n      jump\t// in\n    tag_208:\n        /* \"#utility.yul\":2588:2640   */\n      swap4\n        /* \"#utility.yul\":2429:2646   */\n      swap3\n      pop\n      pop\n      pop\n      jump\t// out\n        /* \"#utility.yul\":2843:3029   */\n    tag_51:\n        /* \"#utility.yul\":2902:2908   */\n      0x00\n        /* \"#utility.yul\":2955:2957   */\n      0x20\n        /* \"#utility.yul\":2943:2952   */\n      dup3\n        /* \"#utility.yul\":2934:2941   */\n      dup5\n        /* \"#utility.yul\":2930:2953   */\n      sub\n        /* \"#utility.yul\":2926:2958   */\n      slt\n        /* \"#utility.yul\":2923:2975   */\n      iszero\n      tag_211\n      jumpi\n        /* \"#utility.yul\":2971:2972   */\n      0x00\n        /* \"#utility.yul\":2968:2969   */\n      dup1\n        /* \"#utility.yul\":2961:2973   */\n      revert\n        /* \"#utility.yul\":2923:2975   */\n    tag_211:\n        /* \"#utility.yul\":2994:3023   */\n      tag_208\n        /* \"#utility.yul\":3013:3022   */\n      dup3\n        /* \"#utility.yul\":2994:3023   */\n      tag_175\n      jump\t// in\n        /* \"#utility.yul\":3034:3332   */\n    tag_65:\n        /* \"#utility.yul\":3217:3223   */\n      dup3\n        /* \"#utility.yul\":3210:3224   */\n      iszero\n        /* \"#utility.yul\":3203:3225   */\n      iszero\n        /* \"#utility.yul\":3192:3201   */\n      dup2\n        /* \"#utility.yul\":3185:3226   */\n      mstore\n        /* \"#utility.yul\":3262:3264   */\n      0x40\n        /* \"#utility.yul\":3257:3259   */\n      0x20\n        /* \"#utility.yul\":3246:3255   */\n      dup3\n        /* \"#utility.yul\":3242:3260   */\n      add\n        /* \"#utility.yul\":3235:3265   */\n      mstore\n        /* \"#utility.yul\":3166:3170   */\n      0x00\n        /* \"#utility.yul\":3282:3326   */\n      tag_214\n        /* \"#utility.yul\":3322:3324   */\n      0x40\n        /* \"#utility.yul\":3311:3320   */\n      dup4\n        /* \"#utility.yul\":3307:3325   */\n      add\n        /* \"#utility.yul\":3299:3305   */\n      dup5\n        /* \"#utility.yul\":3282:3326   */\n      tag_178\n      jump\t// in\n    tag_214:\n        /* \"#utility.yul\":3274:3326   */\n      swap5\n        /* \"#utility.yul\":3034:3332   */\n      swap4\n      pop\n      pop\n      pop\n      pop\n      jump\t// out\n        /* \"#utility.yul\":3693:4073   */\n    tag_108:\n        /* \"#utility.yul\":3772:3773   */\n      0x01\n        /* \"#utility.yul\":3768:3780   */\n      dup2\n      dup2\n      shr\n      swap1\n        /* \"#utility.yul\":3815:3827   */\n      dup3\n      and\n      dup1\n        /* \"#utility.yul\":3836:3897   */\n      tag_217\n      jumpi\n        /* \"#utility.yul\":3890:3894   */\n      0x7f\n        /* \"#utility.yul\":3882:3888   */\n      dup3\n        /* \"#utility.yul\":3878:3895   */\n      and\n        /* \"#utility.yul\":3868:3895   */\n      swap2\n      pop\n        /* \"#utility.yul\":3836:3897   */\n    tag_217:\n        /* \"#utility.yul\":3943:3945   */\n      0x20\n        /* \"#utility.yul\":3935:3941   */\n      dup3\n        /* \"#utility.yul\":3932:3946   */\n      lt\n        /* \"#utility.yul\":3912:3930   */\n      dup2\n        /* \"#utility.yul\":3909:3947   */\n      sub\n        /* \"#utility.yul\":3906:4067   */\n      tag_218\n      jumpi\n        /* \"#utility.yul\":3989:3999   */\n      0x4e487b71\n        /* \"#utility.yul\":3984:3987   */\n      0xe0\n        /* \"#utility.yul\":3980:4000   */\n      shl\n        /* \"#utility.yul\":3977:3978   */\n      0x00\n        /* \"#utility.yul\":3970:4001   */\n      mstore\n        /* \"#utility.yul\":4024:4028   */\n      0x22\n        /* \"#utility.yul\":4021:4022   */\n      0x04\n        /* \"#utility.yul\":4014:4029   */\n      mstore\n        /* \"#utility.yul\":4052:4056   */\n      0x24\n        /* \"#utility.yul\":4049:4050   */\n      0x00\n        /* \"#utility.yul\":4042:4057   */\n      revert\n        /* \"#utility.yul\":3906:4067   */\n    tag_218:\n      pop\n        /* \"#utility.yul\":3693:4073   */\n      swap2\n      swap1\n      pop\n      jump\t// out\n        /* \"#utility.yul\":4203:4747   */\n    tag_180:\n        /* \"#utility.yul\":4304:4306   */\n      0x1f\n        /* \"#utility.yul\":4299:4302   */\n      dup3\n        /* \"#utility.yul\":4296:4307   */\n      gt\n        /* \"#utility.yul\":4293:4741   */\n      iszero\n      tag_221\n      jumpi\n        /* \"#utility.yul\":4340:4341   */\n      0x00\n        /* \"#utility.yul\":4365:4370   */\n      dup2\n        /* \"#utility.yul\":4361:4363   */\n      dup2\n        /* \"#utility.yul\":4354:4371   */\n      mstore\n        /* \"#utility.yul\":4410:4414   */\n      0x20\n        /* \"#utility.yul\":4406:4408   */\n      dup2\n        /* \"#utility.yul\":4396:4415   */\n      keccak256\n        /* \"#utility.yul\":4480:4482   */\n      0x1f\n        /* \"#utility.yul\":4468:4478   */\n      dup6\n        /* \"#utility.yul\":4464:4483   */\n      add\n        /* \"#utility.yul\":4461:4462   */\n      0x05\n        /* \"#utility.yul\":4457:4484   */\n      shr\n        /* \"#utility.yul\":4451:4455   */\n      dup2\n        /* \"#utility.yul\":4447:4485   */\n      add\n        /* \"#utility.yul\":4516:4520   */\n      0x20\n        /* \"#utility.yul\":4504:4514   */\n      dup7\n        /* \"#utility.yul\":4501:4521   */\n      lt\n        /* \"#utility.yul\":4498:4545   */\n      iszero\n      tag_222\n      jumpi\n      pop\n        /* \"#utility.yul\":4539:4543   */\n      dup1\n        /* \"#utility.yul\":4498:4545   */\n    tag_222:\n        /* \"#utility.yul\":4594:4596   */\n      0x1f\n        /* \"#utility.yul\":4589:4592   */\n      dup6\n        /* \"#utility.yul\":4585:4597   */\n      add\n        /* \"#utility.yul\":4582:4583   */\n      0x05\n        /* \"#utility.yul\":4578:4598   */\n      shr\n        /* \"#utility.yul\":4572:4576   */\n      dup3\n        /* \"#utility.yul\":4568:4599   */\n      add\n        /* \"#utility.yul\":4558:4599   */\n      swap2\n      pop\n        /* \"#utility.yul\":4649:4731   */\n    tag_223:\n        /* \"#utility.yul\":4667:4669   */\n      dup2\n        /* \"#utility.yul\":4660:4665   */\n      dup2\n        /* \"#utility.yul\":4657:4670   */\n      lt\n        /* \"#utility.yul\":4649:4731   */\n      iszero\n      tag_225\n      jumpi\n        /* \"#utility.yul\":4712:4729   */\n      dup3\n      dup2\n      sstore\n        /* \"#utility.yul\":4693:4694   */\n      0x01\n        /* \"#utility.yul\":4682:4695   */\n      add\n        /* \"#utility.yul\":4649:4731   */\n      jump(tag_223)\n    tag_225:\n        /* \"#utility.yul\":4653:4656   */\n      pop\n      pop\n      pop\n        /* \"#utility.yul\":4293:4741   */\n    tag_221:\n        /* \"#utility.yul\":4203:4747   */\n      pop\n      pop\n      pop\n      jump\t// out\n        /* \"#utility.yul\":4923:6271   */\n    tag_80:\n        /* \"#utility.yul\":5047:5050   */\n      dup2\n        /* \"#utility.yul\":5041:5051   */\n      mload\n        /* \"#utility.yul\":5074:5092   */\n      0xffffffffffffffff\n        /* \"#utility.yul\":5066:5072   */\n      dup2\n        /* \"#utility.yul\":5063:5093   */\n      gt\n        /* \"#utility.yul\":5060:5116   */\n      iszero\n      tag_229\n      jumpi\n        /* \"#utility.yul\":5096:5114   */\n      tag_229\n      tag_176\n      jump\t// in\n    tag_229:\n        /* \"#utility.yul\":5125:5221   */\n      tag_230\n        /* \"#utility.yul\":5214:5220   */\n      dup2\n        /* \"#utility.yul\":5174:5212   */\n      tag_231\n        /* \"#utility.yul\":5206:5210   */\n      dup5\n        /* \"#utility.yul\":5200:5211   */\n      sload\n        /* \"#utility.yul\":5174:5212   */\n      tag_108\n      jump\t// in\n    tag_231:\n        /* \"#utility.yul\":5168:5172   */\n      dup5\n        /* \"#utility.yul\":5125:5221   */\n      tag_180\n      jump\t// in\n    tag_230:\n        /* \"#utility.yul\":5276:5280   */\n      0x20\n      dup1\n        /* \"#utility.yul\":5340:5342   */\n      0x1f\n        /* \"#utility.yul\":5329:5343   */\n      dup4\n      gt\n        /* \"#utility.yul\":5357:5358   */\n      0x01\n        /* \"#utility.yul\":5352:6014   */\n      dup2\n      eq\n      tag_233\n      jumpi\n        /* \"#utility.yul\":6058:6059   */\n      0x00\n        /* \"#utility.yul\":6075:6081   */\n      dup5\n        /* \"#utility.yul\":6072:6161   */\n      iszero\n      tag_234\n      jumpi\n      pop\n        /* \"#utility.yul\":6127:6146   */\n      dup6\n      dup4\n      add\n        /* \"#utility.yul\":6121:6147   */\n      mload\n        /* \"#utility.yul\":6072:6161   */\n    tag_234:\n      not(0x00)\n        /* \"#utility.yul\":4880:4881   */\n      0x03\n        /* \"#utility.yul\":4876:4887   */\n      dup7\n      swap1\n      shl\n        /* \"#utility.yul\":4872:4896   */\n      shr\n        /* \"#utility.yul\":4868:4897   */\n      not\n        /* \"#utility.yul\":4858:4898   */\n      and\n        /* \"#utility.yul\":4904:4905   */\n      0x01\n        /* \"#utility.yul\":4900:4911   */\n      dup6\n      swap1\n      shl\n        /* \"#utility.yul\":4855:4912   */\n      or\n        /* \"#utility.yul\":6174:6255   */\n      dup6\n      sstore\n        /* \"#utility.yul\":5322:6265   */\n      jump(tag_225)\n        /* \"#utility.yul\":5352:6014   */\n    tag_233:\n        /* \"#utility.yul\":4150:4151   */\n      0x00\n        /* \"#utility.yul\":4143:4157   */\n      dup6\n      dup2\n      mstore\n        /* \"#utility.yul\":4187:4191   */\n      0x20\n        /* \"#utility.yul\":4174:4192   */\n      dup2\n      keccak256\n      not(0x1f)\n        /* \"#utility.yul\":5388:5408   */\n      dup7\n      and\n      swap2\n        /* \"#utility.yul\":5505:5741   */\n    tag_237:\n        /* \"#utility.yul\":5519:5526   */\n      dup3\n        /* \"#utility.yul\":5516:5517   */\n      dup2\n        /* \"#utility.yul\":5513:5527   */\n      lt\n        /* \"#utility.yul\":5505:5741   */\n      iszero\n      tag_239\n      jumpi\n        /* \"#utility.yul\":5608:5627   */\n      dup9\n      dup7\n      add\n        /* \"#utility.yul\":5602:5628   */\n      mload\n        /* \"#utility.yul\":5587:5629   */\n      dup3\n      sstore\n        /* \"#utility.yul\":5700:5727   */\n      swap5\n      dup5\n      add\n      swap5\n        /* \"#utility.yul\":5668:5669   */\n      0x01\n        /* \"#utility.yul\":5656:5670   */\n      swap1\n      swap2\n      add\n      swap1\n        /* \"#utility.yul\":5535:5554   */\n      dup5\n      add\n        /* \"#utility.yul\":5505:5741   */\n      jump(tag_237)\n    tag_239:\n        /* \"#utility.yul\":5509:5512   */\n      pop\n        /* \"#utility.yul\":5769:5775   */\n      dup6\n        /* \"#utility.yul\":5760:5767   */\n      dup3\n        /* \"#utility.yul\":5757:5776   */\n      lt\n        /* \"#utility.yul\":5754:5955   */\n      iszero\n      tag_240\n      jumpi\n        /* \"#utility.yul\":5830:5849   */\n      dup8\n      dup6\n      add\n        /* \"#utility.yul\":5824:5850   */\n      mload\n      not(0x00)\n        /* \"#utility.yul\":5913:5914   */\n      0x03\n        /* \"#utility.yul\":5909:5923   */\n      dup9\n      swap1\n      shl\n        /* \"#utility.yul\":5925:5928   */\n      0xf8\n        /* \"#utility.yul\":5905:5929   */\n      and\n        /* \"#utility.yul\":5901:5938   */\n      shr\n        /* \"#utility.yul\":5897:5939   */\n      not\n        /* \"#utility.yul\":5882:5940   */\n      and\n        /* \"#utility.yul\":5867:5941   */\n      dup2\n      sstore\n        /* \"#utility.yul\":5754:5955   */\n    tag_240:\n      pop\n      pop\n      pop\n      pop\n      pop\n        /* \"#utility.yul\":6001:6002   */\n      0x01\n        /* \"#utility.yul\":5985:5999   */\n      swap1\n      dup2\n      shl\n        /* \"#utility.yul\":5981:6003   */\n      add\n        /* \"#utility.yul\":5968:6004   */\n      swap1\n      sstore\n      pop\n        /* \"#utility.yul\":4923:6271   */\n      jump\t// out\n        /* \"#utility.yul\":6276:6403   */\n    tag_182:\n        /* \"#utility.yul\":6337:6347   */\n      0x4e487b71\n        /* \"#utility.yul\":6332:6335   */\n      0xe0\n        /* \"#utility.yul\":6328:6348   */\n      shl\n        /* \"#utility.yul\":6325:6326   */\n      0x00\n        /* \"#utility.yul\":6318:6349   */\n      mstore\n        /* \"#utility.yul\":6368:6372   */\n      0x11\n        /* \"#utility.yul\":6365:6366   */\n      0x04\n        /* \"#utility.yul\":6358:6373   */\n      mstore\n        /* \"#utility.yul\":6392:6396   */\n      0x24\n        /* \"#utility.yul\":6389:6390   */\n      0x00\n        /* \"#utility.yul\":6382:6397   */\n      revert\n        /* \"#utility.yul\":6408:6536   */\n    tag_83:\n        /* \"#utility.yul\":6475:6484   */\n      dup2\n      dup2\n      sub\n        /* \"#utility.yul\":6496:6507   */\n      dup2\n      dup2\n      gt\n        /* \"#utility.yul\":6493:6530   */\n      iszero\n      tag_66\n      jumpi\n        /* \"#utility.yul\":6510:6528   */\n      tag_66\n      tag_182\n      jump\t// in\n        /* \"#utility.yul\":6541:6828   */\n    tag_85:\n        /* \"#utility.yul\":6670:6673   */\n      0x00\n        /* \"#utility.yul\":6708:6714   */\n      dup3\n        /* \"#utility.yul\":6702:6715   */\n      mload\n        /* \"#utility.yul\":6724:6790   */\n      tag_246\n        /* \"#utility.yul\":6783:6789   */\n      dup2\n        /* \"#utility.yul\":6778:6781   */\n      dup5\n        /* \"#utility.yul\":6771:6775   */\n      0x20\n        /* \"#utility.yul\":6763:6769   */\n      dup8\n        /* \"#utility.yul\":6759:6776   */\n      add\n        /* \"#utility.yul\":6724:6790   */\n      tag_177\n      jump\t// in\n    tag_246:\n        /* \"#utility.yul\":6806:6822   */\n      swap2\n      swap1\n      swap2\n      add\n      swap3\n        /* \"#utility.yul\":6541:6828   */\n      swap2\n      pop\n      pop\n      jump\t// out\n        /* \"#utility.yul\":7191:7318   */\n    tag_105:\n        /* \"#utility.yul\":7252:7262   */\n      0x4e487b71\n        /* \"#utility.yul\":7247:7250   */\n      0xe0\n        /* \"#utility.yul\":7243:7263   */\n      shl\n        /* \"#utility.yul\":7240:7241   */\n      0x00\n        /* \"#utility.yul\":7233:7264   */\n      mstore\n        /* \"#utility.yul\":7283:7287   */\n      0x32\n        /* \"#utility.yul\":7280:7281   */\n      0x04\n        /* \"#utility.yul\":7273:7288   */\n      mstore\n        /* \"#utility.yul\":7307:7311   */\n      0x24\n        /* \"#utility.yul\":7304:7305   */\n      0x00\n        /* \"#utility.yul\":7297:7312   */\n      revert\n        /* \"#utility.yul\":7323:7448   */\n    tag_152:\n        /* \"#utility.yul\":7388:7397   */\n      dup1\n      dup3\n      add\n        /* \"#utility.yul\":7409:7419   */\n      dup1\n      dup3\n      gt\n        /* \"#utility.yul\":7406:7442   */\n      iszero\n      tag_66\n      jumpi\n        /* \"#utility.yul\":7422:7440   */\n      tag_66\n      tag_182\n      jump\t// in\n\n    auxdata: 0xa264697066735822122024469e55b03211ec08d3f05a2d038d8a52ab652920491d522fe7c990d94325d564736f6c63430008130033\n}\n",
				"bytecode": {
					"linkReferences": {},
					"object": "608060405234801561001057600080fd5b50610dd7806100206000396000f3fe608060405234801561001057600080fd5b50600436106100b45760003560e01c80638e3b4918116100715780638e3b49181461014457806397fe017914610157578063e4893f391461017a578063ee47fc5c1461018d578063fbc5d026146101a0578063fe0d94c1146101b357600080fd5b80630b2d29fb146100b957806315cd1841146100df5780634e71d92d146100e7578063570ca735146100f15780637a4791601461011157806380171fbd14610131575b600080fd5b6100cc6100c7366004610a67565b6101d4565b6040519081526020015b60405180910390f35b6100cc6103a9565b6100ef6103c8565b005b6100f961048b565b6040516001600160a01b0390911681526020016100d6565b61012461011f366004610b29565b6104a4565b6040516100d69190610b92565b6100ef61013f366004610b29565b610563565b6100cc610152366004610b29565b6105b9565b61016a610165366004610b29565b6105f0565b60405190151581526020016100d6565b6100ef610188366004610bac565b61062b565b6100f961019b366004610b29565b6106a0565b6100cc6101ae366004610b29565b6106de565b6101c66101c1366004610b29565b610715565b6040516100d6929190610bc7565b60006101de6109d4565b546001600160a01b0316336001600160a01b0316146102445760405162461bcd60e51b815260206004820152601b60248201527f4661636574436f6e736f6c653a206f6e6c79206f70657261746f72000000000060448201526064015b60405180910390fd5b6102816040518060a0016040528060006001600160a01b031681526020016060815260200160008152602001600081526020016000151581525090565b6001600160a01b0384168152602081018390524260408201526102a26109d4565b600101546060820152600060808201526102ba6109d4565b6002018054600180820183556000928352602092839020845160059093020180546001600160a01b0319166001600160a01b039093169290921782559183015183928201906103099082610c73565b5060408201516002820155606082015160038201556080909101516004909101805460ff1916911515919091179055600060016103446109d4565b600201546103529190610d49565b9050836040516103629190610d5c565b604051908190038120906001600160a01b0387169083907f0f4abe1047b2e3e9b2a07806bd86e20d27244a2317feaa31fb97d26b9491148690600090a49150505b92915050565b600060016103b56109d4565b600201546103c39190610d49565b905090565b60006103d26109d4565b546001600160a01b0316146104295760405162461bcd60e51b815260206004820152601d60248201527f4661636574436f6e736f6c653a20616c726561647920636c61696d6564000000604482015260640161023b565b3063e4893f39336040516001600160e01b031960e084901b1681526001600160a01b039091166004820152602401600060405180830381600087803b15801561047157600080fd5b505af1158015610485573d6000803e3d6000fd5b50505050565b60006104956109d4565b546001600160a01b0316919050565b60606104ae6109d4565b60020182815481106104c2576104c2610d78565b906000526020600020906005020160010180546104de90610bea565b80601f016020809104026020016040519081016040528092919081815260200182805461050a90610bea565b80156105575780601f1061052c57610100808354040283529160200191610557565b820191906000526020600020905b81548152906001019060200180831161053a57829003601f168201915b50505050509050919050565b61056b6109f8565b60006105756109d4565b600101549050816105846109d4565b60010155604051829082907f939bc3d2fb47b751c088d07c74b7aaefb2e44fb17bb8960c52bc3477e0135fd790600090a35050565b60006105c36109d4565b60020182815481106105d7576105d7610d78565b9060005260206000209060050201600301549050919050565b60006105fa6109d4565b600201828154811061060e5761060e610d78565b600091825260209091206004600590920201015460ff1692915050565b6106336109f8565b600061063d6109d4565b546001600160a01b03169050816106526109d4565b80546001600160a01b0319166001600160a01b03928316179055604051838216918316907fd58299b712891143e76310d5e664c4203c940a67db37cf856bdaa3c5c76a802c90600090a35050565b60006106aa6109d4565b60020182815481106106be576106be610d78565b60009182526020909120600590910201546001600160a01b031692915050565b60006106e86109d4565b60020182815481106106fc576106fc610d78565b9060005260206000209060050201600201549050919050565b600060606107216109d4565b546001600160a01b0316336001600160a01b0316146107825760405162461bcd60e51b815260206004820152601b60248201527f4661636574436f6e736f6c653a206f6e6c79206f70657261746f720000000000604482015260640161023b565b600061078c6109d4565b60020184815481106107a0576107a0610d78565b906000526020600020906005020190506000816003015482600201546107c69190610d8e565b9050804210156108245760405162461bcd60e51b815260206004820152602360248201527f4661636574436f6e736f6c653a20726571756573742069732074696d656c6f636044820152621ad95960ea1b606482015260840161023b565b600482015460ff16156108885760405162461bcd60e51b815260206004820152602660248201527f4661636574436f6e736f6c653a207265717565737420616c72656164792065786044820152651958dd5d195960d21b606482015260840161023b565b81546001830180546001600160a01b0390921691600091906108a990610bea565b80601f01602080910402602001604051908101604052809291908181526020018280546108d590610bea565b80156109225780601f106108f757610100808354040283529160200191610922565b820191906000526020600020905b81548152906001019060200180831161090557829003601f168201915b50505050509050600080836001600160a01b0316836040516109449190610d5c565b6000604051808303816000865af19150503d8060008114610981576040519150601f19603f3d011682016040523d82523d6000602084013e610986565b606091505b5060048801805460ff19166001179055604051919350915089907fd2914ea28f2646f8f7e9f06270fa83db3334e2448337080dca0c88b65ab8029e90600090a2909890975095505050505050565b7fc6b2677428e259e327ba1c830617ac2e9b91aacedddc3fe52a6e7f38e2c1262a90565b333014610a335760405162461bcd60e51b815260206004820152600960248201526837b7363c9039b2b63360b91b604482015260640161023b565b565b80356001600160a01b0381168114610a4c57600080fd5b919050565b634e487b7160e01b600052604160045260246000fd5b60008060408385031215610a7a57600080fd5b610a8383610a35565b9150602083013567ffffffffffffffff80821115610aa057600080fd5b818501915085601f830112610ab457600080fd5b813581811115610ac657610ac6610a51565b604051601f8201601f19908116603f01168101908382118183101715610aee57610aee610a51565b81604052828152886020848701011115610b0757600080fd5b8260208601602083013760006020848301015280955050505050509250929050565b600060208284031215610b3b57600080fd5b5035919050565b60005b83811015610b5d578181015183820152602001610b45565b50506000910152565b60008151808452610b7e816020860160208601610b42565b601f01601f19169290920160200192915050565b602081526000610ba56020830184610b66565b9392505050565b600060208284031215610bbe57600080fd5b610ba582610a35565b8215158152604060208201526000610be26040830184610b66565b949350505050565b600181811c90821680610bfe57607f821691505b602082108103610c1e57634e487b7160e01b600052602260045260246000fd5b50919050565b601f821115610c6e57600081815260208120601f850160051c81016020861015610c4b5750805b601f850160051c820191505b81811015610c6a57828155600101610c57565b5050505b505050565b815167ffffffffffffffff811115610c8d57610c8d610a51565b610ca181610c9b8454610bea565b84610c24565b602080601f831160018114610cd65760008415610cbe5750858301515b600019600386901b1c1916600185901b178555610c6a565b600085815260208120601f198616915b82811015610d0557888601518255948401946001909101908401610ce6565b5085821015610d235787850151600019600388901b60f8161c191681555b5050505050600190811b01905550565b634e487b7160e01b600052601160045260246000fd5b818103818111156103a3576103a3610d33565b60008251610d6e818460208701610b42565b9190910192915050565b634e487b7160e01b600052603260045260246000fd5b808201808211156103a3576103a3610d3356fea264697066735822122024469e55b03211ec08d3f05a2d038d8a52ab652920491d522fe7c990d94325d564736f6c63430008130033",
					"opcodes": "PUSH1 0x80 PUSH1 0x40 MSTORE CALLVALUE DUP1 ISZERO PUSH2 0x10 JUMPI PUSH1 0x0 DUP1 REVERT JUMPDEST POP PUSH2 0xDD7 DUP1 PUSH2 0x20 PUSH1 0x0 CODECOPY PUSH1 0x0 RETURN INVALID PUSH1 0x80 PUSH1 0x40 MSTORE CALLVALUE DUP1 ISZERO PUSH2 0x10 JUMPI PUSH1 0x0 DUP1 REVERT JUMPDEST POP PUSH1 0x4 CALLDATASIZE LT PUSH2 0xB4 JUMPI PUSH1 0x0 CALLDATALOAD PUSH1 0xE0 SHR DUP1 PUSH4 0x8E3B4918 GT PUSH2 0x71 JUMPI DUP1 PUSH4 0x8E3B4918 EQ PUSH2 0x144 JUMPI DUP1 PUSH4 0x97FE0179 EQ PUSH2 0x157 JUMPI DUP1 PUSH4 0xE4893F39 EQ PUSH2 0x17A JUMPI DUP1 PUSH4 0xEE47FC5C EQ PUSH2 0x18D JUMPI DUP1 PUSH4 0xFBC5D026 EQ PUSH2 0x1A0 JUMPI DUP1 PUSH4 0xFE0D94C1 EQ PUSH2 0x1B3 JUMPI PUSH1 0x0 DUP1 REVERT JUMPDEST DUP1 PUSH4 0xB2D29FB EQ PUSH2 0xB9 JUMPI DUP1 PUSH4 0x15CD1841 EQ PUSH2 0xDF JUMPI DUP1 PUSH4 0x4E71D92D EQ PUSH2 0xE7 JUMPI DUP1 PUSH4 0x570CA735 EQ PUSH2 0xF1 JUMPI DUP1 PUSH4 0x7A479160 EQ PUSH2 0x111 JUMPI DUP1 PUSH4 0x80171FBD EQ PUSH2 0x131 JUMPI JUMPDEST PUSH1 0x0 DUP1 REVERT JUMPDEST PUSH2 0xCC PUSH2 0xC7 CALLDATASIZE PUSH1 0x4 PUSH2 0xA67 JUMP JUMPDEST PUSH2 0x1D4 JUMP JUMPDEST PUSH1 0x40 MLOAD SWAP1 DUP2 MSTORE PUSH1 0x20 ADD JUMPDEST PUSH1 0x40 MLOAD DUP1 SWAP2 SUB SWAP1 RETURN JUMPDEST PUSH2 0xCC PUSH2 0x3A9 JUMP JUMPDEST PUSH2 0xEF PUSH2 0x3C8 JUMP JUMPDEST STOP JUMPDEST PUSH2 0xF9 PUSH2 0x48B JUMP JUMPDEST PUSH1 0x40 MLOAD PUSH1 0x1 PUSH1 0x1 PUSH1 0xA0 SHL SUB SWAP1 SWAP2 AND DUP2 MSTORE PUSH1 0x20 ADD PUSH2 0xD6 JUMP JUMPDEST PUSH2 0x124 PUSH2 0x11F CALLDATASIZE PUSH1 0x4 PUSH2 0xB29 JUMP JUMPDEST PUSH2 0x4A4 JUMP JUMPDEST PUSH1 0x40 MLOAD PUSH2 0xD6 SWAP2 SWAP1 PUSH2 0xB92 JUMP JUMPDEST PUSH2 0xEF PUSH2 0x13F CALLDATASIZE PUSH1 0x4 PUSH2 0xB29 JUMP JUMPDEST PUSH2 0x563 JUMP JUMPDEST PUSH2 0xCC PUSH2 0x152 CALLDATASIZE PUSH1 0x4 PUSH2 0xB29 JUMP JUMPDEST PUSH2 0x5B9 JUMP JUMPDEST PUSH2 0x16A PUSH2 0x165 CALLDATASIZE PUSH1 0x4 PUSH2 0xB29 JUMP JUMPDEST PUSH2 0x5F0 JUMP JUMPDEST PUSH1 0x40 MLOAD SWAP1 ISZERO ISZERO DUP2 MSTORE PUSH1 0x20 ADD PUSH2 0xD6 JUMP JUMPDEST PUSH2 0xEF PUSH2 0x188 CALLDATASIZE PUSH1 0x4 PUSH2 0xBAC JUMP JUMPDEST PUSH2 0x62B JUMP JUMPDEST PUSH2 0xF9 PUSH2 0x19B CALLDATASIZE PUSH1 0x4 PUSH2 0xB29 JUMP JUMPDEST PUSH2 0x6A0 JUMP JUMPDEST PUSH2 0xCC PUSH2 0x1AE CALLDATASIZE PUSH1 0x4 PUSH2 0xB29 JUMP JUMPDEST PUSH2 0x6DE JUMP JUMPDEST PUSH2 0x1C6 PUSH2 0x1C1 CALLDATASIZE PUSH1 0x4 PUSH2 0xB29 JUMP JUMPDEST PUSH2 0x715 JUMP JUMPDEST PUSH1 0x40 MLOAD PUSH2 0xD6 SWAP3 SWAP2 SWAP1 PUSH2 0xBC7 JUMP JUMPDEST PUSH1 0x0 PUSH2 0x1DE PUSH2 0x9D4 JUMP JUMPDEST SLOAD PUSH1 0x1 PUSH1 0x1 PUSH1 0xA0 SHL SUB AND CALLER PUSH1 0x1 PUSH1 0x1 PUSH1 0xA0 SHL SUB AND EQ PUSH2 0x244 JUMPI PUSH1 0x40 MLOAD PUSH3 0x461BCD PUSH1 0xE5 SHL DUP2 MSTORE PUSH1 0x20 PUSH1 0x4 DUP3 ADD MSTORE PUSH1 0x1B PUSH1 0x24 DUP3 ADD MSTORE PUSH32 0x4661636574436F6E736F6C653A206F6E6C79206F70657261746F720000000000 PUSH1 0x44 DUP3 ADD MSTORE PUSH1 0x64 ADD JUMPDEST PUSH1 0x40 MLOAD DUP1 SWAP2 SUB SWAP1 REVERT JUMPDEST PUSH2 0x281 PUSH1 0x40 MLOAD DUP1 PUSH1 0xA0 ADD PUSH1 0x40 MSTORE DUP1 PUSH1 0x0 PUSH1 0x1 PUSH1 0x1 PUSH1 0xA0 SHL SUB AND DUP2 MSTORE PUSH1 0x20 ADD PUSH1 0x60 DUP2 MSTORE PUSH1 0x20 ADD PUSH1 0x0 DUP2 MSTORE PUSH1 0x20 ADD PUSH1 0x0 DUP2 MSTORE PUSH1 0x20 ADD PUSH1 0x0 ISZERO ISZERO DUP2 MSTORE POP SWAP1 JUMP JUMPDEST PUSH1 0x1 PUSH1 0x1 PUSH1 0xA0 SHL SUB DUP5 AND DUP2 MSTORE PUSH1 0x20 DUP2 ADD DUP4 SWAP1 MSTORE TIMESTAMP PUSH1 0x40 DUP3 ADD MSTORE PUSH2 0x2A2 PUSH2 0x9D4 JUMP JUMPDEST PUSH1 0x1 ADD SLOAD PUSH1 0x60 DUP3 ADD MSTORE PUSH1 0x0 PUSH1 0x80 DUP3 ADD MSTORE PUSH2 0x2BA PUSH2 0x9D4 JUMP JUMPDEST PUSH1 0x2 ADD DUP1 SLOAD PUSH1 0x1 DUP1 DUP3 ADD DUP4 SSTORE PUSH1 0x0 SWAP3 DUP4 MSTORE PUSH1 0x20 SWAP3 DUP4 SWAP1 KECCAK256 DUP5 MLOAD PUSH1 0x5 SWAP1 SWAP4 MUL ADD DUP1 SLOAD PUSH1 0x1 PUSH1 0x1 PUSH1 0xA0 SHL SUB NOT AND PUSH1 0x1 PUSH1 0x1 PUSH1 0xA0 SHL SUB SWAP1 SWAP4 AND SWAP3 SWAP1 SWAP3 OR DUP3 SSTORE SWAP2 DUP4 ADD MLOAD DUP4 SWAP3 DUP3 ADD SWAP1 PUSH2 0x309 SWAP1 DUP3 PUSH2 0xC73 JUMP JUMPDEST POP PUSH1 0x40 DUP3 ADD MLOAD PUSH1 0x2 DUP3 ADD SSTORE PUSH1 0x60 DUP3 ADD MLOAD PUSH1 0x3 DUP3 ADD SSTORE PUSH1 0x80 SWAP1 SWAP2 ADD MLOAD PUSH1 0x4 SWAP1 SWAP2 ADD DUP1 SLOAD PUSH1 0xFF NOT AND SWAP2 ISZERO ISZERO SWAP2 SWAP1 SWAP2 OR SWAP1 SSTORE PUSH1 0x0 PUSH1 0x1 PUSH2 0x344 PUSH2 0x9D4 JUMP JUMPDEST PUSH1 0x2 ADD SLOAD PUSH2 0x352 SWAP2 SWAP1 PUSH2 0xD49 JUMP JUMPDEST SWAP1 POP DUP4 PUSH1 0x40 MLOAD PUSH2 0x362 SWAP2 SWAP1 PUSH2 0xD5C JUMP JUMPDEST PUSH1 0x40 MLOAD SWAP1 DUP2 SWAP1 SUB DUP2 KECCAK256 SWAP1 PUSH1 0x1 PUSH1 0x1 PUSH1 0xA0 SHL SUB DUP8 AND SWAP1 DUP4 SWAP1 PUSH32 0xF4ABE1047B2E3E9B2A07806BD86E20D27244A2317FEAA31FB97D26B94911486 SWAP1 PUSH1 0x0 SWAP1 LOG4 SWAP2 POP POP JUMPDEST SWAP3 SWAP2 POP POP JUMP JUMPDEST PUSH1 0x0 PUSH1 0x1 PUSH2 0x3B5 PUSH2 0x9D4 JUMP JUMPDEST PUSH1 0x2 ADD SLOAD PUSH2 0x3C3 SWAP2 SWAP1 PUSH2 0xD49 JUMP JUMPDEST SWAP1 POP SWAP1 JUMP JUMPDEST PUSH1 0x0 PUSH2 0x3D2 PUSH2 0x9D4 JUMP JUMPDEST SLOAD PUSH1 0x1 PUSH1 0x1 PUSH1 0xA0 SHL SUB AND EQ PUSH2 0x429 JUMPI PUSH1 0x40 MLOAD PUSH3 0x461BCD PUSH1 0xE5 SHL DUP2 MSTORE PUSH1 0x20 PUSH1 0x4 DUP3 ADD MSTORE PUSH1 0x1D PUSH1 0x24 DUP3 ADD MSTORE PUSH32 0x4661636574436F6E736F6C653A20616C726561647920636C61696D6564000000 PUSH1 0x44 DUP3 ADD MSTORE PUSH1 0x64 ADD PUSH2 0x23B JUMP JUMPDEST ADDRESS PUSH4 0xE4893F39 CALLER PUSH1 0x40 MLOAD PUSH1 0x1 PUSH1 0x1 PUSH1 0xE0 SHL SUB NOT PUSH1 0xE0 DUP5 SWAP1 SHL AND DUP2 MSTORE PUSH1 0x1 PUSH1 0x1 PUSH1 0xA0 SHL SUB SWAP1 SWAP2 AND PUSH1 0x4 DUP3 ADD MSTORE PUSH1 0x24 ADD PUSH1 0x0 PUSH1 0x40 MLOAD DUP1 DUP4 SUB DUP2 PUSH1 0x0 DUP8 DUP1 EXTCODESIZE ISZERO DUP1 ISZERO PUSH2 0x471 JUMPI PUSH1 0x0 DUP1 REVERT JUMPDEST POP GAS CALL ISZERO DUP1 ISZERO PUSH2 0x485 JUMPI RETURNDATASIZE PUSH1 0x0 DUP1 RETURNDATACOPY RETURNDATASIZE PUSH1 0x0 REVERT JUMPDEST POP POP POP POP JUMP JUMPDEST PUSH1 0x0 PUSH2 0x495 PUSH2 0x9D4 JUMP JUMPDEST SLOAD PUSH1 0x1 PUSH1 0x1 PUSH1 0xA0 SHL SUB AND SWAP2 SWAP1 POP JUMP JUMPDEST PUSH1 0x60 PUSH2 0x4AE PUSH2 0x9D4 JUMP JUMPDEST PUSH1 0x2 ADD DUP3 DUP2 SLOAD DUP2 LT PUSH2 0x4C2 JUMPI PUSH2 0x4C2 PUSH2 0xD78 JUMP JUMPDEST SWAP1 PUSH1 0x0 MSTORE PUSH1 0x20 PUSH1 0x0 KECCAK256 SWAP1 PUSH1 0x5 MUL ADD PUSH1 0x1 ADD DUP1 SLOAD PUSH2 0x4DE SWAP1 PUSH2 0xBEA JUMP JUMPDEST DUP1 PUSH1 0x1F ADD PUSH1 0x20 DUP1 SWAP2 DIV MUL PUSH1 0x20 ADD PUSH1 0x40 MLOAD SWAP1 DUP2 ADD PUSH1 0x40 MSTORE DUP1 SWAP3 SWAP2 SWAP1 DUP2 DUP2 MSTORE PUSH1 0x20 ADD DUP3 DUP1 SLOAD PUSH2 0x50A SWAP1 PUSH2 0xBEA JUMP JUMPDEST DUP1 ISZERO PUSH2 0x557 JUMPI DUP1 PUSH1 0x1F LT PUSH2 0x52C JUMPI PUSH2 0x100 DUP1 DUP4 SLOAD DIV MUL DUP4 MSTORE SWAP2 PUSH1 0x20 ADD SWAP2 PUSH2 0x557 JUMP JUMPDEST DUP3 ADD SWAP2 SWAP1 PUSH1 0x0 MSTORE PUSH1 0x20 PUSH1 0x0 KECCAK256 SWAP1 JUMPDEST DUP2 SLOAD DUP2 MSTORE SWAP1 PUSH1 0x1 ADD SWAP1 PUSH1 0x20 ADD DUP1 DUP4 GT PUSH2 0x53A JUMPI DUP3 SWAP1 SUB PUSH1 0x1F AND DUP3 ADD SWAP2 JUMPDEST POP POP POP POP POP SWAP1 POP SWAP2 SWAP1 POP JUMP JUMPDEST PUSH2 0x56B PUSH2 0x9F8 JUMP JUMPDEST PUSH1 0x0 PUSH2 0x575 PUSH2 0x9D4 JUMP JUMPDEST PUSH1 0x1 ADD SLOAD SWAP1 POP DUP2 PUSH2 0x584 PUSH2 0x9D4 JUMP JUMPDEST PUSH1 0x1 ADD SSTORE PUSH1 0x40 MLOAD DUP3 SWAP1 DUP3 SWAP1 PUSH32 0x939BC3D2FB47B751C088D07C74B7AAEFB2E44FB17BB8960C52BC3477E0135FD7 SWAP1 PUSH1 0x0 SWAP1 LOG3 POP POP JUMP JUMPDEST PUSH1 0x0 PUSH2 0x5C3 PUSH2 0x9D4 JUMP JUMPDEST PUSH1 0x2 ADD DUP3 DUP2 SLOAD DUP2 LT PUSH2 0x5D7 JUMPI PUSH2 0x5D7 PUSH2 0xD78 JUMP JUMPDEST SWAP1 PUSH1 0x0 MSTORE PUSH1 0x20 PUSH1 0x0 KECCAK256 SWAP1 PUSH1 0x5 MUL ADD PUSH1 0x3 ADD SLOAD SWAP1 POP SWAP2 SWAP1 POP JUMP JUMPDEST PUSH1 0x0 PUSH2 0x5FA PUSH2 0x9D4 JUMP JUMPDEST PUSH1 0x2 ADD DUP3 DUP2 SLOAD DUP2 LT PUSH2 0x60E JUMPI PUSH2 0x60E PUSH2 0xD78 JUMP JUMPDEST PUSH1 0x0 SWAP2 DUP3 MSTORE PUSH1 0x20 SWAP1 SWAP2 KECCAK256 PUSH1 0x4 PUSH1 0x5 SWAP1 SWAP3 MUL ADD ADD SLOAD PUSH1 0xFF AND SWAP3 SWAP2 POP POP JUMP JUMPDEST PUSH2 0x633 PUSH2 0x9F8 JUMP JUMPDEST PUSH1 0x0 PUSH2 0x63D PUSH2 0x9D4 JUMP JUMPDEST SLOAD PUSH1 0x1 PUSH1 0x1 PUSH1 0xA0 SHL SUB AND SWAP1 POP DUP2 PUSH2 0x652 PUSH2 0x9D4 JUMP JUMPDEST DUP1 SLOAD PUSH1 0x1 PUSH1 0x1 PUSH1 0xA0 SHL SUB NOT AND PUSH1 0x1 PUSH1 0x1 PUSH1 0xA0 SHL SUB SWAP3 DUP4 AND OR SWAP1 SSTORE PUSH1 0x40 MLOAD DUP4 DUP3 AND SWAP2 DUP4 AND SWAP1 PUSH32 0xD58299B712891143E76310D5E664C4203C940A67DB37CF856BDAA3C5C76A802C SWAP1 PUSH1 0x0 SWAP1 LOG3 POP POP JUMP JUMPDEST PUSH1 0x0 PUSH2 0x6AA PUSH2 0x9D4 JUMP JUMPDEST PUSH1 0x2 ADD DUP3 DUP2 SLOAD DUP2 LT PUSH2 0x6BE JUMPI PUSH2 0x6BE PUSH2 0xD78 JUMP JUMPDEST PUSH1 0x0 SWAP2 DUP3 MSTORE PUSH1 0x20 SWAP1 SWAP2 KECCAK256 PUSH1 0x5 SWAP1 SWAP2 MUL ADD SLOAD PUSH1 0x1 PUSH1 0x1 PUSH1 0xA0 SHL SUB AND SWAP3 SWAP2 POP POP JUMP JUMPDEST PUSH1 0x0 PUSH2 0x6E8 PUSH2 0x9D4 JUMP JUMPDEST PUSH1 0x2 ADD DUP3 DUP2 SLOAD DUP2 LT PUSH2 0x6FC JUMPI PUSH2 0x6FC PUSH2 0xD78 JUMP JUMPDEST SWAP1 PUSH1 0x0 MSTORE PUSH1 0x20 PUSH1 0x0 KECCAK256 SWAP1 PUSH1 0x5 MUL ADD PUSH1 0x2 ADD SLOAD SWAP1 POP SWAP2 SWAP1 POP JUMP JUMPDEST PUSH1 0x0 PUSH1 0x60 PUSH2 0x721 PUSH2 0x9D4 JUMP JUMPDEST SLOAD PUSH1 0x1 PUSH1 0x1 PUSH1 0xA0 SHL SUB AND CALLER PUSH1 0x1 PUSH1 0x1 PUSH1 0xA0 SHL SUB AND EQ PUSH2 0x782 JUMPI PUSH1 0x40 MLOAD PUSH3 0x461BCD PUSH1 0xE5 SHL DUP2 MSTORE PUSH1 0x20 PUSH1 0x4 DUP3 ADD MSTORE PUSH1 0x1B PUSH1 0x24 DUP3 ADD MSTORE PUSH32 0x4661636574436F6E736F6C653A206F6E6C79206F70657261746F720000000000 PUSH1 0x44 DUP3 ADD MSTORE PUSH1 0x64 ADD PUSH2 0x23B JUMP JUMPDEST PUSH1 0x0 PUSH2 0x78C PUSH2 0x9D4 JUMP JUMPDEST PUSH1 0x2 ADD DUP5 DUP2 SLOAD DUP2 LT PUSH2 0x7A0 JUMPI PUSH2 0x7A0 PUSH2 0xD78 JUMP JUMPDEST SWAP1 PUSH1 0x0 MSTORE PUSH1 0x20 PUSH1 0x0 KECCAK256 SWAP1 PUSH1 0x5 MUL ADD SWAP1 POP PUSH1 0x0 DUP2 PUSH1 0x3 ADD SLOAD DUP3 PUSH1 0x2 ADD SLOAD PUSH2 0x7C6 SWAP2 SWAP1 PUSH2 0xD8E JUMP JUMPDEST SWAP1 POP DUP1 TIMESTAMP LT ISZERO PUSH2 0x824 JUMPI PUSH1 0x40 MLOAD PUSH3 0x461BCD PUSH1 0xE5 SHL DUP2 MSTORE PUSH1 0x20 PUSH1 0x4 DUP3 ADD MSTORE PUSH1 0x23 PUSH1 0x24 DUP3 ADD MSTORE PUSH32 0x4661636574436F6E736F6C653A20726571756573742069732074696D656C6F63 PUSH1 0x44 DUP3 ADD MSTORE PUSH3 0x1AD959 PUSH1 0xEA SHL PUSH1 0x64 DUP3 ADD MSTORE PUSH1 0x84 ADD PUSH2 0x23B JUMP JUMPDEST PUSH1 0x4 DUP3 ADD SLOAD PUSH1 0xFF AND ISZERO PUSH2 0x888 JUMPI PUSH1 0x40 MLOAD PUSH3 0x461BCD PUSH1 0xE5 SHL DUP2 MSTORE PUSH1 0x20 PUSH1 0x4 DUP3 ADD MSTORE PUSH1 0x26 PUSH1 0x24 DUP3 ADD MSTORE PUSH32 0x4661636574436F6E736F6C653A207265717565737420616C7265616479206578 PUSH1 0x44 DUP3 ADD MSTORE PUSH6 0x1958DD5D1959 PUSH1 0xD2 SHL PUSH1 0x64 DUP3 ADD MSTORE PUSH1 0x84 ADD PUSH2 0x23B JUMP JUMPDEST DUP2 SLOAD PUSH1 0x1 DUP4 ADD DUP1 SLOAD PUSH1 0x1 PUSH1 0x1 PUSH1 0xA0 SHL SUB SWAP1 SWAP3 AND SWAP2 PUSH1 0x0 SWAP2 SWAP1 PUSH2 0x8A9 SWAP1 PUSH2 0xBEA JUMP JUMPDEST DUP1 PUSH1 0x1F ADD PUSH1 0x20 DUP1 SWAP2 DIV MUL PUSH1 0x20 ADD PUSH1 0x40 MLOAD SWAP1 DUP2 ADD PUSH1 0x40 MSTORE DUP1 SWAP3 SWAP2 SWAP1 DUP2 DUP2 MSTORE PUSH1 0x20 ADD DUP3 DUP1 SLOAD PUSH2 0x8D5 SWAP1 PUSH2 0xBEA JUMP JUMPDEST DUP1 ISZERO PUSH2 0x922 JUMPI DUP1 PUSH1 0x1F LT PUSH2 0x8F7 JUMPI PUSH2 0x100 DUP1 DUP4 SLOAD DIV MUL DUP4 MSTORE SWAP2 PUSH1 0x20 ADD SWAP2 PUSH2 0x922 JUMP JUMPDEST DUP3 ADD SWAP2 SWAP1 PUSH1 0x0 MSTORE PUSH1 0x20 PUSH1 0x0 KECCAK256 SWAP1 JUMPDEST DUP2 SLOAD DUP2 MSTORE SWAP1 PUSH1 0x1 ADD SWAP1 PUSH1 0x20 ADD DUP1 DUP4 GT PUSH2 0x905 JUMPI DUP3 SWAP1 SUB PUSH1 0x1F AND DUP3 ADD SWAP2 JUMPDEST POP POP POP POP POP SWAP1 POP PUSH1 0x0 DUP1 DUP4 PUSH1 0x1 PUSH1 0x1 PUSH1 0xA0 SHL SUB AND DUP4 PUSH1 0x40 MLOAD PUSH2 0x944 SWAP2 SWAP1 PUSH2 0xD5C JUMP JUMPDEST PUSH1 0x0 PUSH1 0x40 MLOAD DUP1 DUP4 SUB DUP2 PUSH1 0x0 DUP7 GAS CALL SWAP2 POP POP RETURNDATASIZE DUP1 PUSH1 0x0 DUP2 EQ PUSH2 0x981 JUMPI PUSH1 0x40 MLOAD SWAP2 POP PUSH1 0x1F NOT PUSH1 0x3F RETURNDATASIZE ADD AND DUP3 ADD PUSH1 0x40 MSTORE RETURNDATASIZE DUP3 MSTORE RETURNDATASIZE PUSH1 0x0 PUSH1 0x20 DUP5 ADD RETURNDATACOPY PUSH2 0x986 JUMP JUMPDEST PUSH1 0x60 SWAP2 POP JUMPDEST POP PUSH1 0x4 DUP9 ADD DUP1 SLOAD PUSH1 0xFF NOT AND PUSH1 0x1 OR SWAP1 SSTORE PUSH1 0x40 MLOAD SWAP2 SWAP4 POP SWAP2 POP DUP10 SWAP1 PUSH32 0xD2914EA28F2646F8F7E9F06270FA83DB3334E2448337080DCA0C88B65AB8029E SWAP1 PUSH1 0x0 SWAP1 LOG2 SWAP1 SWAP9 SWAP1 SWAP8 POP SWAP6 POP POP POP POP POP POP JUMP JUMPDEST PUSH32 0xC6B2677428E259E327BA1C830617AC2E9B91AACEDDDC3FE52A6E7F38E2C1262A SWAP1 JUMP JUMPDEST CALLER ADDRESS EQ PUSH2 0xA33 JUMPI PUSH1 0x40 MLOAD PUSH3 0x461BCD PUSH1 0xE5 SHL DUP2 MSTORE PUSH1 0x20 PUSH1 0x4 DUP3 ADD MSTORE PUSH1 0x9 PUSH1 0x24 DUP3 ADD MSTORE PUSH9 0x37B7363C9039B2B633 PUSH1 0xB9 SHL PUSH1 0x44 DUP3 ADD MSTORE PUSH1 0x64 ADD PUSH2 0x23B JUMP JUMPDEST JUMP JUMPDEST DUP1 CALLDATALOAD PUSH1 0x1 PUSH1 0x1 PUSH1 0xA0 SHL SUB DUP2 AND DUP2 EQ PUSH2 0xA4C JUMPI PUSH1 0x0 DUP1 REVERT JUMPDEST SWAP2 SWAP1 POP JUMP JUMPDEST PUSH4 0x4E487B71 PUSH1 0xE0 SHL PUSH1 0x0 MSTORE PUSH1 0x41 PUSH1 0x4 MSTORE PUSH1 0x24 PUSH1 0x0 REVERT JUMPDEST PUSH1 0x0 DUP1 PUSH1 0x40 DUP4 DUP6 SUB SLT ISZERO PUSH2 0xA7A JUMPI PUSH1 0x0 DUP1 REVERT JUMPDEST PUSH2 0xA83 DUP4 PUSH2 0xA35 JUMP JUMPDEST SWAP2 POP PUSH1 0x20 DUP4 ADD CALLDATALOAD PUSH8 0xFFFFFFFFFFFFFFFF DUP1 DUP3 GT ISZERO PUSH2 0xAA0 JUMPI PUSH1 0x0 DUP1 REVERT JUMPDEST DUP2 DUP6 ADD SWAP2 POP DUP6 PUSH1 0x1F DUP4 ADD SLT PUSH2 0xAB4 JUMPI PUSH1 0x0 DUP1 REVERT JUMPDEST DUP2 CALLDATALOAD DUP2 DUP2 GT ISZERO PUSH2 0xAC6 JUMPI PUSH2 0xAC6 PUSH2 0xA51 JUMP JUMPDEST PUSH1 0x40 MLOAD PUSH1 0x1F DUP3 ADD PUSH1 0x1F NOT SWAP1 DUP2 AND PUSH1 0x3F ADD AND DUP2 ADD SWAP1 DUP4 DUP3 GT DUP2 DUP4 LT OR ISZERO PUSH2 0xAEE JUMPI PUSH2 0xAEE PUSH2 0xA51 JUMP JUMPDEST DUP2 PUSH1 0x40 MSTORE DUP3 DUP2 MSTORE DUP9 PUSH1 0x20 DUP5 DUP8 ADD ADD GT ISZERO PUSH2 0xB07 JUMPI PUSH1 0x0 DUP1 REVERT JUMPDEST DUP3 PUSH1 0x20 DUP7 ADD PUSH1 0x20 DUP4 ADD CALLDATACOPY PUSH1 0x0 PUSH1 0x20 DUP5 DUP4 ADD ADD MSTORE DUP1 SWAP6 POP POP POP POP POP POP SWAP3 POP SWAP3 SWAP1 POP JUMP JUMPDEST PUSH1 0x0 PUSH1 0x20 DUP3 DUP5 SUB SLT ISZERO PUSH2 0xB3B JUMPI PUSH1 0x0 DUP1 REVERT JUMPDEST POP CALLDATALOAD SWAP2 SWAP1 POP JUMP JUMPDEST PUSH1 0x0 JUMPDEST DUP4 DUP2 LT ISZERO PUSH2 0xB5D JUMPI DUP2 DUP2 ADD MLOAD DUP4 DUP3 ADD MSTORE PUSH1 0x20 ADD PUSH2 0xB45 JUMP JUMPDEST POP POP PUSH1 0x0 SWAP2 ADD MSTORE JUMP JUMPDEST PUSH1 0x0 DUP2 MLOAD DUP1 DUP5 MSTORE PUSH2 0xB7E DUP2 PUSH1 0x20 DUP7 ADD PUSH1 0x20 DUP7 ADD PUSH2 0xB42 JUMP JUMPDEST PUSH1 0x1F ADD PUSH1 0x1F NOT AND SWAP3 SWAP1 SWAP3 ADD PUSH1 0x20 ADD SWAP3 SWAP2 POP POP JUMP JUMPDEST PUSH1 0x20 DUP2 MSTORE PUSH1 0x0 PUSH2 0xBA5 PUSH1 0x20 DUP4 ADD DUP5 PUSH2 0xB66 JUMP JUMPDEST SWAP4 SWAP3 POP POP POP JUMP JUMPDEST PUSH1 0x0 PUSH1 0x20 DUP3 DUP5 SUB SLT ISZERO PUSH2 0xBBE JUMPI PUSH1 0x0 DUP1 REVERT JUMPDEST PUSH2 0xBA5 DUP3 PUSH2 0xA35 JUMP JUMPDEST DUP3 ISZERO ISZERO DUP2 MSTORE PUSH1 0x40 PUSH1 0x20 DUP3 ADD MSTORE PUSH1 0x0 PUSH2 0xBE2 PUSH1 0x40 DUP4 ADD DUP5 PUSH2 0xB66 JUMP JUMPDEST SWAP5 SWAP4 POP POP POP POP JUMP JUMPDEST PUSH1 0x1 DUP2 DUP2 SHR SWAP1 DUP3 AND DUP1 PUSH2 0xBFE JUMPI PUSH1 0x7F DUP3 AND SWAP2 POP JUMPDEST PUSH1 0x20 DUP3 LT DUP2 SUB PUSH2 0xC1E JUMPI PUSH4 0x4E487B71 PUSH1 0xE0 SHL PUSH1 0x0 MSTORE PUSH1 0x22 PUSH1 0x4 MSTORE PUSH1 0x24 PUSH1 0x0 REVERT JUMPDEST POP SWAP2 SWAP1 POP JUMP JUMPDEST PUSH1 0x1F DUP3 GT ISZERO PUSH2 0xC6E JUMPI PUSH1 0x0 DUP2 DUP2 MSTORE PUSH1 0x20 DUP2 KECCAK256 PUSH1 0x1F DUP6 ADD PUSH1 0x5 SHR DUP2 ADD PUSH1 0x20 DUP7 LT ISZERO PUSH2 0xC4B JUMPI POP DUP1 JUMPDEST PUSH1 0x1F DUP6 ADD PUSH1 0x5 SHR DUP3 ADD SWAP2 POP JUMPDEST DUP2 DUP2 LT ISZERO PUSH2 0xC6A JUMPI DUP3 DUP2 SSTORE PUSH1 0x1 ADD PUSH2 0xC57 JUMP JUMPDEST POP POP POP JUMPDEST POP POP POP JUMP JUMPDEST DUP2 MLOAD PUSH8 0xFFFFFFFFFFFFFFFF DUP2 GT ISZERO PUSH2 0xC8D JUMPI PUSH2 0xC8D PUSH2 0xA51 JUMP JUMPDEST PUSH2 0xCA1 DUP2 PUSH2 0xC9B DUP5 SLOAD PUSH2 0xBEA JUMP JUMPDEST DUP5 PUSH2 0xC24 JUMP JUMPDEST PUSH1 0x20 DUP1 PUSH1 0x1F DUP4 GT PUSH1 0x1 DUP2 EQ PUSH2 0xCD6 JUMPI PUSH1 0x0 DUP5 ISZERO PUSH2 0xCBE JUMPI POP DUP6 DUP4 ADD MLOAD JUMPDEST PUSH1 0x0 NOT PUSH1 0x3 DUP7 SWAP1 SHL SHR NOT AND PUSH1 0x1 DUP6 SWAP1 SHL OR DUP6 SSTORE PUSH2 0xC6A JUMP JUMPDEST PUSH1 0x0 DUP6 DUP2 MSTORE PUSH1 0x20 DUP2 KECCAK256 PUSH1 0x1F NOT DUP7 AND SWAP2 JUMPDEST DUP3 DUP2 LT ISZERO PUSH2 0xD05 JUMPI DUP9 DUP7 ADD MLOAD DUP3 SSTORE SWAP5 DUP5 ADD SWAP5 PUSH1 0x1 SWAP1 SWAP2 ADD SWAP1 DUP5 ADD PUSH2 0xCE6 JUMP JUMPDEST POP DUP6 DUP3 LT ISZERO PUSH2 0xD23 JUMPI DUP8 DUP6 ADD MLOAD PUSH1 0x0 NOT PUSH1 0x3 DUP9 SWAP1 SHL PUSH1 0xF8 AND SHR NOT AND DUP2 SSTORE JUMPDEST POP POP POP POP POP PUSH1 0x1 SWAP1 DUP2 SHL ADD SWAP1 SSTORE POP JUMP JUMPDEST PUSH4 0x4E487B71 PUSH1 0xE0 SHL PUSH1 0x0 MSTORE PUSH1 0x11 PUSH1 0x4 MSTORE PUSH1 0x24 PUSH1 0x0 REVERT JUMPDEST DUP2 DUP2 SUB DUP2 DUP2 GT ISZERO PUSH2 0x3A3 JUMPI PUSH2 0x3A3 PUSH2 0xD33 JUMP JUMPDEST PUSH1 0x0 DUP3 MLOAD PUSH2 0xD6E DUP2 DUP5 PUSH1 0x20 DUP8 ADD PUSH2 0xB42 JUMP JUMPDEST SWAP2 SWAP1 SWAP2 ADD SWAP3 SWAP2 POP POP JUMP JUMPDEST PUSH4 0x4E487B71 PUSH1 0xE0 SHL PUSH1 0x0 MSTORE PUSH1 0x32 PUSH1 0x4 MSTORE PUSH1 0x24 PUSH1 0x0 REVERT JUMPDEST DUP1 DUP3 ADD DUP1 DUP3 GT ISZERO PUSH2 0x3A3 JUMPI PUSH2 0x3A3 PUSH2 0xD33 JUMP INVALID LOG2 PUSH5 0x6970667358 0x22 SLT KECCAK256 0x24 CHAINID SWAP15 SSTORE 0xB0 ORIGIN GT 0xEC ADDMOD 0xD3 CREATE GAS 0x2D SUB DUP14 DUP11 MSTORE 0xAB PUSH6 0x2920491D522F 0xE7 0xC9 SWAP1 0xD9 NUMBER 0x25 0xD5 PUSH5 0x736F6C6343 STOP ADDMOD SGT STOP CALLER "
				},
				"gasEstimates": {
					"creation": {
						"codeDepositCost": "708600",
						"executionCost": "741",
						"totalCost": "709341"
					},
					"external": {
						"____setOperator(address)": "infinite",
						"____setTimelock(uint256)": "infinite",
						"claim()": "infinite",
						"execute(uint256)": "infinite",
						"getCurrentRequestId()": "2438",
						"getRequestArgs(uint256)": "infinite",
						"getRequestDuration(uint256)": "4616",
						"getRequestStartTimestamp(uint256)": "4704",
						"getRequestTarget(uint256)": "4732",
						"operator()": "2448",
						"request(address,bytes)": "infinite",
						"requestHasBeenExecuted(uint256)": "4667"
					},
					"internal": {
						"_onlySelf()": "infinite"
					}
				},
				"methodIdentifiers": {
					"____setOperator(address)": "e4893f39",
					"____setTimelock(uint256)": "80171fbd",
					"claim()": "4e71d92d",
					"execute(uint256)": "fe0d94c1",
					"getCurrentRequestId()": "15cd1841",
					"getRequestArgs(uint256)": "7a479160",
					"getRequestDuration(uint256)": "8e3b4918",
					"getRequestStartTimestamp(uint256)": "fbc5d026",
					"getRequestTarget(uint256)": "ee47fc5c",
					"operator()": "570ca735",
					"request(address,bytes)": "0b2d29fb",
					"requestHasBeenExecuted(uint256)": "97fe0179"
				}
			},
			"storageLayout": {
				"storage": [],
				"types": null
			},
			"userdoc": {
				"kind": "user",
				"methods": {},
				"version": 1
			}
		}
	}
}