{
	"data": {
		"bytecode": {
			"linkReferences": {},
			"object": "608060405234801561001057600080fd5b50611aad806100206000396000f3fe608060405234801561001057600080fd5b50600436106101425760003560e01c80633e5541f1116100b8578063a6a2fcd71161007c578063a6a2fcd71461028b578063b3a54f1b1461029e578063b74cbb41146102b1578063b8f82b26146102c4578063e13a96d6146102d7578063e5e45084146102ea57600080fd5b80633e5541f1146102355780633e80014814610248578063402d267d1461025b578063464964b11461027057806347e7ef241461027857600080fd5b806319d0c2fa1161010a57806319d0c2fa146101d85780632a77d7b8146101e05780632e1a7d4d146101f557806331b944501461020857806336447c4e1461021b57806338d52e0f1461022e57600080fd5b806301e1d1141461014757806307a2d13a146101625780630a885f9514610175578063182a9420146101a057806318b31027146101c3575b600080fd5b61014f6102fd565b6040519081526020015b60405180910390f35b61014f6101703660046116ef565b61046c565b6101886101833660046116ef565b6104e9565b6040516001600160a01b039091168152602001610159565b6101b36101ae36600461171d565b610500565b6040519015158152602001610159565b6101d66101d136600461171d565b610517565b005b61014f610575565b6101e86105f0565b604051610159919061173a565b6101d66102033660046116ef565b610605565b6101d6610216366004611787565b610816565b6101d66102293660046117b3565b610899565b6000610188565b61014f610243366004611787565b610915565b61014f61025636600461171d565b610aaf565b61014f61026936600461171d565b5060001990565b6101e8610ad8565b6101d6610286366004611787565b610aed565b6101d661029936600461171d565b610bb8565b6101b36102ac36600461171d565b610c0f565b6101d66102bf36600461171d565b610c26565b61014f6102d2366004611787565b610c7d565b6101886102e53660046116ef565b610c90565b6101d66102f836600461171d565b610ca7565b600080600061031561030d610cfe565b600501610d22565b905060005b8181101561046457600061033982610330610cfe565b60050190610d2c565b90503060405163ce49c9b360e01b81526001600160a01b038381166004830152919091169063ce49c9b390602401602060405180830381865afa158015610384573d6000803e3d6000fd5b505050506040513d601f19601f820116820180604052508101906103a891906117f4565b156104515760006103b882610aaf565b9050600030604051633469c24b60e21b81526001600160a01b038581166004830152919091169063d1a7092c90602401602060405180830381865afa158015610405573d6000803e3d6000fd5b505050506040513d601f19601f820116820180604052508101906104299190611816565b9050610436816008610d38565b90506104428282611845565b61044c908761185c565b955050505b508061045c8161186f565b91505061031a565b509092915050565b60006104e36104796102fd565b306001600160a01b03166318160ddd6040518163ffffffff1660e01b8152600401602060405180830381865afa1580156104b7573d6000803e3d6000fd5b505050506040513d601f19601f820116820180604052508101906104db9190611816565b849190610d86565b92915050565b60006104e3826104f7610cfe565b60030190610d2c565b60006104e38261050e610cfe565b60030190610da5565b61051f610dc7565b6105348161052b610cfe565b60010190610e0f565b506040516001600160a01b03821681527ff6aea4ebd15c89ff6a16b7819fb6968ad0a0ce7e0085ef4c87a85f8c0cd2e46a906020015b60405180910390a150565b6000306001600160a01b03166318160ddd6040518163ffffffff1660e01b8152600401602060405180830381865afa1580156105b5573d6000803e3d6000fd5b505050506040513d601f19601f820116820180604052508101906105d99190611816565b6105e16102fd565b6105eb9190611888565b905090565b60606105eb6105fd610cfe565b600101610e24565b60006106108261046c565b905061067d306001600160a01b0316638752b02f6040518163ffffffff1660e01b8152600401602060405180830381865afa158015610653573d6000803e3d6000fd5b505050506040513d601f19601f8201168201806040525081019061067791906118aa565b83610e31565b60006106876102fd565b61069383612710611845565b61069d9190611888565b905060006106ac61030d610cfe565b905060005b8181101561080f5760006106c782610330610cfe565b90506001600160a01b0381166107775760006106e36000610aaf565b90506000856106f461271084611888565b6106fe9190611845565b9050306001600160a01b03166331b94450336040516001600160e01b031960e084901b1681526001600160a01b03909116600482015260248101849052604401600060405180830381600087803b15801561075857600080fd5b505af115801561076c573d6000803e3d6000fd5b5050505050506107fc565b600061078282610aaf565b905060008561079361271084611888565b61079d9190611845565b604051631b223e2760e11b815290915030906336447c4e906107c7903390879086906004016118c7565b600060405180830381600087803b1580156107e157600080fd5b505af11580156107f5573d6000803e3d6000fd5b5050505050505b50806108078161186f565b9150506106b1565b5050505050565b61081e610cfe565b6007015460ff161561084b5760405162461bcd60e51b8152600401610842906118eb565b60405180910390fd5b6001610855610cfe565b600701805460ff191691151591909117905561086f610dc7565b6108798282610f27565b6000610883610cfe565b600701805460ff19169115159190911790555050565b6108a1610cfe565b6007015460ff16156108c55760405162461bcd60e51b8152600401610842906118eb565b60016108cf610cfe565b600701805460ff19169115159190911790556108e9610dc7565b6108f4838383611017565b60006108fe610cfe565b600701805460ff1916911515919091179055505050565b600080836001600160a01b031663313ce5676040518163ffffffff1660e01b8152600401602060405180830381865afa158015610956573d6000803e3d6000fd5b505050506040513d601f19601f8201168201806040525081019061097a9190611922565b90506109868382610d38565b925061099184610c0f565b15610aa557600030604051633469c24b60e21b81526001600160a01b038781166004830152919091169063d1a7092c90602401602060405180830381865afa1580156109e1573d6000803e3d6000fd5b505050506040513d601f19601f82011682018060405250810190610a059190611816565b9050610a12816008610d38565b90506000610a208583611845565b90506000610a99610a2f6102fd565b306001600160a01b03166318160ddd6040518163ffffffff1660e01b8152600401602060405180830381865afa158015610a6d573d6000803e3d6000fd5b505050506040513d601f19601f82011682018060405250810190610a919190611816565b84919061121c565b94506104e39350505050565b5060009392505050565b6000610ab9610cfe565b6001600160a01b03909216600090815260209290925250604090205490565b60606105eb610ae5610cfe565b600301610e24565b610af5610cfe565b6007015460ff1615610b195760405162461bcd60e51b8152600401610842906118eb565b6001610b23610cfe565b600701805460ff1916911515919091179055610b3f8282611229565b30634ac947f733610b508585610915565b6040516001600160e01b031960e085901b1681526001600160a01b0390921660048301526024820152604401600060405180830381600087803b158015610b9657600080fd5b505af1158015610baa573d6000803e3d6000fd5b505050506000610883610cfe565b610bc0610dc7565b610bd581610bcc610cfe565b60030190610e0f565b506040516001600160a01b03821681527fb91009acff1ca23a9fe12400608cae8383f810cac953c1a16a99fe9b9c65abfb9060200161056a565b60006104e382610c1d610cfe565b60010190610da5565b610c2e610dc7565b610c4381610c3a610cfe565b600301906113aa565b506040516001600160a01b03821681527f64f9ae8a27a020b54f63a0d9ff5d3f0dd302b35eef11d16612b2a02b2d8a82489060200161056a565b6000610c898383610915565b9392505050565b60006104e382610c9e610cfe565b60010190610d2c565b610caf610dc7565b610cc481610cbb610cfe565b600101906113aa565b506040516001600160a01b03821681527f0a05ed313e53d05b8e9ebe468e240ec174f5190074867a051f35ac20709eed049060200161056a565b7ff2eeec4c06050035800631f1916b3a25e1fa154de963ec50f0ac015a5be9e61890565b60006104e3825490565b6000610c8983836113bf565b6000670de0b6b3a7640000610d4e83600a611a29565b610d6085670de0b6b3a7640000611845565b610d6a9190611888565b610d7c90670de0b6b3a7640000611845565b610c899190611888565b600081610d938486611845565b610d9d9190611888565b949350505050565b6001600160a01b03811660009081526001830160205260408120541515610c89565b333014610e0d5760405162461bcd60e51b81526020600482015260146024820152732330b1b2ba29b0b3329d1037b7363c9039b2b63360611b6044820152606401610842565b565b6000610c89836001600160a01b0384166113e9565b60606000610c8983611438565b610e9d826001600160a01b031663313ce5676040518163ffffffff1660e01b8152600401602060405180830381865afa158015610e72573d6000803e3d6000fd5b505050506040513d601f19601f82011682018060405250810190610e969190611922565b8290611494565b9050806001600160a01b0383166370a08231336040516001600160e01b031960e084901b1681526001600160a01b039091166004820152602401602060405180830381865afa158015610ef4573d6000803e3d6000fd5b505050506040513d601f19601f82011682018060405250810190610f189190611816565b1015610f2357600080fd5b5050565b610f3160006114d1565b610f3c600082611535565b80610f45610cfe565b6000808052602091909152604081208054909190610f64908490611a38565b90915550610f729050610cfe565b600080805260209190915260408120549003610fa057610f9e6000610f95610cfe565b600501906113aa565b505b6040516001600160a01b0383169082156108fc029083906000818181858888f19350505050158015610fd6573d6000803e3d6000fd5b507f9b1bfa7fa9ee420a16e124f794c35ac9f90472acc99140eb2f6447c714cad8eb8260008360405161100b939291906118c7565b60405180910390a15050565b816001600160a01b03811661106e5760405162461bcd60e51b815260206004820152601e60248201527f4661636574536166653a20696e6170726f707269617465206d6574686f6400006044820152606401610842565b611077836114d1565b6110818383611535565b8161108a610cfe565b6001600160a01b03851660009081526020919091526040812080549091906110b3908490611a38565b909155506110c19050610cfe565b6001600160a01b0384166000908152602091909152604081205490036110ef576110ed83610f95610cfe565b505b806001600160a01b031663a9059cbb8561116b846001600160a01b031663313ce5676040518163ffffffff1660e01b8152600401602060405180830381865afa158015611140573d6000803e3d6000fd5b505050506040513d601f19601f820116820180604052508101906111649190611922565b8690611494565b6040516001600160e01b031960e085901b1681526001600160a01b03909216600483015260248201526044016020604051808303816000875af11580156111b6573d6000803e3d6000fd5b505050506040513d601f19601f820116820180604052508101906111da91906117f4565b507f9b1bfa7fa9ee420a16e124f794c35ac9f90472acc99140eb2f6447c714cad8eb84848460405161120e939291906118c7565b60405180910390a150505050565b600082610d938386611845565b81611233816115a6565b61123d8383610e31565b6001600160a01b0381166323b872dd33306112ba876001600160a01b031663313ce5676040518163ffffffff1660e01b8152600401602060405180830381865afa15801561128f573d6000803e3d6000fd5b505050506040513d601f19601f820116820180604052508101906112b39190611922565b8790611494565b6040518463ffffffff1660e01b81526004016112d8939291906118c7565b6020604051808303816000875af11580156112f7573d6000803e3d6000fd5b505050506040513d601f19601f8201168201806040525081019061131b91906117f4565b5081611325610cfe565b6001600160a01b038516600090815260209190915260408120805490919061134e90849061185c565b90915550611369905083611360610cfe565b60050190610e0f565b507f5548c837ab068cf56a2c2479df0882a4922fd203edb7517321831d95078c5f6233848460405161139d939291906118c7565b60405180910390a1505050565b6000610c89836001600160a01b038416611606565b60008260000182815481106113d6576113d6611a4b565b9060005260206000200154905092915050565b6000818152600183016020526040812054611430575081546001818101845560008481526020808220909301849055845484825282860190935260409020919091556104e3565b5060006104e3565b60608160000180548060200260200160405190810160405280929190818152602001828054801561148857602002820191906000526020600020905b815481526020019060010190808311611474575b50505050509050919050565b6000670de0b6b3a76400006114aa83600a611a29565b670de0b6b3a76400006114bd8682611845565b6114c79190611888565b610d7c9190611845565b6114da81610500565b6115325760405162461bcd60e51b815260206004820152602360248201527f4661636574536166653a20746f6b656e206973206e6f7420616c6c6f776564206044820152621bdd5d60ea1b6064820152608401610842565b50565b8061153e610cfe565b6001600160a01b038416600090815260209190915260409020541015610f235760405162461bcd60e51b815260206004820152601f60248201527f4661636574536166653a20696e73756666696369656e742062616c616e6365006044820152606401610842565b6115af81610c0f565b6115325760405162461bcd60e51b815260206004820152602260248201527f4661636574536166653a20746f6b656e206973206e6f7420616c6c6f7765642060448201526134b760f11b6064820152608401610842565b60008181526001830160205260408120548015610aa557600061162a600183611a38565b855490915060009061163e90600190611a38565b90508181146116a357600086600001828154811061165e5761165e611a4b565b906000526020600020015490508087600001848154811061168157611681611a4b565b6000918252602080832090910192909255918252600188019052604090208390555b85548690806116b4576116b4611a61565b6001900381819060005260206000200160009055905585600101600086815260200190815260200160002060009055600193505050506104e3565b60006020828403121561170157600080fd5b5035919050565b6001600160a01b038116811461153257600080fd5b60006020828403121561172f57600080fd5b8135610c8981611708565b6020808252825182820181905260009190848201906040850190845b8181101561177b5783516001600160a01b031683529284019291840191600101611756565b50909695505050505050565b6000806040838503121561179a57600080fd5b82356117a581611708565b946020939093013593505050565b6000806000606084860312156117c857600080fd5b83356117d381611708565b925060208401356117e381611708565b929592945050506040919091013590565b60006020828403121561180657600080fd5b81518015158114610c8957600080fd5b60006020828403121561182857600080fd5b5051919050565b634e487b7160e01b600052601160045260246000fd5b80820281158282048414176104e3576104e361182f565b808201808211156104e3576104e361182f565b6000600182016118815761188161182f565b5060010190565b6000826118a557634e487b7160e01b600052601260045260246000fd5b500490565b6000602082840312156118bc57600080fd5b8151610c8981611708565b6001600160a01b039384168152919092166020820152604081019190915260600190565b60208082526019908201527f4661636574536166653a207265656e7472616e742063616c6c00000000000000604082015260600190565b60006020828403121561193457600080fd5b815160ff81168114610c8957600080fd5b600181815b808511156119805781600019048211156119665761196661182f565b8085161561197357918102915b93841c939080029061194a565b509250929050565b600082611997575060016104e3565b816119a4575060006104e3565b81600181146119ba57600281146119c4576119e0565b60019150506104e3565b60ff8411156119d5576119d561182f565b50506001821b6104e3565b5060208310610133831016604e8410600b8410161715611a03575081810a6104e3565b611a0d8383611945565b8060001904821115611a2157611a2161182f565b029392505050565b6000610c8960ff841683611988565b818103818111156104e3576104e361182f565b634e487b7160e01b600052603260045260246000fd5b634e487b7160e01b600052603160045260246000fdfea2646970667358221220cdf23f5b595d972f69cfbb2046419a3836ff7d328b90b11e5402b3f7c017571064736f6c63430008130033",
			"opcodes": "PUSH1 0x80 PUSH1 0x40 MSTORE CALLVALUE DUP1 ISZERO PUSH2 0x10 JUMPI PUSH1 0x0 DUP1 REVERT JUMPDEST POP PUSH2 0x1AAD DUP1 PUSH2 0x20 PUSH1 0x0 CODECOPY PUSH1 0x0 RETURN INVALID PUSH1 0x80 PUSH1 0x40 MSTORE CALLVALUE DUP1 ISZERO PUSH2 0x10 JUMPI PUSH1 0x0 DUP1 REVERT JUMPDEST POP PUSH1 0x4 CALLDATASIZE LT PUSH2 0x142 JUMPI PUSH1 0x0 CALLDATALOAD PUSH1 0xE0 SHR DUP1 PUSH4 0x3E5541F1 GT PUSH2 0xB8 JUMPI DUP1 PUSH4 0xA6A2FCD7 GT PUSH2 0x7C JUMPI DUP1 PUSH4 0xA6A2FCD7 EQ PUSH2 0x28B JUMPI DUP1 PUSH4 0xB3A54F1B EQ PUSH2 0x29E JUMPI DUP1 PUSH4 0xB74CBB41 EQ PUSH2 0x2B1 JUMPI DUP1 PUSH4 0xB8F82B26 EQ PUSH2 0x2C4 JUMPI DUP1 PUSH4 0xE13A96D6 EQ PUSH2 0x2D7 JUMPI DUP1 PUSH4 0xE5E45084 EQ PUSH2 0x2EA JUMPI PUSH1 0x0 DUP1 REVERT JUMPDEST DUP1 PUSH4 0x3E5541F1 EQ PUSH2 0x235 JUMPI DUP1 PUSH4 0x3E800148 EQ PUSH2 0x248 JUMPI DUP1 PUSH4 0x402D267D EQ PUSH2 0x25B JUMPI DUP1 PUSH4 0x464964B1 EQ PUSH2 0x270 JUMPI DUP1 PUSH4 0x47E7EF24 EQ PUSH2 0x278 JUMPI PUSH1 0x0 DUP1 REVERT JUMPDEST DUP1 PUSH4 0x19D0C2FA GT PUSH2 0x10A JUMPI DUP1 PUSH4 0x19D0C2FA EQ PUSH2 0x1D8 JUMPI DUP1 PUSH4 0x2A77D7B8 EQ PUSH2 0x1E0 JUMPI DUP1 PUSH4 0x2E1A7D4D EQ PUSH2 0x1F5 JUMPI DUP1 PUSH4 0x31B94450 EQ PUSH2 0x208 JUMPI DUP1 PUSH4 0x36447C4E EQ PUSH2 0x21B JUMPI DUP1 PUSH4 0x38D52E0F EQ PUSH2 0x22E JUMPI PUSH1 0x0 DUP1 REVERT JUMPDEST DUP1 PUSH4 0x1E1D114 EQ PUSH2 0x147 JUMPI DUP1 PUSH4 0x7A2D13A EQ PUSH2 0x162 JUMPI DUP1 PUSH4 0xA885F95 EQ PUSH2 0x175 JUMPI DUP1 PUSH4 0x182A9420 EQ PUSH2 0x1A0 JUMPI DUP1 PUSH4 0x18B31027 EQ PUSH2 0x1C3 JUMPI JUMPDEST PUSH1 0x0 DUP1 REVERT JUMPDEST PUSH2 0x14F PUSH2 0x2FD JUMP JUMPDEST PUSH1 0x40 MLOAD SWAP1 DUP2 MSTORE PUSH1 0x20 ADD JUMPDEST PUSH1 0x40 MLOAD DUP1 SWAP2 SUB SWAP1 RETURN JUMPDEST PUSH2 0x14F PUSH2 0x170 CALLDATASIZE PUSH1 0x4 PUSH2 0x16EF JUMP JUMPDEST PUSH2 0x46C JUMP JUMPDEST PUSH2 0x188 PUSH2 0x183 CALLDATASIZE PUSH1 0x4 PUSH2 0x16EF JUMP JUMPDEST PUSH2 0x4E9 JUMP JUMPDEST PUSH1 0x40 MLOAD PUSH1 0x1 PUSH1 0x1 PUSH1 0xA0 SHL SUB SWAP1 SWAP2 AND DUP2 MSTORE PUSH1 0x20 ADD PUSH2 0x159 JUMP JUMPDEST PUSH2 0x1B3 PUSH2 0x1AE CALLDATASIZE PUSH1 0x4 PUSH2 0x171D JUMP JUMPDEST PUSH2 0x500 JUMP JUMPDEST PUSH1 0x40 MLOAD SWAP1 ISZERO ISZERO DUP2 MSTORE PUSH1 0x20 ADD PUSH2 0x159 JUMP JUMPDEST PUSH2 0x1D6 PUSH2 0x1D1 CALLDATASIZE PUSH1 0x4 PUSH2 0x171D JUMP JUMPDEST PUSH2 0x517 JUMP JUMPDEST STOP JUMPDEST PUSH2 0x14F PUSH2 0x575 JUMP JUMPDEST PUSH2 0x1E8 PUSH2 0x5F0 JUMP JUMPDEST PUSH1 0x40 MLOAD PUSH2 0x159 SWAP2 SWAP1 PUSH2 0x173A JUMP JUMPDEST PUSH2 0x1D6 PUSH2 0x203 CALLDATASIZE PUSH1 0x4 PUSH2 0x16EF JUMP JUMPDEST PUSH2 0x605 JUMP JUMPDEST PUSH2 0x1D6 PUSH2 0x216 CALLDATASIZE PUSH1 0x4 PUSH2 0x1787 JUMP JUMPDEST PUSH2 0x816 JUMP JUMPDEST PUSH2 0x1D6 PUSH2 0x229 CALLDATASIZE PUSH1 0x4 PUSH2 0x17B3 JUMP JUMPDEST PUSH2 0x899 JUMP JUMPDEST PUSH1 0x0 PUSH2 0x188 JUMP JUMPDEST PUSH2 0x14F PUSH2 0x243 CALLDATASIZE PUSH1 0x4 PUSH2 0x1787 JUMP JUMPDEST PUSH2 0x915 JUMP JUMPDEST PUSH2 0x14F PUSH2 0x256 CALLDATASIZE PUSH1 0x4 PUSH2 0x171D JUMP JUMPDEST PUSH2 0xAAF JUMP JUMPDEST PUSH2 0x14F PUSH2 0x269 CALLDATASIZE PUSH1 0x4 PUSH2 0x171D JUMP JUMPDEST POP PUSH1 0x0 NOT SWAP1 JUMP JUMPDEST PUSH2 0x1E8 PUSH2 0xAD8 JUMP JUMPDEST PUSH2 0x1D6 PUSH2 0x286 CALLDATASIZE PUSH1 0x4 PUSH2 0x1787 JUMP JUMPDEST PUSH2 0xAED JUMP JUMPDEST PUSH2 0x1D6 PUSH2 0x299 CALLDATASIZE PUSH1 0x4 PUSH2 0x171D JUMP JUMPDEST PUSH2 0xBB8 JUMP JUMPDEST PUSH2 0x1B3 PUSH2 0x2AC CALLDATASIZE PUSH1 0x4 PUSH2 0x171D JUMP JUMPDEST PUSH2 0xC0F JUMP JUMPDEST PUSH2 0x1D6 PUSH2 0x2BF CALLDATASIZE PUSH1 0x4 PUSH2 0x171D JUMP JUMPDEST PUSH2 0xC26 JUMP JUMPDEST PUSH2 0x14F PUSH2 0x2D2 CALLDATASIZE PUSH1 0x4 PUSH2 0x1787 JUMP JUMPDEST PUSH2 0xC7D JUMP JUMPDEST PUSH2 0x188 PUSH2 0x2E5 CALLDATASIZE PUSH1 0x4 PUSH2 0x16EF JUMP JUMPDEST PUSH2 0xC90 JUMP JUMPDEST PUSH2 0x1D6 PUSH2 0x2F8 CALLDATASIZE PUSH1 0x4 PUSH2 0x171D JUMP JUMPDEST PUSH2 0xCA7 JUMP JUMPDEST PUSH1 0x0 DUP1 PUSH1 0x0 PUSH2 0x315 PUSH2 0x30D PUSH2 0xCFE JUMP JUMPDEST PUSH1 0x5 ADD PUSH2 0xD22 JUMP JUMPDEST SWAP1 POP PUSH1 0x0 JUMPDEST DUP2 DUP2 LT ISZERO PUSH2 0x464 JUMPI PUSH1 0x0 PUSH2 0x339 DUP3 PUSH2 0x330 PUSH2 0xCFE JUMP JUMPDEST PUSH1 0x5 ADD SWAP1 PUSH2 0xD2C JUMP JUMPDEST SWAP1 POP ADDRESS PUSH1 0x40 MLOAD PUSH4 0xCE49C9B3 PUSH1 0xE0 SHL DUP2 MSTORE PUSH1 0x1 PUSH1 0x1 PUSH1 0xA0 SHL SUB DUP4 DUP2 AND PUSH1 0x4 DUP4 ADD MSTORE SWAP2 SWAP1 SWAP2 AND SWAP1 PUSH4 0xCE49C9B3 SWAP1 PUSH1 0x24 ADD PUSH1 0x20 PUSH1 0x40 MLOAD DUP1 DUP4 SUB DUP2 DUP7 GAS STATICCALL ISZERO DUP1 ISZERO PUSH2 0x384 JUMPI RETURNDATASIZE PUSH1 0x0 DUP1 RETURNDATACOPY RETURNDATASIZE PUSH1 0x0 REVERT JUMPDEST POP POP POP POP PUSH1 0x40 MLOAD RETURNDATASIZE PUSH1 0x1F NOT PUSH1 0x1F DUP3 ADD AND DUP3 ADD DUP1 PUSH1 0x40 MSTORE POP DUP2 ADD SWAP1 PUSH2 0x3A8 SWAP2 SWAP1 PUSH2 0x17F4 JUMP JUMPDEST ISZERO PUSH2 0x451 JUMPI PUSH1 0x0 PUSH2 0x3B8 DUP3 PUSH2 0xAAF JUMP JUMPDEST SWAP1 POP PUSH1 0x0 ADDRESS PUSH1 0x40 MLOAD PUSH4 0x3469C24B PUSH1 0xE2 SHL DUP2 MSTORE PUSH1 0x1 PUSH1 0x1 PUSH1 0xA0 SHL SUB DUP6 DUP2 AND PUSH1 0x4 DUP4 ADD MSTORE SWAP2 SWAP1 SWAP2 AND SWAP1 PUSH4 0xD1A7092C SWAP1 PUSH1 0x24 ADD PUSH1 0x20 PUSH1 0x40 MLOAD DUP1 DUP4 SUB DUP2 DUP7 GAS STATICCALL ISZERO DUP1 ISZERO PUSH2 0x405 JUMPI RETURNDATASIZE PUSH1 0x0 DUP1 RETURNDATACOPY RETURNDATASIZE PUSH1 0x0 REVERT JUMPDEST POP POP POP POP PUSH1 0x40 MLOAD RETURNDATASIZE PUSH1 0x1F NOT PUSH1 0x1F DUP3 ADD AND DUP3 ADD DUP1 PUSH1 0x40 MSTORE POP DUP2 ADD SWAP1 PUSH2 0x429 SWAP2 SWAP1 PUSH2 0x1816 JUMP JUMPDEST SWAP1 POP PUSH2 0x436 DUP2 PUSH1 0x8 PUSH2 0xD38 JUMP JUMPDEST SWAP1 POP PUSH2 0x442 DUP3 DUP3 PUSH2 0x1845 JUMP JUMPDEST PUSH2 0x44C SWAP1 DUP8 PUSH2 0x185C JUMP JUMPDEST SWAP6 POP POP POP JUMPDEST POP DUP1 PUSH2 0x45C DUP2 PUSH2 0x186F JUMP JUMPDEST SWAP2 POP POP PUSH2 0x31A JUMP JUMPDEST POP SWAP1 SWAP3 SWAP2 POP POP JUMP JUMPDEST PUSH1 0x0 PUSH2 0x4E3 PUSH2 0x479 PUSH2 0x2FD JUMP JUMPDEST ADDRESS PUSH1 0x1 PUSH1 0x1 PUSH1 0xA0 SHL SUB AND PUSH4 0x18160DDD PUSH1 0x40 MLOAD DUP2 PUSH4 0xFFFFFFFF AND PUSH1 0xE0 SHL DUP2 MSTORE PUSH1 0x4 ADD PUSH1 0x20 PUSH1 0x40 MLOAD DUP1 DUP4 SUB DUP2 DUP7 GAS STATICCALL ISZERO DUP1 ISZERO PUSH2 0x4B7 JUMPI RETURNDATASIZE PUSH1 0x0 DUP1 RETURNDATACOPY RETURNDATASIZE PUSH1 0x0 REVERT JUMPDEST POP POP POP POP PUSH1 0x40 MLOAD RETURNDATASIZE PUSH1 0x1F NOT PUSH1 0x1F DUP3 ADD AND DUP3 ADD DUP1 PUSH1 0x40 MSTORE POP DUP2 ADD SWAP1 PUSH2 0x4DB SWAP2 SWAP1 PUSH2 0x1816 JUMP JUMPDEST DUP5 SWAP2 SWAP1 PUSH2 0xD86 JUMP JUMPDEST SWAP3 SWAP2 POP POP JUMP JUMPDEST PUSH1 0x0 PUSH2 0x4E3 DUP3 PUSH2 0x4F7 PUSH2 0xCFE JUMP JUMPDEST PUSH1 0x3 ADD SWAP1 PUSH2 0xD2C JUMP JUMPDEST PUSH1 0x0 PUSH2 0x4E3 DUP3 PUSH2 0x50E PUSH2 0xCFE JUMP JUMPDEST PUSH1 0x3 ADD SWAP1 PUSH2 0xDA5 JUMP JUMPDEST PUSH2 0x51F PUSH2 0xDC7 JUMP JUMPDEST PUSH2 0x534 DUP2 PUSH2 0x52B PUSH2 0xCFE JUMP JUMPDEST PUSH1 0x1 ADD SWAP1 PUSH2 0xE0F JUMP JUMPDEST POP PUSH1 0x40 MLOAD PUSH1 0x1 PUSH1 0x1 PUSH1 0xA0 SHL SUB DUP3 AND DUP2 MSTORE PUSH32 0xF6AEA4EBD15C89FF6A16B7819FB6968AD0A0CE7E0085EF4C87A85F8C0CD2E46A SWAP1 PUSH1 0x20 ADD JUMPDEST PUSH1 0x40 MLOAD DUP1 SWAP2 SUB SWAP1 LOG1 POP JUMP JUMPDEST PUSH1 0x0 ADDRESS PUSH1 0x1 PUSH1 0x1 PUSH1 0xA0 SHL SUB AND PUSH4 0x18160DDD PUSH1 0x40 MLOAD DUP2 PUSH4 0xFFFFFFFF AND PUSH1 0xE0 SHL DUP2 MSTORE PUSH1 0x4 ADD PUSH1 0x20 PUSH1 0x40 MLOAD DUP1 DUP4 SUB DUP2 DUP7 GAS STATICCALL ISZERO DUP1 ISZERO PUSH2 0x5B5 JUMPI RETURNDATASIZE PUSH1 0x0 DUP1 RETURNDATACOPY RETURNDATASIZE PUSH1 0x0 REVERT JUMPDEST POP POP POP POP PUSH1 0x40 MLOAD RETURNDATASIZE PUSH1 0x1F NOT PUSH1 0x1F DUP3 ADD AND DUP3 ADD DUP1 PUSH1 0x40 MSTORE POP DUP2 ADD SWAP1 PUSH2 0x5D9 SWAP2 SWAP1 PUSH2 0x1816 JUMP JUMPDEST PUSH2 0x5E1 PUSH2 0x2FD JUMP JUMPDEST PUSH2 0x5EB SWAP2 SWAP1 PUSH2 0x1888 JUMP JUMPDEST SWAP1 POP SWAP1 JUMP JUMPDEST PUSH1 0x60 PUSH2 0x5EB PUSH2 0x5FD PUSH2 0xCFE JUMP JUMPDEST PUSH1 0x1 ADD PUSH2 0xE24 JUMP JUMPDEST PUSH1 0x0 PUSH2 0x610 DUP3 PUSH2 0x46C JUMP JUMPDEST SWAP1 POP PUSH2 0x67D ADDRESS PUSH1 0x1 PUSH1 0x1 PUSH1 0xA0 SHL SUB AND PUSH4 0x8752B02F PUSH1 0x40 MLOAD DUP2 PUSH4 0xFFFFFFFF AND PUSH1 0xE0 SHL DUP2 MSTORE PUSH1 0x4 ADD PUSH1 0x20 PUSH1 0x40 MLOAD DUP1 DUP4 SUB DUP2 DUP7 GAS STATICCALL ISZERO DUP1 ISZERO PUSH2 0x653 JUMPI RETURNDATASIZE PUSH1 0x0 DUP1 RETURNDATACOPY RETURNDATASIZE PUSH1 0x0 REVERT JUMPDEST POP POP POP POP PUSH1 0x40 MLOAD RETURNDATASIZE PUSH1 0x1F NOT PUSH1 0x1F DUP3 ADD AND DUP3 ADD DUP1 PUSH1 0x40 MSTORE POP DUP2 ADD SWAP1 PUSH2 0x677 SWAP2 SWAP1 PUSH2 0x18AA JUMP JUMPDEST DUP4 PUSH2 0xE31 JUMP JUMPDEST PUSH1 0x0 PUSH2 0x687 PUSH2 0x2FD JUMP JUMPDEST PUSH2 0x693 DUP4 PUSH2 0x2710 PUSH2 0x1845 JUMP JUMPDEST PUSH2 0x69D SWAP2 SWAP1 PUSH2 0x1888 JUMP JUMPDEST SWAP1 POP PUSH1 0x0 PUSH2 0x6AC PUSH2 0x30D PUSH2 0xCFE JUMP JUMPDEST SWAP1 POP PUSH1 0x0 JUMPDEST DUP2 DUP2 LT ISZERO PUSH2 0x80F JUMPI PUSH1 0x0 PUSH2 0x6C7 DUP3 PUSH2 0x330 PUSH2 0xCFE JUMP JUMPDEST SWAP1 POP PUSH1 0x1 PUSH1 0x1 PUSH1 0xA0 SHL SUB DUP2 AND PUSH2 0x777 JUMPI PUSH1 0x0 PUSH2 0x6E3 PUSH1 0x0 PUSH2 0xAAF JUMP JUMPDEST SWAP1 POP PUSH1 0x0 DUP6 PUSH2 0x6F4 PUSH2 0x2710 DUP5 PUSH2 0x1888 JUMP JUMPDEST PUSH2 0x6FE SWAP2 SWAP1 PUSH2 0x1845 JUMP JUMPDEST SWAP1 POP ADDRESS PUSH1 0x1 PUSH1 0x1 PUSH1 0xA0 SHL SUB AND PUSH4 0x31B94450 CALLER PUSH1 0x40 MLOAD PUSH1 0x1 PUSH1 0x1 PUSH1 0xE0 SHL SUB NOT PUSH1 0xE0 DUP5 SWAP1 SHL AND DUP2 MSTORE PUSH1 0x1 PUSH1 0x1 PUSH1 0xA0 SHL SUB SWAP1 SWAP2 AND PUSH1 0x4 DUP3 ADD MSTORE PUSH1 0x24 DUP2 ADD DUP5 SWAP1 MSTORE PUSH1 0x44 ADD PUSH1 0x0 PUSH1 0x40 MLOAD DUP1 DUP4 SUB DUP2 PUSH1 0x0 DUP8 DUP1 EXTCODESIZE ISZERO DUP1 ISZERO PUSH2 0x758 JUMPI PUSH1 0x0 DUP1 REVERT JUMPDEST POP GAS CALL ISZERO DUP1 ISZERO PUSH2 0x76C JUMPI RETURNDATASIZE PUSH1 0x0 DUP1 RETURNDATACOPY RETURNDATASIZE PUSH1 0x0 REVERT JUMPDEST POP POP POP POP POP POP PUSH2 0x7FC JUMP JUMPDEST PUSH1 0x0 PUSH2 0x782 DUP3 PUSH2 0xAAF JUMP JUMPDEST SWAP1 POP PUSH1 0x0 DUP6 PUSH2 0x793 PUSH2 0x2710 DUP5 PUSH2 0x1888 JUMP JUMPDEST PUSH2 0x79D SWAP2 SWAP1 PUSH2 0x1845 JUMP JUMPDEST PUSH1 0x40 MLOAD PUSH4 0x1B223E27 PUSH1 0xE1 SHL DUP2 MSTORE SWAP1 SWAP2 POP ADDRESS SWAP1 PUSH4 0x36447C4E SWAP1 PUSH2 0x7C7 SWAP1 CALLER SWAP1 DUP8 SWAP1 DUP7 SWAP1 PUSH1 0x4 ADD PUSH2 0x18C7 JUMP JUMPDEST PUSH1 0x0 PUSH1 0x40 MLOAD DUP1 DUP4 SUB DUP2 PUSH1 0x0 DUP8 DUP1 EXTCODESIZE ISZERO DUP1 ISZERO PUSH2 0x7E1 JUMPI PUSH1 0x0 DUP1 REVERT JUMPDEST POP GAS CALL ISZERO DUP1 ISZERO PUSH2 0x7F5 JUMPI RETURNDATASIZE PUSH1 0x0 DUP1 RETURNDATACOPY RETURNDATASIZE PUSH1 0x0 REVERT JUMPDEST POP POP POP POP POP POP JUMPDEST POP DUP1 PUSH2 0x807 DUP2 PUSH2 0x186F JUMP JUMPDEST SWAP2 POP POP PUSH2 0x6B1 JUMP JUMPDEST POP POP POP POP POP JUMP JUMPDEST PUSH2 0x81E PUSH2 0xCFE JUMP JUMPDEST PUSH1 0x7 ADD SLOAD PUSH1 0xFF AND ISZERO PUSH2 0x84B JUMPI PUSH1 0x40 MLOAD PUSH3 0x461BCD PUSH1 0xE5 SHL DUP2 MSTORE PUSH1 0x4 ADD PUSH2 0x842 SWAP1 PUSH2 0x18EB JUMP JUMPDEST PUSH1 0x40 MLOAD DUP1 SWAP2 SUB SWAP1 REVERT JUMPDEST PUSH1 0x1 PUSH2 0x855 PUSH2 0xCFE JUMP JUMPDEST PUSH1 0x7 ADD DUP1 SLOAD PUSH1 0xFF NOT AND SWAP2 ISZERO ISZERO SWAP2 SWAP1 SWAP2 OR SWAP1 SSTORE PUSH2 0x86F PUSH2 0xDC7 JUMP JUMPDEST PUSH2 0x879 DUP3 DUP3 PUSH2 0xF27 JUMP JUMPDEST PUSH1 0x0 PUSH2 0x883 PUSH2 0xCFE JUMP JUMPDEST PUSH1 0x7 ADD DUP1 SLOAD PUSH1 0xFF NOT AND SWAP2 ISZERO ISZERO SWAP2 SWAP1 SWAP2 OR SWAP1 SSTORE POP POP JUMP JUMPDEST PUSH2 0x8A1 PUSH2 0xCFE JUMP JUMPDEST PUSH1 0x7 ADD SLOAD PUSH1 0xFF AND ISZERO PUSH2 0x8C5 JUMPI PUSH1 0x40 MLOAD PUSH3 0x461BCD PUSH1 0xE5 SHL DUP2 MSTORE PUSH1 0x4 ADD PUSH2 0x842 SWAP1 PUSH2 0x18EB JUMP JUMPDEST PUSH1 0x1 PUSH2 0x8CF PUSH2 0xCFE JUMP JUMPDEST PUSH1 0x7 ADD DUP1 SLOAD PUSH1 0xFF NOT AND SWAP2 ISZERO ISZERO SWAP2 SWAP1 SWAP2 OR SWAP1 SSTORE PUSH2 0x8E9 PUSH2 0xDC7 JUMP JUMPDEST PUSH2 0x8F4 DUP4 DUP4 DUP4 PUSH2 0x1017 JUMP JUMPDEST PUSH1 0x0 PUSH2 0x8FE PUSH2 0xCFE JUMP JUMPDEST PUSH1 0x7 ADD DUP1 SLOAD PUSH1 0xFF NOT AND SWAP2 ISZERO ISZERO SWAP2 SWAP1 SWAP2 OR SWAP1 SSTORE POP POP POP JUMP JUMPDEST PUSH1 0x0 DUP1 DUP4 PUSH1 0x1 PUSH1 0x1 PUSH1 0xA0 SHL SUB AND PUSH4 0x313CE567 PUSH1 0x40 MLOAD DUP2 PUSH4 0xFFFFFFFF AND PUSH1 0xE0 SHL DUP2 MSTORE PUSH1 0x4 ADD PUSH1 0x20 PUSH1 0x40 MLOAD DUP1 DUP4 SUB DUP2 DUP7 GAS STATICCALL ISZERO DUP1 ISZERO PUSH2 0x956 JUMPI RETURNDATASIZE PUSH1 0x0 DUP1 RETURNDATACOPY RETURNDATASIZE PUSH1 0x0 REVERT JUMPDEST POP POP POP POP PUSH1 0x40 MLOAD RETURNDATASIZE PUSH1 0x1F NOT PUSH1 0x1F DUP3 ADD AND DUP3 ADD DUP1 PUSH1 0x40 MSTORE POP DUP2 ADD SWAP1 PUSH2 0x97A SWAP2 SWAP1 PUSH2 0x1922 JUMP JUMPDEST SWAP1 POP PUSH2 0x986 DUP4 DUP3 PUSH2 0xD38 JUMP JUMPDEST SWAP3 POP PUSH2 0x991 DUP5 PUSH2 0xC0F JUMP JUMPDEST ISZERO PUSH2 0xAA5 JUMPI PUSH1 0x0 ADDRESS PUSH1 0x40 MLOAD PUSH4 0x3469C24B PUSH1 0xE2 SHL DUP2 MSTORE PUSH1 0x1 PUSH1 0x1 PUSH1 0xA0 SHL SUB DUP8 DUP2 AND PUSH1 0x4 DUP4 ADD MSTORE SWAP2 SWAP1 SWAP2 AND SWAP1 PUSH4 0xD1A7092C SWAP1 PUSH1 0x24 ADD PUSH1 0x20 PUSH1 0x40 MLOAD DUP1 DUP4 SUB DUP2 DUP7 GAS STATICCALL ISZERO DUP1 ISZERO PUSH2 0x9E1 JUMPI RETURNDATASIZE PUSH1 0x0 DUP1 RETURNDATACOPY RETURNDATASIZE PUSH1 0x0 REVERT JUMPDEST POP POP POP POP PUSH1 0x40 MLOAD RETURNDATASIZE PUSH1 0x1F NOT PUSH1 0x1F DUP3 ADD AND DUP3 ADD DUP1 PUSH1 0x40 MSTORE POP DUP2 ADD SWAP1 PUSH2 0xA05 SWAP2 SWAP1 PUSH2 0x1816 JUMP JUMPDEST SWAP1 POP PUSH2 0xA12 DUP2 PUSH1 0x8 PUSH2 0xD38 JUMP JUMPDEST SWAP1 POP PUSH1 0x0 PUSH2 0xA20 DUP6 DUP4 PUSH2 0x1845 JUMP JUMPDEST SWAP1 POP PUSH1 0x0 PUSH2 0xA99 PUSH2 0xA2F PUSH2 0x2FD JUMP JUMPDEST ADDRESS PUSH1 0x1 PUSH1 0x1 PUSH1 0xA0 SHL SUB AND PUSH4 0x18160DDD PUSH1 0x40 MLOAD DUP2 PUSH4 0xFFFFFFFF AND PUSH1 0xE0 SHL DUP2 MSTORE PUSH1 0x4 ADD PUSH1 0x20 PUSH1 0x40 MLOAD DUP1 DUP4 SUB DUP2 DUP7 GAS STATICCALL ISZERO DUP1 ISZERO PUSH2 0xA6D JUMPI RETURNDATASIZE PUSH1 0x0 DUP1 RETURNDATACOPY RETURNDATASIZE PUSH1 0x0 REVERT JUMPDEST POP POP POP POP PUSH1 0x40 MLOAD RETURNDATASIZE PUSH1 0x1F NOT PUSH1 0x1F DUP3 ADD AND DUP3 ADD DUP1 PUSH1 0x40 MSTORE POP DUP2 ADD SWAP1 PUSH2 0xA91 SWAP2 SWAP1 PUSH2 0x1816 JUMP JUMPDEST DUP5 SWAP2 SWAP1 PUSH2 0x121C JUMP JUMPDEST SWAP5 POP PUSH2 0x4E3 SWAP4 POP POP POP POP JUMP JUMPDEST POP PUSH1 0x0 SWAP4 SWAP3 POP POP POP JUMP JUMPDEST PUSH1 0x0 PUSH2 0xAB9 PUSH2 0xCFE JUMP JUMPDEST PUSH1 0x1 PUSH1 0x1 PUSH1 0xA0 SHL SUB SWAP1 SWAP3 AND PUSH1 0x0 SWAP1 DUP2 MSTORE PUSH1 0x20 SWAP3 SWAP1 SWAP3 MSTORE POP PUSH1 0x40 SWAP1 KECCAK256 SLOAD SWAP1 JUMP JUMPDEST PUSH1 0x60 PUSH2 0x5EB PUSH2 0xAE5 PUSH2 0xCFE JUMP JUMPDEST PUSH1 0x3 ADD PUSH2 0xE24 JUMP JUMPDEST PUSH2 0xAF5 PUSH2 0xCFE JUMP JUMPDEST PUSH1 0x7 ADD SLOAD PUSH1 0xFF AND ISZERO PUSH2 0xB19 JUMPI PUSH1 0x40 MLOAD PUSH3 0x461BCD PUSH1 0xE5 SHL DUP2 MSTORE PUSH1 0x4 ADD PUSH2 0x842 SWAP1 PUSH2 0x18EB JUMP JUMPDEST PUSH1 0x1 PUSH2 0xB23 PUSH2 0xCFE JUMP JUMPDEST PUSH1 0x7 ADD DUP1 SLOAD PUSH1 0xFF NOT AND SWAP2 ISZERO ISZERO SWAP2 SWAP1 SWAP2 OR SWAP1 SSTORE PUSH2 0xB3F DUP3 DUP3 PUSH2 0x1229 JUMP JUMPDEST ADDRESS PUSH4 0x4AC947F7 CALLER PUSH2 0xB50 DUP6 DUP6 PUSH2 0x915 JUMP JUMPDEST PUSH1 0x40 MLOAD PUSH1 0x1 PUSH1 0x1 PUSH1 0xE0 SHL SUB NOT PUSH1 0xE0 DUP6 SWAP1 SHL AND DUP2 MSTORE PUSH1 0x1 PUSH1 0x1 PUSH1 0xA0 SHL SUB SWAP1 SWAP3 AND PUSH1 0x4 DUP4 ADD MSTORE PUSH1 0x24 DUP3 ADD MSTORE PUSH1 0x44 ADD PUSH1 0x0 PUSH1 0x40 MLOAD DUP1 DUP4 SUB DUP2 PUSH1 0x0 DUP8 DUP1 EXTCODESIZE ISZERO DUP1 ISZERO PUSH2 0xB96 JUMPI PUSH1 0x0 DUP1 REVERT JUMPDEST POP GAS CALL ISZERO DUP1 ISZERO PUSH2 0xBAA JUMPI RETURNDATASIZE PUSH1 0x0 DUP1 RETURNDATACOPY RETURNDATASIZE PUSH1 0x0 REVERT JUMPDEST POP POP POP POP PUSH1 0x0 PUSH2 0x883 PUSH2 0xCFE JUMP JUMPDEST PUSH2 0xBC0 PUSH2 0xDC7 JUMP JUMPDEST PUSH2 0xBD5 DUP2 PUSH2 0xBCC PUSH2 0xCFE JUMP JUMPDEST PUSH1 0x3 ADD SWAP1 PUSH2 0xE0F JUMP JUMPDEST POP PUSH1 0x40 MLOAD PUSH1 0x1 PUSH1 0x1 PUSH1 0xA0 SHL SUB DUP3 AND DUP2 MSTORE PUSH32 0xB91009ACFF1CA23A9FE12400608CAE8383F810CAC953C1A16A99FE9B9C65ABFB SWAP1 PUSH1 0x20 ADD PUSH2 0x56A JUMP JUMPDEST PUSH1 0x0 PUSH2 0x4E3 DUP3 PUSH2 0xC1D PUSH2 0xCFE JUMP JUMPDEST PUSH1 0x1 ADD SWAP1 PUSH2 0xDA5 JUMP JUMPDEST PUSH2 0xC2E PUSH2 0xDC7 JUMP JUMPDEST PUSH2 0xC43 DUP2 PUSH2 0xC3A PUSH2 0xCFE JUMP JUMPDEST PUSH1 0x3 ADD SWAP1 PUSH2 0x13AA JUMP JUMPDEST POP PUSH1 0x40 MLOAD PUSH1 0x1 PUSH1 0x1 PUSH1 0xA0 SHL SUB DUP3 AND DUP2 MSTORE PUSH32 0x64F9AE8A27A020B54F63A0D9FF5D3F0DD302B35EEF11D16612B2A02B2D8A8248 SWAP1 PUSH1 0x20 ADD PUSH2 0x56A JUMP JUMPDEST PUSH1 0x0 PUSH2 0xC89 DUP4 DUP4 PUSH2 0x915 JUMP JUMPDEST SWAP4 SWAP3 POP POP POP JUMP JUMPDEST PUSH1 0x0 PUSH2 0x4E3 DUP3 PUSH2 0xC9E PUSH2 0xCFE JUMP JUMPDEST PUSH1 0x1 ADD SWAP1 PUSH2 0xD2C JUMP JUMPDEST PUSH2 0xCAF PUSH2 0xDC7 JUMP JUMPDEST PUSH2 0xCC4 DUP2 PUSH2 0xCBB PUSH2 0xCFE JUMP JUMPDEST PUSH1 0x1 ADD SWAP1 PUSH2 0x13AA JUMP JUMPDEST POP PUSH1 0x40 MLOAD PUSH1 0x1 PUSH1 0x1 PUSH1 0xA0 SHL SUB DUP3 AND DUP2 MSTORE PUSH32 0xA05ED313E53D05B8E9EBE468E240EC174F5190074867A051F35AC20709EED04 SWAP1 PUSH1 0x20 ADD PUSH2 0x56A JUMP JUMPDEST PUSH32 0xF2EEEC4C06050035800631F1916B3A25E1FA154DE963EC50F0AC015A5BE9E618 SWAP1 JUMP JUMPDEST PUSH1 0x0 PUSH2 0x4E3 DUP3 SLOAD SWAP1 JUMP JUMPDEST PUSH1 0x0 PUSH2 0xC89 DUP4 DUP4 PUSH2 0x13BF JUMP JUMPDEST PUSH1 0x0 PUSH8 0xDE0B6B3A7640000 PUSH2 0xD4E DUP4 PUSH1 0xA PUSH2 0x1A29 JUMP JUMPDEST PUSH2 0xD60 DUP6 PUSH8 0xDE0B6B3A7640000 PUSH2 0x1845 JUMP JUMPDEST PUSH2 0xD6A SWAP2 SWAP1 PUSH2 0x1888 JUMP JUMPDEST PUSH2 0xD7C SWAP1 PUSH8 0xDE0B6B3A7640000 PUSH2 0x1845 JUMP JUMPDEST PUSH2 0xC89 SWAP2 SWAP1 PUSH2 0x1888 JUMP JUMPDEST PUSH1 0x0 DUP2 PUSH2 0xD93 DUP5 DUP7 PUSH2 0x1845 JUMP JUMPDEST PUSH2 0xD9D SWAP2 SWAP1 PUSH2 0x1888 JUMP JUMPDEST SWAP5 SWAP4 POP POP POP POP JUMP JUMPDEST PUSH1 0x1 PUSH1 0x1 PUSH1 0xA0 SHL SUB DUP2 AND PUSH1 0x0 SWAP1 DUP2 MSTORE PUSH1 0x1 DUP4 ADD PUSH1 0x20 MSTORE PUSH1 0x40 DUP2 KECCAK256 SLOAD ISZERO ISZERO PUSH2 0xC89 JUMP JUMPDEST CALLER ADDRESS EQ PUSH2 0xE0D JUMPI PUSH1 0x40 MLOAD PUSH3 0x461BCD PUSH1 0xE5 SHL DUP2 MSTORE PUSH1 0x20 PUSH1 0x4 DUP3 ADD MSTORE PUSH1 0x14 PUSH1 0x24 DUP3 ADD MSTORE PUSH20 0x2330B1B2BA29B0B3329D1037B7363C9039B2B633 PUSH1 0x61 SHL PUSH1 0x44 DUP3 ADD MSTORE PUSH1 0x64 ADD PUSH2 0x842 JUMP JUMPDEST JUMP JUMPDEST PUSH1 0x0 PUSH2 0xC89 DUP4 PUSH1 0x1 PUSH1 0x1 PUSH1 0xA0 SHL SUB DUP5 AND PUSH2 0x13E9 JUMP JUMPDEST PUSH1 0x60 PUSH1 0x0 PUSH2 0xC89 DUP4 PUSH2 0x1438 JUMP JUMPDEST PUSH2 0xE9D DUP3 PUSH1 0x1 PUSH1 0x1 PUSH1 0xA0 SHL SUB AND PUSH4 0x313CE567 PUSH1 0x40 MLOAD DUP2 PUSH4 0xFFFFFFFF AND PUSH1 0xE0 SHL DUP2 MSTORE PUSH1 0x4 ADD PUSH1 0x20 PUSH1 0x40 MLOAD DUP1 DUP4 SUB DUP2 DUP7 GAS STATICCALL ISZERO DUP1 ISZERO PUSH2 0xE72 JUMPI RETURNDATASIZE PUSH1 0x0 DUP1 RETURNDATACOPY RETURNDATASIZE PUSH1 0x0 REVERT JUMPDEST POP POP POP POP PUSH1 0x40 MLOAD RETURNDATASIZE PUSH1 0x1F NOT PUSH1 0x1F DUP3 ADD AND DUP3 ADD DUP1 PUSH1 0x40 MSTORE POP DUP2 ADD SWAP1 PUSH2 0xE96 SWAP2 SWAP1 PUSH2 0x1922 JUMP JUMPDEST DUP3 SWAP1 PUSH2 0x1494 JUMP JUMPDEST SWAP1 POP DUP1 PUSH1 0x1 PUSH1 0x1 PUSH1 0xA0 SHL SUB DUP4 AND PUSH4 0x70A08231 CALLER PUSH1 0x40 MLOAD PUSH1 0x1 PUSH1 0x1 PUSH1 0xE0 SHL SUB NOT PUSH1 0xE0 DUP5 SWAP1 SHL AND DUP2 MSTORE PUSH1 0x1 PUSH1 0x1 PUSH1 0xA0 SHL SUB SWAP1 SWAP2 AND PUSH1 0x4 DUP3 ADD MSTORE PUSH1 0x24 ADD PUSH1 0x20 PUSH1 0x40 MLOAD DUP1 DUP4 SUB DUP2 DUP7 GAS STATICCALL ISZERO DUP1 ISZERO PUSH2 0xEF4 JUMPI RETURNDATASIZE PUSH1 0x0 DUP1 RETURNDATACOPY RETURNDATASIZE PUSH1 0x0 REVERT JUMPDEST POP POP POP POP PUSH1 0x40 MLOAD RETURNDATASIZE PUSH1 0x1F NOT PUSH1 0x1F DUP3 ADD AND DUP3 ADD DUP1 PUSH1 0x40 MSTORE POP DUP2 ADD SWAP1 PUSH2 0xF18 SWAP2 SWAP1 PUSH2 0x1816 JUMP JUMPDEST LT ISZERO PUSH2 0xF23 JUMPI PUSH1 0x0 DUP1 REVERT JUMPDEST POP POP JUMP JUMPDEST PUSH2 0xF31 PUSH1 0x0 PUSH2 0x14D1 JUMP JUMPDEST PUSH2 0xF3C PUSH1 0x0 DUP3 PUSH2 0x1535 JUMP JUMPDEST DUP1 PUSH2 0xF45 PUSH2 0xCFE JUMP JUMPDEST PUSH1 0x0 DUP1 DUP1 MSTORE PUSH1 0x20 SWAP2 SWAP1 SWAP2 MSTORE PUSH1 0x40 DUP2 KECCAK256 DUP1 SLOAD SWAP1 SWAP2 SWAP1 PUSH2 0xF64 SWAP1 DUP5 SWAP1 PUSH2 0x1A38 JUMP JUMPDEST SWAP1 SWAP2 SSTORE POP PUSH2 0xF72 SWAP1 POP PUSH2 0xCFE JUMP JUMPDEST PUSH1 0x0 DUP1 DUP1 MSTORE PUSH1 0x20 SWAP2 SWAP1 SWAP2 MSTORE PUSH1 0x40 DUP2 KECCAK256 SLOAD SWAP1 SUB PUSH2 0xFA0 JUMPI PUSH2 0xF9E PUSH1 0x0 PUSH2 0xF95 PUSH2 0xCFE JUMP JUMPDEST PUSH1 0x5 ADD SWAP1 PUSH2 0x13AA JUMP JUMPDEST POP JUMPDEST PUSH1 0x40 MLOAD PUSH1 0x1 PUSH1 0x1 PUSH1 0xA0 SHL SUB DUP4 AND SWAP1 DUP3 ISZERO PUSH2 0x8FC MUL SWAP1 DUP4 SWAP1 PUSH1 0x0 DUP2 DUP2 DUP2 DUP6 DUP9 DUP9 CALL SWAP4 POP POP POP POP ISZERO DUP1 ISZERO PUSH2 0xFD6 JUMPI RETURNDATASIZE PUSH1 0x0 DUP1 RETURNDATACOPY RETURNDATASIZE PUSH1 0x0 REVERT JUMPDEST POP PUSH32 0x9B1BFA7FA9EE420A16E124F794C35AC9F90472ACC99140EB2F6447C714CAD8EB DUP3 PUSH1 0x0 DUP4 PUSH1 0x40 MLOAD PUSH2 0x100B SWAP4 SWAP3 SWAP2 SWAP1 PUSH2 0x18C7 JUMP JUMPDEST PUSH1 0x40 MLOAD DUP1 SWAP2 SUB SWAP1 LOG1 POP POP JUMP JUMPDEST DUP2 PUSH1 0x1 PUSH1 0x1 PUSH1 0xA0 SHL SUB DUP2 AND PUSH2 0x106E JUMPI PUSH1 0x40 MLOAD PUSH3 0x461BCD PUSH1 0xE5 SHL DUP2 MSTORE PUSH1 0x20 PUSH1 0x4 DUP3 ADD MSTORE PUSH1 0x1E PUSH1 0x24 DUP3 ADD MSTORE PUSH32 0x4661636574536166653A20696E6170726F707269617465206D6574686F640000 PUSH1 0x44 DUP3 ADD MSTORE PUSH1 0x64 ADD PUSH2 0x842 JUMP JUMPDEST PUSH2 0x1077 DUP4 PUSH2 0x14D1 JUMP JUMPDEST PUSH2 0x1081 DUP4 DUP4 PUSH2 0x1535 JUMP JUMPDEST DUP2 PUSH2 0x108A PUSH2 0xCFE JUMP JUMPDEST PUSH1 0x1 PUSH1 0x1 PUSH1 0xA0 SHL SUB DUP6 AND PUSH1 0x0 SWAP1 DUP2 MSTORE PUSH1 0x20 SWAP2 SWAP1 SWAP2 MSTORE PUSH1 0x40 DUP2 KECCAK256 DUP1 SLOAD SWAP1 SWAP2 SWAP1 PUSH2 0x10B3 SWAP1 DUP5 SWAP1 PUSH2 0x1A38 JUMP JUMPDEST SWAP1 SWAP2 SSTORE POP PUSH2 0x10C1 SWAP1 POP PUSH2 0xCFE JUMP JUMPDEST PUSH1 0x1 PUSH1 0x1 PUSH1 0xA0 SHL SUB DUP5 AND PUSH1 0x0 SWAP1 DUP2 MSTORE PUSH1 0x20 SWAP2 SWAP1 SWAP2 MSTORE PUSH1 0x40 DUP2 KECCAK256 SLOAD SWAP1 SUB PUSH2 0x10EF JUMPI PUSH2 0x10ED DUP4 PUSH2 0xF95 PUSH2 0xCFE JUMP JUMPDEST POP JUMPDEST DUP1 PUSH1 0x1 PUSH1 0x1 PUSH1 0xA0 SHL SUB AND PUSH4 0xA9059CBB DUP6 PUSH2 0x116B DUP5 PUSH1 0x1 PUSH1 0x1 PUSH1 0xA0 SHL SUB AND PUSH4 0x313CE567 PUSH1 0x40 MLOAD DUP2 PUSH4 0xFFFFFFFF AND PUSH1 0xE0 SHL DUP2 MSTORE PUSH1 0x4 ADD PUSH1 0x20 PUSH1 0x40 MLOAD DUP1 DUP4 SUB DUP2 DUP7 GAS STATICCALL ISZERO DUP1 ISZERO PUSH2 0x1140 JUMPI RETURNDATASIZE PUSH1 0x0 DUP1 RETURNDATACOPY RETURNDATASIZE PUSH1 0x0 REVERT JUMPDEST POP POP POP POP PUSH1 0x40 MLOAD RETURNDATASIZE PUSH1 0x1F NOT PUSH1 0x1F DUP3 ADD AND DUP3 ADD DUP1 PUSH1 0x40 MSTORE POP DUP2 ADD SWAP1 PUSH2 0x1164 SWAP2 SWAP1 PUSH2 0x1922 JUMP JUMPDEST DUP7 SWAP1 PUSH2 0x1494 JUMP JUMPDEST PUSH1 0x40 MLOAD PUSH1 0x1 PUSH1 0x1 PUSH1 0xE0 SHL SUB NOT PUSH1 0xE0 DUP6 SWAP1 SHL AND DUP2 MSTORE PUSH1 0x1 PUSH1 0x1 PUSH1 0xA0 SHL SUB SWAP1 SWAP3 AND PUSH1 0x4 DUP4 ADD MSTORE PUSH1 0x24 DUP3 ADD MSTORE PUSH1 0x44 ADD PUSH1 0x20 PUSH1 0x40 MLOAD DUP1 DUP4 SUB DUP2 PUSH1 0x0 DUP8 GAS CALL ISZERO DUP1 ISZERO PUSH2 0x11B6 JUMPI RETURNDATASIZE PUSH1 0x0 DUP1 RETURNDATACOPY RETURNDATASIZE PUSH1 0x0 REVERT JUMPDEST POP POP POP POP PUSH1 0x40 MLOAD RETURNDATASIZE PUSH1 0x1F NOT PUSH1 0x1F DUP3 ADD AND DUP3 ADD DUP1 PUSH1 0x40 MSTORE POP DUP2 ADD SWAP1 PUSH2 0x11DA SWAP2 SWAP1 PUSH2 0x17F4 JUMP JUMPDEST POP PUSH32 0x9B1BFA7FA9EE420A16E124F794C35AC9F90472ACC99140EB2F6447C714CAD8EB DUP5 DUP5 DUP5 PUSH1 0x40 MLOAD PUSH2 0x120E SWAP4 SWAP3 SWAP2 SWAP1 PUSH2 0x18C7 JUMP JUMPDEST PUSH1 0x40 MLOAD DUP1 SWAP2 SUB SWAP1 LOG1 POP POP POP POP JUMP JUMPDEST PUSH1 0x0 DUP3 PUSH2 0xD93 DUP4 DUP7 PUSH2 0x1845 JUMP JUMPDEST DUP2 PUSH2 0x1233 DUP2 PUSH2 0x15A6 JUMP JUMPDEST PUSH2 0x123D DUP4 DUP4 PUSH2 0xE31 JUMP JUMPDEST PUSH1 0x1 PUSH1 0x1 PUSH1 0xA0 SHL SUB DUP2 AND PUSH4 0x23B872DD CALLER ADDRESS PUSH2 0x12BA DUP8 PUSH1 0x1 PUSH1 0x1 PUSH1 0xA0 SHL SUB AND PUSH4 0x313CE567 PUSH1 0x40 MLOAD DUP2 PUSH4 0xFFFFFFFF AND PUSH1 0xE0 SHL DUP2 MSTORE PUSH1 0x4 ADD PUSH1 0x20 PUSH1 0x40 MLOAD DUP1 DUP4 SUB DUP2 DUP7 GAS STATICCALL ISZERO DUP1 ISZERO PUSH2 0x128F JUMPI RETURNDATASIZE PUSH1 0x0 DUP1 RETURNDATACOPY RETURNDATASIZE PUSH1 0x0 REVERT JUMPDEST POP POP POP POP PUSH1 0x40 MLOAD RETURNDATASIZE PUSH1 0x1F NOT PUSH1 0x1F DUP3 ADD AND DUP3 ADD DUP1 PUSH1 0x40 MSTORE POP DUP2 ADD SWAP1 PUSH2 0x12B3 SWAP2 SWAP1 PUSH2 0x1922 JUMP JUMPDEST DUP8 SWAP1 PUSH2 0x1494 JUMP JUMPDEST PUSH1 0x40 MLOAD DUP5 PUSH4 0xFFFFFFFF AND PUSH1 0xE0 SHL DUP2 MSTORE PUSH1 0x4 ADD PUSH2 0x12D8 SWAP4 SWAP3 SWAP2 SWAP1 PUSH2 0x18C7 JUMP JUMPDEST PUSH1 0x20 PUSH1 0x40 MLOAD DUP1 DUP4 SUB DUP2 PUSH1 0x0 DUP8 GAS CALL ISZERO DUP1 ISZERO PUSH2 0x12F7 JUMPI RETURNDATASIZE PUSH1 0x0 DUP1 RETURNDATACOPY RETURNDATASIZE PUSH1 0x0 REVERT JUMPDEST POP POP POP POP PUSH1 0x40 MLOAD RETURNDATASIZE PUSH1 0x1F NOT PUSH1 0x1F DUP3 ADD AND DUP3 ADD DUP1 PUSH1 0x40 MSTORE POP DUP2 ADD SWAP1 PUSH2 0x131B SWAP2 SWAP1 PUSH2 0x17F4 JUMP JUMPDEST POP DUP2 PUSH2 0x1325 PUSH2 0xCFE JUMP JUMPDEST PUSH1 0x1 PUSH1 0x1 PUSH1 0xA0 SHL SUB DUP6 AND PUSH1 0x0 SWAP1 DUP2 MSTORE PUSH1 0x20 SWAP2 SWAP1 SWAP2 MSTORE PUSH1 0x40 DUP2 KECCAK256 DUP1 SLOAD SWAP1 SWAP2 SWAP1 PUSH2 0x134E SWAP1 DUP5 SWAP1 PUSH2 0x185C JUMP JUMPDEST SWAP1 SWAP2 SSTORE POP PUSH2 0x1369 SWAP1 POP DUP4 PUSH2 0x1360 PUSH2 0xCFE JUMP JUMPDEST PUSH1 0x5 ADD SWAP1 PUSH2 0xE0F JUMP JUMPDEST POP PUSH32 0x5548C837AB068CF56A2C2479DF0882A4922FD203EDB7517321831D95078C5F62 CALLER DUP5 DUP5 PUSH1 0x40 MLOAD PUSH2 0x139D SWAP4 SWAP3 SWAP2 SWAP1 PUSH2 0x18C7 JUMP JUMPDEST PUSH1 0x40 MLOAD DUP1 SWAP2 SUB SWAP1 LOG1 POP POP POP JUMP JUMPDEST PUSH1 0x0 PUSH2 0xC89 DUP4 PUSH1 0x1 PUSH1 0x1 PUSH1 0xA0 SHL SUB DUP5 AND PUSH2 0x1606 JUMP JUMPDEST PUSH1 0x0 DUP3 PUSH1 0x0 ADD DUP3 DUP2 SLOAD DUP2 LT PUSH2 0x13D6 JUMPI PUSH2 0x13D6 PUSH2 0x1A4B JUMP JUMPDEST SWAP1 PUSH1 0x0 MSTORE PUSH1 0x20 PUSH1 0x0 KECCAK256 ADD SLOAD SWAP1 POP SWAP3 SWAP2 POP POP JUMP JUMPDEST PUSH1 0x0 DUP2 DUP2 MSTORE PUSH1 0x1 DUP4 ADD PUSH1 0x20 MSTORE PUSH1 0x40 DUP2 KECCAK256 SLOAD PUSH2 0x1430 JUMPI POP DUP2 SLOAD PUSH1 0x1 DUP2 DUP2 ADD DUP5 SSTORE PUSH1 0x0 DUP5 DUP2 MSTORE PUSH1 0x20 DUP1 DUP3 KECCAK256 SWAP1 SWAP4 ADD DUP5 SWAP1 SSTORE DUP5 SLOAD DUP5 DUP3 MSTORE DUP3 DUP7 ADD SWAP1 SWAP4 MSTORE PUSH1 0x40 SWAP1 KECCAK256 SWAP2 SWAP1 SWAP2 SSTORE PUSH2 0x4E3 JUMP JUMPDEST POP PUSH1 0x0 PUSH2 0x4E3 JUMP JUMPDEST PUSH1 0x60 DUP2 PUSH1 0x0 ADD DUP1 SLOAD DUP1 PUSH1 0x20 MUL PUSH1 0x20 ADD PUSH1 0x40 MLOAD SWAP1 DUP2 ADD PUSH1 0x40 MSTORE DUP1 SWAP3 SWAP2 SWAP1 DUP2 DUP2 MSTORE PUSH1 0x20 ADD DUP3 DUP1 SLOAD DUP1 ISZERO PUSH2 0x1488 JUMPI PUSH1 0x20 MUL DUP3 ADD SWAP2 SWAP1 PUSH1 0x0 MSTORE PUSH1 0x20 PUSH1 0x0 KECCAK256 SWAP1 JUMPDEST DUP2 SLOAD DUP2 MSTORE PUSH1 0x20 ADD SWAP1 PUSH1 0x1 ADD SWAP1 DUP1 DUP4 GT PUSH2 0x1474 JUMPI JUMPDEST POP POP POP POP POP SWAP1 POP SWAP2 SWAP1 POP JUMP JUMPDEST PUSH1 0x0 PUSH8 0xDE0B6B3A7640000 PUSH2 0x14AA DUP4 PUSH1 0xA PUSH2 0x1A29 JUMP JUMPDEST PUSH8 0xDE0B6B3A7640000 PUSH2 0x14BD DUP7 DUP3 PUSH2 0x1845 JUMP JUMPDEST PUSH2 0x14C7 SWAP2 SWAP1 PUSH2 0x1888 JUMP JUMPDEST PUSH2 0xD7C SWAP2 SWAP1 PUSH2 0x1845 JUMP JUMPDEST PUSH2 0x14DA DUP2 PUSH2 0x500 JUMP JUMPDEST PUSH2 0x1532 JUMPI PUSH1 0x40 MLOAD PUSH3 0x461BCD PUSH1 0xE5 SHL DUP2 MSTORE PUSH1 0x20 PUSH1 0x4 DUP3 ADD MSTORE PUSH1 0x23 PUSH1 0x24 DUP3 ADD MSTORE PUSH32 0x4661636574536166653A20746F6B656E206973206E6F7420616C6C6F77656420 PUSH1 0x44 DUP3 ADD MSTORE PUSH3 0x1BDD5D PUSH1 0xEA SHL PUSH1 0x64 DUP3 ADD MSTORE PUSH1 0x84 ADD PUSH2 0x842 JUMP JUMPDEST POP JUMP JUMPDEST DUP1 PUSH2 0x153E PUSH2 0xCFE JUMP JUMPDEST PUSH1 0x1 PUSH1 0x1 PUSH1 0xA0 SHL SUB DUP5 AND PUSH1 0x0 SWAP1 DUP2 MSTORE PUSH1 0x20 SWAP2 SWAP1 SWAP2 MSTORE PUSH1 0x40 SWAP1 KECCAK256 SLOAD LT ISZERO PUSH2 0xF23 JUMPI PUSH1 0x40 MLOAD PUSH3 0x461BCD PUSH1 0xE5 SHL DUP2 MSTORE PUSH1 0x20 PUSH1 0x4 DUP3 ADD MSTORE PUSH1 0x1F PUSH1 0x24 DUP3 ADD MSTORE PUSH32 0x4661636574536166653A20696E73756666696369656E742062616C616E636500 PUSH1 0x44 DUP3 ADD MSTORE PUSH1 0x64 ADD PUSH2 0x842 JUMP JUMPDEST PUSH2 0x15AF DUP2 PUSH2 0xC0F JUMP JUMPDEST PUSH2 0x1532 JUMPI PUSH1 0x40 MLOAD PUSH3 0x461BCD PUSH1 0xE5 SHL DUP2 MSTORE PUSH1 0x20 PUSH1 0x4 DUP3 ADD MSTORE PUSH1 0x22 PUSH1 0x24 DUP3 ADD MSTORE PUSH32 0x4661636574536166653A20746F6B656E206973206E6F7420616C6C6F77656420 PUSH1 0x44 DUP3 ADD MSTORE PUSH2 0x34B7 PUSH1 0xF1 SHL PUSH1 0x64 DUP3 ADD MSTORE PUSH1 0x84 ADD PUSH2 0x842 JUMP JUMPDEST PUSH1 0x0 DUP2 DUP2 MSTORE PUSH1 0x1 DUP4 ADD PUSH1 0x20 MSTORE PUSH1 0x40 DUP2 KECCAK256 SLOAD DUP1 ISZERO PUSH2 0xAA5 JUMPI PUSH1 0x0 PUSH2 0x162A PUSH1 0x1 DUP4 PUSH2 0x1A38 JUMP JUMPDEST DUP6 SLOAD SWAP1 SWAP2 POP PUSH1 0x0 SWAP1 PUSH2 0x163E SWAP1 PUSH1 0x1 SWAP1 PUSH2 0x1A38 JUMP JUMPDEST SWAP1 POP DUP2 DUP2 EQ PUSH2 0x16A3 JUMPI PUSH1 0x0 DUP7 PUSH1 0x0 ADD DUP3 DUP2 SLOAD DUP2 LT PUSH2 0x165E JUMPI PUSH2 0x165E PUSH2 0x1A4B JUMP JUMPDEST SWAP1 PUSH1 0x0 MSTORE PUSH1 0x20 PUSH1 0x0 KECCAK256 ADD SLOAD SWAP1 POP DUP1 DUP8 PUSH1 0x0 ADD DUP5 DUP2 SLOAD DUP2 LT PUSH2 0x1681 JUMPI PUSH2 0x1681 PUSH2 0x1A4B JUMP JUMPDEST PUSH1 0x0 SWAP2 DUP3 MSTORE PUSH1 0x20 DUP1 DUP4 KECCAK256 SWAP1 SWAP2 ADD SWAP3 SWAP1 SWAP3 SSTORE SWAP2 DUP3 MSTORE PUSH1 0x1 DUP9 ADD SWAP1 MSTORE PUSH1 0x40 SWAP1 KECCAK256 DUP4 SWAP1 SSTORE JUMPDEST DUP6 SLOAD DUP7 SWAP1 DUP1 PUSH2 0x16B4 JUMPI PUSH2 0x16B4 PUSH2 0x1A61 JUMP JUMPDEST PUSH1 0x1 SWAP1 SUB DUP2 DUP2 SWAP1 PUSH1 0x0 MSTORE PUSH1 0x20 PUSH1 0x0 KECCAK256 ADD PUSH1 0x0 SWAP1 SSTORE SWAP1 SSTORE DUP6 PUSH1 0x1 ADD PUSH1 0x0 DUP7 DUP2 MSTORE PUSH1 0x20 ADD SWAP1 DUP2 MSTORE PUSH1 0x20 ADD PUSH1 0x0 KECCAK256 PUSH1 0x0 SWAP1 SSTORE PUSH1 0x1 SWAP4 POP POP POP POP PUSH2 0x4E3 JUMP JUMPDEST PUSH1 0x0 PUSH1 0x20 DUP3 DUP5 SUB SLT ISZERO PUSH2 0x1701 JUMPI PUSH1 0x0 DUP1 REVERT JUMPDEST POP CALLDATALOAD SWAP2 SWAP1 POP JUMP JUMPDEST PUSH1 0x1 PUSH1 0x1 PUSH1 0xA0 SHL SUB DUP2 AND DUP2 EQ PUSH2 0x1532 JUMPI PUSH1 0x0 DUP1 REVERT JUMPDEST PUSH1 0x0 PUSH1 0x20 DUP3 DUP5 SUB SLT ISZERO PUSH2 0x172F JUMPI PUSH1 0x0 DUP1 REVERT JUMPDEST DUP2 CALLDATALOAD PUSH2 0xC89 DUP2 PUSH2 0x1708 JUMP JUMPDEST PUSH1 0x20 DUP1 DUP3 MSTORE DUP3 MLOAD DUP3 DUP3 ADD DUP2 SWAP1 MSTORE PUSH1 0x0 SWAP2 SWAP1 DUP5 DUP3 ADD SWAP1 PUSH1 0x40 DUP6 ADD SWAP1 DUP5 JUMPDEST DUP2 DUP2 LT ISZERO PUSH2 0x177B JUMPI DUP4 MLOAD PUSH1 0x1 PUSH1 0x1 PUSH1 0xA0 SHL SUB AND DUP4 MSTORE SWAP3 DUP5 ADD SWAP3 SWAP2 DUP5 ADD SWAP2 PUSH1 0x1 ADD PUSH2 0x1756 JUMP JUMPDEST POP SWAP1 SWAP7 SWAP6 POP POP POP POP POP POP JUMP JUMPDEST PUSH1 0x0 DUP1 PUSH1 0x40 DUP4 DUP6 SUB SLT ISZERO PUSH2 0x179A JUMPI PUSH1 0x0 DUP1 REVERT JUMPDEST DUP3 CALLDATALOAD PUSH2 0x17A5 DUP2 PUSH2 0x1708 JUMP JUMPDEST SWAP5 PUSH1 0x20 SWAP4 SWAP1 SWAP4 ADD CALLDATALOAD SWAP4 POP POP POP JUMP JUMPDEST PUSH1 0x0 DUP1 PUSH1 0x0 PUSH1 0x60 DUP5 DUP7 SUB SLT ISZERO PUSH2 0x17C8 JUMPI PUSH1 0x0 DUP1 REVERT JUMPDEST DUP4 CALLDATALOAD PUSH2 0x17D3 DUP2 PUSH2 0x1708 JUMP JUMPDEST SWAP3 POP PUSH1 0x20 DUP5 ADD CALLDATALOAD PUSH2 0x17E3 DUP2 PUSH2 0x1708 JUMP JUMPDEST SWAP3 SWAP6 SWAP3 SWAP5 POP POP POP PUSH1 0x40 SWAP2 SWAP1 SWAP2 ADD CALLDATALOAD SWAP1 JUMP JUMPDEST PUSH1 0x0 PUSH1 0x20 DUP3 DUP5 SUB SLT ISZERO PUSH2 0x1806 JUMPI PUSH1 0x0 DUP1 REVERT JUMPDEST DUP2 MLOAD DUP1 ISZERO ISZERO DUP2 EQ PUSH2 0xC89 JUMPI PUSH1 0x0 DUP1 REVERT JUMPDEST PUSH1 0x0 PUSH1 0x20 DUP3 DUP5 SUB SLT ISZERO PUSH2 0x1828 JUMPI PUSH1 0x0 DUP1 REVERT JUMPDEST POP MLOAD SWAP2 SWAP1 POP JUMP JUMPDEST PUSH4 0x4E487B71 PUSH1 0xE0 SHL PUSH1 0x0 MSTORE PUSH1 0x11 PUSH1 0x4 MSTORE PUSH1 0x24 PUSH1 0x0 REVERT JUMPDEST DUP1 DUP3 MUL DUP2 ISZERO DUP3 DUP3 DIV DUP5 EQ OR PUSH2 0x4E3 JUMPI PUSH2 0x4E3 PUSH2 0x182F JUMP JUMPDEST DUP1 DUP3 ADD DUP1 DUP3 GT ISZERO PUSH2 0x4E3 JUMPI PUSH2 0x4E3 PUSH2 0x182F JUMP JUMPDEST PUSH1 0x0 PUSH1 0x1 DUP3 ADD PUSH2 0x1881 JUMPI PUSH2 0x1881 PUSH2 0x182F JUMP JUMPDEST POP PUSH1 0x1 ADD SWAP1 JUMP JUMPDEST PUSH1 0x0 DUP3 PUSH2 0x18A5 JUMPI PUSH4 0x4E487B71 PUSH1 0xE0 SHL PUSH1 0x0 MSTORE PUSH1 0x12 PUSH1 0x4 MSTORE PUSH1 0x24 PUSH1 0x0 REVERT JUMPDEST POP DIV SWAP1 JUMP JUMPDEST PUSH1 0x0 PUSH1 0x20 DUP3 DUP5 SUB SLT ISZERO PUSH2 0x18BC JUMPI PUSH1 0x0 DUP1 REVERT JUMPDEST DUP2 MLOAD PUSH2 0xC89 DUP2 PUSH2 0x1708 JUMP JUMPDEST PUSH1 0x1 PUSH1 0x1 PUSH1 0xA0 SHL SUB SWAP4 DUP5 AND DUP2 MSTORE SWAP2 SWAP1 SWAP3 AND PUSH1 0x20 DUP3 ADD MSTORE PUSH1 0x40 DUP2 ADD SWAP2 SWAP1 SWAP2 MSTORE PUSH1 0x60 ADD SWAP1 JUMP JUMPDEST PUSH1 0x20 DUP1 DUP3 MSTORE PUSH1 0x19 SWAP1 DUP3 ADD MSTORE PUSH32 0x4661636574536166653A207265656E7472616E742063616C6C00000000000000 PUSH1 0x40 DUP3 ADD MSTORE PUSH1 0x60 ADD SWAP1 JUMP JUMPDEST PUSH1 0x0 PUSH1 0x20 DUP3 DUP5 SUB SLT ISZERO PUSH2 0x1934 JUMPI PUSH1 0x0 DUP1 REVERT JUMPDEST DUP2 MLOAD PUSH1 0xFF DUP2 AND DUP2 EQ PUSH2 0xC89 JUMPI PUSH1 0x0 DUP1 REVERT JUMPDEST PUSH1 0x1 DUP2 DUP2 JUMPDEST DUP1 DUP6 GT ISZERO PUSH2 0x1980 JUMPI DUP2 PUSH1 0x0 NOT DIV DUP3 GT ISZERO PUSH2 0x1966 JUMPI PUSH2 0x1966 PUSH2 0x182F JUMP JUMPDEST DUP1 DUP6 AND ISZERO PUSH2 0x1973 JUMPI SWAP2 DUP2 MUL SWAP2 JUMPDEST SWAP4 DUP5 SHR SWAP4 SWAP1 DUP1 MUL SWAP1 PUSH2 0x194A JUMP JUMPDEST POP SWAP3 POP SWAP3 SWAP1 POP JUMP JUMPDEST PUSH1 0x0 DUP3 PUSH2 0x1997 JUMPI POP PUSH1 0x1 PUSH2 0x4E3 JUMP JUMPDEST DUP2 PUSH2 0x19A4 JUMPI POP PUSH1 0x0 PUSH2 0x4E3 JUMP JUMPDEST DUP2 PUSH1 0x1 DUP2 EQ PUSH2 0x19BA JUMPI PUSH1 0x2 DUP2 EQ PUSH2 0x19C4 JUMPI PUSH2 0x19E0 JUMP JUMPDEST PUSH1 0x1 SWAP2 POP POP PUSH2 0x4E3 JUMP JUMPDEST PUSH1 0xFF DUP5 GT ISZERO PUSH2 0x19D5 JUMPI PUSH2 0x19D5 PUSH2 0x182F JUMP JUMPDEST POP POP PUSH1 0x1 DUP3 SHL PUSH2 0x4E3 JUMP JUMPDEST POP PUSH1 0x20 DUP4 LT PUSH2 0x133 DUP4 LT AND PUSH1 0x4E DUP5 LT PUSH1 0xB DUP5 LT AND OR ISZERO PUSH2 0x1A03 JUMPI POP DUP2 DUP2 EXP PUSH2 0x4E3 JUMP JUMPDEST PUSH2 0x1A0D DUP4 DUP4 PUSH2 0x1945 JUMP JUMPDEST DUP1 PUSH1 0x0 NOT DIV DUP3 GT ISZERO PUSH2 0x1A21 JUMPI PUSH2 0x1A21 PUSH2 0x182F JUMP JUMPDEST MUL SWAP4 SWAP3 POP POP POP JUMP JUMPDEST PUSH1 0x0 PUSH2 0xC89 PUSH1 0xFF DUP5 AND DUP4 PUSH2 0x1988 JUMP JUMPDEST DUP2 DUP2 SUB DUP2 DUP2 GT ISZERO PUSH2 0x4E3 JUMPI PUSH2 0x4E3 PUSH2 0x182F JUMP JUMPDEST PUSH4 0x4E487B71 PUSH1 0xE0 SHL PUSH1 0x0 MSTORE PUSH1 0x32 PUSH1 0x4 MSTORE PUSH1 0x24 PUSH1 0x0 REVERT JUMPDEST PUSH4 0x4E487B71 PUSH1 0xE0 SHL PUSH1 0x0 MSTORE PUSH1 0x31 PUSH1 0x4 MSTORE PUSH1 0x24 PUSH1 0x0 REVERT INVALID LOG2 PUSH5 0x6970667358 0x22 SLT KECCAK256 0xCD CALLCODE EXTCODEHASH JUMPDEST MSIZE 0x5D SWAP8 0x2F PUSH10 0xCFBB2046419A3836FF7D ORIGIN DUP12 SWAP1 0xB1 0x1E SLOAD MUL 0xB3 0xF7 0xC0 OR JUMPI LT PUSH5 0x736F6C6343 STOP ADDMOD SGT STOP CALLER "
		},
		"gasEstimates": {
			"creation": {
				"codeDepositCost": "1365800",
				"executionCost": "1424",
				"totalCost": "1367224"
			},
			"external": {
				"____allowTokenInToSafe(address)": "infinite",
				"____allowTokenOutOfSafe(address)": "infinite",
				"____forbidTokenInToSafe(address)": "infinite",
				"____forbidTokenOutOfSafe(address)": "infinite",
				"____withdraw(address,address,uint256)": "infinite",
				"____withdraw(address,uint256)": "infinite",
				"asset()": "346",
				"convertToAssets(uint256)": "infinite",
				"convertToShares(address,uint256)": "infinite",
				"deposit(address,uint256)": "infinite",
				"getHoldingsInSafe(address)": "2624",
				"getTokenAllowedInToSafe(uint256)": "4840",
				"getTokenAllowedOutFromSafe(uint256)": "4798",
				"getTokensAllowedInToSafe()": "infinite",
				"getTokensAllowedOutFromSafe()": "infinite",
				"isAllowedIn(address)": "infinite",
				"isAllowedOut(address)": "infinite",
				"maxDeposit(address)": "408",
				"previewDeposit(address,uint256)": "infinite",
				"totalAssets()": "infinite",
				"totalAssetsPerShare()": "infinite",
				"withdraw(uint256)": "infinite"
			}
		},
		"methodIdentifiers": {
			"____allowTokenInToSafe(address)": "18b31027",
			"____allowTokenOutOfSafe(address)": "a6a2fcd7",
			"____forbidTokenInToSafe(address)": "e5e45084",
			"____forbidTokenOutOfSafe(address)": "b74cbb41",
			"____withdraw(address,address,uint256)": "36447c4e",
			"____withdraw(address,uint256)": "31b94450",
			"asset()": "38d52e0f",
			"convertToAssets(uint256)": "07a2d13a",
			"convertToShares(address,uint256)": "3e5541f1",
			"deposit(address,uint256)": "47e7ef24",
			"getHoldingsInSafe(address)": "3e800148",
			"getTokenAllowedInToSafe(uint256)": "e13a96d6",
			"getTokenAllowedOutFromSafe(uint256)": "0a885f95",
			"getTokensAllowedInToSafe()": "2a77d7b8",
			"getTokensAllowedOutFromSafe()": "464964b1",
			"isAllowedIn(address)": "b3a54f1b",
			"isAllowedOut(address)": "182a9420",
			"maxDeposit(address)": "402d267d",
			"previewDeposit(address,uint256)": "b8f82b26",
			"totalAssets()": "01e1d114",
			"totalAssetsPerShare()": "19d0c2fa",
			"withdraw(uint256)": "2e1a7d4d"
		}
	},
	"abi": [
		{
			"anonymous": false,
			"inputs": [
				{
					"indexed": false,
					"internalType": "address",
					"name": "from",
					"type": "address"
				},
				{
					"indexed": false,
					"internalType": "address",
					"name": "tokenIn",
					"type": "address"
				},
				{
					"indexed": false,
					"internalType": "uint256",
					"name": "amountIn",
					"type": "uint256"
				}
			],
			"name": "Deposit",
			"type": "event"
		},
		{
			"anonymous": false,
			"inputs": [
				{
					"indexed": false,
					"internalType": "address",
					"name": "tokenIn",
					"type": "address"
				}
			],
			"name": "PermissionGrantedTokenIn",
			"type": "event"
		},
		{
			"anonymous": false,
			"inputs": [
				{
					"indexed": false,
					"internalType": "address",
					"name": "tokenOut",
					"type": "address"
				}
			],
			"name": "PermissionGrantedTokenOut",
			"type": "event"
		},
		{
			"anonymous": false,
			"inputs": [
				{
					"indexed": false,
					"internalType": "address",
					"name": "tokenIn",
					"type": "address"
				}
			],
			"name": "PermissionRevokedTokenIn",
			"type": "event"
		},
		{
			"anonymous": false,
			"inputs": [
				{
					"indexed": false,
					"internalType": "address",
					"name": "tokenOut",
					"type": "address"
				}
			],
			"name": "PermissionRevokedTokenOut",
			"type": "event"
		},
		{
			"anonymous": false,
			"inputs": [
				{
					"indexed": false,
					"internalType": "address",
					"name": "to",
					"type": "address"
				},
				{
					"indexed": false,
					"internalType": "address",
					"name": "tokenOut",
					"type": "address"
				},
				{
					"indexed": false,
					"internalType": "uint256",
					"name": "amountOut",
					"type": "uint256"
				}
			],
			"name": "Withdraw",
			"type": "event"
		},
		{
			"inputs": [
				{
					"internalType": "address",
					"name": "token",
					"type": "address"
				}
			],
			"name": "____allowTokenInToSafe",
			"outputs": [],
			"stateMutability": "nonpayable",
			"type": "function"
		},
		{
			"inputs": [
				{
					"internalType": "address",
					"name": "token",
					"type": "address"
				}
			],
			"name": "____allowTokenOutOfSafe",
			"outputs": [],
			"stateMutability": "nonpayable",
			"type": "function"
		},
		{
			"inputs": [
				{
					"internalType": "address",
					"name": "token",
					"type": "address"
				}
			],
			"name": "____forbidTokenInToSafe",
			"outputs": [],
			"stateMutability": "nonpayable",
			"type": "function"
		},
		{
			"inputs": [
				{
					"internalType": "address",
					"name": "token",
					"type": "address"
				}
			],
			"name": "____forbidTokenOutOfSafe",
			"outputs": [],
			"stateMutability": "nonpayable",
			"type": "function"
		},
		{
			"inputs": [
				{
					"internalType": "address",
					"name": "to",
					"type": "address"
				},
				{
					"internalType": "uint256",
					"name": "amountOut",
					"type": "uint256"
				}
			],
			"name": "____withdraw",
			"outputs": [],
			"stateMutability": "nonpayable",
			"type": "function"
		},
		{
			"inputs": [
				{
					"internalType": "address",
					"name": "to",
					"type": "address"
				},
				{
					"internalType": "address",
					"name": "tokenOut",
					"type": "address"
				},
				{
					"internalType": "uint256",
					"name": "amountOut",
					"type": "uint256"
				}
			],
			"name": "____withdraw",
			"outputs": [],
			"stateMutability": "nonpayable",
			"type": "function"
		},
		{
			"inputs": [],
			"name": "asset",
			"outputs": [
				{
					"internalType": "address",
					"name": "",
					"type": "address"
				}
			],
			"stateMutability": "view",
			"type": "function"
		},
		{
			"inputs": [
				{
					"internalType": "uint256",
					"name": "amountIn",
					"type": "uint256"
				}
			],
			"name": "convertToAssets",
			"outputs": [
				{
					"internalType": "uint256",
					"name": "",
					"type": "uint256"
				}
			],
			"stateMutability": "view",
			"type": "function"
		},
		{
			"inputs": [
				{
					"internalType": "address",
					"name": "tokenIn",
					"type": "address"
				},
				{
					"internalType": "uint256",
					"name": "amountIn",
					"type": "uint256"
				}
			],
			"name": "convertToShares",
			"outputs": [
				{
					"internalType": "uint256",
					"name": "",
					"type": "uint256"
				}
			],
			"stateMutability": "view",
			"type": "function"
		},
		{
			"inputs": [
				{
					"internalType": "address",
					"name": "tokenIn",
					"type": "address"
				},
				{
					"internalType": "uint256",
					"name": "amountIn",
					"type": "uint256"
				}
			],
			"name": "deposit",
			"outputs": [],
			"stateMutability": "nonpayable",
			"type": "function"
		},
		{
			"inputs": [
				{
					"internalType": "address",
					"name": "token",
					"type": "address"
				}
			],
			"name": "getHoldingsInSafe",
			"outputs": [
				{
					"internalType": "uint256",
					"name": "",
					"type": "uint256"
				}
			],
			"stateMutability": "view",
			"type": "function"
		},
		{
			"inputs": [
				{
					"internalType": "uint256",
					"name": "tokenId",
					"type": "uint256"
				}
			],
			"name": "getTokenAllowedInToSafe",
			"outputs": [
				{
					"internalType": "address",
					"name": "",
					"type": "address"
				}
			],
			"stateMutability": "view",
			"type": "function"
		},
		{
			"inputs": [
				{
					"internalType": "uint256",
					"name": "tokenId",
					"type": "uint256"
				}
			],
			"name": "getTokenAllowedOutFromSafe",
			"outputs": [
				{
					"internalType": "address",
					"name": "",
					"type": "address"
				}
			],
			"stateMutability": "view",
			"type": "function"
		},
		{
			"inputs": [],
			"name": "getTokensAllowedInToSafe",
			"outputs": [
				{
					"internalType": "address[]",
					"name": "",
					"type": "address[]"
				}
			],
			"stateMutability": "view",
			"type": "function"
		},
		{
			"inputs": [],
			"name": "getTokensAllowedOutFromSafe",
			"outputs": [
				{
					"internalType": "address[]",
					"name": "",
					"type": "address[]"
				}
			],
			"stateMutability": "view",
			"type": "function"
		},
		{
			"inputs": [
				{
					"internalType": "address",
					"name": "token",
					"type": "address"
				}
			],
			"name": "isAllowedIn",
			"outputs": [
				{
					"internalType": "bool",
					"name": "",
					"type": "bool"
				}
			],
			"stateMutability": "view",
			"type": "function"
		},
		{
			"inputs": [
				{
					"internalType": "address",
					"name": "token",
					"type": "address"
				}
			],
			"name": "isAllowedOut",
			"outputs": [
				{
					"internalType": "bool",
					"name": "",
					"type": "bool"
				}
			],
			"stateMutability": "view",
			"type": "function"
		},
		{
			"inputs": [
				{
					"internalType": "address",
					"name": "receiver",
					"type": "address"
				}
			],
			"name": "maxDeposit",
			"outputs": [
				{
					"internalType": "uint256",
					"name": "",
					"type": "uint256"
				}
			],
			"stateMutability": "view",
			"type": "function"
		},
		{
			"inputs": [
				{
					"internalType": "address",
					"name": "tokenIn",
					"type": "address"
				},
				{
					"internalType": "uint256",
					"name": "amountIn",
					"type": "uint256"
				}
			],
			"name": "previewDeposit",
			"outputs": [
				{
					"internalType": "uint256",
					"name": "",
					"type": "uint256"
				}
			],
			"stateMutability": "view",
			"type": "function"
		},
		{
			"inputs": [],
			"name": "totalAssets",
			"outputs": [
				{
					"internalType": "uint256",
					"name": "",
					"type": "uint256"
				}
			],
			"stateMutability": "view",
			"type": "function"
		},
		{
			"inputs": [],
			"name": "totalAssetsPerShare",
			"outputs": [
				{
					"internalType": "uint256",
					"name": "",
					"type": "uint256"
				}
			],
			"stateMutability": "view",
			"type": "function"
		},
		{
			"inputs": [
				{
					"internalType": "uint256",
					"name": "amountIn",
					"type": "uint256"
				}
			],
			"name": "withdraw",
			"outputs": [],
			"stateMutability": "nonpayable",
			"type": "function"
		}
	]
}