{
	"data": {
		"bytecode": {
			"linkReferences": {},
			"object": "608060405234801561001057600080fd5b506117db806100206000396000f3fe608060405234801561001057600080fd5b506004361061012c5760003560e01c806362d7f1b2116100ad5780637e7b7ccf116100715780637e7b7ccf1461029357806385b2c065146102a6578063ac6193c5146102b9578063c3d511e9146102cc578063ce71d4bc146102df57600080fd5b806362d7f1b21461023f57806365fd04fb1461025257806371dedccf1461025a5780637526c09a1461026d578063797ae5681461028057600080fd5b80633e46d27b116100f45780633e46d27b146101e957806348d7b567146101fe57806351f2aa471461021157806356db323b14610224578063579d9f0c1461022c57600080fd5b80630548dd96146101315780630792ac9e1461015a578063166e34dd1461017d578063348f3a0e146101a8578063366c7c2f146101c9575b600080fd5b61014461013f36600461131b565b610300565b6040516101519190611384565b60405180910390f35b61016d61016836600461131b565b6103bf565b6040519015158152602001610151565b61019061018b36600461131b565b6103fa565b6040516001600160a01b039091168152602001610151565b6101bb6101b636600461131b565b610414565b604051908152602001610151565b6101dc6101d736600461131b565b61044b565b6040516101519190611397565b6101fc6101f7366004611400565b610482565b005b6101fc61020c36600461131b565b6104d4565b6101dc61021f36600461131b565b61059d565b6101dc6105d4565b6101fc61023a36600461131b565b6105eb565b6101bb61024d36600461131b565b61078c565b6101bb6107c3565b6101fc610268366004611400565b6107dd565b6101fc61027b36600461131b565b61082f565b6101bb61028e366004611431565b610885565b6101906102a13660046114f3565b610b21565b6101906102b436600461131b565b610b60565b6101906102c73660046114f3565b610ba1565b6101bb6102da36600461131b565b610be2565b6102f26102ed36600461131b565b610c19565b604051610151929190611515565b606061030a611084565b600201828154811061031e5761031e611538565b90600052602060002090600a0201600501805461033a9061154e565b80601f01602080910402602001604051908101604052809291908181526020018280546103669061154e565b80156103b35780601f10610388576101008083540402835291602001916103b3565b820191906000526020600020905b81548152906001019060200180831161039657829003601f168201915b50505050509050919050565b60006103c9611084565b60020182815481106103dd576103dd611538565b600091825260209091206009600a90920201015460ff1692915050565b600061040e82610408611084565b906110a8565b92915050565b600061041e611084565b600201828154811061043257610432611538565b90600052602060002090600a0201600801549050919050565b606061040e610458611084565b600201838154811061046c5761046c611538565b90600052602060002090600a02016002016110b4565b61048a6110c1565b61049c81610496611084565b906110fe565b506040516001600160a01b038216907f17c697847a800b2606a1d6dbf707bfe0ab37f282b715bf83974d22aef6c6c5b190600090a250565b6104dc6110c1565b61271081111561054f5760405162461bcd60e51b815260206004820152603360248201527f4661636574456d657267656e6379436f6e736f6c653a2063616e6e6f7420626560448201527202067726561746572207468616e20313030303606c1b60648201526084015b60405180910390fd5b6000610559611084565b60030154905081610568611084565b60030155604051829082907ffcf3f87afc01f87de89a2654d7b7108ede6ef634baf9a0e52fb8bae9d2ae72cf90600090a35050565b606061040e6105aa611084565b60020183815481106105be576105be611538565b90600052602060002090600a02016000016110b4565b60606105e66105e1611084565b6110b4565b905090565b610621336105f7611084565b600201838154811061060b5761060b611538565b60009182526020909120600a9091020190611113565b6106825760405162461bcd60e51b815260206004820152602c60248201527f4661636574456d657267656e6379436f6e736f6c653a206f6e6c79206578706560448201526b63746564207369676e65727360a01b6064820152608401610546565b6106c13361068e611084565b60020183815481106106a2576106a2611538565b90600052602060002090600a020160020161111390919063ffffffff16565b1561071c5760405162461bcd60e51b815260206004820152602560248201527f4661636574456d657267656e6379436f6e736f6c653a20616c726561647920736044820152641a59db995960da1b6064820152608401610546565b61075b33610728611084565b600201838154811061073c5761073c611538565b90600052602060002090600a02016002016110fe90919063ffffffff16565b50604051339082907f60e5ab4071e3b4c747a2d2dbb76be81ca6490c4c66c94aee951edbcdf24c31b790600090a350565b6000610796611084565b60020182815481106107aa576107aa611538565b90600052602060002090600a0201600701549050919050565b600060016107cf611084565b600201546105e6919061159e565b6107e56110c1565b6107f7816107f1611084565b90611135565b506040516001600160a01b038216907f0e3f59f467dbe99c689848a95522753581e0bcb090b840b2ebe20976b4b299cf90600090a250565b6108376110c1565b6000610841611084565b60040154905081610850611084565b60040155604051829082907f9e67c70303ddf23f5294553784250d200c84de0e011c05061c99ed5e4a221c1590600090a35050565b600061089a335b610894611084565b90611113565b6108b65760405162461bcd60e51b8152600401610546906115b1565b6108be611084565b60020180546001908101825560009182526108d7611084565b600201546108e5919061159e565b9050836108f0611084565b600201828154811061090457610904611538565b90600052602060002090600a020160040160006101000a8154816001600160a01b0302191690836001600160a01b0316021790555082610942611084565b600201828154811061095657610956611538565b90600052602060002090600a02016005019081610973919061164e565b504261097d611084565b600201828154811061099157610991611538565b90600052602060002090600a0201600601819055506109ae611084565b600401546109ba611084565b60020182815481106109ce576109ce611538565b90600052602060002090600a0201600701819055506109eb611084565b600301546109f7611084565b6002018281548110610a0b57610a0b611538565b90600052602060002090600a02016008018190555060005b610a33610a2e611084565b61114a565b811015610a8e57610a7b610a4982610408611084565b610a51611084565b6002018481548110610a6557610a65611538565b60009182526020909120600a90910201906110fe565b5080610a868161170e565b915050610a23565b506000610a99611084565b6002018281548110610aad57610aad611538565b60009182526020909120600a90910201600901805460ff1916911515919091179055604051610add908490611727565b604051908190038120906001600160a01b0386169083907fc9126753fedc269b93024d5f733c6b59ad9944ff77a1cbc233590df6d6124c7090600090a49392505050565b6000610b5982610b2f611084565b6002018581548110610b4357610b43611538565b60009182526020909120600a90910201906110a8565b9392505050565b6000610b6a611084565b6002018281548110610b7e57610b7e611538565b600091825260209091206004600a9092020101546001600160a01b031692915050565b6000610b5982610baf611084565b6002018581548110610bc357610bc3611538565b90600052602060002090600a02016002016110a890919063ffffffff16565b6000610bec611084565b6002018281548110610c0057610c00611538565b90600052602060002090600a0201600601549050919050565b60006060610c263361088c565b610c425760405162461bcd60e51b8152600401610546906115b1565b6000610c4c611084565b6002018481548110610c6057610c60611538565b90600052602060002090600a020160070154610c7a611084565b6002018581548110610c8e57610c8e611538565b90600052602060002090600a020160060154610caa9190611743565b905080421015610d1b5760405162461bcd60e51b815260206004820152603660248201527f4661636574456d657267656e6379436f6e736f6c653a20656d657267656e6379604482015275081c995c5d595cdd081a5cc81d1a5b595b1bd8dad95960521b6064820152608401610546565b610d23611084565b6002018481548110610d3757610d37611538565b600091825260209091206009600a90920201015460ff1615610dc15760405162461bcd60e51b815260206004820152603960248201527f4661636574456d657267656e6379436f6e736f6c653a20656d657267656e637960448201527f207265717565737420616c7265616479206578656375746564000000000000006064820152608401610546565b6000610dcb611084565b60030154610e04610dda611084565b6002018781548110610dee57610dee611538565b90600052602060002090600a020160000161114a565b610e39610e0f611084565b6002018881548110610e2357610e23611538565b90600052602060002090600a020160020161114a565b610e4590612710611756565b610e4f919061176d565b1015905080610eb75760405162461bcd60e51b815260206004820152602e60248201527f4661636574456d657267656e6379436f6e736f6c653a20696e7375666669636960448201526d656e74207369676e61747572657360901b6064820152608401610546565b6000610ec1611084565b6002018681548110610ed557610ed5611538565b6000918252602082206004600a9092020101546001600160a01b03169150610efb611084565b6002018781548110610f0f57610f0f611538565b90600052602060002090600a02016005018054610f2b9061154e565b80601f0160208091040260200160405190810160405280929190818152602001828054610f579061154e565b8015610fa45780601f10610f7957610100808354040283529160200191610fa4565b820191906000526020600020905b815481529060010190602001808311610f8757829003601f168201915b50505050509050600080836001600160a01b031683604051610fc69190611727565b6000604051808303816000865af19150503d8060008114611003576040519150601f19603f3d011682016040523d82523d6000602084013e611008565b606091505b50915091506001611017611084565b6002018a8154811061102b5761102b611538565b600091825260208220600a9190910201600901805460ff1916921515929092179091556040518a917f5b9d5bd381bd2bbecc9dc1a2bbaa7eb0a074191ad5e8f14605b3993e0e1679f191a2909890975095505050505050565b7faa2c9fde45f1d226339092d8009e028be3452848d3f6b92b731ecf82c0d31f7490565b6000610b598383611154565b60606000610b598361117e565b3330146110fc5760405162461bcd60e51b815260206004820152600960248201526837b7363c9039b2b63360b91b6044820152606401610546565b565b6000610b59836001600160a01b0384166111d9565b6001600160a01b03811660009081526001830160205260408120541515610b59565b6000610b59836001600160a01b038416611228565b600061040e825490565b600082600001828154811061116b5761116b611538565b9060005260206000200154905092915050565b6060816000018054806020026020016040519081016040528092919081815260200182805480156103b357602002820191906000526020600020905b8154815260200190600101908083116111ba5750505050509050919050565b60008181526001830160205260408120546112205750815460018181018455600084815260208082209093018490558454848252828601909352604090209190915561040e565b50600061040e565b6000818152600183016020526040812054801561131157600061124c60018361159e565b85549091506000906112609060019061159e565b90508181146112c557600086600001828154811061128057611280611538565b90600052602060002001549050808760000184815481106112a3576112a3611538565b6000918252602080832090910192909255918252600188019052604090208390555b85548690806112d6576112d661178f565b60019003818190600052602060002001600090559055856001016000868152602001908152602001600020600090556001935050505061040e565b600091505061040e565b60006020828403121561132d57600080fd5b5035919050565b60005b8381101561134f578181015183820152602001611337565b50506000910152565b60008151808452611370816020860160208601611334565b601f01601f19169290920160200192915050565b602081526000610b596020830184611358565b6020808252825182820181905260009190848201906040850190845b818110156113d85783516001600160a01b0316835292840192918401916001016113b3565b50909695505050505050565b80356001600160a01b03811681146113fb57600080fd5b919050565b60006020828403121561141257600080fd5b610b59826113e4565b634e487b7160e01b600052604160045260246000fd5b6000806040838503121561144457600080fd5b61144d836113e4565b9150602083013567ffffffffffffffff8082111561146a57600080fd5b818501915085601f83011261147e57600080fd5b8135818111156114905761149061141b565b604051601f8201601f19908116603f011681019083821181831017156114b8576114b861141b565b816040528281528860208487010111156114d157600080fd5b8260208601602083013760006020848301015280955050505050509250929050565b6000806040838503121561150657600080fd5b50508035926020909101359150565b82151581526040602082015260006115306040830184611358565b949350505050565b634e487b7160e01b600052603260045260246000fd5b600181811c9082168061156257607f821691505b60208210810361158257634e487b7160e01b600052602260045260246000fd5b50919050565b634e487b7160e01b600052601160045260246000fd5b8181038181111561040e5761040e611588565b6020808252602e908201527f4661636574456d657267656e6379436f6e736f6c653a206f6e6c7920656d657260408201526d33b2b731bc9037b832b930ba37b960911b606082015260800190565b601f82111561164957600081815260208120601f850160051c810160208610156116265750805b601f850160051c820191505b8181101561164557828155600101611632565b5050505b505050565b815167ffffffffffffffff8111156116685761166861141b565b61167c81611676845461154e565b846115ff565b602080601f8311600181146116b157600084156116995750858301515b600019600386901b1c1916600185901b178555611645565b600085815260208120601f198616915b828110156116e0578886015182559484019460019091019084016116c1565b50858210156116fe5787850151600019600388901b60f8161c191681555b5050505050600190811b01905550565b60006001820161172057611720611588565b5060010190565b60008251611739818460208701611334565b9190910192915050565b8082018082111561040e5761040e611588565b808202811582820484141761040e5761040e611588565b60008261178a57634e487b7160e01b600052601260045260246000fd5b500490565b634e487b7160e01b600052603160045260246000fdfea26469706673582212205772f5444852795b13d210ce98f74b0385b6e4cc83cfd7210352cbb11357e67a64736f6c63430008130033",
			"opcodes": "PUSH1 0x80 PUSH1 0x40 MSTORE CALLVALUE DUP1 ISZERO PUSH2 0x10 JUMPI PUSH1 0x0 DUP1 REVERT JUMPDEST POP PUSH2 0x17DB DUP1 PUSH2 0x20 PUSH1 0x0 CODECOPY PUSH1 0x0 RETURN INVALID PUSH1 0x80 PUSH1 0x40 MSTORE CALLVALUE DUP1 ISZERO PUSH2 0x10 JUMPI PUSH1 0x0 DUP1 REVERT JUMPDEST POP PUSH1 0x4 CALLDATASIZE LT PUSH2 0x12C JUMPI PUSH1 0x0 CALLDATALOAD PUSH1 0xE0 SHR DUP1 PUSH4 0x62D7F1B2 GT PUSH2 0xAD JUMPI DUP1 PUSH4 0x7E7B7CCF GT PUSH2 0x71 JUMPI DUP1 PUSH4 0x7E7B7CCF EQ PUSH2 0x293 JUMPI DUP1 PUSH4 0x85B2C065 EQ PUSH2 0x2A6 JUMPI DUP1 PUSH4 0xAC6193C5 EQ PUSH2 0x2B9 JUMPI DUP1 PUSH4 0xC3D511E9 EQ PUSH2 0x2CC JUMPI DUP1 PUSH4 0xCE71D4BC EQ PUSH2 0x2DF JUMPI PUSH1 0x0 DUP1 REVERT JUMPDEST DUP1 PUSH4 0x62D7F1B2 EQ PUSH2 0x23F JUMPI DUP1 PUSH4 0x65FD04FB EQ PUSH2 0x252 JUMPI DUP1 PUSH4 0x71DEDCCF EQ PUSH2 0x25A JUMPI DUP1 PUSH4 0x7526C09A EQ PUSH2 0x26D JUMPI DUP1 PUSH4 0x797AE568 EQ PUSH2 0x280 JUMPI PUSH1 0x0 DUP1 REVERT JUMPDEST DUP1 PUSH4 0x3E46D27B GT PUSH2 0xF4 JUMPI DUP1 PUSH4 0x3E46D27B EQ PUSH2 0x1E9 JUMPI DUP1 PUSH4 0x48D7B567 EQ PUSH2 0x1FE JUMPI DUP1 PUSH4 0x51F2AA47 EQ PUSH2 0x211 JUMPI DUP1 PUSH4 0x56DB323B EQ PUSH2 0x224 JUMPI DUP1 PUSH4 0x579D9F0C EQ PUSH2 0x22C JUMPI PUSH1 0x0 DUP1 REVERT JUMPDEST DUP1 PUSH4 0x548DD96 EQ PUSH2 0x131 JUMPI DUP1 PUSH4 0x792AC9E EQ PUSH2 0x15A JUMPI DUP1 PUSH4 0x166E34DD EQ PUSH2 0x17D JUMPI DUP1 PUSH4 0x348F3A0E EQ PUSH2 0x1A8 JUMPI DUP1 PUSH4 0x366C7C2F EQ PUSH2 0x1C9 JUMPI JUMPDEST PUSH1 0x0 DUP1 REVERT JUMPDEST PUSH2 0x144 PUSH2 0x13F CALLDATASIZE PUSH1 0x4 PUSH2 0x131B JUMP JUMPDEST PUSH2 0x300 JUMP JUMPDEST PUSH1 0x40 MLOAD PUSH2 0x151 SWAP2 SWAP1 PUSH2 0x1384 JUMP JUMPDEST PUSH1 0x40 MLOAD DUP1 SWAP2 SUB SWAP1 RETURN JUMPDEST PUSH2 0x16D PUSH2 0x168 CALLDATASIZE PUSH1 0x4 PUSH2 0x131B JUMP JUMPDEST PUSH2 0x3BF JUMP JUMPDEST PUSH1 0x40 MLOAD SWAP1 ISZERO ISZERO DUP2 MSTORE PUSH1 0x20 ADD PUSH2 0x151 JUMP JUMPDEST PUSH2 0x190 PUSH2 0x18B CALLDATASIZE PUSH1 0x4 PUSH2 0x131B JUMP JUMPDEST PUSH2 0x3FA JUMP JUMPDEST PUSH1 0x40 MLOAD PUSH1 0x1 PUSH1 0x1 PUSH1 0xA0 SHL SUB SWAP1 SWAP2 AND DUP2 MSTORE PUSH1 0x20 ADD PUSH2 0x151 JUMP JUMPDEST PUSH2 0x1BB PUSH2 0x1B6 CALLDATASIZE PUSH1 0x4 PUSH2 0x131B JUMP JUMPDEST PUSH2 0x414 JUMP JUMPDEST PUSH1 0x40 MLOAD SWAP1 DUP2 MSTORE PUSH1 0x20 ADD PUSH2 0x151 JUMP JUMPDEST PUSH2 0x1DC PUSH2 0x1D7 CALLDATASIZE PUSH1 0x4 PUSH2 0x131B JUMP JUMPDEST PUSH2 0x44B JUMP JUMPDEST PUSH1 0x40 MLOAD PUSH2 0x151 SWAP2 SWAP1 PUSH2 0x1397 JUMP JUMPDEST PUSH2 0x1FC PUSH2 0x1F7 CALLDATASIZE PUSH1 0x4 PUSH2 0x1400 JUMP JUMPDEST PUSH2 0x482 JUMP JUMPDEST STOP JUMPDEST PUSH2 0x1FC PUSH2 0x20C CALLDATASIZE PUSH1 0x4 PUSH2 0x131B JUMP JUMPDEST PUSH2 0x4D4 JUMP JUMPDEST PUSH2 0x1DC PUSH2 0x21F CALLDATASIZE PUSH1 0x4 PUSH2 0x131B JUMP JUMPDEST PUSH2 0x59D JUMP JUMPDEST PUSH2 0x1DC PUSH2 0x5D4 JUMP JUMPDEST PUSH2 0x1FC PUSH2 0x23A CALLDATASIZE PUSH1 0x4 PUSH2 0x131B JUMP JUMPDEST PUSH2 0x5EB JUMP JUMPDEST PUSH2 0x1BB PUSH2 0x24D CALLDATASIZE PUSH1 0x4 PUSH2 0x131B JUMP JUMPDEST PUSH2 0x78C JUMP JUMPDEST PUSH2 0x1BB PUSH2 0x7C3 JUMP JUMPDEST PUSH2 0x1FC PUSH2 0x268 CALLDATASIZE PUSH1 0x4 PUSH2 0x1400 JUMP JUMPDEST PUSH2 0x7DD JUMP JUMPDEST PUSH2 0x1FC PUSH2 0x27B CALLDATASIZE PUSH1 0x4 PUSH2 0x131B JUMP JUMPDEST PUSH2 0x82F JUMP JUMPDEST PUSH2 0x1BB PUSH2 0x28E CALLDATASIZE PUSH1 0x4 PUSH2 0x1431 JUMP JUMPDEST PUSH2 0x885 JUMP JUMPDEST PUSH2 0x190 PUSH2 0x2A1 CALLDATASIZE PUSH1 0x4 PUSH2 0x14F3 JUMP JUMPDEST PUSH2 0xB21 JUMP JUMPDEST PUSH2 0x190 PUSH2 0x2B4 CALLDATASIZE PUSH1 0x4 PUSH2 0x131B JUMP JUMPDEST PUSH2 0xB60 JUMP JUMPDEST PUSH2 0x190 PUSH2 0x2C7 CALLDATASIZE PUSH1 0x4 PUSH2 0x14F3 JUMP JUMPDEST PUSH2 0xBA1 JUMP JUMPDEST PUSH2 0x1BB PUSH2 0x2DA CALLDATASIZE PUSH1 0x4 PUSH2 0x131B JUMP JUMPDEST PUSH2 0xBE2 JUMP JUMPDEST PUSH2 0x2F2 PUSH2 0x2ED CALLDATASIZE PUSH1 0x4 PUSH2 0x131B JUMP JUMPDEST PUSH2 0xC19 JUMP JUMPDEST PUSH1 0x40 MLOAD PUSH2 0x151 SWAP3 SWAP2 SWAP1 PUSH2 0x1515 JUMP JUMPDEST PUSH1 0x60 PUSH2 0x30A PUSH2 0x1084 JUMP JUMPDEST PUSH1 0x2 ADD DUP3 DUP2 SLOAD DUP2 LT PUSH2 0x31E JUMPI PUSH2 0x31E PUSH2 0x1538 JUMP JUMPDEST SWAP1 PUSH1 0x0 MSTORE PUSH1 0x20 PUSH1 0x0 KECCAK256 SWAP1 PUSH1 0xA MUL ADD PUSH1 0x5 ADD DUP1 SLOAD PUSH2 0x33A SWAP1 PUSH2 0x154E JUMP JUMPDEST DUP1 PUSH1 0x1F ADD PUSH1 0x20 DUP1 SWAP2 DIV MUL PUSH1 0x20 ADD PUSH1 0x40 MLOAD SWAP1 DUP2 ADD PUSH1 0x40 MSTORE DUP1 SWAP3 SWAP2 SWAP1 DUP2 DUP2 MSTORE PUSH1 0x20 ADD DUP3 DUP1 SLOAD PUSH2 0x366 SWAP1 PUSH2 0x154E JUMP JUMPDEST DUP1 ISZERO PUSH2 0x3B3 JUMPI DUP1 PUSH1 0x1F LT PUSH2 0x388 JUMPI PUSH2 0x100 DUP1 DUP4 SLOAD DIV MUL DUP4 MSTORE SWAP2 PUSH1 0x20 ADD SWAP2 PUSH2 0x3B3 JUMP JUMPDEST DUP3 ADD SWAP2 SWAP1 PUSH1 0x0 MSTORE PUSH1 0x20 PUSH1 0x0 KECCAK256 SWAP1 JUMPDEST DUP2 SLOAD DUP2 MSTORE SWAP1 PUSH1 0x1 ADD SWAP1 PUSH1 0x20 ADD DUP1 DUP4 GT PUSH2 0x396 JUMPI DUP3 SWAP1 SUB PUSH1 0x1F AND DUP3 ADD SWAP2 JUMPDEST POP POP POP POP POP SWAP1 POP SWAP2 SWAP1 POP JUMP JUMPDEST PUSH1 0x0 PUSH2 0x3C9 PUSH2 0x1084 JUMP JUMPDEST PUSH1 0x2 ADD DUP3 DUP2 SLOAD DUP2 LT PUSH2 0x3DD JUMPI PUSH2 0x3DD PUSH2 0x1538 JUMP JUMPDEST PUSH1 0x0 SWAP2 DUP3 MSTORE PUSH1 0x20 SWAP1 SWAP2 KECCAK256 PUSH1 0x9 PUSH1 0xA SWAP1 SWAP3 MUL ADD ADD SLOAD PUSH1 0xFF AND SWAP3 SWAP2 POP POP JUMP JUMPDEST PUSH1 0x0 PUSH2 0x40E DUP3 PUSH2 0x408 PUSH2 0x1084 JUMP JUMPDEST SWAP1 PUSH2 0x10A8 JUMP JUMPDEST SWAP3 SWAP2 POP POP JUMP JUMPDEST PUSH1 0x0 PUSH2 0x41E PUSH2 0x1084 JUMP JUMPDEST PUSH1 0x2 ADD DUP3 DUP2 SLOAD DUP2 LT PUSH2 0x432 JUMPI PUSH2 0x432 PUSH2 0x1538 JUMP JUMPDEST SWAP1 PUSH1 0x0 MSTORE PUSH1 0x20 PUSH1 0x0 KECCAK256 SWAP1 PUSH1 0xA MUL ADD PUSH1 0x8 ADD SLOAD SWAP1 POP SWAP2 SWAP1 POP JUMP JUMPDEST PUSH1 0x60 PUSH2 0x40E PUSH2 0x458 PUSH2 0x1084 JUMP JUMPDEST PUSH1 0x2 ADD DUP4 DUP2 SLOAD DUP2 LT PUSH2 0x46C JUMPI PUSH2 0x46C PUSH2 0x1538 JUMP JUMPDEST SWAP1 PUSH1 0x0 MSTORE PUSH1 0x20 PUSH1 0x0 KECCAK256 SWAP1 PUSH1 0xA MUL ADD PUSH1 0x2 ADD PUSH2 0x10B4 JUMP JUMPDEST PUSH2 0x48A PUSH2 0x10C1 JUMP JUMPDEST PUSH2 0x49C DUP2 PUSH2 0x496 PUSH2 0x1084 JUMP JUMPDEST SWAP1 PUSH2 0x10FE JUMP JUMPDEST POP PUSH1 0x40 MLOAD PUSH1 0x1 PUSH1 0x1 PUSH1 0xA0 SHL SUB DUP3 AND SWAP1 PUSH32 0x17C697847A800B2606A1D6DBF707BFE0AB37F282B715BF83974D22AEF6C6C5B1 SWAP1 PUSH1 0x0 SWAP1 LOG2 POP JUMP JUMPDEST PUSH2 0x4DC PUSH2 0x10C1 JUMP JUMPDEST PUSH2 0x2710 DUP2 GT ISZERO PUSH2 0x54F JUMPI PUSH1 0x40 MLOAD PUSH3 0x461BCD PUSH1 0xE5 SHL DUP2 MSTORE PUSH1 0x20 PUSH1 0x4 DUP3 ADD MSTORE PUSH1 0x33 PUSH1 0x24 DUP3 ADD MSTORE PUSH32 0x4661636574456D657267656E6379436F6E736F6C653A2063616E6E6F74206265 PUSH1 0x44 DUP3 ADD MSTORE PUSH19 0x2067726561746572207468616E20313030303 PUSH1 0x6C SHL PUSH1 0x64 DUP3 ADD MSTORE PUSH1 0x84 ADD JUMPDEST PUSH1 0x40 MLOAD DUP1 SWAP2 SUB SWAP1 REVERT JUMPDEST PUSH1 0x0 PUSH2 0x559 PUSH2 0x1084 JUMP JUMPDEST PUSH1 0x3 ADD SLOAD SWAP1 POP DUP2 PUSH2 0x568 PUSH2 0x1084 JUMP JUMPDEST PUSH1 0x3 ADD SSTORE PUSH1 0x40 MLOAD DUP3 SWAP1 DUP3 SWAP1 PUSH32 0xFCF3F87AFC01F87DE89A2654D7B7108EDE6EF634BAF9A0E52FB8BAE9D2AE72CF SWAP1 PUSH1 0x0 SWAP1 LOG3 POP POP JUMP JUMPDEST PUSH1 0x60 PUSH2 0x40E PUSH2 0x5AA PUSH2 0x1084 JUMP JUMPDEST PUSH1 0x2 ADD DUP4 DUP2 SLOAD DUP2 LT PUSH2 0x5BE JUMPI PUSH2 0x5BE PUSH2 0x1538 JUMP JUMPDEST SWAP1 PUSH1 0x0 MSTORE PUSH1 0x20 PUSH1 0x0 KECCAK256 SWAP1 PUSH1 0xA MUL ADD PUSH1 0x0 ADD PUSH2 0x10B4 JUMP JUMPDEST PUSH1 0x60 PUSH2 0x5E6 PUSH2 0x5E1 PUSH2 0x1084 JUMP JUMPDEST PUSH2 0x10B4 JUMP JUMPDEST SWAP1 POP SWAP1 JUMP JUMPDEST PUSH2 0x621 CALLER PUSH2 0x5F7 PUSH2 0x1084 JUMP JUMPDEST PUSH1 0x2 ADD DUP4 DUP2 SLOAD DUP2 LT PUSH2 0x60B JUMPI PUSH2 0x60B PUSH2 0x1538 JUMP JUMPDEST PUSH1 0x0 SWAP2 DUP3 MSTORE PUSH1 0x20 SWAP1 SWAP2 KECCAK256 PUSH1 0xA SWAP1 SWAP2 MUL ADD SWAP1 PUSH2 0x1113 JUMP JUMPDEST PUSH2 0x682 JUMPI PUSH1 0x40 MLOAD PUSH3 0x461BCD PUSH1 0xE5 SHL DUP2 MSTORE PUSH1 0x20 PUSH1 0x4 DUP3 ADD MSTORE PUSH1 0x2C PUSH1 0x24 DUP3 ADD MSTORE PUSH32 0x4661636574456D657267656E6379436F6E736F6C653A206F6E6C792065787065 PUSH1 0x44 DUP3 ADD MSTORE PUSH12 0x63746564207369676E657273 PUSH1 0xA0 SHL PUSH1 0x64 DUP3 ADD MSTORE PUSH1 0x84 ADD PUSH2 0x546 JUMP JUMPDEST PUSH2 0x6C1 CALLER PUSH2 0x68E PUSH2 0x1084 JUMP JUMPDEST PUSH1 0x2 ADD DUP4 DUP2 SLOAD DUP2 LT PUSH2 0x6A2 JUMPI PUSH2 0x6A2 PUSH2 0x1538 JUMP JUMPDEST SWAP1 PUSH1 0x0 MSTORE PUSH1 0x20 PUSH1 0x0 KECCAK256 SWAP1 PUSH1 0xA MUL ADD PUSH1 0x2 ADD PUSH2 0x1113 SWAP1 SWAP2 SWAP1 PUSH4 0xFFFFFFFF AND JUMP JUMPDEST ISZERO PUSH2 0x71C JUMPI PUSH1 0x40 MLOAD PUSH3 0x461BCD PUSH1 0xE5 SHL DUP2 MSTORE PUSH1 0x20 PUSH1 0x4 DUP3 ADD MSTORE PUSH1 0x25 PUSH1 0x24 DUP3 ADD MSTORE PUSH32 0x4661636574456D657267656E6379436F6E736F6C653A20616C72656164792073 PUSH1 0x44 DUP3 ADD MSTORE PUSH5 0x1A59DB9959 PUSH1 0xDA SHL PUSH1 0x64 DUP3 ADD MSTORE PUSH1 0x84 ADD PUSH2 0x546 JUMP JUMPDEST PUSH2 0x75B CALLER PUSH2 0x728 PUSH2 0x1084 JUMP JUMPDEST PUSH1 0x2 ADD DUP4 DUP2 SLOAD DUP2 LT PUSH2 0x73C JUMPI PUSH2 0x73C PUSH2 0x1538 JUMP JUMPDEST SWAP1 PUSH1 0x0 MSTORE PUSH1 0x20 PUSH1 0x0 KECCAK256 SWAP1 PUSH1 0xA MUL ADD PUSH1 0x2 ADD PUSH2 0x10FE SWAP1 SWAP2 SWAP1 PUSH4 0xFFFFFFFF AND JUMP JUMPDEST POP PUSH1 0x40 MLOAD CALLER SWAP1 DUP3 SWAP1 PUSH32 0x60E5AB4071E3B4C747A2D2DBB76BE81CA6490C4C66C94AEE951EDBCDF24C31B7 SWAP1 PUSH1 0x0 SWAP1 LOG3 POP JUMP JUMPDEST PUSH1 0x0 PUSH2 0x796 PUSH2 0x1084 JUMP JUMPDEST PUSH1 0x2 ADD DUP3 DUP2 SLOAD DUP2 LT PUSH2 0x7AA JUMPI PUSH2 0x7AA PUSH2 0x1538 JUMP JUMPDEST SWAP1 PUSH1 0x0 MSTORE PUSH1 0x20 PUSH1 0x0 KECCAK256 SWAP1 PUSH1 0xA MUL ADD PUSH1 0x7 ADD SLOAD SWAP1 POP SWAP2 SWAP1 POP JUMP JUMPDEST PUSH1 0x0 PUSH1 0x1 PUSH2 0x7CF PUSH2 0x1084 JUMP JUMPDEST PUSH1 0x2 ADD SLOAD PUSH2 0x5E6 SWAP2 SWAP1 PUSH2 0x159E JUMP JUMPDEST PUSH2 0x7E5 PUSH2 0x10C1 JUMP JUMPDEST PUSH2 0x7F7 DUP2 PUSH2 0x7F1 PUSH2 0x1084 JUMP JUMPDEST SWAP1 PUSH2 0x1135 JUMP JUMPDEST POP PUSH1 0x40 MLOAD PUSH1 0x1 PUSH1 0x1 PUSH1 0xA0 SHL SUB DUP3 AND SWAP1 PUSH32 0xE3F59F467DBE99C689848A95522753581E0BCB090B840B2EBE20976B4B299CF SWAP1 PUSH1 0x0 SWAP1 LOG2 POP JUMP JUMPDEST PUSH2 0x837 PUSH2 0x10C1 JUMP JUMPDEST PUSH1 0x0 PUSH2 0x841 PUSH2 0x1084 JUMP JUMPDEST PUSH1 0x4 ADD SLOAD SWAP1 POP DUP2 PUSH2 0x850 PUSH2 0x1084 JUMP JUMPDEST PUSH1 0x4 ADD SSTORE PUSH1 0x40 MLOAD DUP3 SWAP1 DUP3 SWAP1 PUSH32 0x9E67C70303DDF23F5294553784250D200C84DE0E011C05061C99ED5E4A221C15 SWAP1 PUSH1 0x0 SWAP1 LOG3 POP POP JUMP JUMPDEST PUSH1 0x0 PUSH2 0x89A CALLER JUMPDEST PUSH2 0x894 PUSH2 0x1084 JUMP JUMPDEST SWAP1 PUSH2 0x1113 JUMP JUMPDEST PUSH2 0x8B6 JUMPI PUSH1 0x40 MLOAD PUSH3 0x461BCD PUSH1 0xE5 SHL DUP2 MSTORE PUSH1 0x4 ADD PUSH2 0x546 SWAP1 PUSH2 0x15B1 JUMP JUMPDEST PUSH2 0x8BE PUSH2 0x1084 JUMP JUMPDEST PUSH1 0x2 ADD DUP1 SLOAD PUSH1 0x1 SWAP1 DUP2 ADD DUP3 SSTORE PUSH1 0x0 SWAP2 DUP3 MSTORE PUSH2 0x8D7 PUSH2 0x1084 JUMP JUMPDEST PUSH1 0x2 ADD SLOAD PUSH2 0x8E5 SWAP2 SWAP1 PUSH2 0x159E JUMP JUMPDEST SWAP1 POP DUP4 PUSH2 0x8F0 PUSH2 0x1084 JUMP JUMPDEST PUSH1 0x2 ADD DUP3 DUP2 SLOAD DUP2 LT PUSH2 0x904 JUMPI PUSH2 0x904 PUSH2 0x1538 JUMP JUMPDEST SWAP1 PUSH1 0x0 MSTORE PUSH1 0x20 PUSH1 0x0 KECCAK256 SWAP1 PUSH1 0xA MUL ADD PUSH1 0x4 ADD PUSH1 0x0 PUSH2 0x100 EXP DUP2 SLOAD DUP2 PUSH1 0x1 PUSH1 0x1 PUSH1 0xA0 SHL SUB MUL NOT AND SWAP1 DUP4 PUSH1 0x1 PUSH1 0x1 PUSH1 0xA0 SHL SUB AND MUL OR SWAP1 SSTORE POP DUP3 PUSH2 0x942 PUSH2 0x1084 JUMP JUMPDEST PUSH1 0x2 ADD DUP3 DUP2 SLOAD DUP2 LT PUSH2 0x956 JUMPI PUSH2 0x956 PUSH2 0x1538 JUMP JUMPDEST SWAP1 PUSH1 0x0 MSTORE PUSH1 0x20 PUSH1 0x0 KECCAK256 SWAP1 PUSH1 0xA MUL ADD PUSH1 0x5 ADD SWAP1 DUP2 PUSH2 0x973 SWAP2 SWAP1 PUSH2 0x164E JUMP JUMPDEST POP TIMESTAMP PUSH2 0x97D PUSH2 0x1084 JUMP JUMPDEST PUSH1 0x2 ADD DUP3 DUP2 SLOAD DUP2 LT PUSH2 0x991 JUMPI PUSH2 0x991 PUSH2 0x1538 JUMP JUMPDEST SWAP1 PUSH1 0x0 MSTORE PUSH1 0x20 PUSH1 0x0 KECCAK256 SWAP1 PUSH1 0xA MUL ADD PUSH1 0x6 ADD DUP2 SWAP1 SSTORE POP PUSH2 0x9AE PUSH2 0x1084 JUMP JUMPDEST PUSH1 0x4 ADD SLOAD PUSH2 0x9BA PUSH2 0x1084 JUMP JUMPDEST PUSH1 0x2 ADD DUP3 DUP2 SLOAD DUP2 LT PUSH2 0x9CE JUMPI PUSH2 0x9CE PUSH2 0x1538 JUMP JUMPDEST SWAP1 PUSH1 0x0 MSTORE PUSH1 0x20 PUSH1 0x0 KECCAK256 SWAP1 PUSH1 0xA MUL ADD PUSH1 0x7 ADD DUP2 SWAP1 SSTORE POP PUSH2 0x9EB PUSH2 0x1084 JUMP JUMPDEST PUSH1 0x3 ADD SLOAD PUSH2 0x9F7 PUSH2 0x1084 JUMP JUMPDEST PUSH1 0x2 ADD DUP3 DUP2 SLOAD DUP2 LT PUSH2 0xA0B JUMPI PUSH2 0xA0B PUSH2 0x1538 JUMP JUMPDEST SWAP1 PUSH1 0x0 MSTORE PUSH1 0x20 PUSH1 0x0 KECCAK256 SWAP1 PUSH1 0xA MUL ADD PUSH1 0x8 ADD DUP2 SWAP1 SSTORE POP PUSH1 0x0 JUMPDEST PUSH2 0xA33 PUSH2 0xA2E PUSH2 0x1084 JUMP JUMPDEST PUSH2 0x114A JUMP JUMPDEST DUP2 LT ISZERO PUSH2 0xA8E JUMPI PUSH2 0xA7B PUSH2 0xA49 DUP3 PUSH2 0x408 PUSH2 0x1084 JUMP JUMPDEST PUSH2 0xA51 PUSH2 0x1084 JUMP JUMPDEST PUSH1 0x2 ADD DUP5 DUP2 SLOAD DUP2 LT PUSH2 0xA65 JUMPI PUSH2 0xA65 PUSH2 0x1538 JUMP JUMPDEST PUSH1 0x0 SWAP2 DUP3 MSTORE PUSH1 0x20 SWAP1 SWAP2 KECCAK256 PUSH1 0xA SWAP1 SWAP2 MUL ADD SWAP1 PUSH2 0x10FE JUMP JUMPDEST POP DUP1 PUSH2 0xA86 DUP2 PUSH2 0x170E JUMP JUMPDEST SWAP2 POP POP PUSH2 0xA23 JUMP JUMPDEST POP PUSH1 0x0 PUSH2 0xA99 PUSH2 0x1084 JUMP JUMPDEST PUSH1 0x2 ADD DUP3 DUP2 SLOAD DUP2 LT PUSH2 0xAAD JUMPI PUSH2 0xAAD PUSH2 0x1538 JUMP JUMPDEST PUSH1 0x0 SWAP2 DUP3 MSTORE PUSH1 0x20 SWAP1 SWAP2 KECCAK256 PUSH1 0xA SWAP1 SWAP2 MUL ADD PUSH1 0x9 ADD DUP1 SLOAD PUSH1 0xFF NOT AND SWAP2 ISZERO ISZERO SWAP2 SWAP1 SWAP2 OR SWAP1 SSTORE PUSH1 0x40 MLOAD PUSH2 0xADD SWAP1 DUP5 SWAP1 PUSH2 0x1727 JUMP JUMPDEST PUSH1 0x40 MLOAD SWAP1 DUP2 SWAP1 SUB DUP2 KECCAK256 SWAP1 PUSH1 0x1 PUSH1 0x1 PUSH1 0xA0 SHL SUB DUP7 AND SWAP1 DUP4 SWAP1 PUSH32 0xC9126753FEDC269B93024D5F733C6B59AD9944FF77A1CBC233590DF6D6124C70 SWAP1 PUSH1 0x0 SWAP1 LOG4 SWAP4 SWAP3 POP POP POP JUMP JUMPDEST PUSH1 0x0 PUSH2 0xB59 DUP3 PUSH2 0xB2F PUSH2 0x1084 JUMP JUMPDEST PUSH1 0x2 ADD DUP6 DUP2 SLOAD DUP2 LT PUSH2 0xB43 JUMPI PUSH2 0xB43 PUSH2 0x1538 JUMP JUMPDEST PUSH1 0x0 SWAP2 DUP3 MSTORE PUSH1 0x20 SWAP1 SWAP2 KECCAK256 PUSH1 0xA SWAP1 SWAP2 MUL ADD SWAP1 PUSH2 0x10A8 JUMP JUMPDEST SWAP4 SWAP3 POP POP POP JUMP JUMPDEST PUSH1 0x0 PUSH2 0xB6A PUSH2 0x1084 JUMP JUMPDEST PUSH1 0x2 ADD DUP3 DUP2 SLOAD DUP2 LT PUSH2 0xB7E JUMPI PUSH2 0xB7E PUSH2 0x1538 JUMP JUMPDEST PUSH1 0x0 SWAP2 DUP3 MSTORE PUSH1 0x20 SWAP1 SWAP2 KECCAK256 PUSH1 0x4 PUSH1 0xA SWAP1 SWAP3 MUL ADD ADD SLOAD PUSH1 0x1 PUSH1 0x1 PUSH1 0xA0 SHL SUB AND SWAP3 SWAP2 POP POP JUMP JUMPDEST PUSH1 0x0 PUSH2 0xB59 DUP3 PUSH2 0xBAF PUSH2 0x1084 JUMP JUMPDEST PUSH1 0x2 ADD DUP6 DUP2 SLOAD DUP2 LT PUSH2 0xBC3 JUMPI PUSH2 0xBC3 PUSH2 0x1538 JUMP JUMPDEST SWAP1 PUSH1 0x0 MSTORE PUSH1 0x20 PUSH1 0x0 KECCAK256 SWAP1 PUSH1 0xA MUL ADD PUSH1 0x2 ADD PUSH2 0x10A8 SWAP1 SWAP2 SWAP1 PUSH4 0xFFFFFFFF AND JUMP JUMPDEST PUSH1 0x0 PUSH2 0xBEC PUSH2 0x1084 JUMP JUMPDEST PUSH1 0x2 ADD DUP3 DUP2 SLOAD DUP2 LT PUSH2 0xC00 JUMPI PUSH2 0xC00 PUSH2 0x1538 JUMP JUMPDEST SWAP1 PUSH1 0x0 MSTORE PUSH1 0x20 PUSH1 0x0 KECCAK256 SWAP1 PUSH1 0xA MUL ADD PUSH1 0x6 ADD SLOAD SWAP1 POP SWAP2 SWAP1 POP JUMP JUMPDEST PUSH1 0x0 PUSH1 0x60 PUSH2 0xC26 CALLER PUSH2 0x88C JUMP JUMPDEST PUSH2 0xC42 JUMPI PUSH1 0x40 MLOAD PUSH3 0x461BCD PUSH1 0xE5 SHL DUP2 MSTORE PUSH1 0x4 ADD PUSH2 0x546 SWAP1 PUSH2 0x15B1 JUMP JUMPDEST PUSH1 0x0 PUSH2 0xC4C PUSH2 0x1084 JUMP JUMPDEST PUSH1 0x2 ADD DUP5 DUP2 SLOAD DUP2 LT PUSH2 0xC60 JUMPI PUSH2 0xC60 PUSH2 0x1538 JUMP JUMPDEST SWAP1 PUSH1 0x0 MSTORE PUSH1 0x20 PUSH1 0x0 KECCAK256 SWAP1 PUSH1 0xA MUL ADD PUSH1 0x7 ADD SLOAD PUSH2 0xC7A PUSH2 0x1084 JUMP JUMPDEST PUSH1 0x2 ADD DUP6 DUP2 SLOAD DUP2 LT PUSH2 0xC8E JUMPI PUSH2 0xC8E PUSH2 0x1538 JUMP JUMPDEST SWAP1 PUSH1 0x0 MSTORE PUSH1 0x20 PUSH1 0x0 KECCAK256 SWAP1 PUSH1 0xA MUL ADD PUSH1 0x6 ADD SLOAD PUSH2 0xCAA SWAP2 SWAP1 PUSH2 0x1743 JUMP JUMPDEST SWAP1 POP DUP1 TIMESTAMP LT ISZERO PUSH2 0xD1B JUMPI PUSH1 0x40 MLOAD PUSH3 0x461BCD PUSH1 0xE5 SHL DUP2 MSTORE PUSH1 0x20 PUSH1 0x4 DUP3 ADD MSTORE PUSH1 0x36 PUSH1 0x24 DUP3 ADD MSTORE PUSH32 0x4661636574456D657267656E6379436F6E736F6C653A20656D657267656E6379 PUSH1 0x44 DUP3 ADD MSTORE PUSH22 0x81C995C5D595CDD081A5CC81D1A5B595B1BD8DAD959 PUSH1 0x52 SHL PUSH1 0x64 DUP3 ADD MSTORE PUSH1 0x84 ADD PUSH2 0x546 JUMP JUMPDEST PUSH2 0xD23 PUSH2 0x1084 JUMP JUMPDEST PUSH1 0x2 ADD DUP5 DUP2 SLOAD DUP2 LT PUSH2 0xD37 JUMPI PUSH2 0xD37 PUSH2 0x1538 JUMP JUMPDEST PUSH1 0x0 SWAP2 DUP3 MSTORE PUSH1 0x20 SWAP1 SWAP2 KECCAK256 PUSH1 0x9 PUSH1 0xA SWAP1 SWAP3 MUL ADD ADD SLOAD PUSH1 0xFF AND ISZERO PUSH2 0xDC1 JUMPI PUSH1 0x40 MLOAD PUSH3 0x461BCD PUSH1 0xE5 SHL DUP2 MSTORE PUSH1 0x20 PUSH1 0x4 DUP3 ADD MSTORE PUSH1 0x39 PUSH1 0x24 DUP3 ADD MSTORE PUSH32 0x4661636574456D657267656E6379436F6E736F6C653A20656D657267656E6379 PUSH1 0x44 DUP3 ADD MSTORE PUSH32 0x207265717565737420616C726561647920657865637574656400000000000000 PUSH1 0x64 DUP3 ADD MSTORE PUSH1 0x84 ADD PUSH2 0x546 JUMP JUMPDEST PUSH1 0x0 PUSH2 0xDCB PUSH2 0x1084 JUMP JUMPDEST PUSH1 0x3 ADD SLOAD PUSH2 0xE04 PUSH2 0xDDA PUSH2 0x1084 JUMP JUMPDEST PUSH1 0x2 ADD DUP8 DUP2 SLOAD DUP2 LT PUSH2 0xDEE JUMPI PUSH2 0xDEE PUSH2 0x1538 JUMP JUMPDEST SWAP1 PUSH1 0x0 MSTORE PUSH1 0x20 PUSH1 0x0 KECCAK256 SWAP1 PUSH1 0xA MUL ADD PUSH1 0x0 ADD PUSH2 0x114A JUMP JUMPDEST PUSH2 0xE39 PUSH2 0xE0F PUSH2 0x1084 JUMP JUMPDEST PUSH1 0x2 ADD DUP9 DUP2 SLOAD DUP2 LT PUSH2 0xE23 JUMPI PUSH2 0xE23 PUSH2 0x1538 JUMP JUMPDEST SWAP1 PUSH1 0x0 MSTORE PUSH1 0x20 PUSH1 0x0 KECCAK256 SWAP1 PUSH1 0xA MUL ADD PUSH1 0x2 ADD PUSH2 0x114A JUMP JUMPDEST PUSH2 0xE45 SWAP1 PUSH2 0x2710 PUSH2 0x1756 JUMP JUMPDEST PUSH2 0xE4F SWAP2 SWAP1 PUSH2 0x176D JUMP JUMPDEST LT ISZERO SWAP1 POP DUP1 PUSH2 0xEB7 JUMPI PUSH1 0x40 MLOAD PUSH3 0x461BCD PUSH1 0xE5 SHL DUP2 MSTORE PUSH1 0x20 PUSH1 0x4 DUP3 ADD MSTORE PUSH1 0x2E PUSH1 0x24 DUP3 ADD MSTORE PUSH32 0x4661636574456D657267656E6379436F6E736F6C653A20696E73756666696369 PUSH1 0x44 DUP3 ADD MSTORE PUSH14 0x656E74207369676E617475726573 PUSH1 0x90 SHL PUSH1 0x64 DUP3 ADD MSTORE PUSH1 0x84 ADD PUSH2 0x546 JUMP JUMPDEST PUSH1 0x0 PUSH2 0xEC1 PUSH2 0x1084 JUMP JUMPDEST PUSH1 0x2 ADD DUP7 DUP2 SLOAD DUP2 LT PUSH2 0xED5 JUMPI PUSH2 0xED5 PUSH2 0x1538 JUMP JUMPDEST PUSH1 0x0 SWAP2 DUP3 MSTORE PUSH1 0x20 DUP3 KECCAK256 PUSH1 0x4 PUSH1 0xA SWAP1 SWAP3 MUL ADD ADD SLOAD PUSH1 0x1 PUSH1 0x1 PUSH1 0xA0 SHL SUB AND SWAP2 POP PUSH2 0xEFB PUSH2 0x1084 JUMP JUMPDEST PUSH1 0x2 ADD DUP8 DUP2 SLOAD DUP2 LT PUSH2 0xF0F JUMPI PUSH2 0xF0F PUSH2 0x1538 JUMP JUMPDEST SWAP1 PUSH1 0x0 MSTORE PUSH1 0x20 PUSH1 0x0 KECCAK256 SWAP1 PUSH1 0xA MUL ADD PUSH1 0x5 ADD DUP1 SLOAD PUSH2 0xF2B SWAP1 PUSH2 0x154E JUMP JUMPDEST DUP1 PUSH1 0x1F ADD PUSH1 0x20 DUP1 SWAP2 DIV MUL PUSH1 0x20 ADD PUSH1 0x40 MLOAD SWAP1 DUP2 ADD PUSH1 0x40 MSTORE DUP1 SWAP3 SWAP2 SWAP1 DUP2 DUP2 MSTORE PUSH1 0x20 ADD DUP3 DUP1 SLOAD PUSH2 0xF57 SWAP1 PUSH2 0x154E JUMP JUMPDEST DUP1 ISZERO PUSH2 0xFA4 JUMPI DUP1 PUSH1 0x1F LT PUSH2 0xF79 JUMPI PUSH2 0x100 DUP1 DUP4 SLOAD DIV MUL DUP4 MSTORE SWAP2 PUSH1 0x20 ADD SWAP2 PUSH2 0xFA4 JUMP JUMPDEST DUP3 ADD SWAP2 SWAP1 PUSH1 0x0 MSTORE PUSH1 0x20 PUSH1 0x0 KECCAK256 SWAP1 JUMPDEST DUP2 SLOAD DUP2 MSTORE SWAP1 PUSH1 0x1 ADD SWAP1 PUSH1 0x20 ADD DUP1 DUP4 GT PUSH2 0xF87 JUMPI DUP3 SWAP1 SUB PUSH1 0x1F AND DUP3 ADD SWAP2 JUMPDEST POP POP POP POP POP SWAP1 POP PUSH1 0x0 DUP1 DUP4 PUSH1 0x1 PUSH1 0x1 PUSH1 0xA0 SHL SUB AND DUP4 PUSH1 0x40 MLOAD PUSH2 0xFC6 SWAP2 SWAP1 PUSH2 0x1727 JUMP JUMPDEST PUSH1 0x0 PUSH1 0x40 MLOAD DUP1 DUP4 SUB DUP2 PUSH1 0x0 DUP7 GAS CALL SWAP2 POP POP RETURNDATASIZE DUP1 PUSH1 0x0 DUP2 EQ PUSH2 0x1003 JUMPI PUSH1 0x40 MLOAD SWAP2 POP PUSH1 0x1F NOT PUSH1 0x3F RETURNDATASIZE ADD AND DUP3 ADD PUSH1 0x40 MSTORE RETURNDATASIZE DUP3 MSTORE RETURNDATASIZE PUSH1 0x0 PUSH1 0x20 DUP5 ADD RETURNDATACOPY PUSH2 0x1008 JUMP JUMPDEST PUSH1 0x60 SWAP2 POP JUMPDEST POP SWAP2 POP SWAP2 POP PUSH1 0x1 PUSH2 0x1017 PUSH2 0x1084 JUMP JUMPDEST PUSH1 0x2 ADD DUP11 DUP2 SLOAD DUP2 LT PUSH2 0x102B JUMPI PUSH2 0x102B PUSH2 0x1538 JUMP JUMPDEST PUSH1 0x0 SWAP2 DUP3 MSTORE PUSH1 0x20 DUP3 KECCAK256 PUSH1 0xA SWAP2 SWAP1 SWAP2 MUL ADD PUSH1 0x9 ADD DUP1 SLOAD PUSH1 0xFF NOT AND SWAP3 ISZERO ISZERO SWAP3 SWAP1 SWAP3 OR SWAP1 SWAP2 SSTORE PUSH1 0x40 MLOAD DUP11 SWAP2 PUSH32 0x5B9D5BD381BD2BBECC9DC1A2BBAA7EB0A074191AD5E8F14605B3993E0E1679F1 SWAP2 LOG2 SWAP1 SWAP9 SWAP1 SWAP8 POP SWAP6 POP POP POP POP POP POP JUMP JUMPDEST PUSH32 0xAA2C9FDE45F1D226339092D8009E028BE3452848D3F6B92B731ECF82C0D31F74 SWAP1 JUMP JUMPDEST PUSH1 0x0 PUSH2 0xB59 DUP4 DUP4 PUSH2 0x1154 JUMP JUMPDEST PUSH1 0x60 PUSH1 0x0 PUSH2 0xB59 DUP4 PUSH2 0x117E JUMP JUMPDEST CALLER ADDRESS EQ PUSH2 0x10FC JUMPI PUSH1 0x40 MLOAD PUSH3 0x461BCD PUSH1 0xE5 SHL DUP2 MSTORE PUSH1 0x20 PUSH1 0x4 DUP3 ADD MSTORE PUSH1 0x9 PUSH1 0x24 DUP3 ADD MSTORE PUSH9 0x37B7363C9039B2B633 PUSH1 0xB9 SHL PUSH1 0x44 DUP3 ADD MSTORE PUSH1 0x64 ADD PUSH2 0x546 JUMP JUMPDEST JUMP JUMPDEST PUSH1 0x0 PUSH2 0xB59 DUP4 PUSH1 0x1 PUSH1 0x1 PUSH1 0xA0 SHL SUB DUP5 AND PUSH2 0x11D9 JUMP JUMPDEST PUSH1 0x1 PUSH1 0x1 PUSH1 0xA0 SHL SUB DUP2 AND PUSH1 0x0 SWAP1 DUP2 MSTORE PUSH1 0x1 DUP4 ADD PUSH1 0x20 MSTORE PUSH1 0x40 DUP2 KECCAK256 SLOAD ISZERO ISZERO PUSH2 0xB59 JUMP JUMPDEST PUSH1 0x0 PUSH2 0xB59 DUP4 PUSH1 0x1 PUSH1 0x1 PUSH1 0xA0 SHL SUB DUP5 AND PUSH2 0x1228 JUMP JUMPDEST PUSH1 0x0 PUSH2 0x40E DUP3 SLOAD SWAP1 JUMP JUMPDEST PUSH1 0x0 DUP3 PUSH1 0x0 ADD DUP3 DUP2 SLOAD DUP2 LT PUSH2 0x116B JUMPI PUSH2 0x116B PUSH2 0x1538 JUMP JUMPDEST SWAP1 PUSH1 0x0 MSTORE PUSH1 0x20 PUSH1 0x0 KECCAK256 ADD SLOAD SWAP1 POP SWAP3 SWAP2 POP POP JUMP JUMPDEST PUSH1 0x60 DUP2 PUSH1 0x0 ADD DUP1 SLOAD DUP1 PUSH1 0x20 MUL PUSH1 0x20 ADD PUSH1 0x40 MLOAD SWAP1 DUP2 ADD PUSH1 0x40 MSTORE DUP1 SWAP3 SWAP2 SWAP1 DUP2 DUP2 MSTORE PUSH1 0x20 ADD DUP3 DUP1 SLOAD DUP1 ISZERO PUSH2 0x3B3 JUMPI PUSH1 0x20 MUL DUP3 ADD SWAP2 SWAP1 PUSH1 0x0 MSTORE PUSH1 0x20 PUSH1 0x0 KECCAK256 SWAP1 JUMPDEST DUP2 SLOAD DUP2 MSTORE PUSH1 0x20 ADD SWAP1 PUSH1 0x1 ADD SWAP1 DUP1 DUP4 GT PUSH2 0x11BA JUMPI POP POP POP POP POP SWAP1 POP SWAP2 SWAP1 POP JUMP JUMPDEST PUSH1 0x0 DUP2 DUP2 MSTORE PUSH1 0x1 DUP4 ADD PUSH1 0x20 MSTORE PUSH1 0x40 DUP2 KECCAK256 SLOAD PUSH2 0x1220 JUMPI POP DUP2 SLOAD PUSH1 0x1 DUP2 DUP2 ADD DUP5 SSTORE PUSH1 0x0 DUP5 DUP2 MSTORE PUSH1 0x20 DUP1 DUP3 KECCAK256 SWAP1 SWAP4 ADD DUP5 SWAP1 SSTORE DUP5 SLOAD DUP5 DUP3 MSTORE DUP3 DUP7 ADD SWAP1 SWAP4 MSTORE PUSH1 0x40 SWAP1 KECCAK256 SWAP2 SWAP1 SWAP2 SSTORE PUSH2 0x40E JUMP JUMPDEST POP PUSH1 0x0 PUSH2 0x40E JUMP JUMPDEST PUSH1 0x0 DUP2 DUP2 MSTORE PUSH1 0x1 DUP4 ADD PUSH1 0x20 MSTORE PUSH1 0x40 DUP2 KECCAK256 SLOAD DUP1 ISZERO PUSH2 0x1311 JUMPI PUSH1 0x0 PUSH2 0x124C PUSH1 0x1 DUP4 PUSH2 0x159E JUMP JUMPDEST DUP6 SLOAD SWAP1 SWAP2 POP PUSH1 0x0 SWAP1 PUSH2 0x1260 SWAP1 PUSH1 0x1 SWAP1 PUSH2 0x159E JUMP JUMPDEST SWAP1 POP DUP2 DUP2 EQ PUSH2 0x12C5 JUMPI PUSH1 0x0 DUP7 PUSH1 0x0 ADD DUP3 DUP2 SLOAD DUP2 LT PUSH2 0x1280 JUMPI PUSH2 0x1280 PUSH2 0x1538 JUMP JUMPDEST SWAP1 PUSH1 0x0 MSTORE PUSH1 0x20 PUSH1 0x0 KECCAK256 ADD SLOAD SWAP1 POP DUP1 DUP8 PUSH1 0x0 ADD DUP5 DUP2 SLOAD DUP2 LT PUSH2 0x12A3 JUMPI PUSH2 0x12A3 PUSH2 0x1538 JUMP JUMPDEST PUSH1 0x0 SWAP2 DUP3 MSTORE PUSH1 0x20 DUP1 DUP4 KECCAK256 SWAP1 SWAP2 ADD SWAP3 SWAP1 SWAP3 SSTORE SWAP2 DUP3 MSTORE PUSH1 0x1 DUP9 ADD SWAP1 MSTORE PUSH1 0x40 SWAP1 KECCAK256 DUP4 SWAP1 SSTORE JUMPDEST DUP6 SLOAD DUP7 SWAP1 DUP1 PUSH2 0x12D6 JUMPI PUSH2 0x12D6 PUSH2 0x178F JUMP JUMPDEST PUSH1 0x1 SWAP1 SUB DUP2 DUP2 SWAP1 PUSH1 0x0 MSTORE PUSH1 0x20 PUSH1 0x0 KECCAK256 ADD PUSH1 0x0 SWAP1 SSTORE SWAP1 SSTORE DUP6 PUSH1 0x1 ADD PUSH1 0x0 DUP7 DUP2 MSTORE PUSH1 0x20 ADD SWAP1 DUP2 MSTORE PUSH1 0x20 ADD PUSH1 0x0 KECCAK256 PUSH1 0x0 SWAP1 SSTORE PUSH1 0x1 SWAP4 POP POP POP POP PUSH2 0x40E JUMP JUMPDEST PUSH1 0x0 SWAP2 POP POP PUSH2 0x40E JUMP JUMPDEST PUSH1 0x0 PUSH1 0x20 DUP3 DUP5 SUB SLT ISZERO PUSH2 0x132D JUMPI PUSH1 0x0 DUP1 REVERT JUMPDEST POP CALLDATALOAD SWAP2 SWAP1 POP JUMP JUMPDEST PUSH1 0x0 JUMPDEST DUP4 DUP2 LT ISZERO PUSH2 0x134F JUMPI DUP2 DUP2 ADD MLOAD DUP4 DUP3 ADD MSTORE PUSH1 0x20 ADD PUSH2 0x1337 JUMP JUMPDEST POP POP PUSH1 0x0 SWAP2 ADD MSTORE JUMP JUMPDEST PUSH1 0x0 DUP2 MLOAD DUP1 DUP5 MSTORE PUSH2 0x1370 DUP2 PUSH1 0x20 DUP7 ADD PUSH1 0x20 DUP7 ADD PUSH2 0x1334 JUMP JUMPDEST PUSH1 0x1F ADD PUSH1 0x1F NOT AND SWAP3 SWAP1 SWAP3 ADD PUSH1 0x20 ADD SWAP3 SWAP2 POP POP JUMP JUMPDEST PUSH1 0x20 DUP2 MSTORE PUSH1 0x0 PUSH2 0xB59 PUSH1 0x20 DUP4 ADD DUP5 PUSH2 0x1358 JUMP JUMPDEST PUSH1 0x20 DUP1 DUP3 MSTORE DUP3 MLOAD DUP3 DUP3 ADD DUP2 SWAP1 MSTORE PUSH1 0x0 SWAP2 SWAP1 DUP5 DUP3 ADD SWAP1 PUSH1 0x40 DUP6 ADD SWAP1 DUP5 JUMPDEST DUP2 DUP2 LT ISZERO PUSH2 0x13D8 JUMPI DUP4 MLOAD PUSH1 0x1 PUSH1 0x1 PUSH1 0xA0 SHL SUB AND DUP4 MSTORE SWAP3 DUP5 ADD SWAP3 SWAP2 DUP5 ADD SWAP2 PUSH1 0x1 ADD PUSH2 0x13B3 JUMP JUMPDEST POP SWAP1 SWAP7 SWAP6 POP POP POP POP POP POP JUMP JUMPDEST DUP1 CALLDATALOAD PUSH1 0x1 PUSH1 0x1 PUSH1 0xA0 SHL SUB DUP2 AND DUP2 EQ PUSH2 0x13FB JUMPI PUSH1 0x0 DUP1 REVERT JUMPDEST SWAP2 SWAP1 POP JUMP JUMPDEST PUSH1 0x0 PUSH1 0x20 DUP3 DUP5 SUB SLT ISZERO PUSH2 0x1412 JUMPI PUSH1 0x0 DUP1 REVERT JUMPDEST PUSH2 0xB59 DUP3 PUSH2 0x13E4 JUMP JUMPDEST PUSH4 0x4E487B71 PUSH1 0xE0 SHL PUSH1 0x0 MSTORE PUSH1 0x41 PUSH1 0x4 MSTORE PUSH1 0x24 PUSH1 0x0 REVERT JUMPDEST PUSH1 0x0 DUP1 PUSH1 0x40 DUP4 DUP6 SUB SLT ISZERO PUSH2 0x1444 JUMPI PUSH1 0x0 DUP1 REVERT JUMPDEST PUSH2 0x144D DUP4 PUSH2 0x13E4 JUMP JUMPDEST SWAP2 POP PUSH1 0x20 DUP4 ADD CALLDATALOAD PUSH8 0xFFFFFFFFFFFFFFFF DUP1 DUP3 GT ISZERO PUSH2 0x146A JUMPI PUSH1 0x0 DUP1 REVERT JUMPDEST DUP2 DUP6 ADD SWAP2 POP DUP6 PUSH1 0x1F DUP4 ADD SLT PUSH2 0x147E JUMPI PUSH1 0x0 DUP1 REVERT JUMPDEST DUP2 CALLDATALOAD DUP2 DUP2 GT ISZERO PUSH2 0x1490 JUMPI PUSH2 0x1490 PUSH2 0x141B JUMP JUMPDEST PUSH1 0x40 MLOAD PUSH1 0x1F DUP3 ADD PUSH1 0x1F NOT SWAP1 DUP2 AND PUSH1 0x3F ADD AND DUP2 ADD SWAP1 DUP4 DUP3 GT DUP2 DUP4 LT OR ISZERO PUSH2 0x14B8 JUMPI PUSH2 0x14B8 PUSH2 0x141B JUMP JUMPDEST DUP2 PUSH1 0x40 MSTORE DUP3 DUP2 MSTORE DUP9 PUSH1 0x20 DUP5 DUP8 ADD ADD GT ISZERO PUSH2 0x14D1 JUMPI PUSH1 0x0 DUP1 REVERT JUMPDEST DUP3 PUSH1 0x20 DUP7 ADD PUSH1 0x20 DUP4 ADD CALLDATACOPY PUSH1 0x0 PUSH1 0x20 DUP5 DUP4 ADD ADD MSTORE DUP1 SWAP6 POP POP POP POP POP POP SWAP3 POP SWAP3 SWAP1 POP JUMP JUMPDEST PUSH1 0x0 DUP1 PUSH1 0x40 DUP4 DUP6 SUB SLT ISZERO PUSH2 0x1506 JUMPI PUSH1 0x0 DUP1 REVERT JUMPDEST POP POP DUP1 CALLDATALOAD SWAP3 PUSH1 0x20 SWAP1 SWAP2 ADD CALLDATALOAD SWAP2 POP JUMP JUMPDEST DUP3 ISZERO ISZERO DUP2 MSTORE PUSH1 0x40 PUSH1 0x20 DUP3 ADD MSTORE PUSH1 0x0 PUSH2 0x1530 PUSH1 0x40 DUP4 ADD DUP5 PUSH2 0x1358 JUMP JUMPDEST SWAP5 SWAP4 POP POP POP POP JUMP JUMPDEST PUSH4 0x4E487B71 PUSH1 0xE0 SHL PUSH1 0x0 MSTORE PUSH1 0x32 PUSH1 0x4 MSTORE PUSH1 0x24 PUSH1 0x0 REVERT JUMPDEST PUSH1 0x1 DUP2 DUP2 SHR SWAP1 DUP3 AND DUP1 PUSH2 0x1562 JUMPI PUSH1 0x7F DUP3 AND SWAP2 POP JUMPDEST PUSH1 0x20 DUP3 LT DUP2 SUB PUSH2 0x1582 JUMPI PUSH4 0x4E487B71 PUSH1 0xE0 SHL PUSH1 0x0 MSTORE PUSH1 0x22 PUSH1 0x4 MSTORE PUSH1 0x24 PUSH1 0x0 REVERT JUMPDEST POP SWAP2 SWAP1 POP JUMP JUMPDEST PUSH4 0x4E487B71 PUSH1 0xE0 SHL PUSH1 0x0 MSTORE PUSH1 0x11 PUSH1 0x4 MSTORE PUSH1 0x24 PUSH1 0x0 REVERT JUMPDEST DUP2 DUP2 SUB DUP2 DUP2 GT ISZERO PUSH2 0x40E JUMPI PUSH2 0x40E PUSH2 0x1588 JUMP JUMPDEST PUSH1 0x20 DUP1 DUP3 MSTORE PUSH1 0x2E SWAP1 DUP3 ADD MSTORE PUSH32 0x4661636574456D657267656E6379436F6E736F6C653A206F6E6C7920656D6572 PUSH1 0x40 DUP3 ADD MSTORE PUSH14 0x33B2B731BC9037B832B930BA37B9 PUSH1 0x91 SHL PUSH1 0x60 DUP3 ADD MSTORE PUSH1 0x80 ADD SWAP1 JUMP JUMPDEST PUSH1 0x1F DUP3 GT ISZERO PUSH2 0x1649 JUMPI PUSH1 0x0 DUP2 DUP2 MSTORE PUSH1 0x20 DUP2 KECCAK256 PUSH1 0x1F DUP6 ADD PUSH1 0x5 SHR DUP2 ADD PUSH1 0x20 DUP7 LT ISZERO PUSH2 0x1626 JUMPI POP DUP1 JUMPDEST PUSH1 0x1F DUP6 ADD PUSH1 0x5 SHR DUP3 ADD SWAP2 POP JUMPDEST DUP2 DUP2 LT ISZERO PUSH2 0x1645 JUMPI DUP3 DUP2 SSTORE PUSH1 0x1 ADD PUSH2 0x1632 JUMP JUMPDEST POP POP POP JUMPDEST POP POP POP JUMP JUMPDEST DUP2 MLOAD PUSH8 0xFFFFFFFFFFFFFFFF DUP2 GT ISZERO PUSH2 0x1668 JUMPI PUSH2 0x1668 PUSH2 0x141B JUMP JUMPDEST PUSH2 0x167C DUP2 PUSH2 0x1676 DUP5 SLOAD PUSH2 0x154E JUMP JUMPDEST DUP5 PUSH2 0x15FF JUMP JUMPDEST PUSH1 0x20 DUP1 PUSH1 0x1F DUP4 GT PUSH1 0x1 DUP2 EQ PUSH2 0x16B1 JUMPI PUSH1 0x0 DUP5 ISZERO PUSH2 0x1699 JUMPI POP DUP6 DUP4 ADD MLOAD JUMPDEST PUSH1 0x0 NOT PUSH1 0x3 DUP7 SWAP1 SHL SHR NOT AND PUSH1 0x1 DUP6 SWAP1 SHL OR DUP6 SSTORE PUSH2 0x1645 JUMP JUMPDEST PUSH1 0x0 DUP6 DUP2 MSTORE PUSH1 0x20 DUP2 KECCAK256 PUSH1 0x1F NOT DUP7 AND SWAP2 JUMPDEST DUP3 DUP2 LT ISZERO PUSH2 0x16E0 JUMPI DUP9 DUP7 ADD MLOAD DUP3 SSTORE SWAP5 DUP5 ADD SWAP5 PUSH1 0x1 SWAP1 SWAP2 ADD SWAP1 DUP5 ADD PUSH2 0x16C1 JUMP JUMPDEST POP DUP6 DUP3 LT ISZERO PUSH2 0x16FE JUMPI DUP8 DUP6 ADD MLOAD PUSH1 0x0 NOT PUSH1 0x3 DUP9 SWAP1 SHL PUSH1 0xF8 AND SHR NOT AND DUP2 SSTORE JUMPDEST POP POP POP POP POP PUSH1 0x1 SWAP1 DUP2 SHL ADD SWAP1 SSTORE POP JUMP JUMPDEST PUSH1 0x0 PUSH1 0x1 DUP3 ADD PUSH2 0x1720 JUMPI PUSH2 0x1720 PUSH2 0x1588 JUMP JUMPDEST POP PUSH1 0x1 ADD SWAP1 JUMP JUMPDEST PUSH1 0x0 DUP3 MLOAD PUSH2 0x1739 DUP2 DUP5 PUSH1 0x20 DUP8 ADD PUSH2 0x1334 JUMP JUMPDEST SWAP2 SWAP1 SWAP2 ADD SWAP3 SWAP2 POP POP JUMP JUMPDEST DUP1 DUP3 ADD DUP1 DUP3 GT ISZERO PUSH2 0x40E JUMPI PUSH2 0x40E PUSH2 0x1588 JUMP JUMPDEST DUP1 DUP3 MUL DUP2 ISZERO DUP3 DUP3 DIV DUP5 EQ OR PUSH2 0x40E JUMPI PUSH2 0x40E PUSH2 0x1588 JUMP JUMPDEST PUSH1 0x0 DUP3 PUSH2 0x178A JUMPI PUSH4 0x4E487B71 PUSH1 0xE0 SHL PUSH1 0x0 MSTORE PUSH1 0x12 PUSH1 0x4 MSTORE PUSH1 0x24 PUSH1 0x0 REVERT JUMPDEST POP DIV SWAP1 JUMP JUMPDEST PUSH4 0x4E487B71 PUSH1 0xE0 SHL PUSH1 0x0 MSTORE PUSH1 0x31 PUSH1 0x4 MSTORE PUSH1 0x24 PUSH1 0x0 REVERT INVALID LOG2 PUSH5 0x6970667358 0x22 SLT KECCAK256 JUMPI PUSH19 0xF5444852795B13D210CE98F74B0385B6E4CC83 0xCF 0xD7 0x21 SUB MSTORE 0xCB 0xB1 SGT JUMPI 0xE6 PUSH27 0x64736F6C6343000813003300000000000000000000000000000000 "
		},
		"gasEstimates": {
			"creation": {
				"codeDepositCost": "1221400",
				"executionCost": "1268",
				"totalCost": "1222668"
			},
			"external": {
				"____grantRoleEmergencyOperator(address)": "infinite",
				"____revokeRoleEmergencyOperator(address)": "infinite",
				"____setEmergencyRequiredSignatures(uint256)": "infinite",
				"____setEmergencyTimelock(uint256)": "infinite",
				"emergencyOperator(uint256)": "4792",
				"emergencyOperators()": "infinite",
				"emergencyRequest(address,bytes)": "infinite",
				"emergencyRequestHasBeenExecuted(uint256)": "4691",
				"executeEmergencyRequest(uint256)": "infinite",
				"getCurrentEmergencyRequestId()": "2471",
				"getEmergencyRequestArgs(uint256)": "infinite",
				"getEmergencyRequestDuration(uint256)": "4650",
				"getEmergencyRequestExpectedSigner(uint256,uint256)": "infinite",
				"getEmergencyRequestExpectedSigners(uint256)": "infinite",
				"getEmergencyRequestRequiredSignatures(uint256)": "4717",
				"getEmergencyRequestStartTimestamp(uint256)": "4715",
				"getEmergencyRequestTarget(uint256)": "4716",
				"getEmergencySignature(uint256,uint256)": "infinite",
				"getEmergencySignatures(uint256)": "infinite",
				"signEmergencyRequest(uint256)": "infinite"
			},
			"internal": {
				"_onlySelf()": "infinite"
			}
		},
		"methodIdentifiers": {
			"____grantRoleEmergencyOperator(address)": "3e46d27b",
			"____revokeRoleEmergencyOperator(address)": "71dedccf",
			"____setEmergencyRequiredSignatures(uint256)": "48d7b567",
			"____setEmergencyTimelock(uint256)": "7526c09a",
			"emergencyOperator(uint256)": "166e34dd",
			"emergencyOperators()": "56db323b",
			"emergencyRequest(address,bytes)": "797ae568",
			"emergencyRequestHasBeenExecuted(uint256)": "0792ac9e",
			"executeEmergencyRequest(uint256)": "ce71d4bc",
			"getCurrentEmergencyRequestId()": "65fd04fb",
			"getEmergencyRequestArgs(uint256)": "0548dd96",
			"getEmergencyRequestDuration(uint256)": "62d7f1b2",
			"getEmergencyRequestExpectedSigner(uint256,uint256)": "7e7b7ccf",
			"getEmergencyRequestExpectedSigners(uint256)": "51f2aa47",
			"getEmergencyRequestRequiredSignatures(uint256)": "348f3a0e",
			"getEmergencyRequestStartTimestamp(uint256)": "c3d511e9",
			"getEmergencyRequestTarget(uint256)": "85b2c065",
			"getEmergencySignature(uint256,uint256)": "ac6193c5",
			"getEmergencySignatures(uint256)": "366c7c2f",
			"signEmergencyRequest(uint256)": "579d9f0c"
		}
	},
	"abi": [
		{
			"anonymous": false,
			"inputs": [
				{
					"indexed": true,
					"internalType": "uint256",
					"name": "requestId",
					"type": "uint256"
				}
			],
			"name": "EmergencyRequestPassed",
			"type": "event"
		},
		{
			"anonymous": false,
			"inputs": [
				{
					"indexed": true,
					"internalType": "uint256",
					"name": "requestId",
					"type": "uint256"
				},
				{
					"indexed": true,
					"internalType": "address",
					"name": "signer",
					"type": "address"
				}
			],
			"name": "EmergencyRequestSigned",
			"type": "event"
		},
		{
			"anonymous": false,
			"inputs": [
				{
					"indexed": true,
					"internalType": "uint256",
					"name": "oldRequiredSignatures",
					"type": "uint256"
				},
				{
					"indexed": true,
					"internalType": "uint256",
					"name": "newRequiredSignatures",
					"type": "uint256"
				}
			],
			"name": "EmergencyRequiredSignaturesChanged",
			"type": "event"
		},
		{
			"anonymous": false,
			"inputs": [
				{
					"indexed": true,
					"internalType": "uint256",
					"name": "oldTimelockSeconds",
					"type": "uint256"
				},
				{
					"indexed": true,
					"internalType": "uint256",
					"name": "newTimelockSeconds",
					"type": "uint256"
				}
			],
			"name": "EmergencyTimelockChanged",
			"type": "event"
		},
		{
			"anonymous": false,
			"inputs": [
				{
					"indexed": true,
					"internalType": "uint256",
					"name": "requestId",
					"type": "uint256"
				},
				{
					"indexed": true,
					"internalType": "address",
					"name": "to",
					"type": "address"
				},
				{
					"indexed": true,
					"internalType": "bytes",
					"name": "args",
					"type": "bytes"
				}
			],
			"name": "NewEmergencyRequest",
			"type": "event"
		},
		{
			"anonymous": false,
			"inputs": [
				{
					"indexed": true,
					"internalType": "address",
					"name": "account",
					"type": "address"
				}
			],
			"name": "RoleGrantedEmergencyOperator",
			"type": "event"
		},
		{
			"anonymous": false,
			"inputs": [
				{
					"indexed": true,
					"internalType": "address",
					"name": "account",
					"type": "address"
				}
			],
			"name": "RoleRevokedEmergencyOperator",
			"type": "event"
		},
		{
			"inputs": [
				{
					"internalType": "address",
					"name": "account",
					"type": "address"
				}
			],
			"name": "____grantRoleEmergencyOperator",
			"outputs": [],
			"stateMutability": "nonpayable",
			"type": "function"
		},
		{
			"inputs": [
				{
					"internalType": "address",
					"name": "account",
					"type": "address"
				}
			],
			"name": "____revokeRoleEmergencyOperator",
			"outputs": [],
			"stateMutability": "nonpayable",
			"type": "function"
		},
		{
			"inputs": [
				{
					"internalType": "uint256",
					"name": "newRequiredSignatures",
					"type": "uint256"
				}
			],
			"name": "____setEmergencyRequiredSignatures",
			"outputs": [],
			"stateMutability": "nonpayable",
			"type": "function"
		},
		{
			"inputs": [
				{
					"internalType": "uint256",
					"name": "newTimelockSeconds",
					"type": "uint256"
				}
			],
			"name": "____setEmergencyTimelock",
			"outputs": [],
			"stateMutability": "nonpayable",
			"type": "function"
		},
		{
			"inputs": [
				{
					"internalType": "uint256",
					"name": "operatorId",
					"type": "uint256"
				}
			],
			"name": "emergencyOperator",
			"outputs": [
				{
					"internalType": "address",
					"name": "",
					"type": "address"
				}
			],
			"stateMutability": "view",
			"type": "function"
		},
		{
			"inputs": [],
			"name": "emergencyOperators",
			"outputs": [
				{
					"internalType": "address[]",
					"name": "",
					"type": "address[]"
				}
			],
			"stateMutability": "view",
			"type": "function"
		},
		{
			"inputs": [
				{
					"internalType": "address",
					"name": "to",
					"type": "address"
				},
				{
					"internalType": "bytes",
					"name": "args",
					"type": "bytes"
				}
			],
			"name": "emergencyRequest",
			"outputs": [
				{
					"internalType": "uint256",
					"name": "",
					"type": "uint256"
				}
			],
			"stateMutability": "nonpayable",
			"type": "function"
		},
		{
			"inputs": [
				{
					"internalType": "uint256",
					"name": "requestId",
					"type": "uint256"
				}
			],
			"name": "emergencyRequestHasBeenExecuted",
			"outputs": [
				{
					"internalType": "bool",
					"name": "",
					"type": "bool"
				}
			],
			"stateMutability": "view",
			"type": "function"
		},
		{
			"inputs": [
				{
					"internalType": "uint256",
					"name": "requestId",
					"type": "uint256"
				}
			],
			"name": "executeEmergencyRequest",
			"outputs": [
				{
					"internalType": "bool",
					"name": "",
					"type": "bool"
				},
				{
					"internalType": "bytes",
					"name": "",
					"type": "bytes"
				}
			],
			"stateMutability": "nonpayable",
			"type": "function"
		},
		{
			"inputs": [],
			"name": "getCurrentEmergencyRequestId",
			"outputs": [
				{
					"internalType": "uint256",
					"name": "",
					"type": "uint256"
				}
			],
			"stateMutability": "view",
			"type": "function"
		},
		{
			"inputs": [
				{
					"internalType": "uint256",
					"name": "requestId",
					"type": "uint256"
				}
			],
			"name": "getEmergencyRequestArgs",
			"outputs": [
				{
					"internalType": "bytes",
					"name": "",
					"type": "bytes"
				}
			],
			"stateMutability": "view",
			"type": "function"
		},
		{
			"inputs": [
				{
					"internalType": "uint256",
					"name": "requestId",
					"type": "uint256"
				}
			],
			"name": "getEmergencyRequestDuration",
			"outputs": [
				{
					"internalType": "uint256",
					"name": "",
					"type": "uint256"
				}
			],
			"stateMutability": "view",
			"type": "function"
		},
		{
			"inputs": [
				{
					"internalType": "uint256",
					"name": "requestId",
					"type": "uint256"
				},
				{
					"internalType": "uint256",
					"name": "signerId",
					"type": "uint256"
				}
			],
			"name": "getEmergencyRequestExpectedSigner",
			"outputs": [
				{
					"internalType": "address",
					"name": "",
					"type": "address"
				}
			],
			"stateMutability": "view",
			"type": "function"
		},
		{
			"inputs": [
				{
					"internalType": "uint256",
					"name": "requestId",
					"type": "uint256"
				}
			],
			"name": "getEmergencyRequestExpectedSigners",
			"outputs": [
				{
					"internalType": "address[]",
					"name": "",
					"type": "address[]"
				}
			],
			"stateMutability": "view",
			"type": "function"
		},
		{
			"inputs": [
				{
					"internalType": "uint256",
					"name": "requestId",
					"type": "uint256"
				}
			],
			"name": "getEmergencyRequestRequiredSignatures",
			"outputs": [
				{
					"internalType": "uint256",
					"name": "",
					"type": "uint256"
				}
			],
			"stateMutability": "view",
			"type": "function"
		},
		{
			"inputs": [
				{
					"internalType": "uint256",
					"name": "requestId",
					"type": "uint256"
				}
			],
			"name": "getEmergencyRequestStartTimestamp",
			"outputs": [
				{
					"internalType": "uint256",
					"name": "",
					"type": "uint256"
				}
			],
			"stateMutability": "view",
			"type": "function"
		},
		{
			"inputs": [
				{
					"internalType": "uint256",
					"name": "requestId",
					"type": "uint256"
				}
			],
			"name": "getEmergencyRequestTarget",
			"outputs": [
				{
					"internalType": "address",
					"name": "",
					"type": "address"
				}
			],
			"stateMutability": "view",
			"type": "function"
		},
		{
			"inputs": [
				{
					"internalType": "uint256",
					"name": "requestId",
					"type": "uint256"
				},
				{
					"internalType": "uint256",
					"name": "signatureId",
					"type": "uint256"
				}
			],
			"name": "getEmergencySignature",
			"outputs": [
				{
					"internalType": "address",
					"name": "",
					"type": "address"
				}
			],
			"stateMutability": "view",
			"type": "function"
		},
		{
			"inputs": [
				{
					"internalType": "uint256",
					"name": "requestId",
					"type": "uint256"
				}
			],
			"name": "getEmergencySignatures",
			"outputs": [
				{
					"internalType": "address[]",
					"name": "",
					"type": "address[]"
				}
			],
			"stateMutability": "view",
			"type": "function"
		},
		{
			"inputs": [
				{
					"internalType": "uint256",
					"name": "requestId",
					"type": "uint256"
				}
			],
			"name": "signEmergencyRequest",
			"outputs": [],
			"stateMutability": "nonpayable",
			"type": "function"
		}
	]
}