{
	"data": {
		"bytecode": {
			"linkReferences": {},
			"object": "608060405234801561001057600080fd5b50610538806100206000396000f3fe608060405234801561001057600080fd5b506004361061007d5760003560e01c806382a3abac1161005b57806382a3abac146100d057806394abc1af146100de578063ce49c9b314610109578063d1a7092c1461012c57600080fd5b80630bd417c6146100825780631128ea3b14610097578063179dff70146100bd575b600080fd5b61009561009036600461042d565b61013f565b005b6100aa6100a536600461042d565b6101a6565b6040519081526020015b60405180910390f35b6100956100cb36600461042d565b610229565b6100956100cb366004610451565b6100f16100ec36600461042d565b61028a565b6040516001600160a01b0390911681526020016100b4565b61011c61011736600461042d565b610307565b60405190151581526020016100b4565b6100aa61013a36600461042d565b610384565b6101476103c4565b6000805160206104e383398151915280546001600160a01b038381166001600160a01b0319831681179093556040519116919082907f3aafa56ab467c7695d1e3786e07f690232fe396563837433265bf5dade7f97eb90600090a35050565b6000805160206104e383398151915254604051631128ea3b60e01b81526001600160a01b0383811660048301526000921690631128ea3b906024015b602060405180830381865afa1580156101ff573d6000803e3d6000fd5b505050506040513d601f19601f82011682018060405250810190610223919061048a565b92915050565b6102316103c4565b60405162461bcd60e51b8152602060048201526024808201527f4661636574436861696e6c696e6b4f7261636c655265616465723a2064697361604482015263189b195960e21b60648201526084015b60405180910390fd5b60006000805160206104e3833981519152546040516394abc1af60e01b81526001600160a01b038481166004830152909116906394abc1af90602401602060405180830381865afa1580156102e3573d6000803e3d6000fd5b505050506040513d601f19601f8201168201806040525081019061022391906104a3565b60006000805160206104e38339815191525460405163ce49c9b360e01b81526001600160a01b0384811660048301529091169063ce49c9b390602401602060405180830381865afa158015610360573d6000803e3d6000fd5b505050506040513d601f19601f8201168201806040525081019061022391906104c0565b6000805160206104e383398151915254604051633469c24b60e21b81526001600160a01b038381166004830152600092169063d1a7092c906024016101e2565b3330146104135760405162461bcd60e51b815260206004820152601f60248201527f4661636574436861696e6c696e6b4f7261636c653a206f6e6c792073656c66006044820152606401610281565b565b6001600160a01b038116811461042a57600080fd5b50565b60006020828403121561043f57600080fd5b813561044a81610415565b9392505050565b6000806040838503121561046457600080fd5b823561046f81610415565b9150602083013561047f81610415565b809150509250929050565b60006020828403121561049c57600080fd5b5051919050565b6000602082840312156104b557600080fd5b815161044a81610415565b6000602082840312156104d257600080fd5b8151801515811461044a57600080fdfe1afb9ad24ea5a157932c7de28be008c2c656ace98c613114e59766ed08f9b639a2646970667358221220107c8a024b21dd380721b48581424a549642cec3f84b3779e1659ee0a26735ca64736f6c63430008130033",
			"opcodes": "PUSH1 0x80 PUSH1 0x40 MSTORE CALLVALUE DUP1 ISZERO PUSH2 0x10 JUMPI PUSH1 0x0 DUP1 REVERT JUMPDEST POP PUSH2 0x538 DUP1 PUSH2 0x20 PUSH1 0x0 CODECOPY PUSH1 0x0 RETURN INVALID PUSH1 0x80 PUSH1 0x40 MSTORE CALLVALUE DUP1 ISZERO PUSH2 0x10 JUMPI PUSH1 0x0 DUP1 REVERT JUMPDEST POP PUSH1 0x4 CALLDATASIZE LT PUSH2 0x7D JUMPI PUSH1 0x0 CALLDATALOAD PUSH1 0xE0 SHR DUP1 PUSH4 0x82A3ABAC GT PUSH2 0x5B JUMPI DUP1 PUSH4 0x82A3ABAC EQ PUSH2 0xD0 JUMPI DUP1 PUSH4 0x94ABC1AF EQ PUSH2 0xDE JUMPI DUP1 PUSH4 0xCE49C9B3 EQ PUSH2 0x109 JUMPI DUP1 PUSH4 0xD1A7092C EQ PUSH2 0x12C JUMPI PUSH1 0x0 DUP1 REVERT JUMPDEST DUP1 PUSH4 0xBD417C6 EQ PUSH2 0x82 JUMPI DUP1 PUSH4 0x1128EA3B EQ PUSH2 0x97 JUMPI DUP1 PUSH4 0x179DFF70 EQ PUSH2 0xBD JUMPI JUMPDEST PUSH1 0x0 DUP1 REVERT JUMPDEST PUSH2 0x95 PUSH2 0x90 CALLDATASIZE PUSH1 0x4 PUSH2 0x42D JUMP JUMPDEST PUSH2 0x13F JUMP JUMPDEST STOP JUMPDEST PUSH2 0xAA PUSH2 0xA5 CALLDATASIZE PUSH1 0x4 PUSH2 0x42D JUMP JUMPDEST PUSH2 0x1A6 JUMP JUMPDEST PUSH1 0x40 MLOAD SWAP1 DUP2 MSTORE PUSH1 0x20 ADD JUMPDEST PUSH1 0x40 MLOAD DUP1 SWAP2 SUB SWAP1 RETURN JUMPDEST PUSH2 0x95 PUSH2 0xCB CALLDATASIZE PUSH1 0x4 PUSH2 0x42D JUMP JUMPDEST PUSH2 0x229 JUMP JUMPDEST PUSH2 0x95 PUSH2 0xCB CALLDATASIZE PUSH1 0x4 PUSH2 0x451 JUMP JUMPDEST PUSH2 0xF1 PUSH2 0xEC CALLDATASIZE PUSH1 0x4 PUSH2 0x42D JUMP JUMPDEST PUSH2 0x28A JUMP JUMPDEST PUSH1 0x40 MLOAD PUSH1 0x1 PUSH1 0x1 PUSH1 0xA0 SHL SUB SWAP1 SWAP2 AND DUP2 MSTORE PUSH1 0x20 ADD PUSH2 0xB4 JUMP JUMPDEST PUSH2 0x11C PUSH2 0x117 CALLDATASIZE PUSH1 0x4 PUSH2 0x42D JUMP JUMPDEST PUSH2 0x307 JUMP JUMPDEST PUSH1 0x40 MLOAD SWAP1 ISZERO ISZERO DUP2 MSTORE PUSH1 0x20 ADD PUSH2 0xB4 JUMP JUMPDEST PUSH2 0xAA PUSH2 0x13A CALLDATASIZE PUSH1 0x4 PUSH2 0x42D JUMP JUMPDEST PUSH2 0x384 JUMP JUMPDEST PUSH2 0x147 PUSH2 0x3C4 JUMP JUMPDEST PUSH1 0x0 DUP1 MLOAD PUSH1 0x20 PUSH2 0x4E3 DUP4 CODECOPY DUP2 MLOAD SWAP2 MSTORE DUP1 SLOAD PUSH1 0x1 PUSH1 0x1 PUSH1 0xA0 SHL SUB DUP4 DUP2 AND PUSH1 0x1 PUSH1 0x1 PUSH1 0xA0 SHL SUB NOT DUP4 AND DUP2 OR SWAP1 SWAP4 SSTORE PUSH1 0x40 MLOAD SWAP2 AND SWAP2 SWAP1 DUP3 SWAP1 PUSH32 0x3AAFA56AB467C7695D1E3786E07F690232FE396563837433265BF5DADE7F97EB SWAP1 PUSH1 0x0 SWAP1 LOG3 POP POP JUMP JUMPDEST PUSH1 0x0 DUP1 MLOAD PUSH1 0x20 PUSH2 0x4E3 DUP4 CODECOPY DUP2 MLOAD SWAP2 MSTORE SLOAD PUSH1 0x40 MLOAD PUSH4 0x1128EA3B PUSH1 0xE0 SHL DUP2 MSTORE PUSH1 0x1 PUSH1 0x1 PUSH1 0xA0 SHL SUB DUP4 DUP2 AND PUSH1 0x4 DUP4 ADD MSTORE PUSH1 0x0 SWAP3 AND SWAP1 PUSH4 0x1128EA3B SWAP1 PUSH1 0x24 ADD JUMPDEST PUSH1 0x20 PUSH1 0x40 MLOAD DUP1 DUP4 SUB DUP2 DUP7 GAS STATICCALL ISZERO DUP1 ISZERO PUSH2 0x1FF JUMPI RETURNDATASIZE PUSH1 0x0 DUP1 RETURNDATACOPY RETURNDATASIZE PUSH1 0x0 REVERT JUMPDEST POP POP POP POP PUSH1 0x40 MLOAD RETURNDATASIZE PUSH1 0x1F NOT PUSH1 0x1F DUP3 ADD AND DUP3 ADD DUP1 PUSH1 0x40 MSTORE POP DUP2 ADD SWAP1 PUSH2 0x223 SWAP2 SWAP1 PUSH2 0x48A JUMP JUMPDEST SWAP3 SWAP2 POP POP JUMP JUMPDEST PUSH2 0x231 PUSH2 0x3C4 JUMP JUMPDEST PUSH1 0x40 MLOAD PUSH3 0x461BCD PUSH1 0xE5 SHL DUP2 MSTORE PUSH1 0x20 PUSH1 0x4 DUP3 ADD MSTORE PUSH1 0x24 DUP1 DUP3 ADD MSTORE PUSH32 0x4661636574436861696E6C696E6B4F7261636C655265616465723A2064697361 PUSH1 0x44 DUP3 ADD MSTORE PUSH4 0x189B1959 PUSH1 0xE2 SHL PUSH1 0x64 DUP3 ADD MSTORE PUSH1 0x84 ADD JUMPDEST PUSH1 0x40 MLOAD DUP1 SWAP2 SUB SWAP1 REVERT JUMPDEST PUSH1 0x0 PUSH1 0x0 DUP1 MLOAD PUSH1 0x20 PUSH2 0x4E3 DUP4 CODECOPY DUP2 MLOAD SWAP2 MSTORE SLOAD PUSH1 0x40 MLOAD PUSH4 0x94ABC1AF PUSH1 0xE0 SHL DUP2 MSTORE PUSH1 0x1 PUSH1 0x1 PUSH1 0xA0 SHL SUB DUP5 DUP2 AND PUSH1 0x4 DUP4 ADD MSTORE SWAP1 SWAP2 AND SWAP1 PUSH4 0x94ABC1AF SWAP1 PUSH1 0x24 ADD PUSH1 0x20 PUSH1 0x40 MLOAD DUP1 DUP4 SUB DUP2 DUP7 GAS STATICCALL ISZERO DUP1 ISZERO PUSH2 0x2E3 JUMPI RETURNDATASIZE PUSH1 0x0 DUP1 RETURNDATACOPY RETURNDATASIZE PUSH1 0x0 REVERT JUMPDEST POP POP POP POP PUSH1 0x40 MLOAD RETURNDATASIZE PUSH1 0x1F NOT PUSH1 0x1F DUP3 ADD AND DUP3 ADD DUP1 PUSH1 0x40 MSTORE POP DUP2 ADD SWAP1 PUSH2 0x223 SWAP2 SWAP1 PUSH2 0x4A3 JUMP JUMPDEST PUSH1 0x0 PUSH1 0x0 DUP1 MLOAD PUSH1 0x20 PUSH2 0x4E3 DUP4 CODECOPY DUP2 MLOAD SWAP2 MSTORE SLOAD PUSH1 0x40 MLOAD PUSH4 0xCE49C9B3 PUSH1 0xE0 SHL DUP2 MSTORE PUSH1 0x1 PUSH1 0x1 PUSH1 0xA0 SHL SUB DUP5 DUP2 AND PUSH1 0x4 DUP4 ADD MSTORE SWAP1 SWAP2 AND SWAP1 PUSH4 0xCE49C9B3 SWAP1 PUSH1 0x24 ADD PUSH1 0x20 PUSH1 0x40 MLOAD DUP1 DUP4 SUB DUP2 DUP7 GAS STATICCALL ISZERO DUP1 ISZERO PUSH2 0x360 JUMPI RETURNDATASIZE PUSH1 0x0 DUP1 RETURNDATACOPY RETURNDATASIZE PUSH1 0x0 REVERT JUMPDEST POP POP POP POP PUSH1 0x40 MLOAD RETURNDATASIZE PUSH1 0x1F NOT PUSH1 0x1F DUP3 ADD AND DUP3 ADD DUP1 PUSH1 0x40 MSTORE POP DUP2 ADD SWAP1 PUSH2 0x223 SWAP2 SWAP1 PUSH2 0x4C0 JUMP JUMPDEST PUSH1 0x0 DUP1 MLOAD PUSH1 0x20 PUSH2 0x4E3 DUP4 CODECOPY DUP2 MLOAD SWAP2 MSTORE SLOAD PUSH1 0x40 MLOAD PUSH4 0x3469C24B PUSH1 0xE2 SHL DUP2 MSTORE PUSH1 0x1 PUSH1 0x1 PUSH1 0xA0 SHL SUB DUP4 DUP2 AND PUSH1 0x4 DUP4 ADD MSTORE PUSH1 0x0 SWAP3 AND SWAP1 PUSH4 0xD1A7092C SWAP1 PUSH1 0x24 ADD PUSH2 0x1E2 JUMP JUMPDEST CALLER ADDRESS EQ PUSH2 0x413 JUMPI PUSH1 0x40 MLOAD PUSH3 0x461BCD PUSH1 0xE5 SHL DUP2 MSTORE PUSH1 0x20 PUSH1 0x4 DUP3 ADD MSTORE PUSH1 0x1F PUSH1 0x24 DUP3 ADD MSTORE PUSH32 0x4661636574436861696E6C696E6B4F7261636C653A206F6E6C792073656C6600 PUSH1 0x44 DUP3 ADD MSTORE PUSH1 0x64 ADD PUSH2 0x281 JUMP JUMPDEST JUMP JUMPDEST PUSH1 0x1 PUSH1 0x1 PUSH1 0xA0 SHL SUB DUP2 AND DUP2 EQ PUSH2 0x42A JUMPI PUSH1 0x0 DUP1 REVERT JUMPDEST POP JUMP JUMPDEST PUSH1 0x0 PUSH1 0x20 DUP3 DUP5 SUB SLT ISZERO PUSH2 0x43F JUMPI PUSH1 0x0 DUP1 REVERT JUMPDEST DUP2 CALLDATALOAD PUSH2 0x44A DUP2 PUSH2 0x415 JUMP JUMPDEST SWAP4 SWAP3 POP POP POP JUMP JUMPDEST PUSH1 0x0 DUP1 PUSH1 0x40 DUP4 DUP6 SUB SLT ISZERO PUSH2 0x464 JUMPI PUSH1 0x0 DUP1 REVERT JUMPDEST DUP3 CALLDATALOAD PUSH2 0x46F DUP2 PUSH2 0x415 JUMP JUMPDEST SWAP2 POP PUSH1 0x20 DUP4 ADD CALLDATALOAD PUSH2 0x47F DUP2 PUSH2 0x415 JUMP JUMPDEST DUP1 SWAP2 POP POP SWAP3 POP SWAP3 SWAP1 POP JUMP JUMPDEST PUSH1 0x0 PUSH1 0x20 DUP3 DUP5 SUB SLT ISZERO PUSH2 0x49C JUMPI PUSH1 0x0 DUP1 REVERT JUMPDEST POP MLOAD SWAP2 SWAP1 POP JUMP JUMPDEST PUSH1 0x0 PUSH1 0x20 DUP3 DUP5 SUB SLT ISZERO PUSH2 0x4B5 JUMPI PUSH1 0x0 DUP1 REVERT JUMPDEST DUP2 MLOAD PUSH2 0x44A DUP2 PUSH2 0x415 JUMP JUMPDEST PUSH1 0x0 PUSH1 0x20 DUP3 DUP5 SUB SLT ISZERO PUSH2 0x4D2 JUMPI PUSH1 0x0 DUP1 REVERT JUMPDEST DUP2 MLOAD DUP1 ISZERO ISZERO DUP2 EQ PUSH2 0x44A JUMPI PUSH1 0x0 DUP1 REVERT INVALID BYTE 0xFB SWAP11 0xD2 0x4E 0xA5 LOG1 JUMPI SWAP4 0x2C PUSH30 0xE28BE008C2C656ACE98C613114E59766ED08F9B639A26469706673582212 KECCAK256 LT PUSH29 0x8A024B21DD380721B48581424A549642CEC3F84B3779E1659EE0A26735 0xCA PUSH5 0x736F6C6343 STOP ADDMOD SGT STOP CALLER "
		},
		"gasEstimates": {
			"creation": {
				"codeDepositCost": "267200",
				"executionCost": "306",
				"totalCost": "267506"
			},
			"external": {
				"____assignTokenToChainlinkPriceFeed(address,address)": "infinite",
				"____setChainlinkOracleReadingAddress(address)": "26181",
				"____unassignTokenToChainlinkPriceFeed(address)": "507",
				"getChainlinkLatestAnswer(address)": "infinite",
				"getChainlinkLatestTimestamp(address)": "infinite",
				"getChainlinkPriceFeed(address)": "infinite",
				"hasChainlinkPriceFeed(address)": "infinite"
			}
		},
		"methodIdentifiers": {
			"____assignTokenToChainlinkPriceFeed(address,address)": "82a3abac",
			"____setChainlinkOracleReadingAddress(address)": "0bd417c6",
			"____unassignTokenToChainlinkPriceFeed(address)": "179dff70",
			"getChainlinkLatestAnswer(address)": "d1a7092c",
			"getChainlinkLatestTimestamp(address)": "1128ea3b",
			"getChainlinkPriceFeed(address)": "94abc1af",
			"hasChainlinkPriceFeed(address)": "ce49c9b3"
		}
	},
	"abi": [
		{
			"anonymous": false,
			"inputs": [
				{
					"indexed": true,
					"internalType": "address",
					"name": "oldReadingAddress",
					"type": "address"
				},
				{
					"indexed": true,
					"internalType": "address",
					"name": "newReadingAddress",
					"type": "address"
				}
			],
			"name": "ChainlinkOracleReadingAddressChanged",
			"type": "event"
		},
		{
			"anonymous": false,
			"inputs": [
				{
					"indexed": true,
					"internalType": "address",
					"name": "token",
					"type": "address"
				},
				{
					"indexed": true,
					"internalType": "address",
					"name": "oldPriceFeed",
					"type": "address"
				},
				{
					"indexed": true,
					"internalType": "address",
					"name": "newPriceFeed",
					"type": "address"
				}
			],
			"name": "ChainlinkPriceFeedAssigned",
			"type": "event"
		},
		{
			"inputs": [
				{
					"internalType": "address",
					"name": "token",
					"type": "address"
				},
				{
					"internalType": "address",
					"name": "newPriceFeed",
					"type": "address"
				}
			],
			"name": "____assignTokenToChainlinkPriceFeed",
			"outputs": [],
			"stateMutability": "nonpayable",
			"type": "function"
		},
		{
			"inputs": [
				{
					"internalType": "address",
					"name": "newReadingAddress",
					"type": "address"
				}
			],
			"name": "____setChainlinkOracleReadingAddress",
			"outputs": [],
			"stateMutability": "nonpayable",
			"type": "function"
		},
		{
			"inputs": [
				{
					"internalType": "address",
					"name": "token",
					"type": "address"
				}
			],
			"name": "____unassignTokenToChainlinkPriceFeed",
			"outputs": [],
			"stateMutability": "nonpayable",
			"type": "function"
		},
		{
			"inputs": [
				{
					"internalType": "address",
					"name": "token",
					"type": "address"
				}
			],
			"name": "getChainlinkLatestAnswer",
			"outputs": [
				{
					"internalType": "uint256",
					"name": "",
					"type": "uint256"
				}
			],
			"stateMutability": "view",
			"type": "function"
		},
		{
			"inputs": [
				{
					"internalType": "address",
					"name": "token",
					"type": "address"
				}
			],
			"name": "getChainlinkLatestTimestamp",
			"outputs": [
				{
					"internalType": "uint256",
					"name": "",
					"type": "uint256"
				}
			],
			"stateMutability": "view",
			"type": "function"
		},
		{
			"inputs": [
				{
					"internalType": "address",
					"name": "token",
					"type": "address"
				}
			],
			"name": "getChainlinkPriceFeed",
			"outputs": [
				{
					"internalType": "address",
					"name": "",
					"type": "address"
				}
			],
			"stateMutability": "view",
			"type": "function"
		},
		{
			"inputs": [
				{
					"internalType": "address",
					"name": "token",
					"type": "address"
				}
			],
			"name": "hasChainlinkPriceFeed",
			"outputs": [
				{
					"internalType": "bool",
					"name": "",
					"type": "bool"
				}
			],
			"stateMutability": "view",
			"type": "function"
		}
	]
}