{
	"data": {
		"bytecode": {
			"linkReferences": {},
			"object": "608060405234801561001057600080fd5b5061156f806100206000396000f3fe608060405234801561001057600080fd5b50600436106101215760003560e01c80635439ad86116100ad578063a457c2d711610071578063a457c2d71461022b578063a9059cbb1461023e578063b74456f214610251578063dd62ed3e14610264578063e0089dc31461027757600080fd5b80635439ad86146101ed57806370a08231146101f557806395d89b41146102085780639711715a14610210578063981b24d01461021857600080fd5b806323b872dd116100f457806323b872dd14610192578063313ce567146101a557806339509351146101b457806349e7012c146101c75780634ee2cd7e146101da57600080fd5b806306fdde0314610126578063095ea7b31461014457806318160ddd146101675780631e96c1dd1461017d575b600080fd5b61012e61028a565b60405161013b9190611183565b60405180910390f35b6101576101523660046111cd565b610325565b604051901515815260200161013b565b61016f61033f565b60405190815260200161013b565b61019061018b36600461120d565b610352565b005b6101576101a03660046112be565b610462565b6040516012815260200161013b565b6101576101c23660046111cd565b610486565b6101906101d53660046112fa565b6104a8565b61016f6101e83660046111cd565b6104bd565b61016f610511565b61016f610203366004611313565b61052a565b61012e610553565b61016f61056b565b61016f6102263660046112fa565b6105ce565b6101576102393660046111cd565b610607565b61015761024c3660046111cd565b61068c565b61019061025f3660046112fa565b61069a565b61016f61027236600461132e565b6106ac565b61019061028536600461120d565b6106e6565b60606102946107f6565b60060180546102a290611361565b80601f01602080910402602001604051908101604052809291908181526020018280546102ce90611361565b801561031b5780601f106102f05761010080835404028352916020019161031b565b820191906000526020600020905b8154815290600101906020018083116102fe57829003601f168201915b5050505050905090565b60003361033381858561081a565b60019150505b92915050565b60006103496107f6565b60080154905090565b61035a61095a565b60006103646107f6565b600701805461037290611361565b80601f016020809104026020016040519081016040528092919081815260200182805461039e90611361565b80156103eb5780601f106103c0576101008083540402835291602001916103eb565b820191906000526020600020905b8154815290600101906020018083116103ce57829003601f168201915b50505050509050816103fb6107f6565b6007019061040990826113e9565b508160405161041891906114a9565b60405180910390208160405161042e91906114a9565b604051908190038120907f68023cab388c6052af3fa625f164cd0c14cc9125d57286fbe0d9b384847c4c0290600090a35050565b600033610470858285610997565b61047b858585610a1c565b506001949350505050565b60003361033381858561049983836106ac565b6104a391906114db565b61081a565b6104b061095a565b6104ba3382610c0c565b50565b60008060006104ef846104ce6107f6565b6001600160a01b038816600090815260029190910160205260409020610d03565b9150915081610506576105018561052a565b610508565b805b95945050505050565b600061052561051e6107f6565b6005015490565b905090565b60006105346107f6565b6001600160a01b03909216600090815260209290925250604090205490565b606061055d6107f6565b60070180546102a290611361565b60006105846105786107f6565b60050180546001019055565b600061058e610511565b90507f8030e83b04d87bef53480e26263266d6ca66863aa8506aca6f2559d18aa1cb67816040516105c191815260200190565b60405180910390a1919050565b60008060006105e7846105df6107f6565b600301610d03565b91509150816105fd576105f861033f565b6105ff565b805b949350505050565b6000338161061582866106ac565b90508381101561067f5760405162461bcd60e51b815260206004820152602a60248201527f4661636574546f6b656e3a2064656372656173656420616c6c6f77616e63652060448201526962656c6f77207a65726f60b01b60648201526084015b60405180910390fd5b61047b828686840361081a565b600033610333818585610a1c565b6106a261095a565b6104ba3382610df6565b60006106b66107f6565b6001600160a01b039384166000908152600191909101602090815260408083209490951682529290925250205490565b6106ee61095a565b60006106f86107f6565b600601805461070690611361565b80601f016020809104026020016040519081016040528092919081815260200182805461073290611361565b801561077f5780601f106107545761010080835404028352916020019161077f565b820191906000526020600020905b81548152906001019060200180831161076257829003601f168201915b505050505090508161078f6107f6565b6006019061079d90826113e9565b50816040516107ac91906114a9565b6040518091039020816040516107c291906114a9565b604051908190038120907fe08ba098c56583ff7ce264f98fb97b7ddc5e6af834acc0556b24327f72a555f990600090a35050565b7f667c0cf071c712f94f97f65a859cdaa470fe424825756c2cae5a4d1adcee538b90565b6001600160a01b0383166108825760405162461bcd60e51b815260206004820152602960248201527f4661636574546f6b656e3a20617070726f76652066726f6d20746865207a65726044820152686f206164647265737360b81b6064820152608401610676565b6001600160a01b0382166108e85760405162461bcd60e51b815260206004820152602760248201527f4661636574546f6b656e3a20617070726f766520746f20746865207a65726f206044820152666164647265737360c81b6064820152608401610676565b806108f16107f6565b6001600160a01b038581166000818152600193909301602090815260408085209388168086529382529384902094909455915184815290927f8c5be1e5ebec7d5bd14f71427d1e84f3dd0314c0f7b2291e5b200ac8c7c3b92591015b60405180910390a3505050565b3330146109955760405162461bcd60e51b815260206004820152600960248201526837b7363c9039b2b63360b91b6044820152606401610676565b565b60006109a384846106ac565b90506000198114610a165781811015610a095760405162461bcd60e51b815260206004820152602260248201527f4661636574546f6b656e3a20696e73756666696369656e7420616c6c6f77616e604482015261636560f01b6064820152608401610676565b610a16848484840361081a565b50505050565b6001600160a01b038316610a855760405162461bcd60e51b815260206004820152602a60248201527f4661636574546f6b656e3a207472616e736665722066726f6d20746865207a65604482015269726f206164647265737360b01b6064820152608401610676565b6001600160a01b038216610aec5760405162461bcd60e51b815260206004820152602860248201527f4661636574546f6b656e3a207472616e7366657220746f20746865207a65726f604482015267206164647265737360c01b6064820152608401610676565b610af7838383610f69565b6000610b016107f6565b6001600160a01b03851660009081526020919091526040902054905081811015610b815760405162461bcd60e51b815260206004820152602b60248201527f4661636574546f6b656e3a207472616e7366657220616d6f756e74206578636560448201526a6564732062616c616e636560a81b6064820152608401610676565b818103610b8c6107f6565b6001600160a01b0386166000908152602091909152604090205581610baf6107f6565b6001600160a01b03858116600081815260209384526040908190208054959095019094559251858152908716917fddf252ad1be2c89b69c2b068fc378daa952ba7f163c4a11628f55a4df523b3ef910160405180910390a3610a16565b6001600160a01b038216610c6e5760405162461bcd60e51b8152602060048201526024808201527f4661636574546f6b656e3a206d696e7420746f20746865207a65726f206164646044820152637265737360e01b6064820152608401610676565b610c7a60008383610f69565b80610c836107f6565b6008016000828254610c9591906114db565b90915550819050610ca46107f6565b6001600160a01b03841660008181526020929092526040808320805490940190935591517fddf252ad1be2c89b69c2b068fc378daa952ba7f163c4a11628f55a4df523b3ef90610cf79085815260200190565b60405180910390a35050565b60008060008411610d4c5760405162461bcd60e51b815260206004820152601360248201527204661636574546f6b656e3a206964206973203606c1b6044820152606401610676565b610d54610511565b841115610da35760405162461bcd60e51b815260206004820152601a60248201527f4661636574546f6b656e3a206e6f6e6578697374656e742069640000000000006044820152606401610676565b6000610daf8486610fb1565b84549091508103610dc7576000809250925050610def565b6001846001018281548110610dde57610dde6114ee565b906000526020600020015492509250505b9250929050565b6001600160a01b038216610e5b5760405162461bcd60e51b815260206004820152602660248201527f4661636574546f6b656e3a206275726e2066726f6d20746865207a65726f206160448201526564647265737360d01b6064820152608401610676565b610e6782600083610f69565b6000610e716107f6565b6001600160a01b03841660009081526020919091526040902054905081811015610eed5760405162461bcd60e51b815260206004820152602760248201527f4661636574546f6b656e3a206275726e20616d6f756e7420657863656564732060448201526662616c616e636560c81b6064820152608401610676565b818103610ef86107f6565b6001600160a01b0385166000908152602091909152604090205581610f1b6107f6565b60080180549190910390556040518281526000906001600160a01b038516907fddf252ad1be2c89b69c2b068fc378daa952ba7f163c4a11628f55a4df523b3ef9060200161094d565b505050565b6001600160a01b038316610f8857610f808261105e565b610f64611093565b6001600160a01b038216610f9f57610f808361105e565b610fa88361105e565b610f648261105e565b81546000908103610fc457506000610339565b82546000905b80821015611011576000610fde83836110a9565b60008781526020902090915085908201541115610ffd5780915061100b565b6110088160016114db565b92505b50610fca565b60008211801561103d57508361103a8661102c600186611504565b600091825260209091200190565b54145b156110565761104d600183611504565b92505050610339565b509050610339565b6104ba6110696107f6565b6001600160a01b03831660009081526002919091016020526040902061108e8361052a565b6110cb565b61099561109e6107f6565b60030161108e61033f565b60006110b86002848418611517565b6110c4908484166114db565b9392505050565b60006110d5610511565b9050806110e184611115565b1015610f64578254600180820185556000858152602080822090930193909355938401805494850181558252902090910155565b8054600090810361112857506000919050565b8154829061113890600190611504565b81548110611148576111486114ee565b90600052602060002001549050919050565b919050565b60005b8381101561117a578181015183820152602001611162565b50506000910152565b60208152600082518060208401526111a281604085016020870161115f565b601f01601f19169190910160400192915050565b80356001600160a01b038116811461115a57600080fd5b600080604083850312156111e057600080fd5b6111e9836111b6565b946020939093013593505050565b634e487b7160e01b600052604160045260246000fd5b60006020828403121561121f57600080fd5b813567ffffffffffffffff8082111561123757600080fd5b818401915084601f83011261124b57600080fd5b81358181111561125d5761125d6111f7565b604051601f8201601f19908116603f01168101908382118183101715611285576112856111f7565b8160405282815287602084870101111561129e57600080fd5b826020860160208301376000928101602001929092525095945050505050565b6000806000606084860312156112d357600080fd5b6112dc846111b6565b92506112ea602085016111b6565b9150604084013590509250925092565b60006020828403121561130c57600080fd5b5035919050565b60006020828403121561132557600080fd5b6110c4826111b6565b6000806040838503121561134157600080fd5b61134a836111b6565b9150611358602084016111b6565b90509250929050565b600181811c9082168061137557607f821691505b60208210810361139557634e487b7160e01b600052602260045260246000fd5b50919050565b601f821115610f6457600081815260208120601f850160051c810160208610156113c25750805b601f850160051c820191505b818110156113e1578281556001016113ce565b505050505050565b815167ffffffffffffffff811115611403576114036111f7565b611417816114118454611361565b8461139b565b602080601f83116001811461144c57600084156114345750858301515b600019600386901b1c1916600185901b1785556113e1565b600085815260208120601f198616915b8281101561147b5788860151825594840194600190910190840161145c565b50858210156114995787850151600019600388901b60f8161c191681555b5050505050600190811b01905550565b600082516114bb81846020870161115f565b9190910192915050565b634e487b7160e01b600052601160045260246000fd5b80820180821115610339576103396114c5565b634e487b7160e01b600052603260045260246000fd5b81810381811115610339576103396114c5565b60008261153457634e487b7160e01b600052601260045260246000fd5b50049056fea2646970667358221220b14b2778c0d2c2125a37ccb1fcea266a39077357974af641c6d8fe074b4a968f64736f6c63430008130033",
			"opcodes": "PUSH1 0x80 PUSH1 0x40 MSTORE CALLVALUE DUP1 ISZERO PUSH2 0x10 JUMPI PUSH1 0x0 DUP1 REVERT JUMPDEST POP PUSH2 0x156F DUP1 PUSH2 0x20 PUSH1 0x0 CODECOPY PUSH1 0x0 RETURN INVALID PUSH1 0x80 PUSH1 0x40 MSTORE CALLVALUE DUP1 ISZERO PUSH2 0x10 JUMPI PUSH1 0x0 DUP1 REVERT JUMPDEST POP PUSH1 0x4 CALLDATASIZE LT PUSH2 0x121 JUMPI PUSH1 0x0 CALLDATALOAD PUSH1 0xE0 SHR DUP1 PUSH4 0x5439AD86 GT PUSH2 0xAD JUMPI DUP1 PUSH4 0xA457C2D7 GT PUSH2 0x71 JUMPI DUP1 PUSH4 0xA457C2D7 EQ PUSH2 0x22B JUMPI DUP1 PUSH4 0xA9059CBB EQ PUSH2 0x23E JUMPI DUP1 PUSH4 0xB74456F2 EQ PUSH2 0x251 JUMPI DUP1 PUSH4 0xDD62ED3E EQ PUSH2 0x264 JUMPI DUP1 PUSH4 0xE0089DC3 EQ PUSH2 0x277 JUMPI PUSH1 0x0 DUP1 REVERT JUMPDEST DUP1 PUSH4 0x5439AD86 EQ PUSH2 0x1ED JUMPI DUP1 PUSH4 0x70A08231 EQ PUSH2 0x1F5 JUMPI DUP1 PUSH4 0x95D89B41 EQ PUSH2 0x208 JUMPI DUP1 PUSH4 0x9711715A EQ PUSH2 0x210 JUMPI DUP1 PUSH4 0x981B24D0 EQ PUSH2 0x218 JUMPI PUSH1 0x0 DUP1 REVERT JUMPDEST DUP1 PUSH4 0x23B872DD GT PUSH2 0xF4 JUMPI DUP1 PUSH4 0x23B872DD EQ PUSH2 0x192 JUMPI DUP1 PUSH4 0x313CE567 EQ PUSH2 0x1A5 JUMPI DUP1 PUSH4 0x39509351 EQ PUSH2 0x1B4 JUMPI DUP1 PUSH4 0x49E7012C EQ PUSH2 0x1C7 JUMPI DUP1 PUSH4 0x4EE2CD7E EQ PUSH2 0x1DA JUMPI PUSH1 0x0 DUP1 REVERT JUMPDEST DUP1 PUSH4 0x6FDDE03 EQ PUSH2 0x126 JUMPI DUP1 PUSH4 0x95EA7B3 EQ PUSH2 0x144 JUMPI DUP1 PUSH4 0x18160DDD EQ PUSH2 0x167 JUMPI DUP1 PUSH4 0x1E96C1DD EQ PUSH2 0x17D JUMPI JUMPDEST PUSH1 0x0 DUP1 REVERT JUMPDEST PUSH2 0x12E PUSH2 0x28A JUMP JUMPDEST PUSH1 0x40 MLOAD PUSH2 0x13B SWAP2 SWAP1 PUSH2 0x1183 JUMP JUMPDEST PUSH1 0x40 MLOAD DUP1 SWAP2 SUB SWAP1 RETURN JUMPDEST PUSH2 0x157 PUSH2 0x152 CALLDATASIZE PUSH1 0x4 PUSH2 0x11CD JUMP JUMPDEST PUSH2 0x325 JUMP JUMPDEST PUSH1 0x40 MLOAD SWAP1 ISZERO ISZERO DUP2 MSTORE PUSH1 0x20 ADD PUSH2 0x13B JUMP JUMPDEST PUSH2 0x16F PUSH2 0x33F JUMP JUMPDEST PUSH1 0x40 MLOAD SWAP1 DUP2 MSTORE PUSH1 0x20 ADD PUSH2 0x13B JUMP JUMPDEST PUSH2 0x190 PUSH2 0x18B CALLDATASIZE PUSH1 0x4 PUSH2 0x120D JUMP JUMPDEST PUSH2 0x352 JUMP JUMPDEST STOP JUMPDEST PUSH2 0x157 PUSH2 0x1A0 CALLDATASIZE PUSH1 0x4 PUSH2 0x12BE JUMP JUMPDEST PUSH2 0x462 JUMP JUMPDEST PUSH1 0x40 MLOAD PUSH1 0x12 DUP2 MSTORE PUSH1 0x20 ADD PUSH2 0x13B JUMP JUMPDEST PUSH2 0x157 PUSH2 0x1C2 CALLDATASIZE PUSH1 0x4 PUSH2 0x11CD JUMP JUMPDEST PUSH2 0x486 JUMP JUMPDEST PUSH2 0x190 PUSH2 0x1D5 CALLDATASIZE PUSH1 0x4 PUSH2 0x12FA JUMP JUMPDEST PUSH2 0x4A8 JUMP JUMPDEST PUSH2 0x16F PUSH2 0x1E8 CALLDATASIZE PUSH1 0x4 PUSH2 0x11CD JUMP JUMPDEST PUSH2 0x4BD JUMP JUMPDEST PUSH2 0x16F PUSH2 0x511 JUMP JUMPDEST PUSH2 0x16F PUSH2 0x203 CALLDATASIZE PUSH1 0x4 PUSH2 0x1313 JUMP JUMPDEST PUSH2 0x52A JUMP JUMPDEST PUSH2 0x12E PUSH2 0x553 JUMP JUMPDEST PUSH2 0x16F PUSH2 0x56B JUMP JUMPDEST PUSH2 0x16F PUSH2 0x226 CALLDATASIZE PUSH1 0x4 PUSH2 0x12FA JUMP JUMPDEST PUSH2 0x5CE JUMP JUMPDEST PUSH2 0x157 PUSH2 0x239 CALLDATASIZE PUSH1 0x4 PUSH2 0x11CD JUMP JUMPDEST PUSH2 0x607 JUMP JUMPDEST PUSH2 0x157 PUSH2 0x24C CALLDATASIZE PUSH1 0x4 PUSH2 0x11CD JUMP JUMPDEST PUSH2 0x68C JUMP JUMPDEST PUSH2 0x190 PUSH2 0x25F CALLDATASIZE PUSH1 0x4 PUSH2 0x12FA JUMP JUMPDEST PUSH2 0x69A JUMP JUMPDEST PUSH2 0x16F PUSH2 0x272 CALLDATASIZE PUSH1 0x4 PUSH2 0x132E JUMP JUMPDEST PUSH2 0x6AC JUMP JUMPDEST PUSH2 0x190 PUSH2 0x285 CALLDATASIZE PUSH1 0x4 PUSH2 0x120D JUMP JUMPDEST PUSH2 0x6E6 JUMP JUMPDEST PUSH1 0x60 PUSH2 0x294 PUSH2 0x7F6 JUMP JUMPDEST PUSH1 0x6 ADD DUP1 SLOAD PUSH2 0x2A2 SWAP1 PUSH2 0x1361 JUMP JUMPDEST DUP1 PUSH1 0x1F ADD PUSH1 0x20 DUP1 SWAP2 DIV MUL PUSH1 0x20 ADD PUSH1 0x40 MLOAD SWAP1 DUP2 ADD PUSH1 0x40 MSTORE DUP1 SWAP3 SWAP2 SWAP1 DUP2 DUP2 MSTORE PUSH1 0x20 ADD DUP3 DUP1 SLOAD PUSH2 0x2CE SWAP1 PUSH2 0x1361 JUMP JUMPDEST DUP1 ISZERO PUSH2 0x31B JUMPI DUP1 PUSH1 0x1F LT PUSH2 0x2F0 JUMPI PUSH2 0x100 DUP1 DUP4 SLOAD DIV MUL DUP4 MSTORE SWAP2 PUSH1 0x20 ADD SWAP2 PUSH2 0x31B JUMP JUMPDEST DUP3 ADD SWAP2 SWAP1 PUSH1 0x0 MSTORE PUSH1 0x20 PUSH1 0x0 KECCAK256 SWAP1 JUMPDEST DUP2 SLOAD DUP2 MSTORE SWAP1 PUSH1 0x1 ADD SWAP1 PUSH1 0x20 ADD DUP1 DUP4 GT PUSH2 0x2FE JUMPI DUP3 SWAP1 SUB PUSH1 0x1F AND DUP3 ADD SWAP2 JUMPDEST POP POP POP POP POP SWAP1 POP SWAP1 JUMP JUMPDEST PUSH1 0x0 CALLER PUSH2 0x333 DUP2 DUP6 DUP6 PUSH2 0x81A JUMP JUMPDEST PUSH1 0x1 SWAP2 POP POP JUMPDEST SWAP3 SWAP2 POP POP JUMP JUMPDEST PUSH1 0x0 PUSH2 0x349 PUSH2 0x7F6 JUMP JUMPDEST PUSH1 0x8 ADD SLOAD SWAP1 POP SWAP1 JUMP JUMPDEST PUSH2 0x35A PUSH2 0x95A JUMP JUMPDEST PUSH1 0x0 PUSH2 0x364 PUSH2 0x7F6 JUMP JUMPDEST PUSH1 0x7 ADD DUP1 SLOAD PUSH2 0x372 SWAP1 PUSH2 0x1361 JUMP JUMPDEST DUP1 PUSH1 0x1F ADD PUSH1 0x20 DUP1 SWAP2 DIV MUL PUSH1 0x20 ADD PUSH1 0x40 MLOAD SWAP1 DUP2 ADD PUSH1 0x40 MSTORE DUP1 SWAP3 SWAP2 SWAP1 DUP2 DUP2 MSTORE PUSH1 0x20 ADD DUP3 DUP1 SLOAD PUSH2 0x39E SWAP1 PUSH2 0x1361 JUMP JUMPDEST DUP1 ISZERO PUSH2 0x3EB JUMPI DUP1 PUSH1 0x1F LT PUSH2 0x3C0 JUMPI PUSH2 0x100 DUP1 DUP4 SLOAD DIV MUL DUP4 MSTORE SWAP2 PUSH1 0x20 ADD SWAP2 PUSH2 0x3EB JUMP JUMPDEST DUP3 ADD SWAP2 SWAP1 PUSH1 0x0 MSTORE PUSH1 0x20 PUSH1 0x0 KECCAK256 SWAP1 JUMPDEST DUP2 SLOAD DUP2 MSTORE SWAP1 PUSH1 0x1 ADD SWAP1 PUSH1 0x20 ADD DUP1 DUP4 GT PUSH2 0x3CE JUMPI DUP3 SWAP1 SUB PUSH1 0x1F AND DUP3 ADD SWAP2 JUMPDEST POP POP POP POP POP SWAP1 POP DUP2 PUSH2 0x3FB PUSH2 0x7F6 JUMP JUMPDEST PUSH1 0x7 ADD SWAP1 PUSH2 0x409 SWAP1 DUP3 PUSH2 0x13E9 JUMP JUMPDEST POP DUP2 PUSH1 0x40 MLOAD PUSH2 0x418 SWAP2 SWAP1 PUSH2 0x14A9 JUMP JUMPDEST PUSH1 0x40 MLOAD DUP1 SWAP2 SUB SWAP1 KECCAK256 DUP2 PUSH1 0x40 MLOAD PUSH2 0x42E SWAP2 SWAP1 PUSH2 0x14A9 JUMP JUMPDEST PUSH1 0x40 MLOAD SWAP1 DUP2 SWAP1 SUB DUP2 KECCAK256 SWAP1 PUSH32 0x68023CAB388C6052AF3FA625F164CD0C14CC9125D57286FBE0D9B384847C4C02 SWAP1 PUSH1 0x0 SWAP1 LOG3 POP POP JUMP JUMPDEST PUSH1 0x0 CALLER PUSH2 0x470 DUP6 DUP3 DUP6 PUSH2 0x997 JUMP JUMPDEST PUSH2 0x47B DUP6 DUP6 DUP6 PUSH2 0xA1C JUMP JUMPDEST POP PUSH1 0x1 SWAP5 SWAP4 POP POP POP POP JUMP JUMPDEST PUSH1 0x0 CALLER PUSH2 0x333 DUP2 DUP6 DUP6 PUSH2 0x499 DUP4 DUP4 PUSH2 0x6AC JUMP JUMPDEST PUSH2 0x4A3 SWAP2 SWAP1 PUSH2 0x14DB JUMP JUMPDEST PUSH2 0x81A JUMP JUMPDEST PUSH2 0x4B0 PUSH2 0x95A JUMP JUMPDEST PUSH2 0x4BA CALLER DUP3 PUSH2 0xC0C JUMP JUMPDEST POP JUMP JUMPDEST PUSH1 0x0 DUP1 PUSH1 0x0 PUSH2 0x4EF DUP5 PUSH2 0x4CE PUSH2 0x7F6 JUMP JUMPDEST PUSH1 0x1 PUSH1 0x1 PUSH1 0xA0 SHL SUB DUP9 AND PUSH1 0x0 SWAP1 DUP2 MSTORE PUSH1 0x2 SWAP2 SWAP1 SWAP2 ADD PUSH1 0x20 MSTORE PUSH1 0x40 SWAP1 KECCAK256 PUSH2 0xD03 JUMP JUMPDEST SWAP2 POP SWAP2 POP DUP2 PUSH2 0x506 JUMPI PUSH2 0x501 DUP6 PUSH2 0x52A JUMP JUMPDEST PUSH2 0x508 JUMP JUMPDEST DUP1 JUMPDEST SWAP6 SWAP5 POP POP POP POP POP JUMP JUMPDEST PUSH1 0x0 PUSH2 0x525 PUSH2 0x51E PUSH2 0x7F6 JUMP JUMPDEST PUSH1 0x5 ADD SLOAD SWAP1 JUMP JUMPDEST SWAP1 POP SWAP1 JUMP JUMPDEST PUSH1 0x0 PUSH2 0x534 PUSH2 0x7F6 JUMP JUMPDEST PUSH1 0x1 PUSH1 0x1 PUSH1 0xA0 SHL SUB SWAP1 SWAP3 AND PUSH1 0x0 SWAP1 DUP2 MSTORE PUSH1 0x20 SWAP3 SWAP1 SWAP3 MSTORE POP PUSH1 0x40 SWAP1 KECCAK256 SLOAD SWAP1 JUMP JUMPDEST PUSH1 0x60 PUSH2 0x55D PUSH2 0x7F6 JUMP JUMPDEST PUSH1 0x7 ADD DUP1 SLOAD PUSH2 0x2A2 SWAP1 PUSH2 0x1361 JUMP JUMPDEST PUSH1 0x0 PUSH2 0x584 PUSH2 0x578 PUSH2 0x7F6 JUMP JUMPDEST PUSH1 0x5 ADD DUP1 SLOAD PUSH1 0x1 ADD SWAP1 SSTORE JUMP JUMPDEST PUSH1 0x0 PUSH2 0x58E PUSH2 0x511 JUMP JUMPDEST SWAP1 POP PUSH32 0x8030E83B04D87BEF53480E26263266D6CA66863AA8506ACA6F2559D18AA1CB67 DUP2 PUSH1 0x40 MLOAD PUSH2 0x5C1 SWAP2 DUP2 MSTORE PUSH1 0x20 ADD SWAP1 JUMP JUMPDEST PUSH1 0x40 MLOAD DUP1 SWAP2 SUB SWAP1 LOG1 SWAP2 SWAP1 POP JUMP JUMPDEST PUSH1 0x0 DUP1 PUSH1 0x0 PUSH2 0x5E7 DUP5 PUSH2 0x5DF PUSH2 0x7F6 JUMP JUMPDEST PUSH1 0x3 ADD PUSH2 0xD03 JUMP JUMPDEST SWAP2 POP SWAP2 POP DUP2 PUSH2 0x5FD JUMPI PUSH2 0x5F8 PUSH2 0x33F JUMP JUMPDEST PUSH2 0x5FF JUMP JUMPDEST DUP1 JUMPDEST SWAP5 SWAP4 POP POP POP POP JUMP JUMPDEST PUSH1 0x0 CALLER DUP2 PUSH2 0x615 DUP3 DUP7 PUSH2 0x6AC JUMP JUMPDEST SWAP1 POP DUP4 DUP2 LT ISZERO PUSH2 0x67F JUMPI PUSH1 0x40 MLOAD PUSH3 0x461BCD PUSH1 0xE5 SHL DUP2 MSTORE PUSH1 0x20 PUSH1 0x4 DUP3 ADD MSTORE PUSH1 0x2A PUSH1 0x24 DUP3 ADD MSTORE PUSH32 0x4661636574546F6B656E3A2064656372656173656420616C6C6F77616E636520 PUSH1 0x44 DUP3 ADD MSTORE PUSH10 0x62656C6F77207A65726F PUSH1 0xB0 SHL PUSH1 0x64 DUP3 ADD MSTORE PUSH1 0x84 ADD JUMPDEST PUSH1 0x40 MLOAD DUP1 SWAP2 SUB SWAP1 REVERT JUMPDEST PUSH2 0x47B DUP3 DUP7 DUP7 DUP5 SUB PUSH2 0x81A JUMP JUMPDEST PUSH1 0x0 CALLER PUSH2 0x333 DUP2 DUP6 DUP6 PUSH2 0xA1C JUMP JUMPDEST PUSH2 0x6A2 PUSH2 0x95A JUMP JUMPDEST PUSH2 0x4BA CALLER DUP3 PUSH2 0xDF6 JUMP JUMPDEST PUSH1 0x0 PUSH2 0x6B6 PUSH2 0x7F6 JUMP JUMPDEST PUSH1 0x1 PUSH1 0x1 PUSH1 0xA0 SHL SUB SWAP4 DUP5 AND PUSH1 0x0 SWAP1 DUP2 MSTORE PUSH1 0x1 SWAP2 SWAP1 SWAP2 ADD PUSH1 0x20 SWAP1 DUP2 MSTORE PUSH1 0x40 DUP1 DUP4 KECCAK256 SWAP5 SWAP1 SWAP6 AND DUP3 MSTORE SWAP3 SWAP1 SWAP3 MSTORE POP KECCAK256 SLOAD SWAP1 JUMP JUMPDEST PUSH2 0x6EE PUSH2 0x95A JUMP JUMPDEST PUSH1 0x0 PUSH2 0x6F8 PUSH2 0x7F6 JUMP JUMPDEST PUSH1 0x6 ADD DUP1 SLOAD PUSH2 0x706 SWAP1 PUSH2 0x1361 JUMP JUMPDEST DUP1 PUSH1 0x1F ADD PUSH1 0x20 DUP1 SWAP2 DIV MUL PUSH1 0x20 ADD PUSH1 0x40 MLOAD SWAP1 DUP2 ADD PUSH1 0x40 MSTORE DUP1 SWAP3 SWAP2 SWAP1 DUP2 DUP2 MSTORE PUSH1 0x20 ADD DUP3 DUP1 SLOAD PUSH2 0x732 SWAP1 PUSH2 0x1361 JUMP JUMPDEST DUP1 ISZERO PUSH2 0x77F JUMPI DUP1 PUSH1 0x1F LT PUSH2 0x754 JUMPI PUSH2 0x100 DUP1 DUP4 SLOAD DIV MUL DUP4 MSTORE SWAP2 PUSH1 0x20 ADD SWAP2 PUSH2 0x77F JUMP JUMPDEST DUP3 ADD SWAP2 SWAP1 PUSH1 0x0 MSTORE PUSH1 0x20 PUSH1 0x0 KECCAK256 SWAP1 JUMPDEST DUP2 SLOAD DUP2 MSTORE SWAP1 PUSH1 0x1 ADD SWAP1 PUSH1 0x20 ADD DUP1 DUP4 GT PUSH2 0x762 JUMPI DUP3 SWAP1 SUB PUSH1 0x1F AND DUP3 ADD SWAP2 JUMPDEST POP POP POP POP POP SWAP1 POP DUP2 PUSH2 0x78F PUSH2 0x7F6 JUMP JUMPDEST PUSH1 0x6 ADD SWAP1 PUSH2 0x79D SWAP1 DUP3 PUSH2 0x13E9 JUMP JUMPDEST POP DUP2 PUSH1 0x40 MLOAD PUSH2 0x7AC SWAP2 SWAP1 PUSH2 0x14A9 JUMP JUMPDEST PUSH1 0x40 MLOAD DUP1 SWAP2 SUB SWAP1 KECCAK256 DUP2 PUSH1 0x40 MLOAD PUSH2 0x7C2 SWAP2 SWAP1 PUSH2 0x14A9 JUMP JUMPDEST PUSH1 0x40 MLOAD SWAP1 DUP2 SWAP1 SUB DUP2 KECCAK256 SWAP1 PUSH32 0xE08BA098C56583FF7CE264F98FB97B7DDC5E6AF834ACC0556B24327F72A555F9 SWAP1 PUSH1 0x0 SWAP1 LOG3 POP POP JUMP JUMPDEST PUSH32 0x667C0CF071C712F94F97F65A859CDAA470FE424825756C2CAE5A4D1ADCEE538B SWAP1 JUMP JUMPDEST PUSH1 0x1 PUSH1 0x1 PUSH1 0xA0 SHL SUB DUP4 AND PUSH2 0x882 JUMPI PUSH1 0x40 MLOAD PUSH3 0x461BCD PUSH1 0xE5 SHL DUP2 MSTORE PUSH1 0x20 PUSH1 0x4 DUP3 ADD MSTORE PUSH1 0x29 PUSH1 0x24 DUP3 ADD MSTORE PUSH32 0x4661636574546F6B656E3A20617070726F76652066726F6D20746865207A6572 PUSH1 0x44 DUP3 ADD MSTORE PUSH9 0x6F2061646472657373 PUSH1 0xB8 SHL PUSH1 0x64 DUP3 ADD MSTORE PUSH1 0x84 ADD PUSH2 0x676 JUMP JUMPDEST PUSH1 0x1 PUSH1 0x1 PUSH1 0xA0 SHL SUB DUP3 AND PUSH2 0x8E8 JUMPI PUSH1 0x40 MLOAD PUSH3 0x461BCD PUSH1 0xE5 SHL DUP2 MSTORE PUSH1 0x20 PUSH1 0x4 DUP3 ADD MSTORE PUSH1 0x27 PUSH1 0x24 DUP3 ADD MSTORE PUSH32 0x4661636574546F6B656E3A20617070726F766520746F20746865207A65726F20 PUSH1 0x44 DUP3 ADD MSTORE PUSH7 0x61646472657373 PUSH1 0xC8 SHL PUSH1 0x64 DUP3 ADD MSTORE PUSH1 0x84 ADD PUSH2 0x676 JUMP JUMPDEST DUP1 PUSH2 0x8F1 PUSH2 0x7F6 JUMP JUMPDEST PUSH1 0x1 PUSH1 0x1 PUSH1 0xA0 SHL SUB DUP6 DUP2 AND PUSH1 0x0 DUP2 DUP2 MSTORE PUSH1 0x1 SWAP4 SWAP1 SWAP4 ADD PUSH1 0x20 SWAP1 DUP2 MSTORE PUSH1 0x40 DUP1 DUP6 KECCAK256 SWAP4 DUP9 AND DUP1 DUP7 MSTORE SWAP4 DUP3 MSTORE SWAP4 DUP5 SWAP1 KECCAK256 SWAP5 SWAP1 SWAP5 SSTORE SWAP2 MLOAD DUP5 DUP2 MSTORE SWAP1 SWAP3 PUSH32 0x8C5BE1E5EBEC7D5BD14F71427D1E84F3DD0314C0F7B2291E5B200AC8C7C3B925 SWAP2 ADD JUMPDEST PUSH1 0x40 MLOAD DUP1 SWAP2 SUB SWAP1 LOG3 POP POP POP JUMP JUMPDEST CALLER ADDRESS EQ PUSH2 0x995 JUMPI PUSH1 0x40 MLOAD PUSH3 0x461BCD PUSH1 0xE5 SHL DUP2 MSTORE PUSH1 0x20 PUSH1 0x4 DUP3 ADD MSTORE PUSH1 0x9 PUSH1 0x24 DUP3 ADD MSTORE PUSH9 0x37B7363C9039B2B633 PUSH1 0xB9 SHL PUSH1 0x44 DUP3 ADD MSTORE PUSH1 0x64 ADD PUSH2 0x676 JUMP JUMPDEST JUMP JUMPDEST PUSH1 0x0 PUSH2 0x9A3 DUP5 DUP5 PUSH2 0x6AC JUMP JUMPDEST SWAP1 POP PUSH1 0x0 NOT DUP2 EQ PUSH2 0xA16 JUMPI DUP2 DUP2 LT ISZERO PUSH2 0xA09 JUMPI PUSH1 0x40 MLOAD PUSH3 0x461BCD PUSH1 0xE5 SHL DUP2 MSTORE PUSH1 0x20 PUSH1 0x4 DUP3 ADD MSTORE PUSH1 0x22 PUSH1 0x24 DUP3 ADD MSTORE PUSH32 0x4661636574546F6B656E3A20696E73756666696369656E7420616C6C6F77616E PUSH1 0x44 DUP3 ADD MSTORE PUSH2 0x6365 PUSH1 0xF0 SHL PUSH1 0x64 DUP3 ADD MSTORE PUSH1 0x84 ADD PUSH2 0x676 JUMP JUMPDEST PUSH2 0xA16 DUP5 DUP5 DUP5 DUP5 SUB PUSH2 0x81A JUMP JUMPDEST POP POP POP POP JUMP JUMPDEST PUSH1 0x1 PUSH1 0x1 PUSH1 0xA0 SHL SUB DUP4 AND PUSH2 0xA85 JUMPI PUSH1 0x40 MLOAD PUSH3 0x461BCD PUSH1 0xE5 SHL DUP2 MSTORE PUSH1 0x20 PUSH1 0x4 DUP3 ADD MSTORE PUSH1 0x2A PUSH1 0x24 DUP3 ADD MSTORE PUSH32 0x4661636574546F6B656E3A207472616E736665722066726F6D20746865207A65 PUSH1 0x44 DUP3 ADD MSTORE PUSH10 0x726F2061646472657373 PUSH1 0xB0 SHL PUSH1 0x64 DUP3 ADD MSTORE PUSH1 0x84 ADD PUSH2 0x676 JUMP JUMPDEST PUSH1 0x1 PUSH1 0x1 PUSH1 0xA0 SHL SUB DUP3 AND PUSH2 0xAEC JUMPI PUSH1 0x40 MLOAD PUSH3 0x461BCD PUSH1 0xE5 SHL DUP2 MSTORE PUSH1 0x20 PUSH1 0x4 DUP3 ADD MSTORE PUSH1 0x28 PUSH1 0x24 DUP3 ADD MSTORE PUSH32 0x4661636574546F6B656E3A207472616E7366657220746F20746865207A65726F PUSH1 0x44 DUP3 ADD MSTORE PUSH8 0x2061646472657373 PUSH1 0xC0 SHL PUSH1 0x64 DUP3 ADD MSTORE PUSH1 0x84 ADD PUSH2 0x676 JUMP JUMPDEST PUSH2 0xAF7 DUP4 DUP4 DUP4 PUSH2 0xF69 JUMP JUMPDEST PUSH1 0x0 PUSH2 0xB01 PUSH2 0x7F6 JUMP JUMPDEST PUSH1 0x1 PUSH1 0x1 PUSH1 0xA0 SHL SUB DUP6 AND PUSH1 0x0 SWAP1 DUP2 MSTORE PUSH1 0x20 SWAP2 SWAP1 SWAP2 MSTORE PUSH1 0x40 SWAP1 KECCAK256 SLOAD SWAP1 POP DUP2 DUP2 LT ISZERO PUSH2 0xB81 JUMPI PUSH1 0x40 MLOAD PUSH3 0x461BCD PUSH1 0xE5 SHL DUP2 MSTORE PUSH1 0x20 PUSH1 0x4 DUP3 ADD MSTORE PUSH1 0x2B PUSH1 0x24 DUP3 ADD MSTORE PUSH32 0x4661636574546F6B656E3A207472616E7366657220616D6F756E742065786365 PUSH1 0x44 DUP3 ADD MSTORE PUSH11 0x6564732062616C616E6365 PUSH1 0xA8 SHL PUSH1 0x64 DUP3 ADD MSTORE PUSH1 0x84 ADD PUSH2 0x676 JUMP JUMPDEST DUP2 DUP2 SUB PUSH2 0xB8C PUSH2 0x7F6 JUMP JUMPDEST PUSH1 0x1 PUSH1 0x1 PUSH1 0xA0 SHL SUB DUP7 AND PUSH1 0x0 SWAP1 DUP2 MSTORE PUSH1 0x20 SWAP2 SWAP1 SWAP2 MSTORE PUSH1 0x40 SWAP1 KECCAK256 SSTORE DUP2 PUSH2 0xBAF PUSH2 0x7F6 JUMP JUMPDEST PUSH1 0x1 PUSH1 0x1 PUSH1 0xA0 SHL SUB DUP6 DUP2 AND PUSH1 0x0 DUP2 DUP2 MSTORE PUSH1 0x20 SWAP4 DUP5 MSTORE PUSH1 0x40 SWAP1 DUP2 SWAP1 KECCAK256 DUP1 SLOAD SWAP6 SWAP1 SWAP6 ADD SWAP1 SWAP5 SSTORE SWAP3 MLOAD DUP6 DUP2 MSTORE SWAP1 DUP8 AND SWAP2 PUSH32 0xDDF252AD1BE2C89B69C2B068FC378DAA952BA7F163C4A11628F55A4DF523B3EF SWAP2 ADD PUSH1 0x40 MLOAD DUP1 SWAP2 SUB SWAP1 LOG3 PUSH2 0xA16 JUMP JUMPDEST PUSH1 0x1 PUSH1 0x1 PUSH1 0xA0 SHL SUB DUP3 AND PUSH2 0xC6E JUMPI PUSH1 0x40 MLOAD PUSH3 0x461BCD PUSH1 0xE5 SHL DUP2 MSTORE PUSH1 0x20 PUSH1 0x4 DUP3 ADD MSTORE PUSH1 0x24 DUP1 DUP3 ADD MSTORE PUSH32 0x4661636574546F6B656E3A206D696E7420746F20746865207A65726F20616464 PUSH1 0x44 DUP3 ADD MSTORE PUSH4 0x72657373 PUSH1 0xE0 SHL PUSH1 0x64 DUP3 ADD MSTORE PUSH1 0x84 ADD PUSH2 0x676 JUMP JUMPDEST PUSH2 0xC7A PUSH1 0x0 DUP4 DUP4 PUSH2 0xF69 JUMP JUMPDEST DUP1 PUSH2 0xC83 PUSH2 0x7F6 JUMP JUMPDEST PUSH1 0x8 ADD PUSH1 0x0 DUP3 DUP3 SLOAD PUSH2 0xC95 SWAP2 SWAP1 PUSH2 0x14DB JUMP JUMPDEST SWAP1 SWAP2 SSTORE POP DUP2 SWAP1 POP PUSH2 0xCA4 PUSH2 0x7F6 JUMP JUMPDEST PUSH1 0x1 PUSH1 0x1 PUSH1 0xA0 SHL SUB DUP5 AND PUSH1 0x0 DUP2 DUP2 MSTORE PUSH1 0x20 SWAP3 SWAP1 SWAP3 MSTORE PUSH1 0x40 DUP1 DUP4 KECCAK256 DUP1 SLOAD SWAP1 SWAP5 ADD SWAP1 SWAP4 SSTORE SWAP2 MLOAD PUSH32 0xDDF252AD1BE2C89B69C2B068FC378DAA952BA7F163C4A11628F55A4DF523B3EF SWAP1 PUSH2 0xCF7 SWAP1 DUP6 DUP2 MSTORE PUSH1 0x20 ADD SWAP1 JUMP JUMPDEST PUSH1 0x40 MLOAD DUP1 SWAP2 SUB SWAP1 LOG3 POP POP JUMP JUMPDEST PUSH1 0x0 DUP1 PUSH1 0x0 DUP5 GT PUSH2 0xD4C JUMPI PUSH1 0x40 MLOAD PUSH3 0x461BCD PUSH1 0xE5 SHL DUP2 MSTORE PUSH1 0x20 PUSH1 0x4 DUP3 ADD MSTORE PUSH1 0x13 PUSH1 0x24 DUP3 ADD MSTORE PUSH19 0x4661636574546F6B656E3A206964206973203 PUSH1 0x6C SHL PUSH1 0x44 DUP3 ADD MSTORE PUSH1 0x64 ADD PUSH2 0x676 JUMP JUMPDEST PUSH2 0xD54 PUSH2 0x511 JUMP JUMPDEST DUP5 GT ISZERO PUSH2 0xDA3 JUMPI PUSH1 0x40 MLOAD PUSH3 0x461BCD PUSH1 0xE5 SHL DUP2 MSTORE PUSH1 0x20 PUSH1 0x4 DUP3 ADD MSTORE PUSH1 0x1A PUSH1 0x24 DUP3 ADD MSTORE PUSH32 0x4661636574546F6B656E3A206E6F6E6578697374656E74206964000000000000 PUSH1 0x44 DUP3 ADD MSTORE PUSH1 0x64 ADD PUSH2 0x676 JUMP JUMPDEST PUSH1 0x0 PUSH2 0xDAF DUP5 DUP7 PUSH2 0xFB1 JUMP JUMPDEST DUP5 SLOAD SWAP1 SWAP2 POP DUP2 SUB PUSH2 0xDC7 JUMPI PUSH1 0x0 DUP1 SWAP3 POP SWAP3 POP POP PUSH2 0xDEF JUMP JUMPDEST PUSH1 0x1 DUP5 PUSH1 0x1 ADD DUP3 DUP2 SLOAD DUP2 LT PUSH2 0xDDE JUMPI PUSH2 0xDDE PUSH2 0x14EE JUMP JUMPDEST SWAP1 PUSH1 0x0 MSTORE PUSH1 0x20 PUSH1 0x0 KECCAK256 ADD SLOAD SWAP3 POP SWAP3 POP POP JUMPDEST SWAP3 POP SWAP3 SWAP1 POP JUMP JUMPDEST PUSH1 0x1 PUSH1 0x1 PUSH1 0xA0 SHL SUB DUP3 AND PUSH2 0xE5B JUMPI PUSH1 0x40 MLOAD PUSH3 0x461BCD PUSH1 0xE5 SHL DUP2 MSTORE PUSH1 0x20 PUSH1 0x4 DUP3 ADD MSTORE PUSH1 0x26 PUSH1 0x24 DUP3 ADD MSTORE PUSH32 0x4661636574546F6B656E3A206275726E2066726F6D20746865207A65726F2061 PUSH1 0x44 DUP3 ADD MSTORE PUSH6 0x646472657373 PUSH1 0xD0 SHL PUSH1 0x64 DUP3 ADD MSTORE PUSH1 0x84 ADD PUSH2 0x676 JUMP JUMPDEST PUSH2 0xE67 DUP3 PUSH1 0x0 DUP4 PUSH2 0xF69 JUMP JUMPDEST PUSH1 0x0 PUSH2 0xE71 PUSH2 0x7F6 JUMP JUMPDEST PUSH1 0x1 PUSH1 0x1 PUSH1 0xA0 SHL SUB DUP5 AND PUSH1 0x0 SWAP1 DUP2 MSTORE PUSH1 0x20 SWAP2 SWAP1 SWAP2 MSTORE PUSH1 0x40 SWAP1 KECCAK256 SLOAD SWAP1 POP DUP2 DUP2 LT ISZERO PUSH2 0xEED JUMPI PUSH1 0x40 MLOAD PUSH3 0x461BCD PUSH1 0xE5 SHL DUP2 MSTORE PUSH1 0x20 PUSH1 0x4 DUP3 ADD MSTORE PUSH1 0x27 PUSH1 0x24 DUP3 ADD MSTORE PUSH32 0x4661636574546F6B656E3A206275726E20616D6F756E74206578636565647320 PUSH1 0x44 DUP3 ADD MSTORE PUSH7 0x62616C616E6365 PUSH1 0xC8 SHL PUSH1 0x64 DUP3 ADD MSTORE PUSH1 0x84 ADD PUSH2 0x676 JUMP JUMPDEST DUP2 DUP2 SUB PUSH2 0xEF8 PUSH2 0x7F6 JUMP JUMPDEST PUSH1 0x1 PUSH1 0x1 PUSH1 0xA0 SHL SUB DUP6 AND PUSH1 0x0 SWAP1 DUP2 MSTORE PUSH1 0x20 SWAP2 SWAP1 SWAP2 MSTORE PUSH1 0x40 SWAP1 KECCAK256 SSTORE DUP2 PUSH2 0xF1B PUSH2 0x7F6 JUMP JUMPDEST PUSH1 0x8 ADD DUP1 SLOAD SWAP2 SWAP1 SWAP2 SUB SWAP1 SSTORE PUSH1 0x40 MLOAD DUP3 DUP2 MSTORE PUSH1 0x0 SWAP1 PUSH1 0x1 PUSH1 0x1 PUSH1 0xA0 SHL SUB DUP6 AND SWAP1 PUSH32 0xDDF252AD1BE2C89B69C2B068FC378DAA952BA7F163C4A11628F55A4DF523B3EF SWAP1 PUSH1 0x20 ADD PUSH2 0x94D JUMP JUMPDEST POP POP POP JUMP JUMPDEST PUSH1 0x1 PUSH1 0x1 PUSH1 0xA0 SHL SUB DUP4 AND PUSH2 0xF88 JUMPI PUSH2 0xF80 DUP3 PUSH2 0x105E JUMP JUMPDEST PUSH2 0xF64 PUSH2 0x1093 JUMP JUMPDEST PUSH1 0x1 PUSH1 0x1 PUSH1 0xA0 SHL SUB DUP3 AND PUSH2 0xF9F JUMPI PUSH2 0xF80 DUP4 PUSH2 0x105E JUMP JUMPDEST PUSH2 0xFA8 DUP4 PUSH2 0x105E JUMP JUMPDEST PUSH2 0xF64 DUP3 PUSH2 0x105E JUMP JUMPDEST DUP2 SLOAD PUSH1 0x0 SWAP1 DUP2 SUB PUSH2 0xFC4 JUMPI POP PUSH1 0x0 PUSH2 0x339 JUMP JUMPDEST DUP3 SLOAD PUSH1 0x0 SWAP1 JUMPDEST DUP1 DUP3 LT ISZERO PUSH2 0x1011 JUMPI PUSH1 0x0 PUSH2 0xFDE DUP4 DUP4 PUSH2 0x10A9 JUMP JUMPDEST PUSH1 0x0 DUP8 DUP2 MSTORE PUSH1 0x20 SWAP1 KECCAK256 SWAP1 SWAP2 POP DUP6 SWAP1 DUP3 ADD SLOAD GT ISZERO PUSH2 0xFFD JUMPI DUP1 SWAP2 POP PUSH2 0x100B JUMP JUMPDEST PUSH2 0x1008 DUP2 PUSH1 0x1 PUSH2 0x14DB JUMP JUMPDEST SWAP3 POP JUMPDEST POP PUSH2 0xFCA JUMP JUMPDEST PUSH1 0x0 DUP3 GT DUP1 ISZERO PUSH2 0x103D JUMPI POP DUP4 PUSH2 0x103A DUP7 PUSH2 0x102C PUSH1 0x1 DUP7 PUSH2 0x1504 JUMP JUMPDEST PUSH1 0x0 SWAP2 DUP3 MSTORE PUSH1 0x20 SWAP1 SWAP2 KECCAK256 ADD SWAP1 JUMP JUMPDEST SLOAD EQ JUMPDEST ISZERO PUSH2 0x1056 JUMPI PUSH2 0x104D PUSH1 0x1 DUP4 PUSH2 0x1504 JUMP JUMPDEST SWAP3 POP POP POP PUSH2 0x339 JUMP JUMPDEST POP SWAP1 POP PUSH2 0x339 JUMP JUMPDEST PUSH2 0x4BA PUSH2 0x1069 PUSH2 0x7F6 JUMP JUMPDEST PUSH1 0x1 PUSH1 0x1 PUSH1 0xA0 SHL SUB DUP4 AND PUSH1 0x0 SWAP1 DUP2 MSTORE PUSH1 0x2 SWAP2 SWAP1 SWAP2 ADD PUSH1 0x20 MSTORE PUSH1 0x40 SWAP1 KECCAK256 PUSH2 0x108E DUP4 PUSH2 0x52A JUMP JUMPDEST PUSH2 0x10CB JUMP JUMPDEST PUSH2 0x995 PUSH2 0x109E PUSH2 0x7F6 JUMP JUMPDEST PUSH1 0x3 ADD PUSH2 0x108E PUSH2 0x33F JUMP JUMPDEST PUSH1 0x0 PUSH2 0x10B8 PUSH1 0x2 DUP5 DUP5 XOR PUSH2 0x1517 JUMP JUMPDEST PUSH2 0x10C4 SWAP1 DUP5 DUP5 AND PUSH2 0x14DB JUMP JUMPDEST SWAP4 SWAP3 POP POP POP JUMP JUMPDEST PUSH1 0x0 PUSH2 0x10D5 PUSH2 0x511 JUMP JUMPDEST SWAP1 POP DUP1 PUSH2 0x10E1 DUP5 PUSH2 0x1115 JUMP JUMPDEST LT ISZERO PUSH2 0xF64 JUMPI DUP3 SLOAD PUSH1 0x1 DUP1 DUP3 ADD DUP6 SSTORE PUSH1 0x0 DUP6 DUP2 MSTORE PUSH1 0x20 DUP1 DUP3 KECCAK256 SWAP1 SWAP4 ADD SWAP4 SWAP1 SWAP4 SSTORE SWAP4 DUP5 ADD DUP1 SLOAD SWAP5 DUP6 ADD DUP2 SSTORE DUP3 MSTORE SWAP1 KECCAK256 SWAP1 SWAP2 ADD SSTORE JUMP JUMPDEST DUP1 SLOAD PUSH1 0x0 SWAP1 DUP2 SUB PUSH2 0x1128 JUMPI POP PUSH1 0x0 SWAP2 SWAP1 POP JUMP JUMPDEST DUP2 SLOAD DUP3 SWAP1 PUSH2 0x1138 SWAP1 PUSH1 0x1 SWAP1 PUSH2 0x1504 JUMP JUMPDEST DUP2 SLOAD DUP2 LT PUSH2 0x1148 JUMPI PUSH2 0x1148 PUSH2 0x14EE JUMP JUMPDEST SWAP1 PUSH1 0x0 MSTORE PUSH1 0x20 PUSH1 0x0 KECCAK256 ADD SLOAD SWAP1 POP SWAP2 SWAP1 POP JUMP JUMPDEST SWAP2 SWAP1 POP JUMP JUMPDEST PUSH1 0x0 JUMPDEST DUP4 DUP2 LT ISZERO PUSH2 0x117A JUMPI DUP2 DUP2 ADD MLOAD DUP4 DUP3 ADD MSTORE PUSH1 0x20 ADD PUSH2 0x1162 JUMP JUMPDEST POP POP PUSH1 0x0 SWAP2 ADD MSTORE JUMP JUMPDEST PUSH1 0x20 DUP2 MSTORE PUSH1 0x0 DUP3 MLOAD DUP1 PUSH1 0x20 DUP5 ADD MSTORE PUSH2 0x11A2 DUP2 PUSH1 0x40 DUP6 ADD PUSH1 0x20 DUP8 ADD PUSH2 0x115F JUMP JUMPDEST PUSH1 0x1F ADD PUSH1 0x1F NOT AND SWAP2 SWAP1 SWAP2 ADD PUSH1 0x40 ADD SWAP3 SWAP2 POP POP JUMP JUMPDEST DUP1 CALLDATALOAD PUSH1 0x1 PUSH1 0x1 PUSH1 0xA0 SHL SUB DUP2 AND DUP2 EQ PUSH2 0x115A JUMPI PUSH1 0x0 DUP1 REVERT JUMPDEST PUSH1 0x0 DUP1 PUSH1 0x40 DUP4 DUP6 SUB SLT ISZERO PUSH2 0x11E0 JUMPI PUSH1 0x0 DUP1 REVERT JUMPDEST PUSH2 0x11E9 DUP4 PUSH2 0x11B6 JUMP JUMPDEST SWAP5 PUSH1 0x20 SWAP4 SWAP1 SWAP4 ADD CALLDATALOAD SWAP4 POP POP POP JUMP JUMPDEST PUSH4 0x4E487B71 PUSH1 0xE0 SHL PUSH1 0x0 MSTORE PUSH1 0x41 PUSH1 0x4 MSTORE PUSH1 0x24 PUSH1 0x0 REVERT JUMPDEST PUSH1 0x0 PUSH1 0x20 DUP3 DUP5 SUB SLT ISZERO PUSH2 0x121F JUMPI PUSH1 0x0 DUP1 REVERT JUMPDEST DUP2 CALLDATALOAD PUSH8 0xFFFFFFFFFFFFFFFF DUP1 DUP3 GT ISZERO PUSH2 0x1237 JUMPI PUSH1 0x0 DUP1 REVERT JUMPDEST DUP2 DUP5 ADD SWAP2 POP DUP5 PUSH1 0x1F DUP4 ADD SLT PUSH2 0x124B JUMPI PUSH1 0x0 DUP1 REVERT JUMPDEST DUP2 CALLDATALOAD DUP2 DUP2 GT ISZERO PUSH2 0x125D JUMPI PUSH2 0x125D PUSH2 0x11F7 JUMP JUMPDEST PUSH1 0x40 MLOAD PUSH1 0x1F DUP3 ADD PUSH1 0x1F NOT SWAP1 DUP2 AND PUSH1 0x3F ADD AND DUP2 ADD SWAP1 DUP4 DUP3 GT DUP2 DUP4 LT OR ISZERO PUSH2 0x1285 JUMPI PUSH2 0x1285 PUSH2 0x11F7 JUMP JUMPDEST DUP2 PUSH1 0x40 MSTORE DUP3 DUP2 MSTORE DUP8 PUSH1 0x20 DUP5 DUP8 ADD ADD GT ISZERO PUSH2 0x129E JUMPI PUSH1 0x0 DUP1 REVERT JUMPDEST DUP3 PUSH1 0x20 DUP7 ADD PUSH1 0x20 DUP4 ADD CALLDATACOPY PUSH1 0x0 SWAP3 DUP2 ADD PUSH1 0x20 ADD SWAP3 SWAP1 SWAP3 MSTORE POP SWAP6 SWAP5 POP POP POP POP POP JUMP JUMPDEST PUSH1 0x0 DUP1 PUSH1 0x0 PUSH1 0x60 DUP5 DUP7 SUB SLT ISZERO PUSH2 0x12D3 JUMPI PUSH1 0x0 DUP1 REVERT JUMPDEST PUSH2 0x12DC DUP5 PUSH2 0x11B6 JUMP JUMPDEST SWAP3 POP PUSH2 0x12EA PUSH1 0x20 DUP6 ADD PUSH2 0x11B6 JUMP JUMPDEST SWAP2 POP PUSH1 0x40 DUP5 ADD CALLDATALOAD SWAP1 POP SWAP3 POP SWAP3 POP SWAP3 JUMP JUMPDEST PUSH1 0x0 PUSH1 0x20 DUP3 DUP5 SUB SLT ISZERO PUSH2 0x130C JUMPI PUSH1 0x0 DUP1 REVERT JUMPDEST POP CALLDATALOAD SWAP2 SWAP1 POP JUMP JUMPDEST PUSH1 0x0 PUSH1 0x20 DUP3 DUP5 SUB SLT ISZERO PUSH2 0x1325 JUMPI PUSH1 0x0 DUP1 REVERT JUMPDEST PUSH2 0x10C4 DUP3 PUSH2 0x11B6 JUMP JUMPDEST PUSH1 0x0 DUP1 PUSH1 0x40 DUP4 DUP6 SUB SLT ISZERO PUSH2 0x1341 JUMPI PUSH1 0x0 DUP1 REVERT JUMPDEST PUSH2 0x134A DUP4 PUSH2 0x11B6 JUMP JUMPDEST SWAP2 POP PUSH2 0x1358 PUSH1 0x20 DUP5 ADD PUSH2 0x11B6 JUMP JUMPDEST SWAP1 POP SWAP3 POP SWAP3 SWAP1 POP JUMP JUMPDEST PUSH1 0x1 DUP2 DUP2 SHR SWAP1 DUP3 AND DUP1 PUSH2 0x1375 JUMPI PUSH1 0x7F DUP3 AND SWAP2 POP JUMPDEST PUSH1 0x20 DUP3 LT DUP2 SUB PUSH2 0x1395 JUMPI PUSH4 0x4E487B71 PUSH1 0xE0 SHL PUSH1 0x0 MSTORE PUSH1 0x22 PUSH1 0x4 MSTORE PUSH1 0x24 PUSH1 0x0 REVERT JUMPDEST POP SWAP2 SWAP1 POP JUMP JUMPDEST PUSH1 0x1F DUP3 GT ISZERO PUSH2 0xF64 JUMPI PUSH1 0x0 DUP2 DUP2 MSTORE PUSH1 0x20 DUP2 KECCAK256 PUSH1 0x1F DUP6 ADD PUSH1 0x5 SHR DUP2 ADD PUSH1 0x20 DUP7 LT ISZERO PUSH2 0x13C2 JUMPI POP DUP1 JUMPDEST PUSH1 0x1F DUP6 ADD PUSH1 0x5 SHR DUP3 ADD SWAP2 POP JUMPDEST DUP2 DUP2 LT ISZERO PUSH2 0x13E1 JUMPI DUP3 DUP2 SSTORE PUSH1 0x1 ADD PUSH2 0x13CE JUMP JUMPDEST POP POP POP POP POP POP JUMP JUMPDEST DUP2 MLOAD PUSH8 0xFFFFFFFFFFFFFFFF DUP2 GT ISZERO PUSH2 0x1403 JUMPI PUSH2 0x1403 PUSH2 0x11F7 JUMP JUMPDEST PUSH2 0x1417 DUP2 PUSH2 0x1411 DUP5 SLOAD PUSH2 0x1361 JUMP JUMPDEST DUP5 PUSH2 0x139B JUMP JUMPDEST PUSH1 0x20 DUP1 PUSH1 0x1F DUP4 GT PUSH1 0x1 DUP2 EQ PUSH2 0x144C JUMPI PUSH1 0x0 DUP5 ISZERO PUSH2 0x1434 JUMPI POP DUP6 DUP4 ADD MLOAD JUMPDEST PUSH1 0x0 NOT PUSH1 0x3 DUP7 SWAP1 SHL SHR NOT AND PUSH1 0x1 DUP6 SWAP1 SHL OR DUP6 SSTORE PUSH2 0x13E1 JUMP JUMPDEST PUSH1 0x0 DUP6 DUP2 MSTORE PUSH1 0x20 DUP2 KECCAK256 PUSH1 0x1F NOT DUP7 AND SWAP2 JUMPDEST DUP3 DUP2 LT ISZERO PUSH2 0x147B JUMPI DUP9 DUP7 ADD MLOAD DUP3 SSTORE SWAP5 DUP5 ADD SWAP5 PUSH1 0x1 SWAP1 SWAP2 ADD SWAP1 DUP5 ADD PUSH2 0x145C JUMP JUMPDEST POP DUP6 DUP3 LT ISZERO PUSH2 0x1499 JUMPI DUP8 DUP6 ADD MLOAD PUSH1 0x0 NOT PUSH1 0x3 DUP9 SWAP1 SHL PUSH1 0xF8 AND SHR NOT AND DUP2 SSTORE JUMPDEST POP POP POP POP POP PUSH1 0x1 SWAP1 DUP2 SHL ADD SWAP1 SSTORE POP JUMP JUMPDEST PUSH1 0x0 DUP3 MLOAD PUSH2 0x14BB DUP2 DUP5 PUSH1 0x20 DUP8 ADD PUSH2 0x115F JUMP JUMPDEST SWAP2 SWAP1 SWAP2 ADD SWAP3 SWAP2 POP POP JUMP JUMPDEST PUSH4 0x4E487B71 PUSH1 0xE0 SHL PUSH1 0x0 MSTORE PUSH1 0x11 PUSH1 0x4 MSTORE PUSH1 0x24 PUSH1 0x0 REVERT JUMPDEST DUP1 DUP3 ADD DUP1 DUP3 GT ISZERO PUSH2 0x339 JUMPI PUSH2 0x339 PUSH2 0x14C5 JUMP JUMPDEST PUSH4 0x4E487B71 PUSH1 0xE0 SHL PUSH1 0x0 MSTORE PUSH1 0x32 PUSH1 0x4 MSTORE PUSH1 0x24 PUSH1 0x0 REVERT JUMPDEST DUP2 DUP2 SUB DUP2 DUP2 GT ISZERO PUSH2 0x339 JUMPI PUSH2 0x339 PUSH2 0x14C5 JUMP JUMPDEST PUSH1 0x0 DUP3 PUSH2 0x1534 JUMPI PUSH4 0x4E487B71 PUSH1 0xE0 SHL PUSH1 0x0 MSTORE PUSH1 0x12 PUSH1 0x4 MSTORE PUSH1 0x24 PUSH1 0x0 REVERT JUMPDEST POP DIV SWAP1 JUMP INVALID LOG2 PUSH5 0x6970667358 0x22 SLT KECCAK256 0xB1 0x4B 0x27 PUSH25 0xC0D2C2125A37CCB1FCEA266A39077357974AF641C6D8FE074B 0x4A SWAP7 DUP16 PUSH5 0x736F6C6343 STOP ADDMOD SGT STOP CALLER "
		},
		"gasEstimates": {
			"creation": {
				"codeDepositCost": "1097400",
				"executionCost": "1140",
				"totalCost": "1098540"
			},
			"external": {
				"____burn(uint256)": "infinite",
				"____mint(uint256)": "infinite",
				"____setName(string)": "infinite",
				"____setSymbol(string)": "infinite",
				"allowance(address,address)": "infinite",
				"approve(address,uint256)": "24706",
				"balanceOf(address)": "2641",
				"balanceOfAt(address,uint256)": "infinite",
				"decimals()": "222",
				"decreaseAllowance(address,uint256)": "infinite",
				"getCurrentSnapshotId()": "2386",
				"increaseAllowance(address,uint256)": "infinite",
				"name()": "infinite",
				"snapshot()": "infinite",
				"symbol()": "infinite",
				"totalSupply()": "2416",
				"totalSupplyAt(uint256)": "infinite",
				"transfer(address,uint256)": "infinite",
				"transferFrom(address,address,uint256)": "infinite"
			},
			"internal": {
				"_afterTokenTransfer(address,address,uint256)": "infinite",
				"_approve(address,address,uint256)": "infinite",
				"_beforeTokenTransfer(address,address,uint256)": "infinite",
				"_burn(address,uint256)": "infinite",
				"_lastSnapshotId(uint256[] storage pointer)": "8618",
				"_mint(address,uint256)": "infinite",
				"_onlySelf()": "infinite",
				"_spendAllowance(address,address,uint256)": "infinite",
				"_transfer(address,address,uint256)": "infinite",
				"_updateAccountSnapshot(address)": "infinite",
				"_updateSnapshot(struct SlotToken.Snapshots storage pointer,uint256)": "103632",
				"_updateTotalSupplySnapshot()": "infinite",
				"_valueAt(uint256,struct SlotToken.Snapshots storage pointer)": "infinite"
			}
		},
		"methodIdentifiers": {
			"____burn(uint256)": "b74456f2",
			"____mint(uint256)": "49e7012c",
			"____setName(string)": "e0089dc3",
			"____setSymbol(string)": "1e96c1dd",
			"allowance(address,address)": "dd62ed3e",
			"approve(address,uint256)": "095ea7b3",
			"balanceOf(address)": "70a08231",
			"balanceOfAt(address,uint256)": "4ee2cd7e",
			"decimals()": "313ce567",
			"decreaseAllowance(address,uint256)": "a457c2d7",
			"getCurrentSnapshotId()": "5439ad86",
			"increaseAllowance(address,uint256)": "39509351",
			"name()": "06fdde03",
			"snapshot()": "9711715a",
			"symbol()": "95d89b41",
			"totalSupply()": "18160ddd",
			"totalSupplyAt(uint256)": "981b24d0",
			"transfer(address,uint256)": "a9059cbb",
			"transferFrom(address,address,uint256)": "23b872dd"
		}
	},
	"abi": [
		{
			"anonymous": false,
			"inputs": [
				{
					"indexed": true,
					"internalType": "address",
					"name": "owner",
					"type": "address"
				},
				{
					"indexed": true,
					"internalType": "address",
					"name": "spender",
					"type": "address"
				},
				{
					"indexed": false,
					"internalType": "uint256",
					"name": "value",
					"type": "uint256"
				}
			],
			"name": "Approval",
			"type": "event"
		},
		{
			"anonymous": false,
			"inputs": [
				{
					"indexed": false,
					"internalType": "uint256",
					"name": "id",
					"type": "uint256"
				}
			],
			"name": "Snapshot",
			"type": "event"
		},
		{
			"anonymous": false,
			"inputs": [
				{
					"indexed": true,
					"internalType": "string",
					"name": "oldName",
					"type": "string"
				},
				{
					"indexed": true,
					"internalType": "string",
					"name": "newName",
					"type": "string"
				}
			],
			"name": "TokenNameChanged",
			"type": "event"
		},
		{
			"anonymous": false,
			"inputs": [
				{
					"indexed": true,
					"internalType": "string",
					"name": "oldSymbol",
					"type": "string"
				},
				{
					"indexed": true,
					"internalType": "string",
					"name": "newSymbol",
					"type": "string"
				}
			],
			"name": "TokenSymbolChanged",
			"type": "event"
		},
		{
			"anonymous": false,
			"inputs": [
				{
					"indexed": true,
					"internalType": "address",
					"name": "from",
					"type": "address"
				},
				{
					"indexed": true,
					"internalType": "address",
					"name": "to",
					"type": "address"
				},
				{
					"indexed": false,
					"internalType": "uint256",
					"name": "value",
					"type": "uint256"
				}
			],
			"name": "Transfer",
			"type": "event"
		},
		{
			"inputs": [
				{
					"internalType": "uint256",
					"name": "amount",
					"type": "uint256"
				}
			],
			"name": "____burn",
			"outputs": [],
			"stateMutability": "nonpayable",
			"type": "function"
		},
		{
			"inputs": [
				{
					"internalType": "uint256",
					"name": "amount",
					"type": "uint256"
				}
			],
			"name": "____mint",
			"outputs": [],
			"stateMutability": "nonpayable",
			"type": "function"
		},
		{
			"inputs": [
				{
					"internalType": "string",
					"name": "newName",
					"type": "string"
				}
			],
			"name": "____setName",
			"outputs": [],
			"stateMutability": "nonpayable",
			"type": "function"
		},
		{
			"inputs": [
				{
					"internalType": "string",
					"name": "newSymbol",
					"type": "string"
				}
			],
			"name": "____setSymbol",
			"outputs": [],
			"stateMutability": "nonpayable",
			"type": "function"
		},
		{
			"inputs": [
				{
					"internalType": "address",
					"name": "owner_",
					"type": "address"
				},
				{
					"internalType": "address",
					"name": "spender",
					"type": "address"
				}
			],
			"name": "allowance",
			"outputs": [
				{
					"internalType": "uint256",
					"name": "",
					"type": "uint256"
				}
			],
			"stateMutability": "view",
			"type": "function"
		},
		{
			"inputs": [
				{
					"internalType": "address",
					"name": "spender",
					"type": "address"
				},
				{
					"internalType": "uint256",
					"name": "amount",
					"type": "uint256"
				}
			],
			"name": "approve",
			"outputs": [
				{
					"internalType": "bool",
					"name": "",
					"type": "bool"
				}
			],
			"stateMutability": "nonpayable",
			"type": "function"
		},
		{
			"inputs": [
				{
					"internalType": "address",
					"name": "account",
					"type": "address"
				}
			],
			"name": "balanceOf",
			"outputs": [
				{
					"internalType": "uint256",
					"name": "",
					"type": "uint256"
				}
			],
			"stateMutability": "view",
			"type": "function"
		},
		{
			"inputs": [
				{
					"internalType": "address",
					"name": "account",
					"type": "address"
				},
				{
					"internalType": "uint256",
					"name": "snapshotId",
					"type": "uint256"
				}
			],
			"name": "balanceOfAt",
			"outputs": [
				{
					"internalType": "uint256",
					"name": "",
					"type": "uint256"
				}
			],
			"stateMutability": "view",
			"type": "function"
		},
		{
			"inputs": [],
			"name": "decimals",
			"outputs": [
				{
					"internalType": "uint8",
					"name": "",
					"type": "uint8"
				}
			],
			"stateMutability": "view",
			"type": "function"
		},
		{
			"inputs": [
				{
					"internalType": "address",
					"name": "spender",
					"type": "address"
				},
				{
					"internalType": "uint256",
					"name": "subtractedValue",
					"type": "uint256"
				}
			],
			"name": "decreaseAllowance",
			"outputs": [
				{
					"internalType": "bool",
					"name": "",
					"type": "bool"
				}
			],
			"stateMutability": "nonpayable",
			"type": "function"
		},
		{
			"inputs": [],
			"name": "getCurrentSnapshotId",
			"outputs": [
				{
					"internalType": "uint256",
					"name": "",
					"type": "uint256"
				}
			],
			"stateMutability": "view",
			"type": "function"
		},
		{
			"inputs": [
				{
					"internalType": "address",
					"name": "spender",
					"type": "address"
				},
				{
					"internalType": "uint256",
					"name": "addedValue",
					"type": "uint256"
				}
			],
			"name": "increaseAllowance",
			"outputs": [
				{
					"internalType": "bool",
					"name": "",
					"type": "bool"
				}
			],
			"stateMutability": "nonpayable",
			"type": "function"
		},
		{
			"inputs": [],
			"name": "name",
			"outputs": [
				{
					"internalType": "string",
					"name": "",
					"type": "string"
				}
			],
			"stateMutability": "view",
			"type": "function"
		},
		{
			"inputs": [],
			"name": "snapshot",
			"outputs": [
				{
					"internalType": "uint256",
					"name": "",
					"type": "uint256"
				}
			],
			"stateMutability": "nonpayable",
			"type": "function"
		},
		{
			"inputs": [],
			"name": "symbol",
			"outputs": [
				{
					"internalType": "string",
					"name": "",
					"type": "string"
				}
			],
			"stateMutability": "view",
			"type": "function"
		},
		{
			"inputs": [],
			"name": "totalSupply",
			"outputs": [
				{
					"internalType": "uint256",
					"name": "",
					"type": "uint256"
				}
			],
			"stateMutability": "view",
			"type": "function"
		},
		{
			"inputs": [
				{
					"internalType": "uint256",
					"name": "snapshotId",
					"type": "uint256"
				}
			],
			"name": "totalSupplyAt",
			"outputs": [
				{
					"internalType": "uint256",
					"name": "",
					"type": "uint256"
				}
			],
			"stateMutability": "view",
			"type": "function"
		},
		{
			"inputs": [
				{
					"internalType": "address",
					"name": "to",
					"type": "address"
				},
				{
					"internalType": "uint256",
					"name": "amount",
					"type": "uint256"
				}
			],
			"name": "transfer",
			"outputs": [
				{
					"internalType": "bool",
					"name": "",
					"type": "bool"
				}
			],
			"stateMutability": "nonpayable",
			"type": "function"
		},
		{
			"inputs": [
				{
					"internalType": "address",
					"name": "from",
					"type": "address"
				},
				{
					"internalType": "address",
					"name": "to",
					"type": "address"
				},
				{
					"internalType": "uint256",
					"name": "amount",
					"type": "uint256"
				}
			],
			"name": "transferFrom",
			"outputs": [
				{
					"internalType": "bool",
					"name": "",
					"type": "bool"
				}
			],
			"stateMutability": "nonpayable",
			"type": "function"
		}
	]
}