{
	"data": {
		"bytecode": {
			"linkReferences": {},
			"object": "608060405234801561001057600080fd5b50610f41806100206000396000f3fe608060405234801561001057600080fd5b50600436106100cf5760003560e01c80633e8001481161008c578063b3a54f1b11610066578063b3a54f1b146101b3578063b74cbb41146101c6578063e13a96d6146101d9578063e5e45084146101ec57600080fd5b80633e80014814610177578063464964b114610198578063a6a2fcd7146101a057600080fd5b80630a885f95146100d4578063182a94201461010457806318b31027146101275780632a77d7b81461013c57806331b944501461015157806336447c4e14610164575b600080fd5b6100e76100e2366004610c42565b6101ff565b6040516001600160a01b0390911681526020015b60405180910390f35b610117610112366004610c77565b61021c565b60405190151581526020016100fb565b61013a610135366004610c77565b610233565b005b610144610291565b6040516100fb9190610c92565b61013a61015f366004610cdf565b6102ab565b61013a610172366004610d09565b610356565b61018a610185366004610c77565b6103fe565b6040519081526020016100fb565b610144610427565b61013a6101ae366004610c77565b61043c565b6101176101c1366004610c77565b610493565b61013a6101d4366004610c77565b6104aa565b6100e76101e7366004610c42565b610501565b61013a6101fa366004610c77565b610518565b60006102168261020d61056f565b60030190610593565b92915050565b60006102168261022a61056f565b600301906105a6565b61023b6105c8565b6102508161024761056f565b60010190610610565b506040516001600160a01b03821681527ff6aea4ebd15c89ff6a16b7819fb6968ad0a0ce7e0085ef4c87a85f8c0cd2e46a906020015b60405180910390a150565b60606102a661029e61056f565b600101610625565b905090565b6102b361056f565b6007015460ff16156103085760405162461bcd60e51b8152602060048201526019602482015278119858d95d14d859994e881c99595b9d1c985b9d0818d85b1b603a1b60448201526064015b60405180910390fd5b600161031261056f565b600701805460ff191691151591909117905561032c6105c8565b6103368282610632565b600061034061056f565b600701805460ff19169115159190911790555050565b61035e61056f565b6007015460ff16156103ae5760405162461bcd60e51b8152602060048201526019602482015278119858d95d14d859994e881c99595b9d1c985b9d0818d85b1b603a1b60448201526064016102ff565b60016103b861056f565b600701805460ff19169115159190911790556103d26105c8565b6103dd838383610730565b60006103e761056f565b600701805460ff1916911515919091179055505050565b600061040861056f565b6001600160a01b03909216600090815260209290925250604090205490565b60606102a661043461056f565b600301610625565b6104446105c8565b6104598161045061056f565b60030190610610565b506040516001600160a01b03821681527fb91009acff1ca23a9fe12400608cae8383f810cac953c1a16a99fe9b9c65abfb90602001610286565b6000610216826104a161056f565b600101906105a6565b6104b26105c8565b6104c7816104be61056f565b60030190610945565b506040516001600160a01b03821681527f64f9ae8a27a020b54f63a0d9ff5d3f0dd302b35eef11d16612b2a02b2d8a824890602001610286565b60006102168261050f61056f565b60010190610593565b6105206105c8565b6105358161052c61056f565b60010190610945565b506040516001600160a01b03821681527f0a05ed313e53d05b8e9ebe468e240ec174f5190074867a051f35ac20709eed0490602001610286565b7ff2eeec4c06050035800631f1916b3a25e1fa154de963ec50f0ac015a5be9e61890565b600061059f838361095a565b9392505050565b6001600160a01b0381166000908152600183016020526040812054151561059f565b33301461060e5760405162461bcd60e51b81526020600482015260146024820152732330b1b2ba29b0b3329d1037b7363c9039b2b63360611b60448201526064016102ff565b565b600061059f836001600160a01b038416610984565b6060600061059f836109d3565b61063c6000610a2f565b610647600082610a93565b8061065061056f565b600080805260209190915260408120805490919061066f908490610d5b565b9091555061067d905061056f565b6000808052602091909152604081205490036106ab576106a960006106a061056f565b60050190610945565b505b6040516001600160a01b0383169082156108fc029083906000818181858888f193505050501580156106e1573d6000803e3d6000fd5b50604080516001600160a01b0384168152600060208201529081018290527f9b1bfa7fa9ee420a16e124f794c35ac9f90472acc99140eb2f6447c714cad8eb9060600160405180910390a15050565b816001600160a01b0381166107875760405162461bcd60e51b815260206004820152601e60248201527f4661636574536166653a20696e6170726f707269617465206d6574686f64000060448201526064016102ff565b61079083610a2f565b61079a8383610a93565b816107a361056f565b6001600160a01b03851660009081526020919091526040812080549091906107cc908490610d5b565b909155506107da905061056f565b6001600160a01b03841660009081526020919091526040812054900361080857610806836106a061056f565b505b806001600160a01b031663a9059cbb85610884846001600160a01b031663313ce5676040518163ffffffff1660e01b8152600401602060405180830381865afa158015610859573d6000803e3d6000fd5b505050506040513d601f19601f8201168201806040525081019061087d9190610d6e565b8690610b08565b6040516001600160e01b031960e085901b1681526001600160a01b03909216600483015260248201526044016020604051808303816000875af11580156108cf573d6000803e3d6000fd5b505050506040513d601f19601f820116820180604052508101906108f39190610d91565b50604080516001600160a01b038087168252851660208201529081018390527f9b1bfa7fa9ee420a16e124f794c35ac9f90472acc99140eb2f6447c714cad8eb9060600160405180910390a150505050565b600061059f836001600160a01b038416610b4f565b600082600001828154811061097157610971610db3565b9060005260206000200154905092915050565b60008181526001830160205260408120546109cb57508154600181810184556000848152602080822090930184905584548482528286019093526040902091909155610216565b506000610216565b606081600001805480602002602001604051908101604052809291908181526020018280548015610a2357602002820191906000526020600020905b815481526020019060010190808311610a0f575b50505050509050919050565b610a388161021c565b610a905760405162461bcd60e51b815260206004820152602360248201527f4661636574536166653a20746f6b656e206973206e6f7420616c6c6f776564206044820152621bdd5d60ea1b60648201526084016102ff565b50565b80610a9c61056f565b6001600160a01b038416600090815260209190915260409020541015610b045760405162461bcd60e51b815260206004820152601f60248201527f4661636574536166653a20696e73756666696369656e742062616c616e63650060448201526064016102ff565b5050565b6000670de0b6b3a7640000610b1e83600a610ead565b670de0b6b3a7640000610b318682610ebc565b610b3b9190610ed3565b610b459190610ebc565b61059f9190610ed3565b60008181526001830160205260408120548015610c38576000610b73600183610d5b565b8554909150600090610b8790600190610d5b565b9050818114610bec576000866000018281548110610ba757610ba7610db3565b9060005260206000200154905080876000018481548110610bca57610bca610db3565b6000918252602080832090910192909255918252600188019052604090208390555b8554869080610bfd57610bfd610ef5565b600190038181906000526020600020016000905590558560010160008681526020019081526020016000206000905560019350505050610216565b6000915050610216565b600060208284031215610c5457600080fd5b5035919050565b80356001600160a01b0381168114610c7257600080fd5b919050565b600060208284031215610c8957600080fd5b61059f82610c5b565b6020808252825182820181905260009190848201906040850190845b81811015610cd35783516001600160a01b031683529284019291840191600101610cae565b50909695505050505050565b60008060408385031215610cf257600080fd5b610cfb83610c5b565b946020939093013593505050565b600080600060608486031215610d1e57600080fd5b610d2784610c5b565b9250610d3560208501610c5b565b9150604084013590509250925092565b634e487b7160e01b600052601160045260246000fd5b8181038181111561021657610216610d45565b600060208284031215610d8057600080fd5b815160ff8116811461059f57600080fd5b600060208284031215610da357600080fd5b8151801515811461059f57600080fd5b634e487b7160e01b600052603260045260246000fd5b600181815b80851115610e04578160001904821115610dea57610dea610d45565b80851615610df757918102915b93841c9390800290610dce565b509250929050565b600082610e1b57506001610216565b81610e2857506000610216565b8160018114610e3e5760028114610e4857610e64565b6001915050610216565b60ff841115610e5957610e59610d45565b50506001821b610216565b5060208310610133831016604e8410600b8410161715610e87575081810a610216565b610e918383610dc9565b8060001904821115610ea557610ea5610d45565b029392505050565b600061059f60ff841683610e0c565b808202811582820484141761021657610216610d45565b600082610ef057634e487b7160e01b600052601260045260246000fd5b500490565b634e487b7160e01b600052603160045260246000fdfea2646970667358221220c5f57ddb0e4d94cc07b5616ff512e09a4546532b6fb4acbb4788fb1bfae4067564736f6c63430008130033",
			"opcodes": "PUSH1 0x80 PUSH1 0x40 MSTORE CALLVALUE DUP1 ISZERO PUSH2 0x10 JUMPI PUSH1 0x0 DUP1 REVERT JUMPDEST POP PUSH2 0xF41 DUP1 PUSH2 0x20 PUSH1 0x0 CODECOPY PUSH1 0x0 RETURN INVALID PUSH1 0x80 PUSH1 0x40 MSTORE CALLVALUE DUP1 ISZERO PUSH2 0x10 JUMPI PUSH1 0x0 DUP1 REVERT JUMPDEST POP PUSH1 0x4 CALLDATASIZE LT PUSH2 0xCF JUMPI PUSH1 0x0 CALLDATALOAD PUSH1 0xE0 SHR DUP1 PUSH4 0x3E800148 GT PUSH2 0x8C JUMPI DUP1 PUSH4 0xB3A54F1B GT PUSH2 0x66 JUMPI DUP1 PUSH4 0xB3A54F1B EQ PUSH2 0x1B3 JUMPI DUP1 PUSH4 0xB74CBB41 EQ PUSH2 0x1C6 JUMPI DUP1 PUSH4 0xE13A96D6 EQ PUSH2 0x1D9 JUMPI DUP1 PUSH4 0xE5E45084 EQ PUSH2 0x1EC JUMPI PUSH1 0x0 DUP1 REVERT JUMPDEST DUP1 PUSH4 0x3E800148 EQ PUSH2 0x177 JUMPI DUP1 PUSH4 0x464964B1 EQ PUSH2 0x198 JUMPI DUP1 PUSH4 0xA6A2FCD7 EQ PUSH2 0x1A0 JUMPI PUSH1 0x0 DUP1 REVERT JUMPDEST DUP1 PUSH4 0xA885F95 EQ PUSH2 0xD4 JUMPI DUP1 PUSH4 0x182A9420 EQ PUSH2 0x104 JUMPI DUP1 PUSH4 0x18B31027 EQ PUSH2 0x127 JUMPI DUP1 PUSH4 0x2A77D7B8 EQ PUSH2 0x13C JUMPI DUP1 PUSH4 0x31B94450 EQ PUSH2 0x151 JUMPI DUP1 PUSH4 0x36447C4E EQ PUSH2 0x164 JUMPI JUMPDEST PUSH1 0x0 DUP1 REVERT JUMPDEST PUSH2 0xE7 PUSH2 0xE2 CALLDATASIZE PUSH1 0x4 PUSH2 0xC42 JUMP JUMPDEST PUSH2 0x1FF JUMP JUMPDEST PUSH1 0x40 MLOAD PUSH1 0x1 PUSH1 0x1 PUSH1 0xA0 SHL SUB SWAP1 SWAP2 AND DUP2 MSTORE PUSH1 0x20 ADD JUMPDEST PUSH1 0x40 MLOAD DUP1 SWAP2 SUB SWAP1 RETURN JUMPDEST PUSH2 0x117 PUSH2 0x112 CALLDATASIZE PUSH1 0x4 PUSH2 0xC77 JUMP JUMPDEST PUSH2 0x21C JUMP JUMPDEST PUSH1 0x40 MLOAD SWAP1 ISZERO ISZERO DUP2 MSTORE PUSH1 0x20 ADD PUSH2 0xFB JUMP JUMPDEST PUSH2 0x13A PUSH2 0x135 CALLDATASIZE PUSH1 0x4 PUSH2 0xC77 JUMP JUMPDEST PUSH2 0x233 JUMP JUMPDEST STOP JUMPDEST PUSH2 0x144 PUSH2 0x291 JUMP JUMPDEST PUSH1 0x40 MLOAD PUSH2 0xFB SWAP2 SWAP1 PUSH2 0xC92 JUMP JUMPDEST PUSH2 0x13A PUSH2 0x15F CALLDATASIZE PUSH1 0x4 PUSH2 0xCDF JUMP JUMPDEST PUSH2 0x2AB JUMP JUMPDEST PUSH2 0x13A PUSH2 0x172 CALLDATASIZE PUSH1 0x4 PUSH2 0xD09 JUMP JUMPDEST PUSH2 0x356 JUMP JUMPDEST PUSH2 0x18A PUSH2 0x185 CALLDATASIZE PUSH1 0x4 PUSH2 0xC77 JUMP JUMPDEST PUSH2 0x3FE JUMP JUMPDEST PUSH1 0x40 MLOAD SWAP1 DUP2 MSTORE PUSH1 0x20 ADD PUSH2 0xFB JUMP JUMPDEST PUSH2 0x144 PUSH2 0x427 JUMP JUMPDEST PUSH2 0x13A PUSH2 0x1AE CALLDATASIZE PUSH1 0x4 PUSH2 0xC77 JUMP JUMPDEST PUSH2 0x43C JUMP JUMPDEST PUSH2 0x117 PUSH2 0x1C1 CALLDATASIZE PUSH1 0x4 PUSH2 0xC77 JUMP JUMPDEST PUSH2 0x493 JUMP JUMPDEST PUSH2 0x13A PUSH2 0x1D4 CALLDATASIZE PUSH1 0x4 PUSH2 0xC77 JUMP JUMPDEST PUSH2 0x4AA JUMP JUMPDEST PUSH2 0xE7 PUSH2 0x1E7 CALLDATASIZE PUSH1 0x4 PUSH2 0xC42 JUMP JUMPDEST PUSH2 0x501 JUMP JUMPDEST PUSH2 0x13A PUSH2 0x1FA CALLDATASIZE PUSH1 0x4 PUSH2 0xC77 JUMP JUMPDEST PUSH2 0x518 JUMP JUMPDEST PUSH1 0x0 PUSH2 0x216 DUP3 PUSH2 0x20D PUSH2 0x56F JUMP JUMPDEST PUSH1 0x3 ADD SWAP1 PUSH2 0x593 JUMP JUMPDEST SWAP3 SWAP2 POP POP JUMP JUMPDEST PUSH1 0x0 PUSH2 0x216 DUP3 PUSH2 0x22A PUSH2 0x56F JUMP JUMPDEST PUSH1 0x3 ADD SWAP1 PUSH2 0x5A6 JUMP JUMPDEST PUSH2 0x23B PUSH2 0x5C8 JUMP JUMPDEST PUSH2 0x250 DUP2 PUSH2 0x247 PUSH2 0x56F JUMP JUMPDEST PUSH1 0x1 ADD SWAP1 PUSH2 0x610 JUMP JUMPDEST POP PUSH1 0x40 MLOAD PUSH1 0x1 PUSH1 0x1 PUSH1 0xA0 SHL SUB DUP3 AND DUP2 MSTORE PUSH32 0xF6AEA4EBD15C89FF6A16B7819FB6968AD0A0CE7E0085EF4C87A85F8C0CD2E46A SWAP1 PUSH1 0x20 ADD JUMPDEST PUSH1 0x40 MLOAD DUP1 SWAP2 SUB SWAP1 LOG1 POP JUMP JUMPDEST PUSH1 0x60 PUSH2 0x2A6 PUSH2 0x29E PUSH2 0x56F JUMP JUMPDEST PUSH1 0x1 ADD PUSH2 0x625 JUMP JUMPDEST SWAP1 POP SWAP1 JUMP JUMPDEST PUSH2 0x2B3 PUSH2 0x56F JUMP JUMPDEST PUSH1 0x7 ADD SLOAD PUSH1 0xFF AND ISZERO PUSH2 0x308 JUMPI PUSH1 0x40 MLOAD PUSH3 0x461BCD PUSH1 0xE5 SHL DUP2 MSTORE PUSH1 0x20 PUSH1 0x4 DUP3 ADD MSTORE PUSH1 0x19 PUSH1 0x24 DUP3 ADD MSTORE PUSH25 0x119858D95D14D859994E881C99595B9D1C985B9D0818D85B1B PUSH1 0x3A SHL PUSH1 0x44 DUP3 ADD MSTORE PUSH1 0x64 ADD JUMPDEST PUSH1 0x40 MLOAD DUP1 SWAP2 SUB SWAP1 REVERT JUMPDEST PUSH1 0x1 PUSH2 0x312 PUSH2 0x56F JUMP JUMPDEST PUSH1 0x7 ADD DUP1 SLOAD PUSH1 0xFF NOT AND SWAP2 ISZERO ISZERO SWAP2 SWAP1 SWAP2 OR SWAP1 SSTORE PUSH2 0x32C PUSH2 0x5C8 JUMP JUMPDEST PUSH2 0x336 DUP3 DUP3 PUSH2 0x632 JUMP JUMPDEST PUSH1 0x0 PUSH2 0x340 PUSH2 0x56F JUMP JUMPDEST PUSH1 0x7 ADD DUP1 SLOAD PUSH1 0xFF NOT AND SWAP2 ISZERO ISZERO SWAP2 SWAP1 SWAP2 OR SWAP1 SSTORE POP POP JUMP JUMPDEST PUSH2 0x35E PUSH2 0x56F JUMP JUMPDEST PUSH1 0x7 ADD SLOAD PUSH1 0xFF AND ISZERO PUSH2 0x3AE JUMPI PUSH1 0x40 MLOAD PUSH3 0x461BCD PUSH1 0xE5 SHL DUP2 MSTORE PUSH1 0x20 PUSH1 0x4 DUP3 ADD MSTORE PUSH1 0x19 PUSH1 0x24 DUP3 ADD MSTORE PUSH25 0x119858D95D14D859994E881C99595B9D1C985B9D0818D85B1B PUSH1 0x3A SHL PUSH1 0x44 DUP3 ADD MSTORE PUSH1 0x64 ADD PUSH2 0x2FF JUMP JUMPDEST PUSH1 0x1 PUSH2 0x3B8 PUSH2 0x56F JUMP JUMPDEST PUSH1 0x7 ADD DUP1 SLOAD PUSH1 0xFF NOT AND SWAP2 ISZERO ISZERO SWAP2 SWAP1 SWAP2 OR SWAP1 SSTORE PUSH2 0x3D2 PUSH2 0x5C8 JUMP JUMPDEST PUSH2 0x3DD DUP4 DUP4 DUP4 PUSH2 0x730 JUMP JUMPDEST PUSH1 0x0 PUSH2 0x3E7 PUSH2 0x56F JUMP JUMPDEST PUSH1 0x7 ADD DUP1 SLOAD PUSH1 0xFF NOT AND SWAP2 ISZERO ISZERO SWAP2 SWAP1 SWAP2 OR SWAP1 SSTORE POP POP POP JUMP JUMPDEST PUSH1 0x0 PUSH2 0x408 PUSH2 0x56F JUMP JUMPDEST PUSH1 0x1 PUSH1 0x1 PUSH1 0xA0 SHL SUB SWAP1 SWAP3 AND PUSH1 0x0 SWAP1 DUP2 MSTORE PUSH1 0x20 SWAP3 SWAP1 SWAP3 MSTORE POP PUSH1 0x40 SWAP1 KECCAK256 SLOAD SWAP1 JUMP JUMPDEST PUSH1 0x60 PUSH2 0x2A6 PUSH2 0x434 PUSH2 0x56F JUMP JUMPDEST PUSH1 0x3 ADD PUSH2 0x625 JUMP JUMPDEST PUSH2 0x444 PUSH2 0x5C8 JUMP JUMPDEST PUSH2 0x459 DUP2 PUSH2 0x450 PUSH2 0x56F JUMP JUMPDEST PUSH1 0x3 ADD SWAP1 PUSH2 0x610 JUMP JUMPDEST POP PUSH1 0x40 MLOAD PUSH1 0x1 PUSH1 0x1 PUSH1 0xA0 SHL SUB DUP3 AND DUP2 MSTORE PUSH32 0xB91009ACFF1CA23A9FE12400608CAE8383F810CAC953C1A16A99FE9B9C65ABFB SWAP1 PUSH1 0x20 ADD PUSH2 0x286 JUMP JUMPDEST PUSH1 0x0 PUSH2 0x216 DUP3 PUSH2 0x4A1 PUSH2 0x56F JUMP JUMPDEST PUSH1 0x1 ADD SWAP1 PUSH2 0x5A6 JUMP JUMPDEST PUSH2 0x4B2 PUSH2 0x5C8 JUMP JUMPDEST PUSH2 0x4C7 DUP2 PUSH2 0x4BE PUSH2 0x56F JUMP JUMPDEST PUSH1 0x3 ADD SWAP1 PUSH2 0x945 JUMP JUMPDEST POP PUSH1 0x40 MLOAD PUSH1 0x1 PUSH1 0x1 PUSH1 0xA0 SHL SUB DUP3 AND DUP2 MSTORE PUSH32 0x64F9AE8A27A020B54F63A0D9FF5D3F0DD302B35EEF11D16612B2A02B2D8A8248 SWAP1 PUSH1 0x20 ADD PUSH2 0x286 JUMP JUMPDEST PUSH1 0x0 PUSH2 0x216 DUP3 PUSH2 0x50F PUSH2 0x56F JUMP JUMPDEST PUSH1 0x1 ADD SWAP1 PUSH2 0x593 JUMP JUMPDEST PUSH2 0x520 PUSH2 0x5C8 JUMP JUMPDEST PUSH2 0x535 DUP2 PUSH2 0x52C PUSH2 0x56F JUMP JUMPDEST PUSH1 0x1 ADD SWAP1 PUSH2 0x945 JUMP JUMPDEST POP PUSH1 0x40 MLOAD PUSH1 0x1 PUSH1 0x1 PUSH1 0xA0 SHL SUB DUP3 AND DUP2 MSTORE PUSH32 0xA05ED313E53D05B8E9EBE468E240EC174F5190074867A051F35AC20709EED04 SWAP1 PUSH1 0x20 ADD PUSH2 0x286 JUMP JUMPDEST PUSH32 0xF2EEEC4C06050035800631F1916B3A25E1FA154DE963EC50F0AC015A5BE9E618 SWAP1 JUMP JUMPDEST PUSH1 0x0 PUSH2 0x59F DUP4 DUP4 PUSH2 0x95A JUMP JUMPDEST SWAP4 SWAP3 POP POP POP JUMP JUMPDEST PUSH1 0x1 PUSH1 0x1 PUSH1 0xA0 SHL SUB DUP2 AND PUSH1 0x0 SWAP1 DUP2 MSTORE PUSH1 0x1 DUP4 ADD PUSH1 0x20 MSTORE PUSH1 0x40 DUP2 KECCAK256 SLOAD ISZERO ISZERO PUSH2 0x59F JUMP JUMPDEST CALLER ADDRESS EQ PUSH2 0x60E JUMPI PUSH1 0x40 MLOAD PUSH3 0x461BCD PUSH1 0xE5 SHL DUP2 MSTORE PUSH1 0x20 PUSH1 0x4 DUP3 ADD MSTORE PUSH1 0x14 PUSH1 0x24 DUP3 ADD MSTORE PUSH20 0x2330B1B2BA29B0B3329D1037B7363C9039B2B633 PUSH1 0x61 SHL PUSH1 0x44 DUP3 ADD MSTORE PUSH1 0x64 ADD PUSH2 0x2FF JUMP JUMPDEST JUMP JUMPDEST PUSH1 0x0 PUSH2 0x59F DUP4 PUSH1 0x1 PUSH1 0x1 PUSH1 0xA0 SHL SUB DUP5 AND PUSH2 0x984 JUMP JUMPDEST PUSH1 0x60 PUSH1 0x0 PUSH2 0x59F DUP4 PUSH2 0x9D3 JUMP JUMPDEST PUSH2 0x63C PUSH1 0x0 PUSH2 0xA2F JUMP JUMPDEST PUSH2 0x647 PUSH1 0x0 DUP3 PUSH2 0xA93 JUMP JUMPDEST DUP1 PUSH2 0x650 PUSH2 0x56F JUMP JUMPDEST PUSH1 0x0 DUP1 DUP1 MSTORE PUSH1 0x20 SWAP2 SWAP1 SWAP2 MSTORE PUSH1 0x40 DUP2 KECCAK256 DUP1 SLOAD SWAP1 SWAP2 SWAP1 PUSH2 0x66F SWAP1 DUP5 SWAP1 PUSH2 0xD5B JUMP JUMPDEST SWAP1 SWAP2 SSTORE POP PUSH2 0x67D SWAP1 POP PUSH2 0x56F JUMP JUMPDEST PUSH1 0x0 DUP1 DUP1 MSTORE PUSH1 0x20 SWAP2 SWAP1 SWAP2 MSTORE PUSH1 0x40 DUP2 KECCAK256 SLOAD SWAP1 SUB PUSH2 0x6AB JUMPI PUSH2 0x6A9 PUSH1 0x0 PUSH2 0x6A0 PUSH2 0x56F JUMP JUMPDEST PUSH1 0x5 ADD SWAP1 PUSH2 0x945 JUMP JUMPDEST POP JUMPDEST PUSH1 0x40 MLOAD PUSH1 0x1 PUSH1 0x1 PUSH1 0xA0 SHL SUB DUP4 AND SWAP1 DUP3 ISZERO PUSH2 0x8FC MUL SWAP1 DUP4 SWAP1 PUSH1 0x0 DUP2 DUP2 DUP2 DUP6 DUP9 DUP9 CALL SWAP4 POP POP POP POP ISZERO DUP1 ISZERO PUSH2 0x6E1 JUMPI RETURNDATASIZE PUSH1 0x0 DUP1 RETURNDATACOPY RETURNDATASIZE PUSH1 0x0 REVERT JUMPDEST POP PUSH1 0x40 DUP1 MLOAD PUSH1 0x1 PUSH1 0x1 PUSH1 0xA0 SHL SUB DUP5 AND DUP2 MSTORE PUSH1 0x0 PUSH1 0x20 DUP3 ADD MSTORE SWAP1 DUP2 ADD DUP3 SWAP1 MSTORE PUSH32 0x9B1BFA7FA9EE420A16E124F794C35AC9F90472ACC99140EB2F6447C714CAD8EB SWAP1 PUSH1 0x60 ADD PUSH1 0x40 MLOAD DUP1 SWAP2 SUB SWAP1 LOG1 POP POP JUMP JUMPDEST DUP2 PUSH1 0x1 PUSH1 0x1 PUSH1 0xA0 SHL SUB DUP2 AND PUSH2 0x787 JUMPI PUSH1 0x40 MLOAD PUSH3 0x461BCD PUSH1 0xE5 SHL DUP2 MSTORE PUSH1 0x20 PUSH1 0x4 DUP3 ADD MSTORE PUSH1 0x1E PUSH1 0x24 DUP3 ADD MSTORE PUSH32 0x4661636574536166653A20696E6170726F707269617465206D6574686F640000 PUSH1 0x44 DUP3 ADD MSTORE PUSH1 0x64 ADD PUSH2 0x2FF JUMP JUMPDEST PUSH2 0x790 DUP4 PUSH2 0xA2F JUMP JUMPDEST PUSH2 0x79A DUP4 DUP4 PUSH2 0xA93 JUMP JUMPDEST DUP2 PUSH2 0x7A3 PUSH2 0x56F JUMP JUMPDEST PUSH1 0x1 PUSH1 0x1 PUSH1 0xA0 SHL SUB DUP6 AND PUSH1 0x0 SWAP1 DUP2 MSTORE PUSH1 0x20 SWAP2 SWAP1 SWAP2 MSTORE PUSH1 0x40 DUP2 KECCAK256 DUP1 SLOAD SWAP1 SWAP2 SWAP1 PUSH2 0x7CC SWAP1 DUP5 SWAP1 PUSH2 0xD5B JUMP JUMPDEST SWAP1 SWAP2 SSTORE POP PUSH2 0x7DA SWAP1 POP PUSH2 0x56F JUMP JUMPDEST PUSH1 0x1 PUSH1 0x1 PUSH1 0xA0 SHL SUB DUP5 AND PUSH1 0x0 SWAP1 DUP2 MSTORE PUSH1 0x20 SWAP2 SWAP1 SWAP2 MSTORE PUSH1 0x40 DUP2 KECCAK256 SLOAD SWAP1 SUB PUSH2 0x808 JUMPI PUSH2 0x806 DUP4 PUSH2 0x6A0 PUSH2 0x56F JUMP JUMPDEST POP JUMPDEST DUP1 PUSH1 0x1 PUSH1 0x1 PUSH1 0xA0 SHL SUB AND PUSH4 0xA9059CBB DUP6 PUSH2 0x884 DUP5 PUSH1 0x1 PUSH1 0x1 PUSH1 0xA0 SHL SUB AND PUSH4 0x313CE567 PUSH1 0x40 MLOAD DUP2 PUSH4 0xFFFFFFFF AND PUSH1 0xE0 SHL DUP2 MSTORE PUSH1 0x4 ADD PUSH1 0x20 PUSH1 0x40 MLOAD DUP1 DUP4 SUB DUP2 DUP7 GAS STATICCALL ISZERO DUP1 ISZERO PUSH2 0x859 JUMPI RETURNDATASIZE PUSH1 0x0 DUP1 RETURNDATACOPY RETURNDATASIZE PUSH1 0x0 REVERT JUMPDEST POP POP POP POP PUSH1 0x40 MLOAD RETURNDATASIZE PUSH1 0x1F NOT PUSH1 0x1F DUP3 ADD AND DUP3 ADD DUP1 PUSH1 0x40 MSTORE POP DUP2 ADD SWAP1 PUSH2 0x87D SWAP2 SWAP1 PUSH2 0xD6E JUMP JUMPDEST DUP7 SWAP1 PUSH2 0xB08 JUMP JUMPDEST PUSH1 0x40 MLOAD PUSH1 0x1 PUSH1 0x1 PUSH1 0xE0 SHL SUB NOT PUSH1 0xE0 DUP6 SWAP1 SHL AND DUP2 MSTORE PUSH1 0x1 PUSH1 0x1 PUSH1 0xA0 SHL SUB SWAP1 SWAP3 AND PUSH1 0x4 DUP4 ADD MSTORE PUSH1 0x24 DUP3 ADD MSTORE PUSH1 0x44 ADD PUSH1 0x20 PUSH1 0x40 MLOAD DUP1 DUP4 SUB DUP2 PUSH1 0x0 DUP8 GAS CALL ISZERO DUP1 ISZERO PUSH2 0x8CF JUMPI RETURNDATASIZE PUSH1 0x0 DUP1 RETURNDATACOPY RETURNDATASIZE PUSH1 0x0 REVERT JUMPDEST POP POP POP POP PUSH1 0x40 MLOAD RETURNDATASIZE PUSH1 0x1F NOT PUSH1 0x1F DUP3 ADD AND DUP3 ADD DUP1 PUSH1 0x40 MSTORE POP DUP2 ADD SWAP1 PUSH2 0x8F3 SWAP2 SWAP1 PUSH2 0xD91 JUMP JUMPDEST POP PUSH1 0x40 DUP1 MLOAD PUSH1 0x1 PUSH1 0x1 PUSH1 0xA0 SHL SUB DUP1 DUP8 AND DUP3 MSTORE DUP6 AND PUSH1 0x20 DUP3 ADD MSTORE SWAP1 DUP2 ADD DUP4 SWAP1 MSTORE PUSH32 0x9B1BFA7FA9EE420A16E124F794C35AC9F90472ACC99140EB2F6447C714CAD8EB SWAP1 PUSH1 0x60 ADD PUSH1 0x40 MLOAD DUP1 SWAP2 SUB SWAP1 LOG1 POP POP POP POP JUMP JUMPDEST PUSH1 0x0 PUSH2 0x59F DUP4 PUSH1 0x1 PUSH1 0x1 PUSH1 0xA0 SHL SUB DUP5 AND PUSH2 0xB4F JUMP JUMPDEST PUSH1 0x0 DUP3 PUSH1 0x0 ADD DUP3 DUP2 SLOAD DUP2 LT PUSH2 0x971 JUMPI PUSH2 0x971 PUSH2 0xDB3 JUMP JUMPDEST SWAP1 PUSH1 0x0 MSTORE PUSH1 0x20 PUSH1 0x0 KECCAK256 ADD SLOAD SWAP1 POP SWAP3 SWAP2 POP POP JUMP JUMPDEST PUSH1 0x0 DUP2 DUP2 MSTORE PUSH1 0x1 DUP4 ADD PUSH1 0x20 MSTORE PUSH1 0x40 DUP2 KECCAK256 SLOAD PUSH2 0x9CB JUMPI POP DUP2 SLOAD PUSH1 0x1 DUP2 DUP2 ADD DUP5 SSTORE PUSH1 0x0 DUP5 DUP2 MSTORE PUSH1 0x20 DUP1 DUP3 KECCAK256 SWAP1 SWAP4 ADD DUP5 SWAP1 SSTORE DUP5 SLOAD DUP5 DUP3 MSTORE DUP3 DUP7 ADD SWAP1 SWAP4 MSTORE PUSH1 0x40 SWAP1 KECCAK256 SWAP2 SWAP1 SWAP2 SSTORE PUSH2 0x216 JUMP JUMPDEST POP PUSH1 0x0 PUSH2 0x216 JUMP JUMPDEST PUSH1 0x60 DUP2 PUSH1 0x0 ADD DUP1 SLOAD DUP1 PUSH1 0x20 MUL PUSH1 0x20 ADD PUSH1 0x40 MLOAD SWAP1 DUP2 ADD PUSH1 0x40 MSTORE DUP1 SWAP3 SWAP2 SWAP1 DUP2 DUP2 MSTORE PUSH1 0x20 ADD DUP3 DUP1 SLOAD DUP1 ISZERO PUSH2 0xA23 JUMPI PUSH1 0x20 MUL DUP3 ADD SWAP2 SWAP1 PUSH1 0x0 MSTORE PUSH1 0x20 PUSH1 0x0 KECCAK256 SWAP1 JUMPDEST DUP2 SLOAD DUP2 MSTORE PUSH1 0x20 ADD SWAP1 PUSH1 0x1 ADD SWAP1 DUP1 DUP4 GT PUSH2 0xA0F JUMPI JUMPDEST POP POP POP POP POP SWAP1 POP SWAP2 SWAP1 POP JUMP JUMPDEST PUSH2 0xA38 DUP2 PUSH2 0x21C JUMP JUMPDEST PUSH2 0xA90 JUMPI PUSH1 0x40 MLOAD PUSH3 0x461BCD PUSH1 0xE5 SHL DUP2 MSTORE PUSH1 0x20 PUSH1 0x4 DUP3 ADD MSTORE PUSH1 0x23 PUSH1 0x24 DUP3 ADD MSTORE PUSH32 0x4661636574536166653A20746F6B656E206973206E6F7420616C6C6F77656420 PUSH1 0x44 DUP3 ADD MSTORE PUSH3 0x1BDD5D PUSH1 0xEA SHL PUSH1 0x64 DUP3 ADD MSTORE PUSH1 0x84 ADD PUSH2 0x2FF JUMP JUMPDEST POP JUMP JUMPDEST DUP1 PUSH2 0xA9C PUSH2 0x56F JUMP JUMPDEST PUSH1 0x1 PUSH1 0x1 PUSH1 0xA0 SHL SUB DUP5 AND PUSH1 0x0 SWAP1 DUP2 MSTORE PUSH1 0x20 SWAP2 SWAP1 SWAP2 MSTORE PUSH1 0x40 SWAP1 KECCAK256 SLOAD LT ISZERO PUSH2 0xB04 JUMPI PUSH1 0x40 MLOAD PUSH3 0x461BCD PUSH1 0xE5 SHL DUP2 MSTORE PUSH1 0x20 PUSH1 0x4 DUP3 ADD MSTORE PUSH1 0x1F PUSH1 0x24 DUP3 ADD MSTORE PUSH32 0x4661636574536166653A20696E73756666696369656E742062616C616E636500 PUSH1 0x44 DUP3 ADD MSTORE PUSH1 0x64 ADD PUSH2 0x2FF JUMP JUMPDEST POP POP JUMP JUMPDEST PUSH1 0x0 PUSH8 0xDE0B6B3A7640000 PUSH2 0xB1E DUP4 PUSH1 0xA PUSH2 0xEAD JUMP JUMPDEST PUSH8 0xDE0B6B3A7640000 PUSH2 0xB31 DUP7 DUP3 PUSH2 0xEBC JUMP JUMPDEST PUSH2 0xB3B SWAP2 SWAP1 PUSH2 0xED3 JUMP JUMPDEST PUSH2 0xB45 SWAP2 SWAP1 PUSH2 0xEBC JUMP JUMPDEST PUSH2 0x59F SWAP2 SWAP1 PUSH2 0xED3 JUMP JUMPDEST PUSH1 0x0 DUP2 DUP2 MSTORE PUSH1 0x1 DUP4 ADD PUSH1 0x20 MSTORE PUSH1 0x40 DUP2 KECCAK256 SLOAD DUP1 ISZERO PUSH2 0xC38 JUMPI PUSH1 0x0 PUSH2 0xB73 PUSH1 0x1 DUP4 PUSH2 0xD5B JUMP JUMPDEST DUP6 SLOAD SWAP1 SWAP2 POP PUSH1 0x0 SWAP1 PUSH2 0xB87 SWAP1 PUSH1 0x1 SWAP1 PUSH2 0xD5B JUMP JUMPDEST SWAP1 POP DUP2 DUP2 EQ PUSH2 0xBEC JUMPI PUSH1 0x0 DUP7 PUSH1 0x0 ADD DUP3 DUP2 SLOAD DUP2 LT PUSH2 0xBA7 JUMPI PUSH2 0xBA7 PUSH2 0xDB3 JUMP JUMPDEST SWAP1 PUSH1 0x0 MSTORE PUSH1 0x20 PUSH1 0x0 KECCAK256 ADD SLOAD SWAP1 POP DUP1 DUP8 PUSH1 0x0 ADD DUP5 DUP2 SLOAD DUP2 LT PUSH2 0xBCA JUMPI PUSH2 0xBCA PUSH2 0xDB3 JUMP JUMPDEST PUSH1 0x0 SWAP2 DUP3 MSTORE PUSH1 0x20 DUP1 DUP4 KECCAK256 SWAP1 SWAP2 ADD SWAP3 SWAP1 SWAP3 SSTORE SWAP2 DUP3 MSTORE PUSH1 0x1 DUP9 ADD SWAP1 MSTORE PUSH1 0x40 SWAP1 KECCAK256 DUP4 SWAP1 SSTORE JUMPDEST DUP6 SLOAD DUP7 SWAP1 DUP1 PUSH2 0xBFD JUMPI PUSH2 0xBFD PUSH2 0xEF5 JUMP JUMPDEST PUSH1 0x1 SWAP1 SUB DUP2 DUP2 SWAP1 PUSH1 0x0 MSTORE PUSH1 0x20 PUSH1 0x0 KECCAK256 ADD PUSH1 0x0 SWAP1 SSTORE SWAP1 SSTORE DUP6 PUSH1 0x1 ADD PUSH1 0x0 DUP7 DUP2 MSTORE PUSH1 0x20 ADD SWAP1 DUP2 MSTORE PUSH1 0x20 ADD PUSH1 0x0 KECCAK256 PUSH1 0x0 SWAP1 SSTORE PUSH1 0x1 SWAP4 POP POP POP POP PUSH2 0x216 JUMP JUMPDEST PUSH1 0x0 SWAP2 POP POP PUSH2 0x216 JUMP JUMPDEST PUSH1 0x0 PUSH1 0x20 DUP3 DUP5 SUB SLT ISZERO PUSH2 0xC54 JUMPI PUSH1 0x0 DUP1 REVERT JUMPDEST POP CALLDATALOAD SWAP2 SWAP1 POP JUMP JUMPDEST DUP1 CALLDATALOAD PUSH1 0x1 PUSH1 0x1 PUSH1 0xA0 SHL SUB DUP2 AND DUP2 EQ PUSH2 0xC72 JUMPI PUSH1 0x0 DUP1 REVERT JUMPDEST SWAP2 SWAP1 POP JUMP JUMPDEST PUSH1 0x0 PUSH1 0x20 DUP3 DUP5 SUB SLT ISZERO PUSH2 0xC89 JUMPI PUSH1 0x0 DUP1 REVERT JUMPDEST PUSH2 0x59F DUP3 PUSH2 0xC5B JUMP JUMPDEST PUSH1 0x20 DUP1 DUP3 MSTORE DUP3 MLOAD DUP3 DUP3 ADD DUP2 SWAP1 MSTORE PUSH1 0x0 SWAP2 SWAP1 DUP5 DUP3 ADD SWAP1 PUSH1 0x40 DUP6 ADD SWAP1 DUP5 JUMPDEST DUP2 DUP2 LT ISZERO PUSH2 0xCD3 JUMPI DUP4 MLOAD PUSH1 0x1 PUSH1 0x1 PUSH1 0xA0 SHL SUB AND DUP4 MSTORE SWAP3 DUP5 ADD SWAP3 SWAP2 DUP5 ADD SWAP2 PUSH1 0x1 ADD PUSH2 0xCAE JUMP JUMPDEST POP SWAP1 SWAP7 SWAP6 POP POP POP POP POP POP JUMP JUMPDEST PUSH1 0x0 DUP1 PUSH1 0x40 DUP4 DUP6 SUB SLT ISZERO PUSH2 0xCF2 JUMPI PUSH1 0x0 DUP1 REVERT JUMPDEST PUSH2 0xCFB DUP4 PUSH2 0xC5B JUMP JUMPDEST SWAP5 PUSH1 0x20 SWAP4 SWAP1 SWAP4 ADD CALLDATALOAD SWAP4 POP POP POP JUMP JUMPDEST PUSH1 0x0 DUP1 PUSH1 0x0 PUSH1 0x60 DUP5 DUP7 SUB SLT ISZERO PUSH2 0xD1E JUMPI PUSH1 0x0 DUP1 REVERT JUMPDEST PUSH2 0xD27 DUP5 PUSH2 0xC5B JUMP JUMPDEST SWAP3 POP PUSH2 0xD35 PUSH1 0x20 DUP6 ADD PUSH2 0xC5B JUMP JUMPDEST SWAP2 POP PUSH1 0x40 DUP5 ADD CALLDATALOAD SWAP1 POP SWAP3 POP SWAP3 POP SWAP3 JUMP JUMPDEST PUSH4 0x4E487B71 PUSH1 0xE0 SHL PUSH1 0x0 MSTORE PUSH1 0x11 PUSH1 0x4 MSTORE PUSH1 0x24 PUSH1 0x0 REVERT JUMPDEST DUP2 DUP2 SUB DUP2 DUP2 GT ISZERO PUSH2 0x216 JUMPI PUSH2 0x216 PUSH2 0xD45 JUMP JUMPDEST PUSH1 0x0 PUSH1 0x20 DUP3 DUP5 SUB SLT ISZERO PUSH2 0xD80 JUMPI PUSH1 0x0 DUP1 REVERT JUMPDEST DUP2 MLOAD PUSH1 0xFF DUP2 AND DUP2 EQ PUSH2 0x59F JUMPI PUSH1 0x0 DUP1 REVERT JUMPDEST PUSH1 0x0 PUSH1 0x20 DUP3 DUP5 SUB SLT ISZERO PUSH2 0xDA3 JUMPI PUSH1 0x0 DUP1 REVERT JUMPDEST DUP2 MLOAD DUP1 ISZERO ISZERO DUP2 EQ PUSH2 0x59F JUMPI PUSH1 0x0 DUP1 REVERT JUMPDEST PUSH4 0x4E487B71 PUSH1 0xE0 SHL PUSH1 0x0 MSTORE PUSH1 0x32 PUSH1 0x4 MSTORE PUSH1 0x24 PUSH1 0x0 REVERT JUMPDEST PUSH1 0x1 DUP2 DUP2 JUMPDEST DUP1 DUP6 GT ISZERO PUSH2 0xE04 JUMPI DUP2 PUSH1 0x0 NOT DIV DUP3 GT ISZERO PUSH2 0xDEA JUMPI PUSH2 0xDEA PUSH2 0xD45 JUMP JUMPDEST DUP1 DUP6 AND ISZERO PUSH2 0xDF7 JUMPI SWAP2 DUP2 MUL SWAP2 JUMPDEST SWAP4 DUP5 SHR SWAP4 SWAP1 DUP1 MUL SWAP1 PUSH2 0xDCE JUMP JUMPDEST POP SWAP3 POP SWAP3 SWAP1 POP JUMP JUMPDEST PUSH1 0x0 DUP3 PUSH2 0xE1B JUMPI POP PUSH1 0x1 PUSH2 0x216 JUMP JUMPDEST DUP2 PUSH2 0xE28 JUMPI POP PUSH1 0x0 PUSH2 0x216 JUMP JUMPDEST DUP2 PUSH1 0x1 DUP2 EQ PUSH2 0xE3E JUMPI PUSH1 0x2 DUP2 EQ PUSH2 0xE48 JUMPI PUSH2 0xE64 JUMP JUMPDEST PUSH1 0x1 SWAP2 POP POP PUSH2 0x216 JUMP JUMPDEST PUSH1 0xFF DUP5 GT ISZERO PUSH2 0xE59 JUMPI PUSH2 0xE59 PUSH2 0xD45 JUMP JUMPDEST POP POP PUSH1 0x1 DUP3 SHL PUSH2 0x216 JUMP JUMPDEST POP PUSH1 0x20 DUP4 LT PUSH2 0x133 DUP4 LT AND PUSH1 0x4E DUP5 LT PUSH1 0xB DUP5 LT AND OR ISZERO PUSH2 0xE87 JUMPI POP DUP2 DUP2 EXP PUSH2 0x216 JUMP JUMPDEST PUSH2 0xE91 DUP4 DUP4 PUSH2 0xDC9 JUMP JUMPDEST DUP1 PUSH1 0x0 NOT DIV DUP3 GT ISZERO PUSH2 0xEA5 JUMPI PUSH2 0xEA5 PUSH2 0xD45 JUMP JUMPDEST MUL SWAP4 SWAP3 POP POP POP JUMP JUMPDEST PUSH1 0x0 PUSH2 0x59F PUSH1 0xFF DUP5 AND DUP4 PUSH2 0xE0C JUMP JUMPDEST DUP1 DUP3 MUL DUP2 ISZERO DUP3 DUP3 DIV DUP5 EQ OR PUSH2 0x216 JUMPI PUSH2 0x216 PUSH2 0xD45 JUMP JUMPDEST PUSH1 0x0 DUP3 PUSH2 0xEF0 JUMPI PUSH4 0x4E487B71 PUSH1 0xE0 SHL PUSH1 0x0 MSTORE PUSH1 0x12 PUSH1 0x4 MSTORE PUSH1 0x24 PUSH1 0x0 REVERT JUMPDEST POP DIV SWAP1 JUMP JUMPDEST PUSH4 0x4E487B71 PUSH1 0xE0 SHL PUSH1 0x0 MSTORE PUSH1 0x31 PUSH1 0x4 MSTORE PUSH1 0x24 PUSH1 0x0 REVERT INVALID LOG2 PUSH5 0x6970667358 0x22 SLT KECCAK256 0xC5 CREATE2 PUSH30 0xDB0E4D94CC07B5616FF512E09A4546532B6FB4ACBB4788FB1BFAE4067564 PUSH20 0x6F6C634300081300330000000000000000000000 "
		},
		"gasEstimates": {
			"creation": {
				"codeDepositCost": "781000",
				"executionCost": "818",
				"totalCost": "781818"
			},
			"external": {
				"____allowTokenInToSafe(address)": "infinite",
				"____allowTokenOutOfSafe(address)": "infinite",
				"____forbidTokenInToSafe(address)": "infinite",
				"____forbidTokenOutOfSafe(address)": "infinite",
				"____withdraw(address,address,uint256)": "infinite",
				"____withdraw(address,uint256)": "infinite",
				"getHoldingsInSafe(address)": "2619",
				"getTokenAllowedInToSafe(uint256)": "4785",
				"getTokenAllowedOutFromSafe(uint256)": "4720",
				"getTokensAllowedInToSafe()": "infinite",
				"getTokensAllowedOutFromSafe()": "infinite",
				"isAllowedIn(address)": "infinite",
				"isAllowedOut(address)": "infinite"
			},
			"internal": {
				"_deposit()": "infinite",
				"_deposit(address,uint256)": "infinite",
				"_onlyAllowedIn(address)": "infinite",
				"_onlyAllowedOut(address)": "infinite",
				"_onlyCallerHasSufficientBalance(address,uint256)": "infinite",
				"_onlyCallerHasSufficientBalance(uint256)": "infinite",
				"_onlySelf()": "infinite",
				"_onlySelfHasSufficientBalance(address,uint256)": "infinite",
				"_self()": "infinite",
				"_withdraw(address,address,uint256)": "infinite",
				"_withdraw(address,uint256)": "infinite"
			}
		},
		"methodIdentifiers": {
			"____allowTokenInToSafe(address)": "18b31027",
			"____allowTokenOutOfSafe(address)": "a6a2fcd7",
			"____forbidTokenInToSafe(address)": "e5e45084",
			"____forbidTokenOutOfSafe(address)": "b74cbb41",
			"____withdraw(address,address,uint256)": "36447c4e",
			"____withdraw(address,uint256)": "31b94450",
			"getHoldingsInSafe(address)": "3e800148",
			"getTokenAllowedInToSafe(uint256)": "e13a96d6",
			"getTokenAllowedOutFromSafe(uint256)": "0a885f95",
			"getTokensAllowedInToSafe()": "2a77d7b8",
			"getTokensAllowedOutFromSafe()": "464964b1",
			"isAllowedIn(address)": "b3a54f1b",
			"isAllowedOut(address)": "182a9420"
		}
	},
	"abi": [
		{
			"anonymous": false,
			"inputs": [
				{
					"indexed": false,
					"internalType": "address",
					"name": "from",
					"type": "address"
				},
				{
					"indexed": false,
					"internalType": "address",
					"name": "tokenIn",
					"type": "address"
				},
				{
					"indexed": false,
					"internalType": "uint256",
					"name": "amountIn",
					"type": "uint256"
				}
			],
			"name": "Deposit",
			"type": "event"
		},
		{
			"anonymous": false,
			"inputs": [
				{
					"indexed": false,
					"internalType": "address",
					"name": "tokenIn",
					"type": "address"
				}
			],
			"name": "PermissionGrantedTokenIn",
			"type": "event"
		},
		{
			"anonymous": false,
			"inputs": [
				{
					"indexed": false,
					"internalType": "address",
					"name": "tokenOut",
					"type": "address"
				}
			],
			"name": "PermissionGrantedTokenOut",
			"type": "event"
		},
		{
			"anonymous": false,
			"inputs": [
				{
					"indexed": false,
					"internalType": "address",
					"name": "tokenIn",
					"type": "address"
				}
			],
			"name": "PermissionRevokedTokenIn",
			"type": "event"
		},
		{
			"anonymous": false,
			"inputs": [
				{
					"indexed": false,
					"internalType": "address",
					"name": "tokenOut",
					"type": "address"
				}
			],
			"name": "PermissionRevokedTokenOut",
			"type": "event"
		},
		{
			"anonymous": false,
			"inputs": [
				{
					"indexed": false,
					"internalType": "address",
					"name": "to",
					"type": "address"
				},
				{
					"indexed": false,
					"internalType": "address",
					"name": "tokenOut",
					"type": "address"
				},
				{
					"indexed": false,
					"internalType": "uint256",
					"name": "amountOut",
					"type": "uint256"
				}
			],
			"name": "Withdraw",
			"type": "event"
		},
		{
			"inputs": [
				{
					"internalType": "address",
					"name": "token",
					"type": "address"
				}
			],
			"name": "____allowTokenInToSafe",
			"outputs": [],
			"stateMutability": "nonpayable",
			"type": "function"
		},
		{
			"inputs": [
				{
					"internalType": "address",
					"name": "token",
					"type": "address"
				}
			],
			"name": "____allowTokenOutOfSafe",
			"outputs": [],
			"stateMutability": "nonpayable",
			"type": "function"
		},
		{
			"inputs": [
				{
					"internalType": "address",
					"name": "token",
					"type": "address"
				}
			],
			"name": "____forbidTokenInToSafe",
			"outputs": [],
			"stateMutability": "nonpayable",
			"type": "function"
		},
		{
			"inputs": [
				{
					"internalType": "address",
					"name": "token",
					"type": "address"
				}
			],
			"name": "____forbidTokenOutOfSafe",
			"outputs": [],
			"stateMutability": "nonpayable",
			"type": "function"
		},
		{
			"inputs": [
				{
					"internalType": "address",
					"name": "to",
					"type": "address"
				},
				{
					"internalType": "uint256",
					"name": "amountOut",
					"type": "uint256"
				}
			],
			"name": "____withdraw",
			"outputs": [],
			"stateMutability": "nonpayable",
			"type": "function"
		},
		{
			"inputs": [
				{
					"internalType": "address",
					"name": "to",
					"type": "address"
				},
				{
					"internalType": "address",
					"name": "tokenOut",
					"type": "address"
				},
				{
					"internalType": "uint256",
					"name": "amountOut",
					"type": "uint256"
				}
			],
			"name": "____withdraw",
			"outputs": [],
			"stateMutability": "nonpayable",
			"type": "function"
		},
		{
			"inputs": [
				{
					"internalType": "address",
					"name": "token",
					"type": "address"
				}
			],
			"name": "getHoldingsInSafe",
			"outputs": [
				{
					"internalType": "uint256",
					"name": "",
					"type": "uint256"
				}
			],
			"stateMutability": "view",
			"type": "function"
		},
		{
			"inputs": [
				{
					"internalType": "uint256",
					"name": "tokenId",
					"type": "uint256"
				}
			],
			"name": "getTokenAllowedInToSafe",
			"outputs": [
				{
					"internalType": "address",
					"name": "",
					"type": "address"
				}
			],
			"stateMutability": "view",
			"type": "function"
		},
		{
			"inputs": [
				{
					"internalType": "uint256",
					"name": "tokenId",
					"type": "uint256"
				}
			],
			"name": "getTokenAllowedOutFromSafe",
			"outputs": [
				{
					"internalType": "address",
					"name": "",
					"type": "address"
				}
			],
			"stateMutability": "view",
			"type": "function"
		},
		{
			"inputs": [],
			"name": "getTokensAllowedInToSafe",
			"outputs": [
				{
					"internalType": "address[]",
					"name": "",
					"type": "address[]"
				}
			],
			"stateMutability": "view",
			"type": "function"
		},
		{
			"inputs": [],
			"name": "getTokensAllowedOutFromSafe",
			"outputs": [
				{
					"internalType": "address[]",
					"name": "",
					"type": "address[]"
				}
			],
			"stateMutability": "view",
			"type": "function"
		},
		{
			"inputs": [
				{
					"internalType": "address",
					"name": "token",
					"type": "address"
				}
			],
			"name": "isAllowedIn",
			"outputs": [
				{
					"internalType": "bool",
					"name": "",
					"type": "bool"
				}
			],
			"stateMutability": "view",
			"type": "function"
		},
		{
			"inputs": [
				{
					"internalType": "address",
					"name": "token",
					"type": "address"
				}
			],
			"name": "isAllowedOut",
			"outputs": [
				{
					"internalType": "bool",
					"name": "",
					"type": "bool"
				}
			],
			"stateMutability": "view",
			"type": "function"
		}
	]
}