{
	"data": {
		"bytecode": {
			"linkReferences": {},
			"object": "608060405234801561001057600080fd5b506111b0806100206000396000f3fe6080604052600436106100e85760003560e01c8063464964b11161008a578063b74cbb4111610059578063b74cbb4114610281578063d0e30db0146102a1578063e13a96d6146102a9578063e5e45084146102c957600080fd5b8063464964b11461020c57806347e7ef2414610221578063a6a2fcd714610241578063b3a54f1b1461026157600080fd5b80632a77d7b8116100c65780632a77d7b81461017c57806331b944501461019e57806336447c4e146101be5780633e800148146101de57600080fd5b80630a885f95146100ed578063182a94201461012a57806318b310271461015a575b600080fd5b3480156100f957600080fd5b5061010d610108366004610f9d565b6102e9565b6040516001600160a01b0390911681526020015b60405180910390f35b34801561013657600080fd5b5061014a610145366004610fd2565b610306565b6040519015158152602001610121565b34801561016657600080fd5b5061017a610175366004610fd2565b61031d565b005b34801561018857600080fd5b50610191610372565b6040516101219190610fed565b3480156101aa57600080fd5b5061017a6101b936600461103a565b61038c565b3480156101ca57600080fd5b5061017a6101d9366004611064565b610507565b3480156101ea57600080fd5b506101fe6101f9366004610fd2565b610731565b604051908152602001610121565b34801561021857600080fd5b5061019161075a565b34801561022d57600080fd5b5061017a61023c36600461103a565b61076f565b34801561024d57600080fd5b5061017a61025c366004610fd2565b61080d565b34801561026d57600080fd5b5061014a61027c366004610fd2565b610862565b34801561028d57600080fd5b5061017a61029c366004610fd2565b610879565b61017a6108ce565b3480156102b557600080fd5b5061010d6102c4366004610f9d565b610968565b3480156102d557600080fd5b5061017a6102e4366004610fd2565b61097f565b6000610300826102f76109d4565b600301906109f8565b92915050565b6000610300826103146109d4565b60030190610a0b565b610325610a2d565b61033a816103316109d4565b60010190610a75565b506040516001600160a01b038216907ff6aea4ebd15c89ff6a16b7819fb6968ad0a0ce7e0085ef4c87a85f8c0cd2e46a90600090a250565b606061038761037f6109d4565b600101610a8a565b905090565b610394610a2d565b61039e6000610306565b6103f95760405162461bcd60e51b815260206004820152602160248201527f4661636574536166653a20657468206973206e6f7420616c6c6f776564206f756044820152601d60fa1b60648201526084015b60405180910390fd5b806104026109d4565b6000808052602091909152604090205410156104305760405162461bcd60e51b81526004016103f0906110a0565b806104396109d4565b60008080526020919091526040812080549091906104589084906110ed565b9091555061046690506109d4565b6000808052602091909152604081205490036104945761049260006104896109d4565b60050190610a97565b505b6040516001600160a01b0383169082156108fc029083906000818181858888f193505050501580156104ca573d6000803e3d6000fd5b5060405181906000906001600160a01b038516907f9b1bfa7fa9ee420a16e124f794c35ac9f90472acc99140eb2f6447c714cad8eb908390a45050565b81610510610a2d565b6001600160a01b0383166105665760405162461bcd60e51b815260206004820152601a60248201527f4661636574536166653a20696d70726f706572206d6574686f6400000000000060448201526064016103f0565b61056f83610306565b6105c75760405162461bcd60e51b815260206004820152602360248201527f4661636574536166653a20746f6b656e206973206e6f7420616c6c6f776564206044820152621bdd5d60ea1b60648201526084016103f0565b816105d06109d4565b6001600160a01b0385166000908152602091909152604090205410156106085760405162461bcd60e51b81526004016103f0906110a0565b816106116109d4565b6001600160a01b038516600090815260209190915260408120805490919061063a9084906110ed565b9091555061064890506109d4565b6001600160a01b03841660009081526020919091526040812054900361067657610674836104896109d4565b505b60405163a9059cbb60e01b81526001600160a01b0385811660048301526024820184905282169063a9059cbb906044016020604051808303816000875af11580156106c5573d6000803e3d6000fd5b505050506040513d601f19601f820116820180604052508101906106e99190611100565b5081836001600160a01b0316856001600160a01b03167f9b1bfa7fa9ee420a16e124f794c35ac9f90472acc99140eb2f6447c714cad8eb60405160405180910390a450505050565b600061073b6109d4565b6001600160a01b03909216600090815260209290925250604090205490565b60606103876107676109d4565b600301610a8a565b6107776109d4565b6007015460ff16156107c75760405162461bcd60e51b8152602060048201526019602482015278119858d95d14d859994e881c99595b9d1c985b9d0818d85b1b603a1b60448201526064016103f0565b60016107d16109d4565b600701805460ff19169115159190911790556107ed8282610aac565b60006107f76109d4565b600701805460ff19169115159190911790555050565b610815610a2d565b61082a816108216109d4565b60030190610a75565b506040516001600160a01b038216907fb91009acff1ca23a9fe12400608cae8383f810cac953c1a16a99fe9b9c65abfb90600090a250565b6000610300826108706109d4565b60010190610a0b565b610881610a2d565b6108968161088d6109d4565b60030190610a97565b506040516001600160a01b038216907f64f9ae8a27a020b54f63a0d9ff5d3f0dd302b35eef11d16612b2a02b2d8a824890600090a250565b6108d66109d4565b6007015460ff16156109265760405162461bcd60e51b8152602060048201526019602482015278119858d95d14d859994e881c99595b9d1c985b9d0818d85b1b603a1b60448201526064016103f0565b60016109306109d4565b600701805460ff191691151591909117905561094a610cb7565b60006109546109d4565b600701805460ff1916911515919091179055565b6000610300826109766109d4565b600101906109f8565b610987610a2d565b61099c816109936109d4565b60010190610a97565b506040516001600160a01b038216907f0a05ed313e53d05b8e9ebe468e240ec174f5190074867a051f35ac20709eed0490600090a250565b7ff2eeec4c06050035800631f1916b3a25e1fa154de963ec50f0ac015a5be9e61890565b6000610a048383610dd5565b9392505050565b6001600160a01b03811660009081526001830160205260408120541515610a04565b333014610a735760405162461bcd60e51b81526020600482015260146024820152732330b1b2ba29b0b3329d1037b7363c9039b2b63360611b60448201526064016103f0565b565b6000610a04836001600160a01b038416610dff565b60606000610a0483610e4e565b6000610a04836001600160a01b038416610eaa565b81610ab681610862565b610b0d5760405162461bcd60e51b815260206004820152602260248201527f4661636574536166653a20746f6b656e206973206e6f7420616c6c6f7765642060448201526134b760f11b60648201526084016103f0565b816001600160a01b0382166370a08231336040516001600160e01b031960e084901b1681526001600160a01b039091166004820152602401602060405180830381865afa158015610b62573d6000803e3d6000fd5b505050506040513d601f19601f82011682018060405250810190610b869190611122565b1015610ba45760405162461bcd60e51b81526004016103f0906110a0565b6001600160a01b0381166323b872dd336040516001600160e01b031960e084901b1681526001600160a01b039091166004820152306024820152604481018590526064016020604051808303816000875af1158015610c07573d6000803e3d6000fd5b505050506040513d601f19601f82011682018060405250810190610c2b9190611100565b5081610c356109d4565b6001600160a01b0385166000908152602091909152604081208054909190610c5e90849061113b565b90915550610c79905083610c706109d4565b60050190610a75565b5060405182906001600160a01b0385169033907f5548c837ab068cf56a2c2479df0882a4922fd203edb7517321831d95078c5f6290600090a4505050565b610cc16000610862565b610d0d5760405162461bcd60e51b815260206004820181905260248201527f4661636574536166653a20657468206973206e6f7420616c6c6f77656420696e60448201526064016103f0565b6001341015610d685760405162461bcd60e51b815260206004820152602160248201527f4661636574536166653a20696e73756666696369656e7420616d6f756e7420696044820152603760f91b60648201526084016103f0565b34610d716109d4565b6000808052602091909152604081208054909190610d9090849061113b565b90915550610da390506000610c706109d4565b50604051349060009033907f5548c837ab068cf56a2c2479df0882a4922fd203edb7517321831d95078c5f62908390a4565b6000826000018281548110610dec57610dec61114e565b9060005260206000200154905092915050565b6000818152600183016020526040812054610e4657508154600181810184556000848152602080822090930184905584548482528286019093526040902091909155610300565b506000610300565b606081600001805480602002602001604051908101604052809291908181526020018280548015610e9e57602002820191906000526020600020905b815481526020019060010190808311610e8a575b50505050509050919050565b60008181526001830160205260408120548015610f93576000610ece6001836110ed565b8554909150600090610ee2906001906110ed565b9050818114610f47576000866000018281548110610f0257610f0261114e565b9060005260206000200154905080876000018481548110610f2557610f2561114e565b6000918252602080832090910192909255918252600188019052604090208390555b8554869080610f5857610f58611164565b600190038181906000526020600020016000905590558560010160008681526020019081526020016000206000905560019350505050610300565b6000915050610300565b600060208284031215610faf57600080fd5b5035919050565b80356001600160a01b0381168114610fcd57600080fd5b919050565b600060208284031215610fe457600080fd5b610a0482610fb6565b6020808252825182820181905260009190848201906040850190845b8181101561102e5783516001600160a01b031683529284019291840191600101611009565b50909695505050505050565b6000806040838503121561104d57600080fd5b61105683610fb6565b946020939093013593505050565b60008060006060848603121561107957600080fd5b61108284610fb6565b925061109060208501610fb6565b9150604084013590509250925092565b6020808252601f908201527f4661636574536166653a20696e73756666696369656e742062616c616e636500604082015260600190565b634e487b7160e01b600052601160045260246000fd5b81810381811115610300576103006110d7565b60006020828403121561111257600080fd5b81518015158114610a0457600080fd5b60006020828403121561113457600080fd5b5051919050565b80820180821115610300576103006110d7565b634e487b7160e01b600052603260045260246000fd5b634e487b7160e01b600052603160045260246000fdfea264697066735822122002dcf7262d847738791776c65e9a67a982921859824c43db08be75a339d9fed064736f6c63430008130033",
			"opcodes": "PUSH1 0x80 PUSH1 0x40 MSTORE CALLVALUE DUP1 ISZERO PUSH2 0x10 JUMPI PUSH1 0x0 DUP1 REVERT JUMPDEST POP PUSH2 0x11B0 DUP1 PUSH2 0x20 PUSH1 0x0 CODECOPY PUSH1 0x0 RETURN INVALID PUSH1 0x80 PUSH1 0x40 MSTORE PUSH1 0x4 CALLDATASIZE LT PUSH2 0xE8 JUMPI PUSH1 0x0 CALLDATALOAD PUSH1 0xE0 SHR DUP1 PUSH4 0x464964B1 GT PUSH2 0x8A JUMPI DUP1 PUSH4 0xB74CBB41 GT PUSH2 0x59 JUMPI DUP1 PUSH4 0xB74CBB41 EQ PUSH2 0x281 JUMPI DUP1 PUSH4 0xD0E30DB0 EQ PUSH2 0x2A1 JUMPI DUP1 PUSH4 0xE13A96D6 EQ PUSH2 0x2A9 JUMPI DUP1 PUSH4 0xE5E45084 EQ PUSH2 0x2C9 JUMPI PUSH1 0x0 DUP1 REVERT JUMPDEST DUP1 PUSH4 0x464964B1 EQ PUSH2 0x20C JUMPI DUP1 PUSH4 0x47E7EF24 EQ PUSH2 0x221 JUMPI DUP1 PUSH4 0xA6A2FCD7 EQ PUSH2 0x241 JUMPI DUP1 PUSH4 0xB3A54F1B EQ PUSH2 0x261 JUMPI PUSH1 0x0 DUP1 REVERT JUMPDEST DUP1 PUSH4 0x2A77D7B8 GT PUSH2 0xC6 JUMPI DUP1 PUSH4 0x2A77D7B8 EQ PUSH2 0x17C JUMPI DUP1 PUSH4 0x31B94450 EQ PUSH2 0x19E JUMPI DUP1 PUSH4 0x36447C4E EQ PUSH2 0x1BE JUMPI DUP1 PUSH4 0x3E800148 EQ PUSH2 0x1DE JUMPI PUSH1 0x0 DUP1 REVERT JUMPDEST DUP1 PUSH4 0xA885F95 EQ PUSH2 0xED JUMPI DUP1 PUSH4 0x182A9420 EQ PUSH2 0x12A JUMPI DUP1 PUSH4 0x18B31027 EQ PUSH2 0x15A JUMPI JUMPDEST PUSH1 0x0 DUP1 REVERT JUMPDEST CALLVALUE DUP1 ISZERO PUSH2 0xF9 JUMPI PUSH1 0x0 DUP1 REVERT JUMPDEST POP PUSH2 0x10D PUSH2 0x108 CALLDATASIZE PUSH1 0x4 PUSH2 0xF9D JUMP JUMPDEST PUSH2 0x2E9 JUMP JUMPDEST PUSH1 0x40 MLOAD PUSH1 0x1 PUSH1 0x1 PUSH1 0xA0 SHL SUB SWAP1 SWAP2 AND DUP2 MSTORE PUSH1 0x20 ADD JUMPDEST PUSH1 0x40 MLOAD DUP1 SWAP2 SUB SWAP1 RETURN JUMPDEST CALLVALUE DUP1 ISZERO PUSH2 0x136 JUMPI PUSH1 0x0 DUP1 REVERT JUMPDEST POP PUSH2 0x14A PUSH2 0x145 CALLDATASIZE PUSH1 0x4 PUSH2 0xFD2 JUMP JUMPDEST PUSH2 0x306 JUMP JUMPDEST PUSH1 0x40 MLOAD SWAP1 ISZERO ISZERO DUP2 MSTORE PUSH1 0x20 ADD PUSH2 0x121 JUMP JUMPDEST CALLVALUE DUP1 ISZERO PUSH2 0x166 JUMPI PUSH1 0x0 DUP1 REVERT JUMPDEST POP PUSH2 0x17A PUSH2 0x175 CALLDATASIZE PUSH1 0x4 PUSH2 0xFD2 JUMP JUMPDEST PUSH2 0x31D JUMP JUMPDEST STOP JUMPDEST CALLVALUE DUP1 ISZERO PUSH2 0x188 JUMPI PUSH1 0x0 DUP1 REVERT JUMPDEST POP PUSH2 0x191 PUSH2 0x372 JUMP JUMPDEST PUSH1 0x40 MLOAD PUSH2 0x121 SWAP2 SWAP1 PUSH2 0xFED JUMP JUMPDEST CALLVALUE DUP1 ISZERO PUSH2 0x1AA JUMPI PUSH1 0x0 DUP1 REVERT JUMPDEST POP PUSH2 0x17A PUSH2 0x1B9 CALLDATASIZE PUSH1 0x4 PUSH2 0x103A JUMP JUMPDEST PUSH2 0x38C JUMP JUMPDEST CALLVALUE DUP1 ISZERO PUSH2 0x1CA JUMPI PUSH1 0x0 DUP1 REVERT JUMPDEST POP PUSH2 0x17A PUSH2 0x1D9 CALLDATASIZE PUSH1 0x4 PUSH2 0x1064 JUMP JUMPDEST PUSH2 0x507 JUMP JUMPDEST CALLVALUE DUP1 ISZERO PUSH2 0x1EA JUMPI PUSH1 0x0 DUP1 REVERT JUMPDEST POP PUSH2 0x1FE PUSH2 0x1F9 CALLDATASIZE PUSH1 0x4 PUSH2 0xFD2 JUMP JUMPDEST PUSH2 0x731 JUMP JUMPDEST PUSH1 0x40 MLOAD SWAP1 DUP2 MSTORE PUSH1 0x20 ADD PUSH2 0x121 JUMP JUMPDEST CALLVALUE DUP1 ISZERO PUSH2 0x218 JUMPI PUSH1 0x0 DUP1 REVERT JUMPDEST POP PUSH2 0x191 PUSH2 0x75A JUMP JUMPDEST CALLVALUE DUP1 ISZERO PUSH2 0x22D JUMPI PUSH1 0x0 DUP1 REVERT JUMPDEST POP PUSH2 0x17A PUSH2 0x23C CALLDATASIZE PUSH1 0x4 PUSH2 0x103A JUMP JUMPDEST PUSH2 0x76F JUMP JUMPDEST CALLVALUE DUP1 ISZERO PUSH2 0x24D JUMPI PUSH1 0x0 DUP1 REVERT JUMPDEST POP PUSH2 0x17A PUSH2 0x25C CALLDATASIZE PUSH1 0x4 PUSH2 0xFD2 JUMP JUMPDEST PUSH2 0x80D JUMP JUMPDEST CALLVALUE DUP1 ISZERO PUSH2 0x26D JUMPI PUSH1 0x0 DUP1 REVERT JUMPDEST POP PUSH2 0x14A PUSH2 0x27C CALLDATASIZE PUSH1 0x4 PUSH2 0xFD2 JUMP JUMPDEST PUSH2 0x862 JUMP JUMPDEST CALLVALUE DUP1 ISZERO PUSH2 0x28D JUMPI PUSH1 0x0 DUP1 REVERT JUMPDEST POP PUSH2 0x17A PUSH2 0x29C CALLDATASIZE PUSH1 0x4 PUSH2 0xFD2 JUMP JUMPDEST PUSH2 0x879 JUMP JUMPDEST PUSH2 0x17A PUSH2 0x8CE JUMP JUMPDEST CALLVALUE DUP1 ISZERO PUSH2 0x2B5 JUMPI PUSH1 0x0 DUP1 REVERT JUMPDEST POP PUSH2 0x10D PUSH2 0x2C4 CALLDATASIZE PUSH1 0x4 PUSH2 0xF9D JUMP JUMPDEST PUSH2 0x968 JUMP JUMPDEST CALLVALUE DUP1 ISZERO PUSH2 0x2D5 JUMPI PUSH1 0x0 DUP1 REVERT JUMPDEST POP PUSH2 0x17A PUSH2 0x2E4 CALLDATASIZE PUSH1 0x4 PUSH2 0xFD2 JUMP JUMPDEST PUSH2 0x97F JUMP JUMPDEST PUSH1 0x0 PUSH2 0x300 DUP3 PUSH2 0x2F7 PUSH2 0x9D4 JUMP JUMPDEST PUSH1 0x3 ADD SWAP1 PUSH2 0x9F8 JUMP JUMPDEST SWAP3 SWAP2 POP POP JUMP JUMPDEST PUSH1 0x0 PUSH2 0x300 DUP3 PUSH2 0x314 PUSH2 0x9D4 JUMP JUMPDEST PUSH1 0x3 ADD SWAP1 PUSH2 0xA0B JUMP JUMPDEST PUSH2 0x325 PUSH2 0xA2D JUMP JUMPDEST PUSH2 0x33A DUP2 PUSH2 0x331 PUSH2 0x9D4 JUMP JUMPDEST PUSH1 0x1 ADD SWAP1 PUSH2 0xA75 JUMP JUMPDEST POP PUSH1 0x40 MLOAD PUSH1 0x1 PUSH1 0x1 PUSH1 0xA0 SHL SUB DUP3 AND SWAP1 PUSH32 0xF6AEA4EBD15C89FF6A16B7819FB6968AD0A0CE7E0085EF4C87A85F8C0CD2E46A SWAP1 PUSH1 0x0 SWAP1 LOG2 POP JUMP JUMPDEST PUSH1 0x60 PUSH2 0x387 PUSH2 0x37F PUSH2 0x9D4 JUMP JUMPDEST PUSH1 0x1 ADD PUSH2 0xA8A JUMP JUMPDEST SWAP1 POP SWAP1 JUMP JUMPDEST PUSH2 0x394 PUSH2 0xA2D JUMP JUMPDEST PUSH2 0x39E PUSH1 0x0 PUSH2 0x306 JUMP JUMPDEST PUSH2 0x3F9 JUMPI PUSH1 0x40 MLOAD PUSH3 0x461BCD PUSH1 0xE5 SHL DUP2 MSTORE PUSH1 0x20 PUSH1 0x4 DUP3 ADD MSTORE PUSH1 0x21 PUSH1 0x24 DUP3 ADD MSTORE PUSH32 0x4661636574536166653A20657468206973206E6F7420616C6C6F776564206F75 PUSH1 0x44 DUP3 ADD MSTORE PUSH1 0x1D PUSH1 0xFA SHL PUSH1 0x64 DUP3 ADD MSTORE PUSH1 0x84 ADD JUMPDEST PUSH1 0x40 MLOAD DUP1 SWAP2 SUB SWAP1 REVERT JUMPDEST DUP1 PUSH2 0x402 PUSH2 0x9D4 JUMP JUMPDEST PUSH1 0x0 DUP1 DUP1 MSTORE PUSH1 0x20 SWAP2 SWAP1 SWAP2 MSTORE PUSH1 0x40 SWAP1 KECCAK256 SLOAD LT ISZERO PUSH2 0x430 JUMPI PUSH1 0x40 MLOAD PUSH3 0x461BCD PUSH1 0xE5 SHL DUP2 MSTORE PUSH1 0x4 ADD PUSH2 0x3F0 SWAP1 PUSH2 0x10A0 JUMP JUMPDEST DUP1 PUSH2 0x439 PUSH2 0x9D4 JUMP JUMPDEST PUSH1 0x0 DUP1 DUP1 MSTORE PUSH1 0x20 SWAP2 SWAP1 SWAP2 MSTORE PUSH1 0x40 DUP2 KECCAK256 DUP1 SLOAD SWAP1 SWAP2 SWAP1 PUSH2 0x458 SWAP1 DUP5 SWAP1 PUSH2 0x10ED JUMP JUMPDEST SWAP1 SWAP2 SSTORE POP PUSH2 0x466 SWAP1 POP PUSH2 0x9D4 JUMP JUMPDEST PUSH1 0x0 DUP1 DUP1 MSTORE PUSH1 0x20 SWAP2 SWAP1 SWAP2 MSTORE PUSH1 0x40 DUP2 KECCAK256 SLOAD SWAP1 SUB PUSH2 0x494 JUMPI PUSH2 0x492 PUSH1 0x0 PUSH2 0x489 PUSH2 0x9D4 JUMP JUMPDEST PUSH1 0x5 ADD SWAP1 PUSH2 0xA97 JUMP JUMPDEST POP JUMPDEST PUSH1 0x40 MLOAD PUSH1 0x1 PUSH1 0x1 PUSH1 0xA0 SHL SUB DUP4 AND SWAP1 DUP3 ISZERO PUSH2 0x8FC MUL SWAP1 DUP4 SWAP1 PUSH1 0x0 DUP2 DUP2 DUP2 DUP6 DUP9 DUP9 CALL SWAP4 POP POP POP POP ISZERO DUP1 ISZERO PUSH2 0x4CA JUMPI RETURNDATASIZE PUSH1 0x0 DUP1 RETURNDATACOPY RETURNDATASIZE PUSH1 0x0 REVERT JUMPDEST POP PUSH1 0x40 MLOAD DUP2 SWAP1 PUSH1 0x0 SWAP1 PUSH1 0x1 PUSH1 0x1 PUSH1 0xA0 SHL SUB DUP6 AND SWAP1 PUSH32 0x9B1BFA7FA9EE420A16E124F794C35AC9F90472ACC99140EB2F6447C714CAD8EB SWAP1 DUP4 SWAP1 LOG4 POP POP JUMP JUMPDEST DUP2 PUSH2 0x510 PUSH2 0xA2D JUMP JUMPDEST PUSH1 0x1 PUSH1 0x1 PUSH1 0xA0 SHL SUB DUP4 AND PUSH2 0x566 JUMPI PUSH1 0x40 MLOAD PUSH3 0x461BCD PUSH1 0xE5 SHL DUP2 MSTORE PUSH1 0x20 PUSH1 0x4 DUP3 ADD MSTORE PUSH1 0x1A PUSH1 0x24 DUP3 ADD MSTORE PUSH32 0x4661636574536166653A20696D70726F706572206D6574686F64000000000000 PUSH1 0x44 DUP3 ADD MSTORE PUSH1 0x64 ADD PUSH2 0x3F0 JUMP JUMPDEST PUSH2 0x56F DUP4 PUSH2 0x306 JUMP JUMPDEST PUSH2 0x5C7 JUMPI PUSH1 0x40 MLOAD PUSH3 0x461BCD PUSH1 0xE5 SHL DUP2 MSTORE PUSH1 0x20 PUSH1 0x4 DUP3 ADD MSTORE PUSH1 0x23 PUSH1 0x24 DUP3 ADD MSTORE PUSH32 0x4661636574536166653A20746F6B656E206973206E6F7420616C6C6F77656420 PUSH1 0x44 DUP3 ADD MSTORE PUSH3 0x1BDD5D PUSH1 0xEA SHL PUSH1 0x64 DUP3 ADD MSTORE PUSH1 0x84 ADD PUSH2 0x3F0 JUMP JUMPDEST DUP2 PUSH2 0x5D0 PUSH2 0x9D4 JUMP JUMPDEST PUSH1 0x1 PUSH1 0x1 PUSH1 0xA0 SHL SUB DUP6 AND PUSH1 0x0 SWAP1 DUP2 MSTORE PUSH1 0x20 SWAP2 SWAP1 SWAP2 MSTORE PUSH1 0x40 SWAP1 KECCAK256 SLOAD LT ISZERO PUSH2 0x608 JUMPI PUSH1 0x40 MLOAD PUSH3 0x461BCD PUSH1 0xE5 SHL DUP2 MSTORE PUSH1 0x4 ADD PUSH2 0x3F0 SWAP1 PUSH2 0x10A0 JUMP JUMPDEST DUP2 PUSH2 0x611 PUSH2 0x9D4 JUMP JUMPDEST PUSH1 0x1 PUSH1 0x1 PUSH1 0xA0 SHL SUB DUP6 AND PUSH1 0x0 SWAP1 DUP2 MSTORE PUSH1 0x20 SWAP2 SWAP1 SWAP2 MSTORE PUSH1 0x40 DUP2 KECCAK256 DUP1 SLOAD SWAP1 SWAP2 SWAP1 PUSH2 0x63A SWAP1 DUP5 SWAP1 PUSH2 0x10ED JUMP JUMPDEST SWAP1 SWAP2 SSTORE POP PUSH2 0x648 SWAP1 POP PUSH2 0x9D4 JUMP JUMPDEST PUSH1 0x1 PUSH1 0x1 PUSH1 0xA0 SHL SUB DUP5 AND PUSH1 0x0 SWAP1 DUP2 MSTORE PUSH1 0x20 SWAP2 SWAP1 SWAP2 MSTORE PUSH1 0x40 DUP2 KECCAK256 SLOAD SWAP1 SUB PUSH2 0x676 JUMPI PUSH2 0x674 DUP4 PUSH2 0x489 PUSH2 0x9D4 JUMP JUMPDEST POP JUMPDEST PUSH1 0x40 MLOAD PUSH4 0xA9059CBB PUSH1 0xE0 SHL DUP2 MSTORE PUSH1 0x1 PUSH1 0x1 PUSH1 0xA0 SHL SUB DUP6 DUP2 AND PUSH1 0x4 DUP4 ADD MSTORE PUSH1 0x24 DUP3 ADD DUP5 SWAP1 MSTORE DUP3 AND SWAP1 PUSH4 0xA9059CBB SWAP1 PUSH1 0x44 ADD PUSH1 0x20 PUSH1 0x40 MLOAD DUP1 DUP4 SUB DUP2 PUSH1 0x0 DUP8 GAS CALL ISZERO DUP1 ISZERO PUSH2 0x6C5 JUMPI RETURNDATASIZE PUSH1 0x0 DUP1 RETURNDATACOPY RETURNDATASIZE PUSH1 0x0 REVERT JUMPDEST POP POP POP POP PUSH1 0x40 MLOAD RETURNDATASIZE PUSH1 0x1F NOT PUSH1 0x1F DUP3 ADD AND DUP3 ADD DUP1 PUSH1 0x40 MSTORE POP DUP2 ADD SWAP1 PUSH2 0x6E9 SWAP2 SWAP1 PUSH2 0x1100 JUMP JUMPDEST POP DUP2 DUP4 PUSH1 0x1 PUSH1 0x1 PUSH1 0xA0 SHL SUB AND DUP6 PUSH1 0x1 PUSH1 0x1 PUSH1 0xA0 SHL SUB AND PUSH32 0x9B1BFA7FA9EE420A16E124F794C35AC9F90472ACC99140EB2F6447C714CAD8EB PUSH1 0x40 MLOAD PUSH1 0x40 MLOAD DUP1 SWAP2 SUB SWAP1 LOG4 POP POP POP POP JUMP JUMPDEST PUSH1 0x0 PUSH2 0x73B PUSH2 0x9D4 JUMP JUMPDEST PUSH1 0x1 PUSH1 0x1 PUSH1 0xA0 SHL SUB SWAP1 SWAP3 AND PUSH1 0x0 SWAP1 DUP2 MSTORE PUSH1 0x20 SWAP3 SWAP1 SWAP3 MSTORE POP PUSH1 0x40 SWAP1 KECCAK256 SLOAD SWAP1 JUMP JUMPDEST PUSH1 0x60 PUSH2 0x387 PUSH2 0x767 PUSH2 0x9D4 JUMP JUMPDEST PUSH1 0x3 ADD PUSH2 0xA8A JUMP JUMPDEST PUSH2 0x777 PUSH2 0x9D4 JUMP JUMPDEST PUSH1 0x7 ADD SLOAD PUSH1 0xFF AND ISZERO PUSH2 0x7C7 JUMPI PUSH1 0x40 MLOAD PUSH3 0x461BCD PUSH1 0xE5 SHL DUP2 MSTORE PUSH1 0x20 PUSH1 0x4 DUP3 ADD MSTORE PUSH1 0x19 PUSH1 0x24 DUP3 ADD MSTORE PUSH25 0x119858D95D14D859994E881C99595B9D1C985B9D0818D85B1B PUSH1 0x3A SHL PUSH1 0x44 DUP3 ADD MSTORE PUSH1 0x64 ADD PUSH2 0x3F0 JUMP JUMPDEST PUSH1 0x1 PUSH2 0x7D1 PUSH2 0x9D4 JUMP JUMPDEST PUSH1 0x7 ADD DUP1 SLOAD PUSH1 0xFF NOT AND SWAP2 ISZERO ISZERO SWAP2 SWAP1 SWAP2 OR SWAP1 SSTORE PUSH2 0x7ED DUP3 DUP3 PUSH2 0xAAC JUMP JUMPDEST PUSH1 0x0 PUSH2 0x7F7 PUSH2 0x9D4 JUMP JUMPDEST PUSH1 0x7 ADD DUP1 SLOAD PUSH1 0xFF NOT AND SWAP2 ISZERO ISZERO SWAP2 SWAP1 SWAP2 OR SWAP1 SSTORE POP POP JUMP JUMPDEST PUSH2 0x815 PUSH2 0xA2D JUMP JUMPDEST PUSH2 0x82A DUP2 PUSH2 0x821 PUSH2 0x9D4 JUMP JUMPDEST PUSH1 0x3 ADD SWAP1 PUSH2 0xA75 JUMP JUMPDEST POP PUSH1 0x40 MLOAD PUSH1 0x1 PUSH1 0x1 PUSH1 0xA0 SHL SUB DUP3 AND SWAP1 PUSH32 0xB91009ACFF1CA23A9FE12400608CAE8383F810CAC953C1A16A99FE9B9C65ABFB SWAP1 PUSH1 0x0 SWAP1 LOG2 POP JUMP JUMPDEST PUSH1 0x0 PUSH2 0x300 DUP3 PUSH2 0x870 PUSH2 0x9D4 JUMP JUMPDEST PUSH1 0x1 ADD SWAP1 PUSH2 0xA0B JUMP JUMPDEST PUSH2 0x881 PUSH2 0xA2D JUMP JUMPDEST PUSH2 0x896 DUP2 PUSH2 0x88D PUSH2 0x9D4 JUMP JUMPDEST PUSH1 0x3 ADD SWAP1 PUSH2 0xA97 JUMP JUMPDEST POP PUSH1 0x40 MLOAD PUSH1 0x1 PUSH1 0x1 PUSH1 0xA0 SHL SUB DUP3 AND SWAP1 PUSH32 0x64F9AE8A27A020B54F63A0D9FF5D3F0DD302B35EEF11D16612B2A02B2D8A8248 SWAP1 PUSH1 0x0 SWAP1 LOG2 POP JUMP JUMPDEST PUSH2 0x8D6 PUSH2 0x9D4 JUMP JUMPDEST PUSH1 0x7 ADD SLOAD PUSH1 0xFF AND ISZERO PUSH2 0x926 JUMPI PUSH1 0x40 MLOAD PUSH3 0x461BCD PUSH1 0xE5 SHL DUP2 MSTORE PUSH1 0x20 PUSH1 0x4 DUP3 ADD MSTORE PUSH1 0x19 PUSH1 0x24 DUP3 ADD MSTORE PUSH25 0x119858D95D14D859994E881C99595B9D1C985B9D0818D85B1B PUSH1 0x3A SHL PUSH1 0x44 DUP3 ADD MSTORE PUSH1 0x64 ADD PUSH2 0x3F0 JUMP JUMPDEST PUSH1 0x1 PUSH2 0x930 PUSH2 0x9D4 JUMP JUMPDEST PUSH1 0x7 ADD DUP1 SLOAD PUSH1 0xFF NOT AND SWAP2 ISZERO ISZERO SWAP2 SWAP1 SWAP2 OR SWAP1 SSTORE PUSH2 0x94A PUSH2 0xCB7 JUMP JUMPDEST PUSH1 0x0 PUSH2 0x954 PUSH2 0x9D4 JUMP JUMPDEST PUSH1 0x7 ADD DUP1 SLOAD PUSH1 0xFF NOT AND SWAP2 ISZERO ISZERO SWAP2 SWAP1 SWAP2 OR SWAP1 SSTORE JUMP JUMPDEST PUSH1 0x0 PUSH2 0x300 DUP3 PUSH2 0x976 PUSH2 0x9D4 JUMP JUMPDEST PUSH1 0x1 ADD SWAP1 PUSH2 0x9F8 JUMP JUMPDEST PUSH2 0x987 PUSH2 0xA2D JUMP JUMPDEST PUSH2 0x99C DUP2 PUSH2 0x993 PUSH2 0x9D4 JUMP JUMPDEST PUSH1 0x1 ADD SWAP1 PUSH2 0xA97 JUMP JUMPDEST POP PUSH1 0x40 MLOAD PUSH1 0x1 PUSH1 0x1 PUSH1 0xA0 SHL SUB DUP3 AND SWAP1 PUSH32 0xA05ED313E53D05B8E9EBE468E240EC174F5190074867A051F35AC20709EED04 SWAP1 PUSH1 0x0 SWAP1 LOG2 POP JUMP JUMPDEST PUSH32 0xF2EEEC4C06050035800631F1916B3A25E1FA154DE963EC50F0AC015A5BE9E618 SWAP1 JUMP JUMPDEST PUSH1 0x0 PUSH2 0xA04 DUP4 DUP4 PUSH2 0xDD5 JUMP JUMPDEST SWAP4 SWAP3 POP POP POP JUMP JUMPDEST PUSH1 0x1 PUSH1 0x1 PUSH1 0xA0 SHL SUB DUP2 AND PUSH1 0x0 SWAP1 DUP2 MSTORE PUSH1 0x1 DUP4 ADD PUSH1 0x20 MSTORE PUSH1 0x40 DUP2 KECCAK256 SLOAD ISZERO ISZERO PUSH2 0xA04 JUMP JUMPDEST CALLER ADDRESS EQ PUSH2 0xA73 JUMPI PUSH1 0x40 MLOAD PUSH3 0x461BCD PUSH1 0xE5 SHL DUP2 MSTORE PUSH1 0x20 PUSH1 0x4 DUP3 ADD MSTORE PUSH1 0x14 PUSH1 0x24 DUP3 ADD MSTORE PUSH20 0x2330B1B2BA29B0B3329D1037B7363C9039B2B633 PUSH1 0x61 SHL PUSH1 0x44 DUP3 ADD MSTORE PUSH1 0x64 ADD PUSH2 0x3F0 JUMP JUMPDEST JUMP JUMPDEST PUSH1 0x0 PUSH2 0xA04 DUP4 PUSH1 0x1 PUSH1 0x1 PUSH1 0xA0 SHL SUB DUP5 AND PUSH2 0xDFF JUMP JUMPDEST PUSH1 0x60 PUSH1 0x0 PUSH2 0xA04 DUP4 PUSH2 0xE4E JUMP JUMPDEST PUSH1 0x0 PUSH2 0xA04 DUP4 PUSH1 0x1 PUSH1 0x1 PUSH1 0xA0 SHL SUB DUP5 AND PUSH2 0xEAA JUMP JUMPDEST DUP2 PUSH2 0xAB6 DUP2 PUSH2 0x862 JUMP JUMPDEST PUSH2 0xB0D JUMPI PUSH1 0x40 MLOAD PUSH3 0x461BCD PUSH1 0xE5 SHL DUP2 MSTORE PUSH1 0x20 PUSH1 0x4 DUP3 ADD MSTORE PUSH1 0x22 PUSH1 0x24 DUP3 ADD MSTORE PUSH32 0x4661636574536166653A20746F6B656E206973206E6F7420616C6C6F77656420 PUSH1 0x44 DUP3 ADD MSTORE PUSH2 0x34B7 PUSH1 0xF1 SHL PUSH1 0x64 DUP3 ADD MSTORE PUSH1 0x84 ADD PUSH2 0x3F0 JUMP JUMPDEST DUP2 PUSH1 0x1 PUSH1 0x1 PUSH1 0xA0 SHL SUB DUP3 AND PUSH4 0x70A08231 CALLER PUSH1 0x40 MLOAD PUSH1 0x1 PUSH1 0x1 PUSH1 0xE0 SHL SUB NOT PUSH1 0xE0 DUP5 SWAP1 SHL AND DUP2 MSTORE PUSH1 0x1 PUSH1 0x1 PUSH1 0xA0 SHL SUB SWAP1 SWAP2 AND PUSH1 0x4 DUP3 ADD MSTORE PUSH1 0x24 ADD PUSH1 0x20 PUSH1 0x40 MLOAD DUP1 DUP4 SUB DUP2 DUP7 GAS STATICCALL ISZERO DUP1 ISZERO PUSH2 0xB62 JUMPI RETURNDATASIZE PUSH1 0x0 DUP1 RETURNDATACOPY RETURNDATASIZE PUSH1 0x0 REVERT JUMPDEST POP POP POP POP PUSH1 0x40 MLOAD RETURNDATASIZE PUSH1 0x1F NOT PUSH1 0x1F DUP3 ADD AND DUP3 ADD DUP1 PUSH1 0x40 MSTORE POP DUP2 ADD SWAP1 PUSH2 0xB86 SWAP2 SWAP1 PUSH2 0x1122 JUMP JUMPDEST LT ISZERO PUSH2 0xBA4 JUMPI PUSH1 0x40 MLOAD PUSH3 0x461BCD PUSH1 0xE5 SHL DUP2 MSTORE PUSH1 0x4 ADD PUSH2 0x3F0 SWAP1 PUSH2 0x10A0 JUMP JUMPDEST PUSH1 0x1 PUSH1 0x1 PUSH1 0xA0 SHL SUB DUP2 AND PUSH4 0x23B872DD CALLER PUSH1 0x40 MLOAD PUSH1 0x1 PUSH1 0x1 PUSH1 0xE0 SHL SUB NOT PUSH1 0xE0 DUP5 SWAP1 SHL AND DUP2 MSTORE PUSH1 0x1 PUSH1 0x1 PUSH1 0xA0 SHL SUB SWAP1 SWAP2 AND PUSH1 0x4 DUP3 ADD MSTORE ADDRESS PUSH1 0x24 DUP3 ADD MSTORE PUSH1 0x44 DUP2 ADD DUP6 SWAP1 MSTORE PUSH1 0x64 ADD PUSH1 0x20 PUSH1 0x40 MLOAD DUP1 DUP4 SUB DUP2 PUSH1 0x0 DUP8 GAS CALL ISZERO DUP1 ISZERO PUSH2 0xC07 JUMPI RETURNDATASIZE PUSH1 0x0 DUP1 RETURNDATACOPY RETURNDATASIZE PUSH1 0x0 REVERT JUMPDEST POP POP POP POP PUSH1 0x40 MLOAD RETURNDATASIZE PUSH1 0x1F NOT PUSH1 0x1F DUP3 ADD AND DUP3 ADD DUP1 PUSH1 0x40 MSTORE POP DUP2 ADD SWAP1 PUSH2 0xC2B SWAP2 SWAP1 PUSH2 0x1100 JUMP JUMPDEST POP DUP2 PUSH2 0xC35 PUSH2 0x9D4 JUMP JUMPDEST PUSH1 0x1 PUSH1 0x1 PUSH1 0xA0 SHL SUB DUP6 AND PUSH1 0x0 SWAP1 DUP2 MSTORE PUSH1 0x20 SWAP2 SWAP1 SWAP2 MSTORE PUSH1 0x40 DUP2 KECCAK256 DUP1 SLOAD SWAP1 SWAP2 SWAP1 PUSH2 0xC5E SWAP1 DUP5 SWAP1 PUSH2 0x113B JUMP JUMPDEST SWAP1 SWAP2 SSTORE POP PUSH2 0xC79 SWAP1 POP DUP4 PUSH2 0xC70 PUSH2 0x9D4 JUMP JUMPDEST PUSH1 0x5 ADD SWAP1 PUSH2 0xA75 JUMP JUMPDEST POP PUSH1 0x40 MLOAD DUP3 SWAP1 PUSH1 0x1 PUSH1 0x1 PUSH1 0xA0 SHL SUB DUP6 AND SWAP1 CALLER SWAP1 PUSH32 0x5548C837AB068CF56A2C2479DF0882A4922FD203EDB7517321831D95078C5F62 SWAP1 PUSH1 0x0 SWAP1 LOG4 POP POP POP JUMP JUMPDEST PUSH2 0xCC1 PUSH1 0x0 PUSH2 0x862 JUMP JUMPDEST PUSH2 0xD0D JUMPI PUSH1 0x40 MLOAD PUSH3 0x461BCD PUSH1 0xE5 SHL DUP2 MSTORE PUSH1 0x20 PUSH1 0x4 DUP3 ADD DUP2 SWAP1 MSTORE PUSH1 0x24 DUP3 ADD MSTORE PUSH32 0x4661636574536166653A20657468206973206E6F7420616C6C6F77656420696E PUSH1 0x44 DUP3 ADD MSTORE PUSH1 0x64 ADD PUSH2 0x3F0 JUMP JUMPDEST PUSH1 0x1 CALLVALUE LT ISZERO PUSH2 0xD68 JUMPI PUSH1 0x40 MLOAD PUSH3 0x461BCD PUSH1 0xE5 SHL DUP2 MSTORE PUSH1 0x20 PUSH1 0x4 DUP3 ADD MSTORE PUSH1 0x21 PUSH1 0x24 DUP3 ADD MSTORE PUSH32 0x4661636574536166653A20696E73756666696369656E7420616D6F756E742069 PUSH1 0x44 DUP3 ADD MSTORE PUSH1 0x37 PUSH1 0xF9 SHL PUSH1 0x64 DUP3 ADD MSTORE PUSH1 0x84 ADD PUSH2 0x3F0 JUMP JUMPDEST CALLVALUE PUSH2 0xD71 PUSH2 0x9D4 JUMP JUMPDEST PUSH1 0x0 DUP1 DUP1 MSTORE PUSH1 0x20 SWAP2 SWAP1 SWAP2 MSTORE PUSH1 0x40 DUP2 KECCAK256 DUP1 SLOAD SWAP1 SWAP2 SWAP1 PUSH2 0xD90 SWAP1 DUP5 SWAP1 PUSH2 0x113B JUMP JUMPDEST SWAP1 SWAP2 SSTORE POP PUSH2 0xDA3 SWAP1 POP PUSH1 0x0 PUSH2 0xC70 PUSH2 0x9D4 JUMP JUMPDEST POP PUSH1 0x40 MLOAD CALLVALUE SWAP1 PUSH1 0x0 SWAP1 CALLER SWAP1 PUSH32 0x5548C837AB068CF56A2C2479DF0882A4922FD203EDB7517321831D95078C5F62 SWAP1 DUP4 SWAP1 LOG4 JUMP JUMPDEST PUSH1 0x0 DUP3 PUSH1 0x0 ADD DUP3 DUP2 SLOAD DUP2 LT PUSH2 0xDEC JUMPI PUSH2 0xDEC PUSH2 0x114E JUMP JUMPDEST SWAP1 PUSH1 0x0 MSTORE PUSH1 0x20 PUSH1 0x0 KECCAK256 ADD SLOAD SWAP1 POP SWAP3 SWAP2 POP POP JUMP JUMPDEST PUSH1 0x0 DUP2 DUP2 MSTORE PUSH1 0x1 DUP4 ADD PUSH1 0x20 MSTORE PUSH1 0x40 DUP2 KECCAK256 SLOAD PUSH2 0xE46 JUMPI POP DUP2 SLOAD PUSH1 0x1 DUP2 DUP2 ADD DUP5 SSTORE PUSH1 0x0 DUP5 DUP2 MSTORE PUSH1 0x20 DUP1 DUP3 KECCAK256 SWAP1 SWAP4 ADD DUP5 SWAP1 SSTORE DUP5 SLOAD DUP5 DUP3 MSTORE DUP3 DUP7 ADD SWAP1 SWAP4 MSTORE PUSH1 0x40 SWAP1 KECCAK256 SWAP2 SWAP1 SWAP2 SSTORE PUSH2 0x300 JUMP JUMPDEST POP PUSH1 0x0 PUSH2 0x300 JUMP JUMPDEST PUSH1 0x60 DUP2 PUSH1 0x0 ADD DUP1 SLOAD DUP1 PUSH1 0x20 MUL PUSH1 0x20 ADD PUSH1 0x40 MLOAD SWAP1 DUP2 ADD PUSH1 0x40 MSTORE DUP1 SWAP3 SWAP2 SWAP1 DUP2 DUP2 MSTORE PUSH1 0x20 ADD DUP3 DUP1 SLOAD DUP1 ISZERO PUSH2 0xE9E JUMPI PUSH1 0x20 MUL DUP3 ADD SWAP2 SWAP1 PUSH1 0x0 MSTORE PUSH1 0x20 PUSH1 0x0 KECCAK256 SWAP1 JUMPDEST DUP2 SLOAD DUP2 MSTORE PUSH1 0x20 ADD SWAP1 PUSH1 0x1 ADD SWAP1 DUP1 DUP4 GT PUSH2 0xE8A JUMPI JUMPDEST POP POP POP POP POP SWAP1 POP SWAP2 SWAP1 POP JUMP JUMPDEST PUSH1 0x0 DUP2 DUP2 MSTORE PUSH1 0x1 DUP4 ADD PUSH1 0x20 MSTORE PUSH1 0x40 DUP2 KECCAK256 SLOAD DUP1 ISZERO PUSH2 0xF93 JUMPI PUSH1 0x0 PUSH2 0xECE PUSH1 0x1 DUP4 PUSH2 0x10ED JUMP JUMPDEST DUP6 SLOAD SWAP1 SWAP2 POP PUSH1 0x0 SWAP1 PUSH2 0xEE2 SWAP1 PUSH1 0x1 SWAP1 PUSH2 0x10ED JUMP JUMPDEST SWAP1 POP DUP2 DUP2 EQ PUSH2 0xF47 JUMPI PUSH1 0x0 DUP7 PUSH1 0x0 ADD DUP3 DUP2 SLOAD DUP2 LT PUSH2 0xF02 JUMPI PUSH2 0xF02 PUSH2 0x114E JUMP JUMPDEST SWAP1 PUSH1 0x0 MSTORE PUSH1 0x20 PUSH1 0x0 KECCAK256 ADD SLOAD SWAP1 POP DUP1 DUP8 PUSH1 0x0 ADD DUP5 DUP2 SLOAD DUP2 LT PUSH2 0xF25 JUMPI PUSH2 0xF25 PUSH2 0x114E JUMP JUMPDEST PUSH1 0x0 SWAP2 DUP3 MSTORE PUSH1 0x20 DUP1 DUP4 KECCAK256 SWAP1 SWAP2 ADD SWAP3 SWAP1 SWAP3 SSTORE SWAP2 DUP3 MSTORE PUSH1 0x1 DUP9 ADD SWAP1 MSTORE PUSH1 0x40 SWAP1 KECCAK256 DUP4 SWAP1 SSTORE JUMPDEST DUP6 SLOAD DUP7 SWAP1 DUP1 PUSH2 0xF58 JUMPI PUSH2 0xF58 PUSH2 0x1164 JUMP JUMPDEST PUSH1 0x1 SWAP1 SUB DUP2 DUP2 SWAP1 PUSH1 0x0 MSTORE PUSH1 0x20 PUSH1 0x0 KECCAK256 ADD PUSH1 0x0 SWAP1 SSTORE SWAP1 SSTORE DUP6 PUSH1 0x1 ADD PUSH1 0x0 DUP7 DUP2 MSTORE PUSH1 0x20 ADD SWAP1 DUP2 MSTORE PUSH1 0x20 ADD PUSH1 0x0 KECCAK256 PUSH1 0x0 SWAP1 SSTORE PUSH1 0x1 SWAP4 POP POP POP POP PUSH2 0x300 JUMP JUMPDEST PUSH1 0x0 SWAP2 POP POP PUSH2 0x300 JUMP JUMPDEST PUSH1 0x0 PUSH1 0x20 DUP3 DUP5 SUB SLT ISZERO PUSH2 0xFAF JUMPI PUSH1 0x0 DUP1 REVERT JUMPDEST POP CALLDATALOAD SWAP2 SWAP1 POP JUMP JUMPDEST DUP1 CALLDATALOAD PUSH1 0x1 PUSH1 0x1 PUSH1 0xA0 SHL SUB DUP2 AND DUP2 EQ PUSH2 0xFCD JUMPI PUSH1 0x0 DUP1 REVERT JUMPDEST SWAP2 SWAP1 POP JUMP JUMPDEST PUSH1 0x0 PUSH1 0x20 DUP3 DUP5 SUB SLT ISZERO PUSH2 0xFE4 JUMPI PUSH1 0x0 DUP1 REVERT JUMPDEST PUSH2 0xA04 DUP3 PUSH2 0xFB6 JUMP JUMPDEST PUSH1 0x20 DUP1 DUP3 MSTORE DUP3 MLOAD DUP3 DUP3 ADD DUP2 SWAP1 MSTORE PUSH1 0x0 SWAP2 SWAP1 DUP5 DUP3 ADD SWAP1 PUSH1 0x40 DUP6 ADD SWAP1 DUP5 JUMPDEST DUP2 DUP2 LT ISZERO PUSH2 0x102E JUMPI DUP4 MLOAD PUSH1 0x1 PUSH1 0x1 PUSH1 0xA0 SHL SUB AND DUP4 MSTORE SWAP3 DUP5 ADD SWAP3 SWAP2 DUP5 ADD SWAP2 PUSH1 0x1 ADD PUSH2 0x1009 JUMP JUMPDEST POP SWAP1 SWAP7 SWAP6 POP POP POP POP POP POP JUMP JUMPDEST PUSH1 0x0 DUP1 PUSH1 0x40 DUP4 DUP6 SUB SLT ISZERO PUSH2 0x104D JUMPI PUSH1 0x0 DUP1 REVERT JUMPDEST PUSH2 0x1056 DUP4 PUSH2 0xFB6 JUMP JUMPDEST SWAP5 PUSH1 0x20 SWAP4 SWAP1 SWAP4 ADD CALLDATALOAD SWAP4 POP POP POP JUMP JUMPDEST PUSH1 0x0 DUP1 PUSH1 0x0 PUSH1 0x60 DUP5 DUP7 SUB SLT ISZERO PUSH2 0x1079 JUMPI PUSH1 0x0 DUP1 REVERT JUMPDEST PUSH2 0x1082 DUP5 PUSH2 0xFB6 JUMP JUMPDEST SWAP3 POP PUSH2 0x1090 PUSH1 0x20 DUP6 ADD PUSH2 0xFB6 JUMP JUMPDEST SWAP2 POP PUSH1 0x40 DUP5 ADD CALLDATALOAD SWAP1 POP SWAP3 POP SWAP3 POP SWAP3 JUMP JUMPDEST PUSH1 0x20 DUP1 DUP3 MSTORE PUSH1 0x1F SWAP1 DUP3 ADD MSTORE PUSH32 0x4661636574536166653A20696E73756666696369656E742062616C616E636500 PUSH1 0x40 DUP3 ADD MSTORE PUSH1 0x60 ADD SWAP1 JUMP JUMPDEST PUSH4 0x4E487B71 PUSH1 0xE0 SHL PUSH1 0x0 MSTORE PUSH1 0x11 PUSH1 0x4 MSTORE PUSH1 0x24 PUSH1 0x0 REVERT JUMPDEST DUP2 DUP2 SUB DUP2 DUP2 GT ISZERO PUSH2 0x300 JUMPI PUSH2 0x300 PUSH2 0x10D7 JUMP JUMPDEST PUSH1 0x0 PUSH1 0x20 DUP3 DUP5 SUB SLT ISZERO PUSH2 0x1112 JUMPI PUSH1 0x0 DUP1 REVERT JUMPDEST DUP2 MLOAD DUP1 ISZERO ISZERO DUP2 EQ PUSH2 0xA04 JUMPI PUSH1 0x0 DUP1 REVERT JUMPDEST PUSH1 0x0 PUSH1 0x20 DUP3 DUP5 SUB SLT ISZERO PUSH2 0x1134 JUMPI PUSH1 0x0 DUP1 REVERT JUMPDEST POP MLOAD SWAP2 SWAP1 POP JUMP JUMPDEST DUP1 DUP3 ADD DUP1 DUP3 GT ISZERO PUSH2 0x300 JUMPI PUSH2 0x300 PUSH2 0x10D7 JUMP JUMPDEST PUSH4 0x4E487B71 PUSH1 0xE0 SHL PUSH1 0x0 MSTORE PUSH1 0x32 PUSH1 0x4 MSTORE PUSH1 0x24 PUSH1 0x0 REVERT JUMPDEST PUSH4 0x4E487B71 PUSH1 0xE0 SHL PUSH1 0x0 MSTORE PUSH1 0x31 PUSH1 0x4 MSTORE PUSH1 0x24 PUSH1 0x0 REVERT INVALID LOG2 PUSH5 0x6970667358 0x22 SLT KECCAK256 MUL 0xDC 0xF7 0x26 0x2D DUP5 PUSH24 0x38791776C65E9A67A982921859824C43DB08BE75A339D9FE 0xD0 PUSH5 0x736F6C6343 STOP ADDMOD SGT STOP CALLER "
		},
		"gasEstimates": {
			"creation": {
				"codeDepositCost": "905600",
				"executionCost": "942",
				"totalCost": "906542"
			},
			"external": {
				"____allowTokenInToSafe(address)": "infinite",
				"____allowTokenOutOfSafe(address)": "infinite",
				"____forbidTokenInToSafe(address)": "infinite",
				"____forbidTokenOutOfSafe(address)": "infinite",
				"____withdraw(address,address,uint256)": "infinite",
				"____withdraw(address,uint256)": "infinite",
				"deposit()": "infinite",
				"deposit(address,uint256)": "infinite",
				"getHoldingsInSafe(address)": "2685",
				"getTokenAllowedInToSafe(uint256)": "4785",
				"getTokenAllowedOutFromSafe(uint256)": "4743",
				"getTokensAllowedInToSafe()": "infinite",
				"getTokensAllowedOutFromSafe()": "infinite",
				"isAllowedIn(address)": "infinite",
				"isAllowedOut(address)": "infinite"
			},
			"internal": {
				"_deposit()": "infinite",
				"_deposit(address,uint256)": "infinite",
				"_onlySelf()": "infinite"
			}
		},
		"methodIdentifiers": {
			"____allowTokenInToSafe(address)": "18b31027",
			"____allowTokenOutOfSafe(address)": "a6a2fcd7",
			"____forbidTokenInToSafe(address)": "e5e45084",
			"____forbidTokenOutOfSafe(address)": "b74cbb41",
			"____withdraw(address,address,uint256)": "36447c4e",
			"____withdraw(address,uint256)": "31b94450",
			"deposit()": "d0e30db0",
			"deposit(address,uint256)": "47e7ef24",
			"getHoldingsInSafe(address)": "3e800148",
			"getTokenAllowedInToSafe(uint256)": "e13a96d6",
			"getTokenAllowedOutFromSafe(uint256)": "0a885f95",
			"getTokensAllowedInToSafe()": "2a77d7b8",
			"getTokensAllowedOutFromSafe()": "464964b1",
			"isAllowedIn(address)": "b3a54f1b",
			"isAllowedOut(address)": "182a9420"
		}
	},
	"abi": [
		{
			"anonymous": false,
			"inputs": [
				{
					"indexed": true,
					"internalType": "address",
					"name": "from",
					"type": "address"
				},
				{
					"indexed": true,
					"internalType": "address",
					"name": "tokenIn",
					"type": "address"
				},
				{
					"indexed": true,
					"internalType": "uint256",
					"name": "amountIn",
					"type": "uint256"
				}
			],
			"name": "Deposit",
			"type": "event"
		},
		{
			"anonymous": false,
			"inputs": [
				{
					"indexed": true,
					"internalType": "address",
					"name": "tokenIn",
					"type": "address"
				}
			],
			"name": "PermissionGrantedTokenIn",
			"type": "event"
		},
		{
			"anonymous": false,
			"inputs": [
				{
					"indexed": true,
					"internalType": "address",
					"name": "tokenOut",
					"type": "address"
				}
			],
			"name": "PermissionGrantedTokenOut",
			"type": "event"
		},
		{
			"anonymous": false,
			"inputs": [
				{
					"indexed": true,
					"internalType": "address",
					"name": "tokenIn",
					"type": "address"
				}
			],
			"name": "PermissionRevokedTokenIn",
			"type": "event"
		},
		{
			"anonymous": false,
			"inputs": [
				{
					"indexed": true,
					"internalType": "address",
					"name": "tokenOut",
					"type": "address"
				}
			],
			"name": "PermissionRevokedTokenOut",
			"type": "event"
		},
		{
			"anonymous": false,
			"inputs": [
				{
					"indexed": true,
					"internalType": "address",
					"name": "to",
					"type": "address"
				},
				{
					"indexed": true,
					"internalType": "address",
					"name": "tokenOut",
					"type": "address"
				},
				{
					"indexed": true,
					"internalType": "uint256",
					"name": "amountOut",
					"type": "uint256"
				}
			],
			"name": "Withdraw",
			"type": "event"
		},
		{
			"inputs": [
				{
					"internalType": "address",
					"name": "token",
					"type": "address"
				}
			],
			"name": "____allowTokenInToSafe",
			"outputs": [],
			"stateMutability": "nonpayable",
			"type": "function"
		},
		{
			"inputs": [
				{
					"internalType": "address",
					"name": "token",
					"type": "address"
				}
			],
			"name": "____allowTokenOutOfSafe",
			"outputs": [],
			"stateMutability": "nonpayable",
			"type": "function"
		},
		{
			"inputs": [
				{
					"internalType": "address",
					"name": "token",
					"type": "address"
				}
			],
			"name": "____forbidTokenInToSafe",
			"outputs": [],
			"stateMutability": "nonpayable",
			"type": "function"
		},
		{
			"inputs": [
				{
					"internalType": "address",
					"name": "token",
					"type": "address"
				}
			],
			"name": "____forbidTokenOutOfSafe",
			"outputs": [],
			"stateMutability": "nonpayable",
			"type": "function"
		},
		{
			"inputs": [
				{
					"internalType": "address",
					"name": "to",
					"type": "address"
				},
				{
					"internalType": "uint256",
					"name": "amountOut",
					"type": "uint256"
				}
			],
			"name": "____withdraw",
			"outputs": [],
			"stateMutability": "nonpayable",
			"type": "function"
		},
		{
			"inputs": [
				{
					"internalType": "address",
					"name": "to",
					"type": "address"
				},
				{
					"internalType": "address",
					"name": "tokenOut",
					"type": "address"
				},
				{
					"internalType": "uint256",
					"name": "amountOut",
					"type": "uint256"
				}
			],
			"name": "____withdraw",
			"outputs": [],
			"stateMutability": "nonpayable",
			"type": "function"
		},
		{
			"inputs": [
				{
					"internalType": "address",
					"name": "tokenIn",
					"type": "address"
				},
				{
					"internalType": "uint256",
					"name": "amountIn",
					"type": "uint256"
				}
			],
			"name": "deposit",
			"outputs": [],
			"stateMutability": "nonpayable",
			"type": "function"
		},
		{
			"inputs": [],
			"name": "deposit",
			"outputs": [],
			"stateMutability": "payable",
			"type": "function"
		},
		{
			"inputs": [
				{
					"internalType": "address",
					"name": "token",
					"type": "address"
				}
			],
			"name": "getHoldingsInSafe",
			"outputs": [
				{
					"internalType": "uint256",
					"name": "",
					"type": "uint256"
				}
			],
			"stateMutability": "view",
			"type": "function"
		},
		{
			"inputs": [
				{
					"internalType": "uint256",
					"name": "tokenId",
					"type": "uint256"
				}
			],
			"name": "getTokenAllowedInToSafe",
			"outputs": [
				{
					"internalType": "address",
					"name": "",
					"type": "address"
				}
			],
			"stateMutability": "view",
			"type": "function"
		},
		{
			"inputs": [
				{
					"internalType": "uint256",
					"name": "tokenId",
					"type": "uint256"
				}
			],
			"name": "getTokenAllowedOutFromSafe",
			"outputs": [
				{
					"internalType": "address",
					"name": "",
					"type": "address"
				}
			],
			"stateMutability": "view",
			"type": "function"
		},
		{
			"inputs": [],
			"name": "getTokensAllowedInToSafe",
			"outputs": [
				{
					"internalType": "address[]",
					"name": "",
					"type": "address[]"
				}
			],
			"stateMutability": "view",
			"type": "function"
		},
		{
			"inputs": [],
			"name": "getTokensAllowedOutFromSafe",
			"outputs": [
				{
					"internalType": "address[]",
					"name": "",
					"type": "address[]"
				}
			],
			"stateMutability": "view",
			"type": "function"
		},
		{
			"inputs": [
				{
					"internalType": "address",
					"name": "token",
					"type": "address"
				}
			],
			"name": "isAllowedIn",
			"outputs": [
				{
					"internalType": "bool",
					"name": "",
					"type": "bool"
				}
			],
			"stateMutability": "view",
			"type": "function"
		},
		{
			"inputs": [
				{
					"internalType": "address",
					"name": "token",
					"type": "address"
				}
			],
			"name": "isAllowedOut",
			"outputs": [
				{
					"internalType": "bool",
					"name": "",
					"type": "bool"
				}
			],
			"stateMutability": "view",
			"type": "function"
		}
	]
}