{
	"data": {
		"bytecode": {
			"linkReferences": {},
			"object": "608060405234801561001057600080fd5b506137af806100206000396000f3fe60806040526004361061027d5760003560e01c806349e7012c1161014f578063a6a2fcd7116100c1578063d0e30db01161007a578063d0e30db014610772578063d1a7092c1461077a578063dd62ed3e1461079a578063e0089dc3146107ba578063e13a96d6146107da578063e5e45084146107fa57600080fd5b8063a6a2fcd7146106b2578063a9059cbb146106d2578063b3a54f1b146106f2578063b74456f214610712578063b74cbb4114610732578063ce49c9b31461075257600080fd5b8063945fb81d11610113578063945fb81d1461060857806394abc1af1461062857806395d89b41146106485780639711715a1461065d578063981b24d014610672578063a457c2d71461069257600080fd5b806349e7012c146105735780634ee2cd7e146105935780635439ad86146105b357806370a08231146105c857806382a3abac146105e857600080fd5b806319d0c2fa116101f357806336447c4e116101ac57806336447c4e146104be57806339509351146104de5780633e5541f1146104fe5780633e8001481461051e578063464964b11461053e57806347e7ef241461055357600080fd5b806319d0c2fa1461040b5780631e96c1dd1461042057806323b872dd146104405780632a77d7b814610460578063313ce5671461048257806331b944501461049e57600080fd5b80630a885f95116102455780630a885f951461033e5780631128ea3b14610376578063179dff701461039657806318160ddd146103b6578063182a9420146103cb57806318b31027146103eb57600080fd5b806301e1d1141461028257806306fdde03146102aa578063076d0815146102cc57806307a2d13a146102ee578063095ea7b31461030e575b600080fd5b34801561028e57600080fd5b5061029761081a565b6040519081526020015b60405180910390f35b3480156102b657600080fd5b506102bf6109ed565b6040516102a1919061317c565b3480156102d857600080fd5b506102ec6102e73660046131af565b610a88565b005b3480156102fa57600080fd5b506102976103093660046131af565b610b01565b34801561031a57600080fd5b5061032e6103293660046131df565b610b8c565b60405190151581526020016102a1565b34801561034a57600080fd5b5061035e6103593660046131af565b610ba6565b6040516001600160a01b0390911681526020016102a1565b34801561038257600080fd5b50610297610391366004613209565b610bbd565b3480156103a257600080fd5b506102ec6103b1366004613209565b610c44565b3480156103c257600080fd5b50610297610cc7565b3480156103d757600080fd5b5061032e6103e6366004613209565b610cda565b3480156103f757600080fd5b506102ec610406366004613209565b610cf1565b34801561041757600080fd5b50610297610d46565b34801561042c57600080fd5b506102ec61043b36600461323a565b610dc6565b34801561044c57600080fd5b5061032e61045b3660046132eb565b610ed6565b34801561046c57600080fd5b50610475610efa565b6040516102a19190613327565b34801561048e57600080fd5b50604051601281526020016102a1565b3480156104aa57600080fd5b506102ec6104b93660046131df565b610f14565b3480156104ca57600080fd5b506102ec6104d93660046132eb565b61108a565b3480156104ea57600080fd5b5061032e6104f93660046131df565b6112b4565b34801561050a57600080fd5b506102976105193660046131df565b6112d6565b34801561052a57600080fd5b50610297610539366004613209565b6114d8565b34801561054a57600080fd5b50610475611501565b34801561055f57600080fd5b506102ec61056e3660046131df565b611516565b34801561057f57600080fd5b506102ec61058e3660046131af565b611588565b34801561059f57600080fd5b506102976105ae3660046131df565b61159d565b3480156105bf57600080fd5b506102976115f1565b3480156105d457600080fd5b506102976105e3366004613209565b611605565b3480156105f457600080fd5b506102ec610603366004613374565b61160f565b34801561061457600080fd5b506102ec6106233660046131df565b61169a565b34801561063457600080fd5b5061035e610643366004613209565b6116ec565b34801561065457600080fd5b506102bf611729565b34801561066957600080fd5b50610297611741565b34801561067e57600080fd5b5061029761068d3660046131af565b6117a4565b34801561069e57600080fd5b5061032e6106ad3660046131df565b6117dd565b3480156106be57600080fd5b506102ec6106cd366004613209565b61185d565b3480156106de57600080fd5b5061032e6106ed3660046131df565b6118b2565b3480156106fe57600080fd5b5061032e61070d366004613209565b6118c0565b34801561071e57600080fd5b506102ec61072d3660046131af565b6118d7565b34801561073e57600080fd5b506102ec61074d366004613209565b6118e9565b34801561075e57600080fd5b5061032e61076d366004613209565b61193e565b6102ec611967565b34801561078657600080fd5b50610297610795366004613209565b6119d5565b3480156107a657600080fd5b506102976107b5366004613374565b611a2b565b3480156107c657600080fd5b506102ec6107d536600461323a565b611a65565b3480156107e657600080fd5b5061035e6107f53660046131af565b611b75565b34801561080657600080fd5b506102ec610815366004613209565b611b8c565b600080600061083261082a611be1565b600501611c05565b90503060005b828110156109e45760006108578261084e611be1565b60050190611c0f565b90506000816001600160a01b031663313ce5676040518163ffffffff1660e01b8152600401602060405180830381865afa158015610899573d6000803e3d6000fd5b505050506040513d601f19601f820116820180604052508101906108bd91906133a7565b6040516307d0002960e31b81526001600160a01b03848116600483015260ff929092169250600091861690633e80014890602401602060405180830381865afa15801561090e573d6000803e3d6000fd5b505050506040513d601f19601f8201168201806040525081019061093291906133ca565b9050600061094183600a6134d5565b604051633469c24b60e21b81526001600160a01b03868116600483015288169063d1a7092c90602401602060405180830381865afa158015610987573d6000803e3d6000fd5b505050506040513d601f19601f820116820180604052508101906109ab91906133ca565b6109b591906134e1565b90506109c18282613503565b6109cb908961351a565b97505050505080806109dc9061352d565b915050610838565b50919392505050565b60606109f7611c1b565b6006018054610a0590613546565b80601f0160208091040260200160405190810160405280929190818152602001828054610a3190613546565b8015610a7e5780601f10610a5357610100808354040283529160200191610a7e565b820191906000526020600020905b815481529060010190602001808311610a6157829003601f168201915b5050505050905090565b610a90611be1565b6007015460ff1615610abd5760405162461bcd60e51b8152600401610ab490613580565b60405180910390fd5b6001610ac7611be1565b600701805460ff1916911515919091179055610ae281611c3f565b6000610aec611be1565b600701805460ff191691151591909117905550565b600080309050806001600160a01b03166318160ddd6040518163ffffffff1660e01b8152600401602060405180830381865afa158015610b45573d6000803e3d6000fd5b505050506040513d601f19601f82011682018060405250810190610b6991906133ca565b610b7161081a565b610b7b9085613503565b610b8591906134e1565b9392505050565b600033610b9a818585611ffe565b60019150505b92915050565b6000610ba082610bb4611be1565b60030190611c0f565b6000610bc88261193e565b15610c3757610bd6826116ec565b6001600160a01b0316638205bf6a6040518163ffffffff1660e01b8152600401602060405180830381865afa158015610c13573d6000803e3d6000fd5b505050506040513d601f19601f82011682018060405250810190610ba091906133ca565b506000919050565b919050565b610c4c61213e565b6001600160a01b0381811660008181527f09c1bd07f41f39c402056ed4f84031a21fc6dd44454b5a4bead86cc6d5e198c6602052604080822080546001600160a01b031981169091559051931692909183917fd0c47dc6b57ec438daaaa3787ddfc8b61a28f0b9a5b44d7cc9b7c4ea533a3df7908490a45050565b6000610cd1611c1b565b60080154905090565b6000610ba082610ce8611be1565b60030190612148565b610cf961213e565b610d0e81610d05611be1565b6001019061216a565b506040516001600160a01b038216907ff6aea4ebd15c89ff6a16b7819fb6968ad0a0ce7e0085ef4c87a85f8c0cd2e46a90600090a250565b600080309050806001600160a01b03166318160ddd6040518163ffffffff1660e01b8152600401602060405180830381865afa158015610d8a573d6000803e3d6000fd5b505050506040513d601f19601f82011682018060405250810190610dae91906133ca565b610db661081a565b610dc091906134e1565b91505090565b610dce61213e565b6000610dd8611c1b565b6007018054610de690613546565b80601f0160208091040260200160405190810160405280929190818152602001828054610e1290613546565b8015610e5f5780601f10610e3457610100808354040283529160200191610e5f565b820191906000526020600020905b815481529060010190602001808311610e4257829003601f168201915b5050505050905081610e6f611c1b565b60070190610e7d9082613605565b5081604051610e8c91906136c5565b604051809103902081604051610ea291906136c5565b604051908190038120907f68023cab388c6052af3fa625f164cd0c14cc9125d57286fbe0d9b384847c4c0290600090a35050565b600033610ee485828561217f565b610eef858585612204565b506001949350505050565b6060610f0f610f07611be1565b6001016123f4565b905090565b610f1c61213e565b610f266000610cda565b610f7c5760405162461bcd60e51b815260206004820152602160248201527f4661636574536166653a20657468206973206e6f7420616c6c6f776564206f756044820152601d60fa1b6064820152608401610ab4565b80610f85611be1565b600080805260209190915260409020541015610fb35760405162461bcd60e51b8152600401610ab4906136e1565b80610fbc611be1565b6000808052602091909152604081208054909190610fdb908490613718565b90915550610fe99050611be1565b60008080526020919091526040812054900361101757611015600061100c611be1565b60050190612401565b505b6040516001600160a01b0383169082156108fc029083906000818181858888f1935050505015801561104d573d6000803e3d6000fd5b5060405181906000906001600160a01b038516907f9b1bfa7fa9ee420a16e124f794c35ac9f90472acc99140eb2f6447c714cad8eb908390a45050565b8161109361213e565b6001600160a01b0383166110e95760405162461bcd60e51b815260206004820152601a60248201527f4661636574536166653a20696d70726f706572206d6574686f640000000000006044820152606401610ab4565b6110f283610cda565b61114a5760405162461bcd60e51b815260206004820152602360248201527f4661636574536166653a20746f6b656e206973206e6f7420616c6c6f776564206044820152621bdd5d60ea1b6064820152608401610ab4565b81611153611be1565b6001600160a01b03851660009081526020919091526040902054101561118b5760405162461bcd60e51b8152600401610ab4906136e1565b81611194611be1565b6001600160a01b03851660009081526020919091526040812080549091906111bd908490613718565b909155506111cb9050611be1565b6001600160a01b0384166000908152602091909152604081205490036111f9576111f78361100c611be1565b505b60405163a9059cbb60e01b81526001600160a01b0385811660048301526024820184905282169063a9059cbb906044016020604051808303816000875af1158015611248573d6000803e3d6000fd5b505050506040513d601f19601f8201168201806040525081019061126c919061372b565b5081836001600160a01b0316856001600160a01b03167f9b1bfa7fa9ee420a16e124f794c35ac9f90472acc99140eb2f6447c714cad8eb60405160405180910390a450505050565b600033610b9a8185856112c78383611a2b565b6112d1919061351a565b611ffe565b60405163b3a54f1b60e01b81526001600160a01b038316600482015260009030908290829063b3a54f1b90602401602060405180830381865afa158015611321573d6000803e3d6000fd5b505050506040513d601f19601f82011682018060405250810190611345919061372b565b905080156114cd576000856001600160a01b031663313ce5676040518163ffffffff1660e01b8152600401602060405180830381865afa15801561138d573d6000803e3d6000fd5b505050506040513d601f19601f820116820180604052508101906113b191906133a7565b60ff1690506000856113c483600a6134d5565b604051633469c24b60e21b81526001600160a01b038a8116600483015287169063d1a7092c90602401602060405180830381865afa15801561140a573d6000803e3d6000fd5b505050506040513d601f19601f8201168201806040525081019061142e91906133ca565b61143891906134e1565b6114429190613503565b905061144c61081a565b846001600160a01b03166318160ddd6040518163ffffffff1660e01b8152600401602060405180830381865afa15801561148a573d6000803e3d6000fd5b505050506040513d601f19601f820116820180604052508101906114ae91906133ca565b6114b89083613503565b6114c291906134e1565b945050505050610ba0565b600092505050610ba0565b60006114e2611be1565b6001600160a01b03909216600090815260209290925250604090205490565b6060610f0f61150e611be1565b6003016123f4565b61151e611be1565b6007015460ff16156115425760405162461bcd60e51b8152600401610ab490613580565b600161154c611be1565b600701805460ff19169115159190911790556115688282612416565b6000611572611be1565b600701805460ff19169115159190911790555050565b61159061213e565b61159a3382612621565b50565b60008060006115cf846115ae611c1b565b6001600160a01b038816600090815260029190910160205260409020612718565b91509150816115e6576115e185611605565b6115e8565b805b95945050505050565b6000610f0f6115fe611c1b565b6005015490565b60006114e2611c1b565b61161761213e565b6001600160a01b0382811660008181527f09c1bd07f41f39c402056ed4f84031a21fc6dd44454b5a4bead86cc6d5e198c6602052604080822080548686166001600160a01b0319821681179092559151919094169392849290917fd0c47dc6b57ec438daaaa3787ddfc8b61a28f0b9a5b44d7cc9b7c4ea533a3df79190a4505050565b6116a2611be1565b6007015460ff16156116c65760405162461bcd60e51b8152600401610ab490613580565b60016116d0611be1565b600701805460ff19169115159190911790556115688282612811565b6001600160a01b0390811660009081527f09c1bd07f41f39c402056ed4f84031a21fc6dd44454b5a4bead86cc6d5e198c660205260409020541690565b6060611733611c1b565b6007018054610a0590613546565b600061175a61174e611c1b565b60050180546001019055565b60006117646115f1565b90507f8030e83b04d87bef53480e26263266d6ca66863aa8506aca6f2559d18aa1cb678160405161179791815260200190565b60405180910390a1919050565b60008060006117bd846117b5611c1b565b600301612718565b91509150816117d3576117ce610cc7565b6117d5565b805b949350505050565b600033816117eb8286611a2b565b9050838110156118505760405162461bcd60e51b815260206004820152602a60248201527f4661636574546f6b656e3a2064656372656173656420616c6c6f77616e63652060448201526962656c6f77207a65726f60b01b6064820152608401610ab4565b610eef8286868403611ffe565b61186561213e565b61187a81611871611be1565b6003019061216a565b506040516001600160a01b038216907fb91009acff1ca23a9fe12400608cae8383f810cac953c1a16a99fe9b9c65abfb90600090a250565b600033610b9a818585612204565b6000610ba0826118ce611be1565b60010190612148565b6118df61213e565b61159a3382612ac6565b6118f161213e565b611906816118fd611be1565b60030190612401565b506040516001600160a01b038216907f64f9ae8a27a020b54f63a0d9ff5d3f0dd302b35eef11d16612b2a02b2d8a824890600090a250565b60008061194a836116ec565b6001600160a01b03160361195f576000610ba0565b600192915050565b61196f611be1565b6007015460ff16156119935760405162461bcd60e51b8152600401610ab490613580565b600161199d611be1565b600701805460ff19169115159190911790556119b7612c39565b60006119c1611be1565b600701805460ff1916911515919091179055565b60006119e08261193e565b15610c37576119ee826116ec565b6001600160a01b03166350d25bcd6040518163ffffffff1660e01b8152600401602060405180830381865afa158015610c13573d6000803e3d6000fd5b6000611a35611c1b565b6001600160a01b039384166000908152600191909101602090815260408083209490951682529290925250205490565b611a6d61213e565b6000611a77611c1b565b6006018054611a8590613546565b80601f0160208091040260200160405190810160405280929190818152602001828054611ab190613546565b8015611afe5780601f10611ad357610100808354040283529160200191611afe565b820191906000526020600020905b815481529060010190602001808311611ae157829003601f168201915b5050505050905081611b0e611c1b565b60060190611b1c9082613605565b5081604051611b2b91906136c5565b604051809103902081604051611b4191906136c5565b604051908190038120907fe08ba098c56583ff7ce264f98fb97b7ddc5e6af834acc0556b24327f72a555f990600090a35050565b6000610ba082611b83611be1565b60010190611c0f565b611b9461213e565b611ba981611ba0611be1565b60010190612401565b506040516001600160a01b038216907f0a05ed313e53d05b8e9ebe468e240ec174f5190074867a051f35ac20709eed0490600090a250565b7ff2eeec4c06050035800631f1916b3a25e1fa154de963ec50f0ac015a5be9e61890565b6000610ba0825490565b6000610b858383612d57565b7f667c0cf071c712f94f97f65a859cdaa470fe424825756c2cae5a4d1adcee538b90565b6000611c4a82610b01565b90503082816370a08231336040516001600160e01b031960e084901b1681526001600160a01b039091166004820152602401602060405180830381865afa158015611c99573d6000803e3d6000fd5b505050506040513d601f19601f82011682018060405250810190611cbd91906133ca565b1015611d0b5760405162461bcd60e51b815260206004820181905260248201527f46616365745661756c743a20696e73756666696369656e742062616c616e63656044820152606401610ab4565b81600003611d545760405162461bcd60e51b815260206004820152601660248201527546616365745661756c743a207a65726f2076616c756560501b6044820152606401610ab4565b6000611d5e61081a565b611d6a84612710613503565b611d7491906134e1565b90506000611d8361082a611be1565b905060005b81811015611fc7576000611d9e8261084e611be1565b90506001600160a01b038116611eae576040516307d0002960e31b8152600060048201819052906001600160a01b03871690633e80014890602401602060405180830381865afa158015611df6573d6000803e3d6000fd5b505050506040513d601f19601f82011682018060405250810190611e1a91906133ca565b9050600085611e2b612710846134e1565b611e359190613503565b90506001600160a01b0387166331b94450336040516001600160e01b031960e084901b1681526001600160a01b03909116600482015260248101849052604401600060405180830381600087803b158015611e8f57600080fd5b505af1158015611ea3573d6000803e3d6000fd5b505050505050611fb4565b6040516307d0002960e31b81526001600160a01b03828116600483015260009190871690633e80014890602401602060405180830381865afa158015611ef8573d6000803e3d6000fd5b505050506040513d601f19601f82011682018060405250810190611f1c91906133ca565b9050600085611f2d612710846134e1565b611f379190613503565b90506001600160a01b0387166336447c4e336040516001600160e01b031960e084901b1681526001600160a01b039182166004820152908616602482015260448101849052606401600060405180830381600087803b158015611f9957600080fd5b505af1158015611fad573d6000803e3d6000fd5b5050505050505b5080611fbf8161352d565b915050611d88565b506040518490869033907fdd653545ea7062119bb7aab04a3011580a8045716348725190c6c2124220a23f90600090a45050505050565b6001600160a01b0383166120665760405162461bcd60e51b815260206004820152602960248201527f4661636574546f6b656e3a20617070726f76652066726f6d20746865207a65726044820152686f206164647265737360b81b6064820152608401610ab4565b6001600160a01b0382166120cc5760405162461bcd60e51b815260206004820152602760248201527f4661636574546f6b656e3a20617070726f766520746f20746865207a65726f206044820152666164647265737360c81b6064820152608401610ab4565b806120d5611c1b565b6001600160a01b038581166000818152600193909301602090815260408085209388168086529382529384902094909455915184815290927f8c5be1e5ebec7d5bd14f71427d1e84f3dd0314c0f7b2291e5b200ac8c7c3b92591015b60405180910390a3505050565b612146612d81565b565b6001600160a01b03811660009081526001830160205260408120541515610b85565b6000610b85836001600160a01b038416612dd0565b600061218b8484611a2b565b905060001981146121fe57818110156121f15760405162461bcd60e51b815260206004820152602260248201527f4661636574546f6b656e3a20696e73756666696369656e7420616c6c6f77616e604482015261636560f01b6064820152608401610ab4565b6121fe8484848403611ffe565b50505050565b6001600160a01b03831661226d5760405162461bcd60e51b815260206004820152602a60248201527f4661636574546f6b656e3a207472616e736665722066726f6d20746865207a65604482015269726f206164647265737360b01b6064820152608401610ab4565b6001600160a01b0382166122d45760405162461bcd60e51b815260206004820152602860248201527f4661636574546f6b656e3a207472616e7366657220746f20746865207a65726f604482015267206164647265737360c01b6064820152608401610ab4565b6122df838383612e1f565b60006122e9611c1b565b6001600160a01b038516600090815260209190915260409020549050818110156123695760405162461bcd60e51b815260206004820152602b60248201527f4661636574546f6b656e3a207472616e7366657220616d6f756e74206578636560448201526a6564732062616c616e636560a81b6064820152608401610ab4565b818103612374611c1b565b6001600160a01b0386166000908152602091909152604090205581612397611c1b565b6001600160a01b03858116600081815260209384526040908190208054959095019094559251858152908716917fddf252ad1be2c89b69c2b068fc378daa952ba7f163c4a11628f55a4df523b3ef910160405180910390a36121fe565b60606000610b8583612e67565b6000610b85836001600160a01b038416612ec3565b81612420816118c0565b6124775760405162461bcd60e51b815260206004820152602260248201527f4661636574536166653a20746f6b656e206973206e6f7420616c6c6f7765642060448201526134b760f11b6064820152608401610ab4565b816001600160a01b0382166370a08231336040516001600160e01b031960e084901b1681526001600160a01b039091166004820152602401602060405180830381865afa1580156124cc573d6000803e3d6000fd5b505050506040513d601f19601f820116820180604052508101906124f091906133ca565b101561250e5760405162461bcd60e51b8152600401610ab4906136e1565b6001600160a01b0381166323b872dd336040516001600160e01b031960e084901b1681526001600160a01b039091166004820152306024820152604481018590526064016020604051808303816000875af1158015612571573d6000803e3d6000fd5b505050506040513d601f19601f82011682018060405250810190612595919061372b565b508161259f611be1565b6001600160a01b03851660009081526020919091526040812080549091906125c890849061351a565b909155506125e39050836125da611be1565b6005019061216a565b5060405182906001600160a01b0385169033907f5548c837ab068cf56a2c2479df0882a4922fd203edb7517321831d95078c5f6290600090a4505050565b6001600160a01b0382166126835760405162461bcd60e51b8152602060048201526024808201527f4661636574546f6b656e3a206d696e7420746f20746865207a65726f206164646044820152637265737360e01b6064820152608401610ab4565b61268f60008383612e1f565b80612698611c1b565b60080160008282546126aa919061351a565b909155508190506126b9611c1b565b6001600160a01b03841660008181526020929092526040808320805490940190935591517fddf252ad1be2c89b69c2b068fc378daa952ba7f163c4a11628f55a4df523b3ef9061270c9085815260200190565b60405180910390a35050565b600080600084116127615760405162461bcd60e51b815260206004820152601360248201527204661636574546f6b656e3a206964206973203606c1b6044820152606401610ab4565b6127696115f1565b8411156127b85760405162461bcd60e51b815260206004820152601a60248201527f4661636574546f6b656e3a206e6f6e6578697374656e742069640000000000006044820152606401610ab4565b60006127c48486612fb6565b845490915081036127dc57600080925092505061280a565b60018460010182815481106127f3576127f361374d565b9060005260206000200154925092505061280a565b505b9250929050565b600061281d83836112d6565b9050306001600160a01b0384166128765760405162461bcd60e51b815260206004820152601760248201527f46616365745661756c743a20756e737570706f727465640000000000000000006044820152606401610ab4565b826001600160a01b0385166370a08231336040516001600160e01b031960e084901b1681526001600160a01b039091166004820152602401602060405180830381865afa1580156128cb573d6000803e3d6000fd5b505050506040513d601f19601f820116820180604052508101906128ef91906133ca565b101561293d5760405162461bcd60e51b815260206004820181905260248201527f46616365745661756c743a20696e73756666696369656e742062616c616e63656044820152606401610ab4565b816000036129865760405162461bcd60e51b815260206004820152601660248201527546616365745661756c743a207a65726f2076616c756560501b6044820152606401610ab4565b6129908484611516565b604051631279c04b60e21b8152600481018390526001600160a01b038216906349e7012c90602401600060405180830381600087803b1580156129d257600080fd5b505af11580156129e6573d6000803e3d6000fd5b50505050806001600160a01b031663a9059cbb612a003390565b6040516001600160e01b031960e084901b1681526001600160a01b039091166004820152602481018590526044016020604051808303816000875af1158015612a4d573d6000803e3d6000fd5b505050506040513d601f19601f82011682018060405250810190612a71919061372b565b50826001600160a01b038516336001600160a01b03167f6ecd9aaeb436f3bd7b9340a519254f499e190d9961158d27aba4b3e9e48693ac85604051612ab891815260200190565b60405180910390a450505050565b6001600160a01b038216612b2b5760405162461bcd60e51b815260206004820152602660248201527f4661636574546f6b656e3a206275726e2066726f6d20746865207a65726f206160448201526564647265737360d01b6064820152608401610ab4565b612b3782600083612e1f565b6000612b41611c1b565b6001600160a01b03841660009081526020919091526040902054905081811015612bbd5760405162461bcd60e51b815260206004820152602760248201527f4661636574546f6b656e3a206275726e20616d6f756e7420657863656564732060448201526662616c616e636560c81b6064820152608401610ab4565b818103612bc8611c1b565b6001600160a01b0385166000908152602091909152604090205581612beb611c1b565b60080180549190910390556040518281526000906001600160a01b038516907fddf252ad1be2c89b69c2b068fc378daa952ba7f163c4a11628f55a4df523b3ef90602001612131565b505050565b612c4360006118c0565b612c8f5760405162461bcd60e51b815260206004820181905260248201527f4661636574536166653a20657468206973206e6f7420616c6c6f77656420696e6044820152606401610ab4565b6001341015612cea5760405162461bcd60e51b815260206004820152602160248201527f4661636574536166653a20696e73756666696369656e7420616d6f756e7420696044820152603760f91b6064820152608401610ab4565b34612cf3611be1565b6000808052602091909152604081208054909190612d1290849061351a565b90915550612d25905060006125da611be1565b50604051349060009033907f5548c837ab068cf56a2c2479df0882a4922fd203edb7517321831d95078c5f62908390a4565b6000826000018281548110612d6e57612d6e61374d565b9060005260206000200154905092915050565b3330146121465760405162461bcd60e51b815260206004820152601f60248201527f4661636574436861696e6c696e6b4f7261636c653a206f6e6c792073656c66006044820152606401610ab4565b6000818152600183016020526040812054612e1757508154600181810184556000848152602080822090930184905584548482528286019093526040902091909155610ba0565b506000610ba0565b6001600160a01b038316612e3e57612e3682613063565b612c34613098565b6001600160a01b038216612e5557612e3683613063565b612e5e83613063565b612c3482613063565b606081600001805480602002602001604051908101604052809291908181526020018280548015612eb757602002820191906000526020600020905b815481526020019060010190808311612ea3575b50505050509050919050565b60008181526001830160205260408120548015612fac576000612ee7600183613718565b8554909150600090612efb90600190613718565b9050818114612f60576000866000018281548110612f1b57612f1b61374d565b9060005260206000200154905080876000018481548110612f3e57612f3e61374d565b6000918252602080832090910192909255918252600188019052604090208390555b8554869080612f7157612f71613763565b600190038181906000526020600020016000905590558560010160008681526020019081526020016000206000905560019350505050610ba0565b6000915050610ba0565b81546000908103612fc957506000610ba0565b82546000905b80821015613016576000612fe383836130ae565b6000878152602090209091508590820154111561300257809150613010565b61300d81600161351a565b92505b50612fcf565b60008211801561304257508361303f86613031600186613718565b600091825260209091200190565b54145b1561305b57613052600183613718565b92505050610ba0565b509050610ba0565b61159a61306e611c1b565b6001600160a01b03831660009081526002919091016020526040902061309383611605565b6130c9565b6121466130a3611c1b565b600301613093610cc7565b60006130bd60028484186134e1565b610b859084841661351a565b60006130d36115f1565b9050806130df84613113565b1015612c34578254600180820185556000858152602080822090930193909355938401805494850181558252902090910155565b8054600090810361312657506000919050565b8154829061313690600190613718565b815481106131465761314661374d565b90600052602060002001549050919050565b60005b8381101561317357818101518382015260200161315b565b50506000910152565b602081526000825180602084015261319b816040850160208701613158565b601f01601f19169190910160400192915050565b6000602082840312156131c157600080fd5b5035919050565b80356001600160a01b0381168114610c3f57600080fd5b600080604083850312156131f257600080fd5b6131fb836131c8565b946020939093013593505050565b60006020828403121561321b57600080fd5b610b85826131c8565b634e487b7160e01b600052604160045260246000fd5b60006020828403121561324c57600080fd5b813567ffffffffffffffff8082111561326457600080fd5b818401915084601f83011261327857600080fd5b81358181111561328a5761328a613224565b604051601f8201601f19908116603f011681019083821181831017156132b2576132b2613224565b816040528281528760208487010111156132cb57600080fd5b826020860160208301376000928101602001929092525095945050505050565b60008060006060848603121561330057600080fd5b613309846131c8565b9250613317602085016131c8565b9150604084013590509250925092565b6020808252825182820181905260009190848201906040850190845b818110156133685783516001600160a01b031683529284019291840191600101613343565b50909695505050505050565b6000806040838503121561338757600080fd5b613390836131c8565b915061339e602084016131c8565b90509250929050565b6000602082840312156133b957600080fd5b815160ff81168114610b8557600080fd5b6000602082840312156133dc57600080fd5b5051919050565b634e487b7160e01b600052601160045260246000fd5b600181815b8085111561280857816000190482111561341a5761341a6133e3565b8085161561342757918102915b93841c93908002906133fe565b60008261344357506001610ba0565b8161345057506000610ba0565b816001811461346657600281146134705761348c565b6001915050610ba0565b60ff841115613481576134816133e3565b50506001821b610ba0565b5060208310610133831016604e8410600b84101617156134af575081810a610ba0565b6134b983836133f9565b80600019048211156134cd576134cd6133e3565b029392505050565b6000610b858383613434565b6000826134fe57634e487b7160e01b600052601260045260246000fd5b500490565b8082028115828204841417610ba057610ba06133e3565b80820180821115610ba057610ba06133e3565b60006001820161353f5761353f6133e3565b5060010190565b600181811c9082168061355a57607f821691505b60208210810361357a57634e487b7160e01b600052602260045260246000fd5b50919050565b60208082526019908201527f4661636574536166653a207265656e7472616e742063616c6c00000000000000604082015260600190565b601f821115612c3457600081815260208120601f850160051c810160208610156135de5750805b601f850160051c820191505b818110156135fd578281556001016135ea565b505050505050565b815167ffffffffffffffff81111561361f5761361f613224565b6136338161362d8454613546565b846135b7565b602080601f83116001811461366857600084156136505750858301515b600019600386901b1c1916600185901b1785556135fd565b600085815260208120601f198616915b8281101561369757888601518255948401946001909101908401613678565b50858210156136b55787850151600019600388901b60f8161c191681555b5050505050600190811b01905550565b600082516136d7818460208701613158565b9190910192915050565b6020808252601f908201527f4661636574536166653a20696e73756666696369656e742062616c616e636500604082015260600190565b81810381811115610ba057610ba06133e3565b60006020828403121561373d57600080fd5b81518015158114610b8557600080fd5b634e487b7160e01b600052603260045260246000fd5b634e487b7160e01b600052603160045260246000fdfea26469706673582212201499adefbd0f915e00888315b8af096a404095fb39a9c380b8a6bcc0f5a47a4c64736f6c63430008130033",
			"opcodes": "PUSH1 0x80 PUSH1 0x40 MSTORE CALLVALUE DUP1 ISZERO PUSH2 0x10 JUMPI PUSH1 0x0 DUP1 REVERT JUMPDEST POP PUSH2 0x37AF DUP1 PUSH2 0x20 PUSH1 0x0 CODECOPY PUSH1 0x0 RETURN INVALID PUSH1 0x80 PUSH1 0x40 MSTORE PUSH1 0x4 CALLDATASIZE LT PUSH2 0x27D JUMPI PUSH1 0x0 CALLDATALOAD PUSH1 0xE0 SHR DUP1 PUSH4 0x49E7012C GT PUSH2 0x14F JUMPI DUP1 PUSH4 0xA6A2FCD7 GT PUSH2 0xC1 JUMPI DUP1 PUSH4 0xD0E30DB0 GT PUSH2 0x7A JUMPI DUP1 PUSH4 0xD0E30DB0 EQ PUSH2 0x772 JUMPI DUP1 PUSH4 0xD1A7092C EQ PUSH2 0x77A JUMPI DUP1 PUSH4 0xDD62ED3E EQ PUSH2 0x79A JUMPI DUP1 PUSH4 0xE0089DC3 EQ PUSH2 0x7BA JUMPI DUP1 PUSH4 0xE13A96D6 EQ PUSH2 0x7DA JUMPI DUP1 PUSH4 0xE5E45084 EQ PUSH2 0x7FA JUMPI PUSH1 0x0 DUP1 REVERT JUMPDEST DUP1 PUSH4 0xA6A2FCD7 EQ PUSH2 0x6B2 JUMPI DUP1 PUSH4 0xA9059CBB EQ PUSH2 0x6D2 JUMPI DUP1 PUSH4 0xB3A54F1B EQ PUSH2 0x6F2 JUMPI DUP1 PUSH4 0xB74456F2 EQ PUSH2 0x712 JUMPI DUP1 PUSH4 0xB74CBB41 EQ PUSH2 0x732 JUMPI DUP1 PUSH4 0xCE49C9B3 EQ PUSH2 0x752 JUMPI PUSH1 0x0 DUP1 REVERT JUMPDEST DUP1 PUSH4 0x945FB81D GT PUSH2 0x113 JUMPI DUP1 PUSH4 0x945FB81D EQ PUSH2 0x608 JUMPI DUP1 PUSH4 0x94ABC1AF EQ PUSH2 0x628 JUMPI DUP1 PUSH4 0x95D89B41 EQ PUSH2 0x648 JUMPI DUP1 PUSH4 0x9711715A EQ PUSH2 0x65D JUMPI DUP1 PUSH4 0x981B24D0 EQ PUSH2 0x672 JUMPI DUP1 PUSH4 0xA457C2D7 EQ PUSH2 0x692 JUMPI PUSH1 0x0 DUP1 REVERT JUMPDEST DUP1 PUSH4 0x49E7012C EQ PUSH2 0x573 JUMPI DUP1 PUSH4 0x4EE2CD7E EQ PUSH2 0x593 JUMPI DUP1 PUSH4 0x5439AD86 EQ PUSH2 0x5B3 JUMPI DUP1 PUSH4 0x70A08231 EQ PUSH2 0x5C8 JUMPI DUP1 PUSH4 0x82A3ABAC EQ PUSH2 0x5E8 JUMPI PUSH1 0x0 DUP1 REVERT JUMPDEST DUP1 PUSH4 0x19D0C2FA GT PUSH2 0x1F3 JUMPI DUP1 PUSH4 0x36447C4E GT PUSH2 0x1AC JUMPI DUP1 PUSH4 0x36447C4E EQ PUSH2 0x4BE JUMPI DUP1 PUSH4 0x39509351 EQ PUSH2 0x4DE JUMPI DUP1 PUSH4 0x3E5541F1 EQ PUSH2 0x4FE JUMPI DUP1 PUSH4 0x3E800148 EQ PUSH2 0x51E JUMPI DUP1 PUSH4 0x464964B1 EQ PUSH2 0x53E JUMPI DUP1 PUSH4 0x47E7EF24 EQ PUSH2 0x553 JUMPI PUSH1 0x0 DUP1 REVERT JUMPDEST DUP1 PUSH4 0x19D0C2FA EQ PUSH2 0x40B JUMPI DUP1 PUSH4 0x1E96C1DD EQ PUSH2 0x420 JUMPI DUP1 PUSH4 0x23B872DD EQ PUSH2 0x440 JUMPI DUP1 PUSH4 0x2A77D7B8 EQ PUSH2 0x460 JUMPI DUP1 PUSH4 0x313CE567 EQ PUSH2 0x482 JUMPI DUP1 PUSH4 0x31B94450 EQ PUSH2 0x49E JUMPI PUSH1 0x0 DUP1 REVERT JUMPDEST DUP1 PUSH4 0xA885F95 GT PUSH2 0x245 JUMPI DUP1 PUSH4 0xA885F95 EQ PUSH2 0x33E JUMPI DUP1 PUSH4 0x1128EA3B EQ PUSH2 0x376 JUMPI DUP1 PUSH4 0x179DFF70 EQ PUSH2 0x396 JUMPI DUP1 PUSH4 0x18160DDD EQ PUSH2 0x3B6 JUMPI DUP1 PUSH4 0x182A9420 EQ PUSH2 0x3CB JUMPI DUP1 PUSH4 0x18B31027 EQ PUSH2 0x3EB JUMPI PUSH1 0x0 DUP1 REVERT JUMPDEST DUP1 PUSH4 0x1E1D114 EQ PUSH2 0x282 JUMPI DUP1 PUSH4 0x6FDDE03 EQ PUSH2 0x2AA JUMPI DUP1 PUSH4 0x76D0815 EQ PUSH2 0x2CC JUMPI DUP1 PUSH4 0x7A2D13A EQ PUSH2 0x2EE JUMPI DUP1 PUSH4 0x95EA7B3 EQ PUSH2 0x30E JUMPI JUMPDEST PUSH1 0x0 DUP1 REVERT JUMPDEST CALLVALUE DUP1 ISZERO PUSH2 0x28E JUMPI PUSH1 0x0 DUP1 REVERT JUMPDEST POP PUSH2 0x297 PUSH2 0x81A JUMP JUMPDEST PUSH1 0x40 MLOAD SWAP1 DUP2 MSTORE PUSH1 0x20 ADD JUMPDEST PUSH1 0x40 MLOAD DUP1 SWAP2 SUB SWAP1 RETURN JUMPDEST CALLVALUE DUP1 ISZERO PUSH2 0x2B6 JUMPI PUSH1 0x0 DUP1 REVERT JUMPDEST POP PUSH2 0x2BF PUSH2 0x9ED JUMP JUMPDEST PUSH1 0x40 MLOAD PUSH2 0x2A1 SWAP2 SWAP1 PUSH2 0x317C JUMP JUMPDEST CALLVALUE DUP1 ISZERO PUSH2 0x2D8 JUMPI PUSH1 0x0 DUP1 REVERT JUMPDEST POP PUSH2 0x2EC PUSH2 0x2E7 CALLDATASIZE PUSH1 0x4 PUSH2 0x31AF JUMP JUMPDEST PUSH2 0xA88 JUMP JUMPDEST STOP JUMPDEST CALLVALUE DUP1 ISZERO PUSH2 0x2FA JUMPI PUSH1 0x0 DUP1 REVERT JUMPDEST POP PUSH2 0x297 PUSH2 0x309 CALLDATASIZE PUSH1 0x4 PUSH2 0x31AF JUMP JUMPDEST PUSH2 0xB01 JUMP JUMPDEST CALLVALUE DUP1 ISZERO PUSH2 0x31A JUMPI PUSH1 0x0 DUP1 REVERT JUMPDEST POP PUSH2 0x32E PUSH2 0x329 CALLDATASIZE PUSH1 0x4 PUSH2 0x31DF JUMP JUMPDEST PUSH2 0xB8C JUMP JUMPDEST PUSH1 0x40 MLOAD SWAP1 ISZERO ISZERO DUP2 MSTORE PUSH1 0x20 ADD PUSH2 0x2A1 JUMP JUMPDEST CALLVALUE DUP1 ISZERO PUSH2 0x34A JUMPI PUSH1 0x0 DUP1 REVERT JUMPDEST POP PUSH2 0x35E PUSH2 0x359 CALLDATASIZE PUSH1 0x4 PUSH2 0x31AF JUMP JUMPDEST PUSH2 0xBA6 JUMP JUMPDEST PUSH1 0x40 MLOAD PUSH1 0x1 PUSH1 0x1 PUSH1 0xA0 SHL SUB SWAP1 SWAP2 AND DUP2 MSTORE PUSH1 0x20 ADD PUSH2 0x2A1 JUMP JUMPDEST CALLVALUE DUP1 ISZERO PUSH2 0x382 JUMPI PUSH1 0x0 DUP1 REVERT JUMPDEST POP PUSH2 0x297 PUSH2 0x391 CALLDATASIZE PUSH1 0x4 PUSH2 0x3209 JUMP JUMPDEST PUSH2 0xBBD JUMP JUMPDEST CALLVALUE DUP1 ISZERO PUSH2 0x3A2 JUMPI PUSH1 0x0 DUP1 REVERT JUMPDEST POP PUSH2 0x2EC PUSH2 0x3B1 CALLDATASIZE PUSH1 0x4 PUSH2 0x3209 JUMP JUMPDEST PUSH2 0xC44 JUMP JUMPDEST CALLVALUE DUP1 ISZERO PUSH2 0x3C2 JUMPI PUSH1 0x0 DUP1 REVERT JUMPDEST POP PUSH2 0x297 PUSH2 0xCC7 JUMP JUMPDEST CALLVALUE DUP1 ISZERO PUSH2 0x3D7 JUMPI PUSH1 0x0 DUP1 REVERT JUMPDEST POP PUSH2 0x32E PUSH2 0x3E6 CALLDATASIZE PUSH1 0x4 PUSH2 0x3209 JUMP JUMPDEST PUSH2 0xCDA JUMP JUMPDEST CALLVALUE DUP1 ISZERO PUSH2 0x3F7 JUMPI PUSH1 0x0 DUP1 REVERT JUMPDEST POP PUSH2 0x2EC PUSH2 0x406 CALLDATASIZE PUSH1 0x4 PUSH2 0x3209 JUMP JUMPDEST PUSH2 0xCF1 JUMP JUMPDEST CALLVALUE DUP1 ISZERO PUSH2 0x417 JUMPI PUSH1 0x0 DUP1 REVERT JUMPDEST POP PUSH2 0x297 PUSH2 0xD46 JUMP JUMPDEST CALLVALUE DUP1 ISZERO PUSH2 0x42C JUMPI PUSH1 0x0 DUP1 REVERT JUMPDEST POP PUSH2 0x2EC PUSH2 0x43B CALLDATASIZE PUSH1 0x4 PUSH2 0x323A JUMP JUMPDEST PUSH2 0xDC6 JUMP JUMPDEST CALLVALUE DUP1 ISZERO PUSH2 0x44C JUMPI PUSH1 0x0 DUP1 REVERT JUMPDEST POP PUSH2 0x32E PUSH2 0x45B CALLDATASIZE PUSH1 0x4 PUSH2 0x32EB JUMP JUMPDEST PUSH2 0xED6 JUMP JUMPDEST CALLVALUE DUP1 ISZERO PUSH2 0x46C JUMPI PUSH1 0x0 DUP1 REVERT JUMPDEST POP PUSH2 0x475 PUSH2 0xEFA JUMP JUMPDEST PUSH1 0x40 MLOAD PUSH2 0x2A1 SWAP2 SWAP1 PUSH2 0x3327 JUMP JUMPDEST CALLVALUE DUP1 ISZERO PUSH2 0x48E JUMPI PUSH1 0x0 DUP1 REVERT JUMPDEST POP PUSH1 0x40 MLOAD PUSH1 0x12 DUP2 MSTORE PUSH1 0x20 ADD PUSH2 0x2A1 JUMP JUMPDEST CALLVALUE DUP1 ISZERO PUSH2 0x4AA JUMPI PUSH1 0x0 DUP1 REVERT JUMPDEST POP PUSH2 0x2EC PUSH2 0x4B9 CALLDATASIZE PUSH1 0x4 PUSH2 0x31DF JUMP JUMPDEST PUSH2 0xF14 JUMP JUMPDEST CALLVALUE DUP1 ISZERO PUSH2 0x4CA JUMPI PUSH1 0x0 DUP1 REVERT JUMPDEST POP PUSH2 0x2EC PUSH2 0x4D9 CALLDATASIZE PUSH1 0x4 PUSH2 0x32EB JUMP JUMPDEST PUSH2 0x108A JUMP JUMPDEST CALLVALUE DUP1 ISZERO PUSH2 0x4EA JUMPI PUSH1 0x0 DUP1 REVERT JUMPDEST POP PUSH2 0x32E PUSH2 0x4F9 CALLDATASIZE PUSH1 0x4 PUSH2 0x31DF JUMP JUMPDEST PUSH2 0x12B4 JUMP JUMPDEST CALLVALUE DUP1 ISZERO PUSH2 0x50A JUMPI PUSH1 0x0 DUP1 REVERT JUMPDEST POP PUSH2 0x297 PUSH2 0x519 CALLDATASIZE PUSH1 0x4 PUSH2 0x31DF JUMP JUMPDEST PUSH2 0x12D6 JUMP JUMPDEST CALLVALUE DUP1 ISZERO PUSH2 0x52A JUMPI PUSH1 0x0 DUP1 REVERT JUMPDEST POP PUSH2 0x297 PUSH2 0x539 CALLDATASIZE PUSH1 0x4 PUSH2 0x3209 JUMP JUMPDEST PUSH2 0x14D8 JUMP JUMPDEST CALLVALUE DUP1 ISZERO PUSH2 0x54A JUMPI PUSH1 0x0 DUP1 REVERT JUMPDEST POP PUSH2 0x475 PUSH2 0x1501 JUMP JUMPDEST CALLVALUE DUP1 ISZERO PUSH2 0x55F JUMPI PUSH1 0x0 DUP1 REVERT JUMPDEST POP PUSH2 0x2EC PUSH2 0x56E CALLDATASIZE PUSH1 0x4 PUSH2 0x31DF JUMP JUMPDEST PUSH2 0x1516 JUMP JUMPDEST CALLVALUE DUP1 ISZERO PUSH2 0x57F JUMPI PUSH1 0x0 DUP1 REVERT JUMPDEST POP PUSH2 0x2EC PUSH2 0x58E CALLDATASIZE PUSH1 0x4 PUSH2 0x31AF JUMP JUMPDEST PUSH2 0x1588 JUMP JUMPDEST CALLVALUE DUP1 ISZERO PUSH2 0x59F JUMPI PUSH1 0x0 DUP1 REVERT JUMPDEST POP PUSH2 0x297 PUSH2 0x5AE CALLDATASIZE PUSH1 0x4 PUSH2 0x31DF JUMP JUMPDEST PUSH2 0x159D JUMP JUMPDEST CALLVALUE DUP1 ISZERO PUSH2 0x5BF JUMPI PUSH1 0x0 DUP1 REVERT JUMPDEST POP PUSH2 0x297 PUSH2 0x15F1 JUMP JUMPDEST CALLVALUE DUP1 ISZERO PUSH2 0x5D4 JUMPI PUSH1 0x0 DUP1 REVERT JUMPDEST POP PUSH2 0x297 PUSH2 0x5E3 CALLDATASIZE PUSH1 0x4 PUSH2 0x3209 JUMP JUMPDEST PUSH2 0x1605 JUMP JUMPDEST CALLVALUE DUP1 ISZERO PUSH2 0x5F4 JUMPI PUSH1 0x0 DUP1 REVERT JUMPDEST POP PUSH2 0x2EC PUSH2 0x603 CALLDATASIZE PUSH1 0x4 PUSH2 0x3374 JUMP JUMPDEST PUSH2 0x160F JUMP JUMPDEST CALLVALUE DUP1 ISZERO PUSH2 0x614 JUMPI PUSH1 0x0 DUP1 REVERT JUMPDEST POP PUSH2 0x2EC PUSH2 0x623 CALLDATASIZE PUSH1 0x4 PUSH2 0x31DF JUMP JUMPDEST PUSH2 0x169A JUMP JUMPDEST CALLVALUE DUP1 ISZERO PUSH2 0x634 JUMPI PUSH1 0x0 DUP1 REVERT JUMPDEST POP PUSH2 0x35E PUSH2 0x643 CALLDATASIZE PUSH1 0x4 PUSH2 0x3209 JUMP JUMPDEST PUSH2 0x16EC JUMP JUMPDEST CALLVALUE DUP1 ISZERO PUSH2 0x654 JUMPI PUSH1 0x0 DUP1 REVERT JUMPDEST POP PUSH2 0x2BF PUSH2 0x1729 JUMP JUMPDEST CALLVALUE DUP1 ISZERO PUSH2 0x669 JUMPI PUSH1 0x0 DUP1 REVERT JUMPDEST POP PUSH2 0x297 PUSH2 0x1741 JUMP JUMPDEST CALLVALUE DUP1 ISZERO PUSH2 0x67E JUMPI PUSH1 0x0 DUP1 REVERT JUMPDEST POP PUSH2 0x297 PUSH2 0x68D CALLDATASIZE PUSH1 0x4 PUSH2 0x31AF JUMP JUMPDEST PUSH2 0x17A4 JUMP JUMPDEST CALLVALUE DUP1 ISZERO PUSH2 0x69E JUMPI PUSH1 0x0 DUP1 REVERT JUMPDEST POP PUSH2 0x32E PUSH2 0x6AD CALLDATASIZE PUSH1 0x4 PUSH2 0x31DF JUMP JUMPDEST PUSH2 0x17DD JUMP JUMPDEST CALLVALUE DUP1 ISZERO PUSH2 0x6BE JUMPI PUSH1 0x0 DUP1 REVERT JUMPDEST POP PUSH2 0x2EC PUSH2 0x6CD CALLDATASIZE PUSH1 0x4 PUSH2 0x3209 JUMP JUMPDEST PUSH2 0x185D JUMP JUMPDEST CALLVALUE DUP1 ISZERO PUSH2 0x6DE JUMPI PUSH1 0x0 DUP1 REVERT JUMPDEST POP PUSH2 0x32E PUSH2 0x6ED CALLDATASIZE PUSH1 0x4 PUSH2 0x31DF JUMP JUMPDEST PUSH2 0x18B2 JUMP JUMPDEST CALLVALUE DUP1 ISZERO PUSH2 0x6FE JUMPI PUSH1 0x0 DUP1 REVERT JUMPDEST POP PUSH2 0x32E PUSH2 0x70D CALLDATASIZE PUSH1 0x4 PUSH2 0x3209 JUMP JUMPDEST PUSH2 0x18C0 JUMP JUMPDEST CALLVALUE DUP1 ISZERO PUSH2 0x71E JUMPI PUSH1 0x0 DUP1 REVERT JUMPDEST POP PUSH2 0x2EC PUSH2 0x72D CALLDATASIZE PUSH1 0x4 PUSH2 0x31AF JUMP JUMPDEST PUSH2 0x18D7 JUMP JUMPDEST CALLVALUE DUP1 ISZERO PUSH2 0x73E JUMPI PUSH1 0x0 DUP1 REVERT JUMPDEST POP PUSH2 0x2EC PUSH2 0x74D CALLDATASIZE PUSH1 0x4 PUSH2 0x3209 JUMP JUMPDEST PUSH2 0x18E9 JUMP JUMPDEST CALLVALUE DUP1 ISZERO PUSH2 0x75E JUMPI PUSH1 0x0 DUP1 REVERT JUMPDEST POP PUSH2 0x32E PUSH2 0x76D CALLDATASIZE PUSH1 0x4 PUSH2 0x3209 JUMP JUMPDEST PUSH2 0x193E JUMP JUMPDEST PUSH2 0x2EC PUSH2 0x1967 JUMP JUMPDEST CALLVALUE DUP1 ISZERO PUSH2 0x786 JUMPI PUSH1 0x0 DUP1 REVERT JUMPDEST POP PUSH2 0x297 PUSH2 0x795 CALLDATASIZE PUSH1 0x4 PUSH2 0x3209 JUMP JUMPDEST PUSH2 0x19D5 JUMP JUMPDEST CALLVALUE DUP1 ISZERO PUSH2 0x7A6 JUMPI PUSH1 0x0 DUP1 REVERT JUMPDEST POP PUSH2 0x297 PUSH2 0x7B5 CALLDATASIZE PUSH1 0x4 PUSH2 0x3374 JUMP JUMPDEST PUSH2 0x1A2B JUMP JUMPDEST CALLVALUE DUP1 ISZERO PUSH2 0x7C6 JUMPI PUSH1 0x0 DUP1 REVERT JUMPDEST POP PUSH2 0x2EC PUSH2 0x7D5 CALLDATASIZE PUSH1 0x4 PUSH2 0x323A JUMP JUMPDEST PUSH2 0x1A65 JUMP JUMPDEST CALLVALUE DUP1 ISZERO PUSH2 0x7E6 JUMPI PUSH1 0x0 DUP1 REVERT JUMPDEST POP PUSH2 0x35E PUSH2 0x7F5 CALLDATASIZE PUSH1 0x4 PUSH2 0x31AF JUMP JUMPDEST PUSH2 0x1B75 JUMP JUMPDEST CALLVALUE DUP1 ISZERO PUSH2 0x806 JUMPI PUSH1 0x0 DUP1 REVERT JUMPDEST POP PUSH2 0x2EC PUSH2 0x815 CALLDATASIZE PUSH1 0x4 PUSH2 0x3209 JUMP JUMPDEST PUSH2 0x1B8C JUMP JUMPDEST PUSH1 0x0 DUP1 PUSH1 0x0 PUSH2 0x832 PUSH2 0x82A PUSH2 0x1BE1 JUMP JUMPDEST PUSH1 0x5 ADD PUSH2 0x1C05 JUMP JUMPDEST SWAP1 POP ADDRESS PUSH1 0x0 JUMPDEST DUP3 DUP2 LT ISZERO PUSH2 0x9E4 JUMPI PUSH1 0x0 PUSH2 0x857 DUP3 PUSH2 0x84E PUSH2 0x1BE1 JUMP JUMPDEST PUSH1 0x5 ADD SWAP1 PUSH2 0x1C0F JUMP JUMPDEST SWAP1 POP PUSH1 0x0 DUP2 PUSH1 0x1 PUSH1 0x1 PUSH1 0xA0 SHL SUB AND PUSH4 0x313CE567 PUSH1 0x40 MLOAD DUP2 PUSH4 0xFFFFFFFF AND PUSH1 0xE0 SHL DUP2 MSTORE PUSH1 0x4 ADD PUSH1 0x20 PUSH1 0x40 MLOAD DUP1 DUP4 SUB DUP2 DUP7 GAS STATICCALL ISZERO DUP1 ISZERO PUSH2 0x899 JUMPI RETURNDATASIZE PUSH1 0x0 DUP1 RETURNDATACOPY RETURNDATASIZE PUSH1 0x0 REVERT JUMPDEST POP POP POP POP PUSH1 0x40 MLOAD RETURNDATASIZE PUSH1 0x1F NOT PUSH1 0x1F DUP3 ADD AND DUP3 ADD DUP1 PUSH1 0x40 MSTORE POP DUP2 ADD SWAP1 PUSH2 0x8BD SWAP2 SWAP1 PUSH2 0x33A7 JUMP JUMPDEST PUSH1 0x40 MLOAD PUSH4 0x7D00029 PUSH1 0xE3 SHL DUP2 MSTORE PUSH1 0x1 PUSH1 0x1 PUSH1 0xA0 SHL SUB DUP5 DUP2 AND PUSH1 0x4 DUP4 ADD MSTORE PUSH1 0xFF SWAP3 SWAP1 SWAP3 AND SWAP3 POP PUSH1 0x0 SWAP2 DUP7 AND SWAP1 PUSH4 0x3E800148 SWAP1 PUSH1 0x24 ADD PUSH1 0x20 PUSH1 0x40 MLOAD DUP1 DUP4 SUB DUP2 DUP7 GAS STATICCALL ISZERO DUP1 ISZERO PUSH2 0x90E JUMPI RETURNDATASIZE PUSH1 0x0 DUP1 RETURNDATACOPY RETURNDATASIZE PUSH1 0x0 REVERT JUMPDEST POP POP POP POP PUSH1 0x40 MLOAD RETURNDATASIZE PUSH1 0x1F NOT PUSH1 0x1F DUP3 ADD AND DUP3 ADD DUP1 PUSH1 0x40 MSTORE POP DUP2 ADD SWAP1 PUSH2 0x932 SWAP2 SWAP1 PUSH2 0x33CA JUMP JUMPDEST SWAP1 POP PUSH1 0x0 PUSH2 0x941 DUP4 PUSH1 0xA PUSH2 0x34D5 JUMP JUMPDEST PUSH1 0x40 MLOAD PUSH4 0x3469C24B PUSH1 0xE2 SHL DUP2 MSTORE PUSH1 0x1 PUSH1 0x1 PUSH1 0xA0 SHL SUB DUP7 DUP2 AND PUSH1 0x4 DUP4 ADD MSTORE DUP9 AND SWAP1 PUSH4 0xD1A7092C SWAP1 PUSH1 0x24 ADD PUSH1 0x20 PUSH1 0x40 MLOAD DUP1 DUP4 SUB DUP2 DUP7 GAS STATICCALL ISZERO DUP1 ISZERO PUSH2 0x987 JUMPI RETURNDATASIZE PUSH1 0x0 DUP1 RETURNDATACOPY RETURNDATASIZE PUSH1 0x0 REVERT JUMPDEST POP POP POP POP PUSH1 0x40 MLOAD RETURNDATASIZE PUSH1 0x1F NOT PUSH1 0x1F DUP3 ADD AND DUP3 ADD DUP1 PUSH1 0x40 MSTORE POP DUP2 ADD SWAP1 PUSH2 0x9AB SWAP2 SWAP1 PUSH2 0x33CA JUMP JUMPDEST PUSH2 0x9B5 SWAP2 SWAP1 PUSH2 0x34E1 JUMP JUMPDEST SWAP1 POP PUSH2 0x9C1 DUP3 DUP3 PUSH2 0x3503 JUMP JUMPDEST PUSH2 0x9CB SWAP1 DUP10 PUSH2 0x351A JUMP JUMPDEST SWAP8 POP POP POP POP POP DUP1 DUP1 PUSH2 0x9DC SWAP1 PUSH2 0x352D JUMP JUMPDEST SWAP2 POP POP PUSH2 0x838 JUMP JUMPDEST POP SWAP2 SWAP4 SWAP3 POP POP POP JUMP JUMPDEST PUSH1 0x60 PUSH2 0x9F7 PUSH2 0x1C1B JUMP JUMPDEST PUSH1 0x6 ADD DUP1 SLOAD PUSH2 0xA05 SWAP1 PUSH2 0x3546 JUMP JUMPDEST DUP1 PUSH1 0x1F ADD PUSH1 0x20 DUP1 SWAP2 DIV MUL PUSH1 0x20 ADD PUSH1 0x40 MLOAD SWAP1 DUP2 ADD PUSH1 0x40 MSTORE DUP1 SWAP3 SWAP2 SWAP1 DUP2 DUP2 MSTORE PUSH1 0x20 ADD DUP3 DUP1 SLOAD PUSH2 0xA31 SWAP1 PUSH2 0x3546 JUMP JUMPDEST DUP1 ISZERO PUSH2 0xA7E JUMPI DUP1 PUSH1 0x1F LT PUSH2 0xA53 JUMPI PUSH2 0x100 DUP1 DUP4 SLOAD DIV MUL DUP4 MSTORE SWAP2 PUSH1 0x20 ADD SWAP2 PUSH2 0xA7E JUMP JUMPDEST DUP3 ADD SWAP2 SWAP1 PUSH1 0x0 MSTORE PUSH1 0x20 PUSH1 0x0 KECCAK256 SWAP1 JUMPDEST DUP2 SLOAD DUP2 MSTORE SWAP1 PUSH1 0x1 ADD SWAP1 PUSH1 0x20 ADD DUP1 DUP4 GT PUSH2 0xA61 JUMPI DUP3 SWAP1 SUB PUSH1 0x1F AND DUP3 ADD SWAP2 JUMPDEST POP POP POP POP POP SWAP1 POP SWAP1 JUMP JUMPDEST PUSH2 0xA90 PUSH2 0x1BE1 JUMP JUMPDEST PUSH1 0x7 ADD SLOAD PUSH1 0xFF AND ISZERO PUSH2 0xABD JUMPI PUSH1 0x40 MLOAD PUSH3 0x461BCD PUSH1 0xE5 SHL DUP2 MSTORE PUSH1 0x4 ADD PUSH2 0xAB4 SWAP1 PUSH2 0x3580 JUMP JUMPDEST PUSH1 0x40 MLOAD DUP1 SWAP2 SUB SWAP1 REVERT JUMPDEST PUSH1 0x1 PUSH2 0xAC7 PUSH2 0x1BE1 JUMP JUMPDEST PUSH1 0x7 ADD DUP1 SLOAD PUSH1 0xFF NOT AND SWAP2 ISZERO ISZERO SWAP2 SWAP1 SWAP2 OR SWAP1 SSTORE PUSH2 0xAE2 DUP2 PUSH2 0x1C3F JUMP JUMPDEST PUSH1 0x0 PUSH2 0xAEC PUSH2 0x1BE1 JUMP JUMPDEST PUSH1 0x7 ADD DUP1 SLOAD PUSH1 0xFF NOT AND SWAP2 ISZERO ISZERO SWAP2 SWAP1 SWAP2 OR SWAP1 SSTORE POP JUMP JUMPDEST PUSH1 0x0 DUP1 ADDRESS SWAP1 POP DUP1 PUSH1 0x1 PUSH1 0x1 PUSH1 0xA0 SHL SUB AND PUSH4 0x18160DDD PUSH1 0x40 MLOAD DUP2 PUSH4 0xFFFFFFFF AND PUSH1 0xE0 SHL DUP2 MSTORE PUSH1 0x4 ADD PUSH1 0x20 PUSH1 0x40 MLOAD DUP1 DUP4 SUB DUP2 DUP7 GAS STATICCALL ISZERO DUP1 ISZERO PUSH2 0xB45 JUMPI RETURNDATASIZE PUSH1 0x0 DUP1 RETURNDATACOPY RETURNDATASIZE PUSH1 0x0 REVERT JUMPDEST POP POP POP POP PUSH1 0x40 MLOAD RETURNDATASIZE PUSH1 0x1F NOT PUSH1 0x1F DUP3 ADD AND DUP3 ADD DUP1 PUSH1 0x40 MSTORE POP DUP2 ADD SWAP1 PUSH2 0xB69 SWAP2 SWAP1 PUSH2 0x33CA JUMP JUMPDEST PUSH2 0xB71 PUSH2 0x81A JUMP JUMPDEST PUSH2 0xB7B SWAP1 DUP6 PUSH2 0x3503 JUMP JUMPDEST PUSH2 0xB85 SWAP2 SWAP1 PUSH2 0x34E1 JUMP JUMPDEST SWAP4 SWAP3 POP POP POP JUMP JUMPDEST PUSH1 0x0 CALLER PUSH2 0xB9A DUP2 DUP6 DUP6 PUSH2 0x1FFE JUMP JUMPDEST PUSH1 0x1 SWAP2 POP POP JUMPDEST SWAP3 SWAP2 POP POP JUMP JUMPDEST PUSH1 0x0 PUSH2 0xBA0 DUP3 PUSH2 0xBB4 PUSH2 0x1BE1 JUMP JUMPDEST PUSH1 0x3 ADD SWAP1 PUSH2 0x1C0F JUMP JUMPDEST PUSH1 0x0 PUSH2 0xBC8 DUP3 PUSH2 0x193E JUMP JUMPDEST ISZERO PUSH2 0xC37 JUMPI PUSH2 0xBD6 DUP3 PUSH2 0x16EC JUMP JUMPDEST PUSH1 0x1 PUSH1 0x1 PUSH1 0xA0 SHL SUB AND PUSH4 0x8205BF6A PUSH1 0x40 MLOAD DUP2 PUSH4 0xFFFFFFFF AND PUSH1 0xE0 SHL DUP2 MSTORE PUSH1 0x4 ADD PUSH1 0x20 PUSH1 0x40 MLOAD DUP1 DUP4 SUB DUP2 DUP7 GAS STATICCALL ISZERO DUP1 ISZERO PUSH2 0xC13 JUMPI RETURNDATASIZE PUSH1 0x0 DUP1 RETURNDATACOPY RETURNDATASIZE PUSH1 0x0 REVERT JUMPDEST POP POP POP POP PUSH1 0x40 MLOAD RETURNDATASIZE PUSH1 0x1F NOT PUSH1 0x1F DUP3 ADD AND DUP3 ADD DUP1 PUSH1 0x40 MSTORE POP DUP2 ADD SWAP1 PUSH2 0xBA0 SWAP2 SWAP1 PUSH2 0x33CA JUMP JUMPDEST POP PUSH1 0x0 SWAP2 SWAP1 POP JUMP JUMPDEST SWAP2 SWAP1 POP JUMP JUMPDEST PUSH2 0xC4C PUSH2 0x213E JUMP JUMPDEST PUSH1 0x1 PUSH1 0x1 PUSH1 0xA0 SHL SUB DUP2 DUP2 AND PUSH1 0x0 DUP2 DUP2 MSTORE PUSH32 0x9C1BD07F41F39C402056ED4F84031A21FC6DD44454B5A4BEAD86CC6D5E198C6 PUSH1 0x20 MSTORE PUSH1 0x40 DUP1 DUP3 KECCAK256 DUP1 SLOAD PUSH1 0x1 PUSH1 0x1 PUSH1 0xA0 SHL SUB NOT DUP2 AND SWAP1 SWAP2 SSTORE SWAP1 MLOAD SWAP4 AND SWAP3 SWAP1 SWAP2 DUP4 SWAP2 PUSH32 0xD0C47DC6B57EC438DAAAA3787DDFC8B61A28F0B9A5B44D7CC9B7C4EA533A3DF7 SWAP1 DUP5 SWAP1 LOG4 POP POP JUMP JUMPDEST PUSH1 0x0 PUSH2 0xCD1 PUSH2 0x1C1B JUMP JUMPDEST PUSH1 0x8 ADD SLOAD SWAP1 POP SWAP1 JUMP JUMPDEST PUSH1 0x0 PUSH2 0xBA0 DUP3 PUSH2 0xCE8 PUSH2 0x1BE1 JUMP JUMPDEST PUSH1 0x3 ADD SWAP1 PUSH2 0x2148 JUMP JUMPDEST PUSH2 0xCF9 PUSH2 0x213E JUMP JUMPDEST PUSH2 0xD0E DUP2 PUSH2 0xD05 PUSH2 0x1BE1 JUMP JUMPDEST PUSH1 0x1 ADD SWAP1 PUSH2 0x216A JUMP JUMPDEST POP PUSH1 0x40 MLOAD PUSH1 0x1 PUSH1 0x1 PUSH1 0xA0 SHL SUB DUP3 AND SWAP1 PUSH32 0xF6AEA4EBD15C89FF6A16B7819FB6968AD0A0CE7E0085EF4C87A85F8C0CD2E46A SWAP1 PUSH1 0x0 SWAP1 LOG2 POP JUMP JUMPDEST PUSH1 0x0 DUP1 ADDRESS SWAP1 POP DUP1 PUSH1 0x1 PUSH1 0x1 PUSH1 0xA0 SHL SUB AND PUSH4 0x18160DDD PUSH1 0x40 MLOAD DUP2 PUSH4 0xFFFFFFFF AND PUSH1 0xE0 SHL DUP2 MSTORE PUSH1 0x4 ADD PUSH1 0x20 PUSH1 0x40 MLOAD DUP1 DUP4 SUB DUP2 DUP7 GAS STATICCALL ISZERO DUP1 ISZERO PUSH2 0xD8A JUMPI RETURNDATASIZE PUSH1 0x0 DUP1 RETURNDATACOPY RETURNDATASIZE PUSH1 0x0 REVERT JUMPDEST POP POP POP POP PUSH1 0x40 MLOAD RETURNDATASIZE PUSH1 0x1F NOT PUSH1 0x1F DUP3 ADD AND DUP3 ADD DUP1 PUSH1 0x40 MSTORE POP DUP2 ADD SWAP1 PUSH2 0xDAE SWAP2 SWAP1 PUSH2 0x33CA JUMP JUMPDEST PUSH2 0xDB6 PUSH2 0x81A JUMP JUMPDEST PUSH2 0xDC0 SWAP2 SWAP1 PUSH2 0x34E1 JUMP JUMPDEST SWAP2 POP POP SWAP1 JUMP JUMPDEST PUSH2 0xDCE PUSH2 0x213E JUMP JUMPDEST PUSH1 0x0 PUSH2 0xDD8 PUSH2 0x1C1B JUMP JUMPDEST PUSH1 0x7 ADD DUP1 SLOAD PUSH2 0xDE6 SWAP1 PUSH2 0x3546 JUMP JUMPDEST DUP1 PUSH1 0x1F ADD PUSH1 0x20 DUP1 SWAP2 DIV MUL PUSH1 0x20 ADD PUSH1 0x40 MLOAD SWAP1 DUP2 ADD PUSH1 0x40 MSTORE DUP1 SWAP3 SWAP2 SWAP1 DUP2 DUP2 MSTORE PUSH1 0x20 ADD DUP3 DUP1 SLOAD PUSH2 0xE12 SWAP1 PUSH2 0x3546 JUMP JUMPDEST DUP1 ISZERO PUSH2 0xE5F JUMPI DUP1 PUSH1 0x1F LT PUSH2 0xE34 JUMPI PUSH2 0x100 DUP1 DUP4 SLOAD DIV MUL DUP4 MSTORE SWAP2 PUSH1 0x20 ADD SWAP2 PUSH2 0xE5F JUMP JUMPDEST DUP3 ADD SWAP2 SWAP1 PUSH1 0x0 MSTORE PUSH1 0x20 PUSH1 0x0 KECCAK256 SWAP1 JUMPDEST DUP2 SLOAD DUP2 MSTORE SWAP1 PUSH1 0x1 ADD SWAP1 PUSH1 0x20 ADD DUP1 DUP4 GT PUSH2 0xE42 JUMPI DUP3 SWAP1 SUB PUSH1 0x1F AND DUP3 ADD SWAP2 JUMPDEST POP POP POP POP POP SWAP1 POP DUP2 PUSH2 0xE6F PUSH2 0x1C1B JUMP JUMPDEST PUSH1 0x7 ADD SWAP1 PUSH2 0xE7D SWAP1 DUP3 PUSH2 0x3605 JUMP JUMPDEST POP DUP2 PUSH1 0x40 MLOAD PUSH2 0xE8C SWAP2 SWAP1 PUSH2 0x36C5 JUMP JUMPDEST PUSH1 0x40 MLOAD DUP1 SWAP2 SUB SWAP1 KECCAK256 DUP2 PUSH1 0x40 MLOAD PUSH2 0xEA2 SWAP2 SWAP1 PUSH2 0x36C5 JUMP JUMPDEST PUSH1 0x40 MLOAD SWAP1 DUP2 SWAP1 SUB DUP2 KECCAK256 SWAP1 PUSH32 0x68023CAB388C6052AF3FA625F164CD0C14CC9125D57286FBE0D9B384847C4C02 SWAP1 PUSH1 0x0 SWAP1 LOG3 POP POP JUMP JUMPDEST PUSH1 0x0 CALLER PUSH2 0xEE4 DUP6 DUP3 DUP6 PUSH2 0x217F JUMP JUMPDEST PUSH2 0xEEF DUP6 DUP6 DUP6 PUSH2 0x2204 JUMP JUMPDEST POP PUSH1 0x1 SWAP5 SWAP4 POP POP POP POP JUMP JUMPDEST PUSH1 0x60 PUSH2 0xF0F PUSH2 0xF07 PUSH2 0x1BE1 JUMP JUMPDEST PUSH1 0x1 ADD PUSH2 0x23F4 JUMP JUMPDEST SWAP1 POP SWAP1 JUMP JUMPDEST PUSH2 0xF1C PUSH2 0x213E JUMP JUMPDEST PUSH2 0xF26 PUSH1 0x0 PUSH2 0xCDA JUMP JUMPDEST PUSH2 0xF7C JUMPI PUSH1 0x40 MLOAD PUSH3 0x461BCD PUSH1 0xE5 SHL DUP2 MSTORE PUSH1 0x20 PUSH1 0x4 DUP3 ADD MSTORE PUSH1 0x21 PUSH1 0x24 DUP3 ADD MSTORE PUSH32 0x4661636574536166653A20657468206973206E6F7420616C6C6F776564206F75 PUSH1 0x44 DUP3 ADD MSTORE PUSH1 0x1D PUSH1 0xFA SHL PUSH1 0x64 DUP3 ADD MSTORE PUSH1 0x84 ADD PUSH2 0xAB4 JUMP JUMPDEST DUP1 PUSH2 0xF85 PUSH2 0x1BE1 JUMP JUMPDEST PUSH1 0x0 DUP1 DUP1 MSTORE PUSH1 0x20 SWAP2 SWAP1 SWAP2 MSTORE PUSH1 0x40 SWAP1 KECCAK256 SLOAD LT ISZERO PUSH2 0xFB3 JUMPI PUSH1 0x40 MLOAD PUSH3 0x461BCD PUSH1 0xE5 SHL DUP2 MSTORE PUSH1 0x4 ADD PUSH2 0xAB4 SWAP1 PUSH2 0x36E1 JUMP JUMPDEST DUP1 PUSH2 0xFBC PUSH2 0x1BE1 JUMP JUMPDEST PUSH1 0x0 DUP1 DUP1 MSTORE PUSH1 0x20 SWAP2 SWAP1 SWAP2 MSTORE PUSH1 0x40 DUP2 KECCAK256 DUP1 SLOAD SWAP1 SWAP2 SWAP1 PUSH2 0xFDB SWAP1 DUP5 SWAP1 PUSH2 0x3718 JUMP JUMPDEST SWAP1 SWAP2 SSTORE POP PUSH2 0xFE9 SWAP1 POP PUSH2 0x1BE1 JUMP JUMPDEST PUSH1 0x0 DUP1 DUP1 MSTORE PUSH1 0x20 SWAP2 SWAP1 SWAP2 MSTORE PUSH1 0x40 DUP2 KECCAK256 SLOAD SWAP1 SUB PUSH2 0x1017 JUMPI PUSH2 0x1015 PUSH1 0x0 PUSH2 0x100C PUSH2 0x1BE1 JUMP JUMPDEST PUSH1 0x5 ADD SWAP1 PUSH2 0x2401 JUMP JUMPDEST POP JUMPDEST PUSH1 0x40 MLOAD PUSH1 0x1 PUSH1 0x1 PUSH1 0xA0 SHL SUB DUP4 AND SWAP1 DUP3 ISZERO PUSH2 0x8FC MUL SWAP1 DUP4 SWAP1 PUSH1 0x0 DUP2 DUP2 DUP2 DUP6 DUP9 DUP9 CALL SWAP4 POP POP POP POP ISZERO DUP1 ISZERO PUSH2 0x104D JUMPI RETURNDATASIZE PUSH1 0x0 DUP1 RETURNDATACOPY RETURNDATASIZE PUSH1 0x0 REVERT JUMPDEST POP PUSH1 0x40 MLOAD DUP2 SWAP1 PUSH1 0x0 SWAP1 PUSH1 0x1 PUSH1 0x1 PUSH1 0xA0 SHL SUB DUP6 AND SWAP1 PUSH32 0x9B1BFA7FA9EE420A16E124F794C35AC9F90472ACC99140EB2F6447C714CAD8EB SWAP1 DUP4 SWAP1 LOG4 POP POP JUMP JUMPDEST DUP2 PUSH2 0x1093 PUSH2 0x213E JUMP JUMPDEST PUSH1 0x1 PUSH1 0x1 PUSH1 0xA0 SHL SUB DUP4 AND PUSH2 0x10E9 JUMPI PUSH1 0x40 MLOAD PUSH3 0x461BCD PUSH1 0xE5 SHL DUP2 MSTORE PUSH1 0x20 PUSH1 0x4 DUP3 ADD MSTORE PUSH1 0x1A PUSH1 0x24 DUP3 ADD MSTORE PUSH32 0x4661636574536166653A20696D70726F706572206D6574686F64000000000000 PUSH1 0x44 DUP3 ADD MSTORE PUSH1 0x64 ADD PUSH2 0xAB4 JUMP JUMPDEST PUSH2 0x10F2 DUP4 PUSH2 0xCDA JUMP JUMPDEST PUSH2 0x114A JUMPI PUSH1 0x40 MLOAD PUSH3 0x461BCD PUSH1 0xE5 SHL DUP2 MSTORE PUSH1 0x20 PUSH1 0x4 DUP3 ADD MSTORE PUSH1 0x23 PUSH1 0x24 DUP3 ADD MSTORE PUSH32 0x4661636574536166653A20746F6B656E206973206E6F7420616C6C6F77656420 PUSH1 0x44 DUP3 ADD MSTORE PUSH3 0x1BDD5D PUSH1 0xEA SHL PUSH1 0x64 DUP3 ADD MSTORE PUSH1 0x84 ADD PUSH2 0xAB4 JUMP JUMPDEST DUP2 PUSH2 0x1153 PUSH2 0x1BE1 JUMP JUMPDEST PUSH1 0x1 PUSH1 0x1 PUSH1 0xA0 SHL SUB DUP6 AND PUSH1 0x0 SWAP1 DUP2 MSTORE PUSH1 0x20 SWAP2 SWAP1 SWAP2 MSTORE PUSH1 0x40 SWAP1 KECCAK256 SLOAD LT ISZERO PUSH2 0x118B JUMPI PUSH1 0x40 MLOAD PUSH3 0x461BCD PUSH1 0xE5 SHL DUP2 MSTORE PUSH1 0x4 ADD PUSH2 0xAB4 SWAP1 PUSH2 0x36E1 JUMP JUMPDEST DUP2 PUSH2 0x1194 PUSH2 0x1BE1 JUMP JUMPDEST PUSH1 0x1 PUSH1 0x1 PUSH1 0xA0 SHL SUB DUP6 AND PUSH1 0x0 SWAP1 DUP2 MSTORE PUSH1 0x20 SWAP2 SWAP1 SWAP2 MSTORE PUSH1 0x40 DUP2 KECCAK256 DUP1 SLOAD SWAP1 SWAP2 SWAP1 PUSH2 0x11BD SWAP1 DUP5 SWAP1 PUSH2 0x3718 JUMP JUMPDEST SWAP1 SWAP2 SSTORE POP PUSH2 0x11CB SWAP1 POP PUSH2 0x1BE1 JUMP JUMPDEST PUSH1 0x1 PUSH1 0x1 PUSH1 0xA0 SHL SUB DUP5 AND PUSH1 0x0 SWAP1 DUP2 MSTORE PUSH1 0x20 SWAP2 SWAP1 SWAP2 MSTORE PUSH1 0x40 DUP2 KECCAK256 SLOAD SWAP1 SUB PUSH2 0x11F9 JUMPI PUSH2 0x11F7 DUP4 PUSH2 0x100C PUSH2 0x1BE1 JUMP JUMPDEST POP JUMPDEST PUSH1 0x40 MLOAD PUSH4 0xA9059CBB PUSH1 0xE0 SHL DUP2 MSTORE PUSH1 0x1 PUSH1 0x1 PUSH1 0xA0 SHL SUB DUP6 DUP2 AND PUSH1 0x4 DUP4 ADD MSTORE PUSH1 0x24 DUP3 ADD DUP5 SWAP1 MSTORE DUP3 AND SWAP1 PUSH4 0xA9059CBB SWAP1 PUSH1 0x44 ADD PUSH1 0x20 PUSH1 0x40 MLOAD DUP1 DUP4 SUB DUP2 PUSH1 0x0 DUP8 GAS CALL ISZERO DUP1 ISZERO PUSH2 0x1248 JUMPI RETURNDATASIZE PUSH1 0x0 DUP1 RETURNDATACOPY RETURNDATASIZE PUSH1 0x0 REVERT JUMPDEST POP POP POP POP PUSH1 0x40 MLOAD RETURNDATASIZE PUSH1 0x1F NOT PUSH1 0x1F DUP3 ADD AND DUP3 ADD DUP1 PUSH1 0x40 MSTORE POP DUP2 ADD SWAP1 PUSH2 0x126C SWAP2 SWAP1 PUSH2 0x372B JUMP JUMPDEST POP DUP2 DUP4 PUSH1 0x1 PUSH1 0x1 PUSH1 0xA0 SHL SUB AND DUP6 PUSH1 0x1 PUSH1 0x1 PUSH1 0xA0 SHL SUB AND PUSH32 0x9B1BFA7FA9EE420A16E124F794C35AC9F90472ACC99140EB2F6447C714CAD8EB PUSH1 0x40 MLOAD PUSH1 0x40 MLOAD DUP1 SWAP2 SUB SWAP1 LOG4 POP POP POP POP JUMP JUMPDEST PUSH1 0x0 CALLER PUSH2 0xB9A DUP2 DUP6 DUP6 PUSH2 0x12C7 DUP4 DUP4 PUSH2 0x1A2B JUMP JUMPDEST PUSH2 0x12D1 SWAP2 SWAP1 PUSH2 0x351A JUMP JUMPDEST PUSH2 0x1FFE JUMP JUMPDEST PUSH1 0x40 MLOAD PUSH4 0xB3A54F1B PUSH1 0xE0 SHL DUP2 MSTORE PUSH1 0x1 PUSH1 0x1 PUSH1 0xA0 SHL SUB DUP4 AND PUSH1 0x4 DUP3 ADD MSTORE PUSH1 0x0 SWAP1 ADDRESS SWAP1 DUP3 SWAP1 DUP3 SWAP1 PUSH4 0xB3A54F1B SWAP1 PUSH1 0x24 ADD PUSH1 0x20 PUSH1 0x40 MLOAD DUP1 DUP4 SUB DUP2 DUP7 GAS STATICCALL ISZERO DUP1 ISZERO PUSH2 0x1321 JUMPI RETURNDATASIZE PUSH1 0x0 DUP1 RETURNDATACOPY RETURNDATASIZE PUSH1 0x0 REVERT JUMPDEST POP POP POP POP PUSH1 0x40 MLOAD RETURNDATASIZE PUSH1 0x1F NOT PUSH1 0x1F DUP3 ADD AND DUP3 ADD DUP1 PUSH1 0x40 MSTORE POP DUP2 ADD SWAP1 PUSH2 0x1345 SWAP2 SWAP1 PUSH2 0x372B JUMP JUMPDEST SWAP1 POP DUP1 ISZERO PUSH2 0x14CD JUMPI PUSH1 0x0 DUP6 PUSH1 0x1 PUSH1 0x1 PUSH1 0xA0 SHL SUB AND PUSH4 0x313CE567 PUSH1 0x40 MLOAD DUP2 PUSH4 0xFFFFFFFF AND PUSH1 0xE0 SHL DUP2 MSTORE PUSH1 0x4 ADD PUSH1 0x20 PUSH1 0x40 MLOAD DUP1 DUP4 SUB DUP2 DUP7 GAS STATICCALL ISZERO DUP1 ISZERO PUSH2 0x138D JUMPI RETURNDATASIZE PUSH1 0x0 DUP1 RETURNDATACOPY RETURNDATASIZE PUSH1 0x0 REVERT JUMPDEST POP POP POP POP PUSH1 0x40 MLOAD RETURNDATASIZE PUSH1 0x1F NOT PUSH1 0x1F DUP3 ADD AND DUP3 ADD DUP1 PUSH1 0x40 MSTORE POP DUP2 ADD SWAP1 PUSH2 0x13B1 SWAP2 SWAP1 PUSH2 0x33A7 JUMP JUMPDEST PUSH1 0xFF AND SWAP1 POP PUSH1 0x0 DUP6 PUSH2 0x13C4 DUP4 PUSH1 0xA PUSH2 0x34D5 JUMP JUMPDEST PUSH1 0x40 MLOAD PUSH4 0x3469C24B PUSH1 0xE2 SHL DUP2 MSTORE PUSH1 0x1 PUSH1 0x1 PUSH1 0xA0 SHL SUB DUP11 DUP2 AND PUSH1 0x4 DUP4 ADD MSTORE DUP8 AND SWAP1 PUSH4 0xD1A7092C SWAP1 PUSH1 0x24 ADD PUSH1 0x20 PUSH1 0x40 MLOAD DUP1 DUP4 SUB DUP2 DUP7 GAS STATICCALL ISZERO DUP1 ISZERO PUSH2 0x140A JUMPI RETURNDATASIZE PUSH1 0x0 DUP1 RETURNDATACOPY RETURNDATASIZE PUSH1 0x0 REVERT JUMPDEST POP POP POP POP PUSH1 0x40 MLOAD RETURNDATASIZE PUSH1 0x1F NOT PUSH1 0x1F DUP3 ADD AND DUP3 ADD DUP1 PUSH1 0x40 MSTORE POP DUP2 ADD SWAP1 PUSH2 0x142E SWAP2 SWAP1 PUSH2 0x33CA JUMP JUMPDEST PUSH2 0x1438 SWAP2 SWAP1 PUSH2 0x34E1 JUMP JUMPDEST PUSH2 0x1442 SWAP2 SWAP1 PUSH2 0x3503 JUMP JUMPDEST SWAP1 POP PUSH2 0x144C PUSH2 0x81A JUMP JUMPDEST DUP5 PUSH1 0x1 PUSH1 0x1 PUSH1 0xA0 SHL SUB AND PUSH4 0x18160DDD PUSH1 0x40 MLOAD DUP2 PUSH4 0xFFFFFFFF AND PUSH1 0xE0 SHL DUP2 MSTORE PUSH1 0x4 ADD PUSH1 0x20 PUSH1 0x40 MLOAD DUP1 DUP4 SUB DUP2 DUP7 GAS STATICCALL ISZERO DUP1 ISZERO PUSH2 0x148A JUMPI RETURNDATASIZE PUSH1 0x0 DUP1 RETURNDATACOPY RETURNDATASIZE PUSH1 0x0 REVERT JUMPDEST POP POP POP POP PUSH1 0x40 MLOAD RETURNDATASIZE PUSH1 0x1F NOT PUSH1 0x1F DUP3 ADD AND DUP3 ADD DUP1 PUSH1 0x40 MSTORE POP DUP2 ADD SWAP1 PUSH2 0x14AE SWAP2 SWAP1 PUSH2 0x33CA JUMP JUMPDEST PUSH2 0x14B8 SWAP1 DUP4 PUSH2 0x3503 JUMP JUMPDEST PUSH2 0x14C2 SWAP2 SWAP1 PUSH2 0x34E1 JUMP JUMPDEST SWAP5 POP POP POP POP POP PUSH2 0xBA0 JUMP JUMPDEST PUSH1 0x0 SWAP3 POP POP POP PUSH2 0xBA0 JUMP JUMPDEST PUSH1 0x0 PUSH2 0x14E2 PUSH2 0x1BE1 JUMP JUMPDEST PUSH1 0x1 PUSH1 0x1 PUSH1 0xA0 SHL SUB SWAP1 SWAP3 AND PUSH1 0x0 SWAP1 DUP2 MSTORE PUSH1 0x20 SWAP3 SWAP1 SWAP3 MSTORE POP PUSH1 0x40 SWAP1 KECCAK256 SLOAD SWAP1 JUMP JUMPDEST PUSH1 0x60 PUSH2 0xF0F PUSH2 0x150E PUSH2 0x1BE1 JUMP JUMPDEST PUSH1 0x3 ADD PUSH2 0x23F4 JUMP JUMPDEST PUSH2 0x151E PUSH2 0x1BE1 JUMP JUMPDEST PUSH1 0x7 ADD SLOAD PUSH1 0xFF AND ISZERO PUSH2 0x1542 JUMPI PUSH1 0x40 MLOAD PUSH3 0x461BCD PUSH1 0xE5 SHL DUP2 MSTORE PUSH1 0x4 ADD PUSH2 0xAB4 SWAP1 PUSH2 0x3580 JUMP JUMPDEST PUSH1 0x1 PUSH2 0x154C PUSH2 0x1BE1 JUMP JUMPDEST PUSH1 0x7 ADD DUP1 SLOAD PUSH1 0xFF NOT AND SWAP2 ISZERO ISZERO SWAP2 SWAP1 SWAP2 OR SWAP1 SSTORE PUSH2 0x1568 DUP3 DUP3 PUSH2 0x2416 JUMP JUMPDEST PUSH1 0x0 PUSH2 0x1572 PUSH2 0x1BE1 JUMP JUMPDEST PUSH1 0x7 ADD DUP1 SLOAD PUSH1 0xFF NOT AND SWAP2 ISZERO ISZERO SWAP2 SWAP1 SWAP2 OR SWAP1 SSTORE POP POP JUMP JUMPDEST PUSH2 0x1590 PUSH2 0x213E JUMP JUMPDEST PUSH2 0x159A CALLER DUP3 PUSH2 0x2621 JUMP JUMPDEST POP JUMP JUMPDEST PUSH1 0x0 DUP1 PUSH1 0x0 PUSH2 0x15CF DUP5 PUSH2 0x15AE PUSH2 0x1C1B JUMP JUMPDEST PUSH1 0x1 PUSH1 0x1 PUSH1 0xA0 SHL SUB DUP9 AND PUSH1 0x0 SWAP1 DUP2 MSTORE PUSH1 0x2 SWAP2 SWAP1 SWAP2 ADD PUSH1 0x20 MSTORE PUSH1 0x40 SWAP1 KECCAK256 PUSH2 0x2718 JUMP JUMPDEST SWAP2 POP SWAP2 POP DUP2 PUSH2 0x15E6 JUMPI PUSH2 0x15E1 DUP6 PUSH2 0x1605 JUMP JUMPDEST PUSH2 0x15E8 JUMP JUMPDEST DUP1 JUMPDEST SWAP6 SWAP5 POP POP POP POP POP JUMP JUMPDEST PUSH1 0x0 PUSH2 0xF0F PUSH2 0x15FE PUSH2 0x1C1B JUMP JUMPDEST PUSH1 0x5 ADD SLOAD SWAP1 JUMP JUMPDEST PUSH1 0x0 PUSH2 0x14E2 PUSH2 0x1C1B JUMP JUMPDEST PUSH2 0x1617 PUSH2 0x213E JUMP JUMPDEST PUSH1 0x1 PUSH1 0x1 PUSH1 0xA0 SHL SUB DUP3 DUP2 AND PUSH1 0x0 DUP2 DUP2 MSTORE PUSH32 0x9C1BD07F41F39C402056ED4F84031A21FC6DD44454B5A4BEAD86CC6D5E198C6 PUSH1 0x20 MSTORE PUSH1 0x40 DUP1 DUP3 KECCAK256 DUP1 SLOAD DUP7 DUP7 AND PUSH1 0x1 PUSH1 0x1 PUSH1 0xA0 SHL SUB NOT DUP3 AND DUP2 OR SWAP1 SWAP3 SSTORE SWAP2 MLOAD SWAP2 SWAP1 SWAP5 AND SWAP4 SWAP3 DUP5 SWAP3 SWAP1 SWAP2 PUSH32 0xD0C47DC6B57EC438DAAAA3787DDFC8B61A28F0B9A5B44D7CC9B7C4EA533A3DF7 SWAP2 SWAP1 LOG4 POP POP POP JUMP JUMPDEST PUSH2 0x16A2 PUSH2 0x1BE1 JUMP JUMPDEST PUSH1 0x7 ADD SLOAD PUSH1 0xFF AND ISZERO PUSH2 0x16C6 JUMPI PUSH1 0x40 MLOAD PUSH3 0x461BCD PUSH1 0xE5 SHL DUP2 MSTORE PUSH1 0x4 ADD PUSH2 0xAB4 SWAP1 PUSH2 0x3580 JUMP JUMPDEST PUSH1 0x1 PUSH2 0x16D0 PUSH2 0x1BE1 JUMP JUMPDEST PUSH1 0x7 ADD DUP1 SLOAD PUSH1 0xFF NOT AND SWAP2 ISZERO ISZERO SWAP2 SWAP1 SWAP2 OR SWAP1 SSTORE PUSH2 0x1568 DUP3 DUP3 PUSH2 0x2811 JUMP JUMPDEST PUSH1 0x1 PUSH1 0x1 PUSH1 0xA0 SHL SUB SWAP1 DUP2 AND PUSH1 0x0 SWAP1 DUP2 MSTORE PUSH32 0x9C1BD07F41F39C402056ED4F84031A21FC6DD44454B5A4BEAD86CC6D5E198C6 PUSH1 0x20 MSTORE PUSH1 0x40 SWAP1 KECCAK256 SLOAD AND SWAP1 JUMP JUMPDEST PUSH1 0x60 PUSH2 0x1733 PUSH2 0x1C1B JUMP JUMPDEST PUSH1 0x7 ADD DUP1 SLOAD PUSH2 0xA05 SWAP1 PUSH2 0x3546 JUMP JUMPDEST PUSH1 0x0 PUSH2 0x175A PUSH2 0x174E PUSH2 0x1C1B JUMP JUMPDEST PUSH1 0x5 ADD DUP1 SLOAD PUSH1 0x1 ADD SWAP1 SSTORE JUMP JUMPDEST PUSH1 0x0 PUSH2 0x1764 PUSH2 0x15F1 JUMP JUMPDEST SWAP1 POP PUSH32 0x8030E83B04D87BEF53480E26263266D6CA66863AA8506ACA6F2559D18AA1CB67 DUP2 PUSH1 0x40 MLOAD PUSH2 0x1797 SWAP2 DUP2 MSTORE PUSH1 0x20 ADD SWAP1 JUMP JUMPDEST PUSH1 0x40 MLOAD DUP1 SWAP2 SUB SWAP1 LOG1 SWAP2 SWAP1 POP JUMP JUMPDEST PUSH1 0x0 DUP1 PUSH1 0x0 PUSH2 0x17BD DUP5 PUSH2 0x17B5 PUSH2 0x1C1B JUMP JUMPDEST PUSH1 0x3 ADD PUSH2 0x2718 JUMP JUMPDEST SWAP2 POP SWAP2 POP DUP2 PUSH2 0x17D3 JUMPI PUSH2 0x17CE PUSH2 0xCC7 JUMP JUMPDEST PUSH2 0x17D5 JUMP JUMPDEST DUP1 JUMPDEST SWAP5 SWAP4 POP POP POP POP JUMP JUMPDEST PUSH1 0x0 CALLER DUP2 PUSH2 0x17EB DUP3 DUP7 PUSH2 0x1A2B JUMP JUMPDEST SWAP1 POP DUP4 DUP2 LT ISZERO PUSH2 0x1850 JUMPI PUSH1 0x40 MLOAD PUSH3 0x461BCD PUSH1 0xE5 SHL DUP2 MSTORE PUSH1 0x20 PUSH1 0x4 DUP3 ADD MSTORE PUSH1 0x2A PUSH1 0x24 DUP3 ADD MSTORE PUSH32 0x4661636574546F6B656E3A2064656372656173656420616C6C6F77616E636520 PUSH1 0x44 DUP3 ADD MSTORE PUSH10 0x62656C6F77207A65726F PUSH1 0xB0 SHL PUSH1 0x64 DUP3 ADD MSTORE PUSH1 0x84 ADD PUSH2 0xAB4 JUMP JUMPDEST PUSH2 0xEEF DUP3 DUP7 DUP7 DUP5 SUB PUSH2 0x1FFE JUMP JUMPDEST PUSH2 0x1865 PUSH2 0x213E JUMP JUMPDEST PUSH2 0x187A DUP2 PUSH2 0x1871 PUSH2 0x1BE1 JUMP JUMPDEST PUSH1 0x3 ADD SWAP1 PUSH2 0x216A JUMP JUMPDEST POP PUSH1 0x40 MLOAD PUSH1 0x1 PUSH1 0x1 PUSH1 0xA0 SHL SUB DUP3 AND SWAP1 PUSH32 0xB91009ACFF1CA23A9FE12400608CAE8383F810CAC953C1A16A99FE9B9C65ABFB SWAP1 PUSH1 0x0 SWAP1 LOG2 POP JUMP JUMPDEST PUSH1 0x0 CALLER PUSH2 0xB9A DUP2 DUP6 DUP6 PUSH2 0x2204 JUMP JUMPDEST PUSH1 0x0 PUSH2 0xBA0 DUP3 PUSH2 0x18CE PUSH2 0x1BE1 JUMP JUMPDEST PUSH1 0x1 ADD SWAP1 PUSH2 0x2148 JUMP JUMPDEST PUSH2 0x18DF PUSH2 0x213E JUMP JUMPDEST PUSH2 0x159A CALLER DUP3 PUSH2 0x2AC6 JUMP JUMPDEST PUSH2 0x18F1 PUSH2 0x213E JUMP JUMPDEST PUSH2 0x1906 DUP2 PUSH2 0x18FD PUSH2 0x1BE1 JUMP JUMPDEST PUSH1 0x3 ADD SWAP1 PUSH2 0x2401 JUMP JUMPDEST POP PUSH1 0x40 MLOAD PUSH1 0x1 PUSH1 0x1 PUSH1 0xA0 SHL SUB DUP3 AND SWAP1 PUSH32 0x64F9AE8A27A020B54F63A0D9FF5D3F0DD302B35EEF11D16612B2A02B2D8A8248 SWAP1 PUSH1 0x0 SWAP1 LOG2 POP JUMP JUMPDEST PUSH1 0x0 DUP1 PUSH2 0x194A DUP4 PUSH2 0x16EC JUMP JUMPDEST PUSH1 0x1 PUSH1 0x1 PUSH1 0xA0 SHL SUB AND SUB PUSH2 0x195F JUMPI PUSH1 0x0 PUSH2 0xBA0 JUMP JUMPDEST PUSH1 0x1 SWAP3 SWAP2 POP POP JUMP JUMPDEST PUSH2 0x196F PUSH2 0x1BE1 JUMP JUMPDEST PUSH1 0x7 ADD SLOAD PUSH1 0xFF AND ISZERO PUSH2 0x1993 JUMPI PUSH1 0x40 MLOAD PUSH3 0x461BCD PUSH1 0xE5 SHL DUP2 MSTORE PUSH1 0x4 ADD PUSH2 0xAB4 SWAP1 PUSH2 0x3580 JUMP JUMPDEST PUSH1 0x1 PUSH2 0x199D PUSH2 0x1BE1 JUMP JUMPDEST PUSH1 0x7 ADD DUP1 SLOAD PUSH1 0xFF NOT AND SWAP2 ISZERO ISZERO SWAP2 SWAP1 SWAP2 OR SWAP1 SSTORE PUSH2 0x19B7 PUSH2 0x2C39 JUMP JUMPDEST PUSH1 0x0 PUSH2 0x19C1 PUSH2 0x1BE1 JUMP JUMPDEST PUSH1 0x7 ADD DUP1 SLOAD PUSH1 0xFF NOT AND SWAP2 ISZERO ISZERO SWAP2 SWAP1 SWAP2 OR SWAP1 SSTORE JUMP JUMPDEST PUSH1 0x0 PUSH2 0x19E0 DUP3 PUSH2 0x193E JUMP JUMPDEST ISZERO PUSH2 0xC37 JUMPI PUSH2 0x19EE DUP3 PUSH2 0x16EC JUMP JUMPDEST PUSH1 0x1 PUSH1 0x1 PUSH1 0xA0 SHL SUB AND PUSH4 0x50D25BCD PUSH1 0x40 MLOAD DUP2 PUSH4 0xFFFFFFFF AND PUSH1 0xE0 SHL DUP2 MSTORE PUSH1 0x4 ADD PUSH1 0x20 PUSH1 0x40 MLOAD DUP1 DUP4 SUB DUP2 DUP7 GAS STATICCALL ISZERO DUP1 ISZERO PUSH2 0xC13 JUMPI RETURNDATASIZE PUSH1 0x0 DUP1 RETURNDATACOPY RETURNDATASIZE PUSH1 0x0 REVERT JUMPDEST PUSH1 0x0 PUSH2 0x1A35 PUSH2 0x1C1B JUMP JUMPDEST PUSH1 0x1 PUSH1 0x1 PUSH1 0xA0 SHL SUB SWAP4 DUP5 AND PUSH1 0x0 SWAP1 DUP2 MSTORE PUSH1 0x1 SWAP2 SWAP1 SWAP2 ADD PUSH1 0x20 SWAP1 DUP2 MSTORE PUSH1 0x40 DUP1 DUP4 KECCAK256 SWAP5 SWAP1 SWAP6 AND DUP3 MSTORE SWAP3 SWAP1 SWAP3 MSTORE POP KECCAK256 SLOAD SWAP1 JUMP JUMPDEST PUSH2 0x1A6D PUSH2 0x213E JUMP JUMPDEST PUSH1 0x0 PUSH2 0x1A77 PUSH2 0x1C1B JUMP JUMPDEST PUSH1 0x6 ADD DUP1 SLOAD PUSH2 0x1A85 SWAP1 PUSH2 0x3546 JUMP JUMPDEST DUP1 PUSH1 0x1F ADD PUSH1 0x20 DUP1 SWAP2 DIV MUL PUSH1 0x20 ADD PUSH1 0x40 MLOAD SWAP1 DUP2 ADD PUSH1 0x40 MSTORE DUP1 SWAP3 SWAP2 SWAP1 DUP2 DUP2 MSTORE PUSH1 0x20 ADD DUP3 DUP1 SLOAD PUSH2 0x1AB1 SWAP1 PUSH2 0x3546 JUMP JUMPDEST DUP1 ISZERO PUSH2 0x1AFE JUMPI DUP1 PUSH1 0x1F LT PUSH2 0x1AD3 JUMPI PUSH2 0x100 DUP1 DUP4 SLOAD DIV MUL DUP4 MSTORE SWAP2 PUSH1 0x20 ADD SWAP2 PUSH2 0x1AFE JUMP JUMPDEST DUP3 ADD SWAP2 SWAP1 PUSH1 0x0 MSTORE PUSH1 0x20 PUSH1 0x0 KECCAK256 SWAP1 JUMPDEST DUP2 SLOAD DUP2 MSTORE SWAP1 PUSH1 0x1 ADD SWAP1 PUSH1 0x20 ADD DUP1 DUP4 GT PUSH2 0x1AE1 JUMPI DUP3 SWAP1 SUB PUSH1 0x1F AND DUP3 ADD SWAP2 JUMPDEST POP POP POP POP POP SWAP1 POP DUP2 PUSH2 0x1B0E PUSH2 0x1C1B JUMP JUMPDEST PUSH1 0x6 ADD SWAP1 PUSH2 0x1B1C SWAP1 DUP3 PUSH2 0x3605 JUMP JUMPDEST POP DUP2 PUSH1 0x40 MLOAD PUSH2 0x1B2B SWAP2 SWAP1 PUSH2 0x36C5 JUMP JUMPDEST PUSH1 0x40 MLOAD DUP1 SWAP2 SUB SWAP1 KECCAK256 DUP2 PUSH1 0x40 MLOAD PUSH2 0x1B41 SWAP2 SWAP1 PUSH2 0x36C5 JUMP JUMPDEST PUSH1 0x40 MLOAD SWAP1 DUP2 SWAP1 SUB DUP2 KECCAK256 SWAP1 PUSH32 0xE08BA098C56583FF7CE264F98FB97B7DDC5E6AF834ACC0556B24327F72A555F9 SWAP1 PUSH1 0x0 SWAP1 LOG3 POP POP JUMP JUMPDEST PUSH1 0x0 PUSH2 0xBA0 DUP3 PUSH2 0x1B83 PUSH2 0x1BE1 JUMP JUMPDEST PUSH1 0x1 ADD SWAP1 PUSH2 0x1C0F JUMP JUMPDEST PUSH2 0x1B94 PUSH2 0x213E JUMP JUMPDEST PUSH2 0x1BA9 DUP2 PUSH2 0x1BA0 PUSH2 0x1BE1 JUMP JUMPDEST PUSH1 0x1 ADD SWAP1 PUSH2 0x2401 JUMP JUMPDEST POP PUSH1 0x40 MLOAD PUSH1 0x1 PUSH1 0x1 PUSH1 0xA0 SHL SUB DUP3 AND SWAP1 PUSH32 0xA05ED313E53D05B8E9EBE468E240EC174F5190074867A051F35AC20709EED04 SWAP1 PUSH1 0x0 SWAP1 LOG2 POP JUMP JUMPDEST PUSH32 0xF2EEEC4C06050035800631F1916B3A25E1FA154DE963EC50F0AC015A5BE9E618 SWAP1 JUMP JUMPDEST PUSH1 0x0 PUSH2 0xBA0 DUP3 SLOAD SWAP1 JUMP JUMPDEST PUSH1 0x0 PUSH2 0xB85 DUP4 DUP4 PUSH2 0x2D57 JUMP JUMPDEST PUSH32 0x667C0CF071C712F94F97F65A859CDAA470FE424825756C2CAE5A4D1ADCEE538B SWAP1 JUMP JUMPDEST PUSH1 0x0 PUSH2 0x1C4A DUP3 PUSH2 0xB01 JUMP JUMPDEST SWAP1 POP ADDRESS DUP3 DUP2 PUSH4 0x70A08231 CALLER PUSH1 0x40 MLOAD PUSH1 0x1 PUSH1 0x1 PUSH1 0xE0 SHL SUB NOT PUSH1 0xE0 DUP5 SWAP1 SHL AND DUP2 MSTORE PUSH1 0x1 PUSH1 0x1 PUSH1 0xA0 SHL SUB SWAP1 SWAP2 AND PUSH1 0x4 DUP3 ADD MSTORE PUSH1 0x24 ADD PUSH1 0x20 PUSH1 0x40 MLOAD DUP1 DUP4 SUB DUP2 DUP7 GAS STATICCALL ISZERO DUP1 ISZERO PUSH2 0x1C99 JUMPI RETURNDATASIZE PUSH1 0x0 DUP1 RETURNDATACOPY RETURNDATASIZE PUSH1 0x0 REVERT JUMPDEST POP POP POP POP PUSH1 0x40 MLOAD RETURNDATASIZE PUSH1 0x1F NOT PUSH1 0x1F DUP3 ADD AND DUP3 ADD DUP1 PUSH1 0x40 MSTORE POP DUP2 ADD SWAP1 PUSH2 0x1CBD SWAP2 SWAP1 PUSH2 0x33CA JUMP JUMPDEST LT ISZERO PUSH2 0x1D0B JUMPI PUSH1 0x40 MLOAD PUSH3 0x461BCD PUSH1 0xE5 SHL DUP2 MSTORE PUSH1 0x20 PUSH1 0x4 DUP3 ADD DUP2 SWAP1 MSTORE PUSH1 0x24 DUP3 ADD MSTORE PUSH32 0x46616365745661756C743A20696E73756666696369656E742062616C616E6365 PUSH1 0x44 DUP3 ADD MSTORE PUSH1 0x64 ADD PUSH2 0xAB4 JUMP JUMPDEST DUP2 PUSH1 0x0 SUB PUSH2 0x1D54 JUMPI PUSH1 0x40 MLOAD PUSH3 0x461BCD PUSH1 0xE5 SHL DUP2 MSTORE PUSH1 0x20 PUSH1 0x4 DUP3 ADD MSTORE PUSH1 0x16 PUSH1 0x24 DUP3 ADD MSTORE PUSH22 0x46616365745661756C743A207A65726F2076616C7565 PUSH1 0x50 SHL PUSH1 0x44 DUP3 ADD MSTORE PUSH1 0x64 ADD PUSH2 0xAB4 JUMP JUMPDEST PUSH1 0x0 PUSH2 0x1D5E PUSH2 0x81A JUMP JUMPDEST PUSH2 0x1D6A DUP5 PUSH2 0x2710 PUSH2 0x3503 JUMP JUMPDEST PUSH2 0x1D74 SWAP2 SWAP1 PUSH2 0x34E1 JUMP JUMPDEST SWAP1 POP PUSH1 0x0 PUSH2 0x1D83 PUSH2 0x82A PUSH2 0x1BE1 JUMP JUMPDEST SWAP1 POP PUSH1 0x0 JUMPDEST DUP2 DUP2 LT ISZERO PUSH2 0x1FC7 JUMPI PUSH1 0x0 PUSH2 0x1D9E DUP3 PUSH2 0x84E PUSH2 0x1BE1 JUMP JUMPDEST SWAP1 POP PUSH1 0x1 PUSH1 0x1 PUSH1 0xA0 SHL SUB DUP2 AND PUSH2 0x1EAE JUMPI PUSH1 0x40 MLOAD PUSH4 0x7D00029 PUSH1 0xE3 SHL DUP2 MSTORE PUSH1 0x0 PUSH1 0x4 DUP3 ADD DUP2 SWAP1 MSTORE SWAP1 PUSH1 0x1 PUSH1 0x1 PUSH1 0xA0 SHL SUB DUP8 AND SWAP1 PUSH4 0x3E800148 SWAP1 PUSH1 0x24 ADD PUSH1 0x20 PUSH1 0x40 MLOAD DUP1 DUP4 SUB DUP2 DUP7 GAS STATICCALL ISZERO DUP1 ISZERO PUSH2 0x1DF6 JUMPI RETURNDATASIZE PUSH1 0x0 DUP1 RETURNDATACOPY RETURNDATASIZE PUSH1 0x0 REVERT JUMPDEST POP POP POP POP PUSH1 0x40 MLOAD RETURNDATASIZE PUSH1 0x1F NOT PUSH1 0x1F DUP3 ADD AND DUP3 ADD DUP1 PUSH1 0x40 MSTORE POP DUP2 ADD SWAP1 PUSH2 0x1E1A SWAP2 SWAP1 PUSH2 0x33CA JUMP JUMPDEST SWAP1 POP PUSH1 0x0 DUP6 PUSH2 0x1E2B PUSH2 0x2710 DUP5 PUSH2 0x34E1 JUMP JUMPDEST PUSH2 0x1E35 SWAP2 SWAP1 PUSH2 0x3503 JUMP JUMPDEST SWAP1 POP PUSH1 0x1 PUSH1 0x1 PUSH1 0xA0 SHL SUB DUP8 AND PUSH4 0x31B94450 CALLER PUSH1 0x40 MLOAD PUSH1 0x1 PUSH1 0x1 PUSH1 0xE0 SHL SUB NOT PUSH1 0xE0 DUP5 SWAP1 SHL AND DUP2 MSTORE PUSH1 0x1 PUSH1 0x1 PUSH1 0xA0 SHL SUB SWAP1 SWAP2 AND PUSH1 0x4 DUP3 ADD MSTORE PUSH1 0x24 DUP2 ADD DUP5 SWAP1 MSTORE PUSH1 0x44 ADD PUSH1 0x0 PUSH1 0x40 MLOAD DUP1 DUP4 SUB DUP2 PUSH1 0x0 DUP8 DUP1 EXTCODESIZE ISZERO DUP1 ISZERO PUSH2 0x1E8F JUMPI PUSH1 0x0 DUP1 REVERT JUMPDEST POP GAS CALL ISZERO DUP1 ISZERO PUSH2 0x1EA3 JUMPI RETURNDATASIZE PUSH1 0x0 DUP1 RETURNDATACOPY RETURNDATASIZE PUSH1 0x0 REVERT JUMPDEST POP POP POP POP POP POP PUSH2 0x1FB4 JUMP JUMPDEST PUSH1 0x40 MLOAD PUSH4 0x7D00029 PUSH1 0xE3 SHL DUP2 MSTORE PUSH1 0x1 PUSH1 0x1 PUSH1 0xA0 SHL SUB DUP3 DUP2 AND PUSH1 0x4 DUP4 ADD MSTORE PUSH1 0x0 SWAP2 SWAP1 DUP8 AND SWAP1 PUSH4 0x3E800148 SWAP1 PUSH1 0x24 ADD PUSH1 0x20 PUSH1 0x40 MLOAD DUP1 DUP4 SUB DUP2 DUP7 GAS STATICCALL ISZERO DUP1 ISZERO PUSH2 0x1EF8 JUMPI RETURNDATASIZE PUSH1 0x0 DUP1 RETURNDATACOPY RETURNDATASIZE PUSH1 0x0 REVERT JUMPDEST POP POP POP POP PUSH1 0x40 MLOAD RETURNDATASIZE PUSH1 0x1F NOT PUSH1 0x1F DUP3 ADD AND DUP3 ADD DUP1 PUSH1 0x40 MSTORE POP DUP2 ADD SWAP1 PUSH2 0x1F1C SWAP2 SWAP1 PUSH2 0x33CA JUMP JUMPDEST SWAP1 POP PUSH1 0x0 DUP6 PUSH2 0x1F2D PUSH2 0x2710 DUP5 PUSH2 0x34E1 JUMP JUMPDEST PUSH2 0x1F37 SWAP2 SWAP1 PUSH2 0x3503 JUMP JUMPDEST SWAP1 POP PUSH1 0x1 PUSH1 0x1 PUSH1 0xA0 SHL SUB DUP8 AND PUSH4 0x36447C4E CALLER PUSH1 0x40 MLOAD PUSH1 0x1 PUSH1 0x1 PUSH1 0xE0 SHL SUB NOT PUSH1 0xE0 DUP5 SWAP1 SHL AND DUP2 MSTORE PUSH1 0x1 PUSH1 0x1 PUSH1 0xA0 SHL SUB SWAP2 DUP3 AND PUSH1 0x4 DUP3 ADD MSTORE SWAP1 DUP7 AND PUSH1 0x24 DUP3 ADD MSTORE PUSH1 0x44 DUP2 ADD DUP5 SWAP1 MSTORE PUSH1 0x64 ADD PUSH1 0x0 PUSH1 0x40 MLOAD DUP1 DUP4 SUB DUP2 PUSH1 0x0 DUP8 DUP1 EXTCODESIZE ISZERO DUP1 ISZERO PUSH2 0x1F99 JUMPI PUSH1 0x0 DUP1 REVERT JUMPDEST POP GAS CALL ISZERO DUP1 ISZERO PUSH2 0x1FAD JUMPI RETURNDATASIZE PUSH1 0x0 DUP1 RETURNDATACOPY RETURNDATASIZE PUSH1 0x0 REVERT JUMPDEST POP POP POP POP POP POP JUMPDEST POP DUP1 PUSH2 0x1FBF DUP2 PUSH2 0x352D JUMP JUMPDEST SWAP2 POP POP PUSH2 0x1D88 JUMP JUMPDEST POP PUSH1 0x40 MLOAD DUP5 SWAP1 DUP7 SWAP1 CALLER SWAP1 PUSH32 0xDD653545EA7062119BB7AAB04A3011580A8045716348725190C6C2124220A23F SWAP1 PUSH1 0x0 SWAP1 LOG4 POP POP POP POP POP JUMP JUMPDEST PUSH1 0x1 PUSH1 0x1 PUSH1 0xA0 SHL SUB DUP4 AND PUSH2 0x2066 JUMPI PUSH1 0x40 MLOAD PUSH3 0x461BCD PUSH1 0xE5 SHL DUP2 MSTORE PUSH1 0x20 PUSH1 0x4 DUP3 ADD MSTORE PUSH1 0x29 PUSH1 0x24 DUP3 ADD MSTORE PUSH32 0x4661636574546F6B656E3A20617070726F76652066726F6D20746865207A6572 PUSH1 0x44 DUP3 ADD MSTORE PUSH9 0x6F2061646472657373 PUSH1 0xB8 SHL PUSH1 0x64 DUP3 ADD MSTORE PUSH1 0x84 ADD PUSH2 0xAB4 JUMP JUMPDEST PUSH1 0x1 PUSH1 0x1 PUSH1 0xA0 SHL SUB DUP3 AND PUSH2 0x20CC JUMPI PUSH1 0x40 MLOAD PUSH3 0x461BCD PUSH1 0xE5 SHL DUP2 MSTORE PUSH1 0x20 PUSH1 0x4 DUP3 ADD MSTORE PUSH1 0x27 PUSH1 0x24 DUP3 ADD MSTORE PUSH32 0x4661636574546F6B656E3A20617070726F766520746F20746865207A65726F20 PUSH1 0x44 DUP3 ADD MSTORE PUSH7 0x61646472657373 PUSH1 0xC8 SHL PUSH1 0x64 DUP3 ADD MSTORE PUSH1 0x84 ADD PUSH2 0xAB4 JUMP JUMPDEST DUP1 PUSH2 0x20D5 PUSH2 0x1C1B JUMP JUMPDEST PUSH1 0x1 PUSH1 0x1 PUSH1 0xA0 SHL SUB DUP6 DUP2 AND PUSH1 0x0 DUP2 DUP2 MSTORE PUSH1 0x1 SWAP4 SWAP1 SWAP4 ADD PUSH1 0x20 SWAP1 DUP2 MSTORE PUSH1 0x40 DUP1 DUP6 KECCAK256 SWAP4 DUP9 AND DUP1 DUP7 MSTORE SWAP4 DUP3 MSTORE SWAP4 DUP5 SWAP1 KECCAK256 SWAP5 SWAP1 SWAP5 SSTORE SWAP2 MLOAD DUP5 DUP2 MSTORE SWAP1 SWAP3 PUSH32 0x8C5BE1E5EBEC7D5BD14F71427D1E84F3DD0314C0F7B2291E5B200AC8C7C3B925 SWAP2 ADD JUMPDEST PUSH1 0x40 MLOAD DUP1 SWAP2 SUB SWAP1 LOG3 POP POP POP JUMP JUMPDEST PUSH2 0x2146 PUSH2 0x2D81 JUMP JUMPDEST JUMP JUMPDEST PUSH1 0x1 PUSH1 0x1 PUSH1 0xA0 SHL SUB DUP2 AND PUSH1 0x0 SWAP1 DUP2 MSTORE PUSH1 0x1 DUP4 ADD PUSH1 0x20 MSTORE PUSH1 0x40 DUP2 KECCAK256 SLOAD ISZERO ISZERO PUSH2 0xB85 JUMP JUMPDEST PUSH1 0x0 PUSH2 0xB85 DUP4 PUSH1 0x1 PUSH1 0x1 PUSH1 0xA0 SHL SUB DUP5 AND PUSH2 0x2DD0 JUMP JUMPDEST PUSH1 0x0 PUSH2 0x218B DUP5 DUP5 PUSH2 0x1A2B JUMP JUMPDEST SWAP1 POP PUSH1 0x0 NOT DUP2 EQ PUSH2 0x21FE JUMPI DUP2 DUP2 LT ISZERO PUSH2 0x21F1 JUMPI PUSH1 0x40 MLOAD PUSH3 0x461BCD PUSH1 0xE5 SHL DUP2 MSTORE PUSH1 0x20 PUSH1 0x4 DUP3 ADD MSTORE PUSH1 0x22 PUSH1 0x24 DUP3 ADD MSTORE PUSH32 0x4661636574546F6B656E3A20696E73756666696369656E7420616C6C6F77616E PUSH1 0x44 DUP3 ADD MSTORE PUSH2 0x6365 PUSH1 0xF0 SHL PUSH1 0x64 DUP3 ADD MSTORE PUSH1 0x84 ADD PUSH2 0xAB4 JUMP JUMPDEST PUSH2 0x21FE DUP5 DUP5 DUP5 DUP5 SUB PUSH2 0x1FFE JUMP JUMPDEST POP POP POP POP JUMP JUMPDEST PUSH1 0x1 PUSH1 0x1 PUSH1 0xA0 SHL SUB DUP4 AND PUSH2 0x226D JUMPI PUSH1 0x40 MLOAD PUSH3 0x461BCD PUSH1 0xE5 SHL DUP2 MSTORE PUSH1 0x20 PUSH1 0x4 DUP3 ADD MSTORE PUSH1 0x2A PUSH1 0x24 DUP3 ADD MSTORE PUSH32 0x4661636574546F6B656E3A207472616E736665722066726F6D20746865207A65 PUSH1 0x44 DUP3 ADD MSTORE PUSH10 0x726F2061646472657373 PUSH1 0xB0 SHL PUSH1 0x64 DUP3 ADD MSTORE PUSH1 0x84 ADD PUSH2 0xAB4 JUMP JUMPDEST PUSH1 0x1 PUSH1 0x1 PUSH1 0xA0 SHL SUB DUP3 AND PUSH2 0x22D4 JUMPI PUSH1 0x40 MLOAD PUSH3 0x461BCD PUSH1 0xE5 SHL DUP2 MSTORE PUSH1 0x20 PUSH1 0x4 DUP3 ADD MSTORE PUSH1 0x28 PUSH1 0x24 DUP3 ADD MSTORE PUSH32 0x4661636574546F6B656E3A207472616E7366657220746F20746865207A65726F PUSH1 0x44 DUP3 ADD MSTORE PUSH8 0x2061646472657373 PUSH1 0xC0 SHL PUSH1 0x64 DUP3 ADD MSTORE PUSH1 0x84 ADD PUSH2 0xAB4 JUMP JUMPDEST PUSH2 0x22DF DUP4 DUP4 DUP4 PUSH2 0x2E1F JUMP JUMPDEST PUSH1 0x0 PUSH2 0x22E9 PUSH2 0x1C1B JUMP JUMPDEST PUSH1 0x1 PUSH1 0x1 PUSH1 0xA0 SHL SUB DUP6 AND PUSH1 0x0 SWAP1 DUP2 MSTORE PUSH1 0x20 SWAP2 SWAP1 SWAP2 MSTORE PUSH1 0x40 SWAP1 KECCAK256 SLOAD SWAP1 POP DUP2 DUP2 LT ISZERO PUSH2 0x2369 JUMPI PUSH1 0x40 MLOAD PUSH3 0x461BCD PUSH1 0xE5 SHL DUP2 MSTORE PUSH1 0x20 PUSH1 0x4 DUP3 ADD MSTORE PUSH1 0x2B PUSH1 0x24 DUP3 ADD MSTORE PUSH32 0x4661636574546F6B656E3A207472616E7366657220616D6F756E742065786365 PUSH1 0x44 DUP3 ADD MSTORE PUSH11 0x6564732062616C616E6365 PUSH1 0xA8 SHL PUSH1 0x64 DUP3 ADD MSTORE PUSH1 0x84 ADD PUSH2 0xAB4 JUMP JUMPDEST DUP2 DUP2 SUB PUSH2 0x2374 PUSH2 0x1C1B JUMP JUMPDEST PUSH1 0x1 PUSH1 0x1 PUSH1 0xA0 SHL SUB DUP7 AND PUSH1 0x0 SWAP1 DUP2 MSTORE PUSH1 0x20 SWAP2 SWAP1 SWAP2 MSTORE PUSH1 0x40 SWAP1 KECCAK256 SSTORE DUP2 PUSH2 0x2397 PUSH2 0x1C1B JUMP JUMPDEST PUSH1 0x1 PUSH1 0x1 PUSH1 0xA0 SHL SUB DUP6 DUP2 AND PUSH1 0x0 DUP2 DUP2 MSTORE PUSH1 0x20 SWAP4 DUP5 MSTORE PUSH1 0x40 SWAP1 DUP2 SWAP1 KECCAK256 DUP1 SLOAD SWAP6 SWAP1 SWAP6 ADD SWAP1 SWAP5 SSTORE SWAP3 MLOAD DUP6 DUP2 MSTORE SWAP1 DUP8 AND SWAP2 PUSH32 0xDDF252AD1BE2C89B69C2B068FC378DAA952BA7F163C4A11628F55A4DF523B3EF SWAP2 ADD PUSH1 0x40 MLOAD DUP1 SWAP2 SUB SWAP1 LOG3 PUSH2 0x21FE JUMP JUMPDEST PUSH1 0x60 PUSH1 0x0 PUSH2 0xB85 DUP4 PUSH2 0x2E67 JUMP JUMPDEST PUSH1 0x0 PUSH2 0xB85 DUP4 PUSH1 0x1 PUSH1 0x1 PUSH1 0xA0 SHL SUB DUP5 AND PUSH2 0x2EC3 JUMP JUMPDEST DUP2 PUSH2 0x2420 DUP2 PUSH2 0x18C0 JUMP JUMPDEST PUSH2 0x2477 JUMPI PUSH1 0x40 MLOAD PUSH3 0x461BCD PUSH1 0xE5 SHL DUP2 MSTORE PUSH1 0x20 PUSH1 0x4 DUP3 ADD MSTORE PUSH1 0x22 PUSH1 0x24 DUP3 ADD MSTORE PUSH32 0x4661636574536166653A20746F6B656E206973206E6F7420616C6C6F77656420 PUSH1 0x44 DUP3 ADD MSTORE PUSH2 0x34B7 PUSH1 0xF1 SHL PUSH1 0x64 DUP3 ADD MSTORE PUSH1 0x84 ADD PUSH2 0xAB4 JUMP JUMPDEST DUP2 PUSH1 0x1 PUSH1 0x1 PUSH1 0xA0 SHL SUB DUP3 AND PUSH4 0x70A08231 CALLER PUSH1 0x40 MLOAD PUSH1 0x1 PUSH1 0x1 PUSH1 0xE0 SHL SUB NOT PUSH1 0xE0 DUP5 SWAP1 SHL AND DUP2 MSTORE PUSH1 0x1 PUSH1 0x1 PUSH1 0xA0 SHL SUB SWAP1 SWAP2 AND PUSH1 0x4 DUP3 ADD MSTORE PUSH1 0x24 ADD PUSH1 0x20 PUSH1 0x40 MLOAD DUP1 DUP4 SUB DUP2 DUP7 GAS STATICCALL ISZERO DUP1 ISZERO PUSH2 0x24CC JUMPI RETURNDATASIZE PUSH1 0x0 DUP1 RETURNDATACOPY RETURNDATASIZE PUSH1 0x0 REVERT JUMPDEST POP POP POP POP PUSH1 0x40 MLOAD RETURNDATASIZE PUSH1 0x1F NOT PUSH1 0x1F DUP3 ADD AND DUP3 ADD DUP1 PUSH1 0x40 MSTORE POP DUP2 ADD SWAP1 PUSH2 0x24F0 SWAP2 SWAP1 PUSH2 0x33CA JUMP JUMPDEST LT ISZERO PUSH2 0x250E JUMPI PUSH1 0x40 MLOAD PUSH3 0x461BCD PUSH1 0xE5 SHL DUP2 MSTORE PUSH1 0x4 ADD PUSH2 0xAB4 SWAP1 PUSH2 0x36E1 JUMP JUMPDEST PUSH1 0x1 PUSH1 0x1 PUSH1 0xA0 SHL SUB DUP2 AND PUSH4 0x23B872DD CALLER PUSH1 0x40 MLOAD PUSH1 0x1 PUSH1 0x1 PUSH1 0xE0 SHL SUB NOT PUSH1 0xE0 DUP5 SWAP1 SHL AND DUP2 MSTORE PUSH1 0x1 PUSH1 0x1 PUSH1 0xA0 SHL SUB SWAP1 SWAP2 AND PUSH1 0x4 DUP3 ADD MSTORE ADDRESS PUSH1 0x24 DUP3 ADD MSTORE PUSH1 0x44 DUP2 ADD DUP6 SWAP1 MSTORE PUSH1 0x64 ADD PUSH1 0x20 PUSH1 0x40 MLOAD DUP1 DUP4 SUB DUP2 PUSH1 0x0 DUP8 GAS CALL ISZERO DUP1 ISZERO PUSH2 0x2571 JUMPI RETURNDATASIZE PUSH1 0x0 DUP1 RETURNDATACOPY RETURNDATASIZE PUSH1 0x0 REVERT JUMPDEST POP POP POP POP PUSH1 0x40 MLOAD RETURNDATASIZE PUSH1 0x1F NOT PUSH1 0x1F DUP3 ADD AND DUP3 ADD DUP1 PUSH1 0x40 MSTORE POP DUP2 ADD SWAP1 PUSH2 0x2595 SWAP2 SWAP1 PUSH2 0x372B JUMP JUMPDEST POP DUP2 PUSH2 0x259F PUSH2 0x1BE1 JUMP JUMPDEST PUSH1 0x1 PUSH1 0x1 PUSH1 0xA0 SHL SUB DUP6 AND PUSH1 0x0 SWAP1 DUP2 MSTORE PUSH1 0x20 SWAP2 SWAP1 SWAP2 MSTORE PUSH1 0x40 DUP2 KECCAK256 DUP1 SLOAD SWAP1 SWAP2 SWAP1 PUSH2 0x25C8 SWAP1 DUP5 SWAP1 PUSH2 0x351A JUMP JUMPDEST SWAP1 SWAP2 SSTORE POP PUSH2 0x25E3 SWAP1 POP DUP4 PUSH2 0x25DA PUSH2 0x1BE1 JUMP JUMPDEST PUSH1 0x5 ADD SWAP1 PUSH2 0x216A JUMP JUMPDEST POP PUSH1 0x40 MLOAD DUP3 SWAP1 PUSH1 0x1 PUSH1 0x1 PUSH1 0xA0 SHL SUB DUP6 AND SWAP1 CALLER SWAP1 PUSH32 0x5548C837AB068CF56A2C2479DF0882A4922FD203EDB7517321831D95078C5F62 SWAP1 PUSH1 0x0 SWAP1 LOG4 POP POP POP JUMP JUMPDEST PUSH1 0x1 PUSH1 0x1 PUSH1 0xA0 SHL SUB DUP3 AND PUSH2 0x2683 JUMPI PUSH1 0x40 MLOAD PUSH3 0x461BCD PUSH1 0xE5 SHL DUP2 MSTORE PUSH1 0x20 PUSH1 0x4 DUP3 ADD MSTORE PUSH1 0x24 DUP1 DUP3 ADD MSTORE PUSH32 0x4661636574546F6B656E3A206D696E7420746F20746865207A65726F20616464 PUSH1 0x44 DUP3 ADD MSTORE PUSH4 0x72657373 PUSH1 0xE0 SHL PUSH1 0x64 DUP3 ADD MSTORE PUSH1 0x84 ADD PUSH2 0xAB4 JUMP JUMPDEST PUSH2 0x268F PUSH1 0x0 DUP4 DUP4 PUSH2 0x2E1F JUMP JUMPDEST DUP1 PUSH2 0x2698 PUSH2 0x1C1B JUMP JUMPDEST PUSH1 0x8 ADD PUSH1 0x0 DUP3 DUP3 SLOAD PUSH2 0x26AA SWAP2 SWAP1 PUSH2 0x351A JUMP JUMPDEST SWAP1 SWAP2 SSTORE POP DUP2 SWAP1 POP PUSH2 0x26B9 PUSH2 0x1C1B JUMP JUMPDEST PUSH1 0x1 PUSH1 0x1 PUSH1 0xA0 SHL SUB DUP5 AND PUSH1 0x0 DUP2 DUP2 MSTORE PUSH1 0x20 SWAP3 SWAP1 SWAP3 MSTORE PUSH1 0x40 DUP1 DUP4 KECCAK256 DUP1 SLOAD SWAP1 SWAP5 ADD SWAP1 SWAP4 SSTORE SWAP2 MLOAD PUSH32 0xDDF252AD1BE2C89B69C2B068FC378DAA952BA7F163C4A11628F55A4DF523B3EF SWAP1 PUSH2 0x270C SWAP1 DUP6 DUP2 MSTORE PUSH1 0x20 ADD SWAP1 JUMP JUMPDEST PUSH1 0x40 MLOAD DUP1 SWAP2 SUB SWAP1 LOG3 POP POP JUMP JUMPDEST PUSH1 0x0 DUP1 PUSH1 0x0 DUP5 GT PUSH2 0x2761 JUMPI PUSH1 0x40 MLOAD PUSH3 0x461BCD PUSH1 0xE5 SHL DUP2 MSTORE PUSH1 0x20 PUSH1 0x4 DUP3 ADD MSTORE PUSH1 0x13 PUSH1 0x24 DUP3 ADD MSTORE PUSH19 0x4661636574546F6B656E3A206964206973203 PUSH1 0x6C SHL PUSH1 0x44 DUP3 ADD MSTORE PUSH1 0x64 ADD PUSH2 0xAB4 JUMP JUMPDEST PUSH2 0x2769 PUSH2 0x15F1 JUMP JUMPDEST DUP5 GT ISZERO PUSH2 0x27B8 JUMPI PUSH1 0x40 MLOAD PUSH3 0x461BCD PUSH1 0xE5 SHL DUP2 MSTORE PUSH1 0x20 PUSH1 0x4 DUP3 ADD MSTORE PUSH1 0x1A PUSH1 0x24 DUP3 ADD MSTORE PUSH32 0x4661636574546F6B656E3A206E6F6E6578697374656E74206964000000000000 PUSH1 0x44 DUP3 ADD MSTORE PUSH1 0x64 ADD PUSH2 0xAB4 JUMP JUMPDEST PUSH1 0x0 PUSH2 0x27C4 DUP5 DUP7 PUSH2 0x2FB6 JUMP JUMPDEST DUP5 SLOAD SWAP1 SWAP2 POP DUP2 SUB PUSH2 0x27DC JUMPI PUSH1 0x0 DUP1 SWAP3 POP SWAP3 POP POP PUSH2 0x280A JUMP JUMPDEST PUSH1 0x1 DUP5 PUSH1 0x1 ADD DUP3 DUP2 SLOAD DUP2 LT PUSH2 0x27F3 JUMPI PUSH2 0x27F3 PUSH2 0x374D JUMP JUMPDEST SWAP1 PUSH1 0x0 MSTORE PUSH1 0x20 PUSH1 0x0 KECCAK256 ADD SLOAD SWAP3 POP SWAP3 POP POP PUSH2 0x280A JUMP JUMPDEST POP JUMPDEST SWAP3 POP SWAP3 SWAP1 POP JUMP JUMPDEST PUSH1 0x0 PUSH2 0x281D DUP4 DUP4 PUSH2 0x12D6 JUMP JUMPDEST SWAP1 POP ADDRESS PUSH1 0x1 PUSH1 0x1 PUSH1 0xA0 SHL SUB DUP5 AND PUSH2 0x2876 JUMPI PUSH1 0x40 MLOAD PUSH3 0x461BCD PUSH1 0xE5 SHL DUP2 MSTORE PUSH1 0x20 PUSH1 0x4 DUP3 ADD MSTORE PUSH1 0x17 PUSH1 0x24 DUP3 ADD MSTORE PUSH32 0x46616365745661756C743A20756E737570706F72746564000000000000000000 PUSH1 0x44 DUP3 ADD MSTORE PUSH1 0x64 ADD PUSH2 0xAB4 JUMP JUMPDEST DUP3 PUSH1 0x1 PUSH1 0x1 PUSH1 0xA0 SHL SUB DUP6 AND PUSH4 0x70A08231 CALLER PUSH1 0x40 MLOAD PUSH1 0x1 PUSH1 0x1 PUSH1 0xE0 SHL SUB NOT PUSH1 0xE0 DUP5 SWAP1 SHL AND DUP2 MSTORE PUSH1 0x1 PUSH1 0x1 PUSH1 0xA0 SHL SUB SWAP1 SWAP2 AND PUSH1 0x4 DUP3 ADD MSTORE PUSH1 0x24 ADD PUSH1 0x20 PUSH1 0x40 MLOAD DUP1 DUP4 SUB DUP2 DUP7 GAS STATICCALL ISZERO DUP1 ISZERO PUSH2 0x28CB JUMPI RETURNDATASIZE PUSH1 0x0 DUP1 RETURNDATACOPY RETURNDATASIZE PUSH1 0x0 REVERT JUMPDEST POP POP POP POP PUSH1 0x40 MLOAD RETURNDATASIZE PUSH1 0x1F NOT PUSH1 0x1F DUP3 ADD AND DUP3 ADD DUP1 PUSH1 0x40 MSTORE POP DUP2 ADD SWAP1 PUSH2 0x28EF SWAP2 SWAP1 PUSH2 0x33CA JUMP JUMPDEST LT ISZERO PUSH2 0x293D JUMPI PUSH1 0x40 MLOAD PUSH3 0x461BCD PUSH1 0xE5 SHL DUP2 MSTORE PUSH1 0x20 PUSH1 0x4 DUP3 ADD DUP2 SWAP1 MSTORE PUSH1 0x24 DUP3 ADD MSTORE PUSH32 0x46616365745661756C743A20696E73756666696369656E742062616C616E6365 PUSH1 0x44 DUP3 ADD MSTORE PUSH1 0x64 ADD PUSH2 0xAB4 JUMP JUMPDEST DUP2 PUSH1 0x0 SUB PUSH2 0x2986 JUMPI PUSH1 0x40 MLOAD PUSH3 0x461BCD PUSH1 0xE5 SHL DUP2 MSTORE PUSH1 0x20 PUSH1 0x4 DUP3 ADD MSTORE PUSH1 0x16 PUSH1 0x24 DUP3 ADD MSTORE PUSH22 0x46616365745661756C743A207A65726F2076616C7565 PUSH1 0x50 SHL PUSH1 0x44 DUP3 ADD MSTORE PUSH1 0x64 ADD PUSH2 0xAB4 JUMP JUMPDEST PUSH2 0x2990 DUP5 DUP5 PUSH2 0x1516 JUMP JUMPDEST PUSH1 0x40 MLOAD PUSH4 0x1279C04B PUSH1 0xE2 SHL DUP2 MSTORE PUSH1 0x4 DUP2 ADD DUP4 SWAP1 MSTORE PUSH1 0x1 PUSH1 0x1 PUSH1 0xA0 SHL SUB DUP3 AND SWAP1 PUSH4 0x49E7012C SWAP1 PUSH1 0x24 ADD PUSH1 0x0 PUSH1 0x40 MLOAD DUP1 DUP4 SUB DUP2 PUSH1 0x0 DUP8 DUP1 EXTCODESIZE ISZERO DUP1 ISZERO PUSH2 0x29D2 JUMPI PUSH1 0x0 DUP1 REVERT JUMPDEST POP GAS CALL ISZERO DUP1 ISZERO PUSH2 0x29E6 JUMPI RETURNDATASIZE PUSH1 0x0 DUP1 RETURNDATACOPY RETURNDATASIZE PUSH1 0x0 REVERT JUMPDEST POP POP POP POP DUP1 PUSH1 0x1 PUSH1 0x1 PUSH1 0xA0 SHL SUB AND PUSH4 0xA9059CBB PUSH2 0x2A00 CALLER SWAP1 JUMP JUMPDEST PUSH1 0x40 MLOAD PUSH1 0x1 PUSH1 0x1 PUSH1 0xE0 SHL SUB NOT PUSH1 0xE0 DUP5 SWAP1 SHL AND DUP2 MSTORE PUSH1 0x1 PUSH1 0x1 PUSH1 0xA0 SHL SUB SWAP1 SWAP2 AND PUSH1 0x4 DUP3 ADD MSTORE PUSH1 0x24 DUP2 ADD DUP6 SWAP1 MSTORE PUSH1 0x44 ADD PUSH1 0x20 PUSH1 0x40 MLOAD DUP1 DUP4 SUB DUP2 PUSH1 0x0 DUP8 GAS CALL ISZERO DUP1 ISZERO PUSH2 0x2A4D JUMPI RETURNDATASIZE PUSH1 0x0 DUP1 RETURNDATACOPY RETURNDATASIZE PUSH1 0x0 REVERT JUMPDEST POP POP POP POP PUSH1 0x40 MLOAD RETURNDATASIZE PUSH1 0x1F NOT PUSH1 0x1F DUP3 ADD AND DUP3 ADD DUP1 PUSH1 0x40 MSTORE POP DUP2 ADD SWAP1 PUSH2 0x2A71 SWAP2 SWAP1 PUSH2 0x372B JUMP JUMPDEST POP DUP3 PUSH1 0x1 PUSH1 0x1 PUSH1 0xA0 SHL SUB DUP6 AND CALLER PUSH1 0x1 PUSH1 0x1 PUSH1 0xA0 SHL SUB AND PUSH32 0x6ECD9AAEB436F3BD7B9340A519254F499E190D9961158D27ABA4B3E9E48693AC DUP6 PUSH1 0x40 MLOAD PUSH2 0x2AB8 SWAP2 DUP2 MSTORE PUSH1 0x20 ADD SWAP1 JUMP JUMPDEST PUSH1 0x40 MLOAD DUP1 SWAP2 SUB SWAP1 LOG4 POP POP POP POP JUMP JUMPDEST PUSH1 0x1 PUSH1 0x1 PUSH1 0xA0 SHL SUB DUP3 AND PUSH2 0x2B2B JUMPI PUSH1 0x40 MLOAD PUSH3 0x461BCD PUSH1 0xE5 SHL DUP2 MSTORE PUSH1 0x20 PUSH1 0x4 DUP3 ADD MSTORE PUSH1 0x26 PUSH1 0x24 DUP3 ADD MSTORE PUSH32 0x4661636574546F6B656E3A206275726E2066726F6D20746865207A65726F2061 PUSH1 0x44 DUP3 ADD MSTORE PUSH6 0x646472657373 PUSH1 0xD0 SHL PUSH1 0x64 DUP3 ADD MSTORE PUSH1 0x84 ADD PUSH2 0xAB4 JUMP JUMPDEST PUSH2 0x2B37 DUP3 PUSH1 0x0 DUP4 PUSH2 0x2E1F JUMP JUMPDEST PUSH1 0x0 PUSH2 0x2B41 PUSH2 0x1C1B JUMP JUMPDEST PUSH1 0x1 PUSH1 0x1 PUSH1 0xA0 SHL SUB DUP5 AND PUSH1 0x0 SWAP1 DUP2 MSTORE PUSH1 0x20 SWAP2 SWAP1 SWAP2 MSTORE PUSH1 0x40 SWAP1 KECCAK256 SLOAD SWAP1 POP DUP2 DUP2 LT ISZERO PUSH2 0x2BBD JUMPI PUSH1 0x40 MLOAD PUSH3 0x461BCD PUSH1 0xE5 SHL DUP2 MSTORE PUSH1 0x20 PUSH1 0x4 DUP3 ADD MSTORE PUSH1 0x27 PUSH1 0x24 DUP3 ADD MSTORE PUSH32 0x4661636574546F6B656E3A206275726E20616D6F756E74206578636565647320 PUSH1 0x44 DUP3 ADD MSTORE PUSH7 0x62616C616E6365 PUSH1 0xC8 SHL PUSH1 0x64 DUP3 ADD MSTORE PUSH1 0x84 ADD PUSH2 0xAB4 JUMP JUMPDEST DUP2 DUP2 SUB PUSH2 0x2BC8 PUSH2 0x1C1B JUMP JUMPDEST PUSH1 0x1 PUSH1 0x1 PUSH1 0xA0 SHL SUB DUP6 AND PUSH1 0x0 SWAP1 DUP2 MSTORE PUSH1 0x20 SWAP2 SWAP1 SWAP2 MSTORE PUSH1 0x40 SWAP1 KECCAK256 SSTORE DUP2 PUSH2 0x2BEB PUSH2 0x1C1B JUMP JUMPDEST PUSH1 0x8 ADD DUP1 SLOAD SWAP2 SWAP1 SWAP2 SUB SWAP1 SSTORE PUSH1 0x40 MLOAD DUP3 DUP2 MSTORE PUSH1 0x0 SWAP1 PUSH1 0x1 PUSH1 0x1 PUSH1 0xA0 SHL SUB DUP6 AND SWAP1 PUSH32 0xDDF252AD1BE2C89B69C2B068FC378DAA952BA7F163C4A11628F55A4DF523B3EF SWAP1 PUSH1 0x20 ADD PUSH2 0x2131 JUMP JUMPDEST POP POP POP JUMP JUMPDEST PUSH2 0x2C43 PUSH1 0x0 PUSH2 0x18C0 JUMP JUMPDEST PUSH2 0x2C8F JUMPI PUSH1 0x40 MLOAD PUSH3 0x461BCD PUSH1 0xE5 SHL DUP2 MSTORE PUSH1 0x20 PUSH1 0x4 DUP3 ADD DUP2 SWAP1 MSTORE PUSH1 0x24 DUP3 ADD MSTORE PUSH32 0x4661636574536166653A20657468206973206E6F7420616C6C6F77656420696E PUSH1 0x44 DUP3 ADD MSTORE PUSH1 0x64 ADD PUSH2 0xAB4 JUMP JUMPDEST PUSH1 0x1 CALLVALUE LT ISZERO PUSH2 0x2CEA JUMPI PUSH1 0x40 MLOAD PUSH3 0x461BCD PUSH1 0xE5 SHL DUP2 MSTORE PUSH1 0x20 PUSH1 0x4 DUP3 ADD MSTORE PUSH1 0x21 PUSH1 0x24 DUP3 ADD MSTORE PUSH32 0x4661636574536166653A20696E73756666696369656E7420616D6F756E742069 PUSH1 0x44 DUP3 ADD MSTORE PUSH1 0x37 PUSH1 0xF9 SHL PUSH1 0x64 DUP3 ADD MSTORE PUSH1 0x84 ADD PUSH2 0xAB4 JUMP JUMPDEST CALLVALUE PUSH2 0x2CF3 PUSH2 0x1BE1 JUMP JUMPDEST PUSH1 0x0 DUP1 DUP1 MSTORE PUSH1 0x20 SWAP2 SWAP1 SWAP2 MSTORE PUSH1 0x40 DUP2 KECCAK256 DUP1 SLOAD SWAP1 SWAP2 SWAP1 PUSH2 0x2D12 SWAP1 DUP5 SWAP1 PUSH2 0x351A JUMP JUMPDEST SWAP1 SWAP2 SSTORE POP PUSH2 0x2D25 SWAP1 POP PUSH1 0x0 PUSH2 0x25DA PUSH2 0x1BE1 JUMP JUMPDEST POP PUSH1 0x40 MLOAD CALLVALUE SWAP1 PUSH1 0x0 SWAP1 CALLER SWAP1 PUSH32 0x5548C837AB068CF56A2C2479DF0882A4922FD203EDB7517321831D95078C5F62 SWAP1 DUP4 SWAP1 LOG4 JUMP JUMPDEST PUSH1 0x0 DUP3 PUSH1 0x0 ADD DUP3 DUP2 SLOAD DUP2 LT PUSH2 0x2D6E JUMPI PUSH2 0x2D6E PUSH2 0x374D JUMP JUMPDEST SWAP1 PUSH1 0x0 MSTORE PUSH1 0x20 PUSH1 0x0 KECCAK256 ADD SLOAD SWAP1 POP SWAP3 SWAP2 POP POP JUMP JUMPDEST CALLER ADDRESS EQ PUSH2 0x2146 JUMPI PUSH1 0x40 MLOAD PUSH3 0x461BCD PUSH1 0xE5 SHL DUP2 MSTORE PUSH1 0x20 PUSH1 0x4 DUP3 ADD MSTORE PUSH1 0x1F PUSH1 0x24 DUP3 ADD MSTORE PUSH32 0x4661636574436861696E6C696E6B4F7261636C653A206F6E6C792073656C6600 PUSH1 0x44 DUP3 ADD MSTORE PUSH1 0x64 ADD PUSH2 0xAB4 JUMP JUMPDEST PUSH1 0x0 DUP2 DUP2 MSTORE PUSH1 0x1 DUP4 ADD PUSH1 0x20 MSTORE PUSH1 0x40 DUP2 KECCAK256 SLOAD PUSH2 0x2E17 JUMPI POP DUP2 SLOAD PUSH1 0x1 DUP2 DUP2 ADD DUP5 SSTORE PUSH1 0x0 DUP5 DUP2 MSTORE PUSH1 0x20 DUP1 DUP3 KECCAK256 SWAP1 SWAP4 ADD DUP5 SWAP1 SSTORE DUP5 SLOAD DUP5 DUP3 MSTORE DUP3 DUP7 ADD SWAP1 SWAP4 MSTORE PUSH1 0x40 SWAP1 KECCAK256 SWAP2 SWAP1 SWAP2 SSTORE PUSH2 0xBA0 JUMP JUMPDEST POP PUSH1 0x0 PUSH2 0xBA0 JUMP JUMPDEST PUSH1 0x1 PUSH1 0x1 PUSH1 0xA0 SHL SUB DUP4 AND PUSH2 0x2E3E JUMPI PUSH2 0x2E36 DUP3 PUSH2 0x3063 JUMP JUMPDEST PUSH2 0x2C34 PUSH2 0x3098 JUMP JUMPDEST PUSH1 0x1 PUSH1 0x1 PUSH1 0xA0 SHL SUB DUP3 AND PUSH2 0x2E55 JUMPI PUSH2 0x2E36 DUP4 PUSH2 0x3063 JUMP JUMPDEST PUSH2 0x2E5E DUP4 PUSH2 0x3063 JUMP JUMPDEST PUSH2 0x2C34 DUP3 PUSH2 0x3063 JUMP JUMPDEST PUSH1 0x60 DUP2 PUSH1 0x0 ADD DUP1 SLOAD DUP1 PUSH1 0x20 MUL PUSH1 0x20 ADD PUSH1 0x40 MLOAD SWAP1 DUP2 ADD PUSH1 0x40 MSTORE DUP1 SWAP3 SWAP2 SWAP1 DUP2 DUP2 MSTORE PUSH1 0x20 ADD DUP3 DUP1 SLOAD DUP1 ISZERO PUSH2 0x2EB7 JUMPI PUSH1 0x20 MUL DUP3 ADD SWAP2 SWAP1 PUSH1 0x0 MSTORE PUSH1 0x20 PUSH1 0x0 KECCAK256 SWAP1 JUMPDEST DUP2 SLOAD DUP2 MSTORE PUSH1 0x20 ADD SWAP1 PUSH1 0x1 ADD SWAP1 DUP1 DUP4 GT PUSH2 0x2EA3 JUMPI JUMPDEST POP POP POP POP POP SWAP1 POP SWAP2 SWAP1 POP JUMP JUMPDEST PUSH1 0x0 DUP2 DUP2 MSTORE PUSH1 0x1 DUP4 ADD PUSH1 0x20 MSTORE PUSH1 0x40 DUP2 KECCAK256 SLOAD DUP1 ISZERO PUSH2 0x2FAC JUMPI PUSH1 0x0 PUSH2 0x2EE7 PUSH1 0x1 DUP4 PUSH2 0x3718 JUMP JUMPDEST DUP6 SLOAD SWAP1 SWAP2 POP PUSH1 0x0 SWAP1 PUSH2 0x2EFB SWAP1 PUSH1 0x1 SWAP1 PUSH2 0x3718 JUMP JUMPDEST SWAP1 POP DUP2 DUP2 EQ PUSH2 0x2F60 JUMPI PUSH1 0x0 DUP7 PUSH1 0x0 ADD DUP3 DUP2 SLOAD DUP2 LT PUSH2 0x2F1B JUMPI PUSH2 0x2F1B PUSH2 0x374D JUMP JUMPDEST SWAP1 PUSH1 0x0 MSTORE PUSH1 0x20 PUSH1 0x0 KECCAK256 ADD SLOAD SWAP1 POP DUP1 DUP8 PUSH1 0x0 ADD DUP5 DUP2 SLOAD DUP2 LT PUSH2 0x2F3E JUMPI PUSH2 0x2F3E PUSH2 0x374D JUMP JUMPDEST PUSH1 0x0 SWAP2 DUP3 MSTORE PUSH1 0x20 DUP1 DUP4 KECCAK256 SWAP1 SWAP2 ADD SWAP3 SWAP1 SWAP3 SSTORE SWAP2 DUP3 MSTORE PUSH1 0x1 DUP9 ADD SWAP1 MSTORE PUSH1 0x40 SWAP1 KECCAK256 DUP4 SWAP1 SSTORE JUMPDEST DUP6 SLOAD DUP7 SWAP1 DUP1 PUSH2 0x2F71 JUMPI PUSH2 0x2F71 PUSH2 0x3763 JUMP JUMPDEST PUSH1 0x1 SWAP1 SUB DUP2 DUP2 SWAP1 PUSH1 0x0 MSTORE PUSH1 0x20 PUSH1 0x0 KECCAK256 ADD PUSH1 0x0 SWAP1 SSTORE SWAP1 SSTORE DUP6 PUSH1 0x1 ADD PUSH1 0x0 DUP7 DUP2 MSTORE PUSH1 0x20 ADD SWAP1 DUP2 MSTORE PUSH1 0x20 ADD PUSH1 0x0 KECCAK256 PUSH1 0x0 SWAP1 SSTORE PUSH1 0x1 SWAP4 POP POP POP POP PUSH2 0xBA0 JUMP JUMPDEST PUSH1 0x0 SWAP2 POP POP PUSH2 0xBA0 JUMP JUMPDEST DUP2 SLOAD PUSH1 0x0 SWAP1 DUP2 SUB PUSH2 0x2FC9 JUMPI POP PUSH1 0x0 PUSH2 0xBA0 JUMP JUMPDEST DUP3 SLOAD PUSH1 0x0 SWAP1 JUMPDEST DUP1 DUP3 LT ISZERO PUSH2 0x3016 JUMPI PUSH1 0x0 PUSH2 0x2FE3 DUP4 DUP4 PUSH2 0x30AE JUMP JUMPDEST PUSH1 0x0 DUP8 DUP2 MSTORE PUSH1 0x20 SWAP1 KECCAK256 SWAP1 SWAP2 POP DUP6 SWAP1 DUP3 ADD SLOAD GT ISZERO PUSH2 0x3002 JUMPI DUP1 SWAP2 POP PUSH2 0x3010 JUMP JUMPDEST PUSH2 0x300D DUP2 PUSH1 0x1 PUSH2 0x351A JUMP JUMPDEST SWAP3 POP JUMPDEST POP PUSH2 0x2FCF JUMP JUMPDEST PUSH1 0x0 DUP3 GT DUP1 ISZERO PUSH2 0x3042 JUMPI POP DUP4 PUSH2 0x303F DUP7 PUSH2 0x3031 PUSH1 0x1 DUP7 PUSH2 0x3718 JUMP JUMPDEST PUSH1 0x0 SWAP2 DUP3 MSTORE PUSH1 0x20 SWAP1 SWAP2 KECCAK256 ADD SWAP1 JUMP JUMPDEST SLOAD EQ JUMPDEST ISZERO PUSH2 0x305B JUMPI PUSH2 0x3052 PUSH1 0x1 DUP4 PUSH2 0x3718 JUMP JUMPDEST SWAP3 POP POP POP PUSH2 0xBA0 JUMP JUMPDEST POP SWAP1 POP PUSH2 0xBA0 JUMP JUMPDEST PUSH2 0x159A PUSH2 0x306E PUSH2 0x1C1B JUMP JUMPDEST PUSH1 0x1 PUSH1 0x1 PUSH1 0xA0 SHL SUB DUP4 AND PUSH1 0x0 SWAP1 DUP2 MSTORE PUSH1 0x2 SWAP2 SWAP1 SWAP2 ADD PUSH1 0x20 MSTORE PUSH1 0x40 SWAP1 KECCAK256 PUSH2 0x3093 DUP4 PUSH2 0x1605 JUMP JUMPDEST PUSH2 0x30C9 JUMP JUMPDEST PUSH2 0x2146 PUSH2 0x30A3 PUSH2 0x1C1B JUMP JUMPDEST PUSH1 0x3 ADD PUSH2 0x3093 PUSH2 0xCC7 JUMP JUMPDEST PUSH1 0x0 PUSH2 0x30BD PUSH1 0x2 DUP5 DUP5 XOR PUSH2 0x34E1 JUMP JUMPDEST PUSH2 0xB85 SWAP1 DUP5 DUP5 AND PUSH2 0x351A JUMP JUMPDEST PUSH1 0x0 PUSH2 0x30D3 PUSH2 0x15F1 JUMP JUMPDEST SWAP1 POP DUP1 PUSH2 0x30DF DUP5 PUSH2 0x3113 JUMP JUMPDEST LT ISZERO PUSH2 0x2C34 JUMPI DUP3 SLOAD PUSH1 0x1 DUP1 DUP3 ADD DUP6 SSTORE PUSH1 0x0 DUP6 DUP2 MSTORE PUSH1 0x20 DUP1 DUP3 KECCAK256 SWAP1 SWAP4 ADD SWAP4 SWAP1 SWAP4 SSTORE SWAP4 DUP5 ADD DUP1 SLOAD SWAP5 DUP6 ADD DUP2 SSTORE DUP3 MSTORE SWAP1 KECCAK256 SWAP1 SWAP2 ADD SSTORE JUMP JUMPDEST DUP1 SLOAD PUSH1 0x0 SWAP1 DUP2 SUB PUSH2 0x3126 JUMPI POP PUSH1 0x0 SWAP2 SWAP1 POP JUMP JUMPDEST DUP2 SLOAD DUP3 SWAP1 PUSH2 0x3136 SWAP1 PUSH1 0x1 SWAP1 PUSH2 0x3718 JUMP JUMPDEST DUP2 SLOAD DUP2 LT PUSH2 0x3146 JUMPI PUSH2 0x3146 PUSH2 0x374D JUMP JUMPDEST SWAP1 PUSH1 0x0 MSTORE PUSH1 0x20 PUSH1 0x0 KECCAK256 ADD SLOAD SWAP1 POP SWAP2 SWAP1 POP JUMP JUMPDEST PUSH1 0x0 JUMPDEST DUP4 DUP2 LT ISZERO PUSH2 0x3173 JUMPI DUP2 DUP2 ADD MLOAD DUP4 DUP3 ADD MSTORE PUSH1 0x20 ADD PUSH2 0x315B JUMP JUMPDEST POP POP PUSH1 0x0 SWAP2 ADD MSTORE JUMP JUMPDEST PUSH1 0x20 DUP2 MSTORE PUSH1 0x0 DUP3 MLOAD DUP1 PUSH1 0x20 DUP5 ADD MSTORE PUSH2 0x319B DUP2 PUSH1 0x40 DUP6 ADD PUSH1 0x20 DUP8 ADD PUSH2 0x3158 JUMP JUMPDEST PUSH1 0x1F ADD PUSH1 0x1F NOT AND SWAP2 SWAP1 SWAP2 ADD PUSH1 0x40 ADD SWAP3 SWAP2 POP POP JUMP JUMPDEST PUSH1 0x0 PUSH1 0x20 DUP3 DUP5 SUB SLT ISZERO PUSH2 0x31C1 JUMPI PUSH1 0x0 DUP1 REVERT JUMPDEST POP CALLDATALOAD SWAP2 SWAP1 POP JUMP JUMPDEST DUP1 CALLDATALOAD PUSH1 0x1 PUSH1 0x1 PUSH1 0xA0 SHL SUB DUP2 AND DUP2 EQ PUSH2 0xC3F JUMPI PUSH1 0x0 DUP1 REVERT JUMPDEST PUSH1 0x0 DUP1 PUSH1 0x40 DUP4 DUP6 SUB SLT ISZERO PUSH2 0x31F2 JUMPI PUSH1 0x0 DUP1 REVERT JUMPDEST PUSH2 0x31FB DUP4 PUSH2 0x31C8 JUMP JUMPDEST SWAP5 PUSH1 0x20 SWAP4 SWAP1 SWAP4 ADD CALLDATALOAD SWAP4 POP POP POP JUMP JUMPDEST PUSH1 0x0 PUSH1 0x20 DUP3 DUP5 SUB SLT ISZERO PUSH2 0x321B JUMPI PUSH1 0x0 DUP1 REVERT JUMPDEST PUSH2 0xB85 DUP3 PUSH2 0x31C8 JUMP JUMPDEST PUSH4 0x4E487B71 PUSH1 0xE0 SHL PUSH1 0x0 MSTORE PUSH1 0x41 PUSH1 0x4 MSTORE PUSH1 0x24 PUSH1 0x0 REVERT JUMPDEST PUSH1 0x0 PUSH1 0x20 DUP3 DUP5 SUB SLT ISZERO PUSH2 0x324C JUMPI PUSH1 0x0 DUP1 REVERT JUMPDEST DUP2 CALLDATALOAD PUSH8 0xFFFFFFFFFFFFFFFF DUP1 DUP3 GT ISZERO PUSH2 0x3264 JUMPI PUSH1 0x0 DUP1 REVERT JUMPDEST DUP2 DUP5 ADD SWAP2 POP DUP5 PUSH1 0x1F DUP4 ADD SLT PUSH2 0x3278 JUMPI PUSH1 0x0 DUP1 REVERT JUMPDEST DUP2 CALLDATALOAD DUP2 DUP2 GT ISZERO PUSH2 0x328A JUMPI PUSH2 0x328A PUSH2 0x3224 JUMP JUMPDEST PUSH1 0x40 MLOAD PUSH1 0x1F DUP3 ADD PUSH1 0x1F NOT SWAP1 DUP2 AND PUSH1 0x3F ADD AND DUP2 ADD SWAP1 DUP4 DUP3 GT DUP2 DUP4 LT OR ISZERO PUSH2 0x32B2 JUMPI PUSH2 0x32B2 PUSH2 0x3224 JUMP JUMPDEST DUP2 PUSH1 0x40 MSTORE DUP3 DUP2 MSTORE DUP8 PUSH1 0x20 DUP5 DUP8 ADD ADD GT ISZERO PUSH2 0x32CB JUMPI PUSH1 0x0 DUP1 REVERT JUMPDEST DUP3 PUSH1 0x20 DUP7 ADD PUSH1 0x20 DUP4 ADD CALLDATACOPY PUSH1 0x0 SWAP3 DUP2 ADD PUSH1 0x20 ADD SWAP3 SWAP1 SWAP3 MSTORE POP SWAP6 SWAP5 POP POP POP POP POP JUMP JUMPDEST PUSH1 0x0 DUP1 PUSH1 0x0 PUSH1 0x60 DUP5 DUP7 SUB SLT ISZERO PUSH2 0x3300 JUMPI PUSH1 0x0 DUP1 REVERT JUMPDEST PUSH2 0x3309 DUP5 PUSH2 0x31C8 JUMP JUMPDEST SWAP3 POP PUSH2 0x3317 PUSH1 0x20 DUP6 ADD PUSH2 0x31C8 JUMP JUMPDEST SWAP2 POP PUSH1 0x40 DUP5 ADD CALLDATALOAD SWAP1 POP SWAP3 POP SWAP3 POP SWAP3 JUMP JUMPDEST PUSH1 0x20 DUP1 DUP3 MSTORE DUP3 MLOAD DUP3 DUP3 ADD DUP2 SWAP1 MSTORE PUSH1 0x0 SWAP2 SWAP1 DUP5 DUP3 ADD SWAP1 PUSH1 0x40 DUP6 ADD SWAP1 DUP5 JUMPDEST DUP2 DUP2 LT ISZERO PUSH2 0x3368 JUMPI DUP4 MLOAD PUSH1 0x1 PUSH1 0x1 PUSH1 0xA0 SHL SUB AND DUP4 MSTORE SWAP3 DUP5 ADD SWAP3 SWAP2 DUP5 ADD SWAP2 PUSH1 0x1 ADD PUSH2 0x3343 JUMP JUMPDEST POP SWAP1 SWAP7 SWAP6 POP POP POP POP POP POP JUMP JUMPDEST PUSH1 0x0 DUP1 PUSH1 0x40 DUP4 DUP6 SUB SLT ISZERO PUSH2 0x3387 JUMPI PUSH1 0x0 DUP1 REVERT JUMPDEST PUSH2 0x3390 DUP4 PUSH2 0x31C8 JUMP JUMPDEST SWAP2 POP PUSH2 0x339E PUSH1 0x20 DUP5 ADD PUSH2 0x31C8 JUMP JUMPDEST SWAP1 POP SWAP3 POP SWAP3 SWAP1 POP JUMP JUMPDEST PUSH1 0x0 PUSH1 0x20 DUP3 DUP5 SUB SLT ISZERO PUSH2 0x33B9 JUMPI PUSH1 0x0 DUP1 REVERT JUMPDEST DUP2 MLOAD PUSH1 0xFF DUP2 AND DUP2 EQ PUSH2 0xB85 JUMPI PUSH1 0x0 DUP1 REVERT JUMPDEST PUSH1 0x0 PUSH1 0x20 DUP3 DUP5 SUB SLT ISZERO PUSH2 0x33DC JUMPI PUSH1 0x0 DUP1 REVERT JUMPDEST POP MLOAD SWAP2 SWAP1 POP JUMP JUMPDEST PUSH4 0x4E487B71 PUSH1 0xE0 SHL PUSH1 0x0 MSTORE PUSH1 0x11 PUSH1 0x4 MSTORE PUSH1 0x24 PUSH1 0x0 REVERT JUMPDEST PUSH1 0x1 DUP2 DUP2 JUMPDEST DUP1 DUP6 GT ISZERO PUSH2 0x2808 JUMPI DUP2 PUSH1 0x0 NOT DIV DUP3 GT ISZERO PUSH2 0x341A JUMPI PUSH2 0x341A PUSH2 0x33E3 JUMP JUMPDEST DUP1 DUP6 AND ISZERO PUSH2 0x3427 JUMPI SWAP2 DUP2 MUL SWAP2 JUMPDEST SWAP4 DUP5 SHR SWAP4 SWAP1 DUP1 MUL SWAP1 PUSH2 0x33FE JUMP JUMPDEST PUSH1 0x0 DUP3 PUSH2 0x3443 JUMPI POP PUSH1 0x1 PUSH2 0xBA0 JUMP JUMPDEST DUP2 PUSH2 0x3450 JUMPI POP PUSH1 0x0 PUSH2 0xBA0 JUMP JUMPDEST DUP2 PUSH1 0x1 DUP2 EQ PUSH2 0x3466 JUMPI PUSH1 0x2 DUP2 EQ PUSH2 0x3470 JUMPI PUSH2 0x348C JUMP JUMPDEST PUSH1 0x1 SWAP2 POP POP PUSH2 0xBA0 JUMP JUMPDEST PUSH1 0xFF DUP5 GT ISZERO PUSH2 0x3481 JUMPI PUSH2 0x3481 PUSH2 0x33E3 JUMP JUMPDEST POP POP PUSH1 0x1 DUP3 SHL PUSH2 0xBA0 JUMP JUMPDEST POP PUSH1 0x20 DUP4 LT PUSH2 0x133 DUP4 LT AND PUSH1 0x4E DUP5 LT PUSH1 0xB DUP5 LT AND OR ISZERO PUSH2 0x34AF JUMPI POP DUP2 DUP2 EXP PUSH2 0xBA0 JUMP JUMPDEST PUSH2 0x34B9 DUP4 DUP4 PUSH2 0x33F9 JUMP JUMPDEST DUP1 PUSH1 0x0 NOT DIV DUP3 GT ISZERO PUSH2 0x34CD JUMPI PUSH2 0x34CD PUSH2 0x33E3 JUMP JUMPDEST MUL SWAP4 SWAP3 POP POP POP JUMP JUMPDEST PUSH1 0x0 PUSH2 0xB85 DUP4 DUP4 PUSH2 0x3434 JUMP JUMPDEST PUSH1 0x0 DUP3 PUSH2 0x34FE JUMPI PUSH4 0x4E487B71 PUSH1 0xE0 SHL PUSH1 0x0 MSTORE PUSH1 0x12 PUSH1 0x4 MSTORE PUSH1 0x24 PUSH1 0x0 REVERT JUMPDEST POP DIV SWAP1 JUMP JUMPDEST DUP1 DUP3 MUL DUP2 ISZERO DUP3 DUP3 DIV DUP5 EQ OR PUSH2 0xBA0 JUMPI PUSH2 0xBA0 PUSH2 0x33E3 JUMP JUMPDEST DUP1 DUP3 ADD DUP1 DUP3 GT ISZERO PUSH2 0xBA0 JUMPI PUSH2 0xBA0 PUSH2 0x33E3 JUMP JUMPDEST PUSH1 0x0 PUSH1 0x1 DUP3 ADD PUSH2 0x353F JUMPI PUSH2 0x353F PUSH2 0x33E3 JUMP JUMPDEST POP PUSH1 0x1 ADD SWAP1 JUMP JUMPDEST PUSH1 0x1 DUP2 DUP2 SHR SWAP1 DUP3 AND DUP1 PUSH2 0x355A JUMPI PUSH1 0x7F DUP3 AND SWAP2 POP JUMPDEST PUSH1 0x20 DUP3 LT DUP2 SUB PUSH2 0x357A JUMPI PUSH4 0x4E487B71 PUSH1 0xE0 SHL PUSH1 0x0 MSTORE PUSH1 0x22 PUSH1 0x4 MSTORE PUSH1 0x24 PUSH1 0x0 REVERT JUMPDEST POP SWAP2 SWAP1 POP JUMP JUMPDEST PUSH1 0x20 DUP1 DUP3 MSTORE PUSH1 0x19 SWAP1 DUP3 ADD MSTORE PUSH32 0x4661636574536166653A207265656E7472616E742063616C6C00000000000000 PUSH1 0x40 DUP3 ADD MSTORE PUSH1 0x60 ADD SWAP1 JUMP JUMPDEST PUSH1 0x1F DUP3 GT ISZERO PUSH2 0x2C34 JUMPI PUSH1 0x0 DUP2 DUP2 MSTORE PUSH1 0x20 DUP2 KECCAK256 PUSH1 0x1F DUP6 ADD PUSH1 0x5 SHR DUP2 ADD PUSH1 0x20 DUP7 LT ISZERO PUSH2 0x35DE JUMPI POP DUP1 JUMPDEST PUSH1 0x1F DUP6 ADD PUSH1 0x5 SHR DUP3 ADD SWAP2 POP JUMPDEST DUP2 DUP2 LT ISZERO PUSH2 0x35FD JUMPI DUP3 DUP2 SSTORE PUSH1 0x1 ADD PUSH2 0x35EA JUMP JUMPDEST POP POP POP POP POP POP JUMP JUMPDEST DUP2 MLOAD PUSH8 0xFFFFFFFFFFFFFFFF DUP2 GT ISZERO PUSH2 0x361F JUMPI PUSH2 0x361F PUSH2 0x3224 JUMP JUMPDEST PUSH2 0x3633 DUP2 PUSH2 0x362D DUP5 SLOAD PUSH2 0x3546 JUMP JUMPDEST DUP5 PUSH2 0x35B7 JUMP JUMPDEST PUSH1 0x20 DUP1 PUSH1 0x1F DUP4 GT PUSH1 0x1 DUP2 EQ PUSH2 0x3668 JUMPI PUSH1 0x0 DUP5 ISZERO PUSH2 0x3650 JUMPI POP DUP6 DUP4 ADD MLOAD JUMPDEST PUSH1 0x0 NOT PUSH1 0x3 DUP7 SWAP1 SHL SHR NOT AND PUSH1 0x1 DUP6 SWAP1 SHL OR DUP6 SSTORE PUSH2 0x35FD JUMP JUMPDEST PUSH1 0x0 DUP6 DUP2 MSTORE PUSH1 0x20 DUP2 KECCAK256 PUSH1 0x1F NOT DUP7 AND SWAP2 JUMPDEST DUP3 DUP2 LT ISZERO PUSH2 0x3697 JUMPI DUP9 DUP7 ADD MLOAD DUP3 SSTORE SWAP5 DUP5 ADD SWAP5 PUSH1 0x1 SWAP1 SWAP2 ADD SWAP1 DUP5 ADD PUSH2 0x3678 JUMP JUMPDEST POP DUP6 DUP3 LT ISZERO PUSH2 0x36B5 JUMPI DUP8 DUP6 ADD MLOAD PUSH1 0x0 NOT PUSH1 0x3 DUP9 SWAP1 SHL PUSH1 0xF8 AND SHR NOT AND DUP2 SSTORE JUMPDEST POP POP POP POP POP PUSH1 0x1 SWAP1 DUP2 SHL ADD SWAP1 SSTORE POP JUMP JUMPDEST PUSH1 0x0 DUP3 MLOAD PUSH2 0x36D7 DUP2 DUP5 PUSH1 0x20 DUP8 ADD PUSH2 0x3158 JUMP JUMPDEST SWAP2 SWAP1 SWAP2 ADD SWAP3 SWAP2 POP POP JUMP JUMPDEST PUSH1 0x20 DUP1 DUP3 MSTORE PUSH1 0x1F SWAP1 DUP3 ADD MSTORE PUSH32 0x4661636574536166653A20696E73756666696369656E742062616C616E636500 PUSH1 0x40 DUP3 ADD MSTORE PUSH1 0x60 ADD SWAP1 JUMP JUMPDEST DUP2 DUP2 SUB DUP2 DUP2 GT ISZERO PUSH2 0xBA0 JUMPI PUSH2 0xBA0 PUSH2 0x33E3 JUMP JUMPDEST PUSH1 0x0 PUSH1 0x20 DUP3 DUP5 SUB SLT ISZERO PUSH2 0x373D JUMPI PUSH1 0x0 DUP1 REVERT JUMPDEST DUP2 MLOAD DUP1 ISZERO ISZERO DUP2 EQ PUSH2 0xB85 JUMPI PUSH1 0x0 DUP1 REVERT JUMPDEST PUSH4 0x4E487B71 PUSH1 0xE0 SHL PUSH1 0x0 MSTORE PUSH1 0x32 PUSH1 0x4 MSTORE PUSH1 0x24 PUSH1 0x0 REVERT JUMPDEST PUSH4 0x4E487B71 PUSH1 0xE0 SHL PUSH1 0x0 MSTORE PUSH1 0x31 PUSH1 0x4 MSTORE PUSH1 0x24 PUSH1 0x0 REVERT INVALID LOG2 PUSH5 0x6970667358 0x22 SLT KECCAK256 EQ SWAP10 0xAD 0xEF 0xBD 0xF SWAP2 0x5E STOP DUP9 DUP4 ISZERO 0xB8 0xAF MULMOD PUSH11 0x404095FB39A9C380B8A6BC 0xC0 CREATE2 LOG4 PUSH27 0x4C64736F6C63430008130033000000000000000000000000000000 "
		},
		"gasEstimates": {
			"creation": {
				"codeDepositCost": "2851000",
				"executionCost": "3115",
				"totalCost": "2854115"
			},
			"external": {
				"____allowTokenInToSafe(address)": "infinite",
				"____allowTokenOutOfSafe(address)": "infinite",
				"____assignTokenToChainlinkPriceFeed(address,address)": "infinite",
				"____burn(uint256)": "infinite",
				"____forbidTokenInToSafe(address)": "infinite",
				"____forbidTokenOutOfSafe(address)": "infinite",
				"____mint(uint256)": "infinite",
				"____setName(string)": "infinite",
				"____setSymbol(string)": "infinite",
				"____unassignTokenToChainlinkPriceFeed(address)": "infinite",
				"____withdraw(address,address,uint256)": "infinite",
				"____withdraw(address,uint256)": "infinite",
				"allowance(address,address)": "infinite",
				"approve(address,uint256)": "24795",
				"balanceOf(address)": "2697",
				"balanceOfAt(address,uint256)": "infinite",
				"convertToAssets(uint256)": "infinite",
				"convertToShares(address,uint256)": "infinite",
				"decimals()": "311",
				"decreaseAllowance(address,uint256)": "infinite",
				"deposit()": "infinite",
				"deposit(address,uint256)": "infinite",
				"depositInVault(address,uint256)": "infinite",
				"getChainlinkLatestAnswer(address)": "infinite",
				"getChainlinkLatestTimestamp(address)": "infinite",
				"getChainlinkPriceFeed(address)": "2646",
				"getCurrentSnapshotId()": "2442",
				"getHoldingsInSafe(address)": "2696",
				"getTokenAllowedInToSafe(uint256)": "4862",
				"getTokenAllowedOutFromSafe(uint256)": "4776",
				"getTokensAllowedInToSafe()": "infinite",
				"getTokensAllowedOutFromSafe()": "infinite",
				"hasChainlinkPriceFeed(address)": "2811",
				"increaseAllowance(address,uint256)": "infinite",
				"isAllowedIn(address)": "infinite",
				"isAllowedOut(address)": "infinite",
				"name()": "infinite",
				"snapshot()": "infinite",
				"symbol()": "infinite",
				"totalAssets()": "infinite",
				"totalAssetsPerShare()": "infinite",
				"totalSupply()": "2449",
				"totalSupplyAt(uint256)": "infinite",
				"transfer(address,uint256)": "infinite",
				"transferFrom(address,address,uint256)": "infinite",
				"withdrawFromVault(uint256)": "infinite"
			},
			"internal": {
				"_depositInVault(address,uint256)": "infinite",
				"_onlySelf()": "infinite",
				"_withdrawFromVault(uint256)": "infinite"
			}
		},
		"methodIdentifiers": {
			"____allowTokenInToSafe(address)": "18b31027",
			"____allowTokenOutOfSafe(address)": "a6a2fcd7",
			"____assignTokenToChainlinkPriceFeed(address,address)": "82a3abac",
			"____burn(uint256)": "b74456f2",
			"____forbidTokenInToSafe(address)": "e5e45084",
			"____forbidTokenOutOfSafe(address)": "b74cbb41",
			"____mint(uint256)": "49e7012c",
			"____setName(string)": "e0089dc3",
			"____setSymbol(string)": "1e96c1dd",
			"____unassignTokenToChainlinkPriceFeed(address)": "179dff70",
			"____withdraw(address,address,uint256)": "36447c4e",
			"____withdraw(address,uint256)": "31b94450",
			"allowance(address,address)": "dd62ed3e",
			"approve(address,uint256)": "095ea7b3",
			"balanceOf(address)": "70a08231",
			"balanceOfAt(address,uint256)": "4ee2cd7e",
			"convertToAssets(uint256)": "07a2d13a",
			"convertToShares(address,uint256)": "3e5541f1",
			"decimals()": "313ce567",
			"decreaseAllowance(address,uint256)": "a457c2d7",
			"deposit()": "d0e30db0",
			"deposit(address,uint256)": "47e7ef24",
			"depositInVault(address,uint256)": "945fb81d",
			"getChainlinkLatestAnswer(address)": "d1a7092c",
			"getChainlinkLatestTimestamp(address)": "1128ea3b",
			"getChainlinkPriceFeed(address)": "94abc1af",
			"getCurrentSnapshotId()": "5439ad86",
			"getHoldingsInSafe(address)": "3e800148",
			"getTokenAllowedInToSafe(uint256)": "e13a96d6",
			"getTokenAllowedOutFromSafe(uint256)": "0a885f95",
			"getTokensAllowedInToSafe()": "2a77d7b8",
			"getTokensAllowedOutFromSafe()": "464964b1",
			"hasChainlinkPriceFeed(address)": "ce49c9b3",
			"increaseAllowance(address,uint256)": "39509351",
			"isAllowedIn(address)": "b3a54f1b",
			"isAllowedOut(address)": "182a9420",
			"name()": "06fdde03",
			"snapshot()": "9711715a",
			"symbol()": "95d89b41",
			"totalAssets()": "01e1d114",
			"totalAssetsPerShare()": "19d0c2fa",
			"totalSupply()": "18160ddd",
			"totalSupplyAt(uint256)": "981b24d0",
			"transfer(address,uint256)": "a9059cbb",
			"transferFrom(address,address,uint256)": "23b872dd",
			"withdrawFromVault(uint256)": "076d0815"
		}
	},
	"abi": [
		{
			"anonymous": false,
			"inputs": [
				{
					"indexed": true,
					"internalType": "address",
					"name": "owner",
					"type": "address"
				},
				{
					"indexed": true,
					"internalType": "address",
					"name": "spender",
					"type": "address"
				},
				{
					"indexed": false,
					"internalType": "uint256",
					"name": "value",
					"type": "uint256"
				}
			],
			"name": "Approval",
			"type": "event"
		},
		{
			"anonymous": false,
			"inputs": [
				{
					"indexed": true,
					"internalType": "address",
					"name": "token",
					"type": "address"
				},
				{
					"indexed": true,
					"internalType": "address",
					"name": "oldPriceFeed",
					"type": "address"
				},
				{
					"indexed": true,
					"internalType": "address",
					"name": "newPriceFeed",
					"type": "address"
				}
			],
			"name": "ChainlinkPriceFeedAssigned",
			"type": "event"
		},
		{
			"anonymous": false,
			"inputs": [
				{
					"indexed": true,
					"internalType": "address",
					"name": "from",
					"type": "address"
				},
				{
					"indexed": true,
					"internalType": "address",
					"name": "tokenIn",
					"type": "address"
				},
				{
					"indexed": true,
					"internalType": "uint256",
					"name": "amountIn",
					"type": "uint256"
				}
			],
			"name": "Deposit",
			"type": "event"
		},
		{
			"anonymous": false,
			"inputs": [
				{
					"indexed": true,
					"internalType": "address",
					"name": "from",
					"type": "address"
				},
				{
					"indexed": true,
					"internalType": "address",
					"name": "tokenIn",
					"type": "address"
				},
				{
					"indexed": true,
					"internalType": "uint256",
					"name": "amountIn",
					"type": "uint256"
				},
				{
					"indexed": false,
					"internalType": "uint256",
					"name": "amountOut",
					"type": "uint256"
				}
			],
			"name": "DepositInVault",
			"type": "event"
		},
		{
			"anonymous": false,
			"inputs": [
				{
					"indexed": true,
					"internalType": "address",
					"name": "tokenIn",
					"type": "address"
				}
			],
			"name": "PermissionGrantedTokenIn",
			"type": "event"
		},
		{
			"anonymous": false,
			"inputs": [
				{
					"indexed": true,
					"internalType": "address",
					"name": "tokenOut",
					"type": "address"
				}
			],
			"name": "PermissionGrantedTokenOut",
			"type": "event"
		},
		{
			"anonymous": false,
			"inputs": [
				{
					"indexed": true,
					"internalType": "address",
					"name": "tokenIn",
					"type": "address"
				}
			],
			"name": "PermissionRevokedTokenIn",
			"type": "event"
		},
		{
			"anonymous": false,
			"inputs": [
				{
					"indexed": true,
					"internalType": "address",
					"name": "tokenOut",
					"type": "address"
				}
			],
			"name": "PermissionRevokedTokenOut",
			"type": "event"
		},
		{
			"anonymous": false,
			"inputs": [
				{
					"indexed": false,
					"internalType": "uint256",
					"name": "id",
					"type": "uint256"
				}
			],
			"name": "Snapshot",
			"type": "event"
		},
		{
			"anonymous": false,
			"inputs": [
				{
					"indexed": true,
					"internalType": "string",
					"name": "oldName",
					"type": "string"
				},
				{
					"indexed": true,
					"internalType": "string",
					"name": "newName",
					"type": "string"
				}
			],
			"name": "TokenNameChanged",
			"type": "event"
		},
		{
			"anonymous": false,
			"inputs": [
				{
					"indexed": true,
					"internalType": "string",
					"name": "oldSymbol",
					"type": "string"
				},
				{
					"indexed": true,
					"internalType": "string",
					"name": "newSymbol",
					"type": "string"
				}
			],
			"name": "TokenSymbolChanged",
			"type": "event"
		},
		{
			"anonymous": false,
			"inputs": [
				{
					"indexed": true,
					"internalType": "address",
					"name": "from",
					"type": "address"
				},
				{
					"indexed": true,
					"internalType": "address",
					"name": "to",
					"type": "address"
				},
				{
					"indexed": false,
					"internalType": "uint256",
					"name": "value",
					"type": "uint256"
				}
			],
			"name": "Transfer",
			"type": "event"
		},
		{
			"anonymous": false,
			"inputs": [
				{
					"indexed": true,
					"internalType": "address",
					"name": "to",
					"type": "address"
				},
				{
					"indexed": true,
					"internalType": "address",
					"name": "tokenOut",
					"type": "address"
				},
				{
					"indexed": true,
					"internalType": "uint256",
					"name": "amountOut",
					"type": "uint256"
				}
			],
			"name": "Withdraw",
			"type": "event"
		},
		{
			"anonymous": false,
			"inputs": [
				{
					"indexed": true,
					"internalType": "address",
					"name": "to",
					"type": "address"
				},
				{
					"indexed": true,
					"internalType": "uint256",
					"name": "amountIn",
					"type": "uint256"
				},
				{
					"indexed": true,
					"internalType": "uint256",
					"name": "amountOut",
					"type": "uint256"
				}
			],
			"name": "WithdrawFromVault",
			"type": "event"
		},
		{
			"inputs": [
				{
					"internalType": "address",
					"name": "token",
					"type": "address"
				}
			],
			"name": "____allowTokenInToSafe",
			"outputs": [],
			"stateMutability": "nonpayable",
			"type": "function"
		},
		{
			"inputs": [
				{
					"internalType": "address",
					"name": "token",
					"type": "address"
				}
			],
			"name": "____allowTokenOutOfSafe",
			"outputs": [],
			"stateMutability": "nonpayable",
			"type": "function"
		},
		{
			"inputs": [
				{
					"internalType": "address",
					"name": "token",
					"type": "address"
				},
				{
					"internalType": "address",
					"name": "newPriceFeed",
					"type": "address"
				}
			],
			"name": "____assignTokenToChainlinkPriceFeed",
			"outputs": [],
			"stateMutability": "nonpayable",
			"type": "function"
		},
		{
			"inputs": [
				{
					"internalType": "uint256",
					"name": "amount",
					"type": "uint256"
				}
			],
			"name": "____burn",
			"outputs": [],
			"stateMutability": "nonpayable",
			"type": "function"
		},
		{
			"inputs": [
				{
					"internalType": "address",
					"name": "token",
					"type": "address"
				}
			],
			"name": "____forbidTokenInToSafe",
			"outputs": [],
			"stateMutability": "nonpayable",
			"type": "function"
		},
		{
			"inputs": [
				{
					"internalType": "address",
					"name": "token",
					"type": "address"
				}
			],
			"name": "____forbidTokenOutOfSafe",
			"outputs": [],
			"stateMutability": "nonpayable",
			"type": "function"
		},
		{
			"inputs": [
				{
					"internalType": "uint256",
					"name": "amount",
					"type": "uint256"
				}
			],
			"name": "____mint",
			"outputs": [],
			"stateMutability": "nonpayable",
			"type": "function"
		},
		{
			"inputs": [
				{
					"internalType": "string",
					"name": "newName",
					"type": "string"
				}
			],
			"name": "____setName",
			"outputs": [],
			"stateMutability": "nonpayable",
			"type": "function"
		},
		{
			"inputs": [
				{
					"internalType": "string",
					"name": "newSymbol",
					"type": "string"
				}
			],
			"name": "____setSymbol",
			"outputs": [],
			"stateMutability": "nonpayable",
			"type": "function"
		},
		{
			"inputs": [
				{
					"internalType": "address",
					"name": "token",
					"type": "address"
				}
			],
			"name": "____unassignTokenToChainlinkPriceFeed",
			"outputs": [],
			"stateMutability": "nonpayable",
			"type": "function"
		},
		{
			"inputs": [
				{
					"internalType": "address",
					"name": "to",
					"type": "address"
				},
				{
					"internalType": "uint256",
					"name": "amountOut",
					"type": "uint256"
				}
			],
			"name": "____withdraw",
			"outputs": [],
			"stateMutability": "nonpayable",
			"type": "function"
		},
		{
			"inputs": [
				{
					"internalType": "address",
					"name": "to",
					"type": "address"
				},
				{
					"internalType": "address",
					"name": "tokenOut",
					"type": "address"
				},
				{
					"internalType": "uint256",
					"name": "amountOut",
					"type": "uint256"
				}
			],
			"name": "____withdraw",
			"outputs": [],
			"stateMutability": "nonpayable",
			"type": "function"
		},
		{
			"inputs": [
				{
					"internalType": "address",
					"name": "owner_",
					"type": "address"
				},
				{
					"internalType": "address",
					"name": "spender",
					"type": "address"
				}
			],
			"name": "allowance",
			"outputs": [
				{
					"internalType": "uint256",
					"name": "",
					"type": "uint256"
				}
			],
			"stateMutability": "view",
			"type": "function"
		},
		{
			"inputs": [
				{
					"internalType": "address",
					"name": "spender",
					"type": "address"
				},
				{
					"internalType": "uint256",
					"name": "amount",
					"type": "uint256"
				}
			],
			"name": "approve",
			"outputs": [
				{
					"internalType": "bool",
					"name": "",
					"type": "bool"
				}
			],
			"stateMutability": "nonpayable",
			"type": "function"
		},
		{
			"inputs": [
				{
					"internalType": "address",
					"name": "account",
					"type": "address"
				}
			],
			"name": "balanceOf",
			"outputs": [
				{
					"internalType": "uint256",
					"name": "",
					"type": "uint256"
				}
			],
			"stateMutability": "view",
			"type": "function"
		},
		{
			"inputs": [
				{
					"internalType": "address",
					"name": "account",
					"type": "address"
				},
				{
					"internalType": "uint256",
					"name": "snapshotId",
					"type": "uint256"
				}
			],
			"name": "balanceOfAt",
			"outputs": [
				{
					"internalType": "uint256",
					"name": "",
					"type": "uint256"
				}
			],
			"stateMutability": "view",
			"type": "function"
		},
		{
			"inputs": [
				{
					"internalType": "uint256",
					"name": "amountIn",
					"type": "uint256"
				}
			],
			"name": "convertToAssets",
			"outputs": [
				{
					"internalType": "uint256",
					"name": "",
					"type": "uint256"
				}
			],
			"stateMutability": "view",
			"type": "function"
		},
		{
			"inputs": [
				{
					"internalType": "address",
					"name": "tokenIn",
					"type": "address"
				},
				{
					"internalType": "uint256",
					"name": "amountIn",
					"type": "uint256"
				}
			],
			"name": "convertToShares",
			"outputs": [
				{
					"internalType": "uint256",
					"name": "",
					"type": "uint256"
				}
			],
			"stateMutability": "view",
			"type": "function"
		},
		{
			"inputs": [],
			"name": "decimals",
			"outputs": [
				{
					"internalType": "uint8",
					"name": "",
					"type": "uint8"
				}
			],
			"stateMutability": "view",
			"type": "function"
		},
		{
			"inputs": [
				{
					"internalType": "address",
					"name": "spender",
					"type": "address"
				},
				{
					"internalType": "uint256",
					"name": "subtractedValue",
					"type": "uint256"
				}
			],
			"name": "decreaseAllowance",
			"outputs": [
				{
					"internalType": "bool",
					"name": "",
					"type": "bool"
				}
			],
			"stateMutability": "nonpayable",
			"type": "function"
		},
		{
			"inputs": [
				{
					"internalType": "address",
					"name": "tokenIn",
					"type": "address"
				},
				{
					"internalType": "uint256",
					"name": "amountIn",
					"type": "uint256"
				}
			],
			"name": "deposit",
			"outputs": [],
			"stateMutability": "nonpayable",
			"type": "function"
		},
		{
			"inputs": [],
			"name": "deposit",
			"outputs": [],
			"stateMutability": "payable",
			"type": "function"
		},
		{
			"inputs": [
				{
					"internalType": "address",
					"name": "tokenIn",
					"type": "address"
				},
				{
					"internalType": "uint256",
					"name": "amountIn",
					"type": "uint256"
				}
			],
			"name": "depositInVault",
			"outputs": [],
			"stateMutability": "nonpayable",
			"type": "function"
		},
		{
			"inputs": [
				{
					"internalType": "address",
					"name": "token",
					"type": "address"
				}
			],
			"name": "getChainlinkLatestAnswer",
			"outputs": [
				{
					"internalType": "uint256",
					"name": "",
					"type": "uint256"
				}
			],
			"stateMutability": "view",
			"type": "function"
		},
		{
			"inputs": [
				{
					"internalType": "address",
					"name": "token",
					"type": "address"
				}
			],
			"name": "getChainlinkLatestTimestamp",
			"outputs": [
				{
					"internalType": "uint256",
					"name": "",
					"type": "uint256"
				}
			],
			"stateMutability": "view",
			"type": "function"
		},
		{
			"inputs": [
				{
					"internalType": "address",
					"name": "token",
					"type": "address"
				}
			],
			"name": "getChainlinkPriceFeed",
			"outputs": [
				{
					"internalType": "address",
					"name": "",
					"type": "address"
				}
			],
			"stateMutability": "view",
			"type": "function"
		},
		{
			"inputs": [],
			"name": "getCurrentSnapshotId",
			"outputs": [
				{
					"internalType": "uint256",
					"name": "",
					"type": "uint256"
				}
			],
			"stateMutability": "view",
			"type": "function"
		},
		{
			"inputs": [
				{
					"internalType": "address",
					"name": "token",
					"type": "address"
				}
			],
			"name": "getHoldingsInSafe",
			"outputs": [
				{
					"internalType": "uint256",
					"name": "",
					"type": "uint256"
				}
			],
			"stateMutability": "view",
			"type": "function"
		},
		{
			"inputs": [
				{
					"internalType": "uint256",
					"name": "tokenId",
					"type": "uint256"
				}
			],
			"name": "getTokenAllowedInToSafe",
			"outputs": [
				{
					"internalType": "address",
					"name": "",
					"type": "address"
				}
			],
			"stateMutability": "view",
			"type": "function"
		},
		{
			"inputs": [
				{
					"internalType": "uint256",
					"name": "tokenId",
					"type": "uint256"
				}
			],
			"name": "getTokenAllowedOutFromSafe",
			"outputs": [
				{
					"internalType": "address",
					"name": "",
					"type": "address"
				}
			],
			"stateMutability": "view",
			"type": "function"
		},
		{
			"inputs": [],
			"name": "getTokensAllowedInToSafe",
			"outputs": [
				{
					"internalType": "address[]",
					"name": "",
					"type": "address[]"
				}
			],
			"stateMutability": "view",
			"type": "function"
		},
		{
			"inputs": [],
			"name": "getTokensAllowedOutFromSafe",
			"outputs": [
				{
					"internalType": "address[]",
					"name": "",
					"type": "address[]"
				}
			],
			"stateMutability": "view",
			"type": "function"
		},
		{
			"inputs": [
				{
					"internalType": "address",
					"name": "token",
					"type": "address"
				}
			],
			"name": "hasChainlinkPriceFeed",
			"outputs": [
				{
					"internalType": "bool",
					"name": "",
					"type": "bool"
				}
			],
			"stateMutability": "view",
			"type": "function"
		},
		{
			"inputs": [
				{
					"internalType": "address",
					"name": "spender",
					"type": "address"
				},
				{
					"internalType": "uint256",
					"name": "addedValue",
					"type": "uint256"
				}
			],
			"name": "increaseAllowance",
			"outputs": [
				{
					"internalType": "bool",
					"name": "",
					"type": "bool"
				}
			],
			"stateMutability": "nonpayable",
			"type": "function"
		},
		{
			"inputs": [
				{
					"internalType": "address",
					"name": "token",
					"type": "address"
				}
			],
			"name": "isAllowedIn",
			"outputs": [
				{
					"internalType": "bool",
					"name": "",
					"type": "bool"
				}
			],
			"stateMutability": "view",
			"type": "function"
		},
		{
			"inputs": [
				{
					"internalType": "address",
					"name": "token",
					"type": "address"
				}
			],
			"name": "isAllowedOut",
			"outputs": [
				{
					"internalType": "bool",
					"name": "",
					"type": "bool"
				}
			],
			"stateMutability": "view",
			"type": "function"
		},
		{
			"inputs": [],
			"name": "name",
			"outputs": [
				{
					"internalType": "string",
					"name": "",
					"type": "string"
				}
			],
			"stateMutability": "view",
			"type": "function"
		},
		{
			"inputs": [],
			"name": "snapshot",
			"outputs": [
				{
					"internalType": "uint256",
					"name": "",
					"type": "uint256"
				}
			],
			"stateMutability": "nonpayable",
			"type": "function"
		},
		{
			"inputs": [],
			"name": "symbol",
			"outputs": [
				{
					"internalType": "string",
					"name": "",
					"type": "string"
				}
			],
			"stateMutability": "view",
			"type": "function"
		},
		{
			"inputs": [],
			"name": "totalAssets",
			"outputs": [
				{
					"internalType": "uint256",
					"name": "",
					"type": "uint256"
				}
			],
			"stateMutability": "view",
			"type": "function"
		},
		{
			"inputs": [],
			"name": "totalAssetsPerShare",
			"outputs": [
				{
					"internalType": "uint256",
					"name": "",
					"type": "uint256"
				}
			],
			"stateMutability": "view",
			"type": "function"
		},
		{
			"inputs": [],
			"name": "totalSupply",
			"outputs": [
				{
					"internalType": "uint256",
					"name": "",
					"type": "uint256"
				}
			],
			"stateMutability": "view",
			"type": "function"
		},
		{
			"inputs": [
				{
					"internalType": "uint256",
					"name": "snapshotId",
					"type": "uint256"
				}
			],
			"name": "totalSupplyAt",
			"outputs": [
				{
					"internalType": "uint256",
					"name": "",
					"type": "uint256"
				}
			],
			"stateMutability": "view",
			"type": "function"
		},
		{
			"inputs": [
				{
					"internalType": "address",
					"name": "to",
					"type": "address"
				},
				{
					"internalType": "uint256",
					"name": "amount",
					"type": "uint256"
				}
			],
			"name": "transfer",
			"outputs": [
				{
					"internalType": "bool",
					"name": "",
					"type": "bool"
				}
			],
			"stateMutability": "nonpayable",
			"type": "function"
		},
		{
			"inputs": [
				{
					"internalType": "address",
					"name": "from",
					"type": "address"
				},
				{
					"internalType": "address",
					"name": "to",
					"type": "address"
				},
				{
					"internalType": "uint256",
					"name": "amount",
					"type": "uint256"
				}
			],
			"name": "transferFrom",
			"outputs": [
				{
					"internalType": "bool",
					"name": "",
					"type": "bool"
				}
			],
			"stateMutability": "nonpayable",
			"type": "function"
		},
		{
			"inputs": [
				{
					"internalType": "uint256",
					"name": "amountIn",
					"type": "uint256"
				}
			],
			"name": "withdrawFromVault",
			"outputs": [],
			"stateMutability": "nonpayable",
			"type": "function"
		}
	]
}